{
  "_format": "hh-sol-artifact-1",
  "contractName": "OpenMarketPricer",
  "sourceName": "contracts/openMarketPricer.sol",
  "abi": [
    {
      "inputs": [],
      "stateMutability": "nonpayable",
      "type": "constructor"
    },
    {
      "anonymous": false,
      "inputs": [
        {
          "indexed": false,
          "internalType": "uint8",
          "name": "version",
          "type": "uint8"
        }
      ],
      "name": "Initialized",
      "type": "event"
    },
    {
      "anonymous": false,
      "inputs": [
        {
          "indexed": true,
          "internalType": "uint32",
          "name": "assetA",
          "type": "uint32"
        },
        {
          "indexed": true,
          "internalType": "uint256",
          "name": "amountA",
          "type": "uint256"
        },
        {
          "indexed": false,
          "internalType": "uint32",
          "name": "assetB",
          "type": "uint32"
        },
        {
          "indexed": false,
          "internalType": "uint256",
          "name": "amountB",
          "type": "uint256"
        }
      ],
      "name": "QuoteStored",
      "type": "event"
    },
    {
      "anonymous": false,
      "inputs": [
        {
          "indexed": true,
          "internalType": "bytes32",
          "name": "role",
          "type": "bytes32"
        },
        {
          "indexed": true,
          "internalType": "bytes32",
          "name": "previousAdminRole",
          "type": "bytes32"
        },
        {
          "indexed": true,
          "internalType": "bytes32",
          "name": "newAdminRole",
          "type": "bytes32"
        }
      ],
      "name": "RoleAdminChanged",
      "type": "event"
    },
    {
      "anonymous": false,
      "inputs": [
        {
          "indexed": true,
          "internalType": "bytes32",
          "name": "role",
          "type": "bytes32"
        },
        {
          "indexed": true,
          "internalType": "address",
          "name": "account",
          "type": "address"
        },
        {
          "indexed": true,
          "internalType": "address",
          "name": "sender",
          "type": "address"
        }
      ],
      "name": "RoleGranted",
      "type": "event"
    },
    {
      "anonymous": false,
      "inputs": [
        {
          "indexed": true,
          "internalType": "bytes32",
          "name": "role",
          "type": "bytes32"
        },
        {
          "indexed": true,
          "internalType": "address",
          "name": "account",
          "type": "address"
        },
        {
          "indexed": true,
          "internalType": "address",
          "name": "sender",
          "type": "address"
        }
      ],
      "name": "RoleRevoked",
      "type": "event"
    },
    {
      "inputs": [],
      "name": "DEFAULT_ADMIN_ROLE",
      "outputs": [
        {
          "internalType": "bytes32",
          "name": "",
          "type": "bytes32"
        }
      ],
      "stateMutability": "view",
      "type": "function"
    },
    {
      "inputs": [
        {
          "internalType": "uint32",
          "name": "assetId",
          "type": "uint32"
        }
      ],
      "name": "addSupportedAsset",
      "outputs": [],
      "stateMutability": "nonpayable",
      "type": "function"
    },
    {
      "inputs": [],
      "name": "alpha",
      "outputs": [
        {
          "internalType": "uint256",
          "name": "",
          "type": "uint256"
        }
      ],
      "stateMutability": "view",
      "type": "function"
    },
    {
      "inputs": [
        {
          "internalType": "uint32",
          "name": "assetIdA",
          "type": "uint32"
        },
        {
          "internalType": "uint32",
          "name": "assetIdB",
          "type": "uint32"
        }
      ],
      "name": "calcPriceId",
      "outputs": [
        {
          "internalType": "bytes32",
          "name": "",
          "type": "bytes32"
        }
      ],
      "stateMutability": "pure",
      "type": "function"
    },
    {
      "inputs": [
        {
          "internalType": "uint32",
          "name": "assetId",
          "type": "uint32"
        },
        {
          "internalType": "uint256",
          "name": "amount",
          "type": "uint256"
        }
      ],
      "name": "calculateAssetAmountToPoints",
      "outputs": [
        {
          "internalType": "uint256",
          "name": "",
          "type": "uint256"
        }
      ],
      "stateMutability": "view",
      "type": "function"
    },
    {
      "inputs": [
        {
          "internalType": "uint32",
          "name": "assetA",
          "type": "uint32"
        },
        {
          "internalType": "uint32",
          "name": "assetB",
          "type": "uint32"
        }
      ],
      "name": "getOpenMarketPrice",
      "outputs": [
        {
          "internalType": "uint256",
          "name": "",
          "type": "uint256"
        }
      ],
      "stateMutability": "view",
      "type": "function"
    },
    {
      "inputs": [
        {
          "internalType": "uint32",
          "name": "assetId",
          "type": "uint32"
        }
      ],
      "name": "getPointsPerAssetUnit",
      "outputs": [
        {
          "internalType": "uint256",
          "name": "",
          "type": "uint256"
        }
      ],
      "stateMutability": "view",
      "type": "function"
    },
    {
      "inputs": [
        {
          "internalType": "uint32",
          "name": "assetA",
          "type": "uint32"
        },
        {
          "internalType": "uint32",
          "name": "assetB",
          "type": "uint32"
        }
      ],
      "name": "getPointsPrice",
      "outputs": [
        {
          "internalType": "uint256",
          "name": "",
          "type": "uint256"
        }
      ],
      "stateMutability": "view",
      "type": "function"
    },
    {
      "inputs": [
        {
          "internalType": "uint32",
          "name": "assetA",
          "type": "uint32"
        },
        {
          "internalType": "uint32",
          "name": "assetB",
          "type": "uint32"
        }
      ],
      "name": "getPrice",
      "outputs": [
        {
          "internalType": "uint256",
          "name": "",
          "type": "uint256"
        }
      ],
      "stateMutability": "view",
      "type": "function"
    },
    {
      "inputs": [
        {
          "internalType": "bytes32",
          "name": "role",
          "type": "bytes32"
        }
      ],
      "name": "getRoleAdmin",
      "outputs": [
        {
          "internalType": "bytes32",
          "name": "",
          "type": "bytes32"
        }
      ],
      "stateMutability": "view",
      "type": "function"
    },
    {
      "inputs": [],
      "name": "getSupportedAssets",
      "outputs": [
        {
          "internalType": "uint32[]",
          "name": "",
          "type": "uint32[]"
        }
      ],
      "stateMutability": "view",
      "type": "function"
    },
    {
      "inputs": [
        {
          "internalType": "uint32",
          "name": "assetA",
          "type": "uint32"
        },
        {
          "internalType": "uint32",
          "name": "assetB",
          "type": "uint32"
        }
      ],
      "name": "getVolume",
      "outputs": [
        {
          "internalType": "uint256",
          "name": "",
          "type": "uint256"
        }
      ],
      "stateMutability": "view",
      "type": "function"
    },
    {
      "inputs": [
        {
          "internalType": "bytes32",
          "name": "role",
          "type": "bytes32"
        },
        {
          "internalType": "address",
          "name": "account",
          "type": "address"
        }
      ],
      "name": "grantRole",
      "outputs": [],
      "stateMutability": "nonpayable",
      "type": "function"
    },
    {
      "inputs": [
        {
          "internalType": "bytes32",
          "name": "role",
          "type": "bytes32"
        },
        {
          "internalType": "address",
          "name": "account",
          "type": "address"
        }
      ],
      "name": "hasRole",
      "outputs": [
        {
          "internalType": "bool",
          "name": "",
          "type": "bool"
        }
      ],
      "stateMutability": "view",
      "type": "function"
    },
    {
      "inputs": [
        {
          "internalType": "address",
          "name": "_owner",
          "type": "address"
        }
      ],
      "name": "initialize",
      "outputs": [],
      "stateMutability": "nonpayable",
      "type": "function"
    },
    {
      "inputs": [],
      "name": "isOnFlag",
      "outputs": [
        {
          "internalType": "bool",
          "name": "",
          "type": "bool"
        }
      ],
      "stateMutability": "view",
      "type": "function"
    },
    {
      "inputs": [
        {
          "internalType": "uint32",
          "name": "assetId",
          "type": "uint32"
        }
      ],
      "name": "isSupportedAsset",
      "outputs": [
        {
          "internalType": "bool",
          "name": "",
          "type": "bool"
        }
      ],
      "stateMutability": "view",
      "type": "function"
    },
    {
      "inputs": [
        {
          "internalType": "bytes32",
          "name": "",
          "type": "bytes32"
        }
      ],
      "name": "perPairPrices",
      "outputs": [
        {
          "internalType": "uint256",
          "name": "price",
          "type": "uint256"
        },
        {
          "internalType": "uint256",
          "name": "volume",
          "type": "uint256"
        },
        {
          "internalType": "uint256",
          "name": "lastUpdateTime",
          "type": "uint256"
        }
      ],
      "stateMutability": "view",
      "type": "function"
    },
    {
      "inputs": [
        {
          "internalType": "uint32",
          "name": "",
          "type": "uint32"
        }
      ],
      "name": "pointsPerAssetUnit",
      "outputs": [
        {
          "internalType": "uint256",
          "name": "",
          "type": "uint256"
        }
      ],
      "stateMutability": "view",
      "type": "function"
    },
    {
      "inputs": [],
      "name": "remoteOrder",
      "outputs": [
        {
          "internalType": "contract RemoteOrder",
          "name": "",
          "type": "address"
        }
      ],
      "stateMutability": "view",
      "type": "function"
    },
    {
      "inputs": [
        {
          "internalType": "uint32",
          "name": "assetId",
          "type": "uint32"
        }
      ],
      "name": "removeSupportedAsset",
      "outputs": [],
      "stateMutability": "nonpayable",
      "type": "function"
    },
    {
      "inputs": [
        {
          "internalType": "bytes32",
          "name": "role",
          "type": "bytes32"
        },
        {
          "internalType": "address",
          "name": "account",
          "type": "address"
        }
      ],
      "name": "renounceRole",
      "outputs": [],
      "stateMutability": "nonpayable",
      "type": "function"
    },
    {
      "inputs": [
        {
          "internalType": "bytes32",
          "name": "role",
          "type": "bytes32"
        },
        {
          "internalType": "address",
          "name": "account",
          "type": "address"
        }
      ],
      "name": "revokeRole",
      "outputs": [],
      "stateMutability": "nonpayable",
      "type": "function"
    },
    {
      "inputs": [
        {
          "internalType": "uint256",
          "name": "_alpha",
          "type": "uint256"
        }
      ],
      "name": "setAlpha",
      "outputs": [],
      "stateMutability": "nonpayable",
      "type": "function"
    },
    {
      "inputs": [
        {
          "internalType": "uint32",
          "name": "assetId",
          "type": "uint32"
        },
        {
          "internalType": "uint256",
          "name": "points",
          "type": "uint256"
        }
      ],
      "name": "setPointsPerAssetUnit",
      "outputs": [],
      "stateMutability": "nonpayable",
      "type": "function"
    },
    {
      "inputs": [
        {
          "internalType": "address payable",
          "name": "_remoteOrder",
          "type": "address"
        }
      ],
      "name": "setRemoteOrder",
      "outputs": [],
      "stateMutability": "nonpayable",
      "type": "function"
    },
    {
      "inputs": [
        {
          "internalType": "uint256",
          "name": "_tickInterval",
          "type": "uint256"
        }
      ],
      "name": "setTickInterval",
      "outputs": [],
      "stateMutability": "nonpayable",
      "type": "function"
    },
    {
      "inputs": [
        {
          "internalType": "bool",
          "name": "_usePointsFallback",
          "type": "bool"
        }
      ],
      "name": "setUsePointsFallback",
      "outputs": [],
      "stateMutability": "nonpayable",
      "type": "function"
    },
    {
      "inputs": [
        {
          "internalType": "bytes32",
          "name": "_version",
          "type": "bytes32"
        }
      ],
      "name": "setVersion",
      "outputs": [],
      "stateMutability": "nonpayable",
      "type": "function"
    },
    {
      "inputs": [
        {
          "internalType": "uint256",
          "name": "_volumeConfidenceThreshold",
          "type": "uint256"
        }
      ],
      "name": "setVolumeConfidenceThreshold",
      "outputs": [],
      "stateMutability": "nonpayable",
      "type": "function"
    },
    {
      "inputs": [
        {
          "internalType": "uint32",
          "name": "assetA",
          "type": "uint32"
        },
        {
          "internalType": "uint256",
          "name": "amountA",
          "type": "uint256"
        },
        {
          "internalType": "uint32",
          "name": "assetB",
          "type": "uint32"
        },
        {
          "internalType": "uint256",
          "name": "amountB",
          "type": "uint256"
        }
      ],
      "name": "storeQuote",
      "outputs": [],
      "stateMutability": "nonpayable",
      "type": "function"
    },
    {
      "inputs": [
        {
          "internalType": "uint256",
          "name": "",
          "type": "uint256"
        }
      ],
      "name": "supportedAssets",
      "outputs": [
        {
          "internalType": "uint32",
          "name": "",
          "type": "uint32"
        }
      ],
      "stateMutability": "view",
      "type": "function"
    },
    {
      "inputs": [
        {
          "internalType": "bytes4",
          "name": "interfaceId",
          "type": "bytes4"
        }
      ],
      "name": "supportsInterface",
      "outputs": [
        {
          "internalType": "bool",
          "name": "",
          "type": "bool"
        }
      ],
      "stateMutability": "view",
      "type": "function"
    },
    {
      "inputs": [],
      "name": "tickInterval",
      "outputs": [
        {
          "internalType": "uint256",
          "name": "",
          "type": "uint256"
        }
      ],
      "stateMutability": "view",
      "type": "function"
    },
    {
      "inputs": [],
      "name": "turnOff",
      "outputs": [],
      "stateMutability": "nonpayable",
      "type": "function"
    },
    {
      "inputs": [],
      "name": "turnOn",
      "outputs": [],
      "stateMutability": "nonpayable",
      "type": "function"
    },
    {
      "inputs": [],
      "name": "usePointsFallback",
      "outputs": [
        {
          "internalType": "bool",
          "name": "",
          "type": "bool"
        }
      ],
      "stateMutability": "view",
      "type": "function"
    },
    {
      "inputs": [],
      "name": "version",
      "outputs": [
        {
          "internalType": "bytes32",
          "name": "",
          "type": "bytes32"
        }
      ],
      "stateMutability": "view",
      "type": "function"
    },
    {
      "inputs": [],
      "name": "volumeConfidenceThreshold",
      "outputs": [
        {
          "internalType": "uint256",
          "name": "",
          "type": "uint256"
        }
      ],
      "stateMutability": "view",
      "type": "function"
    }
  ],
  "bytecode": "0x60806040523480156200001157600080fd5b50620000226200002860201b60201c565b620001d2565b600060019054906101000a900460ff16156200007b576040517f08c379a0000000000000000000000000000000000000000000000000000000008152600401620000729062000175565b60405180910390fd5b60ff801660008054906101000a900460ff1660ff1614620000ec5760ff6000806101000a81548160ff021916908360ff1602179055507f7f26b83ff96e1f2b6a682f133852f6798a09c465da95921460cefb384740249860ff604051620000e39190620001b5565b60405180910390a15b565b600082825260208201905092915050565b7f496e697469616c697a61626c653a20636f6e747261637420697320696e69746960008201527f616c697a696e6700000000000000000000000000000000000000000000000000602082015250565b60006200015d602783620000ee565b91506200016a82620000ff565b604082019050919050565b6000602082019050818103600083015262000190816200014e565b9050919050565b600060ff82169050919050565b620001af8162000197565b82525050565b6000602082019050620001cc6000830184620001a4565b92915050565b612d1e80620001e26000396000f3fe608060405234801561001057600080fd5b506004361061023d5760003560e01c8063a217fddf1161013b578063ca5f81b5116100b8578063ddccbeb51161007c578063ddccbeb5146106e8578063e5406dbf14610706578063ea000c5f14610724578063ee99aca914610754578063ffc4fba9146107725761023d565b8063ca5f81b514610630578063cfb199a71461064c578063d547741f1461067c578063db1d0fd514610698578063dd73b8a2146106b65761023d565b8063ba33ed7d116100ff578063ba33ed7d146105a0578063bd290c54146105aa578063c4d66de8146105c8578063c68dbb37146105e4578063c795c917146106145761023d565b8063a217fddf146104fc578063af10c8101461051a578063afaeecf914610524578063afce54d114610540578063b831229d146105705761023d565b806336568abe116101c95780637936e5921161018d5780637936e5921461044457806388a3720c1461046057806391d148541461049057806395bdb0f2146104c05780639b09d317146104de5761023d565b806336568abe146103a257806343afd1ba146103be5780634fd6b342146103da57806354fd4d50146103f6578063630dea7f146104145761023d565b8063248a9ca311610210578063248a9ca3146102ee578063288680ac1461031e5780632f2ff15d1461033a5780632f8cbd6414610356578063362e776b146103725761023d565b8063015c25b01461024257806301ffc9a7146102725780630c17d42c146102a25780631e416030146102be575b600080fd5b61025c60048036038101906102579190611e9f565b61078e565b6040516102699190611ef8565b60405180910390f35b61028c60048036038101906102879190611f6b565b610800565b6040516102999190611fb3565b60405180910390f35b6102bc60048036038101906102b79190611ffa565b61087a565b005b6102d860048036038101906102d39190612027565b6108d0565b6040516102e59190611ef8565b60405180910390f35b6103086004803603810190610303919061209d565b610905565b60405161031591906120d9565b60405180910390f35b61033860048036038101906103339190611ffa565b610925565b005b610354600480360381019061034f9190612152565b61097b565b005b610370600480360381019061036b9190612192565b61099c565b005b61038c60048036038101906103879190611e9f565b610a47565b6040516103999190611ef8565b60405180910390f35b6103bc60048036038101906103b79190612152565b610b22565b005b6103d860048036038101906103d39190612192565b610ba5565b005b6103f460048036038101906103ef9190611ffa565b610d35565b005b6103fe610d8b565b60405161040b91906120d9565b60405180910390f35b61042e60048036038101906104299190612192565b610d91565b60405161043b9190611fb3565b60405180910390f35b61045e600480360381019061045991906121bf565b610e12565b005b61047a60048036038101906104759190612192565b610f45565b6040516104879190611ef8565b60405180910390f35b6104aa60048036038101906104a59190612152565b610f5d565b6040516104b79190611fb3565b60405180910390f35b6104c8610fc8565b6040516104d59190612285565b60405180910390f35b6104e6610fee565b6040516104f39190611ef8565b60405180910390f35b610504610ff4565b60405161051191906120d9565b60405180910390f35b610522610ffb565b005b61053e60048036038101906105399190612027565b611064565b005b61055a60048036038101906105559190611e9f565b6110d8565b6040516105679190611ef8565b60405180910390f35b61058a60048036038101906105859190612192565b6111f2565b6040516105979190611ef8565b60405180910390f35b6105a861121b565b005b6105b2611284565b6040516105bf9190611ef8565b60405180910390f35b6105e260048036038101906105dd91906122a0565b61128a565b005b6105fe60048036038101906105f99190611ffa565b611401565b60405161060b91906122dc565b60405180910390f35b61062e60048036038101906106299190612323565b61143b565b005b61064a6004803603810190610645919061209d565b6114a4565b005b61066660048036038101906106619190611e9f565b6114fa565b60405161067391906120d9565b60405180910390f35b61069660048036038101906106919190612152565b61152d565b005b6106a061154e565b6040516106ad9190611ef8565b60405180910390f35b6106d060048036038101906106cb919061209d565b611554565b6040516106df93929190612350565b60405180910390f35b6106f061157e565b6040516106fd9190611fb3565b60405180910390f35b61070e611591565b60405161071b9190612445565b60405180910390f35b61073e60048036038101906107399190611e9f565b611615565b60405161074b9190611ef8565b60405180910390f35b61075c611694565b6040516107699190611fb3565b60405180910390f35b61078c600480360381019061078791906124a5565b6116a7565b005b600080609960008563ffffffff1663ffffffff1681526020019081526020016000205490506000609960008563ffffffff1663ffffffff16815260200190815260200160002054905080670de0b6b3a7640000836107ec9190612501565b6107f69190612572565b9250505092915050565b60007f7965db0b000000000000000000000000000000000000000000000000000000007bffffffffffffffffffffffffffffffffffffffffffffffffffffffff1916827bffffffffffffffffffffffffffffffffffffffffffffffffffffffff19161480610873575061087282611737565b5b9050919050565b6108876000801b33610f5d565b6108c6576040517f08c379a00000000000000000000000000000000000000000000000000000000081526004016108bd90612626565b60405180910390fd5b80609d8190555050565b6000609960008463ffffffff1663ffffffff16815260200190815260200160002054826108fd9190612501565b905092915050565b600060656000838152602001908152602001600020600101549050919050565b6109326000801b33610f5d565b610971576040517f08c379a000000000000000000000000000000000000000000000000000000000815260040161096890612626565b60405180910390fd5b80609e8190555050565b61098482610905565b61098d816117a1565b61099783836117b5565b505050565b6109a96000801b33610f5d565b6109e8576040517f08c379a00000000000000000000000000000000000000000000000000000000081526004016109df90612626565b60405180910390fd5b6109f181610d91565b610a4457609a8190806001815401808255809150506001900390600052602060002090600891828204019190066004029091909190916101000a81548163ffffffff021916908363ffffffff1602179055505b50565b6000609f60009054906101000a900460ff16610a98576040517f08c379a0000000000000000000000000000000000000000000000000000000008152600401610a8f90612692565b60405180910390fd5b8163ffffffff168363ffffffff1603610abb57670de0b6b3a76400009050610b1c565b6000610ac784846114fa565b9050600060986000838152602001908152602001600020600001549050600060986000848152602001908152602001600020600101549050609860008481526020019081526020016000206000015493505050505b92915050565b610b2a611896565b73ffffffffffffffffffffffffffffffffffffffff168173ffffffffffffffffffffffffffffffffffffffff1614610b97576040517f08c379a0000000000000000000000000000000000000000000000000000000008152600401610b8e90612724565b60405180910390fd5b610ba1828261189e565b5050565b610bb26000801b33610f5d565b610bf1576040517f08c379a0000000000000000000000000000000000000000000000000000000008152600401610be890612626565b60405180910390fd5b60005b609a80549050811015610d31578163ffffffff16609a8281548110610c1c57610c1b612744565b5b90600052602060002090600891828204019190066004029054906101000a900463ffffffff1663ffffffff1603610d2657609a6001609a80549050610c619190612773565b81548110610c7257610c71612744565b5b90600052602060002090600891828204019190066004029054906101000a900463ffffffff16609a8281548110610cac57610cab612744565b5b90600052602060002090600891828204019190066004026101000a81548163ffffffff021916908363ffffffff160217905550609a805480610cf157610cf06127a7565b5b60019003818190600052602060002090600891828204019190066004026101000a81549063ffffffff02191690559055610d31565b806001019050610bf4565b5050565b610d426000801b33610f5d565b610d81576040517f08c379a0000000000000000000000000000000000000000000000000000000008152600401610d7890612626565b60405180910390fd5b80609c8190555050565b609b5481565b600080600090505b609a80549050811015610e07578263ffffffff16609a8281548110610dc157610dc0612744565b5b90600052602060002090600891828204019190066004029054906101000a900463ffffffff1663ffffffff1603610dfc576001915050610e0d565b806001019050610d99565b50600090505b919050565b609760009054906101000a900473ffffffffffffffffffffffffffffffffffffffff1673ffffffffffffffffffffffffffffffffffffffff163373ffffffffffffffffffffffffffffffffffffffff1614610ea2576040517f08c379a0000000000000000000000000000000000000000000000000000000008152600401610e9990612848565b60405180910390fd5b610eab84610d91565b1580610ebd5750610ebb82610d91565b155b610f3f576000610ecd85846114fa565b90506000610edb84876114fa565b90506000429050610eee83878684611980565b610efa82858884611980565b858763ffffffff167f886e4901fcf503705fc6d3d3d229f192299e1b1055514490be09c7561aa5209d8787604051610f33929190612868565b60405180910390a35050505b50505050565b60996020528060005260406000206000915090505481565b60006065600084815260200190815260200160002060000160008373ffffffffffffffffffffffffffffffffffffffff1673ffffffffffffffffffffffffffffffffffffffff16815260200190815260200160002060009054906101000a900460ff16905092915050565b609760009054906101000a900473ffffffffffffffffffffffffffffffffffffffff1681565b609e5481565b6000801b81565b6110086000801b33610f5d565b611047576040517f08c379a000000000000000000000000000000000000000000000000000000000815260040161103e90612626565b60405180910390fd5b6000609f60006101000a81548160ff021916908315150217905550565b6110716000801b33610f5d565b6110b0576040517f08c379a00000000000000000000000000000000000000000000000000000000081526004016110a790612626565b60405180910390fd5b80609960008463ffffffff1663ffffffff168152602001908152602001600020819055505050565b6000609f60009054906101000a900460ff16611129576040517f08c379a000000000000000000000000000000000000000000000000000000000815260040161112090612692565b60405180910390fd5b8163ffffffff168363ffffffff160361114c57670de0b6b3a764000090506111ec565b600061115884846114fa565b9050600060986000838152602001908152602001600020600001549050600060986000848152602001908152602001600020600101549050609e548110156111cf57609f60019054906101000a900460ff16156111c3576111b9868661078e565b93505050506111ec565b600093505050506111ec565b609860008481526020019081526020016000206000015493505050505b92915050565b6000609960008363ffffffff1663ffffffff168152602001908152602001600020549050919050565b6112286000801b33610f5d565b611267576040517f08c379a000000000000000000000000000000000000000000000000000000000815260040161125e90612626565b60405180910390fd5b6001609f60006101000a81548160ff021916908315150217905550565b609c5481565b60008060019054906101000a900460ff161590508080156112bb5750600160008054906101000a900460ff1660ff16105b806112e857506112ca30611afc565b1580156112e75750600160008054906101000a900460ff1660ff16145b5b611327576040517f08c379a000000000000000000000000000000000000000000000000000000000815260040161131e90612903565b60405180910390fd5b60016000806101000a81548160ff021916908360ff1602179055508015611364576001600060016101000a81548160ff0219169083151502179055505b61136c611b1f565b6113796000801b836117b5565b603c609c819055506001609d819055506001609f60006101000a81548160ff02191690831515021790555080156113fd5760008060016101000a81548160ff0219169083151502179055507f7f26b83ff96e1f2b6a682f133852f6798a09c465da95921460cefb384740249860016040516113f4919061296b565b60405180910390a15b5050565b609a818154811061141157600080fd5b9060005260206000209060089182820401919006600402915054906101000a900463ffffffff1681565b6114486000801b33610f5d565b611487576040517f08c379a000000000000000000000000000000000000000000000000000000000815260040161147e90612626565b60405180910390fd5b80609f60016101000a81548160ff02191690831515021790555050565b6114b16000801b33610f5d565b6114f0576040517f08c379a00000000000000000000000000000000000000000000000000000000081526004016114e790612626565b60405180910390fd5b80609b8190555050565b6000828260405160200161150f929190612986565b60405160208183030381529060405280519060200120905092915050565b61153682610905565b61153f816117a1565b611549838361189e565b505050565b609d5481565b60986020528060005260406000206000915090508060000154908060010154908060020154905083565b609f60009054906101000a900460ff1681565b6060609a80548060200260200160405190810160405280929190818152602001828054801561160b57602002820191906000526020600020906000905b82829054906101000a900463ffffffff1663ffffffff16815260200190600401906020826003010492830192600103820291508084116115ce5790505b5050505050905090565b6000609f60009054906101000a900460ff16611666576040517f08c379a000000000000000000000000000000000000000000000000000000000815260040161165d90612692565b60405180910390fd5b600061167284846114fa565b9050609860008281526020019081526020016000206001015491505092915050565b609f60019054906101000a900460ff1681565b6116b46000801b33610f5d565b6116f3576040517f08c379a00000000000000000000000000000000000000000000000000000000081526004016116ea90612626565b60405180910390fd5b80609760006101000a81548173ffffffffffffffffffffffffffffffffffffffff021916908373ffffffffffffffffffffffffffffffffffffffff16021790555050565b60007f01ffc9a7000000000000000000000000000000000000000000000000000000007bffffffffffffffffffffffffffffffffffffffffffffffffffffffff1916827bffffffffffffffffffffffffffffffffffffffffffffffffffffffff1916149050919050565b6117b2816117ad611896565b611b70565b50565b6117bf8282610f5d565b6118925760016065600084815260200190815260200160002060000160008373ffffffffffffffffffffffffffffffffffffffff1673ffffffffffffffffffffffffffffffffffffffff16815260200190815260200160002060006101000a81548160ff021916908315150217905550611837611896565b73ffffffffffffffffffffffffffffffffffffffff168173ffffffffffffffffffffffffffffffffffffffff16837f2f8788117e7eff1d82e926ec794901d17c78024a50270940304540a733656f0d60405160405180910390a45b5050565b600033905090565b6118a88282610f5d565b1561197c5760006065600084815260200190815260200160002060000160008373ffffffffffffffffffffffffffffffffffffffff1673ffffffffffffffffffffffffffffffffffffffff16815260200190815260200160002060006101000a81548160ff021916908315150217905550611921611896565b73ffffffffffffffffffffffffffffffffffffffff168173ffffffffffffffffffffffffffffffffffffffff16837ff6391f5c32d9c69d2a47ea670b442974b53935d1edc7fd64eb21e047a839171b60405160405180910390a45b5050565b600060986000868152602001908152602001600020905060008160020154036119d85782670de0b6b3a7640000856119b89190612501565b6119c29190612572565b8160000181905550838160010181905550611aec565b60008160020154836119ea9190612773565b9050609c548110611ace57600084670de0b6b3a764000087611a0c9190612501565b611a169190612572565b9050670de0b6b3a7640000609d5482611a2f9190612501565b609d54670de0b6b3a7640000611a459190612773565b8560000154611a549190612501565b611a5e91906129af565b611a689190612572565b8360000181905550670de0b6b3a7640000609d5487611a879190612501565b609d54670de0b6b3a7640000611a9d9190612773565b8560010154611aac9190612501565b611ab691906129af565b611ac09190612572565b836001018190555050611aea565b84826001016000828254611ae291906129af565b925050819055505b505b8181600201819055505050505050565b6000808273ffffffffffffffffffffffffffffffffffffffff163b119050919050565b600060019054906101000a900460ff16611b6e576040517f08c379a0000000000000000000000000000000000000000000000000000000008152600401611b6590612a55565b60405180910390fd5b565b611b7a8282610f5d565b611bf157611b8781611bf5565b611b958360001c6020611c22565b604051602001611ba6929190612b7e565b6040516020818303038152906040526040517f08c379a0000000000000000000000000000000000000000000000000000000008152600401611be89190612c02565b60405180910390fd5b5050565b6060611c1b8273ffffffffffffffffffffffffffffffffffffffff16601460ff16611c22565b9050919050565b606060006002836002611c359190612501565b611c3f91906129af565b67ffffffffffffffff811115611c5857611c57612c24565b5b6040519080825280601f01601f191660200182016040528015611c8a5781602001600182028036833780820191505090505b5090507f300000000000000000000000000000000000000000000000000000000000000081600081518110611cc257611cc1612744565b5b60200101907effffffffffffffffffffffffffffffffffffffffffffffffffffffffffffff1916908160001a9053507f780000000000000000000000000000000000000000000000000000000000000081600181518110611d2657611d25612744565b5b60200101907effffffffffffffffffffffffffffffffffffffffffffffffffffffffffffff1916908160001a90535060006001846002611d669190612501565b611d7091906129af565b90505b6001811115611e10577f3031323334353637383961626364656600000000000000000000000000000000600f861660108110611db257611db1612744565b5b1a60f81b828281518110611dc957611dc8612744565b5b60200101907effffffffffffffffffffffffffffffffffffffffffffffffffffffffffffff1916908160001a905350600485901c945080611e0990612c53565b9050611d73565b5060008414611e54576040517f08c379a0000000000000000000000000000000000000000000000000000000008152600401611e4b90612cc8565b60405180910390fd5b8091505092915050565b600080fd5b600063ffffffff82169050919050565b611e7c81611e63565b8114611e8757600080fd5b50565b600081359050611e9981611e73565b92915050565b60008060408385031215611eb657611eb5611e5e565b5b6000611ec485828601611e8a565b9250506020611ed585828601611e8a565b9150509250929050565b6000819050919050565b611ef281611edf565b82525050565b6000602082019050611f0d6000830184611ee9565b92915050565b60007fffffffff0000000000000000000000000000000000000000000000000000000082169050919050565b611f4881611f13565b8114611f5357600080fd5b50565b600081359050611f6581611f3f565b92915050565b600060208284031215611f8157611f80611e5e565b5b6000611f8f84828501611f56565b91505092915050565b60008115159050919050565b611fad81611f98565b82525050565b6000602082019050611fc86000830184611fa4565b92915050565b611fd781611edf565b8114611fe257600080fd5b50565b600081359050611ff481611fce565b92915050565b6000602082840312156120105761200f611e5e565b5b600061201e84828501611fe5565b91505092915050565b6000806040838503121561203e5761203d611e5e565b5b600061204c85828601611e8a565b925050602061205d85828601611fe5565b9150509250929050565b6000819050919050565b61207a81612067565b811461208557600080fd5b50565b60008135905061209781612071565b92915050565b6000602082840312156120b3576120b2611e5e565b5b60006120c184828501612088565b91505092915050565b6120d381612067565b82525050565b60006020820190506120ee60008301846120ca565b92915050565b600073ffffffffffffffffffffffffffffffffffffffff82169050919050565b600061211f826120f4565b9050919050565b61212f81612114565b811461213a57600080fd5b50565b60008135905061214c81612126565b92915050565b6000806040838503121561216957612168611e5e565b5b600061217785828601612088565b92505060206121888582860161213d565b9150509250929050565b6000602082840312156121a8576121a7611e5e565b5b60006121b684828501611e8a565b91505092915050565b600080600080608085870312156121d9576121d8611e5e565b5b60006121e787828801611e8a565b94505060206121f887828801611fe5565b935050604061220987828801611e8a565b925050606061221a87828801611fe5565b91505092959194509250565b6000819050919050565b600061224b612246612241846120f4565b612226565b6120f4565b9050919050565b600061225d82612230565b9050919050565b600061226f82612252565b9050919050565b61227f81612264565b82525050565b600060208201905061229a6000830184612276565b92915050565b6000602082840312156122b6576122b5611e5e565b5b60006122c48482850161213d565b91505092915050565b6122d681611e63565b82525050565b60006020820190506122f160008301846122cd565b92915050565b61230081611f98565b811461230b57600080fd5b50565b60008135905061231d816122f7565b92915050565b60006020828403121561233957612338611e5e565b5b60006123478482850161230e565b91505092915050565b60006060820190506123656000830186611ee9565b6123726020830185611ee9565b61237f6040830184611ee9565b949350505050565b600081519050919050565b600082825260208201905092915050565b6000819050602082019050919050565b6123bc81611e63565b82525050565b60006123ce83836123b3565b60208301905092915050565b6000602082019050919050565b60006123f282612387565b6123fc8185612392565b9350612407836123a3565b8060005b8381101561243857815161241f88826123c2565b975061242a836123da565b92505060018101905061240b565b5085935050505092915050565b6000602082019050818103600083015261245f81846123e7565b905092915050565b6000612472826120f4565b9050919050565b61248281612467565b811461248d57600080fd5b50565b60008135905061249f81612479565b92915050565b6000602082840312156124bb576124ba611e5e565b5b60006124c984828501612490565b91505092915050565b7f4e487b7100000000000000000000000000000000000000000000000000000000600052601160045260246000fd5b600061250c82611edf565b915061251783611edf565b925082820261252581611edf565b9150828204841483151761253c5761253b6124d2565b5b5092915050565b7f4e487b7100000000000000000000000000000000000000000000000000000000600052601260045260246000fd5b600061257d82611edf565b915061258883611edf565b92508261259857612597612543565b5b828204905092915050565b600082825260208201905092915050565b7f4f6e6c79206f776e65722063616e2063616c6c20746869732066756e6374696f60008201527f6e00000000000000000000000000000000000000000000000000000000000000602082015250565b60006126106021836125a3565b915061261b826125b4565b604082019050919050565b6000602082019050818103600083015261263f81612603565b9050919050565b7f436f6e7472616374206973207475726e6564206f666600000000000000000000600082015250565b600061267c6016836125a3565b915061268782612646565b602082019050919050565b600060208201905081810360008301526126ab8161266f565b9050919050565b7f416363657373436f6e74726f6c3a2063616e206f6e6c792072656e6f756e636560008201527f20726f6c657320666f722073656c660000000000000000000000000000000000602082015250565b600061270e602f836125a3565b9150612719826126b2565b604082019050919050565b6000602082019050818103600083015261273d81612701565b9050919050565b7f4e487b7100000000000000000000000000000000000000000000000000000000600052603260045260246000fd5b600061277e82611edf565b915061278983611edf565b92508282039050818111156127a1576127a06124d2565b5b92915050565b7f4e487b7100000000000000000000000000000000000000000000000000000000600052603160045260246000fd5b7f4f6e6c792072656d6f7465206f7264657220636f6e74726163742063616e206360008201527f616c6c20746869732066756e6374696f6e000000000000000000000000000000602082015250565b60006128326031836125a3565b915061283d826127d6565b604082019050919050565b6000602082019050818103600083015261286181612825565b9050919050565b600060408201905061287d60008301856122cd565b61288a6020830184611ee9565b9392505050565b7f496e697469616c697a61626c653a20636f6e747261637420697320616c72656160008201527f647920696e697469616c697a6564000000000000000000000000000000000000602082015250565b60006128ed602e836125a3565b91506128f882612891565b604082019050919050565b6000602082019050818103600083015261291c816128e0565b9050919050565b6000819050919050565b600060ff82169050919050565b600061295561295061294b84612923565b612226565b61292d565b9050919050565b6129658161293a565b82525050565b6000602082019050612980600083018461295c565b92915050565b600060408201905061299b60008301856122cd565b6129a860208301846122cd565b9392505050565b60006129ba82611edf565b91506129c583611edf565b92508282019050808211156129dd576129dc6124d2565b5b92915050565b7f496e697469616c697a61626c653a20636f6e7472616374206973206e6f74206960008201527f6e697469616c697a696e67000000000000000000000000000000000000000000602082015250565b6000612a3f602b836125a3565b9150612a4a826129e3565b604082019050919050565b60006020820190508181036000830152612a6e81612a32565b9050919050565b600081905092915050565b7f416363657373436f6e74726f6c3a206163636f756e7420000000000000000000600082015250565b6000612ab6601783612a75565b9150612ac182612a80565b601782019050919050565b600081519050919050565b60005b83811015612af5578082015181840152602081019050612ada565b60008484015250505050565b6000612b0c82612acc565b612b168185612a75565b9350612b26818560208601612ad7565b80840191505092915050565b7f206973206d697373696e6720726f6c6520000000000000000000000000000000600082015250565b6000612b68601183612a75565b9150612b7382612b32565b601182019050919050565b6000612b8982612aa9565b9150612b958285612b01565b9150612ba082612b5b565b9150612bac8284612b01565b91508190509392505050565b6000601f19601f8301169050919050565b6000612bd482612acc565b612bde81856125a3565b9350612bee818560208601612ad7565b612bf781612bb8565b840191505092915050565b60006020820190508181036000830152612c1c8184612bc9565b905092915050565b7f4e487b7100000000000000000000000000000000000000000000000000000000600052604160045260246000fd5b6000612c5e82611edf565b915060008203612c7157612c706124d2565b5b600182039050919050565b7f537472696e67733a20686578206c656e67746820696e73756666696369656e74600082015250565b6000612cb26020836125a3565b9150612cbd82612c7c565b602082019050919050565b60006020820190508181036000830152612ce181612ca5565b905091905056fea26469706673582212203e426478ded9b2ac4b63fd80caa44768d66604742a2bf475ff8404364877126064736f6c63430008180033",
  "linkReferences": {},
  "deployedLinkReferences": {}
}