{
  "_format": "hh-sol-artifact-1",
  "contractName": "BRN2TRN",
  "sourceName": "contracts/BRN2TRN.sol",
  "abi": [
    {
      "inputs": [],
      "stateMutability": "nonpayable",
      "type": "constructor"
    },
    {
      "anonymous": false,
      "inputs": [
        {
          "indexed": true,
          "internalType": "address",
          "name": "to",
          "type": "address"
        },
        {
          "indexed": false,
          "internalType": "uint256",
          "name": "amount",
          "type": "uint256"
        },
        {
          "indexed": false,
          "internalType": "bool",
          "name": "success",
          "type": "bool"
        },
        {
          "indexed": false,
          "internalType": "string",
          "name": "reason",
          "type": "string"
        }
      ],
      "name": "DistributionAttempt",
      "type": "event"
    },
    {
      "anonymous": false,
      "inputs": [
        {
          "indexed": false,
          "internalType": "uint8",
          "name": "version",
          "type": "uint8"
        }
      ],
      "name": "Initialized",
      "type": "event"
    },
    {
      "anonymous": false,
      "inputs": [
        {
          "indexed": true,
          "internalType": "bytes32",
          "name": "role",
          "type": "bytes32"
        },
        {
          "indexed": true,
          "internalType": "bytes32",
          "name": "previousAdminRole",
          "type": "bytes32"
        },
        {
          "indexed": true,
          "internalType": "bytes32",
          "name": "newAdminRole",
          "type": "bytes32"
        }
      ],
      "name": "RoleAdminChanged",
      "type": "event"
    },
    {
      "anonymous": false,
      "inputs": [
        {
          "indexed": true,
          "internalType": "bytes32",
          "name": "role",
          "type": "bytes32"
        },
        {
          "indexed": true,
          "internalType": "address",
          "name": "account",
          "type": "address"
        },
        {
          "indexed": true,
          "internalType": "address",
          "name": "sender",
          "type": "address"
        }
      ],
      "name": "RoleGranted",
      "type": "event"
    },
    {
      "anonymous": false,
      "inputs": [
        {
          "indexed": true,
          "internalType": "bytes32",
          "name": "role",
          "type": "bytes32"
        },
        {
          "indexed": true,
          "internalType": "address",
          "name": "account",
          "type": "address"
        },
        {
          "indexed": true,
          "internalType": "address",
          "name": "sender",
          "type": "address"
        }
      ],
      "name": "RoleRevoked",
      "type": "event"
    },
    {
      "stateMutability": "payable",
      "type": "fallback"
    },
    {
      "inputs": [],
      "name": "BRN2TRNRatio",
      "outputs": [
        {
          "internalType": "uint256",
          "name": "",
          "type": "uint256"
        }
      ],
      "stateMutability": "view",
      "type": "function"
    },
    {
      "inputs": [],
      "name": "BRN2TRNWhitelistedRatio",
      "outputs": [
        {
          "internalType": "uint256",
          "name": "",
          "type": "uint256"
        }
      ],
      "stateMutability": "view",
      "type": "function"
    },
    {
      "inputs": [],
      "name": "DEFAULT_ADMIN_ROLE",
      "outputs": [
        {
          "internalType": "bytes32",
          "name": "",
          "type": "bytes32"
        }
      ],
      "stateMutability": "view",
      "type": "function"
    },
    {
      "inputs": [],
      "name": "brn2trn",
      "outputs": [],
      "stateMutability": "nonpayable",
      "type": "function"
    },
    {
      "inputs": [],
      "name": "burntAddress",
      "outputs": [
        {
          "internalType": "address",
          "name": "",
          "type": "address"
        }
      ],
      "stateMutability": "view",
      "type": "function"
    },
    {
      "inputs": [],
      "name": "checkIsOn",
      "outputs": [
        {
          "internalType": "bool",
          "name": "",
          "type": "bool"
        }
      ],
      "stateMutability": "view",
      "type": "function"
    },
    {
      "inputs": [
        {
          "internalType": "bytes32",
          "name": "role",
          "type": "bytes32"
        }
      ],
      "name": "getRoleAdmin",
      "outputs": [
        {
          "internalType": "bytes32",
          "name": "",
          "type": "bytes32"
        }
      ],
      "stateMutability": "view",
      "type": "function"
    },
    {
      "inputs": [
        {
          "internalType": "bytes32",
          "name": "role",
          "type": "bytes32"
        },
        {
          "internalType": "address",
          "name": "account",
          "type": "address"
        }
      ],
      "name": "grantRole",
      "outputs": [],
      "stateMutability": "nonpayable",
      "type": "function"
    },
    {
      "inputs": [
        {
          "internalType": "bytes32",
          "name": "role",
          "type": "bytes32"
        },
        {
          "internalType": "address",
          "name": "account",
          "type": "address"
        }
      ],
      "name": "hasRole",
      "outputs": [
        {
          "internalType": "bool",
          "name": "",
          "type": "bool"
        }
      ],
      "stateMutability": "view",
      "type": "function"
    },
    {
      "inputs": [
        {
          "internalType": "address",
          "name": "_owner",
          "type": "address"
        },
        {
          "internalType": "contract BRN",
          "name": "_BRNToken",
          "type": "address"
        }
      ],
      "name": "initialize",
      "outputs": [],
      "stateMutability": "nonpayable",
      "type": "function"
    },
    {
      "inputs": [],
      "name": "isOn",
      "outputs": [
        {
          "internalType": "bool",
          "name": "",
          "type": "bool"
        }
      ],
      "stateMutability": "view",
      "type": "function"
    },
    {
      "inputs": [],
      "name": "lastInflationTime",
      "outputs": [
        {
          "internalType": "uint256",
          "name": "",
          "type": "uint256"
        }
      ],
      "stateMutability": "view",
      "type": "function"
    },
    {
      "inputs": [
        {
          "internalType": "bytes32",
          "name": "role",
          "type": "bytes32"
        },
        {
          "internalType": "address",
          "name": "account",
          "type": "address"
        }
      ],
      "name": "renounceRole",
      "outputs": [],
      "stateMutability": "nonpayable",
      "type": "function"
    },
    {
      "inputs": [
        {
          "internalType": "bytes32",
          "name": "role",
          "type": "bytes32"
        },
        {
          "internalType": "address",
          "name": "account",
          "type": "address"
        }
      ],
      "name": "revokeRole",
      "outputs": [],
      "stateMutability": "nonpayable",
      "type": "function"
    },
    {
      "inputs": [
        {
          "internalType": "address",
          "name": "_BRNTokenAddress",
          "type": "address"
        }
      ],
      "name": "setBRNTokenAddress",
      "outputs": [],
      "stateMutability": "nonpayable",
      "type": "function"
    },
    {
      "inputs": [
        {
          "internalType": "address",
          "name": "_burntAddress",
          "type": "address"
        }
      ],
      "name": "setBurntAddress",
      "outputs": [],
      "stateMutability": "nonpayable",
      "type": "function"
    },
    {
      "inputs": [],
      "name": "setOff",
      "outputs": [],
      "stateMutability": "nonpayable",
      "type": "function"
    },
    {
      "inputs": [],
      "name": "setOn",
      "outputs": [],
      "stateMutability": "nonpayable",
      "type": "function"
    },
    {
      "inputs": [
        {
          "internalType": "uint256",
          "name": "_ratio",
          "type": "uint256"
        }
      ],
      "name": "setRatio",
      "outputs": [],
      "stateMutability": "nonpayable",
      "type": "function"
    },
    {
      "inputs": [
        {
          "internalType": "bytes32",
          "name": "_version",
          "type": "bytes32"
        }
      ],
      "name": "setVersion",
      "outputs": [],
      "stateMutability": "nonpayable",
      "type": "function"
    },
    {
      "inputs": [
        {
          "internalType": "bytes4",
          "name": "interfaceId",
          "type": "bytes4"
        }
      ],
      "name": "supportsInterface",
      "outputs": [
        {
          "internalType": "bool",
          "name": "",
          "type": "bool"
        }
      ],
      "stateMutability": "view",
      "type": "function"
    },
    {
      "inputs": [],
      "name": "version",
      "outputs": [
        {
          "internalType": "bytes32",
          "name": "",
          "type": "bytes32"
        }
      ],
      "stateMutability": "view",
      "type": "function"
    },
    {
      "inputs": [
        {
          "internalType": "address",
          "name": "",
          "type": "address"
        }
      ],
      "name": "whitelistedAddresses",
      "outputs": [
        {
          "internalType": "bool",
          "name": "",
          "type": "bool"
        }
      ],
      "stateMutability": "view",
      "type": "function"
    },
    {
      "stateMutability": "payable",
      "type": "receive"
    }
  ],
  "bytecode": "0x60806040523480156200001157600080fd5b50620000226200002860201b60201c565b620001d2565b600060019054906101000a900460ff16156200007b576040517f08c379a0000000000000000000000000000000000000000000000000000000008152600401620000729062000175565b60405180910390fd5b60ff801660008054906101000a900460ff1660ff1614620000ec5760ff6000806101000a81548160ff021916908360ff1602179055507f7f26b83ff96e1f2b6a682f133852f6798a09c465da95921460cefb384740249860ff604051620000e39190620001b5565b60405180910390a15b565b600082825260208201905092915050565b7f496e697469616c697a61626c653a20636f6e747261637420697320696e69746960008201527f616c697a696e6700000000000000000000000000000000000000000000000000602082015250565b60006200015d602783620000ee565b91506200016a82620000ff565b604082019050919050565b6000602082019050818103600083015262000190816200014e565b9050919050565b600060ff82169050919050565b620001af8162000197565b82525050565b6000602082019050620001cc6000830184620001a4565b92915050565b6125f280620001e26000396000f3fe6080604052600436106101445760003560e01c806355da78ba116100b6578063a217fddf1161006f578063a217fddf1461043e578063b2237ba314610469578063c6afd39e14610492578063ca5f81b5146104bd578063d547741f146104e6578063f004edf61461050f5761014b565b806355da78ba1461032c578063629ad745146103555780636a4ea50d146103805780636cde6a8b146103ab578063703204ca146103d657806391d14854146104015761014b565b806336568abe1161010857806336568abe146102585780633a578a661461028157806340612c5214610298578063485cc955146102af57806354fd4d50146102d857806355993685146103035761014b565b806301ffc9a71461014d57806306c933d81461018a578063175bbecf146101c7578063248a9ca3146101f25780632f2ff15d1461022f5761014b565b3661014b57005b005b34801561015957600080fd5b50610174600480360381019061016f91906117eb565b610526565b6040516101819190611833565b60405180910390f35b34801561019657600080fd5b506101b160048036038101906101ac91906118ac565b6105a0565b6040516101be9190611833565b60405180910390f35b3480156101d357600080fd5b506101dc6105c0565b6040516101e99190611833565b60405180910390f35b3480156101fe57600080fd5b506102196004803603810190610214919061190f565b6105d3565b604051610226919061194b565b60405180910390f35b34801561023b57600080fd5b5061025660048036038101906102519190611966565b6105f3565b005b34801561026457600080fd5b5061027f600480360381019061027a9190611966565b610614565b005b34801561028d57600080fd5b50610296610697565b005b3480156102a457600080fd5b506102ad610700565b005b3480156102bb57600080fd5b506102d660048036038101906102d191906119e4565b610769565b005b3480156102e457600080fd5b506102ed610922565b6040516102fa919061194b565b60405180910390f35b34801561030f57600080fd5b5061032a600480360381019061032591906118ac565b610928565b005b34801561033857600080fd5b50610353600480360381019061034e91906118ac565b6109b8565b005b34801561036157600080fd5b5061036a610a48565b6040516103779190611a3d565b60405180910390f35b34801561038c57600080fd5b50610395610a4e565b6040516103a29190611a67565b60405180910390f35b3480156103b757600080fd5b506103c0610a74565b6040516103cd9190611a3d565b60405180910390f35b3480156103e257600080fd5b506103eb610a7a565b6040516103f89190611a3d565b60405180910390f35b34801561040d57600080fd5b5061042860048036038101906104239190611966565b610a80565b6040516104359190611833565b60405180910390f35b34801561044a57600080fd5b50610453610aeb565b604051610460919061194b565b60405180910390f35b34801561047557600080fd5b50610490600480360381019061048b9190611aae565b610af2565b005b34801561049e57600080fd5b506104a7610b48565b6040516104b49190611833565b60405180910390f35b3480156104c957600080fd5b506104e460048036038101906104df919061190f565b610b5f565b005b3480156104f257600080fd5b5061050d60048036038101906105089190611966565b610bb5565b005b34801561051b57600080fd5b50610524610bd6565b005b60007f7965db0b000000000000000000000000000000000000000000000000000000007bffffffffffffffffffffffffffffffffffffffffffffffffffffffff1916827bffffffffffffffffffffffffffffffffffffffffffffffffffffffff19161480610599575061059882610e09565b5b9050919050565b60cd6020528060005260406000206000915054906101000a900460ff1681565b60ce60149054906101000a900460ff1681565b600060656000838152602001908152602001600020600101549050919050565b6105fc826105d3565b61060581610e73565b61060f8383610e87565b505050565b61061c610f68565b73ffffffffffffffffffffffffffffffffffffffff168173ffffffffffffffffffffffffffffffffffffffff1614610689576040517f08c379a000000000000000000000000000000000000000000000000000000000815260040161068090611b5e565b60405180910390fd5b6106938282610f70565b5050565b6106a46000801b33610a80565b6106e3576040517f08c379a00000000000000000000000000000000000000000000000000000000081526004016106da90611bf0565b60405180910390fd5b600060ce60146101000a81548160ff021916908315150217905550565b61070d6000801b33610a80565b61074c576040517f08c379a000000000000000000000000000000000000000000000000000000000815260040161074390611bf0565b60405180910390fd5b600160ce60146101000a81548160ff021916908315150217905550565b60008060019054906101000a900460ff1615905080801561079a5750600160008054906101000a900460ff1660ff16105b806107c757506107a930611052565b1580156107c65750600160008054906101000a900460ff1660ff16145b5b610806576040517f08c379a00000000000000000000000000000000000000000000000000000000081526004016107fd90611c82565b60405180910390fd5b60016000806101000a81548160ff021916908360ff1602179055508015610843576001600060016101000a81548160ff0219169083151502179055505b61084b611075565b6108586000801b84610e87565b600060ce60146101000a81548160ff0219169083151502179055508160c960006101000a81548173ffffffffffffffffffffffffffffffffffffffff021916908373ffffffffffffffffffffffffffffffffffffffff160217905550600a60cb819055506108c46110c6565b801561091d5760008060016101000a81548160ff0219169083151502179055507f7f26b83ff96e1f2b6a682f133852f6798a09c465da95921460cefb384740249860016040516109149190611cf4565b60405180910390a15b505050565b60cf5481565b6109356000801b33610a80565b610974576040517f08c379a000000000000000000000000000000000000000000000000000000000815260040161096b90611bf0565b60405180910390fd5b8060ce60006101000a81548173ffffffffffffffffffffffffffffffffffffffff021916908373ffffffffffffffffffffffffffffffffffffffff16021790555050565b6109c56000801b33610a80565b610a04576040517f08c379a00000000000000000000000000000000000000000000000000000000081526004016109fb90611bf0565b60405180910390fd5b8060c960006101000a81548173ffffffffffffffffffffffffffffffffffffffff021916908373ffffffffffffffffffffffffffffffffffffffff16021790555050565b60cb5481565b60ce60009054906101000a900473ffffffffffffffffffffffffffffffffffffffff1681565b60cc5481565b60ca5481565b60006065600084815260200190815260200160002060000160008373ffffffffffffffffffffffffffffffffffffffff1673ffffffffffffffffffffffffffffffffffffffff16815260200190815260200160002060009054906101000a900460ff16905092915050565b6000801b81565b610aff6000801b33610a80565b610b3e576040517f08c379a0000000000000000000000000000000000000000000000000000000008152600401610b3590611bf0565b60405180910390fd5b8060cb8190555050565b600060ce60149054906101000a900460ff16905090565b610b6c6000801b33610a80565b610bab576040517f08c379a0000000000000000000000000000000000000000000000000000000008152600401610ba290611bf0565b60405180910390fd5b8060cf8190555050565b610bbe826105d3565b610bc781610e73565b610bd18383610f70565b505050565b60ce60149054906101000a900460ff16610c25576040517f08c379a0000000000000000000000000000000000000000000000000000000008152600401610c1c90611d5b565b60405180910390fd5b600060c960009054906101000a900473ffffffffffffffffffffffffffffffffffffffff1673ffffffffffffffffffffffffffffffffffffffff166370a08231336040518263ffffffff1660e01b8152600401610c829190611a67565b602060405180830381865afa158015610c9f573d6000803e3d6000fd5b505050506040513d601f19601f82011682018060405250810190610cc39190611d90565b9050600060cb54905060cd60003373ffffffffffffffffffffffffffffffffffffffff1673ffffffffffffffffffffffffffffffffffffffff16815260200190815260200160002060009054906101000a900460ff1615610d245760cc5490505b60008183610d329190611e1b565b905060c960009054906101000a900473ffffffffffffffffffffffffffffffffffffffff1673ffffffffffffffffffffffffffffffffffffffff166323b872dd3360ce60009054906101000a900473ffffffffffffffffffffffffffffffffffffffff16866040518463ffffffff1660e01b8152600401610db593929190611e4c565b6020604051808303816000875af1158015610dd4573d6000803e3d6000fd5b505050506040513d601f19601f82011682018060405250810190610df89190611eaf565b50610e03338261111f565b50505050565b60007f01ffc9a7000000000000000000000000000000000000000000000000000000007bffffffffffffffffffffffffffffffffffffffffffffffffffffffff1916827bffffffffffffffffffffffffffffffffffffffffffffffffffffffff1916149050919050565b610e8481610e7f610f68565b6113b1565b50565b610e918282610a80565b610f645760016065600084815260200190815260200160002060000160008373ffffffffffffffffffffffffffffffffffffffff1673ffffffffffffffffffffffffffffffffffffffff16815260200190815260200160002060006101000a81548160ff021916908315150217905550610f09610f68565b73ffffffffffffffffffffffffffffffffffffffff168173ffffffffffffffffffffffffffffffffffffffff16837f2f8788117e7eff1d82e926ec794901d17c78024a50270940304540a733656f0d60405160405180910390a45b5050565b600033905090565b610f7a8282610a80565b1561104e5760006065600084815260200190815260200160002060000160008373ffffffffffffffffffffffffffffffffffffffff1673ffffffffffffffffffffffffffffffffffffffff16815260200190815260200160002060006101000a81548160ff021916908315150217905550610ff3610f68565b73ffffffffffffffffffffffffffffffffffffffff168173ffffffffffffffffffffffffffffffffffffffff16837ff6391f5c32d9c69d2a47ea670b442974b53935d1edc7fd64eb21e047a839171b60405160405180910390a45b5050565b6000808273ffffffffffffffffffffffffffffffffffffffff163b119050919050565b600060019054906101000a900460ff166110c4576040517f08c379a00000000000000000000000000000000000000000000000000000000081526004016110bb90611f4e565b60405180910390fd5b565b600060019054906101000a900460ff16611115576040517f08c379a000000000000000000000000000000000000000000000000000000000815260040161110c90611f4e565b60405180910390fd5b61111d611436565b565b600061112961148f565b600073ffffffffffffffffffffffffffffffffffffffff168373ffffffffffffffffffffffffffffffffffffffff16036111b7578273ffffffffffffffffffffffffffffffffffffffff167f8cf40ee09e3aa49d8de248496c5793acc922daa00bac9b8cb421b24ffc7c866a8360006040516111a6929190611fba565b60405180910390a2600090506113a3565b60008203611219578273ffffffffffffffffffffffffffffffffffffffff167f8cf40ee09e3aa49d8de248496c5793acc922daa00bac9b8cb421b24ffc7c866a836000604051611208929190612068565b60405180910390a2600090506113a3565b8147101561127b578273ffffffffffffffffffffffffffffffffffffffff167f8cf40ee09e3aa49d8de248496c5793acc922daa00bac9b8cb421b24ffc7c866a83600060405161126a9291906120f0565b60405180910390a2600090506113a3565b60008373ffffffffffffffffffffffffffffffffffffffff16836040516112a19061215d565b60006040518083038185875af1925050503d80600081146112de576040519150601f19603f3d011682016040523d82523d6000602084013e6112e3565b606091505b505090508015611343578373ffffffffffffffffffffffffffffffffffffffff167f8cf40ee09e3aa49d8de248496c5793acc922daa00bac9b8cb421b24ffc7c866a8460016040516113369291906121be565b60405180910390a261139e565b8373ffffffffffffffffffffffffffffffffffffffff167f8cf40ee09e3aa49d8de248496c5793acc922daa00bac9b8cb421b24ffc7c866a8460006113866114de565b60405161139593929190612279565b60405180910390a25b809150505b6113ab61151b565b92915050565b6113bb8282610a80565b611432576113c881611525565b6113d68360001c6020611552565b6040516020016113e792919061238b565b6040516020818303038152906040526040517f08c379a000000000000000000000000000000000000000000000000000000000815260040161142991906123c5565b60405180910390fd5b5050565b600060019054906101000a900460ff16611485576040517f08c379a000000000000000000000000000000000000000000000000000000000815260040161147c90611f4e565b60405180910390fd5b6001609781905550565b6002609754036114d4576040517f08c379a00000000000000000000000000000000000000000000000000000000081526004016114cb90612433565b60405180910390fd5b6002609781905550565b60606040518060400160405280600e81526020017f5061796d656e74206661696c6564000000000000000000000000000000000000815250905090565b6001609781905550565b606061154b8273ffffffffffffffffffffffffffffffffffffffff16601460ff16611552565b9050919050565b6060600060028360026115659190612453565b61156f9190612495565b67ffffffffffffffff811115611588576115876124c9565b5b6040519080825280601f01601f1916602001820160405280156115ba5781602001600182028036833780820191505090505b5090507f3000000000000000000000000000000000000000000000000000000000000000816000815181106115f2576115f16124f8565b5b60200101907effffffffffffffffffffffffffffffffffffffffffffffffffffffffffffff1916908160001a9053507f780000000000000000000000000000000000000000000000000000000000000081600181518110611656576116556124f8565b5b60200101907effffffffffffffffffffffffffffffffffffffffffffffffffffffffffffff1916908160001a905350600060018460026116969190612453565b6116a09190612495565b90505b6001811115611740577f3031323334353637383961626364656600000000000000000000000000000000600f8616601081106116e2576116e16124f8565b5b1a60f81b8282815181106116f9576116f86124f8565b5b60200101907effffffffffffffffffffffffffffffffffffffffffffffffffffffffffffff1916908160001a905350600485901c94508061173990612527565b90506116a3565b5060008414611784576040517f08c379a000000000000000000000000000000000000000000000000000000000815260040161177b9061259c565b60405180910390fd5b8091505092915050565b600080fd5b60007fffffffff0000000000000000000000000000000000000000000000000000000082169050919050565b6117c881611793565b81146117d357600080fd5b50565b6000813590506117e5816117bf565b92915050565b6000602082840312156118015761180061178e565b5b600061180f848285016117d6565b91505092915050565b60008115159050919050565b61182d81611818565b82525050565b60006020820190506118486000830184611824565b92915050565b600073ffffffffffffffffffffffffffffffffffffffff82169050919050565b60006118798261184e565b9050919050565b6118898161186e565b811461189457600080fd5b50565b6000813590506118a681611880565b92915050565b6000602082840312156118c2576118c161178e565b5b60006118d084828501611897565b91505092915050565b6000819050919050565b6118ec816118d9565b81146118f757600080fd5b50565b600081359050611909816118e3565b92915050565b6000602082840312156119255761192461178e565b5b6000611933848285016118fa565b91505092915050565b611945816118d9565b82525050565b6000602082019050611960600083018461193c565b92915050565b6000806040838503121561197d5761197c61178e565b5b600061198b858286016118fa565b925050602061199c85828601611897565b9150509250929050565b60006119b18261186e565b9050919050565b6119c1816119a6565b81146119cc57600080fd5b50565b6000813590506119de816119b8565b92915050565b600080604083850312156119fb576119fa61178e565b5b6000611a0985828601611897565b9250506020611a1a858286016119cf565b9150509250929050565b6000819050919050565b611a3781611a24565b82525050565b6000602082019050611a526000830184611a2e565b92915050565b611a618161186e565b82525050565b6000602082019050611a7c6000830184611a58565b92915050565b611a8b81611a24565b8114611a9657600080fd5b50565b600081359050611aa881611a82565b92915050565b600060208284031215611ac457611ac361178e565b5b6000611ad284828501611a99565b91505092915050565b600082825260208201905092915050565b7f416363657373436f6e74726f6c3a2063616e206f6e6c792072656e6f756e636560008201527f20726f6c657320666f722073656c660000000000000000000000000000000000602082015250565b6000611b48602f83611adb565b9150611b5382611aec565b604082019050919050565b60006020820190508181036000830152611b7781611b3b565b9050919050565b7f4f6e6c79206f776e65722063616e2063616c6c20746869732066756e6374696f60008201527f6e00000000000000000000000000000000000000000000000000000000000000602082015250565b6000611bda602183611adb565b9150611be582611b7e565b604082019050919050565b60006020820190508181036000830152611c0981611bcd565b9050919050565b7f496e697469616c697a61626c653a20636f6e747261637420697320616c72656160008201527f647920696e697469616c697a6564000000000000000000000000000000000000602082015250565b6000611c6c602e83611adb565b9150611c7782611c10565b604082019050919050565b60006020820190508181036000830152611c9b81611c5f565b9050919050565b6000819050919050565b600060ff82169050919050565b6000819050919050565b6000611cde611cd9611cd484611ca2565b611cb9565b611cac565b9050919050565b611cee81611cc3565b82525050565b6000602082019050611d096000830184611ce5565b92915050565b7f496e666c6174696f6e206973206f666600000000000000000000000000000000600082015250565b6000611d45601083611adb565b9150611d5082611d0f565b602082019050919050565b60006020820190508181036000830152611d7481611d38565b9050919050565b600081519050611d8a81611a82565b92915050565b600060208284031215611da657611da561178e565b5b6000611db484828501611d7b565b91505092915050565b7f4e487b7100000000000000000000000000000000000000000000000000000000600052601260045260246000fd5b7f4e487b7100000000000000000000000000000000000000000000000000000000600052601160045260246000fd5b6000611e2682611a24565b9150611e3183611a24565b925082611e4157611e40611dbd565b5b828204905092915050565b6000606082019050611e616000830186611a58565b611e6e6020830185611a58565b611e7b6040830184611a2e565b949350505050565b611e8c81611818565b8114611e9757600080fd5b50565b600081519050611ea981611e83565b92915050565b600060208284031215611ec557611ec461178e565b5b6000611ed384828501611e9a565b91505092915050565b7f496e697469616c697a61626c653a20636f6e7472616374206973206e6f74206960008201527f6e697469616c697a696e67000000000000000000000000000000000000000000602082015250565b6000611f38602b83611adb565b9150611f4382611edc565b604082019050919050565b60006020820190508181036000830152611f6781611f2b565b9050919050565b7f496e76616c696420616464726573733a207a65726f2061646472657373000000600082015250565b6000611fa4601d83611adb565b9150611faf82611f6e565b602082019050919050565b6000606082019050611fcf6000830185611a2e565b611fdc6020830184611824565b8181036040830152611fed81611f97565b90509392505050565b7f496e76616c696420616d6f756e743a206d75737420626520677265617465722060008201527f7468616e207a65726f0000000000000000000000000000000000000000000000602082015250565b6000612052602983611adb565b915061205d82611ff6565b604082019050919050565b600060608201905061207d6000830185611a2e565b61208a6020830184611824565b818103604083015261209b81612045565b90509392505050565b7f496e73756666696369656e742062616c616e6365000000000000000000000000600082015250565b60006120da601483611adb565b91506120e5826120a4565b602082019050919050565b60006060820190506121056000830185611a2e565b6121126020830184611824565b8181036040830152612123816120cd565b90509392505050565b600081905092915050565b50565b600061214760008361212c565b915061215282612137565b600082019050919050565b60006121688261213a565b9150819050919050565b7f5375636365737300000000000000000000000000000000000000000000000000600082015250565b60006121a8600783611adb565b91506121b382612172565b602082019050919050565b60006060820190506121d36000830185611a2e565b6121e06020830184611824565b81810360408301526121f18161219b565b90509392505050565b600081519050919050565b60005b83811015612223578082015181840152602081019050612208565b60008484015250505050565b6000601f19601f8301169050919050565b600061224b826121fa565b6122558185611adb565b9350612265818560208601612205565b61226e8161222f565b840191505092915050565b600060608201905061228e6000830186611a2e565b61229b6020830185611824565b81810360408301526122ad8184612240565b9050949350505050565b600081905092915050565b7f416363657373436f6e74726f6c3a206163636f756e7420000000000000000000600082015250565b60006122f86017836122b7565b9150612303826122c2565b601782019050919050565b6000612319826121fa565b61232381856122b7565b9350612333818560208601612205565b80840191505092915050565b7f206973206d697373696e6720726f6c6520000000000000000000000000000000600082015250565b60006123756011836122b7565b91506123808261233f565b601182019050919050565b6000612396826122eb565b91506123a2828561230e565b91506123ad82612368565b91506123b9828461230e565b91508190509392505050565b600060208201905081810360008301526123df8184612240565b905092915050565b7f5265656e7472616e637947756172643a207265656e7472616e742063616c6c00600082015250565b600061241d601f83611adb565b9150612428826123e7565b602082019050919050565b6000602082019050818103600083015261244c81612410565b9050919050565b600061245e82611a24565b915061246983611a24565b925082820261247781611a24565b9150828204841483151761248e5761248d611dec565b5b5092915050565b60006124a082611a24565b91506124ab83611a24565b92508282019050808211156124c3576124c2611dec565b5b92915050565b7f4e487b7100000000000000000000000000000000000000000000000000000000600052604160045260246000fd5b7f4e487b7100000000000000000000000000000000000000000000000000000000600052603260045260246000fd5b600061253282611a24565b91506000820361254557612544611dec565b5b600182039050919050565b7f537472696e67733a20686578206c656e67746820696e73756666696369656e74600082015250565b6000612586602083611adb565b915061259182612550565b602082019050919050565b600060208201905081810360008301526125b581612579565b905091905056fea2646970667358221220390aa118e6cf6bc1a9ef99e16cd11a505ee2bfff2ef276ce5bf78c1c9f0bae2264736f6c63430008180033",
  "linkReferences": {},
  "deployedLinkReferences": {}
}