{
  "_format": "hh-sol-artifact-1",
  "contractName": "PendingAttestationsBook",
  "sourceName": "contracts/pendingAttestationsBook.sol",
  "abi": [
    {
      "inputs": [],
      "stateMutability": "nonpayable",
      "type": "constructor"
    },
    {
      "anonymous": false,
      "inputs": [
        {
          "indexed": false,
          "internalType": "uint8",
          "name": "version",
          "type": "uint8"
        }
      ],
      "name": "Initialized",
      "type": "event"
    },
    {
      "anonymous": false,
      "inputs": [
        {
          "indexed": true,
          "internalType": "bytes32",
          "name": "role",
          "type": "bytes32"
        },
        {
          "indexed": true,
          "internalType": "bytes32",
          "name": "previousAdminRole",
          "type": "bytes32"
        },
        {
          "indexed": true,
          "internalType": "bytes32",
          "name": "newAdminRole",
          "type": "bytes32"
        }
      ],
      "name": "RoleAdminChanged",
      "type": "event"
    },
    {
      "anonymous": false,
      "inputs": [
        {
          "indexed": true,
          "internalType": "bytes32",
          "name": "role",
          "type": "bytes32"
        },
        {
          "indexed": true,
          "internalType": "address",
          "name": "account",
          "type": "address"
        },
        {
          "indexed": true,
          "internalType": "address",
          "name": "sender",
          "type": "address"
        }
      ],
      "name": "RoleGranted",
      "type": "event"
    },
    {
      "anonymous": false,
      "inputs": [
        {
          "indexed": true,
          "internalType": "bytes32",
          "name": "role",
          "type": "bytes32"
        },
        {
          "indexed": true,
          "internalType": "address",
          "name": "account",
          "type": "address"
        },
        {
          "indexed": true,
          "internalType": "address",
          "name": "sender",
          "type": "address"
        }
      ],
      "name": "RoleRevoked",
      "type": "event"
    },
    {
      "inputs": [],
      "name": "DEFAULT_ADMIN_ROLE",
      "outputs": [
        {
          "internalType": "bytes32",
          "name": "",
          "type": "bytes32"
        }
      ],
      "stateMutability": "view",
      "type": "function"
    },
    {
      "inputs": [
        {
          "internalType": "bytes4",
          "name": "networkId",
          "type": "bytes4"
        },
        {
          "internalType": "bytes32",
          "name": "orderId",
          "type": "bytes32"
        },
        {
          "internalType": "address",
          "name": "attester",
          "type": "address"
        },
        {
          "internalType": "bytes",
          "name": "messagePayload",
          "type": "bytes"
        }
      ],
      "name": "addPendingOrder",
      "outputs": [
        {
          "internalType": "bool",
          "name": "",
          "type": "bool"
        }
      ],
      "stateMutability": "nonpayable",
      "type": "function"
    },
    {
      "inputs": [
        {
          "internalType": "bytes4",
          "name": "",
          "type": "bytes4"
        }
      ],
      "name": "addedCounters",
      "outputs": [
        {
          "internalType": "uint256",
          "name": "",
          "type": "uint256"
        }
      ],
      "stateMutability": "view",
      "type": "function"
    },
    {
      "inputs": [
        {
          "internalType": "bytes32",
          "name": "orderId",
          "type": "bytes32"
        },
        {
          "internalType": "bytes32",
          "name": "attestationBatchMessageHash",
          "type": "bytes32"
        }
      ],
      "name": "archiveAndRemovePendingOrder",
      "outputs": [],
      "stateMutability": "nonpayable",
      "type": "function"
    },
    {
      "inputs": [
        {
          "internalType": "bytes32",
          "name": "",
          "type": "bytes32"
        }
      ],
      "name": "archivedAttestations",
      "outputs": [
        {
          "internalType": "bytes32",
          "name": "orderId",
          "type": "bytes32"
        },
        {
          "internalType": "bytes32",
          "name": "includedInBatchPayloadHash",
          "type": "bytes32"
        },
        {
          "internalType": "bytes32",
          "name": "messagePayloadHash",
          "type": "bytes32"
        },
        {
          "internalType": "bytes",
          "name": "messagePayload",
          "type": "bytes"
        }
      ],
      "stateMutability": "view",
      "type": "function"
    },
    {
      "inputs": [],
      "name": "attestersPortal",
      "outputs": [
        {
          "internalType": "contract AttestersPortal",
          "name": "",
          "type": "address"
        }
      ],
      "stateMutability": "view",
      "type": "function"
    },
    {
      "inputs": [],
      "name": "attestersVerifierProofs",
      "outputs": [
        {
          "internalType": "contract AttestationsVerifierProofs",
          "name": "",
          "type": "address"
        }
      ],
      "stateMutability": "view",
      "type": "function"
    },
    {
      "inputs": [
        {
          "internalType": "bytes32",
          "name": "",
          "type": "bytes32"
        }
      ],
      "name": "batchForOrder",
      "outputs": [
        {
          "internalType": "bytes32",
          "name": "",
          "type": "bytes32"
        }
      ],
      "stateMutability": "view",
      "type": "function"
    },
    {
      "inputs": [
        {
          "internalType": "bytes4",
          "name": "",
          "type": "bytes4"
        }
      ],
      "name": "batchedCounters",
      "outputs": [
        {
          "internalType": "uint256",
          "name": "",
          "type": "uint256"
        }
      ],
      "stateMutability": "view",
      "type": "function"
    },
    {
      "inputs": [
        {
          "internalType": "bytes4",
          "name": "",
          "type": "bytes4"
        }
      ],
      "name": "batchedOrdersHeadByNetwork",
      "outputs": [
        {
          "internalType": "bytes32",
          "name": "",
          "type": "bytes32"
        }
      ],
      "stateMutability": "view",
      "type": "function"
    },
    {
      "inputs": [],
      "name": "biddingBook",
      "outputs": [
        {
          "internalType": "contract BiddingBook",
          "name": "",
          "type": "address"
        }
      ],
      "stateMutability": "view",
      "type": "function"
    },
    {
      "inputs": [
        {
          "internalType": "bytes4",
          "name": "",
          "type": "bytes4"
        }
      ],
      "name": "completedBatchesCountByNetwork",
      "outputs": [
        {
          "internalType": "uint256",
          "name": "",
          "type": "uint256"
        }
      ],
      "stateMutability": "view",
      "type": "function"
    },
    {
      "inputs": [
        {
          "internalType": "bytes[]",
          "name": "messagePayloads",
          "type": "bytes[]"
        }
      ],
      "name": "constructGMPPayload",
      "outputs": [
        {
          "internalType": "bytes",
          "name": "",
          "type": "bytes"
        }
      ],
      "stateMutability": "pure",
      "type": "function"
    },
    {
      "inputs": [
        {
          "internalType": "bytes4",
          "name": "",
          "type": "bytes4"
        }
      ],
      "name": "currentBatchIndexByNetwork",
      "outputs": [
        {
          "internalType": "uint256",
          "name": "",
          "type": "uint256"
        }
      ],
      "stateMutability": "view",
      "type": "function"
    },
    {
      "inputs": [
        {
          "internalType": "bytes4",
          "name": "networkId",
          "type": "bytes4"
        },
        {
          "internalType": "bytes32[]",
          "name": "orderIds",
          "type": "bytes32[]"
        }
      ],
      "name": "getAdHocBatchPayload",
      "outputs": [
        {
          "internalType": "bytes",
          "name": "",
          "type": "bytes"
        }
      ],
      "stateMutability": "view",
      "type": "function"
    },
    {
      "inputs": [
        {
          "internalType": "bytes32",
          "name": "orderId",
          "type": "bytes32"
        }
      ],
      "name": "getArchivedAttestation",
      "outputs": [
        {
          "components": [
            {
              "internalType": "bytes32",
              "name": "orderId",
              "type": "bytes32"
            },
            {
              "internalType": "bytes32",
              "name": "includedInBatchPayloadHash",
              "type": "bytes32"
            },
            {
              "internalType": "bytes32",
              "name": "messagePayloadHash",
              "type": "bytes32"
            },
            {
              "internalType": "bytes",
              "name": "messagePayload",
              "type": "bytes"
            }
          ],
          "internalType": "struct PendingAttestationsBook.ArchivedAttestation",
          "name": "",
          "type": "tuple"
        }
      ],
      "stateMutability": "view",
      "type": "function"
    },
    {
      "inputs": [
        {
          "internalType": "bytes4",
          "name": "networkId",
          "type": "bytes4"
        }
      ],
      "name": "getBatchedOrders",
      "outputs": [
        {
          "internalType": "bytes32[]",
          "name": "",
          "type": "bytes32[]"
        }
      ],
      "stateMutability": "view",
      "type": "function"
    },
    {
      "inputs": [],
      "name": "getLimitPerBatch",
      "outputs": [
        {
          "internalType": "uint256",
          "name": "",
          "type": "uint256"
        }
      ],
      "stateMutability": "view",
      "type": "function"
    },
    {
      "inputs": [
        {
          "internalType": "bytes32",
          "name": "orderId",
          "type": "bytes32"
        }
      ],
      "name": "getOrderStatus",
      "outputs": [
        {
          "components": [
            {
              "internalType": "bytes4",
              "name": "destination",
              "type": "bytes4"
            },
            {
              "internalType": "bytes4",
              "name": "source",
              "type": "bytes4"
            },
            {
              "internalType": "uint32",
              "name": "asset",
              "type": "uint32"
            },
            {
              "internalType": "bytes32",
              "name": "targetAccount",
              "type": "bytes32"
            },
            {
              "internalType": "uint256",
              "name": "amount",
              "type": "uint256"
            },
            {
              "internalType": "address",
              "name": "rewardAsset",
              "type": "address"
            },
            {
              "internalType": "uint256",
              "name": "maxReward",
              "type": "uint256"
            },
            {
              "internalType": "uint32",
              "name": "nonce",
              "type": "uint32"
            },
            {
              "internalType": "address",
              "name": "sourceAccount",
              "type": "address"
            },
            {
              "internalType": "uint256",
              "name": "orderTimestamp",
              "type": "uint256"
            }
          ],
          "internalType": "struct OrderBook.Order",
          "name": "",
          "type": "tuple"
        },
        {
          "internalType": "address",
          "name": "bidWinner",
          "type": "address"
        },
        {
          "internalType": "uint256",
          "name": "settlementTimestamp",
          "type": "uint256"
        }
      ],
      "stateMutability": "view",
      "type": "function"
    },
    {
      "inputs": [
        {
          "internalType": "uint256",
          "name": "quorum",
          "type": "uint256"
        },
        {
          "internalType": "uint256",
          "name": "limit",
          "type": "uint256"
        },
        {
          "internalType": "bytes4",
          "name": "networkId",
          "type": "bytes4"
        }
      ],
      "name": "getOrdersForBatchConstruction",
      "outputs": [
        {
          "internalType": "bytes32[]",
          "name": "",
          "type": "bytes32[]"
        },
        {
          "internalType": "bytes[]",
          "name": "",
          "type": "bytes[]"
        }
      ],
      "stateMutability": "view",
      "type": "function"
    },
    {
      "inputs": [],
      "name": "getQuorum",
      "outputs": [
        {
          "internalType": "uint256",
          "name": "",
          "type": "uint256"
        }
      ],
      "stateMutability": "view",
      "type": "function"
    },
    {
      "inputs": [
        {
          "internalType": "bytes32",
          "name": "role",
          "type": "bytes32"
        }
      ],
      "name": "getRoleAdmin",
      "outputs": [
        {
          "internalType": "bytes32",
          "name": "",
          "type": "bytes32"
        }
      ],
      "stateMutability": "view",
      "type": "function"
    },
    {
      "inputs": [
        {
          "internalType": "bytes32",
          "name": "role",
          "type": "bytes32"
        },
        {
          "internalType": "address",
          "name": "account",
          "type": "address"
        }
      ],
      "name": "grantRole",
      "outputs": [],
      "stateMutability": "nonpayable",
      "type": "function"
    },
    {
      "inputs": [
        {
          "internalType": "bytes32",
          "name": "",
          "type": "bytes32"
        },
        {
          "internalType": "address",
          "name": "",
          "type": "address"
        }
      ],
      "name": "hasAttestedOrder",
      "outputs": [
        {
          "internalType": "bool",
          "name": "",
          "type": "bool"
        }
      ],
      "stateMutability": "view",
      "type": "function"
    },
    {
      "inputs": [
        {
          "internalType": "bytes32",
          "name": "role",
          "type": "bytes32"
        },
        {
          "internalType": "address",
          "name": "account",
          "type": "address"
        }
      ],
      "name": "hasRole",
      "outputs": [
        {
          "internalType": "bool",
          "name": "",
          "type": "bool"
        }
      ],
      "stateMutability": "view",
      "type": "function"
    },
    {
      "inputs": [
        {
          "internalType": "address",
          "name": "_owner",
          "type": "address"
        }
      ],
      "name": "initialize",
      "outputs": [],
      "stateMutability": "nonpayable",
      "type": "function"
    },
    {
      "inputs": [],
      "name": "limitPerBatch",
      "outputs": [
        {
          "internalType": "uint256",
          "name": "",
          "type": "uint256"
        }
      ],
      "stateMutability": "view",
      "type": "function"
    },
    {
      "inputs": [
        {
          "internalType": "bytes4",
          "name": "",
          "type": "bytes4"
        }
      ],
      "name": "networkHaltedMap",
      "outputs": [
        {
          "internalType": "bool",
          "name": "",
          "type": "bool"
        }
      ],
      "stateMutability": "view",
      "type": "function"
    },
    {
      "inputs": [],
      "name": "orderBook",
      "outputs": [
        {
          "internalType": "contract OrderBook",
          "name": "",
          "type": "address"
        }
      ],
      "stateMutability": "view",
      "type": "function"
    },
    {
      "inputs": [
        {
          "internalType": "bytes32",
          "name": "",
          "type": "bytes32"
        }
      ],
      "name": "pendingOrders",
      "outputs": [
        {
          "internalType": "bytes32",
          "name": "orderId",
          "type": "bytes32"
        },
        {
          "internalType": "bytes32",
          "name": "next",
          "type": "bytes32"
        },
        {
          "internalType": "uint256",
          "name": "validSubmissionsCount",
          "type": "uint256"
        },
        {
          "internalType": "bytes",
          "name": "messagePayload",
          "type": "bytes"
        },
        {
          "internalType": "bytes4",
          "name": "network",
          "type": "bytes4"
        },
        {
          "internalType": "uint256",
          "name": "timestamp",
          "type": "uint256"
        }
      ],
      "stateMutability": "view",
      "type": "function"
    },
    {
      "inputs": [
        {
          "internalType": "bytes4",
          "name": "",
          "type": "bytes4"
        }
      ],
      "name": "pendingOrdersHeadByNetwork",
      "outputs": [
        {
          "internalType": "bytes32",
          "name": "",
          "type": "bytes32"
        }
      ],
      "stateMutability": "view",
      "type": "function"
    },
    {
      "inputs": [],
      "name": "quorum",
      "outputs": [
        {
          "internalType": "uint256",
          "name": "",
          "type": "uint256"
        }
      ],
      "stateMutability": "view",
      "type": "function"
    },
    {
      "inputs": [
        {
          "internalType": "bytes4",
          "name": "",
          "type": "bytes4"
        }
      ],
      "name": "recentAddedCounters",
      "outputs": [
        {
          "internalType": "uint256",
          "name": "",
          "type": "uint256"
        }
      ],
      "stateMutability": "view",
      "type": "function"
    },
    {
      "inputs": [
        {
          "internalType": "bytes4",
          "name": "networkId",
          "type": "bytes4"
        }
      ],
      "name": "recentCount",
      "outputs": [
        {
          "internalType": "uint256",
          "name": "",
          "type": "uint256"
        }
      ],
      "stateMutability": "view",
      "type": "function"
    },
    {
      "inputs": [
        {
          "internalType": "bytes32",
          "name": "role",
          "type": "bytes32"
        },
        {
          "internalType": "address",
          "name": "account",
          "type": "address"
        }
      ],
      "name": "renounceRole",
      "outputs": [],
      "stateMutability": "nonpayable",
      "type": "function"
    },
    {
      "inputs": [
        {
          "internalType": "bytes32",
          "name": "role",
          "type": "bytes32"
        },
        {
          "internalType": "address",
          "name": "account",
          "type": "address"
        }
      ],
      "name": "revokeRole",
      "outputs": [],
      "stateMutability": "nonpayable",
      "type": "function"
    },
    {
      "inputs": [
        {
          "internalType": "address",
          "name": "_attestersVerifierProofs",
          "type": "address"
        }
      ],
      "name": "setAttestationsVerifierProofs",
      "outputs": [],
      "stateMutability": "nonpayable",
      "type": "function"
    },
    {
      "inputs": [
        {
          "internalType": "address payable",
          "name": "_attestersPortal",
          "type": "address"
        }
      ],
      "name": "setAttestersPortal",
      "outputs": [],
      "stateMutability": "nonpayable",
      "type": "function"
    },
    {
      "inputs": [
        {
          "internalType": "address payable",
          "name": "_biddingBook",
          "type": "address"
        }
      ],
      "name": "setBiddingBook",
      "outputs": [],
      "stateMutability": "nonpayable",
      "type": "function"
    },
    {
      "inputs": [
        {
          "internalType": "uint256",
          "name": "_limitPerBatch",
          "type": "uint256"
        }
      ],
      "name": "setLimitPerBatch",
      "outputs": [],
      "stateMutability": "nonpayable",
      "type": "function"
    },
    {
      "inputs": [
        {
          "internalType": "address payable",
          "name": "_orderBook",
          "type": "address"
        }
      ],
      "name": "setOrderBook",
      "outputs": [],
      "stateMutability": "nonpayable",
      "type": "function"
    },
    {
      "inputs": [
        {
          "internalType": "uint256",
          "name": "_quorum",
          "type": "uint256"
        }
      ],
      "name": "setQuorum",
      "outputs": [],
      "stateMutability": "nonpayable",
      "type": "function"
    },
    {
      "inputs": [
        {
          "internalType": "address payable",
          "name": "_singleAttestationBook",
          "type": "address"
        }
      ],
      "name": "setSingleAttestationBook",
      "outputs": [],
      "stateMutability": "nonpayable",
      "type": "function"
    },
    {
      "inputs": [
        {
          "internalType": "bytes4",
          "name": "networkId",
          "type": "bytes4"
        },
        {
          "internalType": "uint256",
          "name": "_startingBatchIndex",
          "type": "uint256"
        }
      ],
      "name": "setStartingBatchIndex",
      "outputs": [],
      "stateMutability": "nonpayable",
      "type": "function"
    },
    {
      "inputs": [
        {
          "internalType": "bytes32",
          "name": "_version",
          "type": "bytes32"
        }
      ],
      "name": "setVersion",
      "outputs": [],
      "stateMutability": "nonpayable",
      "type": "function"
    },
    {
      "inputs": [],
      "name": "singleAttestationBook",
      "outputs": [
        {
          "internalType": "contract SingleAttestationBookV3",
          "name": "",
          "type": "address"
        }
      ],
      "stateMutability": "view",
      "type": "function"
    },
    {
      "inputs": [
        {
          "internalType": "bytes4",
          "name": "interfaceId",
          "type": "bytes4"
        }
      ],
      "name": "supportsInterface",
      "outputs": [
        {
          "internalType": "bool",
          "name": "",
          "type": "bool"
        }
      ],
      "stateMutability": "view",
      "type": "function"
    },
    {
      "inputs": [],
      "name": "version",
      "outputs": [
        {
          "internalType": "bytes32",
          "name": "",
          "type": "bytes32"
        }
      ],
      "stateMutability": "view",
      "type": "function"
    }
  ],
  "bytecode": "0x60806040523480156200001157600080fd5b50620000226200002860201b60201c565b620001d2565b600060019054906101000a900460ff16156200007b576040517f08c379a0000000000000000000000000000000000000000000000000000000008152600401620000729062000175565b60405180910390fd5b60ff801660008054906101000a900460ff1660ff1614620000ec5760ff6000806101000a81548160ff021916908360ff1602179055507f7f26b83ff96e1f2b6a682f133852f6798a09c465da95921460cefb384740249860ff604051620000e39190620001b5565b60405180910390a15b565b600082825260208201905092915050565b7f496e697469616c697a61626c653a20636f6e747261637420697320696e69746960008201527f616c697a696e6700000000000000000000000000000000000000000000000000602082015250565b60006200015d602783620000ee565b91506200016a82620000ff565b604082019050919050565b6000602082019050818103600083015262000190816200014e565b9050919050565b600060ff82169050919050565b620001af8162000197565b82525050565b6000602082019050620001cc6000830184620001a4565b92915050565b61592380620001e26000396000f3fe608060405234801561001057600080fd5b50600436106102a05760003560e01c80635f0737a511610167578063ae890591116100ce578063ccf428ff11610087578063ccf428ff146108e9578063d03685cb14610907578063d20b662a14610923578063d547741f14610953578063de00427a1461096f578063ffe6d2f3146109a2576102a0565b8063ae8905911461082a578063ba6466f71461085b578063c1ba4e5914610877578063c26c12eb14610893578063c4d66de8146108b1578063ca5f81b5146108cd576102a0565b806383cc3e4b1161012057806383cc3e4b1461073057806385d9cded1461076057806391d148541461079057806399be018c146107c05780639a1598c8146107f0578063a217fddf1461080c576102a0565b80635f0737a5146106315780635fbe1eb114610661578063693ecfb714610691578063776af5ba146106c15780637b55766f146106df5780637d7f68ff14610714576102a0565b8063322e34c51161020b57806352caef19116101c457806352caef191461054757806354fd4d5014610577578063591005e6146105955780635a5cf617146105b35780635d1c5710146105e35780635dc331f814610601576102a0565b8063322e34c51461047157806332946aca1461048f57806336568abe146104bf5780633aac5d3d146104db578063409e16aa146104f957806346423aa714610515576102a0565b806321e308761161025d57806321e308761461038b57806323eb9633146103bb57806324874f75146103eb578063248a9ca3146104075780632aa8269e146104375780632f2ff15d14610455576102a0565b806301ffc9a7146102a557806309fa30ba146102d557806312bcf96f146103055780631540857e146103215780631703a018146103515780631966c1541461036f575b600080fd5b6102bf60048036038101906102ba919061394a565b6109d2565b6040516102cc9190613992565b60405180910390f35b6102ef60048036038101906102ea919061394a565b610a4c565b6040516102fc9190613a75565b60405180910390f35b61031f600480360381019061031a9190613acd565b610bda565b005b61033b60048036038101906103369190613b72565b610c80565b6040516103489190613c62565b60405180910390f35b610359610cb3565b6040516103669190613c93565b60405180910390f35b61038960048036038101906103849190613d0c565b610cb9565b005b6103a560048036038101906103a0919061394a565b610d49565b6040516103b29190613d48565b60405180910390f35b6103d560048036038101906103d09190613dcd565b610d61565b6040516103e29190613992565b60405180910390f35b61040560048036038101906104009190613e0d565b610d90565b005b610421600480360381019061041c9190613e3a565b610de6565b60405161042e9190613d48565b60405180910390f35b61043f610e06565b60405161044c9190613ec6565b60405180910390f35b61046f600480360381019061046a9190613dcd565b610e2c565b005b610479610e4d565b6040516104869190613c93565b60405180910390f35b6104a960048036038101906104a49190613e3a565b610e53565b6040516104b69190613d48565b60405180910390f35b6104d960048036038101906104d49190613dcd565b610e6b565b005b6104e3610eee565b6040516104f09190613f14565b60405180910390f35b610513600480360381019061050e9190613d0c565b610f14565b005b61052f600480360381019061052a9190613e3a565b610fa4565b60405161053e93929190614056565b60405180910390f35b610561600480360381019061055c9190613e3a565b6112a0565b60405161056e919061413d565b60405180910390f35b61057f61137d565b60405161058c9190613d48565b60405180910390f35b61059d611383565b6040516105aa9190613c93565b60405180910390f35b6105cd60048036038101906105c8919061394a565b6113a0565b6040516105da9190613d48565b60405180910390f35b6105eb6113b8565b6040516105f89190614180565b60405180910390f35b61061b600480360381019061061691906141f1565b6113de565b6040516106289190613992565b60405180910390f35b61064b6004803603810190610646919061394a565b61198a565b6040516106589190613c93565b60405180910390f35b61067b6004803603810190610676919061394a565b6119a2565b6040516106889190613c93565b60405180910390f35b6106ab60048036038101906106a6919061394a565b611a40565b6040516106b89190613992565b60405180910390f35b6106c9611a60565b6040516106d6919061429a565b60405180910390f35b6106f960048036038101906106f49190613e3a565b611a86565b60405161070b969594939291906142c4565b60405180910390f35b61072e6004803603810190610729919061432c565b611b57565b005b61074a6004803603810190610745919061457d565b611d80565b6040516107579190613c62565b60405180910390f35b61077a6004803603810190610775919061394a565b611e32565b6040516107879190613c93565b60405180910390f35b6107aa60048036038101906107a59190613dcd565b611e4a565b6040516107b79190613992565b60405180910390f35b6107da60048036038101906107d5919061394a565b611eb5565b6040516107e79190613c93565b60405180910390f35b61080a60048036038101906108059190613d0c565b611ecd565b005b610814611f5d565b6040516108219190613d48565b60405180910390f35b610844600480360381019061083f91906145c6565b611f64565b6040516108529291906146db565b60405180910390f35b61087560048036038101906108709190614712565b61221a565b005b610891600480360381019061088c9190613e0d565b6122aa565b005b61089b612300565b6040516108a89190613c93565b60405180910390f35b6108cb60048036038101906108c69190614712565b61231d565b005b6108e760048036038101906108e29190613e3a565b612469565b005b6108f16124bf565b6040516108fe9190614760565b60405180910390f35b610921600480360381019061091c9190613d0c565b6124e5565b005b61093d6004803603810190610938919061394a565b612575565b60405161094a9190613c93565b60405180910390f35b61096d60048036038101906109689190613dcd565b61258d565b005b61098960048036038101906109849190613e3a565b6125ae565b604051610999949392919061477b565b60405180910390f35b6109bc60048036038101906109b7919061394a565b612666565b6040516109c99190613c93565b60405180910390f35b60007f7965db0b000000000000000000000000000000000000000000000000000000007bffffffffffffffffffffffffffffffffffffffffffffffffffffffff1916827bffffffffffffffffffffffffffffffffffffffffffffffffffffffff19161480610a455750610a448261267e565b5b9050919050565b6060600080609a6000857bffffffffffffffffffffffffffffffffffffffffffffffffffffffff19167bffffffffffffffffffffffffffffffffffffffffffffffffffffffff191681526020019081526020016000205490505b6000801b8114610adc578180610abb906147f6565b92505060976000828152602001908152602001600020600101549050610aa6565b60008267ffffffffffffffff811115610af857610af761436c565b5b604051908082528060200260200182016040528015610b265781602001602082028036833780820191505090505b509050609a6000867bffffffffffffffffffffffffffffffffffffffffffffffffffffffff19167bffffffffffffffffffffffffffffffffffffffffffffffffffffffff1916815260200190815260200160002054915060005b83811015610bce5782828281518110610b9c57610b9b61483e565b5b602002602001018181525050609760008481526020019081526020016000206001015492508080600101915050610b80565b50809350505050919050565b610be76000801b33611e4a565b610c26576040517f08c379a0000000000000000000000000000000000000000000000000000000008152600401610c1d906148ca565b60405180910390fd5b8060a66000847bffffffffffffffffffffffffffffffffffffffffffffffffffffffff19167bffffffffffffffffffffffffffffffffffffffffffffffffffffffff19168152602001908152602001600020819055505050565b606060008383604051602001610c9792919061495f565b6040516020818303038152906040529050809150509392505050565b60a85481565b610cc66000801b33611e4a565b610d05576040517f08c379a0000000000000000000000000000000000000000000000000000000008152600401610cfc906148ca565b60405180910390fd5b80609c60006101000a81548173ffffffffffffffffffffffffffffffffffffffff021916908373ffffffffffffffffffffffffffffffffffffffff16021790555050565b609a6020528060005260406000206000915090505481565b609f6020528160005260406000206020528060005260406000206000915091509054906101000a900460ff1681565b610d9d6000801b33611e4a565b610ddc576040517f08c379a0000000000000000000000000000000000000000000000000000000008152600401610dd3906148ca565b60405180910390fd5b8060a98190555050565b600060656000838152602001908152602001600020600101549050919050565b609e60009054906101000a900473ffffffffffffffffffffffffffffffffffffffff1681565b610e3582610de6565b610e3e816126e8565b610e4883836126fc565b505050565b60a95481565b609b6020528060005260406000206000915090505481565b610e736127dd565b73ffffffffffffffffffffffffffffffffffffffff168173ffffffffffffffffffffffffffffffffffffffff1614610ee0576040517f08c379a0000000000000000000000000000000000000000000000000000000008152600401610ed7906149ea565b60405180910390fd5b610eea82826127e5565b5050565b60aa60009054906101000a900473ffffffffffffffffffffffffffffffffffffffff1681565b610f216000801b33611e4a565b610f60576040517f08c379a0000000000000000000000000000000000000000000000000000000008152600401610f57906148ca565b60405180910390fd5b80609e60006101000a81548173ffffffffffffffffffffffffffffffffffffffff021916908373ffffffffffffffffffffffffffffffffffffffff16021790555050565b610fac613739565b600080609d60009054906101000a900473ffffffffffffffffffffffffffffffffffffffff1673ffffffffffffffffffffffffffffffffffffffff1663eacce00a856040518263ffffffff1660e01b815260040161100a9190613d48565b602060405180830381865afa158015611027573d6000803e3d6000fd5b505050506040513d601f19601f8201168201806040525081019061104b9190614a36565b156111c157600080609d60009054906101000a900473ffffffffffffffffffffffffffffffffffffffff1673ffffffffffffffffffffffffffffffffffffffff16635778472a876040518263ffffffff1660e01b81526004016110ae9190613d48565b61016060405180830381865afa1580156110cc573d6000803e3d6000fd5b505050506040513d601f19601f820116820180604052508101906110f09190614bde565b915091506000609e60009054906101000a900473ffffffffffffffffffffffffffffffffffffffff1673ffffffffffffffffffffffffffffffffffffffff16638ae2b59a886040518263ffffffff1660e01b81526004016111519190613d48565b602060405180830381865afa15801561116e573d6000803e3d6000fd5b505050506040513d601f19601f820116820180604052508101906111929190614c20565b905060006097600089815260200190815260200160002060050154905083828296509650965050505050611299565b604051806101400160405280600060e01b7bffffffffffffffffffffffffffffffffffffffffffffffffffffffff19168152602001600060e01b7bffffffffffffffffffffffffffffffffffffffffffffffffffffffff19168152602001600063ffffffff1681526020016000801b815260200160008152602001600073ffffffffffffffffffffffffffffffffffffffff16815260200160008152602001600063ffffffff168152602001600073ffffffffffffffffffffffffffffffffffffffff16815260200160008152506000809250925092505b9193909250565b6112a8613805565b609860008381526020019081526020016000206040518060800160405290816000820154815260200160018201548152602001600282015481526020016003820180546112f490614c7c565b80601f016020809104026020016040519081016040528092919081815260200182805461132090614c7c565b801561136d5780601f106113425761010080835404028352916020019161136d565b820191906000526020600020905b81548152906001019060200180831161135057829003601f168201915b5050505050815250509050919050565b60a05481565b60008060a95403611397576005905061139d565b60a95490505b90565b60996020528060005260406000206000915090505481565b609c60009054906101000a900473ffffffffffffffffffffffffffffffffffffffff1681565b6000609c60009054906101000a900473ffffffffffffffffffffffffffffffffffffffff1673ffffffffffffffffffffffffffffffffffffffff163373ffffffffffffffffffffffffffffffffffffffff1614611470576040517f08c379a000000000000000000000000000000000000000000000000000000000815260040161146790614d1f565b60405180910390fd5b60006097600087815260200190815260200160002090508581600001540361163157609f600087815260200190815260200160002060008673ffffffffffffffffffffffffffffffffffffffff1673ffffffffffffffffffffffffffffffffffffffff16815260200190815260200160002060009054906101000a900460ff16156114ff576000915050611981565b6001609f600088815260200190815260200160002060008773ffffffffffffffffffffffffffffffffffffffff1673ffffffffffffffffffffffffffffffffffffffff16815260200190815260200160002060006101000a81548160ff02191690831515021790555080600201600081548092919061157d906147f6565b919050555060a8548160020154106116275761162687878360030180546115a390614c7c565b80601f01602080910402602001604051908101604052809291908181526020018280546115cf90614c7c565b801561161c5780601f106115f15761010080835404028352916020019161161c565b820191906000526020600020905b8154815290600101906020018083116115ff57829003601f168201915b50505050506128c7565b5b6000915050611981565b60006040518060c00160405280888152602001609960008b7bffffffffffffffffffffffffffffffffffffffffffffffffffffffff19167bffffffffffffffffffffffffffffffffffffffffffffffffffffffff191681526020019081526020016000205481526020016001815260200186868080601f016020809104026020016040519081016040528093929190818152602001838380828437600081840152601f19601f820116905080830192505050505050508152602001897bffffffffffffffffffffffffffffffffffffffffffffffffffffffff191681526020014281525090508060976000898152602001908152602001600020600082015181600001556020820151816001015560408201518160020155606082015181600301908161175e9190614ee1565b5060808201518160040160006101000a81548163ffffffff021916908360e01c021790555060a0820151816005015590505086609960008a7bffffffffffffffffffffffffffffffffffffffffffffffffffffffff19167bffffffffffffffffffffffffffffffffffffffffffffffffffffffff19168152602001908152602001600020819055506001609f600089815260200190815260200160002060008873ffffffffffffffffffffffffffffffffffffffff1673ffffffffffffffffffffffffffffffffffffffff16815260200190815260200160002060006101000a81548160ff02191690831515021790555060a26000897bffffffffffffffffffffffffffffffffffffffffffffffffffffffff19167bffffffffffffffffffffffffffffffffffffffffffffffffffffffff1916815260200190815260200160002060008154809291906118b1906147f6565b919050555060a16000897bffffffffffffffffffffffffffffffffffffffffffffffffffffffff19167bffffffffffffffffffffffffffffffffffffffffffffffffffffffff191681526020019081526020016000206000815480929190611918906147f6565b919050555060a85481604001511061197a57611979888887878080601f016020809104026020016040519081016040528093929190818152602001838380828437600081840152601f19601f820116905080830192505050505050506128c7565b5b6001925050505b95945050505050565b60a66020528060005260406000206000915090505481565b60008060009050600060996000857bffffffffffffffffffffffffffffffffffffffffffffffffffffffff19167bffffffffffffffffffffffffffffffffffffffffffffffffffffffff191681526020019081526020016000205490505b6000801b8114611a36578180611a15906147f6565b92505060976000828152602001908152602001600020600101549050611a00565b8192505050919050565b60a46020528060005260406000206000915054906101000a900460ff1681565b609d60009054906101000a900473ffffffffffffffffffffffffffffffffffffffff1681565b6097602052806000526040600020600091509050806000015490806001015490806002015490806003018054611abb90614c7c565b80601f0160208091040260200160405190810160405280929190818152602001828054611ae790614c7c565b8015611b345780601f10611b0957610100808354040283529160200191611b34565b820191906000526020600020905b815481529060010190602001808311611b1757829003601f168201915b5050505050908060040160009054906101000a900460e01b908060050154905086565b609c60009054906101000a900473ffffffffffffffffffffffffffffffffffffffff1673ffffffffffffffffffffffffffffffffffffffff163373ffffffffffffffffffffffffffffffffffffffff1614611be7576040517f08c379a0000000000000000000000000000000000000000000000000000000008152600401611bde90614d1f565b60405180910390fd5b60006097600084815260200190815260200160002090506000801b816000015403611c125750611d7c565b6000801b609860008581526020019081526020016000206000015414611c385750611d7c565b604051806080016040528084815260200183815260200182600301604051611c609190615041565b60405180910390208152602001826003018054611c7c90614c7c565b80601f0160208091040260200160405190810160405280929190818152602001828054611ca890614c7c565b8015611cf55780601f10611cca57610100808354040283529160200191611cf5565b820191906000526020600020905b815481529060010190602001808311611cd857829003601f168201915b5050505050815250609860008581526020019081526020016000206000820151816000015560208201518160010155604082015181600201556060820151816003019081611d439190614ee1565b5090505081609b600085815260200190815260200160002081905550611d7a838260040160009054906101000a900460e01b612d87565b505b5050565b606060008067ffffffffffffffff811115611d9e57611d9d61436c565b5b6040519080825280601f01601f191660200182016040528015611dd05781602001600182028036833780820191505090505b50905060005b8351811015611e285781848281518110611df357611df261483e565b5b6020026020010151604051602001611e0c929190615089565b6040516020818303038152906040529150806001019050611dd6565b5080915050919050565b60a26020528060005260406000206000915090505481565b60006065600084815260200190815260200160002060000160008373ffffffffffffffffffffffffffffffffffffffff1673ffffffffffffffffffffffffffffffffffffffff16815260200190815260200160002060009054906101000a900460ff16905092915050565b60a36020528060005260406000206000915090505481565b611eda6000801b33611e4a565b611f19576040517f08c379a0000000000000000000000000000000000000000000000000000000008152600401611f10906148ca565b60405180910390fd5b80609d60006101000a81548173ffffffffffffffffffffffffffffffffffffffff021916908373ffffffffffffffffffffffffffffffffffffffff16021790555050565b6000801b81565b606080600060a66000857bffffffffffffffffffffffffffffffffffffffffffffffffffffffff19167bffffffffffffffffffffffffffffffffffffffffffffffffffffffff19168152602001908152602001600020549050600060a56000867bffffffffffffffffffffffffffffffffffffffffffffffffffffffff19167bffffffffffffffffffffffffffffffffffffffffffffffffffffffff19168152602001908152602001600020600083815260200190815260200160002090506000816000018054905067ffffffffffffffff8111156120465761204561436c565b5b6040519080825280602002602001820160405280156120745781602001602082028036833780820191505090505b5090506000826001018054905067ffffffffffffffff81111561209a5761209961436c565b5b6040519080825280602002602001820160405280156120cd57816020015b60608152602001906001900390816120b85790505b50905060005b8360000180549050811080156120e857508881105b15612207578360000181815481106121035761210261483e565b5b90600052602060002001548382815181106121215761212061483e565b5b6020026020010181815250508360010181815481106121435761214261483e565b5b90600052602060002001805461215890614c7c565b80601f016020809104026020016040519081016040528092919081815260200182805461218490614c7c565b80156121d15780601f106121a6576101008083540402835291602001916121d1565b820191906000526020600020905b8154815290600101906020018083116121b457829003601f168201915b50505050508282815181106121e9576121e861483e565b5b602002602001018190525080806121ff906147f6565b9150506120d3565b5081819550955050505050935093915050565b6122276000801b33611e4a565b612266576040517f08c379a000000000000000000000000000000000000000000000000000000000815260040161225d906148ca565b60405180910390fd5b8060ab60006101000a81548173ffffffffffffffffffffffffffffffffffffffff021916908373ffffffffffffffffffffffffffffffffffffffff16021790555050565b6122b76000801b33611e4a565b6122f6576040517f08c379a00000000000000000000000000000000000000000000000000000000081526004016122ed906148ca565b60405180910390fd5b8060a88190555050565b60008060a85403612314576001905061231a565b60a85490505b90565b60008060019054906101000a900460ff1615905080801561234e5750600160008054906101000a900460ff1660ff16105b8061237b575061235d30613067565b15801561237a5750600160008054906101000a900460ff1660ff16145b5b6123ba576040517f08c379a00000000000000000000000000000000000000000000000000000000081526004016123b19061511f565b60405180910390fd5b60016000806101000a81548160ff021916908360ff16021790555080156123f7576001600060016101000a81548160ff0219169083151502179055505b6123ff61308a565b61240c6000801b836126fc565b80156124655760008060016101000a81548160ff0219169083151502179055507f7f26b83ff96e1f2b6a682f133852f6798a09c465da95921460cefb3847402498600160405161245c9190615187565b60405180910390a15b5050565b6124766000801b33611e4a565b6124b5576040517f08c379a00000000000000000000000000000000000000000000000000000000081526004016124ac906148ca565b60405180910390fd5b8060a08190555050565b60ab60009054906101000a900473ffffffffffffffffffffffffffffffffffffffff1681565b6124f26000801b33611e4a565b612531576040517f08c379a0000000000000000000000000000000000000000000000000000000008152600401612528906148ca565b60405180910390fd5b8060aa60006101000a81548173ffffffffffffffffffffffffffffffffffffffff021916908373ffffffffffffffffffffffffffffffffffffffff16021790555050565b60a76020528060005260406000206000915090505481565b61259682610de6565b61259f816126e8565b6125a983836127e5565b505050565b60986020528060005260406000206000915090508060000154908060010154908060020154908060030180546125e390614c7c565b80601f016020809104026020016040519081016040528092919081815260200182805461260f90614c7c565b801561265c5780601f106126315761010080835404028352916020019161265c565b820191906000526020600020905b81548152906001019060200180831161263f57829003601f168201915b5050505050905084565b60a16020528060005260406000206000915090505481565b60007f01ffc9a7000000000000000000000000000000000000000000000000000000007bffffffffffffffffffffffffffffffffffffffffffffffffffffffff1916827bffffffffffffffffffffffffffffffffffffffffffffffffffffffff1916149050919050565b6126f9816126f46127dd565b6130db565b50565b6127068282611e4a565b6127d95760016065600084815260200190815260200160002060000160008373ffffffffffffffffffffffffffffffffffffffff1673ffffffffffffffffffffffffffffffffffffffff16815260200190815260200160002060006101000a81548160ff02191690831515021790555061277e6127dd565b73ffffffffffffffffffffffffffffffffffffffff168173ffffffffffffffffffffffffffffffffffffffff16837f2f8788117e7eff1d82e926ec794901d17c78024a50270940304540a733656f0d60405160405180910390a45b5050565b600033905090565b6127ef8282611e4a565b156128c35760006065600084815260200190815260200160002060000160008373ffffffffffffffffffffffffffffffffffffffff1673ffffffffffffffffffffffffffffffffffffffff16815260200190815260200160002060006101000a81548160ff0219169083151502179055506128686127dd565b73ffffffffffffffffffffffffffffffffffffffff168173ffffffffffffffffffffffffffffffffffffffff16837ff6391f5c32d9c69d2a47ea670b442974b53935d1edc7fd64eb21e047a839171b60405160405180910390a45b5050565b600060a66000857bffffffffffffffffffffffffffffffffffffffffffffffffffffffff19167bffffffffffffffffffffffffffffffffffffffffffffffffffffffff19168152602001908152602001600020549050600060a56000867bffffffffffffffffffffffffffffffffffffffffffffffffffffffff19167bffffffffffffffffffffffffffffffffffffffffffffffffffffffff19168152602001908152602001600020600083815260200190815260200160002090508060000184908060018154018082558091505060019003906000526020600020016000909190919091505580600101839080600181540180825580915050600190039060005260206000200160009091909190915090816129e49190614ee1565b503073ffffffffffffffffffffffffffffffffffffffff1663591005e66040518163ffffffff1660e01b8152600401602060405180830381865afa158015612a30573d6000803e3d6000fd5b505050506040513d601f19601f82011682018060405250810190612a5491906151a2565b816000018054905010612d805760a66000867bffffffffffffffffffffffffffffffffffffffffffffffffffffffff19167bffffffffffffffffffffffffffffffffffffffffffffffffffffffff191681526020019081526020016000206000815480929190612ac3906147f6565b919050555060a76000867bffffffffffffffffffffffffffffffffffffffffffffffffffffffff19167bffffffffffffffffffffffffffffffffffffffffffffffffffffffff191681526020019081526020016000206000815480929190612b2a906147f6565b91905055506000612c0d82600101805480602002602001604051908101604052809291908181526020016000905b82821015612c04578382906000526020600020018054612b7790614c7c565b80601f0160208091040260200160405190810160405280929190818152602001828054612ba390614c7c565b8015612bf05780601f10612bc557610100808354040283529160200191612bf0565b820191906000526020600020905b815481529060010190602001808311612bd357829003601f168201915b505050505081526020019060010190612b58565b50505050611d80565b90506000612c6d8260a660008a7bffffffffffffffffffffffffffffffffffffffffffffffffffffffff19167bffffffffffffffffffffffffffffffffffffffffffffffffffffffff191681526020019081526020016000205489613160565b9050600060ab60009054906101000a900473ffffffffffffffffffffffffffffffffffffffff1673ffffffffffffffffffffffffffffffffffffffff16630660bab9836040518263ffffffff1660e01b8152600401612ccc9190615337565b600060405180830381865afa158015612ce9573d6000803e3d6000fd5b505050506040513d6000823e3d601f19601f82011682018060405250810190612d1291906153c9565b80519060200120905060005b8460000180549050811015612d725781609b6000876000018481548110612d4857612d4761483e565b5b90600052602060002001548152602001908152602001600020819055508080600101915050612d1e565b508084600201819055505050505b5050505050565b600060996000837bffffffffffffffffffffffffffffffffffffffffffffffffffffffff19167bffffffffffffffffffffffffffffffffffffffffffffffffffffffff1916815260200190815260200160002054905060008060001b90505b6000801b8214158015612df95750838214155b15612e1f5781905060976000838152602001908152602001600020600101549150612de6565b838214612e2d575050613063565b6000801b8103612ea857609760008581526020019081526020016000206001015460996000857bffffffffffffffffffffffffffffffffffffffffffffffffffffffff19167bffffffffffffffffffffffffffffffffffffffffffffffffffffffff1916815260200190815260200160002081905550612eda565b609760008581526020019081526020016000206001015460976000838152602001908152602001600020600101819055505b6097600085815260200190815260200160002060008082016000905560018201600090556002820160009055600382016000612f169190613836565b6004820160006101000a81549063ffffffff02191690556005820160009055505060a36000847bffffffffffffffffffffffffffffffffffffffffffffffffffffffff19167bffffffffffffffffffffffffffffffffffffffffffffffffffffffff191681526020019081526020016000206000815480929190612f99906147f6565b9190505550600060a16000857bffffffffffffffffffffffffffffffffffffffffffffffffffffffff19167bffffffffffffffffffffffffffffffffffffffffffffffffffffffff191681526020019081526020016000205411156130605760a16000847bffffffffffffffffffffffffffffffffffffffffffffffffffffffff19167bffffffffffffffffffffffffffffffffffffffffffffffffffffffff19168152602001908152602001600020600081548092919061305a90615412565b91905055505b50505b5050565b6000808273ffffffffffffffffffffffffffffffffffffffff163b119050919050565b600060019054906101000a900460ff166130d9576040517f08c379a00000000000000000000000000000000000000000000000000000000081526004016130d0906154ad565b60405180910390fd5b565b6130e58282611e4a565b61315c576130f2816134d0565b6131008360001c60206134fd565b6040516020016131119291906155ac565b6040516020818303038152906040526040517f08c379a0000000000000000000000000000000000000000000000000000000008152600401613153919061561f565b60405180910390fd5b5050565b613168613876565b600060aa60009054906101000a900473ffffffffffffffffffffffffffffffffffffffff1673ffffffffffffffffffffffffffffffffffffffff1663484f657b6040518163ffffffff1660e01b8152600401600060405180830381865afa1580156131d7573d6000803e3d6000fd5b505050506040513d6000823e3d601f19601f820116820180604052508101906132009190615704565b9050600060aa60009054906101000a900473ffffffffffffffffffffffffffffffffffffffff1673ffffffffffffffffffffffffffffffffffffffff1663d34ad5796040518163ffffffff1660e01b8152600401600060405180830381865afa158015613271573d6000803e3d6000fd5b505050506040513d6000823e3d601f19601f8201168201806040525081019061329a9190615704565b905060008067ffffffffffffffff8111156132b8576132b761436c565b5b6040519080825280602002602001820160405280156132e65781602001602082028036833780820191505090505b509050600060ab60009054906101000a900473ffffffffffffffffffffffffffffffffffffffff1673ffffffffffffffffffffffffffffffffffffffff16633014cbc9856040518263ffffffff1660e01b815260040161334691906157bc565b602060405180830381865afa158015613363573d6000803e3d6000fd5b505050506040513d601f19601f8201168201806040525081019061338791906157de565b9050600060ab60009054906101000a900473ffffffffffffffffffffffffffffffffffffffff1673ffffffffffffffffffffffffffffffffffffffff16633014cbc9856040518263ffffffff1660e01b81526004016133e691906157bc565b602060405180830381865afa158015613403573d6000803e3d6000fd5b505050506040513d601f19601f8201168201806040525081019061342791906157de565b90506040518060e0016040528060a460008a7bffffffffffffffffffffffffffffffffffffffffffffffffffffffff19167bffffffffffffffffffffffffffffffffffffffffffffffffffffffff1916815260200190815260200160002060009054906101000a900460ff16151581526020018381526020018281526020018481526020018481526020018a81526020018963ffffffff16815250955050505050509392505050565b60606134f68273ffffffffffffffffffffffffffffffffffffffff16601460ff166134fd565b9050919050565b606060006002836002613510919061580b565b61351a919061584d565b67ffffffffffffffff8111156135335761353261436c565b5b6040519080825280601f01601f1916602001820160405280156135655781602001600182028036833780820191505090505b5090507f30000000000000000000000000000000000000000000000000000000000000008160008151811061359d5761359c61483e565b5b60200101907effffffffffffffffffffffffffffffffffffffffffffffffffffffffffffff1916908160001a9053507f7800000000000000000000000000000000000000000000000000000000000000816001815181106136015761360061483e565b5b60200101907effffffffffffffffffffffffffffffffffffffffffffffffffffffffffffff1916908160001a90535060006001846002613641919061580b565b61364b919061584d565b90505b60018111156136eb577f3031323334353637383961626364656600000000000000000000000000000000600f86166010811061368d5761368c61483e565b5b1a60f81b8282815181106136a4576136a361483e565b5b60200101907effffffffffffffffffffffffffffffffffffffffffffffffffffffffffffff1916908160001a905350600485901c9450806136e490615412565b905061364e565b506000841461372f576040517f08c379a0000000000000000000000000000000000000000000000000000000008152600401613726906158cd565b60405180910390fd5b8091505092915050565b60405180610140016040528060007bffffffffffffffffffffffffffffffffffffffffffffffffffffffff1916815260200160007bffffffffffffffffffffffffffffffffffffffffffffffffffffffff19168152602001600063ffffffff1681526020016000801916815260200160008152602001600073ffffffffffffffffffffffffffffffffffffffff16815260200160008152602001600063ffffffff168152602001600073ffffffffffffffffffffffffffffffffffffffff168152602001600081525090565b6040518060800160405280600080191681526020016000801916815260200160008019168152602001606081525090565b50805461384290614c7c565b6000825580601f106138545750613873565b601f01602090049060005260206000209081019061387291906138c1565b5b50565b6040518060e001604052806000151581526020016000801916815260200160008019168152602001606081526020016060815260200160608152602001600063ffffffff1681525090565b5b808211156138da5760008160009055506001016138c2565b5090565b6000604051905090565b600080fd5b600080fd5b60007fffffffff0000000000000000000000000000000000000000000000000000000082169050919050565b613927816138f2565b811461393257600080fd5b50565b6000813590506139448161391e565b92915050565b6000602082840312156139605761395f6138e8565b5b600061396e84828501613935565b91505092915050565b60008115159050919050565b61398c81613977565b82525050565b60006020820190506139a76000830184613983565b92915050565b600081519050919050565b600082825260208201905092915050565b6000819050602082019050919050565b6000819050919050565b6139ec816139d9565b82525050565b60006139fe83836139e3565b60208301905092915050565b6000602082019050919050565b6000613a22826139ad565b613a2c81856139b8565b9350613a37836139c9565b8060005b83811015613a68578151613a4f88826139f2565b9750613a5a83613a0a565b925050600181019050613a3b565b5085935050505092915050565b60006020820190508181036000830152613a8f8184613a17565b905092915050565b6000819050919050565b613aaa81613a97565b8114613ab557600080fd5b50565b600081359050613ac781613aa1565b92915050565b60008060408385031215613ae457613ae36138e8565b5b6000613af285828601613935565b9250506020613b0385828601613ab8565b9150509250929050565b600080fd5b600080fd5b600080fd5b60008083601f840112613b3257613b31613b0d565b5b8235905067ffffffffffffffff811115613b4f57613b4e613b12565b5b602083019150836020820283011115613b6b57613b6a613b17565b5b9250929050565b600080600060408486031215613b8b57613b8a6138e8565b5b6000613b9986828701613935565b935050602084013567ffffffffffffffff811115613bba57613bb96138ed565b5b613bc686828701613b1c565b92509250509250925092565b600081519050919050565b600082825260208201905092915050565b60005b83811015613c0c578082015181840152602081019050613bf1565b60008484015250505050565b6000601f19601f8301169050919050565b6000613c3482613bd2565b613c3e8185613bdd565b9350613c4e818560208601613bee565b613c5781613c18565b840191505092915050565b60006020820190508181036000830152613c7c8184613c29565b905092915050565b613c8d81613a97565b82525050565b6000602082019050613ca86000830184613c84565b92915050565b600073ffffffffffffffffffffffffffffffffffffffff82169050919050565b6000613cd982613cae565b9050919050565b613ce981613cce565b8114613cf457600080fd5b50565b600081359050613d0681613ce0565b92915050565b600060208284031215613d2257613d216138e8565b5b6000613d3084828501613cf7565b91505092915050565b613d42816139d9565b82525050565b6000602082019050613d5d6000830184613d39565b92915050565b613d6c816139d9565b8114613d7757600080fd5b50565b600081359050613d8981613d63565b92915050565b6000613d9a82613cae565b9050919050565b613daa81613d8f565b8114613db557600080fd5b50565b600081359050613dc781613da1565b92915050565b60008060408385031215613de457613de36138e8565b5b6000613df285828601613d7a565b9250506020613e0385828601613db8565b9150509250929050565b600060208284031215613e2357613e226138e8565b5b6000613e3184828501613ab8565b91505092915050565b600060208284031215613e5057613e4f6138e8565b5b6000613e5e84828501613d7a565b91505092915050565b6000819050919050565b6000613e8c613e87613e8284613cae565b613e67565b613cae565b9050919050565b6000613e9e82613e71565b9050919050565b6000613eb082613e93565b9050919050565b613ec081613ea5565b82525050565b6000602082019050613edb6000830184613eb7565b92915050565b6000613eec82613e71565b9050919050565b6000613efe82613ee1565b9050919050565b613f0e81613ef3565b82525050565b6000602082019050613f296000830184613f05565b92915050565b613f38816138f2565b82525050565b600063ffffffff82169050919050565b613f5781613f3e565b82525050565b613f6681613a97565b82525050565b613f7581613d8f565b82525050565b61014082016000820151613f926000850182613f2f565b506020820151613fa56020850182613f2f565b506040820151613fb86040850182613f4e565b506060820151613fcb60608501826139e3565b506080820151613fde6080850182613f5d565b5060a0820151613ff160a0850182613f6c565b5060c082015161400460c0850182613f5d565b5060e082015161401760e0850182613f4e565b5061010082015161402c610100850182613f6c565b50610120820151614041610120850182613f5d565b50505050565b61405081613d8f565b82525050565b60006101808201905061406c6000830186613f7b565b61407a610140830185614047565b614088610160830184613c84565b949350505050565b600082825260208201905092915050565b60006140ac82613bd2565b6140b68185614090565b93506140c6818560208601613bee565b6140cf81613c18565b840191505092915050565b60006080830160008301516140f260008601826139e3565b50602083015161410560208601826139e3565b50604083015161411860408601826139e3565b506060830151848203606086015261413082826140a1565b9150508091505092915050565b6000602082019050818103600083015261415781846140da565b905092915050565b600061416a82613ee1565b9050919050565b61417a8161415f565b82525050565b60006020820190506141956000830184614171565b92915050565b60008083601f8401126141b1576141b0613b0d565b5b8235905067ffffffffffffffff8111156141ce576141cd613b12565b5b6020830191508360018202830111156141ea576141e9613b17565b5b9250929050565b60008060008060006080868803121561420d5761420c6138e8565b5b600061421b88828901613935565b955050602061422c88828901613d7a565b945050604061423d88828901613db8565b935050606086013567ffffffffffffffff81111561425e5761425d6138ed565b5b61426a8882890161419b565b92509250509295509295909350565b600061428482613e93565b9050919050565b61429481614279565b82525050565b60006020820190506142af600083018461428b565b92915050565b6142be816138f2565b82525050565b600060c0820190506142d96000830189613d39565b6142e66020830188613d39565b6142f36040830187613c84565b81810360608301526143058186613c29565b905061431460808301856142b5565b61432160a0830184613c84565b979650505050505050565b60008060408385031215614343576143426138e8565b5b600061435185828601613d7a565b925050602061436285828601613d7a565b9150509250929050565b7f4e487b7100000000000000000000000000000000000000000000000000000000600052604160045260246000fd5b6143a482613c18565b810181811067ffffffffffffffff821117156143c3576143c261436c565b5b80604052505050565b60006143d66138de565b90506143e2828261439b565b919050565b600067ffffffffffffffff8211156144025761440161436c565b5b602082029050602081019050919050565b600080fd5b600067ffffffffffffffff8211156144335761443261436c565b5b61443c82613c18565b9050602081019050919050565b82818337600083830152505050565b600061446b61446684614418565b6143cc565b90508281526020810184848401111561448757614486614413565b5b614492848285614449565b509392505050565b600082601f8301126144af576144ae613b0d565b5b81356144bf848260208601614458565b91505092915050565b60006144db6144d6846143e7565b6143cc565b905080838252602082019050602084028301858111156144fe576144fd613b17565b5b835b8181101561454557803567ffffffffffffffff81111561452357614522613b0d565b5b808601614530898261449a565b85526020850194505050602081019050614500565b5050509392505050565b600082601f83011261456457614563613b0d565b5b81356145748482602086016144c8565b91505092915050565b600060208284031215614593576145926138e8565b5b600082013567ffffffffffffffff8111156145b1576145b06138ed565b5b6145bd8482850161454f565b91505092915050565b6000806000606084860312156145df576145de6138e8565b5b60006145ed86828701613ab8565b93505060206145fe86828701613ab8565b925050604061460f86828701613935565b9150509250925092565b600081519050919050565b600082825260208201905092915050565b6000819050602082019050919050565b600061465183836140a1565b905092915050565b6000602082019050919050565b600061467182614619565b61467b8185614624565b93508360208202850161468d85614635565b8060005b858110156146c957848403895281516146aa8582614645565b94506146b583614659565b925060208a01995050600181019050614691565b50829750879550505050505092915050565b600060408201905081810360008301526146f58185613a17565b905081810360208301526147098184614666565b90509392505050565b600060208284031215614728576147276138e8565b5b600061473684828501613db8565b91505092915050565b600061474a82613e93565b9050919050565b61475a8161473f565b82525050565b60006020820190506147756000830184614751565b92915050565b60006080820190506147906000830187613d39565b61479d6020830186613d39565b6147aa6040830185613d39565b81810360608301526147bc8184613c29565b905095945050505050565b7f4e487b7100000000000000000000000000000000000000000000000000000000600052601160045260246000fd5b600061480182613a97565b91507fffffffffffffffffffffffffffffffffffffffffffffffffffffffffffffffff8203614833576148326147c7565b5b600182019050919050565b7f4e487b7100000000000000000000000000000000000000000000000000000000600052603260045260246000fd5b600082825260208201905092915050565b7f504142313a2043616c6c6572206973206e6f7420746865206f776e6572000000600082015250565b60006148b4601d8361486d565b91506148bf8261487e565b602082019050919050565b600060208201905081810360008301526148e3816148a7565b9050919050565b600081905092915050565b600080fd5b82818337505050565b600061490f83856148ea565b93507f07ffffffffffffffffffffffffffffffffffffffffffffffffffffffffffffff831115614942576149416148f5565b5b6020830292506149538385846148fa565b82840190509392505050565b600061496c828486614903565b91508190509392505050565b7f416363657373436f6e74726f6c3a2063616e206f6e6c792072656e6f756e636560008201527f20726f6c657320666f722073656c660000000000000000000000000000000000602082015250565b60006149d4602f8361486d565b91506149df82614978565b604082019050919050565b60006020820190508181036000830152614a03816149c7565b9050919050565b614a1381613977565b8114614a1e57600080fd5b50565b600081519050614a3081614a0a565b92915050565b600060208284031215614a4c57614a4b6138e8565b5b6000614a5a84828501614a21565b91505092915050565b600080fd5b600081519050614a778161391e565b92915050565b614a8681613f3e565b8114614a9157600080fd5b50565b600081519050614aa381614a7d565b92915050565b600081519050614ab881613d63565b92915050565b600081519050614acd81613aa1565b92915050565b600081519050614ae281613da1565b92915050565b60006101408284031215614aff57614afe614a63565b5b614b0a6101406143cc565b90506000614b1a84828501614a68565b6000830152506020614b2e84828501614a68565b6020830152506040614b4284828501614a94565b6040830152506060614b5684828501614aa9565b6060830152506080614b6a84828501614abe565b60808301525060a0614b7e84828501614ad3565b60a08301525060c0614b9284828501614abe565b60c08301525060e0614ba684828501614a94565b60e083015250610100614bbb84828501614ad3565b61010083015250610120614bd184828501614abe565b6101208301525092915050565b6000806101608385031215614bf657614bf56138e8565b5b6000614c0485828601614ae8565b925050610140614c1685828601614aa9565b9150509250929050565b600060208284031215614c3657614c356138e8565b5b6000614c4484828501614ad3565b91505092915050565b7f4e487b7100000000000000000000000000000000000000000000000000000000600052602260045260246000fd5b60006002820490506001821680614c9457607f821691505b602082108103614ca757614ca6614c4d565b5b50919050565b7f504142323a2043616c6c6572206973206e6f742074686520617474657374617460008201527f696f6e20626f6f6b000000000000000000000000000000000000000000000000602082015250565b6000614d0960288361486d565b9150614d1482614cad565b604082019050919050565b60006020820190508181036000830152614d3881614cfc565b9050919050565b60008190508160005260206000209050919050565b60006020601f8301049050919050565b600082821b905092915050565b600060088302614da17fffffffffffffffffffffffffffffffffffffffffffffffffffffffffffffffff82614d64565b614dab8683614d64565b95508019841693508086168417925050509392505050565b6000614dde614dd9614dd484613a97565b613e67565b613a97565b9050919050565b6000819050919050565b614df883614dc3565b614e0c614e0482614de5565b848454614d71565b825550505050565b600090565b614e21614e14565b614e2c818484614def565b505050565b5b81811015614e5057614e45600082614e19565b600181019050614e32565b5050565b601f821115614e9557614e6681614d3f565b614e6f84614d54565b81016020851015614e7e578190505b614e92614e8a85614d54565b830182614e31565b50505b505050565b600082821c905092915050565b6000614eb860001984600802614e9a565b1980831691505092915050565b6000614ed18383614ea7565b9150826002028217905092915050565b614eea82613bd2565b67ffffffffffffffff811115614f0357614f0261436c565b5b614f0d8254614c7c565b614f18828285614e54565b600060209050601f831160018114614f4b5760008415614f39578287015190505b614f438582614ec5565b865550614fab565b601f198416614f5986614d3f565b60005b82811015614f8157848901518255600182019150602085019450602081019050614f5c565b86831015614f9e5784890151614f9a601f891682614ea7565b8355505b6001600288020188555050505b505050505050565b600081905092915050565b60008154614fcb81614c7c565b614fd58186614fb3565b94506001821660008114614ff0576001811461500557615038565b60ff1983168652811515820286019350615038565b61500e85614d3f565b60005b8381101561503057815481890152600182019150602081019050615011565b838801955050505b50505092915050565b600061504d8284614fbe565b915081905092915050565b600061506382613bd2565b61506d8185614fb3565b935061507d818560208601613bee565b80840191505092915050565b60006150958285615058565b91506150a18284615058565b91508190509392505050565b7f496e697469616c697a61626c653a20636f6e747261637420697320616c72656160008201527f647920696e697469616c697a6564000000000000000000000000000000000000602082015250565b6000615109602e8361486d565b9150615114826150ad565b604082019050919050565b60006020820190508181036000830152615138816150fc565b9050919050565b6000819050919050565b600060ff82169050919050565b600061517161516c6151678461513f565b613e67565b615149565b9050919050565b61518181615156565b82525050565b600060208201905061519c6000830184615178565b92915050565b6000602082840312156151b8576151b76138e8565b5b60006151c684828501614abe565b91505092915050565b6151d881613977565b82525050565b600081519050919050565b600082825260208201905092915050565b6000819050602082019050919050565b60006152168383613f6c565b60208301905092915050565b6000602082019050919050565b600061523a826151de565b61524481856151e9565b935061524f836151fa565b8060005b83811015615280578151615267888261520a565b975061527283615222565b925050600181019050615253565b5085935050505092915050565b600060e0830160008301516152a560008601826151cf565b5060208301516152b860208601826139e3565b5060408301516152cb60408601826139e3565b50606083015184820360608601526152e3828261522f565b915050608083015184820360808601526152fd828261522f565b91505060a083015184820360a086015261531782826140a1565b91505060c083015161532c60c0860182613f4e565b508091505092915050565b60006020820190508181036000830152615351818461528d565b905092915050565b600061536c61536784614418565b6143cc565b90508281526020810184848401111561538857615387614413565b5b615393848285613bee565b509392505050565b600082601f8301126153b0576153af613b0d565b5b81516153c0848260208601615359565b91505092915050565b6000602082840312156153df576153de6138e8565b5b600082015167ffffffffffffffff8111156153fd576153fc6138ed565b5b6154098482850161539b565b91505092915050565b600061541d82613a97565b9150600082036154305761542f6147c7565b5b600182039050919050565b7f496e697469616c697a61626c653a20636f6e7472616374206973206e6f74206960008201527f6e697469616c697a696e67000000000000000000000000000000000000000000602082015250565b6000615497602b8361486d565b91506154a28261543b565b604082019050919050565b600060208201905081810360008301526154c68161548a565b9050919050565b600081905092915050565b7f416363657373436f6e74726f6c3a206163636f756e7420000000000000000000600082015250565b600061550e6017836154cd565b9150615519826154d8565b601782019050919050565b600081519050919050565b600061553a82615524565b61554481856154cd565b9350615554818560208601613bee565b80840191505092915050565b7f206973206d697373696e6720726f6c6520000000000000000000000000000000600082015250565b60006155966011836154cd565b91506155a182615560565b601182019050919050565b60006155b782615501565b91506155c3828561552f565b91506155ce82615589565b91506155da828461552f565b91508190509392505050565b60006155f182615524565b6155fb818561486d565b935061560b818560208601613bee565b61561481613c18565b840191505092915050565b6000602082019050818103600083015261563981846155e6565b905092915050565b600067ffffffffffffffff82111561565c5761565b61436c565b5b602082029050602081019050919050565b600061568061567b84615641565b6143cc565b905080838252602082019050602084028301858111156156a3576156a2613b17565b5b835b818110156156cc57806156b88882614ad3565b8452602084019350506020810190506156a5565b5050509392505050565b600082601f8301126156eb576156ea613b0d565b5b81516156fb84826020860161566d565b91505092915050565b60006020828403121561571a576157196138e8565b5b600082015167ffffffffffffffff811115615738576157376138ed565b5b615744848285016156d6565b91505092915050565b600082825260208201905092915050565b6000615769826151de565b615773818561574d565b935061577e836151fa565b8060005b838110156157af578151615796888261520a565b97506157a183615222565b925050600181019050615782565b5085935050505092915050565b600060208201905081810360008301526157d6818461575e565b905092915050565b6000602082840312156157f4576157f36138e8565b5b600061580284828501614aa9565b91505092915050565b600061581682613a97565b915061582183613a97565b925082820261582f81613a97565b91508282048414831517615846576158456147c7565b5b5092915050565b600061585882613a97565b915061586383613a97565b925082820190508082111561587b5761587a6147c7565b5b92915050565b7f537472696e67733a20686578206c656e67746820696e73756666696369656e74600082015250565b60006158b760208361486d565b91506158c282615881565b602082019050919050565b600060208201905081810360008301526158e6816158aa565b905091905056fea26469706673582212201eac59abbb847e5e7fc35e5ddfd524b96e97e241abcaee480a1c56b2c4cdb47064736f6c63430008180033",
  "linkReferences": {},
  "deployedLinkReferences": {}
}