{
  "_format": "hh-sol-artifact-1",
  "contractName": "BRNRewards",
  "sourceName": "contracts/BRNRewards.sol",
  "abi": [
    {
      "inputs": [],
      "stateMutability": "nonpayable",
      "type": "constructor"
    },
    {
      "anonymous": false,
      "inputs": [
        {
          "indexed": true,
          "internalType": "bytes4",
          "name": "networkId",
          "type": "bytes4"
        },
        {
          "indexed": true,
          "internalType": "bytes32",
          "name": "orderId",
          "type": "bytes32"
        },
        {
          "indexed": true,
          "internalType": "address",
          "name": "to",
          "type": "address"
        },
        {
          "indexed": false,
          "internalType": "uint256",
          "name": "amount",
          "type": "uint256"
        },
        {
          "indexed": false,
          "internalType": "enum BRNRewards.RewardType",
          "name": "rewardType",
          "type": "uint8"
        },
        {
          "indexed": false,
          "internalType": "bool",
          "name": "isMainnet",
          "type": "bool"
        }
      ],
      "name": "BRNDistributed",
      "type": "event"
    },
    {
      "anonymous": false,
      "inputs": [
        {
          "indexed": true,
          "internalType": "address",
          "name": "to",
          "type": "address"
        },
        {
          "indexed": false,
          "internalType": "uint256",
          "name": "amount",
          "type": "uint256"
        },
        {
          "indexed": false,
          "internalType": "bool",
          "name": "success",
          "type": "bool"
        },
        {
          "indexed": false,
          "internalType": "string",
          "name": "reason",
          "type": "string"
        }
      ],
      "name": "DistributionAttempt",
      "type": "event"
    },
    {
      "anonymous": false,
      "inputs": [
        {
          "indexed": false,
          "internalType": "uint8",
          "name": "version",
          "type": "uint8"
        }
      ],
      "name": "Initialized",
      "type": "event"
    },
    {
      "anonymous": false,
      "inputs": [
        {
          "indexed": true,
          "internalType": "bytes32",
          "name": "role",
          "type": "bytes32"
        },
        {
          "indexed": true,
          "internalType": "bytes32",
          "name": "previousAdminRole",
          "type": "bytes32"
        },
        {
          "indexed": true,
          "internalType": "bytes32",
          "name": "newAdminRole",
          "type": "bytes32"
        }
      ],
      "name": "RoleAdminChanged",
      "type": "event"
    },
    {
      "anonymous": false,
      "inputs": [
        {
          "indexed": true,
          "internalType": "bytes32",
          "name": "role",
          "type": "bytes32"
        },
        {
          "indexed": true,
          "internalType": "address",
          "name": "account",
          "type": "address"
        },
        {
          "indexed": true,
          "internalType": "address",
          "name": "sender",
          "type": "address"
        }
      ],
      "name": "RoleGranted",
      "type": "event"
    },
    {
      "anonymous": false,
      "inputs": [
        {
          "indexed": true,
          "internalType": "bytes32",
          "name": "role",
          "type": "bytes32"
        },
        {
          "indexed": true,
          "internalType": "address",
          "name": "account",
          "type": "address"
        },
        {
          "indexed": true,
          "internalType": "address",
          "name": "sender",
          "type": "address"
        }
      ],
      "name": "RoleRevoked",
      "type": "event"
    },
    {
      "stateMutability": "payable",
      "type": "fallback"
    },
    {
      "inputs": [],
      "name": "DEFAULT_ADMIN_ROLE",
      "outputs": [
        {
          "internalType": "bytes32",
          "name": "",
          "type": "bytes32"
        }
      ],
      "stateMutability": "view",
      "type": "function"
    },
    {
      "inputs": [],
      "name": "ONE",
      "outputs": [
        {
          "internalType": "uint256",
          "name": "",
          "type": "uint256"
        }
      ],
      "stateMutability": "view",
      "type": "function"
    },
    {
      "inputs": [
        {
          "internalType": "address",
          "name": "",
          "type": "address"
        }
      ],
      "name": "attesterRewards",
      "outputs": [
        {
          "internalType": "uint256",
          "name": "",
          "type": "uint256"
        }
      ],
      "stateMutability": "view",
      "type": "function"
    },
    {
      "inputs": [],
      "name": "attestersCounter",
      "outputs": [
        {
          "internalType": "uint256",
          "name": "",
          "type": "uint256"
        }
      ],
      "stateMutability": "view",
      "type": "function"
    },
    {
      "inputs": [],
      "name": "biddingBookAddress",
      "outputs": [
        {
          "internalType": "address",
          "name": "",
          "type": "address"
        }
      ],
      "stateMutability": "view",
      "type": "function"
    },
    {
      "inputs": [
        {
          "internalType": "uint32",
          "name": "assetId",
          "type": "uint32"
        },
        {
          "internalType": "uint256",
          "name": "amount",
          "type": "uint256"
        }
      ],
      "name": "calculateAssetAmountToPoints",
      "outputs": [
        {
          "internalType": "uint256",
          "name": "",
          "type": "uint256"
        }
      ],
      "stateMutability": "view",
      "type": "function"
    },
    {
      "inputs": [
        {
          "internalType": "bytes4",
          "name": "network",
          "type": "bytes4"
        },
        {
          "internalType": "uint32",
          "name": "assetId",
          "type": "uint32"
        },
        {
          "internalType": "uint256",
          "name": "amount",
          "type": "uint256"
        }
      ],
      "name": "calculateReward",
      "outputs": [
        {
          "internalType": "uint256",
          "name": "",
          "type": "uint256"
        }
      ],
      "stateMutability": "view",
      "type": "function"
    },
    {
      "inputs": [],
      "name": "checkIsRewardsOn",
      "outputs": [
        {
          "internalType": "bool",
          "name": "",
          "type": "bool"
        }
      ],
      "stateMutability": "view",
      "type": "function"
    },
    {
      "inputs": [
        {
          "internalType": "bytes4",
          "name": "network",
          "type": "bytes4"
        },
        {
          "internalType": "address",
          "name": "_attesterAddress",
          "type": "address"
        },
        {
          "internalType": "uint32",
          "name": "assetId",
          "type": "uint32"
        },
        {
          "internalType": "uint256",
          "name": "amount",
          "type": "uint256"
        },
        {
          "internalType": "bytes32",
          "name": "_orderId",
          "type": "bytes32"
        }
      ],
      "name": "distributeRewardsToAttestors",
      "outputs": [
        {
          "internalType": "bool",
          "name": "",
          "type": "bool"
        }
      ],
      "stateMutability": "nonpayable",
      "type": "function"
    },
    {
      "inputs": [
        {
          "internalType": "bytes4",
          "name": "network",
          "type": "bytes4"
        },
        {
          "internalType": "address",
          "name": "_executorAddress",
          "type": "address"
        },
        {
          "internalType": "uint32",
          "name": "assetId",
          "type": "uint32"
        },
        {
          "internalType": "uint256",
          "name": "amount",
          "type": "uint256"
        },
        {
          "internalType": "bytes32",
          "name": "_orderId",
          "type": "bytes32"
        }
      ],
      "name": "distributeRewardsToExecutors",
      "outputs": [
        {
          "internalType": "uint256",
          "name": "",
          "type": "uint256"
        }
      ],
      "stateMutability": "nonpayable",
      "type": "function"
    },
    {
      "inputs": [
        {
          "internalType": "bytes4",
          "name": "network",
          "type": "bytes4"
        },
        {
          "internalType": "address",
          "name": "_userAddress",
          "type": "address"
        },
        {
          "internalType": "uint32",
          "name": "assetId",
          "type": "uint32"
        },
        {
          "internalType": "uint256",
          "name": "amount",
          "type": "uint256"
        },
        {
          "internalType": "bytes32",
          "name": "_orderId",
          "type": "bytes32"
        }
      ],
      "name": "distributeRewardsToUsers",
      "outputs": [
        {
          "internalType": "bool",
          "name": "",
          "type": "bool"
        }
      ],
      "stateMutability": "nonpayable",
      "type": "function"
    },
    {
      "inputs": [],
      "name": "executorCounter",
      "outputs": [
        {
          "internalType": "uint256",
          "name": "",
          "type": "uint256"
        }
      ],
      "stateMutability": "view",
      "type": "function"
    },
    {
      "inputs": [
        {
          "internalType": "address",
          "name": "",
          "type": "address"
        }
      ],
      "name": "executorRewards",
      "outputs": [
        {
          "internalType": "uint256",
          "name": "",
          "type": "uint256"
        }
      ],
      "stateMutability": "view",
      "type": "function"
    },
    {
      "inputs": [
        {
          "internalType": "address",
          "name": "attester",
          "type": "address"
        }
      ],
      "name": "getAttesterRewards",
      "outputs": [
        {
          "internalType": "uint256",
          "name": "",
          "type": "uint256"
        }
      ],
      "stateMutability": "view",
      "type": "function"
    },
    {
      "inputs": [
        {
          "internalType": "address",
          "name": "executor",
          "type": "address"
        }
      ],
      "name": "getExecutorRewards",
      "outputs": [
        {
          "internalType": "uint256",
          "name": "",
          "type": "uint256"
        }
      ],
      "stateMutability": "view",
      "type": "function"
    },
    {
      "inputs": [
        {
          "internalType": "uint32",
          "name": "assetId",
          "type": "uint32"
        }
      ],
      "name": "getPointsPerAssetUnit",
      "outputs": [
        {
          "internalType": "uint256",
          "name": "",
          "type": "uint256"
        }
      ],
      "stateMutability": "view",
      "type": "function"
    },
    {
      "inputs": [
        {
          "internalType": "bytes32",
          "name": "role",
          "type": "bytes32"
        }
      ],
      "name": "getRoleAdmin",
      "outputs": [
        {
          "internalType": "bytes32",
          "name": "",
          "type": "bytes32"
        }
      ],
      "stateMutability": "view",
      "type": "function"
    },
    {
      "inputs": [
        {
          "internalType": "address",
          "name": "user",
          "type": "address"
        }
      ],
      "name": "getUserRewards",
      "outputs": [
        {
          "internalType": "uint256",
          "name": "",
          "type": "uint256"
        }
      ],
      "stateMutability": "view",
      "type": "function"
    },
    {
      "inputs": [
        {
          "internalType": "bytes32",
          "name": "role",
          "type": "bytes32"
        },
        {
          "internalType": "address",
          "name": "account",
          "type": "address"
        }
      ],
      "name": "grantRole",
      "outputs": [],
      "stateMutability": "nonpayable",
      "type": "function"
    },
    {
      "inputs": [
        {
          "internalType": "bytes32",
          "name": "role",
          "type": "bytes32"
        },
        {
          "internalType": "address",
          "name": "account",
          "type": "address"
        }
      ],
      "name": "hasRole",
      "outputs": [
        {
          "internalType": "bool",
          "name": "",
          "type": "bool"
        }
      ],
      "stateMutability": "view",
      "type": "function"
    },
    {
      "inputs": [
        {
          "internalType": "address",
          "name": "_owner",
          "type": "address"
        }
      ],
      "name": "initialize",
      "outputs": [],
      "stateMutability": "nonpayable",
      "type": "function"
    },
    {
      "inputs": [
        {
          "internalType": "bytes4",
          "name": "networkId",
          "type": "bytes4"
        }
      ],
      "name": "isMainNetwork",
      "outputs": [
        {
          "internalType": "bool",
          "name": "",
          "type": "bool"
        }
      ],
      "stateMutability": "view",
      "type": "function"
    },
    {
      "inputs": [],
      "name": "isRewardsOn",
      "outputs": [
        {
          "internalType": "bool",
          "name": "",
          "type": "bool"
        }
      ],
      "stateMutability": "view",
      "type": "function"
    },
    {
      "inputs": [
        {
          "internalType": "bytes4",
          "name": "networkId",
          "type": "bytes4"
        }
      ],
      "name": "isTestNetwork",
      "outputs": [
        {
          "internalType": "bool",
          "name": "",
          "type": "bool"
        }
      ],
      "stateMutability": "view",
      "type": "function"
    },
    {
      "inputs": [
        {
          "internalType": "bytes4",
          "name": "",
          "type": "bytes4"
        }
      ],
      "name": "mainNetworks",
      "outputs": [
        {
          "internalType": "bool",
          "name": "",
          "type": "bool"
        }
      ],
      "stateMutability": "view",
      "type": "function"
    },
    {
      "inputs": [],
      "name": "openMarketPrice",
      "outputs": [
        {
          "internalType": "contract OpenMarketPricer",
          "name": "",
          "type": "address"
        }
      ],
      "stateMutability": "view",
      "type": "function"
    },
    {
      "inputs": [],
      "name": "perAccountMaxLimit",
      "outputs": [
        {
          "internalType": "uint256",
          "name": "",
          "type": "uint256"
        }
      ],
      "stateMutability": "view",
      "type": "function"
    },
    {
      "inputs": [
        {
          "internalType": "bytes32",
          "name": "role",
          "type": "bytes32"
        },
        {
          "internalType": "address",
          "name": "account",
          "type": "address"
        }
      ],
      "name": "renounceRole",
      "outputs": [],
      "stateMutability": "nonpayable",
      "type": "function"
    },
    {
      "inputs": [
        {
          "internalType": "bytes32",
          "name": "role",
          "type": "bytes32"
        },
        {
          "internalType": "address",
          "name": "account",
          "type": "address"
        }
      ],
      "name": "revokeRole",
      "outputs": [],
      "stateMutability": "nonpayable",
      "type": "function"
    },
    {
      "inputs": [
        {
          "internalType": "address",
          "name": "_biddingBookAddress",
          "type": "address"
        }
      ],
      "name": "setBiddingBookAddress",
      "outputs": [],
      "stateMutability": "nonpayable",
      "type": "function"
    },
    {
      "inputs": [
        {
          "internalType": "bytes4",
          "name": "networkId",
          "type": "bytes4"
        }
      ],
      "name": "setMainNetwork",
      "outputs": [],
      "stateMutability": "nonpayable",
      "type": "function"
    },
    {
      "inputs": [
        {
          "internalType": "address payable",
          "name": "_openMarketPrice",
          "type": "address"
        }
      ],
      "name": "setOpenMarketPricer",
      "outputs": [],
      "stateMutability": "nonpayable",
      "type": "function"
    },
    {
      "inputs": [
        {
          "internalType": "address",
          "name": "_orderBookAddress",
          "type": "address"
        }
      ],
      "name": "setOrderBookAddress",
      "outputs": [],
      "stateMutability": "nonpayable",
      "type": "function"
    },
    {
      "inputs": [
        {
          "internalType": "uint256",
          "name": "_perAccountMaxLimit",
          "type": "uint256"
        }
      ],
      "name": "setPerAccountMaxLimit",
      "outputs": [],
      "stateMutability": "nonpayable",
      "type": "function"
    },
    {
      "inputs": [],
      "name": "setRewardsOff",
      "outputs": [],
      "stateMutability": "nonpayable",
      "type": "function"
    },
    {
      "inputs": [],
      "name": "setRewardsOn",
      "outputs": [],
      "stateMutability": "nonpayable",
      "type": "function"
    },
    {
      "inputs": [
        {
          "internalType": "bytes4",
          "name": "networkId",
          "type": "bytes4"
        }
      ],
      "name": "setTestNetwork",
      "outputs": [],
      "stateMutability": "nonpayable",
      "type": "function"
    },
    {
      "inputs": [
        {
          "internalType": "bytes32",
          "name": "_version",
          "type": "bytes32"
        }
      ],
      "name": "setVersion",
      "outputs": [],
      "stateMutability": "nonpayable",
      "type": "function"
    },
    {
      "inputs": [
        {
          "internalType": "bytes4",
          "name": "interfaceId",
          "type": "bytes4"
        }
      ],
      "name": "supportsInterface",
      "outputs": [
        {
          "internalType": "bool",
          "name": "",
          "type": "bool"
        }
      ],
      "stateMutability": "view",
      "type": "function"
    },
    {
      "inputs": [
        {
          "internalType": "bytes4",
          "name": "",
          "type": "bytes4"
        }
      ],
      "name": "testNetworks",
      "outputs": [
        {
          "internalType": "bool",
          "name": "",
          "type": "bool"
        }
      ],
      "stateMutability": "view",
      "type": "function"
    },
    {
      "inputs": [
        {
          "internalType": "address",
          "name": "",
          "type": "address"
        }
      ],
      "name": "userRewards",
      "outputs": [
        {
          "internalType": "uint256",
          "name": "",
          "type": "uint256"
        }
      ],
      "stateMutability": "view",
      "type": "function"
    },
    {
      "inputs": [],
      "name": "usersCounter",
      "outputs": [
        {
          "internalType": "uint256",
          "name": "",
          "type": "uint256"
        }
      ],
      "stateMutability": "view",
      "type": "function"
    },
    {
      "inputs": [],
      "name": "version",
      "outputs": [
        {
          "internalType": "bytes32",
          "name": "",
          "type": "bytes32"
        }
      ],
      "stateMutability": "view",
      "type": "function"
    },
    {
      "stateMutability": "payable",
      "type": "receive"
    }
  ],
  "bytecode": "0x60806040523480156200001157600080fd5b50620000226200002860201b60201c565b620001d2565b600060019054906101000a900460ff16156200007b576040517f08c379a0000000000000000000000000000000000000000000000000000000008152600401620000729062000175565b60405180910390fd5b60ff801660008054906101000a900460ff1660ff1614620000ec5760ff6000806101000a81548160ff021916908360ff1602179055507f7f26b83ff96e1f2b6a682f133852f6798a09c465da95921460cefb384740249860ff604051620000e39190620001b5565b60405180910390a15b565b600082825260208201905092915050565b7f496e697469616c697a61626c653a20636f6e747261637420697320696e69746960008201527f616c697a696e6700000000000000000000000000000000000000000000000000602082015250565b60006200015d602783620000ee565b91506200016a82620000ff565b604082019050919050565b6000602082019050818103600083015262000190816200014e565b9050919050565b600060ff82169050919050565b620001af8162000197565b82525050565b6000602082019050620001cc6000830184620001a4565b92915050565b61389b80620001e26000396000f3fe6080604052600436106102605760003560e01c806391d1485411610144578063c4d66de8116100b6578063d547741f1161007a578063d547741f146109aa578063d67b1b99146109d3578063e65c75f5146109fe578063eb1947cf14610a27578063ef9ad55114610a64578063f55deae514610a8f57610267565b8063c4d66de8146108db578063c909a40914610904578063ca5f81b51461092f578063cb78741114610958578063cb8b0bbf1461098157610267565b8063a95afee311610108578063a95afee314610791578063aca223a6146107ce578063b7f75bd51461080b578063b831229d14610848578063c2ee3a0814610885578063c37596b4146108b057610267565b806391d14854146106865780639a60a2ae146106c35780639b2eaf55146106ec5780639edae5ca14610729578063a217fddf1461076657610267565b806335a26ff0116101dd5780635bea9f51116101a15780635bea9f511461058a5780635c38e36c146105c75780636954548c146105f25780636c4e6708146106095780637835f6c41461064657806386d2e7981461066f57610267565b806335a26ff01461049357806336568abe146104d057806343d16871146104f957806354fd4d5014610536578063560332a51461056157610267565b8063248a9ca311610224578063248a9ca31461039a57806325252ef0146103d757806325c45ed4146104025780632ecfd2d71461042d5780632f2ff15d1461046a57610267565b806301ffc9a7146102695780630660f1e8146102a6578063078b0fb7146102e3578063093d303d146103205780631e4160301461035d57610267565b3661026757005b005b34801561027557600080fd5b50610290600480360381019061028b919061273c565b610aba565b60405161029d9190612784565b60405180910390f35b3480156102b257600080fd5b506102cd60048036038101906102c891906127fd565b610b34565b6040516102da9190612843565b60405180910390f35b3480156102ef57600080fd5b5061030a600480360381019061030591906127fd565b610b4c565b6040516103179190612843565b60405180910390f35b34801561032c57600080fd5b506103476004803603810190610342919061273c565b610b95565b6040516103549190612784565b60405180910390f35b34801561036957600080fd5b50610384600480360381019061037f91906128c6565b610bb5565b6040516103919190612843565b60405180910390f35b3480156103a657600080fd5b506103c160048036038101906103bc919061293c565b610be6565b6040516103ce9190612978565b60405180910390f35b3480156103e357600080fd5b506103ec610c06565b6040516103f99190612784565b60405180910390f35b34801561040e57600080fd5b50610417610c1d565b6040516104249190612843565b60405180910390f35b34801561043957600080fd5b50610454600480360381019061044f9190612993565b610c23565b6040516104619190612843565b60405180910390f35b34801561047657600080fd5b50610491600480360381019061048c9190612a0e565b610e04565b005b34801561049f57600080fd5b506104ba60048036038101906104b5919061273c565b610e25565b6040516104c79190612784565b60405180910390f35b3480156104dc57600080fd5b506104f760048036038101906104f29190612a0e565b610e8d565b005b34801561050557600080fd5b50610520600480360381019061051b9190612a4e565b610f10565b60405161052d9190612843565b60405180910390f35b34801561054257600080fd5b5061054b610f5c565b6040516105589190612978565b60405180910390f35b34801561056d57600080fd5b5061058860048036038101906105839190612adf565b610f62565b005b34801561059657600080fd5b506105b160048036038101906105ac9190612993565b610ff2565b6040516105be9190612784565b60405180910390f35b3480156105d357600080fd5b506105dc6111e3565b6040516105e99190612843565b60405180910390f35b3480156105fe57600080fd5b506106076111e9565b005b34801561061557600080fd5b50610630600480360381019061062b91906127fd565b611252565b60405161063d9190612843565b60405180910390f35b34801561065257600080fd5b5061066d600480360381019061066891906127fd565b61126a565b005b34801561067b57600080fd5b506106846112fa565b005b34801561069257600080fd5b506106ad60048036038101906106a89190612a0e565b611363565b6040516106ba9190612784565b60405180910390f35b3480156106cf57600080fd5b506106ea60048036038101906106e59190612b0c565b6113ce565b005b3480156106f857600080fd5b50610713600480360381019061070e91906127fd565b611424565b6040516107209190612843565b60405180910390f35b34801561073557600080fd5b50610750600480360381019061074b9190612993565b61146d565b60405161075d9190612784565b60405180910390f35b34801561077257600080fd5b5061077b61164f565b6040516107889190612978565b60405180910390f35b34801561079d57600080fd5b506107b860048036038101906107b3919061273c565b611656565b6040516107c59190612784565b60405180910390f35b3480156107da57600080fd5b506107f560048036038101906107f091906127fd565b611676565b6040516108029190612843565b60405180910390f35b34801561081757600080fd5b50610832600480360381019061082d919061273c565b61168e565b60405161083f9190612784565b60405180910390f35b34801561085457600080fd5b5061086f600480360381019061086a9190612b39565b6116f6565b60405161087c9190612843565b60405180910390f35b34801561089157600080fd5b5061089a6117fa565b6040516108a79190612843565b60405180910390f35b3480156108bc57600080fd5b506108c5611806565b6040516108d29190612843565b60405180910390f35b3480156108e757600080fd5b5061090260048036038101906108fd91906127fd565b61180c565b005b34801561091057600080fd5b50610919611978565b6040516109269190612784565b60405180910390f35b34801561093b57600080fd5b506109566004803603810190610951919061293c565b61198b565b005b34801561096457600080fd5b5061097f600480360381019061097a919061273c565b6119e1565b005b34801561098d57600080fd5b506109a860048036038101906109a3919061273c565b611a9a565b005b3480156109b657600080fd5b506109d160048036038101906109cc9190612a0e565b611b53565b005b3480156109df57600080fd5b506109e8611b74565b6040516109f59190612843565b60405180910390f35b348015610a0a57600080fd5b50610a256004803603810190610a2091906127fd565b611b7a565b005b348015610a3357600080fd5b50610a4e6004803603810190610a4991906127fd565b611c0a565b604051610a5b9190612843565b60405180910390f35b348015610a7057600080fd5b50610a79611c53565b604051610a869190612b75565b60405180910390f35b348015610a9b57600080fd5b50610aa4611c79565b604051610ab19190612bef565b60405180910390f35b60007f7965db0b000000000000000000000000000000000000000000000000000000007bffffffffffffffffffffffffffffffffffffffffffffffffffffffff1916827bffffffffffffffffffffffffffffffffffffffffffffffffffffffff19161480610b2d5750610b2c82611c9f565b5b9050919050565b60ce6020528060005260406000206000915090505481565b600060ce60008373ffffffffffffffffffffffffffffffffffffffff1673ffffffffffffffffffffffffffffffffffffffff168152602001908152602001600020549050919050565b60cc6020528060005260406000206000915054906101000a900460ff1681565b6000670de0b6b3a7640000610bc9846116f6565b83610bd49190612c39565b610bde9190612caa565b905092915050565b600060656000838152602001908152602001600020600101549050919050565b600060d560009054906101000a900460ff16905090565b60d35481565b600060d760009054906101000a900473ffffffffffffffffffffffffffffffffffffffff1673ffffffffffffffffffffffffffffffffffffffff163373ffffffffffffffffffffffffffffffffffffffff1614610cb5576040517f08c379a0000000000000000000000000000000000000000000000000000000008152600401610cac90612d38565b60405180910390fd5b60d560009054906101000a900460ff16610cd25760009050610dfb565b6000610cdf878686610f10565b905060008103610cf3576000915050610dfb565b610cfd8682611d09565b15610df55760d16000815480929190610d1590612d58565b91905055508573ffffffffffffffffffffffffffffffffffffffff1683887bffffffffffffffffffffffffffffffffffffffffffffffffffffffff19167fe17c7b73c26d84a9273fa42543ec889318769e251f6be47363ab9c82b87990f5846001610d7f8d61168e565b604051610d8e93929190612e17565b60405180910390a48060cf60008873ffffffffffffffffffffffffffffffffffffffff1673ffffffffffffffffffffffffffffffffffffffff1681526020019081526020016000206000828254610de59190612e4e565b9250508190555080915050610dfb565b60009150505b95945050505050565b610e0d82610be6565b610e1681612056565b610e20838361206a565b505050565b600060cc6000837bffffffffffffffffffffffffffffffffffffffffffffffffffffffff19167bffffffffffffffffffffffffffffffffffffffffffffffffffffffff1916815260200190815260200160002060009054906101000a900460ff169050919050565b610e9561214b565b73ffffffffffffffffffffffffffffffffffffffff168173ffffffffffffffffffffffffffffffffffffffff1614610f02576040517f08c379a0000000000000000000000000000000000000000000000000000000008152600401610ef990612ef4565b60405180910390fd5b610f0c8282612153565b5050565b60008060009050610f2085610e25565b15610f3557670de0b6b3a76400009050610f51565b610f3e8561168e565b15610f5057610f4d8484610bb5565b90505b5b809150509392505050565b60d65481565b610f6f6000801b33611363565b610fae576040517f08c379a0000000000000000000000000000000000000000000000000000000008152600401610fa590612f60565b60405180910390fd5b8060cb60006101000a81548173ffffffffffffffffffffffffffffffffffffffff021916908373ffffffffffffffffffffffffffffffffffffffff16021790555050565b600060ca60009054906101000a900473ffffffffffffffffffffffffffffffffffffffff1673ffffffffffffffffffffffffffffffffffffffff163373ffffffffffffffffffffffffffffffffffffffff1614611084576040517f08c379a000000000000000000000000000000000000000000000000000000000815260040161107b90612fcc565b60405180910390fd5b60d560009054906101000a900460ff166110a157600090506111da565b60006110ae878686610f10565b9050600081036110c25760009150506111da565b600a816110cf9190612caa565b90506110db8682611d09565b156111d4578573ffffffffffffffffffffffffffffffffffffffff1683887bffffffffffffffffffffffffffffffffffffffffffffffffffffffff19167fe17c7b73c26d84a9273fa42543ec889318769e251f6be47363ab9c82b87990f58460026111458d61168e565b60405161115493929190612e17565b60405180910390a48060d060008873ffffffffffffffffffffffffffffffffffffffff1673ffffffffffffffffffffffffffffffffffffffff16815260200190815260200160002060008282546111ab9190612e4e565b9250508190555060d360008154809291906111c590612d58565b919050555060019150506111da565b60009150505b95945050505050565b60d15481565b6111f66000801b33611363565b611235576040517f08c379a000000000000000000000000000000000000000000000000000000000815260040161122c90612f60565b60405180910390fd5b600160d560006101000a81548160ff021916908315150217905550565b60cf6020528060005260406000206000915090505481565b6112776000801b33611363565b6112b6576040517f08c379a00000000000000000000000000000000000000000000000000000000081526004016112ad90612f60565b60405180910390fd5b8060d760006101000a81548173ffffffffffffffffffffffffffffffffffffffff021916908373ffffffffffffffffffffffffffffffffffffffff16021790555050565b6113076000801b33611363565b611346576040517f08c379a000000000000000000000000000000000000000000000000000000000815260040161133d90612f60565b60405180910390fd5b600060d560006101000a81548160ff021916908315150217905550565b60006065600084815260200190815260200160002060000160008373ffffffffffffffffffffffffffffffffffffffff1673ffffffffffffffffffffffffffffffffffffffff16815260200190815260200160002060009054906101000a900460ff16905092915050565b6113db6000801b33611363565b61141a576040517f08c379a000000000000000000000000000000000000000000000000000000000815260040161141190612f60565b60405180910390fd5b8060d48190555050565b600060cf60008373ffffffffffffffffffffffffffffffffffffffff1673ffffffffffffffffffffffffffffffffffffffff168152602001908152602001600020549050919050565b600060d760009054906101000a900473ffffffffffffffffffffffffffffffffffffffff1673ffffffffffffffffffffffffffffffffffffffff163373ffffffffffffffffffffffffffffffffffffffff16146114ff576040517f08c379a00000000000000000000000000000000000000000000000000000000081526004016114f690612d38565b60405180910390fd5b60d560009054906101000a900460ff1661151c5760009050611646565b6000611529878686610f10565b90506000810361153d576000915050611646565b6115478682611d09565b15611640578573ffffffffffffffffffffffffffffffffffffffff1683887bffffffffffffffffffffffffffffffffffffffffffffffffffffffff19167fe17c7b73c26d84a9273fa42543ec889318769e251f6be47363ab9c82b87990f58460006115b18d61168e565b6040516115c093929190612e17565b60405180910390a48060ce60008873ffffffffffffffffffffffffffffffffffffffff1673ffffffffffffffffffffffffffffffffffffffff16815260200190815260200160002060008282546116179190612e4e565b9250508190555060d2600081548092919061163190612d58565b91905055506001915050611646565b60009150505b95945050505050565b6000801b81565b60cd6020528060005260406000206000915054906101000a900460ff1681565b60d06020528060005260406000206000915090505481565b600060cd6000837bffffffffffffffffffffffffffffffffffffffffffffffffffffffff19167bffffffffffffffffffffffffffffffffffffffffffffffffffffffff1916815260200190815260200160002060009054906101000a900460ff169050919050565b60008073ffffffffffffffffffffffffffffffffffffffff1660cb60009054906101000a900473ffffffffffffffffffffffffffffffffffffffff1673ffffffffffffffffffffffffffffffffffffffff160361175657600090506117f5565b60cb60009054906101000a900473ffffffffffffffffffffffffffffffffffffffff1673ffffffffffffffffffffffffffffffffffffffff1663b831229d836040518263ffffffff1660e01b81526004016117b19190612ffb565b602060405180830381865afa1580156117ce573d6000803e3d6000fd5b505050506040513d601f19601f820116820180604052508101906117f2919061302b565b90505b919050565b670de0b6b3a764000081565b60d45481565b60008060019054906101000a900460ff1615905080801561183d5750600160008054906101000a900460ff1660ff16105b8061186a575061184c30612235565b1580156118695750600160008054906101000a900460ff1660ff16145b5b6118a9576040517f08c379a00000000000000000000000000000000000000000000000000000000081526004016118a0906130ca565b60405180910390fd5b60016000806101000a81548160ff021916908360ff16021790555080156118e6576001600060016101000a81548160ff0219169083151502179055505b6118ee612258565b6118fb6000801b8361206a565b600060d181905550600060d281905550600060d18190555061191b6122a9565b80156119745760008060016101000a81548160ff0219169083151502179055507f7f26b83ff96e1f2b6a682f133852f6798a09c465da95921460cefb3847402498600160405161196b9190613132565b60405180910390a15b5050565b60d560009054906101000a900460ff1681565b6119986000801b33611363565b6119d7576040517f08c379a00000000000000000000000000000000000000000000000000000000081526004016119ce90612f60565b60405180910390fd5b8060d68190555050565b6119ee6000801b33611363565b611a2d576040517f08c379a0000000000000000000000000000000000000000000000000000000008152600401611a2490612f60565b60405180910390fd5b600160cc6000837bffffffffffffffffffffffffffffffffffffffffffffffffffffffff19167bffffffffffffffffffffffffffffffffffffffffffffffffffffffff1916815260200190815260200160002060006101000a81548160ff02191690831515021790555050565b611aa76000801b33611363565b611ae6576040517f08c379a0000000000000000000000000000000000000000000000000000000008152600401611add90612f60565b60405180910390fd5b600160cd6000837bffffffffffffffffffffffffffffffffffffffffffffffffffffffff19167bffffffffffffffffffffffffffffffffffffffffffffffffffffffff1916815260200190815260200160002060006101000a81548160ff02191690831515021790555050565b611b5c82610be6565b611b6581612056565b611b6f8383612153565b505050565b60d25481565b611b876000801b33611363565b611bc6576040517f08c379a0000000000000000000000000000000000000000000000000000000008152600401611bbd90612f60565b60405180910390fd5b8060ca60006101000a81548173ffffffffffffffffffffffffffffffffffffffff021916908373ffffffffffffffffffffffffffffffffffffffff16021790555050565b600060d060008373ffffffffffffffffffffffffffffffffffffffff1673ffffffffffffffffffffffffffffffffffffffff168152602001908152602001600020549050919050565b60d760009054906101000a900473ffffffffffffffffffffffffffffffffffffffff1681565b60cb60009054906101000a900473ffffffffffffffffffffffffffffffffffffffff1681565b60007f01ffc9a7000000000000000000000000000000000000000000000000000000007bffffffffffffffffffffffffffffffffffffffffffffffffffffffff1916827bffffffffffffffffffffffffffffffffffffffffffffffffffffffff1916149050919050565b6000611d13612302565b600073ffffffffffffffffffffffffffffffffffffffff168373ffffffffffffffffffffffffffffffffffffffff1603611da1578273ffffffffffffffffffffffffffffffffffffffff167f8cf40ee09e3aa49d8de248496c5793acc922daa00bac9b8cb421b24ffc7c866a836000604051611d90929190613199565b60405180910390a260009050612048565b60008203611e03578273ffffffffffffffffffffffffffffffffffffffff167f8cf40ee09e3aa49d8de248496c5793acc922daa00bac9b8cb421b24ffc7c866a836000604051611df2929190613247565b60405180910390a260009050612048565b81471015611e65578273ffffffffffffffffffffffffffffffffffffffff167f8cf40ee09e3aa49d8de248496c5793acc922daa00bac9b8cb421b24ffc7c866a836000604051611e549291906132cf565b60405180910390a260009050612048565b600060d454118015611e9b575060d4548373ffffffffffffffffffffffffffffffffffffffff16311180611e9a575060d45482115b5b15611f205760d4548373ffffffffffffffffffffffffffffffffffffffff163110611f1a578273ffffffffffffffffffffffffffffffffffffffff167f8cf40ee09e3aa49d8de248496c5793acc922daa00bac9b8cb421b24ffc7c866a836000604051611f0992919061337d565b60405180910390a260009050612048565b60d45491505b60008373ffffffffffffffffffffffffffffffffffffffff1683604051611f46906133ea565b60006040518083038185875af1925050503d8060008114611f83576040519150601f19603f3d011682016040523d82523d6000602084013e611f88565b606091505b505090508015611fe8578373ffffffffffffffffffffffffffffffffffffffff167f8cf40ee09e3aa49d8de248496c5793acc922daa00bac9b8cb421b24ffc7c866a846001604051611fdb92919061344b565b60405180910390a2612043565b8373ffffffffffffffffffffffffffffffffffffffff167f8cf40ee09e3aa49d8de248496c5793acc922daa00bac9b8cb421b24ffc7c866a84600061202b612351565b60405161203a93929190613506565b60405180910390a25b809150505b61205061238e565b92915050565b6120678161206261214b565b612398565b50565b6120748282611363565b6121475760016065600084815260200190815260200160002060000160008373ffffffffffffffffffffffffffffffffffffffff1673ffffffffffffffffffffffffffffffffffffffff16815260200190815260200160002060006101000a81548160ff0219169083151502179055506120ec61214b565b73ffffffffffffffffffffffffffffffffffffffff168173ffffffffffffffffffffffffffffffffffffffff16837f2f8788117e7eff1d82e926ec794901d17c78024a50270940304540a733656f0d60405160405180910390a45b5050565b600033905090565b61215d8282611363565b156122315760006065600084815260200190815260200160002060000160008373ffffffffffffffffffffffffffffffffffffffff1673ffffffffffffffffffffffffffffffffffffffff16815260200190815260200160002060006101000a81548160ff0219169083151502179055506121d661214b565b73ffffffffffffffffffffffffffffffffffffffff168173ffffffffffffffffffffffffffffffffffffffff16837ff6391f5c32d9c69d2a47ea670b442974b53935d1edc7fd64eb21e047a839171b60405160405180910390a45b5050565b6000808273ffffffffffffffffffffffffffffffffffffffff163b119050919050565b600060019054906101000a900460ff166122a7576040517f08c379a000000000000000000000000000000000000000000000000000000000815260040161229e906135b6565b60405180910390fd5b565b600060019054906101000a900460ff166122f8576040517f08c379a00000000000000000000000000000000000000000000000000000000081526004016122ef906135b6565b60405180910390fd5b61230061241d565b565b600260975403612347576040517f08c379a000000000000000000000000000000000000000000000000000000000815260040161233e90613622565b60405180910390fd5b6002609781905550565b60606040518060400160405280600e81526020017f5061796d656e74206661696c6564000000000000000000000000000000000000815250905090565b6001609781905550565b6123a28282611363565b612419576123af81612476565b6123bd8360001c60206124a3565b6040516020016123ce929190613716565b6040516020818303038152906040526040517f08c379a00000000000000000000000000000000000000000000000000000000081526004016124109190613750565b60405180910390fd5b5050565b600060019054906101000a900460ff1661246c576040517f08c379a0000000000000000000000000000000000000000000000000000000008152600401612463906135b6565b60405180910390fd5b6001609781905550565b606061249c8273ffffffffffffffffffffffffffffffffffffffff16601460ff166124a3565b9050919050565b6060600060028360026124b69190612c39565b6124c09190612e4e565b67ffffffffffffffff8111156124d9576124d8613772565b5b6040519080825280601f01601f19166020018201604052801561250b5781602001600182028036833780820191505090505b5090507f300000000000000000000000000000000000000000000000000000000000000081600081518110612543576125426137a1565b5b60200101907effffffffffffffffffffffffffffffffffffffffffffffffffffffffffffff1916908160001a9053507f7800000000000000000000000000000000000000000000000000000000000000816001815181106125a7576125a66137a1565b5b60200101907effffffffffffffffffffffffffffffffffffffffffffffffffffffffffffff1916908160001a905350600060018460026125e79190612c39565b6125f19190612e4e565b90505b6001811115612691577f3031323334353637383961626364656600000000000000000000000000000000600f861660108110612633576126326137a1565b5b1a60f81b82828151811061264a576126496137a1565b5b60200101907effffffffffffffffffffffffffffffffffffffffffffffffffffffffffffff1916908160001a905350600485901c94508061268a906137d0565b90506125f4565b50600084146126d5576040517f08c379a00000000000000000000000000000000000000000000000000000000081526004016126cc90613845565b60405180910390fd5b8091505092915050565b600080fd5b60007fffffffff0000000000000000000000000000000000000000000000000000000082169050919050565b612719816126e4565b811461272457600080fd5b50565b60008135905061273681612710565b92915050565b600060208284031215612752576127516126df565b5b600061276084828501612727565b91505092915050565b60008115159050919050565b61277e81612769565b82525050565b60006020820190506127996000830184612775565b92915050565b600073ffffffffffffffffffffffffffffffffffffffff82169050919050565b60006127ca8261279f565b9050919050565b6127da816127bf565b81146127e557600080fd5b50565b6000813590506127f7816127d1565b92915050565b600060208284031215612813576128126126df565b5b6000612821848285016127e8565b91505092915050565b6000819050919050565b61283d8161282a565b82525050565b60006020820190506128586000830184612834565b92915050565b600063ffffffff82169050919050565b6128778161285e565b811461288257600080fd5b50565b6000813590506128948161286e565b92915050565b6128a38161282a565b81146128ae57600080fd5b50565b6000813590506128c08161289a565b92915050565b600080604083850312156128dd576128dc6126df565b5b60006128eb85828601612885565b92505060206128fc858286016128b1565b9150509250929050565b6000819050919050565b61291981612906565b811461292457600080fd5b50565b60008135905061293681612910565b92915050565b600060208284031215612952576129516126df565b5b600061296084828501612927565b91505092915050565b61297281612906565b82525050565b600060208201905061298d6000830184612969565b92915050565b600080600080600060a086880312156129af576129ae6126df565b5b60006129bd88828901612727565b95505060206129ce888289016127e8565b94505060406129df88828901612885565b93505060606129f0888289016128b1565b9250506080612a0188828901612927565b9150509295509295909350565b60008060408385031215612a2557612a246126df565b5b6000612a3385828601612927565b9250506020612a44858286016127e8565b9150509250929050565b600080600060608486031215612a6757612a666126df565b5b6000612a7586828701612727565b9350506020612a8686828701612885565b9250506040612a97868287016128b1565b9150509250925092565b6000612aac8261279f565b9050919050565b612abc81612aa1565b8114612ac757600080fd5b50565b600081359050612ad981612ab3565b92915050565b600060208284031215612af557612af46126df565b5b6000612b0384828501612aca565b91505092915050565b600060208284031215612b2257612b216126df565b5b6000612b30848285016128b1565b91505092915050565b600060208284031215612b4f57612b4e6126df565b5b6000612b5d84828501612885565b91505092915050565b612b6f816127bf565b82525050565b6000602082019050612b8a6000830184612b66565b92915050565b6000819050919050565b6000612bb5612bb0612bab8461279f565b612b90565b61279f565b9050919050565b6000612bc782612b9a565b9050919050565b6000612bd982612bbc565b9050919050565b612be981612bce565b82525050565b6000602082019050612c046000830184612be0565b92915050565b7f4e487b7100000000000000000000000000000000000000000000000000000000600052601160045260246000fd5b6000612c448261282a565b9150612c4f8361282a565b9250828202612c5d8161282a565b91508282048414831517612c7457612c73612c0a565b5b5092915050565b7f4e487b7100000000000000000000000000000000000000000000000000000000600052601260045260246000fd5b6000612cb58261282a565b9150612cc08361282a565b925082612cd057612ccf612c7b565b5b828204905092915050565b600082825260208201905092915050565b7f42524e2332000000000000000000000000000000000000000000000000000000600082015250565b6000612d22600583612cdb565b9150612d2d82612cec565b602082019050919050565b60006020820190508181036000830152612d5181612d15565b9050919050565b6000612d638261282a565b91507fffffffffffffffffffffffffffffffffffffffffffffffffffffffffffffffff8203612d9557612d94612c0a565b5b600182019050919050565b7f4e487b7100000000000000000000000000000000000000000000000000000000600052602160045260246000fd5b60038110612de057612ddf612da0565b5b50565b6000819050612df182612dcf565b919050565b6000612e0182612de3565b9050919050565b612e1181612df6565b82525050565b6000606082019050612e2c6000830186612834565b612e396020830185612e08565b612e466040830184612775565b949350505050565b6000612e598261282a565b9150612e648361282a565b9250828201905080821115612e7c57612e7b612c0a565b5b92915050565b7f416363657373436f6e74726f6c3a2063616e206f6e6c792072656e6f756e636560008201527f20726f6c657320666f722073656c660000000000000000000000000000000000602082015250565b6000612ede602f83612cdb565b9150612ee982612e82565b604082019050919050565b60006020820190508181036000830152612f0d81612ed1565b9050919050565b7f42524e2330000000000000000000000000000000000000000000000000000000600082015250565b6000612f4a600583612cdb565b9150612f5582612f14565b602082019050919050565b60006020820190508181036000830152612f7981612f3d565b9050919050565b7f42524e2331000000000000000000000000000000000000000000000000000000600082015250565b6000612fb6600583612cdb565b9150612fc182612f80565b602082019050919050565b60006020820190508181036000830152612fe581612fa9565b9050919050565b612ff58161285e565b82525050565b60006020820190506130106000830184612fec565b92915050565b6000815190506130258161289a565b92915050565b600060208284031215613041576130406126df565b5b600061304f84828501613016565b91505092915050565b7f496e697469616c697a61626c653a20636f6e747261637420697320616c72656160008201527f647920696e697469616c697a6564000000000000000000000000000000000000602082015250565b60006130b4602e83612cdb565b91506130bf82613058565b604082019050919050565b600060208201905081810360008301526130e3816130a7565b9050919050565b6000819050919050565b600060ff82169050919050565b600061311c613117613112846130ea565b612b90565b6130f4565b9050919050565b61312c81613101565b82525050565b60006020820190506131476000830184613123565b92915050565b7f496e76616c696420616464726573733a207a65726f2061646472657373000000600082015250565b6000613183601d83612cdb565b915061318e8261314d565b602082019050919050565b60006060820190506131ae6000830185612834565b6131bb6020830184612775565b81810360408301526131cc81613176565b90509392505050565b7f496e76616c696420616d6f756e743a206d75737420626520677265617465722060008201527f7468616e207a65726f0000000000000000000000000000000000000000000000602082015250565b6000613231602983612cdb565b915061323c826131d5565b604082019050919050565b600060608201905061325c6000830185612834565b6132696020830184612775565b818103604083015261327a81613224565b90509392505050565b7f496e73756666696369656e742062616c616e6365000000000000000000000000600082015250565b60006132b9601483612cdb565b91506132c482613283565b602082019050919050565b60006060820190506132e46000830185612834565b6132f16020830184612775565b8181036040830152613302816132ac565b90509392505050565b7f4163636f756e742062616c616e6365206578636565647320706572206163636f60008201527f756e74206c696d69740000000000000000000000000000000000000000000000602082015250565b6000613367602983612cdb565b91506133728261330b565b604082019050919050565b60006060820190506133926000830185612834565b61339f6020830184612775565b81810360408301526133b08161335a565b90509392505050565b600081905092915050565b50565b60006133d46000836133b9565b91506133df826133c4565b600082019050919050565b60006133f5826133c7565b9150819050919050565b7f5375636365737300000000000000000000000000000000000000000000000000600082015250565b6000613435600783612cdb565b9150613440826133ff565b602082019050919050565b60006060820190506134606000830185612834565b61346d6020830184612775565b818103604083015261347e81613428565b90509392505050565b600081519050919050565b60005b838110156134b0578082015181840152602081019050613495565b60008484015250505050565b6000601f19601f8301169050919050565b60006134d882613487565b6134e28185612cdb565b93506134f2818560208601613492565b6134fb816134bc565b840191505092915050565b600060608201905061351b6000830186612834565b6135286020830185612775565b818103604083015261353a81846134cd565b9050949350505050565b7f496e697469616c697a61626c653a20636f6e7472616374206973206e6f74206960008201527f6e697469616c697a696e67000000000000000000000000000000000000000000602082015250565b60006135a0602b83612cdb565b91506135ab82613544565b604082019050919050565b600060208201905081810360008301526135cf81613593565b9050919050565b7f5265656e7472616e637947756172643a207265656e7472616e742063616c6c00600082015250565b600061360c601f83612cdb565b9150613617826135d6565b602082019050919050565b6000602082019050818103600083015261363b816135ff565b9050919050565b600081905092915050565b7f416363657373436f6e74726f6c3a206163636f756e7420000000000000000000600082015250565b6000613683601783613642565b915061368e8261364d565b601782019050919050565b60006136a482613487565b6136ae8185613642565b93506136be818560208601613492565b80840191505092915050565b7f206973206d697373696e6720726f6c6520000000000000000000000000000000600082015250565b6000613700601183613642565b915061370b826136ca565b601182019050919050565b600061372182613676565b915061372d8285613699565b9150613738826136f3565b91506137448284613699565b91508190509392505050565b6000602082019050818103600083015261376a81846134cd565b905092915050565b7f4e487b7100000000000000000000000000000000000000000000000000000000600052604160045260246000fd5b7f4e487b7100000000000000000000000000000000000000000000000000000000600052603260045260246000fd5b60006137db8261282a565b9150600082036137ee576137ed612c0a565b5b600182039050919050565b7f537472696e67733a20686578206c656e67746820696e73756666696369656e74600082015250565b600061382f602083612cdb565b915061383a826137f9565b602082019050919050565b6000602082019050818103600083015261385e81613822565b905091905056fea26469706673582212206d818ff0c365d399abbdb76dca60a10aad9e65ad313b774a870a1a0481912be664736f6c63430008180033",
  "linkReferences": {},
  "deployedLinkReferences": {}
}