{
  "_format": "hh-sol-artifact-1",
  "contractName": "ClaimerGMP",
  "sourceName": "contracts/claimerGMP.sol",
  "abi": [
    {
      "anonymous": false,
      "inputs": [
        {
          "indexed": false,
          "internalType": "uint8",
          "name": "version",
          "type": "uint8"
        }
      ],
      "name": "Initialized",
      "type": "event"
    },
    {
      "anonymous": false,
      "inputs": [
        {
          "indexed": true,
          "internalType": "bytes32",
          "name": "role",
          "type": "bytes32"
        },
        {
          "indexed": true,
          "internalType": "bytes32",
          "name": "previousAdminRole",
          "type": "bytes32"
        },
        {
          "indexed": true,
          "internalType": "bytes32",
          "name": "newAdminRole",
          "type": "bytes32"
        }
      ],
      "name": "RoleAdminChanged",
      "type": "event"
    },
    {
      "anonymous": false,
      "inputs": [
        {
          "indexed": true,
          "internalType": "bytes32",
          "name": "role",
          "type": "bytes32"
        },
        {
          "indexed": true,
          "internalType": "address",
          "name": "account",
          "type": "address"
        },
        {
          "indexed": true,
          "internalType": "address",
          "name": "sender",
          "type": "address"
        }
      ],
      "name": "RoleGranted",
      "type": "event"
    },
    {
      "anonymous": false,
      "inputs": [
        {
          "indexed": true,
          "internalType": "bytes32",
          "name": "role",
          "type": "bytes32"
        },
        {
          "indexed": true,
          "internalType": "address",
          "name": "account",
          "type": "address"
        },
        {
          "indexed": true,
          "internalType": "address",
          "name": "sender",
          "type": "address"
        }
      ],
      "name": "RoleRevoked",
      "type": "event"
    },
    {
      "inputs": [],
      "name": "DEFAULT_ADMIN_ROLE",
      "outputs": [
        {
          "internalType": "bytes32",
          "name": "",
          "type": "bytes32"
        }
      ],
      "stateMutability": "view",
      "type": "function"
    },
    {
      "inputs": [],
      "name": "attesters",
      "outputs": [
        {
          "internalType": "contract AttestationsVerifierProofs",
          "name": "",
          "type": "address"
        }
      ],
      "stateMutability": "view",
      "type": "function"
    },
    {
      "inputs": [
        {
          "components": [
            {
              "internalType": "bytes32",
              "name": "id",
              "type": "bytes32"
            },
            {
              "internalType": "address",
              "name": "rewardAsset",
              "type": "address"
            },
            {
              "internalType": "uint256",
              "name": "maxReward",
              "type": "uint256"
            },
            {
              "internalType": "uint256",
              "name": "settledAmount",
              "type": "uint256"
            },
            {
              "internalType": "uint256",
              "name": "orderTimestamp",
              "type": "uint256"
            }
          ],
          "internalType": "struct RemoteOrder.Payout[]",
          "name": "payouts",
          "type": "tuple[]"
        },
        {
          "internalType": "bytes32",
          "name": "_batchPayloadHash",
          "type": "bytes32"
        },
        {
          "internalType": "bytes",
          "name": "_batchPayload",
          "type": "bytes"
        }
      ],
      "name": "checkClaimPayoutBatch",
      "outputs": [
        {
          "internalType": "address[]",
          "name": "",
          "type": "address[]"
        },
        {
          "internalType": "uint256[]",
          "name": "",
          "type": "uint256[]"
        },
        {
          "internalType": "uint256",
          "name": "",
          "type": "uint256"
        }
      ],
      "stateMutability": "payable",
      "type": "function"
    },
    {
      "inputs": [
        {
          "internalType": "bytes32",
          "name": "orderId",
          "type": "bytes32"
        },
        {
          "internalType": "address",
          "name": "rewardAsset",
          "type": "address"
        },
        {
          "internalType": "uint256",
          "name": "maxReward",
          "type": "uint256"
        },
        {
          "internalType": "uint256",
          "name": "settledAmount",
          "type": "uint256"
        },
        {
          "internalType": "address",
          "name": "beneficiary",
          "type": "address"
        },
        {
          "internalType": "uint256",
          "name": "orderTimestamp",
          "type": "uint256"
        },
        {
          "internalType": "bytes32",
          "name": "_batchPayloadHash",
          "type": "bytes32"
        },
        {
          "internalType": "bytes",
          "name": "_batchPayload",
          "type": "bytes"
        }
      ],
      "name": "checkIsClaimable",
      "outputs": [
        {
          "internalType": "bool",
          "name": "",
          "type": "bool"
        }
      ],
      "stateMutability": "view",
      "type": "function"
    },
    {
      "inputs": [
        {
          "internalType": "bytes32",
          "name": "orderId",
          "type": "bytes32"
        },
        {
          "internalType": "address",
          "name": "rewardAsset",
          "type": "address"
        },
        {
          "internalType": "uint256",
          "name": "maxReward",
          "type": "uint256"
        },
        {
          "internalType": "uint256",
          "name": "settledAmount",
          "type": "uint256"
        },
        {
          "internalType": "address",
          "name": "beneficiary",
          "type": "address"
        },
        {
          "internalType": "uint256",
          "name": "orderTimestamp",
          "type": "uint256"
        }
      ],
      "name": "checkIsClaimableWithEscrow",
      "outputs": [
        {
          "internalType": "bool",
          "name": "",
          "type": "bool"
        }
      ],
      "stateMutability": "view",
      "type": "function"
    },
    {
      "inputs": [
        {
          "internalType": "bytes32",
          "name": "orderId",
          "type": "bytes32"
        },
        {
          "internalType": "uint256",
          "name": "orderTimestamp",
          "type": "uint256"
        },
        {
          "internalType": "uint256",
          "name": "orderTimeout",
          "type": "uint256"
        },
        {
          "internalType": "address",
          "name": "rewardAsset",
          "type": "address"
        },
        {
          "internalType": "uint256",
          "name": "maxReward",
          "type": "uint256"
        },
        {
          "internalType": "address",
          "name": "beneficiary",
          "type": "address"
        },
        {
          "internalType": "bytes32",
          "name": "_batchPayloadHash",
          "type": "bytes32"
        },
        {
          "internalType": "bytes",
          "name": "_batchPayload",
          "type": "bytes"
        }
      ],
      "name": "checkIsRefundable",
      "outputs": [
        {
          "internalType": "bool",
          "name": "",
          "type": "bool"
        }
      ],
      "stateMutability": "view",
      "type": "function"
    },
    {
      "inputs": [
        {
          "internalType": "bytes32",
          "name": "orderId",
          "type": "bytes32"
        },
        {
          "internalType": "uint256",
          "name": "orderTimestamp",
          "type": "uint256"
        },
        {
          "internalType": "uint256",
          "name": "orderTimeout",
          "type": "uint256"
        },
        {
          "internalType": "address",
          "name": "rewardAsset",
          "type": "address"
        },
        {
          "internalType": "uint256",
          "name": "maxReward",
          "type": "uint256"
        },
        {
          "internalType": "address",
          "name": "beneficiary",
          "type": "address"
        }
      ],
      "name": "checkIsRefundableWithEscrow",
      "outputs": [
        {
          "internalType": "bool",
          "name": "",
          "type": "bool"
        }
      ],
      "stateMutability": "view",
      "type": "function"
    },
    {
      "inputs": [],
      "name": "disableInitializers",
      "outputs": [],
      "stateMutability": "nonpayable",
      "type": "function"
    },
    {
      "inputs": [],
      "name": "escrowGMP",
      "outputs": [
        {
          "internalType": "contract EscrowGMP",
          "name": "",
          "type": "address"
        }
      ],
      "stateMutability": "view",
      "type": "function"
    },
    {
      "inputs": [],
      "name": "forceCheckV2",
      "outputs": [
        {
          "internalType": "bool",
          "name": "",
          "type": "bool"
        }
      ],
      "stateMutability": "view",
      "type": "function"
    },
    {
      "inputs": [
        {
          "internalType": "address",
          "name": "requester",
          "type": "address"
        },
        {
          "internalType": "uint32",
          "name": "nonce",
          "type": "uint32"
        }
      ],
      "name": "generateId",
      "outputs": [
        {
          "internalType": "bytes32",
          "name": "",
          "type": "bytes32"
        }
      ],
      "stateMutability": "pure",
      "type": "function"
    },
    {
      "inputs": [
        {
          "internalType": "bytes32",
          "name": "role",
          "type": "bytes32"
        }
      ],
      "name": "getRoleAdmin",
      "outputs": [
        {
          "internalType": "bytes32",
          "name": "",
          "type": "bytes32"
        }
      ],
      "stateMutability": "view",
      "type": "function"
    },
    {
      "inputs": [
        {
          "internalType": "bytes32",
          "name": "role",
          "type": "bytes32"
        },
        {
          "internalType": "address",
          "name": "account",
          "type": "address"
        }
      ],
      "name": "grantRole",
      "outputs": [],
      "stateMutability": "nonpayable",
      "type": "function"
    },
    {
      "inputs": [
        {
          "internalType": "bytes32",
          "name": "role",
          "type": "bytes32"
        },
        {
          "internalType": "address",
          "name": "account",
          "type": "address"
        }
      ],
      "name": "hasRole",
      "outputs": [
        {
          "internalType": "bool",
          "name": "",
          "type": "bool"
        }
      ],
      "stateMutability": "view",
      "type": "function"
    },
    {
      "inputs": [
        {
          "internalType": "address",
          "name": "_owner",
          "type": "address"
        }
      ],
      "name": "initialize",
      "outputs": [],
      "stateMutability": "nonpayable",
      "type": "function"
    },
    {
      "inputs": [
        {
          "internalType": "bytes32",
          "name": "_batchPayloadHash",
          "type": "bytes32"
        },
        {
          "internalType": "bytes",
          "name": "_batchPayload",
          "type": "bytes"
        },
        {
          "internalType": "bytes32",
          "name": "_id",
          "type": "bytes32"
        },
        {
          "internalType": "address",
          "name": "_beneficiary",
          "type": "address"
        },
        {
          "internalType": "uint256",
          "name": "_settledAmount",
          "type": "uint256"
        },
        {
          "internalType": "uint8",
          "name": "actionType",
          "type": "uint8"
        }
      ],
      "name": "isClaimable",
      "outputs": [
        {
          "internalType": "bool",
          "name": "",
          "type": "bool"
        }
      ],
      "stateMutability": "view",
      "type": "function"
    },
    {
      "inputs": [
        {
          "internalType": "bytes32",
          "name": "role",
          "type": "bytes32"
        },
        {
          "internalType": "address",
          "name": "account",
          "type": "address"
        }
      ],
      "name": "renounceRole",
      "outputs": [],
      "stateMutability": "nonpayable",
      "type": "function"
    },
    {
      "inputs": [
        {
          "internalType": "bytes32",
          "name": "role",
          "type": "bytes32"
        },
        {
          "internalType": "address",
          "name": "account",
          "type": "address"
        }
      ],
      "name": "revokeRole",
      "outputs": [],
      "stateMutability": "nonpayable",
      "type": "function"
    },
    {
      "inputs": [
        {
          "internalType": "address",
          "name": "_attesters",
          "type": "address"
        }
      ],
      "name": "setAttester",
      "outputs": [],
      "stateMutability": "nonpayable",
      "type": "function"
    },
    {
      "inputs": [
        {
          "internalType": "contract EscrowGMP",
          "name": "_escrowGMP",
          "type": "address"
        }
      ],
      "name": "setEscrowGMP",
      "outputs": [],
      "stateMutability": "nonpayable",
      "type": "function"
    },
    {
      "inputs": [
        {
          "internalType": "bool",
          "name": "_forceCheckV2",
          "type": "bool"
        }
      ],
      "name": "setForceCheckV2",
      "outputs": [],
      "stateMutability": "nonpayable",
      "type": "function"
    },
    {
      "inputs": [
        {
          "internalType": "bytes32",
          "name": "_version",
          "type": "bytes32"
        }
      ],
      "name": "setVersion",
      "outputs": [],
      "stateMutability": "nonpayable",
      "type": "function"
    },
    {
      "inputs": [
        {
          "internalType": "bytes4",
          "name": "interfaceId",
          "type": "bytes4"
        }
      ],
      "name": "supportsInterface",
      "outputs": [
        {
          "internalType": "bool",
          "name": "",
          "type": "bool"
        }
      ],
      "stateMutability": "view",
      "type": "function"
    },
    {
      "inputs": [
        {
          "internalType": "bytes",
          "name": "payload",
          "type": "bytes"
        },
        {
          "internalType": "bytes32",
          "name": "_id",
          "type": "bytes32"
        },
        {
          "internalType": "address",
          "name": "_beneficiary",
          "type": "address"
        },
        {
          "internalType": "uint256",
          "name": "_settledAmount",
          "type": "uint256"
        },
        {
          "internalType": "uint8",
          "name": "_actionType",
          "type": "uint8"
        }
      ],
      "name": "verifyGMPPayloadInclusion",
      "outputs": [
        {
          "internalType": "bool",
          "name": "",
          "type": "bool"
        }
      ],
      "stateMutability": "pure",
      "type": "function"
    },
    {
      "inputs": [],
      "name": "version",
      "outputs": [
        {
          "internalType": "bytes32",
          "name": "",
          "type": "bytes32"
        }
      ],
      "stateMutability": "view",
      "type": "function"
    }
  ],
  "bytecode": "0x608060405234801561001057600080fd5b5061458c806100206000396000f3fe6080604052600436106101655760003560e01c806391d14854116100d1578063c6b4fc811161008a578063d3edc52911610064578063d3edc52914610566578063d547741f146105a3578063e9148ffb146105cc578063e96e74311461060957610165565b8063c6b4fc81146104d7578063c8a63d7114610514578063ca5f81b51461053d57610165565b806391d14854146103ae5780639751d908146103eb5780639daf85ab1461041d578063a217fddf14610446578063a949ca1514610471578063c4d66de8146104ae57610165565b806336568abe1161012357806336568abe1461027857806354fd4d50146102a157806358951493146102cc57806373b3e504146102f75780638ade88211461033457806390f2ca321461037157610165565b8062cfe24f1461016a57806301ffc9a714610195578063248a9ca3146101d25780632f2ff15d1461020f57806331f44900146102385780633562c20b1461024f575b600080fd5b34801561017657600080fd5b5061017f610634565b60405161018c9190612619565b60405180910390f35b3480156101a157600080fd5b506101bc60048036038101906101b791906126a0565b61065a565b6040516101c991906126e8565b60405180910390f35b3480156101de57600080fd5b506101f960048036038101906101f49190612739565b6106d4565b6040516102069190612775565b60405180910390f35b34801561021b57600080fd5b50610236600480360381019061023191906127ce565b6106f4565b005b34801561024457600080fd5b5061024d610715565b005b34801561025b57600080fd5b506102766004803603810190610271919061284c565b61076b565b005b34801561028457600080fd5b5061029f600480360381019061029a91906127ce565b6107fb565b005b3480156102ad57600080fd5b506102b661087e565b6040516102c39190612775565b60405180910390f35b3480156102d857600080fd5b506102e1610884565b6040516102ee91906126e8565b60405180910390f35b34801561030357600080fd5b5061031e600480360381019061031991906128b5565b610897565b60405161032b9190612775565b60405180910390f35b34801561034057600080fd5b5061035b60048036038101906103569190612a71565b6108f5565b60405161036891906126e8565b60405180910390f35b34801561037d57600080fd5b5061039860048036038101906103939190612b7c565b610abc565b6040516103a591906126e8565b60405180910390f35b3480156103ba57600080fd5b506103d560048036038101906103d091906127ce565b611006565b6040516103e291906126e8565b60405180910390f35b61040560048036038101906104009190612d83565b611071565b60405161041493929190612f99565b60405180910390f35b34801561042957600080fd5b50610444600480360381019061043f9190612fde565b6115fb565b005b34801561045257600080fd5b5061045b61168b565b6040516104689190612775565b60405180910390f35b34801561047d57600080fd5b506104986004803603810190610493919061300b565b611692565b6040516104a591906126e8565b60405180910390f35b3480156104ba57600080fd5b506104d560048036038101906104d09190612fde565b61178a565b005b3480156104e357600080fd5b506104fe60048036038101906104f99190613138565b611945565b60405161050b91906126e8565b60405180910390f35b34801561052057600080fd5b5061053b600480360381019061053691906131fe565b611c0c565b005b34801561054957600080fd5b50610564600480360381019061055f9190612739565b611c75565b005b34801561057257600080fd5b5061058d6004803603810190610588919061322b565b611ccb565b60405161059a91906126e8565b60405180910390f35b3480156105af57600080fd5b506105ca60048036038101906105c591906127ce565b611dca565b005b3480156105d857600080fd5b506105f360048036038101906105ee91906132b8565b611deb565b60405161060091906126e8565b60405180910390f35b34801561061557600080fd5b5061061e611f09565b60405161062b9190613366565b60405180910390f35b609760009054906101000a900473ffffffffffffffffffffffffffffffffffffffff1681565b60007f7965db0b000000000000000000000000000000000000000000000000000000007bffffffffffffffffffffffffffffffffffffffffffffffffffffffff1916827bffffffffffffffffffffffffffffffffffffffffffffffffffffffff191614806106cd57506106cc82611f2f565b5b9050919050565b600060656000838152602001908152602001600020600101549050919050565b6106fd826106d4565b61070681611f99565b6107108383611fad565b505050565b6107226000801b33611006565b610761576040517f08c379a000000000000000000000000000000000000000000000000000000000815260040161075890613404565b60405180910390fd5b61076961208e565b565b6107786000801b33611006565b6107b7576040517f08c379a00000000000000000000000000000000000000000000000000000000081526004016107ae90613404565b60405180910390fd5b80609860006101000a81548173ffffffffffffffffffffffffffffffffffffffff021916908373ffffffffffffffffffffffffffffffffffffffff16021790555050565b61080361214e565b73ffffffffffffffffffffffffffffffffffffffff168173ffffffffffffffffffffffffffffffffffffffff1614610870576040517f08c379a000000000000000000000000000000000000000000000000000000000815260040161086790613496565b60405180910390fd5b61087a8282612156565b5050565b60995481565b609a60009054906101000a900460ff1681565b600082826040516020016108ac9291906134d4565b604051602081830303815290604052805190602001206000801b6040516020016108d79291906134fd565b60405160208183030381529060405280519060200120905092915050565b600080609860009054906101000a900473ffffffffffffffffffffffffffffffffffffffff1673ffffffffffffffffffffffffffffffffffffffff1663cb9871d98b6040518263ffffffff1660e01b81526004016109539190612775565b602060405180830381865afa158015610970573d6000803e3d6000fd5b505050506040513d601f19601f82011682018060405250810190610994919061353b565b90506000801b8114806109aa5750600160001b81145b806109b85750600160001b81145b156109c7576000915050610ab0565b6109d58a8a8a8a8a8a611deb565b156109e4576001915050610ab0565b609760009054906101000a900473ffffffffffffffffffffffffffffffffffffffff1673ffffffffffffffffffffffffffffffffffffffff16634c13eff06040518163ffffffff1660e01b8152600401602060405180830381865afa158015610a51573d6000803e3d6000fd5b505050506040513d601f19601f82011682018060405250810190610a75919061357d565b80610a8c5750609a60009054906101000a900460ff165b15610aaa576000610aa185858d8a8c86610abc565b92505050610ab0565b60009150505b98975050505050505050565b6000609760009054906101000a900473ffffffffffffffffffffffffffffffffffffffff1673ffffffffffffffffffffffffffffffffffffffff1663b38aee73886040518263ffffffff1660e01b8152600401610b199190612775565b602060405180830381865afa158015610b36573d6000803e3d6000fd5b505050506040513d601f19601f82011682018060405250810190610b5a919061357d565b610b99576040517f08c379a0000000000000000000000000000000000000000000000000000000008152600401610b90906135f6565b60405180910390fd5b6000865111610bdd576040517f08c379a0000000000000000000000000000000000000000000000000000000008152600401610bd490613662565b60405180910390fd5b86868051906020012014610c26576040517f08c379a0000000000000000000000000000000000000000000000000000000008152600401610c1d906136f4565b60405180910390fd5b600073ffffffffffffffffffffffffffffffffffffffff16609860009054906101000a900473ffffffffffffffffffffffffffffffffffffffff1673ffffffffffffffffffffffffffffffffffffffff1603610cbe576000610cbd576040517f08c379a0000000000000000000000000000000000000000000000000000000008152600401610cb490613760565b60405180910390fd5b5b6000609860009054906101000a900473ffffffffffffffffffffffffffffffffffffffff1673ffffffffffffffffffffffffffffffffffffffff1663cb9871d9876040518263ffffffff1660e01b8152600401610d1b9190612775565b602060405180830381865afa158015610d38573d6000803e3d6000fd5b505050506040513d601f19601f82011682018060405250810190610d5c919061353b565b90506000801b811480610d725750600160001b81145b80610d805750600260001b81145b15610d8f576000915050610ffc565b600087806020019051810190610da59190613a0f565b90506000609760009054906101000a900473ffffffffffffffffffffffffffffffffffffffff1673ffffffffffffffffffffffffffffffffffffffff16630660bab9836040518263ffffffff1660e01b8152600401610e049190613bf3565b600060405180830381865afa158015610e21573d6000803e3d6000fd5b505050506040513d6000823e3d601f19601f82011682018060405250810190610e4a9190613c15565b805190602001209050898114610e95576040517f08c379a0000000000000000000000000000000000000000000000000000000008152600401610e8c906136f4565b60405180910390fd5b609760009054906101000a900473ffffffffffffffffffffffffffffffffffffffff1673ffffffffffffffffffffffffffffffffffffffff1663b38aee73826040518263ffffffff1660e01b8152600401610ef09190612775565b602060405180830381865afa158015610f0d573d6000803e3d6000fd5b505050506040513d601f19601f82011682018060405250810190610f31919061357d565b610f70576040517f08c379a0000000000000000000000000000000000000000000000000000000008152600401610f6790613caa565b60405180910390fd5b3073ffffffffffffffffffffffffffffffffffffffff1663c6b4fc818360a001518a8a8a8a6040518663ffffffff1660e01b8152600401610fb5959493929190613d23565b602060405180830381865afa158015610fd2573d6000803e3d6000fd5b505050506040513d601f19601f82011682018060405250810190610ff6919061357d565b93505050505b9695505050505050565b60006065600084815260200190815260200160002060000160008373ffffffffffffffffffffffffffffffffffffffff1673ffffffffffffffffffffffffffffffffffffffff16815260200190815260200160002060009054906101000a900460ff16905092915050565b606080600080865167ffffffffffffffff81111561109257611091612946565b5b6040519080825280602002602001820160405280156110c05781602001602082028036833780820191505090505b5090506000875167ffffffffffffffff8111156110e0576110df612946565b5b60405190808252806020026020018201604052801561110e5781602001602082028036833780820191505090505b5090506000805b89518110156115e5576111c48a828151811061113457611133613d7d565b5b6020026020010151600001518b838151811061115357611152613d7d565b5b6020026020010151602001518c848151811061117257611171613d7d565b5b6020026020010151604001518d858151811061119157611190613d7d565b5b602002602001015160600151338f87815181106111b1576111b0613d7d565b5b6020026020010151608001518f8f6108f5565b611203576040517f08c379a00000000000000000000000000000000000000000000000000000000081526004016111fa90613df8565b60405180910390fd5b6000801b609860009054906101000a900473ffffffffffffffffffffffffffffffffffffffff1673ffffffffffffffffffffffffffffffffffffffff1663cb9871d98c848151811061125857611257613d7d565b5b6020026020010151600001516040518263ffffffff1660e01b81526004016112809190612775565b602060405180830381865afa15801561129d573d6000803e3d6000fd5b505050506040513d601f19601f820116820180604052508101906112c1919061353b565b03611301576040517f08c379a00000000000000000000000000000000000000000000000000000000081526004016112f890613df8565b60405180910390fd5b609860009054906101000a900473ffffffffffffffffffffffffffffffffffffffff1673ffffffffffffffffffffffffffffffffffffffff1663a77715d08b838151811061135257611351613d7d565b5b6020026020010151600001516040518263ffffffff1660e01b815260040161137a9190612775565b600060405180830381600087803b15801561139457600080fd5b505af11580156113a8573d6000803e3d6000fd5b505050506000805b838110156114cf578b83815181106113cb576113ca613d7d565b5b60200260200101516020015173ffffffffffffffffffffffffffffffffffffffff16868281518110611400576113ff613d7d565b5b602002602001015173ffffffffffffffffffffffffffffffffffffffff16036114c45760008c848151811061143857611437613d7d565b5b6020026020010151606001511161146d578b838151811061145c5761145b613d7d565b5b60200260200101516040015161148d565b8b83815181106114805761147f613d7d565b5b6020026020010151606001515b8582815181106114a05761149f613d7d565b5b602002602001018181516114b49190613e47565b91508181525050600191506114cf565b8060010190506113b0565b50806115d9578a82815181106114e8576114e7613d7d565b5b60200260200101516020015185848151811061150757611506613d7d565b5b602002602001019073ffffffffffffffffffffffffffffffffffffffff16908173ffffffffffffffffffffffffffffffffffffffff168152505060008b838151811061155657611555613d7d565b5b6020026020010151606001511161158b578a828151811061157a57611579613d7d565b5b6020026020010151604001516115ab565b8a828151811061159e5761159d613d7d565b5b6020026020010151606001515b8484815181106115be576115bd613d7d565b5b60200260200101818152505082806115d590613e7b565b9350505b50806001019050611115565b5082828295509550955050505093509350939050565b6116086000801b33611006565b611647576040517f08c379a000000000000000000000000000000000000000000000000000000000815260040161163e90613404565b60405180910390fd5b80609760006101000a81548173ffffffffffffffffffffffffffffffffffffffff021916908373ffffffffffffffffffffffffffffffffffffffff16021790555050565b6000801b81565b60006116a2898989898989611ccb565b156116b0576001905061177e565b609760009054906101000a900473ffffffffffffffffffffffffffffffffffffffff1673ffffffffffffffffffffffffffffffffffffffff16634c13eff06040518163ffffffff1660e01b8152600401602060405180830381865afa15801561171d573d6000803e3d6000fd5b505050506040513d601f19601f82011682018060405250810190611741919061357d565b806117585750609a60009054906101000a900460ff165b156117795760006001905061177184848c888a86610abc565b91505061177e565b600090505b98975050505050505050565b60008060019054906101000a900460ff161590508080156117bb5750600160008054906101000a900460ff1660ff16105b806117e857506117ca30612238565b1580156117e75750600160008054906101000a900460ff1660ff16145b5b611827576040517f08c379a000000000000000000000000000000000000000000000000000000000815260040161181e90613f35565b60405180910390fd5b60016000806101000a81548160ff021916908360ff1602179055508015611864576001600060016101000a81548160ff0219169083151502179055505b600073ffffffffffffffffffffffffffffffffffffffff168273ffffffffffffffffffffffffffffffffffffffff16036118d3576040517f08c379a00000000000000000000000000000000000000000000000000000000081526004016118ca90613fa1565b60405180910390fd5b6118e06000801b83611fad565b6118e861225b565b80156119415760008060016101000a81548160ff0219169083151502179055507f7f26b83ff96e1f2b6a682f133852f6798a09c465da95921460cefb384740249860016040516119389190613ffc565b60405180910390a15b5050565b600080600090505b87879050811015611bfc57600088888381811061196d5761196c613d7d565b5b9050013560f81c60f81b60f81c90506001826119899190613e47565b915060008160ff1603611a69576000898984906020866119a99190613e47565b926119b693929190614021565b906119c19190614074565b90506020836119d09190613e47565b925060008a8a85906014876119e59190613e47565b926119f293929190614021565b906119fd91906140ff565b60601c9050601484611a0f9190613e47565b93508882148015611a4b57508773ffffffffffffffffffffffffffffffffffffffff168173ffffffffffffffffffffffffffffffffffffffff16145b15611a625760008660ff1614945050505050611c02565b5050611bf6565b60018160ff1603611ace57600089898490602086611a879190613e47565b92611a9493929190614021565b90611a9f9190614074565b9050602083611aae9190613e47565b9250878103611ac85760018560ff16149350505050611c02565b50611bf5565b60058160ff1603611bf457600089898490602086611aec9190613e47565b92611af993929190614021565b90611b049190614074565b9050602083611b139190613e47565b925060008a8a8590601487611b289190613e47565b92611b3593929190614021565b90611b4091906140ff565b60601c9050601484611b529190613e47565b935060008b8b8690602088611b679190613e47565b92611b7493929190614021565b90611b7f9190614074565b60001c90508983148015611bbe57508873ffffffffffffffffffffffffffffffffffffffff168273ffffffffffffffffffffffffffffffffffffffff16145b8015611bc957508781145b15611be15760058760ff161495505050505050611c02565b609485611bee9190613e47565b94505050505b5b5b5061194d565b60009150505b9695505050505050565b611c196000801b33611006565b611c58576040517f08c379a0000000000000000000000000000000000000000000000000000000008152600401611c4f90613404565b60405180910390fd5b80609a60006101000a81548160ff02191690831515021790555050565b611c826000801b33611006565b611cc1576040517f08c379a0000000000000000000000000000000000000000000000000000000008152600401611cb890613404565b60405180910390fd5b8060998190555050565b60008486611cd99190613e47565b421015611ce95760009050611dc0565b6000848488604051602001611d009392919061415e565b6040516020818303038152906040528051906020012090506000609860009054906101000a900473ffffffffffffffffffffffffffffffffffffffff1673ffffffffffffffffffffffffffffffffffffffff1663cb9871d98a6040518263ffffffff1660e01b8152600401611d759190612775565b602060405180830381865afa158015611d92573d6000803e3d6000fd5b505050506040513d601f19601f82011682018060405250810190611db6919061353b565b9050818114925050505b9695505050505050565b611dd3826106d4565b611ddc81611f99565b611de68383612156565b505050565b600080868684604051602001611e039392919061415e565b60405160208183030381529060405280519060200120905060008190506000861115611e5757878686604051602001611e3e93929190614195565b6040516020818303038152906040528051906020012090505b6000609860009054906101000a900473ffffffffffffffffffffffffffffffffffffffff1673ffffffffffffffffffffffffffffffffffffffff1663cb9871d98b6040518263ffffffff1660e01b8152600401611eb49190612775565b602060405180830381865afa158015611ed1573d6000803e3d6000fd5b505050506040513d601f19601f82011682018060405250810190611ef5919061353b565b905081811493505050509695505050505050565b609860009054906101000a900473ffffffffffffffffffffffffffffffffffffffff1681565b60007f01ffc9a7000000000000000000000000000000000000000000000000000000007bffffffffffffffffffffffffffffffffffffffffffffffffffffffff1916827bffffffffffffffffffffffffffffffffffffffffffffffffffffffff1916149050919050565b611faa81611fa561214e565b6122ac565b50565b611fb78282611006565b61208a5760016065600084815260200190815260200160002060000160008373ffffffffffffffffffffffffffffffffffffffff1673ffffffffffffffffffffffffffffffffffffffff16815260200190815260200160002060006101000a81548160ff02191690831515021790555061202f61214e565b73ffffffffffffffffffffffffffffffffffffffff168173ffffffffffffffffffffffffffffffffffffffff16837f2f8788117e7eff1d82e926ec794901d17c78024a50270940304540a733656f0d60405160405180910390a45b5050565b600060019054906101000a900460ff16156120de576040517f08c379a00000000000000000000000000000000000000000000000000000000081526004016120d59061423e565b60405180910390fd5b60ff801660008054906101000a900460ff1660ff161461214c5760ff6000806101000a81548160ff021916908360ff1602179055507f7f26b83ff96e1f2b6a682f133852f6798a09c465da95921460cefb384740249860ff604051612143919061425e565b60405180910390a15b565b600033905090565b6121608282611006565b156122345760006065600084815260200190815260200160002060000160008373ffffffffffffffffffffffffffffffffffffffff1673ffffffffffffffffffffffffffffffffffffffff16815260200190815260200160002060006101000a81548160ff0219169083151502179055506121d961214e565b73ffffffffffffffffffffffffffffffffffffffff168173ffffffffffffffffffffffffffffffffffffffff16837ff6391f5c32d9c69d2a47ea670b442974b53935d1edc7fd64eb21e047a839171b60405160405180910390a45b5050565b6000808273ffffffffffffffffffffffffffffffffffffffff163b119050919050565b600060019054906101000a900460ff166122aa576040517f08c379a00000000000000000000000000000000000000000000000000000000081526004016122a1906142eb565b60405180910390fd5b565b6122b68282611006565b61232d576122c381612331565b6122d18360001c602061235e565b6040516020016122e29291906143ea565b6040516020818303038152906040526040517f08c379a0000000000000000000000000000000000000000000000000000000008152600401612324919061445d565b60405180910390fd5b5050565b60606123578273ffffffffffffffffffffffffffffffffffffffff16601460ff1661235e565b9050919050565b606060006002836002612371919061447f565b61237b9190613e47565b67ffffffffffffffff81111561239457612393612946565b5b6040519080825280601f01601f1916602001820160405280156123c65781602001600182028036833780820191505090505b5090507f3000000000000000000000000000000000000000000000000000000000000000816000815181106123fe576123fd613d7d565b5b60200101907effffffffffffffffffffffffffffffffffffffffffffffffffffffffffffff1916908160001a9053507f78000000000000000000000000000000000000000000000000000000000000008160018151811061246257612461613d7d565b5b60200101907effffffffffffffffffffffffffffffffffffffffffffffffffffffffffffff1916908160001a905350600060018460026124a2919061447f565b6124ac9190613e47565b90505b600181111561254c577f3031323334353637383961626364656600000000000000000000000000000000600f8616601081106124ee576124ed613d7d565b5b1a60f81b82828151811061250557612504613d7d565b5b60200101907effffffffffffffffffffffffffffffffffffffffffffffffffffffffffffff1916908160001a905350600485901c945080612545906144c1565b90506124af565b5060008414612590576040517f08c379a000000000000000000000000000000000000000000000000000000000815260040161258790614536565b60405180910390fd5b8091505092915050565b600073ffffffffffffffffffffffffffffffffffffffff82169050919050565b6000819050919050565b60006125df6125da6125d58461259a565b6125ba565b61259a565b9050919050565b60006125f1826125c4565b9050919050565b6000612603826125e6565b9050919050565b612613816125f8565b82525050565b600060208201905061262e600083018461260a565b92915050565b6000604051905090565b600080fd5b600080fd5b60007fffffffff0000000000000000000000000000000000000000000000000000000082169050919050565b61267d81612648565b811461268857600080fd5b50565b60008135905061269a81612674565b92915050565b6000602082840312156126b6576126b561263e565b5b60006126c48482850161268b565b91505092915050565b60008115159050919050565b6126e2816126cd565b82525050565b60006020820190506126fd60008301846126d9565b92915050565b6000819050919050565b61271681612703565b811461272157600080fd5b50565b6000813590506127338161270d565b92915050565b60006020828403121561274f5761274e61263e565b5b600061275d84828501612724565b91505092915050565b61276f81612703565b82525050565b600060208201905061278a6000830184612766565b92915050565b600061279b8261259a565b9050919050565b6127ab81612790565b81146127b657600080fd5b50565b6000813590506127c8816127a2565b92915050565b600080604083850312156127e5576127e461263e565b5b60006127f385828601612724565b9250506020612804858286016127b9565b9150509250929050565b600061281982612790565b9050919050565b6128298161280e565b811461283457600080fd5b50565b60008135905061284681612820565b92915050565b6000602082840312156128625761286161263e565b5b600061287084828501612837565b91505092915050565b600063ffffffff82169050919050565b61289281612879565b811461289d57600080fd5b50565b6000813590506128af81612889565b92915050565b600080604083850312156128cc576128cb61263e565b5b60006128da858286016127b9565b92505060206128eb858286016128a0565b9150509250929050565b6000819050919050565b612908816128f5565b811461291357600080fd5b50565b600081359050612925816128ff565b92915050565b600080fd5b600080fd5b6000601f19601f8301169050919050565b7f4e487b7100000000000000000000000000000000000000000000000000000000600052604160045260246000fd5b61297e82612935565b810181811067ffffffffffffffff8211171561299d5761299c612946565b5b80604052505050565b60006129b0612634565b90506129bc8282612975565b919050565b600067ffffffffffffffff8211156129dc576129db612946565b5b6129e582612935565b9050602081019050919050565b82818337600083830152505050565b6000612a14612a0f846129c1565b6129a6565b905082815260208101848484011115612a3057612a2f612930565b5b612a3b8482856129f2565b509392505050565b600082601f830112612a5857612a5761292b565b5b8135612a68848260208601612a01565b91505092915050565b600080600080600080600080610100898b031215612a9257612a9161263e565b5b6000612aa08b828c01612724565b9850506020612ab18b828c016127b9565b9750506040612ac28b828c01612916565b9650506060612ad38b828c01612916565b9550506080612ae48b828c016127b9565b94505060a0612af58b828c01612916565b93505060c0612b068b828c01612724565b92505060e089013567ffffffffffffffff811115612b2757612b26612643565b5b612b338b828c01612a43565b9150509295985092959890939650565b600060ff82169050919050565b612b5981612b43565b8114612b6457600080fd5b50565b600081359050612b7681612b50565b92915050565b60008060008060008060c08789031215612b9957612b9861263e565b5b6000612ba789828a01612724565b965050602087013567ffffffffffffffff811115612bc857612bc7612643565b5b612bd489828a01612a43565b9550506040612be589828a01612724565b9450506060612bf689828a016127b9565b9350506080612c0789828a01612916565b92505060a0612c1889828a01612b67565b9150509295509295509295565b600067ffffffffffffffff821115612c4057612c3f612946565b5b602082029050602081019050919050565b600080fd5b600080fd5b600080fd5b600060a08284031215612c7657612c75612c56565b5b612c8060a06129a6565b90506000612c9084828501612724565b6000830152506020612ca4848285016127b9565b6020830152506040612cb884828501612916565b6040830152506060612ccc84828501612916565b6060830152506080612ce084828501612916565b60808301525092915050565b6000612cff612cfa84612c25565b6129a6565b90508083825260208201905060a08402830185811115612d2257612d21612c51565b5b835b81811015612d4b5780612d378882612c60565b84526020840193505060a081019050612d24565b5050509392505050565b600082601f830112612d6a57612d6961292b565b5b8135612d7a848260208601612cec565b91505092915050565b600080600060608486031215612d9c57612d9b61263e565b5b600084013567ffffffffffffffff811115612dba57612db9612643565b5b612dc686828701612d55565b9350506020612dd786828701612724565b925050604084013567ffffffffffffffff811115612df857612df7612643565b5b612e0486828701612a43565b9150509250925092565b600081519050919050565b600082825260208201905092915050565b6000819050602082019050919050565b612e4381612790565b82525050565b6000612e558383612e3a565b60208301905092915050565b6000602082019050919050565b6000612e7982612e0e565b612e838185612e19565b9350612e8e83612e2a565b8060005b83811015612ebf578151612ea68882612e49565b9750612eb183612e61565b925050600181019050612e92565b5085935050505092915050565b600081519050919050565b600082825260208201905092915050565b6000819050602082019050919050565b612f01816128f5565b82525050565b6000612f138383612ef8565b60208301905092915050565b6000602082019050919050565b6000612f3782612ecc565b612f418185612ed7565b9350612f4c83612ee8565b8060005b83811015612f7d578151612f648882612f07565b9750612f6f83612f1f565b925050600181019050612f50565b5085935050505092915050565b612f93816128f5565b82525050565b60006060820190508181036000830152612fb38186612e6e565b90508181036020830152612fc78185612f2c565b9050612fd66040830184612f8a565b949350505050565b600060208284031215612ff457612ff361263e565b5b6000613002848285016127b9565b91505092915050565b600080600080600080600080610100898b03121561302c5761302b61263e565b5b600061303a8b828c01612724565b985050602061304b8b828c01612916565b975050604061305c8b828c01612916565b965050606061306d8b828c016127b9565b955050608061307e8b828c01612916565b94505060a061308f8b828c016127b9565b93505060c06130a08b828c01612724565b92505060e089013567ffffffffffffffff8111156130c1576130c0612643565b5b6130cd8b828c01612a43565b9150509295985092959890939650565b600080fd5b60008083601f8401126130f8576130f761292b565b5b8235905067ffffffffffffffff811115613115576131146130dd565b5b60208301915083600182028301111561313157613130612c51565b5b9250929050565b60008060008060008060a087890312156131555761315461263e565b5b600087013567ffffffffffffffff81111561317357613172612643565b5b61317f89828a016130e2565b9650965050602061319289828a01612724565b94505060406131a389828a016127b9565b93505060606131b489828a01612916565b92505060806131c589828a01612b67565b9150509295509295509295565b6131db816126cd565b81146131e657600080fd5b50565b6000813590506131f8816131d2565b92915050565b6000602082840312156132145761321361263e565b5b6000613222848285016131e9565b91505092915050565b60008060008060008060c087890312156132485761324761263e565b5b600061325689828a01612724565b965050602061326789828a01612916565b955050604061327889828a01612916565b945050606061328989828a016127b9565b935050608061329a89828a01612916565b92505060a06132ab89828a016127b9565b9150509295509295509295565b60008060008060008060c087890312156132d5576132d461263e565b5b60006132e389828a01612724565b96505060206132f489828a016127b9565b955050604061330589828a01612916565b945050606061331689828a01612916565b935050608061332789828a016127b9565b92505060a061333889828a01612916565b9150509295509295509295565b6000613350826125e6565b9050919050565b61336081613345565b82525050565b600060208201905061337b6000830184613357565b92915050565b600082825260208201905092915050565b7f4f6e6c79206f776e65722063616e2063616c6c20746869732066756e6374696f60008201527f6e00000000000000000000000000000000000000000000000000000000000000602082015250565b60006133ee602183613381565b91506133f982613392565b604082019050919050565b6000602082019050818103600083015261341d816133e1565b9050919050565b7f416363657373436f6e74726f6c3a2063616e206f6e6c792072656e6f756e636560008201527f20726f6c657320666f722073656c660000000000000000000000000000000000602082015250565b6000613480602f83613381565b915061348b82613424565b604082019050919050565b600060208201905081810360008301526134af81613473565b9050919050565b6134bf81612790565b82525050565b6134ce81612879565b82525050565b60006040820190506134e960008301856134b6565b6134f660208301846134c5565b9392505050565b60006040820190506135126000830185612766565b61351f6020830184612766565b9392505050565b6000815190506135358161270d565b92915050565b6000602082840312156135515761355061263e565b5b600061355f84828501613526565b91505092915050565b600081519050613577816131d2565b92915050565b6000602082840312156135935761359261263e565b5b60006135a184828501613568565b91505092915050565b7f4261746368207061796c6f61642068617368206e6f7420636f6d6d6974746564600082015250565b60006135e0602083613381565b91506135eb826135aa565b602082019050919050565b6000602082019050818103600083015261360f816135d3565b9050919050565b7f4261746368207061796c6f616420697320656d70747900000000000000000000600082015250565b600061364c601683613381565b915061365782613616565b602082019050919050565b6000602082019050818103600083015261367b8161363f565b9050919050565b7f4261746368207061796c6f6164206861736820646f6573206e6f74206d61746360008201527f6800000000000000000000000000000000000000000000000000000000000000602082015250565b60006136de602183613381565b91506136e982613682565b604082019050919050565b6000602082019050818103600083015261370d816136d1565b9050919050565b7f457363726f77474d50206e6f7420736574000000000000000000000000000000600082015250565b600061374a601183613381565b915061375582613714565b602082019050919050565b600060208201905081810360008301526137798161373d565b9050919050565b600067ffffffffffffffff82111561379b5761379a612946565b5b602082029050602081019050919050565b6000815190506137bb816127a2565b92915050565b60006137d46137cf84613780565b6129a6565b905080838252602082019050602084028301858111156137f7576137f6612c51565b5b835b81811015613820578061380c88826137ac565b8452602084019350506020810190506137f9565b5050509392505050565b600082601f83011261383f5761383e61292b565b5b815161384f8482602086016137c1565b91505092915050565b60005b8381101561387657808201518184015260208101905061385b565b60008484015250505050565b6000613895613890846129c1565b6129a6565b9050828152602081018484840111156138b1576138b0612930565b5b6138bc848285613858565b509392505050565b600082601f8301126138d9576138d861292b565b5b81516138e9848260208601613882565b91505092915050565b60008151905061390181612889565b92915050565b600060e0828403121561391d5761391c612c56565b5b61392760e06129a6565b9050600061393784828501613568565b600083015250602061394b84828501613526565b602083015250604061395f84828501613526565b604083015250606082015167ffffffffffffffff81111561398357613982612c5b565b5b61398f8482850161382a565b606083015250608082015167ffffffffffffffff8111156139b3576139b2612c5b565b5b6139bf8482850161382a565b60808301525060a082015167ffffffffffffffff8111156139e3576139e2612c5b565b5b6139ef848285016138c4565b60a08301525060c0613a03848285016138f2565b60c08301525092915050565b600060208284031215613a2557613a2461263e565b5b600082015167ffffffffffffffff811115613a4357613a42612643565b5b613a4f84828501613907565b91505092915050565b613a61816126cd565b82525050565b613a7081612703565b82525050565b600082825260208201905092915050565b6000613a9282612e0e565b613a9c8185613a76565b9350613aa783612e2a565b8060005b83811015613ad8578151613abf8882612e49565b9750613aca83612e61565b925050600181019050613aab565b5085935050505092915050565b600081519050919050565b600082825260208201905092915050565b6000613b0c82613ae5565b613b168185613af0565b9350613b26818560208601613858565b613b2f81612935565b840191505092915050565b613b4381612879565b82525050565b600060e083016000830151613b616000860182613a58565b506020830151613b746020860182613a67565b506040830151613b876040860182613a67565b5060608301518482036060860152613b9f8282613a87565b91505060808301518482036080860152613bb98282613a87565b91505060a083015184820360a0860152613bd38282613b01565b91505060c0830151613be860c0860182613b3a565b508091505092915050565b60006020820190508181036000830152613c0d8184613b49565b905092915050565b600060208284031215613c2b57613c2a61263e565b5b600082015167ffffffffffffffff811115613c4957613c48612643565b5b613c55848285016138c4565b91505092915050565b7f4261746368207061796c6f6164206e6f7420636f6d6d69747465640000000000600082015250565b6000613c94601b83613381565b9150613c9f82613c5e565b602082019050919050565b60006020820190508181036000830152613cc381613c87565b9050919050565b600082825260208201905092915050565b6000613ce682613ae5565b613cf08185613cca565b9350613d00818560208601613858565b613d0981612935565b840191505092915050565b613d1d81612b43565b82525050565b600060a0820190508181036000830152613d3d8188613cdb565b9050613d4c6020830187612766565b613d5960408301866134b6565b613d666060830185612f8a565b613d736080830184613d14565b9695505050505050565b7f4e487b7100000000000000000000000000000000000000000000000000000000600052603260045260246000fd5b7f524f233135000000000000000000000000000000000000000000000000000000600082015250565b6000613de2600583613381565b9150613ded82613dac565b602082019050919050565b60006020820190508181036000830152613e1181613dd5565b9050919050565b7f4e487b7100000000000000000000000000000000000000000000000000000000600052601160045260246000fd5b6000613e52826128f5565b9150613e5d836128f5565b9250828201905080821115613e7557613e74613e18565b5b92915050565b6000613e86826128f5565b91507fffffffffffffffffffffffffffffffffffffffffffffffffffffffffffffffff8203613eb857613eb7613e18565b5b600182019050919050565b7f496e697469616c697a61626c653a20636f6e747261637420697320616c72656160008201527f647920696e697469616c697a6564000000000000000000000000000000000000602082015250565b6000613f1f602e83613381565b9150613f2a82613ec3565b604082019050919050565b60006020820190508181036000830152613f4e81613f12565b9050919050565b7f4f776e65722063616e6e6f74206265207a65726f206164647265737300000000600082015250565b6000613f8b601c83613381565b9150613f9682613f55565b602082019050919050565b60006020820190508181036000830152613fba81613f7e565b9050919050565b6000819050919050565b6000613fe6613fe1613fdc84613fc1565b6125ba565b612b43565b9050919050565b613ff681613fcb565b82525050565b60006020820190506140116000830184613fed565b92915050565b600080fd5b600080fd5b6000808585111561403557614034614017565b5b838611156140465761404561401c565b5b6001850283019150848603905094509492505050565b600082905092915050565b600082821b905092915050565b6000614080838361405c565b8261408b8135612703565b925060208210156140cb576140c67fffffffffffffffffffffffffffffffffffffffffffffffffffffffffffffffff83602003600802614067565b831692505b505092915050565b60007fffffffffffffffffffffffffffffffffffffffff00000000000000000000000082169050919050565b600061410b838361405c565b8261411681356140d3565b92506014821015614156576141517fffffffffffffffffffffffffffffffffffffffff00000000000000000000000083601403600802614067565b831692505b505092915050565b600060608201905061417360008301866134b6565b6141806020830185612f8a565b61418d6040830184612f8a565b949350505050565b60006060820190506141aa60008301866134b6565b6141b76020830185612f8a565b6141c460408301846134b6565b949350505050565b7f496e697469616c697a61626c653a20636f6e747261637420697320696e69746960008201527f616c697a696e6700000000000000000000000000000000000000000000000000602082015250565b6000614228602783613381565b9150614233826141cc565b604082019050919050565b600060208201905081810360008301526142578161421b565b9050919050565b60006020820190506142736000830184613d14565b92915050565b7f496e697469616c697a61626c653a20636f6e7472616374206973206e6f74206960008201527f6e697469616c697a696e67000000000000000000000000000000000000000000602082015250565b60006142d5602b83613381565b91506142e082614279565b604082019050919050565b60006020820190508181036000830152614304816142c8565b9050919050565b600081905092915050565b7f416363657373436f6e74726f6c3a206163636f756e7420000000000000000000600082015250565b600061434c60178361430b565b915061435782614316565b601782019050919050565b600081519050919050565b600061437882614362565b614382818561430b565b9350614392818560208601613858565b80840191505092915050565b7f206973206d697373696e6720726f6c6520000000000000000000000000000000600082015250565b60006143d460118361430b565b91506143df8261439e565b601182019050919050565b60006143f58261433f565b9150614401828561436d565b915061440c826143c7565b9150614418828461436d565b91508190509392505050565b600061442f82614362565b6144398185613381565b9350614449818560208601613858565b61445281612935565b840191505092915050565b600060208201905081810360008301526144778184614424565b905092915050565b600061448a826128f5565b9150614495836128f5565b92508282026144a3816128f5565b915082820484148315176144ba576144b9613e18565b5b5092915050565b60006144cc826128f5565b9150600082036144df576144de613e18565b5b600182039050919050565b7f537472696e67733a20686578206c656e67746820696e73756666696369656e74600082015250565b6000614520602083613381565b915061452b826144ea565b602082019050919050565b6000602082019050818103600083015261454f81614513565b905091905056fea26469706673582212209e8659db91b0b890a0402903f060da632cf8d88859ae821547557dccdca2697564736f6c63430008180033",
  "linkReferences": {},
  "deployedLinkReferences": {}
}