{
  "_format": "hh-sol-artifact-1",
  "contractName": "AttestationDLQ",
  "sourceName": "contracts/attestationsDLQ.sol",
  "abi": [
    {
      "anonymous": false,
      "inputs": [
        {
          "indexed": false,
          "internalType": "uint8",
          "name": "version",
          "type": "uint8"
        }
      ],
      "name": "Initialized",
      "type": "event"
    },
    {
      "anonymous": false,
      "inputs": [
        {
          "indexed": true,
          "internalType": "bytes32",
          "name": "role",
          "type": "bytes32"
        },
        {
          "indexed": true,
          "internalType": "bytes32",
          "name": "previousAdminRole",
          "type": "bytes32"
        },
        {
          "indexed": true,
          "internalType": "bytes32",
          "name": "newAdminRole",
          "type": "bytes32"
        }
      ],
      "name": "RoleAdminChanged",
      "type": "event"
    },
    {
      "anonymous": false,
      "inputs": [
        {
          "indexed": true,
          "internalType": "bytes32",
          "name": "role",
          "type": "bytes32"
        },
        {
          "indexed": true,
          "internalType": "address",
          "name": "account",
          "type": "address"
        },
        {
          "indexed": true,
          "internalType": "address",
          "name": "sender",
          "type": "address"
        }
      ],
      "name": "RoleGranted",
      "type": "event"
    },
    {
      "anonymous": false,
      "inputs": [
        {
          "indexed": true,
          "internalType": "bytes32",
          "name": "role",
          "type": "bytes32"
        },
        {
          "indexed": true,
          "internalType": "address",
          "name": "account",
          "type": "address"
        },
        {
          "indexed": true,
          "internalType": "address",
          "name": "sender",
          "type": "address"
        }
      ],
      "name": "RoleRevoked",
      "type": "event"
    },
    {
      "inputs": [],
      "name": "DEFAULT_ADMIN_ROLE",
      "outputs": [
        {
          "internalType": "bytes32",
          "name": "",
          "type": "bytes32"
        }
      ],
      "stateMutability": "view",
      "type": "function"
    },
    {
      "inputs": [
        {
          "internalType": "bytes32",
          "name": "",
          "type": "bytes32"
        }
      ],
      "name": "LinkedListDLQ",
      "outputs": [
        {
          "internalType": "bytes32",
          "name": "prev",
          "type": "bytes32"
        },
        {
          "internalType": "bytes32",
          "name": "next",
          "type": "bytes32"
        }
      ],
      "stateMutability": "view",
      "type": "function"
    },
    {
      "inputs": [
        {
          "internalType": "bytes32",
          "name": "_id",
          "type": "bytes32"
        }
      ],
      "name": "addDLQ",
      "outputs": [],
      "stateMutability": "nonpayable",
      "type": "function"
    },
    {
      "inputs": [],
      "name": "attestersPortal",
      "outputs": [
        {
          "internalType": "contract AttestersPortal",
          "name": "",
          "type": "address"
        }
      ],
      "stateMutability": "view",
      "type": "function"
    },
    {
      "inputs": [],
      "name": "disableInitializer",
      "outputs": [],
      "stateMutability": "nonpayable",
      "type": "function"
    },
    {
      "inputs": [],
      "name": "getNewest",
      "outputs": [
        {
          "internalType": "bytes32",
          "name": "",
          "type": "bytes32"
        }
      ],
      "stateMutability": "view",
      "type": "function"
    },
    {
      "inputs": [],
      "name": "getOldest",
      "outputs": [
        {
          "internalType": "bytes32",
          "name": "",
          "type": "bytes32"
        }
      ],
      "stateMutability": "view",
      "type": "function"
    },
    {
      "inputs": [
        {
          "internalType": "bytes32",
          "name": "role",
          "type": "bytes32"
        }
      ],
      "name": "getRoleAdmin",
      "outputs": [
        {
          "internalType": "bytes32",
          "name": "",
          "type": "bytes32"
        }
      ],
      "stateMutability": "view",
      "type": "function"
    },
    {
      "inputs": [
        {
          "internalType": "bytes32",
          "name": "role",
          "type": "bytes32"
        },
        {
          "internalType": "address",
          "name": "account",
          "type": "address"
        }
      ],
      "name": "grantRole",
      "outputs": [],
      "stateMutability": "nonpayable",
      "type": "function"
    },
    {
      "inputs": [
        {
          "internalType": "bytes32",
          "name": "role",
          "type": "bytes32"
        },
        {
          "internalType": "address",
          "name": "account",
          "type": "address"
        }
      ],
      "name": "hasRole",
      "outputs": [
        {
          "internalType": "bool",
          "name": "",
          "type": "bool"
        }
      ],
      "stateMutability": "view",
      "type": "function"
    },
    {
      "inputs": [
        {
          "internalType": "address",
          "name": "_owner",
          "type": "address"
        }
      ],
      "name": "initialize",
      "outputs": [],
      "stateMutability": "nonpayable",
      "type": "function"
    },
    {
      "inputs": [],
      "name": "newest",
      "outputs": [
        {
          "internalType": "bytes32",
          "name": "",
          "type": "bytes32"
        }
      ],
      "stateMutability": "view",
      "type": "function"
    },
    {
      "inputs": [],
      "name": "oldest",
      "outputs": [
        {
          "internalType": "bytes32",
          "name": "",
          "type": "bytes32"
        }
      ],
      "stateMutability": "view",
      "type": "function"
    },
    {
      "inputs": [
        {
          "internalType": "bytes32",
          "name": "_id",
          "type": "bytes32"
        }
      ],
      "name": "removeItem",
      "outputs": [],
      "stateMutability": "nonpayable",
      "type": "function"
    },
    {
      "inputs": [
        {
          "internalType": "bytes32",
          "name": "role",
          "type": "bytes32"
        },
        {
          "internalType": "address",
          "name": "account",
          "type": "address"
        }
      ],
      "name": "renounceRole",
      "outputs": [],
      "stateMutability": "nonpayable",
      "type": "function"
    },
    {
      "inputs": [
        {
          "internalType": "bytes32",
          "name": "role",
          "type": "bytes32"
        },
        {
          "internalType": "address",
          "name": "account",
          "type": "address"
        }
      ],
      "name": "revokeRole",
      "outputs": [],
      "stateMutability": "nonpayable",
      "type": "function"
    },
    {
      "inputs": [
        {
          "internalType": "address payable",
          "name": "_attestersPortal",
          "type": "address"
        }
      ],
      "name": "setAttestersPortal",
      "outputs": [],
      "stateMutability": "nonpayable",
      "type": "function"
    },
    {
      "inputs": [
        {
          "internalType": "string",
          "name": "_version",
          "type": "string"
        }
      ],
      "name": "setVersion",
      "outputs": [],
      "stateMutability": "nonpayable",
      "type": "function"
    },
    {
      "inputs": [
        {
          "internalType": "bytes4",
          "name": "interfaceId",
          "type": "bytes4"
        }
      ],
      "name": "supportsInterface",
      "outputs": [
        {
          "internalType": "bool",
          "name": "",
          "type": "bool"
        }
      ],
      "stateMutability": "view",
      "type": "function"
    },
    {
      "inputs": [],
      "name": "version",
      "outputs": [
        {
          "internalType": "string",
          "name": "",
          "type": "string"
        }
      ],
      "stateMutability": "view",
      "type": "function"
    }
  ],
  "bytecode": "0x608060405234801561001057600080fd5b5061248c806100206000396000f3fe608060405234801561001057600080fd5b506004361061012c5760003560e01c80637d02bc1c116100ad578063c4d66de811610071578063c4d66de814610334578063d03685cb14610350578063d547741f1461036c578063e0ada37414610388578063e31657c3146103a45761012c565b80637d02bc1c146102795780638bdbdac11461029757806391d14854146102b557806397b6c16d146102e5578063a217fddf146103165761012c565b806336568abe116100f457806336568abe146101e75780633aac5d3d146102035780633c3c22b31461022157806354fd4d501461023f578063788bc78c1461025d5761012c565b806301ffc9a7146101315780631803704514610161578063228473c11461017d578063248a9ca31461019b5780632f2ff15d146101cb575b600080fd5b61014b60048036038101906101469190611448565b6103ae565b6040516101589190611490565b60405180910390f35b61017b600480360381019061017691906114e1565b610428565b005b61018561068d565b604051610192919061151d565b60405180910390f35b6101b560048036038101906101b091906114e1565b610697565b6040516101c2919061151d565b60405180910390f35b6101e560048036038101906101e09190611596565b6106b7565b005b61020160048036038101906101fc9190611596565b6106d8565b005b61020b61075b565b6040516102189190611635565b60405180910390f35b610229610781565b604051610236919061151d565b60405180910390f35b610247610787565b60405161025491906116e0565b60405180910390f35b61027760048036038101906102729190611837565b610815565b005b610281610874565b60405161028e919061151d565b60405180910390f35b61029f61087e565b6040516102ac919061151d565b60405180910390f35b6102cf60048036038101906102ca9190611596565b610884565b6040516102dc9190611490565b60405180910390f35b6102ff60048036038101906102fa91906114e1565b6108ef565b60405161030d929190611880565b60405180910390f35b61031e610913565b60405161032b919061151d565b60405180910390f35b61034e600480360381019061034991906118a9565b61091a565b005b61036a60048036038101906103659190611914565b610a66565b005b61038660048036038101906103819190611596565b610af6565b005b6103a2600480360381019061039d91906114e1565b610b17565b005b6103ac610d1b565b005b60007f7965db0b000000000000000000000000000000000000000000000000000000007bffffffffffffffffffffffffffffffffffffffffffffffffffffffff1916827bffffffffffffffffffffffffffffffffffffffffffffffffffffffff19161480610421575061042082610d71565b5b9050919050565b609760009054906101000a900473ffffffffffffffffffffffffffffffffffffffff1673ffffffffffffffffffffffffffffffffffffffff1663ee06b289336040518263ffffffff1660e01b81526004016104839190611950565b602060405180830381865afa1580156104a0573d6000803e3d6000fd5b505050506040513d601f19601f820116820180604052508101906104c49190611997565b610503576040517f08c379a00000000000000000000000000000000000000000000000000000000081526004016104fa90611a36565b60405180910390fd5b6000801b8103610548576040517f08c379a000000000000000000000000000000000000000000000000000000000815260040161053f90611aa2565b60405180910390fd5b6000801b609860008381526020019081526020016000206000015414158061058957506000801b609860008381526020019081526020016000206001015414155b6105c8576040517f08c379a00000000000000000000000000000000000000000000000000000000081526004016105bf90611b0e565b60405180910390fd5b6000609860008381526020019081526020016000206000015490506000609860008481526020019081526020016000206001015490506000801b821461062857806098600084815260200190815260200160002060010181905550610630565b80609a819055505b6000801b811461065a57816098600083815260200190815260200160002060000181905550610662565b816099819055505b6098600084815260200190815260200160002060008082016000905560018201600090555050505050565b6000609954905090565b600060656000838152602001908152602001600020600101549050919050565b6106c082610697565b6106c981610ddb565b6106d38383610def565b505050565b6106e0610ed0565b73ffffffffffffffffffffffffffffffffffffffff168173ffffffffffffffffffffffffffffffffffffffff161461074d576040517f08c379a000000000000000000000000000000000000000000000000000000000815260040161074490611ba0565b60405180910390fd5b6107578282610ed8565b5050565b609760009054906101000a900473ffffffffffffffffffffffffffffffffffffffff1681565b609a5481565b609b805461079490611bef565b80601f01602080910402602001604051908101604052809291908181526020018280546107c090611bef565b801561080d5780601f106107e25761010080835404028352916020019161080d565b820191906000526020600020905b8154815290600101906020018083116107f057829003601f168201915b505050505081565b6108226000801b33610884565b610861576040517f08c379a000000000000000000000000000000000000000000000000000000000815260040161085890611c92565b60405180910390fd5b80609b90816108709190611e5e565b5050565b6000609a54905090565b60995481565b60006065600084815260200190815260200160002060000160008373ffffffffffffffffffffffffffffffffffffffff1673ffffffffffffffffffffffffffffffffffffffff16815260200190815260200160002060009054906101000a900460ff16905092915050565b60986020528060005260406000206000915090508060000154908060010154905082565b6000801b81565b60008060019054906101000a900460ff1615905080801561094b5750600160008054906101000a900460ff1660ff16105b80610978575061095a30610fba565b1580156109775750600160008054906101000a900460ff1660ff16145b5b6109b7576040517f08c379a00000000000000000000000000000000000000000000000000000000081526004016109ae90611fa2565b60405180910390fd5b60016000806101000a81548160ff021916908360ff16021790555080156109f4576001600060016101000a81548160ff0219169083151502179055505b6109fc610fdd565b610a096000801b83610def565b8015610a625760008060016101000a81548160ff0219169083151502179055507f7f26b83ff96e1f2b6a682f133852f6798a09c465da95921460cefb38474024986001604051610a59919061200a565b60405180910390a15b5050565b610a736000801b33610884565b610ab2576040517f08c379a0000000000000000000000000000000000000000000000000000000008152600401610aa990611c92565b60405180910390fd5b80609760006101000a81548173ffffffffffffffffffffffffffffffffffffffff021916908373ffffffffffffffffffffffffffffffffffffffff16021790555050565b610aff82610697565b610b0881610ddb565b610b128383610ed8565b505050565b609760009054906101000a900473ffffffffffffffffffffffffffffffffffffffff1673ffffffffffffffffffffffffffffffffffffffff1663ee06b289336040518263ffffffff1660e01b8152600401610b729190611950565b602060405180830381865afa158015610b8f573d6000803e3d6000fd5b505050506040513d601f19601f82011682018060405250810190610bb39190611997565b610bf2576040517f08c379a0000000000000000000000000000000000000000000000000000000008152600401610be990611a36565b60405180910390fd5b6000801b8103610c37576040517f08c379a0000000000000000000000000000000000000000000000000000000008152600401610c2e90611aa2565b60405180910390fd5b6000801b6098600083815260200190815260200160002060000154148015610c7757506000801b6098600083815260200190815260200160002060010154145b610cb6576040517f08c379a0000000000000000000000000000000000000000000000000000000008152600401610cad90612071565b60405180910390fd5b60995460986000838152602001908152602001600020600001819055506000801b60995414610cfd5780609860006099548152602001908152602001600020600101819055505b806099819055506000801b609a5403610d185780609a819055505b50565b610d286000801b33610884565b610d67576040517f08c379a0000000000000000000000000000000000000000000000000000000008152600401610d5e90611c92565b60405180910390fd5b610d6f61102e565b565b60007f01ffc9a7000000000000000000000000000000000000000000000000000000007bffffffffffffffffffffffffffffffffffffffffffffffffffffffff1916827bffffffffffffffffffffffffffffffffffffffffffffffffffffffff1916149050919050565b610dec81610de7610ed0565b6110ee565b50565b610df98282610884565b610ecc5760016065600084815260200190815260200160002060000160008373ffffffffffffffffffffffffffffffffffffffff1673ffffffffffffffffffffffffffffffffffffffff16815260200190815260200160002060006101000a81548160ff021916908315150217905550610e71610ed0565b73ffffffffffffffffffffffffffffffffffffffff168173ffffffffffffffffffffffffffffffffffffffff16837f2f8788117e7eff1d82e926ec794901d17c78024a50270940304540a733656f0d60405160405180910390a45b5050565b600033905090565b610ee28282610884565b15610fb65760006065600084815260200190815260200160002060000160008373ffffffffffffffffffffffffffffffffffffffff1673ffffffffffffffffffffffffffffffffffffffff16815260200190815260200160002060006101000a81548160ff021916908315150217905550610f5b610ed0565b73ffffffffffffffffffffffffffffffffffffffff168173ffffffffffffffffffffffffffffffffffffffff16837ff6391f5c32d9c69d2a47ea670b442974b53935d1edc7fd64eb21e047a839171b60405160405180910390a45b5050565b6000808273ffffffffffffffffffffffffffffffffffffffff163b119050919050565b600060019054906101000a900460ff1661102c576040517f08c379a000000000000000000000000000000000000000000000000000000000815260040161102390612103565b60405180910390fd5b565b600060019054906101000a900460ff161561107e576040517f08c379a000000000000000000000000000000000000000000000000000000000815260040161107590612195565b60405180910390fd5b60ff801660008054906101000a900460ff1660ff16146110ec5760ff6000806101000a81548160ff021916908360ff1602179055507f7f26b83ff96e1f2b6a682f133852f6798a09c465da95921460cefb384740249860ff6040516110e391906121c4565b60405180910390a15b565b6110f88282610884565b61116f5761110581611173565b6111138360001c60206111a0565b6040516020016111249291906122b3565b6040516020818303038152906040526040517f08c379a000000000000000000000000000000000000000000000000000000000815260040161116691906116e0565b60405180910390fd5b5050565b60606111998273ffffffffffffffffffffffffffffffffffffffff16601460ff166111a0565b9050919050565b6060600060028360026111b3919061231c565b6111bd919061235e565b67ffffffffffffffff8111156111d6576111d561170c565b5b6040519080825280601f01601f1916602001820160405280156112085781602001600182028036833780820191505090505b5090507f3000000000000000000000000000000000000000000000000000000000000000816000815181106112405761123f612392565b5b60200101907effffffffffffffffffffffffffffffffffffffffffffffffffffffffffffff1916908160001a9053507f7800000000000000000000000000000000000000000000000000000000000000816001815181106112a4576112a3612392565b5b60200101907effffffffffffffffffffffffffffffffffffffffffffffffffffffffffffff1916908160001a905350600060018460026112e4919061231c565b6112ee919061235e565b90505b600181111561138e577f3031323334353637383961626364656600000000000000000000000000000000600f8616601081106113305761132f612392565b5b1a60f81b82828151811061134757611346612392565b5b60200101907effffffffffffffffffffffffffffffffffffffffffffffffffffffffffffff1916908160001a905350600485901c945080611387906123c1565b90506112f1565b50600084146113d2576040517f08c379a00000000000000000000000000000000000000000000000000000000081526004016113c990612436565b60405180910390fd5b8091505092915050565b6000604051905090565b600080fd5b600080fd5b60007fffffffff0000000000000000000000000000000000000000000000000000000082169050919050565b611425816113f0565b811461143057600080fd5b50565b6000813590506114428161141c565b92915050565b60006020828403121561145e5761145d6113e6565b5b600061146c84828501611433565b91505092915050565b60008115159050919050565b61148a81611475565b82525050565b60006020820190506114a56000830184611481565b92915050565b6000819050919050565b6114be816114ab565b81146114c957600080fd5b50565b6000813590506114db816114b5565b92915050565b6000602082840312156114f7576114f66113e6565b5b6000611505848285016114cc565b91505092915050565b611517816114ab565b82525050565b6000602082019050611532600083018461150e565b92915050565b600073ffffffffffffffffffffffffffffffffffffffff82169050919050565b600061156382611538565b9050919050565b61157381611558565b811461157e57600080fd5b50565b6000813590506115908161156a565b92915050565b600080604083850312156115ad576115ac6113e6565b5b60006115bb858286016114cc565b92505060206115cc85828601611581565b9150509250929050565b6000819050919050565b60006115fb6115f66115f184611538565b6115d6565b611538565b9050919050565b600061160d826115e0565b9050919050565b600061161f82611602565b9050919050565b61162f81611614565b82525050565b600060208201905061164a6000830184611626565b92915050565b600081519050919050565b600082825260208201905092915050565b60005b8381101561168a57808201518184015260208101905061166f565b60008484015250505050565b6000601f19601f8301169050919050565b60006116b282611650565b6116bc818561165b565b93506116cc81856020860161166c565b6116d581611696565b840191505092915050565b600060208201905081810360008301526116fa81846116a7565b905092915050565b600080fd5b600080fd5b7f4e487b7100000000000000000000000000000000000000000000000000000000600052604160045260246000fd5b61174482611696565b810181811067ffffffffffffffff821117156117635761176261170c565b5b80604052505050565b60006117766113dc565b9050611782828261173b565b919050565b600067ffffffffffffffff8211156117a2576117a161170c565b5b6117ab82611696565b9050602081019050919050565b82818337600083830152505050565b60006117da6117d584611787565b61176c565b9050828152602081018484840111156117f6576117f5611707565b5b6118018482856117b8565b509392505050565b600082601f83011261181e5761181d611702565b5b813561182e8482602086016117c7565b91505092915050565b60006020828403121561184d5761184c6113e6565b5b600082013567ffffffffffffffff81111561186b5761186a6113eb565b5b61187784828501611809565b91505092915050565b6000604082019050611895600083018561150e565b6118a2602083018461150e565b9392505050565b6000602082840312156118bf576118be6113e6565b5b60006118cd84828501611581565b91505092915050565b60006118e182611538565b9050919050565b6118f1816118d6565b81146118fc57600080fd5b50565b60008135905061190e816118e8565b92915050565b60006020828403121561192a576119296113e6565b5b6000611938848285016118ff565b91505092915050565b61194a81611558565b82525050565b60006020820190506119656000830184611941565b92915050565b61197481611475565b811461197f57600080fd5b50565b6000815190506119918161196b565b92915050565b6000602082840312156119ad576119ac6113e6565b5b60006119bb84828501611982565b91505092915050565b7f4f6e6c792063757272656e7420636f6d6d6974746565206d656d62657220636160008201527f6e2063616c6c20746869732066756e6374696f6e000000000000000000000000602082015250565b6000611a2060348361165b565b9150611a2b826119c4565b604082019050919050565b60006020820190508181036000830152611a4f81611a13565b9050919050565b7f496e76616c696420494400000000000000000000000000000000000000000000600082015250565b6000611a8c600a8361165b565b9150611a9782611a56565b602082019050919050565b60006020820190508181036000830152611abb81611a7f565b9050919050565b7f4944206e6f7420666f756e640000000000000000000000000000000000000000600082015250565b6000611af8600c8361165b565b9150611b0382611ac2565b602082019050919050565b60006020820190508181036000830152611b2781611aeb565b9050919050565b7f416363657373436f6e74726f6c3a2063616e206f6e6c792072656e6f756e636560008201527f20726f6c657320666f722073656c660000000000000000000000000000000000602082015250565b6000611b8a602f8361165b565b9150611b9582611b2e565b604082019050919050565b60006020820190508181036000830152611bb981611b7d565b9050919050565b7f4e487b7100000000000000000000000000000000000000000000000000000000600052602260045260246000fd5b60006002820490506001821680611c0757607f821691505b602082108103611c1a57611c19611bc0565b5b50919050565b7f4f6e6c79206f776e65722063616e2063616c6c20746869732066756e6374696f60008201527f6e00000000000000000000000000000000000000000000000000000000000000602082015250565b6000611c7c60218361165b565b9150611c8782611c20565b604082019050919050565b60006020820190508181036000830152611cab81611c6f565b9050919050565b60008190508160005260206000209050919050565b60006020601f8301049050919050565b600082821b905092915050565b600060088302611d147fffffffffffffffffffffffffffffffffffffffffffffffffffffffffffffffff82611cd7565b611d1e8683611cd7565b95508019841693508086168417925050509392505050565b6000819050919050565b6000611d5b611d56611d5184611d36565b6115d6565b611d36565b9050919050565b6000819050919050565b611d7583611d40565b611d89611d8182611d62565b848454611ce4565b825550505050565b600090565b611d9e611d91565b611da9818484611d6c565b505050565b5b81811015611dcd57611dc2600082611d96565b600181019050611daf565b5050565b601f821115611e1257611de381611cb2565b611dec84611cc7565b81016020851015611dfb578190505b611e0f611e0785611cc7565b830182611dae565b50505b505050565b600082821c905092915050565b6000611e3560001984600802611e17565b1980831691505092915050565b6000611e4e8383611e24565b9150826002028217905092915050565b611e6782611650565b67ffffffffffffffff811115611e8057611e7f61170c565b5b611e8a8254611bef565b611e95828285611dd1565b600060209050601f831160018114611ec85760008415611eb6578287015190505b611ec08582611e42565b865550611f28565b601f198416611ed686611cb2565b60005b82811015611efe57848901518255600182019150602085019450602081019050611ed9565b86831015611f1b5784890151611f17601f891682611e24565b8355505b6001600288020188555050505b505050505050565b7f496e697469616c697a61626c653a20636f6e747261637420697320616c72656160008201527f647920696e697469616c697a6564000000000000000000000000000000000000602082015250565b6000611f8c602e8361165b565b9150611f9782611f30565b604082019050919050565b60006020820190508181036000830152611fbb81611f7f565b9050919050565b6000819050919050565b600060ff82169050919050565b6000611ff4611fef611fea84611fc2565b6115d6565b611fcc565b9050919050565b61200481611fd9565b82525050565b600060208201905061201f6000830184611ffb565b92915050565b7f494420616c726561647920657869737473000000000000000000000000000000600082015250565b600061205b60118361165b565b915061206682612025565b602082019050919050565b6000602082019050818103600083015261208a8161204e565b9050919050565b7f496e697469616c697a61626c653a20636f6e7472616374206973206e6f74206960008201527f6e697469616c697a696e67000000000000000000000000000000000000000000602082015250565b60006120ed602b8361165b565b91506120f882612091565b604082019050919050565b6000602082019050818103600083015261211c816120e0565b9050919050565b7f496e697469616c697a61626c653a20636f6e747261637420697320696e69746960008201527f616c697a696e6700000000000000000000000000000000000000000000000000602082015250565b600061217f60278361165b565b915061218a82612123565b604082019050919050565b600060208201905081810360008301526121ae81612172565b9050919050565b6121be81611fcc565b82525050565b60006020820190506121d960008301846121b5565b92915050565b600081905092915050565b7f416363657373436f6e74726f6c3a206163636f756e7420000000000000000000600082015250565b60006122206017836121df565b915061222b826121ea565b601782019050919050565b600061224182611650565b61224b81856121df565b935061225b81856020860161166c565b80840191505092915050565b7f206973206d697373696e6720726f6c6520000000000000000000000000000000600082015250565b600061229d6011836121df565b91506122a882612267565b601182019050919050565b60006122be82612213565b91506122ca8285612236565b91506122d582612290565b91506122e18284612236565b91508190509392505050565b7f4e487b7100000000000000000000000000000000000000000000000000000000600052601160045260246000fd5b600061232782611d36565b915061233283611d36565b925082820261234081611d36565b91508282048414831517612357576123566122ed565b5b5092915050565b600061236982611d36565b915061237483611d36565b925082820190508082111561238c5761238b6122ed565b5b92915050565b7f4e487b7100000000000000000000000000000000000000000000000000000000600052603260045260246000fd5b60006123cc82611d36565b9150600082036123df576123de6122ed565b5b600182039050919050565b7f537472696e67733a20686578206c656e67746820696e73756666696369656e74600082015250565b600061242060208361165b565b915061242b826123ea565b602082019050919050565b6000602082019050818103600083015261244f81612413565b905091905056fea264697066735822122068de634c421256d6ec01c1b9b92df4a8b7e9f72ead1584279a1bbad79f143ff664736f6c63430008180033",
  "linkReferences": {},
  "deployedLinkReferences": {}
}