{
  "_format": "hh-sol-artifact-1",
  "contractName": "SegmentBook",
  "sourceName": "contracts/segmentBook.sol",
  "abi": [
    {
      "inputs": [],
      "stateMutability": "nonpayable",
      "type": "constructor"
    },
    {
      "anonymous": false,
      "inputs": [
        {
          "indexed": false,
          "internalType": "uint256",
          "name": "count",
          "type": "uint256"
        }
      ],
      "name": "AttestRevertBatch",
      "type": "event"
    },
    {
      "anonymous": false,
      "inputs": [
        {
          "indexed": false,
          "internalType": "uint8",
          "name": "version",
          "type": "uint8"
        }
      ],
      "name": "Initialized",
      "type": "event"
    },
    {
      "anonymous": false,
      "inputs": [
        {
          "indexed": false,
          "internalType": "address",
          "name": "_forAccount",
          "type": "address"
        },
        {
          "indexed": false,
          "internalType": "bytes32",
          "name": "batchHash",
          "type": "bytes32"
        },
        {
          "indexed": false,
          "internalType": "bytes4",
          "name": "networkId",
          "type": "bytes4"
        }
      ],
      "name": "NewBatchAttested",
      "type": "event"
    },
    {
      "anonymous": false,
      "inputs": [
        {
          "indexed": false,
          "internalType": "bytes32",
          "name": "orderId",
          "type": "bytes32"
        }
      ],
      "name": "RevertOrderApproved",
      "type": "event"
    },
    {
      "anonymous": false,
      "inputs": [
        {
          "indexed": true,
          "internalType": "bytes32",
          "name": "role",
          "type": "bytes32"
        },
        {
          "indexed": true,
          "internalType": "bytes32",
          "name": "previousAdminRole",
          "type": "bytes32"
        },
        {
          "indexed": true,
          "internalType": "bytes32",
          "name": "newAdminRole",
          "type": "bytes32"
        }
      ],
      "name": "RoleAdminChanged",
      "type": "event"
    },
    {
      "anonymous": false,
      "inputs": [
        {
          "indexed": true,
          "internalType": "bytes32",
          "name": "role",
          "type": "bytes32"
        },
        {
          "indexed": true,
          "internalType": "address",
          "name": "account",
          "type": "address"
        },
        {
          "indexed": true,
          "internalType": "address",
          "name": "sender",
          "type": "address"
        }
      ],
      "name": "RoleGranted",
      "type": "event"
    },
    {
      "anonymous": false,
      "inputs": [
        {
          "indexed": true,
          "internalType": "bytes32",
          "name": "role",
          "type": "bytes32"
        },
        {
          "indexed": true,
          "internalType": "address",
          "name": "account",
          "type": "address"
        },
        {
          "indexed": true,
          "internalType": "address",
          "name": "sender",
          "type": "address"
        }
      ],
      "name": "RoleRevoked",
      "type": "event"
    },
    {
      "inputs": [],
      "name": "DEFAULT_ADMIN_ROLE",
      "outputs": [
        {
          "internalType": "bytes32",
          "name": "",
          "type": "bytes32"
        }
      ],
      "stateMutability": "view",
      "type": "function"
    },
    {
      "inputs": [],
      "name": "attestersPortal",
      "outputs": [
        {
          "internalType": "contract AttestersPortal",
          "name": "",
          "type": "address"
        }
      ],
      "stateMutability": "view",
      "type": "function"
    },
    {
      "inputs": [
        {
          "internalType": "bytes32",
          "name": "",
          "type": "bytes32"
        }
      ],
      "name": "batchDescriptors",
      "outputs": [
        {
          "internalType": "bytes32",
          "name": "batchHash",
          "type": "bytes32"
        },
        {
          "internalType": "uint256",
          "name": "segmentStartTime",
          "type": "uint256"
        },
        {
          "internalType": "uint256",
          "name": "segmentEndTime",
          "type": "uint256"
        },
        {
          "internalType": "address",
          "name": "account",
          "type": "address"
        },
        {
          "internalType": "bool",
          "name": "applied",
          "type": "bool"
        }
      ],
      "stateMutability": "view",
      "type": "function"
    },
    {
      "inputs": [
        {
          "internalType": "bytes32",
          "name": "",
          "type": "bytes32"
        }
      ],
      "name": "batchDescriptorsAttestationCount",
      "outputs": [
        {
          "internalType": "uint256",
          "name": "",
          "type": "uint256"
        }
      ],
      "stateMutability": "view",
      "type": "function"
    },
    {
      "inputs": [
        {
          "internalType": "bytes32",
          "name": "",
          "type": "bytes32"
        }
      ],
      "name": "batchDescriptorsAttestationsLock",
      "outputs": [
        {
          "internalType": "bool",
          "name": "",
          "type": "bool"
        }
      ],
      "stateMutability": "view",
      "type": "function"
    },
    {
      "inputs": [
        {
          "internalType": "bytes32",
          "name": "",
          "type": "bytes32"
        }
      ],
      "name": "batchHashToSegmentIndex",
      "outputs": [
        {
          "internalType": "uint256",
          "name": "",
          "type": "uint256"
        }
      ],
      "stateMutability": "view",
      "type": "function"
    },
    {
      "inputs": [
        {
          "internalType": "bytes32",
          "name": "",
          "type": "bytes32"
        }
      ],
      "name": "batchPayloads",
      "outputs": [
        {
          "internalType": "bytes",
          "name": "",
          "type": "bytes"
        }
      ],
      "stateMutability": "view",
      "type": "function"
    },
    {
      "inputs": [
        {
          "internalType": "bytes32",
          "name": "",
          "type": "bytes32"
        }
      ],
      "name": "confirmations",
      "outputs": [
        {
          "internalType": "uint256",
          "name": "height",
          "type": "uint256"
        },
        {
          "internalType": "uint256",
          "name": "orderTimestamp",
          "type": "uint256"
        },
        {
          "internalType": "uint256",
          "name": "bidAmount",
          "type": "uint256"
        },
        {
          "internalType": "address",
          "name": "bidAsset",
          "type": "address"
        },
        {
          "internalType": "address",
          "name": "bidWinner",
          "type": "address"
        },
        {
          "internalType": "address",
          "name": "executor",
          "type": "address"
        },
        {
          "internalType": "bytes32",
          "name": "executedTxHash",
          "type": "bytes32"
        },
        {
          "internalType": "bytes32",
          "name": "createdTxHash",
          "type": "bytes32"
        },
        {
          "internalType": "bytes32",
          "name": "id",
          "type": "bytes32"
        },
        {
          "internalType": "bytes4",
          "name": "source",
          "type": "bytes4"
        }
      ],
      "stateMutability": "view",
      "type": "function"
    },
    {
      "inputs": [
        {
          "internalType": "uint256",
          "name": "",
          "type": "uint256"
        },
        {
          "internalType": "uint256",
          "name": "",
          "type": "uint256"
        }
      ],
      "name": "executorsHint",
      "outputs": [
        {
          "internalType": "address",
          "name": "",
          "type": "address"
        }
      ],
      "stateMutability": "view",
      "type": "function"
    },
    {
      "inputs": [],
      "name": "finalizedSegment",
      "outputs": [
        {
          "internalType": "uint256",
          "name": "",
          "type": "uint256"
        }
      ],
      "stateMutability": "view",
      "type": "function"
    },
    {
      "inputs": [
        {
          "internalType": "bytes32",
          "name": "_batchHash",
          "type": "bytes32"
        }
      ],
      "name": "getBatchPayload",
      "outputs": [
        {
          "internalType": "bytes",
          "name": "",
          "type": "bytes"
        }
      ],
      "stateMutability": "view",
      "type": "function"
    },
    {
      "inputs": [
        {
          "internalType": "address",
          "name": "_forAccount",
          "type": "address"
        },
        {
          "internalType": "bytes4",
          "name": "_networkId",
          "type": "bytes4"
        }
      ],
      "name": "getBatchPayloadWithDescriptor",
      "outputs": [
        {
          "components": [
            {
              "internalType": "bytes32",
              "name": "batchHash",
              "type": "bytes32"
            },
            {
              "internalType": "uint256",
              "name": "segmentStartTime",
              "type": "uint256"
            },
            {
              "internalType": "uint256",
              "name": "segmentEndTime",
              "type": "uint256"
            },
            {
              "internalType": "address",
              "name": "account",
              "type": "address"
            },
            {
              "internalType": "bool",
              "name": "applied",
              "type": "bool"
            }
          ],
          "internalType": "struct SegmentBook.BatchDescriptor",
          "name": "",
          "type": "tuple"
        },
        {
          "internalType": "bytes",
          "name": "",
          "type": "bytes"
        }
      ],
      "stateMutability": "view",
      "type": "function"
    },
    {
      "inputs": [
        {
          "internalType": "address",
          "name": "_forAccount",
          "type": "address"
        },
        {
          "internalType": "bytes4",
          "name": "_networkId",
          "type": "bytes4"
        }
      ],
      "name": "getNextUnsettledBatch",
      "outputs": [
        {
          "components": [
            {
              "internalType": "bytes32",
              "name": "batchHash",
              "type": "bytes32"
            },
            {
              "internalType": "uint256",
              "name": "segmentStartTime",
              "type": "uint256"
            },
            {
              "internalType": "uint256",
              "name": "segmentEndTime",
              "type": "uint256"
            },
            {
              "internalType": "address",
              "name": "account",
              "type": "address"
            },
            {
              "internalType": "bool",
              "name": "applied",
              "type": "bool"
            }
          ],
          "internalType": "struct SegmentBook.BatchDescriptor",
          "name": "",
          "type": "tuple"
        }
      ],
      "stateMutability": "view",
      "type": "function"
    },
    {
      "inputs": [
        {
          "internalType": "bytes32",
          "name": "role",
          "type": "bytes32"
        }
      ],
      "name": "getRoleAdmin",
      "outputs": [
        {
          "internalType": "bytes32",
          "name": "",
          "type": "bytes32"
        }
      ],
      "stateMutability": "view",
      "type": "function"
    },
    {
      "inputs": [
        {
          "internalType": "bytes32",
          "name": "role",
          "type": "bytes32"
        },
        {
          "internalType": "address",
          "name": "account",
          "type": "address"
        }
      ],
      "name": "grantRole",
      "outputs": [],
      "stateMutability": "nonpayable",
      "type": "function"
    },
    {
      "inputs": [
        {
          "internalType": "bytes32",
          "name": "role",
          "type": "bytes32"
        },
        {
          "internalType": "address",
          "name": "account",
          "type": "address"
        }
      ],
      "name": "hasRole",
      "outputs": [
        {
          "internalType": "bool",
          "name": "",
          "type": "bool"
        }
      ],
      "stateMutability": "view",
      "type": "function"
    },
    {
      "inputs": [],
      "name": "height",
      "outputs": [
        {
          "internalType": "uint256",
          "name": "",
          "type": "uint256"
        }
      ],
      "stateMutability": "view",
      "type": "function"
    },
    {
      "inputs": [],
      "name": "heightFinalized",
      "outputs": [
        {
          "internalType": "uint256",
          "name": "",
          "type": "uint256"
        }
      ],
      "stateMutability": "view",
      "type": "function"
    },
    {
      "inputs": [
        {
          "internalType": "uint256",
          "name": "",
          "type": "uint256"
        }
      ],
      "name": "heightOrder",
      "outputs": [
        {
          "internalType": "bytes32",
          "name": "",
          "type": "bytes32"
        }
      ],
      "stateMutability": "view",
      "type": "function"
    },
    {
      "inputs": [
        {
          "internalType": "address",
          "name": "_owner",
          "type": "address"
        }
      ],
      "name": "initialize",
      "outputs": [],
      "stateMutability": "nonpayable",
      "type": "function"
    },
    {
      "inputs": [
        {
          "internalType": "address",
          "name": "_forAccount",
          "type": "address"
        },
        {
          "internalType": "bytes4",
          "name": "_network",
          "type": "bytes4"
        },
        {
          "internalType": "uint256",
          "name": "_limit",
          "type": "uint256"
        }
      ],
      "name": "listUnappliedBatches",
      "outputs": [
        {
          "components": [
            {
              "internalType": "bytes32",
              "name": "batchHash",
              "type": "bytes32"
            },
            {
              "internalType": "uint256",
              "name": "segmentStartTime",
              "type": "uint256"
            },
            {
              "internalType": "uint256",
              "name": "segmentEndTime",
              "type": "uint256"
            },
            {
              "internalType": "address",
              "name": "account",
              "type": "address"
            },
            {
              "internalType": "bool",
              "name": "applied",
              "type": "bool"
            }
          ],
          "internalType": "struct SegmentBook.BatchDescriptor[]",
          "name": "",
          "type": "tuple[]"
        }
      ],
      "stateMutability": "view",
      "type": "function"
    },
    {
      "inputs": [
        {
          "internalType": "bytes32",
          "name": "_batchHash",
          "type": "bytes32"
        }
      ],
      "name": "markBatchApplied",
      "outputs": [],
      "stateMutability": "nonpayable",
      "type": "function"
    },
    {
      "inputs": [
        {
          "internalType": "uint256",
          "name": "_settledUntil",
          "type": "uint256"
        },
        {
          "internalType": "address",
          "name": "_forAccount",
          "type": "address"
        }
      ],
      "name": "markNewSettledUntil",
      "outputs": [],
      "stateMutability": "nonpayable",
      "type": "function"
    },
    {
      "inputs": [],
      "name": "orderBook",
      "outputs": [
        {
          "internalType": "contract OrderBook",
          "name": "",
          "type": "address"
        }
      ],
      "stateMutability": "view",
      "type": "function"
    },
    {
      "inputs": [
        {
          "internalType": "bytes32",
          "name": "",
          "type": "bytes32"
        }
      ],
      "name": "orderHeight",
      "outputs": [
        {
          "internalType": "uint256",
          "name": "",
          "type": "uint256"
        }
      ],
      "stateMutability": "view",
      "type": "function"
    },
    {
      "inputs": [
        {
          "internalType": "bytes32",
          "name": "",
          "type": "bytes32"
        }
      ],
      "name": "orderLinks",
      "outputs": [
        {
          "internalType": "uint256",
          "name": "orderTimestamp",
          "type": "uint256"
        },
        {
          "internalType": "bytes32",
          "name": "prev",
          "type": "bytes32"
        },
        {
          "internalType": "bytes32",
          "name": "id",
          "type": "bytes32"
        },
        {
          "internalType": "bytes32",
          "name": "next",
          "type": "bytes32"
        }
      ],
      "stateMutability": "view",
      "type": "function"
    },
    {
      "inputs": [],
      "name": "orderLinksTail",
      "outputs": [
        {
          "internalType": "bytes32",
          "name": "",
          "type": "bytes32"
        }
      ],
      "stateMutability": "view",
      "type": "function"
    },
    {
      "inputs": [
        {
          "internalType": "bytes32",
          "name": "",
          "type": "bytes32"
        }
      ],
      "name": "perNetworkBatchLinks",
      "outputs": [
        {
          "internalType": "bytes32",
          "name": "hash",
          "type": "bytes32"
        },
        {
          "internalType": "uint256",
          "name": "startTime",
          "type": "uint256"
        },
        {
          "internalType": "uint256",
          "name": "endTime",
          "type": "uint256"
        },
        {
          "internalType": "bytes32",
          "name": "prev",
          "type": "bytes32"
        }
      ],
      "stateMutability": "view",
      "type": "function"
    },
    {
      "inputs": [
        {
          "internalType": "address",
          "name": "",
          "type": "address"
        },
        {
          "internalType": "bytes4",
          "name": "",
          "type": "bytes4"
        }
      ],
      "name": "perNetworkBatchLinksTail",
      "outputs": [
        {
          "internalType": "bytes32",
          "name": "hash",
          "type": "bytes32"
        },
        {
          "internalType": "uint256",
          "name": "startTime",
          "type": "uint256"
        },
        {
          "internalType": "uint256",
          "name": "endTime",
          "type": "uint256"
        },
        {
          "internalType": "bytes32",
          "name": "prev",
          "type": "bytes32"
        }
      ],
      "stateMutability": "view",
      "type": "function"
    },
    {
      "inputs": [
        {
          "internalType": "address",
          "name": "_forAccount",
          "type": "address"
        },
        {
          "internalType": "bytes4",
          "name": "_networkId",
          "type": "bytes4"
        },
        {
          "internalType": "uint256",
          "name": "_batchStartTime",
          "type": "uint256"
        },
        {
          "internalType": "uint256",
          "name": "_batchEndTime",
          "type": "uint256"
        },
        {
          "internalType": "bytes",
          "name": "_batchPayload",
          "type": "bytes"
        }
      ],
      "name": "proposeBatchForAccount",
      "outputs": [],
      "stateMutability": "nonpayable",
      "type": "function"
    },
    {
      "inputs": [
        {
          "internalType": "uint256",
          "name": "_segmentIndex",
          "type": "uint256"
        },
        {
          "internalType": "bytes4[]",
          "name": "_networks",
          "type": "bytes4[]"
        },
        {
          "internalType": "bytes[]",
          "name": "_batchPayload",
          "type": "bytes[]"
        }
      ],
      "name": "proposeBatchForSegment",
      "outputs": [],
      "stateMutability": "nonpayable",
      "type": "function"
    },
    {
      "inputs": [
        {
          "components": [
            {
              "internalType": "uint256",
              "name": "height",
              "type": "uint256"
            },
            {
              "internalType": "uint256",
              "name": "orderTimestamp",
              "type": "uint256"
            },
            {
              "internalType": "uint256",
              "name": "bidAmount",
              "type": "uint256"
            },
            {
              "internalType": "address",
              "name": "bidAsset",
              "type": "address"
            },
            {
              "internalType": "address",
              "name": "bidWinner",
              "type": "address"
            },
            {
              "internalType": "address",
              "name": "executor",
              "type": "address"
            },
            {
              "internalType": "bytes32",
              "name": "executedTxHash",
              "type": "bytes32"
            },
            {
              "internalType": "bytes32",
              "name": "createdTxHash",
              "type": "bytes32"
            },
            {
              "internalType": "bytes32",
              "name": "id",
              "type": "bytes32"
            },
            {
              "internalType": "bytes4",
              "name": "source",
              "type": "bytes4"
            }
          ],
          "internalType": "struct SegmentBook.Confirmation[]",
          "name": "_confirmations",
          "type": "tuple[]"
        },
        {
          "internalType": "address[]",
          "name": "_executors",
          "type": "address[]"
        }
      ],
      "name": "receiveSegment",
      "outputs": [],
      "stateMutability": "nonpayable",
      "type": "function"
    },
    {
      "inputs": [
        {
          "internalType": "bytes32",
          "name": "role",
          "type": "bytes32"
        },
        {
          "internalType": "address",
          "name": "account",
          "type": "address"
        }
      ],
      "name": "renounceRole",
      "outputs": [],
      "stateMutability": "nonpayable",
      "type": "function"
    },
    {
      "inputs": [
        {
          "internalType": "bytes32",
          "name": "role",
          "type": "bytes32"
        },
        {
          "internalType": "address",
          "name": "account",
          "type": "address"
        }
      ],
      "name": "revokeRole",
      "outputs": [],
      "stateMutability": "nonpayable",
      "type": "function"
    },
    {
      "inputs": [
        {
          "internalType": "uint256",
          "name": "",
          "type": "uint256"
        },
        {
          "internalType": "uint256",
          "name": "",
          "type": "uint256"
        }
      ],
      "name": "segmentBatchHashes",
      "outputs": [
        {
          "internalType": "bytes32",
          "name": "",
          "type": "bytes32"
        }
      ],
      "stateMutability": "view",
      "type": "function"
    },
    {
      "inputs": [],
      "name": "segmentCount",
      "outputs": [
        {
          "internalType": "uint256",
          "name": "",
          "type": "uint256"
        }
      ],
      "stateMutability": "view",
      "type": "function"
    },
    {
      "inputs": [
        {
          "internalType": "uint256",
          "name": "",
          "type": "uint256"
        }
      ],
      "name": "segmentDescriptors",
      "outputs": [
        {
          "internalType": "bytes32",
          "name": "segmentStartId",
          "type": "bytes32"
        },
        {
          "internalType": "bytes32",
          "name": "segmentEndId",
          "type": "bytes32"
        },
        {
          "internalType": "uint256",
          "name": "segmentStartTime",
          "type": "uint256"
        },
        {
          "internalType": "uint256",
          "name": "segmentEndTime",
          "type": "uint256"
        },
        {
          "internalType": "uint256",
          "name": "index",
          "type": "uint256"
        },
        {
          "internalType": "uint256",
          "name": "validAttestationCount",
          "type": "uint256"
        }
      ],
      "stateMutability": "view",
      "type": "function"
    },
    {
      "inputs": [
        {
          "internalType": "address payable",
          "name": "_attestersPortal",
          "type": "address"
        }
      ],
      "name": "setAttestersPortal",
      "outputs": [],
      "stateMutability": "nonpayable",
      "type": "function"
    },
    {
      "inputs": [
        {
          "internalType": "address",
          "name": "_orderBook",
          "type": "address"
        }
      ],
      "name": "setOrderBook",
      "outputs": [],
      "stateMutability": "nonpayable",
      "type": "function"
    },
    {
      "inputs": [
        {
          "internalType": "bytes32",
          "name": "_version",
          "type": "bytes32"
        }
      ],
      "name": "setVersion",
      "outputs": [],
      "stateMutability": "nonpayable",
      "type": "function"
    },
    {
      "inputs": [
        {
          "internalType": "address",
          "name": "",
          "type": "address"
        }
      ],
      "name": "settledUntil",
      "outputs": [
        {
          "internalType": "uint256",
          "name": "",
          "type": "uint256"
        }
      ],
      "stateMutability": "view",
      "type": "function"
    },
    {
      "inputs": [
        {
          "internalType": "bytes4",
          "name": "interfaceId",
          "type": "bytes4"
        }
      ],
      "name": "supportsInterface",
      "outputs": [
        {
          "internalType": "bool",
          "name": "",
          "type": "bool"
        }
      ],
      "stateMutability": "view",
      "type": "function"
    },
    {
      "inputs": [
        {
          "internalType": "uint256",
          "name": "_limit",
          "type": "uint256"
        },
        {
          "internalType": "address",
          "name": "_forAccount",
          "type": "address"
        },
        {
          "internalType": "uint256",
          "name": "_youngerThanTimestamp",
          "type": "uint256"
        }
      ],
      "name": "traverseUnsettledForAccount",
      "outputs": [
        {
          "components": [
            {
              "internalType": "uint256",
              "name": "height",
              "type": "uint256"
            },
            {
              "internalType": "uint256",
              "name": "orderTimestamp",
              "type": "uint256"
            },
            {
              "internalType": "uint256",
              "name": "bidAmount",
              "type": "uint256"
            },
            {
              "internalType": "address",
              "name": "bidAsset",
              "type": "address"
            },
            {
              "internalType": "address",
              "name": "bidWinner",
              "type": "address"
            },
            {
              "internalType": "address",
              "name": "executor",
              "type": "address"
            },
            {
              "internalType": "bytes32",
              "name": "executedTxHash",
              "type": "bytes32"
            },
            {
              "internalType": "bytes32",
              "name": "createdTxHash",
              "type": "bytes32"
            },
            {
              "internalType": "bytes32",
              "name": "id",
              "type": "bytes32"
            },
            {
              "internalType": "bytes4",
              "name": "source",
              "type": "bytes4"
            }
          ],
          "internalType": "struct SegmentBook.Confirmation[]",
          "name": "",
          "type": "tuple[]"
        }
      ],
      "stateMutability": "view",
      "type": "function"
    },
    {
      "inputs": [],
      "name": "version",
      "outputs": [
        {
          "internalType": "bytes32",
          "name": "",
          "type": "bytes32"
        }
      ],
      "stateMutability": "view",
      "type": "function"
    }
  ],
  "bytecode": "0x60806040523480156200001157600080fd5b50620000226200002860201b60201c565b620001d2565b600060019054906101000a900460ff16156200007b576040517f08c379a0000000000000000000000000000000000000000000000000000000008152600401620000729062000175565b60405180910390fd5b60ff801660008054906101000a900460ff1660ff1614620000ec5760ff6000806101000a81548160ff021916908360ff1602179055507f7f26b83ff96e1f2b6a682f133852f6798a09c465da95921460cefb384740249860ff604051620000e39190620001b5565b60405180910390a15b565b600082825260208201905092915050565b7f496e697469616c697a61626c653a20636f6e747261637420697320696e69746960008201527f616c697a696e6700000000000000000000000000000000000000000000000000602082015250565b60006200015d602783620000ee565b91506200016a82620000ff565b604082019050919050565b6000602082019050818103600083015262000190816200014e565b9050919050565b600060ff82169050919050565b620001af8162000197565b82525050565b6000602082019050620001cc6000830184620001a4565b92915050565b615f8c80620001e26000396000f3fe608060405234801561001057600080fd5b50600436106102745760003560e01c80636424f81411610151578063b868c6aa116100c3578063ca5f81b511610087578063ca5f81b514610853578063d03685cb1461086f578063d547741f1461088b578063de43e5a5146108a7578063ec95bfe7146108d7578063ed7094df1461091057610274565b8063b868c6aa146107b1578063ba1c797f146107cd578063bba72612146107eb578063c0316f6e14610807578063c4d66de81461083757610274565b80639789001c116101155780639789001c146106c95780639a1598c8146106e75780639d4faac714610703578063a217fddf14610733578063a2724a9b14610751578063b2a470551461078157610274565b80636424f814146105e7578063776af5ba146106175780639137ab031461063557806391d148541461066657806396d0835c1461069657610274565b806336568abe116101ea57806347f87b67116101ae57806347f87b671461050c5780635425835f1461052a57806354fd4d501461054657806359fe9858146105645780635d3e2e28146105825780635dae3944146105b257610274565b806336568abe146104665780633aac5d3d146104825780633c27da57146104a05780633f57e625146104bc5780634671c805146104d857610274565b8063243eed051161023c578063243eed051461035a578063248a9ca31461038a578063248d9151146103ba578063295ebc17146103ea5780632f2ff15d1461041a578063349b981c1461043657610274565b806301ffc9a7146102795780630573cbe1146102a9578063083a4af4146102d95780630c3a2074146103095780630ef267431461033c575b600080fd5b610293600480360381019061028e91906141bc565b610943565b6040516102a09190614204565b60405180910390f35b6102c360048036038101906102be919061427d565b6109bd565b6040516102d09190614375565b60405180910390f35b6102f360048036038101906102ee91906143bc565b610c37565b604051610300919061440b565b60405180910390f35b610323600480360381019061031e919061427d565b610c85565b6040516103339493929190614444565b60405180910390f35b610344610cc2565b6040516103519190614489565b60405180910390f35b610374600480360381019061036f91906144a4565b610cc8565b6040516103819190614489565b60405180910390f35b6103a4600480360381019061039f91906144fd565b610ce0565b6040516103b1919061452a565b60405180910390f35b6103d460048036038101906103cf91906144fd565b610d00565b6040516103e191906145d5565b60405180910390f35b61040460048036038101906103ff91906144fd565b610da5565b6040516104119190614489565b60405180910390f35b610434600480360381019061042f91906145f7565b610dbd565b005b610450600480360381019061044b91906143bc565b610dde565b60405161045d919061452a565b60405180910390f35b610480600480360381019061047b91906145f7565b610e0f565b005b61048a610e92565b6040516104979190614696565b60405180910390f35b6104ba60048036038101906104b59190614716565b610eb8565b005b6104d660048036038101906104d191906144fd565b61149e565b005b6104f260048036038101906104ed91906144fd565b6116a9565b6040516105039594939291906147b0565b60405180910390f35b61051461170c565b6040516105219190614489565b60405180910390f35b610544600480360381019061053f91906148b0565b611712565b005b61054e611f50565b60405161055b919061452a565b60405180910390f35b61056c611f56565b604051610579919061452a565b60405180910390f35b61059c600480360381019061059791906144fd565b611f5c565b6040516105a991906145d5565b60405180910390f35b6105cc60048036038101906105c79190614931565b611ffc565b6040516105de9695949392919061495e565b60405180910390f35b61060160048036038101906105fc91906144fd565b612038565b60405161060e9190614204565b60405180910390f35b61061f612058565b60405161062c91906149f2565b60405180910390f35b61064f600480360381019061064a919061427d565b61207e565b60405161065d929190614a0d565b60405180910390f35b610680600480360381019061067b91906145f7565b612146565b60405161068d9190614204565b60405180910390f35b6106b060048036038101906106ab91906144fd565b6121b1565b6040516106c09493929190614a3d565b60405180910390f35b6106d16121e1565b6040516106de9190614489565b60405180910390f35b61070160048036038101906106fc91906144a4565b6121e7565b005b61071d60048036038101906107189190614a82565b612277565b60405161072a9190614c60565b60405180910390f35b61073b612825565b604051610748919061452a565b60405180910390f35b61076b60048036038101906107669190614931565b61282c565b604051610778919061452a565b60405180910390f35b61079b600480360381019061079691906144fd565b612844565b6040516107a89190614489565b60405180910390f35b6107cb60048036038101906107c69190614c82565b61285c565b005b6107d561297f565b6040516107e29190614489565b60405180910390f35b61080560048036038101906108009190614d6e565b612985565b005b610821600480360381019061081c91906144fd565b6132d6565b60405161082e9190614489565b60405180910390f35b610851600480360381019061084c91906144a4565b6132ee565b005b61086d600480360381019061086891906144fd565b61343a565b005b61088960048036038101906108849190614e41565b613490565b005b6108a560048036038101906108a091906145f7565b613520565b005b6108c160048036038101906108bc9190614e6e565b613541565b6040516108ce9190614fd8565b60405180910390f35b6108f160048036038101906108ec91906144fd565b6138f0565b6040516109079a99989796959493929190615009565b60405180910390f35b61092a600480360381019061092591906144fd565b6139b1565b60405161093a9493929190614444565b60405180910390f35b60007f7965db0b000000000000000000000000000000000000000000000000000000007bffffffffffffffffffffffffffffffffffffffffffffffffffffffff1916827bffffffffffffffffffffffffffffffffffffffffffffffffffffffff191614806109b657506109b5826139e1565b5b9050919050565b6109c5613f8c565b600060a460008573ffffffffffffffffffffffffffffffffffffffff1673ffffffffffffffffffffffffffffffffffffffff1681526020019081526020016000205490506000609e60008673ffffffffffffffffffffffffffffffffffffffff1673ffffffffffffffffffffffffffffffffffffffff1681526020019081526020016000206000857bffffffffffffffffffffffffffffffffffffffffffffffffffffffff19167bffffffffffffffffffffffffffffffffffffffffffffffffffffffff1916815260200190815260200160002060405180608001604052908160008201548152602001600182015481526020016002820154815260200160038201548152505090505b6000801b816000015114158015610b0057508160996000836000015181526020019081526020016000206001015410155b8015610b2657508160996000836000015181526020019081526020016000206002015411155b15610b7c57609d6000826060015181526020019081526020016000206040518060800160405290816000820154815260200160018201548152602001600282015481526020016003820154815250509050610acf565b60996000826000015181526020019081526020016000206040518060a00160405290816000820154815260200160018201548152602001600282015481526020016003820160009054906101000a900473ffffffffffffffffffffffffffffffffffffffff1673ffffffffffffffffffffffffffffffffffffffff1673ffffffffffffffffffffffffffffffffffffffff1681526020016003820160149054906101000a900460ff1615151515815250509250505092915050565b60aa6020528160005260406000208181548110610c5357600080fd5b906000526020600020016000915091509054906101000a900473ffffffffffffffffffffffffffffffffffffffff1681565b609e602052816000526040600020602052806000526040600020600091509150508060000154908060010154908060020154908060030154905084565b60a55481565b60a46020528060005260406000206000915090505481565b600060656000838152602001908152602001600020600101549050919050565b6060609a60008381526020019081526020016000208054610d20906150d4565b80601f0160208091040260200160405190810160405280929190818152602001828054610d4c906150d4565b8015610d995780601f10610d6e57610100808354040283529160200191610d99565b820191906000526020600020905b815481529060010190602001808311610d7c57829003601f168201915b50505050509050919050565b60a86020528060005260406000206000915090505481565b610dc682610ce0565b610dcf81613a4b565b610dd98383613a5f565b505050565b60a16020528160005260406000208181548110610dfa57600080fd5b90600052602060002001600091509150505481565b610e17613b40565b73ffffffffffffffffffffffffffffffffffffffff168173ffffffffffffffffffffffffffffffffffffffff1614610e84576040517f08c379a0000000000000000000000000000000000000000000000000000000008152600401610e7b90615188565b60405180910390fd5b610e8e8282613b48565b5050565b60ac60009054906101000a900473ffffffffffffffffffffffffffffffffffffffff1681565b60ac60009054906101000a900473ffffffffffffffffffffffffffffffffffffffff1673ffffffffffffffffffffffffffffffffffffffff1663ee06b289336040518263ffffffff1660e01b8152600401610f13919061440b565b602060405180830381865afa158015610f30573d6000803e3d6000fd5b505050506040513d601f19601f82011682018060405250810190610f5491906151d4565b610f93576040517f08c379a0000000000000000000000000000000000000000000000000000000008152600401610f8a9061524d565b60405180910390fd5b838311610fd5576040517f08c379a0000000000000000000000000000000000000000000000000000000008152600401610fcc906152b9565b60405180910390fd5b6000338383604051602001610fec93929190615360565b604051602081830303815290604052805190602001209050609c600082815260200190815260200160002060009054906101000a900460ff1615611065576040517f08c379a000000000000000000000000000000000000000000000000000000000815260040161105c906153d6565b60405180910390fd5b6001609c600083815260200190815260200160002060006101000a81548160ff021916908315150217905550600083836040516110a39291906153f6565b604051809103902090506001609b600083815260200190815260200160002060008282546110d1919061543e565b925050819055506000609e60008a73ffffffffffffffffffffffffffffffffffffffff1673ffffffffffffffffffffffffffffffffffffffff1681526020019081526020016000206000897bffffffffffffffffffffffffffffffffffffffffffffffffffffffff19167bffffffffffffffffffffffffffffffffffffffffffffffffffffffff1916815260200190815260200160002060405180608001604052908160008201548152602001600182015481526020016002820154815260200160038201548152505090506000801b8160000151146111f35786816040015111156111f2576040517f08c379a00000000000000000000000000000000000000000000000000000000081526004016111e99061524d565b60405180910390fd5b5b6040518060a001604052808381526020018881526020018781526020018a73ffffffffffffffffffffffffffffffffffffffff168152602001600015158152506099600084815260200190815260200160002060008201518160000155602082015181600101556040820151816002015560608201518160030160006101000a81548173ffffffffffffffffffffffffffffffffffffffff021916908373ffffffffffffffffffffffffffffffffffffffff16021790555060808201518160030160146101000a81548160ff02191690831515021790555090505060006040518060800160405280848152602001898152602001888152602001836000015181525090508660a460008c73ffffffffffffffffffffffffffffffffffffffff1673ffffffffffffffffffffffffffffffffffffffff1681526020019081526020016000208190555080609d60008581526020019081526020016000206000820151816000015560208201518160010155604082015181600201556060820151816003015590505080609e60008c73ffffffffffffffffffffffffffffffffffffffff1673ffffffffffffffffffffffffffffffffffffffff16815260200190815260200160002060008b7bffffffffffffffffffffffffffffffffffffffffffffffffffffffff19167bffffffffffffffffffffffffffffffffffffffffffffffffffffffff19168152602001908152602001600020600082015181600001556020820151816001015560408201518160020155606082015181600301559050508585609a6000868152602001908152602001600020918261145692919061564e565b507ff3d0e9dce9fc7aaaa9c73bfcb0814f7facf32bdc31ef4f69f48ac0179917dea78a848b60405161148a9392919061571e565b60405180910390a150505050505050505050565b60ac60009054906101000a900473ffffffffffffffffffffffffffffffffffffffff1673ffffffffffffffffffffffffffffffffffffffff1663ee06b289336040518263ffffffff1660e01b81526004016114f9919061440b565b602060405180830381865afa158015611516573d6000803e3d6000fd5b505050506040513d601f19601f8201168201806040525081019061153a91906151d4565b611579576040517f08c379a00000000000000000000000000000000000000000000000000000000081526004016115709061524d565b60405180910390fd5b6000609960008381526020019081526020016000206040518060a00160405290816000820154815260200160018201548152602001600282015481526020016003820160009054906101000a900473ffffffffffffffffffffffffffffffffffffffff1673ffffffffffffffffffffffffffffffffffffffff1673ffffffffffffffffffffffffffffffffffffffff1681526020016003820160149054906101000a900460ff1615151515815250509050806040015160a46000836060015173ffffffffffffffffffffffffffffffffffffffff1673ffffffffffffffffffffffffffffffffffffffff1681526020019081526020016000208190555060016099600084815260200190815260200160002060030160146101000a81548160ff0219169083151502179055505050565b60996020528060005260406000206000915090508060000154908060010154908060020154908060030160009054906101000a900473ffffffffffffffffffffffffffffffffffffffff16908060030160149054906101000a900460ff16905085565b60a65481565b60ac60009054906101000a900473ffffffffffffffffffffffffffffffffffffffff1673ffffffffffffffffffffffffffffffffffffffff1663ee06b289336040518263ffffffff1660e01b815260040161176d919061440b565b602060405180830381865afa15801561178a573d6000803e3d6000fd5b505050506040513d601f19601f820116820180604052508101906117ae91906151d4565b6117ed576040517f08c379a00000000000000000000000000000000000000000000000000000000081526004016117e49061524d565b60405180910390fd5b600084849050905060008111611838576040517f08c379a000000000000000000000000000000000000000000000000000000000815260040161182f9061524d565b60405180910390fd5b6000600190505b818110156118dd5785858281811061185a57611859615755565b5b905061014002016020013586866001846118749190615784565b81811061188457611883615755565b5b905061014002016020013511156118d0576040517f08c379a00000000000000000000000000000000000000000000000000000000081526004016118c7906152b9565b60405180910390fd5b808060010191505061183f565b506000858560008181106118f4576118f3615755565b5b90506101400201602001359050600086866001856119129190615784565b81811061192257611921615755565b5b90506101400201602001359050600060a35411156119a15760a06000600160a35461194d9190615784565b81526020019081526020016000206003015481116119a0576040517f08c379a0000000000000000000000000000000000000000000000000000000008152600401611997906153d6565b60405180910390fd5b5b60005b83811015611b5d5760008888838181106119c1576119c0615755565b5b905061014002018036038101906119d891906158ff565b905060ab60009054906101000a900473ffffffffffffffffffffffffffffffffffffffff1673ffffffffffffffffffffffffffffffffffffffff1663eacce00a8261010001516040518263ffffffff1660e01b8152600401611a3a919061452a565b602060405180830381865afa158015611a57573d6000803e3d6000fd5b505050506040513d601f19601f82011682018060405250810190611a7b91906151d4565b611a855750611b50565b60006098600083610100015181526020019081526020016000206000015414611aae5750611b50565b604051806080016040528082602001518152602001609f54815260200182610100015181526020016000801b8152506098600083610100015181526020019081526020016000206000820151816000015560208201518160010155604082015181600201556060820151816003015590505080610100015160986000609f54815260200190815260200160002060030181905550806101000151609f81905550505b80806001019150506119a4565b506040518060c0016040528088886000818110611b7d57611b7c615755565b5b90506101400201610100013581526020018888600187611b9d9190615784565b818110611bad57611bac615755565b5b905061014002016101000135815260200183815260200182815260200160a3548152602001600081525060a0600060a3548152602001908152602001600020600082015181600001556020820151816001015560408201518160020155606082015181600301556080820151816004015560a08201518160050155905050848460aa600060a35481526020019081526020016000209190611c4f929190613fd6565b5060a360008154611c5f9061592d565b9190508190555060005b83811015611f46576000888883818110611c8657611c85615755565b5b90506101400201803603810190611c9d91906158ff565b905060006097600083610100015181526020019081526020016000206000015414611cec5760976000826101000151815260200190815260200160002060000154816000018181525050611d0b565b60a560008154611cfb9061592d565b9190508190558160000181815250505b600060a460008360a0015173ffffffffffffffffffffffffffffffffffffffff1673ffffffffffffffffffffffffffffffffffffffff1681526020019081526020016000205403611da357806020015160a460008360a0015173ffffffffffffffffffffffffffffffffffffffff1673ffffffffffffffffffffffffffffffffffffffff168152602001908152602001600020819055505b8060976000836101000151815260200190815260200160002060008201518160000155602082015181600101556040820151816002015560608201518160030160006101000a81548173ffffffffffffffffffffffffffffffffffffffff021916908373ffffffffffffffffffffffffffffffffffffffff16021790555060808201518160040160006101000a81548173ffffffffffffffffffffffffffffffffffffffff021916908373ffffffffffffffffffffffffffffffffffffffff16021790555060a08201518160050160006101000a81548173ffffffffffffffffffffffffffffffffffffffff021916908373ffffffffffffffffffffffffffffffffffffffff16021790555060c0820151816006015560e0820151816007015561010082015181600801556101208201518160090160006101000a81548163ffffffff021916908360e01c021790555090505080610100015160a960008360000151815260200190815260200160002081905550806000015160a86000836101000151815260200190815260200160002081905550508080600101915050611c69565b5050505050505050565b60ad5481565b609f5481565b609a6020528060005260406000206000915090508054611f7b906150d4565b80601f0160208091040260200160405190810160405280929190818152602001828054611fa7906150d4565b8015611ff45780601f10611fc957610100808354040283529160200191611ff4565b820191906000526020600020905b815481529060010190602001808311611fd757829003601f168201915b505050505081565b60a06020528060005260406000206000915090508060000154908060010154908060020154908060030154908060040154908060050154905086565b609c6020528060005260406000206000915054906101000a900460ff1681565b60ab60009054906101000a900473ffffffffffffffffffffffffffffffffffffffff1681565b612086613f8c565b6060600061209485856109bd565b905080609a6000836000015181526020019081526020016000208080546120ba906150d4565b80601f01602080910402602001604051908101604052809291908181526020018280546120e6906150d4565b80156121335780601f1061210857610100808354040283529160200191612133565b820191906000526020600020905b81548152906001019060200180831161211657829003601f168201915b5050505050905092509250509250929050565b60006065600084815260200190815260200160002060000160008373ffffffffffffffffffffffffffffffffffffffff1673ffffffffffffffffffffffffffffffffffffffff16815260200190815260200160002060009054906101000a900460ff16905092915050565b60986020528060005260406000206000915090508060000154908060010154908060020154908060030154905084565b60a35481565b6121f46000801b33612146565b612233576040517f08c379a000000000000000000000000000000000000000000000000000000000815260040161222a9061524d565b60405180910390fd5b8060ab60006101000a81548173ffffffffffffffffffffffffffffffffffffffff021916908373ffffffffffffffffffffffffffffffffffffffff16021790555050565b606060008467ffffffffffffffff8111156122955761229461547d565b5b6040519080825280602002602001820160405280156122ce57816020015b6122bb614076565b8152602001906001900390816122b35790505b509050600060a460008673ffffffffffffffffffffffffffffffffffffffff1673ffffffffffffffffffffffffffffffffffffffff168152602001908152602001600020549050600060a3540361237d57600067ffffffffffffffff81111561233a5761233961547d565b5b60405190808252806020026020018201604052801561237357816020015b612360614076565b8152602001906001900390816123585790505b509250505061281e565b600080821461239a57600160a3546123959190615784565b61239d565b60005b9050600060a060008381526020019081526020016000206040518060c0016040529081600082015481526020016001820154815260200160028201548152602001600382015481526020016004820154815260200160058201548152505090505b82816040015110158015612416575082816060015111155b8015612426575085816040015110155b156124a35760008203156124a357818061243f90615975565b92505060a060008381526020019081526020016000206040518060c0016040529081600082015481526020016001820154815260200160028201548152602001600382015481526020016004820154815260200160058201548152505090506123fe565b600086036124af574295505b600080609860008460000151815260200190815260200160002060405180608001604052908160008201548152602001600182015481526020016002820154815260200160038201548152505090505b6000801b81606001511415801561251557508982105b8015612525575087816000015111155b8015612535575084816000015110155b1561281157600073ffffffffffffffffffffffffffffffffffffffff168973ffffffffffffffffffffffffffffffffffffffff1614806125da57508873ffffffffffffffffffffffffffffffffffffffff16609760008360400151815260200190815260200160002060050160009054906101000a900473ffffffffffffffffffffffffffffffffffffffff1673ffffffffffffffffffffffffffffffffffffffff16145b156127c0576097600082604001518152602001908152602001600020604051806101400160405290816000820154815260200160018201548152602001600282015481526020016003820160009054906101000a900473ffffffffffffffffffffffffffffffffffffffff1673ffffffffffffffffffffffffffffffffffffffff1673ffffffffffffffffffffffffffffffffffffffff1681526020016004820160009054906101000a900473ffffffffffffffffffffffffffffffffffffffff1673ffffffffffffffffffffffffffffffffffffffff1673ffffffffffffffffffffffffffffffffffffffff1681526020016005820160009054906101000a900473ffffffffffffffffffffffffffffffffffffffff1673ffffffffffffffffffffffffffffffffffffffff1673ffffffffffffffffffffffffffffffffffffffff1681526020016006820154815260200160078201548152602001600882015481526020016009820160009054906101000a900460e01b7bffffffffffffffffffffffffffffffffffffffffffffffffffffffff19167bffffffffffffffffffffffffffffffffffffffffffffffffffffffff1916815250508683815181106127a8576127a7615755565b5b6020026020010181905250816127bd9061592d565b91505b609860008260600151815260200190815260200160002060405180608001604052908160008201548152602001600182015481526020016002820154815260200160038201548152505090506124ff565b8186528596505050505050505b9392505050565b6000801b81565b60a96020528060005260406000206000915090505481565b60a26020528060005260406000206000915090505481565b60ac60009054906101000a900473ffffffffffffffffffffffffffffffffffffffff1673ffffffffffffffffffffffffffffffffffffffff1663ee06b289336040518263ffffffff1660e01b81526004016128b7919061440b565b602060405180830381865afa1580156128d4573d6000803e3d6000fd5b505050506040513d601f19601f820116820180604052508101906128f891906151d4565b612937576040517f08c379a000000000000000000000000000000000000000000000000000000000815260040161292e9061524d565b60405180910390fd5b8160a460008373ffffffffffffffffffffffffffffffffffffffff1673ffffffffffffffffffffffffffffffffffffffff168152602001908152602001600020819055505050565b60a75481565b60ac60009054906101000a900473ffffffffffffffffffffffffffffffffffffffff1673ffffffffffffffffffffffffffffffffffffffff1663ee06b289336040518263ffffffff1660e01b81526004016129e0919061440b565b602060405180830381865afa1580156129fd573d6000803e3d6000fd5b505050506040513d601f19601f82011682018060405250810190612a2191906151d4565b612a60576040517f08c379a0000000000000000000000000000000000000000000000000000000008152600401612a579061524d565b60405180910390fd5b818190508484905014612aa8576040517f08c379a0000000000000000000000000000000000000000000000000000000008152600401612a9f9061524d565b60405180910390fd5b600060a060008781526020019081526020016000206040518060c0016040529081600082015481526020016001820154815260200160028201548152602001600382015481526020016004820154815260200160058201548152505090506000816040015103612b4d576040517f08c379a0000000000000000000000000000000000000000000000000000000008152600401612b44906152b9565b60405180910390fd5b600160a060008881526020019081526020016000206005016000828254612b74919061543e565b9250508190555060ac60009054906101000a900473ffffffffffffffffffffffffffffffffffffffff1673ffffffffffffffffffffffffffffffffffffffff1663c26c12eb6040518163ffffffff1660e01b8152600401602060405180830381865afa158015612be8573d6000803e3d6000fd5b505050506040513d601f19601f82011682018060405250810190612c0c91906159b3565b60a06000600189612c1d919061543e565b8152602001908152602001600020600501541115612c70576040517f08c379a0000000000000000000000000000000000000000000000000000000008152600401612c679061524d565b60405180910390fd5b600086604051602001612c839190615a01565b60405160208183030381529060405280519060200120905060005b868690508110156131c0576000878783818110612cbe57612cbd615755565b5b9050602002016020810190612cd391906141bc565b90506000868684818110612cea57612ce9615755565b5b9050602002810190612cfc9190615a2b565b8080601f016020809104026020016040519081016040528093929190818152602001838380828437600081840152601f19601f820116905080830192505050505050509050600081805190602001209050609c600082815260200190815260200160002060009054906101000a900460ff1615612dae576040517f08c379a0000000000000000000000000000000000000000000000000000000008152600401612da5906153d6565b60405180910390fd5b6001609c600083815260200190815260200160002060006101000a81548160ff02191690831515021790555060a160008c81526020019081526020016000208190806001815401808255809150506001900390600052602060002001600090919091909150558a60a26000838152602001908152602001600020819055508481604051602001612e3f929190615aaf565b604051602081830303815290604052805190602001209450609b600082815260200190815260200160002060008154612e779061592d565b919050819055506040518060a001604052808281526020018760400151815260200187606001518152602001600073ffffffffffffffffffffffffffffffffffffffff168152602001600015158152506099600083815260200190815260200160002060008201518160000155602082015181600101556040820151816002015560608201518160030160006101000a81548173ffffffffffffffffffffffffffffffffffffffff021916908373ffffffffffffffffffffffffffffffffffffffff16021790555060808201518160030160146101000a81548160ff0219169083151502179055509050506000609e60008073ffffffffffffffffffffffffffffffffffffffff1673ffffffffffffffffffffffffffffffffffffffff1681526020019081526020016000206000857bffffffffffffffffffffffffffffffffffffffffffffffffffffffff19167bffffffffffffffffffffffffffffffffffffffffffffffffffffffff1916815260200190815260200160002060405180608001604052908160008201548152602001600182015481526020016002820154815260200160038201548152505090506000604051806080016040528084815260200189604001518152602001896060015181526020018360000151815250905080609d60008581526020019081526020016000206000820151816000015560208201518160010155604082015181600201556060820151816003015590505080609e60008073ffffffffffffffffffffffffffffffffffffffff1673ffffffffffffffffffffffffffffffffffffffff1681526020019081526020016000206000877bffffffffffffffffffffffffffffffffffffffffffffffffffffffff19167bffffffffffffffffffffffffffffffffffffffffffffffffffffffff191681526020019081526020016000206000820151816000015560208201518160010155604082015181600201556060820151816003015590505083609a600085815260200190815260200160002090816131719190615adb565b507ff3d0e9dce9fc7aaaa9c73bfcb0814f7facf32bdc31ef4f69f48ac0179917dea7600084876040516131a69392919061571e565b60405180910390a150505050508080600101915050612c9e565b50609b6000828152602001908152602001600020600081546131e19061592d565b9190508190555060ac60009054906101000a900473ffffffffffffffffffffffffffffffffffffffff1673ffffffffffffffffffffffffffffffffffffffff1663c26c12eb6040518163ffffffff1660e01b8152600401602060405180830381865afa158015613255573d6000803e3d6000fd5b505050506040513d601f19601f8201168201806040525081019061327991906159b3565b609b600083815260200190815260200160002054106132cd57816080015160a781905550600060a860008460200151815260200190815260200160002054905060a6548111156132cb578060a6819055505b505b50505050505050565b609b6020528060005260406000206000915090505481565b60008060019054906101000a900460ff1615905080801561331f5750600160008054906101000a900460ff1660ff16105b8061334c575061332e30613c2a565b15801561334b5750600160008054906101000a900460ff1660ff16145b5b61338b576040517f08c379a000000000000000000000000000000000000000000000000000000000815260040161338290615c1f565b60405180910390fd5b60016000806101000a81548160ff021916908360ff16021790555080156133c8576001600060016101000a81548160ff0219169083151502179055505b6133d0613c4d565b6133dd6000801b83613a5f565b80156134365760008060016101000a81548160ff0219169083151502179055507f7f26b83ff96e1f2b6a682f133852f6798a09c465da95921460cefb3847402498600160405161342d9190615c87565b60405180910390a15b5050565b6134476000801b33612146565b613486576040517f08c379a000000000000000000000000000000000000000000000000000000000815260040161347d9061524d565b60405180910390fd5b8060ad8190555050565b61349d6000801b33612146565b6134dc576040517f08c379a00000000000000000000000000000000000000000000000000000000081526004016134d39061524d565b60405180910390fd5b8060ac60006101000a81548173ffffffffffffffffffffffffffffffffffffffff021916908373ffffffffffffffffffffffffffffffffffffffff16021790555050565b61352982610ce0565b61353281613a4b565b61353c8383613b48565b505050565b6060600060a460008673ffffffffffffffffffffffffffffffffffffffff1673ffffffffffffffffffffffffffffffffffffffff168152602001908152602001600020549050600080609e60008873ffffffffffffffffffffffffffffffffffffffff1673ffffffffffffffffffffffffffffffffffffffff1681526020019081526020016000206000877bffffffffffffffffffffffffffffffffffffffffffffffffffffffff19167bffffffffffffffffffffffffffffffffffffffffffffffffffffffff19168152602001908152602001600020604051806080016040529081600082015481526020016001820154815260200160028201548152602001600382015481525050905060008567ffffffffffffffff8111156136695761366861547d565b5b6040519080825280602002602001820160405280156136a257816020015b61368f613f8c565b8152602001906001900390816136875790505b509050600084036136cb5760996000836000015181526020019081526020016000206001015493505b5b6000801b8260000151141580156136fd57508360996000846000015181526020019081526020016000206002015411155b801561370857508583105b156138df5760001515609960008460000151815260200190815260200160002060030160149054906101000a900460ff1615151480156137ad57508773ffffffffffffffffffffffffffffffffffffffff16609960008460000151815260200190815260200160002060030160009054906101000a900473ffffffffffffffffffffffffffffffffffffffff1673ffffffffffffffffffffffffffffffffffffffff16145b1561388e5760996000836000015181526020019081526020016000206040518060a00160405290816000820154815260200160018201548152602001600282015481526020016003820160009054906101000a900473ffffffffffffffffffffffffffffffffffffffff1673ffffffffffffffffffffffffffffffffffffffff1673ffffffffffffffffffffffffffffffffffffffff1681526020016003820160149054906101000a900460ff16151515158152505081848151811061387657613875615755565b5b60200260200101819052508261388b9061592d565b92505b609d60008360600151815260200190815260200160002060405180608001604052908160008201548152602001600182015481526020016002820154815260200160038201548152505091506136cc565b828152809450505050509392505050565b60976020528060005260406000206000915090508060000154908060010154908060020154908060030160009054906101000a900473ffffffffffffffffffffffffffffffffffffffff16908060040160009054906101000a900473ffffffffffffffffffffffffffffffffffffffff16908060050160009054906101000a900473ffffffffffffffffffffffffffffffffffffffff16908060060154908060070154908060080154908060090160009054906101000a900460e01b90508a565b609d6020528060005260406000206000915090508060000154908060010154908060020154908060030154905084565b60007f01ffc9a7000000000000000000000000000000000000000000000000000000007bffffffffffffffffffffffffffffffffffffffffffffffffffffffff1916827bffffffffffffffffffffffffffffffffffffffffffffffffffffffff1916149050919050565b613a5c81613a57613b40565b613c9e565b50565b613a698282612146565b613b3c5760016065600084815260200190815260200160002060000160008373ffffffffffffffffffffffffffffffffffffffff1673ffffffffffffffffffffffffffffffffffffffff16815260200190815260200160002060006101000a81548160ff021916908315150217905550613ae1613b40565b73ffffffffffffffffffffffffffffffffffffffff168173ffffffffffffffffffffffffffffffffffffffff16837f2f8788117e7eff1d82e926ec794901d17c78024a50270940304540a733656f0d60405160405180910390a45b5050565b600033905090565b613b528282612146565b15613c265760006065600084815260200190815260200160002060000160008373ffffffffffffffffffffffffffffffffffffffff1673ffffffffffffffffffffffffffffffffffffffff16815260200190815260200160002060006101000a81548160ff021916908315150217905550613bcb613b40565b73ffffffffffffffffffffffffffffffffffffffff168173ffffffffffffffffffffffffffffffffffffffff16837ff6391f5c32d9c69d2a47ea670b442974b53935d1edc7fd64eb21e047a839171b60405160405180910390a45b5050565b6000808273ffffffffffffffffffffffffffffffffffffffff163b119050919050565b600060019054906101000a900460ff16613c9c576040517f08c379a0000000000000000000000000000000000000000000000000000000008152600401613c9390615d14565b60405180910390fd5b565b613ca88282612146565b613d1f57613cb581613d23565b613cc38360001c6020613d50565b604051602001613cd4929190615e13565b6040516020818303038152906040526040517f08c379a0000000000000000000000000000000000000000000000000000000008152600401613d169190615e86565b60405180910390fd5b5050565b6060613d498273ffffffffffffffffffffffffffffffffffffffff16601460ff16613d50565b9050919050565b606060006002836002613d639190615ea8565b613d6d919061543e565b67ffffffffffffffff811115613d8657613d8561547d565b5b6040519080825280601f01601f191660200182016040528015613db85781602001600182028036833780820191505090505b5090507f300000000000000000000000000000000000000000000000000000000000000081600081518110613df057613def615755565b5b60200101907effffffffffffffffffffffffffffffffffffffffffffffffffffffffffffff1916908160001a9053507f780000000000000000000000000000000000000000000000000000000000000081600181518110613e5457613e53615755565b5b60200101907effffffffffffffffffffffffffffffffffffffffffffffffffffffffffffff1916908160001a90535060006001846002613e949190615ea8565b613e9e919061543e565b90505b6001811115613f3e577f3031323334353637383961626364656600000000000000000000000000000000600f861660108110613ee057613edf615755565b5b1a60f81b828281518110613ef757613ef6615755565b5b60200101907effffffffffffffffffffffffffffffffffffffffffffffffffffffffffffff1916908160001a905350600485901c945080613f3790615975565b9050613ea1565b5060008414613f82576040517f08c379a0000000000000000000000000000000000000000000000000000000008152600401613f7990615f36565b60405180910390fd5b8091505092915050565b6040518060a00160405280600080191681526020016000815260200160008152602001600073ffffffffffffffffffffffffffffffffffffffff1681526020016000151581525090565b828054828255906000526020600020908101928215614065579160200282015b8281111561406457823573ffffffffffffffffffffffffffffffffffffffff168260006101000a81548173ffffffffffffffffffffffffffffffffffffffff021916908373ffffffffffffffffffffffffffffffffffffffff16021790555091602001919060010190613ff6565b5b5090506140729190614133565b5090565b604051806101400160405280600081526020016000815260200160008152602001600073ffffffffffffffffffffffffffffffffffffffff168152602001600073ffffffffffffffffffffffffffffffffffffffff168152602001600073ffffffffffffffffffffffffffffffffffffffff16815260200160008019168152602001600080191681526020016000801916815260200160007bffffffffffffffffffffffffffffffffffffffffffffffffffffffff191681525090565b5b8082111561414c576000816000905550600101614134565b5090565b6000604051905090565b600080fd5b600080fd5b60007fffffffff0000000000000000000000000000000000000000000000000000000082169050919050565b61419981614164565b81146141a457600080fd5b50565b6000813590506141b681614190565b92915050565b6000602082840312156141d2576141d161415a565b5b60006141e0848285016141a7565b91505092915050565b60008115159050919050565b6141fe816141e9565b82525050565b600060208201905061421960008301846141f5565b92915050565b600073ffffffffffffffffffffffffffffffffffffffff82169050919050565b600061424a8261421f565b9050919050565b61425a8161423f565b811461426557600080fd5b50565b60008135905061427781614251565b92915050565b600080604083850312156142945761429361415a565b5b60006142a285828601614268565b92505060206142b3858286016141a7565b9150509250929050565b6000819050919050565b6142d0816142bd565b82525050565b6000819050919050565b6142e9816142d6565b82525050565b6142f88161423f565b82525050565b614307816141e9565b82525050565b60a08201600082015161432360008501826142c7565b50602082015161433660208501826142e0565b50604082015161434960408501826142e0565b50606082015161435c60608501826142ef565b50608082015161436f60808501826142fe565b50505050565b600060a08201905061438a600083018461430d565b92915050565b614399816142d6565b81146143a457600080fd5b50565b6000813590506143b681614390565b92915050565b600080604083850312156143d3576143d261415a565b5b60006143e1858286016143a7565b92505060206143f2858286016143a7565b9150509250929050565b6144058161423f565b82525050565b600060208201905061442060008301846143fc565b92915050565b61442f816142bd565b82525050565b61443e816142d6565b82525050565b60006080820190506144596000830187614426565b6144666020830186614435565b6144736040830185614435565b6144806060830184614426565b95945050505050565b600060208201905061449e6000830184614435565b92915050565b6000602082840312156144ba576144b961415a565b5b60006144c884828501614268565b91505092915050565b6144da816142bd565b81146144e557600080fd5b50565b6000813590506144f7816144d1565b92915050565b6000602082840312156145135761451261415a565b5b6000614521848285016144e8565b91505092915050565b600060208201905061453f6000830184614426565b92915050565b600081519050919050565b600082825260208201905092915050565b60005b8381101561457f578082015181840152602081019050614564565b60008484015250505050565b6000601f19601f8301169050919050565b60006145a782614545565b6145b18185614550565b93506145c1818560208601614561565b6145ca8161458b565b840191505092915050565b600060208201905081810360008301526145ef818461459c565b905092915050565b6000806040838503121561460e5761460d61415a565b5b600061461c858286016144e8565b925050602061462d85828601614268565b9150509250929050565b6000819050919050565b600061465c6146576146528461421f565b614637565b61421f565b9050919050565b600061466e82614641565b9050919050565b600061468082614663565b9050919050565b61469081614675565b82525050565b60006020820190506146ab6000830184614687565b92915050565b600080fd5b600080fd5b600080fd5b60008083601f8401126146d6576146d56146b1565b5b8235905067ffffffffffffffff8111156146f3576146f26146b6565b5b60208301915083600182028301111561470f5761470e6146bb565b5b9250929050565b60008060008060008060a087890312156147335761473261415a565b5b600061474189828a01614268565b965050602061475289828a016141a7565b955050604061476389828a016143a7565b945050606061477489828a016143a7565b935050608087013567ffffffffffffffff8111156147955761479461415f565b5b6147a189828a016146c0565b92509250509295509295509295565b600060a0820190506147c56000830188614426565b6147d26020830187614435565b6147df6040830186614435565b6147ec60608301856143fc565b6147f960808301846141f5565b9695505050505050565b60008083601f840112614819576148186146b1565b5b8235905067ffffffffffffffff811115614836576148356146b6565b5b60208301915083610140820283011115614853576148526146bb565b5b9250929050565b60008083601f8401126148705761486f6146b1565b5b8235905067ffffffffffffffff81111561488d5761488c6146b6565b5b6020830191508360208202830111156148a9576148a86146bb565b5b9250929050565b600080600080604085870312156148ca576148c961415a565b5b600085013567ffffffffffffffff8111156148e8576148e761415f565b5b6148f487828801614803565b9450945050602085013567ffffffffffffffff8111156149175761491661415f565b5b6149238782880161485a565b925092505092959194509250565b6000602082840312156149475761494661415a565b5b6000614955848285016143a7565b91505092915050565b600060c0820190506149736000830189614426565b6149806020830188614426565b61498d6040830187614435565b61499a6060830186614435565b6149a76080830185614435565b6149b460a0830184614435565b979650505050505050565b60006149ca82614641565b9050919050565b60006149dc826149bf565b9050919050565b6149ec816149d1565b82525050565b6000602082019050614a0760008301846149e3565b92915050565b600060c082019050614a22600083018561430d565b81810360a0830152614a34818461459c565b90509392505050565b6000608082019050614a526000830187614435565b614a5f6020830186614426565b614a6c6040830185614426565b614a796060830184614426565b95945050505050565b600080600060608486031215614a9b57614a9a61415a565b5b6000614aa9868287016143a7565b9350506020614aba86828701614268565b9250506040614acb868287016143a7565b9150509250925092565b600081519050919050565b600082825260208201905092915050565b6000819050602082019050919050565b614b0a81614164565b82525050565b61014082016000820151614b2760008501826142e0565b506020820151614b3a60208501826142e0565b506040820151614b4d60408501826142e0565b506060820151614b6060608501826142ef565b506080820151614b7360808501826142ef565b5060a0820151614b8660a08501826142ef565b5060c0820151614b9960c08501826142c7565b5060e0820151614bac60e08501826142c7565b50610100820151614bc16101008501826142c7565b50610120820151614bd6610120850182614b01565b50505050565b6000614be88383614b10565b6101408301905092915050565b6000602082019050919050565b6000614c0d82614ad5565b614c178185614ae0565b9350614c2283614af1565b8060005b83811015614c53578151614c3a8882614bdc565b9750614c4583614bf5565b925050600181019050614c26565b5085935050505092915050565b60006020820190508181036000830152614c7a8184614c02565b905092915050565b60008060408385031215614c9957614c9861415a565b5b6000614ca7858286016143a7565b9250506020614cb885828601614268565b9150509250929050565b60008083601f840112614cd857614cd76146b1565b5b8235905067ffffffffffffffff811115614cf557614cf46146b6565b5b602083019150836020820283011115614d1157614d106146bb565b5b9250929050565b60008083601f840112614d2e57614d2d6146b1565b5b8235905067ffffffffffffffff811115614d4b57614d4a6146b6565b5b602083019150836020820283011115614d6757614d666146bb565b5b9250929050565b600080600080600060608688031215614d8a57614d8961415a565b5b6000614d98888289016143a7565b955050602086013567ffffffffffffffff811115614db957614db861415f565b5b614dc588828901614cc2565b9450945050604086013567ffffffffffffffff811115614de857614de761415f565b5b614df488828901614d18565b92509250509295509295909350565b6000614e0e8261421f565b9050919050565b614e1e81614e03565b8114614e2957600080fd5b50565b600081359050614e3b81614e15565b92915050565b600060208284031215614e5757614e5661415a565b5b6000614e6584828501614e2c565b91505092915050565b600080600060608486031215614e8757614e8661415a565b5b6000614e9586828701614268565b9350506020614ea6868287016141a7565b9250506040614eb7868287016143a7565b9150509250925092565b600081519050919050565b600082825260208201905092915050565b6000819050602082019050919050565b60a082016000820151614f0360008501826142c7565b506020820151614f1660208501826142e0565b506040820151614f2960408501826142e0565b506060820151614f3c60608501826142ef565b506080820151614f4f60808501826142fe565b50505050565b6000614f618383614eed565b60a08301905092915050565b6000602082019050919050565b6000614f8582614ec1565b614f8f8185614ecc565b9350614f9a83614edd565b8060005b83811015614fcb578151614fb28882614f55565b9750614fbd83614f6d565b925050600181019050614f9e565b5085935050505092915050565b60006020820190508181036000830152614ff28184614f7a565b905092915050565b61500381614164565b82525050565b60006101408201905061501f600083018d614435565b61502c602083018c614435565b615039604083018b614435565b615046606083018a6143fc565b61505360808301896143fc565b61506060a08301886143fc565b61506d60c0830187614426565b61507a60e0830186614426565b615088610100830185614426565b615096610120830184614ffa565b9b9a5050505050505050505050565b7f4e487b7100000000000000000000000000000000000000000000000000000000600052602260045260246000fd5b600060028204905060018216806150ec57607f821691505b6020821081036150ff576150fe6150a5565b5b50919050565b600082825260208201905092915050565b7f416363657373436f6e74726f6c3a2063616e206f6e6c792072656e6f756e636560008201527f20726f6c657320666f722073656c660000000000000000000000000000000000602082015250565b6000615172602f83615105565b915061517d82615116565b604082019050919050565b600060208201905081810360008301526151a181615165565b9050919050565b6151b1816141e9565b81146151bc57600080fd5b50565b6000815190506151ce816151a8565b92915050565b6000602082840312156151ea576151e961415a565b5b60006151f8848285016151bf565b91505092915050565b7f5345472330000000000000000000000000000000000000000000000000000000600082015250565b6000615237600583615105565b915061524282615201565b602082019050919050565b600060208201905081810360008301526152668161522a565b9050919050565b7f5345472331000000000000000000000000000000000000000000000000000000600082015250565b60006152a3600583615105565b91506152ae8261526d565b602082019050919050565b600060208201905081810360008301526152d281615296565b9050919050565b60008160601b9050919050565b60006152f1826152d9565b9050919050565b6000615303826152e6565b9050919050565b61531b6153168261423f565b6152f8565b82525050565b600081905092915050565b82818337600083830152505050565b60006153478385615321565b935061535483858461532c565b82840190509392505050565b600061536c828661530a565b60148201915061537d82848661533b565b9150819050949350505050565b7f5345472332000000000000000000000000000000000000000000000000000000600082015250565b60006153c0600583615105565b91506153cb8261538a565b602082019050919050565b600060208201905081810360008301526153ef816153b3565b9050919050565b600061540382848661533b565b91508190509392505050565b7f4e487b7100000000000000000000000000000000000000000000000000000000600052601160045260246000fd5b6000615449826142d6565b9150615454836142d6565b925082820190508082111561546c5761546b61540f565b5b92915050565b600082905092915050565b7f4e487b7100000000000000000000000000000000000000000000000000000000600052604160045260246000fd5b60008190508160005260206000209050919050565b60006020601f8301049050919050565b600082821b905092915050565b60006008830261550e7fffffffffffffffffffffffffffffffffffffffffffffffffffffffffffffffff826154d1565b61551886836154d1565b95508019841693508086168417925050509392505050565b600061554b615546615541846142d6565b614637565b6142d6565b9050919050565b6000819050919050565b61556583615530565b61557961557182615552565b8484546154de565b825550505050565b600090565b61558e615581565b61559981848461555c565b505050565b5b818110156155bd576155b2600082615586565b60018101905061559f565b5050565b601f821115615602576155d3816154ac565b6155dc846154c1565b810160208510156155eb578190505b6155ff6155f7856154c1565b83018261559e565b50505b505050565b600082821c905092915050565b600061562560001984600802615607565b1980831691505092915050565b600061563e8383615614565b9150826002028217905092915050565b6156588383615472565b67ffffffffffffffff8111156156715761567061547d565b5b61567b82546150d4565b6156868282856155c1565b6000601f8311600181146156b557600084156156a3578287013590505b6156ad8582615632565b865550615715565b601f1984166156c3866154ac565b60005b828110156156eb578489013582556001820191506020850194506020810190506156c6565b868310156157085784890135615704601f891682615614565b8355505b6001600288020188555050505b50505050505050565b600060608201905061573360008301866143fc565b6157406020830185614426565b61574d6040830184614ffa565b949350505050565b7f4e487b7100000000000000000000000000000000000000000000000000000000600052603260045260246000fd5b600061578f826142d6565b915061579a836142d6565b92508282039050818111156157b2576157b161540f565b5b92915050565b600080fd5b6157c68261458b565b810181811067ffffffffffffffff821117156157e5576157e461547d565b5b80604052505050565b60006157f8614150565b905061580482826157bd565b919050565b600061014082840312156158205761581f6157b8565b5b61582b6101406157ee565b9050600061583b848285016143a7565b600083015250602061584f848285016143a7565b6020830152506040615863848285016143a7565b604083015250606061587784828501614268565b606083015250608061588b84828501614268565b60808301525060a061589f84828501614268565b60a08301525060c06158b3848285016144e8565b60c08301525060e06158c7848285016144e8565b60e0830152506101006158dc848285016144e8565b610100830152506101206158f2848285016141a7565b6101208301525092915050565b600061014082840312156159165761591561415a565b5b600061592484828501615809565b91505092915050565b6000615938826142d6565b91507fffffffffffffffffffffffffffffffffffffffffffffffffffffffffffffffff820361596a5761596961540f565b5b600182019050919050565b6000615980826142d6565b9150600082036159935761599261540f565b5b600182039050919050565b6000815190506159ad81614390565b92915050565b6000602082840312156159c9576159c861415a565b5b60006159d78482850161599e565b91505092915050565b6000819050919050565b6159fb6159f6826142d6565b6159e0565b82525050565b6000615a0d82846159ea565b60208201915081905092915050565b600080fd5b600080fd5b600080fd5b60008083356001602003843603038112615a4857615a47615a1c565b5b80840192508235915067ffffffffffffffff821115615a6a57615a69615a21565b5b602083019250600182023603831315615a8657615a85615a26565b5b509250929050565b6000819050919050565b615aa9615aa4826142bd565b615a8e565b82525050565b6000615abb8285615a98565b602082019150615acb8284615a98565b6020820191508190509392505050565b615ae482614545565b67ffffffffffffffff811115615afd57615afc61547d565b5b615b0782546150d4565b615b128282856155c1565b600060209050601f831160018114615b455760008415615b33578287015190505b615b3d8582615632565b865550615ba5565b601f198416615b53866154ac565b60005b82811015615b7b57848901518255600182019150602085019450602081019050615b56565b86831015615b985784890151615b94601f891682615614565b8355505b6001600288020188555050505b505050505050565b7f496e697469616c697a61626c653a20636f6e747261637420697320616c72656160008201527f647920696e697469616c697a6564000000000000000000000000000000000000602082015250565b6000615c09602e83615105565b9150615c1482615bad565b604082019050919050565b60006020820190508181036000830152615c3881615bfc565b9050919050565b6000819050919050565b600060ff82169050919050565b6000615c71615c6c615c6784615c3f565b614637565b615c49565b9050919050565b615c8181615c56565b82525050565b6000602082019050615c9c6000830184615c78565b92915050565b7f496e697469616c697a61626c653a20636f6e7472616374206973206e6f74206960008201527f6e697469616c697a696e67000000000000000000000000000000000000000000602082015250565b6000615cfe602b83615105565b9150615d0982615ca2565b604082019050919050565b60006020820190508181036000830152615d2d81615cf1565b9050919050565b600081905092915050565b7f416363657373436f6e74726f6c3a206163636f756e7420000000000000000000600082015250565b6000615d75601783615d34565b9150615d8082615d3f565b601782019050919050565b600081519050919050565b6000615da182615d8b565b615dab8185615d34565b9350615dbb818560208601614561565b80840191505092915050565b7f206973206d697373696e6720726f6c6520000000000000000000000000000000600082015250565b6000615dfd601183615d34565b9150615e0882615dc7565b601182019050919050565b6000615e1e82615d68565b9150615e2a8285615d96565b9150615e3582615df0565b9150615e418284615d96565b91508190509392505050565b6000615e5882615d8b565b615e628185615105565b9350615e72818560208601614561565b615e7b8161458b565b840191505092915050565b60006020820190508181036000830152615ea08184615e4d565b905092915050565b6000615eb3826142d6565b9150615ebe836142d6565b9250828202615ecc816142d6565b91508282048414831517615ee357615ee261540f565b5b5092915050565b7f537472696e67733a20686578206c656e67746820696e73756666696369656e74600082015250565b6000615f20602083615105565b9150615f2b82615eea565b602082019050919050565b60006020820190508181036000830152615f4f81615f13565b905091905056fea2646970667358221220b71fc9fd0cf230191a5ae9f17418af9071d43f9267de79cd2fdada377526d2cc64736f6c63430008180033",
  "linkReferences": {},
  "deployedLinkReferences": {}
}