{
  "_format": "hh-sol-artifact-1",
  "contractName": "RemoteOrder",
  "sourceName": "contracts/remoteOrder.sol",
  "abi": [
    {
      "inputs": [],
      "stateMutability": "nonpayable",
      "type": "constructor"
    },
    {
      "anonymous": false,
      "inputs": [
        {
          "indexed": true,
          "internalType": "bytes32",
          "name": "id",
          "type": "bytes32"
        },
        {
          "indexed": true,
          "internalType": "address",
          "name": "executor",
          "type": "address"
        },
        {
          "indexed": true,
          "internalType": "uint256",
          "name": "amount",
          "type": "uint256"
        },
        {
          "indexed": false,
          "internalType": "address",
          "name": "rewardAsset",
          "type": "address"
        }
      ],
      "name": "Claimed",
      "type": "event"
    },
    {
      "anonymous": false,
      "inputs": [
        {
          "indexed": true,
          "internalType": "bytes32",
          "name": "id",
          "type": "bytes32"
        },
        {
          "indexed": true,
          "internalType": "address",
          "name": "orderer",
          "type": "address"
        },
        {
          "indexed": true,
          "internalType": "uint256",
          "name": "amount",
          "type": "uint256"
        },
        {
          "indexed": false,
          "internalType": "address",
          "name": "rewardAsset",
          "type": "address"
        }
      ],
      "name": "ClaimedRefund",
      "type": "event"
    },
    {
      "anonymous": false,
      "inputs": [
        {
          "indexed": true,
          "internalType": "bytes32",
          "name": "id",
          "type": "bytes32"
        },
        {
          "indexed": true,
          "internalType": "address",
          "name": "target",
          "type": "address"
        },
        {
          "indexed": false,
          "internalType": "uint256",
          "name": "amount",
          "type": "uint256"
        },
        {
          "indexed": false,
          "internalType": "address",
          "name": "asset",
          "type": "address"
        },
        {
          "indexed": true,
          "internalType": "address",
          "name": "sender",
          "type": "address"
        }
      ],
      "name": "Confirmation",
      "type": "event"
    },
    {
      "anonymous": false,
      "inputs": [
        {
          "indexed": true,
          "internalType": "uint256",
          "name": "confirmedCount",
          "type": "uint256"
        },
        {
          "indexed": true,
          "internalType": "uint256",
          "name": "batchSize",
          "type": "uint256"
        },
        {
          "indexed": true,
          "internalType": "address",
          "name": "sender",
          "type": "address"
        }
      ],
      "name": "ConfirmedBatch",
      "type": "event"
    },
    {
      "anonymous": false,
      "inputs": [
        {
          "indexed": false,
          "internalType": "uint8",
          "name": "version",
          "type": "uint8"
        }
      ],
      "name": "Initialized",
      "type": "event"
    },
    {
      "anonymous": false,
      "inputs": [
        {
          "indexed": true,
          "internalType": "bytes32",
          "name": "id",
          "type": "bytes32"
        },
        {
          "indexed": true,
          "internalType": "bytes4",
          "name": "destination",
          "type": "bytes4"
        },
        {
          "indexed": false,
          "internalType": "uint32",
          "name": "asset",
          "type": "uint32"
        },
        {
          "indexed": false,
          "internalType": "bytes32",
          "name": "targetAccount",
          "type": "bytes32"
        },
        {
          "indexed": false,
          "internalType": "uint256",
          "name": "amount",
          "type": "uint256"
        },
        {
          "indexed": false,
          "internalType": "address",
          "name": "rewardAsset",
          "type": "address"
        },
        {
          "indexed": false,
          "internalType": "uint256",
          "name": "insurance",
          "type": "uint256"
        },
        {
          "indexed": false,
          "internalType": "uint256",
          "name": "maxReward",
          "type": "uint256"
        },
        {
          "indexed": false,
          "internalType": "uint32",
          "name": "nonce",
          "type": "uint32"
        },
        {
          "indexed": false,
          "internalType": "address",
          "name": "sourceAccount",
          "type": "address"
        },
        {
          "indexed": false,
          "internalType": "uint256",
          "name": "orderTimestamp",
          "type": "uint256"
        }
      ],
      "name": "OrderCreated",
      "type": "event"
    },
    {
      "anonymous": false,
      "inputs": [
        {
          "indexed": true,
          "internalType": "bytes32",
          "name": "id",
          "type": "bytes32"
        },
        {
          "indexed": true,
          "internalType": "uint32",
          "name": "nonce",
          "type": "uint32"
        },
        {
          "indexed": true,
          "internalType": "address",
          "name": "sender",
          "type": "address"
        },
        {
          "indexed": false,
          "internalType": "uint256",
          "name": "orderTimestamp",
          "type": "uint256"
        }
      ],
      "name": "RemoteOrderCreated",
      "type": "event"
    },
    {
      "anonymous": false,
      "inputs": [
        {
          "indexed": true,
          "internalType": "bytes32",
          "name": "role",
          "type": "bytes32"
        },
        {
          "indexed": true,
          "internalType": "bytes32",
          "name": "previousAdminRole",
          "type": "bytes32"
        },
        {
          "indexed": true,
          "internalType": "bytes32",
          "name": "newAdminRole",
          "type": "bytes32"
        }
      ],
      "name": "RoleAdminChanged",
      "type": "event"
    },
    {
      "anonymous": false,
      "inputs": [
        {
          "indexed": true,
          "internalType": "bytes32",
          "name": "role",
          "type": "bytes32"
        },
        {
          "indexed": true,
          "internalType": "address",
          "name": "account",
          "type": "address"
        },
        {
          "indexed": true,
          "internalType": "address",
          "name": "sender",
          "type": "address"
        }
      ],
      "name": "RoleGranted",
      "type": "event"
    },
    {
      "anonymous": false,
      "inputs": [
        {
          "indexed": true,
          "internalType": "bytes32",
          "name": "role",
          "type": "bytes32"
        },
        {
          "indexed": true,
          "internalType": "address",
          "name": "account",
          "type": "address"
        },
        {
          "indexed": true,
          "internalType": "address",
          "name": "sender",
          "type": "address"
        }
      ],
      "name": "RoleRevoked",
      "type": "event"
    },
    {
      "stateMutability": "payable",
      "type": "fallback"
    },
    {
      "inputs": [],
      "name": "DEFAULT_ADMIN_ROLE",
      "outputs": [
        {
          "internalType": "bytes32",
          "name": "",
          "type": "bytes32"
        }
      ],
      "stateMutability": "view",
      "type": "function"
    },
    {
      "inputs": [
        {
          "internalType": "address",
          "name": "assetHere",
          "type": "address"
        },
        {
          "internalType": "uint32",
          "name": "assetThere",
          "type": "uint32"
        }
      ],
      "name": "addSupportedBridgeAsset",
      "outputs": [],
      "stateMutability": "nonpayable",
      "type": "function"
    },
    {
      "inputs": [
        {
          "internalType": "address payable",
          "name": "_attesters",
          "type": "address"
        }
      ],
      "name": "assignAttesters",
      "outputs": [],
      "stateMutability": "nonpayable",
      "type": "function"
    },
    {
      "inputs": [
        {
          "internalType": "address payable",
          "name": "_claimerGMP",
          "type": "address"
        }
      ],
      "name": "assignClaimerGMP",
      "outputs": [],
      "stateMutability": "nonpayable",
      "type": "function"
    },
    {
      "inputs": [
        {
          "internalType": "address",
          "name": "_openMarketPricer",
          "type": "address"
        }
      ],
      "name": "assignOpenMarketPricer",
      "outputs": [],
      "stateMutability": "nonpayable",
      "type": "function"
    },
    {
      "inputs": [],
      "name": "attesters",
      "outputs": [
        {
          "internalType": "contract AttestationsVerifierProofs",
          "name": "",
          "type": "address"
        }
      ],
      "stateMutability": "view",
      "type": "function"
    },
    {
      "inputs": [
        {
          "internalType": "uint256",
          "name": "amount",
          "type": "uint256"
        }
      ],
      "name": "calcProtocolFee",
      "outputs": [
        {
          "internalType": "uint256",
          "name": "",
          "type": "uint256"
        }
      ],
      "stateMutability": "view",
      "type": "function"
    },
    {
      "inputs": [
        {
          "internalType": "bytes32",
          "name": "orderId",
          "type": "bytes32"
        },
        {
          "internalType": "address",
          "name": "rewardAsset",
          "type": "address"
        },
        {
          "internalType": "uint256",
          "name": "maxReward",
          "type": "uint256"
        },
        {
          "internalType": "uint256",
          "name": "settledAmount",
          "type": "uint256"
        },
        {
          "internalType": "address",
          "name": "beneficiary",
          "type": "address"
        },
        {
          "internalType": "uint256",
          "name": "orderTimestamp",
          "type": "uint256"
        }
      ],
      "name": "checkIsClaimable",
      "outputs": [
        {
          "internalType": "bool",
          "name": "",
          "type": "bool"
        }
      ],
      "stateMutability": "view",
      "type": "function"
    },
    {
      "inputs": [
        {
          "internalType": "bytes32",
          "name": "orderId",
          "type": "bytes32"
        },
        {
          "internalType": "address",
          "name": "rewardAsset",
          "type": "address"
        },
        {
          "internalType": "uint256",
          "name": "maxReward",
          "type": "uint256"
        },
        {
          "internalType": "uint256",
          "name": "settledAmount",
          "type": "uint256"
        },
        {
          "internalType": "address",
          "name": "beneficiary",
          "type": "address"
        },
        {
          "internalType": "uint256",
          "name": "orderTimestamp",
          "type": "uint256"
        },
        {
          "internalType": "bytes32",
          "name": "_batchPayloadHash",
          "type": "bytes32"
        },
        {
          "internalType": "bytes",
          "name": "_batchPayload",
          "type": "bytes"
        }
      ],
      "name": "checkIsClaimableV2",
      "outputs": [
        {
          "internalType": "bool",
          "name": "",
          "type": "bool"
        }
      ],
      "stateMutability": "view",
      "type": "function"
    },
    {
      "inputs": [
        {
          "internalType": "bytes32",
          "name": "orderId",
          "type": "bytes32"
        },
        {
          "internalType": "uint256",
          "name": "orderTimestamp",
          "type": "uint256"
        },
        {
          "internalType": "address",
          "name": "rewardAsset",
          "type": "address"
        },
        {
          "internalType": "uint256",
          "name": "maxReward",
          "type": "uint256"
        }
      ],
      "name": "checkIsRefundable",
      "outputs": [
        {
          "internalType": "bool",
          "name": "",
          "type": "bool"
        }
      ],
      "stateMutability": "view",
      "type": "function"
    },
    {
      "inputs": [
        {
          "internalType": "uint256",
          "name": "orderTimestamp",
          "type": "uint256"
        }
      ],
      "name": "checkIsTimestampTooEarly",
      "outputs": [
        {
          "internalType": "bool",
          "name": "",
          "type": "bool"
        }
      ],
      "stateMutability": "view",
      "type": "function"
    },
    {
      "inputs": [
        {
          "internalType": "bytes32",
          "name": "orderId",
          "type": "bytes32"
        },
        {
          "internalType": "address",
          "name": "rewardAsset",
          "type": "address"
        },
        {
          "internalType": "uint256",
          "name": "maxReward",
          "type": "uint256"
        },
        {
          "internalType": "uint256",
          "name": "settledAmount",
          "type": "uint256"
        },
        {
          "internalType": "uint256",
          "name": "orderTimestamp",
          "type": "uint256"
        }
      ],
      "name": "claimPayout",
      "outputs": [],
      "stateMutability": "payable",
      "type": "function"
    },
    {
      "inputs": [
        {
          "internalType": "bytes32",
          "name": "orderId",
          "type": "bytes32"
        },
        {
          "internalType": "address",
          "name": "rewardAsset",
          "type": "address"
        },
        {
          "internalType": "uint256",
          "name": "maxReward",
          "type": "uint256"
        },
        {
          "internalType": "uint256",
          "name": "settledAmount",
          "type": "uint256"
        },
        {
          "internalType": "uint256",
          "name": "orderTimestamp",
          "type": "uint256"
        },
        {
          "internalType": "bytes32",
          "name": "_batchPayloadHash",
          "type": "bytes32"
        },
        {
          "internalType": "bytes",
          "name": "_batchPayload",
          "type": "bytes"
        }
      ],
      "name": "claimPayoutV2",
      "outputs": [],
      "stateMutability": "payable",
      "type": "function"
    },
    {
      "inputs": [
        {
          "internalType": "uint32",
          "name": "orderNonce",
          "type": "uint32"
        },
        {
          "internalType": "address",
          "name": "rewardAsset",
          "type": "address"
        },
        {
          "internalType": "uint256",
          "name": "maxReward",
          "type": "uint256"
        },
        {
          "internalType": "uint256",
          "name": "orderTimestamp",
          "type": "uint256"
        }
      ],
      "name": "claimRefund",
      "outputs": [],
      "stateMutability": "payable",
      "type": "function"
    },
    {
      "inputs": [
        {
          "internalType": "uint32",
          "name": "orderNonce",
          "type": "uint32"
        },
        {
          "internalType": "address",
          "name": "rewardAsset",
          "type": "address"
        },
        {
          "internalType": "uint256",
          "name": "maxReward",
          "type": "uint256"
        },
        {
          "internalType": "uint256",
          "name": "orderTimestamp",
          "type": "uint256"
        },
        {
          "internalType": "bytes32",
          "name": "_batchPayloadHash",
          "type": "bytes32"
        },
        {
          "internalType": "bytes",
          "name": "_batchPayload",
          "type": "bytes"
        }
      ],
      "name": "claimRefundV2",
      "outputs": [],
      "stateMutability": "payable",
      "type": "function"
    },
    {
      "inputs": [],
      "name": "claimerGMP",
      "outputs": [
        {
          "internalType": "contract ClaimerGMPV2",
          "name": "",
          "type": "address"
        }
      ],
      "stateMutability": "view",
      "type": "function"
    },
    {
      "inputs": [
        {
          "components": [
            {
              "internalType": "bytes32",
              "name": "id",
              "type": "bytes32"
            },
            {
              "internalType": "address payable",
              "name": "target",
              "type": "address"
            },
            {
              "internalType": "uint256",
              "name": "amount",
              "type": "uint256"
            },
            {
              "internalType": "address",
              "name": "asset",
              "type": "address"
            }
          ],
          "internalType": "struct RemoteOrder.ConfirmBatchOrderEntry[]",
          "name": "confirmBatch",
          "type": "tuple[]"
        }
      ],
      "name": "confirmBatchOrder",
      "outputs": [],
      "stateMutability": "payable",
      "type": "function"
    },
    {
      "inputs": [
        {
          "internalType": "bytes32",
          "name": "id",
          "type": "bytes32"
        },
        {
          "internalType": "address payable",
          "name": "target",
          "type": "address"
        },
        {
          "internalType": "uint256",
          "name": "amount",
          "type": "uint256"
        },
        {
          "internalType": "address",
          "name": "asset",
          "type": "address"
        }
      ],
      "name": "confirmOrder",
      "outputs": [
        {
          "internalType": "bool",
          "name": "",
          "type": "bool"
        }
      ],
      "stateMutability": "payable",
      "type": "function"
    },
    {
      "inputs": [
        {
          "internalType": "address",
          "name": "rewardAsset",
          "type": "address"
        },
        {
          "internalType": "uint256",
          "name": "maxReward",
          "type": "uint256"
        },
        {
          "internalType": "uint256",
          "name": "orderTimestamp",
          "type": "uint256"
        }
      ],
      "name": "constructInitialPayloadHash",
      "outputs": [
        {
          "internalType": "bytes32",
          "name": "",
          "type": "bytes32"
        }
      ],
      "stateMutability": "pure",
      "type": "function"
    },
    {
      "inputs": [],
      "name": "currentProtocolFee",
      "outputs": [
        {
          "internalType": "uint256",
          "name": "",
          "type": "uint256"
        }
      ],
      "stateMutability": "view",
      "type": "function"
    },
    {
      "inputs": [
        {
          "internalType": "address",
          "name": "asset",
          "type": "address"
        },
        {
          "internalType": "uint256",
          "name": "amount",
          "type": "uint256"
        },
        {
          "internalType": "address",
          "name": "beneficiary",
          "type": "address"
        }
      ],
      "name": "emergencyWithdraw",
      "outputs": [],
      "stateMutability": "nonpayable",
      "type": "function"
    },
    {
      "inputs": [
        {
          "internalType": "address",
          "name": "asset",
          "type": "address"
        },
        {
          "internalType": "uint256",
          "name": "amount",
          "type": "uint256"
        }
      ],
      "name": "ensureAmountWithinAcceptedRange",
      "outputs": [
        {
          "internalType": "bool",
          "name": "",
          "type": "bool"
        }
      ],
      "stateMutability": "view",
      "type": "function"
    },
    {
      "inputs": [
        {
          "internalType": "address",
          "name": "assetHere",
          "type": "address"
        }
      ],
      "name": "ensureAssetIsSupported",
      "outputs": [
        {
          "internalType": "bool",
          "name": "",
          "type": "bool"
        }
      ],
      "stateMutability": "view",
      "type": "function"
    },
    {
      "inputs": [],
      "name": "escrowGMP",
      "outputs": [
        {
          "internalType": "contract EscrowGMP",
          "name": "",
          "type": "address"
        }
      ],
      "stateMutability": "view",
      "type": "function"
    },
    {
      "inputs": [
        {
          "internalType": "address",
          "name": "requester",
          "type": "address"
        },
        {
          "internalType": "uint32",
          "name": "nonce",
          "type": "uint32"
        }
      ],
      "name": "generateId",
      "outputs": [
        {
          "internalType": "bytes32",
          "name": "",
          "type": "bytes32"
        }
      ],
      "stateMutability": "view",
      "type": "function"
    },
    {
      "inputs": [
        {
          "internalType": "address",
          "name": "requester",
          "type": "address"
        },
        {
          "internalType": "uint32",
          "name": "nonce",
          "type": "uint32"
        }
      ],
      "name": "generateIdZero",
      "outputs": [
        {
          "internalType": "bytes32",
          "name": "",
          "type": "bytes32"
        }
      ],
      "stateMutability": "view",
      "type": "function"
    },
    {
      "inputs": [],
      "name": "getOrderTimeout",
      "outputs": [
        {
          "internalType": "uint256",
          "name": "",
          "type": "uint256"
        }
      ],
      "stateMutability": "view",
      "type": "function"
    },
    {
      "inputs": [
        {
          "internalType": "bytes32",
          "name": "role",
          "type": "bytes32"
        }
      ],
      "name": "getRoleAdmin",
      "outputs": [
        {
          "internalType": "bytes32",
          "name": "",
          "type": "bytes32"
        }
      ],
      "stateMutability": "view",
      "type": "function"
    },
    {
      "inputs": [
        {
          "internalType": "bytes32",
          "name": "role",
          "type": "bytes32"
        },
        {
          "internalType": "address",
          "name": "account",
          "type": "address"
        }
      ],
      "name": "grantRole",
      "outputs": [],
      "stateMutability": "nonpayable",
      "type": "function"
    },
    {
      "inputs": [
        {
          "internalType": "bytes32",
          "name": "role",
          "type": "bytes32"
        },
        {
          "internalType": "address",
          "name": "account",
          "type": "address"
        }
      ],
      "name": "hasRole",
      "outputs": [
        {
          "internalType": "bool",
          "name": "",
          "type": "bool"
        }
      ],
      "stateMutability": "view",
      "type": "function"
    },
    {
      "inputs": [
        {
          "internalType": "address",
          "name": "_owner",
          "type": "address"
        }
      ],
      "name": "initialize",
      "outputs": [],
      "stateMutability": "nonpayable",
      "type": "function"
    },
    {
      "inputs": [],
      "name": "isHalted",
      "outputs": [
        {
          "internalType": "bool",
          "name": "",
          "type": "bool"
        }
      ],
      "stateMutability": "view",
      "type": "function"
    },
    {
      "inputs": [
        {
          "internalType": "bytes32",
          "name": "id",
          "type": "bytes32"
        }
      ],
      "name": "isKnownId",
      "outputs": [
        {
          "internalType": "bool",
          "name": "",
          "type": "bool"
        }
      ],
      "stateMutability": "view",
      "type": "function"
    },
    {
      "inputs": [
        {
          "internalType": "address",
          "name": "",
          "type": "address"
        }
      ],
      "name": "maxAllowedAmounts",
      "outputs": [
        {
          "internalType": "uint256",
          "name": "",
          "type": "uint256"
        }
      ],
      "stateMutability": "view",
      "type": "function"
    },
    {
      "inputs": [
        {
          "internalType": "address",
          "name": "",
          "type": "address"
        }
      ],
      "name": "minAllowedAmounts",
      "outputs": [
        {
          "internalType": "uint256",
          "name": "",
          "type": "uint256"
        }
      ],
      "stateMutability": "view",
      "type": "function"
    },
    {
      "inputs": [],
      "name": "openMarketPricer",
      "outputs": [
        {
          "internalType": "contract OpenMarketPricer",
          "name": "",
          "type": "address"
        }
      ],
      "stateMutability": "view",
      "type": "function"
    },
    {
      "inputs": [],
      "name": "operator",
      "outputs": [
        {
          "internalType": "address",
          "name": "",
          "type": "address"
        }
      ],
      "stateMutability": "view",
      "type": "function"
    },
    {
      "inputs": [
        {
          "internalType": "bytes4",
          "name": "destination",
          "type": "bytes4"
        },
        {
          "internalType": "uint32",
          "name": "asset",
          "type": "uint32"
        },
        {
          "internalType": "bytes32",
          "name": "targetAccount",
          "type": "bytes32"
        },
        {
          "internalType": "uint256",
          "name": "amount",
          "type": "uint256"
        },
        {
          "internalType": "address",
          "name": "rewardAsset",
          "type": "address"
        },
        {
          "internalType": "uint256",
          "name": "insurance",
          "type": "uint256"
        },
        {
          "internalType": "uint256",
          "name": "maxReward",
          "type": "uint256"
        }
      ],
      "name": "order",
      "outputs": [
        {
          "internalType": "bytes32",
          "name": "",
          "type": "bytes32"
        }
      ],
      "stateMutability": "payable",
      "type": "function"
    },
    {
      "inputs": [
        {
          "internalType": "bytes",
          "name": "input",
          "type": "bytes"
        }
      ],
      "name": "orderMemoryData",
      "outputs": [
        {
          "internalType": "bytes32",
          "name": "",
          "type": "bytes32"
        }
      ],
      "stateMutability": "payable",
      "type": "function"
    },
    {
      "inputs": [
        {
          "internalType": "bytes32",
          "name": "",
          "type": "bytes32"
        }
      ],
      "name": "orderPayloads",
      "outputs": [
        {
          "internalType": "bytes32",
          "name": "",
          "type": "bytes32"
        }
      ],
      "stateMutability": "view",
      "type": "function"
    },
    {
      "inputs": [],
      "name": "orderTimeout",
      "outputs": [
        {
          "internalType": "uint256",
          "name": "",
          "type": "uint256"
        }
      ],
      "stateMutability": "view",
      "type": "function"
    },
    {
      "inputs": [
        {
          "internalType": "bytes32",
          "name": "",
          "type": "bytes32"
        }
      ],
      "name": "orderWinners",
      "outputs": [
        {
          "internalType": "address",
          "name": "",
          "type": "address"
        }
      ],
      "stateMutability": "view",
      "type": "function"
    },
    {
      "inputs": [],
      "name": "protocolFeesCollector",
      "outputs": [
        {
          "internalType": "address",
          "name": "",
          "type": "address"
        }
      ],
      "stateMutability": "view",
      "type": "function"
    },
    {
      "inputs": [
        {
          "internalType": "bytes32",
          "name": "role",
          "type": "bytes32"
        },
        {
          "internalType": "address",
          "name": "account",
          "type": "address"
        }
      ],
      "name": "renounceRole",
      "outputs": [],
      "stateMutability": "nonpayable",
      "type": "function"
    },
    {
      "inputs": [
        {
          "internalType": "bytes32",
          "name": "role",
          "type": "bytes32"
        },
        {
          "internalType": "address",
          "name": "account",
          "type": "address"
        }
      ],
      "name": "revokeRole",
      "outputs": [],
      "stateMutability": "nonpayable",
      "type": "function"
    },
    {
      "inputs": [
        {
          "internalType": "address",
          "name": "asset",
          "type": "address"
        },
        {
          "internalType": "uint256",
          "name": "minAmount",
          "type": "uint256"
        },
        {
          "internalType": "uint256",
          "name": "maxAmount",
          "type": "uint256"
        }
      ],
      "name": "setAmountRange",
      "outputs": [],
      "stateMutability": "nonpayable",
      "type": "function"
    },
    {
      "inputs": [
        {
          "internalType": "uint256",
          "name": "_protocolFee",
          "type": "uint256"
        }
      ],
      "name": "setCurrentProtocolFee",
      "outputs": [],
      "stateMutability": "nonpayable",
      "type": "function"
    },
    {
      "inputs": [
        {
          "internalType": "contract EscrowGMP",
          "name": "_escrowGMP",
          "type": "address"
        }
      ],
      "name": "setEscrowGMP",
      "outputs": [],
      "stateMutability": "nonpayable",
      "type": "function"
    },
    {
      "inputs": [
        {
          "internalType": "address",
          "name": "_operator",
          "type": "address"
        }
      ],
      "name": "setOperator",
      "outputs": [],
      "stateMutability": "nonpayable",
      "type": "function"
    },
    {
      "inputs": [
        {
          "internalType": "uint256",
          "name": "_orderTimeout",
          "type": "uint256"
        }
      ],
      "name": "setOrderTimeout",
      "outputs": [],
      "stateMutability": "nonpayable",
      "type": "function"
    },
    {
      "inputs": [
        {
          "internalType": "address",
          "name": "_protocolFeesCollector",
          "type": "address"
        }
      ],
      "name": "setProtocolFeesCollector",
      "outputs": [],
      "stateMutability": "nonpayable",
      "type": "function"
    },
    {
      "inputs": [
        {
          "internalType": "bytes4",
          "name": "_sourceId",
          "type": "bytes4"
        }
      ],
      "name": "setSourceId",
      "outputs": [],
      "stateMutability": "nonpayable",
      "type": "function"
    },
    {
      "inputs": [
        {
          "internalType": "bytes32",
          "name": "_version",
          "type": "bytes32"
        }
      ],
      "name": "setVersion",
      "outputs": [],
      "stateMutability": "nonpayable",
      "type": "function"
    },
    {
      "inputs": [
        {
          "internalType": "uint256",
          "name": "amount",
          "type": "uint256"
        },
        {
          "internalType": "address",
          "name": "asset",
          "type": "address"
        },
        {
          "internalType": "address",
          "name": "beneficiary",
          "type": "address"
        },
        {
          "internalType": "address",
          "name": "sender",
          "type": "address"
        },
        {
          "internalType": "uint8",
          "name": "GMPAction",
          "type": "uint8"
        },
        {
          "internalType": "bytes32",
          "name": "orderId",
          "type": "bytes32"
        }
      ],
      "name": "settlePayoutWithFeesCall",
      "outputs": [],
      "stateMutability": "payable",
      "type": "function"
    },
    {
      "inputs": [],
      "name": "sourceId",
      "outputs": [
        {
          "internalType": "bytes4",
          "name": "",
          "type": "bytes4"
        }
      ],
      "stateMutability": "view",
      "type": "function"
    },
    {
      "inputs": [
        {
          "internalType": "address",
          "name": "",
          "type": "address"
        }
      ],
      "name": "supportedAssets",
      "outputs": [
        {
          "internalType": "uint32",
          "name": "",
          "type": "uint32"
        }
      ],
      "stateMutability": "view",
      "type": "function"
    },
    {
      "inputs": [
        {
          "internalType": "bytes4",
          "name": "interfaceId",
          "type": "bytes4"
        }
      ],
      "name": "supportsInterface",
      "outputs": [
        {
          "internalType": "bool",
          "name": "",
          "type": "bool"
        }
      ],
      "stateMutability": "view",
      "type": "function"
    },
    {
      "inputs": [],
      "name": "turnOffHalt",
      "outputs": [],
      "stateMutability": "nonpayable",
      "type": "function"
    },
    {
      "inputs": [],
      "name": "turnOnHalt",
      "outputs": [],
      "stateMutability": "nonpayable",
      "type": "function"
    },
    {
      "inputs": [],
      "name": "version",
      "outputs": [
        {
          "internalType": "bytes32",
          "name": "",
          "type": "bytes32"
        }
      ],
      "stateMutability": "view",
      "type": "function"
    },
    {
      "stateMutability": "payable",
      "type": "receive"
    }
  ],
  "bytecode": "0x60806040523480156200001157600080fd5b50620000226200002860201b60201c565b620001d2565b600060019054906101000a900460ff16156200007b576040517f08c379a0000000000000000000000000000000000000000000000000000000008152600401620000729062000175565b60405180910390fd5b60ff801660008054906101000a900460ff1660ff1614620000ec5760ff6000806101000a81548160ff021916908360ff1602179055507f7f26b83ff96e1f2b6a682f133852f6798a09c465da95921460cefb384740249860ff604051620000e39190620001b5565b60405180910390a15b565b600082825260208201905092915050565b7f496e697469616c697a61626c653a20636f6e747261637420697320696e69746960008201527f616c697a696e6700000000000000000000000000000000000000000000000000602082015250565b60006200015d602783620000ee565b91506200016a82620000ff565b604082019050919050565b6000602082019050818103600083015262000190816200014e565b9050919050565b600060ff82169050919050565b620001af8162000197565b82525050565b6000602082019050620001cc6000830184620001a4565b92915050565b615f5080620001e26000396000f3fe6080604052600436106103995760003560e01c806391d14854116101dc578063cee7380411610102578063dac8a7a0116100a0578063e96e74311161006f578063e96e743114610dda578063e97b807114610e05578063f4953cb214610e30578063f735544d14610e5b576103a0565b8063dac8a7a014610cfa578063db7a6aa714610d23578063e0e84a9e14610d60578063e822cdba14610d9d576103a0565b8063d4cb7899116100dc578063d4cb789914610c4f578063d547741f14610c78578063d82ee62114610ca1578063dac5dc3514610cbd576103a0565b8063cee7380414610bbe578063d069aab914610bfb578063d0eccac514610c26576103a0565b8063b3ab15fb1161017a578063c4d66de811610149578063c4d66de814610b18578063c7ff158414610b41578063ca5f81b514610b6c578063cb7a18c214610b95576103a0565b8063b3ab15fb14610a4a578063b967f45914610a73578063ba20600414610ab0578063bd81579e14610adb576103a0565b80639c32a66c116101b65780639c32a66c1461098e578063a217fddf146109b9578063a5db52db146109e4578063a796b62814610a21576103a0565b806391d14854146108fd57806396bb543a1461093a5780639815fc9a14610965576103a0565b80633562c20b116102c1578063570ca7351161025f57806373b3e5041161022e57806373b3e5041461082a5780637dba853c1461086757806381813c8b146108a45780638ebba576146108c0576103a0565b8063570ca7351461078a57806358317a4d146107b557806364a47927146107f25780636a91373e1461080e576103a0565b80634f4170f61161029b5780634f4170f6146106ea57806354fd4d5014610706578063551512de1461073157806356591d591461075a576103a0565b80633562c20b1461066857806336568abe146106915780634f3f0432146106ba576103a0565b80631b5d00ad116103395780632750092c116103085780632750092c1461059c5780632bef3922146105d95780632f2ff15d1461061657806331d2b5f81461063f576103a0565b80631b5d00ad146104f45780632178dc9f1461051d57806323728d3214610534578063248a9ca31461055f576103a0565b806301ffc9a71161037557806301ffc9a7146104145780630ef917ed1461045157806313f1cea11461047a5780631b3035a4146104b7576103a0565b8062118882146103a2578062cfe24f146103b957806301a8f065146103e4576103a0565b366103a057005b005b3480156103ae57600080fd5b506103b7610e77565b005b3480156103c557600080fd5b506103ce610ee0565b6040516103db9190613e03565b60405180910390f35b6103fe60048036038101906103f99190613f1a565b610f06565b60405161040b9190613f9c565b60405180910390f35b34801561042057600080fd5b5061043b6004803603810190610436919061400f565b611133565b6040516104489190613f9c565b60405180910390f35b34801561045d57600080fd5b506104786004803603810190610473919061403c565b6111ad565b005b34801561048657600080fd5b506104a1600480360381019061049c919061403c565b61123d565b6040516104ae9190614078565b60405180910390f35b3480156104c357600080fd5b506104de60048036038101906104d99190614093565b611255565b6040516104eb91906140cf565b60405180910390f35b34801561050057600080fd5b5061051b60048036038101906105169190614126565b611288565b005b34801561052957600080fd5b50610532611336565b005b34801561054057600080fd5b5061054961139f565b6040516105569190614078565b60405180910390f35b34801561056b57600080fd5b5061058660048036038101906105819190614093565b6113a5565b6040516105939190614175565b60405180910390f35b3480156105a857600080fd5b506105c360048036038101906105be9190614126565b6113c5565b6040516105d09190614175565b60405180910390f35b3480156105e557600080fd5b5061060060048036038101906105fb91906142d6565b611426565b60405161060d9190613f9c565b60405180910390f35b34801561062257600080fd5b5061063d600480360381019061063891906143a8565b61153f565b005b34801561064b57600080fd5b506106666004803603810190610661919061403c565b611560565b005b34801561067457600080fd5b5061068f600480360381019061068a9190614426565b6115f0565b005b34801561069d57600080fd5b506106b860048036038101906106b391906143a8565b611680565b005b6106d460048036038101906106cf9190614453565b611703565b6040516106e19190614175565b60405180910390f35b61070460048036038101906106ff919061449c565b611a9c565b005b34801561071257600080fd5b5061071b611d8d565b6040516107289190614175565b60405180910390f35b34801561073d57600080fd5b5061075860048036038101906107539190614545565b611d93565b005b610774600480360381019061076f9190614598565b611df1565b6040516107819190614175565b60405180910390f35b34801561079657600080fd5b5061079f611efa565b6040516107ac91906140cf565b60405180910390f35b3480156107c157600080fd5b506107dc60048036038101906107d7919061463a565b611f20565b6040516107e99190614175565b60405180910390f35b61080c6004803603810190610807919061468d565b611f56565b005b61082860048036038101906108239190614784565b6120f3565b005b34801561083657600080fd5b50610851600480360381019061084c9190614126565b6122c4565b60405161085e9190614175565b60405180910390f35b34801561087357600080fd5b5061088e60048036038101906108899190614093565b612333565b60405161089b9190613f9c565b60405180910390f35b6108be60048036038101906108b99190614811565b6123de565b005b3480156108cc57600080fd5b506108e760048036038101906108e2919061403c565b612454565b6040516108f49190614078565b60405180910390f35b34801561090957600080fd5b50610924600480360381019061091f91906143a8565b61246c565b6040516109319190613f9c565b60405180910390f35b34801561094657600080fd5b5061094f6124d7565b60405161095c9190614899565b60405180910390f35b34801561097157600080fd5b5061098c600480360381019061098791906148b4565b6124fd565b005b34801561099a57600080fd5b506109a361258d565b6040516109b09190614902565b60405180910390f35b3480156109c557600080fd5b506109ce6125b3565b6040516109db9190614175565b60405180910390f35b3480156109f057600080fd5b50610a0b6004803603810190610a06919061491d565b6125ba565b604051610a189190613f9c565b60405180910390f35b348015610a2d57600080fd5b50610a486004803603810190610a4391906148b4565b61266e565b005b348015610a5657600080fd5b50610a716004803603810190610a6c919061403c565b6126fe565b005b348015610a7f57600080fd5b50610a9a6004803603810190610a9591906149aa565b61278e565b604051610aa79190613f9c565b60405180910390f35b348015610abc57600080fd5b50610ac5612852565b604051610ad29190614078565b60405180910390f35b348015610ae757600080fd5b50610b026004803603810190610afd919061403c565b612858565b604051610b0f91906149f9565b60405180910390f35b348015610b2457600080fd5b50610b3f6004803603810190610b3a919061403c565b61287b565b005b348015610b4d57600080fd5b50610b56612a3e565b604051610b639190613f9c565b60405180910390f35b348015610b7857600080fd5b50610b936004803603810190610b8e9190614093565b612a51565b005b348015610ba157600080fd5b50610bbc6004803603810190610bb7919061463a565b612aa7565b005b348015610bca57600080fd5b50610be56004803603810190610be09190614a14565b612b80565b604051610bf29190613f9c565b60405180910390f35b348015610c0757600080fd5b50610c10612c78565b604051610c1d9190614a8a565b60405180910390f35b348015610c3257600080fd5b50610c4d6004803603810190610c489190614aa5565b612c8b565b005b348015610c5b57600080fd5b50610c766004803603810190610c71919061400f565b612ce1565b005b348015610c8457600080fd5b50610c9f6004803603810190610c9a91906143a8565b612d4e565b005b610cbb6004803603810190610cb69190614b32565b612d6f565b005b348015610cc957600080fd5b50610ce46004803603810190610cdf9190614aa5565b612fa9565b604051610cf19190614078565b60405180910390f35b348015610d0657600080fd5b50610d216004803603810190610d1c9190614aa5565b612fce565b005b348015610d2f57600080fd5b50610d4a6004803603810190610d459190614093565b613024565b604051610d579190614175565b60405180910390f35b348015610d6c57600080fd5b50610d876004803603810190610d829190614aa5565b61303c565b604051610d949190613f9c565b60405180910390f35b348015610da957600080fd5b50610dc46004803603810190610dbf919061403c565b613055565b604051610dd19190613f9c565b60405180910390f35b348015610de657600080fd5b50610def6130ee565b604051610dfc9190614ba0565b60405180910390f35b348015610e1157600080fd5b50610e1a613114565b604051610e2791906140cf565b60405180910390f35b348015610e3c57600080fd5b50610e4561313a565b604051610e529190614078565b60405180910390f35b610e756004803603810190610e709190614bbb565b613144565b005b610e846000801b3361246c565b610ec3576040517f08c379a0000000000000000000000000000000000000000000000000000000008152600401610eba90614c93565b60405180910390fd5b600060d360006101000a81548160ff021916908315150217905550565b60ca60009054906101000a900473ffffffffffffffffffffffffffffffffffffffff1681565b600060d360009054906101000a900460ff1615610f58576040517f08c379a0000000000000000000000000000000000000000000000000000000008152600401610f4f90614cff565b60405180910390fd5b60008585858533604051602001610f73959493929190614d2e565b6040516020818303038152906040528051906020012090506000801b60cd60008381526020019081526020016000205414610fe3576040517f08c379a0000000000000000000000000000000000000000000000000000000008152600401610fda90614dcd565b60405180910390fd5b8560cd600083815260200190815260200160002081905550600073ffffffffffffffffffffffffffffffffffffffff168373ffffffffffffffffffffffffffffffffffffffff16036110735783341015611072576040517f08c379a000000000000000000000000000000000000000000000000000000000815260040161106990614e39565b60405180910390fd5b5b61107f848487336131bc565b6110be576040517f08c379a00000000000000000000000000000000000000000000000000000000081526004016110b590614e39565b60405180910390fd5b3373ffffffffffffffffffffffffffffffffffffffff168573ffffffffffffffffffffffffffffffffffffffff16877f9b6b927a15db2ff3d6b64c3fe4884ab3f2a07a59ef5a477a9f314bc729bf4180878760405161111e929190614e59565b60405180910390a46001915050949350505050565b60007f7965db0b000000000000000000000000000000000000000000000000000000007bffffffffffffffffffffffffffffffffffffffffffffffffffffffff1916827bffffffffffffffffffffffffffffffffffffffffffffffffffffffff191614806111a657506111a5826132ff565b5b9050919050565b6111ba6000801b3361246c565b6111f9576040517f08c379a00000000000000000000000000000000000000000000000000000000081526004016111f090614c93565b60405180910390fd5b8060cb60006101000a81548173ffffffffffffffffffffffffffffffffffffffff021916908373ffffffffffffffffffffffffffffffffffffffff16021790555050565b60d06020528060005260406000206000915090505481565b60ce6020528060005260406000206000915054906101000a900473ffffffffffffffffffffffffffffffffffffffff1681565b6112956000801b3361246c565b6112d4576040517f08c379a00000000000000000000000000000000000000000000000000000000081526004016112cb90614c93565b60405180910390fd5b8060cf60008473ffffffffffffffffffffffffffffffffffffffff1673ffffffffffffffffffffffffffffffffffffffff16815260200190815260200160002060006101000a81548163ffffffff021916908363ffffffff1602179055505050565b6113436000801b3361246c565b611382576040517f08c379a000000000000000000000000000000000000000000000000000000000815260040161137990614c93565b60405180910390fd5b600160d360006101000a81548160ff021916908315150217905550565b60d25481565b600060656000838152602001908152602001600020600101549050919050565b6000828260006040516020016113dd93929190614ebd565b604051602081830303815290604052805190602001206000801b604051602001611408929190614ef4565b60405160208183030381529060405280519060200120905092915050565b60008073ffffffffffffffffffffffffffffffffffffffff1660d660009054906101000a900473ffffffffffffffffffffffffffffffffffffffff1673ffffffffffffffffffffffffffffffffffffffff16036114865760009050611533565b60d660009054906101000a900473ffffffffffffffffffffffffffffffffffffffff1673ffffffffffffffffffffffffffffffffffffffff16638ade88218a8a8a8a8a8a8a8a6040518963ffffffff1660e01b81526004016114ef989796959493929190614f9c565b602060405180830381865afa15801561150c573d6000803e3d6000fd5b505050506040513d601f19601f82011682018060405250810190611530919061504d565b90505b98975050505050505050565b611548826113a5565b61155181613369565b61155b838361337d565b505050565b61156d6000801b3361246c565b6115ac576040517f08c379a00000000000000000000000000000000000000000000000000000000081526004016115a390614c93565b60405180910390fd5b8060cc60006101000a81548173ffffffffffffffffffffffffffffffffffffffff021916908373ffffffffffffffffffffffffffffffffffffffff16021790555050565b6115fd6000801b3361246c565b61163c576040517f08c379a000000000000000000000000000000000000000000000000000000000815260040161163390614c93565b60405180910390fd5b8060d560006101000a81548173ffffffffffffffffffffffffffffffffffffffff021916908373ffffffffffffffffffffffffffffffffffffffff16021790555050565b61168861345e565b73ffffffffffffffffffffffffffffffffffffffff168173ffffffffffffffffffffffffffffffffffffffff16146116f5576040517f08c379a00000000000000000000000000000000000000000000000000000000081526004016116ec906150ec565b60405180910390fd5b6116ff8282613466565b5050565b600060d360009054906101000a900460ff1615611755576040517f08c379a000000000000000000000000000000000000000000000000000000000815260040161174c90614cff565b60405180910390fd5b6000439050600061176633836122c4565b90506000806000806000806000808b8060200190518101906117889190615175565b975097509750975097509750975097506117a184613055565b6117e0576040517f08c379a00000000000000000000000000000000000000000000000000000000081526004016117d790615277565b60405180910390fd5b60d360019054906101000a900460e01b7bffffffffffffffffffffffffffffffffffffffffffffffffffffffff1916887bffffffffffffffffffffffffffffffffffffffffffffffffffffffff19160361183957600080fd5b611843848361278e565b611882576040517f08c379a0000000000000000000000000000000000000000000000000000000008152600401611879906152e3565b60405180910390fd5b600073ffffffffffffffffffffffffffffffffffffffff168473ffffffffffffffffffffffffffffffffffffffff16036118fd578134146118f8576040517f08c379a00000000000000000000000000000000000000000000000000000000081526004016118ef90614dcd565b60405180910390fd5b61192b565b61192a3330848773ffffffffffffffffffffffffffffffffffffffff16613548909392919063ffffffff16565b5b60d560009054906101000a900473ffffffffffffffffffffffffffffffffffffffff1673ffffffffffffffffffffffffffffffffffffffff16630d8dd7638a86854260405160200161197f93929190615303565b604051602081830303815290604052805190602001206040518363ffffffff1660e01b81526004016119b2929190614ef4565b6020604051808303816000875af11580156119d1573d6000803e3d6000fd5b505050506040513d601f19601f820116820180604052508101906119f5919061504d565b611a34576040517f08c379a0000000000000000000000000000000000000000000000000000000008152600401611a2b90615386565b60405180910390fd5b3373ffffffffffffffffffffffffffffffffffffffff168a63ffffffff168a7f890b8d3b4a67090e510bd923450d355a7fb174ec26ddaf6bdb82fc453e27aa7f42604051611a829190614078565b60405180910390a4889a5050505050505050505050919050565b60d360009054906101000a900460ff1615611aec576040517f08c379a0000000000000000000000000000000000000000000000000000000008152600401611ae390614cff565b60405180910390fd5b4260c95484611afb91906153d5565b1115611b3c576040517f08c379a0000000000000000000000000000000000000000000000000000000008152600401611b3390615455565b60405180910390fd5b6000611b4833886122c4565b90506000611b5633896113c5565b90506000611b6683878a8a612b80565b90506000611b7683888b8b612b80565b90508180611b815750805b611bc0576040517f08c379a0000000000000000000000000000000000000000000000000000000008152600401611bb7906154c1565b60405180910390fd5b60d560009054906101000a900473ffffffffffffffffffffffffffffffffffffffff1673ffffffffffffffffffffffffffffffffffffffff166313b2512a856040518263ffffffff1660e01b8152600401611c1b9190614175565b600060405180830381600087803b158015611c3557600080fd5b505af1158015611c49573d6000803e3d6000fd5b5050505060d560009054906101000a900473ffffffffffffffffffffffffffffffffffffffff1673ffffffffffffffffffffffffffffffffffffffff166313b2512a846040518263ffffffff1660e01b8152600401611ca89190614175565b600060405180830381600087803b158015611cc257600080fd5b505af1158015611cd6573d6000803e3d6000fd5b50505050611ce6888a33306131bc565b611d25576040517f08c379a0000000000000000000000000000000000000000000000000000000008152600401611d1c90614e39565b60405180910390fd5b873373ffffffffffffffffffffffffffffffffffffffff1683611d485784611d4a565b855b7fc6832f33d5e3e2c3ba480fe926469147cc18d6b337aaa032a6708eb6c6ceeb8c8c604051611d7991906140cf565b60405180910390a450505050505050505050565b60d45481565b611da06000801b3361246c565b611ddf576040517f08c379a0000000000000000000000000000000000000000000000000000000008152600401611dd690614c93565b60405180910390fd5b611deb828483306131bc565b50505050565b600060d360009054906101000a900460ff1615611e43576040517f08c379a0000000000000000000000000000000000000000000000000000000008152600401611e3a90614cff565b60405180910390fd5b60008888888888888833604051602001611e649897969594939291906154e1565b60405160208183030381529060405290506000611e8082611703565b9050897bffffffffffffffffffffffffffffffffffffffffffffffffffffffff1916817f3bb399125b923176baf5098f432689e4843dee54b68daf1d7cadd91d99a636018b8b8b8b8b8b433342604051611ee29998979695949392919061555f565b60405180910390a38092505050979650505050505050565b60d760009054906101000a900473ffffffffffffffffffffffffffffffffffffffff1681565b6000838383604051602001611f3793929190615303565b6040516020818303038152906040528051906020012090509392505050565b60d360009054906101000a900460ff1615611fa6576040517f08c379a0000000000000000000000000000000000000000000000000000000008152600401611f9d90614cff565b60405180910390fd5b611fb68787878733888888611426565b611ff5576040517f08c379a0000000000000000000000000000000000000000000000000000000008152600401611fec90615638565b60405180910390fd5b60d560009054906101000a900473ffffffffffffffffffffffffffffffffffffffff1673ffffffffffffffffffffffffffffffffffffffff1663a77715d0886040518263ffffffff1660e01b81526004016120509190614175565b600060405180830381600087803b15801561206a57600080fd5b505af115801561207e573d6000803e3d6000fd5b505050506000840361208e578493505b61209a848733306135d1565b833373ffffffffffffffffffffffffffffffffffffffff16887fba78a15e874441cf1871e3d2633ba91540bab663ae8664088ace7d60009ddd65896040516120e291906140cf565b60405180910390a450505050505050565b60d760009054906101000a900473ffffffffffffffffffffffffffffffffffffffff1673ffffffffffffffffffffffffffffffffffffffff163373ffffffffffffffffffffffffffffffffffffffff1614612183576040517f08c379a000000000000000000000000000000000000000000000000000000000815260040161217a90614c93565b60405180910390fd5b61218f868686866135d1565b60008260ff16036121ec5760008473ffffffffffffffffffffffffffffffffffffffff16827fba78a15e874441cf1871e3d2633ba91540bab663ae8664088ace7d60009ddd65886040516121e391906140cf565b60405180910390a45b60018260ff160361224857858473ffffffffffffffffffffffffffffffffffffffff16827fc6832f33d5e3e2c3ba480fe926469147cc18d6b337aaa032a6708eb6c6ceeb8c8860405161223f91906140cf565b60405180910390a45b60068260ff16036122bc578273ffffffffffffffffffffffffffffffffffffffff168473ffffffffffffffffffffffffffffffffffffffff16827f9b6b927a15db2ff3d6b64c3fe4884ab3f2a07a59ef5a477a9f314bc729bf418089896040516122b3929190614e59565b60405180910390a45b505050505050565b6000828260d360019054906101000a900460e01b6040516020016122ea93929190615658565b604051602081830303815290604052805190602001206000801b604051602001612315929190614ef4565b60405160208183030381529060405280519060200120905092915050565b60008060001b60d560009054906101000a900473ffffffffffffffffffffffffffffffffffffffff1673ffffffffffffffffffffffffffffffffffffffff1663dd50923e846040518263ffffffff1660e01b81526004016123949190614175565b602060405180830381865afa1580156123b1573d6000803e3d6000fd5b505050506040513d601f19601f820116820180604052508101906123d5919061568f565b14159050919050565b60d360009054906101000a900460ff161561242e576040517f08c379a000000000000000000000000000000000000000000000000000000000815260040161242590614cff565b60405180910390fd5b61244e848484846000801b60405180602001604052806000815250611a9c565b50505050565b60d16020528060005260406000206000915090505481565b60006065600084815260200190815260200160002060000160008373ffffffffffffffffffffffffffffffffffffffff1673ffffffffffffffffffffffffffffffffffffffff16815260200190815260200160002060009054906101000a900460ff16905092915050565b60d660009054906101000a900473ffffffffffffffffffffffffffffffffffffffff1681565b61250a6000801b3361246c565b612549576040517f08c379a000000000000000000000000000000000000000000000000000000000815260040161254090614c93565b60405180910390fd5b8060d660006101000a81548173ffffffffffffffffffffffffffffffffffffffff021916908373ffffffffffffffffffffffffffffffffffffffff16021790555050565b60cc60009054906101000a900473ffffffffffffffffffffffffffffffffffffffff1681565b6000801b81565b600060d660009054906101000a900473ffffffffffffffffffffffffffffffffffffffff1673ffffffffffffffffffffffffffffffffffffffff1663e9148ffb8888888888886040518763ffffffff1660e01b8152600401612621969594939291906156bc565b602060405180830381865afa15801561263e573d6000803e3d6000fd5b505050506040513d601f19601f82011682018060405250810190612662919061504d565b90509695505050505050565b61267b6000801b3361246c565b6126ba576040517f08c379a00000000000000000000000000000000000000000000000000000000081526004016126b190614c93565b60405180910390fd5b8060ca60006101000a81548173ffffffffffffffffffffffffffffffffffffffff021916908373ffffffffffffffffffffffffffffffffffffffff16021790555050565b61270b6000801b3361246c565b61274a576040517f08c379a000000000000000000000000000000000000000000000000000000000815260040161274190614c93565b60405180910390fd5b8060d760006101000a81548173ffffffffffffffffffffffffffffffffffffffff021916908373ffffffffffffffffffffffffffffffffffffffff16021790555050565b60008060d160008573ffffffffffffffffffffffffffffffffffffffff1673ffffffffffffffffffffffffffffffffffffffff168152602001908152602001600020549050600060d060008673ffffffffffffffffffffffffffffffffffffffff1673ffffffffffffffffffffffffffffffffffffffff1681526020019081526020016000205490506000821480156128275750600081145b156128375760019250505061284c565b8184101580156128475750808411155b925050505b92915050565b60c95481565b60cf6020528060005260406000206000915054906101000a900463ffffffff1681565b60008060019054906101000a900460ff161590508080156128ac5750600160008054906101000a900460ff1660ff16105b806128d957506128bb30613682565b1580156128d85750600160008054906101000a900460ff1660ff16145b5b612918576040517f08c379a000000000000000000000000000000000000000000000000000000000815260040161290f9061578f565b60405180910390fd5b60016000806101000a81548160ff021916908360ff1602179055508015612955576001600060016101000a81548160ff0219169083151502179055505b600073ffffffffffffffffffffffffffffffffffffffff168273ffffffffffffffffffffffffffffffffffffffff16036129c4576040517f08c379a00000000000000000000000000000000000000000000000000000000081526004016129bb90614c93565b60405180910390fd5b6129d16000801b8361337d565b6129d96136a5565b6129e16136f6565b8015612a3a5760008060016101000a81548160ff0219169083151502179055507f7f26b83ff96e1f2b6a682f133852f6798a09c465da95921460cefb38474024986001604051612a3191906157ea565b60405180910390a15b5050565b60d360009054906101000a900460ff1681565b612a5e6000801b3361246c565b612a9d576040517f08c379a0000000000000000000000000000000000000000000000000000000008152600401612a9490614c93565b60405180910390fd5b8060d48190555050565b612ab46000801b3361246c565b612af3576040517f08c379a0000000000000000000000000000000000000000000000000000000008152600401612aea90614c93565b60405180910390fd5b8160d160008573ffffffffffffffffffffffffffffffffffffffff1673ffffffffffffffffffffffffffffffffffffffff168152602001908152602001600020819055508060d060008573ffffffffffffffffffffffffffffffffffffffff1673ffffffffffffffffffffffffffffffffffffffff16815260200190815260200160002081905550505050565b6000612b8b8461303c565b15612b995760009050612c70565b6000838386604051602001612bb093929190615303565b604051602081830303815290604052805190602001209050600060d560009054906101000a900473ffffffffffffffffffffffffffffffffffffffff1673ffffffffffffffffffffffffffffffffffffffff1663cb9871d9886040518263ffffffff1660e01b8152600401612c259190614175565b602060405180830381865afa158015612c42573d6000803e3d6000fd5b505050506040513d601f19601f82011682018060405250810190612c66919061568f565b9050818114925050505b949350505050565b60d360019054906101000a900460e01b81565b612c986000801b3361246c565b612cd7576040517f08c379a0000000000000000000000000000000000000000000000000000000008152600401612cce90614c93565b60405180910390fd5b8060c98190555050565b612cee6000801b3361246c565b612d2d576040517f08c379a0000000000000000000000000000000000000000000000000000000008152600401612d2490614c93565b60405180910390fd5b8060d360016101000a81548163ffffffff021916908360e01c021790555050565b612d57826113a5565b612d6081613369565b612d6a8383613466565b505050565b60d360009054906101000a900460ff1615612dbf576040517f08c379a0000000000000000000000000000000000000000000000000000000008152600401612db690614cff565b60405180910390fd5b60008060005b84849050811015612f1857600073ffffffffffffffffffffffffffffffffffffffff16858583818110612dfb57612dfa615805565b5b9050608002016060016020810190612e13919061403c565b73ffffffffffffffffffffffffffffffffffffffff1603612e6057848482818110612e4157612e40615805565b5b9050608002016040013582612e5691906153d5565b9150348211612f0d575b612ef8858583818110612e7657612e75615805565b5b90506080020160000135868684818110612e9357612e92615805565b5b9050608002016020016020810190612eab91906148b4565b878785818110612ebe57612ebd615805565b5b90506080020160400135888886818110612edb57612eda615805565b5b9050608002016060016020810190612ef3919061403c565b610f06565b15612f0c578280612f0890615834565b9350505b5b806001019050612dc5565b50348114612f5b576040517f08c379a0000000000000000000000000000000000000000000000000000000008152600401612f52906158c8565b60405180910390fd5b3373ffffffffffffffffffffffffffffffffffffffff1684849050837f6fa7448ce5bbe23aad605192a99ac2b8aedaeb46e3ee8644d05a6d45d34d666660405160405180910390a450505050565b6000620f424060d25483612fbd91906158e8565b612fc79190615959565b9050919050565b612fdb6000801b3361246c565b61301a576040517f08c379a000000000000000000000000000000000000000000000000000000000815260040161301190614c93565b60405180910390fd5b8060d28190555050565b60cd6020528060005260406000206000915090505481565b600060c9548261304c91906153d5565b42109050919050565b60008073ffffffffffffffffffffffffffffffffffffffff168273ffffffffffffffffffffffffffffffffffffffff1614806130e75750600060cf60008473ffffffffffffffffffffffffffffffffffffffff1673ffffffffffffffffffffffffffffffffffffffff16815260200190815260200160002060009054906101000a900463ffffffff1663ffffffff1614155b9050919050565b60d560009054906101000a900473ffffffffffffffffffffffffffffffffffffffff1681565b60cb60009054906101000a900473ffffffffffffffffffffffffffffffffffffffff1681565b600060c954905090565b60d360009054906101000a900460ff1615613194576040517f08c379a000000000000000000000000000000000000000000000000000000000815260040161318b90614cff565b60405180910390fd5b6131b585858585856000801b60405180602001604052806000815250611f56565b5050505050565b60006131c661374f565b600085036131d757600190506132ef565b600073ffffffffffffffffffffffffffffffffffffffff168373ffffffffffffffffffffffffffffffffffffffff160361321457600090506132ef565b600073ffffffffffffffffffffffffffffffffffffffff168473ffffffffffffffffffffffffffffffffffffffff16036132bd5760008373ffffffffffffffffffffffffffffffffffffffff168660405161326e906159bb565b60006040518083038185875af1925050503d80600081146132ab576040519150601f19603f3d011682016040523d82523d6000602084013e6132b0565b606091505b50509050809150506132ef565b6132ea8284878773ffffffffffffffffffffffffffffffffffffffff16613548909392919063ffffffff16565b600190505b6132f761379e565b949350505050565b60007f01ffc9a7000000000000000000000000000000000000000000000000000000007bffffffffffffffffffffffffffffffffffffffffffffffffffffffff1916827bffffffffffffffffffffffffffffffffffffffffffffffffffffffff1916149050919050565b61337a8161337561345e565b6137a8565b50565b613387828261246c565b61345a5760016065600084815260200190815260200160002060000160008373ffffffffffffffffffffffffffffffffffffffff1673ffffffffffffffffffffffffffffffffffffffff16815260200190815260200160002060006101000a81548160ff0219169083151502179055506133ff61345e565b73ffffffffffffffffffffffffffffffffffffffff168173ffffffffffffffffffffffffffffffffffffffff16837f2f8788117e7eff1d82e926ec794901d17c78024a50270940304540a733656f0d60405160405180910390a45b5050565b600033905090565b613470828261246c565b156135445760006065600084815260200190815260200160002060000160008373ffffffffffffffffffffffffffffffffffffffff1673ffffffffffffffffffffffffffffffffffffffff16815260200190815260200160002060006101000a81548160ff0219169083151502179055506134e961345e565b73ffffffffffffffffffffffffffffffffffffffff168173ffffffffffffffffffffffffffffffffffffffff16837ff6391f5c32d9c69d2a47ea670b442974b53935d1edc7fd64eb21e047a839171b60405160405180910390a45b5050565b6135cb846323b872dd60e01b858585604051602401613569939291906159d0565b604051602081830303815290604052907bffffffffffffffffffffffffffffffffffffffffffffffffffffffff19166020820180517bffffffffffffffffffffffffffffffffffffffffffffffffffffffff838183161783525050505061382d565b50505050565b60008060d254116135e35760006135ed565b6135ec85612fa9565b5b905061361d818560cb60009054906101000a900473ffffffffffffffffffffffffffffffffffffffff16856131bc565b801561363c575061363b81866136339190615a07565b8585856131bc565b5b61367b576040517f08c379a0000000000000000000000000000000000000000000000000000000008152600401613672906158c8565b60405180910390fd5b5050505050565b6000808273ffffffffffffffffffffffffffffffffffffffff163b119050919050565b600060019054906101000a900460ff166136f4576040517f08c379a00000000000000000000000000000000000000000000000000000000081526004016136eb90615aad565b60405180910390fd5b565b600060019054906101000a900460ff16613745576040517f08c379a000000000000000000000000000000000000000000000000000000000815260040161373c90615aad565b60405180910390fd5b61374d6138f5565b565b600260975403613794576040517f08c379a000000000000000000000000000000000000000000000000000000000815260040161378b90615b19565b60405180910390fd5b6002609781905550565b6001609781905550565b6137b2828261246c565b613829576137bf8161394e565b6137cd8360001c602061397b565b6040516020016137de929190615c18565b6040516020818303038152906040526040517f08c379a00000000000000000000000000000000000000000000000000000000081526004016138209190615c8b565b60405180910390fd5b5050565b600061388f826040518060400160405280602081526020017f5361666545524332303a206c6f772d6c6576656c2063616c6c206661696c65648152508573ffffffffffffffffffffffffffffffffffffffff16613bb79092919063ffffffff16565b90506000815114806138b15750808060200190518101906138b0919061504d565b5b6138f0576040517f08c379a00000000000000000000000000000000000000000000000000000000081526004016138e790615d1f565b60405180910390fd5b505050565b600060019054906101000a900460ff16613944576040517f08c379a000000000000000000000000000000000000000000000000000000000815260040161393b90615aad565b60405180910390fd5b6001609781905550565b60606139748273ffffffffffffffffffffffffffffffffffffffff16601460ff1661397b565b9050919050565b60606000600283600261398e91906158e8565b61399891906153d5565b67ffffffffffffffff8111156139b1576139b06141ab565b5b6040519080825280601f01601f1916602001820160405280156139e35781602001600182028036833780820191505090505b5090507f300000000000000000000000000000000000000000000000000000000000000081600081518110613a1b57613a1a615805565b5b60200101907effffffffffffffffffffffffffffffffffffffffffffffffffffffffffffff1916908160001a9053507f780000000000000000000000000000000000000000000000000000000000000081600181518110613a7f57613a7e615805565b5b60200101907effffffffffffffffffffffffffffffffffffffffffffffffffffffffffffff1916908160001a90535060006001846002613abf91906158e8565b613ac991906153d5565b90505b6001811115613b69577f3031323334353637383961626364656600000000000000000000000000000000600f861660108110613b0b57613b0a615805565b5b1a60f81b828281518110613b2257613b21615805565b5b60200101907effffffffffffffffffffffffffffffffffffffffffffffffffffffffffffff1916908160001a905350600485901c945080613b6290615d3f565b9050613acc565b5060008414613bad576040517f08c379a0000000000000000000000000000000000000000000000000000000008152600401613ba490615db4565b60405180910390fd5b8091505092915050565b6060613bc68484600085613bcf565b90509392505050565b606082471015613c14576040517f08c379a0000000000000000000000000000000000000000000000000000000008152600401613c0b90615e46565b60405180910390fd5b6000808673ffffffffffffffffffffffffffffffffffffffff168587604051613c3d9190615e97565b60006040518083038185875af1925050503d8060008114613c7a576040519150601f19603f3d011682016040523d82523d6000602084013e613c7f565b606091505b5091509150613c9087838387613c9c565b92505050949350505050565b60608315613cfe576000835103613cf657613cb685613d11565b613cf5576040517f08c379a0000000000000000000000000000000000000000000000000000000008152600401613cec90615efa565b60405180910390fd5b5b829050613d09565b613d088383613d34565b5b949350505050565b6000808273ffffffffffffffffffffffffffffffffffffffff163b119050919050565b600082511115613d475781518083602001fd5b806040517f08c379a0000000000000000000000000000000000000000000000000000000008152600401613d7b9190615c8b565b60405180910390fd5b600073ffffffffffffffffffffffffffffffffffffffff82169050919050565b6000819050919050565b6000613dc9613dc4613dbf84613d84565b613da4565b613d84565b9050919050565b6000613ddb82613dae565b9050919050565b6000613ded82613dd0565b9050919050565b613dfd81613de2565b82525050565b6000602082019050613e186000830184613df4565b92915050565b6000604051905090565b600080fd5b600080fd5b6000819050919050565b613e4581613e32565b8114613e5057600080fd5b50565b600081359050613e6281613e3c565b92915050565b6000613e7382613d84565b9050919050565b613e8381613e68565b8114613e8e57600080fd5b50565b600081359050613ea081613e7a565b92915050565b6000819050919050565b613eb981613ea6565b8114613ec457600080fd5b50565b600081359050613ed681613eb0565b92915050565b6000613ee782613d84565b9050919050565b613ef781613edc565b8114613f0257600080fd5b50565b600081359050613f1481613eee565b92915050565b60008060008060808587031215613f3457613f33613e28565b5b6000613f4287828801613e53565b9450506020613f5387828801613e91565b9350506040613f6487828801613ec7565b9250506060613f7587828801613f05565b91505092959194509250565b60008115159050919050565b613f9681613f81565b82525050565b6000602082019050613fb16000830184613f8d565b92915050565b60007fffffffff0000000000000000000000000000000000000000000000000000000082169050919050565b613fec81613fb7565b8114613ff757600080fd5b50565b60008135905061400981613fe3565b92915050565b60006020828403121561402557614024613e28565b5b600061403384828501613ffa565b91505092915050565b60006020828403121561405257614051613e28565b5b600061406084828501613f05565b91505092915050565b61407281613ea6565b82525050565b600060208201905061408d6000830184614069565b92915050565b6000602082840312156140a9576140a8613e28565b5b60006140b784828501613e53565b91505092915050565b6140c981613edc565b82525050565b60006020820190506140e460008301846140c0565b92915050565b600063ffffffff82169050919050565b614103816140ea565b811461410e57600080fd5b50565b600081359050614120816140fa565b92915050565b6000806040838503121561413d5761413c613e28565b5b600061414b85828601613f05565b925050602061415c85828601614111565b9150509250929050565b61416f81613e32565b82525050565b600060208201905061418a6000830184614166565b92915050565b600080fd5b600080fd5b6000601f19601f8301169050919050565b7f4e487b7100000000000000000000000000000000000000000000000000000000600052604160045260246000fd5b6141e38261419a565b810181811067ffffffffffffffff82111715614202576142016141ab565b5b80604052505050565b6000614215613e1e565b905061422182826141da565b919050565b600067ffffffffffffffff821115614241576142406141ab565b5b61424a8261419a565b9050602081019050919050565b82818337600083830152505050565b600061427961427484614226565b61420b565b90508281526020810184848401111561429557614294614195565b5b6142a0848285614257565b509392505050565b600082601f8301126142bd576142bc614190565b5b81356142cd848260208601614266565b91505092915050565b600080600080600080600080610100898b0312156142f7576142f6613e28565b5b60006143058b828c01613e53565b98505060206143168b828c01613f05565b97505060406143278b828c01613ec7565b96505060606143388b828c01613ec7565b95505060806143498b828c01613f05565b94505060a061435a8b828c01613ec7565b93505060c061436b8b828c01613e53565b92505060e089013567ffffffffffffffff81111561438c5761438b613e2d565b5b6143988b828c016142a8565b9150509295985092959890939650565b600080604083850312156143bf576143be613e28565b5b60006143cd85828601613e53565b92505060206143de85828601613f05565b9150509250929050565b60006143f382613edc565b9050919050565b614403816143e8565b811461440e57600080fd5b50565b600081359050614420816143fa565b92915050565b60006020828403121561443c5761443b613e28565b5b600061444a84828501614411565b91505092915050565b60006020828403121561446957614468613e28565b5b600082013567ffffffffffffffff81111561448757614486613e2d565b5b614493848285016142a8565b91505092915050565b60008060008060008060c087890312156144b9576144b8613e28565b5b60006144c789828a01614111565b96505060206144d889828a01613f05565b95505060406144e989828a01613ec7565b94505060606144fa89828a01613ec7565b935050608061450b89828a01613e53565b92505060a087013567ffffffffffffffff81111561452c5761452b613e2d565b5b61453889828a016142a8565b9150509295509295509295565b60008060006060848603121561455e5761455d613e28565b5b600061456c86828701613f05565b935050602061457d86828701613ec7565b925050604061458e86828701613f05565b9150509250925092565b600080600080600080600060e0888a0312156145b7576145b6613e28565b5b60006145c58a828b01613ffa565b97505060206145d68a828b01614111565b96505060406145e78a828b01613e53565b95505060606145f88a828b01613ec7565b94505060806146098a828b01613f05565b93505060a061461a8a828b01613ec7565b92505060c061462b8a828b01613ec7565b91505092959891949750929550565b60008060006060848603121561465357614652613e28565b5b600061466186828701613f05565b935050602061467286828701613ec7565b925050604061468386828701613ec7565b9150509250925092565b600080600080600080600060e0888a0312156146ac576146ab613e28565b5b60006146ba8a828b01613e53565b97505060206146cb8a828b01613f05565b96505060406146dc8a828b01613ec7565b95505060606146ed8a828b01613ec7565b94505060806146fe8a828b01613ec7565b93505060a061470f8a828b01613e53565b92505060c088013567ffffffffffffffff8111156147305761472f613e2d565b5b61473c8a828b016142a8565b91505092959891949750929550565b600060ff82169050919050565b6147618161474b565b811461476c57600080fd5b50565b60008135905061477e81614758565b92915050565b60008060008060008060c087890312156147a1576147a0613e28565b5b60006147af89828a01613ec7565b96505060206147c089828a01613f05565b95505060406147d189828a01613f05565b94505060606147e289828a01613f05565b93505060806147f389828a0161476f565b92505060a061480489828a01613e53565b9150509295509295509295565b6000806000806080858703121561482b5761482a613e28565b5b600061483987828801614111565b945050602061484a87828801613f05565b935050604061485b87828801613ec7565b925050606061486c87828801613ec7565b91505092959194509250565b600061488382613dd0565b9050919050565b61489381614878565b82525050565b60006020820190506148ae600083018461488a565b92915050565b6000602082840312156148ca576148c9613e28565b5b60006148d884828501613e91565b91505092915050565b60006148ec82613dd0565b9050919050565b6148fc816148e1565b82525050565b600060208201905061491760008301846148f3565b92915050565b60008060008060008060c0878903121561493a57614939613e28565b5b600061494889828a01613e53565b965050602061495989828a01613f05565b955050604061496a89828a01613ec7565b945050606061497b89828a01613ec7565b935050608061498c89828a01613f05565b92505060a061499d89828a01613ec7565b9150509295509295509295565b600080604083850312156149c1576149c0613e28565b5b60006149cf85828601613f05565b92505060206149e085828601613ec7565b9150509250929050565b6149f3816140ea565b82525050565b6000602082019050614a0e60008301846149ea565b92915050565b60008060008060808587031215614a2e57614a2d613e28565b5b6000614a3c87828801613e53565b9450506020614a4d87828801613ec7565b9350506040614a5e87828801613f05565b9250506060614a6f87828801613ec7565b91505092959194509250565b614a8481613fb7565b82525050565b6000602082019050614a9f6000830184614a7b565b92915050565b600060208284031215614abb57614aba613e28565b5b6000614ac984828501613ec7565b91505092915050565b600080fd5b600080fd5b60008083601f840112614af257614af1614190565b5b8235905067ffffffffffffffff811115614b0f57614b0e614ad2565b5b602083019150836080820283011115614b2b57614b2a614ad7565b5b9250929050565b60008060208385031215614b4957614b48613e28565b5b600083013567ffffffffffffffff811115614b6757614b66613e2d565b5b614b7385828601614adc565b92509250509250929050565b6000614b8a82613dd0565b9050919050565b614b9a81614b7f565b82525050565b6000602082019050614bb56000830184614b91565b92915050565b600080600080600060a08688031215614bd757614bd6613e28565b5b6000614be588828901613e53565b9550506020614bf688828901613f05565b9450506040614c0788828901613ec7565b9350506060614c1888828901613ec7565b9250506080614c2988828901613ec7565b9150509295509295909350565b600082825260208201905092915050565b7f524f233000000000000000000000000000000000000000000000000000000000600082015250565b6000614c7d600483614c36565b9150614c8882614c47565b602082019050919050565b60006020820190508181036000830152614cac81614c70565b9050919050565b7f524f233200000000000000000000000000000000000000000000000000000000600082015250565b6000614ce9600483614c36565b9150614cf482614cb3565b602082019050919050565b60006020820190508181036000830152614d1881614cdc565b9050919050565b614d2881613e68565b82525050565b600060a082019050614d436000830188614166565b614d506020830187614d1f565b614d5d6040830186614069565b614d6a60608301856140c0565b614d7760808301846140c0565b9695505050505050565b7f524f233700000000000000000000000000000000000000000000000000000000600082015250565b6000614db7600483614c36565b9150614dc282614d81565b602082019050919050565b60006020820190508181036000830152614de681614daa565b9050919050565b7f524f233800000000000000000000000000000000000000000000000000000000600082015250565b6000614e23600483614c36565b9150614e2e82614ded565b602082019050919050565b60006020820190508181036000830152614e5281614e16565b9050919050565b6000604082019050614e6e6000830185614069565b614e7b60208301846140c0565b9392505050565b6000819050919050565b6000614ea7614ea2614e9d84614e82565b613da4565b61474b565b9050919050565b614eb781614e8c565b82525050565b6000606082019050614ed260008301866140c0565b614edf60208301856149ea565b614eec6040830184614eae565b949350505050565b6000604082019050614f096000830185614166565b614f166020830184614166565b9392505050565b600081519050919050565b600082825260208201905092915050565b60005b83811015614f57578082015181840152602081019050614f3c565b60008484015250505050565b6000614f6e82614f1d565b614f788185614f28565b9350614f88818560208601614f39565b614f918161419a565b840191505092915050565b600061010082019050614fb2600083018b614166565b614fbf602083018a6140c0565b614fcc6040830189614069565b614fd96060830188614069565b614fe660808301876140c0565b614ff360a0830186614069565b61500060c0830185614166565b81810360e08301526150128184614f63565b90509998505050505050505050565b61502a81613f81565b811461503557600080fd5b50565b60008151905061504781615021565b92915050565b60006020828403121561506357615062613e28565b5b600061507184828501615038565b91505092915050565b7f416363657373436f6e74726f6c3a2063616e206f6e6c792072656e6f756e636560008201527f20726f6c657320666f722073656c660000000000000000000000000000000000602082015250565b60006150d6602f83614c36565b91506150e18261507a565b604082019050919050565b60006020820190508181036000830152615105816150c9565b9050919050565b60008151905061511b81613fe3565b92915050565b600081519050615130816140fa565b92915050565b60008151905061514581613e3c565b92915050565b60008151905061515a81613eb0565b92915050565b60008151905061516f81613e7a565b92915050565b600080600080600080600080610100898b03121561519657615195613e28565b5b60006151a48b828c0161510c565b98505060206151b58b828c01615121565b97505060406151c68b828c01615136565b96505060606151d78b828c0161514b565b95505060806151e88b828c01615160565b94505060a06151f98b828c0161514b565b93505060c061520a8b828c0161514b565b92505060e061521b8b828c01615160565b9150509295985092959890939650565b7f524f233400000000000000000000000000000000000000000000000000000000600082015250565b6000615261600483614c36565b915061526c8261522b565b602082019050919050565b6000602082019050818103600083015261529081615254565b9050919050565b7f524f233500000000000000000000000000000000000000000000000000000000600082015250565b60006152cd600483614c36565b91506152d882615297565b602082019050919050565b600060208201905081810360008301526152fc816152c0565b9050919050565b600060608201905061531860008301866140c0565b6153256020830185614069565b6153326040830184614069565b949350505050565b7f524f233130000000000000000000000000000000000000000000000000000000600082015250565b6000615370600583614c36565b915061537b8261533a565b602082019050919050565b6000602082019050818103600083015261539f81615363565b9050919050565b7f4e487b7100000000000000000000000000000000000000000000000000000000600052601160045260246000fd5b60006153e082613ea6565b91506153eb83613ea6565b9250828201905080821115615403576154026153a6565b5b92915050565b7f524f233131000000000000000000000000000000000000000000000000000000600082015250565b600061543f600583614c36565b915061544a82615409565b602082019050919050565b6000602082019050818103600083015261546e81615432565b9050919050565b7f524f233132000000000000000000000000000000000000000000000000000000600082015250565b60006154ab600583614c36565b91506154b682615475565b602082019050919050565b600060208201905081810360008301526154da8161549e565b9050919050565b6000610100820190506154f7600083018b614a7b565b615504602083018a6149ea565b6155116040830189614166565b61551e6060830188614069565b61552b60808301876140c0565b61553860a0830186614069565b61554560c0830185614069565b61555260e08301846140c0565b9998505050505050505050565b600061012082019050615575600083018c6149ea565b615582602083018b614166565b61558f604083018a614069565b61559c60608301896140c0565b6155a96080830188614069565b6155b660a0830187614069565b6155c360c08301866149ea565b6155d060e08301856140c0565b6155de610100830184614069565b9a9950505050505050505050565b7f524f233133000000000000000000000000000000000000000000000000000000600082015250565b6000615622600583614c36565b915061562d826155ec565b602082019050919050565b6000602082019050818103600083015261565181615615565b9050919050565b600060608201905061566d60008301866140c0565b61567a60208301856149ea565b6156876040830184614a7b565b949350505050565b6000602082840312156156a5576156a4613e28565b5b60006156b384828501615136565b91505092915050565b600060c0820190506156d16000830189614166565b6156de60208301886140c0565b6156eb6040830187614069565b6156f86060830186614069565b61570560808301856140c0565b61571260a0830184614069565b979650505050505050565b7f496e697469616c697a61626c653a20636f6e747261637420697320616c72656160008201527f647920696e697469616c697a6564000000000000000000000000000000000000602082015250565b6000615779602e83614c36565b91506157848261571d565b604082019050919050565b600060208201905081810360008301526157a88161576c565b9050919050565b6000819050919050565b60006157d46157cf6157ca846157af565b613da4565b61474b565b9050919050565b6157e4816157b9565b82525050565b60006020820190506157ff60008301846157db565b92915050565b7f4e487b7100000000000000000000000000000000000000000000000000000000600052603260045260246000fd5b600061583f82613ea6565b91507fffffffffffffffffffffffffffffffffffffffffffffffffffffffffffffffff8203615871576158706153a6565b5b600182019050919050565b7f524f233136000000000000000000000000000000000000000000000000000000600082015250565b60006158b2600583614c36565b91506158bd8261587c565b602082019050919050565b600060208201905081810360008301526158e1816158a5565b9050919050565b60006158f382613ea6565b91506158fe83613ea6565b925082820261590c81613ea6565b91508282048414831517615923576159226153a6565b5b5092915050565b7f4e487b7100000000000000000000000000000000000000000000000000000000600052601260045260246000fd5b600061596482613ea6565b915061596f83613ea6565b92508261597f5761597e61592a565b5b828204905092915050565b600081905092915050565b50565b60006159a560008361598a565b91506159b082615995565b600082019050919050565b60006159c682615998565b9150819050919050565b60006060820190506159e560008301866140c0565b6159f260208301856140c0565b6159ff6040830184614069565b949350505050565b6000615a1282613ea6565b9150615a1d83613ea6565b9250828203905081811115615a3557615a346153a6565b5b92915050565b7f496e697469616c697a61626c653a20636f6e7472616374206973206e6f74206960008201527f6e697469616c697a696e67000000000000000000000000000000000000000000602082015250565b6000615a97602b83614c36565b9150615aa282615a3b565b604082019050919050565b60006020820190508181036000830152615ac681615a8a565b9050919050565b7f5265656e7472616e637947756172643a207265656e7472616e742063616c6c00600082015250565b6000615b03601f83614c36565b9150615b0e82615acd565b602082019050919050565b60006020820190508181036000830152615b3281615af6565b9050919050565b600081905092915050565b7f416363657373436f6e74726f6c3a206163636f756e7420000000000000000000600082015250565b6000615b7a601783615b39565b9150615b8582615b44565b601782019050919050565b600081519050919050565b6000615ba682615b90565b615bb08185615b39565b9350615bc0818560208601614f39565b80840191505092915050565b7f206973206d697373696e6720726f6c6520000000000000000000000000000000600082015250565b6000615c02601183615b39565b9150615c0d82615bcc565b601182019050919050565b6000615c2382615b6d565b9150615c2f8285615b9b565b9150615c3a82615bf5565b9150615c468284615b9b565b91508190509392505050565b6000615c5d82615b90565b615c678185614c36565b9350615c77818560208601614f39565b615c808161419a565b840191505092915050565b60006020820190508181036000830152615ca58184615c52565b905092915050565b7f5361666545524332303a204552433230206f7065726174696f6e20646964206e60008201527f6f74207375636365656400000000000000000000000000000000000000000000602082015250565b6000615d09602a83614c36565b9150615d1482615cad565b604082019050919050565b60006020820190508181036000830152615d3881615cfc565b9050919050565b6000615d4a82613ea6565b915060008203615d5d57615d5c6153a6565b5b600182039050919050565b7f537472696e67733a20686578206c656e67746820696e73756666696369656e74600082015250565b6000615d9e602083614c36565b9150615da982615d68565b602082019050919050565b60006020820190508181036000830152615dcd81615d91565b9050919050565b7f416464726573733a20696e73756666696369656e742062616c616e636520666f60008201527f722063616c6c0000000000000000000000000000000000000000000000000000602082015250565b6000615e30602683614c36565b9150615e3b82615dd4565b604082019050919050565b60006020820190508181036000830152615e5f81615e23565b9050919050565b6000615e7182614f1d565b615e7b818561598a565b9350615e8b818560208601614f39565b80840191505092915050565b6000615ea38284615e66565b915081905092915050565b7f416464726573733a2063616c6c20746f206e6f6e2d636f6e7472616374000000600082015250565b6000615ee4601d83614c36565b9150615eef82615eae565b602082019050919050565b60006020820190508181036000830152615f1381615ed7565b905091905056fea264697066735822122016f952927bc2205b65a0600836e80e6fd7bdc69bac20360d8ec1d390dc74ad8664736f6c63430008180033",
  "linkReferences": {},
  "deployedLinkReferences": {}
}