{
  "_format": "hh-sol-artifact-1",
  "contractName": "OrderBook",
  "sourceName": "contracts/orderBook.sol",
  "abi": [
    {
      "inputs": [],
      "stateMutability": "nonpayable",
      "type": "constructor"
    },
    {
      "anonymous": false,
      "inputs": [
        {
          "indexed": false,
          "internalType": "uint8",
          "name": "version",
          "type": "uint8"
        }
      ],
      "name": "Initialized",
      "type": "event"
    },
    {
      "anonymous": false,
      "inputs": [
        {
          "indexed": true,
          "internalType": "bytes32",
          "name": "id",
          "type": "bytes32"
        },
        {
          "indexed": true,
          "internalType": "address",
          "name": "attester",
          "type": "address"
        },
        {
          "indexed": true,
          "internalType": "uint32",
          "name": "batchIndex",
          "type": "uint32"
        },
        {
          "indexed": false,
          "internalType": "address",
          "name": "beneficiary",
          "type": "address"
        },
        {
          "indexed": false,
          "internalType": "bytes32",
          "name": "attestationBatchMessageHash",
          "type": "bytes32"
        },
        {
          "indexed": false,
          "internalType": "bytes",
          "name": "signature",
          "type": "bytes"
        }
      ],
      "name": "OrderAttested",
      "type": "event"
    },
    {
      "anonymous": false,
      "inputs": [
        {
          "indexed": true,
          "internalType": "bytes32",
          "name": "id",
          "type": "bytes32"
        },
        {
          "indexed": true,
          "internalType": "bytes4",
          "name": "source",
          "type": "bytes4"
        },
        {
          "indexed": true,
          "internalType": "address",
          "name": "executor",
          "type": "address"
        },
        {
          "indexed": false,
          "internalType": "uint256",
          "name": "proposedReward",
          "type": "uint256"
        },
        {
          "indexed": false,
          "internalType": "uint256",
          "name": "newProposedReward",
          "type": "uint256"
        },
        {
          "indexed": false,
          "internalType": "uint256",
          "name": "refund",
          "type": "uint256"
        }
      ],
      "name": "OutbidReceived",
      "type": "event"
    },
    {
      "anonymous": false,
      "inputs": [
        {
          "indexed": true,
          "internalType": "bytes32",
          "name": "id",
          "type": "bytes32"
        },
        {
          "indexed": true,
          "internalType": "bytes4",
          "name": "destination",
          "type": "bytes4"
        },
        {
          "indexed": false,
          "internalType": "uint32",
          "name": "asset",
          "type": "uint32"
        },
        {
          "indexed": false,
          "internalType": "bytes32",
          "name": "targetAccount",
          "type": "bytes32"
        },
        {
          "indexed": false,
          "internalType": "uint256",
          "name": "amount",
          "type": "uint256"
        },
        {
          "indexed": false,
          "internalType": "address",
          "name": "rewardAsset",
          "type": "address"
        },
        {
          "indexed": false,
          "internalType": "uint256",
          "name": "maxReward",
          "type": "uint256"
        },
        {
          "indexed": false,
          "internalType": "uint32",
          "name": "nonce",
          "type": "uint32"
        },
        {
          "indexed": false,
          "internalType": "bytes4",
          "name": "source",
          "type": "bytes4"
        },
        {
          "indexed": false,
          "internalType": "address",
          "name": "sourceAccount",
          "type": "address"
        },
        {
          "indexed": false,
          "internalType": "uint256",
          "name": "orderTimestamp",
          "type": "uint256"
        }
      ],
      "name": "RemoteOrderCreated",
      "type": "event"
    },
    {
      "anonymous": false,
      "inputs": [
        {
          "indexed": true,
          "internalType": "bytes32",
          "name": "role",
          "type": "bytes32"
        },
        {
          "indexed": true,
          "internalType": "bytes32",
          "name": "previousAdminRole",
          "type": "bytes32"
        },
        {
          "indexed": true,
          "internalType": "bytes32",
          "name": "newAdminRole",
          "type": "bytes32"
        }
      ],
      "name": "RoleAdminChanged",
      "type": "event"
    },
    {
      "anonymous": false,
      "inputs": [
        {
          "indexed": true,
          "internalType": "bytes32",
          "name": "role",
          "type": "bytes32"
        },
        {
          "indexed": true,
          "internalType": "address",
          "name": "account",
          "type": "address"
        },
        {
          "indexed": true,
          "internalType": "address",
          "name": "sender",
          "type": "address"
        }
      ],
      "name": "RoleGranted",
      "type": "event"
    },
    {
      "anonymous": false,
      "inputs": [
        {
          "indexed": true,
          "internalType": "bytes32",
          "name": "role",
          "type": "bytes32"
        },
        {
          "indexed": true,
          "internalType": "address",
          "name": "account",
          "type": "address"
        },
        {
          "indexed": true,
          "internalType": "address",
          "name": "sender",
          "type": "address"
        }
      ],
      "name": "RoleRevoked",
      "type": "event"
    },
    {
      "inputs": [],
      "name": "DEFAULT_ADMIN_ROLE",
      "outputs": [
        {
          "internalType": "bytes32",
          "name": "",
          "type": "bytes32"
        }
      ],
      "stateMutability": "view",
      "type": "function"
    },
    {
      "inputs": [
        {
          "components": [
            {
              "internalType": "bytes4",
              "name": "destination",
              "type": "bytes4"
            },
            {
              "internalType": "bytes4",
              "name": "source",
              "type": "bytes4"
            },
            {
              "internalType": "uint32",
              "name": "asset",
              "type": "uint32"
            },
            {
              "internalType": "bytes32",
              "name": "targetAccount",
              "type": "bytes32"
            },
            {
              "internalType": "uint256",
              "name": "amount",
              "type": "uint256"
            },
            {
              "internalType": "address",
              "name": "rewardAsset",
              "type": "address"
            },
            {
              "internalType": "uint256",
              "name": "maxReward",
              "type": "uint256"
            },
            {
              "internalType": "uint32",
              "name": "nonce",
              "type": "uint32"
            },
            {
              "internalType": "address",
              "name": "sourceAccount",
              "type": "address"
            },
            {
              "internalType": "uint256",
              "name": "orderTimestamp",
              "type": "uint256"
            }
          ],
          "internalType": "struct OrderBook.Order",
          "name": "order",
          "type": "tuple"
        },
        {
          "internalType": "bytes32",
          "name": "orderId",
          "type": "bytes32"
        },
        {
          "internalType": "bytes32",
          "name": "orderTxHash",
          "type": "bytes32"
        }
      ],
      "name": "addOrder",
      "outputs": [],
      "stateMutability": "nonpayable",
      "type": "function"
    },
    {
      "inputs": [
        {
          "components": [
            {
              "internalType": "bytes4",
              "name": "destination",
              "type": "bytes4"
            },
            {
              "internalType": "bytes4",
              "name": "source",
              "type": "bytes4"
            },
            {
              "internalType": "uint32",
              "name": "asset",
              "type": "uint32"
            },
            {
              "internalType": "bytes32",
              "name": "targetAccount",
              "type": "bytes32"
            },
            {
              "internalType": "uint256",
              "name": "amount",
              "type": "uint256"
            },
            {
              "internalType": "address",
              "name": "rewardAsset",
              "type": "address"
            },
            {
              "internalType": "uint256",
              "name": "maxReward",
              "type": "uint256"
            },
            {
              "internalType": "uint32",
              "name": "nonce",
              "type": "uint32"
            },
            {
              "internalType": "address",
              "name": "sourceAccount",
              "type": "address"
            },
            {
              "internalType": "uint256",
              "name": "orderTimestamp",
              "type": "uint256"
            }
          ],
          "internalType": "struct OrderBook.Order",
          "name": "order",
          "type": "tuple"
        },
        {
          "internalType": "bytes32",
          "name": "orderId",
          "type": "bytes32"
        },
        {
          "internalType": "bytes32",
          "name": "orderTxHash",
          "type": "bytes32"
        },
        {
          "internalType": "uint256",
          "name": "timestamp",
          "type": "uint256"
        }
      ],
      "name": "addOrderWithTimestamp",
      "outputs": [],
      "stateMutability": "nonpayable",
      "type": "function"
    },
    {
      "inputs": [],
      "name": "attestationBook",
      "outputs": [
        {
          "internalType": "contract SingleAttestationBook",
          "name": "",
          "type": "address"
        }
      ],
      "stateMutability": "view",
      "type": "function"
    },
    {
      "inputs": [],
      "name": "attestersPortal",
      "outputs": [
        {
          "internalType": "contract AttestersPortal",
          "name": "",
          "type": "address"
        }
      ],
      "stateMutability": "view",
      "type": "function"
    },
    {
      "inputs": [
        {
          "internalType": "bytes32",
          "name": "orderId",
          "type": "bytes32"
        },
        {
          "internalType": "uint256",
          "name": "newProposedReward",
          "type": "uint256"
        }
      ],
      "name": "bidOrder",
      "outputs": [],
      "stateMutability": "payable",
      "type": "function"
    },
    {
      "inputs": [],
      "name": "biddingBook",
      "outputs": [
        {
          "internalType": "contract BiddingBook",
          "name": "",
          "type": "address"
        }
      ],
      "stateMutability": "view",
      "type": "function"
    },
    {
      "inputs": [],
      "name": "brnRewards",
      "outputs": [
        {
          "internalType": "contract BRNRewards",
          "name": "",
          "type": "address"
        }
      ],
      "stateMutability": "view",
      "type": "function"
    },
    {
      "inputs": [
        {
          "internalType": "bytes32",
          "name": "orderId",
          "type": "bytes32"
        }
      ],
      "name": "checkOrderExists",
      "outputs": [
        {
          "internalType": "bool",
          "name": "",
          "type": "bool"
        }
      ],
      "stateMutability": "view",
      "type": "function"
    },
    {
      "inputs": [
        {
          "internalType": "bytes32",
          "name": "orderId",
          "type": "bytes32"
        }
      ],
      "name": "checkOrderHasReachedQuorum",
      "outputs": [
        {
          "internalType": "bool",
          "name": "",
          "type": "bool"
        }
      ],
      "stateMutability": "view",
      "type": "function"
    },
    {
      "inputs": [
        {
          "internalType": "bytes32",
          "name": "orderId",
          "type": "bytes32"
        }
      ],
      "name": "claimInsuranceBack",
      "outputs": [],
      "stateMutability": "nonpayable",
      "type": "function"
    },
    {
      "inputs": [
        {
          "internalType": "bytes4",
          "name": "",
          "type": "bytes4"
        }
      ],
      "name": "currentIntervalPerNetworkAddedCount",
      "outputs": [
        {
          "internalType": "uint256",
          "name": "",
          "type": "uint256"
        }
      ],
      "stateMutability": "view",
      "type": "function"
    },
    {
      "inputs": [
        {
          "internalType": "bytes4",
          "name": "",
          "type": "bytes4"
        }
      ],
      "name": "currentIntervalPerNetworkAddedTimestamp",
      "outputs": [
        {
          "internalType": "uint256",
          "name": "",
          "type": "uint256"
        }
      ],
      "stateMutability": "view",
      "type": "function"
    },
    {
      "inputs": [
        {
          "internalType": "bytes32",
          "name": "orderId",
          "type": "bytes32"
        }
      ],
      "name": "getBid",
      "outputs": [
        {
          "components": [
            {
              "internalType": "uint256",
              "name": "biddingStartTimestamp",
              "type": "uint256"
            },
            {
              "internalType": "address",
              "name": "executor",
              "type": "address"
            },
            {
              "internalType": "uint256",
              "name": "proposedReward",
              "type": "uint256"
            },
            {
              "internalType": "uint256",
              "name": "timestamp",
              "type": "uint256"
            }
          ],
          "internalType": "struct BiddingBook.Bid",
          "name": "",
          "type": "tuple"
        }
      ],
      "stateMutability": "view",
      "type": "function"
    },
    {
      "inputs": [
        {
          "internalType": "bytes32",
          "name": "orderId",
          "type": "bytes32"
        }
      ],
      "name": "getBidAmount",
      "outputs": [
        {
          "internalType": "uint256",
          "name": "",
          "type": "uint256"
        }
      ],
      "stateMutability": "view",
      "type": "function"
    },
    {
      "inputs": [
        {
          "internalType": "bytes32",
          "name": "orderId",
          "type": "bytes32"
        }
      ],
      "name": "getBidWinner",
      "outputs": [
        {
          "internalType": "address",
          "name": "",
          "type": "address"
        }
      ],
      "stateMutability": "view",
      "type": "function"
    },
    {
      "inputs": [],
      "name": "getCurrentInsuranceInNative",
      "outputs": [
        {
          "internalType": "uint256",
          "name": "",
          "type": "uint256"
        }
      ],
      "stateMutability": "view",
      "type": "function"
    },
    {
      "inputs": [
        {
          "internalType": "bytes32",
          "name": "orderId",
          "type": "bytes32"
        }
      ],
      "name": "getOrder",
      "outputs": [
        {
          "components": [
            {
              "internalType": "bytes4",
              "name": "destination",
              "type": "bytes4"
            },
            {
              "internalType": "bytes4",
              "name": "source",
              "type": "bytes4"
            },
            {
              "internalType": "uint32",
              "name": "asset",
              "type": "uint32"
            },
            {
              "internalType": "bytes32",
              "name": "targetAccount",
              "type": "bytes32"
            },
            {
              "internalType": "uint256",
              "name": "amount",
              "type": "uint256"
            },
            {
              "internalType": "address",
              "name": "rewardAsset",
              "type": "address"
            },
            {
              "internalType": "uint256",
              "name": "maxReward",
              "type": "uint256"
            },
            {
              "internalType": "uint32",
              "name": "nonce",
              "type": "uint32"
            },
            {
              "internalType": "address",
              "name": "sourceAccount",
              "type": "address"
            },
            {
              "internalType": "uint256",
              "name": "orderTimestamp",
              "type": "uint256"
            }
          ],
          "internalType": "struct OrderBook.Order",
          "name": "",
          "type": "tuple"
        },
        {
          "internalType": "bytes32",
          "name": "",
          "type": "bytes32"
        }
      ],
      "stateMutability": "view",
      "type": "function"
    },
    {
      "inputs": [
        {
          "internalType": "bytes32",
          "name": "orderId",
          "type": "bytes32"
        }
      ],
      "name": "getOrderData",
      "outputs": [
        {
          "components": [
            {
              "internalType": "bytes4",
              "name": "destination",
              "type": "bytes4"
            },
            {
              "internalType": "bytes4",
              "name": "source",
              "type": "bytes4"
            },
            {
              "internalType": "uint32",
              "name": "asset",
              "type": "uint32"
            },
            {
              "internalType": "bytes32",
              "name": "targetAccount",
              "type": "bytes32"
            },
            {
              "internalType": "uint256",
              "name": "amount",
              "type": "uint256"
            },
            {
              "internalType": "address",
              "name": "rewardAsset",
              "type": "address"
            },
            {
              "internalType": "uint256",
              "name": "maxReward",
              "type": "uint256"
            },
            {
              "internalType": "uint32",
              "name": "nonce",
              "type": "uint32"
            },
            {
              "internalType": "address",
              "name": "sourceAccount",
              "type": "address"
            },
            {
              "internalType": "uint256",
              "name": "orderTimestamp",
              "type": "uint256"
            }
          ],
          "internalType": "struct OrderBook.Order",
          "name": "",
          "type": "tuple"
        },
        {
          "internalType": "bytes32",
          "name": "",
          "type": "bytes32"
        },
        {
          "components": [
            {
              "internalType": "uint256",
              "name": "biddingStartTimestamp",
              "type": "uint256"
            },
            {
              "internalType": "address",
              "name": "executor",
              "type": "address"
            },
            {
              "internalType": "uint256",
              "name": "proposedReward",
              "type": "uint256"
            },
            {
              "internalType": "uint256",
              "name": "timestamp",
              "type": "uint256"
            }
          ],
          "internalType": "struct BiddingBook.Bid",
          "name": "",
          "type": "tuple"
        },
        {
          "internalType": "bool",
          "name": "",
          "type": "bool"
        },
        {
          "internalType": "uint256",
          "name": "",
          "type": "uint256"
        }
      ],
      "stateMutability": "view",
      "type": "function"
    },
    {
      "inputs": [
        {
          "internalType": "bytes32",
          "name": "orderId",
          "type": "bytes32"
        }
      ],
      "name": "getOrderTimestamp",
      "outputs": [
        {
          "internalType": "uint256",
          "name": "",
          "type": "uint256"
        }
      ],
      "stateMutability": "view",
      "type": "function"
    },
    {
      "inputs": [
        {
          "internalType": "bytes32",
          "name": "orderId",
          "type": "bytes32"
        }
      ],
      "name": "getOrderWithTimestamp",
      "outputs": [
        {
          "components": [
            {
              "internalType": "bytes4",
              "name": "destination",
              "type": "bytes4"
            },
            {
              "internalType": "bytes4",
              "name": "source",
              "type": "bytes4"
            },
            {
              "internalType": "uint32",
              "name": "asset",
              "type": "uint32"
            },
            {
              "internalType": "bytes32",
              "name": "targetAccount",
              "type": "bytes32"
            },
            {
              "internalType": "uint256",
              "name": "amount",
              "type": "uint256"
            },
            {
              "internalType": "address",
              "name": "rewardAsset",
              "type": "address"
            },
            {
              "internalType": "uint256",
              "name": "maxReward",
              "type": "uint256"
            },
            {
              "internalType": "uint32",
              "name": "nonce",
              "type": "uint32"
            },
            {
              "internalType": "address",
              "name": "sourceAccount",
              "type": "address"
            },
            {
              "internalType": "uint256",
              "name": "orderTimestamp",
              "type": "uint256"
            }
          ],
          "internalType": "struct OrderBook.Order",
          "name": "",
          "type": "tuple"
        },
        {
          "internalType": "bytes32",
          "name": "",
          "type": "bytes32"
        },
        {
          "internalType": "uint256",
          "name": "",
          "type": "uint256"
        }
      ],
      "stateMutability": "view",
      "type": "function"
    },
    {
      "inputs": [
        {
          "internalType": "bytes32",
          "name": "orderId",
          "type": "bytes32"
        }
      ],
      "name": "getRandomAddedBy",
      "outputs": [
        {
          "internalType": "address",
          "name": "",
          "type": "address"
        }
      ],
      "stateMutability": "view",
      "type": "function"
    },
    {
      "inputs": [
        {
          "internalType": "bytes32",
          "name": "role",
          "type": "bytes32"
        }
      ],
      "name": "getRoleAdmin",
      "outputs": [
        {
          "internalType": "bytes32",
          "name": "",
          "type": "bytes32"
        }
      ],
      "stateMutability": "view",
      "type": "function"
    },
    {
      "inputs": [
        {
          "internalType": "bytes32",
          "name": "role",
          "type": "bytes32"
        },
        {
          "internalType": "address",
          "name": "account",
          "type": "address"
        }
      ],
      "name": "grantRole",
      "outputs": [],
      "stateMutability": "nonpayable",
      "type": "function"
    },
    {
      "inputs": [
        {
          "internalType": "bytes32",
          "name": "role",
          "type": "bytes32"
        },
        {
          "internalType": "address",
          "name": "account",
          "type": "address"
        }
      ],
      "name": "hasRole",
      "outputs": [
        {
          "internalType": "bool",
          "name": "",
          "type": "bool"
        }
      ],
      "stateMutability": "view",
      "type": "function"
    },
    {
      "inputs": [
        {
          "internalType": "address",
          "name": "_owner",
          "type": "address"
        },
        {
          "internalType": "uint32",
          "name": "_quorumPercent",
          "type": "uint32"
        }
      ],
      "name": "initialize",
      "outputs": [],
      "stateMutability": "nonpayable",
      "type": "function"
    },
    {
      "inputs": [
        {
          "internalType": "bytes32",
          "name": "",
          "type": "bytes32"
        }
      ],
      "name": "insuranceClaimed",
      "outputs": [
        {
          "internalType": "bool",
          "name": "",
          "type": "bool"
        }
      ],
      "stateMutability": "view",
      "type": "function"
    },
    {
      "inputs": [
        {
          "internalType": "bytes32",
          "name": "orderId",
          "type": "bytes32"
        },
        {
          "internalType": "address",
          "name": "attester",
          "type": "address"
        }
      ],
      "name": "isAddedBy",
      "outputs": [
        {
          "internalType": "bool",
          "name": "",
          "type": "bool"
        }
      ],
      "stateMutability": "view",
      "type": "function"
    },
    {
      "inputs": [],
      "name": "isBrnRewardsOn",
      "outputs": [
        {
          "internalType": "bool",
          "name": "",
          "type": "bool"
        }
      ],
      "stateMutability": "view",
      "type": "function"
    },
    {
      "inputs": [],
      "name": "isInflationRewardsOn",
      "outputs": [
        {
          "internalType": "bool",
          "name": "",
          "type": "bool"
        }
      ],
      "stateMutability": "view",
      "type": "function"
    },
    {
      "inputs": [
        {
          "internalType": "bytes32",
          "name": "",
          "type": "bytes32"
        }
      ],
      "name": "orderAdditions",
      "outputs": [
        {
          "internalType": "uint32",
          "name": "",
          "type": "uint32"
        }
      ],
      "stateMutability": "view",
      "type": "function"
    },
    {
      "inputs": [
        {
          "internalType": "bytes32",
          "name": "",
          "type": "bytes32"
        },
        {
          "internalType": "uint256",
          "name": "",
          "type": "uint256"
        }
      ],
      "name": "orderAdditionsBy",
      "outputs": [
        {
          "internalType": "address",
          "name": "",
          "type": "address"
        }
      ],
      "stateMutability": "view",
      "type": "function"
    },
    {
      "inputs": [],
      "name": "orderQuorumPercent",
      "outputs": [
        {
          "internalType": "uint32",
          "name": "",
          "type": "uint32"
        }
      ],
      "stateMutability": "view",
      "type": "function"
    },
    {
      "inputs": [
        {
          "internalType": "bytes32",
          "name": "",
          "type": "bytes32"
        }
      ],
      "name": "orderWasEmitted",
      "outputs": [
        {
          "internalType": "bool",
          "name": "",
          "type": "bool"
        }
      ],
      "stateMutability": "view",
      "type": "function"
    },
    {
      "inputs": [
        {
          "internalType": "bytes32",
          "name": "",
          "type": "bytes32"
        }
      ],
      "name": "orders",
      "outputs": [
        {
          "internalType": "bytes4",
          "name": "destination",
          "type": "bytes4"
        },
        {
          "internalType": "bytes4",
          "name": "source",
          "type": "bytes4"
        },
        {
          "internalType": "uint32",
          "name": "asset",
          "type": "uint32"
        },
        {
          "internalType": "bytes32",
          "name": "targetAccount",
          "type": "bytes32"
        },
        {
          "internalType": "uint256",
          "name": "amount",
          "type": "uint256"
        },
        {
          "internalType": "address",
          "name": "rewardAsset",
          "type": "address"
        },
        {
          "internalType": "uint256",
          "name": "maxReward",
          "type": "uint256"
        },
        {
          "internalType": "uint32",
          "name": "nonce",
          "type": "uint32"
        },
        {
          "internalType": "address",
          "name": "sourceAccount",
          "type": "address"
        },
        {
          "internalType": "uint256",
          "name": "orderTimestamp",
          "type": "uint256"
        }
      ],
      "stateMutability": "view",
      "type": "function"
    },
    {
      "inputs": [
        {
          "internalType": "bytes32",
          "name": "",
          "type": "bytes32"
        }
      ],
      "name": "ordersCoordinates",
      "outputs": [
        {
          "internalType": "bytes32",
          "name": "",
          "type": "bytes32"
        }
      ],
      "stateMutability": "view",
      "type": "function"
    },
    {
      "inputs": [
        {
          "internalType": "bytes32",
          "name": "",
          "type": "bytes32"
        }
      ],
      "name": "ordersTimestamps",
      "outputs": [
        {
          "internalType": "uint256",
          "name": "",
          "type": "uint256"
        }
      ],
      "stateMutability": "view",
      "type": "function"
    },
    {
      "inputs": [],
      "name": "pendingBook",
      "outputs": [
        {
          "internalType": "contract PendingBook",
          "name": "",
          "type": "address"
        }
      ],
      "stateMutability": "view",
      "type": "function"
    },
    {
      "inputs": [],
      "name": "perNetworkLimit",
      "outputs": [
        {
          "internalType": "uint256",
          "name": "",
          "type": "uint256"
        }
      ],
      "stateMutability": "view",
      "type": "function"
    },
    {
      "inputs": [
        {
          "components": [
            {
              "internalType": "bytes4",
              "name": "destination",
              "type": "bytes4"
            },
            {
              "internalType": "bytes4",
              "name": "source",
              "type": "bytes4"
            },
            {
              "internalType": "uint32",
              "name": "asset",
              "type": "uint32"
            },
            {
              "internalType": "bytes32",
              "name": "targetAccount",
              "type": "bytes32"
            },
            {
              "internalType": "uint256",
              "name": "amount",
              "type": "uint256"
            },
            {
              "internalType": "address",
              "name": "rewardAsset",
              "type": "address"
            },
            {
              "internalType": "uint256",
              "name": "maxReward",
              "type": "uint256"
            },
            {
              "internalType": "uint32",
              "name": "nonce",
              "type": "uint32"
            },
            {
              "internalType": "address",
              "name": "sourceAccount",
              "type": "address"
            },
            {
              "internalType": "uint256",
              "name": "orderTimestamp",
              "type": "uint256"
            }
          ],
          "internalType": "struct OrderBook.Order[]",
          "name": "orders",
          "type": "tuple[]"
        },
        {
          "internalType": "bytes32[]",
          "name": "orderIds",
          "type": "bytes32[]"
        },
        {
          "internalType": "bytes32[]",
          "name": "orderTxHashes",
          "type": "bytes32[]"
        },
        {
          "internalType": "uint256[]",
          "name": "timestamps",
          "type": "uint256[]"
        }
      ],
      "name": "populateBatch",
      "outputs": [],
      "stateMutability": "nonpayable",
      "type": "function"
    },
    {
      "inputs": [
        {
          "internalType": "bytes32",
          "name": "role",
          "type": "bytes32"
        },
        {
          "internalType": "address",
          "name": "account",
          "type": "address"
        }
      ],
      "name": "renounceRole",
      "outputs": [],
      "stateMutability": "nonpayable",
      "type": "function"
    },
    {
      "inputs": [
        {
          "internalType": "bytes32",
          "name": "role",
          "type": "bytes32"
        },
        {
          "internalType": "address",
          "name": "account",
          "type": "address"
        }
      ],
      "name": "revokeRole",
      "outputs": [],
      "stateMutability": "nonpayable",
      "type": "function"
    },
    {
      "inputs": [
        {
          "internalType": "address payable",
          "name": "attestationBookAddress",
          "type": "address"
        }
      ],
      "name": "setAttestationBookAddress",
      "outputs": [],
      "stateMutability": "nonpayable",
      "type": "function"
    },
    {
      "inputs": [
        {
          "internalType": "address payable",
          "name": "attestersPortalAddress",
          "type": "address"
        }
      ],
      "name": "setAttestersPortalAddress",
      "outputs": [],
      "stateMutability": "nonpayable",
      "type": "function"
    },
    {
      "inputs": [
        {
          "internalType": "address payable",
          "name": "brnRewardsAddress",
          "type": "address"
        }
      ],
      "name": "setBRNRewardsAddress",
      "outputs": [],
      "stateMutability": "nonpayable",
      "type": "function"
    },
    {
      "inputs": [
        {
          "internalType": "address payable",
          "name": "biddingBookAddress",
          "type": "address"
        }
      ],
      "name": "setBiddingBookAddress",
      "outputs": [],
      "stateMutability": "nonpayable",
      "type": "function"
    },
    {
      "inputs": [
        {
          "internalType": "uint32",
          "name": "newQuorumPercent",
          "type": "uint32"
        }
      ],
      "name": "setOrderQuorumPercent",
      "outputs": [],
      "stateMutability": "nonpayable",
      "type": "function"
    },
    {
      "inputs": [
        {
          "internalType": "address payable",
          "name": "pendingBookAddress",
          "type": "address"
        }
      ],
      "name": "setPendingBookAddress",
      "outputs": [],
      "stateMutability": "nonpayable",
      "type": "function"
    },
    {
      "inputs": [
        {
          "internalType": "uint256",
          "name": "_perNetworkLimit",
          "type": "uint256"
        }
      ],
      "name": "setPerNetworkLimit",
      "outputs": [],
      "stateMutability": "nonpayable",
      "type": "function"
    },
    {
      "inputs": [
        {
          "internalType": "address payable",
          "name": "trnInflationRewardsAddress",
          "type": "address"
        }
      ],
      "name": "setTRNInflationRewardsAddress",
      "outputs": [],
      "stateMutability": "nonpayable",
      "type": "function"
    },
    {
      "inputs": [
        {
          "internalType": "bytes32",
          "name": "_version",
          "type": "bytes32"
        }
      ],
      "name": "setVersion",
      "outputs": [],
      "stateMutability": "nonpayable",
      "type": "function"
    },
    {
      "inputs": [
        {
          "internalType": "bytes4",
          "name": "interfaceId",
          "type": "bytes4"
        }
      ],
      "name": "supportsInterface",
      "outputs": [
        {
          "internalType": "bool",
          "name": "",
          "type": "bool"
        }
      ],
      "stateMutability": "view",
      "type": "function"
    },
    {
      "inputs": [],
      "name": "trnInflationRewards",
      "outputs": [
        {
          "internalType": "contract TRNInflationRewards",
          "name": "",
          "type": "address"
        }
      ],
      "stateMutability": "view",
      "type": "function"
    },
    {
      "inputs": [],
      "name": "version",
      "outputs": [
        {
          "internalType": "bytes32",
          "name": "",
          "type": "bytes32"
        }
      ],
      "stateMutability": "view",
      "type": "function"
    }
  ],
  "bytecode": "0x60806040523480156200001157600080fd5b50620000226200002860201b60201c565b620001d2565b600060019054906101000a900460ff16156200007b576040517f08c379a0000000000000000000000000000000000000000000000000000000008152600401620000729062000175565b60405180910390fd5b60ff801660008054906101000a900460ff1660ff1614620000ec5760ff6000806101000a81548160ff021916908360ff1602179055507f7f26b83ff96e1f2b6a682f133852f6798a09c465da95921460cefb384740249860ff604051620000e39190620001b5565b60405180910390a15b565b600082825260208201905092915050565b7f496e697469616c697a61626c653a20636f6e747261637420697320696e69746960008201527f616c697a696e6700000000000000000000000000000000000000000000000000602082015250565b60006200015d602783620000ee565b91506200016a82620000ff565b604082019050919050565b6000602082019050818103600083015262000190816200014e565b9050919050565b600060ff82169050919050565b620001af8162000197565b82525050565b6000602082019050620001cc6000830184620001a4565b92915050565b615eb080620001e26000396000f3fe6080604052600436106103355760003560e01c806391704e1e116101ab578063c583316e116100f7578063e7ac6fff11610095578063f7d7fc871161006f578063f7d7fc8714610ce5578063fa840bdb14610d22578063fb4d314414610d5f578063fd23631114610da057610335565b8063e7ac6fff14610c40578063eacce00a14610c7d578063f061c78914610cba57610335565b8063ca5f81b5116100d1578063ca5f81b514610b86578063d547741f14610baf578063d82627ef14610bd8578063e2d6939e14610c0357610335565b8063c583316e14610b07578063c5e4c9f914610b32578063c9279c2014610b5b57610335565b8063a217fddf11610164578063b0676f621161013e578063b0676f6214610a4f578063b159cfbf14610a78578063b67b8a3f14610aa1578063b84c3c9a14610aca57610335565b8063a217fddf146109d0578063a63aaf35146109fb578063aa34b07b14610a2657610335565b806391704e1e1461089357806391d14854146108d0578063928935081461090d578063993cc103146109365780639c3f1e901461095f578063a1f80d8f146109a557610335565b806336568abe116102855780635778472a116102235780637835f6c4116101fd5780637835f6c4146107c75780637a575361146107f05780638ae2b59a146108195780638ed339401461085657610335565b80635778472a1461070f5780635d1f48951461074d5780635f98adbc1461078a57610335565b80633bc057f31161025f5780633bc057f31461066757806352172d581461069057806354a676ee146106bb57806354fd4d50146106e457610335565b806336568abe146105e85780633aac5d3d146106115780633b34730c1461063c57610335565b80631a13b202116102f25780632bff72f3116102cc5780632bff72f3146105065780632e8ecace146105435780632f2ff15d146105825780633528af31146105ab57610335565b80631a13b20214610461578063248a9ca31461049e5780632aa8269e146104db57610335565b806301ffc9a71461033a57806302f6dca11461037757806307c65633146103b45780630b9255a6146103df57806313db9ce6146103fb57806316dc82ae14610438575b600080fd5b34801561034657600080fd5b50610361600480360381019061035c9190613f64565b610dc9565b60405161036e9190613fac565b60405180910390f35b34801561038357600080fd5b5061039e60048036038101906103999190614033565b610e43565b6040516103ab91906140b4565b60405180910390f35b3480156103c057600080fd5b506103c9610e91565b6040516103d6919061412e565b60405180910390f35b6103f960048036038101906103f49190614033565b610eb7565b005b34801561040757600080fd5b50610422600480360381019061041d9190614149565b610f4c565b60405161042f9190614185565b60405180910390f35b34801561044457600080fd5b5061045f600480360381019061045a91906141a0565b61103b565b005b34801561046d57600080fd5b5061048860048036038101906104839190614149565b611091565b6040516104959190613fac565b60405180910390f35b3480156104aa57600080fd5b506104c560048036038101906104c09190614149565b6110b1565b6040516104d291906141dc565b60405180910390f35b3480156104e757600080fd5b506104f06110d1565b6040516104fd919061422a565b60405180910390f35b34801561051257600080fd5b5061052d60048036038101906105289190614149565b6110f7565b60405161053a9190613fac565b60405180910390f35b34801561054f57600080fd5b5061056a60048036038101906105659190614149565b611117565b6040516105799392919061436c565b60405180910390f35b34801561058e57600080fd5b506105a960048036038101906105a491906143d2565b61138d565b005b3480156105b757600080fd5b506105d260048036038101906105cd9190614149565b6113ae565b6040516105df9190614421565b60405180910390f35b3480156105f457600080fd5b5061060f600480360381019061060a91906143d2565b6113d1565b005b34801561061d57600080fd5b50610626611454565b604051610633919061445d565b60405180910390f35b34801561064857600080fd5b5061065161147a565b60405161065e9190614499565b60405180910390f35b34801561067357600080fd5b5061068e60048036038101906106899190614149565b6114a0565b005b34801561069c57600080fd5b506106a5611532565b6040516106b29190613fac565b60405180910390f35b3480156106c757600080fd5b506106e260048036038101906106dd91906145c6565b611624565b005b3480156106f057600080fd5b506106f96117de565b60405161070691906141dc565b60405180910390f35b34801561071b57600080fd5b5061073660048036038101906107319190614149565b6117e4565b6040516107449291906146af565b60405180910390f35b34801561075957600080fd5b50610774600480360381019061076f9190614149565b611a41565b60405161078191906140b4565b60405180910390f35b34801561079657600080fd5b506107b160048036038101906107ac9190614149565b611b3e565b6040516107be91906141dc565b60405180910390f35b3480156107d357600080fd5b506107ee60048036038101906107e99190614718565b611b56565b005b3480156107fc57600080fd5b5061081760048036038101906108129190614718565b611be6565b005b34801561082557600080fd5b50610840600480360381019061083b9190614149565b611c76565b60405161084d91906140b4565b60405180910390f35b34801561086257600080fd5b5061087d600480360381019061087891906143d2565b611d65565b60405161088a9190613fac565b60405180910390f35b34801561089f57600080fd5b506108ba60048036038101906108b59190614149565b611e7e565b6040516108c7919061479a565b60405180910390f35b3480156108dc57600080fd5b506108f760048036038101906108f291906143d2565b611f73565b6040516109049190613fac565b60405180910390f35b34801561091957600080fd5b50610934600480360381019061092f9190614718565b611fde565b005b34801561094257600080fd5b5061095d60048036038101906109589190614718565b61206e565b005b34801561096b57600080fd5b5061098660048036038101906109819190614149565b6120fe565b60405161099c9a999897969594939291906147c4565b60405180910390f35b3480156109b157600080fd5b506109ba6121cc565b6040516109c79190614881565b60405180910390f35b3480156109dc57600080fd5b506109e56121f2565b6040516109f291906141dc565b60405180910390f35b348015610a0757600080fd5b50610a106121f9565b604051610a1d9190614421565b60405180910390f35b348015610a3257600080fd5b50610a4d6004803603810190610a4891906148c1565b61220f565b005b348015610a5b57600080fd5b50610a766004803603810190610a719190614718565b6122fc565b005b348015610a8457600080fd5b50610a9f6004803603810190610a9a9190614718565b61238c565b005b348015610aad57600080fd5b50610ac86004803603810190610ac39190614958565b61241c565b005b348015610ad657600080fd5b50610af16004803603810190610aec9190614149565b6124e9565b604051610afe9190614185565b60405180910390f35b348015610b1357600080fd5b50610b1c612550565b604051610b299190613fac565b60405180910390f35b348015610b3e57600080fd5b50610b596004803603810190610b549190614985565b612642565b005b348015610b6757600080fd5b50610b706127b0565b604051610b7d9190614185565b60405180910390f35b348015610b9257600080fd5b50610bad6004803603810190610ba89190614149565b612848565b005b348015610bbb57600080fd5b50610bd66004803603810190610bd191906143d2565b61289e565b005b348015610be457600080fd5b50610bed6128bf565b604051610bfa9190614185565b60405180910390f35b348015610c0f57600080fd5b50610c2a6004803603810190610c259190613f64565b6128c5565b604051610c379190614185565b60405180910390f35b348015610c4c57600080fd5b50610c676004803603810190610c629190613f64565b6128dd565b604051610c749190614185565b60405180910390f35b348015610c8957600080fd5b50610ca46004803603810190610c9f9190614149565b6128f5565b604051610cb19190613fac565b60405180910390f35b348015610cc657600080fd5b50610ccf6129cb565b604051610cdc91906149e6565b60405180910390f35b348015610cf157600080fd5b50610d0c6004803603810190610d079190614149565b6129f1565b604051610d199190613fac565b60405180910390f35b348015610d2e57600080fd5b50610d496004803603810190610d449190614149565b612b40565b604051610d569190614185565b60405180910390f35b348015610d6b57600080fd5b50610d866004803603810190610d819190614149565b612b58565b604051610d97959493929190614a01565b60405180910390f35b348015610dac57600080fd5b50610dc76004803603810190610dc29190614a59565b612f28565b005b60007f7965db0b000000000000000000000000000000000000000000000000000000007bffffffffffffffffffffffffffffffffffffffffffffffffffffffff1916827bffffffffffffffffffffffffffffffffffffffffffffffffffffffff19161480610e3c5750610e3b82613019565b5b9050919050565b60a16020528160005260406000208181548110610e5f57600080fd5b906000526020600020016000915091509054906101000a900473ffffffffffffffffffffffffffffffffffffffff1681565b609a60009054906101000a900473ffffffffffffffffffffffffffffffffffffffff1681565b609b60009054906101000a900473ffffffffffffffffffffffffffffffffffffffff1673ffffffffffffffffffffffffffffffffffffffff1663956276288383336040518463ffffffff1660e01b8152600401610f1693929190614aaf565b600060405180830381600087803b158015610f3057600080fd5b505af1158015610f44573d6000803e3d6000fd5b505050505050565b600081610f58816128f5565b610f97576040517f08c379a0000000000000000000000000000000000000000000000000000000008152600401610f8e90614b43565b60405180910390fd5b609b60009054906101000a900473ffffffffffffffffffffffffffffffffffffffff1673ffffffffffffffffffffffffffffffffffffffff166313db9ce6846040518263ffffffff1660e01b8152600401610ff291906141dc565b602060405180830381865afa15801561100f573d6000803e3d6000fd5b505050506040513d601f19601f820116820180604052508101906110339190614b78565b915050919050565b6110486000801b33611f73565b611087576040517f08c379a000000000000000000000000000000000000000000000000000000000815260040161107e90614bf1565b60405180910390fd5b80609c8190555050565b60a36020528060005260406000206000915054906101000a900460ff1681565b600060656000838152602001908152602001600020600101549050919050565b609b60009054906101000a900473ffffffffffffffffffffffffffffffffffffffff1681565b60a26020528060005260406000206000915054906101000a900460ff1681565b61111f613dee565b6000808361112c816128f5565b61116b576040517f08c379a000000000000000000000000000000000000000000000000000000000815260040161116290614b43565b60405180910390fd5b609d6000868152602001908152602001600020609e600087815260200190815260200160002054609f60008881526020019081526020016000205482604051806101400160405290816000820160009054906101000a900460e01b7bffffffffffffffffffffffffffffffffffffffffffffffffffffffff19167bffffffffffffffffffffffffffffffffffffffffffffffffffffffff191681526020016000820160049054906101000a900460e01b7bffffffffffffffffffffffffffffffffffffffffffffffffffffffff19167bffffffffffffffffffffffffffffffffffffffffffffffffffffffff191681526020016000820160089054906101000a900463ffffffff1663ffffffff1663ffffffff16815260200160018201548152602001600282015481526020016003820160009054906101000a900473ffffffffffffffffffffffffffffffffffffffff1673ffffffffffffffffffffffffffffffffffffffff1673ffffffffffffffffffffffffffffffffffffffff168152602001600482015481526020016005820160009054906101000a900463ffffffff1663ffffffff1663ffffffff1681526020016005820160049054906101000a900473ffffffffffffffffffffffffffffffffffffffff1673ffffffffffffffffffffffffffffffffffffffff1673ffffffffffffffffffffffffffffffffffffffff1681526020016006820154815250509250935093509350509193909250565b611396826110b1565b61139f81613083565b6113a98383613097565b505050565b60a06020528060005260406000206000915054906101000a900463ffffffff1681565b6113d9613178565b73ffffffffffffffffffffffffffffffffffffffff168173ffffffffffffffffffffffffffffffffffffffff1614611446576040517f08c379a000000000000000000000000000000000000000000000000000000000815260040161143d90614c83565b60405180910390fd5b6114508282613180565b5050565b609960009054906101000a900473ffffffffffffffffffffffffffffffffffffffff1681565b609860009054906101000a900473ffffffffffffffffffffffffffffffffffffffff1681565b609b60009054906101000a900473ffffffffffffffffffffffffffffffffffffffff1673ffffffffffffffffffffffffffffffffffffffff16635765d3c882336040518363ffffffff1660e01b81526004016114fd929190614ca3565b600060405180830381600087803b15801561151757600080fd5b505af115801561152b573d6000803e3d6000fd5b5050505050565b60008073ffffffffffffffffffffffffffffffffffffffff16609860009054906101000a900473ffffffffffffffffffffffffffffffffffffffff1673ffffffffffffffffffffffffffffffffffffffff161415801561161f5750609860009054906101000a900473ffffffffffffffffffffffffffffffffffffffff1673ffffffffffffffffffffffffffffffffffffffff1663c909a4096040518163ffffffff1660e01b8152600401602060405180830381865afa1580156115fa573d6000803e3d6000fd5b505050506040513d601f19601f8201168201806040525081019061161e9190614cf8565b5b905090565b609960009054906101000a900473ffffffffffffffffffffffffffffffffffffffff1673ffffffffffffffffffffffffffffffffffffffff1663ee06b289336040518263ffffffff1660e01b815260040161167f91906140b4565b602060405180830381865afa15801561169c573d6000803e3d6000fd5b505050506040513d601f19601f820116820180604052508101906116c09190614cf8565b6116ff576040517f08c379a00000000000000000000000000000000000000000000000000000000081526004016116f690614d71565b60405180910390fd5b60005b868690508110156117d357600087878381811061172257611721614d91565b5b9050602002013590506117358133611d65565b1561174057506117c6565b611749816128f5565b1561175457506117c6565b6117c48a8a8481811061176a57611769614d91565b5b9050610140020189898581811061178457611783614d91565b5b9050602002013588888681811061179e5761179d614d91565b5b905060200201358787878181106117b8576117b7614d91565b5b90506020020135613262565b505b8080600101915050611702565b505050505050505050565b60a45481565b6117ec613dee565b6000826117f8816128f5565b611837576040517f08c379a000000000000000000000000000000000000000000000000000000000815260040161182e90614b43565b60405180910390fd5b609d6000858152602001908152602001600020609e60008681526020019081526020016000205481604051806101400160405290816000820160009054906101000a900460e01b7bffffffffffffffffffffffffffffffffffffffffffffffffffffffff19167bffffffffffffffffffffffffffffffffffffffffffffffffffffffff191681526020016000820160049054906101000a900460e01b7bffffffffffffffffffffffffffffffffffffffffffffffffffffffff19167bffffffffffffffffffffffffffffffffffffffffffffffffffffffff191681526020016000820160089054906101000a900463ffffffff1663ffffffff1663ffffffff16815260200160018201548152602001600282015481526020016003820160009054906101000a900473ffffffffffffffffffffffffffffffffffffffff1673ffffffffffffffffffffffffffffffffffffffff1673ffffffffffffffffffffffffffffffffffffffff168152602001600482015481526020016005820160009054906101000a900463ffffffff1663ffffffff1663ffffffff1681526020016005820160049054906101000a900473ffffffffffffffffffffffffffffffffffffffff1673ffffffffffffffffffffffffffffffffffffffff1673ffffffffffffffffffffffffffffffffffffffff16815260200160068201548152505091509250925050915091565b60008060a16000848152602001908152602001600020805480602002602001604051908101604052809291908181526020018280548015611ad757602002820191906000526020600020905b8160009054906101000a900473ffffffffffffffffffffffffffffffffffffffff1673ffffffffffffffffffffffffffffffffffffffff1681526020019060010190808311611a8d575b50505050509050600081514233604051602001611af5929190614e29565b6040516020818303038152906040528051906020012060001c611b189190614e84565b9050818181518110611b2d57611b2c614d91565b5b602002602001015192505050919050565b609e6020528060005260406000206000915090505481565b611b636000801b33611f73565b611ba2576040517f08c379a0000000000000000000000000000000000000000000000000000000008152600401611b9990614bf1565b60405180910390fd5b80609b60006101000a81548173ffffffffffffffffffffffffffffffffffffffff021916908373ffffffffffffffffffffffffffffffffffffffff16021790555050565b611bf36000801b33611f73565b611c32576040517f08c379a0000000000000000000000000000000000000000000000000000000008152600401611c2990614bf1565b60405180910390fd5b80609a60006101000a81548173ffffffffffffffffffffffffffffffffffffffff021916908373ffffffffffffffffffffffffffffffffffffffff16021790555050565b600081611c82816128f5565b611cc1576040517f08c379a0000000000000000000000000000000000000000000000000000000008152600401611cb890614b43565b60405180910390fd5b609b60009054906101000a900473ffffffffffffffffffffffffffffffffffffffff1673ffffffffffffffffffffffffffffffffffffffff16638ae2b59a846040518263ffffffff1660e01b8152600401611d1c91906141dc565b602060405180830381865afa158015611d39573d6000803e3d6000fd5b505050506040513d601f19601f82011682018060405250810190611d5d9190614eca565b915050919050565b60008060a16000858152602001908152602001600020805480602002602001604051908101604052809291908181526020018280548015611dfb57602002820191906000526020600020905b8160009054906101000a900473ffffffffffffffffffffffffffffffffffffffff1673ffffffffffffffffffffffffffffffffffffffff1681526020019060010190808311611db1575b5050505050905060005b8151811015611e71578373ffffffffffffffffffffffffffffffffffffffff16828281518110611e3857611e37614d91565b5b602002602001015173ffffffffffffffffffffffffffffffffffffffff1603611e6657600192505050611e78565b806001019050611e05565b5060009150505b92915050565b611e86613eba565b81611e90816128f5565b611ecf576040517f08c379a0000000000000000000000000000000000000000000000000000000008152600401611ec690614b43565b60405180910390fd5b609b60009054906101000a900473ffffffffffffffffffffffffffffffffffffffff1673ffffffffffffffffffffffffffffffffffffffff166391704e1e846040518263ffffffff1660e01b8152600401611f2a91906141dc565b608060405180830381865afa158015611f47573d6000803e3d6000fd5b505050506040513d601f19601f82011682018060405250810190611f6b9190615000565b915050919050565b60006065600084815260200190815260200160002060000160008373ffffffffffffffffffffffffffffffffffffffff1673ffffffffffffffffffffffffffffffffffffffff16815260200190815260200160002060009054906101000a900460ff16905092915050565b611feb6000801b33611f73565b61202a576040517f08c379a000000000000000000000000000000000000000000000000000000000815260040161202190614bf1565b60405180910390fd5b8060a760006101000a81548173ffffffffffffffffffffffffffffffffffffffff021916908373ffffffffffffffffffffffffffffffffffffffff16021790555050565b61207b6000801b33611f73565b6120ba576040517f08c379a00000000000000000000000000000000000000000000000000000000081526004016120b190614bf1565b60405180910390fd5b80609960006101000a81548173ffffffffffffffffffffffffffffffffffffffff021916908373ffffffffffffffffffffffffffffffffffffffff16021790555050565b609d6020528060005260406000206000915090508060000160009054906101000a900460e01b908060000160049054906101000a900460e01b908060000160089054906101000a900463ffffffff16908060010154908060020154908060030160009054906101000a900473ffffffffffffffffffffffffffffffffffffffff16908060040154908060050160009054906101000a900463ffffffff16908060050160049054906101000a900473ffffffffffffffffffffffffffffffffffffffff1690806006015490508a565b609760009054906101000a900473ffffffffffffffffffffffffffffffffffffffff1681565b6000801b81565b609b60149054906101000a900463ffffffff1681565b609960009054906101000a900473ffffffffffffffffffffffffffffffffffffffff1673ffffffffffffffffffffffffffffffffffffffff1663ee06b289336040518263ffffffff1660e01b815260040161226a91906140b4565b602060405180830381865afa158015612287573d6000803e3d6000fd5b505050506040513d601f19601f820116820180604052508101906122ab9190614cf8565b6122ea576040517f08c379a00000000000000000000000000000000000000000000000000000000081526004016122e190614d71565b60405180910390fd5b6122f684848484613262565b50505050565b6123096000801b33611f73565b612348576040517f08c379a000000000000000000000000000000000000000000000000000000000815260040161233f90614bf1565b60405180910390fd5b80609860006101000a81548173ffffffffffffffffffffffffffffffffffffffff021916908373ffffffffffffffffffffffffffffffffffffffff16021790555050565b6123996000801b33611f73565b6123d8576040517f08c379a00000000000000000000000000000000000000000000000000000000081526004016123cf90614bf1565b60405180910390fd5b80609760006101000a81548173ffffffffffffffffffffffffffffffffffffffff021916908373ffffffffffffffffffffffffffffffffffffffff16021790555050565b6124296000801b33611f73565b612468576040517f08c379a000000000000000000000000000000000000000000000000000000000815260040161245f90614bf1565b60405180910390fd5b60008163ffffffff1610158015612486575060648163ffffffff1611155b6124c5576040517f08c379a00000000000000000000000000000000000000000000000000000000081526004016124bc90615079565b60405180910390fd5b80609b60146101000a81548163ffffffff021916908363ffffffff16021790555050565b6000816124f5816128f5565b612534576040517f08c379a000000000000000000000000000000000000000000000000000000000815260040161252b90614b43565b60405180910390fd5b609f600084815260200190815260200160002054915050919050565b60008073ffffffffffffffffffffffffffffffffffffffff16609760009054906101000a900473ffffffffffffffffffffffffffffffffffffffff1673ffffffffffffffffffffffffffffffffffffffff161415801561263d5750609760009054906101000a900473ffffffffffffffffffffffffffffffffffffffff1673ffffffffffffffffffffffffffffffffffffffff1663f31d5cc26040518163ffffffff1660e01b8152600401602060405180830381865afa158015612618573d6000803e3d6000fd5b505050506040513d601f19601f8201168201806040525081019061263c9190614cf8565b5b905090565b60008060019054906101000a900460ff161590508080156126735750600160008054906101000a900460ff1660ff16105b806126a0575061268230613a8c565b15801561269f5750600160008054906101000a900460ff1660ff16145b5b6126df576040517f08c379a00000000000000000000000000000000000000000000000000000000081526004016126d69061510b565b60405180910390fd5b60016000806101000a81548160ff021916908360ff160217905550801561271c576001600060016101000a81548160ff0219169083151502179055505b612724613aaf565b6127316000801b84613097565b81609b60146101000a81548163ffffffff021916908363ffffffff16021790555080156127ab5760008060016101000a81548160ff0219169083151502179055507f7f26b83ff96e1f2b6a682f133852f6798a09c465da95921460cefb384740249860016040516127a29190615173565b60405180910390a15b505050565b6000609b60009054906101000a900473ffffffffffffffffffffffffffffffffffffffff1673ffffffffffffffffffffffffffffffffffffffff1663c9279c206040518163ffffffff1660e01b8152600401602060405180830381865afa15801561281f573d6000803e3d6000fd5b505050506040513d601f19601f820116820180604052508101906128439190614b78565b905090565b6128556000801b33611f73565b612894576040517f08c379a000000000000000000000000000000000000000000000000000000000815260040161288b90614bf1565b60405180910390fd5b8060a48190555050565b6128a7826110b1565b6128b081613083565b6128ba8383613180565b505050565b609c5481565b60a56020528060005260406000206000915090505481565b60a66020528060005260406000206000915090505481565b600080609d60008481526020019081526020016000209050600060e01b7bffffffffffffffffffffffffffffffffffffffffffffffffffffffff19168160000160009054906101000a900460e01b7bffffffffffffffffffffffffffffffffffffffffffffffffffffffff1916141580156129c35750600060e01b7bffffffffffffffffffffffffffffffffffffffffffffffffffffffff19168160000160049054906101000a900460e01b7bffffffffffffffffffffffffffffffffffffffffffffffffffffffff191614155b915050919050565b60a760009054906101000a900473ffffffffffffffffffffffffffffffffffffffff1681565b600080609960009054906101000a900473ffffffffffffffffffffffffffffffffffffffff1673ffffffffffffffffffffffffffffffffffffffff1663484f657b6040518163ffffffff1660e01b8152600401600060405180830381865afa158015612a61573d6000803e3d6000fd5b505050506040513d6000823e3d601f19601f82011682018060405250810190612a8a9190615251565b905060008151905060008103612ad5576040517f08c379a0000000000000000000000000000000000000000000000000000000008152600401612acc906152e6565b60405180910390fd5b600081606460a0600088815260200190815260200160002060009054906101000a900463ffffffff16612b089190615335565b63ffffffff16612b189190615372565b9050609b60149054906101000a900463ffffffff1663ffffffff168110159350505050919050565b609f6020528060005260406000206000915090505481565b612b60613dee565b6000612b6a613eba565b60008085612b77816128f5565b612bb6576040517f08c379a0000000000000000000000000000000000000000000000000000000008152600401612bad90614b43565b60405180910390fd5b6000609d6000898152602001908152602001600020604051806101400160405290816000820160009054906101000a900460e01b7bffffffffffffffffffffffffffffffffffffffffffffffffffffffff19167bffffffffffffffffffffffffffffffffffffffffffffffffffffffff191681526020016000820160049054906101000a900460e01b7bffffffffffffffffffffffffffffffffffffffffffffffffffffffff19167bffffffffffffffffffffffffffffffffffffffffffffffffffffffff191681526020016000820160089054906101000a900463ffffffff1663ffffffff1663ffffffff16815260200160018201548152602001600282015481526020016003820160009054906101000a900473ffffffffffffffffffffffffffffffffffffffff1673ffffffffffffffffffffffffffffffffffffffff1673ffffffffffffffffffffffffffffffffffffffff168152602001600482015481526020016005820160009054906101000a900463ffffffff1663ffffffff1663ffffffff1681526020016005820160049054906101000a900473ffffffffffffffffffffffffffffffffffffffff1673ffffffffffffffffffffffffffffffffffffffff1673ffffffffffffffffffffffffffffffffffffffff1681526020016006820154815250509050600080609a60009054906101000a900473ffffffffffffffffffffffffffffffffffffffff1673ffffffffffffffffffffffffffffffffffffffff1663361444a584602001518c6040518363ffffffff1660e01b8152600401612e079291906153a3565b6040805180830381865afa158015612e23573d6000803e3d6000fd5b505050506040513d601f19601f82011682018060405250810190612e4791906153cc565b9150915082609e60008c815260200190815260200160002054609b60009054906101000a900473ffffffffffffffffffffffffffffffffffffffff1673ffffffffffffffffffffffffffffffffffffffff166391704e1e8d6040518263ffffffff1660e01b8152600401612ebb91906141dc565b608060405180830381865afa158015612ed8573d6000803e3d6000fd5b505050506040513d601f19601f82011682018060405250810190612efc9190615000565b83609f60008f815260200190815260200160002054985098509850985098505050505091939590929450565b609960009054906101000a900473ffffffffffffffffffffffffffffffffffffffff1673ffffffffffffffffffffffffffffffffffffffff1663ee06b289336040518263ffffffff1660e01b8152600401612f8391906140b4565b602060405180830381865afa158015612fa0573d6000803e3d6000fd5b505050506040513d601f19601f82011682018060405250810190612fc49190614cf8565b613003576040517f08c379a0000000000000000000000000000000000000000000000000000000008152600401612ffa90614d71565b60405180910390fd5b613014838383866101200135613262565b505050565b60007f01ffc9a7000000000000000000000000000000000000000000000000000000007bffffffffffffffffffffffffffffffffffffffffffffffffffffffff1916827bffffffffffffffffffffffffffffffffffffffffffffffffffffffff1916149050919050565b6130948161308f613178565b613b00565b50565b6130a18282611f73565b6131745760016065600084815260200190815260200160002060000160008373ffffffffffffffffffffffffffffffffffffffff1673ffffffffffffffffffffffffffffffffffffffff16815260200190815260200160002060006101000a81548160ff021916908315150217905550613119613178565b73ffffffffffffffffffffffffffffffffffffffff168173ffffffffffffffffffffffffffffffffffffffff16837f2f8788117e7eff1d82e926ec794901d17c78024a50270940304540a733656f0d60405160405180910390a45b5050565b600033905090565b61318a8282611f73565b1561325e5760006065600084815260200190815260200160002060000160008373ffffffffffffffffffffffffffffffffffffffff1673ffffffffffffffffffffffffffffffffffffffff16815260200190815260200160002060006101000a81548160ff021916908315150217905550613203613178565b73ffffffffffffffffffffffffffffffffffffffff168173ffffffffffffffffffffffffffffffffffffffff16837ff6391f5c32d9c69d2a47ea670b442974b53935d1edc7fd64eb21e047a839171b60405160405180910390a45b5050565b600060a0600085815260200190815260200160002060009054906101000a900463ffffffff1663ffffffff16905061329a8433611d65565b156132a55750613a86565b6132ae846128f5565b1561339b57600160a0600086815260200190815260200160002060009054906101000a900463ffffffff166132e3919061540c565b60a0600086815260200190815260200160002060006101000a81548163ffffffff021916908363ffffffff160217905550808061331f90615444565b91505060a16000858152602001908152602001600020339080600181540180825580915050600190039060005260206000200160009091909190916101000a81548173ffffffffffffffffffffffffffffffffffffffff021916908373ffffffffffffffffffffffffffffffffffffffff16021790555061377d565b84609d600086815260200190815260200160002081816133bb919061598f565b90505082609e60008681526020019081526020016000208190555081609f6000868152602001908152602001600020819055506000609c5411156136d15742603c60a660008860200160208101906134139190613f64565b7bffffffffffffffffffffffffffffffffffffffffffffffffffffffff19167bffffffffffffffffffffffffffffffffffffffffffffffffffffffff191681526020019081526020016000205461346a919061599d565b10806134d95750600060a5600087602001602081019061348a9190613f64565b7bffffffffffffffffffffffffffffffffffffffffffffffffffffffff19167bffffffffffffffffffffffffffffffffffffffffffffffffffffffff1916815260200190815260200160002054145b156135b0574260a660008760200160208101906134f69190613f64565b7bffffffffffffffffffffffffffffffffffffffffffffffffffffffff19167bffffffffffffffffffffffffffffffffffffffffffffffffffffffff1916815260200190815260200160002081905550600060a5600087602001602081019061355f9190613f64565b7bffffffffffffffffffffffffffffffffffffffffffffffffffffffff19167bffffffffffffffffffffffffffffffffffffffffffffffffffffffff19168152602001908152602001600020819055505b609c5460a560008760200160208101906135ca9190613f64565b7bffffffffffffffffffffffffffffffffffffffffffffffffffffffff19167bffffffffffffffffffffffffffffffffffffffffffffffffffffffff191681526020019081526020016000205410613657576040517f08c379a000000000000000000000000000000000000000000000000000000000815260040161364e90615a1d565b60405180910390fd5b60a5600086602001602081019061366e9190613f64565b7bffffffffffffffffffffffffffffffffffffffffffffffffffffffff19167bffffffffffffffffffffffffffffffffffffffffffffffffffffffff1916815260200190815260200160002060008154809291906136cb90615444565b91905055505b600160a0600086815260200190815260200160002060006101000a81548163ffffffff021916908363ffffffff1602179055506001905060a16000858152602001908152602001600020339080600181540180825580915050600190039060005260206000200160009091909190916101000a81548173ffffffffffffffffffffffffffffffffffffffff021916908373ffffffffffffffffffffffffffffffffffffffff1602179055505b60a2600085815260200190815260200160002060009054906101000a900460ff16613963576000856060013560001c90506000609d600087815260200190815260200160002060000160049054906101000a900460e01b90506137de612550565b1561388d57609760009054906101000a900473ffffffffffffffffffffffffffffffffffffffff1673ffffffffffffffffffffffffffffffffffffffff166382a434178261382b89611a41565b6040518363ffffffff1660e01b8152600401613848929190615a3d565b6020604051808303816000875af1158015613867573d6000803e3d6000fd5b505050506040513d601f19601f8201168201806040525081019061388b9190614cf8565b505b613895611532565b1561396057609860009054906101000a900473ffffffffffffffffffffffffffffffffffffffff1673ffffffffffffffffffffffffffffffffffffffff16635bea9f51826138e289611a41565b8a60400160208101906138f59190614958565b8b608001358b6040518663ffffffff1660e01b815260040161391b959493929190615a66565b6020604051808303816000875af115801561393a573d6000803e3d6000fd5b505050506040513d601f19601f8201168201806040525081019061395e9190614cf8565b505b50505b61396c846129f1565b15613a84578460000160208101906139849190613f64565b7bffffffffffffffffffffffffffffffffffffffffffffffffffffffff1916847fd68c59e80a06442f6358aba17d8c336051db9cb19cb8239f1a969b6ed49095258760400160208101906139d89190614958565b886060013589608001358a60a00160208101906139f59190615ab9565b8b60c001358c60e0016020810190613a0d9190614958565b8d6020016020810190613a209190613f64565b8e610100016020810190613a349190615ab9565b8f6101200135604051613a4f99989796959493929190615ae6565b60405180910390a3600160a2600086815260200190815260200160002060006101000a81548160ff0219169083151502179055505b505b50505050565b6000808273ffffffffffffffffffffffffffffffffffffffff163b119050919050565b600060019054906101000a900460ff16613afe576040517f08c379a0000000000000000000000000000000000000000000000000000000008152600401613af590615be5565b60405180910390fd5b565b613b0a8282611f73565b613b8157613b1781613b85565b613b258360001c6020613bb2565b604051602001613b36929190615d0e565b6040516020818303038152906040526040517f08c379a0000000000000000000000000000000000000000000000000000000008152600401613b789190615d81565b60405180910390fd5b5050565b6060613bab8273ffffffffffffffffffffffffffffffffffffffff16601460ff16613bb2565b9050919050565b606060006002836002613bc59190615da3565b613bcf919061599d565b67ffffffffffffffff811115613be857613be7614f0d565b5b6040519080825280601f01601f191660200182016040528015613c1a5781602001600182028036833780820191505090505b5090507f300000000000000000000000000000000000000000000000000000000000000081600081518110613c5257613c51614d91565b5b60200101907effffffffffffffffffffffffffffffffffffffffffffffffffffffffffffff1916908160001a9053507f780000000000000000000000000000000000000000000000000000000000000081600181518110613cb657613cb5614d91565b5b60200101907effffffffffffffffffffffffffffffffffffffffffffffffffffffffffffff1916908160001a90535060006001846002613cf69190615da3565b613d00919061599d565b90505b6001811115613da0577f3031323334353637383961626364656600000000000000000000000000000000600f861660108110613d4257613d41614d91565b5b1a60f81b828281518110613d5957613d58614d91565b5b60200101907effffffffffffffffffffffffffffffffffffffffffffffffffffffffffffff1916908160001a905350600485901c945080613d9990615de5565b9050613d03565b5060008414613de4576040517f08c379a0000000000000000000000000000000000000000000000000000000008152600401613ddb90615e5a565b60405180910390fd5b8091505092915050565b60405180610140016040528060007bffffffffffffffffffffffffffffffffffffffffffffffffffffffff1916815260200160007bffffffffffffffffffffffffffffffffffffffffffffffffffffffff19168152602001600063ffffffff1681526020016000801916815260200160008152602001600073ffffffffffffffffffffffffffffffffffffffff16815260200160008152602001600063ffffffff168152602001600073ffffffffffffffffffffffffffffffffffffffff168152602001600081525090565b604051806080016040528060008152602001600073ffffffffffffffffffffffffffffffffffffffff16815260200160008152602001600081525090565b6000604051905090565b600080fd5b600080fd5b60007fffffffff0000000000000000000000000000000000000000000000000000000082169050919050565b613f4181613f0c565b8114613f4c57600080fd5b50565b600081359050613f5e81613f38565b92915050565b600060208284031215613f7a57613f79613f02565b5b6000613f8884828501613f4f565b91505092915050565b60008115159050919050565b613fa681613f91565b82525050565b6000602082019050613fc16000830184613f9d565b92915050565b6000819050919050565b613fda81613fc7565b8114613fe557600080fd5b50565b600081359050613ff781613fd1565b92915050565b6000819050919050565b61401081613ffd565b811461401b57600080fd5b50565b60008135905061402d81614007565b92915050565b6000806040838503121561404a57614049613f02565b5b600061405885828601613fe8565b92505060206140698582860161401e565b9150509250929050565b600073ffffffffffffffffffffffffffffffffffffffff82169050919050565b600061409e82614073565b9050919050565b6140ae81614093565b82525050565b60006020820190506140c960008301846140a5565b92915050565b6000819050919050565b60006140f46140ef6140ea84614073565b6140cf565b614073565b9050919050565b6000614106826140d9565b9050919050565b6000614118826140fb565b9050919050565b6141288161410d565b82525050565b6000602082019050614143600083018461411f565b92915050565b60006020828403121561415f5761415e613f02565b5b600061416d84828501613fe8565b91505092915050565b61417f81613ffd565b82525050565b600060208201905061419a6000830184614176565b92915050565b6000602082840312156141b6576141b5613f02565b5b60006141c48482850161401e565b91505092915050565b6141d681613fc7565b82525050565b60006020820190506141f160008301846141cd565b92915050565b6000614202826140d9565b9050919050565b6000614214826141f7565b9050919050565b61422481614209565b82525050565b600060208201905061423f600083018461421b565b92915050565b61424e81613f0c565b82525050565b600063ffffffff82169050919050565b61426d81614254565b82525050565b61427c81613fc7565b82525050565b61428b81613ffd565b82525050565b61429a81614093565b82525050565b610140820160008201516142b76000850182614245565b5060208201516142ca6020850182614245565b5060408201516142dd6040850182614264565b5060608201516142f06060850182614273565b5060808201516143036080850182614282565b5060a082015161431660a0850182614291565b5060c082015161432960c0850182614282565b5060e082015161433c60e0850182614264565b50610100820151614351610100850182614291565b50610120820151614366610120850182614282565b50505050565b60006101808201905061438260008301866142a0565b6143906101408301856141cd565b61439e610160830184614176565b949350505050565b6143af81614093565b81146143ba57600080fd5b50565b6000813590506143cc816143a6565b92915050565b600080604083850312156143e9576143e8613f02565b5b60006143f785828601613fe8565b9250506020614408858286016143bd565b9150509250929050565b61441b81614254565b82525050565b60006020820190506144366000830184614412565b92915050565b6000614447826140fb565b9050919050565b6144578161443c565b82525050565b6000602082019050614472600083018461444e565b92915050565b6000614483826140fb565b9050919050565b61449381614478565b82525050565b60006020820190506144ae600083018461448a565b92915050565b600080fd5b600080fd5b600080fd5b60008083601f8401126144d9576144d86144b4565b5b8235905067ffffffffffffffff8111156144f6576144f56144b9565b5b60208301915083610140820283011115614513576145126144be565b5b9250929050565b60008083601f8401126145305761452f6144b4565b5b8235905067ffffffffffffffff81111561454d5761454c6144b9565b5b602083019150836020820283011115614569576145686144be565b5b9250929050565b60008083601f840112614586576145856144b4565b5b8235905067ffffffffffffffff8111156145a3576145a26144b9565b5b6020830191508360208202830111156145bf576145be6144be565b5b9250929050565b6000806000806000806000806080898b0312156145e6576145e5613f02565b5b600089013567ffffffffffffffff81111561460457614603613f07565b5b6146108b828c016144c3565b9850985050602089013567ffffffffffffffff81111561463357614632613f07565b5b61463f8b828c0161451a565b9650965050604089013567ffffffffffffffff81111561466257614661613f07565b5b61466e8b828c0161451a565b9450945050606089013567ffffffffffffffff81111561469157614690613f07565b5b61469d8b828c01614570565b92509250509295985092959890939650565b6000610160820190506146c560008301856142a0565b6146d36101408301846141cd565b9392505050565b60006146e582614073565b9050919050565b6146f5816146da565b811461470057600080fd5b50565b600081359050614712816146ec565b92915050565b60006020828403121561472e5761472d613f02565b5b600061473c84828501614703565b91505092915050565b60808201600082015161475b6000850182614282565b50602082015161476e6020850182614291565b5060408201516147816040850182614282565b5060608201516147946060850182614282565b50505050565b60006080820190506147af6000830184614745565b92915050565b6147be81613f0c565b82525050565b6000610140820190506147da600083018d6147b5565b6147e7602083018c6147b5565b6147f4604083018b614412565b614801606083018a6141cd565b61480e6080830189614176565b61481b60a08301886140a5565b61482860c0830187614176565b61483560e0830186614412565b6148436101008301856140a5565b614851610120830184614176565b9b9a5050505050505050505050565b600061486b826140fb565b9050919050565b61487b81614860565b82525050565b60006020820190506148966000830184614872565b92915050565b600080fd5b600061014082840312156148b8576148b761489c565b5b81905092915050565b6000806000806101a085870312156148dc576148db613f02565b5b60006148ea878288016148a1565b9450506101406148fc87828801613fe8565b93505061016061490e87828801613fe8565b9250506101806149208782880161401e565b91505092959194509250565b61493581614254565b811461494057600080fd5b50565b6000813590506149528161492c565b92915050565b60006020828403121561496e5761496d613f02565b5b600061497c84828501614943565b91505092915050565b6000806040838503121561499c5761499b613f02565b5b60006149aa858286016143bd565b92505060206149bb85828601614943565b9150509250929050565b60006149d0826141f7565b9050919050565b6149e0816149c5565b82525050565b60006020820190506149fb60008301846149d7565b92915050565b600061022082019050614a1760008301886142a0565b614a256101408301876141cd565b614a33610160830186614745565b614a416101e0830185613f9d565b614a4f610200830184614176565b9695505050505050565b60008060006101808486031215614a7357614a72613f02565b5b6000614a81868287016148a1565b935050610140614a9386828701613fe8565b925050610160614aa586828701613fe8565b9150509250925092565b6000606082019050614ac460008301866141cd565b614ad16020830185614176565b614ade60408301846140a5565b949350505050565b600082825260208201905092915050565b7f4f42330000000000000000000000000000000000000000000000000000000000600082015250565b6000614b2d600383614ae6565b9150614b3882614af7565b602082019050919050565b60006020820190508181036000830152614b5c81614b20565b9050919050565b600081519050614b7281614007565b92915050565b600060208284031215614b8e57614b8d613f02565b5b6000614b9c84828501614b63565b91505092915050565b7f4f42310000000000000000000000000000000000000000000000000000000000600082015250565b6000614bdb600383614ae6565b9150614be682614ba5565b602082019050919050565b60006020820190508181036000830152614c0a81614bce565b9050919050565b7f416363657373436f6e74726f6c3a2063616e206f6e6c792072656e6f756e636560008201527f20726f6c657320666f722073656c660000000000000000000000000000000000602082015250565b6000614c6d602f83614ae6565b9150614c7882614c11565b604082019050919050565b60006020820190508181036000830152614c9c81614c60565b9050919050565b6000604082019050614cb860008301856141cd565b614cc560208301846140a5565b9392505050565b614cd581613f91565b8114614ce057600080fd5b50565b600081519050614cf281614ccc565b92915050565b600060208284031215614d0e57614d0d613f02565b5b6000614d1c84828501614ce3565b91505092915050565b7f4f42320000000000000000000000000000000000000000000000000000000000600082015250565b6000614d5b600383614ae6565b9150614d6682614d25565b602082019050919050565b60006020820190508181036000830152614d8a81614d4e565b9050919050565b7f4e487b7100000000000000000000000000000000000000000000000000000000600052603260045260246000fd5b6000819050919050565b614ddb614dd682613ffd565b614dc0565b82525050565b60008160601b9050919050565b6000614df982614de1565b9050919050565b6000614e0b82614dee565b9050919050565b614e23614e1e82614093565b614e00565b82525050565b6000614e358285614dca565b602082019150614e458284614e12565b6014820191508190509392505050565b7f4e487b7100000000000000000000000000000000000000000000000000000000600052601260045260246000fd5b6000614e8f82613ffd565b9150614e9a83613ffd565b925082614eaa57614ea9614e55565b5b828206905092915050565b600081519050614ec4816143a6565b92915050565b600060208284031215614ee057614edf613f02565b5b6000614eee84828501614eb5565b91505092915050565b600080fd5b6000601f19601f8301169050919050565b7f4e487b7100000000000000000000000000000000000000000000000000000000600052604160045260246000fd5b614f4582614efc565b810181811067ffffffffffffffff82111715614f6457614f63614f0d565b5b80604052505050565b6000614f77613ef8565b9050614f838282614f3c565b919050565b600060808284031215614f9e57614f9d614ef7565b5b614fa86080614f6d565b90506000614fb884828501614b63565b6000830152506020614fcc84828501614eb5565b6020830152506040614fe084828501614b63565b6040830152506060614ff484828501614b63565b60608301525092915050565b60006080828403121561501657615015613f02565b5b600061502484828501614f88565b91505092915050565b7f4f42350000000000000000000000000000000000000000000000000000000000600082015250565b6000615063600383614ae6565b915061506e8261502d565b602082019050919050565b6000602082019050818103600083015261509281615056565b9050919050565b7f496e697469616c697a61626c653a20636f6e747261637420697320616c72656160008201527f647920696e697469616c697a6564000000000000000000000000000000000000602082015250565b60006150f5602e83614ae6565b915061510082615099565b604082019050919050565b60006020820190508181036000830152615124816150e8565b9050919050565b6000819050919050565b600060ff82169050919050565b600061515d6151586151538461512b565b6140cf565b615135565b9050919050565b61516d81615142565b82525050565b60006020820190506151886000830184615164565b92915050565b600067ffffffffffffffff8211156151a9576151a8614f0d565b5b602082029050602081019050919050565b60006151cd6151c88461518e565b614f6d565b905080838252602082019050602084028301858111156151f0576151ef6144be565b5b835b8181101561521957806152058882614eb5565b8452602084019350506020810190506151f2565b5050509392505050565b600082601f830112615238576152376144b4565b5b81516152488482602086016151ba565b91505092915050565b60006020828403121561526757615266613f02565b5b600082015167ffffffffffffffff81111561528557615284613f07565b5b61529184828501615223565b91505092915050565b7f4f42360000000000000000000000000000000000000000000000000000000000600082015250565b60006152d0600383614ae6565b91506152db8261529a565b602082019050919050565b600060208201905081810360008301526152ff816152c3565b9050919050565b7f4e487b7100000000000000000000000000000000000000000000000000000000600052601160045260246000fd5b600061534082614254565b915061534b83614254565b925082820261535981614254565b915080821461536b5761536a615306565b5b5092915050565b600061537d82613ffd565b915061538883613ffd565b92508261539857615397614e55565b5b828204905092915050565b60006040820190506153b860008301856147b5565b6153c560208301846141cd565b9392505050565b600080604083850312156153e3576153e2613f02565b5b60006153f185828601614ce3565b925050602061540285828601614ce3565b9150509250929050565b600061541782614254565b915061542283614254565b9250828201905063ffffffff81111561543e5761543d615306565b5b92915050565b600061544f82613ffd565b91507fffffffffffffffffffffffffffffffffffffffffffffffffffffffffffffffff820361548157615480615306565b5b600182019050919050565b6000813561549981613f38565b80915050919050565b60008160001b9050919050565b600063ffffffff6154bf846154a2565b9350801983169250808416831791505092915050565b60006154e082613f0c565b9050919050565b60008160e01c9050919050565b60006154ff826154e7565b9050919050565b61550f826154d5565b61552261551b826154f4565b83546154af565b8255505050565b60008160201b9050919050565b600067ffffffff0000000061554a84615529565b9350801983169250808416831791505092915050565b615569826154d5565b61557c615575826154f4565b8354615536565b8255505050565b600081356155908161492c565b80915050919050565b60008160401b9050919050565b60006bffffffff00000000000000006155be84615599565b9350801983169250808416831791505092915050565b60006155ef6155ea6155e584614254565b6140cf565b614254565b9050919050565b6000819050919050565b615609826155d4565b61561c615615826155f6565b83546155a6565b8255505050565b6000813561563081613fd1565b80915050919050565b60007fffffffffffffffffffffffffffffffffffffffffffffffffffffffffffffffff615665846154a2565b9350801983169250808416831791505092915050565b600061568682613fc7565b9050919050565b60008160001c9050919050565b60006156a58261568d565b9050919050565b6156b58261567b565b6156c86156c18261569a565b8354615639565b8255505050565b600081356156dc81614007565b80915050919050565b60006157006156fb6156f684613ffd565b6140cf565b613ffd565b9050919050565b6000819050919050565b61571a826156e5565b61572d61572682615707565b8354615639565b8255505050565b60008135615741816143a6565b80915050919050565b600073ffffffffffffffffffffffffffffffffffffffff61576a846154a2565b9350801983169250808416831791505092915050565b600061578b826141f7565b9050919050565b6000819050919050565b6157a582615780565b6157b86157b182615792565b835461574a565b8255505050565b6157c8826155d4565b6157db6157d4826155f6565b83546154af565b8255505050565b600077ffffffffffffffffffffffffffffffffffffffff0000000061580684615529565b9350801983169250808416831791505092915050565b61582582615780565b61583861583182615792565b83546157e2565b8255505050565b6000810160008301806158518161548c565b905061585d8184615506565b5050506000810160208301806158728161548c565b905061587e8184615560565b50505060008101604083018061589381615583565b905061589f8184615600565b5050506001810160608301806158b481615623565b90506158c081846156ac565b5050506002810160808301806158d5816156cf565b90506158e18184615711565b5050506003810160a08301806158f681615734565b9050615902818461579c565b5050506004810160c0830180615917816156cf565b90506159238184615711565b5050506005810160e083018061593881615583565b905061594481846157bf565b5050506005810161010083018061595a81615734565b9050615966818461581c565b5050506006810161012083018061597c816156cf565b90506159888184615711565b5050505050565b615999828261583f565b5050565b60006159a882613ffd565b91506159b383613ffd565b92508282019050808211156159cb576159ca615306565b5b92915050565b7f4f42380000000000000000000000000000000000000000000000000000000000600082015250565b6000615a07600383614ae6565b9150615a12826159d1565b602082019050919050565b60006020820190508181036000830152615a36816159fa565b9050919050565b6000604082019050615a5260008301856147b5565b615a5f60208301846140a5565b9392505050565b600060a082019050615a7b60008301886147b5565b615a8860208301876140a5565b615a956040830186614412565b615aa26060830185614176565b615aaf60808301846141cd565b9695505050505050565b600060208284031215615acf57615ace613f02565b5b6000615add848285016143bd565b91505092915050565b600061012082019050615afc600083018c614412565b615b09602083018b6141cd565b615b16604083018a614176565b615b2360608301896140a5565b615b306080830188614176565b615b3d60a0830187614412565b615b4a60c08301866147b5565b615b5760e08301856140a5565b615b65610100830184614176565b9a9950505050505050505050565b7f496e697469616c697a61626c653a20636f6e7472616374206973206e6f74206960008201527f6e697469616c697a696e67000000000000000000000000000000000000000000602082015250565b6000615bcf602b83614ae6565b9150615bda82615b73565b604082019050919050565b60006020820190508181036000830152615bfe81615bc2565b9050919050565b600081905092915050565b7f416363657373436f6e74726f6c3a206163636f756e7420000000000000000000600082015250565b6000615c46601783615c05565b9150615c5182615c10565b601782019050919050565b600081519050919050565b60005b83811015615c85578082015181840152602081019050615c6a565b60008484015250505050565b6000615c9c82615c5c565b615ca68185615c05565b9350615cb6818560208601615c67565b80840191505092915050565b7f206973206d697373696e6720726f6c6520000000000000000000000000000000600082015250565b6000615cf8601183615c05565b9150615d0382615cc2565b601182019050919050565b6000615d1982615c39565b9150615d258285615c91565b9150615d3082615ceb565b9150615d3c8284615c91565b91508190509392505050565b6000615d5382615c5c565b615d5d8185614ae6565b9350615d6d818560208601615c67565b615d7681614efc565b840191505092915050565b60006020820190508181036000830152615d9b8184615d48565b905092915050565b6000615dae82613ffd565b9150615db983613ffd565b9250828202615dc781613ffd565b91508282048414831517615dde57615ddd615306565b5b5092915050565b6000615df082613ffd565b915060008203615e0357615e02615306565b5b600182039050919050565b7f537472696e67733a20686578206c656e67746820696e73756666696369656e74600082015250565b6000615e44602083614ae6565b9150615e4f82615e0e565b602082019050919050565b60006020820190508181036000830152615e7381615e37565b905091905056fea264697066735822122089657400d5d93a2374e465c2ef2d86e33a86047a0b419e85fdf99208de5fa5ff64736f6c63430008180033",
  "linkReferences": {},
  "deployedLinkReferences": {}
}