{
  "_format": "hh-sol-artifact-1",
  "contractName": "AttestationBatchMaker",
  "sourceName": "contracts/attestationBatchMaker.sol",
  "abi": [
    {
      "inputs": [],
      "stateMutability": "nonpayable",
      "type": "constructor"
    },
    {
      "anonymous": false,
      "inputs": [
        {
          "indexed": true,
          "internalType": "bytes32",
          "name": "attestationBatchMessageHash",
          "type": "bytes32"
        },
        {
          "indexed": true,
          "internalType": "uint32",
          "name": "batchIndex",
          "type": "uint32"
        },
        {
          "indexed": true,
          "internalType": "bytes4",
          "name": "networkId",
          "type": "bytes4"
        },
        {
          "indexed": false,
          "internalType": "bytes",
          "name": "encodedBatchPayload",
          "type": "bytes"
        }
      ],
      "name": "BatchConstructed",
      "type": "event"
    },
    {
      "anonymous": false,
      "inputs": [
        {
          "indexed": false,
          "internalType": "uint256",
          "name": "errorCode",
          "type": "uint256"
        },
        {
          "indexed": false,
          "internalType": "bytes4",
          "name": "networkId",
          "type": "bytes4"
        }
      ],
      "name": "BatchError",
      "type": "event"
    },
    {
      "anonymous": false,
      "inputs": [
        {
          "indexed": false,
          "internalType": "uint8",
          "name": "version",
          "type": "uint8"
        }
      ],
      "name": "Initialized",
      "type": "event"
    },
    {
      "anonymous": false,
      "inputs": [
        {
          "indexed": true,
          "internalType": "bytes32",
          "name": "id",
          "type": "bytes32"
        },
        {
          "indexed": true,
          "internalType": "address",
          "name": "attester",
          "type": "address"
        },
        {
          "indexed": true,
          "internalType": "uint32",
          "name": "batchIndex",
          "type": "uint32"
        },
        {
          "indexed": false,
          "internalType": "address",
          "name": "beneficiary",
          "type": "address"
        },
        {
          "indexed": false,
          "internalType": "bytes32",
          "name": "attestationBatchMessageHash",
          "type": "bytes32"
        },
        {
          "indexed": false,
          "internalType": "bytes",
          "name": "signature",
          "type": "bytes"
        }
      ],
      "name": "OrderAttested",
      "type": "event"
    },
    {
      "anonymous": false,
      "inputs": [
        {
          "indexed": true,
          "internalType": "bytes32",
          "name": "role",
          "type": "bytes32"
        },
        {
          "indexed": true,
          "internalType": "bytes32",
          "name": "previousAdminRole",
          "type": "bytes32"
        },
        {
          "indexed": true,
          "internalType": "bytes32",
          "name": "newAdminRole",
          "type": "bytes32"
        }
      ],
      "name": "RoleAdminChanged",
      "type": "event"
    },
    {
      "anonymous": false,
      "inputs": [
        {
          "indexed": true,
          "internalType": "bytes32",
          "name": "role",
          "type": "bytes32"
        },
        {
          "indexed": true,
          "internalType": "address",
          "name": "account",
          "type": "address"
        },
        {
          "indexed": true,
          "internalType": "address",
          "name": "sender",
          "type": "address"
        }
      ],
      "name": "RoleGranted",
      "type": "event"
    },
    {
      "anonymous": false,
      "inputs": [
        {
          "indexed": true,
          "internalType": "bytes32",
          "name": "role",
          "type": "bytes32"
        },
        {
          "indexed": true,
          "internalType": "address",
          "name": "account",
          "type": "address"
        },
        {
          "indexed": true,
          "internalType": "address",
          "name": "sender",
          "type": "address"
        }
      ],
      "name": "RoleRevoked",
      "type": "event"
    },
    {
      "inputs": [],
      "name": "DEFAULT_ADMIN_ROLE",
      "outputs": [
        {
          "internalType": "bytes32",
          "name": "",
          "type": "bytes32"
        }
      ],
      "stateMutability": "view",
      "type": "function"
    },
    {
      "inputs": [
        {
          "internalType": "bytes",
          "name": "batchPayload",
          "type": "bytes"
        },
        {
          "internalType": "bytes",
          "name": "signature",
          "type": "bytes"
        },
        {
          "internalType": "bytes4",
          "name": "networkId",
          "type": "bytes4"
        }
      ],
      "name": "attestBatch",
      "outputs": [],
      "stateMutability": "nonpayable",
      "type": "function"
    },
    {
      "inputs": [],
      "name": "attestationsVerifierProofs",
      "outputs": [
        {
          "internalType": "contract AttestationsVerifierProofs",
          "name": "",
          "type": "address"
        }
      ],
      "stateMutability": "view",
      "type": "function"
    },
    {
      "inputs": [],
      "name": "attestersPortal",
      "outputs": [
        {
          "internalType": "contract AttestersPortal",
          "name": "",
          "type": "address"
        }
      ],
      "stateMutability": "view",
      "type": "function"
    },
    {
      "inputs": [
        {
          "internalType": "bytes4",
          "name": "",
          "type": "bytes4"
        }
      ],
      "name": "batchConstructionIntervalHeightByNetwork",
      "outputs": [
        {
          "internalType": "uint256",
          "name": "",
          "type": "uint256"
        }
      ],
      "stateMutability": "view",
      "type": "function"
    },
    {
      "inputs": [
        {
          "internalType": "bytes32",
          "name": "",
          "type": "bytes32"
        }
      ],
      "name": "batchMessageHashToCombinedKey",
      "outputs": [
        {
          "internalType": "bytes32",
          "name": "",
          "type": "bytes32"
        }
      ],
      "stateMutability": "view",
      "type": "function"
    },
    {
      "inputs": [
        {
          "internalType": "bytes32",
          "name": "",
          "type": "bytes32"
        },
        {
          "internalType": "uint256",
          "name": "",
          "type": "uint256"
        }
      ],
      "name": "batchMessageHashesByIndexSourceHash",
      "outputs": [
        {
          "internalType": "bytes32",
          "name": "attestationBatchMessageHash",
          "type": "bytes32"
        },
        {
          "internalType": "address",
          "name": "attester",
          "type": "address"
        },
        {
          "internalType": "bytes",
          "name": "signature",
          "type": "bytes"
        }
      ],
      "stateMutability": "view",
      "type": "function"
    },
    {
      "inputs": [
        {
          "internalType": "bytes32",
          "name": "",
          "type": "bytes32"
        }
      ],
      "name": "batchPayloads",
      "outputs": [
        {
          "internalType": "bytes",
          "name": "",
          "type": "bytes"
        }
      ],
      "stateMutability": "view",
      "type": "function"
    },
    {
      "inputs": [
        {
          "internalType": "bytes4",
          "name": "network",
          "type": "bytes4"
        },
        {
          "internalType": "uint32",
          "name": "index",
          "type": "uint32"
        }
      ],
      "name": "combineNetworkIdWithIndex",
      "outputs": [
        {
          "internalType": "bytes32",
          "name": "",
          "type": "bytes32"
        }
      ],
      "stateMutability": "pure",
      "type": "function"
    },
    {
      "inputs": [
        {
          "internalType": "bytes4",
          "name": "network",
          "type": "bytes4"
        },
        {
          "internalType": "bytes32",
          "name": "orderId",
          "type": "bytes32"
        }
      ],
      "name": "combineNetworkIdWithOrderId",
      "outputs": [
        {
          "internalType": "bytes32",
          "name": "",
          "type": "bytes32"
        }
      ],
      "stateMutability": "pure",
      "type": "function"
    },
    {
      "inputs": [
        {
          "internalType": "bytes4",
          "name": "",
          "type": "bytes4"
        }
      ],
      "name": "currentBatchIndexByNetwork",
      "outputs": [
        {
          "internalType": "uint32",
          "name": "",
          "type": "uint32"
        }
      ],
      "stateMutability": "view",
      "type": "function"
    },
    {
      "inputs": [
        {
          "internalType": "bytes32",
          "name": "attestationBatchMessageHash",
          "type": "bytes32"
        },
        {
          "internalType": "bytes4",
          "name": "networkId",
          "type": "bytes4"
        }
      ],
      "name": "getBatchAttestationCountByMessageHash",
      "outputs": [
        {
          "internalType": "uint256",
          "name": "",
          "type": "uint256"
        }
      ],
      "stateMutability": "view",
      "type": "function"
    },
    {
      "inputs": [
        {
          "internalType": "bytes4",
          "name": "networkId",
          "type": "bytes4"
        },
        {
          "internalType": "uint32",
          "name": "index",
          "type": "uint32"
        }
      ],
      "name": "getBatchAttestationsByIndex",
      "outputs": [
        {
          "components": [
            {
              "internalType": "bytes32",
              "name": "attestationBatchMessageHash",
              "type": "bytes32"
            },
            {
              "internalType": "address",
              "name": "attester",
              "type": "address"
            },
            {
              "internalType": "bytes",
              "name": "signature",
              "type": "bytes"
            }
          ],
          "internalType": "struct AttestationBatchMaker.BatchAttestation[]",
          "name": "",
          "type": "tuple[]"
        }
      ],
      "stateMutability": "view",
      "type": "function"
    },
    {
      "inputs": [
        {
          "internalType": "bytes4",
          "name": "networkId",
          "type": "bytes4"
        },
        {
          "internalType": "uint32",
          "name": "index",
          "type": "uint32"
        }
      ],
      "name": "getBatchAttestationsToNetworkByIndex",
      "outputs": [
        {
          "components": [
            {
              "internalType": "bytes32",
              "name": "attestationBatchMessageHash",
              "type": "bytes32"
            },
            {
              "internalType": "address",
              "name": "attester",
              "type": "address"
            },
            {
              "internalType": "bytes",
              "name": "signature",
              "type": "bytes"
            }
          ],
          "internalType": "struct AttestationBatchMaker.BatchAttestation[]",
          "name": "",
          "type": "tuple[]"
        }
      ],
      "stateMutability": "view",
      "type": "function"
    },
    {
      "inputs": [
        {
          "internalType": "bytes4",
          "name": "networkId",
          "type": "bytes4"
        }
      ],
      "name": "getBatchIndexByNetwork",
      "outputs": [
        {
          "internalType": "uint32",
          "name": "",
          "type": "uint32"
        }
      ],
      "stateMutability": "view",
      "type": "function"
    },
    {
      "inputs": [
        {
          "internalType": "bytes4",
          "name": "networkId",
          "type": "bytes4"
        },
        {
          "internalType": "uint32",
          "name": "index",
          "type": "uint32"
        }
      ],
      "name": "getBatchMessageHashByIndexAndNetwork",
      "outputs": [
        {
          "internalType": "bytes32",
          "name": "",
          "type": "bytes32"
        }
      ],
      "stateMutability": "view",
      "type": "function"
    },
    {
      "inputs": [
        {
          "internalType": "bytes32",
          "name": "attestationBatchMessageHash",
          "type": "bytes32"
        }
      ],
      "name": "getBatchPayload",
      "outputs": [
        {
          "internalType": "bytes",
          "name": "",
          "type": "bytes"
        }
      ],
      "stateMutability": "view",
      "type": "function"
    },
    {
      "inputs": [
        {
          "internalType": "bytes4",
          "name": "networkId",
          "type": "bytes4"
        },
        {
          "internalType": "uint32",
          "name": "index",
          "type": "uint32"
        }
      ],
      "name": "getMostPopularBatchPayloadByIndexWithQuorumCheck",
      "outputs": [
        {
          "internalType": "bytes",
          "name": "",
          "type": "bytes"
        }
      ],
      "stateMutability": "view",
      "type": "function"
    },
    {
      "inputs": [
        {
          "internalType": "bytes32",
          "name": "role",
          "type": "bytes32"
        }
      ],
      "name": "getRoleAdmin",
      "outputs": [
        {
          "internalType": "bytes32",
          "name": "",
          "type": "bytes32"
        }
      ],
      "stateMutability": "view",
      "type": "function"
    },
    {
      "inputs": [],
      "name": "getStartingGMPayload",
      "outputs": [
        {
          "internalType": "bytes",
          "name": "",
          "type": "bytes"
        }
      ],
      "stateMutability": "nonpayable",
      "type": "function"
    },
    {
      "inputs": [
        {
          "internalType": "bytes32",
          "name": "role",
          "type": "bytes32"
        },
        {
          "internalType": "address",
          "name": "account",
          "type": "address"
        }
      ],
      "name": "grantRole",
      "outputs": [],
      "stateMutability": "nonpayable",
      "type": "function"
    },
    {
      "inputs": [
        {
          "internalType": "bytes4",
          "name": "networkId",
          "type": "bytes4"
        }
      ],
      "name": "haltNetwork",
      "outputs": [],
      "stateMutability": "nonpayable",
      "type": "function"
    },
    {
      "inputs": [
        {
          "internalType": "bytes32",
          "name": "role",
          "type": "bytes32"
        },
        {
          "internalType": "address",
          "name": "account",
          "type": "address"
        }
      ],
      "name": "hasRole",
      "outputs": [
        {
          "internalType": "bool",
          "name": "",
          "type": "bool"
        }
      ],
      "stateMutability": "view",
      "type": "function"
    },
    {
      "inputs": [
        {
          "internalType": "address",
          "name": "_owner",
          "type": "address"
        }
      ],
      "name": "initialize",
      "outputs": [],
      "stateMutability": "nonpayable",
      "type": "function"
    },
    {
      "inputs": [
        {
          "internalType": "bytes4",
          "name": "",
          "type": "bytes4"
        }
      ],
      "name": "lastBatchConstructedHeightOffset",
      "outputs": [
        {
          "internalType": "uint256",
          "name": "",
          "type": "uint256"
        }
      ],
      "stateMutability": "view",
      "type": "function"
    },
    {
      "inputs": [
        {
          "internalType": "bytes4",
          "name": "",
          "type": "bytes4"
        }
      ],
      "name": "lastBatchConstructedTimestamp",
      "outputs": [
        {
          "internalType": "uint256",
          "name": "",
          "type": "uint256"
        }
      ],
      "stateMutability": "view",
      "type": "function"
    },
    {
      "inputs": [
        {
          "internalType": "bytes4",
          "name": "",
          "type": "bytes4"
        }
      ],
      "name": "networkHaltedMap",
      "outputs": [
        {
          "internalType": "bool",
          "name": "",
          "type": "bool"
        }
      ],
      "stateMutability": "view",
      "type": "function"
    },
    {
      "inputs": [
        {
          "internalType": "bytes32",
          "name": "",
          "type": "bytes32"
        }
      ],
      "name": "perNetworkBatchBatchMessageHash",
      "outputs": [
        {
          "internalType": "bytes32",
          "name": "",
          "type": "bytes32"
        }
      ],
      "stateMutability": "view",
      "type": "function"
    },
    {
      "inputs": [
        {
          "internalType": "bytes4",
          "name": "",
          "type": "bytes4"
        }
      ],
      "name": "perNetworkBatchCreatedCounter",
      "outputs": [
        {
          "internalType": "uint256",
          "name": "",
          "type": "uint256"
        }
      ],
      "stateMutability": "view",
      "type": "function"
    },
    {
      "inputs": [
        {
          "internalType": "bytes4",
          "name": "",
          "type": "bytes4"
        }
      ],
      "name": "perNetworkSingleAttestationsCounter",
      "outputs": [
        {
          "internalType": "uint256",
          "name": "",
          "type": "uint256"
        }
      ],
      "stateMutability": "view",
      "type": "function"
    },
    {
      "inputs": [
        {
          "internalType": "bytes32",
          "name": "role",
          "type": "bytes32"
        },
        {
          "internalType": "address",
          "name": "account",
          "type": "address"
        }
      ],
      "name": "renounceRole",
      "outputs": [],
      "stateMutability": "nonpayable",
      "type": "function"
    },
    {
      "inputs": [
        {
          "internalType": "bytes32",
          "name": "role",
          "type": "bytes32"
        },
        {
          "internalType": "address",
          "name": "account",
          "type": "address"
        }
      ],
      "name": "revokeRole",
      "outputs": [],
      "stateMutability": "nonpayable",
      "type": "function"
    },
    {
      "inputs": [
        {
          "internalType": "address payable",
          "name": "_attestationsVerifierProofs",
          "type": "address"
        }
      ],
      "name": "setAttestationsVerifierProofs",
      "outputs": [],
      "stateMutability": "nonpayable",
      "type": "function"
    },
    {
      "inputs": [
        {
          "internalType": "address payable",
          "name": "_attestersPortal",
          "type": "address"
        }
      ],
      "name": "setAttestersPortal",
      "outputs": [],
      "stateMutability": "nonpayable",
      "type": "function"
    },
    {
      "inputs": [
        {
          "internalType": "bytes4",
          "name": "networkId",
          "type": "bytes4"
        },
        {
          "internalType": "uint256",
          "name": "interval",
          "type": "uint256"
        }
      ],
      "name": "setBatchConstructionIntervalHeightByNetwork",
      "outputs": [],
      "stateMutability": "nonpayable",
      "type": "function"
    },
    {
      "inputs": [
        {
          "internalType": "bytes4",
          "name": "networkId",
          "type": "bytes4"
        },
        {
          "internalType": "uint32",
          "name": "index",
          "type": "uint32"
        }
      ],
      "name": "setBatchIndexByNetwork",
      "outputs": [],
      "stateMutability": "nonpayable",
      "type": "function"
    },
    {
      "inputs": [
        {
          "internalType": "address payable",
          "name": "_singleAttestationBook",
          "type": "address"
        }
      ],
      "name": "setSingleAttestationBook",
      "outputs": [],
      "stateMutability": "nonpayable",
      "type": "function"
    },
    {
      "inputs": [
        {
          "internalType": "bytes32",
          "name": "_version",
          "type": "bytes32"
        }
      ],
      "name": "setVersion",
      "outputs": [],
      "stateMutability": "nonpayable",
      "type": "function"
    },
    {
      "inputs": [],
      "name": "singleAttestationBook",
      "outputs": [
        {
          "internalType": "contract SingleAttestationBook",
          "name": "",
          "type": "address"
        }
      ],
      "stateMutability": "view",
      "type": "function"
    },
    {
      "inputs": [
        {
          "internalType": "bytes4",
          "name": "interfaceId",
          "type": "bytes4"
        }
      ],
      "name": "supportsInterface",
      "outputs": [
        {
          "internalType": "bool",
          "name": "",
          "type": "bool"
        }
      ],
      "stateMutability": "view",
      "type": "function"
    },
    {
      "inputs": [
        {
          "internalType": "bytes4",
          "name": "networkId",
          "type": "bytes4"
        }
      ],
      "name": "tryConstructBatch",
      "outputs": [],
      "stateMutability": "nonpayable",
      "type": "function"
    },
    {
      "inputs": [
        {
          "internalType": "bytes4",
          "name": "networkId",
          "type": "bytes4"
        }
      ],
      "name": "unhaltNetwork",
      "outputs": [],
      "stateMutability": "nonpayable",
      "type": "function"
    },
    {
      "inputs": [],
      "name": "version",
      "outputs": [
        {
          "internalType": "bytes32",
          "name": "",
          "type": "bytes32"
        }
      ],
      "stateMutability": "view",
      "type": "function"
    }
  ],
  "bytecode": "0x60806040523480156200001157600080fd5b50620000226200002860201b60201c565b620001d2565b600060019054906101000a900460ff16156200007b576040517f08c379a0000000000000000000000000000000000000000000000000000000008152600401620000729062000175565b60405180910390fd5b60ff801660008054906101000a900460ff1660ff1614620000ec5760ff6000806101000a81548160ff021916908360ff1602179055507f7f26b83ff96e1f2b6a682f133852f6798a09c465da95921460cefb384740249860ff604051620000e39190620001b5565b60405180910390a15b565b600082825260208201905092915050565b7f496e697469616c697a61626c653a20636f6e747261637420697320696e69746960008201527f616c697a696e6700000000000000000000000000000000000000000000000000602082015250565b60006200015d602783620000ee565b91506200016a82620000ff565b604082019050919050565b6000602082019050818103600083015262000190816200014e565b9050919050565b600060ff82169050919050565b620001af8162000197565b82525050565b6000602082019050620001cc6000830184620001a4565b92915050565b615fa480620001e26000396000f3fe608060405234801561001057600080fd5b50600436106102695760003560e01c80637177377b11610151578063c5687af0116100c3578063d547741f11610087578063d547741f14610816578063dd2b05d614610832578063e6aac25214610862578063e8e1cbf714610892578063f51d27e8146108c2578063ffdd6f89146108de57610269565b8063c5687af014610762578063c6f4c0cf14610792578063c769eb13146107ae578063ca5f81b5146107de578063d03685cb146107fa57610269565b806391d148541161011557806391d148541461067c578063a217fddf146106ac578063b4c41e6a146106ca578063ba6466f7146106fa578063c24ab55a14610716578063c4d66de81461074657610269565b80637177377b146105a057806375dac0a9146105d0578063770b24e2146105ec5780637e47d0e31461061c57806384c1f2251461064c57610269565b80632f2ff15d116101ea578063526e124f116101ae578063526e124f146104b857806354fd4d50146104d45780635d1c5710146104f25780635d3e2e28146105105780635f0737a514610540578063693ecfb71461057057610269565b80632f2ff15d14610416578063343aff461461043257806336568abe146104625780633aac5d3d1461047e5780634be6cd571461049c57610269565b80631f3a5ea4116102315780631f3a5ea41461033657806321c6fe0014610366578063248a9ca314610384578063248d9151146103b45780632c148ccf146103e457610269565b806301ffc9a71461026e57806307bc4e981461029e5780630e8bbd08146102ce57806312a58f53146102ea5780631966c1541461031a575b600080fd5b61028860048036038101906102839190613aba565b6108fc565b6040516102959190613b02565b60405180910390f35b6102b860048036038101906102b39190613aba565b610976565b6040516102c59190613b36565b60405180910390f35b6102e860048036038101906102e39190613aba565b61098e565b005b61030460048036038101906102ff9190613aba565b610a47565b6040516103119190613b70565b60405180910390f35b610334600480360381019061032f9190613be9565b610ab2565b005b610350600480360381019061034b9190613c4c565b610b42565b60405161035d9190613b36565b60405180910390f35b61036e610b76565b60405161037b9190613d1c565b60405180910390f35b61039e60048036038101906103999190613d3e565b610bcb565b6040516103ab9190613d7a565b60405180910390f35b6103ce60048036038101906103c99190613d3e565b610beb565b6040516103db9190613d1c565b60405180910390f35b6103fe60048036038101906103f99190613dc1565b610c90565b60405161040d93929190613e22565b60405180910390f35b610430600480360381019061042b9190613e8c565b610d7f565b005b61044c60048036038101906104479190613ef8565b610da0565b6040516104599190613d7a565b60405180910390f35b61047c60048036038101906104779190613e8c565b610dc7565b005b610486610e4a565b6040516104939190613f97565b60405180910390f35b6104b660048036038101906104b19190613aba565b610e70565b005b6104d260048036038101906104cd9190613fb2565b611e6a565b005b6104dc611f10565b6040516104e99190613d7a565b60405180910390f35b6104fa611f16565b6040516105079190614013565b60405180910390f35b61052a60048036038101906105259190613d3e565b611f3c565b6040516105379190613d1c565b60405180910390f35b61055a60048036038101906105559190613aba565b611fdc565b6040516105679190613b70565b60405180910390f35b61058a60048036038101906105859190613aba565b611fff565b6040516105979190613b02565b60405180910390f35b6105ba60048036038101906105b59190613d3e565b61201f565b6040516105c79190613d7a565b60405180910390f35b6105ea60048036038101906105e591906141c3565b612037565b005b61060660048036038101906106019190613d3e565b6124c8565b6040516106139190613d7a565b60405180910390f35b61063660048036038101906106319190613ef8565b6124e0565b60405161064391906143cd565b60405180910390f35b61066660048036038101906106619190613ef8565b61264e565b6040516106739190613d1c565b60405180910390f35b61069660048036038101906106919190613e8c565b612877565b6040516106a39190613b02565b60405180910390f35b6106b46128e2565b6040516106c19190613d7a565b60405180910390f35b6106e460048036038101906106df9190613aba565b6128e9565b6040516106f19190613b36565b60405180910390f35b610714600480360381019061070f9190613be9565b612901565b005b610730600480360381019061072b9190613ef8565b612991565b60405161073d91906143cd565b60405180910390f35b610760600480360381019061075b91906143ef565b612aff565b005b61077c60048036038101906107779190613aba565b612c4b565b6040516107899190613b36565b60405180910390f35b6107ac60048036038101906107a79190613aba565b612c63565b005b6107c860048036038101906107c39190613ef8565b612d1c565b6040516107d59190613d7a565b60405180910390f35b6107f860048036038101906107f39190613d3e565b612d4f565b005b610814600480360381019061080f9190613be9565b612da5565b005b610830600480360381019061082b9190613e8c565b612e35565b005b61084c6004803603810190610847919061441c565b612e56565b6040516108599190613d7a565b60405180910390f35b61087c60048036038101906108779190613aba565b612e89565b6040516108899190613b36565b60405180910390f35b6108ac60048036038101906108a79190613aba565b612ea1565b6040516108b99190613b36565b60405180910390f35b6108dc60048036038101906108d79190613ef8565b612eb9565b005b6108e6613178565b6040516108f3919061448f565b60405180910390f35b60007f7965db0b000000000000000000000000000000000000000000000000000000007bffffffffffffffffffffffffffffffffffffffffffffffffffffffff1916827bffffffffffffffffffffffffffffffffffffffffffffffffffffffff1916148061096f575061096e8261319e565b5b9050919050565b60a26020528060005260406000206000915090505481565b61099b6000801b33612877565b6109da576040517f08c379a00000000000000000000000000000000000000000000000000000000081526004016109d190614507565b60405180910390fd5b6001609e6000837bffffffffffffffffffffffffffffffffffffffffffffffffffffffff19167bffffffffffffffffffffffffffffffffffffffffffffffffffffffff1916815260200190815260200160002060006101000a81548160ff02191690831515021790555050565b6000609d6000837bffffffffffffffffffffffffffffffffffffffffffffffffffffffff19167bffffffffffffffffffffffffffffffffffffffffffffffffffffffff1916815260200190815260200160002060009054906101000a900463ffffffff169050919050565b610abf6000801b33612877565b610afe576040517f08c379a0000000000000000000000000000000000000000000000000000000008152600401610af590614507565b60405180910390fd5b80609960006101000a81548173ffffffffffffffffffffffffffffffffffffffff021916908373ffffffffffffffffffffffffffffffffffffffff16021790555050565b6000609a6000609b600086815260200190815260200160002054815260200190815260200160002080549050905092915050565b6060600067ffffffffffffffff811115610b9357610b92614098565b5b6040519080825280601f01601f191660200182016040528015610bc55781602001600182028036833780820191505090505b50905090565b600060656000838152602001908152602001600020600101549050919050565b6060609c60008381526020019081526020016000208054610c0b90614556565b80601f0160208091040260200160405190810160405280929190818152602001828054610c3790614556565b8015610c845780601f10610c5957610100808354040283529160200191610c84565b820191906000526020600020905b815481529060010190602001808311610c6757829003601f168201915b50505050509050919050565b609a6020528160005260406000208181548110610cac57600080fd5b9060005260206000209060030201600091509150508060000154908060010160009054906101000a900473ffffffffffffffffffffffffffffffffffffffff1690806002018054610cfc90614556565b80601f0160208091040260200160405190810160405280929190818152602001828054610d2890614556565b8015610d755780601f10610d4a57610100808354040283529160200191610d75565b820191906000526020600020905b815481529060010190602001808311610d5857829003601f168201915b5050505050905083565b610d8882610bcb565b610d9181613208565b610d9b838361321c565b505050565b600060a16000610db08585612d1c565b815260200190815260200160002054905092915050565b610dcf6132fd565b73ffffffffffffffffffffffffffffffffffffffff168173ffffffffffffffffffffffffffffffffffffffff1614610e3c576040517f08c379a0000000000000000000000000000000000000000000000000000000008152600401610e33906145f9565b60405180910390fd5b610e468282613305565b5050565b609760009054906101000a900473ffffffffffffffffffffffffffffffffffffffff1681565b6000610e7a610b76565b90506000609960009054906101000a900473ffffffffffffffffffffffffffffffffffffffff1673ffffffffffffffffffffffffffffffffffffffff1663dc88b9c984609760009054906101000a900473ffffffffffffffffffffffffffffffffffffffff1673ffffffffffffffffffffffffffffffffffffffff1663c26c12eb6040518163ffffffff1660e01b8152600401602060405180830381865afa158015610f2a573d6000803e3d6000fd5b505050506040513d601f19601f82011682018060405250810190610f4e919061462e565b60a46000887bffffffffffffffffffffffffffffffffffffffffffffffffffffffff19167bffffffffffffffffffffffffffffffffffffffffffffffffffffffff191681526020019081526020016000205460a26000897bffffffffffffffffffffffffffffffffffffffffffffffffffffffff19167bffffffffffffffffffffffffffffffffffffffffffffffffffffffff19168152602001908152602001600020546040518563ffffffff1660e01b8152600401611011949392919061466a565b602060405180830381865afa92505050801561104b57506040513d601f19601f8201168201806040525081019061104891906146db565b60015b611058576000905061105d565b809150505b806110a3577f95d5662791929affea1c27920ff5b5dd6958901b47005ce51c53916d83bd2a0e600084604051611094929190614743565b60405180910390a15050611e67565b6000609960009054906101000a900473ffffffffffffffffffffffffffffffffffffffff1673ffffffffffffffffffffffffffffffffffffffff166383d5383d856040518263ffffffff1660e01b8152600401611100919061476c565b600060405180830381865afa15801561111d573d6000803e3d6000fd5b505050506040513d6000823e3d601f19601f82011682018060405250810190611146919061485f565b90506000815167ffffffffffffffff81111561116557611164614098565b5b6040519080825280602002602001820160405280156111935781602001602082028036833780820191505090505b50905060005b82518110156115bc5760008382815181106111b7576111b66148a8565b5b602002602001015190506000609960009054906101000a900473ffffffffffffffffffffffffffffffffffffffff1673ffffffffffffffffffffffffffffffffffffffff166388b89ef989846040518363ffffffff1660e01b81526004016112209291906148d7565b600060405180830381865afa15801561123d573d6000803e3d6000fd5b505050506040513d6000823e3d601f19601f820116820180604052508101906112669190614b20565b90506000815167ffffffffffffffff81111561128557611284614098565b5b6040519080825280602002602001820160405280156112b35781602001602082028036833780820191505090505b50905060005b82518110156113715760008382815181106112d7576112d66148a8565b5b6020026020010151905060005b8451811015611364576000858281518110611302576113016148a8565b5b60200260200101519050806060015180519060200120836060015180519060200120036113565784848151811061133c5761133b6148a8565b5b60200260200101805180919061135190614b98565b815250505b5080806001019150506112e4565b50508060010190506112b9565b506000606060005b83518110156113ee5782848281518110611396576113956148a8565b5b602002602001015111156113e3578381815181106113b7576113b66148a8565b5b602002602001015192508481815181106113d4576113d36148a8565b5b60200260200101516060015191505b806001019050611379565b50609760009054906101000a900473ffffffffffffffffffffffffffffffffffffffff1673ffffffffffffffffffffffffffffffffffffffff1663c26c12eb6040518163ffffffff1660e01b8152600401602060405180830381865afa15801561145c573d6000803e3d6000fd5b505050506040513d601f19601f82011682018060405250810190611480919061462e565b821061151d5760008151036114d8577f95d5662791929affea1c27920ff5b5dd6958901b47005ce51c53916d83bd2a0e60038c6040516114c1929190614c1b565b60405180910390a150505050505050505050611e67565b89816040516020016114eb929190614c80565b6040516020818303038152906040529950848787815181106115105761150f6148a8565b5b6020026020010181815250505b609960009054906101000a900473ffffffffffffffffffffffffffffffffffffffff1673ffffffffffffffffffffffffffffffffffffffff16630d9fcf298c876040518363ffffffff1660e01b815260040161157a9291906148d7565b600060405180830381600087803b15801561159457600080fd5b505af11580156115a8573d6000803e3d6000fd5b505050505050505050806001019050611199565b506000845103611609577f95d5662791929affea1c27920ff5b5dd6958901b47005ce51c53916d83bd2a0e6001866040516115f8929190614cdf565b60405180910390a150505050611e67565b60006001609d6000887bffffffffffffffffffffffffffffffffffffffffffffffffffffffff19167bffffffffffffffffffffffffffffffffffffffffffffffffffffffff1916815260200190815260200160002060009054906101000a900463ffffffff166116799190614d08565b905060006116878783612d1c565b90506000801b60a1600083815260200190815260200160002054146116eb577f95d5662791929affea1c27920ff5b5dd6958901b47005ce51c53916d83bd2a0e6002886040516116d8929190614d7b565b60405180910390a1505050505050611e67565b609760009054906101000a900473ffffffffffffffffffffffffffffffffffffffff1673ffffffffffffffffffffffffffffffffffffffff1663484f657b6040518163ffffffff1660e01b8152600401600060405180830381865afa92505050801561177a57506040513d6000823e3d601f19601f820116820180604052508101906117779190614e67565b60015b6117c3577f95d5662791929affea1c27920ff5b5dd6958901b47005ce51c53916d83bd2a0e6008886040516117b0929190614eeb565b60405180910390a1505050505050611e67565b609760009054906101000a900473ffffffffffffffffffffffffffffffffffffffff1673ffffffffffffffffffffffffffffffffffffffff1663d34ad5796040518163ffffffff1660e01b8152600401600060405180830381865afa92505050801561185257506040513d6000823e3d601f19601f8201168201806040525081019061184f9190614e67565b60015b61189c577f95d5662791929affea1c27920ff5b5dd6958901b47005ce51c53916d83bd2a0e600789604051611888929190614f4f565b60405180910390a150505050505050611e67565b609860009054906101000a900473ffffffffffffffffffffffffffffffffffffffff1673ffffffffffffffffffffffffffffffffffffffff16633014cbc9836040518263ffffffff1660e01b81526004016118f79190615027565b602060405180830381865afa92505050801561193157506040513d601f19601f8201168201806040525081019061192e9190615049565b60015b61197c577f95d5662791929affea1c27920ff5b5dd6958901b47005ce51c53916d83bd2a0e60068a6040516119679291906150b1565b60405180910390a15050505050505050611e67565b609860009054906101000a900473ffffffffffffffffffffffffffffffffffffffff1673ffffffffffffffffffffffffffffffffffffffff16633014cbc9836040518263ffffffff1660e01b81526004016119d79190615027565b602060405180830381865afa925050508015611a1157506040513d601f19601f82011682018060405250810190611a0e9190615049565b60015b611a5d577f95d5662791929affea1c27920ff5b5dd6958901b47005ce51c53916d83bd2a0e60058b604051611a47929190615115565b60405180910390a1505050505050505050611e67565b60006040518060e00160405280609e60008f7bffffffffffffffffffffffffffffffffffffffffffffffffffffffff19167bffffffffffffffffffffffffffffffffffffffffffffffffffffffff1916815260200190815260200160002060009054906101000a900460ff1615158152602001848152602001838152602001600067ffffffffffffffff811115611af757611af6614098565b5b604051908082528060200260200182016040528015611b255781602001602082028036833780820191505090505b508152602001600067ffffffffffffffff811115611b4657611b45614098565b5b604051908082528060200260200182016040528015611b745781602001602082028036833780820191505090505b5081526020018c81526020018863ffffffff168152509050609860009054906101000a900473ffffffffffffffffffffffffffffffffffffffff1673ffffffffffffffffffffffffffffffffffffffff16630660bab9826040518263ffffffff1660e01b8152600401611be79190615275565b600060405180830381865afa925050508015611c2657506040513d6000823e3d601f19601f82011682018060405250810190611c239190615297565b60015b611c74577f95d5662791929affea1c27920ff5b5dd6958901b47005ce51c53916d83bd2a0e60048d604051611c5c92919061531b565b60405180910390a15050505050505050505050611e67565b600081805190602001209050609960009054906101000a900473ffffffffffffffffffffffffffffffffffffffff1673ffffffffffffffffffffffffffffffffffffffff166306a1ab9d828c6040518363ffffffff1660e01b8152600401611cdd9291906153f3565b600060405180830381600087803b158015611cf757600080fd5b505af1158015611d0b573d6000803e3d6000fd5b5050505081609c60008381526020019081526020016000209081611d2f91906155c5565b508060a160008a81526020019081526020016000208190555087609b600083815260200190815260200160002081905550609960009054906101000a900473ffffffffffffffffffffffffffffffffffffffff1673ffffffffffffffffffffffffffffffffffffffff1663b68d23418f6040518263ffffffff1660e01b8152600401611dbb919061476c565b600060405180830381600087803b158015611dd557600080fd5b505af1158015611de9573d6000803e3d6000fd5b50505050611df68e6133e7565b8d7bffffffffffffffffffffffffffffffffffffffffffffffffffffffff19168360c0015163ffffffff16827f075340e7be521a169ff6dc4e12937d1eb1dfc72d06b568b64786f4f5d4972fbe85604051611e519190613d1c565b60405180910390a4505050505050505050505050505b50565b611e776000801b33612877565b611eb6576040517f08c379a0000000000000000000000000000000000000000000000000000000008152600401611ead90614507565b60405180910390fd5b8060a46000847bffffffffffffffffffffffffffffffffffffffffffffffffffffffff19167bffffffffffffffffffffffffffffffffffffffffffffffffffffffff19168152602001908152602001600020819055505050565b60a55481565b609960009054906101000a900473ffffffffffffffffffffffffffffffffffffffff1681565b609c6020528060005260406000206000915090508054611f5b90614556565b80601f0160208091040260200160405190810160405280929190818152602001828054611f8790614556565b8015611fd45780601f10611fa957610100808354040283529160200191611fd4565b820191906000526020600020905b815481529060010190602001808311611fb757829003601f168201915b505050505081565b609d6020528060005260406000206000915054906101000a900463ffffffff1681565b609e6020528060005260406000206000915054906101000a900460ff1681565b609b6020528060005260406000206000915090505481565b609760009054906101000a900473ffffffffffffffffffffffffffffffffffffffff1673ffffffffffffffffffffffffffffffffffffffff1663ee06b289336040518263ffffffff1660e01b81526004016120929190615697565b602060405180830381865afa1580156120af573d6000803e3d6000fd5b505050506040513d601f19601f820116820180604052508101906120d391906146db565b612112576040517f08c379a000000000000000000000000000000000000000000000000000000000815260040161210990614507565b60405180910390fd5b600084848101906121239190615866565b90506000609860009054906101000a900473ffffffffffffffffffffffffffffffffffffffff1673ffffffffffffffffffffffffffffffffffffffff16630660bab9836040518263ffffffff1660e01b81526004016121829190615275565b600060405180830381865afa15801561219f573d6000803e3d6000fd5b505050506040513d6000823e3d601f19601f820116820180604052508101906121c89190615297565b8051906020012090503373ffffffffffffffffffffffffffffffffffffffff16609860009054906101000a900473ffffffffffffffffffffffffffffffffffffffff1673ffffffffffffffffffffffffffffffffffffffff166397aba7f983876040518363ffffffff1660e01b81526004016122459291906158af565b602060405180830381865afa158015612262573d6000803e3d6000fd5b505050506040513d601f19601f8201168201806040525081019061228691906158df565b73ffffffffffffffffffffffffffffffffffffffff16146122dc576040517f08c379a00000000000000000000000000000000000000000000000000000000081526004016122d390615958565b60405180910390fd5b60006122ec848460c00151612d1c565b90506000609a600083815260200190815260200160002090506000805b82805490508110156123cf5784838281548110612329576123286148a8565b5b90600052602060002090600302016000015414806123b657503373ffffffffffffffffffffffffffffffffffffffff1683828154811061236c5761236b6148a8565b5b906000526020600020906003020160010160009054906101000a900473ffffffffffffffffffffffffffffffffffffffff1673ffffffffffffffffffffffffffffffffffffffff16145b156123c457600191506123cf565b806001019050612309565b50806124bd578160405180606001604052808681526020013373ffffffffffffffffffffffffffffffffffffffff1681526020018981525090806001815401808255809150506001900390600052602060002090600302016000909190919091506000820151816000015560208201518160010160006101000a81548173ffffffffffffffffffffffffffffffffffffffff021916908373ffffffffffffffffffffffffffffffffffffffff160217905550604082015181600201908161249691906155c5565b50505081609a60008581526020019081526020016000209080546124bb929190613899565b505b505050505050505050565b60a16020528060005260406000206000915090505481565b6060609a60006124f08585612d1c565b8152602001908152602001600020805480602002602001604051908101604052809291908181526020016000905b828210156126425783829060005260206000209060030201604051806060016040529081600082015481526020016001820160009054906101000a900473ffffffffffffffffffffffffffffffffffffffff1673ffffffffffffffffffffffffffffffffffffffff1673ffffffffffffffffffffffffffffffffffffffff1681526020016002820180546125b190614556565b80601f01602080910402602001604051908101604052809291908181526020018280546125dd90614556565b801561262a5780601f106125ff5761010080835404028352916020019161262a565b820191906000526020600020905b81548152906001019060200180831161260d57829003601f168201915b5050505050815250508152602001906001019061251e565b50505050905092915050565b6060600061265c8484612991565b905060008151036126bd57600067ffffffffffffffff81111561268257612681614098565b5b6040519080825280601f01601f1916602001820160405280156126b45781602001600182028036833780820191505090505b50915050612871565b6000816000815181106126d3576126d26148a8565b5b60200260200101519050609760009054906101000a900473ffffffffffffffffffffffffffffffffffffffff1673ffffffffffffffffffffffffffffffffffffffff1663c26c12eb6040518163ffffffff1660e01b8152600401602060405180830381865afa15801561274a573d6000803e3d6000fd5b505050506040513d601f19601f8201168201806040525081019061276e919061462e565b82511061281e57609c600082600001518152602001908152602001600020805461279790614556565b80601f01602080910402602001604051908101604052809291908181526020018280546127c390614556565b80156128105780601f106127e557610100808354040283529160200191612810565b820191906000526020600020905b8154815290600101906020018083116127f357829003601f168201915b505050505092505050612871565b600067ffffffffffffffff81111561283957612838614098565b5b6040519080825280601f01601f19166020018201604052801561286b5781602001600182028036833780820191505090505b50925050505b92915050565b60006065600084815260200190815260200160002060000160008373ffffffffffffffffffffffffffffffffffffffff1673ffffffffffffffffffffffffffffffffffffffff16815260200190815260200160002060009054906101000a900460ff16905092915050565b6000801b81565b609f6020528060005260406000206000915090505481565b61290e6000801b33612877565b61294d576040517f08c379a000000000000000000000000000000000000000000000000000000000815260040161294490614507565b60405180910390fd5b80609860006101000a81548173ffffffffffffffffffffffffffffffffffffffff021916908373ffffffffffffffffffffffffffffffffffffffff16021790555050565b6060609a60006129a18585612d1c565b8152602001908152602001600020805480602002602001604051908101604052809291908181526020016000905b82821015612af35783829060005260206000209060030201604051806060016040529081600082015481526020016001820160009054906101000a900473ffffffffffffffffffffffffffffffffffffffff1673ffffffffffffffffffffffffffffffffffffffff1673ffffffffffffffffffffffffffffffffffffffff168152602001600282018054612a6290614556565b80601f0160208091040260200160405190810160405280929190818152602001828054612a8e90614556565b8015612adb5780601f10612ab057610100808354040283529160200191612adb565b820191906000526020600020905b815481529060010190602001808311612abe57829003601f168201915b505050505081525050815260200190600101906129cf565b50505050905092915050565b60008060019054906101000a900460ff16159050808015612b305750600160008054906101000a900460ff1660ff16105b80612b5d5750612b3f30613537565b158015612b5c5750600160008054906101000a900460ff1660ff16145b5b612b9c576040517f08c379a0000000000000000000000000000000000000000000000000000000008152600401612b93906159ea565b60405180910390fd5b60016000806101000a81548160ff021916908360ff1602179055508015612bd9576001600060016101000a81548160ff0219169083151502179055505b612be161355a565b612bee6000801b8361321c565b8015612c475760008060016101000a81548160ff0219169083151502179055507f7f26b83ff96e1f2b6a682f133852f6798a09c465da95921460cefb38474024986001604051612c3e9190615a48565b60405180910390a15b5050565b60a06020528060005260406000206000915090505481565b612c706000801b33612877565b612caf576040517f08c379a0000000000000000000000000000000000000000000000000000000008152600401612ca690614507565b60405180910390fd5b6000609e6000837bffffffffffffffffffffffffffffffffffffffffffffffffffffffff19167bffffffffffffffffffffffffffffffffffffffffffffffffffffffff1916815260200190815260200160002060006101000a81548160ff02191690831515021790555050565b60008282604051602001612d31929190615aba565b60405160208183030381529060405280519060200120905092915050565b612d5c6000801b33612877565b612d9b576040517f08c379a0000000000000000000000000000000000000000000000000000000008152600401612d9290614507565b60405180910390fd5b8060a58190555050565b612db26000801b33612877565b612df1576040517f08c379a0000000000000000000000000000000000000000000000000000000008152600401612de890614507565b60405180910390fd5b80609760006101000a81548173ffffffffffffffffffffffffffffffffffffffff021916908373ffffffffffffffffffffffffffffffffffffffff16021790555050565b612e3e82610bcb565b612e4781613208565b612e518383613305565b505050565b60008282604051602001612e6b929190615b07565b60405160208183030381529060405280519060200120905092915050565b60a46020528060005260406000206000915090505481565b60a36020528060005260406000206000915090505481565b612ec66000801b33612877565b612f05576040517f08c379a0000000000000000000000000000000000000000000000000000000008152600401612efc90614507565b60405180910390fd5b80609d6000847bffffffffffffffffffffffffffffffffffffffffffffffffffffffff19167bffffffffffffffffffffffffffffffffffffffffffffffffffffffff1916815260200190815260200160002060006101000a81548163ffffffff021916908363ffffffff16021790555060a06000837bffffffffffffffffffffffffffffffffffffffffffffffffffffffff19167bffffffffffffffffffffffffffffffffffffffffffffffffffffffff19168152602001908152602001600020548163ffffffff16101561317457600060a06000847bffffffffffffffffffffffffffffffffffffffffffffffffffffffff19167bffffffffffffffffffffffffffffffffffffffffffffffffffffffff1916815260200190815260200160002054905060008290505b818163ffffffff16101561311557600061304a8583612d1c565b9050609a6000828152602001908152602001600020600061306b9190613977565b600067ffffffffffffffff81111561308657613085614098565b5b6040519080825280601f01601f1916602001820160405280156130b85781602001600182028036833780820191505090505b50609c600060a1600085815260200190815260200160002054815260200190815260200160002090816130eb91906155c5565b5060a1600082815260200190815260200160002060009055508061310e90615b33565b9050613030565b508163ffffffff1660a06000857bffffffffffffffffffffffffffffffffffffffffffffffffffffffff19167bffffffffffffffffffffffffffffffffffffffffffffffffffffffff1916815260200190815260200160002081905550505b5050565b609860009054906101000a900473ffffffffffffffffffffffffffffffffffffffff1681565b60007f01ffc9a7000000000000000000000000000000000000000000000000000000007bffffffffffffffffffffffffffffffffffffffffffffffffffffffff1916827bffffffffffffffffffffffffffffffffffffffffffffffffffffffff1916149050919050565b613219816132146132fd565b6135ab565b50565b6132268282612877565b6132f95760016065600084815260200190815260200160002060000160008373ffffffffffffffffffffffffffffffffffffffff1673ffffffffffffffffffffffffffffffffffffffff16815260200190815260200160002060006101000a81548160ff02191690831515021790555061329e6132fd565b73ffffffffffffffffffffffffffffffffffffffff168173ffffffffffffffffffffffffffffffffffffffff16837f2f8788117e7eff1d82e926ec794901d17c78024a50270940304540a733656f0d60405160405180910390a45b5050565b600033905090565b61330f8282612877565b156133e35760006065600084815260200190815260200160002060000160008373ffffffffffffffffffffffffffffffffffffffff1673ffffffffffffffffffffffffffffffffffffffff16815260200190815260200160002060006101000a81548160ff0219169083151502179055506133886132fd565b73ffffffffffffffffffffffffffffffffffffffff168173ffffffffffffffffffffffffffffffffffffffff16837ff6391f5c32d9c69d2a47ea670b442974b53935d1edc7fd64eb21e047a839171b60405160405180910390a45b5050565b609d6000827bffffffffffffffffffffffffffffffffffffffffffffffffffffffff19167bffffffffffffffffffffffffffffffffffffffffffffffffffffffff19168152602001908152602001600020600081819054906101000a900463ffffffff168092919061345890615b33565b91906101000a81548163ffffffff021916908363ffffffff1602179055505060a06000827bffffffffffffffffffffffffffffffffffffffffffffffffffffffff19167bffffffffffffffffffffffffffffffffffffffffffffffffffffffff1916815260200190815260200160002060008154809291906134d990614b98565b91905055504260a26000837bffffffffffffffffffffffffffffffffffffffffffffffffffffffff19167bffffffffffffffffffffffffffffffffffffffffffffffffffffffff191681526020019081526020016000208190555050565b6000808273ffffffffffffffffffffffffffffffffffffffff163b119050919050565b600060019054906101000a900460ff166135a9576040517f08c379a00000000000000000000000000000000000000000000000000000000081526004016135a090615bd1565b60405180910390fd5b565b6135b58282612877565b61362c576135c281613630565b6135d08360001c602061365d565b6040516020016135e1929190615cd0565b6040516020818303038152906040526040517f08c379a00000000000000000000000000000000000000000000000000000000081526004016136239190615d43565b60405180910390fd5b5050565b60606136568273ffffffffffffffffffffffffffffffffffffffff16601460ff1661365d565b9050919050565b6060600060028360026136709190615d65565b61367a9190615da7565b67ffffffffffffffff81111561369357613692614098565b5b6040519080825280601f01601f1916602001820160405280156136c55781602001600182028036833780820191505090505b5090507f3000000000000000000000000000000000000000000000000000000000000000816000815181106136fd576136fc6148a8565b5b60200101907effffffffffffffffffffffffffffffffffffffffffffffffffffffffffffff1916908160001a9053507f780000000000000000000000000000000000000000000000000000000000000081600181518110613761576137606148a8565b5b60200101907effffffffffffffffffffffffffffffffffffffffffffffffffffffffffffff1916908160001a905350600060018460026137a19190615d65565b6137ab9190615da7565b90505b600181111561384b577f3031323334353637383961626364656600000000000000000000000000000000600f8616601081106137ed576137ec6148a8565b5b1a60f81b828281518110613804576138036148a8565b5b60200101907effffffffffffffffffffffffffffffffffffffffffffffffffffffffffffff1916908160001a905350600485901c94508061384490615ddb565b90506137ae565b506000841461388f576040517f08c379a000000000000000000000000000000000000000000000000000000000815260040161388690615e50565b60405180910390fd5b8091505092915050565b8280548282559060005260206000209060030281019282156139665760005260206000209160030282015b82811115613965578282600082015481600001556001820160009054906101000a900473ffffffffffffffffffffffffffffffffffffffff168160010160006101000a81548173ffffffffffffffffffffffffffffffffffffffff021916908373ffffffffffffffffffffffffffffffffffffffff160217905550600282018160020190816139539190615e86565b505050916003019190600301906138c4565b5b509050613973919061399b565b5090565b5080546000825560030290600052602060002090810190613998919061399b565b50565b5b808211156139ed576000808201600090556001820160006101000a81549073ffffffffffffffffffffffffffffffffffffffff02191690556002820160006139e491906139f1565b5060030161399c565b5090565b5080546139fd90614556565b6000825580601f10613a0f5750613a2e565b601f016020900490600052602060002090810190613a2d9190613a31565b5b50565b5b80821115613a4a576000816000905550600101613a32565b5090565b6000604051905090565b600080fd5b600080fd5b60007fffffffff0000000000000000000000000000000000000000000000000000000082169050919050565b613a9781613a62565b8114613aa257600080fd5b50565b600081359050613ab481613a8e565b92915050565b600060208284031215613ad057613acf613a58565b5b6000613ade84828501613aa5565b91505092915050565b60008115159050919050565b613afc81613ae7565b82525050565b6000602082019050613b176000830184613af3565b92915050565b6000819050919050565b613b3081613b1d565b82525050565b6000602082019050613b4b6000830184613b27565b92915050565b600063ffffffff82169050919050565b613b6a81613b51565b82525050565b6000602082019050613b856000830184613b61565b92915050565b600073ffffffffffffffffffffffffffffffffffffffff82169050919050565b6000613bb682613b8b565b9050919050565b613bc681613bab565b8114613bd157600080fd5b50565b600081359050613be381613bbd565b92915050565b600060208284031215613bff57613bfe613a58565b5b6000613c0d84828501613bd4565b91505092915050565b6000819050919050565b613c2981613c16565b8114613c3457600080fd5b50565b600081359050613c4681613c20565b92915050565b60008060408385031215613c6357613c62613a58565b5b6000613c7185828601613c37565b9250506020613c8285828601613aa5565b9150509250929050565b600081519050919050565b600082825260208201905092915050565b60005b83811015613cc6578082015181840152602081019050613cab565b60008484015250505050565b6000601f19601f8301169050919050565b6000613cee82613c8c565b613cf88185613c97565b9350613d08818560208601613ca8565b613d1181613cd2565b840191505092915050565b60006020820190508181036000830152613d368184613ce3565b905092915050565b600060208284031215613d5457613d53613a58565b5b6000613d6284828501613c37565b91505092915050565b613d7481613c16565b82525050565b6000602082019050613d8f6000830184613d6b565b92915050565b613d9e81613b1d565b8114613da957600080fd5b50565b600081359050613dbb81613d95565b92915050565b60008060408385031215613dd857613dd7613a58565b5b6000613de685828601613c37565b9250506020613df785828601613dac565b9150509250929050565b6000613e0c82613b8b565b9050919050565b613e1c81613e01565b82525050565b6000606082019050613e376000830186613d6b565b613e446020830185613e13565b8181036040830152613e568184613ce3565b9050949350505050565b613e6981613e01565b8114613e7457600080fd5b50565b600081359050613e8681613e60565b92915050565b60008060408385031215613ea357613ea2613a58565b5b6000613eb185828601613c37565b9250506020613ec285828601613e77565b9150509250929050565b613ed581613b51565b8114613ee057600080fd5b50565b600081359050613ef281613ecc565b92915050565b60008060408385031215613f0f57613f0e613a58565b5b6000613f1d85828601613aa5565b9250506020613f2e85828601613ee3565b9150509250929050565b6000819050919050565b6000613f5d613f58613f5384613b8b565b613f38565b613b8b565b9050919050565b6000613f6f82613f42565b9050919050565b6000613f8182613f64565b9050919050565b613f9181613f76565b82525050565b6000602082019050613fac6000830184613f88565b92915050565b60008060408385031215613fc957613fc8613a58565b5b6000613fd785828601613aa5565b9250506020613fe885828601613dac565b9150509250929050565b6000613ffd82613f64565b9050919050565b61400d81613ff2565b82525050565b60006020820190506140286000830184614004565b92915050565b600080fd5b600080fd5b600080fd5b60008083601f8401126140535761405261402e565b5b8235905067ffffffffffffffff8111156140705761406f614033565b5b60208301915083600182028301111561408c5761408b614038565b5b9250929050565b600080fd5b7f4e487b7100000000000000000000000000000000000000000000000000000000600052604160045260246000fd5b6140d082613cd2565b810181811067ffffffffffffffff821117156140ef576140ee614098565b5b80604052505050565b6000614102613a4e565b905061410e82826140c7565b919050565b600067ffffffffffffffff82111561412e5761412d614098565b5b61413782613cd2565b9050602081019050919050565b82818337600083830152505050565b600061416661416184614113565b6140f8565b90508281526020810184848401111561418257614181614093565b5b61418d848285614144565b509392505050565b600082601f8301126141aa576141a961402e565b5b81356141ba848260208601614153565b91505092915050565b600080600080606085870312156141dd576141dc613a58565b5b600085013567ffffffffffffffff8111156141fb576141fa613a5d565b5b6142078782880161403d565b9450945050602085013567ffffffffffffffff81111561422a57614229613a5d565b5b61423687828801614195565b925050604061424787828801613aa5565b91505092959194509250565b600081519050919050565b600082825260208201905092915050565b6000819050602082019050919050565b61428881613c16565b82525050565b61429781613e01565b82525050565b600082825260208201905092915050565b60006142b982613c8c565b6142c3818561429d565b93506142d3818560208601613ca8565b6142dc81613cd2565b840191505092915050565b60006060830160008301516142ff600086018261427f565b506020830151614312602086018261428e565b506040830151848203604086015261432a82826142ae565b9150508091505092915050565b600061434383836142e7565b905092915050565b6000602082019050919050565b600061436382614253565b61436d818561425e565b93508360208202850161437f8561426f565b8060005b858110156143bb578484038952815161439c8582614337565b94506143a78361434b565b925060208a01995050600181019050614383565b50829750879550505050505092915050565b600060208201905081810360008301526143e78184614358565b905092915050565b60006020828403121561440557614404613a58565b5b600061441384828501613e77565b91505092915050565b6000806040838503121561443357614432613a58565b5b600061444185828601613aa5565b925050602061445285828601613c37565b9150509250929050565b600061446782613f42565b9050919050565b60006144798261445c565b9050919050565b6144898161446e565b82525050565b60006020820190506144a46000830184614480565b92915050565b600082825260208201905092915050565b7f424d233000000000000000000000000000000000000000000000000000000000600082015250565b60006144f16004836144aa565b91506144fc826144bb565b602082019050919050565b60006020820190508181036000830152614520816144e4565b9050919050565b7f4e487b7100000000000000000000000000000000000000000000000000000000600052602260045260246000fd5b6000600282049050600182168061456e57607f821691505b60208210810361458157614580614527565b5b50919050565b7f416363657373436f6e74726f6c3a2063616e206f6e6c792072656e6f756e636560008201527f20726f6c657320666f722073656c660000000000000000000000000000000000602082015250565b60006145e3602f836144aa565b91506145ee82614587565b604082019050919050565b60006020820190508181036000830152614612816145d6565b9050919050565b60008151905061462881613d95565b92915050565b60006020828403121561464457614643613a58565b5b600061465284828501614619565b91505092915050565b61466481613a62565b82525050565b600060808201905061467f600083018761465b565b61468c6020830186613b27565b6146996040830185613b27565b6146a66060830184613b27565b95945050505050565b6146b881613ae7565b81146146c357600080fd5b50565b6000815190506146d5816146af565b92915050565b6000602082840312156146f1576146f0613a58565b5b60006146ff848285016146c6565b91505092915050565b6000819050919050565b600061472d61472861472384614708565b613f38565b613b1d565b9050919050565b61473d81614712565b82525050565b60006040820190506147586000830185614734565b614765602083018461465b565b9392505050565b6000602082019050614781600083018461465b565b92915050565b600067ffffffffffffffff8211156147a2576147a1614098565b5b602082029050602081019050919050565b6000815190506147c281613c20565b92915050565b60006147db6147d684614787565b6140f8565b905080838252602082019050602084028301858111156147fe576147fd614038565b5b835b81811015614827578061481388826147b3565b845260208401935050602081019050614800565b5050509392505050565b600082601f8301126148465761484561402e565b5b81516148568482602086016147c8565b91505092915050565b60006020828403121561487557614874613a58565b5b600082015167ffffffffffffffff81111561489357614892613a5d565b5b61489f84828501614831565b91505092915050565b7f4e487b7100000000000000000000000000000000000000000000000000000000600052603260045260246000fd5b60006040820190506148ec600083018561465b565b6148f96020830184613d6b565b9392505050565b600067ffffffffffffffff82111561491b5761491a614098565b5b602082029050602081019050919050565b600080fd5b600080fd5b60008151905061494581613e60565b92915050565b600061495e61495984614113565b6140f8565b90508281526020810184848401111561497a57614979614093565b5b614985848285613ca8565b509392505050565b600082601f8301126149a2576149a161402e565b5b81516149b284826020860161494b565b91505092915050565b6000608082840312156149d1576149d061492c565b5b6149db60806140f8565b905060006149eb84828501614936565b60008301525060206149ff84828501614936565b602083015250604082015167ffffffffffffffff811115614a2357614a22614931565b5b614a2f8482850161498d565b604083015250606082015167ffffffffffffffff811115614a5357614a52614931565b5b614a5f8482850161498d565b60608301525092915050565b6000614a7e614a7984614900565b6140f8565b90508083825260208201905060208402830185811115614aa157614aa0614038565b5b835b81811015614ae857805167ffffffffffffffff811115614ac657614ac561402e565b5b808601614ad389826149bb565b85526020850194505050602081019050614aa3565b5050509392505050565b600082601f830112614b0757614b0661402e565b5b8151614b17848260208601614a6b565b91505092915050565b600060208284031215614b3657614b35613a58565b5b600082015167ffffffffffffffff811115614b5457614b53613a5d565b5b614b6084828501614af2565b91505092915050565b7f4e487b7100000000000000000000000000000000000000000000000000000000600052601160045260246000fd5b6000614ba382613b1d565b91507fffffffffffffffffffffffffffffffffffffffffffffffffffffffffffffffff8203614bd557614bd4614b69565b5b600182019050919050565b6000819050919050565b6000614c05614c00614bfb84614be0565b613f38565b613b1d565b9050919050565b614c1581614bea565b82525050565b6000604082019050614c306000830185614c0c565b614c3d602083018461465b565b9392505050565b600081905092915050565b6000614c5a82613c8c565b614c648185614c44565b9350614c74818560208601613ca8565b80840191505092915050565b6000614c8c8285614c4f565b9150614c988284614c4f565b91508190509392505050565b6000819050919050565b6000614cc9614cc4614cbf84614ca4565b613f38565b613b1d565b9050919050565b614cd981614cae565b82525050565b6000604082019050614cf46000830185614cd0565b614d01602083018461465b565b9392505050565b6000614d1382613b51565b9150614d1e83613b51565b9250828201905063ffffffff811115614d3a57614d39614b69565b5b92915050565b6000819050919050565b6000614d65614d60614d5b84614d40565b613f38565b613b1d565b9050919050565b614d7581614d4a565b82525050565b6000604082019050614d906000830185614d6c565b614d9d602083018461465b565b9392505050565b600067ffffffffffffffff821115614dbf57614dbe614098565b5b602082029050602081019050919050565b6000614de3614dde84614da4565b6140f8565b90508083825260208201905060208402830185811115614e0657614e05614038565b5b835b81811015614e2f5780614e1b8882614936565b845260208401935050602081019050614e08565b5050509392505050565b600082601f830112614e4e57614e4d61402e565b5b8151614e5e848260208601614dd0565b91505092915050565b600060208284031215614e7d57614e7c613a58565b5b600082015167ffffffffffffffff811115614e9b57614e9a613a5d565b5b614ea784828501614e39565b91505092915050565b6000819050919050565b6000614ed5614ed0614ecb84614eb0565b613f38565b613b1d565b9050919050565b614ee581614eba565b82525050565b6000604082019050614f006000830185614edc565b614f0d602083018461465b565b9392505050565b6000819050919050565b6000614f39614f34614f2f84614f14565b613f38565b613b1d565b9050919050565b614f4981614f1e565b82525050565b6000604082019050614f646000830185614f40565b614f71602083018461465b565b9392505050565b600081519050919050565b600082825260208201905092915050565b6000819050602082019050919050565b6000614fb0838361428e565b60208301905092915050565b6000602082019050919050565b6000614fd482614f78565b614fde8185614f83565b9350614fe983614f94565b8060005b8381101561501a5781516150018882614fa4565b975061500c83614fbc565b925050600181019050614fed565b5085935050505092915050565b600060208201905081810360008301526150418184614fc9565b905092915050565b60006020828403121561505f5761505e613a58565b5b600061506d848285016147b3565b91505092915050565b6000819050919050565b600061509b61509661509184615076565b613f38565b613b1d565b9050919050565b6150ab81615080565b82525050565b60006040820190506150c660008301856150a2565b6150d3602083018461465b565b9392505050565b6000819050919050565b60006150ff6150fa6150f5846150da565b613f38565b613b1d565b9050919050565b61510f816150e4565b82525050565b600060408201905061512a6000830185615106565b615137602083018461465b565b9392505050565b61514781613ae7565b82525050565b600082825260208201905092915050565b600061516982614f78565b615173818561514d565b935061517e83614f94565b8060005b838110156151af5781516151968882614fa4565b97506151a183614fbc565b925050600181019050615182565b5085935050505092915050565b6151c581613b51565b82525050565b600060e0830160008301516151e3600086018261513e565b5060208301516151f6602086018261427f565b506040830151615209604086018261427f565b5060608301518482036060860152615221828261515e565b9150506080830151848203608086015261523b828261515e565b91505060a083015184820360a086015261525582826142ae565b91505060c083015161526a60c08601826151bc565b508091505092915050565b6000602082019050818103600083015261528f81846151cb565b905092915050565b6000602082840312156152ad576152ac613a58565b5b600082015167ffffffffffffffff8111156152cb576152ca613a5d565b5b6152d78482850161498d565b91505092915050565b6000819050919050565b60006153056153006152fb846152e0565b613f38565b613b1d565b9050919050565b615315816152ea565b82525050565b6000604082019050615330600083018561530c565b61533d602083018461465b565b9392505050565b600081519050919050565b600082825260208201905092915050565b6000819050602082019050919050565b600061537c838361427f565b60208301905092915050565b6000602082019050919050565b60006153a082615344565b6153aa818561534f565b93506153b583615360565b8060005b838110156153e65781516153cd8882615370565b97506153d883615388565b9250506001810190506153b9565b5085935050505092915050565b60006040820190506154086000830185613d6b565b818103602083015261541a8184615395565b90509392505050565b60008190508160005260206000209050919050565b60006020601f8301049050919050565b600082821b905092915050565b6000600883026154857fffffffffffffffffffffffffffffffffffffffffffffffffffffffffffffffff82615448565b61548f8683615448565b95508019841693508086168417925050509392505050565b60006154c26154bd6154b884613b1d565b613f38565b613b1d565b9050919050565b6000819050919050565b6154dc836154a7565b6154f06154e8826154c9565b848454615455565b825550505050565b600090565b6155056154f8565b6155108184846154d3565b505050565b5b81811015615534576155296000826154fd565b600181019050615516565b5050565b601f8211156155795761554a81615423565b61555384615438565b81016020851015615562578190505b61557661556e85615438565b830182615515565b50505b505050565b600082821c905092915050565b600061559c6000198460080261557e565b1980831691505092915050565b60006155b5838361558b565b9150826002028217905092915050565b6155ce82613c8c565b67ffffffffffffffff8111156155e7576155e6614098565b5b6155f18254614556565b6155fc828285615538565b600060209050601f83116001811461562f576000841561561d578287015190505b61562785826155a9565b86555061568f565b601f19841661563d86615423565b60005b8281101561566557848901518255600182019150602085019450602081019050615640565b86831015615682578489015161567e601f89168261558b565b8355505b6001600288020188555050505b505050505050565b60006020820190506156ac6000830184613e13565b92915050565b6000813590506156c1816146af565b92915050565b60006156da6156d584614da4565b6140f8565b905080838252602082019050602084028301858111156156fd576156fc614038565b5b835b8181101561572657806157128882613e77565b8452602084019350506020810190506156ff565b5050509392505050565b600082601f8301126157455761574461402e565b5b81356157558482602086016156c7565b91505092915050565b600060e082840312156157745761577361492c565b5b61577e60e06140f8565b9050600061578e848285016156b2565b60008301525060206157a284828501613c37565b60208301525060406157b684828501613c37565b604083015250606082013567ffffffffffffffff8111156157da576157d9614931565b5b6157e684828501615730565b606083015250608082013567ffffffffffffffff81111561580a57615809614931565b5b61581684828501615730565b60808301525060a082013567ffffffffffffffff81111561583a57615839614931565b5b61584684828501614195565b60a08301525060c061585a84828501613ee3565b60c08301525092915050565b60006020828403121561587c5761587b613a58565b5b600082013567ffffffffffffffff81111561589a57615899613a5d565b5b6158a68482850161575e565b91505092915050565b60006040820190506158c46000830185613d6b565b81810360208301526158d68184613ce3565b90509392505050565b6000602082840312156158f5576158f4613a58565b5b600061590384828501614936565b91505092915050565b7f424d233900000000000000000000000000000000000000000000000000000000600082015250565b60006159426004836144aa565b915061594d8261590c565b602082019050919050565b6000602082019050818103600083015261597181615935565b9050919050565b7f496e697469616c697a61626c653a20636f6e747261637420697320616c72656160008201527f647920696e697469616c697a6564000000000000000000000000000000000000602082015250565b60006159d4602e836144aa565b91506159df82615978565b604082019050919050565b60006020820190508181036000830152615a03816159c7565b9050919050565b600060ff82169050919050565b6000615a32615a2d615a2884614ca4565b613f38565b615a0a565b9050919050565b615a4281615a17565b82525050565b6000602082019050615a5d6000830184615a39565b92915050565b6000819050919050565b615a7e615a7982613a62565b615a63565b82525050565b60008160e01b9050919050565b6000615a9c82615a84565b9050919050565b615ab4615aaf82613b51565b615a91565b82525050565b6000615ac68285615a6d565b600482019150615ad68284615aa3565b6004820191508190509392505050565b6000819050919050565b615b01615afc82613c16565b615ae6565b82525050565b6000615b138285615a6d565b600482019150615b238284615af0565b6020820191508190509392505050565b6000615b3e82613b51565b915063ffffffff8203615b5457615b53614b69565b5b600182019050919050565b7f496e697469616c697a61626c653a20636f6e7472616374206973206e6f74206960008201527f6e697469616c697a696e67000000000000000000000000000000000000000000602082015250565b6000615bbb602b836144aa565b9150615bc682615b5f565b604082019050919050565b60006020820190508181036000830152615bea81615bae565b9050919050565b600081905092915050565b7f416363657373436f6e74726f6c3a206163636f756e7420000000000000000000600082015250565b6000615c32601783615bf1565b9150615c3d82615bfc565b601782019050919050565b600081519050919050565b6000615c5e82615c48565b615c688185615bf1565b9350615c78818560208601613ca8565b80840191505092915050565b7f206973206d697373696e6720726f6c6520000000000000000000000000000000600082015250565b6000615cba601183615bf1565b9150615cc582615c84565b601182019050919050565b6000615cdb82615c25565b9150615ce78285615c53565b9150615cf282615cad565b9150615cfe8284615c53565b91508190509392505050565b6000615d1582615c48565b615d1f81856144aa565b9350615d2f818560208601613ca8565b615d3881613cd2565b840191505092915050565b60006020820190508181036000830152615d5d8184615d0a565b905092915050565b6000615d7082613b1d565b9150615d7b83613b1d565b9250828202615d8981613b1d565b91508282048414831517615da057615d9f614b69565b5b5092915050565b6000615db282613b1d565b9150615dbd83613b1d565b9250828201905080821115615dd557615dd4614b69565b5b92915050565b6000615de682613b1d565b915060008203615df957615df8614b69565b5b600182039050919050565b7f537472696e67733a20686578206c656e67746820696e73756666696369656e74600082015250565b6000615e3a6020836144aa565b9150615e4582615e04565b602082019050919050565b60006020820190508181036000830152615e6981615e2d565b9050919050565b600081549050615e7f81614556565b9050919050565b818103615e94575050615f6c565b615e9d82615e70565b67ffffffffffffffff811115615eb657615eb5614098565b5b615ec08254614556565b615ecb828285615538565b6000601f831160018114615efa5760008415615ee8578287015490505b615ef285826155a9565b865550615f65565b601f198416615f0887615423565b9650615f1386615423565b60005b82811015615f3b57848901548255600182019150600185019450602081019050615f16565b86831015615f585784890154615f54601f89168261558b565b8355505b6001600288020188555050505b5050505050505b56fea264697066735822122010e43d1c123a0fe6804846c2e27ffee0cb0dccf76a79120afdb2af1180e8d68164736f6c63430008180033",
  "linkReferences": {},
  "deployedLinkReferences": {}
}