{
  "_format": "hh-sol-artifact-1",
  "contractName": "RewardTokenL3",
  "sourceName": "contracts/rewardTokenL3.sol",
  "abi": [
    {
      "inputs": [],
      "stateMutability": "nonpayable",
      "type": "constructor"
    },
    {
      "anonymous": false,
      "inputs": [
        {
          "indexed": true,
          "internalType": "address",
          "name": "owner",
          "type": "address"
        },
        {
          "indexed": true,
          "internalType": "address",
          "name": "spender",
          "type": "address"
        },
        {
          "indexed": false,
          "internalType": "uint256",
          "name": "value",
          "type": "uint256"
        }
      ],
      "name": "Approval",
      "type": "event"
    },
    {
      "anonymous": false,
      "inputs": [
        {
          "indexed": false,
          "internalType": "uint8",
          "name": "version",
          "type": "uint8"
        }
      ],
      "name": "Initialized",
      "type": "event"
    },
    {
      "anonymous": false,
      "inputs": [
        {
          "indexed": true,
          "internalType": "address",
          "name": "previousOwner",
          "type": "address"
        },
        {
          "indexed": true,
          "internalType": "address",
          "name": "newOwner",
          "type": "address"
        }
      ],
      "name": "OwnershipTransferred",
      "type": "event"
    },
    {
      "anonymous": false,
      "inputs": [
        {
          "indexed": true,
          "internalType": "address",
          "name": "from",
          "type": "address"
        },
        {
          "indexed": true,
          "internalType": "address",
          "name": "to",
          "type": "address"
        },
        {
          "indexed": false,
          "internalType": "uint256",
          "name": "value",
          "type": "uint256"
        }
      ],
      "name": "Transfer",
      "type": "event"
    },
    {
      "inputs": [],
      "name": "MILLI_DAYS_PER_YEAR",
      "outputs": [
        {
          "internalType": "uint256",
          "name": "",
          "type": "uint256"
        }
      ],
      "stateMutability": "view",
      "type": "function"
    },
    {
      "inputs": [],
      "name": "REBASE_RATE_PER_YEAR",
      "outputs": [
        {
          "internalType": "uint256",
          "name": "",
          "type": "uint256"
        }
      ],
      "stateMutability": "view",
      "type": "function"
    },
    {
      "inputs": [
        {
          "internalType": "address",
          "name": "owner",
          "type": "address"
        },
        {
          "internalType": "address",
          "name": "spender",
          "type": "address"
        }
      ],
      "name": "allowance",
      "outputs": [
        {
          "internalType": "uint256",
          "name": "",
          "type": "uint256"
        }
      ],
      "stateMutability": "view",
      "type": "function"
    },
    {
      "inputs": [
        {
          "internalType": "address",
          "name": "spender",
          "type": "address"
        },
        {
          "internalType": "uint256",
          "name": "amount",
          "type": "uint256"
        }
      ],
      "name": "approve",
      "outputs": [
        {
          "internalType": "bool",
          "name": "",
          "type": "bool"
        }
      ],
      "stateMutability": "nonpayable",
      "type": "function"
    },
    {
      "inputs": [
        {
          "internalType": "address",
          "name": "account",
          "type": "address"
        }
      ],
      "name": "balanceOf",
      "outputs": [
        {
          "internalType": "uint256",
          "name": "",
          "type": "uint256"
        }
      ],
      "stateMutability": "view",
      "type": "function"
    },
    {
      "inputs": [
        {
          "internalType": "address",
          "name": "account",
          "type": "address"
        },
        {
          "internalType": "uint256",
          "name": "amount",
          "type": "uint256"
        }
      ],
      "name": "burnFrom",
      "outputs": [],
      "stateMutability": "nonpayable",
      "type": "function"
    },
    {
      "inputs": [
        {
          "internalType": "address",
          "name": "account",
          "type": "address"
        }
      ],
      "name": "calculateRebaseReward",
      "outputs": [
        {
          "internalType": "uint256",
          "name": "",
          "type": "uint256"
        }
      ],
      "stateMutability": "view",
      "type": "function"
    },
    {
      "inputs": [],
      "name": "decimals",
      "outputs": [
        {
          "internalType": "uint8",
          "name": "",
          "type": "uint8"
        }
      ],
      "stateMutability": "view",
      "type": "function"
    },
    {
      "inputs": [
        {
          "internalType": "address",
          "name": "spender",
          "type": "address"
        },
        {
          "internalType": "uint256",
          "name": "subtractedValue",
          "type": "uint256"
        }
      ],
      "name": "decreaseAllowance",
      "outputs": [
        {
          "internalType": "bool",
          "name": "",
          "type": "bool"
        }
      ],
      "stateMutability": "nonpayable",
      "type": "function"
    },
    {
      "inputs": [
        {
          "internalType": "address",
          "name": "",
          "type": "address"
        }
      ],
      "name": "entryTimestamp",
      "outputs": [
        {
          "internalType": "uint256",
          "name": "",
          "type": "uint256"
        }
      ],
      "stateMutability": "view",
      "type": "function"
    },
    {
      "inputs": [
        {
          "internalType": "address",
          "name": "spender",
          "type": "address"
        },
        {
          "internalType": "uint256",
          "name": "addedValue",
          "type": "uint256"
        }
      ],
      "name": "increaseAllowance",
      "outputs": [
        {
          "internalType": "bool",
          "name": "",
          "type": "bool"
        }
      ],
      "stateMutability": "nonpayable",
      "type": "function"
    },
    {
      "inputs": [
        {
          "internalType": "string",
          "name": "name",
          "type": "string"
        },
        {
          "internalType": "string",
          "name": "symbol",
          "type": "string"
        }
      ],
      "name": "initialize",
      "outputs": [],
      "stateMutability": "nonpayable",
      "type": "function"
    },
    {
      "inputs": [],
      "name": "name",
      "outputs": [
        {
          "internalType": "string",
          "name": "",
          "type": "string"
        }
      ],
      "stateMutability": "view",
      "type": "function"
    },
    {
      "inputs": [],
      "name": "nativeBridge",
      "outputs": [
        {
          "internalType": "contract RewardToNativeBridge",
          "name": "",
          "type": "address"
        }
      ],
      "stateMutability": "view",
      "type": "function"
    },
    {
      "inputs": [],
      "name": "owner",
      "outputs": [
        {
          "internalType": "address",
          "name": "",
          "type": "address"
        }
      ],
      "stateMutability": "view",
      "type": "function"
    },
    {
      "inputs": [],
      "name": "rebase",
      "outputs": [],
      "stateMutability": "nonpayable",
      "type": "function"
    },
    {
      "inputs": [],
      "name": "renounceOwnership",
      "outputs": [],
      "stateMutability": "nonpayable",
      "type": "function"
    },
    {
      "inputs": [
        {
          "internalType": "address",
          "name": "account",
          "type": "address"
        },
        {
          "internalType": "uint256",
          "name": "timestamp",
          "type": "uint256"
        }
      ],
      "name": "setEntryTimestamp",
      "outputs": [],
      "stateMutability": "nonpayable",
      "type": "function"
    },
    {
      "inputs": [
        {
          "internalType": "address payable",
          "name": "_nativeBridge",
          "type": "address"
        }
      ],
      "name": "setNativeBridge",
      "outputs": [],
      "stateMutability": "nonpayable",
      "type": "function"
    },
    {
      "inputs": [
        {
          "internalType": "bytes32",
          "name": "_version",
          "type": "bytes32"
        }
      ],
      "name": "setVersion",
      "outputs": [],
      "stateMutability": "nonpayable",
      "type": "function"
    },
    {
      "inputs": [
        {
          "internalType": "uint256",
          "name": "amount",
          "type": "uint256"
        }
      ],
      "name": "stake",
      "outputs": [],
      "stateMutability": "payable",
      "type": "function"
    },
    {
      "inputs": [],
      "name": "symbol",
      "outputs": [
        {
          "internalType": "string",
          "name": "",
          "type": "string"
        }
      ],
      "stateMutability": "view",
      "type": "function"
    },
    {
      "inputs": [],
      "name": "totalSupply",
      "outputs": [
        {
          "internalType": "uint256",
          "name": "",
          "type": "uint256"
        }
      ],
      "stateMutability": "view",
      "type": "function"
    },
    {
      "inputs": [
        {
          "internalType": "address",
          "name": "to",
          "type": "address"
        },
        {
          "internalType": "uint256",
          "name": "amount",
          "type": "uint256"
        }
      ],
      "name": "transfer",
      "outputs": [
        {
          "internalType": "bool",
          "name": "",
          "type": "bool"
        }
      ],
      "stateMutability": "nonpayable",
      "type": "function"
    },
    {
      "inputs": [
        {
          "internalType": "address",
          "name": "from",
          "type": "address"
        },
        {
          "internalType": "address",
          "name": "to",
          "type": "address"
        },
        {
          "internalType": "uint256",
          "name": "amount",
          "type": "uint256"
        }
      ],
      "name": "transferFrom",
      "outputs": [
        {
          "internalType": "bool",
          "name": "",
          "type": "bool"
        }
      ],
      "stateMutability": "nonpayable",
      "type": "function"
    },
    {
      "inputs": [
        {
          "internalType": "address",
          "name": "newOwner",
          "type": "address"
        }
      ],
      "name": "transferOwnership",
      "outputs": [],
      "stateMutability": "nonpayable",
      "type": "function"
    },
    {
      "inputs": [],
      "name": "version",
      "outputs": [
        {
          "internalType": "bytes32",
          "name": "",
          "type": "bytes32"
        }
      ],
      "stateMutability": "view",
      "type": "function"
    }
  ],
  "bytecode": "0x60806040523480156200001157600080fd5b50620000226200002860201b60201c565b620001d2565b600060019054906101000a900460ff16156200007b576040517f08c379a0000000000000000000000000000000000000000000000000000000008152600401620000729062000175565b60405180910390fd5b60ff801660008054906101000a900460ff1660ff1614620000ec5760ff6000806101000a81548160ff021916908360ff1602179055507f7f26b83ff96e1f2b6a682f133852f6798a09c465da95921460cefb384740249860ff604051620000e39190620001b5565b60405180910390a15b565b600082825260208201905092915050565b7f496e697469616c697a61626c653a20636f6e747261637420697320696e69746960008201527f616c697a696e6700000000000000000000000000000000000000000000000000602082015250565b60006200015d602783620000ee565b91506200016a82620000ff565b604082019050919050565b6000602082019050818103600083015262000190816200014e565b9050919050565b600060ff82169050919050565b620001af8162000197565b82525050565b6000602082019050620001cc6000830184620001a4565b92915050565b61307580620001e26000396000f3fe60806040526004361061019c5760003560e01c806379cc6790116100ec578063af14052c1161008a578063ca5f81b511610064578063ca5f81b5146105bd578063dd62ed3e146105e6578063ed6a7e5a14610623578063f2fde38b146106605761019c565b8063af14052c14610552578063c075f07a14610569578063c8126462146105945761019c565b8063961ae39f116100c6578063961ae39f14610491578063a457c2d7146104bc578063a694fc3a146104f9578063a9059cbb146105155761019c565b806379cc6790146104125780638da5cb5b1461043b57806395d89b41146104665761019c565b8063313ce567116101595780635083d86b116101335780635083d86b1461036a57806354fd4d501461039357806370a08231146103be578063715018a6146103fb5761019c565b8063313ce567146102d957806339509351146103045780634cd88b76146103415761019c565b806306fdde03146101a1578063095ea7b3146101cc57806318160ddd14610209578063189c3379146102345780631a0b79bf1461027157806323b872dd1461029c575b600080fd5b3480156101ad57600080fd5b506101b6610689565b6040516101c39190611bcd565b60405180910390f35b3480156101d857600080fd5b506101f360048036038101906101ee9190611c97565b61071b565b6040516102009190611cf2565b60405180910390f35b34801561021557600080fd5b5061021e61073e565b60405161022b9190611d1c565b60405180910390f35b34801561024057600080fd5b5061025b60048036038101906102569190611d37565b610748565b6040516102689190611d1c565b60405180910390f35b34801561027d57600080fd5b506102866107e7565b6040516102939190611dc3565b60405180910390f35b3480156102a857600080fd5b506102c360048036038101906102be9190611dde565b61080d565b6040516102d09190611cf2565b60405180910390f35b3480156102e557600080fd5b506102ee61083c565b6040516102fb9190611e4d565b60405180910390f35b34801561031057600080fd5b5061032b60048036038101906103269190611c97565b610845565b6040516103389190611cf2565b60405180910390f35b34801561034d57600080fd5b5061036860048036038101906103639190611f9d565b61087c565b005b34801561037657600080fd5b50610391600480360381019061038c9190612053565b6109c6565b005b34801561039f57600080fd5b506103a8610a12565b6040516103b59190612099565b60405180910390f35b3480156103ca57600080fd5b506103e560048036038101906103e09190611d37565b610a18565b6040516103f29190611d1c565b60405180910390f35b34801561040757600080fd5b50610410610a61565b005b34801561041e57600080fd5b5061043960048036038101906104349190611c97565b610a75565b005b34801561044757600080fd5b50610450610b5e565b60405161045d91906120c3565b60405180910390f35b34801561047257600080fd5b5061047b610b88565b6040516104889190611bcd565b60405180910390f35b34801561049d57600080fd5b506104a6610c1a565b6040516104b39190611d1c565b60405180910390f35b3480156104c857600080fd5b506104e360048036038101906104de9190611c97565b610c20565b6040516104f09190611cf2565b60405180910390f35b610513600480360381019061050e91906120de565b610c97565b005b34801561052157600080fd5b5061053c60048036038101906105379190611c97565b610e3c565b6040516105499190611cf2565b60405180910390f35b34801561055e57600080fd5b50610567610e5f565b005b34801561057557600080fd5b5061057e610ebd565b60405161058b9190611d1c565b60405180910390f35b3480156105a057600080fd5b506105bb60048036038101906105b69190611c97565b610ec2565b005b3480156105c957600080fd5b506105e460048036038101906105df9190612137565b610f12565b005b3480156105f257600080fd5b5061060d60048036038101906106089190612164565b610f24565b60405161061a9190611d1c565b60405180910390f35b34801561062f57600080fd5b5061064a60048036038101906106459190611d37565b610fab565b6040516106579190611d1c565b60405180910390f35b34801561066c57600080fd5b5061068760048036038101906106829190611d37565b610fc3565b005b606060368054610698906121d3565b80601f01602080910402602001604051908101604052809291908181526020018280546106c4906121d3565b80156107115780601f106106e657610100808354040283529160200191610711565b820191906000526020600020905b8154815290600101906020018083116106f457829003601f168201915b5050505050905090565b600080610726611046565b905061073381858561104e565b600191505092915050565b6000603554905090565b600080609760008473ffffffffffffffffffffffffffffffffffffffff1673ffffffffffffffffffffffffffffffffffffffff16815260200190815260200160002054426107969190612233565b9050600062015180826107a99190612296565b905060006107b685610a18565b9050618ead826001836107c991906122c7565b6107d391906122c7565b6107dd9190612296565b9350505050919050565b609860009054906101000a900473ffffffffffffffffffffffffffffffffffffffff1681565b600080610818611046565b9050610825858285611217565b6108308585856112a3565b60019150509392505050565b60006012905090565b600080610850611046565b90506108718185856108628589610f24565b61086c9190612309565b61104e565b600191505092915050565b60008060019054906101000a900460ff161590508080156108ad5750600160008054906101000a900460ff1660ff16105b806108da57506108bc3061151c565b1580156108d95750600160008054906101000a900460ff1660ff16145b5b610919576040517f08c379a0000000000000000000000000000000000000000000000000000000008152600401610910906123af565b60405180910390fd5b60016000806101000a81548160ff021916908360ff1602179055508015610956576001600060016101000a81548160ff0219169083151502179055505b610960838361153f565b61096861159c565b80156109c15760008060016101000a81548160ff0219169083151502179055507f7f26b83ff96e1f2b6a682f133852f6798a09c465da95921460cefb384740249860016040516109b8919061240a565b60405180910390a15b505050565b6109ce6115f5565b80609860006101000a81548173ffffffffffffffffffffffffffffffffffffffff021916908373ffffffffffffffffffffffffffffffffffffffff16021790555050565b60995481565b6000603360008373ffffffffffffffffffffffffffffffffffffffff1673ffffffffffffffffffffffffffffffffffffffff168152602001908152602001600020549050919050565b610a696115f5565b610a736000611673565b565b609860009054906101000a900473ffffffffffffffffffffffffffffffffffffffff1673ffffffffffffffffffffffffffffffffffffffff163373ffffffffffffffffffffffffffffffffffffffff1614610b05576040517f08c379a0000000000000000000000000000000000000000000000000000000008152600401610afc90612497565b60405180910390fd5b80610b0f83610a18565b1015610b50576040517f08c379a0000000000000000000000000000000000000000000000000000000008152600401610b4790612503565b60405180910390fd5b610b5a8282611739565b5050565b6000606560009054906101000a900473ffffffffffffffffffffffffffffffffffffffff16905090565b606060378054610b97906121d3565b80601f0160208091040260200160405190810160405280929190818152602001828054610bc3906121d3565b8015610c105780601f10610be557610100808354040283529160200191610c10565b820191906000526020600020905b815481529060010190602001808311610bf357829003601f168201915b5050505050905090565b618ead81565b600080610c2b611046565b90506000610c398286610f24565b905083811015610c7e576040517f08c379a0000000000000000000000000000000000000000000000000000000008152600401610c7590612595565b60405180910390fd5b610c8b828686840361104e565b60019250505092915050565b803414610cd9576040517f08c379a0000000000000000000000000000000000000000000000000000000008152600401610cd090612627565b60405180910390fd5b60008111610d1c576040517f08c379a0000000000000000000000000000000000000000000000000000000008152600401610d1390612693565b60405180910390fd5b6000609860009054906101000a900473ffffffffffffffffffffffffffffffffffffffff1673ffffffffffffffffffffffffffffffffffffffff1682604051610d64906126e4565b60006040518083038185875af1925050503d8060008114610da1576040519150601f19603f3d011682016040523d82523d6000602084013e610da6565b606091505b5050905080610dea576040517f08c379a0000000000000000000000000000000000000000000000000000000008152600401610de190612745565b60405180910390fd5b610df43383611908565b42609760003373ffffffffffffffffffffffffffffffffffffffff1673ffffffffffffffffffffffffffffffffffffffff168152602001908152602001600020819055505050565b600080610e47611046565b9050610e548185856112a3565b600191505092915050565b6000610e6a33610748565b9050610e763382611908565b42609760003373ffffffffffffffffffffffffffffffffffffffff1673ffffffffffffffffffffffffffffffffffffffff1681526020019081526020016000208190555050565b600181565b610eca6115f5565b80609760008473ffffffffffffffffffffffffffffffffffffffff1673ffffffffffffffffffffffffffffffffffffffff168152602001908152602001600020819055505050565b610f1a6115f5565b8060998190555050565b6000603460008473ffffffffffffffffffffffffffffffffffffffff1673ffffffffffffffffffffffffffffffffffffffff16815260200190815260200160002060008373ffffffffffffffffffffffffffffffffffffffff1673ffffffffffffffffffffffffffffffffffffffff16815260200190815260200160002054905092915050565b60976020528060005260406000206000915090505481565b610fcb6115f5565b600073ffffffffffffffffffffffffffffffffffffffff168173ffffffffffffffffffffffffffffffffffffffff160361103a576040517f08c379a0000000000000000000000000000000000000000000000000000000008152600401611031906127d7565b60405180910390fd5b61104381611673565b50565b600033905090565b600073ffffffffffffffffffffffffffffffffffffffff168373ffffffffffffffffffffffffffffffffffffffff16036110bd576040517f08c379a00000000000000000000000000000000000000000000000000000000081526004016110b490612869565b60405180910390fd5b600073ffffffffffffffffffffffffffffffffffffffff168273ffffffffffffffffffffffffffffffffffffffff160361112c576040517f08c379a0000000000000000000000000000000000000000000000000000000008152600401611123906128fb565b60405180910390fd5b80603460008573ffffffffffffffffffffffffffffffffffffffff1673ffffffffffffffffffffffffffffffffffffffff16815260200190815260200160002060008473ffffffffffffffffffffffffffffffffffffffff1673ffffffffffffffffffffffffffffffffffffffff168152602001908152602001600020819055508173ffffffffffffffffffffffffffffffffffffffff168373ffffffffffffffffffffffffffffffffffffffff167f8c5be1e5ebec7d5bd14f71427d1e84f3dd0314c0f7b2291e5b200ac8c7c3b9258360405161120a9190611d1c565b60405180910390a3505050565b60006112238484610f24565b90507fffffffffffffffffffffffffffffffffffffffffffffffffffffffffffffffff811461129d578181101561128f576040517f08c379a000000000000000000000000000000000000000000000000000000000815260040161128690612967565b60405180910390fd5b61129c848484840361104e565b5b50505050565b600073ffffffffffffffffffffffffffffffffffffffff168373ffffffffffffffffffffffffffffffffffffffff1603611312576040517f08c379a0000000000000000000000000000000000000000000000000000000008152600401611309906129f9565b60405180910390fd5b600073ffffffffffffffffffffffffffffffffffffffff168273ffffffffffffffffffffffffffffffffffffffff1603611381576040517f08c379a000000000000000000000000000000000000000000000000000000000815260040161137890612a8b565b60405180910390fd5b61138c838383611a5f565b6000603360008573ffffffffffffffffffffffffffffffffffffffff1673ffffffffffffffffffffffffffffffffffffffff16815260200190815260200160002054905081811015611413576040517f08c379a000000000000000000000000000000000000000000000000000000000815260040161140a90612b1d565b60405180910390fd5b818103603360008673ffffffffffffffffffffffffffffffffffffffff1673ffffffffffffffffffffffffffffffffffffffff1681526020019081526020016000208190555081603360008573ffffffffffffffffffffffffffffffffffffffff1673ffffffffffffffffffffffffffffffffffffffff168152602001908152602001600020600082825401925050819055508273ffffffffffffffffffffffffffffffffffffffff168473ffffffffffffffffffffffffffffffffffffffff167fddf252ad1be2c89b69c2b068fc378daa952ba7f163c4a11628f55a4df523b3ef846040516115039190611d1c565b60405180910390a3611516848484611a64565b50505050565b6000808273ffffffffffffffffffffffffffffffffffffffff163b119050919050565b600060019054906101000a900460ff1661158e576040517f08c379a000000000000000000000000000000000000000000000000000000000815260040161158590612baf565b60405180910390fd5b6115988282611a69565b5050565b600060019054906101000a900460ff166115eb576040517f08c379a00000000000000000000000000000000000000000000000000000000081526004016115e290612baf565b60405180910390fd5b6115f3611adc565b565b6115fd611046565b73ffffffffffffffffffffffffffffffffffffffff1661161b610b5e565b73ffffffffffffffffffffffffffffffffffffffff1614611671576040517f08c379a000000000000000000000000000000000000000000000000000000000815260040161166890612c1b565b60405180910390fd5b565b6000606560009054906101000a900473ffffffffffffffffffffffffffffffffffffffff16905081606560006101000a81548173ffffffffffffffffffffffffffffffffffffffff021916908373ffffffffffffffffffffffffffffffffffffffff1602179055508173ffffffffffffffffffffffffffffffffffffffff168173ffffffffffffffffffffffffffffffffffffffff167f8be0079c531659141344cd1fd0a4f28419497f9722a3daafe3b4186f6b6457e060405160405180910390a35050565b600073ffffffffffffffffffffffffffffffffffffffff168273ffffffffffffffffffffffffffffffffffffffff16036117a8576040517f08c379a000000000000000000000000000000000000000000000000000000000815260040161179f90612cad565b60405180910390fd5b6117b482600083611a5f565b6000603360008473ffffffffffffffffffffffffffffffffffffffff1673ffffffffffffffffffffffffffffffffffffffff1681526020019081526020016000205490508181101561183b576040517f08c379a000000000000000000000000000000000000000000000000000000000815260040161183290612d3f565b60405180910390fd5b818103603360008573ffffffffffffffffffffffffffffffffffffffff1673ffffffffffffffffffffffffffffffffffffffff1681526020019081526020016000208190555081603560008282540392505081905550600073ffffffffffffffffffffffffffffffffffffffff168373ffffffffffffffffffffffffffffffffffffffff167fddf252ad1be2c89b69c2b068fc378daa952ba7f163c4a11628f55a4df523b3ef846040516118ef9190611d1c565b60405180910390a361190383600084611a64565b505050565b600073ffffffffffffffffffffffffffffffffffffffff168273ffffffffffffffffffffffffffffffffffffffff1603611977576040517f08c379a000000000000000000000000000000000000000000000000000000000815260040161196e90612dab565b60405180910390fd5b61198360008383611a5f565b80603560008282546119959190612309565b9250508190555080603360008473ffffffffffffffffffffffffffffffffffffffff1673ffffffffffffffffffffffffffffffffffffffff168152602001908152602001600020600082825401925050819055508173ffffffffffffffffffffffffffffffffffffffff16600073ffffffffffffffffffffffffffffffffffffffff167fddf252ad1be2c89b69c2b068fc378daa952ba7f163c4a11628f55a4df523b3ef83604051611a479190611d1c565b60405180910390a3611a5b60008383611a64565b5050565b505050565b505050565b600060019054906101000a900460ff16611ab8576040517f08c379a0000000000000000000000000000000000000000000000000000000008152600401611aaf90612baf565b60405180910390fd5b8160369081611ac79190612f6d565b508060379081611ad79190612f6d565b505050565b600060019054906101000a900460ff16611b2b576040517f08c379a0000000000000000000000000000000000000000000000000000000008152600401611b2290612baf565b60405180910390fd5b611b3b611b36611046565b611673565b565b600081519050919050565b600082825260208201905092915050565b60005b83811015611b77578082015181840152602081019050611b5c565b60008484015250505050565b6000601f19601f8301169050919050565b6000611b9f82611b3d565b611ba98185611b48565b9350611bb9818560208601611b59565b611bc281611b83565b840191505092915050565b60006020820190508181036000830152611be78184611b94565b905092915050565b6000604051905090565b600080fd5b600080fd5b600073ffffffffffffffffffffffffffffffffffffffff82169050919050565b6000611c2e82611c03565b9050919050565b611c3e81611c23565b8114611c4957600080fd5b50565b600081359050611c5b81611c35565b92915050565b6000819050919050565b611c7481611c61565b8114611c7f57600080fd5b50565b600081359050611c9181611c6b565b92915050565b60008060408385031215611cae57611cad611bf9565b5b6000611cbc85828601611c4c565b9250506020611ccd85828601611c82565b9150509250929050565b60008115159050919050565b611cec81611cd7565b82525050565b6000602082019050611d076000830184611ce3565b92915050565b611d1681611c61565b82525050565b6000602082019050611d316000830184611d0d565b92915050565b600060208284031215611d4d57611d4c611bf9565b5b6000611d5b84828501611c4c565b91505092915050565b6000819050919050565b6000611d89611d84611d7f84611c03565b611d64565b611c03565b9050919050565b6000611d9b82611d6e565b9050919050565b6000611dad82611d90565b9050919050565b611dbd81611da2565b82525050565b6000602082019050611dd86000830184611db4565b92915050565b600080600060608486031215611df757611df6611bf9565b5b6000611e0586828701611c4c565b9350506020611e1686828701611c4c565b9250506040611e2786828701611c82565b9150509250925092565b600060ff82169050919050565b611e4781611e31565b82525050565b6000602082019050611e626000830184611e3e565b92915050565b600080fd5b600080fd5b7f4e487b7100000000000000000000000000000000000000000000000000000000600052604160045260246000fd5b611eaa82611b83565b810181811067ffffffffffffffff82111715611ec957611ec8611e72565b5b80604052505050565b6000611edc611bef565b9050611ee88282611ea1565b919050565b600067ffffffffffffffff821115611f0857611f07611e72565b5b611f1182611b83565b9050602081019050919050565b82818337600083830152505050565b6000611f40611f3b84611eed565b611ed2565b905082815260208101848484011115611f5c57611f5b611e6d565b5b611f67848285611f1e565b509392505050565b600082601f830112611f8457611f83611e68565b5b8135611f94848260208601611f2d565b91505092915050565b60008060408385031215611fb457611fb3611bf9565b5b600083013567ffffffffffffffff811115611fd257611fd1611bfe565b5b611fde85828601611f6f565b925050602083013567ffffffffffffffff811115611fff57611ffe611bfe565b5b61200b85828601611f6f565b9150509250929050565b600061202082611c03565b9050919050565b61203081612015565b811461203b57600080fd5b50565b60008135905061204d81612027565b92915050565b60006020828403121561206957612068611bf9565b5b60006120778482850161203e565b91505092915050565b6000819050919050565b61209381612080565b82525050565b60006020820190506120ae600083018461208a565b92915050565b6120bd81611c23565b82525050565b60006020820190506120d860008301846120b4565b92915050565b6000602082840312156120f4576120f3611bf9565b5b600061210284828501611c82565b91505092915050565b61211481612080565b811461211f57600080fd5b50565b6000813590506121318161210b565b92915050565b60006020828403121561214d5761214c611bf9565b5b600061215b84828501612122565b91505092915050565b6000806040838503121561217b5761217a611bf9565b5b600061218985828601611c4c565b925050602061219a85828601611c4c565b9150509250929050565b7f4e487b7100000000000000000000000000000000000000000000000000000000600052602260045260246000fd5b600060028204905060018216806121eb57607f821691505b6020821081036121fe576121fd6121a4565b5b50919050565b7f4e487b7100000000000000000000000000000000000000000000000000000000600052601160045260246000fd5b600061223e82611c61565b915061224983611c61565b925082820390508181111561226157612260612204565b5b92915050565b7f4e487b7100000000000000000000000000000000000000000000000000000000600052601260045260246000fd5b60006122a182611c61565b91506122ac83611c61565b9250826122bc576122bb612267565b5b828204905092915050565b60006122d282611c61565b91506122dd83611c61565b92508282026122eb81611c61565b9150828204841483151761230257612301612204565b5b5092915050565b600061231482611c61565b915061231f83611c61565b925082820190508082111561233757612336612204565b5b92915050565b7f496e697469616c697a61626c653a20636f6e747261637420697320616c72656160008201527f647920696e697469616c697a6564000000000000000000000000000000000000602082015250565b6000612399602e83611b48565b91506123a48261233d565b604082019050919050565b600060208201905081810360008301526123c88161238c565b9050919050565b6000819050919050565b60006123f46123ef6123ea846123cf565b611d64565b611e31565b9050919050565b612404816123d9565b82525050565b600060208201905061241f60008301846123fb565b92915050565b7f4f6e6c79206e6174697665206272696467652063616e2063616c6c207468697360008201527f2066756e6374696f6e0000000000000000000000000000000000000000000000602082015250565b6000612481602983611b48565b915061248c82612425565b604082019050919050565b600060208201905081810360008301526124b081612474565b9050919050565b7f496e73756666696369656e742062616c616e6365000000000000000000000000600082015250565b60006124ed601483611b48565b91506124f8826124b7565b602082019050919050565b6000602082019050818103600083015261251c816124e0565b9050919050565b7f45524332303a2064656372656173656420616c6c6f77616e63652062656c6f7760008201527f207a65726f000000000000000000000000000000000000000000000000000000602082015250565b600061257f602583611b48565b915061258a82612523565b604082019050919050565b600060208201905081810360008301526125ae81612572565b9050919050565b7f416d6f756e7420617267756d656e74206d75737420626520657175616c20746f60008201527f206174746163686564206e61746976652076616c756500000000000000000000602082015250565b6000612611603683611b48565b915061261c826125b5565b604082019050919050565b6000602082019050818103600083015261264081612604565b9050919050565b7f416d6f756e74206d7573742062652067726561746572207468616e2030000000600082015250565b600061267d601d83611b48565b915061268882612647565b602082019050919050565b600060208201905081810360008301526126ac81612670565b9050919050565b600081905092915050565b50565b60006126ce6000836126b3565b91506126d9826126be565b600082019050919050565b60006126ef826126c1565b9150819050919050565b7f4661696c656420746f2073656e64204e61746976650000000000000000000000600082015250565b600061272f601583611b48565b915061273a826126f9565b602082019050919050565b6000602082019050818103600083015261275e81612722565b9050919050565b7f4f776e61626c653a206e6577206f776e657220697320746865207a65726f206160008201527f6464726573730000000000000000000000000000000000000000000000000000602082015250565b60006127c1602683611b48565b91506127cc82612765565b604082019050919050565b600060208201905081810360008301526127f0816127b4565b9050919050565b7f45524332303a20617070726f76652066726f6d20746865207a65726f2061646460008201527f7265737300000000000000000000000000000000000000000000000000000000602082015250565b6000612853602483611b48565b915061285e826127f7565b604082019050919050565b6000602082019050818103600083015261288281612846565b9050919050565b7f45524332303a20617070726f766520746f20746865207a65726f20616464726560008201527f7373000000000000000000000000000000000000000000000000000000000000602082015250565b60006128e5602283611b48565b91506128f082612889565b604082019050919050565b60006020820190508181036000830152612914816128d8565b9050919050565b7f45524332303a20696e73756666696369656e7420616c6c6f77616e6365000000600082015250565b6000612951601d83611b48565b915061295c8261291b565b602082019050919050565b6000602082019050818103600083015261298081612944565b9050919050565b7f45524332303a207472616e736665722066726f6d20746865207a65726f20616460008201527f6472657373000000000000000000000000000000000000000000000000000000602082015250565b60006129e3602583611b48565b91506129ee82612987565b604082019050919050565b60006020820190508181036000830152612a12816129d6565b9050919050565b7f45524332303a207472616e7366657220746f20746865207a65726f206164647260008201527f6573730000000000000000000000000000000000000000000000000000000000602082015250565b6000612a75602383611b48565b9150612a8082612a19565b604082019050919050565b60006020820190508181036000830152612aa481612a68565b9050919050565b7f45524332303a207472616e7366657220616d6f756e742065786365656473206260008201527f616c616e63650000000000000000000000000000000000000000000000000000602082015250565b6000612b07602683611b48565b9150612b1282612aab565b604082019050919050565b60006020820190508181036000830152612b3681612afa565b9050919050565b7f496e697469616c697a61626c653a20636f6e7472616374206973206e6f74206960008201527f6e697469616c697a696e67000000000000000000000000000000000000000000602082015250565b6000612b99602b83611b48565b9150612ba482612b3d565b604082019050919050565b60006020820190508181036000830152612bc881612b8c565b9050919050565b7f4f776e61626c653a2063616c6c6572206973206e6f7420746865206f776e6572600082015250565b6000612c05602083611b48565b9150612c1082612bcf565b602082019050919050565b60006020820190508181036000830152612c3481612bf8565b9050919050565b7f45524332303a206275726e2066726f6d20746865207a65726f2061646472657360008201527f7300000000000000000000000000000000000000000000000000000000000000602082015250565b6000612c97602183611b48565b9150612ca282612c3b565b604082019050919050565b60006020820190508181036000830152612cc681612c8a565b9050919050565b7f45524332303a206275726e20616d6f756e7420657863656564732062616c616e60008201527f6365000000000000000000000000000000000000000000000000000000000000602082015250565b6000612d29602283611b48565b9150612d3482612ccd565b604082019050919050565b60006020820190508181036000830152612d5881612d1c565b9050919050565b7f45524332303a206d696e7420746f20746865207a65726f206164647265737300600082015250565b6000612d95601f83611b48565b9150612da082612d5f565b602082019050919050565b60006020820190508181036000830152612dc481612d88565b9050919050565b60008190508160005260206000209050919050565b60006020601f8301049050919050565b600082821b905092915050565b600060088302612e2d7fffffffffffffffffffffffffffffffffffffffffffffffffffffffffffffffff82612df0565b612e378683612df0565b95508019841693508086168417925050509392505050565b6000612e6a612e65612e6084611c61565b611d64565b611c61565b9050919050565b6000819050919050565b612e8483612e4f565b612e98612e9082612e71565b848454612dfd565b825550505050565b600090565b612ead612ea0565b612eb8818484612e7b565b505050565b5b81811015612edc57612ed1600082612ea5565b600181019050612ebe565b5050565b601f821115612f2157612ef281612dcb565b612efb84612de0565b81016020851015612f0a578190505b612f1e612f1685612de0565b830182612ebd565b50505b505050565b600082821c905092915050565b6000612f4460001984600802612f26565b1980831691505092915050565b6000612f5d8383612f33565b9150826002028217905092915050565b612f7682611b3d565b67ffffffffffffffff811115612f8f57612f8e611e72565b5b612f9982546121d3565b612fa4828285612ee0565b600060209050601f831160018114612fd75760008415612fc5578287015190505b612fcf8582612f51565b865550613037565b601f198416612fe586612dcb565b60005b8281101561300d57848901518255600182019150602085019450602081019050612fe8565b8683101561302a5784890151613026601f891682612f33565b8355505b6001600288020188555050505b50505050505056fea264697066735822122013b95d7dd932d198285ea2928bc1d10a19436d814db97ffdd79510d26420065364736f6c63430008180033",
  "linkReferences": {},
  "deployedLinkReferences": {}
}