{
  "_format": "hh-sol-artifact-1",
  "contractName": "ConfirmationBook",
  "sourceName": "contracts/confirmationBook.sol",
  "abi": [
    {
      "inputs": [],
      "stateMutability": "nonpayable",
      "type": "constructor"
    },
    {
      "anonymous": false,
      "inputs": [
        {
          "indexed": false,
          "internalType": "bytes32",
          "name": "orderId",
          "type": "bytes32"
        }
      ],
      "name": "AlreadySubmitted",
      "type": "event"
    },
    {
      "anonymous": false,
      "inputs": [
        {
          "indexed": true,
          "internalType": "bytes32",
          "name": "claimId",
          "type": "bytes32"
        },
        {
          "indexed": true,
          "internalType": "bytes32",
          "name": "orderId",
          "type": "bytes32"
        },
        {
          "indexed": false,
          "internalType": "uint256",
          "name": "timestampConfirmation",
          "type": "uint256"
        },
        {
          "indexed": false,
          "internalType": "uint256",
          "name": "timestampOrder",
          "type": "uint256"
        },
        {
          "indexed": false,
          "internalType": "uint256",
          "name": "timestampAttestation",
          "type": "uint256"
        },
        {
          "indexed": false,
          "internalType": "uint256",
          "name": "claimTimestamp",
          "type": "uint256"
        },
        {
          "indexed": false,
          "internalType": "uint256",
          "name": "refundTimestamp",
          "type": "uint256"
        }
      ],
      "name": "ConfirmClaim",
      "type": "event"
    },
    {
      "anonymous": false,
      "inputs": [
        {
          "indexed": true,
          "internalType": "bytes32",
          "name": "orderId",
          "type": "bytes32"
        },
        {
          "indexed": true,
          "internalType": "bytes32",
          "name": "attestationBatchHash",
          "type": "bytes32"
        },
        {
          "indexed": false,
          "internalType": "uint256",
          "name": "timestampOrder",
          "type": "uint256"
        },
        {
          "indexed": false,
          "internalType": "uint256",
          "name": "timestampConfirmation",
          "type": "uint256"
        },
        {
          "indexed": false,
          "internalType": "uint256",
          "name": "timestampAttestation",
          "type": "uint256"
        },
        {
          "indexed": false,
          "internalType": "uint256",
          "name": "claimTimestamp",
          "type": "uint256"
        },
        {
          "indexed": false,
          "internalType": "uint256",
          "name": "refundTimestamp",
          "type": "uint256"
        }
      ],
      "name": "ConfirmL2Attestation",
      "type": "event"
    },
    {
      "anonymous": false,
      "inputs": [
        {
          "indexed": true,
          "internalType": "bytes32",
          "name": "refundId",
          "type": "bytes32"
        },
        {
          "indexed": true,
          "internalType": "bytes32",
          "name": "orderId",
          "type": "bytes32"
        },
        {
          "indexed": false,
          "internalType": "uint256",
          "name": "timestampConfirmation",
          "type": "uint256"
        },
        {
          "indexed": false,
          "internalType": "uint256",
          "name": "timestampOrder",
          "type": "uint256"
        },
        {
          "indexed": false,
          "internalType": "uint256",
          "name": "timestampAttestation",
          "type": "uint256"
        },
        {
          "indexed": false,
          "internalType": "uint256",
          "name": "claimTimestamp",
          "type": "uint256"
        },
        {
          "indexed": false,
          "internalType": "uint256",
          "name": "refundTimestamp",
          "type": "uint256"
        },
        {
          "indexed": false,
          "internalType": "uint256",
          "name": "nowTimestamp",
          "type": "uint256"
        }
      ],
      "name": "ConfirmRefund",
      "type": "event"
    },
    {
      "anonymous": false,
      "inputs": [
        {
          "indexed": true,
          "internalType": "bytes32",
          "name": "confirmationId",
          "type": "bytes32"
        },
        {
          "indexed": true,
          "internalType": "bytes32",
          "name": "orderId",
          "type": "bytes32"
        },
        {
          "indexed": false,
          "internalType": "uint256",
          "name": "timestampOrder",
          "type": "uint256"
        },
        {
          "indexed": false,
          "internalType": "uint256",
          "name": "timestampConfirmation",
          "type": "uint256"
        },
        {
          "indexed": false,
          "internalType": "uint256",
          "name": "timestampAttestation",
          "type": "uint256"
        },
        {
          "indexed": false,
          "internalType": "uint256",
          "name": "claimTimestamp",
          "type": "uint256"
        },
        {
          "indexed": false,
          "internalType": "uint256",
          "name": "refundTimestamp",
          "type": "uint256"
        }
      ],
      "name": "ConfirmationAttest",
      "type": "event"
    },
    {
      "anonymous": false,
      "inputs": [
        {
          "indexed": false,
          "internalType": "bytes32",
          "name": "orderId",
          "type": "bytes32"
        }
      ],
      "name": "GMPUnmatchedAdded",
      "type": "event"
    },
    {
      "anonymous": false,
      "inputs": [
        {
          "indexed": false,
          "internalType": "bytes32",
          "name": "orderId",
          "type": "bytes32"
        }
      ],
      "name": "GMPUnmatchedRemoved",
      "type": "event"
    },
    {
      "anonymous": false,
      "inputs": [
        {
          "indexed": false,
          "internalType": "uint8",
          "name": "version",
          "type": "uint8"
        }
      ],
      "name": "Initialized",
      "type": "event"
    },
    {
      "anonymous": false,
      "inputs": [
        {
          "indexed": true,
          "internalType": "bytes32",
          "name": "role",
          "type": "bytes32"
        },
        {
          "indexed": true,
          "internalType": "bytes32",
          "name": "previousAdminRole",
          "type": "bytes32"
        },
        {
          "indexed": true,
          "internalType": "bytes32",
          "name": "newAdminRole",
          "type": "bytes32"
        }
      ],
      "name": "RoleAdminChanged",
      "type": "event"
    },
    {
      "anonymous": false,
      "inputs": [
        {
          "indexed": true,
          "internalType": "bytes32",
          "name": "role",
          "type": "bytes32"
        },
        {
          "indexed": true,
          "internalType": "address",
          "name": "account",
          "type": "address"
        },
        {
          "indexed": true,
          "internalType": "address",
          "name": "sender",
          "type": "address"
        }
      ],
      "name": "RoleGranted",
      "type": "event"
    },
    {
      "anonymous": false,
      "inputs": [
        {
          "indexed": true,
          "internalType": "bytes32",
          "name": "role",
          "type": "bytes32"
        },
        {
          "indexed": true,
          "internalType": "address",
          "name": "account",
          "type": "address"
        },
        {
          "indexed": true,
          "internalType": "address",
          "name": "sender",
          "type": "address"
        }
      ],
      "name": "RoleRevoked",
      "type": "event"
    },
    {
      "inputs": [],
      "name": "DEFAULT_ADMIN_ROLE",
      "outputs": [
        {
          "internalType": "bytes32",
          "name": "",
          "type": "bytes32"
        }
      ],
      "stateMutability": "view",
      "type": "function"
    },
    {
      "inputs": [
        {
          "internalType": "bytes4",
          "name": "networkId",
          "type": "bytes4"
        },
        {
          "internalType": "bytes32",
          "name": "orderId",
          "type": "bytes32"
        }
      ],
      "name": "addGMPMismatchOrder",
      "outputs": [],
      "stateMutability": "nonpayable",
      "type": "function"
    },
    {
      "inputs": [
        {
          "internalType": "bytes4",
          "name": "networkId",
          "type": "bytes4"
        },
        {
          "internalType": "bytes32",
          "name": "orderId",
          "type": "bytes32"
        }
      ],
      "name": "addLateOrder",
      "outputs": [],
      "stateMutability": "nonpayable",
      "type": "function"
    },
    {
      "inputs": [
        {
          "internalType": "bytes4",
          "name": "networkId",
          "type": "bytes4"
        },
        {
          "internalType": "bytes32",
          "name": "orderId",
          "type": "bytes32"
        },
        {
          "internalType": "address",
          "name": "sender",
          "type": "address"
        },
        {
          "internalType": "uint256",
          "name": "amount",
          "type": "uint256"
        },
        {
          "internalType": "address",
          "name": "assetAddress",
          "type": "address"
        }
      ],
      "name": "anchorClaim",
      "outputs": [],
      "stateMutability": "nonpayable",
      "type": "function"
    },
    {
      "inputs": [
        {
          "internalType": "bytes4",
          "name": "networkId",
          "type": "bytes4"
        },
        {
          "internalType": "bytes32",
          "name": "orderId",
          "type": "bytes32"
        },
        {
          "internalType": "bytes32",
          "name": "attestationBatchHash",
          "type": "bytes32"
        }
      ],
      "name": "anchorL2Attestation",
      "outputs": [],
      "stateMutability": "nonpayable",
      "type": "function"
    },
    {
      "inputs": [
        {
          "internalType": "bytes4",
          "name": "networkId",
          "type": "bytes4"
        },
        {
          "internalType": "bytes32",
          "name": "orderId",
          "type": "bytes32"
        },
        {
          "internalType": "bytes32",
          "name": "target",
          "type": "bytes32"
        },
        {
          "internalType": "uint256",
          "name": "amount",
          "type": "uint256"
        },
        {
          "internalType": "uint32",
          "name": "asset",
          "type": "uint32"
        },
        {
          "internalType": "address",
          "name": "sender",
          "type": "address"
        },
        {
          "internalType": "bytes32",
          "name": "txHash",
          "type": "bytes32"
        }
      ],
      "name": "anchorOrderConfirmation",
      "outputs": [],
      "stateMutability": "nonpayable",
      "type": "function"
    },
    {
      "inputs": [
        {
          "internalType": "bytes4",
          "name": "networkId",
          "type": "bytes4"
        },
        {
          "internalType": "bytes32",
          "name": "orderId",
          "type": "bytes32"
        },
        {
          "internalType": "bytes32",
          "name": "gmpPayload",
          "type": "bytes32"
        }
      ],
      "name": "anchorOrderGMPUnmatched",
      "outputs": [
        {
          "internalType": "bool",
          "name": "",
          "type": "bool"
        }
      ],
      "stateMutability": "nonpayable",
      "type": "function"
    },
    {
      "inputs": [
        {
          "internalType": "bytes4",
          "name": "networkId",
          "type": "bytes4"
        },
        {
          "internalType": "bytes32",
          "name": "orderId",
          "type": "bytes32"
        },
        {
          "internalType": "uint256",
          "name": "amount",
          "type": "uint256"
        },
        {
          "internalType": "address",
          "name": "assetAddress",
          "type": "address"
        },
        {
          "internalType": "address",
          "name": "sender",
          "type": "address"
        }
      ],
      "name": "anchorRefund",
      "outputs": [],
      "stateMutability": "nonpayable",
      "type": "function"
    },
    {
      "inputs": [],
      "name": "attestationDLQFactory",
      "outputs": [
        {
          "internalType": "contract AttestationDLQFactory",
          "name": "",
          "type": "address"
        }
      ],
      "stateMutability": "view",
      "type": "function"
    },
    {
      "inputs": [
        {
          "internalType": "bytes32",
          "name": "",
          "type": "bytes32"
        }
      ],
      "name": "attestations",
      "outputs": [
        {
          "internalType": "uint256",
          "name": "",
          "type": "uint256"
        }
      ],
      "stateMutability": "view",
      "type": "function"
    },
    {
      "inputs": [],
      "name": "attestersPortal",
      "outputs": [
        {
          "internalType": "contract AttestersPortal",
          "name": "",
          "type": "address"
        }
      ],
      "stateMutability": "view",
      "type": "function"
    },
    {
      "inputs": [],
      "name": "biddingBook",
      "outputs": [
        {
          "internalType": "contract BiddingBook",
          "name": "",
          "type": "address"
        }
      ],
      "stateMutability": "view",
      "type": "function"
    },
    {
      "inputs": [
        {
          "internalType": "bytes4",
          "name": "networkId",
          "type": "bytes4"
        },
        {
          "internalType": "bytes32",
          "name": "orderId",
          "type": "bytes32"
        }
      ],
      "name": "checkDLQ",
      "outputs": [
        {
          "internalType": "bool",
          "name": "",
          "type": "bool"
        }
      ],
      "stateMutability": "view",
      "type": "function"
    },
    {
      "inputs": [
        {
          "internalType": "bytes4",
          "name": "networkId",
          "type": "bytes4"
        }
      ],
      "name": "checkDLQInitialized",
      "outputs": [
        {
          "internalType": "bool",
          "name": "",
          "type": "bool"
        }
      ],
      "stateMutability": "view",
      "type": "function"
    },
    {
      "inputs": [
        {
          "internalType": "bytes4",
          "name": "networkId",
          "type": "bytes4"
        },
        {
          "internalType": "bytes32",
          "name": "orderId",
          "type": "bytes32"
        }
      ],
      "name": "checkGMPUnmatched",
      "outputs": [
        {
          "internalType": "bool",
          "name": "",
          "type": "bool"
        }
      ],
      "stateMutability": "view",
      "type": "function"
    },
    {
      "inputs": [
        {
          "internalType": "bytes32",
          "name": "",
          "type": "bytes32"
        }
      ],
      "name": "claims",
      "outputs": [
        {
          "internalType": "uint256",
          "name": "",
          "type": "uint256"
        }
      ],
      "stateMutability": "view",
      "type": "function"
    },
    {
      "inputs": [
        {
          "internalType": "bytes32",
          "name": "",
          "type": "bytes32"
        }
      ],
      "name": "confirmations",
      "outputs": [
        {
          "internalType": "uint256",
          "name": "",
          "type": "uint256"
        }
      ],
      "stateMutability": "view",
      "type": "function"
    },
    {
      "inputs": [
        {
          "internalType": "bytes4",
          "name": "networkId",
          "type": "bytes4"
        },
        {
          "internalType": "bytes32",
          "name": "orderId",
          "type": "bytes32"
        },
        {
          "internalType": "uint256",
          "name": "amount",
          "type": "uint256"
        },
        {
          "internalType": "address",
          "name": "assetAddress",
          "type": "address"
        },
        {
          "internalType": "address",
          "name": "sender",
          "type": "address"
        }
      ],
      "name": "generateClaimId",
      "outputs": [
        {
          "internalType": "bytes32",
          "name": "",
          "type": "bytes32"
        }
      ],
      "stateMutability": "pure",
      "type": "function"
    },
    {
      "inputs": [
        {
          "internalType": "bytes4",
          "name": "networkId",
          "type": "bytes4"
        },
        {
          "internalType": "bytes32",
          "name": "orderId",
          "type": "bytes32"
        },
        {
          "internalType": "bytes32",
          "name": "target",
          "type": "bytes32"
        },
        {
          "internalType": "uint256",
          "name": "amount",
          "type": "uint256"
        },
        {
          "internalType": "uint32",
          "name": "asset",
          "type": "uint32"
        },
        {
          "internalType": "address",
          "name": "sender",
          "type": "address"
        }
      ],
      "name": "generateConfirmationId",
      "outputs": [
        {
          "internalType": "bytes32",
          "name": "",
          "type": "bytes32"
        }
      ],
      "stateMutability": "pure",
      "type": "function"
    },
    {
      "inputs": [
        {
          "internalType": "bytes4",
          "name": "networkId",
          "type": "bytes4"
        },
        {
          "internalType": "bytes32",
          "name": "orderId",
          "type": "bytes32"
        },
        {
          "internalType": "uint256",
          "name": "amount",
          "type": "uint256"
        },
        {
          "internalType": "address",
          "name": "asset",
          "type": "address"
        },
        {
          "internalType": "address",
          "name": "sender",
          "type": "address"
        }
      ],
      "name": "generateRefundId",
      "outputs": [
        {
          "internalType": "bytes32",
          "name": "",
          "type": "bytes32"
        }
      ],
      "stateMutability": "pure",
      "type": "function"
    },
    {
      "inputs": [
        {
          "internalType": "bytes4",
          "name": "networkId",
          "type": "bytes4"
        }
      ],
      "name": "getAllGMPMismatchedOrders",
      "outputs": [
        {
          "internalType": "bytes32[]",
          "name": "",
          "type": "bytes32[]"
        }
      ],
      "stateMutability": "view",
      "type": "function"
    },
    {
      "inputs": [
        {
          "internalType": "bytes4",
          "name": "networkId",
          "type": "bytes4"
        }
      ],
      "name": "getAllLateOrders",
      "outputs": [
        {
          "internalType": "bytes32[]",
          "name": "",
          "type": "bytes32[]"
        }
      ],
      "stateMutability": "view",
      "type": "function"
    },
    {
      "inputs": [
        {
          "internalType": "bytes4",
          "name": "networkId",
          "type": "bytes4"
        }
      ],
      "name": "getAttestationDLQ",
      "outputs": [
        {
          "internalType": "contract AttestationDLQ",
          "name": "",
          "type": "address"
        }
      ],
      "stateMutability": "view",
      "type": "function"
    },
    {
      "inputs": [
        {
          "internalType": "bytes32",
          "name": "orderId",
          "type": "bytes32"
        }
      ],
      "name": "getConfirmationTxHash",
      "outputs": [
        {
          "internalType": "bytes32",
          "name": "",
          "type": "bytes32"
        }
      ],
      "stateMutability": "view",
      "type": "function"
    },
    {
      "inputs": [
        {
          "internalType": "bytes4",
          "name": "networkId",
          "type": "bytes4"
        }
      ],
      "name": "getDLQNewest",
      "outputs": [
        {
          "internalType": "bytes32",
          "name": "",
          "type": "bytes32"
        }
      ],
      "stateMutability": "view",
      "type": "function"
    },
    {
      "inputs": [
        {
          "internalType": "bytes4",
          "name": "networkId",
          "type": "bytes4"
        }
      ],
      "name": "getDLQOldest",
      "outputs": [
        {
          "internalType": "bytes32",
          "name": "",
          "type": "bytes32"
        }
      ],
      "stateMutability": "view",
      "type": "function"
    },
    {
      "inputs": [
        {
          "internalType": "bytes4",
          "name": "networkId",
          "type": "bytes4"
        }
      ],
      "name": "getDLQOldestGMP",
      "outputs": [
        {
          "internalType": "bytes32",
          "name": "",
          "type": "bytes32"
        }
      ],
      "stateMutability": "view",
      "type": "function"
    },
    {
      "inputs": [
        {
          "internalType": "bytes4",
          "name": "networkId",
          "type": "bytes4"
        }
      ],
      "name": "getDLQOldestLate",
      "outputs": [
        {
          "internalType": "bytes32",
          "name": "",
          "type": "bytes32"
        }
      ],
      "stateMutability": "view",
      "type": "function"
    },
    {
      "inputs": [
        {
          "internalType": "bytes4",
          "name": "networkId",
          "type": "bytes4"
        }
      ],
      "name": "getDLQTotals",
      "outputs": [
        {
          "internalType": "uint256",
          "name": "",
          "type": "uint256"
        }
      ],
      "stateMutability": "view",
      "type": "function"
    },
    {
      "inputs": [
        {
          "internalType": "bytes4",
          "name": "networkId",
          "type": "bytes4"
        }
      ],
      "name": "getGMPMismatchedCount",
      "outputs": [
        {
          "internalType": "uint256",
          "name": "",
          "type": "uint256"
        }
      ],
      "stateMutability": "view",
      "type": "function"
    },
    {
      "inputs": [
        {
          "internalType": "bytes4",
          "name": "networkId",
          "type": "bytes4"
        }
      ],
      "name": "getLateOrdersCount",
      "outputs": [
        {
          "internalType": "uint256",
          "name": "",
          "type": "uint256"
        }
      ],
      "stateMutability": "view",
      "type": "function"
    },
    {
      "inputs": [
        {
          "internalType": "bytes4",
          "name": "networkId",
          "type": "bytes4"
        }
      ],
      "name": "getOrInitializeAttestationDLQ",
      "outputs": [
        {
          "internalType": "contract AttestationDLQ",
          "name": "",
          "type": "address"
        }
      ],
      "stateMutability": "nonpayable",
      "type": "function"
    },
    {
      "inputs": [
        {
          "internalType": "bytes32",
          "name": "role",
          "type": "bytes32"
        }
      ],
      "name": "getRoleAdmin",
      "outputs": [
        {
          "internalType": "bytes32",
          "name": "",
          "type": "bytes32"
        }
      ],
      "stateMutability": "view",
      "type": "function"
    },
    {
      "inputs": [
        {
          "internalType": "bytes32",
          "name": "orderId",
          "type": "bytes32"
        }
      ],
      "name": "getTimestampsByOrderId",
      "outputs": [
        {
          "components": [
            {
              "internalType": "uint256",
              "name": "orderTimestamp",
              "type": "uint256"
            },
            {
              "internalType": "uint256",
              "name": "bidTimestamp",
              "type": "uint256"
            },
            {
              "internalType": "uint256",
              "name": "confirmationTimestamp",
              "type": "uint256"
            },
            {
              "internalType": "uint256",
              "name": "refundTimestamp",
              "type": "uint256"
            },
            {
              "internalType": "uint256",
              "name": "claimTimestamp",
              "type": "uint256"
            },
            {
              "internalType": "uint256",
              "name": "attestationTimestamp",
              "type": "uint256"
            }
          ],
          "internalType": "struct ConfirmationBook.OrderTimestamps",
          "name": "",
          "type": "tuple"
        }
      ],
      "stateMutability": "view",
      "type": "function"
    },
    {
      "inputs": [
        {
          "internalType": "bytes32",
          "name": "",
          "type": "bytes32"
        }
      ],
      "name": "gmpUnmatchedPayload",
      "outputs": [
        {
          "internalType": "bytes32",
          "name": "",
          "type": "bytes32"
        }
      ],
      "stateMutability": "view",
      "type": "function"
    },
    {
      "inputs": [
        {
          "internalType": "bytes32",
          "name": "role",
          "type": "bytes32"
        },
        {
          "internalType": "address",
          "name": "account",
          "type": "address"
        }
      ],
      "name": "grantRole",
      "outputs": [],
      "stateMutability": "nonpayable",
      "type": "function"
    },
    {
      "inputs": [
        {
          "internalType": "bytes32",
          "name": "role",
          "type": "bytes32"
        },
        {
          "internalType": "address",
          "name": "account",
          "type": "address"
        }
      ],
      "name": "hasRole",
      "outputs": [
        {
          "internalType": "bool",
          "name": "",
          "type": "bool"
        }
      ],
      "stateMutability": "view",
      "type": "function"
    },
    {
      "inputs": [
        {
          "internalType": "address",
          "name": "_owner",
          "type": "address"
        }
      ],
      "name": "initialize",
      "outputs": [],
      "stateMutability": "nonpayable",
      "type": "function"
    },
    {
      "inputs": [],
      "name": "orderBook",
      "outputs": [
        {
          "internalType": "contract OrderBook",
          "name": "",
          "type": "address"
        }
      ],
      "stateMutability": "view",
      "type": "function"
    },
    {
      "inputs": [
        {
          "internalType": "bytes32",
          "name": "",
          "type": "bytes32"
        }
      ],
      "name": "orderIdToClaimId",
      "outputs": [
        {
          "internalType": "bytes32",
          "name": "",
          "type": "bytes32"
        }
      ],
      "stateMutability": "view",
      "type": "function"
    },
    {
      "inputs": [
        {
          "internalType": "bytes32",
          "name": "",
          "type": "bytes32"
        }
      ],
      "name": "orderIdToConfirmationId",
      "outputs": [
        {
          "internalType": "bytes32",
          "name": "",
          "type": "bytes32"
        }
      ],
      "stateMutability": "view",
      "type": "function"
    },
    {
      "inputs": [
        {
          "internalType": "bytes32",
          "name": "",
          "type": "bytes32"
        }
      ],
      "name": "orderIdToConfirmationTxHash",
      "outputs": [
        {
          "internalType": "bytes32",
          "name": "",
          "type": "bytes32"
        }
      ],
      "stateMutability": "view",
      "type": "function"
    },
    {
      "inputs": [
        {
          "internalType": "bytes32",
          "name": "",
          "type": "bytes32"
        }
      ],
      "name": "orderIdToL2BatchHash",
      "outputs": [
        {
          "internalType": "bytes32",
          "name": "",
          "type": "bytes32"
        }
      ],
      "stateMutability": "view",
      "type": "function"
    },
    {
      "inputs": [
        {
          "internalType": "bytes32",
          "name": "",
          "type": "bytes32"
        }
      ],
      "name": "orderIdToL2BatchIndex",
      "outputs": [
        {
          "internalType": "uint32",
          "name": "",
          "type": "uint32"
        }
      ],
      "stateMutability": "view",
      "type": "function"
    },
    {
      "inputs": [
        {
          "internalType": "bytes32",
          "name": "",
          "type": "bytes32"
        }
      ],
      "name": "orderIdToRefundId",
      "outputs": [
        {
          "internalType": "bytes32",
          "name": "",
          "type": "bytes32"
        }
      ],
      "stateMutability": "view",
      "type": "function"
    },
    {
      "inputs": [],
      "name": "ownerSet",
      "outputs": [
        {
          "internalType": "address",
          "name": "",
          "type": "address"
        }
      ],
      "stateMutability": "view",
      "type": "function"
    },
    {
      "inputs": [],
      "name": "pendingBook",
      "outputs": [
        {
          "internalType": "contract PendingBook",
          "name": "",
          "type": "address"
        }
      ],
      "stateMutability": "view",
      "type": "function"
    },
    {
      "inputs": [
        {
          "internalType": "bytes4",
          "name": "",
          "type": "bytes4"
        }
      ],
      "name": "perNetworkDLQ",
      "outputs": [
        {
          "internalType": "contract AttestationDLQ",
          "name": "",
          "type": "address"
        }
      ],
      "stateMutability": "view",
      "type": "function"
    },
    {
      "inputs": [
        {
          "internalType": "bytes32",
          "name": "",
          "type": "bytes32"
        }
      ],
      "name": "refunds",
      "outputs": [
        {
          "internalType": "uint256",
          "name": "",
          "type": "uint256"
        }
      ],
      "stateMutability": "view",
      "type": "function"
    },
    {
      "inputs": [
        {
          "internalType": "bytes4",
          "name": "networkId",
          "type": "bytes4"
        },
        {
          "internalType": "bytes32",
          "name": "orderId",
          "type": "bytes32"
        }
      ],
      "name": "removeOrderGMPUnmatched",
      "outputs": [],
      "stateMutability": "nonpayable",
      "type": "function"
    },
    {
      "inputs": [
        {
          "internalType": "bytes32",
          "name": "role",
          "type": "bytes32"
        },
        {
          "internalType": "address",
          "name": "account",
          "type": "address"
        }
      ],
      "name": "renounceRole",
      "outputs": [],
      "stateMutability": "nonpayable",
      "type": "function"
    },
    {
      "inputs": [
        {
          "internalType": "bytes32",
          "name": "role",
          "type": "bytes32"
        },
        {
          "internalType": "address",
          "name": "account",
          "type": "address"
        }
      ],
      "name": "revokeRole",
      "outputs": [],
      "stateMutability": "nonpayable",
      "type": "function"
    },
    {
      "inputs": [
        {
          "internalType": "contract AttestationDLQFactory",
          "name": "_attestationDLQFactory",
          "type": "address"
        }
      ],
      "name": "setAttestationDLQFactory",
      "outputs": [],
      "stateMutability": "nonpayable",
      "type": "function"
    },
    {
      "inputs": [
        {
          "internalType": "address payable",
          "name": "_attestersPortal",
          "type": "address"
        }
      ],
      "name": "setAttestersPortal",
      "outputs": [],
      "stateMutability": "nonpayable",
      "type": "function"
    },
    {
      "inputs": [
        {
          "internalType": "address payable",
          "name": "_biddingBook",
          "type": "address"
        }
      ],
      "name": "setBiddingBook",
      "outputs": [],
      "stateMutability": "nonpayable",
      "type": "function"
    },
    {
      "inputs": [
        {
          "internalType": "address payable",
          "name": "_orderBook",
          "type": "address"
        }
      ],
      "name": "setOrderBook",
      "outputs": [],
      "stateMutability": "nonpayable",
      "type": "function"
    },
    {
      "inputs": [
        {
          "internalType": "address payable",
          "name": "_pendingBook",
          "type": "address"
        }
      ],
      "name": "setPendingBook",
      "outputs": [],
      "stateMutability": "nonpayable",
      "type": "function"
    },
    {
      "inputs": [
        {
          "internalType": "address payable",
          "name": "_singleAttestationBook",
          "type": "address"
        }
      ],
      "name": "setSingleAttestationBook",
      "outputs": [],
      "stateMutability": "nonpayable",
      "type": "function"
    },
    {
      "inputs": [
        {
          "internalType": "bytes32",
          "name": "_version",
          "type": "bytes32"
        }
      ],
      "name": "setVersion",
      "outputs": [],
      "stateMutability": "nonpayable",
      "type": "function"
    },
    {
      "inputs": [],
      "name": "singleAttestationBook",
      "outputs": [
        {
          "internalType": "contract SingleAttestationBook",
          "name": "",
          "type": "address"
        }
      ],
      "stateMutability": "view",
      "type": "function"
    },
    {
      "inputs": [
        {
          "internalType": "bytes4",
          "name": "interfaceId",
          "type": "bytes4"
        }
      ],
      "name": "supportsInterface",
      "outputs": [
        {
          "internalType": "bool",
          "name": "",
          "type": "bool"
        }
      ],
      "stateMutability": "view",
      "type": "function"
    },
    {
      "inputs": [],
      "name": "version",
      "outputs": [
        {
          "internalType": "bytes32",
          "name": "",
          "type": "bytes32"
        }
      ],
      "stateMutability": "view",
      "type": "function"
    }
  ],
  "bytecode": "0x60806040523480156200001157600080fd5b50620000226200002860201b60201c565b620001d2565b600060019054906101000a900460ff16156200007b576040517f08c379a0000000000000000000000000000000000000000000000000000000008152600401620000729062000175565b60405180910390fd5b60ff801660008054906101000a900460ff1660ff1614620000ec5760ff6000806101000a81548160ff021916908360ff1602179055507f7f26b83ff96e1f2b6a682f133852f6798a09c465da95921460cefb384740249860ff604051620000e39190620001b5565b60405180910390a15b565b600082825260208201905092915050565b7f496e697469616c697a61626c653a20636f6e747261637420697320696e69746960008201527f616c697a696e6700000000000000000000000000000000000000000000000000602082015250565b60006200015d602783620000ee565b91506200016a82620000ff565b604082019050919050565b6000602082019050818103600083015262000190816200014e565b9050919050565b600060ff82169050919050565b620001af8162000197565b82525050565b6000602082019050620001cc6000830184620001a4565b92915050565b615dc480620001e26000396000f3fe608060405234801561001057600080fd5b50600436106103ba5760003560e01c80637c6dbf0d116101f4578063b87ce17c1161011a578063db3dcd4f116100ad578063eff0f5921161007c578063eff0f59214610cbb578063f061c78914610ceb578063f1d037c814610d09578063f5999f1514610d25576103ba565b8063db3dcd4f14610c0f578063dc2e5a3714610c2b578063e07e922e14610c5b578063ec95bfe714610c8b576103ba565b8063ca5f81b5116100e9578063ca5f81b514610b9d578063d03685cb14610bb9578063d547741f14610bd5578063d8b9a7dc14610bf1576103ba565b8063b87ce17c14610b05578063baf72d3b14610b35578063bb88b9b914610b65578063c4d66de814610b81576103ba565b80639e4d848111610192578063adc5ff4f11610161578063adc5ff4f14610a45578063b208daed14610a75578063b2130b2514610aa5578063b383a2b014610ad5576103ba565b80639e4d8481146109ab578063a00dd520146109db578063a217fddf146109f7578063a2256a2e14610a15576103ba565b8063940992a3116101ce578063940992a3146108ff5780639a1598c81461092f5780639bce1d2c1461094b5780639c0b4f291461097b576103ba565b80637c6dbf0d1461086f5780638a1727531461089f57806391d14854146108cf576103ba565b80632f2ff15d116102e45780635d1c5710116102775780636fb05db5116102465780636fb05db5146107d557806370730cd01461080557806370962e5d14610835578063776af5ba14610851576103ba565b80635d1c5710146107275780635fd80b8514610745578063625fcc21146107755780636f97410b146107a5576103ba565b8063409e16aa116102b3578063409e16aa146106a15780634e01706b146106bd57806354fd4d50146106ed57806356abbffb1461070b576103ba565b80632f2ff15d1461061b57806336568abe146106375780633a590a73146106535780633aac5d3d14610683576103ba565b806319eeac921161035c578063250ce7a81161032b578063250ce7a81461058157806327197059146105b157806328f95a97146105e15780632aa8269e146105fd576103ba565b806319eeac92146104e75780631ddceedc14610517578063223654d114610533578063248a9ca314610551576103ba565b80630894512711610398578063089451271461043b5780630a8614a81461046b57806311c8305c1461049b5780631966c154146104cb576103ba565b806301ffc9a7146103bf578063040829a9146103ef57806305f809a41461041f575b600080fd5b6103d960048036038101906103d49190614462565b610d55565b6040516103e691906144aa565b60405180910390f35b61040960048036038101906104049190614462565b610dcf565b60405161041691906144de565b60405180910390f35b61043960048036038101906104349190614569565b610ed0565b005b61045560048036038101906104509190614462565b610f60565b60405161046291906145af565b60405180910390f35b610485600480360381019061048091906145f6565b611063565b60405161049291906144aa565b60405180910390f35b6104b560048036038101906104b091906146dd565b6111a4565b6040516104c291906145af565b60405180910390f35b6104e560048036038101906104e091906147a8565b6111e3565b005b61050160048036038101906104fc91906147d5565b611273565b60405161050e91906144aa565b60405180910390f35b610531600480360381019061052c9190614815565b611416565b005b61053b6116d3565b604051610548919061489f565b60405180910390f35b61056b600480360381019061056691906148ba565b6116f9565b60405161057891906145af565b60405180910390f35b61059b600480360381019061059691906148ba565b611719565b6040516105a891906145af565b60405180910390f35b6105cb60048036038101906105c691906148ba565b611731565b6040516105d891906145af565b60405180910390f35b6105fb60048036038101906105f691906147d5565b611749565b005b6106056118b0565b6040516106129190614946565b60405180910390f35b61063560048036038101906106309190614961565b6118d6565b005b610651600480360381019061064c9190614961565b6118f7565b005b61066d60048036038101906106689190614462565b61197a565b60405161067a91906149c2565b60405180910390f35b61068b6119ad565b6040516106989190614a10565b60405180910390f35b6106bb60048036038101906106b691906147a8565b6119d3565b005b6106d760048036038101906106d29190614462565b611a63565b6040516106e491906149c2565b60405180910390f35b6106f5611b8c565b60405161070291906145af565b60405180910390f35b610725600480360381019061072091906145f6565b611b92565b005b61072f611e65565b60405161073c9190614a4c565b60405180910390f35b61075f600480360381019061075a9190614462565b611e8b565b60405161076c91906144aa565b60405180910390f35b61078f600480360381019061078a91906148ba565b611f35565b60405161079c91906145af565b60405180910390f35b6107bf60048036038101906107ba91906148ba565b611f52565b6040516107cc91906145af565b60405180910390f35b6107ef60048036038101906107ea91906148ba565b611f6a565b6040516107fc91906145af565b60405180910390f35b61081f600480360381019061081a9190614462565b611f82565b60405161082c91906144de565b60405180910390f35b61084f600480360381019061084a91906147d5565b612083565b005b6108596121ea565b6040516108669190614a88565b60405180910390f35b610889600480360381019061088491906148ba565b612210565b6040516108969190614b2d565b60405180910390f35b6108b960048036038101906108b491906148ba565b612452565b6040516108c691906144de565b60405180910390f35b6108e960048036038101906108e49190614961565b61246a565b6040516108f691906144aa565b60405180910390f35b610919600480360381019061091491906148ba565b6124d5565b60405161092691906144de565b60405180910390f35b610949600480360381019061094491906147a8565b6124ed565b005b61096560048036038101906109609190614462565b61257d565b60405161097291906145af565b60405180910390f35b61099560048036038101906109909190614462565b612680565b6040516109a29190614c06565b60405180910390f35b6109c560048036038101906109c09190614462565b6127ce565b6040516109d291906145af565b60405180910390f35b6109f560048036038101906109f091906147a8565b6128d1565b005b6109ff612961565b604051610a0c91906145af565b60405180910390f35b610a2f6004803603810190610a2a91906148ba565b612968565b604051610a3c91906145af565b60405180910390f35b610a5f6004803603810190610a5a9190614462565b612980565b604051610a6c91906144de565b60405180910390f35b610a8f6004803603810190610a8a9190614815565b612a81565b604051610a9c91906145af565b60405180910390f35b610abf6004803603810190610aba91906147d5565b612abd565b604051610acc91906144aa565b60405180910390f35b610aef6004803603810190610aea9190614462565b612c82565b604051610afc91906145af565b60405180910390f35b610b1f6004803603810190610b1a9190614462565b612d85565b604051610b2c91906149c2565b60405180910390f35b610b4f6004803603810190610b4a9190614815565b612e00565b604051610b5c91906145af565b60405180910390f35b610b7f6004803603810190610b7a9190614c28565b612e3c565b005b610b9b6004803603810190610b969190614cca565b6133b2565b005b610bb76004803603810190610bb291906148ba565b61353f565b005b610bd36004803603810190610bce91906147a8565b613595565b005b610bef6004803603810190610bea9190614961565b613625565b005b610bf9613646565b604051610c069190614d18565b60405180910390f35b610c296004803603810190610c2491906147d5565b61366c565b005b610c456004803603810190610c409190614462565b613827565b604051610c529190614c06565b60405180910390f35b610c756004803603810190610c7091906148ba565b613975565b604051610c8291906145af565b60405180910390f35b610ca56004803603810190610ca091906148ba565b61398d565b604051610cb291906144de565b60405180910390f35b610cd56004803603810190610cd091906148ba565b6139a5565b604051610ce291906144de565b60405180910390f35b610cf36139bd565b604051610d009190614d54565b60405180910390f35b610d236004803603810190610d1e9190614d6f565b6139e3565b005b610d3f6004803603810190610d3a91906148ba565b613c9e565b604051610d4c9190614df9565b60405180910390f35b60007f7965db0b000000000000000000000000000000000000000000000000000000007bffffffffffffffffffffffffffffffffffffffffffffffffffffffff1916827bffffffffffffffffffffffffffffffffffffffffffffffffffffffff19161480610dc85750610dc782613cc1565b5b9050919050565b6000610dda82611e8b565b15610ec65760a56000837bffffffffffffffffffffffffffffffffffffffffffffffffffffffff19167bffffffffffffffffffffffffffffffffffffffffffffffffffffffff1916815260200190815260200160002060009054906101000a900473ffffffffffffffffffffffffffffffffffffffff1673ffffffffffffffffffffffffffffffffffffffff1663e33046c96040518163ffffffff1660e01b8152600401602060405180830381865afa158015610e9b573d6000803e3d6000fd5b505050506040513d601f19601f82011682018060405250810190610ebf9190614e29565b9050610ecb565b600090505b919050565b610edd6000801b3361246a565b610f1c576040517f08c379a0000000000000000000000000000000000000000000000000000000008152600401610f1390614eb3565b60405180910390fd5b80609860006101000a81548173ffffffffffffffffffffffffffffffffffffffff021916908373ffffffffffffffffffffffffffffffffffffffff16021790555050565b6000610f6b82611e8b565b156110575760a56000837bffffffffffffffffffffffffffffffffffffffffffffffffffffffff19167bffffffffffffffffffffffffffffffffffffffffffffffffffffffff1916815260200190815260200160002060009054906101000a900473ffffffffffffffffffffffffffffffffffffffff1673ffffffffffffffffffffffffffffffffffffffff1663228473c16040518163ffffffff1660e01b8152600401602060405180830381865afa15801561102c573d6000803e3d6000fd5b505050506040513d601f19601f820116820180604052508101906110509190614ee8565b905061105e565b6000801b90505b919050565b6000609760009054906101000a900473ffffffffffffffffffffffffffffffffffffffff1673ffffffffffffffffffffffffffffffffffffffff1663ee06b289336040518263ffffffff1660e01b81526004016110c0919061489f565b602060405180830381865afa1580156110dd573d6000803e3d6000fd5b505050506040513d601f19601f820116820180604052508101906111019190614f41565b611140576040517f08c379a000000000000000000000000000000000000000000000000000000000815260040161113790614fba565b60405180910390fd5b61114a8484611749565b8160a46000858152602001908152602001600020819055507f4b649f71dc6a3df234c4b5d708a9e044ebd814503795ecf65c5d65fe05cd694e8360405161119191906145af565b60405180910390a1600190509392505050565b60008686868686866040516020016111c1969594939291906150bb565b6040516020818303038152906040528051906020012090509695505050505050565b6111f06000801b3361246a565b61122f576040517f08c379a000000000000000000000000000000000000000000000000000000000815260040161122690614eb3565b60405180910390fd5b80609b60006101000a81548173ffffffffffffffffffffffffffffffffffffffff021916908373ffffffffffffffffffffffffffffffffffffffff16021790555050565b60008073ffffffffffffffffffffffffffffffffffffffff1660a56000857bffffffffffffffffffffffffffffffffffffffffffffffffffffffff19167bffffffffffffffffffffffffffffffffffffffffffffffffffffffff1916815260200190815260200160002060009054906101000a900473ffffffffffffffffffffffffffffffffffffffff1673ffffffffffffffffffffffffffffffffffffffff16036113225760009050611410565b60a56000847bffffffffffffffffffffffffffffffffffffffffffffffffffffffff19167bffffffffffffffffffffffffffffffffffffffffffffffffffffffff1916815260200190815260200160002060009054906101000a900473ffffffffffffffffffffffffffffffffffffffff1673ffffffffffffffffffffffffffffffffffffffff1663411ecb67836040518263ffffffff1660e01b81526004016113cc91906145af565b602060405180830381865afa1580156113e9573d6000803e3d6000fd5b505050506040513d601f19601f8201168201806040525081019061140d9190614f41565b90505b92915050565b609760009054906101000a900473ffffffffffffffffffffffffffffffffffffffff1673ffffffffffffffffffffffffffffffffffffffff1663ee06b289336040518263ffffffff1660e01b8152600401611471919061489f565b602060405180830381865afa15801561148e573d6000803e3d6000fd5b505050506040513d601f19601f820116820180604052508101906114b29190614f41565b6114f1576040517f08c379a00000000000000000000000000000000000000000000000000000000081526004016114e890614fba565b60405180910390fd5b609960009054906101000a900473ffffffffffffffffffffffffffffffffffffffff1673ffffffffffffffffffffffffffffffffffffffff1663eacce00a856040518263ffffffff1660e01b815260040161154c91906145af565b602060405180830381865afa158015611569573d6000803e3d6000fd5b505050506040513d601f19601f8201168201806040525081019061158d9190614f41565b6115cc576040517f08c379a00000000000000000000000000000000000000000000000000000000081526004016115c390615177565b60405180910390fd5b60006115db8686868686612e00565b90506000609d60008381526020019081526020016000205414611635577fc0817a0f8623df5cbe2a5f733daa045d5f54641b030d70aef80462322b63e93b8560405161162791906145af565b60405180910390a1506116cc565b8060a260008781526020019081526020016000208190555042609d600083815260200190815260200160002081905550600061167086612210565b905085827f2b5f31c045b1f152a1e225023acc52f0347c92919ee47d292bee3afd547e5992836040015184600001518560a0015186608001518760600151426040516116c196959493929190615197565b60405180910390a350505b5050505050565b60a960009054906101000a900473ffffffffffffffffffffffffffffffffffffffff1681565b600060656000838152602001908152602001600020600101549050919050565b60a26020528060005260406000206000915090505481565b60a36020528060005260406000206000915090505481565b609760009054906101000a900473ffffffffffffffffffffffffffffffffffffffff1673ffffffffffffffffffffffffffffffffffffffff1663ee06b289336040518263ffffffff1660e01b81526004016117a4919061489f565b602060405180830381865afa1580156117c1573d6000803e3d6000fd5b505050506040513d601f19601f820116820180604052508101906117e59190614f41565b611824576040517f08c379a000000000000000000000000000000000000000000000000000000000815260040161181b90614fba565b60405180910390fd5b61182d82611a63565b73ffffffffffffffffffffffffffffffffffffffff1663abff3f868260016040518363ffffffff1660e01b81526004016118689291906151f8565b6020604051808303816000875af1158015611887573d6000803e3d6000fd5b505050506040513d601f19601f820116820180604052508101906118ab9190614f41565b505050565b609a60009054906101000a900473ffffffffffffffffffffffffffffffffffffffff1681565b6118df826116f9565b6118e881613d2b565b6118f28383613d3f565b505050565b6118ff613e20565b73ffffffffffffffffffffffffffffffffffffffff168173ffffffffffffffffffffffffffffffffffffffff161461196c576040517f08c379a000000000000000000000000000000000000000000000000000000000815260040161196390615293565b60405180910390fd5b6119768282613e28565b5050565b60a56020528060005260406000206000915054906101000a900473ffffffffffffffffffffffffffffffffffffffff1681565b609760009054906101000a900473ffffffffffffffffffffffffffffffffffffffff1681565b6119e06000801b3361246a565b611a1f576040517f08c379a0000000000000000000000000000000000000000000000000000000008152600401611a1690614eb3565b60405180910390fd5b80609a60006101000a81548173ffffffffffffffffffffffffffffffffffffffff021916908373ffffffffffffffffffffffffffffffffffffffff16021790555050565b60008073ffffffffffffffffffffffffffffffffffffffff1660a56000847bffffffffffffffffffffffffffffffffffffffffffffffffffffffff19167bffffffffffffffffffffffffffffffffffffffffffffffffffffffff1916815260200190815260200160002060009054906101000a900473ffffffffffffffffffffffffffffffffffffffff1673ffffffffffffffffffffffffffffffffffffffff1603611b1357611b1282613f0a565b5b60a56000837bffffffffffffffffffffffffffffffffffffffffffffffffffffffff19167bffffffffffffffffffffffffffffffffffffffffffffffffffffffff1916815260200190815260200160002060009054906101000a900473ffffffffffffffffffffffffffffffffffffffff169050919050565b60a85481565b609760009054906101000a900473ffffffffffffffffffffffffffffffffffffffff1673ffffffffffffffffffffffffffffffffffffffff1663ee06b289336040518263ffffffff1660e01b8152600401611bed919061489f565b602060405180830381865afa158015611c0a573d6000803e3d6000fd5b505050506040513d601f19601f82011682018060405250810190611c2e9190614f41565b611c6d576040517f08c379a0000000000000000000000000000000000000000000000000000000008152600401611c6490614fba565b60405180910390fd5b609960009054906101000a900473ffffffffffffffffffffffffffffffffffffffff1673ffffffffffffffffffffffffffffffffffffffff1663eacce00a836040518263ffffffff1660e01b8152600401611cc891906145af565b602060405180830381865afa158015611ce5573d6000803e3d6000fd5b505050506040513d601f19601f82011682018060405250810190611d099190614f41565b611d48576040517f08c379a0000000000000000000000000000000000000000000000000000000008152600401611d3f90615177565b60405180910390fd5b6000609f600084815260200190815260200160002054141580611d8157506000801b60a660008481526020019081526020016000205414155b15611dc2577fc0817a0f8623df5cbe2a5f733daa045d5f54641b030d70aef80462322b63e93b82604051611db591906145af565b60405180910390a1611e60565b8060a660008481526020019081526020016000208190555042609f6000848152602001908152602001600020819055506000611dfd83612210565b9050611e09848461366c565b81837f59eaad113d661d1f565d1b3df3be897e353b4fda321264d06b845ebf94a4f8bf83600001518460400151856060015186608001518760a00151604051611e569594939291906152b3565b60405180910390a3505b505050565b609b60009054906101000a900473ffffffffffffffffffffffffffffffffffffffff1681565b60008073ffffffffffffffffffffffffffffffffffffffff1660a56000847bffffffffffffffffffffffffffffffffffffffffffffffffffffffff19167bffffffffffffffffffffffffffffffffffffffffffffffffffffffff1916815260200190815260200160002060009054906101000a900473ffffffffffffffffffffffffffffffffffffffff1673ffffffffffffffffffffffffffffffffffffffff1614159050919050565b600060a16000838152602001908152602001600020549050919050565b60a06020528060005260406000206000915090505481565b60a66020528060005260406000206000915090505481565b6000611f8d82611e8b565b156120795760a56000837bffffffffffffffffffffffffffffffffffffffffffffffffffffffff19167bffffffffffffffffffffffffffffffffffffffffffffffffffffffff1916815260200190815260200160002060009054906101000a900473ffffffffffffffffffffffffffffffffffffffff1673ffffffffffffffffffffffffffffffffffffffff166356d42bb36040518163ffffffff1660e01b8152600401602060405180830381865afa15801561204e573d6000803e3d6000fd5b505050506040513d601f19601f820116820180604052508101906120729190614e29565b905061207e565b600090505b919050565b609760009054906101000a900473ffffffffffffffffffffffffffffffffffffffff1673ffffffffffffffffffffffffffffffffffffffff1663ee06b289336040518263ffffffff1660e01b81526004016120de919061489f565b602060405180830381865afa1580156120fb573d6000803e3d6000fd5b505050506040513d601f19601f8201168201806040525081019061211f9190614f41565b61215e576040517f08c379a000000000000000000000000000000000000000000000000000000000815260040161215590614fba565b60405180910390fd5b61216782611a63565b73ffffffffffffffffffffffffffffffffffffffff1663abff3f868260006040518363ffffffff1660e01b81526004016121a29291906151f8565b6020604051808303816000875af11580156121c1573d6000803e3d6000fd5b505050506040513d601f19601f820116820180604052508101906121e59190614f41565b505050565b609960009054906101000a900473ffffffffffffffffffffffffffffffffffffffff1681565b6122186143c0565b600060a06000848152602001908152602001600020549050600060a26000858152602001908152602001600020549050600060a360008681526020019081526020016000205490506122686143c0565b609c600085815260200190815260200160002054816040018181525050609d600084815260200190815260200160002054816060018181525050609e600083815260200190815260200160002054816080018181525050609f6000878152602001908152602001600020548160a0018181525050609960009054906101000a900473ffffffffffffffffffffffffffffffffffffffff1673ffffffffffffffffffffffffffffffffffffffff1663b84c3c9a876040518263ffffffff1660e01b815260040161233791906145af565b602060405180830381865afa92505050801561237157506040513d601f19601f8201168201806040525081019061236e9190614e29565b60015b612385576000816000018181525050612391565b80826000018181525050505b609a60009054906101000a900473ffffffffffffffffffffffffffffffffffffffff1673ffffffffffffffffffffffffffffffffffffffff1663ea53a382876040518263ffffffff1660e01b81526004016123ec91906145af565b602060405180830381865afa92505050801561242657506040513d601f19601f820116820180604052508101906124239190614e29565b60015b61243a576000816020018181525050612446565b80826020018181525050505b80945050505050919050565b609d6020528060005260406000206000915090505481565b60006065600084815260200190815260200160002060000160008373ffffffffffffffffffffffffffffffffffffffff1673ffffffffffffffffffffffffffffffffffffffff16815260200190815260200160002060009054906101000a900460ff16905092915050565b609f6020528060005260406000206000915090505481565b6124fa6000801b3361246a565b612539576040517f08c379a000000000000000000000000000000000000000000000000000000000815260040161253090614eb3565b60405180910390fd5b80609960006101000a81548173ffffffffffffffffffffffffffffffffffffffff021916908373ffffffffffffffffffffffffffffffffffffffff16021790555050565b600061258882611e8b565b156126745760a56000837bffffffffffffffffffffffffffffffffffffffffffffffffffffffff19167bffffffffffffffffffffffffffffffffffffffffffffffffffffffff1916815260200190815260200160002060009054906101000a900473ffffffffffffffffffffffffffffffffffffffff1673ffffffffffffffffffffffffffffffffffffffff16637d02bc1c6040518163ffffffff1660e01b8152600401602060405180830381865afa158015612649573d6000803e3d6000fd5b505050506040513d601f19601f8201168201806040525081019061266d9190614ee8565b905061267b565b6000801b90505b919050565b606061268b82611e8b565b1561277c5760a56000837bffffffffffffffffffffffffffffffffffffffffffffffffffffffff19167bffffffffffffffffffffffffffffffffffffffffffffffffffffffff1916815260200190815260200160002060009054906101000a900473ffffffffffffffffffffffffffffffffffffffff1673ffffffffffffffffffffffffffffffffffffffff1663932704b76040518163ffffffff1660e01b8152600401600060405180830381865afa15801561274c573d6000803e3d6000fd5b505050506040513d6000823e3d601f19601f82011682018060405250810190612775919061545f565b90506127c9565b600067ffffffffffffffff8111156127975761279661531c565b5b6040519080825280602002602001820160405280156127c55781602001602082028036833780820191505090505b5090505b919050565b60006127d982611e8b565b156128c55760a56000837bffffffffffffffffffffffffffffffffffffffffffffffffffffffff19167bffffffffffffffffffffffffffffffffffffffffffffffffffffffff1916815260200190815260200160002060009054906101000a900473ffffffffffffffffffffffffffffffffffffffff1673ffffffffffffffffffffffffffffffffffffffff1663d351fc386040518163ffffffff1660e01b8152600401602060405180830381865afa15801561289a573d6000803e3d6000fd5b505050506040513d601f19601f820116820180604052508101906128be9190614ee8565b90506128cc565b6000801b90505b919050565b6128de6000801b3361246a565b61291d576040517f08c379a000000000000000000000000000000000000000000000000000000000815260040161291490614eb3565b60405180910390fd5b8060aa60006101000a81548173ffffffffffffffffffffffffffffffffffffffff021916908373ffffffffffffffffffffffffffffffffffffffff16021790555050565b6000801b81565b60a16020528060005260406000206000915090505481565b600061298b82611e8b565b15612a775760a56000837bffffffffffffffffffffffffffffffffffffffffffffffffffffffff19167bffffffffffffffffffffffffffffffffffffffffffffffffffffffff1916815260200190815260200160002060009054906101000a900473ffffffffffffffffffffffffffffffffffffffff1673ffffffffffffffffffffffffffffffffffffffff166324f5139e6040518163ffffffff1660e01b8152600401602060405180830381865afa158015612a4c573d6000803e3d6000fd5b505050506040513d601f19601f82011682018060405250810190612a709190614e29565b9050612a7c565b600090505b919050565b60008585858585604051602001612a9c9594939291906154a8565b60405160208183030381529060405280519060200120905095945050505050565b60008073ffffffffffffffffffffffffffffffffffffffff1660a56000857bffffffffffffffffffffffffffffffffffffffffffffffffffffffff19167bffffffffffffffffffffffffffffffffffffffffffffffffffffffff1916815260200190815260200160002060009054906101000a900473ffffffffffffffffffffffffffffffffffffffff1673ffffffffffffffffffffffffffffffffffffffff1603612b6c5760009050612c7c565b60a56000847bffffffffffffffffffffffffffffffffffffffffffffffffffffffff19167bffffffffffffffffffffffffffffffffffffffffffffffffffffffff1916815260200190815260200160002060009054906101000a900473ffffffffffffffffffffffffffffffffffffffff1673ffffffffffffffffffffffffffffffffffffffff1663218bd053836040518263ffffffff1660e01b8152600401612c1691906145af565b602060405180830381865afa158015612c33573d6000803e3d6000fd5b505050506040513d601f19601f82011682018060405250810190612c579190614f41565b8015612c7957506000801b60a460008481526020019081526020016000205414155b90505b92915050565b6000612c8d82611e8b565b15612d795760a56000837bffffffffffffffffffffffffffffffffffffffffffffffffffffffff19167bffffffffffffffffffffffffffffffffffffffffffffffffffffffff1916815260200190815260200160002060009054906101000a900473ffffffffffffffffffffffffffffffffffffffff1673ffffffffffffffffffffffffffffffffffffffff16632c20b4086040518163ffffffff1660e01b8152600401602060405180830381865afa158015612d4e573d6000803e3d6000fd5b505050506040513d601f19601f82011682018060405250810190612d729190614ee8565b9050612d80565b6000801b90505b919050565b600060a56000837bffffffffffffffffffffffffffffffffffffffffffffffffffffffff19167bffffffffffffffffffffffffffffffffffffffffffffffffffffffff1916815260200190815260200160002060009054906101000a900473ffffffffffffffffffffffffffffffffffffffff169050919050565b60008585858585604051602001612e1b9594939291906154a8565b60405160208183030381529060405280519060200120905095945050505050565b609760009054906101000a900473ffffffffffffffffffffffffffffffffffffffff1673ffffffffffffffffffffffffffffffffffffffff1663ee06b289336040518263ffffffff1660e01b8152600401612e97919061489f565b602060405180830381865afa158015612eb4573d6000803e3d6000fd5b505050506040513d601f19601f82011682018060405250810190612ed89190614f41565b612f17576040517f08c379a0000000000000000000000000000000000000000000000000000000008152600401612f0e90614fba565b60405180910390fd5b600080609960009054906101000a900473ffffffffffffffffffffffffffffffffffffffff1673ffffffffffffffffffffffffffffffffffffffff16635778472a896040518263ffffffff1660e01b8152600401612f7591906145af565b61016060405180830381865afa158015612f93573d6000803e3d6000fd5b505050506040513d601f19601f82011682018060405250810190612fb79190615641565b9150915086826060015114613001576040517f08c379a0000000000000000000000000000000000000000000000000000000008152600401612ff8906156cf565b60405180910390fd5b85826080015114613047576040517f08c379a000000000000000000000000000000000000000000000000000000000815260040161303e9061573b565b60405180910390fd5b8463ffffffff16826040015163ffffffff1614613099576040517f08c379a0000000000000000000000000000000000000000000000000000000008152600401613090906156cf565b60405180910390fd5b6000609a60009054906101000a900473ffffffffffffffffffffffffffffffffffffffff1673ffffffffffffffffffffffffffffffffffffffff166391704e1e8a6040518263ffffffff1660e01b81526004016130f691906145af565b608060405180830381865afa158015613113573d6000803e3d6000fd5b505050506040513d601f19601f8201168201806040525081019061313791906157d3565b90508473ffffffffffffffffffffffffffffffffffffffff16816020015173ffffffffffffffffffffffffffffffffffffffff16146131ab576040517f08c379a00000000000000000000000000000000000000000000000000000000081526004016131a290615177565b60405180910390fd5b42609a60009054906101000a900473ffffffffffffffffffffffffffffffffffffffff1673ffffffffffffffffffffffffffffffffffffffff16635f8909bd6040518163ffffffff1660e01b8152600401602060405180830381865afa158015613219573d6000803e3d6000fd5b505050506040513d601f19601f8201168201806040525081019061323d9190614e29565b826000015161324c919061582f565b1061328c576040517f08c379a0000000000000000000000000000000000000000000000000000000008152600401613283906158af565b60405180910390fd5b600061329c8b8b8b8b8b8b6111a4565b90506000609c600083815260200190815260200160002054146132f9577fc0817a0f8623df5cbe2a5f733daa045d5f54641b030d70aef80462322b63e93b8a6040516132e891906145af565b60405180910390a1505050506133a9565b8060a060008c81526020019081526020016000208190555042609c6000838152602001908152602001600020819055508460a160008c815260200190815260200160002081905550600061334c8b612210565b90508a827f0f9be96bb0c861bd12d264c2d76c027cf027d4d5bae5d19d64f728f14eac98f6836000015184604001518560a001518660800151876060015160405161339b9594939291906152b3565b60405180910390a350505050505b50505050505050565b60008060019054906101000a900460ff161590508080156133e35750600160008054906101000a900460ff1660ff16105b8061341057506133f23061405e565b15801561340f5750600160008054906101000a900460ff1660ff16145b5b61344f576040517f08c379a000000000000000000000000000000000000000000000000000000000815260040161344690615941565b60405180910390fd5b60016000806101000a81548160ff021916908360ff160217905550801561348c576001600060016101000a81548160ff0219169083151502179055505b613494614081565b6134a16000801b83613d3f565b8160a960006101000a81548173ffffffffffffffffffffffffffffffffffffffff021916908373ffffffffffffffffffffffffffffffffffffffff160217905550801561353b5760008060016101000a81548160ff0219169083151502179055507f7f26b83ff96e1f2b6a682f133852f6798a09c465da95921460cefb3847402498600160405161353291906159a9565b60405180910390a15b5050565b61354c6000801b3361246a565b61358b576040517f08c379a000000000000000000000000000000000000000000000000000000000815260040161358290614eb3565b60405180910390fd5b8060a88190555050565b6135a26000801b3361246a565b6135e1576040517f08c379a00000000000000000000000000000000000000000000000000000000081526004016135d890614eb3565b60405180910390fd5b80609760006101000a81548173ffffffffffffffffffffffffffffffffffffffff021916908373ffffffffffffffffffffffffffffffffffffffff16021790555050565b61362e826116f9565b61363781613d2b565b6136418383613e28565b505050565b609860009054906101000a900473ffffffffffffffffffffffffffffffffffffffff1681565b609760009054906101000a900473ffffffffffffffffffffffffffffffffffffffff1673ffffffffffffffffffffffffffffffffffffffff1663ee06b289336040518263ffffffff1660e01b81526004016136c7919061489f565b602060405180830381865afa1580156136e4573d6000803e3d6000fd5b505050506040513d601f19601f820116820180604052508101906137089190614f41565b613747576040517f08c379a000000000000000000000000000000000000000000000000000000000815260040161373e90614fba565b60405180910390fd5b61375082611a63565b73ffffffffffffffffffffffffffffffffffffffff166318037045826040518263ffffffff1660e01b815260040161378891906145af565b6020604051808303816000875af11580156137a7573d6000803e3d6000fd5b505050506040513d601f19601f820116820180604052508101906137cb9190614f41565b15613823577f4995ec9243b13a7390c10fa72ebe9d2672eab44937922b9e3f78637688d25317816040516137ff91906145af565b60405180910390a16000801b60a46000838152602001908152602001600020819055505b5050565b606061383282611e8b565b156139235760a56000837bffffffffffffffffffffffffffffffffffffffffffffffffffffffff19167bffffffffffffffffffffffffffffffffffffffffffffffffffffffff1916815260200190815260200160002060009054906101000a900473ffffffffffffffffffffffffffffffffffffffff1673ffffffffffffffffffffffffffffffffffffffff1663bdeb5e606040518163ffffffff1660e01b8152600401600060405180830381865afa1580156138f3573d6000803e3d6000fd5b505050506040513d6000823e3d601f19601f8201168201806040525081019061391c919061545f565b9050613970565b600067ffffffffffffffff81111561393e5761393d61531c565b5b60405190808252806020026020018201604052801561396c5781602001602082028036833780820191505090505b5090505b919050565b60a46020528060005260406000206000915090505481565b609c6020528060005260406000206000915090505481565b609e6020528060005260406000206000915090505481565b60aa60009054906101000a900473ffffffffffffffffffffffffffffffffffffffff1681565b609760009054906101000a900473ffffffffffffffffffffffffffffffffffffffff1673ffffffffffffffffffffffffffffffffffffffff1663ee06b289336040518263ffffffff1660e01b8152600401613a3e919061489f565b602060405180830381865afa158015613a5b573d6000803e3d6000fd5b505050506040513d601f19601f82011682018060405250810190613a7f9190614f41565b613abe576040517f08c379a0000000000000000000000000000000000000000000000000000000008152600401613ab590614fba565b60405180910390fd5b609960009054906101000a900473ffffffffffffffffffffffffffffffffffffffff1673ffffffffffffffffffffffffffffffffffffffff1663eacce00a856040518263ffffffff1660e01b8152600401613b1991906145af565b602060405180830381865afa158015613b36573d6000803e3d6000fd5b505050506040513d601f19601f82011682018060405250810190613b5a9190614f41565b613b99576040517f08c379a0000000000000000000000000000000000000000000000000000000008152600401613b9090615177565b60405180910390fd5b6000613ba88686858588612a81565b90506000609e60008381526020019081526020016000205414613c02577fc0817a0f8623df5cbe2a5f733daa045d5f54641b030d70aef80462322b63e93b85604051613bf491906145af565b60405180910390a150613c97565b8060a360008781526020019081526020016000208190555042609e6000838152602001908152602001600020819055506000613c3d86612210565b905085827fcb698f5ca3ebf5bf6db7b1b0102641587af79ee768e55981e13540f78fc44efa836040015184600001518560a0015186608001518760600151604051613c8c9594939291906152b3565b60405180910390a350505b5050505050565b60a76020528060005260406000206000915054906101000a900463ffffffff1681565b60007f01ffc9a7000000000000000000000000000000000000000000000000000000007bffffffffffffffffffffffffffffffffffffffffffffffffffffffff1916827bffffffffffffffffffffffffffffffffffffffffffffffffffffffff1916149050919050565b613d3c81613d37613e20565b6140d2565b50565b613d49828261246a565b613e1c5760016065600084815260200190815260200160002060000160008373ffffffffffffffffffffffffffffffffffffffff1673ffffffffffffffffffffffffffffffffffffffff16815260200190815260200160002060006101000a81548160ff021916908315150217905550613dc1613e20565b73ffffffffffffffffffffffffffffffffffffffff168173ffffffffffffffffffffffffffffffffffffffff16837f2f8788117e7eff1d82e926ec794901d17c78024a50270940304540a733656f0d60405160405180910390a45b5050565b600033905090565b613e32828261246a565b15613f065760006065600084815260200190815260200160002060000160008373ffffffffffffffffffffffffffffffffffffffff1673ffffffffffffffffffffffffffffffffffffffff16815260200190815260200160002060006101000a81548160ff021916908315150217905550613eab613e20565b73ffffffffffffffffffffffffffffffffffffffff168173ffffffffffffffffffffffffffffffffffffffff16837ff6391f5c32d9c69d2a47ea670b442974b53935d1edc7fd64eb21e047a839171b60405160405180910390a45b5050565b609860009054906101000a900473ffffffffffffffffffffffffffffffffffffffff1673ffffffffffffffffffffffffffffffffffffffff16633e68680a609760009054906101000a900473ffffffffffffffffffffffffffffffffffffffff16306040518363ffffffff1660e01b8152600401613f899291906159c4565b6020604051808303816000875af1158015613fa8573d6000803e3d6000fd5b505050506040513d601f19601f82011682018060405250810190613fcc9190615a2b565b60a56000837bffffffffffffffffffffffffffffffffffffffffffffffffffffffff19167bffffffffffffffffffffffffffffffffffffffffffffffffffffffff1916815260200190815260200160002060006101000a81548173ffffffffffffffffffffffffffffffffffffffff021916908373ffffffffffffffffffffffffffffffffffffffff16021790555050565b6000808273ffffffffffffffffffffffffffffffffffffffff163b119050919050565b600060019054906101000a900460ff166140d0576040517f08c379a00000000000000000000000000000000000000000000000000000000081526004016140c790615aca565b60405180910390fd5b565b6140dc828261246a565b614153576140e981614157565b6140f78360001c6020614184565b604051602001614108929190615bf3565b6040516020818303038152906040526040517f08c379a000000000000000000000000000000000000000000000000000000000815260040161414a9190615c66565b60405180910390fd5b5050565b606061417d8273ffffffffffffffffffffffffffffffffffffffff16601460ff16614184565b9050919050565b6060600060028360026141979190615c88565b6141a1919061582f565b67ffffffffffffffff8111156141ba576141b961531c565b5b6040519080825280601f01601f1916602001820160405280156141ec5781602001600182028036833780820191505090505b5090507f30000000000000000000000000000000000000000000000000000000000000008160008151811061422457614223615cca565b5b60200101907effffffffffffffffffffffffffffffffffffffffffffffffffffffffffffff1916908160001a9053507f78000000000000000000000000000000000000000000000000000000000000008160018151811061428857614287615cca565b5b60200101907effffffffffffffffffffffffffffffffffffffffffffffffffffffffffffff1916908160001a905350600060018460026142c89190615c88565b6142d2919061582f565b90505b6001811115614372577f3031323334353637383961626364656600000000000000000000000000000000600f86166010811061431457614313615cca565b5b1a60f81b82828151811061432b5761432a615cca565b5b60200101907effffffffffffffffffffffffffffffffffffffffffffffffffffffffffffff1916908160001a905350600485901c94508061436b90615cf9565b90506142d5565b50600084146143b6576040517f08c379a00000000000000000000000000000000000000000000000000000000081526004016143ad90615d6e565b60405180910390fd5b8091505092915050565b6040518060c001604052806000815260200160008152602001600081526020016000815260200160008152602001600081525090565b6000604051905090565b600080fd5b600080fd5b60007fffffffff0000000000000000000000000000000000000000000000000000000082169050919050565b61443f8161440a565b811461444a57600080fd5b50565b60008135905061445c81614436565b92915050565b60006020828403121561447857614477614400565b5b60006144868482850161444d565b91505092915050565b60008115159050919050565b6144a48161448f565b82525050565b60006020820190506144bf600083018461449b565b92915050565b6000819050919050565b6144d8816144c5565b82525050565b60006020820190506144f360008301846144cf565b92915050565b600073ffffffffffffffffffffffffffffffffffffffff82169050919050565b6000614524826144f9565b9050919050565b600061453682614519565b9050919050565b6145468161452b565b811461455157600080fd5b50565b6000813590506145638161453d565b92915050565b60006020828403121561457f5761457e614400565b5b600061458d84828501614554565b91505092915050565b6000819050919050565b6145a981614596565b82525050565b60006020820190506145c460008301846145a0565b92915050565b6145d381614596565b81146145de57600080fd5b50565b6000813590506145f0816145ca565b92915050565b60008060006060848603121561460f5761460e614400565b5b600061461d8682870161444d565b935050602061462e868287016145e1565b925050604061463f868287016145e1565b9150509250925092565b614652816144c5565b811461465d57600080fd5b50565b60008135905061466f81614649565b92915050565b600063ffffffff82169050919050565b61468e81614675565b811461469957600080fd5b50565b6000813590506146ab81614685565b92915050565b6146ba81614519565b81146146c557600080fd5b50565b6000813590506146d7816146b1565b92915050565b60008060008060008060c087890312156146fa576146f9614400565b5b600061470889828a0161444d565b965050602061471989828a016145e1565b955050604061472a89828a016145e1565b945050606061473b89828a01614660565b935050608061474c89828a0161469c565b92505060a061475d89828a016146c8565b9150509295509295509295565b6000614775826144f9565b9050919050565b6147858161476a565b811461479057600080fd5b50565b6000813590506147a28161477c565b92915050565b6000602082840312156147be576147bd614400565b5b60006147cc84828501614793565b91505092915050565b600080604083850312156147ec576147eb614400565b5b60006147fa8582860161444d565b925050602061480b858286016145e1565b9150509250929050565b600080600080600060a0868803121561483157614830614400565b5b600061483f8882890161444d565b9550506020614850888289016145e1565b945050604061486188828901614660565b9350506060614872888289016146c8565b9250506080614883888289016146c8565b9150509295509295909350565b61489981614519565b82525050565b60006020820190506148b46000830184614890565b92915050565b6000602082840312156148d0576148cf614400565b5b60006148de848285016145e1565b91505092915050565b6000819050919050565b600061490c614907614902846144f9565b6148e7565b6144f9565b9050919050565b600061491e826148f1565b9050919050565b600061493082614913565b9050919050565b61494081614925565b82525050565b600060208201905061495b6000830184614937565b92915050565b6000806040838503121561497857614977614400565b5b6000614986858286016145e1565b9250506020614997858286016146c8565b9150509250929050565b60006149ac82614913565b9050919050565b6149bc816149a1565b82525050565b60006020820190506149d760008301846149b3565b92915050565b60006149e8826148f1565b9050919050565b60006149fa826149dd565b9050919050565b614a0a816149ef565b82525050565b6000602082019050614a256000830184614a01565b92915050565b6000614a36826149dd565b9050919050565b614a4681614a2b565b82525050565b6000602082019050614a616000830184614a3d565b92915050565b6000614a7282614913565b9050919050565b614a8281614a67565b82525050565b6000602082019050614a9d6000830184614a79565b92915050565b614aac816144c5565b82525050565b60c082016000820151614ac86000850182614aa3565b506020820151614adb6020850182614aa3565b506040820151614aee6040850182614aa3565b506060820151614b016060850182614aa3565b506080820151614b146080850182614aa3565b5060a0820151614b2760a0850182614aa3565b50505050565b600060c082019050614b426000830184614ab2565b92915050565b600081519050919050565b600082825260208201905092915050565b6000819050602082019050919050565b614b7d81614596565b82525050565b6000614b8f8383614b74565b60208301905092915050565b6000602082019050919050565b6000614bb382614b48565b614bbd8185614b53565b9350614bc883614b64565b8060005b83811015614bf9578151614be08882614b83565b9750614beb83614b9b565b925050600181019050614bcc565b5085935050505092915050565b60006020820190508181036000830152614c208184614ba8565b905092915050565b600080600080600080600060e0888a031215614c4757614c46614400565b5b6000614c558a828b0161444d565b9750506020614c668a828b016145e1565b9650506040614c778a828b016145e1565b9550506060614c888a828b01614660565b9450506080614c998a828b0161469c565b93505060a0614caa8a828b016146c8565b92505060c0614cbb8a828b016145e1565b91505092959891949750929550565b600060208284031215614ce057614cdf614400565b5b6000614cee848285016146c8565b91505092915050565b6000614d0282614913565b9050919050565b614d1281614cf7565b82525050565b6000602082019050614d2d6000830184614d09565b92915050565b6000614d3e82614913565b9050919050565b614d4e81614d33565b82525050565b6000602082019050614d696000830184614d45565b92915050565b600080600080600060a08688031215614d8b57614d8a614400565b5b6000614d998882890161444d565b9550506020614daa888289016145e1565b9450506040614dbb888289016146c8565b9350506060614dcc88828901614660565b9250506080614ddd888289016146c8565b9150509295509295909350565b614df381614675565b82525050565b6000602082019050614e0e6000830184614dea565b92915050565b600081519050614e2381614649565b92915050565b600060208284031215614e3f57614e3e614400565b5b6000614e4d84828501614e14565b91505092915050565b600082825260208201905092915050565b7f4342233000000000000000000000000000000000000000000000000000000000600082015250565b6000614e9d600483614e56565b9150614ea882614e67565b602082019050919050565b60006020820190508181036000830152614ecc81614e90565b9050919050565b600081519050614ee2816145ca565b92915050565b600060208284031215614efe57614efd614400565b5b6000614f0c84828501614ed3565b91505092915050565b614f1e8161448f565b8114614f2957600080fd5b50565b600081519050614f3b81614f15565b92915050565b600060208284031215614f5757614f56614400565b5b6000614f6584828501614f2c565b91505092915050565b7f4342233130000000000000000000000000000000000000000000000000000000600082015250565b6000614fa4600583614e56565b9150614faf82614f6e565b602082019050919050565b60006020820190508181036000830152614fd381614f97565b9050919050565b6000819050919050565b614ff5614ff08261440a565b614fda565b82525050565b6000819050919050565b61501661501182614596565b614ffb565b82525050565b6000819050919050565b615037615032826144c5565b61501c565b82525050565b60008160e01b9050919050565b60006150558261503d565b9050919050565b61506d61506882614675565b61504a565b82525050565b60008160601b9050919050565b600061508b82615073565b9050919050565b600061509d82615080565b9050919050565b6150b56150b082614519565b615092565b82525050565b60006150c78289614fe4565b6004820191506150d78288615005565b6020820191506150e78287615005565b6020820191506150f78286615026565b602082019150615107828561505c565b60048201915061511782846150a4565b601482019150819050979650505050505050565b7f4342233100000000000000000000000000000000000000000000000000000000600082015250565b6000615161600483614e56565b915061516c8261512b565b602082019050919050565b6000602082019050818103600083015261519081615154565b9050919050565b600060c0820190506151ac60008301896144cf565b6151b960208301886144cf565b6151c660408301876144cf565b6151d360608301866144cf565b6151e060808301856144cf565b6151ed60a08301846144cf565b979650505050505050565b600060408201905061520d60008301856145a0565b61521a602083018461449b565b9392505050565b7f416363657373436f6e74726f6c3a2063616e206f6e6c792072656e6f756e636560008201527f20726f6c657320666f722073656c660000000000000000000000000000000000602082015250565b600061527d602f83614e56565b915061528882615221565b604082019050919050565b600060208201905081810360008301526152ac81615270565b9050919050565b600060a0820190506152c860008301886144cf565b6152d560208301876144cf565b6152e260408301866144cf565b6152ef60608301856144cf565b6152fc60808301846144cf565b9695505050505050565b600080fd5b6000601f19601f8301169050919050565b7f4e487b7100000000000000000000000000000000000000000000000000000000600052604160045260246000fd5b6153548261530b565b810181811067ffffffffffffffff821117156153735761537261531c565b5b80604052505050565b60006153866143f6565b9050615392828261534b565b919050565b600067ffffffffffffffff8211156153b2576153b161531c565b5b602082029050602081019050919050565b600080fd5b60006153db6153d684615397565b61537c565b905080838252602082019050602084028301858111156153fe576153fd6153c3565b5b835b8181101561542757806154138882614ed3565b845260208401935050602081019050615400565b5050509392505050565b600082601f83011261544657615445615306565b5b81516154568482602086016153c8565b91505092915050565b60006020828403121561547557615474614400565b5b600082015167ffffffffffffffff81111561549357615492614405565b5b61549f84828501615431565b91505092915050565b60006154b48288614fe4565b6004820191506154c48287615005565b6020820191506154d48286615026565b6020820191506154e482856150a4565b6014820191506154f482846150a4565b6014820191508190509695505050505050565b600080fd5b60008151905061551b81614436565b92915050565b60008151905061553081614685565b92915050565b600081519050615545816146b1565b92915050565b6000610140828403121561556257615561615507565b5b61556d61014061537c565b9050600061557d8482850161550c565b60008301525060206155918482850161550c565b60208301525060406155a584828501615521565b60408301525060606155b984828501614ed3565b60608301525060806155cd84828501614e14565b60808301525060a06155e184828501615536565b60a08301525060c06155f584828501614e14565b60c08301525060e061560984828501615521565b60e08301525061010061561e84828501615536565b6101008301525061012061563484828501614e14565b6101208301525092915050565b600080610160838503121561565957615658614400565b5b60006156678582860161554b565b92505061014061567985828601614ed3565b9150509250929050565b7f4342233300000000000000000000000000000000000000000000000000000000600082015250565b60006156b9600483614e56565b91506156c482615683565b602082019050919050565b600060208201905081810360008301526156e8816156ac565b9050919050565b7f4342233200000000000000000000000000000000000000000000000000000000600082015250565b6000615725600483614e56565b9150615730826156ef565b602082019050919050565b6000602082019050818103600083015261575481615718565b9050919050565b60006080828403121561577157615770615507565b5b61577b608061537c565b9050600061578b84828501614e14565b600083015250602061579f84828501615536565b60208301525060406157b384828501614e14565b60408301525060606157c784828501614e14565b60608301525092915050565b6000608082840312156157e9576157e8614400565b5b60006157f78482850161575b565b91505092915050565b7f4e487b7100000000000000000000000000000000000000000000000000000000600052601160045260246000fd5b600061583a826144c5565b9150615845836144c5565b925082820190508082111561585d5761585c615800565b5b92915050565b7f4342233400000000000000000000000000000000000000000000000000000000600082015250565b6000615899600483614e56565b91506158a482615863565b602082019050919050565b600060208201905081810360008301526158c88161588c565b9050919050565b7f496e697469616c697a61626c653a20636f6e747261637420697320616c72656160008201527f647920696e697469616c697a6564000000000000000000000000000000000000602082015250565b600061592b602e83614e56565b9150615936826158cf565b604082019050919050565b6000602082019050818103600083015261595a8161591e565b9050919050565b6000819050919050565b600060ff82169050919050565b600061599361598e61598984615961565b6148e7565b61596b565b9050919050565b6159a381615978565b82525050565b60006020820190506159be600083018461599a565b92915050565b60006040820190506159d96000830185614a01565b6159e66020830184614890565b9392505050565b60006159f882614519565b9050919050565b615a08816159ed565b8114615a1357600080fd5b50565b600081519050615a25816159ff565b92915050565b600060208284031215615a4157615a40614400565b5b6000615a4f84828501615a16565b91505092915050565b7f496e697469616c697a61626c653a20636f6e7472616374206973206e6f74206960008201527f6e697469616c697a696e67000000000000000000000000000000000000000000602082015250565b6000615ab4602b83614e56565b9150615abf82615a58565b604082019050919050565b60006020820190508181036000830152615ae381615aa7565b9050919050565b600081905092915050565b7f416363657373436f6e74726f6c3a206163636f756e7420000000000000000000600082015250565b6000615b2b601783615aea565b9150615b3682615af5565b601782019050919050565b600081519050919050565b60005b83811015615b6a578082015181840152602081019050615b4f565b60008484015250505050565b6000615b8182615b41565b615b8b8185615aea565b9350615b9b818560208601615b4c565b80840191505092915050565b7f206973206d697373696e6720726f6c6520000000000000000000000000000000600082015250565b6000615bdd601183615aea565b9150615be882615ba7565b601182019050919050565b6000615bfe82615b1e565b9150615c0a8285615b76565b9150615c1582615bd0565b9150615c218284615b76565b91508190509392505050565b6000615c3882615b41565b615c428185614e56565b9350615c52818560208601615b4c565b615c5b8161530b565b840191505092915050565b60006020820190508181036000830152615c808184615c2d565b905092915050565b6000615c93826144c5565b9150615c9e836144c5565b9250828202615cac816144c5565b91508282048414831517615cc357615cc2615800565b5b5092915050565b7f4e487b7100000000000000000000000000000000000000000000000000000000600052603260045260246000fd5b6000615d04826144c5565b915060008203615d1757615d16615800565b5b600182039050919050565b7f537472696e67733a20686578206c656e67746820696e73756666696369656e74600082015250565b6000615d58602083614e56565b9150615d6382615d22565b602082019050919050565b60006020820190508181036000830152615d8781615d4b565b905091905056fea2646970667358221220bbb51e9b5463f2443fc70bb3da4af09d5931cef49245326f1fec8277ac38dccf64736f6c63430008180033",
  "linkReferences": {},
  "deployedLinkReferences": {}
}