{
  "_format": "hh-sol-artifact-1",
  "contractName": "ParachainRemoteOrder",
  "sourceName": "contracts/parachainRemoteOrder.sol",
  "abi": [
    {
      "anonymous": false,
      "inputs": [
        {
          "indexed": true,
          "internalType": "bytes32",
          "name": "id",
          "type": "bytes32"
        },
        {
          "indexed": true,
          "internalType": "address",
          "name": "executor",
          "type": "address"
        },
        {
          "indexed": true,
          "internalType": "uint256",
          "name": "amount",
          "type": "uint256"
        },
        {
          "indexed": false,
          "internalType": "address",
          "name": "rewardAsset",
          "type": "address"
        }
      ],
      "name": "Claimed",
      "type": "event"
    },
    {
      "anonymous": false,
      "inputs": [
        {
          "indexed": true,
          "internalType": "bytes32",
          "name": "id",
          "type": "bytes32"
        },
        {
          "indexed": true,
          "internalType": "address",
          "name": "orderer",
          "type": "address"
        },
        {
          "indexed": true,
          "internalType": "uint256",
          "name": "amount",
          "type": "uint256"
        },
        {
          "indexed": false,
          "internalType": "address",
          "name": "rewardAsset",
          "type": "address"
        }
      ],
      "name": "ClaimedRefund",
      "type": "event"
    },
    {
      "anonymous": false,
      "inputs": [
        {
          "indexed": true,
          "internalType": "bytes32",
          "name": "id",
          "type": "bytes32"
        },
        {
          "indexed": true,
          "internalType": "address",
          "name": "target",
          "type": "address"
        },
        {
          "indexed": false,
          "internalType": "uint256",
          "name": "amount",
          "type": "uint256"
        },
        {
          "indexed": false,
          "internalType": "address",
          "name": "asset",
          "type": "address"
        },
        {
          "indexed": true,
          "internalType": "address",
          "name": "sender",
          "type": "address"
        }
      ],
      "name": "Confirmation",
      "type": "event"
    },
    {
      "anonymous": false,
      "inputs": [
        {
          "indexed": true,
          "internalType": "uint256",
          "name": "confirmedCount",
          "type": "uint256"
        },
        {
          "indexed": true,
          "internalType": "uint256",
          "name": "batchSize",
          "type": "uint256"
        },
        {
          "indexed": true,
          "internalType": "address",
          "name": "sender",
          "type": "address"
        }
      ],
      "name": "ConfirmedBatch",
      "type": "event"
    },
    {
      "anonymous": false,
      "inputs": [
        {
          "indexed": false,
          "internalType": "uint8",
          "name": "version",
          "type": "uint8"
        }
      ],
      "name": "Initialized",
      "type": "event"
    },
    {
      "anonymous": false,
      "inputs": [
        {
          "indexed": true,
          "internalType": "bytes32",
          "name": "id",
          "type": "bytes32"
        },
        {
          "indexed": true,
          "internalType": "bytes4",
          "name": "destination",
          "type": "bytes4"
        },
        {
          "indexed": false,
          "internalType": "uint32",
          "name": "asset",
          "type": "uint32"
        },
        {
          "indexed": false,
          "internalType": "bytes32",
          "name": "targetAccount",
          "type": "bytes32"
        },
        {
          "indexed": false,
          "internalType": "uint256",
          "name": "amount",
          "type": "uint256"
        },
        {
          "indexed": false,
          "internalType": "address",
          "name": "rewardAsset",
          "type": "address"
        },
        {
          "indexed": false,
          "internalType": "uint256",
          "name": "insurance",
          "type": "uint256"
        },
        {
          "indexed": false,
          "internalType": "uint256",
          "name": "maxReward",
          "type": "uint256"
        },
        {
          "indexed": false,
          "internalType": "uint32",
          "name": "nonce",
          "type": "uint32"
        },
        {
          "indexed": false,
          "internalType": "address",
          "name": "sourceAccount",
          "type": "address"
        }
      ],
      "name": "OrderCreated",
      "type": "event"
    },
    {
      "anonymous": false,
      "inputs": [
        {
          "indexed": true,
          "internalType": "bytes32",
          "name": "id",
          "type": "bytes32"
        },
        {
          "indexed": true,
          "internalType": "uint32",
          "name": "nonce",
          "type": "uint32"
        },
        {
          "indexed": true,
          "internalType": "address",
          "name": "sender",
          "type": "address"
        },
        {
          "indexed": false,
          "internalType": "bytes",
          "name": "input",
          "type": "bytes"
        }
      ],
      "name": "RemoteOrderCreated",
      "type": "event"
    },
    {
      "anonymous": false,
      "inputs": [
        {
          "indexed": true,
          "internalType": "bytes32",
          "name": "role",
          "type": "bytes32"
        },
        {
          "indexed": true,
          "internalType": "bytes32",
          "name": "previousAdminRole",
          "type": "bytes32"
        },
        {
          "indexed": true,
          "internalType": "bytes32",
          "name": "newAdminRole",
          "type": "bytes32"
        }
      ],
      "name": "RoleAdminChanged",
      "type": "event"
    },
    {
      "anonymous": false,
      "inputs": [
        {
          "indexed": true,
          "internalType": "bytes32",
          "name": "role",
          "type": "bytes32"
        },
        {
          "indexed": true,
          "internalType": "address",
          "name": "account",
          "type": "address"
        },
        {
          "indexed": true,
          "internalType": "address",
          "name": "sender",
          "type": "address"
        }
      ],
      "name": "RoleGranted",
      "type": "event"
    },
    {
      "anonymous": false,
      "inputs": [
        {
          "indexed": true,
          "internalType": "bytes32",
          "name": "role",
          "type": "bytes32"
        },
        {
          "indexed": true,
          "internalType": "address",
          "name": "account",
          "type": "address"
        },
        {
          "indexed": true,
          "internalType": "address",
          "name": "sender",
          "type": "address"
        }
      ],
      "name": "RoleRevoked",
      "type": "event"
    },
    {
      "stateMutability": "payable",
      "type": "fallback"
    },
    {
      "inputs": [],
      "name": "DEFAULT_ADMIN_ROLE",
      "outputs": [
        {
          "internalType": "bytes32",
          "name": "",
          "type": "bytes32"
        }
      ],
      "stateMutability": "view",
      "type": "function"
    },
    {
      "inputs": [
        {
          "internalType": "address",
          "name": "assetHere",
          "type": "address"
        },
        {
          "internalType": "uint32",
          "name": "assetThere",
          "type": "uint32"
        }
      ],
      "name": "addSupportedBridgeAsset",
      "outputs": [],
      "stateMutability": "nonpayable",
      "type": "function"
    },
    {
      "inputs": [
        {
          "internalType": "address",
          "name": "_attesters",
          "type": "address"
        }
      ],
      "name": "assignAttesters",
      "outputs": [],
      "stateMutability": "nonpayable",
      "type": "function"
    },
    {
      "inputs": [
        {
          "internalType": "address",
          "name": "_openMarketPricer",
          "type": "address"
        }
      ],
      "name": "assignOpenMarketPricer",
      "outputs": [],
      "stateMutability": "nonpayable",
      "type": "function"
    },
    {
      "inputs": [],
      "name": "attesters",
      "outputs": [
        {
          "internalType": "address",
          "name": "",
          "type": "address"
        }
      ],
      "stateMutability": "view",
      "type": "function"
    },
    {
      "inputs": [
        {
          "internalType": "bytes32",
          "name": "orderId",
          "type": "bytes32"
        },
        {
          "internalType": "address",
          "name": "rewardAsset",
          "type": "address"
        },
        {
          "internalType": "uint256",
          "name": "maxReward",
          "type": "uint256"
        },
        {
          "internalType": "uint256",
          "name": "settledAmount",
          "type": "uint256"
        },
        {
          "internalType": "address",
          "name": "beneficiary",
          "type": "address"
        }
      ],
      "name": "checkIsClaimable",
      "outputs": [
        {
          "internalType": "bool",
          "name": "",
          "type": "bool"
        }
      ],
      "stateMutability": "view",
      "type": "function"
    },
    {
      "inputs": [
        {
          "internalType": "bytes32",
          "name": "orderId",
          "type": "bytes32"
        },
        {
          "internalType": "uint256",
          "name": "orderTimestamp",
          "type": "uint256"
        },
        {
          "internalType": "address",
          "name": "rewardAsset",
          "type": "address"
        },
        {
          "internalType": "uint256",
          "name": "maxReward",
          "type": "uint256"
        }
      ],
      "name": "checkIsRefundable",
      "outputs": [
        {
          "internalType": "bool",
          "name": "",
          "type": "bool"
        }
      ],
      "stateMutability": "view",
      "type": "function"
    },
    {
      "inputs": [],
      "name": "checkSupportedBridgeAssets",
      "outputs": [
        {
          "internalType": "bool",
          "name": "",
          "type": "bool"
        }
      ],
      "stateMutability": "view",
      "type": "function"
    },
    {
      "inputs": [
        {
          "internalType": "bytes32",
          "name": "orderId",
          "type": "bytes32"
        },
        {
          "internalType": "address",
          "name": "rewardAsset",
          "type": "address"
        },
        {
          "internalType": "uint256",
          "name": "maxReward",
          "type": "uint256"
        },
        {
          "internalType": "uint256",
          "name": "_settledAmount",
          "type": "uint256"
        }
      ],
      "name": "claimPayout",
      "outputs": [],
      "stateMutability": "payable",
      "type": "function"
    },
    {
      "inputs": [
        {
          "components": [
            {
              "internalType": "bytes32",
              "name": "id",
              "type": "bytes32"
            },
            {
              "internalType": "address",
              "name": "rewardAsset",
              "type": "address"
            },
            {
              "internalType": "uint256",
              "name": "maxReward",
              "type": "uint256"
            },
            {
              "internalType": "uint256",
              "name": "settledAmount",
              "type": "uint256"
            }
          ],
          "internalType": "struct ParachainRemoteOrder.Payout[]",
          "name": "payouts",
          "type": "tuple[]"
        }
      ],
      "name": "claimPayoutBatch",
      "outputs": [],
      "stateMutability": "payable",
      "type": "function"
    },
    {
      "inputs": [
        {
          "internalType": "uint32",
          "name": "orderNonce",
          "type": "uint32"
        },
        {
          "internalType": "address",
          "name": "rewardAsset",
          "type": "address"
        },
        {
          "internalType": "uint256",
          "name": "maxReward",
          "type": "uint256"
        },
        {
          "internalType": "uint256",
          "name": "orderTimestamp",
          "type": "uint256"
        }
      ],
      "name": "claimRefund",
      "outputs": [],
      "stateMutability": "payable",
      "type": "function"
    },
    {
      "inputs": [
        {
          "components": [
            {
              "internalType": "bytes32",
              "name": "id",
              "type": "bytes32"
            },
            {
              "internalType": "address payable",
              "name": "target",
              "type": "address"
            },
            {
              "internalType": "uint256",
              "name": "amount",
              "type": "uint256"
            },
            {
              "internalType": "address",
              "name": "asset",
              "type": "address"
            }
          ],
          "internalType": "struct ParachainRemoteOrder.ConfirmBatchOrderEntry[]",
          "name": "confirmBatch",
          "type": "tuple[]"
        }
      ],
      "name": "confirmBatchOrder",
      "outputs": [],
      "stateMutability": "payable",
      "type": "function"
    },
    {
      "inputs": [
        {
          "internalType": "bytes32",
          "name": "id",
          "type": "bytes32"
        },
        {
          "internalType": "address payable",
          "name": "target",
          "type": "address"
        },
        {
          "internalType": "uint256",
          "name": "amount",
          "type": "uint256"
        },
        {
          "internalType": "address",
          "name": "asset",
          "type": "address"
        }
      ],
      "name": "confirmOrder",
      "outputs": [
        {
          "internalType": "bool",
          "name": "",
          "type": "bool"
        }
      ],
      "stateMutability": "payable",
      "type": "function"
    },
    {
      "inputs": [],
      "name": "currentProtocolFee",
      "outputs": [
        {
          "internalType": "uint256",
          "name": "",
          "type": "uint256"
        }
      ],
      "stateMutability": "view",
      "type": "function"
    },
    {
      "inputs": [],
      "name": "disableInitializers",
      "outputs": [],
      "stateMutability": "nonpayable",
      "type": "function"
    },
    {
      "inputs": [
        {
          "internalType": "address",
          "name": "asset",
          "type": "address"
        },
        {
          "internalType": "uint256",
          "name": "amount",
          "type": "uint256"
        },
        {
          "internalType": "address",
          "name": "beneficiary",
          "type": "address"
        }
      ],
      "name": "emergencyWithdraw",
      "outputs": [],
      "stateMutability": "nonpayable",
      "type": "function"
    },
    {
      "inputs": [
        {
          "internalType": "address",
          "name": "assetHere",
          "type": "address"
        }
      ],
      "name": "ensureAssetIsSupported",
      "outputs": [
        {
          "internalType": "bool",
          "name": "",
          "type": "bool"
        }
      ],
      "stateMutability": "view",
      "type": "function"
    },
    {
      "inputs": [],
      "name": "escrowGMP",
      "outputs": [
        {
          "internalType": "contract EscrowGMP",
          "name": "",
          "type": "address"
        }
      ],
      "stateMutability": "view",
      "type": "function"
    },
    {
      "inputs": [
        {
          "internalType": "address",
          "name": "requester",
          "type": "address"
        },
        {
          "internalType": "uint32",
          "name": "nonce",
          "type": "uint32"
        }
      ],
      "name": "generateId",
      "outputs": [
        {
          "internalType": "bytes32",
          "name": "",
          "type": "bytes32"
        }
      ],
      "stateMutability": "pure",
      "type": "function"
    },
    {
      "inputs": [],
      "name": "getOrderTimeout",
      "outputs": [
        {
          "internalType": "uint256",
          "name": "",
          "type": "uint256"
        }
      ],
      "stateMutability": "view",
      "type": "function"
    },
    {
      "inputs": [
        {
          "internalType": "bytes32",
          "name": "role",
          "type": "bytes32"
        }
      ],
      "name": "getRoleAdmin",
      "outputs": [
        {
          "internalType": "bytes32",
          "name": "",
          "type": "bytes32"
        }
      ],
      "stateMutability": "view",
      "type": "function"
    },
    {
      "inputs": [
        {
          "internalType": "bytes32",
          "name": "role",
          "type": "bytes32"
        },
        {
          "internalType": "address",
          "name": "account",
          "type": "address"
        }
      ],
      "name": "grantRole",
      "outputs": [],
      "stateMutability": "nonpayable",
      "type": "function"
    },
    {
      "inputs": [
        {
          "internalType": "bytes32",
          "name": "role",
          "type": "bytes32"
        },
        {
          "internalType": "address",
          "name": "account",
          "type": "address"
        }
      ],
      "name": "hasRole",
      "outputs": [
        {
          "internalType": "bool",
          "name": "",
          "type": "bool"
        }
      ],
      "stateMutability": "view",
      "type": "function"
    },
    {
      "inputs": [
        {
          "internalType": "address",
          "name": "_owner",
          "type": "address"
        }
      ],
      "name": "initialize",
      "outputs": [],
      "stateMutability": "nonpayable",
      "type": "function"
    },
    {
      "inputs": [],
      "name": "isHalted",
      "outputs": [
        {
          "internalType": "bool",
          "name": "",
          "type": "bool"
        }
      ],
      "stateMutability": "view",
      "type": "function"
    },
    {
      "inputs": [
        {
          "internalType": "bytes32",
          "name": "id",
          "type": "bytes32"
        }
      ],
      "name": "isKnownId",
      "outputs": [
        {
          "internalType": "bool",
          "name": "",
          "type": "bool"
        }
      ],
      "stateMutability": "view",
      "type": "function"
    },
    {
      "inputs": [],
      "name": "openMarketPricer",
      "outputs": [
        {
          "internalType": "contract OpenMarketPricer",
          "name": "",
          "type": "address"
        }
      ],
      "stateMutability": "view",
      "type": "function"
    },
    {
      "inputs": [
        {
          "internalType": "bytes4",
          "name": "destination",
          "type": "bytes4"
        },
        {
          "internalType": "uint32",
          "name": "asset",
          "type": "uint32"
        },
        {
          "internalType": "bytes32",
          "name": "targetAccount",
          "type": "bytes32"
        },
        {
          "internalType": "uint256",
          "name": "amount",
          "type": "uint256"
        },
        {
          "internalType": "address",
          "name": "rewardAsset",
          "type": "address"
        },
        {
          "internalType": "uint256",
          "name": "insurance",
          "type": "uint256"
        },
        {
          "internalType": "uint256",
          "name": "maxReward",
          "type": "uint256"
        }
      ],
      "name": "order",
      "outputs": [
        {
          "internalType": "bytes32",
          "name": "",
          "type": "bytes32"
        }
      ],
      "stateMutability": "payable",
      "type": "function"
    },
    {
      "inputs": [
        {
          "internalType": "bytes",
          "name": "input",
          "type": "bytes"
        }
      ],
      "name": "orderMemoryData",
      "outputs": [
        {
          "internalType": "bytes32",
          "name": "",
          "type": "bytes32"
        }
      ],
      "stateMutability": "payable",
      "type": "function"
    },
    {
      "inputs": [
        {
          "internalType": "bytes32",
          "name": "",
          "type": "bytes32"
        }
      ],
      "name": "orderPayloads",
      "outputs": [
        {
          "internalType": "bytes32",
          "name": "",
          "type": "bytes32"
        }
      ],
      "stateMutability": "view",
      "type": "function"
    },
    {
      "inputs": [],
      "name": "orderTimeout",
      "outputs": [
        {
          "internalType": "uint256",
          "name": "",
          "type": "uint256"
        }
      ],
      "stateMutability": "view",
      "type": "function"
    },
    {
      "inputs": [
        {
          "internalType": "bytes32",
          "name": "",
          "type": "bytes32"
        }
      ],
      "name": "orderWinners",
      "outputs": [
        {
          "internalType": "address",
          "name": "",
          "type": "address"
        }
      ],
      "stateMutability": "view",
      "type": "function"
    },
    {
      "inputs": [
        {
          "internalType": "bytes",
          "name": "input",
          "type": "bytes"
        }
      ],
      "name": "remoteOrder",
      "outputs": [
        {
          "internalType": "bytes32",
          "name": "",
          "type": "bytes32"
        }
      ],
      "stateMutability": "payable",
      "type": "function"
    },
    {
      "inputs": [
        {
          "internalType": "bytes32",
          "name": "role",
          "type": "bytes32"
        },
        {
          "internalType": "address",
          "name": "account",
          "type": "address"
        }
      ],
      "name": "renounceRole",
      "outputs": [],
      "stateMutability": "nonpayable",
      "type": "function"
    },
    {
      "inputs": [
        {
          "internalType": "bytes32",
          "name": "role",
          "type": "bytes32"
        },
        {
          "internalType": "address",
          "name": "account",
          "type": "address"
        }
      ],
      "name": "revokeRole",
      "outputs": [],
      "stateMutability": "nonpayable",
      "type": "function"
    },
    {
      "inputs": [
        {
          "internalType": "uint256",
          "name": "_protocolFee",
          "type": "uint256"
        }
      ],
      "name": "setCurrentProtocolFee",
      "outputs": [],
      "stateMutability": "nonpayable",
      "type": "function"
    },
    {
      "inputs": [
        {
          "internalType": "contract EscrowGMP",
          "name": "_escrowGMP",
          "type": "address"
        }
      ],
      "name": "setEscrowGMP",
      "outputs": [],
      "stateMutability": "nonpayable",
      "type": "function"
    },
    {
      "inputs": [
        {
          "internalType": "uint256",
          "name": "_orderTimeout",
          "type": "uint256"
        }
      ],
      "name": "setOrderTimeout",
      "outputs": [],
      "stateMutability": "nonpayable",
      "type": "function"
    },
    {
      "inputs": [
        {
          "internalType": "bytes32",
          "name": "_version",
          "type": "bytes32"
        }
      ],
      "name": "setVersion",
      "outputs": [],
      "stateMutability": "nonpayable",
      "type": "function"
    },
    {
      "inputs": [
        {
          "internalType": "bytes32",
          "name": "orderId",
          "type": "bytes32"
        },
        {
          "internalType": "address",
          "name": "sender",
          "type": "address"
        },
        {
          "internalType": "address",
          "name": "executor",
          "type": "address"
        },
        {
          "internalType": "address",
          "name": "rewardAsset",
          "type": "address"
        },
        {
          "internalType": "uint256",
          "name": "maxReward",
          "type": "uint256"
        },
        {
          "internalType": "uint256",
          "name": "settledAmount",
          "type": "uint256"
        },
        {
          "internalType": "uint32",
          "name": "rewardAssetId",
          "type": "uint32"
        },
        {
          "internalType": "uint32",
          "name": "assetId",
          "type": "uint32"
        },
        {
          "internalType": "uint256",
          "name": "amount",
          "type": "uint256"
        },
        {
          "internalType": "uint32",
          "name": "nonce",
          "type": "uint32"
        }
      ],
      "name": "settleSurplusReward",
      "outputs": [
        {
          "internalType": "bool",
          "name": "",
          "type": "bool"
        }
      ],
      "stateMutability": "payable",
      "type": "function"
    },
    {
      "inputs": [
        {
          "internalType": "address",
          "name": "",
          "type": "address"
        }
      ],
      "name": "supportedBridgeAssetsHereToThere",
      "outputs": [
        {
          "internalType": "uint32",
          "name": "",
          "type": "uint32"
        }
      ],
      "stateMutability": "view",
      "type": "function"
    },
    {
      "inputs": [
        {
          "internalType": "bytes4",
          "name": "interfaceId",
          "type": "bytes4"
        }
      ],
      "name": "supportsInterface",
      "outputs": [
        {
          "internalType": "bool",
          "name": "",
          "type": "bool"
        }
      ],
      "stateMutability": "view",
      "type": "function"
    },
    {
      "inputs": [],
      "name": "turnOffHalt",
      "outputs": [],
      "stateMutability": "nonpayable",
      "type": "function"
    },
    {
      "inputs": [],
      "name": "turnOffSupportedBridgeAssetsCheck",
      "outputs": [],
      "stateMutability": "nonpayable",
      "type": "function"
    },
    {
      "inputs": [],
      "name": "turnOnHalt",
      "outputs": [],
      "stateMutability": "nonpayable",
      "type": "function"
    },
    {
      "inputs": [],
      "name": "turnOnSupportedBridgeAssetsCheck",
      "outputs": [],
      "stateMutability": "nonpayable",
      "type": "function"
    },
    {
      "inputs": [],
      "name": "version",
      "outputs": [
        {
          "internalType": "bytes32",
          "name": "",
          "type": "bytes32"
        }
      ],
      "stateMutability": "view",
      "type": "function"
    },
    {
      "stateMutability": "payable",
      "type": "receive"
    }
  ],
  "bytecode": "0x608060405234801561001057600080fd5b50615eeb80620000216000396000f3fe60806040526004361061028a5760003560e01c806373b3e5041161015a578063c7ff1584116100c1578063dac8a7a01161007a578063dac8a7a014610969578063db7a6aa714610992578063e822cdba146109cf578063e96e743114610a0c578063f4953cb214610a37578063f984976514610a6257610291565b8063c7ff15841461086a578063ca5f81b514610895578063cee73804146108be578063d0eccac5146108fb578063d547741f14610924578063d82ee6211461094d57610291565b8063a796b62811610113578063a796b62814610771578063a7be614c1461079a578063ade63a46146107ca578063ba206004146107e6578063c4d66de814610811578063c5af48271461083a57610291565b806373b3e504146106485780637dba853c1461068557806381813c8b146106c257806391d14854146106de5780639c32a66c1461071b578063a217fddf1461074657610291565b806331d2b5f8116101fe5780634f3f0432116101b75780634f3f04321461056157806354fd4d5014610591578063551512de146105bc57806356591d59146105e55780635bafd787146106155780636c1162b21461062c57610291565b806331d2b5f81461048d57806331f44900146104b657806333d7a06b146104cd5780633562c20b146104f857806336568abe146105215780633c18ee2d1461054a57610291565b80631b3035a4116102505780631b3035a41461037f5780631b5d00ad146103bc5780632178dc9f146103e557806323728d32146103fc578063248a9ca3146104275780632f2ff15d1461046457610291565b806211888214610293578062cfe24f146102aa578063013a0b5b146102d557806301a8f0651461031257806301ffc9a71461034257610291565b3661029157005b005b34801561029f57600080fd5b506102a8610a9f565b005b3480156102b657600080fd5b506102bf610b08565b6040516102cc9190613da4565b60405180910390f35b3480156102e157600080fd5b506102fc60048036038101906102f79190613dff565b610b2e565b6040516103099190613e4b565b60405180910390f35b61032c60048036038101906103279190613f10565b610b51565b6040516103399190613f92565b60405180910390f35b34801561034e57600080fd5b5061036960048036038101906103649190614005565b610db0565b6040516103769190613f92565b60405180910390f35b34801561038b57600080fd5b506103a660048036038101906103a19190614032565b610e2a565b6040516103b39190613da4565b60405180910390f35b3480156103c857600080fd5b506103e360048036038101906103de919061408b565b610e5d565b005b3480156103f157600080fd5b506103fa610f0b565b005b34801561040857600080fd5b50610411610f74565b60405161041e91906140da565b60405180910390f35b34801561043357600080fd5b5061044e60048036038101906104499190614032565b610f7a565b60405161045b9190614104565b60405180910390f35b34801561047057600080fd5b5061048b6004803603810190610486919061411f565b610f9a565b005b34801561049957600080fd5b506104b460048036038101906104af9190613dff565b610fbb565b005b3480156104c257600080fd5b506104cb61104b565b005b3480156104d957600080fd5b506104e26110a1565b6040516104ef9190613f92565b60405180910390f35b34801561050457600080fd5b5061051f600480360381019061051a919061419d565b6110b4565b005b34801561052d57600080fd5b506105486004803603810190610543919061411f565b611144565b005b34801561055657600080fd5b5061055f6111c7565b005b61057b60048036038101906105769190614310565b611230565b6040516105889190614104565b60405180910390f35b34801561059d57600080fd5b506105a6611597565b6040516105b39190614104565b60405180910390f35b3480156105c857600080fd5b506105e360048036038101906105de9190614359565b61159d565b005b6105ff60048036038101906105fa91906143ac565b6115fa565b60405161060c9190614104565b60405180910390f35b34801561062157600080fd5b5061062a611701565b005b6106466004803603810190610641919061444e565b61176a565b005b34801561065457600080fd5b5061066f600480360381019061066a919061408b565b611a2d565b60405161067c9190614104565b60405180910390f35b34801561069157600080fd5b506106ac60048036038101906106a79190614032565b611a8b565b6040516106b99190613f92565b60405180910390f35b6106dc60048036038101906106d791906144b5565b611b36565b005b3480156106ea57600080fd5b506107056004803603810190610700919061411f565b611dea565b6040516107129190613f92565b60405180910390f35b34801561072757600080fd5b50610730611e55565b60405161073d919061457b565b60405180910390f35b34801561075257600080fd5b5061075b611e7b565b6040516107689190614104565b60405180910390f35b34801561077d57600080fd5b5061079860048036038101906107939190613dff565b611e82565b005b6107b460048036038101906107af91906145f6565b611f12565b6040516107c19190614104565b60405180910390f35b6107e460048036038101906107df9190614783565b611f69565b005b3480156107f257600080fd5b506107fb61267f565b60405161080891906140da565b60405180910390f35b34801561081d57600080fd5b5061083860048036038101906108339190613dff565b612685565b005b610854600480360381019061084f91906147cc565b61288e565b6040516108619190613f92565b60405180910390f35b34801561087657600080fd5b5061087f612b02565b60405161088c9190613f92565b60405180910390f35b3480156108a157600080fd5b506108bc60048036038101906108b79190614032565b612b15565b005b3480156108ca57600080fd5b506108e560048036038101906108e091906148ab565b612b6b565b6040516108f29190613f92565b60405180910390f35b34801561090757600080fd5b50610922600480360381019061091d9190614912565b612c68565b005b34801561093057600080fd5b5061094b6004803603810190610946919061411f565b612cbe565b005b61096760048036038101906109629190614995565b612cdf565b005b34801561097557600080fd5b50610990600480360381019061098b9190614912565b612ed9565b005b34801561099e57600080fd5b506109b960048036038101906109b49190614032565b612f2f565b6040516109c69190614104565b60405180910390f35b3480156109db57600080fd5b506109f660048036038101906109f19190613dff565b612f47565b604051610a039190613f92565b60405180910390f35b348015610a1857600080fd5b50610a21613005565b604051610a2e9190614a03565b60405180910390f35b348015610a4357600080fd5b50610a4c61302b565b604051610a5991906140da565b60405180910390f35b348015610a6e57600080fd5b50610a896004803603810190610a849190614a1e565b613035565b604051610a969190613f92565b60405180910390f35b610aac6000801b33611dea565b610aeb576040517f08c379a0000000000000000000000000000000000000000000000000000000008152600401610ae290614b1c565b60405180910390fd5b600060d060016101000a81548160ff021916908315150217905550565b60ca60009054906101000a900473ffffffffffffffffffffffffffffffffffffffff1681565b60ce6020528060005260406000206000915054906101000a900463ffffffff1681565b600060d060019054906101000a900460ff1615610ba3576040517f08c379a0000000000000000000000000000000000000000000000000000000008152600401610b9a90614b88565b60405180910390fd5b600073ffffffffffffffffffffffffffffffffffffffff168273ffffffffffffffffffffffffffffffffffffffff1603610c8157600047905083811015610c1f576040517f08c379a0000000000000000000000000000000000000000000000000000000008152600401610c1690614bf4565b60405180910390fd5b83341015610c31576000915050610da8565b60008573ffffffffffffffffffffffffffffffffffffffff166108fc869081150290604051600060405180830381858888f19350505050905080610c7a57600092505050610da8565b5050610d3b565b828273ffffffffffffffffffffffffffffffffffffffff1663dd62ed3e33306040518363ffffffff1660e01b8152600401610cbd929190614c14565b602060405180830381865afa158015610cda573d6000803e3d6000fd5b505050506040513d601f19601f82011682018060405250810190610cfe9190614c52565b1015610d0d5760009050610da8565b610d3a3385858573ffffffffffffffffffffffffffffffffffffffff16613178909392919063ffffffff16565b5b3373ffffffffffffffffffffffffffffffffffffffff168473ffffffffffffffffffffffffffffffffffffffff16867f9b6b927a15db2ff3d6b64c3fe4884ab3f2a07a59ef5a477a9f314bc729bf41808686604051610d9b929190614c7f565b60405180910390a4600190505b949350505050565b60007f7965db0b000000000000000000000000000000000000000000000000000000007bffffffffffffffffffffffffffffffffffffffffffffffffffffffff1916827bffffffffffffffffffffffffffffffffffffffffffffffffffffffff19161480610e235750610e2282613201565b5b9050919050565b60cd6020528060005260406000206000915054906101000a900473ffffffffffffffffffffffffffffffffffffffff1681565b610e6a6000801b33611dea565b610ea9576040517f08c379a0000000000000000000000000000000000000000000000000000000008152600401610ea090614b1c565b60405180910390fd5b8060ce60008473ffffffffffffffffffffffffffffffffffffffff1673ffffffffffffffffffffffffffffffffffffffff16815260200190815260200160002060006101000a81548163ffffffff021916908363ffffffff1602179055505050565b610f186000801b33611dea565b610f57576040517f08c379a0000000000000000000000000000000000000000000000000000000008152600401610f4e90614b1c565b60405180910390fd5b600160d060016101000a81548160ff021916908315150217905550565b60cf5481565b600060656000838152602001908152602001600020600101549050919050565b610fa382610f7a565b610fac8161326b565b610fb6838361327f565b505050565b610fc86000801b33611dea565b611007576040517f08c379a0000000000000000000000000000000000000000000000000000000008152600401610ffe90614b1c565b60405180910390fd5b8060cb60006101000a81548173ffffffffffffffffffffffffffffffffffffffff021916908373ffffffffffffffffffffffffffffffffffffffff16021790555050565b6110586000801b33611dea565b611097576040517f08c379a000000000000000000000000000000000000000000000000000000000815260040161108e90614b1c565b60405180910390fd5b61109f613360565b565b60d060009054906101000a900460ff1681565b6110c16000801b33611dea565b611100576040517f08c379a00000000000000000000000000000000000000000000000000000000081526004016110f790614b1c565b60405180910390fd5b8060d260006101000a81548173ffffffffffffffffffffffffffffffffffffffff021916908373ffffffffffffffffffffffffffffffffffffffff16021790555050565b61114c613420565b73ffffffffffffffffffffffffffffffffffffffff168173ffffffffffffffffffffffffffffffffffffffff16146111b9576040517f08c379a00000000000000000000000000000000000000000000000000000000081526004016111b090614d1a565b60405180910390fd5b6111c38282613428565b5050565b6111d46000801b33611dea565b611213576040517f08c379a000000000000000000000000000000000000000000000000000000000815260040161120a90614b1c565b60405180910390fd5b600160d060006101000a81548160ff021916908315150217905550565b600060d060019054906101000a900460ff1615611282576040517f08c379a000000000000000000000000000000000000000000000000000000000815260040161127990614b88565b60405180910390fd5b600043905060006112933383611a2d565b90506000806000806000806000808b8060200190518101906112b59190614d8e565b975097509750975097509750975097506112ce84612f47565b50600073ffffffffffffffffffffffffffffffffffffffff168473ffffffffffffffffffffffffffffffffffffffff16036113aa57600060cf5411156113625760cf548261131c9190614e73565b341461135d576040517f08c379a000000000000000000000000000000000000000000000000000000000815260040161135490614ef3565b60405180910390fd5b6113a5565b8134146113a4576040517f08c379a000000000000000000000000000000000000000000000000000000000815260040161139b90614f5f565b60405180910390fd5b5b611428565b600060cf5411156113fa5760cf5434146113f9576040517f08c379a00000000000000000000000000000000000000000000000000000000081526004016113f090614ef3565b60405180910390fd5b5b6114273330848773ffffffffffffffffffffffffffffffffffffffff16613178909392919063ffffffff16565b5b60d260009054906101000a900473ffffffffffffffffffffffffffffffffffffffff1673ffffffffffffffffffffffffffffffffffffffff16630d8dd7638a868560405160200161147a929190614f7f565b604051602081830303815290604052805190602001206040518363ffffffff1660e01b81526004016114ad929190614fa8565b6020604051808303816000875af11580156114cc573d6000803e3d6000fd5b505050506040513d601f19601f820116820180604052508101906114f09190614ffd565b61152f576040517f08c379a000000000000000000000000000000000000000000000000000000000815260040161152690615076565b60405180910390fd5b3373ffffffffffffffffffffffffffffffffffffffff168a63ffffffff168a7fa4e648bf32141488919801f5158bb5330f9414474fac66399ffcd620238de38e8f60405161157d9190615115565b60405180910390a4889a5050505050505050505050919050565b60d15481565b6115aa6000801b33611dea565b6115e9576040517f08c379a00000000000000000000000000000000000000000000000000000000081526004016115e090614b1c565b60405180910390fd5b6115f482848361350a565b50505050565b600060d060019054906101000a900460ff161561164c576040517f08c379a000000000000000000000000000000000000000000000000000000000815260040161164390614b88565b60405180910390fd5b6000888888888888883360405160200161166d989796959493929190615146565b6040516020818303038152906040529050600061168982611230565b9050897bffffffffffffffffffffffffffffffffffffffffffffffffffffffff1916817f4bd9cc7e722316dda58547026f3a4f55a77521a9901107a27ce6c88fc5c141a98b8b8b8b8b8b43336040516116e99897969594939291906151c4565b60405180910390a38092505050979650505050505050565b61170e6000801b33611dea565b61174d576040517f08c379a000000000000000000000000000000000000000000000000000000000815260040161174490614b1c565b60405180910390fd5b600060d060006101000a81548160ff021916908315150217905550565b60d060019054906101000a900460ff16156117ba576040517f08c379a00000000000000000000000000000000000000000000000000000000081526004016117b190614b88565b60405180910390fd5b600083836040516020016117cf929190614f7f565b604051602081830303815290604052805190602001209050600060d260009054906101000a900473ffffffffffffffffffffffffffffffffffffffff1673ffffffffffffffffffffffffffffffffffffffff1663cb9871d9876040518263ffffffff1660e01b81526004016118449190614104565b602060405180830381865afa158015611861573d6000803e3d6000fd5b505050506040513d601f19601f820116820180604052508101906118859190615242565b90506000823360405160200161189c92919061526f565b604051602081830303815290604052805190602001209050600085905060008511156118f3578333866040516020016118d793929190615298565b6040516020818303038152906040528051906020012091508490505b818314611935576040517f08c379a000000000000000000000000000000000000000000000000000000000815260040161192c90615341565b60405180910390fd5b60d260009054906101000a900473ffffffffffffffffffffffffffffffffffffffff1673ffffffffffffffffffffffffffffffffffffffff1663a77715d0896040518263ffffffff1660e01b81526004016119909190614104565b600060405180830381600087803b1580156119aa57600080fd5b505af11580156119be573d6000803e3d6000fd5b505050506119cd81883361350a565b15611a2357803373ffffffffffffffffffffffffffffffffffffffff16897fba78a15e874441cf1871e3d2633ba91540bab663ae8664088ace7d60009ddd658a604051611a1a9190613da4565b60405180910390a45b5050505050505050565b60008282604051602001611a42929190615361565b604051602081830303815290604052805190602001206000801b604051602001611a6d929190614fa8565b60405160208183030381529060405280519060200120905092915050565b60008060001b60d260009054906101000a900473ffffffffffffffffffffffffffffffffffffffff1673ffffffffffffffffffffffffffffffffffffffff1663dd50923e846040518263ffffffff1660e01b8152600401611aec9190614104565b602060405180830381865afa158015611b09573d6000803e3d6000fd5b505050506040513d601f19601f82011682018060405250810190611b2d9190615242565b14159050919050565b60d060019054906101000a900460ff1615611b86576040517f08c379a0000000000000000000000000000000000000000000000000000000008152600401611b7d90614b88565b60405180910390fd5b60c95481611b949190614e73565b421015611bd6576040517f08c379a0000000000000000000000000000000000000000000000000000000008152600401611bcd906153d6565b60405180910390fd5b6000611be23386611a2d565b905060008484604051602001611bf9929190614f7f565b604051602081830303815290604052805190602001209050600060d260009054906101000a900473ffffffffffffffffffffffffffffffffffffffff1673ffffffffffffffffffffffffffffffffffffffff1663cb9871d9846040518263ffffffff1660e01b8152600401611c6e9190614104565b602060405180830381865afa158015611c8b573d6000803e3d6000fd5b505050506040513d601f19601f82011682018060405250810190611caf9190615242565b9050818114611cf3576040517f08c379a0000000000000000000000000000000000000000000000000000000008152600401611cea90615442565b60405180910390fd5b60d260009054906101000a900473ffffffffffffffffffffffffffffffffffffffff1673ffffffffffffffffffffffffffffffffffffffff166313b2512a846040518263ffffffff1660e01b8152600401611d4e9190614104565b600060405180830381600087803b158015611d6857600080fd5b505af1158015611d7c573d6000803e3d6000fd5b50505050611d8b85873361350a565b15611de157843373ffffffffffffffffffffffffffffffffffffffff16847fc6832f33d5e3e2c3ba480fe926469147cc18d6b337aaa032a6708eb6c6ceeb8c89604051611dd89190613da4565b60405180910390a45b50505050505050565b60006065600084815260200190815260200160002060000160008373ffffffffffffffffffffffffffffffffffffffff1673ffffffffffffffffffffffffffffffffffffffff16815260200190815260200160002060009054906101000a900460ff16905092915050565b60cb60009054906101000a900473ffffffffffffffffffffffffffffffffffffffff1681565b6000801b81565b611e8f6000801b33611dea565b611ece576040517f08c379a0000000000000000000000000000000000000000000000000000000008152600401611ec590614b1c565b60405180910390fd5b8060ca60006101000a81548173ffffffffffffffffffffffffffffffffffffffff021916908373ffffffffffffffffffffffffffffffffffffffff16021790555050565b6000611f6183838080601f016020809104026020016040519081016040528093929190818152602001838380828437600081840152601f19601f82011690508083019250505050505050611230565b905092915050565b60d060019054906101000a900460ff1615611fb9576040517f08c379a0000000000000000000000000000000000000000000000000000000008152600401611fb090614b88565b60405180910390fd5b6000815167ffffffffffffffff811115611fd657611fd56141e5565b5b6040519080825280602002602001820160405280156120045781602001602082028036833780820191505090505b5090506000825167ffffffffffffffff811115612024576120236141e5565b5b6040519080825280602002602001820160405280156120525781602001602082028036833780820191505090505b5090506000805b845181101561255b576120e785828151811061207857612077615462565b5b60200260200101516000015186838151811061209757612096615462565b5b6020026020010151602001518784815181106120b6576120b5615462565b5b6020026020010151604001518885815181106120d5576120d4615462565b5b60200260200101516060015133613035565b612126576040517f08c379a000000000000000000000000000000000000000000000000000000000815260040161211d90615503565b60405180910390fd5b6000801b60d260009054906101000a900473ffffffffffffffffffffffffffffffffffffffff1673ffffffffffffffffffffffffffffffffffffffff1663cb9871d987848151811061217b5761217a615462565b5b6020026020010151600001516040518263ffffffff1660e01b81526004016121a39190614104565b602060405180830381865afa1580156121c0573d6000803e3d6000fd5b505050506040513d601f19601f820116820180604052508101906121e49190615242565b03612224576040517f08c379a000000000000000000000000000000000000000000000000000000000815260040161221b90615595565b60405180910390fd5b60d260009054906101000a900473ffffffffffffffffffffffffffffffffffffffff1673ffffffffffffffffffffffffffffffffffffffff1663a77715d086838151811061227557612274615462565b5b6020026020010151600001516040518263ffffffff1660e01b815260040161229d9190614104565b600060405180830381600087803b1580156122b757600080fd5b505af11580156122cb573d6000803e3d6000fd5b505050506000805b83811015612423578683815181106122ee576122ed615462565b5b60200260200101516020015173ffffffffffffffffffffffffffffffffffffffff1686828151811061232357612322615462565b5b602002602001015173ffffffffffffffffffffffffffffffffffffffff160361241657600087848151811061235b5761235a615462565b5b60200260200101516060015111156123bf578683815181106123805761237f615462565b5b60200260200101516060015185828151811061239f5761239e615462565b5b602002602001018181516123b39190614e73565b9150818152505061240d565b8683815181106123d2576123d1615462565b5b6020026020010151604001518582815181106123f1576123f0615462565b5b602002602001018181516124059190614e73565b915081815250505b60019150612423565b80806001019150506122d3565b508061254d5785828151811061243c5761243b615462565b5b60200260200101516020015185848151811061245b5761245a615462565b5b602002602001019073ffffffffffffffffffffffffffffffffffffffff16908173ffffffffffffffffffffffffffffffffffffffff168152505060008683815181106124aa576124a9615462565b5b60200260200101516060015111156124ff578582815181106124cf576124ce615462565b5b6020026020010151606001518484815181106124ee576124ed615462565b5b60200260200101818152505061253e565b85828151811061251257612511615462565b5b60200260200101516040015184848151811061253157612530615462565b5b6020026020010181815250505b8280612549906155b5565b9350505b508080600101915050612059565b5060005b818110156125b4576125a683828151811061257d5761257c615462565b5b602002602001015185838151811061259857612597615462565b5b60200260200101513361350a565b50808060010191505061255f565b5060005b8451811015612678578481815181106125d4576125d3615462565b5b6020026020010151604001513373ffffffffffffffffffffffffffffffffffffffff1686838151811061260a57612609615462565b5b6020026020010151600001517fba78a15e874441cf1871e3d2633ba91540bab663ae8664088ace7d60009ddd6588858151811061264a57612649615462565b5b6020026020010151602001516040516126639190613da4565b60405180910390a480806001019150506125b8565b5050505050565b60c95481565b60008060019054906101000a900460ff161590508080156126b65750600160008054906101000a900460ff1660ff16105b806126e357506126c5306135db565b1580156126e25750600160008054906101000a900460ff1660ff16145b5b612722576040517f08c379a00000000000000000000000000000000000000000000000000000000081526004016127199061566f565b60405180910390fd5b60016000806101000a81548160ff021916908360ff160217905550801561275f576001600060016101000a81548160ff0219169083151502179055505b600073ffffffffffffffffffffffffffffffffffffffff168273ffffffffffffffffffffffffffffffffffffffff16036127ce576040517f08c379a00000000000000000000000000000000000000000000000000000000081526004016127c5906156db565b60405180910390fd5b6127db6000801b8361327f565b6127e36135fe565b600060d060006101000a81548160ff021916908315150217905550608060c981905550600060cf81905550600060d060016101000a81548160ff02191690831515021790555061283161364f565b801561288a5760008060016101000a81548160ff0219169083151502179055507f7f26b83ff96e1f2b6a682f133852f6798a09c465da95921460cefb384740249860016040516128819190615743565b60405180910390a15b5050565b600060d060019054906101000a900460ff16156128ae5760009050612af4565b60ca60009054906101000a900473ffffffffffffffffffffffffffffffffffffffff1673ffffffffffffffffffffffffffffffffffffffff163373ffffffffffffffffffffffffffffffffffffffff161461293e576040517f08c379a0000000000000000000000000000000000000000000000000000000008152600401612935906157d0565b60405180910390fd5b61294b8b8989898d613035565b6129585760009050612af4565b60006129648b84611a2d565b90508b8114612977576000915050612af4565b868811612988576000915050612af4565b6000878961299691906157f0565b90506129a3818b8e61350a565b15612a0357878c73ffffffffffffffffffffffffffffffffffffffff168e7fba78a15e874441cf1871e3d2633ba91540bab663ae8664088ace7d60009ddd658d6040516129f09190613da4565b60405180910390a4600192505050612af4565b600073ffffffffffffffffffffffffffffffffffffffff1660cb60009054906101000a900473ffffffffffffffffffffffffffffffffffffffff1673ffffffffffffffffffffffffffffffffffffffff1614612aed5760cb60009054906101000a900473ffffffffffffffffffffffffffffffffffffffff1673ffffffffffffffffffffffffffffffffffffffff16637936e59287878a8c6040518563ffffffff1660e01b8152600401612aba9493929190615824565b600060405180830381600087803b158015612ad457600080fd5b505af1158015612ae8573d6000803e3d6000fd5b505050505b6000925050505b9a9950505050505050505050565b60d060019054906101000a900460ff1681565b612b226000801b33611dea565b612b61576040517f08c379a0000000000000000000000000000000000000000000000000000000008152600401612b5890614b1c565b60405180910390fd5b8060d18190555050565b600060c95484612b7b9190614e73565b421015612b8b5760009050612c60565b60008383604051602001612ba0929190614f7f565b604051602081830303815290604052805190602001209050600060d260009054906101000a900473ffffffffffffffffffffffffffffffffffffffff1673ffffffffffffffffffffffffffffffffffffffff1663cb9871d9886040518263ffffffff1660e01b8152600401612c159190614104565b602060405180830381865afa158015612c32573d6000803e3d6000fd5b505050506040513d601f19601f82011682018060405250810190612c569190615242565b9050818114925050505b949350505050565b612c756000801b33611dea565b612cb4576040517f08c379a0000000000000000000000000000000000000000000000000000000008152600401612cab90614b1c565b60405180910390fd5b8060c98190555050565b612cc782610f7a565b612cd08161326b565b612cda8383613428565b505050565b60d060019054906101000a900460ff1615612d2f576040517f08c379a0000000000000000000000000000000000000000000000000000000008152600401612d2690614b88565b60405180910390fd5b60008060005b84849050811015612e8a57600073ffffffffffffffffffffffffffffffffffffffff16858583818110612d6b57612d6a615462565b5b9050608002016060016020810190612d839190613dff565b73ffffffffffffffffffffffffffffffffffffffff1603612dd057848482818110612db157612db0615462565b5b9050608002016040013582612dc69190614e73565b9150348211612e7d575b612e68858583818110612de657612de5615462565b5b90506080020160000135868684818110612e0357612e02615462565b5b9050608002016020016020810190612e1b9190615869565b878785818110612e2e57612e2d615462565b5b90506080020160400135888886818110612e4b57612e4a615462565b5b9050608002016060016020810190612e639190613dff565b610b51565b15612e7c578280612e78906155b5565b9350505b5b8080600101915050612d35565b503373ffffffffffffffffffffffffffffffffffffffff1684849050837f6fa7448ce5bbe23aad605192a99ac2b8aedaeb46e3ee8644d05a6d45d34d666660405160405180910390a450505050565b612ee66000801b33611dea565b612f25576040517f08c379a0000000000000000000000000000000000000000000000000000000008152600401612f1c90614b1c565b60405180910390fd5b8060cf8190555050565b60cc6020528060005260406000206000915090505481565b600060d060009054906101000a900460ff16612f665760019050613000565b600073ffffffffffffffffffffffffffffffffffffffff168273ffffffffffffffffffffffffffffffffffffffff1603612fa35760019050613000565b600060ce60008473ffffffffffffffffffffffffffffffffffffffff1673ffffffffffffffffffffffffffffffffffffffff16815260200190815260200160002060009054906101000a900463ffffffff1663ffffffff16141590505b919050565b60d260009054906101000a900473ffffffffffffffffffffffffffffffffffffffff1681565b600060c954905090565b600080858560405160200161304b929190614f7f565b6040516020818303038152906040528051906020012090506000818460405160200161307892919061526f565b60405160208183030381529060405280519060200120905060008511156130c7578184866040516020016130ae93929190615298565b6040516020818303038152906040528051906020012090505b600060d260009054906101000a900473ffffffffffffffffffffffffffffffffffffffff1673ffffffffffffffffffffffffffffffffffffffff1663cb9871d98a6040518263ffffffff1660e01b81526004016131249190614104565b602060405180830381865afa158015613141573d6000803e3d6000fd5b505050506040513d601f19601f820116820180604052508101906131659190615242565b9050818114935050505095945050505050565b6131fb846323b872dd60e01b85858560405160240161319993929190615896565b604051602081830303815290604052907bffffffffffffffffffffffffffffffffffffffffffffffffffffffff19166020820180517bffffffffffffffffffffffffffffffffffffffffffffffffffffffff83818316178352505050506136a8565b50505050565b60007f01ffc9a7000000000000000000000000000000000000000000000000000000007bffffffffffffffffffffffffffffffffffffffffffffffffffffffff1916827bffffffffffffffffffffffffffffffffffffffffffffffffffffffff1916149050919050565b61327c81613277613420565b613770565b50565b6132898282611dea565b61335c5760016065600084815260200190815260200160002060000160008373ffffffffffffffffffffffffffffffffffffffff1673ffffffffffffffffffffffffffffffffffffffff16815260200190815260200160002060006101000a81548160ff021916908315150217905550613301613420565b73ffffffffffffffffffffffffffffffffffffffff168173ffffffffffffffffffffffffffffffffffffffff16837f2f8788117e7eff1d82e926ec794901d17c78024a50270940304540a733656f0d60405160405180910390a45b5050565b600060019054906101000a900460ff16156133b0576040517f08c379a00000000000000000000000000000000000000000000000000000000081526004016133a79061593f565b60405180910390fd5b60ff801660008054906101000a900460ff1660ff161461341e5760ff6000806101000a81548160ff021916908360ff1602179055507f7f26b83ff96e1f2b6a682f133852f6798a09c465da95921460cefb384740249860ff604051613415919061596e565b60405180910390a15b565b600033905090565b6134328282611dea565b156135065760006065600084815260200190815260200160002060000160008373ffffffffffffffffffffffffffffffffffffffff1673ffffffffffffffffffffffffffffffffffffffff16815260200190815260200160002060006101000a81548160ff0219169083151502179055506134ab613420565b73ffffffffffffffffffffffffffffffffffffffff168173ffffffffffffffffffffffffffffffffffffffff16837ff6391f5c32d9c69d2a47ea670b442974b53935d1edc7fd64eb21e047a839171b60405160405180910390a45b5050565b60006135146137f5565b60008411156135c757600073ffffffffffffffffffffffffffffffffffffffff168373ffffffffffffffffffffffffffffffffffffffff16036135935760008273ffffffffffffffffffffffffffffffffffffffff166108fc869081150290604051600060405180830381858888f193505050509050809150506135cc565b6135be82858573ffffffffffffffffffffffffffffffffffffffff166138449092919063ffffffff16565b600190506135cc565b600090505b6135d46138ca565b9392505050565b6000808273ffffffffffffffffffffffffffffffffffffffff163b119050919050565b600060019054906101000a900460ff1661364d576040517f08c379a0000000000000000000000000000000000000000000000000000000008152600401613644906159fb565b60405180910390fd5b565b600060019054906101000a900460ff1661369e576040517f08c379a0000000000000000000000000000000000000000000000000000000008152600401613695906159fb565b60405180910390fd5b6136a66138d4565b565b600061370a826040518060400160405280602081526020017f5361666545524332303a206c6f772d6c6576656c2063616c6c206661696c65648152508573ffffffffffffffffffffffffffffffffffffffff1661392d9092919063ffffffff16565b905060008151148061372c57508080602001905181019061372b9190614ffd565b5b61376b576040517f08c379a000000000000000000000000000000000000000000000000000000000815260040161376290615a8d565b60405180910390fd5b505050565b61377a8282611dea565b6137f15761378781613945565b6137958360001c6020613972565b6040516020016137a6929190615b8c565b6040516020818303038152906040526040517f08c379a00000000000000000000000000000000000000000000000000000000081526004016137e89190615bff565b60405180910390fd5b5050565b60026097540361383a576040517f08c379a000000000000000000000000000000000000000000000000000000000815260040161383190615c6d565b60405180910390fd5b6002609781905550565b6138c58363a9059cbb60e01b8484604051602401613863929190614f7f565b604051602081830303815290604052907bffffffffffffffffffffffffffffffffffffffffffffffffffffffff19166020820180517bffffffffffffffffffffffffffffffffffffffffffffffffffffffff83818316178352505050506136a8565b505050565b6001609781905550565b600060019054906101000a900460ff16613923576040517f08c379a000000000000000000000000000000000000000000000000000000000815260040161391a906159fb565b60405180910390fd5b6001609781905550565b606061393c8484600085613bae565b90509392505050565b606061396b8273ffffffffffffffffffffffffffffffffffffffff16601460ff16613972565b9050919050565b6060600060028360026139859190615c8d565b61398f9190614e73565b67ffffffffffffffff8111156139a8576139a76141e5565b5b6040519080825280601f01601f1916602001820160405280156139da5781602001600182028036833780820191505090505b5090507f300000000000000000000000000000000000000000000000000000000000000081600081518110613a1257613a11615462565b5b60200101907effffffffffffffffffffffffffffffffffffffffffffffffffffffffffffff1916908160001a9053507f780000000000000000000000000000000000000000000000000000000000000081600181518110613a7657613a75615462565b5b60200101907effffffffffffffffffffffffffffffffffffffffffffffffffffffffffffff1916908160001a90535060006001846002613ab69190615c8d565b613ac09190614e73565b90505b6001811115613b60577f3031323334353637383961626364656600000000000000000000000000000000600f861660108110613b0257613b01615462565b5b1a60f81b828281518110613b1957613b18615462565b5b60200101907effffffffffffffffffffffffffffffffffffffffffffffffffffffffffffff1916908160001a905350600485901c945080613b5990615ccf565b9050613ac3565b5060008414613ba4576040517f08c379a0000000000000000000000000000000000000000000000000000000008152600401613b9b90615d44565b60405180910390fd5b8091505092915050565b606082471015613bf3576040517f08c379a0000000000000000000000000000000000000000000000000000000008152600401613bea90615dd6565b60405180910390fd5b6000808673ffffffffffffffffffffffffffffffffffffffff168587604051613c1c9190615e32565b60006040518083038185875af1925050503d8060008114613c59576040519150601f19603f3d011682016040523d82523d6000602084013e613c5e565b606091505b5091509150613c6f87838387613c7b565b92505050949350505050565b60608315613cdd576000835103613cd557613c9585613cf0565b613cd4576040517f08c379a0000000000000000000000000000000000000000000000000000000008152600401613ccb90615e95565b60405180910390fd5b5b829050613ce8565b613ce78383613d13565b5b949350505050565b6000808273ffffffffffffffffffffffffffffffffffffffff163b119050919050565b600082511115613d265781518083602001fd5b806040517f08c379a0000000000000000000000000000000000000000000000000000000008152600401613d5a9190615bff565b60405180910390fd5b600073ffffffffffffffffffffffffffffffffffffffff82169050919050565b6000613d8e82613d63565b9050919050565b613d9e81613d83565b82525050565b6000602082019050613db96000830184613d95565b92915050565b6000604051905090565b600080fd5b600080fd5b613ddc81613d83565b8114613de757600080fd5b50565b600081359050613df981613dd3565b92915050565b600060208284031215613e1557613e14613dc9565b5b6000613e2384828501613dea565b91505092915050565b600063ffffffff82169050919050565b613e4581613e2c565b82525050565b6000602082019050613e606000830184613e3c565b92915050565b6000819050919050565b613e7981613e66565b8114613e8457600080fd5b50565b600081359050613e9681613e70565b92915050565b6000613ea782613d63565b9050919050565b613eb781613e9c565b8114613ec257600080fd5b50565b600081359050613ed481613eae565b92915050565b6000819050919050565b613eed81613eda565b8114613ef857600080fd5b50565b600081359050613f0a81613ee4565b92915050565b60008060008060808587031215613f2a57613f29613dc9565b5b6000613f3887828801613e87565b9450506020613f4987828801613ec5565b9350506040613f5a87828801613efb565b9250506060613f6b87828801613dea565b91505092959194509250565b60008115159050919050565b613f8c81613f77565b82525050565b6000602082019050613fa76000830184613f83565b92915050565b60007fffffffff0000000000000000000000000000000000000000000000000000000082169050919050565b613fe281613fad565b8114613fed57600080fd5b50565b600081359050613fff81613fd9565b92915050565b60006020828403121561401b5761401a613dc9565b5b600061402984828501613ff0565b91505092915050565b60006020828403121561404857614047613dc9565b5b600061405684828501613e87565b91505092915050565b61406881613e2c565b811461407357600080fd5b50565b6000813590506140858161405f565b92915050565b600080604083850312156140a2576140a1613dc9565b5b60006140b085828601613dea565b92505060206140c185828601614076565b9150509250929050565b6140d481613eda565b82525050565b60006020820190506140ef60008301846140cb565b92915050565b6140fe81613e66565b82525050565b600060208201905061411960008301846140f5565b92915050565b6000806040838503121561413657614135613dc9565b5b600061414485828601613e87565b925050602061415585828601613dea565b9150509250929050565b600061416a82613d83565b9050919050565b61417a8161415f565b811461418557600080fd5b50565b60008135905061419781614171565b92915050565b6000602082840312156141b3576141b2613dc9565b5b60006141c184828501614188565b91505092915050565b600080fd5b600080fd5b6000601f19601f8301169050919050565b7f4e487b7100000000000000000000000000000000000000000000000000000000600052604160045260246000fd5b61421d826141d4565b810181811067ffffffffffffffff8211171561423c5761423b6141e5565b5b80604052505050565b600061424f613dbf565b905061425b8282614214565b919050565b600067ffffffffffffffff82111561427b5761427a6141e5565b5b614284826141d4565b9050602081019050919050565b82818337600083830152505050565b60006142b36142ae84614260565b614245565b9050828152602081018484840111156142cf576142ce6141cf565b5b6142da848285614291565b509392505050565b600082601f8301126142f7576142f66141ca565b5b81356143078482602086016142a0565b91505092915050565b60006020828403121561432657614325613dc9565b5b600082013567ffffffffffffffff81111561434457614343613dce565b5b614350848285016142e2565b91505092915050565b60008060006060848603121561437257614371613dc9565b5b600061438086828701613dea565b935050602061439186828701613efb565b92505060406143a286828701613dea565b9150509250925092565b600080600080600080600060e0888a0312156143cb576143ca613dc9565b5b60006143d98a828b01613ff0565b97505060206143ea8a828b01614076565b96505060406143fb8a828b01613e87565b955050606061440c8a828b01613efb565b945050608061441d8a828b01613dea565b93505060a061442e8a828b01613efb565b92505060c061443f8a828b01613efb565b91505092959891949750929550565b6000806000806080858703121561446857614467613dc9565b5b600061447687828801613e87565b945050602061448787828801613dea565b935050604061449887828801613efb565b92505060606144a987828801613efb565b91505092959194509250565b600080600080608085870312156144cf576144ce613dc9565b5b60006144dd87828801614076565b94505060206144ee87828801613dea565b93505060406144ff87828801613efb565b925050606061451087828801613efb565b91505092959194509250565b6000819050919050565b600061454161453c61453784613d63565b61451c565b613d63565b9050919050565b600061455382614526565b9050919050565b600061456582614548565b9050919050565b6145758161455a565b82525050565b6000602082019050614590600083018461456c565b92915050565b600080fd5b600080fd5b60008083601f8401126145b6576145b56141ca565b5b8235905067ffffffffffffffff8111156145d3576145d2614596565b5b6020830191508360018202830111156145ef576145ee61459b565b5b9250929050565b6000806020838503121561460d5761460c613dc9565b5b600083013567ffffffffffffffff81111561462b5761462a613dce565b5b614637858286016145a0565b92509250509250929050565b600067ffffffffffffffff82111561465e5761465d6141e5565b5b602082029050602081019050919050565b600080fd5b60006080828403121561468a5761468961466f565b5b6146946080614245565b905060006146a484828501613e87565b60008301525060206146b884828501613dea565b60208301525060406146cc84828501613efb565b60408301525060606146e084828501613efb565b60608301525092915050565b60006146ff6146fa84614643565b614245565b905080838252602082019050608084028301858111156147225761472161459b565b5b835b8181101561474b57806147378882614674565b845260208401935050608081019050614724565b5050509392505050565b600082601f83011261476a576147696141ca565b5b813561477a8482602086016146ec565b91505092915050565b60006020828403121561479957614798613dc9565b5b600082013567ffffffffffffffff8111156147b7576147b6613dce565b5b6147c384828501614755565b91505092915050565b6000806000806000806000806000806101408b8d0312156147f0576147ef613dc9565b5b60006147fe8d828e01613e87565b9a5050602061480f8d828e01613dea565b99505060406148208d828e01613dea565b98505060606148318d828e01613dea565b97505060806148428d828e01613efb565b96505060a06148538d828e01613efb565b95505060c06148648d828e01614076565b94505060e06148758d828e01614076565b9350506101006148878d828e01613efb565b9250506101206148998d828e01614076565b9150509295989b9194979a5092959850565b600080600080608085870312156148c5576148c4613dc9565b5b60006148d387828801613e87565b94505060206148e487828801613efb565b93505060406148f587828801613dea565b925050606061490687828801613efb565b91505092959194509250565b60006020828403121561492857614927613dc9565b5b600061493684828501613efb565b91505092915050565b60008083601f840112614955576149546141ca565b5b8235905067ffffffffffffffff81111561497257614971614596565b5b60208301915083608082028301111561498e5761498d61459b565b5b9250929050565b600080602083850312156149ac576149ab613dc9565b5b600083013567ffffffffffffffff8111156149ca576149c9613dce565b5b6149d68582860161493f565b92509250509250929050565b60006149ed82614548565b9050919050565b6149fd816149e2565b82525050565b6000602082019050614a1860008301846149f4565b92915050565b600080600080600060a08688031215614a3a57614a39613dc9565b5b6000614a4888828901613e87565b9550506020614a5988828901613dea565b9450506040614a6a88828901613efb565b9350506060614a7b88828901613efb565b9250506080614a8c88828901613dea565b9150509295509295909350565b600082825260208201905092915050565b7f4f6e6c79206f776e65722063616e2063616c6c20746869732066756e6374696f60008201527f6e00000000000000000000000000000000000000000000000000000000000000602082015250565b6000614b06602183614a99565b9150614b1182614aaa565b604082019050919050565b60006020820190508181036000830152614b3581614af9565b9050919050565b7f436f6e74726163742069732068616c7465640000000000000000000000000000600082015250565b6000614b72601283614a99565b9150614b7d82614b3c565b602082019050919050565b60006020820190508181036000830152614ba181614b65565b9050919050565b7f496e73756666696369656e742062616c616e6365000000000000000000000000600082015250565b6000614bde601483614a99565b9150614be982614ba8565b602082019050919050565b60006020820190508181036000830152614c0d81614bd1565b9050919050565b6000604082019050614c296000830185613d95565b614c366020830184613d95565b9392505050565b600081519050614c4c81613ee4565b92915050565b600060208284031215614c6857614c67613dc9565b5b6000614c7684828501614c3d565b91505092915050565b6000604082019050614c9460008301856140cb565b614ca16020830184613d95565b9392505050565b7f416363657373436f6e74726f6c3a2063616e206f6e6c792072656e6f756e636560008201527f20726f6c657320666f722073656c660000000000000000000000000000000000602082015250565b6000614d04602f83614a99565b9150614d0f82614ca8565b604082019050919050565b60006020820190508181036000830152614d3381614cf7565b9050919050565b600081519050614d4981613fd9565b92915050565b600081519050614d5e8161405f565b92915050565b600081519050614d7381613e70565b92915050565b600081519050614d8881613eae565b92915050565b600080600080600080600080610100898b031215614daf57614dae613dc9565b5b6000614dbd8b828c01614d3a565b9850506020614dce8b828c01614d4f565b9750506040614ddf8b828c01614d64565b9650506060614df08b828c01614c3d565b9550506080614e018b828c01614d79565b94505060a0614e128b828c01614c3d565b93505060c0614e238b828c01614c3d565b92505060e0614e348b828c01614d79565b9150509295985092959890939650565b7f4e487b7100000000000000000000000000000000000000000000000000000000600052601160045260246000fd5b6000614e7e82613eda565b9150614e8983613eda565b9250828201905080821115614ea157614ea0614e44565b5b92915050565b7f496e73756666696369656e742070726f746f636f6c2066656500000000000000600082015250565b6000614edd601983614a99565b9150614ee882614ea7565b602082019050919050565b60006020820190508181036000830152614f0c81614ed0565b9050919050565b7f4d69736d617463686564206465706f73697420616d6f756e7400000000000000600082015250565b6000614f49601983614a99565b9150614f5482614f13565b602082019050919050565b60006020820190508181036000830152614f7881614f3c565b9050919050565b6000604082019050614f946000830185613d95565b614fa160208301846140cb565b9392505050565b6000604082019050614fbd60008301856140f5565b614fca60208301846140f5565b9392505050565b614fda81613f77565b8114614fe557600080fd5b50565b600081519050614ff781614fd1565b92915050565b60006020828403121561501357615012613dc9565b5b600061502184828501614fe8565b91505092915050565b7f5061796c6f616420616c72656164792073746f72656400000000000000000000600082015250565b6000615060601683614a99565b915061506b8261502a565b602082019050919050565b6000602082019050818103600083015261508f81615053565b9050919050565b600081519050919050565b600082825260208201905092915050565b60005b838110156150d05780820151818401526020810190506150b5565b60008484015250505050565b60006150e782615096565b6150f181856150a1565b93506151018185602086016150b2565b61510a816141d4565b840191505092915050565b6000602082019050818103600083015261512f81846150dc565b905092915050565b61514081613fad565b82525050565b60006101008201905061515c600083018b615137565b615169602083018a613e3c565b61517660408301896140f5565b61518360608301886140cb565b6151906080830187613d95565b61519d60a08301866140cb565b6151aa60c08301856140cb565b6151b760e0830184613d95565b9998505050505050505050565b6000610100820190506151da600083018b613e3c565b6151e7602083018a6140f5565b6151f460408301896140cb565b6152016060830188613d95565b61520e60808301876140cb565b61521b60a08301866140cb565b61522860c0830185613e3c565b61523560e0830184613d95565b9998505050505050505050565b60006020828403121561525857615257613dc9565b5b600061526684828501614d64565b91505092915050565b600060408201905061528460008301856140f5565b6152916020830184613d95565b9392505050565b60006060820190506152ad60008301866140f5565b6152ba6020830185613d95565b6152c760408301846140cb565b949350505050565b7f5061796c6f616420666f72207769746864726177616c206e6f74206d6174636860008201527f696e670000000000000000000000000000000000000000000000000000000000602082015250565b600061532b602383614a99565b9150615336826152cf565b604082019050919050565b6000602082019050818103600083015261535a8161531e565b9050919050565b60006040820190506153766000830185613d95565b6153836020830184613e3c565b9392505050565b7f4f7264657220686173206e6f742074696d6564206f7574000000000000000000600082015250565b60006153c0601783614a99565b91506153cb8261538a565b602082019050919050565b600060208201905081810360008301526153ef816153b3565b9050919050565b7f5061796c6f616420666f7220726566756e64206e6f74206d61746368696e6700600082015250565b600061542c601f83614a99565b9150615437826153f6565b602082019050919050565b6000602082019050818103600083015261545b8161541f565b9050919050565b7f4e487b7100000000000000000000000000000000000000000000000000000000600052603260045260246000fd5b7f436c61696d206e6f7420616c6c6f776564202d20636865636b4973436c61696d60008201527f61626c65206661696c6564000000000000000000000000000000000000000000602082015250565b60006154ed602b83614a99565b91506154f882615491565b604082019050919050565b6000602082019050818103600083015261551c816154e0565b9050919050565b7f5061796c6f6164206e6f742073746f726564206f72206475706c69636174652060008201527f7061796f75740000000000000000000000000000000000000000000000000000602082015250565b600061557f602683614a99565b915061558a82615523565b604082019050919050565b600060208201905081810360008301526155ae81615572565b9050919050565b60006155c082613eda565b91507fffffffffffffffffffffffffffffffffffffffffffffffffffffffffffffffff82036155f2576155f1614e44565b5b600182019050919050565b7f496e697469616c697a61626c653a20636f6e747261637420697320616c72656160008201527f647920696e697469616c697a6564000000000000000000000000000000000000602082015250565b6000615659602e83614a99565b9150615664826155fd565b604082019050919050565b600060208201905081810360008301526156888161564c565b9050919050565b7f4f776e65722063616e6e6f74206265207a65726f206164647265737300000000600082015250565b60006156c5601c83614a99565b91506156d08261568f565b602082019050919050565b600060208201905081810360008301526156f4816156b8565b9050919050565b6000819050919050565b600060ff82169050919050565b600061572d615728615723846156fb565b61451c565b615705565b9050919050565b61573d81615712565b82525050565b60006020820190506157586000830184615734565b92915050565b7f4f6e6c79206174746573746572732076657269666965722063616e2063616c6c60008201527f20746869732066756e6374696f6e000000000000000000000000000000000000602082015250565b60006157ba602e83614a99565b91506157c58261575e565b604082019050919050565b600060208201905081810360008301526157e9816157ad565b9050919050565b60006157fb82613eda565b915061580683613eda565b925082820390508181111561581e5761581d614e44565b5b92915050565b60006080820190506158396000830187613e3c565b61584660208301866140cb565b6158536040830185613e3c565b61586060608301846140cb565b95945050505050565b60006020828403121561587f5761587e613dc9565b5b600061588d84828501613ec5565b91505092915050565b60006060820190506158ab6000830186613d95565b6158b86020830185613d95565b6158c560408301846140cb565b949350505050565b7f496e697469616c697a61626c653a20636f6e747261637420697320696e69746960008201527f616c697a696e6700000000000000000000000000000000000000000000000000602082015250565b6000615929602783614a99565b9150615934826158cd565b604082019050919050565b600060208201905081810360008301526159588161591c565b9050919050565b61596881615705565b82525050565b6000602082019050615983600083018461595f565b92915050565b7f496e697469616c697a61626c653a20636f6e7472616374206973206e6f74206960008201527f6e697469616c697a696e67000000000000000000000000000000000000000000602082015250565b60006159e5602b83614a99565b91506159f082615989565b604082019050919050565b60006020820190508181036000830152615a14816159d8565b9050919050565b7f5361666545524332303a204552433230206f7065726174696f6e20646964206e60008201527f6f74207375636365656400000000000000000000000000000000000000000000602082015250565b6000615a77602a83614a99565b9150615a8282615a1b565b604082019050919050565b60006020820190508181036000830152615aa681615a6a565b9050919050565b600081905092915050565b7f416363657373436f6e74726f6c3a206163636f756e7420000000000000000000600082015250565b6000615aee601783615aad565b9150615af982615ab8565b601782019050919050565b600081519050919050565b6000615b1a82615b04565b615b248185615aad565b9350615b348185602086016150b2565b80840191505092915050565b7f206973206d697373696e6720726f6c6520000000000000000000000000000000600082015250565b6000615b76601183615aad565b9150615b8182615b40565b601182019050919050565b6000615b9782615ae1565b9150615ba38285615b0f565b9150615bae82615b69565b9150615bba8284615b0f565b91508190509392505050565b6000615bd182615b04565b615bdb8185614a99565b9350615beb8185602086016150b2565b615bf4816141d4565b840191505092915050565b60006020820190508181036000830152615c198184615bc6565b905092915050565b7f5265656e7472616e637947756172643a207265656e7472616e742063616c6c00600082015250565b6000615c57601f83614a99565b9150615c6282615c21565b602082019050919050565b60006020820190508181036000830152615c8681615c4a565b9050919050565b6000615c9882613eda565b9150615ca383613eda565b9250828202615cb181613eda565b91508282048414831517615cc857615cc7614e44565b5b5092915050565b6000615cda82613eda565b915060008203615ced57615cec614e44565b5b600182039050919050565b7f537472696e67733a20686578206c656e67746820696e73756666696369656e74600082015250565b6000615d2e602083614a99565b9150615d3982615cf8565b602082019050919050565b60006020820190508181036000830152615d5d81615d21565b9050919050565b7f416464726573733a20696e73756666696369656e742062616c616e636520666f60008201527f722063616c6c0000000000000000000000000000000000000000000000000000602082015250565b6000615dc0602683614a99565b9150615dcb82615d64565b604082019050919050565b60006020820190508181036000830152615def81615db3565b9050919050565b600081905092915050565b6000615e0c82615096565b615e168185615df6565b9350615e268185602086016150b2565b80840191505092915050565b6000615e3e8284615e01565b915081905092915050565b7f416464726573733a2063616c6c20746f206e6f6e2d636f6e7472616374000000600082015250565b6000615e7f601d83614a99565b9150615e8a82615e49565b602082019050919050565b60006020820190508181036000830152615eae81615e72565b905091905056fea2646970667358221220aca24b3ffd5dfb410ca34b6e98df9d5bd09b9ee76b846f501bebd0a0315c06e864736f6c63430008180033",
  "linkReferences": {},
  "deployedLinkReferences": {}
}