{
  "_format": "hh-sol-artifact-1",
  "contractName": "avpBatchSubmitter",
  "sourceName": "contracts/avpBatchSubmitter.sol",
  "abi": [
    {
      "inputs": [],
      "stateMutability": "nonpayable",
      "type": "constructor"
    },
    {
      "anonymous": false,
      "inputs": [
        {
          "indexed": false,
          "internalType": "address",
          "name": "target",
          "type": "address"
        },
        {
          "indexed": false,
          "internalType": "uint256",
          "name": "totalAmount",
          "type": "uint256"
        },
        {
          "indexed": false,
          "internalType": "address",
          "name": "asset",
          "type": "address"
        },
        {
          "indexed": false,
          "internalType": "address",
          "name": "sender",
          "type": "address"
        },
        {
          "indexed": false,
          "internalType": "uint256",
          "name": "batchCount",
          "type": "uint256"
        }
      ],
      "name": "BatchConfirmation",
      "type": "event"
    },
    {
      "anonymous": false,
      "inputs": [
        {
          "indexed": true,
          "internalType": "bytes32",
          "name": "id",
          "type": "bytes32"
        },
        {
          "indexed": true,
          "internalType": "address",
          "name": "executor",
          "type": "address"
        },
        {
          "indexed": true,
          "internalType": "uint256",
          "name": "amount",
          "type": "uint256"
        },
        {
          "indexed": false,
          "internalType": "address",
          "name": "rewardAsset",
          "type": "address"
        }
      ],
      "name": "Claimed",
      "type": "event"
    },
    {
      "anonymous": false,
      "inputs": [
        {
          "indexed": true,
          "internalType": "bytes32",
          "name": "batchPayloadHash",
          "type": "bytes32"
        },
        {
          "indexed": true,
          "internalType": "address",
          "name": "beneficiary",
          "type": "address"
        }
      ],
      "name": "ClaimedBatch",
      "type": "event"
    },
    {
      "anonymous": false,
      "inputs": [
        {
          "indexed": true,
          "internalType": "bytes32",
          "name": "id",
          "type": "bytes32"
        },
        {
          "indexed": true,
          "internalType": "address",
          "name": "orderer",
          "type": "address"
        },
        {
          "indexed": true,
          "internalType": "uint256",
          "name": "amount",
          "type": "uint256"
        },
        {
          "indexed": false,
          "internalType": "address",
          "name": "rewardAsset",
          "type": "address"
        }
      ],
      "name": "ClaimedRefund",
      "type": "event"
    },
    {
      "anonymous": false,
      "inputs": [
        {
          "indexed": true,
          "internalType": "bytes32",
          "name": "id",
          "type": "bytes32"
        },
        {
          "indexed": true,
          "internalType": "address",
          "name": "target",
          "type": "address"
        },
        {
          "indexed": false,
          "internalType": "uint256",
          "name": "amount",
          "type": "uint256"
        },
        {
          "indexed": false,
          "internalType": "address",
          "name": "asset",
          "type": "address"
        },
        {
          "indexed": true,
          "internalType": "address",
          "name": "sender",
          "type": "address"
        }
      ],
      "name": "Confirmation",
      "type": "event"
    },
    {
      "anonymous": false,
      "inputs": [
        {
          "indexed": true,
          "internalType": "bytes32",
          "name": "id",
          "type": "bytes32"
        },
        {
          "indexed": true,
          "internalType": "address",
          "name": "target",
          "type": "address"
        },
        {
          "indexed": false,
          "internalType": "uint256",
          "name": "amount",
          "type": "uint256"
        },
        {
          "indexed": false,
          "internalType": "address",
          "name": "asset",
          "type": "address"
        },
        {
          "indexed": true,
          "internalType": "address",
          "name": "sender",
          "type": "address"
        }
      ],
      "name": "Confirmation",
      "type": "event"
    },
    {
      "anonymous": false,
      "inputs": [
        {
          "indexed": false,
          "internalType": "uint8",
          "name": "version",
          "type": "uint8"
        }
      ],
      "name": "Initialized",
      "type": "event"
    },
    {
      "anonymous": false,
      "inputs": [
        {
          "indexed": true,
          "internalType": "bytes32",
          "name": "id",
          "type": "bytes32"
        },
        {
          "indexed": true,
          "internalType": "bytes32",
          "name": "gmpPayload",
          "type": "bytes32"
        },
        {
          "indexed": false,
          "internalType": "bytes32",
          "name": "batchPayloadHash",
          "type": "bytes32"
        }
      ],
      "name": "NonClaimable",
      "type": "event"
    },
    {
      "anonymous": false,
      "inputs": [
        {
          "indexed": true,
          "internalType": "bytes32",
          "name": "id",
          "type": "bytes32"
        },
        {
          "indexed": true,
          "internalType": "bytes32",
          "name": "gmpPayload",
          "type": "bytes32"
        },
        {
          "indexed": false,
          "internalType": "bytes32",
          "name": "batchPayloadHash",
          "type": "bytes32"
        }
      ],
      "name": "NonRefundable",
      "type": "event"
    },
    {
      "anonymous": false,
      "inputs": [
        {
          "indexed": true,
          "internalType": "bytes32",
          "name": "role",
          "type": "bytes32"
        },
        {
          "indexed": true,
          "internalType": "bytes32",
          "name": "previousAdminRole",
          "type": "bytes32"
        },
        {
          "indexed": true,
          "internalType": "bytes32",
          "name": "newAdminRole",
          "type": "bytes32"
        }
      ],
      "name": "RoleAdminChanged",
      "type": "event"
    },
    {
      "anonymous": false,
      "inputs": [
        {
          "indexed": true,
          "internalType": "bytes32",
          "name": "role",
          "type": "bytes32"
        },
        {
          "indexed": true,
          "internalType": "address",
          "name": "account",
          "type": "address"
        },
        {
          "indexed": true,
          "internalType": "address",
          "name": "sender",
          "type": "address"
        }
      ],
      "name": "RoleGranted",
      "type": "event"
    },
    {
      "anonymous": false,
      "inputs": [
        {
          "indexed": true,
          "internalType": "bytes32",
          "name": "role",
          "type": "bytes32"
        },
        {
          "indexed": true,
          "internalType": "address",
          "name": "account",
          "type": "address"
        },
        {
          "indexed": true,
          "internalType": "address",
          "name": "sender",
          "type": "address"
        }
      ],
      "name": "RoleRevoked",
      "type": "event"
    },
    {
      "inputs": [],
      "name": "DEFAULT_ADMIN_ROLE",
      "outputs": [
        {
          "internalType": "bytes32",
          "name": "",
          "type": "bytes32"
        }
      ],
      "stateMutability": "view",
      "type": "function"
    },
    {
      "inputs": [],
      "name": "avp",
      "outputs": [
        {
          "internalType": "contract AttestationsVerifierProofs",
          "name": "",
          "type": "address"
        }
      ],
      "stateMutability": "view",
      "type": "function"
    },
    {
      "inputs": [
        {
          "internalType": "bytes32[]",
          "name": "batchHash",
          "type": "bytes32[]"
        },
        {
          "internalType": "uint256[]",
          "name": "indices",
          "type": "uint256[]"
        },
        {
          "internalType": "uint256[]",
          "name": "batcherVersions",
          "type": "uint256[]"
        }
      ],
      "name": "backdoorBatchHashMulti",
      "outputs": [],
      "stateMutability": "nonpayable",
      "type": "function"
    },
    {
      "inputs": [
        {
          "internalType": "bytes32[]",
          "name": "orderId",
          "type": "bytes32[]"
        },
        {
          "internalType": "address[]",
          "name": "rewardAsset",
          "type": "address[]"
        },
        {
          "internalType": "uint256[]",
          "name": "maxReward",
          "type": "uint256[]"
        },
        {
          "internalType": "uint256[]",
          "name": "orderTimestamp",
          "type": "uint256[]"
        },
        {
          "internalType": "bytes32",
          "name": "_batchPayloadHash",
          "type": "bytes32"
        },
        {
          "internalType": "bytes",
          "name": "_batchPayload",
          "type": "bytes"
        }
      ],
      "name": "claimPayoutBatch",
      "outputs": [],
      "stateMutability": "nonpayable",
      "type": "function"
    },
    {
      "inputs": [
        {
          "internalType": "bytes32[][]",
          "name": "orderId",
          "type": "bytes32[][]"
        },
        {
          "internalType": "address[][]",
          "name": "rewardAsset",
          "type": "address[][]"
        },
        {
          "internalType": "uint256[][]",
          "name": "maxReward",
          "type": "uint256[][]"
        },
        {
          "internalType": "uint256[][]",
          "name": "orderTimestamp",
          "type": "uint256[][]"
        },
        {
          "internalType": "bytes32",
          "name": "_batchPayloadHash",
          "type": "bytes32"
        },
        {
          "internalType": "bytes",
          "name": "_batchPayload",
          "type": "bytes"
        }
      ],
      "name": "claimPayoutBatches",
      "outputs": [],
      "stateMutability": "nonpayable",
      "type": "function"
    },
    {
      "inputs": [
        {
          "internalType": "uint32[]",
          "name": "orderNonce",
          "type": "uint32[]"
        },
        {
          "internalType": "address[]",
          "name": "rewardAsset",
          "type": "address[]"
        },
        {
          "internalType": "uint256[]",
          "name": "maxReward",
          "type": "uint256[]"
        },
        {
          "internalType": "uint256[]",
          "name": "orderTimestamp",
          "type": "uint256[]"
        }
      ],
      "name": "claimRefundV1Batch",
      "outputs": [],
      "stateMutability": "nonpayable",
      "type": "function"
    },
    {
      "inputs": [
        {
          "internalType": "uint32[]",
          "name": "orderNonce",
          "type": "uint32[]"
        },
        {
          "internalType": "address[]",
          "name": "rewardAsset",
          "type": "address[]"
        },
        {
          "internalType": "uint256[]",
          "name": "maxReward",
          "type": "uint256[]"
        },
        {
          "internalType": "uint256[]",
          "name": "orderTimestamp",
          "type": "uint256[]"
        },
        {
          "internalType": "address",
          "name": "_beneficiary",
          "type": "address"
        }
      ],
      "name": "claimRefundV2Batch",
      "outputs": [],
      "stateMutability": "nonpayable",
      "type": "function"
    },
    {
      "inputs": [
        {
          "internalType": "uint32[][]",
          "name": "orderNonce",
          "type": "uint32[][]"
        },
        {
          "internalType": "address[][]",
          "name": "rewardAsset",
          "type": "address[][]"
        },
        {
          "internalType": "uint256[][]",
          "name": "maxReward",
          "type": "uint256[][]"
        },
        {
          "internalType": "uint256[][]",
          "name": "orderTimestamp",
          "type": "uint256[][]"
        },
        {
          "internalType": "address[]",
          "name": "_beneficiary",
          "type": "address[]"
        }
      ],
      "name": "claimRefundV2Batches",
      "outputs": [],
      "stateMutability": "nonpayable",
      "type": "function"
    },
    {
      "inputs": [
        {
          "internalType": "address[]",
          "name": "_beneficiary",
          "type": "address[]"
        },
        {
          "internalType": "uint32[]",
          "name": "orderNonce",
          "type": "uint32[]"
        },
        {
          "internalType": "address[]",
          "name": "rewardAsset",
          "type": "address[]"
        },
        {
          "internalType": "uint256[]",
          "name": "maxReward",
          "type": "uint256[]"
        },
        {
          "internalType": "bytes32",
          "name": "_batchPayloadHash",
          "type": "bytes32"
        },
        {
          "internalType": "bytes",
          "name": "_batchPayload",
          "type": "bytes"
        }
      ],
      "name": "claimRefundV2OfBatch",
      "outputs": [],
      "stateMutability": "nonpayable",
      "type": "function"
    },
    {
      "inputs": [],
      "name": "claimer",
      "outputs": [
        {
          "internalType": "contract ClaimerGMPV2",
          "name": "",
          "type": "address"
        }
      ],
      "stateMutability": "view",
      "type": "function"
    },
    {
      "inputs": [
        {
          "internalType": "bytes32[]",
          "name": "ids",
          "type": "bytes32[]"
        },
        {
          "internalType": "address payable[]",
          "name": "targets",
          "type": "address[]"
        },
        {
          "internalType": "uint256[]",
          "name": "amounts",
          "type": "uint256[]"
        },
        {
          "internalType": "address[]",
          "name": "assets",
          "type": "address[]"
        }
      ],
      "name": "confirmBatchOrders",
      "outputs": [
        {
          "internalType": "bool",
          "name": "",
          "type": "bool"
        }
      ],
      "stateMutability": "payable",
      "type": "function"
    },
    {
      "inputs": [],
      "name": "escrowGMP",
      "outputs": [
        {
          "internalType": "contract EscrowGMP",
          "name": "",
          "type": "address"
        }
      ],
      "stateMutability": "view",
      "type": "function"
    },
    {
      "inputs": [
        {
          "internalType": "bytes32",
          "name": "role",
          "type": "bytes32"
        }
      ],
      "name": "getRoleAdmin",
      "outputs": [
        {
          "internalType": "bytes32",
          "name": "",
          "type": "bytes32"
        }
      ],
      "stateMutability": "view",
      "type": "function"
    },
    {
      "inputs": [
        {
          "internalType": "bytes32",
          "name": "role",
          "type": "bytes32"
        },
        {
          "internalType": "address",
          "name": "account",
          "type": "address"
        }
      ],
      "name": "grantRole",
      "outputs": [],
      "stateMutability": "nonpayable",
      "type": "function"
    },
    {
      "inputs": [
        {
          "internalType": "bytes32",
          "name": "role",
          "type": "bytes32"
        },
        {
          "internalType": "address",
          "name": "account",
          "type": "address"
        }
      ],
      "name": "hasRole",
      "outputs": [
        {
          "internalType": "bool",
          "name": "",
          "type": "bool"
        }
      ],
      "stateMutability": "view",
      "type": "function"
    },
    {
      "inputs": [
        {
          "internalType": "uint256",
          "name": "",
          "type": "uint256"
        }
      ],
      "name": "highestIndexBackdoor",
      "outputs": [
        {
          "internalType": "uint256",
          "name": "",
          "type": "uint256"
        }
      ],
      "stateMutability": "view",
      "type": "function"
    },
    {
      "inputs": [
        {
          "internalType": "address",
          "name": "_owner",
          "type": "address"
        }
      ],
      "name": "initialize",
      "outputs": [],
      "stateMutability": "nonpayable",
      "type": "function"
    },
    {
      "inputs": [
        {
          "internalType": "uint256",
          "name": "",
          "type": "uint256"
        }
      ],
      "name": "lowestIndexBackdoor",
      "outputs": [
        {
          "internalType": "uint256",
          "name": "",
          "type": "uint256"
        }
      ],
      "stateMutability": "view",
      "type": "function"
    },
    {
      "inputs": [
        {
          "internalType": "address",
          "name": "",
          "type": "address"
        }
      ],
      "name": "operators",
      "outputs": [
        {
          "internalType": "bool",
          "name": "",
          "type": "bool"
        }
      ],
      "stateMutability": "view",
      "type": "function"
    },
    {
      "inputs": [
        {
          "internalType": "bytes[]",
          "name": "batchPayload",
          "type": "bytes[]"
        },
        {
          "internalType": "bytes[]",
          "name": "messageGMPPayload",
          "type": "bytes[]"
        },
        {
          "internalType": "bytes[][]",
          "name": "signatures",
          "type": "bytes[][]"
        },
        {
          "internalType": "bytes32[][]",
          "name": "multiProofProof",
          "type": "bytes32[][]"
        },
        {
          "internalType": "bool[][]",
          "name": "multiProofMembershipFlags",
          "type": "bool[][]"
        }
      ],
      "name": "receiveAttestationBatchMulti",
      "outputs": [],
      "stateMutability": "nonpayable",
      "type": "function"
    },
    {
      "inputs": [
        {
          "internalType": "bytes32",
          "name": "role",
          "type": "bytes32"
        },
        {
          "internalType": "address",
          "name": "account",
          "type": "address"
        }
      ],
      "name": "renounceRole",
      "outputs": [],
      "stateMutability": "nonpayable",
      "type": "function"
    },
    {
      "inputs": [
        {
          "internalType": "bytes32",
          "name": "role",
          "type": "bytes32"
        },
        {
          "internalType": "address",
          "name": "account",
          "type": "address"
        }
      ],
      "name": "revokeRole",
      "outputs": [],
      "stateMutability": "nonpayable",
      "type": "function"
    },
    {
      "inputs": [],
      "name": "ro",
      "outputs": [
        {
          "internalType": "contract RemoteOrder",
          "name": "",
          "type": "address"
        }
      ],
      "stateMutability": "view",
      "type": "function"
    },
    {
      "inputs": [
        {
          "internalType": "contract AttestationsVerifierProofs",
          "name": "_avp",
          "type": "address"
        }
      ],
      "name": "setAVP",
      "outputs": [],
      "stateMutability": "nonpayable",
      "type": "function"
    },
    {
      "inputs": [
        {
          "internalType": "contract ClaimerGMPV2",
          "name": "_claimer",
          "type": "address"
        }
      ],
      "name": "setClaimer",
      "outputs": [],
      "stateMutability": "nonpayable",
      "type": "function"
    },
    {
      "inputs": [
        {
          "internalType": "contract EscrowGMP",
          "name": "_escrowGMP",
          "type": "address"
        }
      ],
      "name": "setEscrowGMP",
      "outputs": [],
      "stateMutability": "nonpayable",
      "type": "function"
    },
    {
      "inputs": [
        {
          "internalType": "address",
          "name": "_operator",
          "type": "address"
        }
      ],
      "name": "setOperator",
      "outputs": [],
      "stateMutability": "nonpayable",
      "type": "function"
    },
    {
      "inputs": [
        {
          "internalType": "contract RemoteOrder",
          "name": "_ro",
          "type": "address"
        }
      ],
      "name": "setRO",
      "outputs": [],
      "stateMutability": "nonpayable",
      "type": "function"
    },
    {
      "inputs": [
        {
          "internalType": "bytes32",
          "name": "_version",
          "type": "bytes32"
        }
      ],
      "name": "setVersion",
      "outputs": [],
      "stateMutability": "nonpayable",
      "type": "function"
    },
    {
      "inputs": [
        {
          "internalType": "bytes4",
          "name": "interfaceId",
          "type": "bytes4"
        }
      ],
      "name": "supportsInterface",
      "outputs": [
        {
          "internalType": "bool",
          "name": "",
          "type": "bool"
        }
      ],
      "stateMutability": "view",
      "type": "function"
    },
    {
      "inputs": [],
      "name": "version",
      "outputs": [
        {
          "internalType": "bytes32",
          "name": "",
          "type": "bytes32"
        }
      ],
      "stateMutability": "view",
      "type": "function"
    }
  ],
  "bytecode": "0x60806040523480156200001157600080fd5b50620000226200002860201b60201c565b620001d2565b600060019054906101000a900460ff16156200007b576040517f08c379a0000000000000000000000000000000000000000000000000000000008152600401620000729062000175565b60405180910390fd5b60ff801660008054906101000a900460ff1660ff1614620000ec5760ff6000806101000a81548160ff021916908360ff1602179055507f7f26b83ff96e1f2b6a682f133852f6798a09c465da95921460cefb384740249860ff604051620000e39190620001b5565b60405180910390a15b565b600082825260208201905092915050565b7f496e697469616c697a61626c653a20636f6e747261637420697320696e69746960008201527f616c697a696e6700000000000000000000000000000000000000000000000000602082015250565b60006200015d602783620000ee565b91506200016a82620000ff565b604082019050919050565b6000602082019050818103600083015262000190816200014e565b9050919050565b600060ff82169050919050565b620001af8162000197565b82525050565b6000602082019050620001cc6000830184620001a4565b92915050565b615fd480620001e26000396000f3fe6080604052600436106101d85760003560e01c80639ca5558911610102578063cdfb583211610095578063d919ac6411610064578063d919ac64146106a3578063e8091e33146106ce578063e96e7431146106f7578063fc1b0dbb14610722576101d8565b8063cdfb5832146105fd578063d379be2314610626578063d4baf1f214610651578063d547741f1461067a576101d8565b8063b16ce400116100d1578063b16ce40014610557578063b3ab15fb14610582578063c4d66de8146105ab578063ca5f81b5146105d4576101d8565b80639ca55589146104aa578063a217fddf146104d3578063a68f31d1146104fe578063aadcdc4f1461052e576101d8565b80633562c20b1161017a578063598ae1f211610149578063598ae1f2146103de578063613bf8981461041b5780636eda1df51461044457806391d148541461046d576101d8565b80633562c20b1461033857806336568abe146103615780633986dc581461038a57806354fd4d50146103b3576101d8565b8063248a9ca3116101b6578063248a9ca3146102805780632574cc9a146102bd5780632f2ff15d146102e65780632ff3be951461030f576101d8565b806301ffc9a7146101dd57806303a00aa61461021a57806313e7c9d814610243575b600080fd5b3480156101e957600080fd5b5061020460048036038101906101ff91906139d1565b61075f565b6040516102119190613a19565b60405180910390f35b34801561022657600080fd5b50610241600480360381019061023c9190613aa4565b6107d9565b005b34801561024f57600080fd5b5061026a60048036038101906102659190613afd565b610869565b6040516102779190613a19565b60405180910390f35b34801561028c57600080fd5b506102a760048036038101906102a29190613b60565b610889565b6040516102b49190613b9c565b60405180910390f35b3480156102c957600080fd5b506102e460048036038101906102df9190613d1e565b6108a9565b005b3480156102f257600080fd5b5061030d60048036038101906103089190613e3b565b610b3d565b005b34801561031b57600080fd5b5061033660048036038101906103319190613f7d565b610b5e565b005b34801561034457600080fd5b5061035f600480360381019061035a91906140b7565b610c10565b005b34801561036d57600080fd5b5061038860048036038101906103839190613e3b565b610ca0565b005b34801561039657600080fd5b506103b160048036038101906103ac9190614190565b610d23565b005b3480156103bf57600080fd5b506103c8610fc6565b6040516103d59190613b9c565b60405180910390f35b3480156103ea57600080fd5b50610405600480360381019061040091906142f7565b610fcc565b6040516104129190614333565b60405180910390f35b34801561042757600080fd5b50610442600480360381019061043d919061434e565b610fe4565b005b34801561045057600080fd5b5061046b60048036038101906104669190614581565b6110eb565b005b34801561047957600080fd5b50610494600480360381019061048f9190613e3b565b6111d5565b6040516104a19190613a19565b60405180910390f35b3480156104b657600080fd5b506104d160048036038101906104cc91906146ee565b611240565b005b3480156104df57600080fd5b506104e86112d0565b6040516104f59190613b9c565b60405180910390f35b61051860048036038101906105139190614771565b6112d7565b6040516105259190613a19565b60405180910390f35b34801561053a57600080fd5b506105556004803603810190610550919061485a565b61196a565b005b34801561056357600080fd5b5061056c611b0b565b60405161057991906149a2565b60405180910390f35b34801561058e57600080fd5b506105a960048036038101906105a49190613afd565b611b31565b005b3480156105b757600080fd5b506105d260048036038101906105cd9190613afd565b611bd8565b005b3480156105e057600080fd5b506105fb60048036038101906105f69190613b60565b611d24565b005b34801561060957600080fd5b50610624600480360381019061061f91906149fb565b611d7a565b005b34801561063257600080fd5b5061063b611e0a565b6040516106489190614a49565b60405180910390f35b34801561065d57600080fd5b5061067860048036038101906106739190614a64565b611e30565b005b34801561068657600080fd5b506106a1600480360381019061069c9190613e3b565b6120c8565b005b3480156106af57600080fd5b506106b86120e9565b6040516106c59190614b4b565b60405180910390f35b3480156106da57600080fd5b506106f560048036038101906106f09190614b66565b61210f565b005b34801561070357600080fd5b5061070c6122b5565b6040516107199190614cb8565b60405180910390f35b34801561072e57600080fd5b50610749600480360381019061074491906142f7565b6122db565b6040516107569190614333565b60405180910390f35b60007f7965db0b000000000000000000000000000000000000000000000000000000007bffffffffffffffffffffffffffffffffffffffffffffffffffffffff1916827bffffffffffffffffffffffffffffffffffffffffffffffffffffffff191614806107d257506107d1826122f3565b5b9050919050565b6107e66000801b336111d5565b610825576040517f08c379a000000000000000000000000000000000000000000000000000000000815260040161081c90614d30565b60405180910390fd5b80609a60006101000a81548173ffffffffffffffffffffffffffffffffffffffff021916908373ffffffffffffffffffffffffffffffffffffffff16021790555050565b609e6020528060005260406000206000915054906101000a900460ff1681565b600060656000838152602001908152602001600020600101549050919050565b878790508a8a9050146108f1576040517f08c379a00000000000000000000000000000000000000000000000000000000081526004016108e890614d30565b60405180910390fd5b858590508a8a905014610939576040517f08c379a000000000000000000000000000000000000000000000000000000000815260040161093090614d30565b60405180910390fd5b838390508a8a905014610981576040517f08c379a000000000000000000000000000000000000000000000000000000000815260040161097890614d30565b60405180910390fd5b818190508a8a9050146109c9576040517f08c379a00000000000000000000000000000000000000000000000000000000081526004016109c090614d30565b60405180910390fd5b60005b8a8a9050811015610b3057609a60009054906101000a900473ffffffffffffffffffffffffffffffffffffffff1673ffffffffffffffffffffffffffffffffffffffff1663aba0880f8c8c84818110610a2857610a27614d50565b5b9050602002810190610a3a9190614d8e565b8c8c86818110610a4d57610a4c614d50565b5b9050602002810190610a5f9190614d8e565b8c8c88818110610a7257610a71614d50565b5b9050602002810190610a849190614df1565b8c8c8a818110610a9757610a96614d50565b5b9050602002810190610aa99190614e54565b8c8c8c818110610abc57610abb614d50565b5b9050602002810190610ace9190614eb7565b6040518b63ffffffff1660e01b8152600401610af39a99989796959493929190615246565b600060405180830381600087803b158015610b0d57600080fd5b505af1158015610b21573d6000803e3d6000fd5b505050508060010190506109cc565b5050505050505050505050565b610b4682610889565b610b4f8161235d565b610b598383612371565b505050565b60005b89899050811015610c0457610bf98a8a83818110610b8257610b81614d50565b5b9050602002016020810190610b979190615302565b898984818110610baa57610ba9614d50565b5b9050602002016020810190610bbf9190613afd565b888885818110610bd257610bd1614d50565b5b90506020020135878786818110610bec57610beb614d50565b5b9050602002013586612452565b806001019050610b61565b50505050505050505050565b610c1d6000801b336111d5565b610c5c576040517f08c379a0000000000000000000000000000000000000000000000000000000008152600401610c5390614d30565b60405180910390fd5b80609c60006101000a81548173ffffffffffffffffffffffffffffffffffffffff021916908373ffffffffffffffffffffffffffffffffffffffff16021790555050565b610ca8612c79565b73ffffffffffffffffffffffffffffffffffffffff168173ffffffffffffffffffffffffffffffffffffffff1614610d15576040517f08c379a0000000000000000000000000000000000000000000000000000000008152600401610d0c906153a1565b60405180910390fd5b610d1f8282612c81565b5050565b600073ffffffffffffffffffffffffffffffffffffffff16609c60009054906101000a900473ffffffffffffffffffffffffffffffffffffffff1673ffffffffffffffffffffffffffffffffffffffff1603610db4576040517f08c379a0000000000000000000000000000000000000000000000000000000008152600401610dab90614d30565b60405180910390fd5b600073ffffffffffffffffffffffffffffffffffffffff16609b60009054906101000a900473ffffffffffffffffffffffffffffffffffffffff1673ffffffffffffffffffffffffffffffffffffffff1603610e45576040517f08c379a0000000000000000000000000000000000000000000000000000000008152600401610e3c90614d30565b60405180910390fd5b600033905060018c8c9050610e5a91906153f0565b8a8a905003610e9d57898960018c8c9050610e759190615424565b818110610e8557610e84614d50565b5b9050602002016020810190610e9a9190613afd565b90505b600073ffffffffffffffffffffffffffffffffffffffff168173ffffffffffffffffffffffffffffffffffffffff1603610ed75750610fb9565b60005b8c8c9050811015610f7257610f678d8d83818110610efb57610efa614d50565b5b905060200201358c8c84818110610f1557610f14614d50565b5b9050602002016020810190610f2a9190613afd565b8b8b85818110610f3d57610f3c614d50565b5b905060200201358a8a86818110610f5757610f56614d50565b5b9050602002013589898989612d63565b806001019050610eda565b508073ffffffffffffffffffffffffffffffffffffffff16847f2034f971b776c93622715c12b10bb696348e6ca12d5bb03e87cded872fba55bb60405160405180910390a3505b5050505050505050505050565b60975481565b60996020528060005260406000206000915090505481565b60005b898990508110156110dd576110d28c8c8381811061100857611007614d50565b5b905060200201602081019061101d9190613afd565b8b8b848181106110305761102f614d50565b5b90506020020160208101906110459190615302565b8a8a8581811061105857611057614d50565b5b905060200201602081019061106d9190613afd565b8989868181106110805761107f614d50565b5b905060200201358888888080601f016020809104026020016040519081016040528093929190818152602001838380828437600081840152601f19601f82011690508083019250505050505050613040565b806001019050610fe7565b505050505050505050505050565b60005b828290508110156111c8576111bd8b8b8381811061110f5761110e614d50565b5b90506020028101906111219190615458565b8b8b8581811061113457611133614d50565b5b905060200281019061114691906154bb565b8b8b8781811061115957611158614d50565b5b905060200281019061116b919061551e565b8b8b8981811061117e5761117d614d50565b5b9050602002810190611190919061551e565b8b8b8b8181106111a3576111a2614d50565b5b90506020020160208101906111b89190613afd565b610b5e565b8060010190506110ee565b5050505050505050505050565b60006065600084815260200190815260200160002060000160008373ffffffffffffffffffffffffffffffffffffffff1673ffffffffffffffffffffffffffffffffffffffff16815260200190815260200160002060009054906101000a900460ff16905092915050565b61124d6000801b336111d5565b61128c576040517f08c379a000000000000000000000000000000000000000000000000000000000815260040161128390614d30565b60405180910390fd5b80609b60006101000a81548173ffffffffffffffffffffffffffffffffffffffff021916908373ffffffffffffffffffffffffffffffffffffffff16021790555050565b6000801b81565b6000868690508989905014611321576040517f08c379a000000000000000000000000000000000000000000000000000000000815260040161131890614d30565b60405180910390fd5b60008989905067ffffffffffffffff8111156113405761133f615581565b5b60405190808252806020026020018201604052801561137957816020015b611366613922565b81526020019060019003908161135e5790505b5090506000805b8b8b90508110156118255760008c8c838181106113a05761139f614d50565b5b905060200201358b8b848181106113ba576113b9614d50565b5b90506020020160208101906113cf91906155dc565b8a8a858181106113e2576113e1614d50565b5b905060200201358989868181106113fc576113fb614d50565b5b90506020020160208101906114119190613afd565b33604051602001611426959493929190615627565b6040516020818303038152906040528051906020012090506000801b609b60009054906101000a900473ffffffffffffffffffffffffffffffffffffffff1673ffffffffffffffffffffffffffffffffffffffff1663db7a6aa7836040518263ffffffff1660e01b815260040161149d9190613b9c565b602060405180830381865afa1580156114ba573d6000803e3d6000fd5b505050506040513d601f19601f820116820180604052508101906114de919061568f565b146114e95750611818565b6000805b8481101561164c578c8c8581811061150857611507614d50565b5b905060200201602081019061151d91906155dc565b73ffffffffffffffffffffffffffffffffffffffff1686828151811061154657611545614d50565b5b60200260200101516000015173ffffffffffffffffffffffffffffffffffffffff161480156115e5575088888581811061158357611582614d50565b5b90506020020160208101906115989190613afd565b73ffffffffffffffffffffffffffffffffffffffff168682815181106115c1576115c0614d50565b5b60200260200101516020015173ffffffffffffffffffffffffffffffffffffffff16145b1561163f578a8a858181106115fd576115fc614d50565b5b9050602002013586828151811061161757611616614d50565b5b602002602001015160400181815161162f91906153f0565b915081815250506001915061164c565b80806001019150506114ed565b508061172d5760405180606001604052808d8d868181106116705761166f614d50565b5b905060200201602081019061168591906155dc565b73ffffffffffffffffffffffffffffffffffffffff1681526020018989868181106116b3576116b2614d50565b5b90506020020160208101906116c89190613afd565b73ffffffffffffffffffffffffffffffffffffffff1681526020018b8b868181106116f6576116f5614d50565b5b9050602002013581525085858151811061171357611712614d50565b5b60200260200101819052508380611729906156bc565b9450505b3373ffffffffffffffffffffffffffffffffffffffff168c8c8581811061175757611756614d50565b5b905060200201602081019061176c91906155dc565b73ffffffffffffffffffffffffffffffffffffffff168f8f8681811061179557611794614d50565b5b905060200201357f9b6b927a15db2ff3d6b64c3fe4884ab3f2a07a59ef5a477a9f314bc729bf41808d8d888181106117d0576117cf614d50565b5b905060200201358c8c898181106117ea576117e9614d50565b5b90506020020160208101906117ff9190613afd565b60405161180d929190615704565b60405180910390a450505b8080600101915050611380565b5060005b8181101561195557600083828151811061184657611845614d50565b5b60200260200101519050609b60009054906101000a900473ffffffffffffffffffffffffffffffffffffffff1673ffffffffffffffffffffffffffffffffffffffff16636a91373e82604001518360400151846020015185600001513360066000801b6040518863ffffffff1660e01b81526004016118ca96959493929190615796565b6000604051808303818588803b1580156118e357600080fd5b505af11580156118f7573d6000803e3d6000fd5b50505050507f11b21285cae68a34ae0bb9f7b5c6a5e8d02aa606c75c3cf2364ea4e52938d62b816000015182604001518360200151338760405161193f9594939291906157f7565b60405180910390a1508080600101915050611829565b50600081119250505098975050505050505050565b858590508888905014801561198457508383905088889050145b801561199557508181905088889050145b6119d4576040517f08c379a00000000000000000000000000000000000000000000000000000000081526004016119cb90614d30565b60405180910390fd5b60005b88889050811015611b0057609b60009054906101000a900473ffffffffffffffffffffffffffffffffffffffff1673ffffffffffffffffffffffffffffffffffffffff166381813c8b8a8a84818110611a3357611a32614d50565b5b9050602002016020810190611a489190615302565b898985818110611a5b57611a5a614d50565b5b9050602002016020810190611a709190613afd565b888886818110611a8357611a82614d50565b5b90506020020135878787818110611a9d57611a9c614d50565b5b905060200201356040518563ffffffff1660e01b8152600401611ac39493929190615859565b600060405180830381600087803b158015611add57600080fd5b505af1158015611af1573d6000803e3d6000fd5b505050508060010190506119d7565b505050505050505050565b609a60009054906101000a900473ffffffffffffffffffffffffffffffffffffffff1681565b611b3e6000801b336111d5565b611b7d576040517f08c379a0000000000000000000000000000000000000000000000000000000008152600401611b7490614d30565b60405180910390fd5b6001609e60008373ffffffffffffffffffffffffffffffffffffffff1673ffffffffffffffffffffffffffffffffffffffff16815260200190815260200160002060006101000a81548160ff02191690831515021790555050565b60008060019054906101000a900460ff16159050808015611c095750600160008054906101000a900460ff1660ff16105b80611c365750611c18306135c0565b158015611c355750600160008054906101000a900460ff1660ff16145b5b611c75576040517f08c379a0000000000000000000000000000000000000000000000000000000008152600401611c6c90615910565b60405180910390fd5b60016000806101000a81548160ff021916908360ff1602179055508015611cb2576001600060016101000a81548160ff0219169083151502179055505b611cba6135e3565b611cc76000801b83612371565b8015611d205760008060016101000a81548160ff0219169083151502179055507f7f26b83ff96e1f2b6a682f133852f6798a09c465da95921460cefb38474024986001604051611d17919061596b565b60405180910390a15b5050565b611d316000801b336111d5565b611d70576040517f08c379a0000000000000000000000000000000000000000000000000000000008152600401611d6790614d30565b60405180910390fd5b8060978190555050565b611d876000801b336111d5565b611dc6576040517f08c379a0000000000000000000000000000000000000000000000000000000008152600401611dbd90614d30565b60405180910390fd5b80609d60006101000a81548173ffffffffffffffffffffffffffffffffffffffff021916908373ffffffffffffffffffffffffffffffffffffffff16021790555050565b609d60009054906101000a900473ffffffffffffffffffffffffffffffffffffffff1681565b611e3d6000801b336111d5565b80611e915750609e60003373ffffffffffffffffffffffffffffffffffffffff1673ffffffffffffffffffffffffffffffffffffffff16815260200190815260200160002060009054906101000a900460ff165b611ed0576040517f08c379a0000000000000000000000000000000000000000000000000000000008152600401611ec790614d30565b60405180910390fd5b60005b868690508110156120bf57609a60009054906101000a900473ffffffffffffffffffffffffffffffffffffffff1673ffffffffffffffffffffffffffffffffffffffff1663dfa0795b888884818110611f2f57611f2e614d50565b5b905060200201356040518263ffffffff1660e01b8152600401611f529190613b9c565b600060405180830381600087803b158015611f6c57600080fd5b505af1158015611f80573d6000803e3d6000fd5b5050505060986000848484818110611f9b57611f9a614d50565b5b90506020020135815260200190815260200160002054858583818110611fc457611fc3614d50565b5b90506020020135111561201c57848482818110611fe457611fe3614d50565b5b905060200201356098600085858581811061200257612001614d50565b5b905060200201358152602001908152602001600020819055505b6099600084848481811061203357612032614d50565b5b9050602002013581526020019081526020016000205485858381811061205c5761205b614d50565b5b9050602002013510156120b45784848281811061207c5761207b614d50565b5b905060200201356099600085858581811061209a57612099614d50565b5b905060200201358152602001908152602001600020819055505b806001019050611ed3565b50505050505050565b6120d182610889565b6120da8161235d565b6120e48383612c81565b505050565b609b60009054906101000a900473ffffffffffffffffffffffffffffffffffffffff1681565b609e60003373ffffffffffffffffffffffffffffffffffffffff1673ffffffffffffffffffffffffffffffffffffffff16815260200190815260200160002060009054906101000a900460ff16156121ef57609a60009054906101000a900473ffffffffffffffffffffffffffffffffffffffff1673ffffffffffffffffffffffffffffffffffffffff1663dfa0795b846040518263ffffffff1660e01b81526004016121bc9190613b9c565b600060405180830381600087803b1580156121d657600080fd5b505af11580156121ea573d6000803e3d6000fd5b505050505b60005b8b8b90508110156122a75761229c8c8c8381811061221357612212614d50565b5b90506020028101906122259190614e54565b8c8c8581811061223857612237614d50565b5b905060200281019061224a91906154bb565b8c8c8781811061225d5761225c614d50565b5b905060200281019061226f919061551e565b8c8c8981811061228257612281614d50565b5b9050602002810190612294919061551e565b8c8c8c610d23565b8060010190506121f2565b505050505050505050505050565b609c60009054906101000a900473ffffffffffffffffffffffffffffffffffffffff1681565b60986020528060005260406000206000915090505481565b60007f01ffc9a7000000000000000000000000000000000000000000000000000000007bffffffffffffffffffffffffffffffffffffffffffffffffffffffff1916827bffffffffffffffffffffffffffffffffffffffffffffffffffffffff1916149050919050565b61236e81612369612c79565b613634565b50565b61237b82826111d5565b61244e5760016065600084815260200190815260200160002060000160008373ffffffffffffffffffffffffffffffffffffffff1673ffffffffffffffffffffffffffffffffffffffff16815260200190815260200160002060006101000a81548160ff0219169083151502179055506123f3612c79565b73ffffffffffffffffffffffffffffffffffffffff168173ffffffffffffffffffffffffffffffffffffffff16837f2f8788117e7eff1d82e926ec794901d17c78024a50270940304540a733656f0d60405160405180910390a45b5050565b609b60009054906101000a900473ffffffffffffffffffffffffffffffffffffffff1673ffffffffffffffffffffffffffffffffffffffff1663e0e84a9e836040518263ffffffff1660e01b81526004016124ad9190614333565b602060405180830381865afa1580156124ca573d6000803e3d6000fd5b505050506040513d601f19601f820116820180604052508101906124ee919061599b565b612c72576000609b60009054906101000a900473ffffffffffffffffffffffffffffffffffffffff1673ffffffffffffffffffffffffffffffffffffffff166373b3e50483886040518363ffffffff1660e01b81526004016125519291906159c8565b602060405180830381865afa15801561256e573d6000803e3d6000fd5b505050506040513d601f19601f82011682018060405250810190612592919061568f565b90506000609b60009054906101000a900473ffffffffffffffffffffffffffffffffffffffff1673ffffffffffffffffffffffffffffffffffffffff16632750092c84896040518363ffffffff1660e01b81526004016125f39291906159c8565b602060405180830381865afa158015612610573d6000803e3d6000fd5b505050506040513d601f19601f82011682018060405250810190612634919061568f565b90506000609b60009054906101000a900473ffffffffffffffffffffffffffffffffffffffff1673ffffffffffffffffffffffffffffffffffffffff1663cee7380484878a8a6040518563ffffffff1660e01b815260040161269994939291906159f1565b602060405180830381865afa1580156126b6573d6000803e3d6000fd5b505050506040513d601f19601f820116820180604052508101906126da919061599b565b90506000609b60009054906101000a900473ffffffffffffffffffffffffffffffffffffffff1673ffffffffffffffffffffffffffffffffffffffff1663cee7380484888b8b6040518563ffffffff1660e01b815260040161273f94939291906159f1565b602060405180830381865afa15801561275c573d6000803e3d6000fd5b505050506040513d601f19601f82011682018060405250810190612780919061599b565b9050818061278b5750805b1561297557609c60009054906101000a900473ffffffffffffffffffffffffffffffffffffffff1673ffffffffffffffffffffffffffffffffffffffff166313b2512a856040518263ffffffff1660e01b81526004016127eb9190613b9c565b600060405180830381600087803b15801561280557600080fd5b505af1158015612819573d6000803e3d6000fd5b50505050609c60009054906101000a900473ffffffffffffffffffffffffffffffffffffffff1673ffffffffffffffffffffffffffffffffffffffff166313b2512a846040518263ffffffff1660e01b81526004016128789190613b9c565b600060405180830381600087803b15801561289257600080fd5b505af11580156128a6573d6000803e3d6000fd5b50505050609b60009054906101000a900473ffffffffffffffffffffffffffffffffffffffff1673ffffffffffffffffffffffffffffffffffffffff16636a91373e888a88609b60009054906101000a900473ffffffffffffffffffffffffffffffffffffffff1660018861291b578961291d565b8a5b6040518763ffffffff1660e01b815260040161293e96959493929190615a36565b600060405180830381600087803b15801561295857600080fd5b505af115801561296c573d6000803e3d6000fd5b50505050612c6d565b609b60009054906101000a900473ffffffffffffffffffffffffffffffffffffffff1673ffffffffffffffffffffffffffffffffffffffff16637dba853c856040518263ffffffff1660e01b81526004016129d09190613b9c565b602060405180830381865afa1580156129ed573d6000803e3d6000fd5b505050506040513d601f19601f82011682018060405250810190612a11919061599b565b15612af257609c60009054906101000a900473ffffffffffffffffffffffffffffffffffffffff1673ffffffffffffffffffffffffffffffffffffffff1663cb9871d9856040518263ffffffff1660e01b8152600401612a719190613b9c565b602060405180830381865afa158015612a8e573d6000803e3d6000fd5b505050506040513d601f19601f82011682018060405250810190612ab2919061568f565b847f8a109116ad2044bc7f3c1f69d8664c441a87e1a5680cca6cb9e612556fd690866000801b604051612ae59190613b9c565b60405180910390a3612c6c565b609b60009054906101000a900473ffffffffffffffffffffffffffffffffffffffff1673ffffffffffffffffffffffffffffffffffffffff16637dba853c846040518263ffffffff1660e01b8152600401612b4d9190613b9c565b602060405180830381865afa158015612b6a573d6000803e3d6000fd5b505050506040513d601f19601f82011682018060405250810190612b8e919061599b565b15612c6b57609c60009054906101000a900473ffffffffffffffffffffffffffffffffffffffff1673ffffffffffffffffffffffffffffffffffffffff1663cb9871d9846040518263ffffffff1660e01b8152600401612bee9190613b9c565b602060405180830381865afa158015612c0b573d6000803e3d6000fd5b505050506040513d601f19601f82011682018060405250810190612c2f919061568f565b837f8a109116ad2044bc7f3c1f69d8664c441a87e1a5680cca6cb9e612556fd690866000801b604051612c629190613b9c565b60405180910390a35b5b5b505050505b5050505050565b600033905090565b612c8b82826111d5565b15612d5f5760006065600084815260200190815260200160002060000160008373ffffffffffffffffffffffffffffffffffffffff1673ffffffffffffffffffffffffffffffffffffffff16815260200190815260200160002060006101000a81548160ff021916908315150217905550612d04612c79565b73ffffffffffffffffffffffffffffffffffffffff168173ffffffffffffffffffffffffffffffffffffffff16837ff6391f5c32d9c69d2a47ea670b442974b53935d1edc7fd64eb21e047a839171b60405160405180910390a45b5050565b609b60009054906101000a900473ffffffffffffffffffffffffffffffffffffffff1673ffffffffffffffffffffffffffffffffffffffff16632bef39228989896000868b8b8b8b6040518a63ffffffff1660e01b8152600401612dcf99989796959493929190615ad2565b602060405180830381865afa158015612dec573d6000803e3d6000fd5b505050506040513d601f19601f82011682018060405250810190612e10919061599b565b15612f6157609c60009054906101000a900473ffffffffffffffffffffffffffffffffffffffff1673ffffffffffffffffffffffffffffffffffffffff1663a77715d0896040518263ffffffff1660e01b8152600401612e709190613b9c565b600060405180830381600087803b158015612e8a57600080fd5b505af1158015612e9e573d6000803e3d6000fd5b50505050609b60009054906101000a900473ffffffffffffffffffffffffffffffffffffffff1673ffffffffffffffffffffffffffffffffffffffff16636a91373e878984609b60009054906101000a900473ffffffffffffffffffffffffffffffffffffffff1660008e6040518763ffffffff1660e01b8152600401612f2a96959493929190615b8a565b600060405180830381600087803b158015612f4457600080fd5b505af1158015612f58573d6000803e3d6000fd5b50505050613036565b609c60009054906101000a900473ffffffffffffffffffffffffffffffffffffffff1673ffffffffffffffffffffffffffffffffffffffff1663cb9871d9896040518263ffffffff1660e01b8152600401612fbc9190613b9c565b602060405180830381865afa158015612fd9573d6000803e3d6000fd5b505050506040513d601f19601f82011682018060405250810190612ffd919061568f565b887f95a41507beea928c8ba53df25a741d94610815200dbe01eeed4ee8c3f46dedd88660405161302d9190613b9c565b60405180910390a35b5050505050505050565b6000609b60009054906101000a900473ffffffffffffffffffffffffffffffffffffffff1673ffffffffffffffffffffffffffffffffffffffff166373b3e50488886040518363ffffffff1660e01b815260040161309f9291906159c8565b602060405180830381865afa1580156130bc573d6000803e3d6000fd5b505050506040513d601f19601f820116820180604052508101906130e0919061568f565b90506000609b60009054906101000a900473ffffffffffffffffffffffffffffffffffffffff1673ffffffffffffffffffffffffffffffffffffffff16632750092c89896040518363ffffffff1660e01b81526004016131419291906159c8565b602060405180830381865afa15801561315e573d6000803e3d6000fd5b505050506040513d601f19601f82011682018060405250810190613182919061568f565b905060008060001b9050609b60009054906101000a900473ffffffffffffffffffffffffffffffffffffffff1673ffffffffffffffffffffffffffffffffffffffff16637dba853c846040518263ffffffff1660e01b81526004016131e79190613b9c565b602060405180830381865afa158015613204573d6000803e3d6000fd5b505050506040513d601f19601f82011682018060405250810190613228919061599b565b15613235578290506132e7565b609b60009054906101000a900473ffffffffffffffffffffffffffffffffffffffff1673ffffffffffffffffffffffffffffffffffffffff16637dba853c836040518263ffffffff1660e01b81526004016132909190613b9c565b602060405180830381865afa1580156132ad573d6000803e3d6000fd5b505050506040513d601f19601f820116820180604052508101906132d1919061599b565b156132de578190506132e6565b5050506135b8565b5b609d60009054906101000a900473ffffffffffffffffffffffffffffffffffffffff1673ffffffffffffffffffffffffffffffffffffffff166390f2ca328686848d8b60016040518763ffffffff1660e01b815260040161334d96959493929190615c59565b602060405180830381865afa15801561336a573d6000803e3d6000fd5b505050506040513d601f19601f8201168201806040525081019061338e919061599b565b156134df57609c60009054906101000a900473ffffffffffffffffffffffffffffffffffffffff1673ffffffffffffffffffffffffffffffffffffffff166313b2512a826040518263ffffffff1660e01b81526004016133ee9190613b9c565b600060405180830381600087803b15801561340857600080fd5b505af115801561341c573d6000803e3d6000fd5b50505050609b60009054906101000a900473ffffffffffffffffffffffffffffffffffffffff1673ffffffffffffffffffffffffffffffffffffffff16636a91373e87898c609b60009054906101000a900473ffffffffffffffffffffffffffffffffffffffff166001876040518763ffffffff1660e01b81526004016134a896959493929190615a36565b600060405180830381600087803b1580156134c257600080fd5b505af11580156134d6573d6000803e3d6000fd5b505050506135b4565b609c60009054906101000a900473ffffffffffffffffffffffffffffffffffffffff1673ffffffffffffffffffffffffffffffffffffffff1663cb9871d9826040518263ffffffff1660e01b815260040161353a9190613b9c565b602060405180830381865afa158015613557573d6000803e3d6000fd5b505050506040513d601f19601f8201168201806040525081019061357b919061568f565b817f8a109116ad2044bc7f3c1f69d8664c441a87e1a5680cca6cb9e612556fd69086876040516135ab9190613b9c565b60405180910390a35b5050505b505050505050565b6000808273ffffffffffffffffffffffffffffffffffffffff163b119050919050565b600060019054906101000a900460ff16613632576040517f08c379a000000000000000000000000000000000000000000000000000000000815260040161362990615d33565b60405180910390fd5b565b61363e82826111d5565b6136b55761364b816136b9565b6136598360001c60206136e6565b60405160200161366a929190615e32565b6040516020818303038152906040526040517f08c379a00000000000000000000000000000000000000000000000000000000081526004016136ac9190615ea5565b60405180910390fd5b5050565b60606136df8273ffffffffffffffffffffffffffffffffffffffff16601460ff166136e6565b9050919050565b6060600060028360026136f99190615ec7565b61370391906153f0565b67ffffffffffffffff81111561371c5761371b615581565b5b6040519080825280601f01601f19166020018201604052801561374e5781602001600182028036833780820191505090505b5090507f30000000000000000000000000000000000000000000000000000000000000008160008151811061378657613785614d50565b5b60200101907effffffffffffffffffffffffffffffffffffffffffffffffffffffffffffff1916908160001a9053507f7800000000000000000000000000000000000000000000000000000000000000816001815181106137ea576137e9614d50565b5b60200101907effffffffffffffffffffffffffffffffffffffffffffffffffffffffffffff1916908160001a9053506000600184600261382a9190615ec7565b61383491906153f0565b90505b60018111156138d4577f3031323334353637383961626364656600000000000000000000000000000000600f86166010811061387657613875614d50565b5b1a60f81b82828151811061388d5761388c614d50565b5b60200101907effffffffffffffffffffffffffffffffffffffffffffffffffffffffffffff1916908160001a905350600485901c9450806138cd90615f09565b9050613837565b5060008414613918576040517f08c379a000000000000000000000000000000000000000000000000000000000815260040161390f90615f7e565b60405180910390fd5b8091505092915050565b6040518060600160405280600073ffffffffffffffffffffffffffffffffffffffff168152602001600073ffffffffffffffffffffffffffffffffffffffff168152602001600081525090565b600080fd5b600080fd5b60007fffffffff0000000000000000000000000000000000000000000000000000000082169050919050565b6139ae81613979565b81146139b957600080fd5b50565b6000813590506139cb816139a5565b92915050565b6000602082840312156139e7576139e661396f565b5b60006139f5848285016139bc565b91505092915050565b60008115159050919050565b613a13816139fe565b82525050565b6000602082019050613a2e6000830184613a0a565b92915050565b600073ffffffffffffffffffffffffffffffffffffffff82169050919050565b6000613a5f82613a34565b9050919050565b6000613a7182613a54565b9050919050565b613a8181613a66565b8114613a8c57600080fd5b50565b600081359050613a9e81613a78565b92915050565b600060208284031215613aba57613ab961396f565b5b6000613ac884828501613a8f565b91505092915050565b613ada81613a54565b8114613ae557600080fd5b50565b600081359050613af781613ad1565b92915050565b600060208284031215613b1357613b1261396f565b5b6000613b2184828501613ae8565b91505092915050565b6000819050919050565b613b3d81613b2a565b8114613b4857600080fd5b50565b600081359050613b5a81613b34565b92915050565b600060208284031215613b7657613b7561396f565b5b6000613b8484828501613b4b565b91505092915050565b613b9681613b2a565b82525050565b6000602082019050613bb16000830184613b8d565b92915050565b600080fd5b600080fd5b600080fd5b60008083601f840112613bdc57613bdb613bb7565b5b8235905067ffffffffffffffff811115613bf957613bf8613bbc565b5b602083019150836020820283011115613c1557613c14613bc1565b5b9250929050565b60008083601f840112613c3257613c31613bb7565b5b8235905067ffffffffffffffff811115613c4f57613c4e613bbc565b5b602083019150836020820283011115613c6b57613c6a613bc1565b5b9250929050565b60008083601f840112613c8857613c87613bb7565b5b8235905067ffffffffffffffff811115613ca557613ca4613bbc565b5b602083019150836020820283011115613cc157613cc0613bc1565b5b9250929050565b60008083601f840112613cde57613cdd613bb7565b5b8235905067ffffffffffffffff811115613cfb57613cfa613bbc565b5b602083019150836020820283011115613d1757613d16613bc1565b5b9250929050565b60008060008060008060008060008060a08b8d031215613d4157613d4061396f565b5b60008b013567ffffffffffffffff811115613d5f57613d5e613974565b5b613d6b8d828e01613bc6565b9a509a505060208b013567ffffffffffffffff811115613d8e57613d8d613974565b5b613d9a8d828e01613bc6565b985098505060408b013567ffffffffffffffff811115613dbd57613dbc613974565b5b613dc98d828e01613c1c565b965096505060608b013567ffffffffffffffff811115613dec57613deb613974565b5b613df88d828e01613c72565b945094505060808b013567ffffffffffffffff811115613e1b57613e1a613974565b5b613e278d828e01613cc8565b92509250509295989b9194979a5092959850565b60008060408385031215613e5257613e5161396f565b5b6000613e6085828601613b4b565b9250506020613e7185828601613ae8565b9150509250929050565b60008083601f840112613e9157613e90613bb7565b5b8235905067ffffffffffffffff811115613eae57613ead613bbc565b5b602083019150836020820283011115613eca57613ec9613bc1565b5b9250929050565b60008083601f840112613ee757613ee6613bb7565b5b8235905067ffffffffffffffff811115613f0457613f03613bbc565b5b602083019150836020820283011115613f2057613f1f613bc1565b5b9250929050565b60008083601f840112613f3d57613f3c613bb7565b5b8235905067ffffffffffffffff811115613f5a57613f59613bbc565b5b602083019150836020820283011115613f7657613f75613bc1565b5b9250929050565b600080600080600080600080600060a08a8c031215613f9f57613f9e61396f565b5b60008a013567ffffffffffffffff811115613fbd57613fbc613974565b5b613fc98c828d01613e7b565b995099505060208a013567ffffffffffffffff811115613fec57613feb613974565b5b613ff88c828d01613ed1565b975097505060408a013567ffffffffffffffff81111561401b5761401a613974565b5b6140278c828d01613f27565b955095505060608a013567ffffffffffffffff81111561404a57614049613974565b5b6140568c828d01613f27565b935093505060806140698c828d01613ae8565b9150509295985092959850929598565b600061408482613a54565b9050919050565b61409481614079565b811461409f57600080fd5b50565b6000813590506140b18161408b565b92915050565b6000602082840312156140cd576140cc61396f565b5b60006140db848285016140a2565b91505092915050565b60008083601f8401126140fa576140f9613bb7565b5b8235905067ffffffffffffffff81111561411757614116613bbc565b5b60208301915083602082028301111561413357614132613bc1565b5b9250929050565b60008083601f8401126141505761414f613bb7565b5b8235905067ffffffffffffffff81111561416d5761416c613bbc565b5b60208301915083600182028301111561418957614188613bc1565b5b9250929050565b600080600080600080600080600080600060c08c8e0312156141b5576141b461396f565b5b60008c013567ffffffffffffffff8111156141d3576141d2613974565b5b6141df8e828f016140e4565b9b509b505060208c013567ffffffffffffffff81111561420257614201613974565b5b61420e8e828f01613ed1565b995099505060408c013567ffffffffffffffff81111561423157614230613974565b5b61423d8e828f01613f27565b975097505060608c013567ffffffffffffffff8111156142605761425f613974565b5b61426c8e828f01613f27565b9550955050608061427f8e828f01613b4b565b93505060a08c013567ffffffffffffffff8111156142a05761429f613974565b5b6142ac8e828f0161413a565b92509250509295989b509295989b9093969950565b6000819050919050565b6142d4816142c1565b81146142df57600080fd5b50565b6000813590506142f1816142cb565b92915050565b60006020828403121561430d5761430c61396f565b5b600061431b848285016142e2565b91505092915050565b61432d816142c1565b82525050565b60006020820190506143486000830184614324565b92915050565b600080600080600080600080600080600060c08c8e0312156143735761437261396f565b5b60008c013567ffffffffffffffff81111561439157614390613974565b5b61439d8e828f01613ed1565b9b509b505060208c013567ffffffffffffffff8111156143c0576143bf613974565b5b6143cc8e828f01613e7b565b995099505060408c013567ffffffffffffffff8111156143ef576143ee613974565b5b6143fb8e828f01613ed1565b975097505060608c013567ffffffffffffffff81111561441e5761441d613974565b5b61442a8e828f01613f27565b9550955050608061443d8e828f01613b4b565b93505060a08c013567ffffffffffffffff81111561445e5761445d613974565b5b61446a8e828f0161413a565b92509250509295989b509295989b9093969950565b60008083601f84011261449557614494613bb7565b5b8235905067ffffffffffffffff8111156144b2576144b1613bbc565b5b6020830191508360208202830111156144ce576144cd613bc1565b5b9250929050565b60008083601f8401126144eb576144ea613bb7565b5b8235905067ffffffffffffffff81111561450857614507613bbc565b5b60208301915083602082028301111561452457614523613bc1565b5b9250929050565b60008083601f84011261454157614540613bb7565b5b8235905067ffffffffffffffff81111561455e5761455d613bbc565b5b60208301915083602082028301111561457a57614579613bc1565b5b9250929050565b60008060008060008060008060008060a08b8d0312156145a4576145a361396f565b5b60008b013567ffffffffffffffff8111156145c2576145c1613974565b5b6145ce8d828e0161447f565b9a509a505060208b013567ffffffffffffffff8111156145f1576145f0613974565b5b6145fd8d828e016144d5565b985098505060408b013567ffffffffffffffff8111156146205761461f613974565b5b61462c8d828e0161452b565b965096505060608b013567ffffffffffffffff81111561464f5761464e613974565b5b61465b8d828e0161452b565b945094505060808b013567ffffffffffffffff81111561467e5761467d613974565b5b61468a8d828e01613ed1565b92509250509295989b9194979a5092959850565b60006146a982613a34565b9050919050565b60006146bb8261469e565b9050919050565b6146cb816146b0565b81146146d657600080fd5b50565b6000813590506146e8816146c2565b92915050565b6000602082840312156147045761470361396f565b5b6000614712848285016146d9565b91505092915050565b60008083601f84011261473157614730613bb7565b5b8235905067ffffffffffffffff81111561474e5761474d613bbc565b5b60208301915083602082028301111561476a57614769613bc1565b5b9250929050565b6000806000806000806000806080898b0312156147915761479061396f565b5b600089013567ffffffffffffffff8111156147af576147ae613974565b5b6147bb8b828c016140e4565b9850985050602089013567ffffffffffffffff8111156147de576147dd613974565b5b6147ea8b828c0161471b565b9650965050604089013567ffffffffffffffff81111561480d5761480c613974565b5b6148198b828c01613f27565b9450945050606089013567ffffffffffffffff81111561483c5761483b613974565b5b6148488b828c01613ed1565b92509250509295985092959890939650565b6000806000806000806000806080898b03121561487a5761487961396f565b5b600089013567ffffffffffffffff81111561489857614897613974565b5b6148a48b828c01613e7b565b9850985050602089013567ffffffffffffffff8111156148c7576148c6613974565b5b6148d38b828c01613ed1565b9650965050604089013567ffffffffffffffff8111156148f6576148f5613974565b5b6149028b828c01613f27565b9450945050606089013567ffffffffffffffff81111561492557614924613974565b5b6149318b828c01613f27565b92509250509295985092959890939650565b6000819050919050565b600061496861496361495e84613a34565b614943565b613a34565b9050919050565b600061497a8261494d565b9050919050565b600061498c8261496f565b9050919050565b61499c81614981565b82525050565b60006020820190506149b76000830184614993565b92915050565b60006149c882613a54565b9050919050565b6149d8816149bd565b81146149e357600080fd5b50565b6000813590506149f5816149cf565b92915050565b600060208284031215614a1157614a1061396f565b5b6000614a1f848285016149e6565b91505092915050565b6000614a338261496f565b9050919050565b614a4381614a28565b82525050565b6000602082019050614a5e6000830184614a3a565b92915050565b60008060008060008060608789031215614a8157614a8061396f565b5b600087013567ffffffffffffffff811115614a9f57614a9e613974565b5b614aab89828a016140e4565b9650965050602087013567ffffffffffffffff811115614ace57614acd613974565b5b614ada89828a01613f27565b9450945050604087013567ffffffffffffffff811115614afd57614afc613974565b5b614b0989828a01613f27565b92509250509295509295509295565b6000614b238261494d565b9050919050565b6000614b3582614b18565b9050919050565b614b4581614b2a565b82525050565b6000602082019050614b606000830184614b3c565b92915050565b600080600080600080600080600080600060c08c8e031215614b8b57614b8a61396f565b5b60008c013567ffffffffffffffff811115614ba957614ba8613974565b5b614bb58e828f01613c72565b9b509b505060208c013567ffffffffffffffff811115614bd857614bd7613974565b5b614be48e828f016144d5565b995099505060408c013567ffffffffffffffff811115614c0757614c06613974565b5b614c138e828f0161452b565b975097505060608c013567ffffffffffffffff811115614c3657614c35613974565b5b614c428e828f0161452b565b95509550506080614c558e828f01613b4b565b93505060a08c013567ffffffffffffffff811115614c7657614c75613974565b5b614c828e828f0161413a565b92509250509295989b509295989b9093969950565b6000614ca28261496f565b9050919050565b614cb281614c97565b82525050565b6000602082019050614ccd6000830184614ca9565b92915050565b600082825260208201905092915050565b7f4156502330000000000000000000000000000000000000000000000000000000600082015250565b6000614d1a600583614cd3565b9150614d2582614ce4565b602082019050919050565b60006020820190508181036000830152614d4981614d0d565b9050919050565b7f4e487b7100000000000000000000000000000000000000000000000000000000600052603260045260246000fd5b600080fd5b600080fd5b600080fd5b60008083356001602003843603038112614dab57614daa614d7f565b5b80840192508235915067ffffffffffffffff821115614dcd57614dcc614d84565b5b602083019250600182023603831315614de957614de8614d89565b5b509250929050565b60008083356001602003843603038112614e0e57614e0d614d7f565b5b80840192508235915067ffffffffffffffff821115614e3057614e2f614d84565b5b602083019250602082023603831315614e4c57614e4b614d89565b5b509250929050565b60008083356001602003843603038112614e7157614e70614d7f565b5b80840192508235915067ffffffffffffffff821115614e9357614e92614d84565b5b602083019250602082023603831315614eaf57614eae614d89565b5b509250929050565b60008083356001602003843603038112614ed457614ed3614d7f565b5b80840192508235915067ffffffffffffffff821115614ef657614ef5614d84565b5b602083019250602082023603831315614f1257614f11614d89565b5b509250929050565b600082825260208201905092915050565b82818337600083830152505050565b6000601f19601f8301169050919050565b6000614f578385614f1a565b9350614f64838584614f2b565b614f6d83614f3a565b840190509392505050565b600082825260208201905092915050565b6000819050919050565b600082825260208201905092915050565b6000614fb08385614f93565b9350614fbd838584614f2b565b614fc683614f3a565b840190509392505050565b6000614fde848484614fa4565b90509392505050565b600080fd5b600080fd5b600080fd5b6000808335600160200384360303811261501357615012614ff1565b5b83810192508235915060208301925067ffffffffffffffff82111561503b5761503a614fe7565b5b60018202360383131561505157615050614fec565b5b509250929050565b6000602082019050919050565b60006150728385614f78565b93508360208402850161508484614f89565b8060005b878110156150ca57848403895261509f8284614ff6565b6150aa868284614fd1565b95506150b584615059565b935060208b019a505050600181019050615088565b50829750879450505050509392505050565b600082825260208201905092915050565b600080fd5b82818337505050565b600061510783856150dc565b93507f07ffffffffffffffffffffffffffffffffffffffffffffffffffffffffffffff83111561513a576151396150ed565b5b60208302925061514b8385846150f2565b82840190509392505050565b600082825260208201905092915050565b6000819050919050565b61517b816139fe565b82525050565b600061518d8383615172565b60208301905092915050565b6151a2816139fe565b81146151ad57600080fd5b50565b6000813590506151bf81615199565b92915050565b60006151d460208401846151b0565b905092915050565b6000602082019050919050565b60006151f58385615157565b935061520082615168565b8060005b858110156152395761521682846151c5565b6152208882615181565b975061522b836151dc565b925050600181019050615204565b5085925050509392505050565b600060a0820190508181036000830152615261818c8e614f4b565b90508181036020830152615276818a8c614f4b565b9050818103604083015261528b81888a615066565b905081810360608301526152a08186886150fb565b905081810360808301526152b58184866151e9565b90509b9a5050505050505050505050565b600063ffffffff82169050919050565b6152df816152c6565b81146152ea57600080fd5b50565b6000813590506152fc816152d6565b92915050565b6000602082840312156153185761531761396f565b5b6000615326848285016152ed565b91505092915050565b7f416363657373436f6e74726f6c3a2063616e206f6e6c792072656e6f756e636560008201527f20726f6c657320666f722073656c660000000000000000000000000000000000602082015250565b600061538b602f83614cd3565b91506153968261532f565b604082019050919050565b600060208201905081810360008301526153ba8161537e565b9050919050565b7f4e487b7100000000000000000000000000000000000000000000000000000000600052601160045260246000fd5b60006153fb826142c1565b9150615406836142c1565b925082820190508082111561541e5761541d6153c1565b5b92915050565b600061542f826142c1565b915061543a836142c1565b9250828203905081811115615452576154516153c1565b5b92915050565b6000808335600160200384360303811261547557615474614d7f565b5b80840192508235915067ffffffffffffffff82111561549757615496614d84565b5b6020830192506020820236038313156154b3576154b2614d89565b5b509250929050565b600080833560016020038436030381126154d8576154d7614d7f565b5b80840192508235915067ffffffffffffffff8211156154fa576154f9614d84565b5b60208301925060208202360383131561551657615515614d89565b5b509250929050565b6000808335600160200384360303811261553b5761553a614d7f565b5b80840192508235915067ffffffffffffffff82111561555d5761555c614d84565b5b60208301925060208202360383131561557957615578614d89565b5b509250929050565b7f4e487b7100000000000000000000000000000000000000000000000000000000600052604160045260246000fd5b6155b98161469e565b81146155c457600080fd5b50565b6000813590506155d6816155b0565b92915050565b6000602082840312156155f2576155f161396f565b5b6000615600848285016155c7565b91505092915050565b6156128161469e565b82525050565b61562181613a54565b82525050565b600060a08201905061563c6000830188613b8d565b6156496020830187615609565b6156566040830186614324565b6156636060830185615618565b6156706080830184615618565b9695505050505050565b60008151905061568981613b34565b92915050565b6000602082840312156156a5576156a461396f565b5b60006156b38482850161567a565b91505092915050565b60006156c7826142c1565b91507fffffffffffffffffffffffffffffffffffffffffffffffffffffffffffffffff82036156f9576156f86153c1565b5b600182019050919050565b60006040820190506157196000830185614324565b6157266020830184615618565b9392505050565b60006157388261496f565b9050919050565b6157488161572d565b82525050565b6000819050919050565b600060ff82169050919050565b600061578061577b6157768461574e565b614943565b615758565b9050919050565b61579081615765565b82525050565b600060c0820190506157ab6000830189614324565b6157b86020830188615618565b6157c5604083018761573f565b6157d26060830186615618565b6157df6080830185615787565b6157ec60a0830184613b8d565b979650505050505050565b600060a08201905061580c600083018861573f565b6158196020830187614324565b6158266040830186615618565b6158336060830185615618565b6158406080830184614324565b9695505050505050565b615853816152c6565b82525050565b600060808201905061586e600083018761584a565b61587b6020830186615618565b6158886040830185614324565b6158956060830184614324565b95945050505050565b7f496e697469616c697a61626c653a20636f6e747261637420697320616c72656160008201527f647920696e697469616c697a6564000000000000000000000000000000000000602082015250565b60006158fa602e83614cd3565b91506159058261589e565b604082019050919050565b60006020820190508181036000830152615929816158ed565b9050919050565b6000819050919050565b600061595561595061594b84615930565b614943565b615758565b9050919050565b6159658161593a565b82525050565b6000602082019050615980600083018461595c565b92915050565b60008151905061599581615199565b92915050565b6000602082840312156159b1576159b061396f565b5b60006159bf84828501615986565b91505092915050565b60006040820190506159dd6000830185615618565b6159ea602083018461584a565b9392505050565b6000608082019050615a066000830187613b8d565b615a136020830186614324565b615a206040830185615618565b615a2d6060830184614324565b95945050505050565b600060c082019050615a4b6000830189614324565b615a586020830188615618565b615a656040830187615618565b615a726060830186615618565b615a7f608083018561595c565b615a8c60a0830184613b8d565b979650505050505050565b6000819050919050565b6000615abc615ab7615ab284615a97565b614943565b6142c1565b9050919050565b615acc81615aa1565b82525050565b600061010082019050615ae8600083018c613b8d565b615af5602083018b615618565b615b02604083018a614324565b615b0f6060830189615ac3565b615b1c6080830188615618565b615b2960a0830187614324565b615b3660c0830186613b8d565b81810360e0830152615b49818486614f4b565b90509a9950505050505050505050565b6000615b74615b6f615b6a84615a97565b614943565b615758565b9050919050565b615b8481615b59565b82525050565b600060c082019050615b9f6000830189614324565b615bac6020830188615618565b615bb96040830187615618565b615bc66060830186615618565b615bd36080830185615b7b565b615be060a0830184613b8d565b979650505050505050565b600081519050919050565b60005b83811015615c14578082015181840152602081019050615bf9565b60008484015250505050565b6000615c2b82615beb565b615c358185614f1a565b9350615c45818560208601615bf6565b615c4e81614f3a565b840191505092915050565b600060c082019050615c6e6000830189613b8d565b8181036020830152615c808188615c20565b9050615c8f6040830187613b8d565b615c9c6060830186615618565b615ca96080830185614324565b615cb660a083018461595c565b979650505050505050565b7f496e697469616c697a61626c653a20636f6e7472616374206973206e6f74206960008201527f6e697469616c697a696e67000000000000000000000000000000000000000000602082015250565b6000615d1d602b83614cd3565b9150615d2882615cc1565b604082019050919050565b60006020820190508181036000830152615d4c81615d10565b9050919050565b600081905092915050565b7f416363657373436f6e74726f6c3a206163636f756e7420000000000000000000600082015250565b6000615d94601783615d53565b9150615d9f82615d5e565b601782019050919050565b600081519050919050565b6000615dc082615daa565b615dca8185615d53565b9350615dda818560208601615bf6565b80840191505092915050565b7f206973206d697373696e6720726f6c6520000000000000000000000000000000600082015250565b6000615e1c601183615d53565b9150615e2782615de6565b601182019050919050565b6000615e3d82615d87565b9150615e498285615db5565b9150615e5482615e0f565b9150615e608284615db5565b91508190509392505050565b6000615e7782615daa565b615e818185614cd3565b9350615e91818560208601615bf6565b615e9a81614f3a565b840191505092915050565b60006020820190508181036000830152615ebf8184615e6c565b905092915050565b6000615ed2826142c1565b9150615edd836142c1565b9250828202615eeb816142c1565b91508282048414831517615f0257615f016153c1565b5b5092915050565b6000615f14826142c1565b915060008203615f2757615f266153c1565b5b600182039050919050565b7f537472696e67733a20686578206c656e67746820696e73756666696369656e74600082015250565b6000615f68602083614cd3565b9150615f7382615f32565b602082019050919050565b60006020820190508181036000830152615f9781615f5b565b905091905056fea264697066735822122021828fbe8c01f511f3890457767e86fca02ee4bd357b8c420a9714570a4419cd64736f6c63430008180033",
  "linkReferences": {},
  "deployedLinkReferences": {}
}