{
  "_format": "hh-sol-artifact-1",
  "contractName": "EscrowOrderBook",
  "sourceName": "contracts/escrowOrderBook.sol",
  "abi": [
    {
      "inputs": [],
      "stateMutability": "nonpayable",
      "type": "constructor"
    },
    {
      "anonymous": false,
      "inputs": [
        {
          "indexed": true,
          "internalType": "bytes32",
          "name": "id",
          "type": "bytes32"
        },
        {
          "indexed": true,
          "internalType": "address",
          "name": "sender",
          "type": "address"
        },
        {
          "indexed": true,
          "internalType": "bytes4",
          "name": "destination",
          "type": "bytes4"
        },
        {
          "indexed": false,
          "internalType": "uint32",
          "name": "assetId",
          "type": "uint32"
        },
        {
          "indexed": false,
          "internalType": "uint256",
          "name": "amount",
          "type": "uint256"
        },
        {
          "indexed": false,
          "internalType": "uint32",
          "name": "rewardAssetId",
          "type": "uint32"
        },
        {
          "indexed": false,
          "internalType": "uint256",
          "name": "rewardAmount",
          "type": "uint256"
        },
        {
          "indexed": false,
          "internalType": "bytes32",
          "name": "targetAccount",
          "type": "bytes32"
        },
        {
          "indexed": false,
          "internalType": "uint256",
          "name": "orderSubmissionTime",
          "type": "uint256"
        },
        {
          "indexed": false,
          "internalType": "uint256",
          "name": "indicatedTimeoutDuration",
          "type": "uint256"
        },
        {
          "indexed": false,
          "internalType": "bytes",
          "name": "data",
          "type": "bytes"
        },
        {
          "indexed": false,
          "internalType": "bytes4",
          "name": "source",
          "type": "bytes4"
        }
      ],
      "name": "EscrowOrderCreated",
      "type": "event"
    },
    {
      "anonymous": false,
      "inputs": [
        {
          "indexed": false,
          "internalType": "uint8",
          "name": "version",
          "type": "uint8"
        }
      ],
      "name": "Initialized",
      "type": "event"
    },
    {
      "anonymous": false,
      "inputs": [
        {
          "indexed": true,
          "internalType": "bytes32",
          "name": "role",
          "type": "bytes32"
        },
        {
          "indexed": true,
          "internalType": "bytes32",
          "name": "previousAdminRole",
          "type": "bytes32"
        },
        {
          "indexed": true,
          "internalType": "bytes32",
          "name": "newAdminRole",
          "type": "bytes32"
        }
      ],
      "name": "RoleAdminChanged",
      "type": "event"
    },
    {
      "anonymous": false,
      "inputs": [
        {
          "indexed": true,
          "internalType": "bytes32",
          "name": "role",
          "type": "bytes32"
        },
        {
          "indexed": true,
          "internalType": "address",
          "name": "account",
          "type": "address"
        },
        {
          "indexed": true,
          "internalType": "address",
          "name": "sender",
          "type": "address"
        }
      ],
      "name": "RoleGranted",
      "type": "event"
    },
    {
      "anonymous": false,
      "inputs": [
        {
          "indexed": true,
          "internalType": "bytes32",
          "name": "role",
          "type": "bytes32"
        },
        {
          "indexed": true,
          "internalType": "address",
          "name": "account",
          "type": "address"
        },
        {
          "indexed": true,
          "internalType": "address",
          "name": "sender",
          "type": "address"
        }
      ],
      "name": "RoleRevoked",
      "type": "event"
    },
    {
      "inputs": [],
      "name": "DEFAULT_ADMIN_ROLE",
      "outputs": [
        {
          "internalType": "bytes32",
          "name": "",
          "type": "bytes32"
        }
      ],
      "stateMutability": "view",
      "type": "function"
    },
    {
      "inputs": [
        {
          "components": [
            {
              "internalType": "address",
              "name": "sender",
              "type": "address"
            },
            {
              "internalType": "bytes4",
              "name": "destination",
              "type": "bytes4"
            },
            {
              "internalType": "bytes4",
              "name": "source",
              "type": "bytes4"
            },
            {
              "internalType": "uint32",
              "name": "assetId",
              "type": "uint32"
            },
            {
              "internalType": "uint256",
              "name": "amount",
              "type": "uint256"
            },
            {
              "internalType": "uint32",
              "name": "rewardAssetId",
              "type": "uint32"
            },
            {
              "internalType": "uint256",
              "name": "rewardAmount",
              "type": "uint256"
            },
            {
              "internalType": "bytes32",
              "name": "targetAccount",
              "type": "bytes32"
            },
            {
              "internalType": "uint256",
              "name": "orderSubmissionTime",
              "type": "uint256"
            },
            {
              "internalType": "uint256",
              "name": "indicatedTimeoutDuration",
              "type": "uint256"
            },
            {
              "internalType": "bytes",
              "name": "data",
              "type": "bytes"
            }
          ],
          "internalType": "struct EscrowOrderBook.EscrowOrder",
          "name": "escrowOrder",
          "type": "tuple"
        },
        {
          "internalType": "bytes32",
          "name": "escrowOrderId",
          "type": "bytes32"
        },
        {
          "internalType": "bytes32",
          "name": "orderTxHash",
          "type": "bytes32"
        }
      ],
      "name": "addEscrowOrder",
      "outputs": [],
      "stateMutability": "nonpayable",
      "type": "function"
    },
    {
      "inputs": [
        {
          "components": [
            {
              "internalType": "address",
              "name": "sender",
              "type": "address"
            },
            {
              "internalType": "bytes4",
              "name": "destination",
              "type": "bytes4"
            },
            {
              "internalType": "bytes4",
              "name": "source",
              "type": "bytes4"
            },
            {
              "internalType": "uint32",
              "name": "assetId",
              "type": "uint32"
            },
            {
              "internalType": "uint256",
              "name": "amount",
              "type": "uint256"
            },
            {
              "internalType": "uint32",
              "name": "rewardAssetId",
              "type": "uint32"
            },
            {
              "internalType": "uint256",
              "name": "rewardAmount",
              "type": "uint256"
            },
            {
              "internalType": "bytes32",
              "name": "targetAccount",
              "type": "bytes32"
            },
            {
              "internalType": "uint256",
              "name": "orderSubmissionTime",
              "type": "uint256"
            },
            {
              "internalType": "uint256",
              "name": "indicatedTimeoutDuration",
              "type": "uint256"
            },
            {
              "internalType": "bytes",
              "name": "data",
              "type": "bytes"
            }
          ],
          "internalType": "struct EscrowOrderBook.EscrowOrder",
          "name": "escrowOrder",
          "type": "tuple"
        },
        {
          "internalType": "bytes32",
          "name": "escrowOrderId",
          "type": "bytes32"
        },
        {
          "internalType": "bytes32",
          "name": "orderTxHash",
          "type": "bytes32"
        },
        {
          "internalType": "uint256",
          "name": "timestamp",
          "type": "uint256"
        }
      ],
      "name": "addEscrowOrderWithTimestamp",
      "outputs": [],
      "stateMutability": "nonpayable",
      "type": "function"
    },
    {
      "inputs": [],
      "name": "attestationBook",
      "outputs": [
        {
          "internalType": "contract SingleAttestationBook",
          "name": "",
          "type": "address"
        }
      ],
      "stateMutability": "view",
      "type": "function"
    },
    {
      "inputs": [],
      "name": "attestersPortal",
      "outputs": [
        {
          "internalType": "contract AttestersPortal",
          "name": "",
          "type": "address"
        }
      ],
      "stateMutability": "view",
      "type": "function"
    },
    {
      "inputs": [],
      "name": "brnRewards",
      "outputs": [
        {
          "internalType": "contract BRNRewards",
          "name": "",
          "type": "address"
        }
      ],
      "stateMutability": "view",
      "type": "function"
    },
    {
      "inputs": [
        {
          "internalType": "bytes32",
          "name": "escrowOrderId",
          "type": "bytes32"
        }
      ],
      "name": "checkEscrowOrderExists",
      "outputs": [
        {
          "internalType": "bool",
          "name": "",
          "type": "bool"
        }
      ],
      "stateMutability": "view",
      "type": "function"
    },
    {
      "inputs": [
        {
          "internalType": "bytes32",
          "name": "escrowOrderId",
          "type": "bytes32"
        }
      ],
      "name": "checkEscrowOrderHasReachedQuorum",
      "outputs": [
        {
          "internalType": "bool",
          "name": "",
          "type": "bool"
        }
      ],
      "stateMutability": "view",
      "type": "function"
    },
    {
      "inputs": [
        {
          "internalType": "bytes4",
          "name": "",
          "type": "bytes4"
        }
      ],
      "name": "currentIntervalPerNetworkAddedCount",
      "outputs": [
        {
          "internalType": "uint256",
          "name": "",
          "type": "uint256"
        }
      ],
      "stateMutability": "view",
      "type": "function"
    },
    {
      "inputs": [
        {
          "internalType": "bytes4",
          "name": "",
          "type": "bytes4"
        }
      ],
      "name": "currentIntervalPerNetworkAddedTimestamp",
      "outputs": [
        {
          "internalType": "uint256",
          "name": "",
          "type": "uint256"
        }
      ],
      "stateMutability": "view",
      "type": "function"
    },
    {
      "inputs": [
        {
          "internalType": "bytes32",
          "name": "",
          "type": "bytes32"
        }
      ],
      "name": "escrowOrders",
      "outputs": [
        {
          "internalType": "address",
          "name": "sender",
          "type": "address"
        },
        {
          "internalType": "bytes4",
          "name": "destination",
          "type": "bytes4"
        },
        {
          "internalType": "bytes4",
          "name": "source",
          "type": "bytes4"
        },
        {
          "internalType": "uint32",
          "name": "assetId",
          "type": "uint32"
        },
        {
          "internalType": "uint256",
          "name": "amount",
          "type": "uint256"
        },
        {
          "internalType": "uint32",
          "name": "rewardAssetId",
          "type": "uint32"
        },
        {
          "internalType": "uint256",
          "name": "rewardAmount",
          "type": "uint256"
        },
        {
          "internalType": "bytes32",
          "name": "targetAccount",
          "type": "bytes32"
        },
        {
          "internalType": "uint256",
          "name": "orderSubmissionTime",
          "type": "uint256"
        },
        {
          "internalType": "uint256",
          "name": "indicatedTimeoutDuration",
          "type": "uint256"
        },
        {
          "internalType": "bytes",
          "name": "data",
          "type": "bytes"
        }
      ],
      "stateMutability": "view",
      "type": "function"
    },
    {
      "inputs": [
        {
          "internalType": "bytes32",
          "name": "escrowOrderId",
          "type": "bytes32"
        }
      ],
      "name": "getEscrowOrder",
      "outputs": [
        {
          "components": [
            {
              "internalType": "address",
              "name": "sender",
              "type": "address"
            },
            {
              "internalType": "bytes4",
              "name": "destination",
              "type": "bytes4"
            },
            {
              "internalType": "bytes4",
              "name": "source",
              "type": "bytes4"
            },
            {
              "internalType": "uint32",
              "name": "assetId",
              "type": "uint32"
            },
            {
              "internalType": "uint256",
              "name": "amount",
              "type": "uint256"
            },
            {
              "internalType": "uint32",
              "name": "rewardAssetId",
              "type": "uint32"
            },
            {
              "internalType": "uint256",
              "name": "rewardAmount",
              "type": "uint256"
            },
            {
              "internalType": "bytes32",
              "name": "targetAccount",
              "type": "bytes32"
            },
            {
              "internalType": "uint256",
              "name": "orderSubmissionTime",
              "type": "uint256"
            },
            {
              "internalType": "uint256",
              "name": "indicatedTimeoutDuration",
              "type": "uint256"
            },
            {
              "internalType": "bytes",
              "name": "data",
              "type": "bytes"
            }
          ],
          "internalType": "struct EscrowOrderBook.EscrowOrder",
          "name": "",
          "type": "tuple"
        },
        {
          "internalType": "bytes32",
          "name": "",
          "type": "bytes32"
        }
      ],
      "stateMutability": "view",
      "type": "function"
    },
    {
      "inputs": [
        {
          "internalType": "bytes32",
          "name": "escrowOrderId",
          "type": "bytes32"
        }
      ],
      "name": "getEscrowOrderData",
      "outputs": [
        {
          "components": [
            {
              "internalType": "address",
              "name": "sender",
              "type": "address"
            },
            {
              "internalType": "bytes4",
              "name": "destination",
              "type": "bytes4"
            },
            {
              "internalType": "bytes4",
              "name": "source",
              "type": "bytes4"
            },
            {
              "internalType": "uint32",
              "name": "assetId",
              "type": "uint32"
            },
            {
              "internalType": "uint256",
              "name": "amount",
              "type": "uint256"
            },
            {
              "internalType": "uint32",
              "name": "rewardAssetId",
              "type": "uint32"
            },
            {
              "internalType": "uint256",
              "name": "rewardAmount",
              "type": "uint256"
            },
            {
              "internalType": "bytes32",
              "name": "targetAccount",
              "type": "bytes32"
            },
            {
              "internalType": "uint256",
              "name": "orderSubmissionTime",
              "type": "uint256"
            },
            {
              "internalType": "uint256",
              "name": "indicatedTimeoutDuration",
              "type": "uint256"
            },
            {
              "internalType": "bytes",
              "name": "data",
              "type": "bytes"
            }
          ],
          "internalType": "struct EscrowOrderBook.EscrowOrder",
          "name": "",
          "type": "tuple"
        },
        {
          "internalType": "bytes32",
          "name": "",
          "type": "bytes32"
        },
        {
          "internalType": "bool",
          "name": "",
          "type": "bool"
        },
        {
          "internalType": "uint256",
          "name": "",
          "type": "uint256"
        }
      ],
      "stateMutability": "view",
      "type": "function"
    },
    {
      "inputs": [
        {
          "internalType": "bytes32",
          "name": "escrowOrderId",
          "type": "bytes32"
        }
      ],
      "name": "getEscrowOrderTimestamp",
      "outputs": [
        {
          "internalType": "uint256",
          "name": "",
          "type": "uint256"
        }
      ],
      "stateMutability": "view",
      "type": "function"
    },
    {
      "inputs": [
        {
          "internalType": "bytes32",
          "name": "escrowOrderId",
          "type": "bytes32"
        }
      ],
      "name": "getEscrowOrderWithTimestamp",
      "outputs": [
        {
          "components": [
            {
              "internalType": "address",
              "name": "sender",
              "type": "address"
            },
            {
              "internalType": "bytes4",
              "name": "destination",
              "type": "bytes4"
            },
            {
              "internalType": "bytes4",
              "name": "source",
              "type": "bytes4"
            },
            {
              "internalType": "uint32",
              "name": "assetId",
              "type": "uint32"
            },
            {
              "internalType": "uint256",
              "name": "amount",
              "type": "uint256"
            },
            {
              "internalType": "uint32",
              "name": "rewardAssetId",
              "type": "uint32"
            },
            {
              "internalType": "uint256",
              "name": "rewardAmount",
              "type": "uint256"
            },
            {
              "internalType": "bytes32",
              "name": "targetAccount",
              "type": "bytes32"
            },
            {
              "internalType": "uint256",
              "name": "orderSubmissionTime",
              "type": "uint256"
            },
            {
              "internalType": "uint256",
              "name": "indicatedTimeoutDuration",
              "type": "uint256"
            },
            {
              "internalType": "bytes",
              "name": "data",
              "type": "bytes"
            }
          ],
          "internalType": "struct EscrowOrderBook.EscrowOrder",
          "name": "",
          "type": "tuple"
        },
        {
          "internalType": "bytes32",
          "name": "",
          "type": "bytes32"
        },
        {
          "internalType": "uint256",
          "name": "",
          "type": "uint256"
        }
      ],
      "stateMutability": "view",
      "type": "function"
    },
    {
      "inputs": [
        {
          "internalType": "bytes32",
          "name": "escrowOrderId",
          "type": "bytes32"
        }
      ],
      "name": "getRandomAddedBy",
      "outputs": [
        {
          "internalType": "address",
          "name": "",
          "type": "address"
        }
      ],
      "stateMutability": "view",
      "type": "function"
    },
    {
      "inputs": [
        {
          "internalType": "bytes32",
          "name": "role",
          "type": "bytes32"
        }
      ],
      "name": "getRoleAdmin",
      "outputs": [
        {
          "internalType": "bytes32",
          "name": "",
          "type": "bytes32"
        }
      ],
      "stateMutability": "view",
      "type": "function"
    },
    {
      "inputs": [
        {
          "internalType": "bytes32",
          "name": "role",
          "type": "bytes32"
        },
        {
          "internalType": "address",
          "name": "account",
          "type": "address"
        }
      ],
      "name": "grantRole",
      "outputs": [],
      "stateMutability": "nonpayable",
      "type": "function"
    },
    {
      "inputs": [
        {
          "internalType": "bytes32",
          "name": "role",
          "type": "bytes32"
        },
        {
          "internalType": "address",
          "name": "account",
          "type": "address"
        }
      ],
      "name": "hasRole",
      "outputs": [
        {
          "internalType": "bool",
          "name": "",
          "type": "bool"
        }
      ],
      "stateMutability": "view",
      "type": "function"
    },
    {
      "inputs": [
        {
          "internalType": "address",
          "name": "_owner",
          "type": "address"
        },
        {
          "internalType": "uint32",
          "name": "_quorumPercent",
          "type": "uint32"
        }
      ],
      "name": "initialize",
      "outputs": [],
      "stateMutability": "nonpayable",
      "type": "function"
    },
    {
      "inputs": [
        {
          "internalType": "bytes32",
          "name": "",
          "type": "bytes32"
        }
      ],
      "name": "insuranceClaimed",
      "outputs": [
        {
          "internalType": "bool",
          "name": "",
          "type": "bool"
        }
      ],
      "stateMutability": "view",
      "type": "function"
    },
    {
      "inputs": [
        {
          "internalType": "bytes32",
          "name": "escrowOrderId",
          "type": "bytes32"
        },
        {
          "internalType": "address",
          "name": "attester",
          "type": "address"
        }
      ],
      "name": "isAddedBy",
      "outputs": [
        {
          "internalType": "bool",
          "name": "",
          "type": "bool"
        }
      ],
      "stateMutability": "view",
      "type": "function"
    },
    {
      "inputs": [],
      "name": "isBrnRewardsOn",
      "outputs": [
        {
          "internalType": "bool",
          "name": "",
          "type": "bool"
        }
      ],
      "stateMutability": "view",
      "type": "function"
    },
    {
      "inputs": [],
      "name": "isInflationRewardsOn",
      "outputs": [
        {
          "internalType": "bool",
          "name": "",
          "type": "bool"
        }
      ],
      "stateMutability": "view",
      "type": "function"
    },
    {
      "inputs": [
        {
          "internalType": "bytes32",
          "name": "",
          "type": "bytes32"
        }
      ],
      "name": "orderAdditions",
      "outputs": [
        {
          "internalType": "uint32",
          "name": "",
          "type": "uint32"
        }
      ],
      "stateMutability": "view",
      "type": "function"
    },
    {
      "inputs": [
        {
          "internalType": "bytes32",
          "name": "",
          "type": "bytes32"
        },
        {
          "internalType": "uint256",
          "name": "",
          "type": "uint256"
        }
      ],
      "name": "orderAdditionsBy",
      "outputs": [
        {
          "internalType": "address",
          "name": "",
          "type": "address"
        }
      ],
      "stateMutability": "view",
      "type": "function"
    },
    {
      "inputs": [],
      "name": "orderQuorumPercent",
      "outputs": [
        {
          "internalType": "uint32",
          "name": "",
          "type": "uint32"
        }
      ],
      "stateMutability": "view",
      "type": "function"
    },
    {
      "inputs": [
        {
          "internalType": "bytes32",
          "name": "",
          "type": "bytes32"
        }
      ],
      "name": "orderWasEmitted",
      "outputs": [
        {
          "internalType": "bool",
          "name": "",
          "type": "bool"
        }
      ],
      "stateMutability": "view",
      "type": "function"
    },
    {
      "inputs": [
        {
          "internalType": "bytes32",
          "name": "",
          "type": "bytes32"
        }
      ],
      "name": "ordersCoordinates",
      "outputs": [
        {
          "internalType": "bytes32",
          "name": "",
          "type": "bytes32"
        }
      ],
      "stateMutability": "view",
      "type": "function"
    },
    {
      "inputs": [
        {
          "internalType": "bytes32",
          "name": "",
          "type": "bytes32"
        }
      ],
      "name": "ordersTimestamps",
      "outputs": [
        {
          "internalType": "uint256",
          "name": "",
          "type": "uint256"
        }
      ],
      "stateMutability": "view",
      "type": "function"
    },
    {
      "inputs": [],
      "name": "pendingBook",
      "outputs": [
        {
          "internalType": "contract PendingBook",
          "name": "",
          "type": "address"
        }
      ],
      "stateMutability": "view",
      "type": "function"
    },
    {
      "inputs": [],
      "name": "perNetworkLimit",
      "outputs": [
        {
          "internalType": "uint256",
          "name": "",
          "type": "uint256"
        }
      ],
      "stateMutability": "view",
      "type": "function"
    },
    {
      "inputs": [
        {
          "components": [
            {
              "internalType": "address",
              "name": "sender",
              "type": "address"
            },
            {
              "internalType": "bytes4",
              "name": "destination",
              "type": "bytes4"
            },
            {
              "internalType": "bytes4",
              "name": "source",
              "type": "bytes4"
            },
            {
              "internalType": "uint32",
              "name": "assetId",
              "type": "uint32"
            },
            {
              "internalType": "uint256",
              "name": "amount",
              "type": "uint256"
            },
            {
              "internalType": "uint32",
              "name": "rewardAssetId",
              "type": "uint32"
            },
            {
              "internalType": "uint256",
              "name": "rewardAmount",
              "type": "uint256"
            },
            {
              "internalType": "bytes32",
              "name": "targetAccount",
              "type": "bytes32"
            },
            {
              "internalType": "uint256",
              "name": "orderSubmissionTime",
              "type": "uint256"
            },
            {
              "internalType": "uint256",
              "name": "indicatedTimeoutDuration",
              "type": "uint256"
            },
            {
              "internalType": "bytes",
              "name": "data",
              "type": "bytes"
            }
          ],
          "internalType": "struct EscrowOrderBook.EscrowOrder[]",
          "name": "ordersToBatch",
          "type": "tuple[]"
        },
        {
          "internalType": "bytes32[]",
          "name": "orderIds",
          "type": "bytes32[]"
        },
        {
          "internalType": "bytes32[]",
          "name": "orderTxHashes",
          "type": "bytes32[]"
        },
        {
          "internalType": "uint256[]",
          "name": "timestamps",
          "type": "uint256[]"
        }
      ],
      "name": "populateBatch",
      "outputs": [],
      "stateMutability": "nonpayable",
      "type": "function"
    },
    {
      "inputs": [
        {
          "internalType": "bytes32",
          "name": "role",
          "type": "bytes32"
        },
        {
          "internalType": "address",
          "name": "account",
          "type": "address"
        }
      ],
      "name": "renounceRole",
      "outputs": [],
      "stateMutability": "nonpayable",
      "type": "function"
    },
    {
      "inputs": [
        {
          "internalType": "bytes32",
          "name": "role",
          "type": "bytes32"
        },
        {
          "internalType": "address",
          "name": "account",
          "type": "address"
        }
      ],
      "name": "revokeRole",
      "outputs": [],
      "stateMutability": "nonpayable",
      "type": "function"
    },
    {
      "inputs": [
        {
          "internalType": "address payable",
          "name": "attestationBookAddress",
          "type": "address"
        }
      ],
      "name": "setAttestationBookAddress",
      "outputs": [],
      "stateMutability": "nonpayable",
      "type": "function"
    },
    {
      "inputs": [
        {
          "internalType": "address payable",
          "name": "attestersPortalAddress",
          "type": "address"
        }
      ],
      "name": "setAttestersPortalAddress",
      "outputs": [],
      "stateMutability": "nonpayable",
      "type": "function"
    },
    {
      "inputs": [
        {
          "internalType": "address payable",
          "name": "brnRewardsAddress",
          "type": "address"
        }
      ],
      "name": "setBRNRewardsAddress",
      "outputs": [],
      "stateMutability": "nonpayable",
      "type": "function"
    },
    {
      "inputs": [
        {
          "internalType": "uint32",
          "name": "newQuorumPercent",
          "type": "uint32"
        }
      ],
      "name": "setOrderQuorumPercent",
      "outputs": [],
      "stateMutability": "nonpayable",
      "type": "function"
    },
    {
      "inputs": [
        {
          "internalType": "address payable",
          "name": "pendingBookAddress",
          "type": "address"
        }
      ],
      "name": "setPendingBookAddress",
      "outputs": [],
      "stateMutability": "nonpayable",
      "type": "function"
    },
    {
      "inputs": [
        {
          "internalType": "uint256",
          "name": "_perNetworkLimit",
          "type": "uint256"
        }
      ],
      "name": "setPerNetworkLimit",
      "outputs": [],
      "stateMutability": "nonpayable",
      "type": "function"
    },
    {
      "inputs": [
        {
          "internalType": "address payable",
          "name": "trnInflationRewardsAddress",
          "type": "address"
        }
      ],
      "name": "setTRNInflationRewardsAddress",
      "outputs": [],
      "stateMutability": "nonpayable",
      "type": "function"
    },
    {
      "inputs": [
        {
          "internalType": "bytes32",
          "name": "_version",
          "type": "bytes32"
        }
      ],
      "name": "setVersion",
      "outputs": [],
      "stateMutability": "nonpayable",
      "type": "function"
    },
    {
      "inputs": [
        {
          "internalType": "bytes4",
          "name": "interfaceId",
          "type": "bytes4"
        }
      ],
      "name": "supportsInterface",
      "outputs": [
        {
          "internalType": "bool",
          "name": "",
          "type": "bool"
        }
      ],
      "stateMutability": "view",
      "type": "function"
    },
    {
      "inputs": [],
      "name": "trnInflationRewards",
      "outputs": [
        {
          "internalType": "contract TRNInflationRewards",
          "name": "",
          "type": "address"
        }
      ],
      "stateMutability": "view",
      "type": "function"
    },
    {
      "inputs": [],
      "name": "version",
      "outputs": [
        {
          "internalType": "bytes32",
          "name": "",
          "type": "bytes32"
        }
      ],
      "stateMutability": "view",
      "type": "function"
    }
  ],
  "bytecode": "0x60806040523480156200001157600080fd5b50620000226200002860201b60201c565b620001d2565b600060019054906101000a900460ff16156200007b576040517f08c379a0000000000000000000000000000000000000000000000000000000008152600401620000729062000175565b60405180910390fd5b60ff801660008054906101000a900460ff1660ff1614620000ec5760ff6000806101000a81548160ff021916908360ff1602179055507f7f26b83ff96e1f2b6a682f133852f6798a09c465da95921460cefb384740249860ff604051620000e39190620001b5565b60405180910390a15b565b600082825260208201905092915050565b7f496e697469616c697a61626c653a20636f6e747261637420697320696e69746960008201527f616c697a696e6700000000000000000000000000000000000000000000000000602082015250565b60006200015d602783620000ee565b91506200016a82620000ff565b604082019050919050565b6000602082019050818103600083015262000190816200014e565b9050919050565b600060ff82169050919050565b620001af8162000197565b82525050565b6000602082019050620001cc6000830184620001a4565b92915050565b61596580620001e26000396000f3fe608060405234801561001057600080fd5b506004361061028a5760003560e01c80638ed339401161015c578063c5e4c9f9116100ce578063e2d6939e11610087578063e2d6939e1461083c578063e7ac6fff1461086c578063eca4602a1461089c578063f061c789146108ce578063fa840bdb146108ec578063fc7ac54c1461091c5761028a565b8063c5e4c9f91461076a578063ca5753cb14610786578063ca5f81b5146107b6578063d24b0d5e146107d2578063d547741f14610802578063d82627ef1461081e5761028a565b8063a217fddf11610120578063a217fddf146106bc578063a63aaf35146106da578063b0676f62146106f8578063b159cfbf14610714578063b67b8a3f14610730578063c583316e1461074c5761028a565b80638ed339401461060657806391d14854146106365780639289350814610666578063993cc10314610682578063a1f80d8f1461069e5761028a565b806336568abe1161020057806354fd4d50116101b957806354fd4d50146105205780635d1f48951461053e5780635f98adbc1461056e5780636b5059891461059e5780637a575361146105ce5780637eb9b8df146105ea5761028a565b806336568abe146104725780633aac5d3d1461048e5780633b34730c146104ac57806348940da6146104ca5780634a8d5ce2146104e657806352172d58146105025761028a565b8063216d96c411610252578063216d96c414610359578063248a9ca31461039357806325e2213d146103c35780632bff72f3146103f65780632f2ff15d146104265780633528af31146104425761028a565b806301ffc9a71461028f57806302f6dca1146102bf57806307c65633146102ef57806316dc82ae1461030d5780631a13b20214610329575b600080fd5b6102a960048036038101906102a491906135d5565b61094d565b6040516102b6919061361d565b60405180910390f35b6102d960048036038101906102d491906136a4565b6109c7565b6040516102e69190613725565b60405180910390f35b6102f7610a15565b604051610304919061379f565b60405180910390f35b610327600480360381019061032291906137ba565b610a3b565b005b610343600480360381019061033e91906137e7565b610a91565b604051610350919061361d565b60405180910390f35b610373600480360381019061036e91906137e7565b610ab1565b60405161038a9b9a999897969594939291906138f0565b60405180910390f35b6103ad60048036038101906103a891906137e7565b610bed565b6040516103ba91906139a2565b60405180910390f35b6103dd60048036038101906103d891906137e7565b610c0d565b6040516103ed9493929190613b41565b60405180910390f35b610410600480360381019061040b91906137e7565b610f7b565b60405161041d919061361d565b60405180910390f35b610440600480360381019061043b9190613bb9565b610f9b565b005b61045c600480360381019061045791906137e7565b610fbc565b6040516104699190613bf9565b60405180910390f35b61048c60048036038101906104879190613bb9565b610fdf565b005b610496611062565b6040516104a39190613c35565b60405180910390f35b6104b4611088565b6040516104c19190613c71565b60405180910390f35b6104e460048036038101906104df9190613cb1565b6110ae565b005b61050060048036038101906104fb9190613d20565b61119f565b005b61050a61128c565b604051610517919061361d565b60405180910390f35b61052861137e565b60405161053591906139a2565b60405180910390f35b610558600480360381019061055391906137e7565b611384565b6040516105659190613725565b60405180910390f35b610588600480360381019061058391906137e7565b611481565b60405161059591906139a2565b60405180910390f35b6105b860048036038101906105b391906137e7565b611499565b6040516105c5919061361d565b60405180910390f35b6105e860048036038101906105e39190613de1565b6115e8565b005b61060460048036038101906105ff9190613f1f565b611678565b005b610620600480360381019061061b9190613bb9565b61183d565b60405161062d919061361d565b60405180910390f35b610650600480360381019061064b9190613bb9565b611956565b60405161065d919061361d565b60405180910390f35b610680600480360381019061067b9190613de1565b6119c1565b005b61069c60048036038101906106979190613de1565b611a51565b005b6106a6611ae1565b6040516106b39190614029565b60405180910390f35b6106c4611b07565b6040516106d191906139a2565b60405180910390f35b6106e2611b0e565b6040516106ef9190613bf9565b60405180910390f35b610712600480360381019061070d9190613de1565b611b24565b005b61072e60048036038101906107299190613de1565b611bb4565b005b61074a60048036038101906107459190614070565b611c44565b005b610754611d11565b604051610761919061361d565b60405180910390f35b610784600480360381019061077f919061409d565b611e03565b005b6107a0600480360381019061079b91906137e7565b611f71565b6040516107ad919061361d565b60405180910390f35b6107d060048036038101906107cb91906137e7565b612047565b005b6107ec60048036038101906107e791906137e7565b61209d565b6040516107f991906140dd565b60405180910390f35b61081c60048036038101906108179190613bb9565b612104565b005b610826612125565b60405161083391906140dd565b60405180910390f35b610856600480360381019061085191906135d5565b61212b565b60405161086391906140dd565b60405180910390f35b610886600480360381019061088191906135d5565b612143565b60405161089391906140dd565b60405180910390f35b6108b660048036038101906108b191906137e7565b61215b565b6040516108c5939291906140f8565b60405180910390f35b6108d6612417565b6040516108e39190614169565b60405180910390f35b610906600480360381019061090191906137e7565b61243d565b60405161091391906140dd565b60405180910390f35b610936600480360381019061093191906137e7565b612455565b604051610944929190614184565b60405180910390f35b60007f7965db0b000000000000000000000000000000000000000000000000000000007bffffffffffffffffffffffffffffffffffffffffffffffffffffffff1916827bffffffffffffffffffffffffffffffffffffffffffffffffffffffff191614806109c057506109bf826126f8565b5b9050919050565b60a060205281600052604060002081815481106109e357600080fd5b906000526020600020016000915091509054906101000a900473ffffffffffffffffffffffffffffffffffffffff1681565b609a60009054906101000a900473ffffffffffffffffffffffffffffffffffffffff1681565b610a486000801b33611956565b610a87576040517f08c379a0000000000000000000000000000000000000000000000000000000008152600401610a7e90614211565b60405180910390fd5b80609b8190555050565b60a26020528060005260406000206000915054906101000a900460ff1681565b609c6020528060005260406000206000915090508060000160009054906101000a900473ffffffffffffffffffffffffffffffffffffffff16908060000160149054906101000a900460e01b908060000160189054906101000a900460e01b9080600001601c9054906101000a900463ffffffff16908060010154908060020160009054906101000a900463ffffffff1690806003015490806004015490806005015490806006015490806007018054610b6a90614260565b80601f0160208091040260200160405190810160405280929190818152602001828054610b9690614260565b8015610be35780601f10610bb857610100808354040283529160200191610be3565b820191906000526020600020905b815481529060010190602001808311610bc657829003601f168201915b505050505090508b565b600060656000838152602001908152602001600020600101549050919050565b610c156134ac565b600080600084610c2481611f71565b610c63576040517f08c379a0000000000000000000000000000000000000000000000000000000008152600401610c5a906142dd565b60405180910390fd5b6000609c6000888152602001908152602001600020604051806101600160405290816000820160009054906101000a900473ffffffffffffffffffffffffffffffffffffffff1673ffffffffffffffffffffffffffffffffffffffff1673ffffffffffffffffffffffffffffffffffffffff1681526020016000820160149054906101000a900460e01b7bffffffffffffffffffffffffffffffffffffffffffffffffffffffff19167bffffffffffffffffffffffffffffffffffffffffffffffffffffffff191681526020016000820160189054906101000a900460e01b7bffffffffffffffffffffffffffffffffffffffffffffffffffffffff19167bffffffffffffffffffffffffffffffffffffffffffffffffffffffff1916815260200160008201601c9054906101000a900463ffffffff1663ffffffff1663ffffffff168152602001600182015481526020016002820160009054906101000a900463ffffffff1663ffffffff1663ffffffff16815260200160038201548152602001600482015481526020016005820154815260200160068201548152602001600782018054610e1290614260565b80601f0160208091040260200160405190810160405280929190818152602001828054610e3e90614260565b8015610e8b5780601f10610e6057610100808354040283529160200191610e8b565b820191906000526020600020905b815481529060010190602001808311610e6e57829003601f168201915b5050505050815250509050600080609a60009054906101000a900473ffffffffffffffffffffffffffffffffffffffff1673ffffffffffffffffffffffffffffffffffffffff1663361444a584604001518b6040518363ffffffff1660e01b8152600401610efa9291906142fd565b6040805180830381865afa158015610f16573d6000803e3d6000fd5b505050506040513d601f19601f82011682018060405250810190610f3a9190614352565b9150915082609d60008b81526020019081526020016000205482609e60008d8152602001908152602001600020549750975097509750505050509193509193565b60a16020528060005260406000206000915054906101000a900460ff1681565b610fa482610bed565b610fad81612762565b610fb78383612776565b505050565b609f6020528060005260406000206000915054906101000a900463ffffffff1681565b610fe7612857565b73ffffffffffffffffffffffffffffffffffffffff168173ffffffffffffffffffffffffffffffffffffffff1614611054576040517f08c379a000000000000000000000000000000000000000000000000000000000815260040161104b90614404565b60405180910390fd5b61105e828261285f565b5050565b609960009054906101000a900473ffffffffffffffffffffffffffffffffffffffff1681565b609860009054906101000a900473ffffffffffffffffffffffffffffffffffffffff1681565b609960009054906101000a900473ffffffffffffffffffffffffffffffffffffffff1673ffffffffffffffffffffffffffffffffffffffff1663ee06b289336040518263ffffffff1660e01b81526004016111099190613725565b602060405180830381865afa158015611126573d6000803e3d6000fd5b505050506040513d601f19601f8201168201806040525081019061114a9190614424565b611189576040517f08c379a00000000000000000000000000000000000000000000000000000000081526004016111809061449d565b60405180910390fd5b61119a838383866101000135612941565b505050565b609960009054906101000a900473ffffffffffffffffffffffffffffffffffffffff1673ffffffffffffffffffffffffffffffffffffffff1663ee06b289336040518263ffffffff1660e01b81526004016111fa9190613725565b602060405180830381865afa158015611217573d6000803e3d6000fd5b505050506040513d601f19601f8201168201806040525081019061123b9190614424565b61127a576040517f08c379a00000000000000000000000000000000000000000000000000000000081526004016112719061449d565b60405180910390fd5b61128684848484612941565b50505050565b60008073ffffffffffffffffffffffffffffffffffffffff16609860009054906101000a900473ffffffffffffffffffffffffffffffffffffffff1673ffffffffffffffffffffffffffffffffffffffff16141580156113795750609860009054906101000a900473ffffffffffffffffffffffffffffffffffffffff1673ffffffffffffffffffffffffffffffffffffffff1663c909a4096040518163ffffffff1660e01b8152600401602060405180830381865afa158015611354573d6000803e3d6000fd5b505050506040513d601f19601f820116820180604052508101906113789190614424565b5b905090565b60a35481565b60008060a0600084815260200190815260200160002080548060200260200160405190810160405280929190818152602001828054801561141a57602002820191906000526020600020905b8160009054906101000a900473ffffffffffffffffffffffffffffffffffffffff1673ffffffffffffffffffffffffffffffffffffffff16815260200190600101908083116113d0575b50505050509050600081514233604051602001611438929190614526565b6040516020818303038152906040528051906020012060001c61145b9190614581565b90508181815181106114705761146f6145b2565b5b602002602001015192505050919050565b609d6020528060005260406000206000915090505481565b600080609960009054906101000a900473ffffffffffffffffffffffffffffffffffffffff1673ffffffffffffffffffffffffffffffffffffffff1663484f657b6040518163ffffffff1660e01b8152600401600060405180830381865afa158015611509573d6000803e3d6000fd5b505050506040513d6000823e3d601f19601f820116820180604052508101906115329190614734565b90506000815190506000810361157d576040517f08c379a0000000000000000000000000000000000000000000000000000000008152600401611574906147c9565b60405180910390fd5b6000816064609f600088815260200190815260200160002060009054906101000a900463ffffffff166115b09190614818565b63ffffffff166115c09190614855565b9050609a60149054906101000a900463ffffffff1663ffffffff168110159350505050919050565b6115f56000801b33611956565b611634576040517f08c379a000000000000000000000000000000000000000000000000000000000815260040161162b90614211565b60405180910390fd5b80609a60006101000a81548173ffffffffffffffffffffffffffffffffffffffff021916908373ffffffffffffffffffffffffffffffffffffffff16021790555050565b609960009054906101000a900473ffffffffffffffffffffffffffffffffffffffff1673ffffffffffffffffffffffffffffffffffffffff1663ee06b289336040518263ffffffff1660e01b81526004016116d39190613725565b602060405180830381865afa1580156116f0573d6000803e3d6000fd5b505050506040513d601f19601f820116820180604052508101906117149190614424565b611753576040517f08c379a000000000000000000000000000000000000000000000000000000000815260040161174a9061449d565b60405180910390fd5b60005b86869050811015611832576000878783818110611776576117756145b2565b5b905060200201359050611789813361183d565b156117945750611825565b61179d81611f71565b156117a85750611825565b6118238a8a848181106117be576117bd6145b2565b5b90506020028101906117d09190614895565b8989858181106117e3576117e26145b2565b5b905060200201358888868181106117fd576117fc6145b2565b5b90506020020135878787818110611817576118166145b2565b5b90506020020135612941565b505b8080600101915050611756565b505050505050505050565b60008060a060008581526020019081526020016000208054806020026020016040519081016040528092919081815260200182805480156118d357602002820191906000526020600020905b8160009054906101000a900473ffffffffffffffffffffffffffffffffffffffff1673ffffffffffffffffffffffffffffffffffffffff1681526020019060010190808311611889575b5050505050905060005b8151811015611949578373ffffffffffffffffffffffffffffffffffffffff168282815181106119105761190f6145b2565b5b602002602001015173ffffffffffffffffffffffffffffffffffffffff160361193e57600192505050611950565b8060010190506118dd565b5060009150505b92915050565b60006065600084815260200190815260200160002060000160008373ffffffffffffffffffffffffffffffffffffffff1673ffffffffffffffffffffffffffffffffffffffff16815260200190815260200160002060009054906101000a900460ff16905092915050565b6119ce6000801b33611956565b611a0d576040517f08c379a0000000000000000000000000000000000000000000000000000000008152600401611a0490614211565b60405180910390fd5b8060a660006101000a81548173ffffffffffffffffffffffffffffffffffffffff021916908373ffffffffffffffffffffffffffffffffffffffff16021790555050565b611a5e6000801b33611956565b611a9d576040517f08c379a0000000000000000000000000000000000000000000000000000000008152600401611a9490614211565b60405180910390fd5b80609960006101000a81548173ffffffffffffffffffffffffffffffffffffffff021916908373ffffffffffffffffffffffffffffffffffffffff16021790555050565b609760009054906101000a900473ffffffffffffffffffffffffffffffffffffffff1681565b6000801b81565b609a60149054906101000a900463ffffffff1681565b611b316000801b33611956565b611b70576040517f08c379a0000000000000000000000000000000000000000000000000000000008152600401611b6790614211565b60405180910390fd5b80609860006101000a81548173ffffffffffffffffffffffffffffffffffffffff021916908373ffffffffffffffffffffffffffffffffffffffff16021790555050565b611bc16000801b33611956565b611c00576040517f08c379a0000000000000000000000000000000000000000000000000000000008152600401611bf790614211565b60405180910390fd5b80609760006101000a81548173ffffffffffffffffffffffffffffffffffffffff021916908373ffffffffffffffffffffffffffffffffffffffff16021790555050565b611c516000801b33611956565b611c90576040517f08c379a0000000000000000000000000000000000000000000000000000000008152600401611c8790614211565b60405180910390fd5b60008163ffffffff1610158015611cae575060648163ffffffff1611155b611ced576040517f08c379a0000000000000000000000000000000000000000000000000000000008152600401611ce49061490a565b60405180910390fd5b80609a60146101000a81548163ffffffff021916908363ffffffff16021790555050565b60008073ffffffffffffffffffffffffffffffffffffffff16609760009054906101000a900473ffffffffffffffffffffffffffffffffffffffff1673ffffffffffffffffffffffffffffffffffffffff1614158015611dfe5750609760009054906101000a900473ffffffffffffffffffffffffffffffffffffffff1673ffffffffffffffffffffffffffffffffffffffff1663f31d5cc26040518163ffffffff1660e01b8152600401602060405180830381865afa158015611dd9573d6000803e3d6000fd5b505050506040513d601f19601f82011682018060405250810190611dfd9190614424565b5b905090565b60008060019054906101000a900460ff16159050808015611e345750600160008054906101000a900460ff1660ff16105b80611e615750611e4330613098565b158015611e605750600160008054906101000a900460ff1660ff16145b5b611ea0576040517f08c379a0000000000000000000000000000000000000000000000000000000008152600401611e979061499c565b60405180910390fd5b60016000806101000a81548160ff021916908360ff1602179055508015611edd576001600060016101000a81548160ff0219169083151502179055505b611ee56130bb565b611ef26000801b84612776565b81609a60146101000a81548163ffffffff021916908363ffffffff1602179055508015611f6c5760008060016101000a81548160ff0219169083151502179055507f7f26b83ff96e1f2b6a682f133852f6798a09c465da95921460cefb38474024986001604051611f639190614a04565b60405180910390a15b505050565b600080609c60008481526020019081526020016000209050600060e01b7bffffffffffffffffffffffffffffffffffffffffffffffffffffffff19168160000160149054906101000a900460e01b7bffffffffffffffffffffffffffffffffffffffffffffffffffffffff19161415801561203f5750600060e01b7bffffffffffffffffffffffffffffffffffffffffffffffffffffffff19168160000160189054906101000a900460e01b7bffffffffffffffffffffffffffffffffffffffffffffffffffffffff191614155b915050919050565b6120546000801b33611956565b612093576040517f08c379a000000000000000000000000000000000000000000000000000000000815260040161208a90614211565b60405180910390fd5b8060a38190555050565b6000816120a981611f71565b6120e8576040517f08c379a00000000000000000000000000000000000000000000000000000000081526004016120df906142dd565b60405180910390fd5b609e600084815260200190815260200160002054915050919050565b61210d82610bed565b61211681612762565b612120838361285f565b505050565b609b5481565b60a46020528060005260406000206000915090505481565b60a56020528060005260406000206000915090505481565b6121636134ac565b6000808361217081611f71565b6121af576040517f08c379a00000000000000000000000000000000000000000000000000000000081526004016121a6906142dd565b60405180910390fd5b609c6000868152602001908152602001600020609d600087815260200190815260200160002054609e60008881526020019081526020016000205482604051806101600160405290816000820160009054906101000a900473ffffffffffffffffffffffffffffffffffffffff1673ffffffffffffffffffffffffffffffffffffffff1673ffffffffffffffffffffffffffffffffffffffff1681526020016000820160149054906101000a900460e01b7bffffffffffffffffffffffffffffffffffffffffffffffffffffffff19167bffffffffffffffffffffffffffffffffffffffffffffffffffffffff191681526020016000820160189054906101000a900460e01b7bffffffffffffffffffffffffffffffffffffffffffffffffffffffff19167bffffffffffffffffffffffffffffffffffffffffffffffffffffffff1916815260200160008201601c9054906101000a900463ffffffff1663ffffffff1663ffffffff168152602001600182015481526020016002820160009054906101000a900463ffffffff1663ffffffff1663ffffffff1681526020016003820154815260200160048201548152602001600582015481526020016006820154815260200160078201805461238590614260565b80601f01602080910402602001604051908101604052809291908181526020018280546123b190614260565b80156123fe5780601f106123d3576101008083540402835291602001916123fe565b820191906000526020600020905b8154815290600101906020018083116123e157829003601f168201915b5050505050815250509250935093509350509193909250565b60a660009054906101000a900473ffffffffffffffffffffffffffffffffffffffff1681565b609e6020528060005260406000206000915090505481565b61245d6134ac565b60008261246981611f71565b6124a8576040517f08c379a000000000000000000000000000000000000000000000000000000000815260040161249f906142dd565b60405180910390fd5b609c6000858152602001908152602001600020609d60008681526020019081526020016000205481604051806101600160405290816000820160009054906101000a900473ffffffffffffffffffffffffffffffffffffffff1673ffffffffffffffffffffffffffffffffffffffff1673ffffffffffffffffffffffffffffffffffffffff1681526020016000820160149054906101000a900460e01b7bffffffffffffffffffffffffffffffffffffffffffffffffffffffff19167bffffffffffffffffffffffffffffffffffffffffffffffffffffffff191681526020016000820160189054906101000a900460e01b7bffffffffffffffffffffffffffffffffffffffffffffffffffffffff19167bffffffffffffffffffffffffffffffffffffffffffffffffffffffff1916815260200160008201601c9054906101000a900463ffffffff1663ffffffff1663ffffffff168152602001600182015481526020016002820160009054906101000a900463ffffffff1663ffffffff1663ffffffff1681526020016003820154815260200160048201548152602001600582015481526020016006820154815260200160078201805461266a90614260565b80601f016020809104026020016040519081016040528092919081815260200182805461269690614260565b80156126e35780601f106126b8576101008083540402835291602001916126e3565b820191906000526020600020905b8154815290600101906020018083116126c657829003601f168201915b50505050508152505091509250925050915091565b60007f01ffc9a7000000000000000000000000000000000000000000000000000000007bffffffffffffffffffffffffffffffffffffffffffffffffffffffff1916827bffffffffffffffffffffffffffffffffffffffffffffffffffffffff1916149050919050565b6127738161276e612857565b61310c565b50565b6127808282611956565b6128535760016065600084815260200190815260200160002060000160008373ffffffffffffffffffffffffffffffffffffffff1673ffffffffffffffffffffffffffffffffffffffff16815260200190815260200160002060006101000a81548160ff0219169083151502179055506127f8612857565b73ffffffffffffffffffffffffffffffffffffffff168173ffffffffffffffffffffffffffffffffffffffff16837f2f8788117e7eff1d82e926ec794901d17c78024a50270940304540a733656f0d60405160405180910390a45b5050565b600033905090565b6128698282611956565b1561293d5760006065600084815260200190815260200160002060000160008373ffffffffffffffffffffffffffffffffffffffff1673ffffffffffffffffffffffffffffffffffffffff16815260200190815260200160002060006101000a81548160ff0219169083151502179055506128e2612857565b73ffffffffffffffffffffffffffffffffffffffff168173ffffffffffffffffffffffffffffffffffffffff16837ff6391f5c32d9c69d2a47ea670b442974b53935d1edc7fd64eb21e047a839171b60405160405180910390a45b5050565b6000609f600085815260200190815260200160002060009054906101000a900463ffffffff1663ffffffff169050612979843361183d565b156129845750613092565b61298d84611f71565b15612a7a576001609f600086815260200190815260200160002060009054906101000a900463ffffffff166129c29190614a1f565b609f600086815260200190815260200160002060006101000a81548163ffffffff021916908363ffffffff16021790555080806129fe90614a57565b91505060a06000858152602001908152602001600020339080600181540180825580915050600190039060005260206000200160009091909190916101000a81548173ffffffffffffffffffffffffffffffffffffffff021916908373ffffffffffffffffffffffffffffffffffffffff160217905550612e5c565b84609c60008681526020019081526020016000208181612a9a919061529a565b90505082609d60008681526020019081526020016000208190555081609e6000868152602001908152602001600020819055506000609b541115612db05742603c60a56000886040016020810190612af291906135d5565b7bffffffffffffffffffffffffffffffffffffffffffffffffffffffff19167bffffffffffffffffffffffffffffffffffffffffffffffffffffffff1916815260200190815260200160002054612b4991906152a8565b1080612bb85750600060a46000876040016020810190612b6991906135d5565b7bffffffffffffffffffffffffffffffffffffffffffffffffffffffff19167bffffffffffffffffffffffffffffffffffffffffffffffffffffffff1916815260200190815260200160002054145b15612c8f574260a56000876040016020810190612bd591906135d5565b7bffffffffffffffffffffffffffffffffffffffffffffffffffffffff19167bffffffffffffffffffffffffffffffffffffffffffffffffffffffff1916815260200190815260200160002081905550600060a46000876040016020810190612c3e91906135d5565b7bffffffffffffffffffffffffffffffffffffffffffffffffffffffff19167bffffffffffffffffffffffffffffffffffffffffffffffffffffffff19168152602001908152602001600020819055505b609b5460a46000876040016020810190612ca991906135d5565b7bffffffffffffffffffffffffffffffffffffffffffffffffffffffff19167bffffffffffffffffffffffffffffffffffffffffffffffffffffffff191681526020019081526020016000205410612d36576040517f08c379a0000000000000000000000000000000000000000000000000000000008152600401612d2d90615328565b60405180910390fd5b60a46000866040016020810190612d4d91906135d5565b7bffffffffffffffffffffffffffffffffffffffffffffffffffffffff19167bffffffffffffffffffffffffffffffffffffffffffffffffffffffff191681526020019081526020016000206000815480929190612daa90614a57565b91905055505b6001609f600086815260200190815260200160002060006101000a81548163ffffffff021916908363ffffffff1602179055506001905060a06000858152602001908152602001600020339080600181540180825580915050600190039060005260206000200160009091909190916101000a81548173ffffffffffffffffffffffffffffffffffffffff021916908373ffffffffffffffffffffffffffffffffffffffff1602179055505b60a1600085815260200190815260200160002060009054906101000a900460ff166130425760008560e0013560001c90506000609c600087815260200190815260200160002060000160189054906101000a900460e01b9050612ebd611d11565b15612f6c57609760009054906101000a900473ffffffffffffffffffffffffffffffffffffffff1673ffffffffffffffffffffffffffffffffffffffff166382a4341782612f0a89611384565b6040518363ffffffff1660e01b8152600401612f27929190615348565b6020604051808303816000875af1158015612f46573d6000803e3d6000fd5b505050506040513d601f19601f82011682018060405250810190612f6a9190614424565b505b612f7461128c565b1561303f57609860009054906101000a900473ffffffffffffffffffffffffffffffffffffffff1673ffffffffffffffffffffffffffffffffffffffff16635bea9f5182612fc189611384565b8a6060016020810190612fd49190614070565b8b608001358b6040518663ffffffff1660e01b8152600401612ffa959493929190615371565b6020604051808303816000875af1158015613019573d6000803e3d6000fd5b505050506040513d601f19601f8201168201806040525081019061303d9190614424565b505b50505b61304b84611499565b1561309057613063848661305e906155ab565b613191565b600160a1600086815260200190815260200160002060006101000a81548160ff0219169083151502179055505b505b50505050565b6000808273ffffffffffffffffffffffffffffffffffffffff163b119050919050565b600060019054906101000a900460ff1661310a576040517f08c379a000000000000000000000000000000000000000000000000000000000815260040161310190615630565b60405180910390fd5b565b6131168282611956565b61318d5761312381613243565b6131318360001c6020613270565b60405160200161314292919061572f565b6040516020818303038152906040526040517f08c379a000000000000000000000000000000000000000000000000000000000815260040161318491906157a2565b60405180910390fd5b5050565b80602001517bffffffffffffffffffffffffffffffffffffffffffffffffffffffff1916816000015173ffffffffffffffffffffffffffffffffffffffff16837f7cf1f23841bc0d2dc173fcf8466be55571c2ee21c2a7cc430e9140871b3a9901846060015185608001518660a001518760c001518860e001518961010001518a61012001518b61014001518c60400151604051613237999897969594939291906157c4565b60405180910390a45050565b60606132698273ffffffffffffffffffffffffffffffffffffffff16601460ff16613270565b9050919050565b6060600060028360026132839190615858565b61328d91906152a8565b67ffffffffffffffff8111156132a6576132a56145e1565b5b6040519080825280601f01601f1916602001820160405280156132d85781602001600182028036833780820191505090505b5090507f3000000000000000000000000000000000000000000000000000000000000000816000815181106133105761330f6145b2565b5b60200101907effffffffffffffffffffffffffffffffffffffffffffffffffffffffffffff1916908160001a9053507f780000000000000000000000000000000000000000000000000000000000000081600181518110613374576133736145b2565b5b60200101907effffffffffffffffffffffffffffffffffffffffffffffffffffffffffffff1916908160001a905350600060018460026133b49190615858565b6133be91906152a8565b90505b600181111561345e577f3031323334353637383961626364656600000000000000000000000000000000600f861660108110613400576133ff6145b2565b5b1a60f81b828281518110613417576134166145b2565b5b60200101907effffffffffffffffffffffffffffffffffffffffffffffffffffffffffffff1916908160001a905350600485901c9450806134579061589a565b90506133c1565b50600084146134a2576040517f08c379a00000000000000000000000000000000000000000000000000000000081526004016134999061590f565b60405180910390fd5b8091505092915050565b604051806101600160405280600073ffffffffffffffffffffffffffffffffffffffff16815260200160007bffffffffffffffffffffffffffffffffffffffffffffffffffffffff1916815260200160007bffffffffffffffffffffffffffffffffffffffffffffffffffffffff19168152602001600063ffffffff16815260200160008152602001600063ffffffff16815260200160008152602001600080191681526020016000815260200160008152602001606081525090565b6000604051905090565b600080fd5b600080fd5b60007fffffffff0000000000000000000000000000000000000000000000000000000082169050919050565b6135b28161357d565b81146135bd57600080fd5b50565b6000813590506135cf816135a9565b92915050565b6000602082840312156135eb576135ea613573565b5b60006135f9848285016135c0565b91505092915050565b60008115159050919050565b61361781613602565b82525050565b6000602082019050613632600083018461360e565b92915050565b6000819050919050565b61364b81613638565b811461365657600080fd5b50565b60008135905061366881613642565b92915050565b6000819050919050565b6136818161366e565b811461368c57600080fd5b50565b60008135905061369e81613678565b92915050565b600080604083850312156136bb576136ba613573565b5b60006136c985828601613659565b92505060206136da8582860161368f565b9150509250929050565b600073ffffffffffffffffffffffffffffffffffffffff82169050919050565b600061370f826136e4565b9050919050565b61371f81613704565b82525050565b600060208201905061373a6000830184613716565b92915050565b6000819050919050565b600061376561376061375b846136e4565b613740565b6136e4565b9050919050565b60006137778261374a565b9050919050565b60006137898261376c565b9050919050565b6137998161377e565b82525050565b60006020820190506137b46000830184613790565b92915050565b6000602082840312156137d0576137cf613573565b5b60006137de8482850161368f565b91505092915050565b6000602082840312156137fd576137fc613573565b5b600061380b84828501613659565b91505092915050565b61381d8161357d565b82525050565b600063ffffffff82169050919050565b61383c81613823565b82525050565b61384b8161366e565b82525050565b61385a81613638565b82525050565b600081519050919050565b600082825260208201905092915050565b60005b8381101561389a57808201518184015260208101905061387f565b60008484015250505050565b6000601f19601f8301169050919050565b60006138c282613860565b6138cc818561386b565b93506138dc81856020860161387c565b6138e5816138a6565b840191505092915050565b600061016082019050613906600083018e613716565b613913602083018d613814565b613920604083018c613814565b61392d606083018b613833565b61393a608083018a613842565b61394760a0830189613833565b61395460c0830188613842565b61396160e0830187613851565b61396f610100830186613842565b61397d610120830185613842565b81810361014083015261399081846138b7565b90509c9b505050505050505050505050565b60006020820190506139b76000830184613851565b92915050565b6139c681613704565b82525050565b6139d58161357d565b82525050565b6139e481613823565b82525050565b6139f38161366e565b82525050565b613a0281613638565b82525050565b600082825260208201905092915050565b6000613a2482613860565b613a2e8185613a08565b9350613a3e81856020860161387c565b613a47816138a6565b840191505092915050565b600061016083016000830151613a6b60008601826139bd565b506020830151613a7e60208601826139cc565b506040830151613a9160408601826139cc565b506060830151613aa460608601826139db565b506080830151613ab760808601826139ea565b5060a0830151613aca60a08601826139db565b5060c0830151613add60c08601826139ea565b5060e0830151613af060e08601826139f9565b50610100830151613b056101008601826139ea565b50610120830151613b1a6101208601826139ea565b50610140830151848203610140860152613b348282613a19565b9150508091505092915050565b60006080820190508181036000830152613b5b8187613a52565b9050613b6a6020830186613851565b613b77604083018561360e565b613b846060830184613842565b95945050505050565b613b9681613704565b8114613ba157600080fd5b50565b600081359050613bb381613b8d565b92915050565b60008060408385031215613bd057613bcf613573565b5b6000613bde85828601613659565b9250506020613bef85828601613ba4565b9150509250929050565b6000602082019050613c0e6000830184613833565b92915050565b6000613c1f8261376c565b9050919050565b613c2f81613c14565b82525050565b6000602082019050613c4a6000830184613c26565b92915050565b6000613c5b8261376c565b9050919050565b613c6b81613c50565b82525050565b6000602082019050613c866000830184613c62565b92915050565b600080fd5b60006101608284031215613ca857613ca7613c8c565b5b81905092915050565b600080600060608486031215613cca57613cc9613573565b5b600084013567ffffffffffffffff811115613ce857613ce7613578565b5b613cf486828701613c91565b9350506020613d0586828701613659565b9250506040613d1686828701613659565b9150509250925092565b60008060008060808587031215613d3a57613d39613573565b5b600085013567ffffffffffffffff811115613d5857613d57613578565b5b613d6487828801613c91565b9450506020613d7587828801613659565b9350506040613d8687828801613659565b9250506060613d978782880161368f565b91505092959194509250565b6000613dae826136e4565b9050919050565b613dbe81613da3565b8114613dc957600080fd5b50565b600081359050613ddb81613db5565b92915050565b600060208284031215613df757613df6613573565b5b6000613e0584828501613dcc565b91505092915050565b600080fd5b600080fd5b600080fd5b60008083601f840112613e3357613e32613e0e565b5b8235905067ffffffffffffffff811115613e5057613e4f613e13565b5b602083019150836020820283011115613e6c57613e6b613e18565b5b9250929050565b60008083601f840112613e8957613e88613e0e565b5b8235905067ffffffffffffffff811115613ea657613ea5613e13565b5b602083019150836020820283011115613ec257613ec1613e18565b5b9250929050565b60008083601f840112613edf57613ede613e0e565b5b8235905067ffffffffffffffff811115613efc57613efb613e13565b5b602083019150836020820283011115613f1857613f17613e18565b5b9250929050565b6000806000806000806000806080898b031215613f3f57613f3e613573565b5b600089013567ffffffffffffffff811115613f5d57613f5c613578565b5b613f698b828c01613e1d565b9850985050602089013567ffffffffffffffff811115613f8c57613f8b613578565b5b613f988b828c01613e73565b9650965050604089013567ffffffffffffffff811115613fbb57613fba613578565b5b613fc78b828c01613e73565b9450945050606089013567ffffffffffffffff811115613fea57613fe9613578565b5b613ff68b828c01613ec9565b92509250509295985092959890939650565b60006140138261376c565b9050919050565b61402381614008565b82525050565b600060208201905061403e600083018461401a565b92915050565b61404d81613823565b811461405857600080fd5b50565b60008135905061406a81614044565b92915050565b60006020828403121561408657614085613573565b5b60006140948482850161405b565b91505092915050565b600080604083850312156140b4576140b3613573565b5b60006140c285828601613ba4565b92505060206140d38582860161405b565b9150509250929050565b60006020820190506140f26000830184613842565b92915050565b600060608201905081810360008301526141128186613a52565b90506141216020830185613851565b61412e6040830184613842565b949350505050565b60006141418261374a565b9050919050565b600061415382614136565b9050919050565b61416381614148565b82525050565b600060208201905061417e600083018461415a565b92915050565b6000604082019050818103600083015261419e8185613a52565b90506141ad6020830184613851565b9392505050565b600082825260208201905092915050565b7f4f42310000000000000000000000000000000000000000000000000000000000600082015250565b60006141fb6003836141b4565b9150614206826141c5565b602082019050919050565b6000602082019050818103600083015261422a816141ee565b9050919050565b7f4e487b7100000000000000000000000000000000000000000000000000000000600052602260045260246000fd5b6000600282049050600182168061427857607f821691505b60208210810361428b5761428a614231565b5b50919050565b7f4f42330000000000000000000000000000000000000000000000000000000000600082015250565b60006142c76003836141b4565b91506142d282614291565b602082019050919050565b600060208201905081810360008301526142f6816142ba565b9050919050565b60006040820190506143126000830185613814565b61431f6020830184613851565b9392505050565b61432f81613602565b811461433a57600080fd5b50565b60008151905061434c81614326565b92915050565b6000806040838503121561436957614368613573565b5b60006143778582860161433d565b92505060206143888582860161433d565b9150509250929050565b7f416363657373436f6e74726f6c3a2063616e206f6e6c792072656e6f756e636560008201527f20726f6c657320666f722073656c660000000000000000000000000000000000602082015250565b60006143ee602f836141b4565b91506143f982614392565b604082019050919050565b6000602082019050818103600083015261441d816143e1565b9050919050565b60006020828403121561443a57614439613573565b5b60006144488482850161433d565b91505092915050565b7f4f42320000000000000000000000000000000000000000000000000000000000600082015250565b60006144876003836141b4565b915061449282614451565b602082019050919050565b600060208201905081810360008301526144b68161447a565b9050919050565b6000819050919050565b6144d86144d38261366e565b6144bd565b82525050565b60008160601b9050919050565b60006144f6826144de565b9050919050565b6000614508826144eb565b9050919050565b61452061451b82613704565b6144fd565b82525050565b600061453282856144c7565b602082019150614542828461450f565b6014820191508190509392505050565b7f4e487b7100000000000000000000000000000000000000000000000000000000600052601260045260246000fd5b600061458c8261366e565b91506145978361366e565b9250826145a7576145a6614552565b5b828206905092915050565b7f4e487b7100000000000000000000000000000000000000000000000000000000600052603260045260246000fd5b7f4e487b7100000000000000000000000000000000000000000000000000000000600052604160045260246000fd5b614619826138a6565b810181811067ffffffffffffffff82111715614638576146376145e1565b5b80604052505050565b600061464b613569565b90506146578282614610565b919050565b600067ffffffffffffffff821115614677576146766145e1565b5b602082029050602081019050919050565b60008151905061469781613b8d565b92915050565b60006146b06146ab8461465c565b614641565b905080838252602082019050602084028301858111156146d3576146d2613e18565b5b835b818110156146fc57806146e88882614688565b8452602084019350506020810190506146d5565b5050509392505050565b600082601f83011261471b5761471a613e0e565b5b815161472b84826020860161469d565b91505092915050565b60006020828403121561474a57614749613573565b5b600082015167ffffffffffffffff81111561476857614767613578565b5b61477484828501614706565b91505092915050565b7f4f42360000000000000000000000000000000000000000000000000000000000600082015250565b60006147b36003836141b4565b91506147be8261477d565b602082019050919050565b600060208201905081810360008301526147e2816147a6565b9050919050565b7f4e487b7100000000000000000000000000000000000000000000000000000000600052601160045260246000fd5b600061482382613823565b915061482e83613823565b925082820261483c81613823565b915080821461484e5761484d6147e9565b5b5092915050565b60006148608261366e565b915061486b8361366e565b92508261487b5761487a614552565b5b828204905092915050565b600080fd5b600080fd5b600080fd5b600082356001610160038336030381126148b2576148b1614886565b5b80830191505092915050565b7f4f42350000000000000000000000000000000000000000000000000000000000600082015250565b60006148f46003836141b4565b91506148ff826148be565b602082019050919050565b60006020820190508181036000830152614923816148e7565b9050919050565b7f496e697469616c697a61626c653a20636f6e747261637420697320616c72656160008201527f647920696e697469616c697a6564000000000000000000000000000000000000602082015250565b6000614986602e836141b4565b91506149918261492a565b604082019050919050565b600060208201905081810360008301526149b581614979565b9050919050565b6000819050919050565b600060ff82169050919050565b60006149ee6149e96149e4846149bc565b613740565b6149c6565b9050919050565b6149fe816149d3565b82525050565b6000602082019050614a1960008301846149f5565b92915050565b6000614a2a82613823565b9150614a3583613823565b9250828201905063ffffffff811115614a5157614a506147e9565b5b92915050565b6000614a628261366e565b91507fffffffffffffffffffffffffffffffffffffffffffffffffffffffffffffffff8203614a9457614a936147e9565b5b600182019050919050565b60008135614aac81613b8d565b80915050919050565b60008160001b9050919050565b600073ffffffffffffffffffffffffffffffffffffffff614ae284614ab5565b9350801983169250808416831791505092915050565b6000614b0382614136565b9050919050565b6000819050919050565b614b1d82614af8565b614b30614b2982614b0a565b8354614ac2565b8255505050565b60008135614b44816135a9565b80915050919050565b60008160a01b9050919050565b600077ffffffff0000000000000000000000000000000000000000614b7e84614b4d565b9350801983169250808416831791505092915050565b6000614b9f8261357d565b9050919050565b60008160e01c9050919050565b6000614bbe82614ba6565b9050919050565b614bce82614b94565b614be1614bda82614bb3565b8354614b5a565b8255505050565b60008160c01b9050919050565b60007bffffffff000000000000000000000000000000000000000000000000614c1d84614be8565b9350801983169250808416831791505092915050565b614c3c82614b94565b614c4f614c4882614bb3565b8354614bf5565b8255505050565b60008135614c6381614044565b80915050919050565b60008160e01b9050919050565b60007fffffffff00000000000000000000000000000000000000000000000000000000614ca584614c6c565b9350801983169250808416831791505092915050565b6000614cd6614cd1614ccc84613823565b613740565b613823565b9050919050565b6000819050919050565b614cf082614cbb565b614d03614cfc82614cdd565b8354614c79565b8255505050565b60008135614d1781613678565b80915050919050565b60007fffffffffffffffffffffffffffffffffffffffffffffffffffffffffffffffff614d4c84614ab5565b9350801983169250808416831791505092915050565b6000614d7d614d78614d738461366e565b613740565b61366e565b9050919050565b6000819050919050565b614d9782614d62565b614daa614da382614d84565b8354614d20565b8255505050565b600063ffffffff614dc184614ab5565b9350801983169250808416831791505092915050565b614de082614cbb565b614df3614dec82614cdd565b8354614db1565b8255505050565b60008135614e0781613642565b80915050919050565b6000614e1b82613638565b9050919050565b60008160001c9050919050565b6000614e3a82614e22565b9050919050565b614e4a82614e10565b614e5d614e5682614e2f565b8354614d20565b8255505050565b60008083356001602003843603038112614e8157614e80614886565b5b80840192508235915067ffffffffffffffff821115614ea357614ea261488b565b5b602083019250600182023603831315614ebf57614ebe614890565b5b509250929050565b600082905092915050565b60008190508160005260206000209050919050565b60006020601f8301049050919050565b600082821b905092915050565b600060088302614f347fffffffffffffffffffffffffffffffffffffffffffffffffffffffffffffffff82614ef7565b614f3e8683614ef7565b95508019841693508086168417925050509392505050565b614f5f83614d62565b614f73614f6b82614d84565b848454614f04565b825550505050565b600090565b614f88614f7b565b614f93818484614f56565b505050565b5b81811015614fb757614fac600082614f80565b600181019050614f99565b5050565b601f821115614ffc57614fcd81614ed2565b614fd684614ee7565b81016020851015614fe5578190505b614ff9614ff185614ee7565b830182614f98565b50505b505050565b600082821c905092915050565b600061501f60001984600802615001565b1980831691505092915050565b6000615038838361500e565b9150826002028217905092915050565b6150528383614ec7565b67ffffffffffffffff81111561506b5761506a6145e1565b5b6150758254614260565b615080828285614fbb565b6000601f8311600181146150af576000841561509d578287013590505b6150a7858261502c565b86555061510f565b601f1984166150bd86614ed2565b60005b828110156150e5578489013582556001820191506020850194506020810190506150c0565b8683101561510257848901356150fe601f89168261500e565b8355505b6001600288020188555050505b50505050505050565b615123838383615048565b505050565b60008101600083018061513a81614a9f565b90506151468184614b14565b50505060008101602083018061515b81614b37565b90506151678184614bc5565b50505060008101604083018061517c81614b37565b90506151888184614c33565b50505060008101606083018061519d81614c56565b90506151a98184614ce7565b5050506001810160808301806151be81614d0a565b90506151ca8184614d8e565b5050506002810160a08301806151df81614c56565b90506151eb8184614dd7565b5050506003810160c083018061520081614d0a565b905061520c8184614d8e565b5050506004810160e083018061522181614dfa565b905061522d8184614e41565b5050506005810161010083018061524381614d0a565b905061524f8184614d8e565b5050506006810161012083018061526581614d0a565b90506152718184614d8e565b5050506007810161014083016152878185614e64565b615292818386615118565b505050505050565b6152a48282615128565b5050565b60006152b38261366e565b91506152be8361366e565b92508282019050808211156152d6576152d56147e9565b5b92915050565b7f4f42380000000000000000000000000000000000000000000000000000000000600082015250565b60006153126003836141b4565b915061531d826152dc565b602082019050919050565b6000602082019050818103600083015261534181615305565b9050919050565b600060408201905061535d6000830185613814565b61536a6020830184613716565b9392505050565b600060a0820190506153866000830188613814565b6153936020830187613716565b6153a06040830186613833565b6153ad6060830185613842565b6153ba6080830184613851565b9695505050505050565b600080fd5b600080fd5b600080fd5b600067ffffffffffffffff8211156153ee576153ed6145e1565b5b6153f7826138a6565b9050602081019050919050565b82818337600083830152505050565b6000615426615421846153d3565b614641565b905082815260208101848484011115615442576154416153ce565b5b61544d848285615404565b509392505050565b600082601f83011261546a57615469613e0e565b5b813561547a848260208601615413565b91505092915050565b6000610160828403121561549a576154996153c4565b5b6154a5610160614641565b905060006154b584828501613ba4565b60008301525060206154c9848285016135c0565b60208301525060406154dd848285016135c0565b60408301525060606154f18482850161405b565b60608301525060806155058482850161368f565b60808301525060a06155198482850161405b565b60a08301525060c061552d8482850161368f565b60c08301525060e061554184828501613659565b60e0830152506101006155568482850161368f565b6101008301525061012061556c8482850161368f565b6101208301525061014082013567ffffffffffffffff811115615592576155916153c9565b5b61559e84828501615455565b6101408301525092915050565b60006155b73683615483565b9050919050565b7f496e697469616c697a61626c653a20636f6e7472616374206973206e6f74206960008201527f6e697469616c697a696e67000000000000000000000000000000000000000000602082015250565b600061561a602b836141b4565b9150615625826155be565b604082019050919050565b600060208201905081810360008301526156498161560d565b9050919050565b600081905092915050565b7f416363657373436f6e74726f6c3a206163636f756e7420000000000000000000600082015250565b6000615691601783615650565b915061569c8261565b565b601782019050919050565b600081519050919050565b60006156bd826156a7565b6156c78185615650565b93506156d781856020860161387c565b80840191505092915050565b7f206973206d697373696e6720726f6c6520000000000000000000000000000000600082015250565b6000615719601183615650565b9150615724826156e3565b601182019050919050565b600061573a82615684565b915061574682856156b2565b91506157518261570c565b915061575d82846156b2565b91508190509392505050565b6000615774826156a7565b61577e81856141b4565b935061578e81856020860161387c565b615797816138a6565b840191505092915050565b600060208201905081810360008301526157bc8184615769565b905092915050565b6000610120820190506157da600083018c613833565b6157e7602083018b613842565b6157f4604083018a613833565b6158016060830189613842565b61580e6080830188613851565b61581b60a0830187613842565b61582860c0830186613842565b81810360e083015261583a81856138b7565b905061584a610100830184613814565b9a9950505050505050505050565b60006158638261366e565b915061586e8361366e565b925082820261587c8161366e565b91508282048414831517615893576158926147e9565b5b5092915050565b60006158a58261366e565b9150600082036158b8576158b76147e9565b5b600182039050919050565b7f537472696e67733a20686578206c656e67746820696e73756666696369656e74600082015250565b60006158f96020836141b4565b9150615904826158c3565b602082019050919050565b60006020820190508181036000830152615928816158ec565b905091905056fea2646970667358221220068cfd08bd8745cd35f6471b0907e132ebde5b122f670a07f77cd435248e1d2b64736f6c63430008180033",
  "linkReferences": {},
  "deployedLinkReferences": {}
}