{
  "_format": "hh-sol-artifact-1",
  "contractName": "RewardToNativeBridge",
  "sourceName": "contracts/rewardToNativeBridge.sol",
  "abi": [
    {
      "inputs": [],
      "stateMutability": "nonpayable",
      "type": "constructor"
    },
    {
      "anonymous": false,
      "inputs": [
        {
          "indexed": false,
          "internalType": "uint8",
          "name": "version",
          "type": "uint8"
        }
      ],
      "name": "Initialized",
      "type": "event"
    },
    {
      "anonymous": false,
      "inputs": [
        {
          "indexed": true,
          "internalType": "bytes32",
          "name": "role",
          "type": "bytes32"
        },
        {
          "indexed": true,
          "internalType": "bytes32",
          "name": "previousAdminRole",
          "type": "bytes32"
        },
        {
          "indexed": true,
          "internalType": "bytes32",
          "name": "newAdminRole",
          "type": "bytes32"
        }
      ],
      "name": "RoleAdminChanged",
      "type": "event"
    },
    {
      "anonymous": false,
      "inputs": [
        {
          "indexed": true,
          "internalType": "bytes32",
          "name": "role",
          "type": "bytes32"
        },
        {
          "indexed": true,
          "internalType": "address",
          "name": "account",
          "type": "address"
        },
        {
          "indexed": true,
          "internalType": "address",
          "name": "sender",
          "type": "address"
        }
      ],
      "name": "RoleGranted",
      "type": "event"
    },
    {
      "anonymous": false,
      "inputs": [
        {
          "indexed": true,
          "internalType": "bytes32",
          "name": "role",
          "type": "bytes32"
        },
        {
          "indexed": true,
          "internalType": "address",
          "name": "account",
          "type": "address"
        },
        {
          "indexed": true,
          "internalType": "address",
          "name": "sender",
          "type": "address"
        }
      ],
      "name": "RoleRevoked",
      "type": "event"
    },
    {
      "stateMutability": "payable",
      "type": "fallback"
    },
    {
      "inputs": [],
      "name": "DEFAULT_ADMIN_ROLE",
      "outputs": [
        {
          "internalType": "bytes32",
          "name": "",
          "type": "bytes32"
        }
      ],
      "stateMutability": "view",
      "type": "function"
    },
    {
      "inputs": [
        {
          "internalType": "bytes32",
          "name": "role",
          "type": "bytes32"
        }
      ],
      "name": "getRoleAdmin",
      "outputs": [
        {
          "internalType": "bytes32",
          "name": "",
          "type": "bytes32"
        }
      ],
      "stateMutability": "view",
      "type": "function"
    },
    {
      "inputs": [
        {
          "internalType": "bytes32",
          "name": "role",
          "type": "bytes32"
        },
        {
          "internalType": "address",
          "name": "account",
          "type": "address"
        }
      ],
      "name": "grantRole",
      "outputs": [],
      "stateMutability": "nonpayable",
      "type": "function"
    },
    {
      "inputs": [
        {
          "internalType": "bytes32",
          "name": "role",
          "type": "bytes32"
        },
        {
          "internalType": "address",
          "name": "account",
          "type": "address"
        }
      ],
      "name": "hasRole",
      "outputs": [
        {
          "internalType": "bool",
          "name": "",
          "type": "bool"
        }
      ],
      "stateMutability": "view",
      "type": "function"
    },
    {
      "inputs": [
        {
          "internalType": "address",
          "name": "_owner",
          "type": "address"
        }
      ],
      "name": "initialize",
      "outputs": [],
      "stateMutability": "nonpayable",
      "type": "function"
    },
    {
      "inputs": [
        {
          "internalType": "bytes32",
          "name": "role",
          "type": "bytes32"
        },
        {
          "internalType": "address",
          "name": "account",
          "type": "address"
        }
      ],
      "name": "renounceRole",
      "outputs": [],
      "stateMutability": "nonpayable",
      "type": "function"
    },
    {
      "inputs": [
        {
          "internalType": "bytes32",
          "name": "role",
          "type": "bytes32"
        },
        {
          "internalType": "address",
          "name": "account",
          "type": "address"
        }
      ],
      "name": "revokeRole",
      "outputs": [],
      "stateMutability": "nonpayable",
      "type": "function"
    },
    {
      "inputs": [],
      "name": "rewardToken",
      "outputs": [
        {
          "internalType": "contract RewardTokenL3",
          "name": "",
          "type": "address"
        }
      ],
      "stateMutability": "view",
      "type": "function"
    },
    {
      "inputs": [
        {
          "internalType": "address payable",
          "name": "_rewardToken",
          "type": "address"
        }
      ],
      "name": "setRewardToken",
      "outputs": [],
      "stateMutability": "nonpayable",
      "type": "function"
    },
    {
      "inputs": [
        {
          "internalType": "bytes32",
          "name": "_version",
          "type": "bytes32"
        }
      ],
      "name": "setVersion",
      "outputs": [],
      "stateMutability": "nonpayable",
      "type": "function"
    },
    {
      "inputs": [
        {
          "internalType": "bytes4",
          "name": "interfaceId",
          "type": "bytes4"
        }
      ],
      "name": "supportsInterface",
      "outputs": [
        {
          "internalType": "bool",
          "name": "",
          "type": "bool"
        }
      ],
      "stateMutability": "view",
      "type": "function"
    },
    {
      "inputs": [],
      "name": "version",
      "outputs": [
        {
          "internalType": "bytes32",
          "name": "",
          "type": "bytes32"
        }
      ],
      "stateMutability": "view",
      "type": "function"
    },
    {
      "inputs": [
        {
          "internalType": "uint256",
          "name": "amount",
          "type": "uint256"
        }
      ],
      "name": "withdraw",
      "outputs": [],
      "stateMutability": "payable",
      "type": "function"
    },
    {
      "stateMutability": "payable",
      "type": "receive"
    }
  ],
  "bytecode": "0x60806040523480156200001157600080fd5b50620000226200002860201b60201c565b620001d2565b600060019054906101000a900460ff16156200007b576040517f08c379a0000000000000000000000000000000000000000000000000000000008152600401620000729062000175565b60405180910390fd5b60ff801660008054906101000a900460ff1660ff1614620000ec5760ff6000806101000a81548160ff021916908360ff1602179055507f7f26b83ff96e1f2b6a682f133852f6798a09c465da95921460cefb384740249860ff604051620000e39190620001b5565b60405180910390a15b565b600082825260208201905092915050565b7f496e697469616c697a61626c653a20636f6e747261637420697320696e69746960008201527f616c697a696e6700000000000000000000000000000000000000000000000000602082015250565b60006200015d602783620000ee565b91506200016a82620000ff565b604082019050919050565b6000602082019050818103600083015262000190816200014e565b9050919050565b600060ff82169050919050565b620001af8162000197565b82525050565b6000602082019050620001cc6000830184620001a4565b92915050565b611a6b80620001e26000396000f3fe6080604052600436106100c65760003560e01c80638aee81271161007f578063c4d66de811610059578063c4d66de814610273578063ca5f81b51461029c578063d547741f146102c5578063f7c618c1146102ee576100cd565b80638aee8127146101e257806391d148541461020b578063a217fddf14610248576100cd565b806301ffc9a7146100cf578063248a9ca31461010c5780632e1a7d4d146101495780632f2ff15d1461016557806336568abe1461018e57806354fd4d50146101b7576100cd565b366100cd57005b005b3480156100db57600080fd5b506100f660048036038101906100f19190610f6d565b610319565b6040516101039190610fb5565b60405180910390f35b34801561011857600080fd5b50610133600480360381019061012e9190611006565b610393565b6040516101409190611042565b60405180910390f35b610163600480360381019061015e9190611093565b6103b3565b005b34801561017157600080fd5b5061018c6004803603810190610187919061111e565b6105d0565b005b34801561019a57600080fd5b506101b560048036038101906101b0919061111e565b6105f1565b005b3480156101c357600080fd5b506101cc610674565b6040516101d99190611042565b60405180910390f35b3480156101ee57600080fd5b506102096004803603810190610204919061119c565b61067a565b005b34801561021757600080fd5b50610232600480360381019061022d919061111e565b61070a565b60405161023f9190610fb5565b60405180910390f35b34801561025457600080fd5b5061025d610775565b60405161026a9190611042565b60405180910390f35b34801561027f57600080fd5b5061029a600480360381019061029591906111c9565b61077c565b005b3480156102a857600080fd5b506102c360048036038101906102be9190611006565b6108c8565b005b3480156102d157600080fd5b506102ec60048036038101906102e7919061111e565b61091e565b005b3480156102fa57600080fd5b5061030361093f565b6040516103109190611255565b60405180910390f35b60007f7965db0b000000000000000000000000000000000000000000000000000000007bffffffffffffffffffffffffffffffffffffffffffffffffffffffff1916827bffffffffffffffffffffffffffffffffffffffffffffffffffffffff1916148061038c575061038b82610965565b5b9050919050565b600060656000838152602001908152602001600020600101549050919050565b80609760009054906101000a900473ffffffffffffffffffffffffffffffffffffffff1673ffffffffffffffffffffffffffffffffffffffff166370a08231336040518263ffffffff1660e01b815260040161040f919061127f565b602060405180830381865afa15801561042c573d6000803e3d6000fd5b505050506040513d601f19601f8201168201806040525081019061045091906112af565b1015610491576040517f08c379a000000000000000000000000000000000000000000000000000000000815260040161048890611339565b60405180910390fd5b609760009054906101000a900473ffffffffffffffffffffffffffffffffffffffff1673ffffffffffffffffffffffffffffffffffffffff166379cc679033836040518363ffffffff1660e01b81526004016104ee929190611368565b600060405180830381600087803b15801561050857600080fd5b505af115801561051c573d6000803e3d6000fd5b5050505060003373ffffffffffffffffffffffffffffffffffffffff1682604051610546906113c2565b60006040518083038185875af1925050503d8060008114610583576040519150601f19603f3d011682016040523d82523d6000602084013e610588565b606091505b50509050806105cc576040517f08c379a00000000000000000000000000000000000000000000000000000000081526004016105c390611423565b60405180910390fd5b5050565b6105d982610393565b6105e2816109cf565b6105ec83836109e3565b505050565b6105f9610ac4565b73ffffffffffffffffffffffffffffffffffffffff168173ffffffffffffffffffffffffffffffffffffffff1614610666576040517f08c379a000000000000000000000000000000000000000000000000000000000815260040161065d906114b5565b60405180910390fd5b6106708282610acc565b5050565b60985481565b6106876000801b3361070a565b6106c6576040517f08c379a00000000000000000000000000000000000000000000000000000000081526004016106bd90611547565b60405180910390fd5b80609760006101000a81548173ffffffffffffffffffffffffffffffffffffffff021916908373ffffffffffffffffffffffffffffffffffffffff16021790555050565b60006065600084815260200190815260200160002060000160008373ffffffffffffffffffffffffffffffffffffffff1673ffffffffffffffffffffffffffffffffffffffff16815260200190815260200160002060009054906101000a900460ff16905092915050565b6000801b81565b60008060019054906101000a900460ff161590508080156107ad5750600160008054906101000a900460ff1660ff16105b806107da57506107bc30610bae565b1580156107d95750600160008054906101000a900460ff1660ff16145b5b610819576040517f08c379a0000000000000000000000000000000000000000000000000000000008152600401610810906115d9565b60405180910390fd5b60016000806101000a81548160ff021916908360ff1602179055508015610856576001600060016101000a81548160ff0219169083151502179055505b61085e610bd1565b61086b6000801b836109e3565b80156108c45760008060016101000a81548160ff0219169083151502179055507f7f26b83ff96e1f2b6a682f133852f6798a09c465da95921460cefb384740249860016040516108bb9190611641565b60405180910390a15b5050565b6108d56000801b3361070a565b610914576040517f08c379a000000000000000000000000000000000000000000000000000000000815260040161090b90611547565b60405180910390fd5b8060988190555050565b61092782610393565b610930816109cf565b61093a8383610acc565b505050565b609760009054906101000a900473ffffffffffffffffffffffffffffffffffffffff1681565b60007f01ffc9a7000000000000000000000000000000000000000000000000000000007bffffffffffffffffffffffffffffffffffffffffffffffffffffffff1916827bffffffffffffffffffffffffffffffffffffffffffffffffffffffff1916149050919050565b6109e0816109db610ac4565b610c22565b50565b6109ed828261070a565b610ac05760016065600084815260200190815260200160002060000160008373ffffffffffffffffffffffffffffffffffffffff1673ffffffffffffffffffffffffffffffffffffffff16815260200190815260200160002060006101000a81548160ff021916908315150217905550610a65610ac4565b73ffffffffffffffffffffffffffffffffffffffff168173ffffffffffffffffffffffffffffffffffffffff16837f2f8788117e7eff1d82e926ec794901d17c78024a50270940304540a733656f0d60405160405180910390a45b5050565b600033905090565b610ad6828261070a565b15610baa5760006065600084815260200190815260200160002060000160008373ffffffffffffffffffffffffffffffffffffffff1673ffffffffffffffffffffffffffffffffffffffff16815260200190815260200160002060006101000a81548160ff021916908315150217905550610b4f610ac4565b73ffffffffffffffffffffffffffffffffffffffff168173ffffffffffffffffffffffffffffffffffffffff16837ff6391f5c32d9c69d2a47ea670b442974b53935d1edc7fd64eb21e047a839171b60405160405180910390a45b5050565b6000808273ffffffffffffffffffffffffffffffffffffffff163b119050919050565b600060019054906101000a900460ff16610c20576040517f08c379a0000000000000000000000000000000000000000000000000000000008152600401610c17906116ce565b60405180910390fd5b565b610c2c828261070a565b610ca357610c3981610ca7565b610c478360001c6020610cd4565b604051602001610c589291906117f7565b6040516020818303038152906040526040517f08c379a0000000000000000000000000000000000000000000000000000000008152600401610c9a919061187b565b60405180910390fd5b5050565b6060610ccd8273ffffffffffffffffffffffffffffffffffffffff16601460ff16610cd4565b9050919050565b606060006002836002610ce791906118cc565b610cf1919061190e565b67ffffffffffffffff811115610d0a57610d09611942565b5b6040519080825280601f01601f191660200182016040528015610d3c5781602001600182028036833780820191505090505b5090507f300000000000000000000000000000000000000000000000000000000000000081600081518110610d7457610d73611971565b5b60200101907effffffffffffffffffffffffffffffffffffffffffffffffffffffffffffff1916908160001a9053507f780000000000000000000000000000000000000000000000000000000000000081600181518110610dd857610dd7611971565b5b60200101907effffffffffffffffffffffffffffffffffffffffffffffffffffffffffffff1916908160001a90535060006001846002610e1891906118cc565b610e22919061190e565b90505b6001811115610ec2577f3031323334353637383961626364656600000000000000000000000000000000600f861660108110610e6457610e63611971565b5b1a60f81b828281518110610e7b57610e7a611971565b5b60200101907effffffffffffffffffffffffffffffffffffffffffffffffffffffffffffff1916908160001a905350600485901c945080610ebb906119a0565b9050610e25565b5060008414610f06576040517f08c379a0000000000000000000000000000000000000000000000000000000008152600401610efd90611a15565b60405180910390fd5b8091505092915050565b600080fd5b60007fffffffff0000000000000000000000000000000000000000000000000000000082169050919050565b610f4a81610f15565b8114610f5557600080fd5b50565b600081359050610f6781610f41565b92915050565b600060208284031215610f8357610f82610f10565b5b6000610f9184828501610f58565b91505092915050565b60008115159050919050565b610faf81610f9a565b82525050565b6000602082019050610fca6000830184610fa6565b92915050565b6000819050919050565b610fe381610fd0565b8114610fee57600080fd5b50565b60008135905061100081610fda565b92915050565b60006020828403121561101c5761101b610f10565b5b600061102a84828501610ff1565b91505092915050565b61103c81610fd0565b82525050565b60006020820190506110576000830184611033565b92915050565b6000819050919050565b6110708161105d565b811461107b57600080fd5b50565b60008135905061108d81611067565b92915050565b6000602082840312156110a9576110a8610f10565b5b60006110b78482850161107e565b91505092915050565b600073ffffffffffffffffffffffffffffffffffffffff82169050919050565b60006110eb826110c0565b9050919050565b6110fb816110e0565b811461110657600080fd5b50565b600081359050611118816110f2565b92915050565b6000806040838503121561113557611134610f10565b5b600061114385828601610ff1565b925050602061115485828601611109565b9150509250929050565b6000611169826110c0565b9050919050565b6111798161115e565b811461118457600080fd5b50565b60008135905061119681611170565b92915050565b6000602082840312156111b2576111b1610f10565b5b60006111c084828501611187565b91505092915050565b6000602082840312156111df576111de610f10565b5b60006111ed84828501611109565b91505092915050565b6000819050919050565b600061121b611216611211846110c0565b6111f6565b6110c0565b9050919050565b600061122d82611200565b9050919050565b600061123f82611222565b9050919050565b61124f81611234565b82525050565b600060208201905061126a6000830184611246565b92915050565b611279816110e0565b82525050565b60006020820190506112946000830184611270565b92915050565b6000815190506112a981611067565b92915050565b6000602082840312156112c5576112c4610f10565b5b60006112d38482850161129a565b91505092915050565b600082825260208201905092915050565b7f496e73756666696369656e742062616c616e6365000000000000000000000000600082015250565b60006113236014836112dc565b915061132e826112ed565b602082019050919050565b6000602082019050818103600083015261135281611316565b9050919050565b6113628161105d565b82525050565b600060408201905061137d6000830185611270565b61138a6020830184611359565b9392505050565b600081905092915050565b50565b60006113ac600083611391565b91506113b78261139c565b600082019050919050565b60006113cd8261139f565b9150819050919050565b7f4661696c656420746f2073656e64204574686572000000000000000000000000600082015250565b600061140d6014836112dc565b9150611418826113d7565b602082019050919050565b6000602082019050818103600083015261143c81611400565b9050919050565b7f416363657373436f6e74726f6c3a2063616e206f6e6c792072656e6f756e636560008201527f20726f6c657320666f722073656c660000000000000000000000000000000000602082015250565b600061149f602f836112dc565b91506114aa82611443565b604082019050919050565b600060208201905081810360008301526114ce81611492565b9050919050565b7f4f6e6c79206f776e65722063616e2063616c6c20746869732066756e6374696f60008201527f6e00000000000000000000000000000000000000000000000000000000000000602082015250565b60006115316021836112dc565b915061153c826114d5565b604082019050919050565b6000602082019050818103600083015261156081611524565b9050919050565b7f496e697469616c697a61626c653a20636f6e747261637420697320616c72656160008201527f647920696e697469616c697a6564000000000000000000000000000000000000602082015250565b60006115c3602e836112dc565b91506115ce82611567565b604082019050919050565b600060208201905081810360008301526115f2816115b6565b9050919050565b6000819050919050565b600060ff82169050919050565b600061162b611626611621846115f9565b6111f6565b611603565b9050919050565b61163b81611610565b82525050565b60006020820190506116566000830184611632565b92915050565b7f496e697469616c697a61626c653a20636f6e7472616374206973206e6f74206960008201527f6e697469616c697a696e67000000000000000000000000000000000000000000602082015250565b60006116b8602b836112dc565b91506116c38261165c565b604082019050919050565b600060208201905081810360008301526116e7816116ab565b9050919050565b600081905092915050565b7f416363657373436f6e74726f6c3a206163636f756e7420000000000000000000600082015250565b600061172f6017836116ee565b915061173a826116f9565b601782019050919050565b600081519050919050565b60005b8381101561176e578082015181840152602081019050611753565b60008484015250505050565b600061178582611745565b61178f81856116ee565b935061179f818560208601611750565b80840191505092915050565b7f206973206d697373696e6720726f6c6520000000000000000000000000000000600082015250565b60006117e16011836116ee565b91506117ec826117ab565b601182019050919050565b600061180282611722565b915061180e828561177a565b9150611819826117d4565b9150611825828461177a565b91508190509392505050565b6000601f19601f8301169050919050565b600061184d82611745565b61185781856112dc565b9350611867818560208601611750565b61187081611831565b840191505092915050565b600060208201905081810360008301526118958184611842565b905092915050565b7f4e487b7100000000000000000000000000000000000000000000000000000000600052601160045260246000fd5b60006118d78261105d565b91506118e28361105d565b92508282026118f08161105d565b915082820484148315176119075761190661189d565b5b5092915050565b60006119198261105d565b91506119248361105d565b925082820190508082111561193c5761193b61189d565b5b92915050565b7f4e487b7100000000000000000000000000000000000000000000000000000000600052604160045260246000fd5b7f4e487b7100000000000000000000000000000000000000000000000000000000600052603260045260246000fd5b60006119ab8261105d565b9150600082036119be576119bd61189d565b5b600182039050919050565b7f537472696e67733a20686578206c656e67746820696e73756666696369656e74600082015250565b60006119ff6020836112dc565b9150611a0a826119c9565b602082019050919050565b60006020820190508181036000830152611a2e816119f2565b905091905056fea2646970667358221220cf7c5823aa3c8b1c5351c7cc0acbde474712177d4c54901334b5556edbf4eaf364736f6c63430008180033",
  "linkReferences": {},
  "deployedLinkReferences": {}
}