{
  "_format": "hh-sol-artifact-1",
  "contractName": "EscrowGMP",
  "sourceName": "contracts/escrowGMP.sol",
  "abi": [
    {
      "inputs": [],
      "stateMutability": "nonpayable",
      "type": "constructor"
    },
    {
      "anonymous": false,
      "inputs": [
        {
          "indexed": true,
          "internalType": "bytes32",
          "name": "sfxId",
          "type": "bytes32"
        },
        {
          "indexed": true,
          "internalType": "address",
          "name": "beneficiary",
          "type": "address"
        },
        {
          "indexed": true,
          "internalType": "bytes32",
          "name": "actualPayloadHash",
          "type": "bytes32"
        }
      ],
      "name": "GMPExpectedPayloadNotMatched",
      "type": "event"
    },
    {
      "anonymous": false,
      "inputs": [
        {
          "indexed": false,
          "internalType": "uint8",
          "name": "version",
          "type": "uint8"
        }
      ],
      "name": "Initialized",
      "type": "event"
    },
    {
      "anonymous": false,
      "inputs": [
        {
          "indexed": true,
          "internalType": "bytes32",
          "name": "sfxId",
          "type": "bytes32"
        },
        {
          "indexed": true,
          "internalType": "address",
          "name": "beneficiary",
          "type": "address"
        }
      ],
      "name": "PresumablyLateExecution",
      "type": "event"
    },
    {
      "anonymous": false,
      "inputs": [
        {
          "indexed": true,
          "internalType": "bytes32",
          "name": "role",
          "type": "bytes32"
        },
        {
          "indexed": true,
          "internalType": "bytes32",
          "name": "previousAdminRole",
          "type": "bytes32"
        },
        {
          "indexed": true,
          "internalType": "bytes32",
          "name": "newAdminRole",
          "type": "bytes32"
        }
      ],
      "name": "RoleAdminChanged",
      "type": "event"
    },
    {
      "anonymous": false,
      "inputs": [
        {
          "indexed": true,
          "internalType": "bytes32",
          "name": "role",
          "type": "bytes32"
        },
        {
          "indexed": true,
          "internalType": "address",
          "name": "account",
          "type": "address"
        },
        {
          "indexed": true,
          "internalType": "address",
          "name": "sender",
          "type": "address"
        }
      ],
      "name": "RoleGranted",
      "type": "event"
    },
    {
      "anonymous": false,
      "inputs": [
        {
          "indexed": true,
          "internalType": "bytes32",
          "name": "role",
          "type": "bytes32"
        },
        {
          "indexed": true,
          "internalType": "address",
          "name": "account",
          "type": "address"
        },
        {
          "indexed": true,
          "internalType": "address",
          "name": "sender",
          "type": "address"
        }
      ],
      "name": "RoleRevoked",
      "type": "event"
    },
    {
      "inputs": [],
      "name": "DEFAULT_ADMIN_ROLE",
      "outputs": [
        {
          "internalType": "bytes32",
          "name": "",
          "type": "bytes32"
        }
      ],
      "stateMutability": "view",
      "type": "function"
    },
    {
      "inputs": [
        {
          "internalType": "address",
          "name": "_attesters",
          "type": "address"
        }
      ],
      "name": "assignAttesters",
      "outputs": [],
      "stateMutability": "nonpayable",
      "type": "function"
    },
    {
      "inputs": [
        {
          "internalType": "address",
          "name": "_orderer",
          "type": "address"
        }
      ],
      "name": "assignEscrowOrderer",
      "outputs": [],
      "stateMutability": "nonpayable",
      "type": "function"
    },
    {
      "inputs": [
        {
          "internalType": "address",
          "name": "_orderer",
          "type": "address"
        }
      ],
      "name": "assignOrderer",
      "outputs": [],
      "stateMutability": "nonpayable",
      "type": "function"
    },
    {
      "inputs": [
        {
          "internalType": "bytes32",
          "name": "sfxId",
          "type": "bytes32"
        },
        {
          "internalType": "address",
          "name": "beneficiary",
          "type": "address"
        }
      ],
      "name": "commitEscrowBeneficiaryPayload",
      "outputs": [
        {
          "internalType": "bool",
          "name": "",
          "type": "bool"
        }
      ],
      "stateMutability": "nonpayable",
      "type": "function"
    },
    {
      "inputs": [
        {
          "internalType": "bytes32",
          "name": "id",
          "type": "bytes32"
        },
        {
          "internalType": "address",
          "name": "rewardAsset",
          "type": "address"
        },
        {
          "internalType": "uint256",
          "name": "rewardAmount",
          "type": "uint256"
        },
        {
          "internalType": "address",
          "name": "beneficiary",
          "type": "address"
        }
      ],
      "name": "commitEscrowCall",
      "outputs": [
        {
          "internalType": "bool",
          "name": "",
          "type": "bool"
        }
      ],
      "stateMutability": "nonpayable",
      "type": "function"
    },
    {
      "inputs": [
        {
          "internalType": "bytes32",
          "name": "orderId",
          "type": "bytes32"
        },
        {
          "internalType": "address",
          "name": "beneficiary",
          "type": "address"
        }
      ],
      "name": "commitRemoteBeneficiaryPayload",
      "outputs": [
        {
          "internalType": "bool",
          "name": "",
          "type": "bool"
        }
      ],
      "stateMutability": "nonpayable",
      "type": "function"
    },
    {
      "inputs": [
        {
          "internalType": "bytes32",
          "name": "orderId",
          "type": "bytes32"
        },
        {
          "internalType": "address",
          "name": "beneficiary",
          "type": "address"
        },
        {
          "internalType": "uint256",
          "name": "rewardSettled",
          "type": "uint256"
        }
      ],
      "name": "commitRemoteBeneficiaryPayloadOpenMarket",
      "outputs": [
        {
          "internalType": "bool",
          "name": "",
          "type": "bool"
        }
      ],
      "stateMutability": "nonpayable",
      "type": "function"
    },
    {
      "inputs": [
        {
          "internalType": "bytes32",
          "name": "",
          "type": "bytes32"
        }
      ],
      "name": "escrowCallExists",
      "outputs": [
        {
          "internalType": "bool",
          "name": "",
          "type": "bool"
        }
      ],
      "stateMutability": "view",
      "type": "function"
    },
    {
      "inputs": [
        {
          "internalType": "bytes32",
          "name": "",
          "type": "bytes32"
        }
      ],
      "name": "escrowCalls",
      "outputs": [
        {
          "components": [
            {
              "internalType": "bytes",
              "name": "callData",
              "type": "bytes"
            },
            {
              "internalType": "address",
              "name": "destination",
              "type": "address"
            }
          ],
          "internalType": "struct EscrowGMP.Call",
          "name": "onCommit",
          "type": "tuple"
        },
        {
          "components": [
            {
              "internalType": "bytes",
              "name": "callData",
              "type": "bytes"
            },
            {
              "internalType": "address",
              "name": "destination",
              "type": "address"
            }
          ],
          "internalType": "struct EscrowGMP.Call",
          "name": "onRevert",
          "type": "tuple"
        }
      ],
      "stateMutability": "view",
      "type": "function"
    },
    {
      "inputs": [
        {
          "internalType": "bytes32",
          "name": "",
          "type": "bytes32"
        }
      ],
      "name": "escrowCallsPayments",
      "outputs": [
        {
          "internalType": "bytes32",
          "name": "",
          "type": "bytes32"
        }
      ],
      "stateMutability": "view",
      "type": "function"
    },
    {
      "inputs": [
        {
          "internalType": "bytes32",
          "name": "",
          "type": "bytes32"
        }
      ],
      "name": "escrowOrdersPayloadHash",
      "outputs": [
        {
          "internalType": "bytes32",
          "name": "",
          "type": "bytes32"
        }
      ],
      "stateMutability": "view",
      "type": "function"
    },
    {
      "inputs": [],
      "name": "getAttesters",
      "outputs": [
        {
          "internalType": "address",
          "name": "",
          "type": "address"
        }
      ],
      "stateMutability": "view",
      "type": "function"
    },
    {
      "inputs": [
        {
          "internalType": "bytes32",
          "name": "id",
          "type": "bytes32"
        }
      ],
      "name": "getCommitCall",
      "outputs": [
        {
          "components": [
            {
              "internalType": "bytes",
              "name": "callData",
              "type": "bytes"
            },
            {
              "internalType": "address",
              "name": "destination",
              "type": "address"
            }
          ],
          "internalType": "struct EscrowGMP.Call",
          "name": "",
          "type": "tuple"
        }
      ],
      "stateMutability": "view",
      "type": "function"
    },
    {
      "inputs": [
        {
          "internalType": "bytes32",
          "name": "id",
          "type": "bytes32"
        }
      ],
      "name": "getEscrowCallPayloadHash",
      "outputs": [
        {
          "internalType": "bytes32",
          "name": "",
          "type": "bytes32"
        }
      ],
      "stateMutability": "view",
      "type": "function"
    },
    {
      "inputs": [
        {
          "internalType": "bytes32",
          "name": "sfxId",
          "type": "bytes32"
        }
      ],
      "name": "getEscrowOrdersPayloadHash",
      "outputs": [
        {
          "internalType": "bytes32",
          "name": "",
          "type": "bytes32"
        }
      ],
      "stateMutability": "view",
      "type": "function"
    },
    {
      "inputs": [],
      "name": "getOrderer",
      "outputs": [
        {
          "internalType": "address",
          "name": "",
          "type": "address"
        }
      ],
      "stateMutability": "view",
      "type": "function"
    },
    {
      "inputs": [
        {
          "internalType": "bytes32",
          "name": "orderId",
          "type": "bytes32"
        }
      ],
      "name": "getRemotePaymentPayloadHash",
      "outputs": [
        {
          "internalType": "bytes32",
          "name": "",
          "type": "bytes32"
        }
      ],
      "stateMutability": "view",
      "type": "function"
    },
    {
      "inputs": [
        {
          "internalType": "bytes32",
          "name": "id",
          "type": "bytes32"
        }
      ],
      "name": "getRevertCall",
      "outputs": [
        {
          "components": [
            {
              "internalType": "bytes",
              "name": "callData",
              "type": "bytes"
            },
            {
              "internalType": "address",
              "name": "destination",
              "type": "address"
            }
          ],
          "internalType": "struct EscrowGMP.Call",
          "name": "",
          "type": "tuple"
        }
      ],
      "stateMutability": "view",
      "type": "function"
    },
    {
      "inputs": [
        {
          "internalType": "bytes32",
          "name": "role",
          "type": "bytes32"
        }
      ],
      "name": "getRoleAdmin",
      "outputs": [
        {
          "internalType": "bytes32",
          "name": "",
          "type": "bytes32"
        }
      ],
      "stateMutability": "view",
      "type": "function"
    },
    {
      "inputs": [
        {
          "internalType": "bytes32",
          "name": "role",
          "type": "bytes32"
        },
        {
          "internalType": "address",
          "name": "account",
          "type": "address"
        }
      ],
      "name": "grantRole",
      "outputs": [],
      "stateMutability": "nonpayable",
      "type": "function"
    },
    {
      "inputs": [
        {
          "internalType": "bytes32",
          "name": "role",
          "type": "bytes32"
        },
        {
          "internalType": "address",
          "name": "account",
          "type": "address"
        }
      ],
      "name": "hasRole",
      "outputs": [
        {
          "internalType": "bool",
          "name": "",
          "type": "bool"
        }
      ],
      "stateMutability": "view",
      "type": "function"
    },
    {
      "inputs": [
        {
          "internalType": "address",
          "name": "_owner",
          "type": "address"
        }
      ],
      "name": "initialize",
      "outputs": [],
      "stateMutability": "nonpayable",
      "type": "function"
    },
    {
      "inputs": [
        {
          "internalType": "bytes32",
          "name": "orderId",
          "type": "bytes32"
        }
      ],
      "name": "nullifyPayloadHash",
      "outputs": [],
      "stateMutability": "nonpayable",
      "type": "function"
    },
    {
      "inputs": [
        {
          "internalType": "bytes32",
          "name": "orderId",
          "type": "bytes32"
        }
      ],
      "name": "oneifyPayloadHash",
      "outputs": [],
      "stateMutability": "nonpayable",
      "type": "function"
    },
    {
      "inputs": [
        {
          "internalType": "bytes32",
          "name": "",
          "type": "bytes32"
        }
      ],
      "name": "remotePayments",
      "outputs": [
        {
          "internalType": "bool",
          "name": "",
          "type": "bool"
        }
      ],
      "stateMutability": "view",
      "type": "function"
    },
    {
      "inputs": [
        {
          "internalType": "bytes32",
          "name": "",
          "type": "bytes32"
        }
      ],
      "name": "remotePaymentsPayloadHash",
      "outputs": [
        {
          "internalType": "bytes32",
          "name": "",
          "type": "bytes32"
        }
      ],
      "stateMutability": "view",
      "type": "function"
    },
    {
      "inputs": [
        {
          "internalType": "bytes32",
          "name": "role",
          "type": "bytes32"
        },
        {
          "internalType": "address",
          "name": "account",
          "type": "address"
        }
      ],
      "name": "renounceRole",
      "outputs": [],
      "stateMutability": "nonpayable",
      "type": "function"
    },
    {
      "inputs": [
        {
          "internalType": "bytes32",
          "name": "orderId",
          "type": "bytes32"
        }
      ],
      "name": "revertRemoteOrderPayload",
      "outputs": [
        {
          "internalType": "bool",
          "name": "",
          "type": "bool"
        }
      ],
      "stateMutability": "nonpayable",
      "type": "function"
    },
    {
      "inputs": [
        {
          "internalType": "bytes32",
          "name": "role",
          "type": "bytes32"
        },
        {
          "internalType": "address",
          "name": "account",
          "type": "address"
        }
      ],
      "name": "revokeRole",
      "outputs": [],
      "stateMutability": "nonpayable",
      "type": "function"
    },
    {
      "inputs": [
        {
          "internalType": "bytes32",
          "name": "_version",
          "type": "bytes32"
        }
      ],
      "name": "setVersion",
      "outputs": [],
      "stateMutability": "nonpayable",
      "type": "function"
    },
    {
      "inputs": [
        {
          "internalType": "bytes32",
          "name": "sfxId",
          "type": "bytes32"
        },
        {
          "internalType": "address",
          "name": "beneficiary",
          "type": "address"
        }
      ],
      "name": "signalEscrowGMPMismatch",
      "outputs": [],
      "stateMutability": "nonpayable",
      "type": "function"
    },
    {
      "inputs": [
        {
          "internalType": "bytes32",
          "name": "orderId",
          "type": "bytes32"
        },
        {
          "internalType": "address",
          "name": "beneficiary",
          "type": "address"
        }
      ],
      "name": "signalOrderGMPMismatch",
      "outputs": [],
      "stateMutability": "nonpayable",
      "type": "function"
    },
    {
      "inputs": [
        {
          "internalType": "bytes",
          "name": "data",
          "type": "bytes"
        }
      ],
      "name": "storeEscrowCallOrder",
      "outputs": [
        {
          "internalType": "bytes32",
          "name": "",
          "type": "bytes32"
        }
      ],
      "stateMutability": "nonpayable",
      "type": "function"
    },
    {
      "inputs": [
        {
          "internalType": "bytes32",
          "name": "sfxId",
          "type": "bytes32"
        },
        {
          "internalType": "bytes32",
          "name": "payloadHash",
          "type": "bytes32"
        }
      ],
      "name": "storeEscrowOrderPayload",
      "outputs": [
        {
          "internalType": "bool",
          "name": "",
          "type": "bool"
        }
      ],
      "stateMutability": "nonpayable",
      "type": "function"
    },
    {
      "inputs": [
        {
          "internalType": "bytes32",
          "name": "orderId",
          "type": "bytes32"
        },
        {
          "internalType": "bytes32",
          "name": "payloadHash",
          "type": "bytes32"
        }
      ],
      "name": "storeRemoteOrderPayload",
      "outputs": [
        {
          "internalType": "bool",
          "name": "",
          "type": "bool"
        }
      ],
      "stateMutability": "nonpayable",
      "type": "function"
    },
    {
      "inputs": [
        {
          "internalType": "bytes4",
          "name": "interfaceId",
          "type": "bytes4"
        }
      ],
      "name": "supportsInterface",
      "outputs": [
        {
          "internalType": "bool",
          "name": "",
          "type": "bool"
        }
      ],
      "stateMutability": "view",
      "type": "function"
    },
    {
      "inputs": [
        {
          "internalType": "bytes32",
          "name": "orderId",
          "type": "bytes32"
        }
      ],
      "name": "twoifyPayloadHash",
      "outputs": [],
      "stateMutability": "nonpayable",
      "type": "function"
    },
    {
      "inputs": [],
      "name": "version",
      "outputs": [
        {
          "internalType": "bytes32",
          "name": "",
          "type": "bytes32"
        }
      ],
      "stateMutability": "view",
      "type": "function"
    }
  ],
  "bytecode": "0x60806040523480156200001157600080fd5b50620000226200002860201b60201c565b620001d2565b600060019054906101000a900460ff16156200007b576040517f08c379a0000000000000000000000000000000000000000000000000000000008152600401620000729062000175565b60405180910390fd5b60ff801660008054906101000a900460ff1660ff1614620000ec5760ff6000806101000a81548160ff021916908360ff1602179055507f7f26b83ff96e1f2b6a682f133852f6798a09c465da95921460cefb384740249860ff604051620000e39190620001b5565b60405180910390a15b565b600082825260208201905092915050565b7f496e697469616c697a61626c653a20636f6e747261637420697320696e69746960008201527f616c697a696e6700000000000000000000000000000000000000000000000000602082015250565b60006200015d602783620000ee565b91506200016a82620000ff565b604082019050919050565b6000602082019050818103600083015262000190816200014e565b9050919050565b600060ff82169050919050565b620001af8162000197565b82525050565b6000602082019050620001cc6000830184620001a4565b92915050565b613df180620001e26000396000f3fe608060405234801561001057600080fd5b506004361061023d5760003560e01c806399f30f511161013b578063c4d66de8116100b8578063d02fce981161007c578063d02fce981461077e578063d547741f146107ae578063dd50923e146107ca578063e8628a6a146107fa578063ec39028a1461082b5761023d565b8063c4d66de8146106ca578063c85c7428146106e6578063ca5f81b514610716578063cb9871d914610732578063d01179e6146107625761023d565b8063ab8ca205116100ff578063ab8ca205146105da578063b132961c1461060a578063b1dc43c91461063a578063b241c05b1461066a578063bedbe8711461069a5761023d565b806399f30f51146105385780639e5238d214610554578063a217fddf14610584578063a77715d0146105a2578063a796b628146105be5761023d565b80634ed7e435116101c957806374823beb1161018d57806374823beb14610448578063801c5f3c146104785780638885206d146104a857806391d14854146104d857806397de6693146105085761023d565b80634ed7e4351461038e57806354fd4d50146103ac57806355f067d1146103ca5780635b775e32146103fa5780635f6e82521461042a5761023d565b806329d8712e1161021057806329d8712e146102ee5780632ebe21a71461031e5780632f2ff15d1461033a57806336568abe146103565780633a7cba58146103725761023d565b806301ffc9a7146102425780630d8dd7631461027257806313b2512a146102a2578063248a9ca3146102be575b600080fd5b61025c60048036038101906102579190612a8a565b610847565b6040516102699190612ad2565b60405180910390f35b61028c60048036038101906102879190612b23565b6108c1565b6040516102999190612ad2565b60405180910390f35b6102bc60048036038101906102b79190612b63565b61099c565b005b6102d860048036038101906102d39190612b63565b610abf565b6040516102e59190612b9f565b60405180910390f35b61030860048036038101906103039190612c4e565b610adf565b6040516103159190612ad2565b60405180910390f35b61033860048036038101906103339190612cb5565b610bf4565b005b610354600480360381019061034f9190612ce2565b610c84565b005b610370600480360381019061036b9190612ce2565b610ca5565b005b61038c60048036038101906103879190612ce2565b610d28565b005b610396610e1a565b6040516103a39190612d31565b60405180910390f35b6103b4610e44565b6040516103c19190612b9f565b60405180910390f35b6103e460048036038101906103df9190612b23565b610e4a565b6040516103f19190612ad2565b60405180910390f35b610414600480360381019061040f9190612b63565b610f25565b6040516104219190612ad2565b60405180910390f35b61043261107b565b60405161043f9190612d31565b60405180910390f35b610462600480360381019061045d9190612b63565b6110a5565b60405161046f9190612b9f565b60405180910390f35b610492600480360381019061048d9190612b63565b6110bd565b60405161049f9190612ad2565b60405180910390f35b6104c260048036038101906104bd9190612b63565b6110dd565b6040516104cf9190612b9f565b60405180910390f35b6104f260048036038101906104ed9190612ce2565b6110fa565b6040516104ff9190612ad2565b60405180910390f35b610522600480360381019061051d9190612b63565b611165565b60405161052f9190612b9f565b60405180910390f35b610552600480360381019061054d9190612b63565b61117d565b005b61056e60048036038101906105699190612b63565b61129e565b60405161057b9190612b9f565b60405180910390f35b61058c6112bb565b6040516105999190612b9f565b60405180910390f35b6105bc60048036038101906105b79190612b63565b6112c2565b005b6105d860048036038101906105d39190612cb5565b6113e5565b005b6105f460048036038101906105ef9190612ce2565b611475565b6040516106019190612ad2565b60405180910390f35b610624600480360381019061061f9190612b63565b611623565b6040516106319190612e28565b60405180910390f35b610654600480360381019061064f9190612b63565b61173b565b6040516106619190612ad2565b60405180910390f35b610684600480360381019061067f9190612e4a565b61175b565b6040516106919190612ad2565b60405180910390f35b6106b460048036038101906106af9190612ce2565b61190c565b6040516106c19190612ad2565b60405180910390f35b6106e460048036038101906106df9190612cb5565b611abb565b005b61070060048036038101906106fb9190612f02565b611c76565b60405161070d9190612b9f565b60405180910390f35b610730600480360381019061072b9190612b63565b611ef5565b005b61074c60048036038101906107479190612b63565b611f4b565b6040516107599190612b9f565b60405180910390f35b61077c60048036038101906107779190612ce2565b611f68565b005b61079860048036038101906107939190612b63565b61205a565b6040516107a59190612e28565b60405180910390f35b6107c860048036038101906107c39190612ce2565b612172565b005b6107e460048036038101906107df9190612b63565b612193565b6040516107f19190612b9f565b60405180910390f35b610814600480360381019061080f9190612b63565b6121ab565b604051610822929190612f4f565b60405180910390f35b61084560048036038101906108409190612cb5565b6123b3565b005b60007f7965db0b000000000000000000000000000000000000000000000000000000007bffffffffffffffffffffffffffffffffffffffffffffffffffffffff1916827bffffffffffffffffffffffffffffffffffffffffffffffffffffffff191614806108ba57506108b982612443565b5b9050919050565b6000609860009054906101000a900473ffffffffffffffffffffffffffffffffffffffff1673ffffffffffffffffffffffffffffffffffffffff163373ffffffffffffffffffffffffffffffffffffffff1614610953576040517f08c379a000000000000000000000000000000000000000000000000000000000815260040161094a90613009565b60405180910390fd5b6000801b609e600085815260200190815260200160002054146109795760009050610996565b81609e600085815260200190815260200160002081905550600190505b92915050565b609860009054906101000a900473ffffffffffffffffffffffffffffffffffffffff1673ffffffffffffffffffffffffffffffffffffffff163373ffffffffffffffffffffffffffffffffffffffff161480610a455750609960009054906101000a900473ffffffffffffffffffffffffffffffffffffffff1673ffffffffffffffffffffffffffffffffffffffff163373ffffffffffffffffffffffffffffffffffffffff16145b610a84576040517f08c379a0000000000000000000000000000000000000000000000000000000008152600401610a7b9061309b565b60405180910390fd5b600260001b609e600083815260200190815260200160002081905550600260001b609b60008381526020019081526020016000208190555050565b600060656000838152602001908152602001600020600101549050919050565b6000609760009054906101000a900473ffffffffffffffffffffffffffffffffffffffff1673ffffffffffffffffffffffffffffffffffffffff163373ffffffffffffffffffffffffffffffffffffffff1614610b71576040517f08c379a0000000000000000000000000000000000000000000000000000000008152600401610b689061312d565b60405180910390fd5b609c600086815260200190815260200160002060009054906101000a900460ff16610b9f5760009050610bec565b6000848484604051602001610bb69392919061315c565b60405160208183030381529060405280519060200120905080609b60008881526020019081526020016000208190555060019150505b949350505050565b610c016000801b336110fa565b610c40576040517f08c379a0000000000000000000000000000000000000000000000000000000008152600401610c3790613205565b60405180910390fd5b80609860006101000a81548173ffffffffffffffffffffffffffffffffffffffff021916908373ffffffffffffffffffffffffffffffffffffffff16021790555050565b610c8d82610abf565b610c96816124ad565b610ca083836124c1565b505050565b610cad6125a2565b73ffffffffffffffffffffffffffffffffffffffff168173ffffffffffffffffffffffffffffffffffffffff1614610d1a576040517f08c379a0000000000000000000000000000000000000000000000000000000008152600401610d1190613297565b60405180910390fd5b610d2482826125aa565b5050565b609760009054906101000a900473ffffffffffffffffffffffffffffffffffffffff1673ffffffffffffffffffffffffffffffffffffffff163373ffffffffffffffffffffffffffffffffffffffff1614610db8576040517f08c379a0000000000000000000000000000000000000000000000000000000008152600401610daf9061312d565b60405180910390fd5b6000609f6000848152602001908152602001600020549050808273ffffffffffffffffffffffffffffffffffffffff16847f40f4d46b1b8323786c124b4ded736df018c5d1aa9ea042d70863d0efa909d05a60405160405180910390a4505050565b6000609760009054906101000a900473ffffffffffffffffffffffffffffffffffffffff16905090565b60a05481565b6000609960009054906101000a900473ffffffffffffffffffffffffffffffffffffffff1673ffffffffffffffffffffffffffffffffffffffff163373ffffffffffffffffffffffffffffffffffffffff1614610edc576040517f08c379a0000000000000000000000000000000000000000000000000000000008152600401610ed390613009565b60405180910390fd5b6000801b609f60008581526020019081526020016000205414610f025760009050610f1f565b81609f600085815260200190815260200160002081905550600190505b92915050565b6000609760009054906101000a900473ffffffffffffffffffffffffffffffffffffffff1673ffffffffffffffffffffffffffffffffffffffff163373ffffffffffffffffffffffffffffffffffffffff1614610fb7576040517f08c379a0000000000000000000000000000000000000000000000000000000008152600401610fae9061312d565b60405180910390fd5b6000609e60008481526020019081526020016000205490506000801b81036110295780600073ffffffffffffffffffffffffffffffffffffffff16847f40f4d46b1b8323786c124b4ded736df018c5d1aa9ea042d70863d0efa909d05a60405160405180910390a46000915050611076565b600081600060405160200161103f9291906132b7565b60405160208183030381529060405280519060200120905080609e6000868152602001908152602001600020819055506001925050505b919050565b6000609860009054906101000a900473ffffffffffffffffffffffffffffffffffffffff16905090565b609f6020528060005260406000206000915090505481565b609c6020528060005260406000206000915054906101000a900460ff1681565b6000609b6000838152602001908152602001600020549050919050565b60006065600084815260200190815260200160002060000160008373ffffffffffffffffffffffffffffffffffffffff1673ffffffffffffffffffffffffffffffffffffffff16815260200190815260200160002060009054906101000a900460ff16905092915050565b609b6020528060005260406000206000915090505481565b609860009054906101000a900473ffffffffffffffffffffffffffffffffffffffff1673ffffffffffffffffffffffffffffffffffffffff163373ffffffffffffffffffffffffffffffffffffffff1614806112265750609960009054906101000a900473ffffffffffffffffffffffffffffffffffffffff1673ffffffffffffffffffffffffffffffffffffffff163373ffffffffffffffffffffffffffffffffffffffff16145b611265576040517f08c379a000000000000000000000000000000000000000000000000000000000815260040161125c9061309b565b60405180910390fd5b6000801b609e6000838152602001908152602001600020819055506000801b609b60008381526020019081526020016000208190555050565b6000609f6000838152602001908152602001600020549050919050565b6000801b81565b609860009054906101000a900473ffffffffffffffffffffffffffffffffffffffff1673ffffffffffffffffffffffffffffffffffffffff163373ffffffffffffffffffffffffffffffffffffffff16148061136b5750609960009054906101000a900473ffffffffffffffffffffffffffffffffffffffff1673ffffffffffffffffffffffffffffffffffffffff163373ffffffffffffffffffffffffffffffffffffffff16145b6113aa576040517f08c379a00000000000000000000000000000000000000000000000000000000081526004016113a19061309b565b60405180910390fd5b600160001b609e600083815260200190815260200160002081905550600160001b609b60008381526020019081526020016000208190555050565b6113f26000801b336110fa565b611431576040517f08c379a000000000000000000000000000000000000000000000000000000000815260040161142890613205565b60405180910390fd5b80609760006101000a81548173ffffffffffffffffffffffffffffffffffffffff021916908373ffffffffffffffffffffffffffffffffffffffff16021790555050565b6000609760009054906101000a900473ffffffffffffffffffffffffffffffffffffffff1673ffffffffffffffffffffffffffffffffffffffff163373ffffffffffffffffffffffffffffffffffffffff1614611507576040517f08c379a00000000000000000000000000000000000000000000000000000000081526004016114fe9061312d565b60405180910390fd5b6000609e60008581526020019081526020016000205490506000801b810361157857808373ffffffffffffffffffffffffffffffffffffffff16857f40f4d46b1b8323786c124b4ded736df018c5d1aa9ea042d70863d0efa909d05a60405160405180910390a4600091505061161d565b600260001b81036115d1578273ffffffffffffffffffffffffffffffffffffffff16847fde4c13eda5db8128e62d9917df437406792162fa4289fb5653bf1c7904c93d1960405160405180910390a3600091505061161d565b600081846040516020016115e69291906132b7565b60405160208183030381529060405280519060200120905080609e6000878152602001908152602001600020819055506001925050505b92915050565b61162b6129ee565b609a600083815260200190815260200160002060000160405180604001604052908160008201805461165c9061330f565b80601f01602080910402602001604051908101604052809291908181526020018280546116889061330f565b80156116d55780601f106116aa576101008083540402835291602001916116d5565b820191906000526020600020905b8154815290600101906020018083116116b857829003601f168201915b505050505081526020016001820160009054906101000a900473ffffffffffffffffffffffffffffffffffffffff1673ffffffffffffffffffffffffffffffffffffffff1673ffffffffffffffffffffffffffffffffffffffff16815250509050919050565b609d6020528060005260406000206000915054906101000a900460ff1681565b6000609760009054906101000a900473ffffffffffffffffffffffffffffffffffffffff1673ffffffffffffffffffffffffffffffffffffffff163373ffffffffffffffffffffffffffffffffffffffff16146117ed576040517f08c379a00000000000000000000000000000000000000000000000000000000081526004016117e49061312d565b60405180910390fd5b6000609e60008681526020019081526020016000205490506000801b810361185e57808473ffffffffffffffffffffffffffffffffffffffff16867f40f4d46b1b8323786c124b4ded736df018c5d1aa9ea042d70863d0efa909d05a60405160405180910390a46000915050611905565b600260001b81036118b7578373ffffffffffffffffffffffffffffffffffffffff16857fde4c13eda5db8128e62d9917df437406792162fa4289fb5653bf1c7904c93d1960405160405180910390a36000915050611905565b60008185856040516020016118ce93929190613340565b60405160208183030381529060405280519060200120905080609e6000888152602001908152602001600020819055506001925050505b9392505050565b6000609760009054906101000a900473ffffffffffffffffffffffffffffffffffffffff1673ffffffffffffffffffffffffffffffffffffffff163373ffffffffffffffffffffffffffffffffffffffff161461199e576040517f08c379a00000000000000000000000000000000000000000000000000000000081526004016119959061312d565b60405180910390fd5b6000609f60008581526020019081526020016000205490506000801b8103611a105780600073ffffffffffffffffffffffffffffffffffffffff16857f40f4d46b1b8323786c124b4ded736df018c5d1aa9ea042d70863d0efa909d05a60405160405180910390a46000915050611ab5565b600260001b8103611a69578273ffffffffffffffffffffffffffffffffffffffff16847fde4c13eda5db8128e62d9917df437406792162fa4289fb5653bf1c7904c93d1960405160405180910390a36000915050611ab5565b60008184604051602001611a7e9291906132b7565b60405160208183030381529060405280519060200120905080609f6000878152602001908152602001600020819055506001925050505b92915050565b60008060019054906101000a900460ff16159050808015611aec5750600160008054906101000a900460ff1660ff16105b80611b195750611afb3061268c565b158015611b185750600160008054906101000a900460ff1660ff16145b5b611b58576040517f08c379a0000000000000000000000000000000000000000000000000000000008152600401611b4f906133e9565b60405180910390fd5b60016000806101000a81548160ff021916908360ff1602179055508015611b95576001600060016101000a81548160ff0219169083151502179055505b600073ffffffffffffffffffffffffffffffffffffffff168273ffffffffffffffffffffffffffffffffffffffff1603611c04576040517f08c379a0000000000000000000000000000000000000000000000000000000008152600401611bfb90613455565b60405180910390fd5b611c0c6126af565b611c196000801b836124c1565b8015611c725760008060016101000a81548160ff0219169083151502179055507f7f26b83ff96e1f2b6a682f133852f6798a09c465da95921460cefb38474024986001604051611c6991906134c7565b60405180910390a15b5050565b6000609860009054906101000a900473ffffffffffffffffffffffffffffffffffffffff1673ffffffffffffffffffffffffffffffffffffffff163373ffffffffffffffffffffffffffffffffffffffff161480611d215750609960009054906101000a900473ffffffffffffffffffffffffffffffffffffffff1673ffffffffffffffffffffffffffffffffffffffff163373ffffffffffffffffffffffffffffffffffffffff16145b611d60576040517f08c379a0000000000000000000000000000000000000000000000000000000008152600401611d579061309b565b60405180910390fd5b6000808484810190611d729190613710565b91509150609c600083815260200190815260200160002060009054906101000a900460ff1615611dd7576040517f08c379a0000000000000000000000000000000000000000000000000000000008152600401611dce906137b8565b60405180910390fd5b6001609c600084815260200190815260200160002060006101000a81548160ff02191690831515021790555080609a60008481526020019081526020016000206000820151816000016000820151816000019081611e35919061397a565b5060208201518160010160006101000a81548173ffffffffffffffffffffffffffffffffffffffff021916908373ffffffffffffffffffffffffffffffffffffffff16021790555050506020820151816002016000820151816000019081611e9d919061397a565b5060208201518160010160006101000a81548173ffffffffffffffffffffffffffffffffffffffff021916908373ffffffffffffffffffffffffffffffffffffffff1602179055505050905050819250505092915050565b611f026000801b336110fa565b611f41576040517f08c379a0000000000000000000000000000000000000000000000000000000008152600401611f3890613205565b60405180910390fd5b8060a08190555050565b6000609e6000838152602001908152602001600020549050919050565b609760009054906101000a900473ffffffffffffffffffffffffffffffffffffffff1673ffffffffffffffffffffffffffffffffffffffff163373ffffffffffffffffffffffffffffffffffffffff1614611ff8576040517f08c379a0000000000000000000000000000000000000000000000000000000008152600401611fef9061312d565b60405180910390fd5b6000609e6000848152602001908152602001600020549050808273ffffffffffffffffffffffffffffffffffffffff16847f40f4d46b1b8323786c124b4ded736df018c5d1aa9ea042d70863d0efa909d05a60405160405180910390a4505050565b6120626129ee565b609a60008381526020019081526020016000206002016040518060400160405290816000820180546120939061330f565b80601f01602080910402602001604051908101604052809291908181526020018280546120bf9061330f565b801561210c5780601f106120e15761010080835404028352916020019161210c565b820191906000526020600020905b8154815290600101906020018083116120ef57829003601f168201915b505050505081526020016001820160009054906101000a900473ffffffffffffffffffffffffffffffffffffffff1673ffffffffffffffffffffffffffffffffffffffff1673ffffffffffffffffffffffffffffffffffffffff16815250509050919050565b61217b82610abf565b612184816124ad565b61218e83836125aa565b505050565b609e6020528060005260406000206000915090505481565b609a602052806000526040600020600091509050806000016040518060400160405290816000820180546121de9061330f565b80601f016020809104026020016040519081016040528092919081815260200182805461220a9061330f565b80156122575780601f1061222c57610100808354040283529160200191612257565b820191906000526020600020905b81548152906001019060200180831161223a57829003601f168201915b505050505081526020016001820160009054906101000a900473ffffffffffffffffffffffffffffffffffffffff1673ffffffffffffffffffffffffffffffffffffffff1673ffffffffffffffffffffffffffffffffffffffff168152505090806002016040518060400160405290816000820180546122d69061330f565b80601f01602080910402602001604051908101604052809291908181526020018280546123029061330f565b801561234f5780601f106123245761010080835404028352916020019161234f565b820191906000526020600020905b81548152906001019060200180831161233257829003601f168201915b505050505081526020016001820160009054906101000a900473ffffffffffffffffffffffffffffffffffffffff1673ffffffffffffffffffffffffffffffffffffffff1673ffffffffffffffffffffffffffffffffffffffff1681525050905082565b6123c06000801b336110fa565b6123ff576040517f08c379a00000000000000000000000000000000000000000000000000000000081526004016123f690613205565b60405180910390fd5b80609960006101000a81548173ffffffffffffffffffffffffffffffffffffffff021916908373ffffffffffffffffffffffffffffffffffffffff16021790555050565b60007f01ffc9a7000000000000000000000000000000000000000000000000000000007bffffffffffffffffffffffffffffffffffffffffffffffffffffffff1916827bffffffffffffffffffffffffffffffffffffffffffffffffffffffff1916149050919050565b6124be816124b96125a2565b612700565b50565b6124cb82826110fa565b61259e5760016065600084815260200190815260200160002060000160008373ffffffffffffffffffffffffffffffffffffffff1673ffffffffffffffffffffffffffffffffffffffff16815260200190815260200160002060006101000a81548160ff0219169083151502179055506125436125a2565b73ffffffffffffffffffffffffffffffffffffffff168173ffffffffffffffffffffffffffffffffffffffff16837f2f8788117e7eff1d82e926ec794901d17c78024a50270940304540a733656f0d60405160405180910390a45b5050565b600033905090565b6125b482826110fa565b156126885760006065600084815260200190815260200160002060000160008373ffffffffffffffffffffffffffffffffffffffff1673ffffffffffffffffffffffffffffffffffffffff16815260200190815260200160002060006101000a81548160ff02191690831515021790555061262d6125a2565b73ffffffffffffffffffffffffffffffffffffffff168173ffffffffffffffffffffffffffffffffffffffff16837ff6391f5c32d9c69d2a47ea670b442974b53935d1edc7fd64eb21e047a839171b60405160405180910390a45b5050565b6000808273ffffffffffffffffffffffffffffffffffffffff163b119050919050565b600060019054906101000a900460ff166126fe576040517f08c379a00000000000000000000000000000000000000000000000000000000081526004016126f590613abe565b60405180910390fd5b565b61270a82826110fa565b6127815761271781612785565b6127258360001c60206127b2565b604051602001612736929190613bbd565b6040516020818303038152906040526040517f08c379a00000000000000000000000000000000000000000000000000000000081526004016127789190613c30565b60405180910390fd5b5050565b60606127ab8273ffffffffffffffffffffffffffffffffffffffff16601460ff166127b2565b9050919050565b6060600060028360026127c59190613c81565b6127cf9190613cc3565b67ffffffffffffffff8111156127e8576127e76134e7565b5b6040519080825280601f01601f19166020018201604052801561281a5781602001600182028036833780820191505090505b5090507f30000000000000000000000000000000000000000000000000000000000000008160008151811061285257612851613cf7565b5b60200101907effffffffffffffffffffffffffffffffffffffffffffffffffffffffffffff1916908160001a9053507f7800000000000000000000000000000000000000000000000000000000000000816001815181106128b6576128b5613cf7565b5b60200101907effffffffffffffffffffffffffffffffffffffffffffffffffffffffffffff1916908160001a905350600060018460026128f69190613c81565b6129009190613cc3565b90505b60018111156129a0577f3031323334353637383961626364656600000000000000000000000000000000600f86166010811061294257612941613cf7565b5b1a60f81b82828151811061295957612958613cf7565b5b60200101907effffffffffffffffffffffffffffffffffffffffffffffffffffffffffffff1916908160001a905350600485901c94508061299990613d26565b9050612903565b50600084146129e4576040517f08c379a00000000000000000000000000000000000000000000000000000000081526004016129db90613d9b565b60405180910390fd5b8091505092915050565b604051806040016040528060608152602001600073ffffffffffffffffffffffffffffffffffffffff1681525090565b6000604051905090565b600080fd5b600080fd5b60007fffffffff0000000000000000000000000000000000000000000000000000000082169050919050565b612a6781612a32565b8114612a7257600080fd5b50565b600081359050612a8481612a5e565b92915050565b600060208284031215612aa057612a9f612a28565b5b6000612aae84828501612a75565b91505092915050565b60008115159050919050565b612acc81612ab7565b82525050565b6000602082019050612ae76000830184612ac3565b92915050565b6000819050919050565b612b0081612aed565b8114612b0b57600080fd5b50565b600081359050612b1d81612af7565b92915050565b60008060408385031215612b3a57612b39612a28565b5b6000612b4885828601612b0e565b9250506020612b5985828601612b0e565b9150509250929050565b600060208284031215612b7957612b78612a28565b5b6000612b8784828501612b0e565b91505092915050565b612b9981612aed565b82525050565b6000602082019050612bb46000830184612b90565b92915050565b600073ffffffffffffffffffffffffffffffffffffffff82169050919050565b6000612be582612bba565b9050919050565b612bf581612bda565b8114612c0057600080fd5b50565b600081359050612c1281612bec565b92915050565b6000819050919050565b612c2b81612c18565b8114612c3657600080fd5b50565b600081359050612c4881612c22565b92915050565b60008060008060808587031215612c6857612c67612a28565b5b6000612c7687828801612b0e565b9450506020612c8787828801612c03565b9350506040612c9887828801612c39565b9250506060612ca987828801612c03565b91505092959194509250565b600060208284031215612ccb57612cca612a28565b5b6000612cd984828501612c03565b91505092915050565b60008060408385031215612cf957612cf8612a28565b5b6000612d0785828601612b0e565b9250506020612d1885828601612c03565b9150509250929050565b612d2b81612bda565b82525050565b6000602082019050612d466000830184612d22565b92915050565b600081519050919050565b600082825260208201905092915050565b60005b83811015612d86578082015181840152602081019050612d6b565b60008484015250505050565b6000601f19601f8301169050919050565b6000612dae82612d4c565b612db88185612d57565b9350612dc8818560208601612d68565b612dd181612d92565b840191505092915050565b612de581612bda565b82525050565b60006040830160008301518482036000860152612e088282612da3565b9150506020830151612e1d6020860182612ddc565b508091505092915050565b60006020820190508181036000830152612e428184612deb565b905092915050565b600080600060608486031215612e6357612e62612a28565b5b6000612e7186828701612b0e565b9350506020612e8286828701612c03565b9250506040612e9386828701612c39565b9150509250925092565b600080fd5b600080fd5b600080fd5b60008083601f840112612ec257612ec1612e9d565b5b8235905067ffffffffffffffff811115612edf57612ede612ea2565b5b602083019150836001820283011115612efb57612efa612ea7565b5b9250929050565b60008060208385031215612f1957612f18612a28565b5b600083013567ffffffffffffffff811115612f3757612f36612a2d565b5b612f4385828601612eac565b92509250509250929050565b60006040820190508181036000830152612f698185612deb565b90508181036020830152612f7d8184612deb565b90509392505050565b600082825260208201905092915050565b7f4f6e6c79206f7264657220636f6e74726163742063616e2063616c6c2074686960008201527f732066756e6374696f6e00000000000000000000000000000000000000000000602082015250565b6000612ff3602a83612f86565b9150612ffe82612f97565b604082019050919050565b6000602082019050818103600083015261302281612fe6565b9050919050565b7f4f6e6c7920657363726f77206f722072656d6f7465206f7264657220636f6e7460008201527f726163742063616e2063616c6c20746869732066756e6374696f6e0000000000602082015250565b6000613085603b83612f86565b915061309082613029565b604082019050919050565b600060208201905081810360008301526130b481613078565b9050919050565b7f4f6e6c79204174746573746572732063616e2063616c6c20746869732066756e60008201527f6374696f6e000000000000000000000000000000000000000000000000000000602082015250565b6000613117602583612f86565b9150613122826130bb565b604082019050919050565b600060208201905081810360008301526131468161310a565b9050919050565b61315681612c18565b82525050565b60006060820190506131716000830186612d22565b61317e602083018561314d565b61318b6040830184612d22565b949350505050565b7f4f6e6c79206f776e65722063616e2063616c6c20746869732066756e6374696f60008201527f6e00000000000000000000000000000000000000000000000000000000000000602082015250565b60006131ef602183612f86565b91506131fa82613193565b604082019050919050565b6000602082019050818103600083015261321e816131e2565b9050919050565b7f416363657373436f6e74726f6c3a2063616e206f6e6c792072656e6f756e636560008201527f20726f6c657320666f722073656c660000000000000000000000000000000000602082015250565b6000613281602f83612f86565b915061328c82613225565b604082019050919050565b600060208201905081810360008301526132b081613274565b9050919050565b60006040820190506132cc6000830185612b90565b6132d96020830184612d22565b9392505050565b7f4e487b7100000000000000000000000000000000000000000000000000000000600052602260045260246000fd5b6000600282049050600182168061332757607f821691505b60208210810361333a576133396132e0565b5b50919050565b60006060820190506133556000830186612b90565b6133626020830185612d22565b61336f604083018461314d565b949350505050565b7f496e697469616c697a61626c653a20636f6e747261637420697320616c72656160008201527f647920696e697469616c697a6564000000000000000000000000000000000000602082015250565b60006133d3602e83612f86565b91506133de82613377565b604082019050919050565b60006020820190508181036000830152613402816133c6565b9050919050565b7f4f776e65722063616e6e6f74206265207a65726f206164647265737300000000600082015250565b600061343f601c83612f86565b915061344a82613409565b602082019050919050565b6000602082019050818103600083015261346e81613432565b9050919050565b6000819050919050565b600060ff82169050919050565b6000819050919050565b60006134b16134ac6134a784613475565b61348c565b61347f565b9050919050565b6134c181613496565b82525050565b60006020820190506134dc60008301846134b8565b92915050565b600080fd5b7f4e487b7100000000000000000000000000000000000000000000000000000000600052604160045260246000fd5b61351f82612d92565b810181811067ffffffffffffffff8211171561353e5761353d6134e7565b5b80604052505050565b6000613551612a1e565b905061355d8282613516565b919050565b600080fd5b600080fd5b600067ffffffffffffffff821115613587576135866134e7565b5b61359082612d92565b9050602081019050919050565b82818337600083830152505050565b60006135bf6135ba8461356c565b613547565b9050828152602081018484840111156135db576135da613567565b5b6135e684828561359d565b509392505050565b600082601f83011261360357613602612e9d565b5b81356136138482602086016135ac565b91505092915050565b600060408284031215613632576136316134e2565b5b61363c6040613547565b9050600082013567ffffffffffffffff81111561365c5761365b613562565b5b613668848285016135ee565b600083015250602061367c84828501612c03565b60208301525092915050565b60006040828403121561369e5761369d6134e2565b5b6136a86040613547565b9050600082013567ffffffffffffffff8111156136c8576136c7613562565b5b6136d48482850161361c565b600083015250602082013567ffffffffffffffff8111156136f8576136f7613562565b5b6137048482850161361c565b60208301525092915050565b6000806040838503121561372757613726612a28565b5b600061373585828601612b0e565b925050602083013567ffffffffffffffff81111561375657613755612a2d565b5b61376285828601613688565b9150509250929050565b7f457363726f772063616c6c20616c72656164792073746f726564000000000000600082015250565b60006137a2601a83612f86565b91506137ad8261376c565b602082019050919050565b600060208201905081810360008301526137d181613795565b9050919050565b60008190508160005260206000209050919050565b60006020601f8301049050919050565b600082821b905092915050565b60006008830261383a7fffffffffffffffffffffffffffffffffffffffffffffffffffffffffffffffff826137fd565b61384486836137fd565b95508019841693508086168417925050509392505050565b600061387761387261386d84612c18565b61348c565b612c18565b9050919050565b6000819050919050565b6138918361385c565b6138a561389d8261387e565b84845461380a565b825550505050565b600090565b6138ba6138ad565b6138c5818484613888565b505050565b5b818110156138e9576138de6000826138b2565b6001810190506138cb565b5050565b601f82111561392e576138ff816137d8565b613908846137ed565b81016020851015613917578190505b61392b613923856137ed565b8301826138ca565b50505b505050565b600082821c905092915050565b600061395160001984600802613933565b1980831691505092915050565b600061396a8383613940565b9150826002028217905092915050565b61398382612d4c565b67ffffffffffffffff81111561399c5761399b6134e7565b5b6139a6825461330f565b6139b18282856138ed565b600060209050601f8311600181146139e457600084156139d2578287015190505b6139dc858261395e565b865550613a44565b601f1984166139f2866137d8565b60005b82811015613a1a578489015182556001820191506020850194506020810190506139f5565b86831015613a375784890151613a33601f891682613940565b8355505b6001600288020188555050505b505050505050565b7f496e697469616c697a61626c653a20636f6e7472616374206973206e6f74206960008201527f6e697469616c697a696e67000000000000000000000000000000000000000000602082015250565b6000613aa8602b83612f86565b9150613ab382613a4c565b604082019050919050565b60006020820190508181036000830152613ad781613a9b565b9050919050565b600081905092915050565b7f416363657373436f6e74726f6c3a206163636f756e7420000000000000000000600082015250565b6000613b1f601783613ade565b9150613b2a82613ae9565b601782019050919050565b600081519050919050565b6000613b4b82613b35565b613b558185613ade565b9350613b65818560208601612d68565b80840191505092915050565b7f206973206d697373696e6720726f6c6520000000000000000000000000000000600082015250565b6000613ba7601183613ade565b9150613bb282613b71565b601182019050919050565b6000613bc882613b12565b9150613bd48285613b40565b9150613bdf82613b9a565b9150613beb8284613b40565b91508190509392505050565b6000613c0282613b35565b613c0c8185612f86565b9350613c1c818560208601612d68565b613c2581612d92565b840191505092915050565b60006020820190508181036000830152613c4a8184613bf7565b905092915050565b7f4e487b7100000000000000000000000000000000000000000000000000000000600052601160045260246000fd5b6000613c8c82612c18565b9150613c9783612c18565b9250828202613ca581612c18565b91508282048414831517613cbc57613cbb613c52565b5b5092915050565b6000613cce82612c18565b9150613cd983612c18565b9250828201905080821115613cf157613cf0613c52565b5b92915050565b7f4e487b7100000000000000000000000000000000000000000000000000000000600052603260045260246000fd5b6000613d3182612c18565b915060008203613d4457613d43613c52565b5b600182039050919050565b7f537472696e67733a20686578206c656e67746820696e73756666696369656e74600082015250565b6000613d85602083612f86565b9150613d9082613d4f565b602082019050919050565b60006020820190508181036000830152613db481613d78565b905091905056fea264697066735822122043e31828bcf02775833802f6322cd821cba9a26bff946363076f600f00159cd564736f6c63430008180033",
  "linkReferences": {},
  "deployedLinkReferences": {}
}