{
  "_format": "hh-sol-artifact-1",
  "contractName": "SingleAttestationBookV4",
  "sourceName": "contracts/singleAttestationBookV4.sol",
  "abi": [
    {
      "inputs": [],
      "stateMutability": "nonpayable",
      "type": "constructor"
    },
    {
      "anonymous": false,
      "inputs": [
        {
          "indexed": true,
          "internalType": "bytes32",
          "name": "attestationBatchMessageHash",
          "type": "bytes32"
        },
        {
          "indexed": true,
          "internalType": "uint32",
          "name": "batchIndex",
          "type": "uint32"
        },
        {
          "indexed": true,
          "internalType": "bytes4",
          "name": "networkId",
          "type": "bytes4"
        },
        {
          "indexed": false,
          "internalType": "bytes",
          "name": "encodedBatchPayload",
          "type": "bytes"
        }
      ],
      "name": "BatchConstructed",
      "type": "event"
    },
    {
      "anonymous": false,
      "inputs": [
        {
          "indexed": true,
          "internalType": "bytes4",
          "name": "networkId",
          "type": "bytes4"
        },
        {
          "indexed": false,
          "internalType": "uint256",
          "name": "interval",
          "type": "uint256"
        }
      ],
      "name": "BatchConstructionIntervalHeightSet",
      "type": "event"
    },
    {
      "anonymous": false,
      "inputs": [
        {
          "indexed": false,
          "internalType": "uint256",
          "name": "totalOrders",
          "type": "uint256"
        },
        {
          "indexed": false,
          "internalType": "uint256",
          "name": "submittedOrders",
          "type": "uint256"
        }
      ],
      "name": "BatchSubmitted",
      "type": "event"
    },
    {
      "anonymous": false,
      "inputs": [
        {
          "indexed": false,
          "internalType": "bytes32",
          "name": "orderId",
          "type": "bytes32"
        },
        {
          "indexed": false,
          "internalType": "address",
          "name": "bidWinner",
          "type": "address"
        },
        {
          "indexed": false,
          "internalType": "address",
          "name": "committedExecutor",
          "type": "address"
        }
      ],
      "name": "ExecutorMismatch",
      "type": "event"
    },
    {
      "anonymous": false,
      "inputs": [
        {
          "indexed": false,
          "internalType": "uint8",
          "name": "version",
          "type": "uint8"
        }
      ],
      "name": "Initialized",
      "type": "event"
    },
    {
      "anonymous": false,
      "inputs": [
        {
          "indexed": true,
          "internalType": "bytes32",
          "name": "id",
          "type": "bytes32"
        },
        {
          "indexed": true,
          "internalType": "bytes4",
          "name": "networkId",
          "type": "bytes4"
        },
        {
          "indexed": true,
          "internalType": "uint256",
          "name": "currentRecentCount",
          "type": "uint256"
        }
      ],
      "name": "OrderAttestationDuplicatedOrAboveLimit",
      "type": "event"
    },
    {
      "anonymous": false,
      "inputs": [
        {
          "indexed": true,
          "internalType": "bytes32",
          "name": "id",
          "type": "bytes32"
        },
        {
          "indexed": true,
          "internalType": "address",
          "name": "attester",
          "type": "address"
        },
        {
          "indexed": true,
          "internalType": "uint256",
          "name": "batchIndex",
          "type": "uint256"
        },
        {
          "indexed": false,
          "internalType": "address",
          "name": "beneficiary",
          "type": "address"
        },
        {
          "indexed": false,
          "internalType": "bytes",
          "name": "signature",
          "type": "bytes"
        }
      ],
      "name": "OrderAttested",
      "type": "event"
    },
    {
      "anonymous": false,
      "inputs": [
        {
          "indexed": true,
          "internalType": "bytes32",
          "name": "role",
          "type": "bytes32"
        },
        {
          "indexed": true,
          "internalType": "bytes32",
          "name": "previousAdminRole",
          "type": "bytes32"
        },
        {
          "indexed": true,
          "internalType": "bytes32",
          "name": "newAdminRole",
          "type": "bytes32"
        }
      ],
      "name": "RoleAdminChanged",
      "type": "event"
    },
    {
      "anonymous": false,
      "inputs": [
        {
          "indexed": true,
          "internalType": "bytes32",
          "name": "role",
          "type": "bytes32"
        },
        {
          "indexed": true,
          "internalType": "address",
          "name": "account",
          "type": "address"
        },
        {
          "indexed": true,
          "internalType": "address",
          "name": "sender",
          "type": "address"
        }
      ],
      "name": "RoleGranted",
      "type": "event"
    },
    {
      "anonymous": false,
      "inputs": [
        {
          "indexed": true,
          "internalType": "bytes32",
          "name": "role",
          "type": "bytes32"
        },
        {
          "indexed": true,
          "internalType": "address",
          "name": "account",
          "type": "address"
        },
        {
          "indexed": true,
          "internalType": "address",
          "name": "sender",
          "type": "address"
        }
      ],
      "name": "RoleRevoked",
      "type": "event"
    },
    {
      "stateMutability": "payable",
      "type": "fallback"
    },
    {
      "inputs": [],
      "name": "DEFAULT_ADMIN_ROLE",
      "outputs": [
        {
          "internalType": "bytes32",
          "name": "",
          "type": "bytes32"
        }
      ],
      "stateMutability": "view",
      "type": "function"
    },
    {
      "inputs": [],
      "name": "TRNToken",
      "outputs": [
        {
          "internalType": "contract IERC20",
          "name": "",
          "type": "address"
        }
      ],
      "stateMutability": "view",
      "type": "function"
    },
    {
      "inputs": [],
      "name": "allowBatchOverride",
      "outputs": [
        {
          "internalType": "bool",
          "name": "",
          "type": "bool"
        }
      ],
      "stateMutability": "view",
      "type": "function"
    },
    {
      "inputs": [
        {
          "internalType": "bytes32",
          "name": "",
          "type": "bytes32"
        }
      ],
      "name": "antiDuplicateMap",
      "outputs": [
        {
          "internalType": "bytes32",
          "name": "",
          "type": "bytes32"
        }
      ],
      "stateMutability": "view",
      "type": "function"
    },
    {
      "inputs": [
        {
          "internalType": "bytes32[]",
          "name": "orderIds",
          "type": "bytes32[]"
        },
        {
          "internalType": "address[]",
          "name": "beneficiaries",
          "type": "address[]"
        },
        {
          "internalType": "bytes[]",
          "name": "signatures",
          "type": "bytes[]"
        },
        {
          "internalType": "bytes[]",
          "name": "messagePayloads",
          "type": "bytes[]"
        },
        {
          "internalType": "bytes4[]",
          "name": "networks",
          "type": "bytes4[]"
        }
      ],
      "name": "attestOrdersBatch",
      "outputs": [],
      "stateMutability": "nonpayable",
      "type": "function"
    },
    {
      "inputs": [
        {
          "internalType": "bytes32",
          "name": "orderId",
          "type": "bytes32"
        },
        {
          "internalType": "address",
          "name": "beneficiary",
          "type": "address"
        },
        {
          "internalType": "bytes",
          "name": "signature",
          "type": "bytes"
        },
        {
          "internalType": "bytes",
          "name": "messagePayload",
          "type": "bytes"
        },
        {
          "internalType": "bytes4",
          "name": "network",
          "type": "bytes4"
        }
      ],
      "name": "attestSingleOrder",
      "outputs": [],
      "stateMutability": "nonpayable",
      "type": "function"
    },
    {
      "inputs": [
        {
          "internalType": "bytes32[]",
          "name": "orderIds",
          "type": "bytes32[]"
        },
        {
          "internalType": "address[]",
          "name": "beneficiaries",
          "type": "address[]"
        },
        {
          "internalType": "bytes[]",
          "name": "signatures",
          "type": "bytes[]"
        },
        {
          "internalType": "bytes[]",
          "name": "messagePayloads",
          "type": "bytes[]"
        },
        {
          "internalType": "bytes4[]",
          "name": "networks",
          "type": "bytes4[]"
        }
      ],
      "name": "attestSingleOrders",
      "outputs": [],
      "stateMutability": "nonpayable",
      "type": "function"
    },
    {
      "inputs": [],
      "name": "attestationsVerifierProofs",
      "outputs": [
        {
          "internalType": "contract AttestationsVerifierProofs",
          "name": "",
          "type": "address"
        }
      ],
      "stateMutability": "view",
      "type": "function"
    },
    {
      "inputs": [],
      "name": "attestersPortal",
      "outputs": [
        {
          "internalType": "contract AttestersPortal",
          "name": "",
          "type": "address"
        }
      ],
      "stateMutability": "view",
      "type": "function"
    },
    {
      "inputs": [
        {
          "internalType": "bytes32",
          "name": "",
          "type": "bytes32"
        },
        {
          "internalType": "uint256",
          "name": "",
          "type": "uint256"
        }
      ],
      "name": "batchToIncludedOrderIdsByMessageHash",
      "outputs": [
        {
          "internalType": "bytes32",
          "name": "",
          "type": "bytes32"
        }
      ],
      "stateMutability": "view",
      "type": "function"
    },
    {
      "inputs": [],
      "name": "biddingBook",
      "outputs": [
        {
          "internalType": "contract BiddingBook",
          "name": "",
          "type": "address"
        }
      ],
      "stateMutability": "view",
      "type": "function"
    },
    {
      "inputs": [
        {
          "internalType": "bytes4",
          "name": "networkId",
          "type": "bytes4"
        },
        {
          "internalType": "uint256",
          "name": "currentQuorum",
          "type": "uint256"
        },
        {
          "internalType": "uint256",
          "name": "batchConstructionIntervalHeight",
          "type": "uint256"
        },
        {
          "internalType": "uint256",
          "name": "lastBatchConstructedHeightOffset",
          "type": "uint256"
        }
      ],
      "name": "checkBatchReadyToConstruct",
      "outputs": [
        {
          "internalType": "bool",
          "name": "",
          "type": "bool"
        }
      ],
      "stateMutability": "view",
      "type": "function"
    },
    {
      "inputs": [],
      "name": "checkForMatchingGMPMessagePayload",
      "outputs": [
        {
          "internalType": "bool",
          "name": "",
          "type": "bool"
        }
      ],
      "stateMutability": "view",
      "type": "function"
    },
    {
      "inputs": [
        {
          "internalType": "bytes4",
          "name": "network",
          "type": "bytes4"
        },
        {
          "internalType": "uint32",
          "name": "index",
          "type": "uint32"
        }
      ],
      "name": "combineNetworkIdWithIndex",
      "outputs": [
        {
          "internalType": "bytes32",
          "name": "",
          "type": "bytes32"
        }
      ],
      "stateMutability": "pure",
      "type": "function"
    },
    {
      "inputs": [
        {
          "internalType": "bytes4",
          "name": "network",
          "type": "bytes4"
        },
        {
          "internalType": "bytes32",
          "name": "orderId",
          "type": "bytes32"
        }
      ],
      "name": "combineNetworkIdWithOrderId",
      "outputs": [
        {
          "internalType": "bytes32",
          "name": "",
          "type": "bytes32"
        }
      ],
      "stateMutability": "pure",
      "type": "function"
    },
    {
      "inputs": [
        {
          "internalType": "bytes32",
          "name": "orderId",
          "type": "bytes32"
        }
      ],
      "name": "getBatchAttestationMessageHashByOrderId",
      "outputs": [
        {
          "internalType": "bytes32",
          "name": "",
          "type": "bytes32"
        }
      ],
      "stateMutability": "view",
      "type": "function"
    },
    {
      "inputs": [
        {
          "internalType": "bytes32",
          "name": "attestationBatchMessageHash",
          "type": "bytes32"
        }
      ],
      "name": "getBatchOrdersCount",
      "outputs": [
        {
          "internalType": "uint256",
          "name": "",
          "type": "uint256"
        }
      ],
      "stateMutability": "view",
      "type": "function"
    },
    {
      "inputs": [
        {
          "internalType": "bytes32",
          "name": "orderId",
          "type": "bytes32"
        }
      ],
      "name": "getBatchPayloadByOrderId",
      "outputs": [
        {
          "internalType": "bytes",
          "name": "",
          "type": "bytes"
        }
      ],
      "stateMutability": "view",
      "type": "function"
    },
    {
      "inputs": [
        {
          "internalType": "bytes32",
          "name": "attestationBatchMessageHash",
          "type": "bytes32"
        }
      ],
      "name": "getIncludedOrderIds",
      "outputs": [
        {
          "internalType": "bytes32[]",
          "name": "",
          "type": "bytes32[]"
        }
      ],
      "stateMutability": "view",
      "type": "function"
    },
    {
      "inputs": [
        {
          "internalType": "bytes",
          "name": "messagePayload",
          "type": "bytes"
        }
      ],
      "name": "getMessagePayloadHash",
      "outputs": [
        {
          "internalType": "bytes32",
          "name": "",
          "type": "bytes32"
        }
      ],
      "stateMutability": "pure",
      "type": "function"
    },
    {
      "inputs": [
        {
          "internalType": "bytes4",
          "name": "networkId",
          "type": "bytes4"
        }
      ],
      "name": "getPerNetworkLimitOrDefault",
      "outputs": [
        {
          "internalType": "uint256",
          "name": "",
          "type": "uint256"
        }
      ],
      "stateMutability": "view",
      "type": "function"
    },
    {
      "inputs": [
        {
          "internalType": "bytes4",
          "name": "networkId",
          "type": "bytes4"
        }
      ],
      "name": "getRecentSingleOrderAttestedWithLimit",
      "outputs": [
        {
          "internalType": "bytes32[]",
          "name": "",
          "type": "bytes32[]"
        },
        {
          "internalType": "bytes[]",
          "name": "",
          "type": "bytes[]"
        }
      ],
      "stateMutability": "view",
      "type": "function"
    },
    {
      "inputs": [
        {
          "internalType": "bytes4",
          "name": "networkId",
          "type": "bytes4"
        }
      ],
      "name": "getRecentSingleOrderIdsAttested",
      "outputs": [
        {
          "internalType": "bytes32[]",
          "name": "",
          "type": "bytes32[]"
        }
      ],
      "stateMutability": "view",
      "type": "function"
    },
    {
      "inputs": [
        {
          "internalType": "bytes4",
          "name": "networkId",
          "type": "bytes4"
        }
      ],
      "name": "getRecentSingleOrderIdsAttestedWithLimit",
      "outputs": [
        {
          "internalType": "bytes32[]",
          "name": "",
          "type": "bytes32[]"
        }
      ],
      "stateMutability": "view",
      "type": "function"
    },
    {
      "inputs": [
        {
          "internalType": "bytes4",
          "name": "networkId",
          "type": "bytes4"
        }
      ],
      "name": "getRecentlyAttestedCount",
      "outputs": [
        {
          "internalType": "uint256",
          "name": "",
          "type": "uint256"
        }
      ],
      "stateMutability": "view",
      "type": "function"
    },
    {
      "inputs": [
        {
          "internalType": "bytes32",
          "name": "role",
          "type": "bytes32"
        }
      ],
      "name": "getRoleAdmin",
      "outputs": [
        {
          "internalType": "bytes32",
          "name": "",
          "type": "bytes32"
        }
      ],
      "stateMutability": "view",
      "type": "function"
    },
    {
      "inputs": [
        {
          "internalType": "bytes4",
          "name": "networkId",
          "type": "bytes4"
        }
      ],
      "name": "getTotalAttestedCount",
      "outputs": [
        {
          "internalType": "uint256",
          "name": "",
          "type": "uint256"
        }
      ],
      "stateMutability": "view",
      "type": "function"
    },
    {
      "inputs": [
        {
          "internalType": "bytes4",
          "name": "networkId",
          "type": "bytes4"
        }
      ],
      "name": "getTotalBatchedCount",
      "outputs": [
        {
          "internalType": "uint256",
          "name": "",
          "type": "uint256"
        }
      ],
      "stateMutability": "view",
      "type": "function"
    },
    {
      "inputs": [
        {
          "internalType": "bytes32",
          "name": "role",
          "type": "bytes32"
        },
        {
          "internalType": "address",
          "name": "account",
          "type": "address"
        }
      ],
      "name": "grantRole",
      "outputs": [],
      "stateMutability": "nonpayable",
      "type": "function"
    },
    {
      "inputs": [
        {
          "internalType": "bytes32",
          "name": "role",
          "type": "bytes32"
        },
        {
          "internalType": "address",
          "name": "account",
          "type": "address"
        }
      ],
      "name": "hasRole",
      "outputs": [
        {
          "internalType": "bool",
          "name": "",
          "type": "bool"
        }
      ],
      "stateMutability": "view",
      "type": "function"
    },
    {
      "inputs": [
        {
          "internalType": "address",
          "name": "_owner",
          "type": "address"
        }
      ],
      "name": "initialize",
      "outputs": [],
      "stateMutability": "nonpayable",
      "type": "function"
    },
    {
      "inputs": [
        {
          "internalType": "bytes32",
          "name": "orderId",
          "type": "bytes32"
        },
        {
          "internalType": "address",
          "name": "attester",
          "type": "address"
        }
      ],
      "name": "isAttestationSubmitted",
      "outputs": [
        {
          "internalType": "bool",
          "name": "",
          "type": "bool"
        }
      ],
      "stateMutability": "view",
      "type": "function"
    },
    {
      "inputs": [
        {
          "internalType": "bytes4",
          "name": "networkId",
          "type": "bytes4"
        },
        {
          "internalType": "bytes32",
          "name": "orderId",
          "type": "bytes32"
        }
      ],
      "name": "isAttested",
      "outputs": [
        {
          "internalType": "bool",
          "name": "",
          "type": "bool"
        },
        {
          "internalType": "bool",
          "name": "",
          "type": "bool"
        }
      ],
      "stateMutability": "view",
      "type": "function"
    },
    {
      "inputs": [],
      "name": "limit",
      "outputs": [
        {
          "internalType": "uint256",
          "name": "",
          "type": "uint256"
        }
      ],
      "stateMutability": "view",
      "type": "function"
    },
    {
      "inputs": [],
      "name": "longRangeAttestationsBook",
      "outputs": [
        {
          "internalType": "contract LongRangeAttestationsBook",
          "name": "",
          "type": "address"
        }
      ],
      "stateMutability": "view",
      "type": "function"
    },
    {
      "inputs": [
        {
          "internalType": "bytes32",
          "name": "",
          "type": "bytes32"
        }
      ],
      "name": "messagePayloadHashCounter",
      "outputs": [
        {
          "internalType": "uint256",
          "name": "",
          "type": "uint256"
        }
      ],
      "stateMutability": "view",
      "type": "function"
    },
    {
      "inputs": [
        {
          "internalType": "bytes32",
          "name": "",
          "type": "bytes32"
        }
      ],
      "name": "messagePayloadMap",
      "outputs": [
        {
          "internalType": "bytes",
          "name": "",
          "type": "bytes"
        }
      ],
      "stateMutability": "view",
      "type": "function"
    },
    {
      "inputs": [
        {
          "internalType": "bytes32",
          "name": "",
          "type": "bytes32"
        }
      ],
      "name": "mostPopularPayloadHash",
      "outputs": [
        {
          "internalType": "bytes32",
          "name": "",
          "type": "bytes32"
        }
      ],
      "stateMutability": "view",
      "type": "function"
    },
    {
      "inputs": [],
      "name": "orderBook",
      "outputs": [
        {
          "internalType": "contract OrderBook",
          "name": "",
          "type": "address"
        }
      ],
      "stateMutability": "view",
      "type": "function"
    },
    {
      "inputs": [
        {
          "internalType": "bytes32",
          "name": "",
          "type": "bytes32"
        }
      ],
      "name": "orderToBatchAttestationMessageHashMap",
      "outputs": [
        {
          "internalType": "bytes32",
          "name": "",
          "type": "bytes32"
        }
      ],
      "stateMutability": "view",
      "type": "function"
    },
    {
      "inputs": [
        {
          "internalType": "bytes4",
          "name": "",
          "type": "bytes4"
        }
      ],
      "name": "perNetworkLimit",
      "outputs": [
        {
          "internalType": "uint256",
          "name": "",
          "type": "uint256"
        }
      ],
      "stateMutability": "view",
      "type": "function"
    },
    {
      "inputs": [
        {
          "internalType": "bytes4",
          "name": "",
          "type": "bytes4"
        }
      ],
      "name": "perNetworkSingleAttestationsCounter",
      "outputs": [
        {
          "internalType": "uint256",
          "name": "",
          "type": "uint256"
        }
      ],
      "stateMutability": "view",
      "type": "function"
    },
    {
      "inputs": [
        {
          "components": [
            {
              "internalType": "bytes4",
              "name": "destination",
              "type": "bytes4"
            },
            {
              "internalType": "bytes4",
              "name": "source",
              "type": "bytes4"
            },
            {
              "internalType": "uint32",
              "name": "asset",
              "type": "uint32"
            },
            {
              "internalType": "bytes32",
              "name": "targetAccount",
              "type": "bytes32"
            },
            {
              "internalType": "uint256",
              "name": "amount",
              "type": "uint256"
            },
            {
              "internalType": "address",
              "name": "rewardAsset",
              "type": "address"
            },
            {
              "internalType": "uint256",
              "name": "maxReward",
              "type": "uint256"
            },
            {
              "internalType": "uint32",
              "name": "nonce",
              "type": "uint32"
            },
            {
              "internalType": "address",
              "name": "sourceAccount",
              "type": "address"
            },
            {
              "internalType": "uint256",
              "name": "orderTimestamp",
              "type": "uint256"
            }
          ],
          "internalType": "struct OrderBook.Order[]",
          "name": "orders",
          "type": "tuple[]"
        },
        {
          "internalType": "bytes32[]",
          "name": "orderIds",
          "type": "bytes32[]"
        },
        {
          "internalType": "bytes32[]",
          "name": "orderTxHashes",
          "type": "bytes32[]"
        },
        {
          "internalType": "address[]",
          "name": "executors",
          "type": "address[]"
        }
      ],
      "name": "populateBatch",
      "outputs": [],
      "stateMutability": "nonpayable",
      "type": "function"
    },
    {
      "inputs": [
        {
          "internalType": "bytes4",
          "name": "",
          "type": "bytes4"
        }
      ],
      "name": "recentAttestationsCounter",
      "outputs": [
        {
          "internalType": "uint256",
          "name": "",
          "type": "uint256"
        }
      ],
      "stateMutability": "view",
      "type": "function"
    },
    {
      "inputs": [
        {
          "internalType": "bytes32",
          "name": "role",
          "type": "bytes32"
        },
        {
          "internalType": "address",
          "name": "account",
          "type": "address"
        }
      ],
      "name": "renounceRole",
      "outputs": [],
      "stateMutability": "nonpayable",
      "type": "function"
    },
    {
      "inputs": [
        {
          "internalType": "bytes32",
          "name": "role",
          "type": "bytes32"
        },
        {
          "internalType": "address",
          "name": "account",
          "type": "address"
        }
      ],
      "name": "revokeRole",
      "outputs": [],
      "stateMutability": "nonpayable",
      "type": "function"
    },
    {
      "inputs": [
        {
          "internalType": "contract AttestationsVerifierProofs",
          "name": "_attestationsVerifierProofs",
          "type": "address"
        }
      ],
      "name": "setAttestationsVerifierProofs",
      "outputs": [],
      "stateMutability": "nonpayable",
      "type": "function"
    },
    {
      "inputs": [
        {
          "internalType": "contract AttestersPortal",
          "name": "_attestersPortal",
          "type": "address"
        }
      ],
      "name": "setAttestersPortal",
      "outputs": [],
      "stateMutability": "nonpayable",
      "type": "function"
    },
    {
      "inputs": [
        {
          "internalType": "address payable",
          "name": "_biddingBook",
          "type": "address"
        }
      ],
      "name": "setBiddingBook",
      "outputs": [],
      "stateMutability": "nonpayable",
      "type": "function"
    },
    {
      "inputs": [
        {
          "internalType": "uint256",
          "name": "_limit",
          "type": "uint256"
        }
      ],
      "name": "setLimit",
      "outputs": [],
      "stateMutability": "nonpayable",
      "type": "function"
    },
    {
      "inputs": [
        {
          "internalType": "contract LongRangeAttestationsBook",
          "name": "_longRangeAttestationsBook",
          "type": "address"
        }
      ],
      "name": "setLongRangeAttestationsBook",
      "outputs": [],
      "stateMutability": "nonpayable",
      "type": "function"
    },
    {
      "inputs": [
        {
          "internalType": "bytes4",
          "name": "networkId",
          "type": "bytes4"
        },
        {
          "internalType": "uint256",
          "name": "_limit",
          "type": "uint256"
        }
      ],
      "name": "setNetworkLimit",
      "outputs": [],
      "stateMutability": "nonpayable",
      "type": "function"
    },
    {
      "inputs": [
        {
          "internalType": "address payable",
          "name": "_orderBook",
          "type": "address"
        }
      ],
      "name": "setOrderBook",
      "outputs": [],
      "stateMutability": "nonpayable",
      "type": "function"
    },
    {
      "inputs": [
        {
          "internalType": "bytes32",
          "name": "_version",
          "type": "bytes32"
        }
      ],
      "name": "setVersion",
      "outputs": [],
      "stateMutability": "nonpayable",
      "type": "function"
    },
    {
      "inputs": [
        {
          "internalType": "bytes32",
          "name": "",
          "type": "bytes32"
        }
      ],
      "name": "signaturesCount",
      "outputs": [
        {
          "internalType": "uint256",
          "name": "",
          "type": "uint256"
        }
      ],
      "stateMutability": "view",
      "type": "function"
    },
    {
      "inputs": [
        {
          "internalType": "bytes4",
          "name": "interfaceId",
          "type": "bytes4"
        }
      ],
      "name": "supportsInterface",
      "outputs": [
        {
          "internalType": "bool",
          "name": "",
          "type": "bool"
        }
      ],
      "stateMutability": "view",
      "type": "function"
    },
    {
      "inputs": [],
      "name": "version",
      "outputs": [
        {
          "internalType": "bytes32",
          "name": "",
          "type": "bytes32"
        }
      ],
      "stateMutability": "view",
      "type": "function"
    },
    {
      "stateMutability": "payable",
      "type": "receive"
    }
  ],
  "bytecode": "0x60806040523480156200001157600080fd5b50620000226200002860201b60201c565b620001d2565b600060019054906101000a900460ff16156200007b576040517f08c379a0000000000000000000000000000000000000000000000000000000008152600401620000729062000175565b60405180910390fd5b60ff801660008054906101000a900460ff1660ff1614620000ec5760ff6000806101000a81548160ff021916908360ff1602179055507f7f26b83ff96e1f2b6a682f133852f6798a09c465da95921460cefb384740249860ff604051620000e39190620001b5565b60405180910390a15b565b600082825260208201905092915050565b7f496e697469616c697a61626c653a20636f6e747261637420697320696e69746960008201527f616c697a696e6700000000000000000000000000000000000000000000000000602082015250565b60006200015d602783620000ee565b91506200016a82620000ff565b604082019050919050565b6000602082019050818103600083015262000190816200014e565b9050919050565b600060ff82169050919050565b620001af8162000197565b82525050565b6000602082019050620001cc6000830184620001a4565b92915050565b615f0180620001e26000396000f3fe60806040526004361061037a5760003560e01c80639929249c116101d1578063d03685cb11610102578063dd2b05d6116100a0578063eb6ba3541161006f578063eb6ba35414610e5a578063f605659814610e83578063fb3b201114610ec0578063ffdd6f8914610ee957610381565b8063dd2b05d614610d7a578063df8ff96514610db7578063e6dc94a414610df4578063e889553214610e3157610381565b8063d547741f116100dc578063d547741f14610c9a578063d6248d3414610cc3578063dc7d5cae14610d00578063dc88b9c914610d3d57610381565b8063d03685cb14610c1b578063d3e6abe314610c44578063d538c65b14610c6f57610381565b8063ba53b8ac1161016f578063bb2703ea11610149578063bb2703ea14610b4f578063c4d66de814610b8c578063c769eb1314610bb5578063ca5f81b514610bf257610381565b8063ba53b8ac14610ac0578063ba6466f714610afd578063bad32dc814610b2657610381565b8063a217fddf116101ab578063a217fddf146109f0578063a4d66daf14610a1b578063ae9b88e214610a46578063b4c41e6a14610a8357610381565b80639929249c1461094d5780639a1598c81461098a5780639a8e3454146109b357610381565b8063409e16aa116102ab578063776af5ba11610249578063882417d511610223578063882417d5146108595780638e6ff4701461089657806391d14854146108d3578063984da1b71461091057610381565b8063776af5ba146107b45780637fc74166146107df57806383d5383d1461081c57610381565b80634a7f1688116102855780634a7f1688146106f85780635385297e1461072157806354fd4d501461074c578063637f92801461077757610381565b8063409e16aa1461065557806341bb1b0e1461067e578063494dbf46146106bb57610381565b80632aa8269e11610318578063361444a5116102f2578063361444a51461058657806336568abe146105c45780633aac5d3d146105ed5780633dc236341461061857610381565b80632aa8269e146105095780632f2ff15d146105345780632f5593c91461055d57610381565b8063248a9ca311610354578063248a9ca31461043b57806325394aba1461047857806327ea6f2b146104b55780632a92e26e146104de57610381565b806301ffc9a7146103835780630b83ab2a146103c05780632313ae91146103fd57610381565b3661038157005b005b34801561038f57600080fd5b506103aa60048036038101906103a59190613a77565b610f14565b6040516103b79190613abf565b60405180910390f35b3480156103cc57600080fd5b506103e760048036038101906103e29190613b10565b610f8e565b6040516103f49190613bfb565b60405180910390f35b34801561040957600080fd5b50610424600480360381019061041f9190613a77565b610ff9565b604051610432929190613d6f565b60405180910390f35b34801561044757600080fd5b50610462600480360381019061045d9190613b10565b611143565b60405161046f9190613db5565b60405180910390f35b34801561048457600080fd5b5061049f600480360381019061049a9190613b10565b611163565b6040516104ac9190613e1a565b60405180910390f35b3480156104c157600080fd5b506104dc60048036038101906104d79190613e72565b611203565b005b3480156104ea57600080fd5b506104f3611259565b6040516105009190613f1e565b60405180910390f35b34801561051557600080fd5b5061051e61127f565b60405161052b9190613f5a565b60405180910390f35b34801561054057600080fd5b5061055b60048036038101906105569190613fb3565b6112a5565b005b34801561056957600080fd5b50610584600480360381019061057f919061415a565b6112c6565b005b34801561059257600080fd5b506105ad60048036038101906105a89190614277565b611584565b6040516105bb9291906142b7565b60405180910390f35b3480156105d057600080fd5b506105eb60048036038101906105e69190613fb3565b6115c6565b005b3480156105f957600080fd5b50610602611649565b60405161060f9190614313565b60405180910390f35b34801561062457600080fd5b5061063f600480360381019061063a9190613b10565b61166f565b60405161064c9190613e1a565b60405180910390f35b34801561066157600080fd5b5061067c6004803603810190610677919061436c565b611719565b005b34801561068a57600080fd5b506106a560048036038101906106a09190613b10565b6117a9565b6040516106b29190613db5565b60405180910390f35b3480156106c757600080fd5b506106e260048036038101906106dd9190613fb3565b61184e565b6040516106ef9190613abf565b60405180910390f35b34801561070457600080fd5b5061071f600480360381019061071a91906143ef565b6118f6565b005b34801561072d57600080fd5b50610736611ea5565b6040516107439190613abf565b60405180910390f35b34801561075857600080fd5b50610761611eb8565b60405161076e9190613db5565b60405180910390f35b34801561078357600080fd5b5061079e60048036038101906107999190613a77565b611ebe565b6040516107ab91906144ba565b60405180910390f35b3480156107c057600080fd5b506107c9611ed6565b6040516107d691906144f6565b60405180910390f35b3480156107eb57600080fd5b5061080660048036038101906108019190613b10565b611efc565b60405161081391906144ba565b60405180910390f35b34801561082857600080fd5b50610843600480360381019061083e9190613a77565b611f1c565b6040516108509190613bfb565b60405180910390f35b34801561086557600080fd5b50610880600480360381019061087b9190614511565b611f2e565b60405161088d9190613db5565b60405180910390f35b3480156108a257600080fd5b506108bd60048036038101906108b8919061455e565b611f50565b6040516108ca9190613db5565b60405180910390f35b3480156108df57600080fd5b506108fa60048036038101906108f59190613fb3565b611f81565b6040516109079190613abf565b60405180910390f35b34801561091c57600080fd5b5061093760048036038101906109329190613b10565b611fec565b60405161094491906144ba565b60405180910390f35b34801561095957600080fd5b50610974600480360381019061096f9190613b10565b612004565b6040516109819190613db5565b60405180910390f35b34801561099657600080fd5b506109b160048036038101906109ac919061436c565b61201c565b005b3480156109bf57600080fd5b506109da60048036038101906109d59190613a77565b6120ac565b6040516109e791906144ba565b60405180910390f35b3480156109fc57600080fd5b50610a05612120565b604051610a129190613db5565b60405180910390f35b348015610a2757600080fd5b50610a30612127565b604051610a3d91906144ba565b60405180910390f35b348015610a5257600080fd5b50610a6d6004803603810190610a689190613a77565b61212d565b604051610a7a91906144ba565b60405180910390f35b348015610a8f57600080fd5b50610aaa6004803603810190610aa59190613a77565b612145565b604051610ab791906144ba565b60405180910390f35b348015610acc57600080fd5b50610ae76004803603810190610ae29190613a77565b61215d565b604051610af49190613bfb565b60405180910390f35b348015610b0957600080fd5b50610b246004803603810190610b1f91906145dc565b6122ae565b005b348015610b3257600080fd5b50610b4d6004803603810190610b489190614660565b61233e565b005b348015610b5b57600080fd5b50610b766004803603810190610b719190613b10565b612ace565b604051610b839190613db5565b60405180910390f35b348015610b9857600080fd5b50610bb36004803603810190610bae9190614749565b612ae6565b005b348015610bc157600080fd5b50610bdc6004803603810190610bd791906147b2565b612c68565b604051610be99190613db5565b60405180910390f35b348015610bfe57600080fd5b50610c196004803603810190610c149190613b10565b612c9b565b005b348015610c2757600080fd5b50610c426004803603810190610c3d9190614830565b612cf1565b005b348015610c5057600080fd5b50610c59612d81565b604051610c66919061487e565b60405180910390f35b348015610c7b57600080fd5b50610c84612da7565b604051610c919190613abf565b60405180910390f35b348015610ca657600080fd5b50610cc16004803603810190610cbc9190613fb3565b612dba565b005b348015610ccf57600080fd5b50610cea6004803603810190610ce59190613b10565b612ddb565b604051610cf791906144ba565b60405180910390f35b348015610d0c57600080fd5b50610d276004803603810190610d229190613a77565b612df3565b604051610d3491906144ba565b60405180910390f35b348015610d4957600080fd5b50610d646004803603810190610d5f9190614899565b612e98565b604051610d719190613abf565b60405180910390f35b348015610d8657600080fd5b50610da16004803603810190610d9c9190614277565b612f48565b604051610dae9190613db5565b60405180910390f35b348015610dc357600080fd5b50610dde6004803603810190610dd99190613b10565b612f7b565b604051610deb9190613db5565b60405180910390f35b348015610e0057600080fd5b50610e1b6004803603810190610e169190613a77565b612f93565b604051610e2891906144ba565b60405180910390f35b348015610e3d57600080fd5b50610e586004803603810190610e53919061493e565b613038565b005b348015610e6657600080fd5b50610e816004803603810190610e7c919061496b565b6130c8565b005b348015610e8f57600080fd5b50610eaa6004803603810190610ea59190613a77565b61316e565b604051610eb791906144ba565b60405180910390f35b348015610ecc57600080fd5b50610ee76004803603810190610ee2919061415a565b613213565b005b348015610ef557600080fd5b50610efe61343a565b604051610f0b91906149cc565b60405180910390f35b60007f7965db0b000000000000000000000000000000000000000000000000000000007bffffffffffffffffffffffffffffffffffffffffffffffffffffffff1916827bffffffffffffffffffffffffffffffffffffffffffffffffffffffff19161480610f875750610f8682613460565b5b9050919050565b6060609b6000838152602001908152602001600020805480602002602001604051908101604052809291908181526020018280548015610fed57602002820191906000526020600020905b815481526020019060010190808311610fd9575b50505050509050919050565b606080609a60009054906101000a900473ffffffffffffffffffffffffffffffffffffffff1673ffffffffffffffffffffffffffffffffffffffff1663566b9a0e609a60009054906101000a900473ffffffffffffffffffffffffffffffffffffffff1673ffffffffffffffffffffffffffffffffffffffff16635f0737a5866040518263ffffffff1660e01b815260040161109591906149f6565b602060405180830381865afa1580156110b2573d6000803e3d6000fd5b505050506040513d601f19601f820116820180604052508101906110d69190614a26565b856040518363ffffffff1660e01b81526004016110f4929190614a53565b600060405180830381865afa158015611111573d6000803e3d6000fd5b505050506040513d6000823e3d601f19601f8201168201806040525081019061113a9190614d56565b91509150915091565b600060656000838152602001908152602001600020600101549050919050565b60a5602052806000526040600020600091509050805461118290614dfd565b80601f01602080910402602001604051908101604052809291908181526020018280546111ae90614dfd565b80156111fb5780601f106111d0576101008083540402835291602001916111fb565b820191906000526020600020905b8154815290600101906020018083116111de57829003601f168201915b505050505081565b6112106000801b33611f81565b61124f576040517f08c379a000000000000000000000000000000000000000000000000000000000815260040161124690614e8b565b60405180910390fd5b80609e8190555050565b609760009054906101000a900473ffffffffffffffffffffffffffffffffffffffff1681565b60a960009054906101000a900473ffffffffffffffffffffffffffffffffffffffff1681565b6112ae82611143565b6112b7816134ca565b6112c183836134de565b505050565b609860009054906101000a900473ffffffffffffffffffffffffffffffffffffffff1673ffffffffffffffffffffffffffffffffffffffff1663ee06b289336040518263ffffffff1660e01b81526004016113219190614eba565b602060405180830381865afa15801561133e573d6000803e3d6000fd5b505050506040513d601f19601f820116820180604052508101906113629190614f01565b6113a1576040517f08c379a000000000000000000000000000000000000000000000000000000000815260040161139890614f7a565b60405180910390fd5b878790508a8a90501480156113bb5750858590508a8a9050145b6113fa576040517f08c379a00000000000000000000000000000000000000000000000000000000081526004016113f190614fe6565b60405180910390fd5b6000805b8b8b905081101561153a5760006114558d8d8481811061142157611420615006565b5b905060200201358c8c8581811061143b5761143a615006565b5b90506020020160208101906114509190614749565b61184e565b90508015611463575061152f565b61151f8d8d8481811061147957611478615006565b5b905060200201358c8c8581811061149357611492615006565b5b90506020020160208101906114a89190614749565b8b8b868181106114bb576114ba615006565b5b90506020028101906114cd9190615044565b8b8b888181106114e0576114df615006565b5b90506020028101906114f29190615044565b8b8b8a81811061150557611504615006565b5b905060200201602081019061151a9190613a77565b6118f6565b828061152a906150d6565b935050505b8060010190506113fe565b507fe6753980bcf56ae86a3ce8797b44ea013b10495e5d37288f85245ea482e604d08b8b90508260405161156f92919061511e565b60405180910390a15050505050505050505050565b6000806000609c60008581526020019081526020016000205490506000801b81036115b65760008092509250506115bf565b60018092509250505b9250929050565b6115ce6135bf565b73ffffffffffffffffffffffffffffffffffffffff168173ffffffffffffffffffffffffffffffffffffffff161461163b576040517f08c379a0000000000000000000000000000000000000000000000000000000008152600401611632906151b9565b60405180910390fd5b61164582826135c7565b5050565b609860009054906101000a900473ffffffffffffffffffffffffffffffffffffffff1681565b6060609a60009054906101000a900473ffffffffffffffffffffffffffffffffffffffff1673ffffffffffffffffffffffffffffffffffffffff16633dc23634836040518263ffffffff1660e01b81526004016116cc9190613db5565b600060405180830381865afa1580156116e9573d6000803e3d6000fd5b505050506040513d6000823e3d601f19601f8201168201806040525081019061171291906151d9565b9050919050565b6117266000801b33611f81565b611765576040517f08c379a000000000000000000000000000000000000000000000000000000000815260040161175c90614e8b565b60405180910390fd5b8060a960006101000a81548173ffffffffffffffffffffffffffffffffffffffff021916908373ffffffffffffffffffffffffffffffffffffffff16021790555050565b6000609a60009054906101000a900473ffffffffffffffffffffffffffffffffffffffff1673ffffffffffffffffffffffffffffffffffffffff166332946aca836040518263ffffffff1660e01b81526004016118069190613db5565b602060405180830381865afa158015611823573d6000803e3d6000fd5b505050506040513d601f19601f820116820180604052508101906118479190615222565b9050919050565b6000609a60009054906101000a900473ffffffffffffffffffffffffffffffffffffffff1673ffffffffffffffffffffffffffffffffffffffff166395e538b584846040518363ffffffff1660e01b81526004016118ad92919061524f565b602060405180830381865afa1580156118ca573d6000803e3d6000fd5b505050506040513d601f19601f820116820180604052508101906118ee9190614f01565b905092915050565b609860009054906101000a900473ffffffffffffffffffffffffffffffffffffffff1673ffffffffffffffffffffffffffffffffffffffff1663ee06b289336040518263ffffffff1660e01b81526004016119519190614eba565b602060405180830381865afa15801561196e573d6000803e3d6000fd5b505050506040513d601f19601f820116820180604052508101906119929190614f01565b6119d1576040517f08c379a00000000000000000000000000000000000000000000000000000000081526004016119c890614f7a565b60405180910390fd5b6000838360008181106119e7576119e6615006565b5b9050013560f81c60f81b60f81c905060008160ff1603611a4c5760358484905014611a47576040517f08c379a0000000000000000000000000000000000000000000000000000000008152600401611a3e90614f7a565b60405180910390fd5b611b3c565b60018160ff1603611aa25760218484905014611a9d576040517f08c379a0000000000000000000000000000000000000000000000000000000008152600401611a94906152c4565b60405180910390fd5b611b3b565b60058160ff1603611af85760c98484905014611af3576040517f08c379a0000000000000000000000000000000000000000000000000000000008152600401611aea90614fe6565b60405180910390fd5b611b3a565b6000611b39576040517f08c379a0000000000000000000000000000000000000000000000000000000008152600401611b3090615330565b60405180910390fd5b5b5b5b8383600190602192611b509392919061535a565b604051602001611b619291906153d4565b6040516020818303038152906040528051906020012088604051602001611b88919061540e565b6040516020818303038152906040528051906020012014611bde576040517f08c379a0000000000000000000000000000000000000000000000000000000008152600401611bd590615475565b60405180910390fd5b6000611bea8585611f2e565b90503373ffffffffffffffffffffffffffffffffffffffff16609960009054906101000a900473ffffffffffffffffffffffffffffffffffffffff1673ffffffffffffffffffffffffffffffffffffffff166397aba7f9838a8a6040518463ffffffff1660e01b8152600401611c62939291906154c2565b602060405180830381865afa158015611c7f573d6000803e3d6000fd5b505050506040513d601f19601f82011682018060405250810190611ca39190615509565b73ffffffffffffffffffffffffffffffffffffffff1614611cf9576040517f08c379a0000000000000000000000000000000000000000000000000000000008152600401611cf090615582565b60405180910390fd5b6000609a60009054906101000a900473ffffffffffffffffffffffffffffffffffffffff1673ffffffffffffffffffffffffffffffffffffffff16635dc331f8858c338a8a6040518663ffffffff1660e01b8152600401611d5e9594939291906155a2565b6020604051808303816000875af1158015611d7d573d6000803e3d6000fd5b505050506040513d601f19601f82011682018060405250810190611da19190614f01565b90508015611e9957609a60009054906101000a900473ffffffffffffffffffffffffffffffffffffffff1673ffffffffffffffffffffffffffffffffffffffff16635f0737a5856040518263ffffffff1660e01b8152600401611e0491906149f6565b602060405180830381865afa158015611e21573d6000803e3d6000fd5b505050506040513d601f19601f82011682018060405250810190611e459190614a26565b3373ffffffffffffffffffffffffffffffffffffffff168b7f19aa11d4ae172ce9cd7ac23375bc026b71c973e6f44ad9817fe5c6c7dc9fe9fb8c8c8c604051611e90939291906155f0565b60405180910390a45b50505050505050505050565b60a160009054906101000a900460ff1681565b60a25481565b609f6020528060005260406000206000915090505481565b60a860009054906101000a900473ffffffffffffffffffffffffffffffffffffffff1681565b6000609b6000838152602001908152602001600020805490509050919050565b6060611f278261215d565b9050919050565b60008282604051611f40929190615622565b6040518091039020905092915050565b609b6020528160005260406000208181548110611f6c57600080fd5b90600052602060002001600091509150505481565b60006065600084815260200190815260200160002060000160008373ffffffffffffffffffffffffffffffffffffffff1673ffffffffffffffffffffffffffffffffffffffff16815260200190815260200160002060009054906101000a900460ff16905092915050565b60a66020528060005260406000206000915090505481565b609c6020528060005260406000206000915090505481565b6120296000801b33611f81565b612068576040517f08c379a000000000000000000000000000000000000000000000000000000000815260040161205f90614e8b565b60405180910390fd5b8060a860006101000a81548173ffffffffffffffffffffffffffffffffffffffff021916908373ffffffffffffffffffffffffffffffffffffffff16021790555050565b600080609f6000847bffffffffffffffffffffffffffffffffffffffffffffffffffffffff19167bffffffffffffffffffffffffffffffffffffffffffffffffffffffff191681526020019081526020016000205490506000810361211657609e5491505061211b565b809150505b919050565b6000801b81565b609e5481565b60a06020528060005260406000206000915090505481565b609d6020528060005260406000206000915090505481565b6060600080609a60009054906101000a900473ffffffffffffffffffffffffffffffffffffffff1673ffffffffffffffffffffffffffffffffffffffff1663566b9a0e609a60009054906101000a900473ffffffffffffffffffffffffffffffffffffffff1673ffffffffffffffffffffffffffffffffffffffff16635f0737a5876040518263ffffffff1660e01b81526004016121fb91906149f6565b602060405180830381865afa158015612218573d6000803e3d6000fd5b505050506040513d601f19601f8201168201806040525081019061223c9190614a26565b866040518363ffffffff1660e01b815260040161225a929190614a53565b600060405180830381865afa158015612277573d6000803e3d6000fd5b505050506040513d6000823e3d601f19601f820116820180604052508101906122a09190614d56565b915091508192505050919050565b6122bb6000801b33611f81565b6122fa576040517f08c379a00000000000000000000000000000000000000000000000000000000081526004016122f190614e8b565b60405180910390fd5b80609960006101000a81548173ffffffffffffffffffffffffffffffffffffffff021916908373ffffffffffffffffffffffffffffffffffffffff16021790555050565b609860009054906101000a900473ffffffffffffffffffffffffffffffffffffffff1673ffffffffffffffffffffffffffffffffffffffff1663ee06b289336040518263ffffffff1660e01b81526004016123999190614eba565b602060405180830381865afa1580156123b6573d6000803e3d6000fd5b505050506040513d601f19601f820116820180604052508101906123da9190614f01565b612419576040517f08c379a000000000000000000000000000000000000000000000000000000000815260040161241090614f7a565b60405180910390fd5b818190508686905014612461576040517f08c379a000000000000000000000000000000000000000000000000000000000815260040161245890615687565b60405180910390fd5b60005b86869050811015612ac357609860009054906101000a900473ffffffffffffffffffffffffffffffffffffffff1673ffffffffffffffffffffffffffffffffffffffff1663ee06b289306040518263ffffffff1660e01b81526004016124ca9190614eba565b602060405180830381865afa1580156124e7573d6000803e3d6000fd5b505050506040513d601f19601f8201168201806040525081019061250b9190614f01565b156125ed5760a860009054906101000a900473ffffffffffffffffffffffffffffffffffffffff1673ffffffffffffffffffffffffffffffffffffffff1663fd2363118a8a8481811061256157612560615006565b5b9050610140020189898581811061257b5761257a615006565b5b9050602002013588888681811061259557612594615006565b5b905060200201356040518463ffffffff1660e01b81526004016125ba93929190615872565b600060405180830381600087803b1580156125d457600080fd5b505af11580156125e8573d6000803e3d6000fd5b505050505b600073ffffffffffffffffffffffffffffffffffffffff1683838381811061261857612617615006565b5b905060200201602081019061262d9190614749565b73ffffffffffffffffffffffffffffffffffffffff161461295d57600060a960009054906101000a900473ffffffffffffffffffffffffffffffffffffffff1673ffffffffffffffffffffffffffffffffffffffff16638ae2b59a89898581811061269b5761269a615006565b5b905060200201356040518263ffffffff1660e01b81526004016126be9190613db5565b602060405180830381865afa1580156126db573d6000803e3d6000fd5b505050506040513d601f19601f820116820180604052508101906126ff9190615509565b905083838381811061271457612713615006565b5b90506020020160208101906127299190614749565b73ffffffffffffffffffffffffffffffffffffffff168173ffffffffffffffffffffffffffffffffffffffff16146127dc577fbb6ac7a625d7602e8cd62261b25ef99d9323de9dfc322f80343ebdd1bd65000188888481811061278f5761278e615006565b5b90506020020135828686868181106127aa576127a9615006565b5b90506020020160208101906127bf9190614749565b6040516127ce939291906158ac565b60405180910390a150612ab6565b600080818a8a868181106127f3576127f2615006565b5b9050602002013587878781811061280d5761280c615006565b5b90506020020160208101906128229190614749565b6040516020016128349392919061596e565b6040516020818303038152906040529050609a60009054906101000a900473ffffffffffffffffffffffffffffffffffffffff1673ffffffffffffffffffffffffffffffffffffffff16635dc331f88d8d8781811061289657612895615006565b5b9050610140020160200160208101906128af9190613a77565b8c8c888181106128c2576128c1615006565b5b905060200201358989898181106128dc576128db615006565b5b90506020020160208101906128f19190614749565b856040518563ffffffff1660e01b815260040161291194939291906159ab565b6020604051808303816000875af1158015612930573d6000803e3d6000fd5b505050506040513d601f19601f820116820180604052508101906129549190614f01565b50505050612ab5565b60006001905060008189898581811061297957612978615006565b5b905060200201356040516020016129919291906159f7565b6040516020818303038152906040529050609a60009054906101000a900473ffffffffffffffffffffffffffffffffffffffff1673ffffffffffffffffffffffffffffffffffffffff16635dc331f88c8c868181106129f3576129f2615006565b5b905061014002016020016020810190612a0c9190613a77565b8b8b87818110612a1f57612a1e615006565b5b90506020020135888888818110612a3957612a38615006565b5b9050602002016020810190612a4e9190614749565b856040518563ffffffff1660e01b8152600401612a6e94939291906159ab565b6020604051808303816000875af1158015612a8d573d6000803e3d6000fd5b505050506040513d601f19601f82011682018060405250810190612ab19190614f01565b5050505b5b8080600101915050612464565b505050505050505050565b60a76020528060005260406000206000915090505481565b60008060019054906101000a900460ff16159050808015612b175750600160008054906101000a900460ff1660ff16105b80612b445750612b26306136a9565b158015612b435750600160008054906101000a900460ff1660ff16145b5b612b83576040517f08c379a0000000000000000000000000000000000000000000000000000000008152600401612b7a90615a95565b60405180910390fd5b60016000806101000a81548160ff021916908360ff1602179055508015612bc0576001600060016101000a81548160ff0219169083151502179055505b612bc86136cc565b612bd56000801b836134de565b600160a160006101000a81548160ff021916908315150217905550600060a160016101000a81548160ff0219169083151502179055508015612c645760008060016101000a81548160ff0219169083151502179055507f7f26b83ff96e1f2b6a682f133852f6798a09c465da95921460cefb38474024986001604051612c5b9190615af0565b60405180910390a15b5050565b60008282604051602001612c7d929190615b62565b60405160208183030381529060405280519060200120905092915050565b612ca86000801b33611f81565b612ce7576040517f08c379a0000000000000000000000000000000000000000000000000000000008152600401612cde90614e8b565b60405180910390fd5b8060a28190555050565b612cfe6000801b33611f81565b612d3d576040517f08c379a0000000000000000000000000000000000000000000000000000000008152600401612d3490614e8b565b60405180910390fd5b80609860006101000a81548173ffffffffffffffffffffffffffffffffffffffff021916908373ffffffffffffffffffffffffffffffffffffffff16021790555050565b609a60009054906101000a900473ffffffffffffffffffffffffffffffffffffffff1681565b60a160019054906101000a900460ff1681565b612dc382611143565b612dcc816134ca565b612dd683836135c7565b505050565b60a46020528060005260406000206000915090505481565b6000609a60009054906101000a900473ffffffffffffffffffffffffffffffffffffffff1673ffffffffffffffffffffffffffffffffffffffff1663ffe6d2f3836040518263ffffffff1660e01b8152600401612e5091906149f6565b602060405180830381865afa158015612e6d573d6000803e3d6000fd5b505050506040513d601f19601f82011682018060405250810190612e919190614a26565b9050919050565b600080609a60009054906101000a900473ffffffffffffffffffffffffffffffffffffffff1673ffffffffffffffffffffffffffffffffffffffff1663ffe6d2f3876040518263ffffffff1660e01b8152600401612ef691906149f6565b602060405180830381865afa158015612f13573d6000803e3d6000fd5b505050506040513d601f19601f82011682018060405250810190612f379190614a26565b905060008111915050949350505050565b60008282604051602001612f5d929190615b8e565b60405160208183030381529060405280519060200120905092915050565b60a36020528060005260406000206000915090505481565b6000609a60009054906101000a900473ffffffffffffffffffffffffffffffffffffffff1673ffffffffffffffffffffffffffffffffffffffff166399be018c836040518263ffffffff1660e01b8152600401612ff091906149f6565b602060405180830381865afa15801561300d573d6000803e3d6000fd5b505050506040513d601f19601f820116820180604052508101906130319190614a26565b9050919050565b6130456000801b33611f81565b613084576040517f08c379a000000000000000000000000000000000000000000000000000000000815260040161307b90614e8b565b60405180910390fd5b80609a60006101000a81548173ffffffffffffffffffffffffffffffffffffffff021916908373ffffffffffffffffffffffffffffffffffffffff16021790555050565b6130d56000801b33611f81565b613114576040517f08c379a000000000000000000000000000000000000000000000000000000000815260040161310b90614e8b565b60405180910390fd5b80609f6000847bffffffffffffffffffffffffffffffffffffffffffffffffffffffff19167bffffffffffffffffffffffffffffffffffffffffffffffffffffffff19168152602001908152602001600020819055505050565b6000609a60009054906101000a900473ffffffffffffffffffffffffffffffffffffffff1673ffffffffffffffffffffffffffffffffffffffff166385d9cded836040518263ffffffff1660e01b81526004016131cb91906149f6565b602060405180830381865afa1580156131e8573d6000803e3d6000fd5b505050506040513d601f19601f8201168201806040525081019061320c9190614a26565b9050919050565b609860009054906101000a900473ffffffffffffffffffffffffffffffffffffffff1673ffffffffffffffffffffffffffffffffffffffff1663ee06b289336040518263ffffffff1660e01b815260040161326e9190614eba565b602060405180830381865afa15801561328b573d6000803e3d6000fd5b505050506040513d601f19601f820116820180604052508101906132af9190614f01565b6132ee576040517f08c379a00000000000000000000000000000000000000000000000000000000081526004016132e590614f7a565b60405180910390fd5b878790508a8a90501480156133085750858590508a8a9050145b80156133195750818190508a8a9050145b613358576040517f08c379a000000000000000000000000000000000000000000000000000000000815260040161334f906152c4565b60405180910390fd5b60005b8a8a905081101561342d576134228b8b8381811061337c5761337b615006565b5b905060200201358a8a8481811061339657613395615006565b5b90506020020160208101906133ab9190614749565b8989858181106133be576133bd615006565b5b90506020028101906133d09190615044565b8989878181106133e3576133e2615006565b5b90506020028101906133f59190615044565b89898981811061340857613407615006565b5b905060200201602081019061341d9190613a77565b6118f6565b80600101905061335b565b5050505050505050505050565b609960009054906101000a900473ffffffffffffffffffffffffffffffffffffffff1681565b60007f01ffc9a7000000000000000000000000000000000000000000000000000000007bffffffffffffffffffffffffffffffffffffffffffffffffffffffff1916827bffffffffffffffffffffffffffffffffffffffffffffffffffffffff1916149050919050565b6134db816134d66135bf565b61371d565b50565b6134e88282611f81565b6135bb5760016065600084815260200190815260200160002060000160008373ffffffffffffffffffffffffffffffffffffffff1673ffffffffffffffffffffffffffffffffffffffff16815260200190815260200160002060006101000a81548160ff0219169083151502179055506135606135bf565b73ffffffffffffffffffffffffffffffffffffffff168173ffffffffffffffffffffffffffffffffffffffff16837f2f8788117e7eff1d82e926ec794901d17c78024a50270940304540a733656f0d60405160405180910390a45b5050565b600033905090565b6135d18282611f81565b156136a55760006065600084815260200190815260200160002060000160008373ffffffffffffffffffffffffffffffffffffffff1673ffffffffffffffffffffffffffffffffffffffff16815260200190815260200160002060006101000a81548160ff02191690831515021790555061364a6135bf565b73ffffffffffffffffffffffffffffffffffffffff168173ffffffffffffffffffffffffffffffffffffffff16837ff6391f5c32d9c69d2a47ea670b442974b53935d1edc7fd64eb21e047a839171b60405160405180910390a45b5050565b6000808273ffffffffffffffffffffffffffffffffffffffff163b119050919050565b600060019054906101000a900460ff1661371b576040517f08c379a000000000000000000000000000000000000000000000000000000000815260040161371290615c2c565b60405180910390fd5b565b6137278282611f81565b61379e57613734816137a2565b6137428360001c60206137cf565b604051602001613753929190615d2b565b6040516020818303038152906040526040517f08c379a00000000000000000000000000000000000000000000000000000000081526004016137959190615d9e565b60405180910390fd5b5050565b60606137c88273ffffffffffffffffffffffffffffffffffffffff16601460ff166137cf565b9050919050565b6060600060028360026137e29190615dc0565b6137ec9190615e02565b67ffffffffffffffff81111561380557613804614a7c565b5b6040519080825280601f01601f1916602001820160405280156138375781602001600182028036833780820191505090505b5090507f30000000000000000000000000000000000000000000000000000000000000008160008151811061386f5761386e615006565b5b60200101907effffffffffffffffffffffffffffffffffffffffffffffffffffffffffffff1916908160001a9053507f7800000000000000000000000000000000000000000000000000000000000000816001815181106138d3576138d2615006565b5b60200101907effffffffffffffffffffffffffffffffffffffffffffffffffffffffffffff1916908160001a905350600060018460026139139190615dc0565b61391d9190615e02565b90505b60018111156139bd577f3031323334353637383961626364656600000000000000000000000000000000600f86166010811061395f5761395e615006565b5b1a60f81b82828151811061397657613975615006565b5b60200101907effffffffffffffffffffffffffffffffffffffffffffffffffffffffffffff1916908160001a905350600485901c9450806139b690615e36565b9050613920565b5060008414613a01576040517f08c379a00000000000000000000000000000000000000000000000000000000081526004016139f890615eab565b60405180910390fd5b8091505092915050565b6000604051905090565b600080fd5b600080fd5b60007fffffffff0000000000000000000000000000000000000000000000000000000082169050919050565b613a5481613a1f565b8114613a5f57600080fd5b50565b600081359050613a7181613a4b565b92915050565b600060208284031215613a8d57613a8c613a15565b5b6000613a9b84828501613a62565b91505092915050565b60008115159050919050565b613ab981613aa4565b82525050565b6000602082019050613ad46000830184613ab0565b92915050565b6000819050919050565b613aed81613ada565b8114613af857600080fd5b50565b600081359050613b0a81613ae4565b92915050565b600060208284031215613b2657613b25613a15565b5b6000613b3484828501613afb565b91505092915050565b600081519050919050565b600082825260208201905092915050565b6000819050602082019050919050565b613b7281613ada565b82525050565b6000613b848383613b69565b60208301905092915050565b6000602082019050919050565b6000613ba882613b3d565b613bb28185613b48565b9350613bbd83613b59565b8060005b83811015613bee578151613bd58882613b78565b9750613be083613b90565b925050600181019050613bc1565b5085935050505092915050565b60006020820190508181036000830152613c158184613b9d565b905092915050565b600081519050919050565b600082825260208201905092915050565b6000819050602082019050919050565b600081519050919050565b600082825260208201905092915050565b60005b83811015613c83578082015181840152602081019050613c68565b60008484015250505050565b6000601f19601f8301169050919050565b6000613cab82613c49565b613cb58185613c54565b9350613cc5818560208601613c65565b613cce81613c8f565b840191505092915050565b6000613ce58383613ca0565b905092915050565b6000602082019050919050565b6000613d0582613c1d565b613d0f8185613c28565b935083602082028501613d2185613c39565b8060005b85811015613d5d5784840389528151613d3e8582613cd9565b9450613d4983613ced565b925060208a01995050600181019050613d25565b50829750879550505050505092915050565b60006040820190508181036000830152613d898185613b9d565b90508181036020830152613d9d8184613cfa565b90509392505050565b613daf81613ada565b82525050565b6000602082019050613dca6000830184613da6565b92915050565b600082825260208201905092915050565b6000613dec82613c49565b613df68185613dd0565b9350613e06818560208601613c65565b613e0f81613c8f565b840191505092915050565b60006020820190508181036000830152613e348184613de1565b905092915050565b6000819050919050565b613e4f81613e3c565b8114613e5a57600080fd5b50565b600081359050613e6c81613e46565b92915050565b600060208284031215613e8857613e87613a15565b5b6000613e9684828501613e5d565b91505092915050565b600073ffffffffffffffffffffffffffffffffffffffff82169050919050565b6000819050919050565b6000613ee4613edf613eda84613e9f565b613ebf565b613e9f565b9050919050565b6000613ef682613ec9565b9050919050565b6000613f0882613eeb565b9050919050565b613f1881613efd565b82525050565b6000602082019050613f336000830184613f0f565b92915050565b6000613f4482613eeb565b9050919050565b613f5481613f39565b82525050565b6000602082019050613f6f6000830184613f4b565b92915050565b6000613f8082613e9f565b9050919050565b613f9081613f75565b8114613f9b57600080fd5b50565b600081359050613fad81613f87565b92915050565b60008060408385031215613fca57613fc9613a15565b5b6000613fd885828601613afb565b9250506020613fe985828601613f9e565b9150509250929050565b600080fd5b600080fd5b600080fd5b60008083601f84011261401857614017613ff3565b5b8235905067ffffffffffffffff81111561403557614034613ff8565b5b60208301915083602082028301111561405157614050613ffd565b5b9250929050565b60008083601f84011261406e5761406d613ff3565b5b8235905067ffffffffffffffff81111561408b5761408a613ff8565b5b6020830191508360208202830111156140a7576140a6613ffd565b5b9250929050565b60008083601f8401126140c4576140c3613ff3565b5b8235905067ffffffffffffffff8111156140e1576140e0613ff8565b5b6020830191508360208202830111156140fd576140fc613ffd565b5b9250929050565b60008083601f84011261411a57614119613ff3565b5b8235905067ffffffffffffffff81111561413757614136613ff8565b5b60208301915083602082028301111561415357614152613ffd565b5b9250929050565b60008060008060008060008060008060a08b8d03121561417d5761417c613a15565b5b60008b013567ffffffffffffffff81111561419b5761419a613a1a565b5b6141a78d828e01614002565b9a509a505060208b013567ffffffffffffffff8111156141ca576141c9613a1a565b5b6141d68d828e01614058565b985098505060408b013567ffffffffffffffff8111156141f9576141f8613a1a565b5b6142058d828e016140ae565b965096505060608b013567ffffffffffffffff81111561422857614227613a1a565b5b6142348d828e016140ae565b945094505060808b013567ffffffffffffffff81111561425757614256613a1a565b5b6142638d828e01614104565b92509250509295989b9194979a5092959850565b6000806040838503121561428e5761428d613a15565b5b600061429c85828601613a62565b92505060206142ad85828601613afb565b9150509250929050565b60006040820190506142cc6000830185613ab0565b6142d96020830184613ab0565b9392505050565b60006142eb82613ec9565b9050919050565b60006142fd826142e0565b9050919050565b61430d816142f2565b82525050565b60006020820190506143286000830184614304565b92915050565b600061433982613e9f565b9050919050565b6143498161432e565b811461435457600080fd5b50565b60008135905061436681614340565b92915050565b60006020828403121561438257614381613a15565b5b600061439084828501614357565b91505092915050565b60008083601f8401126143af576143ae613ff3565b5b8235905067ffffffffffffffff8111156143cc576143cb613ff8565b5b6020830191508360018202830111156143e8576143e7613ffd565b5b9250929050565b600080600080600080600060a0888a03121561440e5761440d613a15565b5b600061441c8a828b01613afb565b975050602061442d8a828b01613f9e565b965050604088013567ffffffffffffffff81111561444e5761444d613a1a565b5b61445a8a828b01614399565b9550955050606088013567ffffffffffffffff81111561447d5761447c613a1a565b5b6144898a828b01614399565b9350935050608061449c8a828b01613a62565b91505092959891949750929550565b6144b481613e3c565b82525050565b60006020820190506144cf60008301846144ab565b92915050565b60006144e082613eeb565b9050919050565b6144f0816144d5565b82525050565b600060208201905061450b60008301846144e7565b92915050565b6000806020838503121561452857614527613a15565b5b600083013567ffffffffffffffff81111561454657614545613a1a565b5b61455285828601614399565b92509250509250929050565b6000806040838503121561457557614574613a15565b5b600061458385828601613afb565b925050602061459485828601613e5d565b9150509250929050565b60006145a982613f75565b9050919050565b6145b98161459e565b81146145c457600080fd5b50565b6000813590506145d6816145b0565b92915050565b6000602082840312156145f2576145f1613a15565b5b6000614600848285016145c7565b91505092915050565b60008083601f84011261461f5761461e613ff3565b5b8235905067ffffffffffffffff81111561463c5761463b613ff8565b5b6020830191508361014082028301111561465957614658613ffd565b5b9250929050565b6000806000806000806000806080898b0312156146805761467f613a15565b5b600089013567ffffffffffffffff81111561469e5761469d613a1a565b5b6146aa8b828c01614609565b9850985050602089013567ffffffffffffffff8111156146cd576146cc613a1a565b5b6146d98b828c01614002565b9650965050604089013567ffffffffffffffff8111156146fc576146fb613a1a565b5b6147088b828c01614002565b9450945050606089013567ffffffffffffffff81111561472b5761472a613a1a565b5b6147378b828c01614058565b92509250509295985092959890939650565b60006020828403121561475f5761475e613a15565b5b600061476d84828501613f9e565b91505092915050565b600063ffffffff82169050919050565b61478f81614776565b811461479a57600080fd5b50565b6000813590506147ac81614786565b92915050565b600080604083850312156147c9576147c8613a15565b5b60006147d785828601613a62565b92505060206147e88582860161479d565b9150509250929050565b60006147fd8261432e565b9050919050565b61480d816147f2565b811461481857600080fd5b50565b60008135905061482a81614804565b92915050565b60006020828403121561484657614845613a15565b5b60006148548482850161481b565b91505092915050565b600061486882613eeb565b9050919050565b6148788161485d565b82525050565b6000602082019050614893600083018461486f565b92915050565b600080600080608085870312156148b3576148b2613a15565b5b60006148c187828801613a62565b94505060206148d287828801613e5d565b93505060406148e387828801613e5d565b92505060606148f487828801613e5d565b91505092959194509250565b600061490b82613f75565b9050919050565b61491b81614900565b811461492657600080fd5b50565b60008135905061493881614912565b92915050565b60006020828403121561495457614953613a15565b5b600061496284828501614929565b91505092915050565b6000806040838503121561498257614981613a15565b5b600061499085828601613a62565b92505060206149a185828601613e5d565b9150509250929050565b60006149b682613eeb565b9050919050565b6149c6816149ab565b82525050565b60006020820190506149e160008301846149bd565b92915050565b6149f081613a1f565b82525050565b6000602082019050614a0b60008301846149e7565b92915050565b600081519050614a2081613e46565b92915050565b600060208284031215614a3c57614a3b613a15565b5b6000614a4a84828501614a11565b91505092915050565b6000604082019050614a6860008301856144ab565b614a7560208301846149e7565b9392505050565b7f4e487b7100000000000000000000000000000000000000000000000000000000600052604160045260246000fd5b614ab482613c8f565b810181811067ffffffffffffffff82111715614ad357614ad2614a7c565b5b80604052505050565b6000614ae6613a0b565b9050614af28282614aab565b919050565b600067ffffffffffffffff821115614b1257614b11614a7c565b5b602082029050602081019050919050565b600081519050614b3281613ae4565b92915050565b6000614b4b614b4684614af7565b614adc565b90508083825260208201905060208402830185811115614b6e57614b6d613ffd565b5b835b81811015614b975780614b838882614b23565b845260208401935050602081019050614b70565b5050509392505050565b600082601f830112614bb657614bb5613ff3565b5b8151614bc6848260208601614b38565b91505092915050565b600067ffffffffffffffff821115614bea57614be9614a7c565b5b602082029050602081019050919050565b600080fd5b600067ffffffffffffffff821115614c1b57614c1a614a7c565b5b614c2482613c8f565b9050602081019050919050565b6000614c44614c3f84614c00565b614adc565b905082815260208101848484011115614c6057614c5f614bfb565b5b614c6b848285613c65565b509392505050565b600082601f830112614c8857614c87613ff3565b5b8151614c98848260208601614c31565b91505092915050565b6000614cb4614caf84614bcf565b614adc565b90508083825260208201905060208402830185811115614cd757614cd6613ffd565b5b835b81811015614d1e57805167ffffffffffffffff811115614cfc57614cfb613ff3565b5b808601614d098982614c73565b85526020850194505050602081019050614cd9565b5050509392505050565b600082601f830112614d3d57614d3c613ff3565b5b8151614d4d848260208601614ca1565b91505092915050565b60008060408385031215614d6d57614d6c613a15565b5b600083015167ffffffffffffffff811115614d8b57614d8a613a1a565b5b614d9785828601614ba1565b925050602083015167ffffffffffffffff811115614db857614db7613a1a565b5b614dc485828601614d28565b9150509250929050565b7f4e487b7100000000000000000000000000000000000000000000000000000000600052602260045260246000fd5b60006002820490506001821680614e1557607f821691505b602082108103614e2857614e27614dce565b5b50919050565b600082825260208201905092915050565b7f5341423100000000000000000000000000000000000000000000000000000000600082015250565b6000614e75600483614e2e565b9150614e8082614e3f565b602082019050919050565b60006020820190508181036000830152614ea481614e68565b9050919050565b614eb481613f75565b82525050565b6000602082019050614ecf6000830184614eab565b92915050565b614ede81613aa4565b8114614ee957600080fd5b50565b600081519050614efb81614ed5565b92915050565b600060208284031215614f1757614f16613a15565b5b6000614f2584828501614eec565b91505092915050565b7f5341423200000000000000000000000000000000000000000000000000000000600082015250565b6000614f64600483614e2e565b9150614f6f82614f2e565b602082019050919050565b60006020820190508181036000830152614f9381614f57565b9050919050565b7f5341423400000000000000000000000000000000000000000000000000000000600082015250565b6000614fd0600483614e2e565b9150614fdb82614f9a565b602082019050919050565b60006020820190508181036000830152614fff81614fc3565b9050919050565b7f4e487b7100000000000000000000000000000000000000000000000000000000600052603260045260246000fd5b600080fd5b600080fd5b600080fd5b6000808335600160200384360303811261506157615060615035565b5b80840192508235915067ffffffffffffffff8211156150835761508261503a565b5b60208301925060018202360383131561509f5761509e61503f565b5b509250929050565b7f4e487b7100000000000000000000000000000000000000000000000000000000600052601160045260246000fd5b60006150e182613e3c565b91507fffffffffffffffffffffffffffffffffffffffffffffffffffffffffffffffff8203615113576151126150a7565b5b600182019050919050565b600060408201905061513360008301856144ab565b61514060208301846144ab565b9392505050565b7f416363657373436f6e74726f6c3a2063616e206f6e6c792072656e6f756e636560008201527f20726f6c657320666f722073656c660000000000000000000000000000000000602082015250565b60006151a3602f83614e2e565b91506151ae82615147565b604082019050919050565b600060208201905081810360008301526151d281615196565b9050919050565b6000602082840312156151ef576151ee613a15565b5b600082015167ffffffffffffffff81111561520d5761520c613a1a565b5b61521984828501614c73565b91505092915050565b60006020828403121561523857615237613a15565b5b600061524684828501614b23565b91505092915050565b60006040820190506152646000830185613da6565b6152716020830184614eab565b9392505050565b7f5341423300000000000000000000000000000000000000000000000000000000600082015250565b60006152ae600483614e2e565b91506152b982615278565b602082019050919050565b600060208201905081810360008301526152dd816152a1565b9050919050565b7f5341423500000000000000000000000000000000000000000000000000000000600082015250565b600061531a600483614e2e565b9150615325826152e4565b602082019050919050565b600060208201905081810360008301526153498161530d565b9050919050565b600080fd5b600080fd5b6000808585111561536e5761536d615350565b5b8386111561537f5761537e615355565b5b6001850283019150848603905094509492505050565b600081905092915050565b82818337600083830152505050565b60006153bb8385615395565b93506153c88385846153a0565b82840190509392505050565b60006153e18284866153af565b91508190509392505050565b6000819050919050565b61540861540382613ada565b6153ed565b82525050565b600061541a82846153f7565b60208201915081905092915050565b7f5341423600000000000000000000000000000000000000000000000000000000600082015250565b600061545f600483614e2e565b915061546a82615429565b602082019050919050565b6000602082019050818103600083015261548e81615452565b9050919050565b60006154a18385613dd0565b93506154ae8385846153a0565b6154b783613c8f565b840190509392505050565b60006040820190506154d76000830186613da6565b81810360208301526154ea818486615495565b9050949350505050565b60008151905061550381613f87565b92915050565b60006020828403121561551f5761551e613a15565b5b600061552d848285016154f4565b91505092915050565b7f5341423900000000000000000000000000000000000000000000000000000000600082015250565b600061556c600483614e2e565b915061557782615536565b602082019050919050565b6000602082019050818103600083015261559b8161555f565b9050919050565b60006080820190506155b760008301886149e7565b6155c46020830187613da6565b6155d16040830186614eab565b81810360608301526155e4818486615495565b90509695505050505050565b60006040820190506156056000830186614eab565b8181036020830152615618818486615495565b9050949350505050565b600061562f8284866153af565b91508190509392505050565b7f5041423300000000000000000000000000000000000000000000000000000000600082015250565b6000615671600483614e2e565b915061567c8261563b565b602082019050919050565b600060208201905081810360008301526156a081615664565b9050919050565b60006156b66020840184613a62565b905092915050565b6156c781613a1f565b82525050565b60006156dc602084018461479d565b905092915050565b6156ed81614776565b82525050565b60006157026020840184613afb565b905092915050565b60006157196020840184613e5d565b905092915050565b61572a81613e3c565b82525050565b600061573f6020840184613f9e565b905092915050565b61575081613f75565b82525050565b610140820161576860008301836156a7565b61577560008501826156be565b5061578360208301836156a7565b61579060208501826156be565b5061579e60408301836156cd565b6157ab60408501826156e4565b506157b960608301836156f3565b6157c66060850182613b69565b506157d4608083018361570a565b6157e16080850182615721565b506157ef60a0830183615730565b6157fc60a0850182615747565b5061580a60c083018361570a565b61581760c0850182615721565b5061582560e08301836156cd565b61583260e08501826156e4565b50615841610100830183615730565b61584f610100850182615747565b5061585e61012083018361570a565b61586c610120850182615721565b50505050565b6000610180820190506158886000830186615756565b615896610140830185613da6565b6158a4610160830184613da6565b949350505050565b60006060820190506158c16000830186613da6565b6158ce6020830185614eab565b6158db6040830184614eab565b949350505050565b600060ff82169050919050565b60008160f81b9050919050565b6000615908826158f0565b9050919050565b61592061591b826158e3565b6158fd565b82525050565b60008160601b9050919050565b600061593e82615926565b9050919050565b600061595082615933565b9050919050565b61596861596382613f75565b615945565b82525050565b600061597a828661590f565b60018201915061598a82856153f7565b60208201915061599a8284615957565b601482019150819050949350505050565b60006080820190506159c060008301876149e7565b6159cd6020830186613da6565b6159da6040830185614eab565b81810360608301526159ec8184613de1565b905095945050505050565b6000615a03828561590f565b600182019150615a1382846153f7565b6020820191508190509392505050565b7f496e697469616c697a61626c653a20636f6e747261637420697320616c72656160008201527f647920696e697469616c697a6564000000000000000000000000000000000000602082015250565b6000615a7f602e83614e2e565b9150615a8a82615a23565b604082019050919050565b60006020820190508181036000830152615aae81615a72565b9050919050565b6000819050919050565b6000615ada615ad5615ad084615ab5565b613ebf565b6158e3565b9050919050565b615aea81615abf565b82525050565b6000602082019050615b056000830184615ae1565b92915050565b6000819050919050565b615b26615b2182613a1f565b615b0b565b82525050565b60008160e01b9050919050565b6000615b4482615b2c565b9050919050565b615b5c615b5782614776565b615b39565b82525050565b6000615b6e8285615b15565b600482019150615b7e8284615b4b565b6004820191508190509392505050565b6000615b9a8285615b15565b600482019150615baa82846153f7565b6020820191508190509392505050565b7f496e697469616c697a61626c653a20636f6e7472616374206973206e6f74206960008201527f6e697469616c697a696e67000000000000000000000000000000000000000000602082015250565b6000615c16602b83614e2e565b9150615c2182615bba565b604082019050919050565b60006020820190508181036000830152615c4581615c09565b9050919050565b600081905092915050565b7f416363657373436f6e74726f6c3a206163636f756e7420000000000000000000600082015250565b6000615c8d601783615c4c565b9150615c9882615c57565b601782019050919050565b600081519050919050565b6000615cb982615ca3565b615cc38185615c4c565b9350615cd3818560208601613c65565b80840191505092915050565b7f206973206d697373696e6720726f6c6520000000000000000000000000000000600082015250565b6000615d15601183615c4c565b9150615d2082615cdf565b601182019050919050565b6000615d3682615c80565b9150615d428285615cae565b9150615d4d82615d08565b9150615d598284615cae565b91508190509392505050565b6000615d7082615ca3565b615d7a8185614e2e565b9350615d8a818560208601613c65565b615d9381613c8f565b840191505092915050565b60006020820190508181036000830152615db88184615d65565b905092915050565b6000615dcb82613e3c565b9150615dd683613e3c565b9250828202615de481613e3c565b91508282048414831517615dfb57615dfa6150a7565b5b5092915050565b6000615e0d82613e3c565b9150615e1883613e3c565b9250828201905080821115615e3057615e2f6150a7565b5b92915050565b6000615e4182613e3c565b915060008203615e5457615e536150a7565b5b600182039050919050565b7f537472696e67733a20686578206c656e67746820696e73756666696369656e74600082015250565b6000615e95602083614e2e565b9150615ea082615e5f565b602082019050919050565b60006020820190508181036000830152615ec481615e88565b905091905056fea26469706673582212208fdec03892342711951f7aae79928c4c55d9646a65e75aeec9519a4895c01e8c64736f6c63430008180033",
  "linkReferences": {},
  "deployedLinkReferences": {}
}