{
  "_format": "hh-sol-artifact-1",
  "contractName": "BiddingBook",
  "sourceName": "contracts/biddingBook.sol",
  "abi": [
    {
      "inputs": [],
      "stateMutability": "nonpayable",
      "type": "constructor"
    },
    {
      "anonymous": false,
      "inputs": [
        {
          "indexed": true,
          "internalType": "bytes32",
          "name": "id",
          "type": "bytes32"
        },
        {
          "indexed": false,
          "internalType": "address",
          "name": "executor",
          "type": "address"
        },
        {
          "indexed": false,
          "internalType": "uint256",
          "name": "distributedAmount",
          "type": "uint256"
        }
      ],
      "name": "BRNRewardsDistributed",
      "type": "event"
    },
    {
      "anonymous": false,
      "inputs": [
        {
          "indexed": true,
          "internalType": "bytes32",
          "name": "id",
          "type": "bytes32"
        },
        {
          "indexed": false,
          "internalType": "address",
          "name": "executor",
          "type": "address"
        },
        {
          "indexed": false,
          "internalType": "uint256",
          "name": "proposedReward",
          "type": "uint256"
        }
      ],
      "name": "BidReceived",
      "type": "event"
    },
    {
      "anonymous": false,
      "inputs": [
        {
          "indexed": true,
          "internalType": "bytes32",
          "name": "id",
          "type": "bytes32"
        },
        {
          "indexed": false,
          "internalType": "address",
          "name": "executor",
          "type": "address"
        },
        {
          "indexed": false,
          "internalType": "uint256",
          "name": "distributedAmount",
          "type": "uint256"
        }
      ],
      "name": "InflationDistributed",
      "type": "event"
    },
    {
      "anonymous": false,
      "inputs": [
        {
          "indexed": false,
          "internalType": "uint8",
          "name": "version",
          "type": "uint8"
        }
      ],
      "name": "Initialized",
      "type": "event"
    },
    {
      "anonymous": false,
      "inputs": [
        {
          "indexed": true,
          "internalType": "bytes32",
          "name": "id",
          "type": "bytes32"
        },
        {
          "indexed": false,
          "internalType": "address",
          "name": "executor",
          "type": "address"
        },
        {
          "indexed": false,
          "internalType": "uint256",
          "name": "refund",
          "type": "uint256"
        }
      ],
      "name": "InsuranceClaimed",
      "type": "event"
    },
    {
      "anonymous": false,
      "inputs": [
        {
          "indexed": true,
          "internalType": "bytes32",
          "name": "id",
          "type": "bytes32"
        },
        {
          "indexed": true,
          "internalType": "bytes4",
          "name": "source",
          "type": "bytes4"
        },
        {
          "indexed": true,
          "internalType": "address",
          "name": "executor",
          "type": "address"
        },
        {
          "indexed": false,
          "internalType": "uint256",
          "name": "proposedReward",
          "type": "uint256"
        },
        {
          "indexed": false,
          "internalType": "uint256",
          "name": "newProposedReward",
          "type": "uint256"
        },
        {
          "indexed": false,
          "internalType": "uint256",
          "name": "refund",
          "type": "uint256"
        }
      ],
      "name": "OutbidReceived",
      "type": "event"
    },
    {
      "anonymous": false,
      "inputs": [
        {
          "indexed": true,
          "internalType": "bytes32",
          "name": "role",
          "type": "bytes32"
        },
        {
          "indexed": true,
          "internalType": "bytes32",
          "name": "previousAdminRole",
          "type": "bytes32"
        },
        {
          "indexed": true,
          "internalType": "bytes32",
          "name": "newAdminRole",
          "type": "bytes32"
        }
      ],
      "name": "RoleAdminChanged",
      "type": "event"
    },
    {
      "anonymous": false,
      "inputs": [
        {
          "indexed": true,
          "internalType": "bytes32",
          "name": "role",
          "type": "bytes32"
        },
        {
          "indexed": true,
          "internalType": "address",
          "name": "account",
          "type": "address"
        },
        {
          "indexed": true,
          "internalType": "address",
          "name": "sender",
          "type": "address"
        }
      ],
      "name": "RoleGranted",
      "type": "event"
    },
    {
      "anonymous": false,
      "inputs": [
        {
          "indexed": true,
          "internalType": "bytes32",
          "name": "role",
          "type": "bytes32"
        },
        {
          "indexed": true,
          "internalType": "address",
          "name": "account",
          "type": "address"
        },
        {
          "indexed": true,
          "internalType": "address",
          "name": "sender",
          "type": "address"
        }
      ],
      "name": "RoleRevoked",
      "type": "event"
    },
    {
      "inputs": [],
      "name": "DEFAULT_ADMIN_ROLE",
      "outputs": [
        {
          "internalType": "bytes32",
          "name": "",
          "type": "bytes32"
        }
      ],
      "stateMutability": "view",
      "type": "function"
    },
    {
      "inputs": [],
      "name": "attestationBook",
      "outputs": [
        {
          "internalType": "contract SingleAttestationBook",
          "name": "",
          "type": "address"
        }
      ],
      "stateMutability": "view",
      "type": "function"
    },
    {
      "inputs": [],
      "name": "attestersPortal",
      "outputs": [
        {
          "internalType": "contract AttestersPortal",
          "name": "",
          "type": "address"
        }
      ],
      "stateMutability": "view",
      "type": "function"
    },
    {
      "inputs": [
        {
          "internalType": "bytes32",
          "name": "",
          "type": "bytes32"
        }
      ],
      "name": "bestOrderBid",
      "outputs": [
        {
          "internalType": "uint256",
          "name": "biddingStartTimestamp",
          "type": "uint256"
        },
        {
          "internalType": "address",
          "name": "executor",
          "type": "address"
        },
        {
          "internalType": "uint256",
          "name": "proposedReward",
          "type": "uint256"
        },
        {
          "internalType": "uint256",
          "name": "timestamp",
          "type": "uint256"
        }
      ],
      "stateMutability": "view",
      "type": "function"
    },
    {
      "inputs": [
        {
          "internalType": "bytes32",
          "name": "orderId",
          "type": "bytes32"
        },
        {
          "internalType": "uint256",
          "name": "newProposedReward",
          "type": "uint256"
        },
        {
          "internalType": "address",
          "name": "bidder",
          "type": "address"
        }
      ],
      "name": "bidOrder",
      "outputs": [],
      "stateMutability": "payable",
      "type": "function"
    },
    {
      "inputs": [
        {
          "internalType": "bytes32[]",
          "name": "orderIds",
          "type": "bytes32[]"
        },
        {
          "internalType": "uint256[]",
          "name": "newProposedRewards",
          "type": "uint256[]"
        },
        {
          "internalType": "address",
          "name": "bidder",
          "type": "address"
        }
      ],
      "name": "bidOrderBatch",
      "outputs": [],
      "stateMutability": "payable",
      "type": "function"
    },
    {
      "inputs": [],
      "name": "biddingPeriod",
      "outputs": [
        {
          "internalType": "uint256",
          "name": "",
          "type": "uint256"
        }
      ],
      "stateMutability": "view",
      "type": "function"
    },
    {
      "inputs": [],
      "name": "brnRewards",
      "outputs": [
        {
          "internalType": "contract BRNRewards",
          "name": "",
          "type": "address"
        }
      ],
      "stateMutability": "view",
      "type": "function"
    },
    {
      "inputs": [
        {
          "internalType": "bytes32",
          "name": "orderId",
          "type": "bytes32"
        },
        {
          "internalType": "address",
          "name": "claimer",
          "type": "address"
        }
      ],
      "name": "claimInsuranceBack",
      "outputs": [],
      "stateMutability": "nonpayable",
      "type": "function"
    },
    {
      "inputs": [
        {
          "internalType": "bytes32[]",
          "name": "orderIds",
          "type": "bytes32[]"
        },
        {
          "internalType": "address",
          "name": "claimer",
          "type": "address"
        }
      ],
      "name": "claimInsuranceBackBatch",
      "outputs": [],
      "stateMutability": "nonpayable",
      "type": "function"
    },
    {
      "inputs": [],
      "name": "claimInsuranceForLost",
      "outputs": [],
      "stateMutability": "nonpayable",
      "type": "function"
    },
    {
      "inputs": [],
      "name": "confirmationBook",
      "outputs": [
        {
          "internalType": "contract ConfirmationBook",
          "name": "",
          "type": "address"
        }
      ],
      "stateMutability": "view",
      "type": "function"
    },
    {
      "inputs": [],
      "name": "currentInsuranceInNative",
      "outputs": [
        {
          "internalType": "uint256",
          "name": "",
          "type": "uint256"
        }
      ],
      "stateMutability": "view",
      "type": "function"
    },
    {
      "inputs": [
        {
          "internalType": "bytes32",
          "name": "orderId",
          "type": "bytes32"
        }
      ],
      "name": "getBid",
      "outputs": [
        {
          "components": [
            {
              "internalType": "uint256",
              "name": "biddingStartTimestamp",
              "type": "uint256"
            },
            {
              "internalType": "address",
              "name": "executor",
              "type": "address"
            },
            {
              "internalType": "uint256",
              "name": "proposedReward",
              "type": "uint256"
            },
            {
              "internalType": "uint256",
              "name": "timestamp",
              "type": "uint256"
            }
          ],
          "internalType": "struct BiddingBook.Bid",
          "name": "",
          "type": "tuple"
        }
      ],
      "stateMutability": "view",
      "type": "function"
    },
    {
      "inputs": [
        {
          "internalType": "bytes32",
          "name": "orderId",
          "type": "bytes32"
        }
      ],
      "name": "getBidAmount",
      "outputs": [
        {
          "internalType": "uint256",
          "name": "",
          "type": "uint256"
        }
      ],
      "stateMutability": "view",
      "type": "function"
    },
    {
      "inputs": [
        {
          "internalType": "bytes32",
          "name": "orderId",
          "type": "bytes32"
        }
      ],
      "name": "getBidStartTimestamp",
      "outputs": [
        {
          "internalType": "uint256",
          "name": "",
          "type": "uint256"
        }
      ],
      "stateMutability": "view",
      "type": "function"
    },
    {
      "inputs": [
        {
          "internalType": "bytes32",
          "name": "orderId",
          "type": "bytes32"
        }
      ],
      "name": "getBidTimestamp",
      "outputs": [
        {
          "internalType": "uint256",
          "name": "",
          "type": "uint256"
        }
      ],
      "stateMutability": "view",
      "type": "function"
    },
    {
      "inputs": [
        {
          "internalType": "bytes32",
          "name": "orderId",
          "type": "bytes32"
        }
      ],
      "name": "getBidWinner",
      "outputs": [
        {
          "internalType": "address",
          "name": "",
          "type": "address"
        }
      ],
      "stateMutability": "view",
      "type": "function"
    },
    {
      "inputs": [],
      "name": "getCurrentInsuranceInNative",
      "outputs": [
        {
          "internalType": "uint256",
          "name": "",
          "type": "uint256"
        }
      ],
      "stateMutability": "view",
      "type": "function"
    },
    {
      "inputs": [
        {
          "internalType": "bytes32",
          "name": "role",
          "type": "bytes32"
        }
      ],
      "name": "getRoleAdmin",
      "outputs": [
        {
          "internalType": "bytes32",
          "name": "",
          "type": "bytes32"
        }
      ],
      "stateMutability": "view",
      "type": "function"
    },
    {
      "inputs": [
        {
          "internalType": "bytes32",
          "name": "role",
          "type": "bytes32"
        },
        {
          "internalType": "address",
          "name": "account",
          "type": "address"
        }
      ],
      "name": "grantRole",
      "outputs": [],
      "stateMutability": "nonpayable",
      "type": "function"
    },
    {
      "inputs": [
        {
          "internalType": "bytes32",
          "name": "role",
          "type": "bytes32"
        },
        {
          "internalType": "address",
          "name": "account",
          "type": "address"
        }
      ],
      "name": "hasRole",
      "outputs": [
        {
          "internalType": "bool",
          "name": "",
          "type": "bool"
        }
      ],
      "stateMutability": "view",
      "type": "function"
    },
    {
      "inputs": [
        {
          "internalType": "address",
          "name": "_owner",
          "type": "address"
        },
        {
          "internalType": "uint32",
          "name": "_quorumPercent",
          "type": "uint32"
        }
      ],
      "name": "initialize",
      "outputs": [],
      "stateMutability": "nonpayable",
      "type": "function"
    },
    {
      "inputs": [
        {
          "internalType": "bytes32",
          "name": "",
          "type": "bytes32"
        }
      ],
      "name": "insuranceClaimed",
      "outputs": [
        {
          "internalType": "bool",
          "name": "",
          "type": "bool"
        }
      ],
      "stateMutability": "view",
      "type": "function"
    },
    {
      "inputs": [],
      "name": "isBrnRewardsOn",
      "outputs": [
        {
          "internalType": "bool",
          "name": "",
          "type": "bool"
        }
      ],
      "stateMutability": "view",
      "type": "function"
    },
    {
      "inputs": [],
      "name": "isInflationRewardsOn",
      "outputs": [
        {
          "internalType": "bool",
          "name": "",
          "type": "bool"
        }
      ],
      "stateMutability": "view",
      "type": "function"
    },
    {
      "inputs": [],
      "name": "isUnderBiddingOn",
      "outputs": [
        {
          "internalType": "bool",
          "name": "",
          "type": "bool"
        }
      ],
      "stateMutability": "view",
      "type": "function"
    },
    {
      "inputs": [
        {
          "internalType": "address",
          "name": "",
          "type": "address"
        }
      ],
      "name": "lostBidInsuranceClaims",
      "outputs": [
        {
          "internalType": "uint256",
          "name": "",
          "type": "uint256"
        }
      ],
      "stateMutability": "view",
      "type": "function"
    },
    {
      "inputs": [],
      "name": "minBidDecrementMicroPercent",
      "outputs": [
        {
          "internalType": "uint256",
          "name": "",
          "type": "uint256"
        }
      ],
      "stateMutability": "view",
      "type": "function"
    },
    {
      "inputs": [],
      "name": "orderBook",
      "outputs": [
        {
          "internalType": "contract OrderBook",
          "name": "",
          "type": "address"
        }
      ],
      "stateMutability": "view",
      "type": "function"
    },
    {
      "inputs": [],
      "name": "orderQuorumPercent",
      "outputs": [
        {
          "internalType": "uint32",
          "name": "",
          "type": "uint32"
        }
      ],
      "stateMutability": "view",
      "type": "function"
    },
    {
      "inputs": [],
      "name": "pendingBook",
      "outputs": [
        {
          "internalType": "contract PendingBook",
          "name": "",
          "type": "address"
        }
      ],
      "stateMutability": "view",
      "type": "function"
    },
    {
      "inputs": [
        {
          "internalType": "bytes32",
          "name": "orderId",
          "type": "bytes32"
        }
      ],
      "name": "readBidAmount",
      "outputs": [
        {
          "internalType": "uint256",
          "name": "",
          "type": "uint256"
        }
      ],
      "stateMutability": "view",
      "type": "function"
    },
    {
      "inputs": [
        {
          "internalType": "bytes32",
          "name": "orderId",
          "type": "bytes32"
        }
      ],
      "name": "readBidWinner",
      "outputs": [
        {
          "internalType": "address",
          "name": "",
          "type": "address"
        }
      ],
      "stateMutability": "view",
      "type": "function"
    },
    {
      "inputs": [
        {
          "internalType": "bytes32",
          "name": "role",
          "type": "bytes32"
        },
        {
          "internalType": "address",
          "name": "account",
          "type": "address"
        }
      ],
      "name": "renounceRole",
      "outputs": [],
      "stateMutability": "nonpayable",
      "type": "function"
    },
    {
      "inputs": [
        {
          "internalType": "bytes32",
          "name": "role",
          "type": "bytes32"
        },
        {
          "internalType": "address",
          "name": "account",
          "type": "address"
        }
      ],
      "name": "revokeRole",
      "outputs": [],
      "stateMutability": "nonpayable",
      "type": "function"
    },
    {
      "inputs": [
        {
          "internalType": "address payable",
          "name": "attestationBookAddress",
          "type": "address"
        }
      ],
      "name": "setAttestationBookAddress",
      "outputs": [],
      "stateMutability": "nonpayable",
      "type": "function"
    },
    {
      "inputs": [
        {
          "internalType": "address payable",
          "name": "attestersPortalAddress",
          "type": "address"
        }
      ],
      "name": "setAttestersPortalAddress",
      "outputs": [],
      "stateMutability": "nonpayable",
      "type": "function"
    },
    {
      "inputs": [
        {
          "internalType": "address payable",
          "name": "brnRewardsAddress",
          "type": "address"
        }
      ],
      "name": "setBRNRewardsAddress",
      "outputs": [],
      "stateMutability": "nonpayable",
      "type": "function"
    },
    {
      "inputs": [
        {
          "internalType": "uint256",
          "name": "_biddingPeriod",
          "type": "uint256"
        }
      ],
      "name": "setBiddingPeriod",
      "outputs": [],
      "stateMutability": "nonpayable",
      "type": "function"
    },
    {
      "inputs": [
        {
          "internalType": "address payable",
          "name": "confirmationBookAddress",
          "type": "address"
        }
      ],
      "name": "setConfirmationBookAddress",
      "outputs": [],
      "stateMutability": "nonpayable",
      "type": "function"
    },
    {
      "inputs": [
        {
          "internalType": "uint256",
          "name": "_insuranceInNative",
          "type": "uint256"
        }
      ],
      "name": "setCurrentInsuranceInNative",
      "outputs": [],
      "stateMutability": "nonpayable",
      "type": "function"
    },
    {
      "inputs": [
        {
          "internalType": "uint256",
          "name": "_minBidDecrementMicroPercent",
          "type": "uint256"
        }
      ],
      "name": "setMinBidDecrementMicroPercent",
      "outputs": [],
      "stateMutability": "nonpayable",
      "type": "function"
    },
    {
      "inputs": [
        {
          "internalType": "address payable",
          "name": "orderBookAddress",
          "type": "address"
        }
      ],
      "name": "setOrderBookAddress",
      "outputs": [],
      "stateMutability": "nonpayable",
      "type": "function"
    },
    {
      "inputs": [
        {
          "internalType": "address payable",
          "name": "pendingBookAddress",
          "type": "address"
        }
      ],
      "name": "setPendingBookAddress",
      "outputs": [],
      "stateMutability": "nonpayable",
      "type": "function"
    },
    {
      "inputs": [
        {
          "internalType": "uint32",
          "name": "_quorumPercent",
          "type": "uint32"
        }
      ],
      "name": "setQuorumPercent",
      "outputs": [],
      "stateMutability": "nonpayable",
      "type": "function"
    },
    {
      "inputs": [
        {
          "internalType": "address payable",
          "name": "trnInflationRewardsAddress",
          "type": "address"
        }
      ],
      "name": "setTRNInflationRewardsAddress",
      "outputs": [],
      "stateMutability": "nonpayable",
      "type": "function"
    },
    {
      "inputs": [],
      "name": "setUnderBiddingOff",
      "outputs": [],
      "stateMutability": "nonpayable",
      "type": "function"
    },
    {
      "inputs": [],
      "name": "setUnderBiddingOn",
      "outputs": [],
      "stateMutability": "nonpayable",
      "type": "function"
    },
    {
      "inputs": [
        {
          "internalType": "bytes32",
          "name": "_version",
          "type": "bytes32"
        }
      ],
      "name": "setVersion",
      "outputs": [],
      "stateMutability": "nonpayable",
      "type": "function"
    },
    {
      "inputs": [
        {
          "internalType": "bytes4",
          "name": "interfaceId",
          "type": "bytes4"
        }
      ],
      "name": "supportsInterface",
      "outputs": [
        {
          "internalType": "bool",
          "name": "",
          "type": "bool"
        }
      ],
      "stateMutability": "view",
      "type": "function"
    },
    {
      "inputs": [],
      "name": "trnInflationRewards",
      "outputs": [
        {
          "internalType": "contract TRNInflationRewards",
          "name": "",
          "type": "address"
        }
      ],
      "stateMutability": "view",
      "type": "function"
    },
    {
      "inputs": [],
      "name": "version",
      "outputs": [
        {
          "internalType": "bytes32",
          "name": "",
          "type": "bytes32"
        }
      ],
      "stateMutability": "view",
      "type": "function"
    }
  ],
  "bytecode": "0x60806040523480156200001157600080fd5b50620000226200002860201b60201c565b620001d2565b600060019054906101000a900460ff16156200007b576040517f08c379a0000000000000000000000000000000000000000000000000000000008152600401620000729062000175565b60405180910390fd5b60ff801660008054906101000a900460ff1660ff1614620000ec5760ff6000806101000a81548160ff021916908360ff1602179055507f7f26b83ff96e1f2b6a682f133852f6798a09c465da95921460cefb384740249860ff604051620000e39190620001b5565b60405180910390a15b565b600082825260208201905092915050565b7f496e697469616c697a61626c653a20636f6e747261637420697320696e69746960008201527f616c697a696e6700000000000000000000000000000000000000000000000000602082015250565b60006200015d602783620000ee565b91506200016a82620000ff565b604082019050919050565b6000602082019050818103600083015262000190816200014e565b9050919050565b600060ff82169050919050565b620001af8162000197565b82525050565b6000602082019050620001cc6000830184620001a4565b92915050565b61582d80620001e26000396000f3fe60806040526004361061031a5760003560e01c80638ae2b59a116101ab578063c21e4694116100f7578063dbb987d311610095578063e9654db31161006f578063e9654db314610bcd578063ea53a38214610bf6578063f061c78914610c33578063f7ee02cb14610c5e5761031a565b8063dbb987d314610b64578063e34bdc7514610b7b578063e65c75f514610ba45761031a565b8063c9279c20116100d1578063c9279c2014610aa7578063ca5f81b514610ad2578063d1bd08bc14610afb578063d547741f14610b3b5761031a565b8063c21e469414610a2a578063c583316e14610a53578063c5e4c9f914610a7e5761031a565b80639c71edf611610164578063a63aaf351161013e578063a63aaf3514610970578063b0676f621461099b578063b159cfbf146109c4578063b25669f0146109ed5761031a565b80639c71edf6146108ef578063a1f80d8f1461091a578063a217fddf146109455761031a565b80638ae2b59a146107ca57806391704e1e1461080757806391d1485414610844578063928935081461088157806395627628146108aa578063993cc103146108c65761031a565b80633b34730c1161026a57806371118d0c116102235780637a575361116101fd5780637a575361146106fe578063801e9f121461072757806382bb0f8b146107505780638939a70f1461078d5761031a565b806371118d0c1461067f578063776af5ba146106a857806377f81bd0146106d35761031a565b80633b34730c1461056d5780633feccd181461059857806352172d58146105d557806354fd4d50146106005780635765d3c81461062b5780635f8909bd146106545761031a565b80631d775d7a116102d7578063296b1cf8116102b1578063296b1cf8146104c55780632f2ff15d146104f057806336568abe146105195780633aac5d3d146105425761031a565b80631d775d7a14610443578063222c4db91461045f578063248a9ca3146104885761031a565b806301ffc9a71461031f5780630338d0111461035c5780630356b5191461038757806307c656331461039e57806313db9ce6146103c95780631a13b20214610406575b600080fd5b34801561032b57600080fd5b5061034660048036038101906103419190613cc7565b610c75565b6040516103539190613d0f565b60405180910390f35b34801561036857600080fd5b50610371610cef565b60405161037e9190613d43565b60405180910390f35b34801561039357600080fd5b5061039c610cf5565b005b3480156103aa57600080fd5b506103b3610d5e565b6040516103c09190613ddd565b60405180910390f35b3480156103d557600080fd5b506103f060048036038101906103eb9190613e2e565b610d84565b6040516103fd9190613d43565b60405180910390f35b34801561041257600080fd5b5061042d60048036038101906104289190613e2e565b610e81565b60405161043a9190613d0f565b60405180910390f35b61045d60048036038101906104589190613f54565b610ea1565b005b34801561046b57600080fd5b5061048660048036038101906104819190614015565b610f11565b005b34801561049457600080fd5b506104af60048036038101906104aa9190613e2e565b610f67565b6040516104bc9190614051565b60405180910390f35b3480156104d157600080fd5b506104da610f87565b6040516104e7919061409f565b60405180910390f35b3480156104fc57600080fd5b50610517600480360381019061051291906140ba565b610fad565b005b34801561052557600080fd5b50610540600480360381019061053b91906140ba565b610fce565b005b34801561054e57600080fd5b50610557611051565b604051610564919061411b565b60405180910390f35b34801561057957600080fd5b50610582611077565b60405161058f9190614157565b60405180910390f35b3480156105a457600080fd5b506105bf60048036038101906105ba9190613e2e565b61109d565b6040516105cc9190613d43565b60405180910390f35b3480156105e157600080fd5b506105ea6110bd565b6040516105f79190613d0f565b60405180910390f35b34801561060c57600080fd5b506106156111af565b6040516106229190614051565b60405180910390f35b34801561063757600080fd5b50610652600480360381019061064d91906140ba565b6111b5565b005b34801561066057600080fd5b506106696118a7565b6040516106769190613d43565b60405180910390f35b34801561068b57600080fd5b506106a660048036038101906106a19190614015565b6118ad565b005b3480156106b457600080fd5b506106bd611903565b6040516106ca9190614193565b60405180910390f35b3480156106df57600080fd5b506106e8611929565b6040516106f59190613d0f565b60405180910390f35b34801561070a57600080fd5b50610725600480360381019061072091906141ec565b61193c565b005b34801561073357600080fd5b5061074e60048036038101906107499190614255565b6119cc565b005b34801561075c57600080fd5b5061077760048036038101906107729190613e2e565b611a3c565b6040516107849190613d43565b60405180910390f35b34801561079957600080fd5b506107b460048036038101906107af9190614282565b611b39565b6040516107c19190613d43565b60405180910390f35b3480156107d657600080fd5b506107f160048036038101906107ec9190613e2e565b611b51565b6040516107fe91906142be565b60405180910390f35b34801561081357600080fd5b5061082e60048036038101906108299190613e2e565b611c6e565b60405161083b919061434c565b60405180910390f35b34801561085057600080fd5b5061086b600480360381019061086691906140ba565b611dec565b6040516108789190613d0f565b60405180910390f35b34801561088d57600080fd5b506108a860048036038101906108a391906141ec565b611e57565b005b6108c460048036038101906108bf9190614367565b611ee7565b005b3480156108d257600080fd5b506108ed60048036038101906108e891906141ec565b6129e0565b005b3480156108fb57600080fd5b50610904612a70565b6040516109119190613d43565b60405180910390f35b34801561092657600080fd5b5061092f612a76565b60405161093c91906143db565b60405180910390f35b34801561095157600080fd5b5061095a612a9c565b6040516109679190614051565b60405180910390f35b34801561097c57600080fd5b50610985612aa3565b6040516109929190614405565b60405180910390f35b3480156109a757600080fd5b506109c260048036038101906109bd91906141ec565b612ab9565b005b3480156109d057600080fd5b506109eb60048036038101906109e691906141ec565b612b49565b005b3480156109f957600080fd5b50610a146004803603810190610a0f9190613e2e565b612bd9565b604051610a2191906142be565b60405180910390f35b348015610a3657600080fd5b50610a516004803603810190610a4c91906141ec565b612c19565b005b348015610a5f57600080fd5b50610a68612ca9565b604051610a759190613d0f565b60405180910390f35b348015610a8a57600080fd5b50610aa56004803603810190610aa09190614420565b612d9b565b005b348015610ab357600080fd5b50610abc612f21565b604051610ac99190613d43565b60405180910390f35b348015610ade57600080fd5b50610af96004803603810190610af49190613e2e565b612f2b565b005b348015610b0757600080fd5b50610b226004803603810190610b1d9190613e2e565b612f81565b604051610b329493929190614460565b60405180910390f35b348015610b4757600080fd5b50610b626004803603810190610b5d91906140ba565b612fd1565b005b348015610b7057600080fd5b50610b79612ff2565b005b348015610b8757600080fd5b50610ba26004803603810190610b9d9190614015565b61305b565b005b348015610bb057600080fd5b50610bcb6004803603810190610bc691906141ec565b6130b1565b005b348015610bd957600080fd5b50610bf46004803603810190610bef91906144a5565b613141565b005b348015610c0257600080fd5b50610c1d6004803603810190610c189190613e2e565b6132b8565b604051610c2a9190613d43565b60405180910390f35b348015610c3f57600080fd5b50610c486133b5565b604051610c559190614526565b60405180910390f35b348015610c6a57600080fd5b50610c736133db565b005b60007f7965db0b000000000000000000000000000000000000000000000000000000007bffffffffffffffffffffffffffffffffffffffffffffffffffffffff1916827bffffffffffffffffffffffffffffffffffffffffffffffffffffffff19161480610ce85750610ce782613567565b5b9050919050565b60cf5481565b610d026000801b33611dec565b610d41576040517f08c379a0000000000000000000000000000000000000000000000000000000008152600401610d389061459e565b60405180910390fd5b600060d660006101000a81548160ff021916908315150217905550565b60cc60009054906101000a900473ffffffffffffffffffffffffffffffffffffffff1681565b60008160cd60009054906101000a900473ffffffffffffffffffffffffffffffffffffffff1673ffffffffffffffffffffffffffffffffffffffff1663eacce00a826040518263ffffffff1660e01b8152600401610de29190614051565b602060405180830381865afa158015610dff573d6000803e3d6000fd5b505050506040513d601f19601f82011682018060405250810190610e2391906145ea565b610e62576040517f08c379a0000000000000000000000000000000000000000000000000000000008152600401610e5990614663565b60405180910390fd5b60d1600084815260200190815260200160002060020154915050919050565b60d26020528060005260406000206000915054906101000a900460ff1681565b610ea96135d1565b60005b85859050811015610f0157610ef4868683818110610ecd57610ecc614683565b5b90506020020135858584818110610ee757610ee6614683565b5b9050602002013584611ee7565b8080600101915050610eac565b50610f0a613620565b5050505050565b610f1e6000801b33611dec565b610f5d576040517f08c379a0000000000000000000000000000000000000000000000000000000008152600401610f549061459e565b60405180910390fd5b8060ce8190555050565b600060656000838152602001908152602001600020600101549050919050565b60d760009054906101000a900473ffffffffffffffffffffffffffffffffffffffff1681565b610fb682610f67565b610fbf8161362a565b610fc9838361363e565b505050565b610fd661371f565b73ffffffffffffffffffffffffffffffffffffffff168173ffffffffffffffffffffffffffffffffffffffff1614611043576040517f08c379a000000000000000000000000000000000000000000000000000000000815260040161103a90614724565b60405180910390fd5b61104d8282613727565b5050565b60cb60009054906101000a900473ffffffffffffffffffffffffffffffffffffffff1681565b60ca60009054906101000a900473ffffffffffffffffffffffffffffffffffffffff1681565b600060d16000838152602001908152602001600020600201549050919050565b60008073ffffffffffffffffffffffffffffffffffffffff1660ca60009054906101000a900473ffffffffffffffffffffffffffffffffffffffff1673ffffffffffffffffffffffffffffffffffffffff16141580156111aa575060ca60009054906101000a900473ffffffffffffffffffffffffffffffffffffffff1673ffffffffffffffffffffffffffffffffffffffff1663c909a4096040518163ffffffff1660e01b8152600401602060405180830381865afa158015611185573d6000803e3d6000fd5b505050506040513d601f19601f820116820180604052508101906111a991906145ea565b5b905090565b60d55481565b81600073ffffffffffffffffffffffffffffffffffffffff1660d1600083815260200190815260200160002060010160009054906101000a900473ffffffffffffffffffffffffffffffffffffffff1673ffffffffffffffffffffffffffffffffffffffff160361125b576040517f08c379a000000000000000000000000000000000000000000000000000000000815260040161125290614790565b60405180910390fd5b8260cd60009054906101000a900473ffffffffffffffffffffffffffffffffffffffff1673ffffffffffffffffffffffffffffffffffffffff1663eacce00a826040518263ffffffff1660e01b81526004016112b79190614051565b602060405180830381865afa1580156112d4573d6000803e3d6000fd5b505050506040513d601f19601f820116820180604052508101906112f891906145ea565b611337576040517f08c379a000000000000000000000000000000000000000000000000000000000815260040161132e90614663565b60405180910390fd5b61133f6135d1565b600060d16000868152602001908152602001600020604051806080016040529081600082015481526020016001820160009054906101000a900473ffffffffffffffffffffffffffffffffffffffff1673ffffffffffffffffffffffffffffffffffffffff1673ffffffffffffffffffffffffffffffffffffffff1681526020016002820154815260200160038201548152505090508373ffffffffffffffffffffffffffffffffffffffff16816020015173ffffffffffffffffffffffffffffffffffffffff1614611447576040517f08c379a000000000000000000000000000000000000000000000000000000000815260040161143e906147fc565b60405180910390fd5b600060cd60009054906101000a900473ffffffffffffffffffffffffffffffffffffffff1673ffffffffffffffffffffffffffffffffffffffff16635778472a876040518263ffffffff1660e01b81526004016114a49190614051565b61016060405180830381865afa1580156114c2573d6000803e3d6000fd5b505050506040513d601f19601f820116820180604052508101906114e69190614a0c565b50905060d2600087815260200190815260200160002060009054906101000a900460ff161561154a576040517f08c379a000000000000000000000000000000000000000000000000000000000815260040161154190614a9a565b60405180910390fd5b600160d2600088815260200190815260200160002060006101000a81548160ff02191690831515021790555060008060cc60009054906101000a900473ffffffffffffffffffffffffffffffffffffffff1673ffffffffffffffffffffffffffffffffffffffff1663361444a584602001518a6040518363ffffffff1660e01b81526004016115da929190614ac9565b6040805180830381865afa1580156115f6573d6000803e3d6000fd5b505050506040513d601f19601f8201168201806040525081019061161a9190614af2565b91509150611626612ca9565b156116dd5760c960009054906101000a900473ffffffffffffffffffffffffffffffffffffffff1673ffffffffffffffffffffffffffffffffffffffff16631c28f5ff8460000151856040015186608001518b6040518563ffffffff1660e01b81526004016116989493929190614b32565b6020604051808303816000875af11580156116b7573d6000803e3d6000fd5b505050506040513d601f19601f820116820180604052508101906116db9190614b77565b505b6116e56110bd565b1561179e5760ca60009054906101000a900473ffffffffffffffffffffffffffffffffffffffff1673ffffffffffffffffffffffffffffffffffffffff16632ecfd2d7846000015189866040015187608001518d6040518663ffffffff1660e01b8152600401611759959493929190614ba4565b6020604051808303816000875af1158015611778573d6000803e3d6000fd5b505050506040513d601f19601f8201168201806040525081019061179c9190614b77565b505b600060cf5411156118955760008773ffffffffffffffffffffffffffffffffffffffff1660cf546040516117d190614c28565b60006040518083038185875af1925050503d806000811461180e576040519150601f19603f3d011682016040523d82523d6000602084013e611813565b606091505b5050905080611857576040517f08c379a000000000000000000000000000000000000000000000000000000000815260040161184e90614c89565b60405180910390fd5b887f8587da13dbadf82fefc82aca2ca64e1eb3af5979403ca9265e7059a8488f92b68960cf5460405161188b929190614ca9565b60405180910390a2505b505050506118a1613620565b50505050565b60ce5481565b6118ba6000801b33611dec565b6118f9576040517f08c379a00000000000000000000000000000000000000000000000000000000081526004016118f09061459e565b60405180910390fd5b8060cf8190555050565b60cd60009054906101000a900473ffffffffffffffffffffffffffffffffffffffff1681565b60d660009054906101000a900460ff1681565b6119496000801b33611dec565b611988576040517f08c379a000000000000000000000000000000000000000000000000000000000815260040161197f9061459e565b60405180910390fd5b8060cc60006101000a81548173ffffffffffffffffffffffffffffffffffffffff021916908373ffffffffffffffffffffffffffffffffffffffff16021790555050565b6119d96000801b33611dec565b611a18576040517f08c379a0000000000000000000000000000000000000000000000000000000008152600401611a0f9061459e565b60405180910390fd5b8060d060006101000a81548163ffffffff021916908363ffffffff16021790555050565b60008160cd60009054906101000a900473ffffffffffffffffffffffffffffffffffffffff1673ffffffffffffffffffffffffffffffffffffffff1663eacce00a826040518263ffffffff1660e01b8152600401611a9a9190614051565b602060405180830381865afa158015611ab7573d6000803e3d6000fd5b505050506040513d601f19601f82011682018060405250810190611adb91906145ea565b611b1a576040517f08c379a0000000000000000000000000000000000000000000000000000000008152600401611b1190614663565b60405180910390fd5b60d1600084815260200190815260200160002060000154915050919050565b60d36020528060005260406000206000915090505481565b60008160cd60009054906101000a900473ffffffffffffffffffffffffffffffffffffffff1673ffffffffffffffffffffffffffffffffffffffff1663eacce00a826040518263ffffffff1660e01b8152600401611baf9190614051565b602060405180830381865afa158015611bcc573d6000803e3d6000fd5b505050506040513d601f19601f82011682018060405250810190611bf091906145ea565b611c2f576040517f08c379a0000000000000000000000000000000000000000000000000000000008152600401611c2690614663565b60405180910390fd5b60d1600084815260200190815260200160002060010160009054906101000a900473ffffffffffffffffffffffffffffffffffffffff16915050919050565b611c76613c1d565b8160cd60009054906101000a900473ffffffffffffffffffffffffffffffffffffffff1673ffffffffffffffffffffffffffffffffffffffff1663eacce00a826040518263ffffffff1660e01b8152600401611cd29190614051565b602060405180830381865afa158015611cef573d6000803e3d6000fd5b505050506040513d601f19601f82011682018060405250810190611d1391906145ea565b611d52576040517f08c379a0000000000000000000000000000000000000000000000000000000008152600401611d4990614663565b60405180910390fd5b60d16000848152602001908152602001600020604051806080016040529081600082015481526020016001820160009054906101000a900473ffffffffffffffffffffffffffffffffffffffff1673ffffffffffffffffffffffffffffffffffffffff1673ffffffffffffffffffffffffffffffffffffffff16815260200160028201548152602001600382015481525050915050919050565b60006065600084815260200190815260200160002060000160008373ffffffffffffffffffffffffffffffffffffffff1673ffffffffffffffffffffffffffffffffffffffff16815260200190815260200160002060009054906101000a900460ff16905092915050565b611e646000801b33611dec565b611ea3576040517f08c379a0000000000000000000000000000000000000000000000000000000008152600401611e9a9061459e565b60405180910390fd5b8060d660016101000a81548173ffffffffffffffffffffffffffffffffffffffff021916908373ffffffffffffffffffffffffffffffffffffffff16021790555050565b8260cd60009054906101000a900473ffffffffffffffffffffffffffffffffffffffff1673ffffffffffffffffffffffffffffffffffffffff1663eacce00a826040518263ffffffff1660e01b8152600401611f439190614051565b602060405180830381865afa158015611f60573d6000803e3d6000fd5b505050506040513d601f19601f82011682018060405250810190611f8491906145ea565b611fc3576040517f08c379a0000000000000000000000000000000000000000000000000000000008152600401611fba90614663565b60405180910390fd5b611fcb6135d1565b600060d16000868152602001908152602001600020604051806080016040529081600082015481526020016001820160009054906101000a900473ffffffffffffffffffffffffffffffffffffffff1673ffffffffffffffffffffffffffffffffffffffff1673ffffffffffffffffffffffffffffffffffffffff168152602001600282015481526020016003820154815250509050600080600060cd60009054906101000a900473ffffffffffffffffffffffffffffffffffffffff1673ffffffffffffffffffffffffffffffffffffffff16632e8ecace896040518263ffffffff1660e01b81526004016120c19190614051565b61018060405180830381865afa1580156120df573d6000803e3d6000fd5b505050506040513d601f19601f820116820180604052508101906121039190614cd2565b92509250925060cd60009054906101000a900473ffffffffffffffffffffffffffffffffffffffff1673ffffffffffffffffffffffffffffffffffffffff1663f7d7fc87896040518263ffffffff1660e01b81526004016121649190614051565b602060405180830381865afa158015612181573d6000803e3d6000fd5b505050506040513d601f19601f820116820180604052508101906121a591906145ea565b6121e4576040517f08c379a00000000000000000000000000000000000000000000000000000000081526004016121db90614d74565b60405180910390fd5b60008711612227576040517f08c379a000000000000000000000000000000000000000000000000000000000815260040161221e90614de0565b60405180910390fd5b8260c0015187111561226e576040517f08c379a000000000000000000000000000000000000000000000000000000000815260040161226590614e4c565b60405180910390fd5b6000846040015111156126b85760d660009054906101000a900460ff166122ca576040517f08c379a00000000000000000000000000000000000000000000000000000000081526004016122c190614eb8565b60405180910390fd5b86846040015111612310576040517f08c379a000000000000000000000000000000000000000000000000000000000815260040161230790614f24565b60405180910390fd5b60ce548460000151426123239190614f73565b1115612364576040517f08c379a000000000000000000000000000000000000000000000000000000000815260040161235b90614ff3565b60405180910390fd5b6000620f424060d454866040015161237c9190615013565b6123869190615084565b9050808886604001516123999190614f73565b10156123da576040517f08c379a00000000000000000000000000000000000000000000000000000000081526004016123d190615101565b60405180910390fd5b8660d160008b815260200190815260200160002060010160006101000a81548173ffffffffffffffffffffffffffffffffffffffff021916908373ffffffffffffffffffffffffffffffffffffffff1602179055508760d160008b8152602001908152602001600020600201819055504260d160008b815260200190815260200160002060030181905550600060cf5411156125115760cf5434146124b4576040517f08c379a00000000000000000000000000000000000000000000000000000000081526004016124ab9061516d565b60405180910390fd5b60cf5460d36000876020015173ffffffffffffffffffffffffffffffffffffffff1673ffffffffffffffffffffffffffffffffffffffff1681526020019081526020016000206000828254612509919061518d565b925050819055505b600073ffffffffffffffffffffffffffffffffffffffff1660d660019054906101000a900473ffffffffffffffffffffffffffffffffffffffff1673ffffffffffffffffffffffffffffffffffffffff16146125f75760d660019054906101000a900473ffffffffffffffffffffffffffffffffffffffff1673ffffffffffffffffffffffffffffffffffffffff1663a81bde4e8a896040518363ffffffff1660e01b81526004016125c49291906151c1565b600060405180830381600087803b1580156125de57600080fd5b505af11580156125f2573d6000803e3d6000fd5b505050505b846020015173ffffffffffffffffffffffffffffffffffffffff1684602001517bffffffffffffffffffffffffffffffffffffffffffffffffffffffff19168a7fe55a13ed7d45823b999d76aa0f958bc0a9bd828e75cce3cce04198aee288fa7a88604001518c60cf54604051612670939291906151ea565b60405180910390a4887f104ad6d95c38f90069821e1c161efc87a7d511235fbb3e1a9b06c38d87a79578888a6040516126aa929190614ca9565b60405180910390a2506129ce565b60cf5434146126fc576040517f08c379a00000000000000000000000000000000000000000000000000000000081526004016126f39061526d565b60405180910390fd5b60d660009054906101000a900460ff16612757578260c001518714612756576040517f08c379a000000000000000000000000000000000000000000000000000000000815260040161274d906152d9565b60405180910390fd5b5b60405180608001604052804281526020018773ffffffffffffffffffffffffffffffffffffffff1681526020018881526020014281525060d160008a81526020019081526020016000206000820151816000015560208201518160010160006101000a81548173ffffffffffffffffffffffffffffffffffffffff021916908373ffffffffffffffffffffffffffffffffffffffff16021790555060408201518160020155606082015181600301559050506128116110bd565b156128cf5760ca60009054906101000a900473ffffffffffffffffffffffffffffffffffffffff1673ffffffffffffffffffffffffffffffffffffffff16639edae5ca8460000151856101000151866040015187608001518d6040518663ffffffff1660e01b815260040161288a959493929190614ba4565b6020604051808303816000875af11580156128a9573d6000803e3d6000fd5b505050506040513d601f19601f820116820180604052508101906128cd91906145ea565b505b6128d7612ca9565b156129935760c960009054906101000a900473ffffffffffffffffffffffffffffffffffffffff1673ffffffffffffffffffffffffffffffffffffffff16637c227ec18460200151856040015186608001518761010001516040518563ffffffff1660e01b815260040161294e9493929190614b32565b6020604051808303816000875af115801561296d573d6000803e3d6000fd5b505050506040513d601f19601f8201168201806040525081019061299191906145ea565b505b877f104ad6d95c38f90069821e1c161efc87a7d511235fbb3e1a9b06c38d87a7957887896040516129c5929190614ca9565b60405180910390a25b505050506129da613620565b50505050565b6129ed6000801b33611dec565b612a2c576040517f08c379a0000000000000000000000000000000000000000000000000000000008152600401612a239061459e565b60405180910390fd5b8060cb60006101000a81548173ffffffffffffffffffffffffffffffffffffffff021916908373ffffffffffffffffffffffffffffffffffffffff16021790555050565b60d45481565b60c960009054906101000a900473ffffffffffffffffffffffffffffffffffffffff1681565b6000801b81565b60d060009054906101000a900463ffffffff1681565b612ac66000801b33611dec565b612b05576040517f08c379a0000000000000000000000000000000000000000000000000000000008152600401612afc9061459e565b60405180910390fd5b8060ca60006101000a81548173ffffffffffffffffffffffffffffffffffffffff021916908373ffffffffffffffffffffffffffffffffffffffff16021790555050565b612b566000801b33611dec565b612b95576040517f08c379a0000000000000000000000000000000000000000000000000000000008152600401612b8c9061459e565b60405180910390fd5b8060c960006101000a81548173ffffffffffffffffffffffffffffffffffffffff021916908373ffffffffffffffffffffffffffffffffffffffff16021790555050565b600060d1600083815260200190815260200160002060010160009054906101000a900473ffffffffffffffffffffffffffffffffffffffff169050919050565b612c266000801b33611dec565b612c65576040517f08c379a0000000000000000000000000000000000000000000000000000000008152600401612c5c9061459e565b60405180910390fd5b8060d760006101000a81548173ffffffffffffffffffffffffffffffffffffffff021916908373ffffffffffffffffffffffffffffffffffffffff16021790555050565b60008073ffffffffffffffffffffffffffffffffffffffff1660c960009054906101000a900473ffffffffffffffffffffffffffffffffffffffff1673ffffffffffffffffffffffffffffffffffffffff1614158015612d96575060c960009054906101000a900473ffffffffffffffffffffffffffffffffffffffff1673ffffffffffffffffffffffffffffffffffffffff16631311f4c26040518163ffffffff1660e01b8152600401602060405180830381865afa158015612d71573d6000803e3d6000fd5b505050506040513d601f19601f82011682018060405250810190612d9591906145ea565b5b905090565b60008060019054906101000a900460ff16159050808015612dcc5750600160008054906101000a900460ff1660ff16105b80612df95750612ddb30613809565b158015612df85750600160008054906101000a900460ff1660ff16145b5b612e38576040517f08c379a0000000000000000000000000000000000000000000000000000000008152600401612e2f9061536b565b60405180910390fd5b60016000806101000a81548160ff021916908360ff1602179055508015612e75576001600060016101000a81548160ff0219169083151502179055505b612e7d61382c565b612e8a6000801b8461363e565b600060cf81905550600060ce819055508160d060006101000a81548163ffffffff021916908363ffffffff160217905550612ec361387d565b8015612f1c5760008060016101000a81548160ff0219169083151502179055507f7f26b83ff96e1f2b6a682f133852f6798a09c465da95921460cefb38474024986001604051612f1391906153d3565b60405180910390a15b505050565b600060cf54905090565b612f386000801b33611dec565b612f77576040517f08c379a0000000000000000000000000000000000000000000000000000000008152600401612f6e9061459e565b60405180910390fd5b8060d58190555050565b60d16020528060005260406000206000915090508060000154908060010160009054906101000a900473ffffffffffffffffffffffffffffffffffffffff16908060020154908060030154905084565b612fda82610f67565b612fe38161362a565b612fed8383613727565b505050565b612fff6000801b33611dec565b61303e576040517f08c379a00000000000000000000000000000000000000000000000000000000081526004016130359061459e565b60405180910390fd5b600160d660006101000a81548160ff021916908315150217905550565b6130686000801b33611dec565b6130a7576040517f08c379a000000000000000000000000000000000000000000000000000000000815260040161309e9061459e565b60405180910390fd5b8060d48190555050565b6130be6000801b33611dec565b6130fd576040517f08c379a00000000000000000000000000000000000000000000000000000000081526004016130f49061459e565b60405180910390fd5b8060cd60006101000a81548173ffffffffffffffffffffffffffffffffffffffff021916908373ffffffffffffffffffffffffffffffffffffffff16021790555050565b60005b838390508110156132b257600060d1600086868581811061316857613167614683565b5b905060200201358152602001908152602001600020604051806080016040529081600082015481526020016001820160009054906101000a900473ffffffffffffffffffffffffffffffffffffffff1673ffffffffffffffffffffffffffffffffffffffff1673ffffffffffffffffffffffffffffffffffffffff1681526020016002820154815260200160038201548152505090508273ffffffffffffffffffffffffffffffffffffffff16816020015173ffffffffffffffffffffffffffffffffffffffff161461323b57506132a5565b60d2600086868581811061325257613251614683565b5b90506020020135815260200190815260200160002060009054906101000a900460ff161561328057506132a5565b6132a385858481811061329657613295614683565b5b90506020020135846111b5565b505b8080600101915050613144565b50505050565b60008160cd60009054906101000a900473ffffffffffffffffffffffffffffffffffffffff1673ffffffffffffffffffffffffffffffffffffffff1663eacce00a826040518263ffffffff1660e01b81526004016133169190614051565b602060405180830381865afa158015613333573d6000803e3d6000fd5b505050506040513d601f19601f8201168201806040525081019061335791906145ea565b613396576040517f08c379a000000000000000000000000000000000000000000000000000000000815260040161338d90614663565b60405180910390fd5b60d1600084815260200190815260200160002060030154915050919050565b60d660019054906101000a900473ffffffffffffffffffffffffffffffffffffffff1681565b6133e36135d1565b600060d360003373ffffffffffffffffffffffffffffffffffffffff1673ffffffffffffffffffffffffffffffffffffffff1681526020019081526020016000205490506000811161346a576040517f08c379a00000000000000000000000000000000000000000000000000000000081526004016134619061543a565b60405180910390fd5b600060d360003373ffffffffffffffffffffffffffffffffffffffff1673ffffffffffffffffffffffffffffffffffffffff1681526020019081526020016000208190555060003373ffffffffffffffffffffffffffffffffffffffff16826040516134d590614c28565b60006040518083038185875af1925050503d8060008114613512576040519150601f19603f3d011682016040523d82523d6000602084013e613517565b606091505b505090508061355b576040517f08c379a0000000000000000000000000000000000000000000000000000000008152600401613552906154a6565b60405180910390fd5b5050613565613620565b565b60007f01ffc9a7000000000000000000000000000000000000000000000000000000007bffffffffffffffffffffffffffffffffffffffffffffffffffffffff1916827bffffffffffffffffffffffffffffffffffffffffffffffffffffffff1916149050919050565b600260975403613616576040517f08c379a000000000000000000000000000000000000000000000000000000000815260040161360d90615512565b60405180910390fd5b6002609781905550565b6001609781905550565b61363b8161363661371f565b6138d6565b50565b6136488282611dec565b61371b5760016065600084815260200190815260200160002060000160008373ffffffffffffffffffffffffffffffffffffffff1673ffffffffffffffffffffffffffffffffffffffff16815260200190815260200160002060006101000a81548160ff0219169083151502179055506136c061371f565b73ffffffffffffffffffffffffffffffffffffffff168173ffffffffffffffffffffffffffffffffffffffff16837f2f8788117e7eff1d82e926ec794901d17c78024a50270940304540a733656f0d60405160405180910390a45b5050565b600033905090565b6137318282611dec565b156138055760006065600084815260200190815260200160002060000160008373ffffffffffffffffffffffffffffffffffffffff1673ffffffffffffffffffffffffffffffffffffffff16815260200190815260200160002060006101000a81548160ff0219169083151502179055506137aa61371f565b73ffffffffffffffffffffffffffffffffffffffff168173ffffffffffffffffffffffffffffffffffffffff16837ff6391f5c32d9c69d2a47ea670b442974b53935d1edc7fd64eb21e047a839171b60405160405180910390a45b5050565b6000808273ffffffffffffffffffffffffffffffffffffffff163b119050919050565b600060019054906101000a900460ff1661387b576040517f08c379a0000000000000000000000000000000000000000000000000000000008152600401613872906155a4565b60405180910390fd5b565b600060019054906101000a900460ff166138cc576040517f08c379a00000000000000000000000000000000000000000000000000000000081526004016138c3906155a4565b60405180910390fd5b6138d461395b565b565b6138e08282611dec565b613957576138ed816139b4565b6138fb8360001c60206139e1565b60405160200161390c9291906156cd565b6040516020818303038152906040526040517f08c379a000000000000000000000000000000000000000000000000000000000815260040161394e9190615740565b60405180910390fd5b5050565b600060019054906101000a900460ff166139aa576040517f08c379a00000000000000000000000000000000000000000000000000000000081526004016139a1906155a4565b60405180910390fd5b6001609781905550565b60606139da8273ffffffffffffffffffffffffffffffffffffffff16601460ff166139e1565b9050919050565b6060600060028360026139f49190615013565b6139fe919061518d565b67ffffffffffffffff811115613a1757613a16614832565b5b6040519080825280601f01601f191660200182016040528015613a495781602001600182028036833780820191505090505b5090507f300000000000000000000000000000000000000000000000000000000000000081600081518110613a8157613a80614683565b5b60200101907effffffffffffffffffffffffffffffffffffffffffffffffffffffffffffff1916908160001a9053507f780000000000000000000000000000000000000000000000000000000000000081600181518110613ae557613ae4614683565b5b60200101907effffffffffffffffffffffffffffffffffffffffffffffffffffffffffffff1916908160001a90535060006001846002613b259190615013565b613b2f919061518d565b90505b6001811115613bcf577f3031323334353637383961626364656600000000000000000000000000000000600f861660108110613b7157613b70614683565b5b1a60f81b828281518110613b8857613b87614683565b5b60200101907effffffffffffffffffffffffffffffffffffffffffffffffffffffffffffff1916908160001a905350600485901c945080613bc890615762565b9050613b32565b5060008414613c13576040517f08c379a0000000000000000000000000000000000000000000000000000000008152600401613c0a906157d7565b60405180910390fd5b8091505092915050565b604051806080016040528060008152602001600073ffffffffffffffffffffffffffffffffffffffff16815260200160008152602001600081525090565b6000604051905090565b600080fd5b600080fd5b60007fffffffff0000000000000000000000000000000000000000000000000000000082169050919050565b613ca481613c6f565b8114613caf57600080fd5b50565b600081359050613cc181613c9b565b92915050565b600060208284031215613cdd57613cdc613c65565b5b6000613ceb84828501613cb2565b91505092915050565b60008115159050919050565b613d0981613cf4565b82525050565b6000602082019050613d246000830184613d00565b92915050565b6000819050919050565b613d3d81613d2a565b82525050565b6000602082019050613d586000830184613d34565b92915050565b600073ffffffffffffffffffffffffffffffffffffffff82169050919050565b6000819050919050565b6000613da3613d9e613d9984613d5e565b613d7e565b613d5e565b9050919050565b6000613db582613d88565b9050919050565b6000613dc782613daa565b9050919050565b613dd781613dbc565b82525050565b6000602082019050613df26000830184613dce565b92915050565b6000819050919050565b613e0b81613df8565b8114613e1657600080fd5b50565b600081359050613e2881613e02565b92915050565b600060208284031215613e4457613e43613c65565b5b6000613e5284828501613e19565b91505092915050565b600080fd5b600080fd5b600080fd5b60008083601f840112613e8057613e7f613e5b565b5b8235905067ffffffffffffffff811115613e9d57613e9c613e60565b5b602083019150836020820283011115613eb957613eb8613e65565b5b9250929050565b60008083601f840112613ed657613ed5613e5b565b5b8235905067ffffffffffffffff811115613ef357613ef2613e60565b5b602083019150836020820283011115613f0f57613f0e613e65565b5b9250929050565b6000613f2182613d5e565b9050919050565b613f3181613f16565b8114613f3c57600080fd5b50565b600081359050613f4e81613f28565b92915050565b600080600080600060608688031215613f7057613f6f613c65565b5b600086013567ffffffffffffffff811115613f8e57613f8d613c6a565b5b613f9a88828901613e6a565b9550955050602086013567ffffffffffffffff811115613fbd57613fbc613c6a565b5b613fc988828901613ec0565b93509350506040613fdc88828901613f3f565b9150509295509295909350565b613ff281613d2a565b8114613ffd57600080fd5b50565b60008135905061400f81613fe9565b92915050565b60006020828403121561402b5761402a613c65565b5b600061403984828501614000565b91505092915050565b61404b81613df8565b82525050565b60006020820190506140666000830184614042565b92915050565b600061407782613d88565b9050919050565b60006140898261406c565b9050919050565b6140998161407e565b82525050565b60006020820190506140b46000830184614090565b92915050565b600080604083850312156140d1576140d0613c65565b5b60006140df85828601613e19565b92505060206140f085828601613f3f565b9150509250929050565b600061410582613daa565b9050919050565b614115816140fa565b82525050565b6000602082019050614130600083018461410c565b92915050565b600061414182613daa565b9050919050565b61415181614136565b82525050565b600060208201905061416c6000830184614148565b92915050565b600061417d8261406c565b9050919050565b61418d81614172565b82525050565b60006020820190506141a86000830184614184565b92915050565b60006141b982613d5e565b9050919050565b6141c9816141ae565b81146141d457600080fd5b50565b6000813590506141e6816141c0565b92915050565b60006020828403121561420257614201613c65565b5b6000614210848285016141d7565b91505092915050565b600063ffffffff82169050919050565b61423281614219565b811461423d57600080fd5b50565b60008135905061424f81614229565b92915050565b60006020828403121561426b5761426a613c65565b5b600061427984828501614240565b91505092915050565b60006020828403121561429857614297613c65565b5b60006142a684828501613f3f565b91505092915050565b6142b881613f16565b82525050565b60006020820190506142d360008301846142af565b92915050565b6142e281613d2a565b82525050565b6142f181613f16565b82525050565b60808201600082015161430d60008501826142d9565b50602082015161432060208501826142e8565b50604082015161433360408501826142d9565b50606082015161434660608501826142d9565b50505050565b600060808201905061436160008301846142f7565b92915050565b6000806000606084860312156143805761437f613c65565b5b600061438e86828701613e19565b935050602061439f86828701614000565b92505060406143b086828701613f3f565b9150509250925092565b60006143c582613daa565b9050919050565b6143d5816143ba565b82525050565b60006020820190506143f060008301846143cc565b92915050565b6143ff81614219565b82525050565b600060208201905061441a60008301846143f6565b92915050565b6000806040838503121561443757614436613c65565b5b600061444585828601613f3f565b925050602061445685828601614240565b9150509250929050565b60006080820190506144756000830187613d34565b61448260208301866142af565b61448f6040830185613d34565b61449c6060830184613d34565b95945050505050565b6000806000604084860312156144be576144bd613c65565b5b600084013567ffffffffffffffff8111156144dc576144db613c6a565b5b6144e886828701613e6a565b935093505060206144fb86828701613f3f565b9150509250925092565b60006145108261406c565b9050919050565b61452081614505565b82525050565b600060208201905061453b6000830184614517565b92915050565b600082825260208201905092915050565b7f4244233000000000000000000000000000000000000000000000000000000000600082015250565b6000614588600483614541565b915061459382614552565b602082019050919050565b600060208201905081810360008301526145b78161457b565b9050919050565b6145c781613cf4565b81146145d257600080fd5b50565b6000815190506145e4816145be565b92915050565b600060208284031215614600576145ff613c65565b5b600061460e848285016145d5565b91505092915050565b7f4244233300000000000000000000000000000000000000000000000000000000600082015250565b600061464d600483614541565b915061465882614617565b602082019050919050565b6000602082019050818103600083015261467c81614640565b9050919050565b7f4e487b7100000000000000000000000000000000000000000000000000000000600052603260045260246000fd5b7f416363657373436f6e74726f6c3a2063616e206f6e6c792072656e6f756e636560008201527f20726f6c657320666f722073656c660000000000000000000000000000000000602082015250565b600061470e602f83614541565b9150614719826146b2565b604082019050919050565b6000602082019050818103600083015261473d81614701565b9050919050565b7f4244233400000000000000000000000000000000000000000000000000000000600082015250565b600061477a600483614541565b915061478582614744565b602082019050919050565b600060208201905081810360008301526147a98161476d565b9050919050565b7f4244233134000000000000000000000000000000000000000000000000000000600082015250565b60006147e6600583614541565b91506147f1826147b0565b602082019050919050565b60006020820190508181036000830152614815816147d9565b9050919050565b600080fd5b6000601f19601f8301169050919050565b7f4e487b7100000000000000000000000000000000000000000000000000000000600052604160045260246000fd5b61486a82614821565b810181811067ffffffffffffffff8211171561488957614888614832565b5b80604052505050565b600061489c613c5b565b90506148a88282614861565b919050565b6000815190506148bc81613c9b565b92915050565b6000815190506148d181614229565b92915050565b6000815190506148e681613e02565b92915050565b6000815190506148fb81613fe9565b92915050565b60008151905061491081613f28565b92915050565b6000610140828403121561492d5761492c61481c565b5b614938610140614892565b90506000614948848285016148ad565b600083015250602061495c848285016148ad565b6020830152506040614970848285016148c2565b6040830152506060614984848285016148d7565b6060830152506080614998848285016148ec565b60808301525060a06149ac84828501614901565b60a08301525060c06149c0848285016148ec565b60c08301525060e06149d4848285016148c2565b60e0830152506101006149e984828501614901565b610100830152506101206149ff848285016148ec565b6101208301525092915050565b6000806101608385031215614a2457614a23613c65565b5b6000614a3285828601614916565b925050610140614a44858286016148d7565b9150509250929050565b7f4244233135000000000000000000000000000000000000000000000000000000600082015250565b6000614a84600583614541565b9150614a8f82614a4e565b602082019050919050565b60006020820190508181036000830152614ab381614a77565b9050919050565b614ac381613c6f565b82525050565b6000604082019050614ade6000830185614aba565b614aeb6020830184614042565b9392505050565b60008060408385031215614b0957614b08613c65565b5b6000614b17858286016145d5565b9250506020614b28858286016145d5565b9150509250929050565b6000608082019050614b476000830187614aba565b614b5460208301866143f6565b614b616040830185613d34565b614b6e60608301846142af565b95945050505050565b600060208284031215614b8d57614b8c613c65565b5b6000614b9b848285016148ec565b91505092915050565b600060a082019050614bb96000830188614aba565b614bc660208301876142af565b614bd360408301866143f6565b614be06060830185613d34565b614bed6080830184614042565b9695505050505050565b600081905092915050565b50565b6000614c12600083614bf7565b9150614c1d82614c02565b600082019050919050565b6000614c3382614c05565b9150819050919050565b7f4244233137000000000000000000000000000000000000000000000000000000600082015250565b6000614c73600583614541565b9150614c7e82614c3d565b602082019050919050565b60006020820190508181036000830152614ca281614c66565b9050919050565b6000604082019050614cbe60008301856142af565b614ccb6020830184613d34565b9392505050565b60008060006101808486031215614cec57614ceb613c65565b5b6000614cfa86828701614916565b935050610140614d0c868287016148d7565b925050610160614d1e868287016148ec565b9150509250925092565b7f4244233500000000000000000000000000000000000000000000000000000000600082015250565b6000614d5e600483614541565b9150614d6982614d28565b602082019050919050565b60006020820190508181036000830152614d8d81614d51565b9050919050565b7f4244233600000000000000000000000000000000000000000000000000000000600082015250565b6000614dca600483614541565b9150614dd582614d94565b602082019050919050565b60006020820190508181036000830152614df981614dbd565b9050919050565b7f4244233700000000000000000000000000000000000000000000000000000000600082015250565b6000614e36600483614541565b9150614e4182614e00565b602082019050919050565b60006020820190508181036000830152614e6581614e29565b9050919050565b7f4244233800000000000000000000000000000000000000000000000000000000600082015250565b6000614ea2600483614541565b9150614ead82614e6c565b602082019050919050565b60006020820190508181036000830152614ed181614e95565b9050919050565b7f4244390000000000000000000000000000000000000000000000000000000000600082015250565b6000614f0e600383614541565b9150614f1982614ed8565b602082019050919050565b60006020820190508181036000830152614f3d81614f01565b9050919050565b7f4e487b7100000000000000000000000000000000000000000000000000000000600052601160045260246000fd5b6000614f7e82613d2a565b9150614f8983613d2a565b9250828203905081811115614fa157614fa0614f44565b5b92915050565b7f4244233130000000000000000000000000000000000000000000000000000000600082015250565b6000614fdd600583614541565b9150614fe882614fa7565b602082019050919050565b6000602082019050818103600083015261500c81614fd0565b9050919050565b600061501e82613d2a565b915061502983613d2a565b925082820261503781613d2a565b9150828204841483151761504e5761504d614f44565b5b5092915050565b7f4e487b7100000000000000000000000000000000000000000000000000000000600052601260045260246000fd5b600061508f82613d2a565b915061509a83613d2a565b9250826150aa576150a9615055565b5b828204905092915050565b7f4244233138000000000000000000000000000000000000000000000000000000600082015250565b60006150eb600583614541565b91506150f6826150b5565b602082019050919050565b6000602082019050818103600083015261511a816150de565b9050919050565b7f4244233131000000000000000000000000000000000000000000000000000000600082015250565b6000615157600583614541565b915061516282615121565b602082019050919050565b600060208201905081810360008301526151868161514a565b9050919050565b600061519882613d2a565b91506151a383613d2a565b92508282019050808211156151bb576151ba614f44565b5b92915050565b60006040820190506151d66000830185614042565b6151e360208301846142af565b9392505050565b60006060820190506151ff6000830186613d34565b61520c6020830185613d34565b6152196040830184613d34565b949350505050565b7f4244233132000000000000000000000000000000000000000000000000000000600082015250565b6000615257600583614541565b915061526282615221565b602082019050919050565b600060208201905081810360008301526152868161524a565b9050919050565b7f4244233133000000000000000000000000000000000000000000000000000000600082015250565b60006152c3600583614541565b91506152ce8261528d565b602082019050919050565b600060208201905081810360008301526152f2816152b6565b9050919050565b7f496e697469616c697a61626c653a20636f6e747261637420697320616c72656160008201527f647920696e697469616c697a6564000000000000000000000000000000000000602082015250565b6000615355602e83614541565b9150615360826152f9565b604082019050919050565b6000602082019050818103600083015261538481615348565b9050919050565b6000819050919050565b600060ff82169050919050565b60006153bd6153b86153b38461538b565b613d7e565b615395565b9050919050565b6153cd816153a2565b82525050565b60006020820190506153e860008301846153c4565b92915050565b7f4e6f20696e737572616e636520746f20636c61696d0000000000000000000000600082015250565b6000615424601583614541565b915061542f826153ee565b602082019050919050565b6000602082019050818103600083015261545381615417565b9050919050565b7f5472616e73666572206661696c65640000000000000000000000000000000000600082015250565b6000615490600f83614541565b915061549b8261545a565b602082019050919050565b600060208201905081810360008301526154bf81615483565b9050919050565b7f5265656e7472616e637947756172643a207265656e7472616e742063616c6c00600082015250565b60006154fc601f83614541565b9150615507826154c6565b602082019050919050565b6000602082019050818103600083015261552b816154ef565b9050919050565b7f496e697469616c697a61626c653a20636f6e7472616374206973206e6f74206960008201527f6e697469616c697a696e67000000000000000000000000000000000000000000602082015250565b600061558e602b83614541565b915061559982615532565b604082019050919050565b600060208201905081810360008301526155bd81615581565b9050919050565b600081905092915050565b7f416363657373436f6e74726f6c3a206163636f756e7420000000000000000000600082015250565b60006156056017836155c4565b9150615610826155cf565b601782019050919050565b600081519050919050565b60005b83811015615644578082015181840152602081019050615629565b60008484015250505050565b600061565b8261561b565b61566581856155c4565b9350615675818560208601615626565b80840191505092915050565b7f206973206d697373696e6720726f6c6520000000000000000000000000000000600082015250565b60006156b76011836155c4565b91506156c282615681565b601182019050919050565b60006156d8826155f8565b91506156e48285615650565b91506156ef826156aa565b91506156fb8284615650565b91508190509392505050565b60006157128261561b565b61571c8185614541565b935061572c818560208601615626565b61573581614821565b840191505092915050565b6000602082019050818103600083015261575a8184615707565b905092915050565b600061576d82613d2a565b9150600082036157805761577f614f44565b5b600182039050919050565b7f537472696e67733a20686578206c656e67746820696e73756666696369656e74600082015250565b60006157c1602083614541565b91506157cc8261578b565b602082019050919050565b600060208201905081810360008301526157f0816157b4565b905091905056fea2646970667358221220c778a59dc081c741d9c99082b3591d783ad158105e40dbe99383f5e1f23dc76c64736f6c63430008180033",
  "linkReferences": {},
  "deployedLinkReferences": {}
}