{
  "_format": "hh-sol-artifact-1",
  "contractName": "TRNInflationRewards",
  "sourceName": "contracts/TRNInflationRewards.sol",
  "abi": [
    {
      "inputs": [],
      "stateMutability": "nonpayable",
      "type": "constructor"
    },
    {
      "anonymous": false,
      "inputs": [
        {
          "indexed": true,
          "internalType": "address",
          "name": "to",
          "type": "address"
        },
        {
          "indexed": false,
          "internalType": "uint256",
          "name": "amount",
          "type": "uint256"
        },
        {
          "indexed": false,
          "internalType": "bool",
          "name": "success",
          "type": "bool"
        },
        {
          "indexed": false,
          "internalType": "string",
          "name": "reason",
          "type": "string"
        }
      ],
      "name": "DistributionAttempt",
      "type": "event"
    },
    {
      "anonymous": false,
      "inputs": [
        {
          "indexed": false,
          "internalType": "uint8",
          "name": "version",
          "type": "uint8"
        }
      ],
      "name": "Initialized",
      "type": "event"
    },
    {
      "anonymous": false,
      "inputs": [
        {
          "indexed": true,
          "internalType": "bytes32",
          "name": "role",
          "type": "bytes32"
        },
        {
          "indexed": true,
          "internalType": "bytes32",
          "name": "previousAdminRole",
          "type": "bytes32"
        },
        {
          "indexed": true,
          "internalType": "bytes32",
          "name": "newAdminRole",
          "type": "bytes32"
        }
      ],
      "name": "RoleAdminChanged",
      "type": "event"
    },
    {
      "anonymous": false,
      "inputs": [
        {
          "indexed": true,
          "internalType": "bytes32",
          "name": "role",
          "type": "bytes32"
        },
        {
          "indexed": true,
          "internalType": "address",
          "name": "account",
          "type": "address"
        },
        {
          "indexed": true,
          "internalType": "address",
          "name": "sender",
          "type": "address"
        }
      ],
      "name": "RoleGranted",
      "type": "event"
    },
    {
      "anonymous": false,
      "inputs": [
        {
          "indexed": true,
          "internalType": "bytes32",
          "name": "role",
          "type": "bytes32"
        },
        {
          "indexed": true,
          "internalType": "address",
          "name": "account",
          "type": "address"
        },
        {
          "indexed": true,
          "internalType": "address",
          "name": "sender",
          "type": "address"
        }
      ],
      "name": "RoleRevoked",
      "type": "event"
    },
    {
      "anonymous": false,
      "inputs": [
        {
          "indexed": true,
          "internalType": "uint256",
          "name": "timestamp",
          "type": "uint256"
        }
      ],
      "name": "WeeklyCountersReset",
      "type": "event"
    },
    {
      "stateMutability": "payable",
      "type": "fallback"
    },
    {
      "inputs": [],
      "name": "DEFAULT_ADMIN_ROLE",
      "outputs": [
        {
          "internalType": "bytes32",
          "name": "",
          "type": "bytes32"
        }
      ],
      "stateMutability": "view",
      "type": "function"
    },
    {
      "inputs": [],
      "name": "ONE",
      "outputs": [
        {
          "internalType": "uint256",
          "name": "",
          "type": "uint256"
        }
      ],
      "stateMutability": "view",
      "type": "function"
    },
    {
      "inputs": [],
      "name": "_TRNInflation",
      "outputs": [
        {
          "internalType": "contract TRNInflation",
          "name": "",
          "type": "address"
        }
      ],
      "stateMutability": "view",
      "type": "function"
    },
    {
      "inputs": [],
      "name": "biddingBook",
      "outputs": [
        {
          "internalType": "address",
          "name": "",
          "type": "address"
        }
      ],
      "stateMutability": "view",
      "type": "function"
    },
    {
      "inputs": [
        {
          "internalType": "uint32",
          "name": "assetId",
          "type": "uint32"
        },
        {
          "internalType": "uint256",
          "name": "amount",
          "type": "uint256"
        }
      ],
      "name": "calculateAssetAmountToPoints",
      "outputs": [
        {
          "internalType": "uint256",
          "name": "",
          "type": "uint256"
        }
      ],
      "stateMutability": "view",
      "type": "function"
    },
    {
      "inputs": [
        {
          "internalType": "bytes4",
          "name": "network",
          "type": "bytes4"
        },
        {
          "internalType": "uint32",
          "name": "assetId",
          "type": "uint32"
        },
        {
          "internalType": "uint256",
          "name": "amount",
          "type": "uint256"
        }
      ],
      "name": "calculateReward",
      "outputs": [
        {
          "internalType": "uint256",
          "name": "",
          "type": "uint256"
        }
      ],
      "stateMutability": "view",
      "type": "function"
    },
    {
      "inputs": [],
      "name": "checkIsInflationOn",
      "outputs": [
        {
          "internalType": "bool",
          "name": "",
          "type": "bool"
        }
      ],
      "stateMutability": "view",
      "type": "function"
    },
    {
      "inputs": [],
      "name": "checkIsRewardsDistributionOn",
      "outputs": [
        {
          "internalType": "bool",
          "name": "",
          "type": "bool"
        }
      ],
      "stateMutability": "view",
      "type": "function"
    },
    {
      "inputs": [
        {
          "internalType": "bytes4",
          "name": "network",
          "type": "bytes4"
        },
        {
          "internalType": "address",
          "name": "_attesterAddress",
          "type": "address"
        }
      ],
      "name": "distributeFixedAmountToFirstWeeklyAttestors",
      "outputs": [
        {
          "internalType": "bool",
          "name": "",
          "type": "bool"
        }
      ],
      "stateMutability": "nonpayable",
      "type": "function"
    },
    {
      "inputs": [
        {
          "internalType": "bytes4",
          "name": "network",
          "type": "bytes4"
        },
        {
          "internalType": "uint32",
          "name": "_assetId",
          "type": "uint32"
        },
        {
          "internalType": "uint256",
          "name": "_amount",
          "type": "uint256"
        },
        {
          "internalType": "address",
          "name": "_executorAddress",
          "type": "address"
        }
      ],
      "name": "distributeRewardAmountToFirstWeeklyExecutors",
      "outputs": [
        {
          "internalType": "uint256",
          "name": "",
          "type": "uint256"
        }
      ],
      "stateMutability": "nonpayable",
      "type": "function"
    },
    {
      "inputs": [
        {
          "internalType": "bytes4",
          "name": "network",
          "type": "bytes4"
        },
        {
          "internalType": "uint32",
          "name": "_assetId",
          "type": "uint32"
        },
        {
          "internalType": "uint256",
          "name": "_amount",
          "type": "uint256"
        },
        {
          "internalType": "address",
          "name": "_userAddress",
          "type": "address"
        }
      ],
      "name": "distributeRewardAmountToFirstWeeklyUsers",
      "outputs": [
        {
          "internalType": "bool",
          "name": "",
          "type": "bool"
        }
      ],
      "stateMutability": "nonpayable",
      "type": "function"
    },
    {
      "inputs": [
        {
          "internalType": "bytes4",
          "name": "networkId",
          "type": "bytes4"
        }
      ],
      "name": "getPerNetworkRewardMultiplier",
      "outputs": [
        {
          "internalType": "uint256",
          "name": "",
          "type": "uint256"
        }
      ],
      "stateMutability": "view",
      "type": "function"
    },
    {
      "inputs": [
        {
          "internalType": "uint32",
          "name": "assetId",
          "type": "uint32"
        }
      ],
      "name": "getPointsPerAssetUnit",
      "outputs": [
        {
          "internalType": "uint256",
          "name": "",
          "type": "uint256"
        }
      ],
      "stateMutability": "view",
      "type": "function"
    },
    {
      "inputs": [
        {
          "internalType": "bytes32",
          "name": "role",
          "type": "bytes32"
        }
      ],
      "name": "getRoleAdmin",
      "outputs": [
        {
          "internalType": "bytes32",
          "name": "",
          "type": "bytes32"
        }
      ],
      "stateMutability": "view",
      "type": "function"
    },
    {
      "inputs": [
        {
          "internalType": "bytes32",
          "name": "role",
          "type": "bytes32"
        },
        {
          "internalType": "address",
          "name": "account",
          "type": "address"
        }
      ],
      "name": "grantRole",
      "outputs": [],
      "stateMutability": "nonpayable",
      "type": "function"
    },
    {
      "inputs": [
        {
          "internalType": "bytes32",
          "name": "role",
          "type": "bytes32"
        },
        {
          "internalType": "address",
          "name": "account",
          "type": "address"
        }
      ],
      "name": "hasRole",
      "outputs": [
        {
          "internalType": "bool",
          "name": "",
          "type": "bool"
        }
      ],
      "stateMutability": "view",
      "type": "function"
    },
    {
      "inputs": [
        {
          "internalType": "address",
          "name": "_owner",
          "type": "address"
        }
      ],
      "name": "initialize",
      "outputs": [],
      "stateMutability": "nonpayable",
      "type": "function"
    },
    {
      "inputs": [
        {
          "internalType": "bytes4",
          "name": "networkId",
          "type": "bytes4"
        }
      ],
      "name": "isMainNetwork",
      "outputs": [
        {
          "internalType": "bool",
          "name": "",
          "type": "bool"
        }
      ],
      "stateMutability": "view",
      "type": "function"
    },
    {
      "inputs": [],
      "name": "isRewardsDistributionOn",
      "outputs": [
        {
          "internalType": "bool",
          "name": "",
          "type": "bool"
        }
      ],
      "stateMutability": "view",
      "type": "function"
    },
    {
      "inputs": [
        {
          "internalType": "bytes4",
          "name": "networkId",
          "type": "bytes4"
        }
      ],
      "name": "isTestNetwork",
      "outputs": [
        {
          "internalType": "bool",
          "name": "",
          "type": "bool"
        }
      ],
      "stateMutability": "view",
      "type": "function"
    },
    {
      "inputs": [
        {
          "internalType": "bytes4",
          "name": "",
          "type": "bytes4"
        }
      ],
      "name": "mainNetworks",
      "outputs": [
        {
          "internalType": "bool",
          "name": "",
          "type": "bool"
        }
      ],
      "stateMutability": "view",
      "type": "function"
    },
    {
      "inputs": [],
      "name": "nextResetTime",
      "outputs": [
        {
          "internalType": "uint256",
          "name": "",
          "type": "uint256"
        }
      ],
      "stateMutability": "view",
      "type": "function"
    },
    {
      "inputs": [],
      "name": "orderBook",
      "outputs": [
        {
          "internalType": "address",
          "name": "",
          "type": "address"
        }
      ],
      "stateMutability": "view",
      "type": "function"
    },
    {
      "inputs": [
        {
          "internalType": "bytes4",
          "name": "",
          "type": "bytes4"
        }
      ],
      "name": "perNetworkRewardMultiplier",
      "outputs": [
        {
          "internalType": "uint256",
          "name": "",
          "type": "uint256"
        }
      ],
      "stateMutability": "view",
      "type": "function"
    },
    {
      "inputs": [
        {
          "internalType": "uint32",
          "name": "",
          "type": "uint32"
        }
      ],
      "name": "pointsPerAssetUnit",
      "outputs": [
        {
          "internalType": "uint256",
          "name": "",
          "type": "uint256"
        }
      ],
      "stateMutability": "view",
      "type": "function"
    },
    {
      "inputs": [
        {
          "internalType": "bytes4",
          "name": "_networkId",
          "type": "bytes4"
        }
      ],
      "name": "readPerNetworkMultiplier",
      "outputs": [
        {
          "internalType": "uint256",
          "name": "",
          "type": "uint256"
        }
      ],
      "stateMutability": "view",
      "type": "function"
    },
    {
      "inputs": [
        {
          "internalType": "bytes32",
          "name": "role",
          "type": "bytes32"
        },
        {
          "internalType": "address",
          "name": "account",
          "type": "address"
        }
      ],
      "name": "renounceRole",
      "outputs": [],
      "stateMutability": "nonpayable",
      "type": "function"
    },
    {
      "inputs": [],
      "name": "resetWeeklyCounters",
      "outputs": [],
      "stateMutability": "nonpayable",
      "type": "function"
    },
    {
      "inputs": [
        {
          "internalType": "bytes32",
          "name": "role",
          "type": "bytes32"
        },
        {
          "internalType": "address",
          "name": "account",
          "type": "address"
        }
      ],
      "name": "revokeRole",
      "outputs": [],
      "stateMutability": "nonpayable",
      "type": "function"
    },
    {
      "inputs": [
        {
          "internalType": "address",
          "name": "_orderBookAddress",
          "type": "address"
        }
      ],
      "name": "setBiddingBookAddress",
      "outputs": [],
      "stateMutability": "nonpayable",
      "type": "function"
    },
    {
      "inputs": [
        {
          "internalType": "bytes4",
          "name": "networkId",
          "type": "bytes4"
        }
      ],
      "name": "setMainNetwork",
      "outputs": [],
      "stateMutability": "nonpayable",
      "type": "function"
    },
    {
      "inputs": [
        {
          "internalType": "uint256",
          "name": "_weeklyMaxAttestors",
          "type": "uint256"
        }
      ],
      "name": "setMaxWeeklyAttestors",
      "outputs": [],
      "stateMutability": "nonpayable",
      "type": "function"
    },
    {
      "inputs": [
        {
          "internalType": "uint256",
          "name": "_weeklyMaxExecutors",
          "type": "uint256"
        }
      ],
      "name": "setMaxWeeklyExecutors",
      "outputs": [],
      "stateMutability": "nonpayable",
      "type": "function"
    },
    {
      "inputs": [
        {
          "internalType": "uint256",
          "name": "_weeklyMaxUsers",
          "type": "uint256"
        }
      ],
      "name": "setMaxWeeklyUsers",
      "outputs": [],
      "stateMutability": "nonpayable",
      "type": "function"
    },
    {
      "inputs": [
        {
          "internalType": "address",
          "name": "_orderBookAddress",
          "type": "address"
        }
      ],
      "name": "setOrderBookAddress",
      "outputs": [],
      "stateMutability": "nonpayable",
      "type": "function"
    },
    {
      "inputs": [
        {
          "internalType": "bytes4",
          "name": "networkId",
          "type": "bytes4"
        },
        {
          "internalType": "uint256",
          "name": "multiplier",
          "type": "uint256"
        }
      ],
      "name": "setPerNetworkRewardMultiplier",
      "outputs": [],
      "stateMutability": "nonpayable",
      "type": "function"
    },
    {
      "inputs": [
        {
          "internalType": "uint32",
          "name": "assetId",
          "type": "uint32"
        },
        {
          "internalType": "uint256",
          "name": "points",
          "type": "uint256"
        }
      ],
      "name": "setPointsPerAssetUnit",
      "outputs": [],
      "stateMutability": "nonpayable",
      "type": "function"
    },
    {
      "inputs": [],
      "name": "setRewardsDistributionOff",
      "outputs": [],
      "stateMutability": "nonpayable",
      "type": "function"
    },
    {
      "inputs": [],
      "name": "setRewardsDistributionOn",
      "outputs": [],
      "stateMutability": "nonpayable",
      "type": "function"
    },
    {
      "inputs": [
        {
          "internalType": "address payable",
          "name": "__TRNInflation",
          "type": "address"
        }
      ],
      "name": "setTRNInflationAddress",
      "outputs": [],
      "stateMutability": "nonpayable",
      "type": "function"
    },
    {
      "inputs": [
        {
          "internalType": "bytes4",
          "name": "networkId",
          "type": "bytes4"
        }
      ],
      "name": "setTestNetwork",
      "outputs": [],
      "stateMutability": "nonpayable",
      "type": "function"
    },
    {
      "inputs": [
        {
          "internalType": "bytes32",
          "name": "_version",
          "type": "bytes32"
        }
      ],
      "name": "setVersion",
      "outputs": [],
      "stateMutability": "nonpayable",
      "type": "function"
    },
    {
      "inputs": [
        {
          "internalType": "bytes4",
          "name": "interfaceId",
          "type": "bytes4"
        }
      ],
      "name": "supportsInterface",
      "outputs": [
        {
          "internalType": "bool",
          "name": "",
          "type": "bool"
        }
      ],
      "stateMutability": "view",
      "type": "function"
    },
    {
      "inputs": [
        {
          "internalType": "bytes4",
          "name": "",
          "type": "bytes4"
        }
      ],
      "name": "testNetworks",
      "outputs": [
        {
          "internalType": "bool",
          "name": "",
          "type": "bool"
        }
      ],
      "stateMutability": "view",
      "type": "function"
    },
    {
      "inputs": [],
      "name": "version",
      "outputs": [
        {
          "internalType": "bytes32",
          "name": "",
          "type": "bytes32"
        }
      ],
      "stateMutability": "view",
      "type": "function"
    },
    {
      "inputs": [],
      "name": "weeklyAttestersCounter",
      "outputs": [
        {
          "internalType": "uint256",
          "name": "",
          "type": "uint256"
        }
      ],
      "stateMutability": "view",
      "type": "function"
    },
    {
      "inputs": [],
      "name": "weeklyExecutorRewards",
      "outputs": [
        {
          "internalType": "uint256",
          "name": "",
          "type": "uint256"
        }
      ],
      "stateMutability": "view",
      "type": "function"
    },
    {
      "inputs": [],
      "name": "weeklyMaxAttestors",
      "outputs": [
        {
          "internalType": "uint256",
          "name": "",
          "type": "uint256"
        }
      ],
      "stateMutability": "view",
      "type": "function"
    },
    {
      "inputs": [],
      "name": "weeklyMaxExecutorRewards",
      "outputs": [
        {
          "internalType": "uint256",
          "name": "",
          "type": "uint256"
        }
      ],
      "stateMutability": "view",
      "type": "function"
    },
    {
      "inputs": [],
      "name": "weeklyMaxUsers",
      "outputs": [
        {
          "internalType": "uint256",
          "name": "",
          "type": "uint256"
        }
      ],
      "stateMutability": "view",
      "type": "function"
    },
    {
      "inputs": [],
      "name": "weeklyUsersCounter",
      "outputs": [
        {
          "internalType": "uint256",
          "name": "",
          "type": "uint256"
        }
      ],
      "stateMutability": "view",
      "type": "function"
    },
    {
      "stateMutability": "payable",
      "type": "receive"
    }
  ],
  "bytecode": "0x60806040523480156200001157600080fd5b50620000226200002860201b60201c565b620001d2565b600060019054906101000a900460ff16156200007b576040517f08c379a0000000000000000000000000000000000000000000000000000000008152600401620000729062000175565b60405180910390fd5b60ff801660008054906101000a900460ff1660ff1614620000ec5760ff6000806101000a81548160ff021916908360ff1602179055507f7f26b83ff96e1f2b6a682f133852f6798a09c465da95921460cefb384740249860ff604051620000e39190620001b5565b60405180910390a15b565b600082825260208201905092915050565b7f496e697469616c697a61626c653a20636f6e747261637420697320696e69746960008201527f616c697a696e6700000000000000000000000000000000000000000000000000602082015250565b60006200015d602783620000ee565b91506200016a82620000ff565b604082019050919050565b6000602082019050818103600083015262000190816200014e565b9050919050565b600060ff82169050919050565b620001af8162000197565b82525050565b6000602082019050620001cc6000830184620001a4565b92915050565b613d9980620001e26000396000f3fe6080604052600436106102e85760003560e01c8063937608ef11610190578063cb8b0bbf116100dc578063e206594211610095578063f31d5cc21161006f578063f31d5cc214610b9e578063f8ed135f14610bc9578063faa9244c14610bf2578063fe2b5a3114610c1d576102ef565b8063e206594214610b1f578063e65c75f514610b4a578063f0b7db6514610b73576102ef565b8063cb8b0bbf14610a39578063d266497b14610a62578063d547741f14610a8b578063d69c887c14610ab4578063d6cda31614610acb578063dc6ec28914610af4576102ef565b8063b7f75bd511610149578063c4d66de811610123578063c4d66de814610993578063c870758a146109bc578063ca5f81b5146109e7578063cb78741114610a10576102ef565b8063b7f75bd5146108ee578063b831229d1461092b578063c2ee3a0814610968576102ef565b8063937608ef146107e0578063a217fddf1461081d578063a2dc2d2d14610848578063a95afee314610871578063a987b5ad146108ae578063afaeecf9146108c5576102ef565b806343d168711161024f578063776af5ba1161020857806382a43417116101e257806382a43417146106fe57806388a3720c1461073b57806391b172241461077857806391d14854146107a3576102ef565b8063776af5ba1461066d5780637835f6c4146106985780637c227ec1146106c1576102ef565b806343d168711461055d57806344fd36231461059a5780634cb5645c146105c357806354fd4d50146106005780636adf79b11461062b57806373fdea5614610656576102ef565b8063248a9ca3116102a1578063248a9ca31461043b5780632aa8269e146104785780632f2ff15d146104a357806335a26ff0146104cc57806336568abe1461050957806336a4ba3a14610532576102ef565b806301ffc9a7146102f1578063093d303d1461032e5780631311f4c21461036b5780631c28f5ff146103965780631e416030146103d3578063221d619514610410576102ef565b366102ef57005b005b3480156102fd57600080fd5b5061031860048036038101906103139190612b8b565b610c5a565b6040516103259190612bd3565b60405180910390f35b34801561033a57600080fd5b5061035560048036038101906103509190612b8b565b610cd4565b6040516103629190612bd3565b60405180910390f35b34801561037757600080fd5b50610380610cf4565b60405161038d9190612bd3565b60405180910390f35b3480156103a257600080fd5b506103bd60048036038101906103b89190612cbe565b610d1b565b6040516103ca9190612d34565b60405180910390f35b3480156103df57600080fd5b506103fa60048036038101906103f59190612d4f565b610e3d565b6040516104079190612d34565b60405180910390f35b34801561041c57600080fd5b50610425610e72565b6040516104329190612d34565b60405180910390f35b34801561044757600080fd5b50610462600480360381019061045d9190612dc5565b610e78565b60405161046f9190612e01565b60405180910390f35b34801561048457600080fd5b5061048d610e98565b60405161049a9190612e2b565b60405180910390f35b3480156104af57600080fd5b506104ca60048036038101906104c59190612e46565b610ebe565b005b3480156104d857600080fd5b506104f360048036038101906104ee9190612b8b565b610edf565b6040516105009190612bd3565b60405180910390f35b34801561051557600080fd5b50610530600480360381019061052b9190612e46565b610f47565b005b34801561053e57600080fd5b50610547610fca565b6040516105549190612ee5565b60405180910390f35b34801561056957600080fd5b50610584600480360381019061057f9190612f00565b610ff0565b6040516105919190612d34565b60405180910390f35b3480156105a657600080fd5b506105c160048036038101906105bc9190612f91565b61103c565b005b3480156105cf57600080fd5b506105ea60048036038101906105e59190612b8b565b6110cc565b6040516105f79190612d34565b60405180910390f35b34801561060c57600080fd5b50610615611127565b6040516106229190612e01565b60405180910390f35b34801561063757600080fd5b5061064061112d565b60405161064d9190612d34565b60405180910390f35b34801561066257600080fd5b5061066b611133565b005b34801561067957600080fd5b5061068261119c565b60405161068f9190612e2b565b60405180910390f35b3480156106a457600080fd5b506106bf60048036038101906106ba9190612fbe565b6111c2565b005b3480156106cd57600080fd5b506106e860048036038101906106e39190612cbe565b611252565b6040516106f59190612bd3565b60405180910390f35b34801561070a57600080fd5b5061072560048036038101906107209190612feb565b611375565b6040516107329190612bd3565b60405180910390f35b34801561074757600080fd5b50610762600480360381019061075d919061302b565b61152a565b60405161076f9190612d34565b60405180910390f35b34801561078457600080fd5b5061078d611542565b60405161079a9190612d34565b60405180910390f35b3480156107af57600080fd5b506107ca60048036038101906107c59190612e46565b611548565b6040516107d79190612bd3565b60405180910390f35b3480156107ec57600080fd5b5061080760048036038101906108029190612b8b565b6115b3565b6040516108149190612d34565b60405180910390f35b34801561082957600080fd5b506108326115cb565b60405161083f9190612e01565b60405180910390f35b34801561085457600080fd5b5061086f600480360381019061086a9190613058565b6115d2565b005b34801561087d57600080fd5b5061089860048036038101906108939190612b8b565b611628565b6040516108a59190612bd3565b60405180910390f35b3480156108ba57600080fd5b506108c3611648565b005b3480156108d157600080fd5b506108ec60048036038101906108e79190612d4f565b611779565b005b3480156108fa57600080fd5b5061091560048036038101906109109190612b8b565b6117ed565b6040516109229190612bd3565b60405180910390f35b34801561093757600080fd5b50610952600480360381019061094d919061302b565b611855565b60405161095f9190612d34565b60405180910390f35b34801561097457600080fd5b5061097d61187e565b60405161098a9190612d34565b60405180910390f35b34801561099f57600080fd5b506109ba60048036038101906109b59190612fbe565b61188a565b005b3480156109c857600080fd5b506109d1611c45565b6040516109de9190612d34565b60405180910390f35b3480156109f357600080fd5b50610a0e6004803603810190610a099190612dc5565b611c4b565b005b348015610a1c57600080fd5b50610a376004803603810190610a329190612b8b565b611ca1565b005b348015610a4557600080fd5b50610a606004803603810190610a5b9190612b8b565b611d5a565b005b348015610a6e57600080fd5b50610a896004803603810190610a849190613058565b611e13565b005b348015610a9757600080fd5b50610ab26004803603810190610aad9190612e46565b611e69565b005b348015610ac057600080fd5b50610ac9611e8a565b005b348015610ad757600080fd5b50610af26004803603810190610aed9190613085565b611ef3565b005b348015610b0057600080fd5b50610b09611f99565b604051610b169190612d34565b60405180910390f35b348015610b2b57600080fd5b50610b34611f9f565b604051610b419190612bd3565b60405180910390f35b348015610b5657600080fd5b50610b716004803603810190610b6c9190612fbe565b611fb2565b005b348015610b7f57600080fd5b50610b88612042565b604051610b959190612d34565b60405180910390f35b348015610baa57600080fd5b50610bb3612048565b604051610bc09190612bd3565b60405180910390f35b348015610bd557600080fd5b50610bf06004803603810190610beb9190613058565b6120e0565b005b348015610bfe57600080fd5b50610c07612136565b604051610c149190612d34565b60405180910390f35b348015610c2957600080fd5b50610c446004803603810190610c3f9190612b8b565b61213c565b604051610c519190612d34565b60405180910390f35b60007f7965db0b000000000000000000000000000000000000000000000000000000007bffffffffffffffffffffffffffffffffffffffffffffffffffffffff1916827bffffffffffffffffffffffffffffffffffffffffffffffffffffffff19161480610ccd5750610ccc826121a9565b5b9050919050565b60d36020528060005260406000206000915054906101000a900460ff1681565b6000610cfe612048565b8015610d16575060d660009054906101000a900460ff165b905090565b600060ca60009054906101000a900473ffffffffffffffffffffffffffffffffffffffff1673ffffffffffffffffffffffffffffffffffffffff163373ffffffffffffffffffffffffffffffffffffffff1614610dad576040517f08c379a0000000000000000000000000000000000000000000000000000000008152600401610da490613148565b60405180910390fd5b610db5610cf4565b610dc25760009050610e35565b60d05460cd5410610dd65760009050610e35565b6000610de18661213c565b90506000610df0878787610ff0565b9050610e07848383610e029190613197565b612213565b15610e2e5760cd6000815480929190610e1f906131d9565b91905055508092505050610e35565b6000925050505b949350505050565b600060d560008463ffffffff1663ffffffff1681526020019081526020016000205482610e6a9190613197565b905092915050565b60d75481565b600060656000838152602001908152602001600020600101549050919050565b60ca60009054906101000a900473ffffffffffffffffffffffffffffffffffffffff1681565b610ec782610e78565b610ed0816124a5565b610eda83836124b9565b505050565b600060d36000837bffffffffffffffffffffffffffffffffffffffffffffffffffffffff19167bffffffffffffffffffffffffffffffffffffffffffffffffffffffff1916815260200190815260200160002060009054906101000a900460ff169050919050565b610f4f61259a565b73ffffffffffffffffffffffffffffffffffffffff168173ffffffffffffffffffffffffffffffffffffffff1614610fbc576040517f08c379a0000000000000000000000000000000000000000000000000000000008152600401610fb390613293565b60405180910390fd5b610fc682826125a2565b5050565b60cb60009054906101000a900473ffffffffffffffffffffffffffffffffffffffff1681565b6000806000905061100085610edf565b1561101557670de0b6b3a76400009050611031565b61101e856117ed565b156110305761102d8484610e3d565b90505b5b809150509392505050565b6110496000801b33611548565b611088576040517f08c379a000000000000000000000000000000000000000000000000000000000815260040161107f90613325565b60405180910390fd5b8060cb60006101000a81548173ffffffffffffffffffffffffffffffffffffffff021916908373ffffffffffffffffffffffffffffffffffffffff16021790555050565b600060cc6000837bffffffffffffffffffffffffffffffffffffffffffffffffffffffff19167bffffffffffffffffffffffffffffffffffffffffffffffffffffffff19168152602001908152602001600020549050919050565b60d85481565b60d05481565b6111406000801b33611548565b61117f576040517f08c379a000000000000000000000000000000000000000000000000000000000815260040161117690613325565b60405180910390fd5b600060d660006101000a81548160ff021916908315150217905550565b60c960009054906101000a900473ffffffffffffffffffffffffffffffffffffffff1681565b6111cf6000801b33611548565b61120e576040517f08c379a000000000000000000000000000000000000000000000000000000000815260040161120590613325565b60405180910390fd5b8060ca60006101000a81548173ffffffffffffffffffffffffffffffffffffffff021916908373ffffffffffffffffffffffffffffffffffffffff16021790555050565b600060ca60009054906101000a900473ffffffffffffffffffffffffffffffffffffffff1673ffffffffffffffffffffffffffffffffffffffff163373ffffffffffffffffffffffffffffffffffffffff16146112e4576040517f08c379a00000000000000000000000000000000000000000000000000000000081526004016112db90613148565b60405180910390fd5b6112ec610cf4565b6112f9576000905061136d565b60d15460ce541061130d576000905061136d565b60006113188661213c565b90506000611327878787610ff0565b905061133e8483836113399190613197565b612213565b156113665760ce6000815480929190611356906131d9565b919050555060019250505061136d565b6000925050505b949350505050565b600060c960009054906101000a900473ffffffffffffffffffffffffffffffffffffffff1673ffffffffffffffffffffffffffffffffffffffff163373ffffffffffffffffffffffffffffffffffffffff1614611407576040517f08c379a00000000000000000000000000000000000000000000000000000000081526004016113fe906133b7565b60405180910390fd5b61140f610cf4565b61141c5760009050611524565b60006114278461213c565b905060d25460cf541061143e576000915050611524565b600060d25460cb60009054906101000a900473ffffffffffffffffffffffffffffffffffffffff1673ffffffffffffffffffffffffffffffffffffffff1663052d23306040518163ffffffff1660e01b8152600401602060405180830381865afa1580156114b0573d6000803e3d6000fd5b505050506040513d601f19601f820116820180604052508101906114d491906133ec565b6114de9190613448565b90506114f58483836114f09190613197565b612213565b1561151d5760cf600081548092919061150d906131d9565b9190505550600192505050611524565b6000925050505b92915050565b60d56020528060005260406000206000915090505481565b60cf5481565b60006065600084815260200190815260200160002060000160008373ffffffffffffffffffffffffffffffffffffffff1673ffffffffffffffffffffffffffffffffffffffff16815260200190815260200160002060009054906101000a900460ff16905092915050565b60cc6020528060005260406000206000915090505481565b6000801b81565b6115df6000801b33611548565b61161e576040517f08c379a000000000000000000000000000000000000000000000000000000000815260040161161590613325565b60405180910390fd5b8060d28190555050565b60d46020528060005260406000206000915054906101000a900460ff1681565b60cb60009054906101000a900473ffffffffffffffffffffffffffffffffffffffff1673ffffffffffffffffffffffffffffffffffffffff163373ffffffffffffffffffffffffffffffffffffffff16146116d8576040517f08c379a00000000000000000000000000000000000000000000000000000000081526004016116cf906134eb565b60405180910390fd5b60d75442101561171d576040517f08c379a000000000000000000000000000000000000000000000000000000000815260040161171490613557565b60405180910390fd5b600060cd81905550600060ce81905550600060cf8190555062093a80426117449190613577565b60d781905550427f69d7b223f1456724caa95ea57951575d5b2abb739e4783a8a31d78d964e1b9c560405160405180910390a2565b6117866000801b33611548565b6117c5576040517f08c379a00000000000000000000000000000000000000000000000000000000081526004016117bc90613325565b60405180910390fd5b8060d560008463ffffffff1663ffffffff168152602001908152602001600020819055505050565b600060d46000837bffffffffffffffffffffffffffffffffffffffffffffffffffffffff19167bffffffffffffffffffffffffffffffffffffffffffffffffffffffff1916815260200190815260200160002060009054906101000a900460ff169050919050565b600060d560008363ffffffff1663ffffffff168152602001908152602001600020549050919050565b670de0b6b3a764000081565b60008060019054906101000a900460ff161590508080156118bb5750600160008054906101000a900460ff1660ff16105b806118e857506118ca30612684565b1580156118e75750600160008054906101000a900460ff1660ff16145b5b611927576040517f08c379a000000000000000000000000000000000000000000000000000000000815260040161191e9061361d565b60405180910390fd5b60016000806101000a81548160ff021916908360ff1602179055508015611964576001600060016101000a81548160ff0219169083151502179055505b61196c6126a7565b6119796000801b836124b9565b600060cd81905550600060ce81905550600060cd8190555061271060d08190555061271060d18190555061271060d281905550600160cc6000636f70737060e01b7bffffffffffffffffffffffffffffffffffffffffffffffffffffffff19167bffffffffffffffffffffffffffffffffffffffffffffffffffffffff1916815260200190815260200160002081905550600160cc6000636273637460e01b7bffffffffffffffffffffffffffffffffffffffffffffffffffffffff19167bffffffffffffffffffffffffffffffffffffffffffffffffffffffff1916815260200190815260200160002081905550600160cc6000636172627460e01b7bffffffffffffffffffffffffffffffffffffffffffffffffffffffff19167bffffffffffffffffffffffffffffffffffffffffffffffffffffffff1916815260200190815260200160002081905550600160cc6000636273737060e01b7bffffffffffffffffffffffffffffffffffffffffffffffffffffffff19167bffffffffffffffffffffffffffffffffffffffffffffffffffffffff1916815260200190815260200160002081905550600160cc6000636c30726e60e01b7bffffffffffffffffffffffffffffffffffffffffffffffffffffffff19167bffffffffffffffffffffffffffffffffffffffffffffffffffffffff1916815260200190815260200160002081905550600160cc6000637365706c60e01b7bffffffffffffffffffffffffffffffffffffffffffffffffffffffff19167bffffffffffffffffffffffffffffffffffffffffffffffffffffffff1916815260200190815260200160002081905550611be86126f8565b8015611c415760008060016101000a81548160ff0219169083151502179055507f7f26b83ff96e1f2b6a682f133852f6798a09c465da95921460cefb38474024986001604051611c389190613685565b60405180910390a15b5050565b60d15481565b611c586000801b33611548565b611c97576040517f08c379a0000000000000000000000000000000000000000000000000000000008152600401611c8e90613325565b60405180910390fd5b8060d88190555050565b611cae6000801b33611548565b611ced576040517f08c379a0000000000000000000000000000000000000000000000000000000008152600401611ce490613325565b60405180910390fd5b600160d36000837bffffffffffffffffffffffffffffffffffffffffffffffffffffffff19167bffffffffffffffffffffffffffffffffffffffffffffffffffffffff1916815260200190815260200160002060006101000a81548160ff02191690831515021790555050565b611d676000801b33611548565b611da6576040517f08c379a0000000000000000000000000000000000000000000000000000000008152600401611d9d90613325565b60405180910390fd5b600160d46000837bffffffffffffffffffffffffffffffffffffffffffffffffffffffff19167bffffffffffffffffffffffffffffffffffffffffffffffffffffffff1916815260200190815260200160002060006101000a81548160ff02191690831515021790555050565b611e206000801b33611548565b611e5f576040517f08c379a0000000000000000000000000000000000000000000000000000000008152600401611e5690613325565b60405180910390fd5b8060d08190555050565b611e7282610e78565b611e7b816124a5565b611e8583836125a2565b505050565b611e976000801b33611548565b611ed6576040517f08c379a0000000000000000000000000000000000000000000000000000000008152600401611ecd90613325565b60405180910390fd5b600160d660006101000a81548160ff021916908315150217905550565b611f006000801b33611548565b611f3f576040517f08c379a0000000000000000000000000000000000000000000000000000000008152600401611f3690613325565b60405180910390fd5b8060cc6000847bffffffffffffffffffffffffffffffffffffffffffffffffffffffff19167bffffffffffffffffffffffffffffffffffffffffffffffffffffffff19168152602001908152602001600020819055505050565b60d25481565b60d660009054906101000a900460ff1681565b611fbf6000801b33611548565b611ffe576040517f08c379a0000000000000000000000000000000000000000000000000000000008152600401611ff590613325565b60405180910390fd5b8060c960006101000a81548173ffffffffffffffffffffffffffffffffffffffff021916908373ffffffffffffffffffffffffffffffffffffffff16021790555050565b60cd5481565b600060cb60009054906101000a900473ffffffffffffffffffffffffffffffffffffffff1673ffffffffffffffffffffffffffffffffffffffff1663f31d5cc26040518163ffffffff1660e01b8152600401602060405180830381865afa1580156120b7573d6000803e3d6000fd5b505050506040513d601f19601f820116820180604052508101906120db91906136cc565b905090565b6120ed6000801b33611548565b61212c576040517f08c379a000000000000000000000000000000000000000000000000000000000815260040161212390613325565b60405180910390fd5b8060d18190555050565b60ce5481565b60008060cc6000847bffffffffffffffffffffffffffffffffffffffffffffffffffffffff19167bffffffffffffffffffffffffffffffffffffffffffffffffffffffff19168152602001908152602001600020549050600081036121a057600190505b80915050919050565b60007f01ffc9a7000000000000000000000000000000000000000000000000000000007bffffffffffffffffffffffffffffffffffffffffffffffffffffffff1916827bffffffffffffffffffffffffffffffffffffffffffffffffffffffff1916149050919050565b600061221d612751565b600073ffffffffffffffffffffffffffffffffffffffff168373ffffffffffffffffffffffffffffffffffffffff16036122ab578273ffffffffffffffffffffffffffffffffffffffff167f8cf40ee09e3aa49d8de248496c5793acc922daa00bac9b8cb421b24ffc7c866a83600060405161229a929190613745565b60405180910390a260009050612497565b6000820361230d578273ffffffffffffffffffffffffffffffffffffffff167f8cf40ee09e3aa49d8de248496c5793acc922daa00bac9b8cb421b24ffc7c866a8360006040516122fc9291906137f3565b60405180910390a260009050612497565b8147101561236f578273ffffffffffffffffffffffffffffffffffffffff167f8cf40ee09e3aa49d8de248496c5793acc922daa00bac9b8cb421b24ffc7c866a83600060405161235e92919061387b565b60405180910390a260009050612497565b60008373ffffffffffffffffffffffffffffffffffffffff1683604051612395906138e8565b60006040518083038185875af1925050503d80600081146123d2576040519150601f19603f3d011682016040523d82523d6000602084013e6123d7565b606091505b505090508015612437578373ffffffffffffffffffffffffffffffffffffffff167f8cf40ee09e3aa49d8de248496c5793acc922daa00bac9b8cb421b24ffc7c866a84600160405161242a929190613949565b60405180910390a2612492565b8373ffffffffffffffffffffffffffffffffffffffff167f8cf40ee09e3aa49d8de248496c5793acc922daa00bac9b8cb421b24ffc7c866a84600061247a6127a0565b60405161248993929190613a04565b60405180910390a25b809150505b61249f6127dd565b92915050565b6124b6816124b161259a565b6127e7565b50565b6124c38282611548565b6125965760016065600084815260200190815260200160002060000160008373ffffffffffffffffffffffffffffffffffffffff1673ffffffffffffffffffffffffffffffffffffffff16815260200190815260200160002060006101000a81548160ff02191690831515021790555061253b61259a565b73ffffffffffffffffffffffffffffffffffffffff168173ffffffffffffffffffffffffffffffffffffffff16837f2f8788117e7eff1d82e926ec794901d17c78024a50270940304540a733656f0d60405160405180910390a45b5050565b600033905090565b6125ac8282611548565b156126805760006065600084815260200190815260200160002060000160008373ffffffffffffffffffffffffffffffffffffffff1673ffffffffffffffffffffffffffffffffffffffff16815260200190815260200160002060006101000a81548160ff02191690831515021790555061262561259a565b73ffffffffffffffffffffffffffffffffffffffff168173ffffffffffffffffffffffffffffffffffffffff16837ff6391f5c32d9c69d2a47ea670b442974b53935d1edc7fd64eb21e047a839171b60405160405180910390a45b5050565b6000808273ffffffffffffffffffffffffffffffffffffffff163b119050919050565b600060019054906101000a900460ff166126f6576040517f08c379a00000000000000000000000000000000000000000000000000000000081526004016126ed90613ab4565b60405180910390fd5b565b600060019054906101000a900460ff16612747576040517f08c379a000000000000000000000000000000000000000000000000000000000815260040161273e90613ab4565b60405180910390fd5b61274f61286c565b565b600260975403612796576040517f08c379a000000000000000000000000000000000000000000000000000000000815260040161278d90613b20565b60405180910390fd5b6002609781905550565b60606040518060400160405280600e81526020017f5061796d656e74206661696c6564000000000000000000000000000000000000815250905090565b6001609781905550565b6127f18282611548565b612868576127fe816128c5565b61280c8360001c60206128f2565b60405160200161281d929190613c14565b6040516020818303038152906040526040517f08c379a000000000000000000000000000000000000000000000000000000000815260040161285f9190613c4e565b60405180910390fd5b5050565b600060019054906101000a900460ff166128bb576040517f08c379a00000000000000000000000000000000000000000000000000000000081526004016128b290613ab4565b60405180910390fd5b6001609781905550565b60606128eb8273ffffffffffffffffffffffffffffffffffffffff16601460ff166128f2565b9050919050565b6060600060028360026129059190613197565b61290f9190613577565b67ffffffffffffffff81111561292857612927613c70565b5b6040519080825280601f01601f19166020018201604052801561295a5781602001600182028036833780820191505090505b5090507f30000000000000000000000000000000000000000000000000000000000000008160008151811061299257612991613c9f565b5b60200101907effffffffffffffffffffffffffffffffffffffffffffffffffffffffffffff1916908160001a9053507f7800000000000000000000000000000000000000000000000000000000000000816001815181106129f6576129f5613c9f565b5b60200101907effffffffffffffffffffffffffffffffffffffffffffffffffffffffffffff1916908160001a90535060006001846002612a369190613197565b612a409190613577565b90505b6001811115612ae0577f3031323334353637383961626364656600000000000000000000000000000000600f861660108110612a8257612a81613c9f565b5b1a60f81b828281518110612a9957612a98613c9f565b5b60200101907effffffffffffffffffffffffffffffffffffffffffffffffffffffffffffff1916908160001a905350600485901c945080612ad990613cce565b9050612a43565b5060008414612b24576040517f08c379a0000000000000000000000000000000000000000000000000000000008152600401612b1b90613d43565b60405180910390fd5b8091505092915050565b600080fd5b60007fffffffff0000000000000000000000000000000000000000000000000000000082169050919050565b612b6881612b33565b8114612b7357600080fd5b50565b600081359050612b8581612b5f565b92915050565b600060208284031215612ba157612ba0612b2e565b5b6000612baf84828501612b76565b91505092915050565b60008115159050919050565b612bcd81612bb8565b82525050565b6000602082019050612be86000830184612bc4565b92915050565b600063ffffffff82169050919050565b612c0781612bee565b8114612c1257600080fd5b50565b600081359050612c2481612bfe565b92915050565b6000819050919050565b612c3d81612c2a565b8114612c4857600080fd5b50565b600081359050612c5a81612c34565b92915050565b600073ffffffffffffffffffffffffffffffffffffffff82169050919050565b6000612c8b82612c60565b9050919050565b612c9b81612c80565b8114612ca657600080fd5b50565b600081359050612cb881612c92565b92915050565b60008060008060808587031215612cd857612cd7612b2e565b5b6000612ce687828801612b76565b9450506020612cf787828801612c15565b9350506040612d0887828801612c4b565b9250506060612d1987828801612ca9565b91505092959194509250565b612d2e81612c2a565b82525050565b6000602082019050612d496000830184612d25565b92915050565b60008060408385031215612d6657612d65612b2e565b5b6000612d7485828601612c15565b9250506020612d8585828601612c4b565b9150509250929050565b6000819050919050565b612da281612d8f565b8114612dad57600080fd5b50565b600081359050612dbf81612d99565b92915050565b600060208284031215612ddb57612dda612b2e565b5b6000612de984828501612db0565b91505092915050565b612dfb81612d8f565b82525050565b6000602082019050612e166000830184612df2565b92915050565b612e2581612c80565b82525050565b6000602082019050612e406000830184612e1c565b92915050565b60008060408385031215612e5d57612e5c612b2e565b5b6000612e6b85828601612db0565b9250506020612e7c85828601612ca9565b9150509250929050565b6000819050919050565b6000612eab612ea6612ea184612c60565b612e86565b612c60565b9050919050565b6000612ebd82612e90565b9050919050565b6000612ecf82612eb2565b9050919050565b612edf81612ec4565b82525050565b6000602082019050612efa6000830184612ed6565b92915050565b600080600060608486031215612f1957612f18612b2e565b5b6000612f2786828701612b76565b9350506020612f3886828701612c15565b9250506040612f4986828701612c4b565b9150509250925092565b6000612f5e82612c60565b9050919050565b612f6e81612f53565b8114612f7957600080fd5b50565b600081359050612f8b81612f65565b92915050565b600060208284031215612fa757612fa6612b2e565b5b6000612fb584828501612f7c565b91505092915050565b600060208284031215612fd457612fd3612b2e565b5b6000612fe284828501612ca9565b91505092915050565b6000806040838503121561300257613001612b2e565b5b600061301085828601612b76565b925050602061302185828601612ca9565b9150509250929050565b60006020828403121561304157613040612b2e565b5b600061304f84828501612c15565b91505092915050565b60006020828403121561306e5761306d612b2e565b5b600061307c84828501612c4b565b91505092915050565b6000806040838503121561309c5761309b612b2e565b5b60006130aa85828601612b76565b92505060206130bb85828601612c4b565b9150509250929050565b600082825260208201905092915050565b7f4f6e6c792062696464696e6720626f6f6b2063616e2063616c6c20746869732060008201527f66756e6374696f6e000000000000000000000000000000000000000000000000602082015250565b60006131326028836130c5565b915061313d826130d6565b604082019050919050565b6000602082019050818103600083015261316181613125565b9050919050565b7f4e487b7100000000000000000000000000000000000000000000000000000000600052601160045260246000fd5b60006131a282612c2a565b91506131ad83612c2a565b92508282026131bb81612c2a565b915082820484148315176131d2576131d1613168565b5b5092915050565b60006131e482612c2a565b91507fffffffffffffffffffffffffffffffffffffffffffffffffffffffffffffffff820361321657613215613168565b5b600182019050919050565b7f416363657373436f6e74726f6c3a2063616e206f6e6c792072656e6f756e636560008201527f20726f6c657320666f722073656c660000000000000000000000000000000000602082015250565b600061327d602f836130c5565b915061328882613221565b604082019050919050565b600060208201905081810360008301526132ac81613270565b9050919050565b7f4f6e6c79206f776e65722063616e2063616c6c20746869732066756e6374696f60008201527f6e00000000000000000000000000000000000000000000000000000000000000602082015250565b600061330f6021836130c5565b915061331a826132b3565b604082019050919050565b6000602082019050818103600083015261333e81613302565b9050919050565b7f4f6e6c79206f7264657220626f6f6b2063616e2063616c6c207468697320667560008201527f6e6374696f6e0000000000000000000000000000000000000000000000000000602082015250565b60006133a16026836130c5565b91506133ac82613345565b604082019050919050565b600060208201905081810360008301526133d081613394565b9050919050565b6000815190506133e681612c34565b92915050565b60006020828403121561340257613401612b2e565b5b6000613410848285016133d7565b91505092915050565b7f4e487b7100000000000000000000000000000000000000000000000000000000600052601260045260246000fd5b600061345382612c2a565b915061345e83612c2a565b92508261346e5761346d613419565b5b828204905092915050565b7f4f6e6c792054524e496e666c6174696f6e2063616e2063616c6c20746869732060008201527f66756e6374696f6e000000000000000000000000000000000000000000000000602082015250565b60006134d56028836130c5565b91506134e082613479565b604082019050919050565b60006020820190508181036000830152613504816134c8565b9050919050565b7f4974206973206e6f742074696d6520746f207265736574207965740000000000600082015250565b6000613541601b836130c5565b915061354c8261350b565b602082019050919050565b6000602082019050818103600083015261357081613534565b9050919050565b600061358282612c2a565b915061358d83612c2a565b92508282019050808211156135a5576135a4613168565b5b92915050565b7f496e697469616c697a61626c653a20636f6e747261637420697320616c72656160008201527f647920696e697469616c697a6564000000000000000000000000000000000000602082015250565b6000613607602e836130c5565b9150613612826135ab565b604082019050919050565b60006020820190508181036000830152613636816135fa565b9050919050565b6000819050919050565b600060ff82169050919050565b600061366f61366a6136658461363d565b612e86565b613647565b9050919050565b61367f81613654565b82525050565b600060208201905061369a6000830184613676565b92915050565b6136a981612bb8565b81146136b457600080fd5b50565b6000815190506136c6816136a0565b92915050565b6000602082840312156136e2576136e1612b2e565b5b60006136f0848285016136b7565b91505092915050565b7f496e76616c696420616464726573733a207a65726f2061646472657373000000600082015250565b600061372f601d836130c5565b915061373a826136f9565b602082019050919050565b600060608201905061375a6000830185612d25565b6137676020830184612bc4565b818103604083015261377881613722565b90509392505050565b7f496e76616c696420616d6f756e743a206d75737420626520677265617465722060008201527f7468616e207a65726f0000000000000000000000000000000000000000000000602082015250565b60006137dd6029836130c5565b91506137e882613781565b604082019050919050565b60006060820190506138086000830185612d25565b6138156020830184612bc4565b8181036040830152613826816137d0565b90509392505050565b7f496e73756666696369656e742062616c616e6365000000000000000000000000600082015250565b60006138656014836130c5565b91506138708261382f565b602082019050919050565b60006060820190506138906000830185612d25565b61389d6020830184612bc4565b81810360408301526138ae81613858565b90509392505050565b600081905092915050565b50565b60006138d26000836138b7565b91506138dd826138c2565b600082019050919050565b60006138f3826138c5565b9150819050919050565b7f5375636365737300000000000000000000000000000000000000000000000000600082015250565b60006139336007836130c5565b915061393e826138fd565b602082019050919050565b600060608201905061395e6000830185612d25565b61396b6020830184612bc4565b818103604083015261397c81613926565b90509392505050565b600081519050919050565b60005b838110156139ae578082015181840152602081019050613993565b60008484015250505050565b6000601f19601f8301169050919050565b60006139d682613985565b6139e081856130c5565b93506139f0818560208601613990565b6139f9816139ba565b840191505092915050565b6000606082019050613a196000830186612d25565b613a266020830185612bc4565b8181036040830152613a3881846139cb565b9050949350505050565b7f496e697469616c697a61626c653a20636f6e7472616374206973206e6f74206960008201527f6e697469616c697a696e67000000000000000000000000000000000000000000602082015250565b6000613a9e602b836130c5565b9150613aa982613a42565b604082019050919050565b60006020820190508181036000830152613acd81613a91565b9050919050565b7f5265656e7472616e637947756172643a207265656e7472616e742063616c6c00600082015250565b6000613b0a601f836130c5565b9150613b1582613ad4565b602082019050919050565b60006020820190508181036000830152613b3981613afd565b9050919050565b600081905092915050565b7f416363657373436f6e74726f6c3a206163636f756e7420000000000000000000600082015250565b6000613b81601783613b40565b9150613b8c82613b4b565b601782019050919050565b6000613ba282613985565b613bac8185613b40565b9350613bbc818560208601613990565b80840191505092915050565b7f206973206d697373696e6720726f6c6520000000000000000000000000000000600082015250565b6000613bfe601183613b40565b9150613c0982613bc8565b601182019050919050565b6000613c1f82613b74565b9150613c2b8285613b97565b9150613c3682613bf1565b9150613c428284613b97565b91508190509392505050565b60006020820190508181036000830152613c6881846139cb565b905092915050565b7f4e487b7100000000000000000000000000000000000000000000000000000000600052604160045260246000fd5b7f4e487b7100000000000000000000000000000000000000000000000000000000600052603260045260246000fd5b6000613cd982612c2a565b915060008203613cec57613ceb613168565b5b600182039050919050565b7f537472696e67733a20686578206c656e67746820696e73756666696369656e74600082015250565b6000613d2d6020836130c5565b9150613d3882613cf7565b602082019050919050565b60006020820190508181036000830152613d5c81613d20565b905091905056fea26469706673582212204c350c8f7680d9e35d11dcf654482886fdea3a061ec44662d2a58bec3ff976be64736f6c63430008180033",
  "linkReferences": {},
  "deployedLinkReferences": {}
}