{
  "_format": "hh-sol-artifact-1",
  "contractName": "RemoteLiquidityWell",
  "sourceName": "contracts/remoteLiquidityWell.sol",
  "abi": [
    {
      "inputs": [],
      "stateMutability": "nonpayable",
      "type": "constructor"
    },
    {
      "anonymous": false,
      "inputs": [
        {
          "indexed": false,
          "internalType": "uint8",
          "name": "version",
          "type": "uint8"
        }
      ],
      "name": "Initialized",
      "type": "event"
    },
    {
      "anonymous": false,
      "inputs": [
        {
          "indexed": true,
          "internalType": "bytes32",
          "name": "role",
          "type": "bytes32"
        },
        {
          "indexed": true,
          "internalType": "bytes32",
          "name": "previousAdminRole",
          "type": "bytes32"
        },
        {
          "indexed": true,
          "internalType": "bytes32",
          "name": "newAdminRole",
          "type": "bytes32"
        }
      ],
      "name": "RoleAdminChanged",
      "type": "event"
    },
    {
      "anonymous": false,
      "inputs": [
        {
          "indexed": true,
          "internalType": "bytes32",
          "name": "role",
          "type": "bytes32"
        },
        {
          "indexed": true,
          "internalType": "address",
          "name": "account",
          "type": "address"
        },
        {
          "indexed": true,
          "internalType": "address",
          "name": "sender",
          "type": "address"
        }
      ],
      "name": "RoleGranted",
      "type": "event"
    },
    {
      "anonymous": false,
      "inputs": [
        {
          "indexed": true,
          "internalType": "bytes32",
          "name": "role",
          "type": "bytes32"
        },
        {
          "indexed": true,
          "internalType": "address",
          "name": "account",
          "type": "address"
        },
        {
          "indexed": true,
          "internalType": "address",
          "name": "sender",
          "type": "address"
        }
      ],
      "name": "RoleRevoked",
      "type": "event"
    },
    {
      "stateMutability": "payable",
      "type": "fallback"
    },
    {
      "inputs": [],
      "name": "DEFAULT_ADMIN_ROLE",
      "outputs": [
        {
          "internalType": "bytes32",
          "name": "",
          "type": "bytes32"
        }
      ],
      "stateMutability": "view",
      "type": "function"
    },
    {
      "inputs": [],
      "name": "archiveEpochExitLeafs",
      "outputs": [],
      "stateMutability": "nonpayable",
      "type": "function"
    },
    {
      "inputs": [
        {
          "internalType": "address",
          "name": "_account",
          "type": "address"
        },
        {
          "internalType": "uint256",
          "name": "_points",
          "type": "uint256"
        },
        {
          "internalType": "uint32",
          "name": "_assetId",
          "type": "uint32"
        }
      ],
      "name": "constructExitLeaf",
      "outputs": [
        {
          "components": [
            {
              "internalType": "bytes32",
              "name": "previousLeaf",
              "type": "bytes32"
            },
            {
              "internalType": "bytes32",
              "name": "nextLeaf",
              "type": "bytes32"
            },
            {
              "internalType": "address",
              "name": "account",
              "type": "address"
            },
            {
              "internalType": "uint32",
              "name": "assetId",
              "type": "uint32"
            },
            {
              "internalType": "uint256",
              "name": "points",
              "type": "uint256"
            }
          ],
          "internalType": "struct RemoteLiquidityWell.ExitLeaf",
          "name": "",
          "type": "tuple"
        }
      ],
      "stateMutability": "pure",
      "type": "function"
    },
    {
      "inputs": [
        {
          "internalType": "address",
          "name": "_account",
          "type": "address"
        },
        {
          "internalType": "uint256",
          "name": "_points",
          "type": "uint256"
        },
        {
          "internalType": "uint32",
          "name": "_assetId",
          "type": "uint32"
        }
      ],
      "name": "constructExitLeafId",
      "outputs": [
        {
          "internalType": "bytes32",
          "name": "",
          "type": "bytes32"
        }
      ],
      "stateMutability": "pure",
      "type": "function"
    },
    {
      "inputs": [
        {
          "internalType": "bytes32",
          "name": "_leafId",
          "type": "bytes32"
        }
      ],
      "name": "doubleHashLeafId",
      "outputs": [
        {
          "internalType": "bytes32",
          "name": "",
          "type": "bytes32"
        }
      ],
      "stateMutability": "pure",
      "type": "function"
    },
    {
      "inputs": [
        {
          "internalType": "uint32",
          "name": "_assetId",
          "type": "uint32"
        },
        {
          "internalType": "uint256",
          "name": "_points",
          "type": "uint256"
        },
        {
          "internalType": "bytes32[]",
          "name": "inclusionProof",
          "type": "bytes32[]"
        },
        {
          "internalType": "bytes32",
          "name": "_headerId",
          "type": "bytes32"
        },
        {
          "internalType": "bytes32",
          "name": "_appRoot",
          "type": "bytes32"
        }
      ],
      "name": "enterHere",
      "outputs": [],
      "stateMutability": "payable",
      "type": "function"
    },
    {
      "inputs": [
        {
          "internalType": "address",
          "name": "_asset",
          "type": "address"
        },
        {
          "internalType": "uint256",
          "name": "_amount",
          "type": "uint256"
        }
      ],
      "name": "exitHere",
      "outputs": [],
      "stateMutability": "nonpayable",
      "type": "function"
    },
    {
      "inputs": [
        {
          "internalType": "bytes32",
          "name": "",
          "type": "bytes32"
        }
      ],
      "name": "exitLeafsHere",
      "outputs": [
        {
          "internalType": "bytes32",
          "name": "previousLeaf",
          "type": "bytes32"
        },
        {
          "internalType": "bytes32",
          "name": "nextLeaf",
          "type": "bytes32"
        },
        {
          "internalType": "address",
          "name": "account",
          "type": "address"
        },
        {
          "internalType": "uint32",
          "name": "assetId",
          "type": "uint32"
        },
        {
          "internalType": "uint256",
          "name": "points",
          "type": "uint256"
        }
      ],
      "stateMutability": "view",
      "type": "function"
    },
    {
      "inputs": [],
      "name": "exitsLastEpochCount",
      "outputs": [
        {
          "internalType": "uint256",
          "name": "",
          "type": "uint256"
        }
      ],
      "stateMutability": "view",
      "type": "function"
    },
    {
      "inputs": [],
      "name": "exitsThisEpochCount",
      "outputs": [
        {
          "internalType": "uint256",
          "name": "",
          "type": "uint256"
        }
      ],
      "stateMutability": "view",
      "type": "function"
    },
    {
      "inputs": [],
      "name": "getCurrentAppRoot",
      "outputs": [
        {
          "internalType": "bytes32",
          "name": "",
          "type": "bytes32"
        }
      ],
      "stateMutability": "view",
      "type": "function"
    },
    {
      "inputs": [],
      "name": "getCurrentEpochExitLeafIds",
      "outputs": [
        {
          "internalType": "bytes32[]",
          "name": "",
          "type": "bytes32[]"
        }
      ],
      "stateMutability": "view",
      "type": "function"
    },
    {
      "inputs": [
        {
          "internalType": "bytes32",
          "name": "_leafId",
          "type": "bytes32"
        }
      ],
      "name": "getExitLeaf",
      "outputs": [
        {
          "components": [
            {
              "internalType": "bytes32",
              "name": "previousLeaf",
              "type": "bytes32"
            },
            {
              "internalType": "bytes32",
              "name": "nextLeaf",
              "type": "bytes32"
            },
            {
              "internalType": "address",
              "name": "account",
              "type": "address"
            },
            {
              "internalType": "uint32",
              "name": "assetId",
              "type": "uint32"
            },
            {
              "internalType": "uint256",
              "name": "points",
              "type": "uint256"
            }
          ],
          "internalType": "struct RemoteLiquidityWell.ExitLeaf",
          "name": "",
          "type": "tuple"
        }
      ],
      "stateMutability": "view",
      "type": "function"
    },
    {
      "inputs": [],
      "name": "getPreviousEpochExitLeafIds",
      "outputs": [
        {
          "internalType": "bytes32[]",
          "name": "",
          "type": "bytes32[]"
        }
      ],
      "stateMutability": "view",
      "type": "function"
    },
    {
      "inputs": [
        {
          "internalType": "bytes32",
          "name": "role",
          "type": "bytes32"
        }
      ],
      "name": "getRoleAdmin",
      "outputs": [
        {
          "internalType": "bytes32",
          "name": "",
          "type": "bytes32"
        }
      ],
      "stateMutability": "view",
      "type": "function"
    },
    {
      "inputs": [
        {
          "internalType": "bytes32",
          "name": "role",
          "type": "bytes32"
        },
        {
          "internalType": "address",
          "name": "account",
          "type": "address"
        }
      ],
      "name": "grantRole",
      "outputs": [],
      "stateMutability": "nonpayable",
      "type": "function"
    },
    {
      "inputs": [
        {
          "internalType": "bytes32",
          "name": "role",
          "type": "bytes32"
        },
        {
          "internalType": "address",
          "name": "account",
          "type": "address"
        }
      ],
      "name": "hasRole",
      "outputs": [
        {
          "internalType": "bool",
          "name": "",
          "type": "bool"
        }
      ],
      "stateMutability": "view",
      "type": "function"
    },
    {
      "inputs": [
        {
          "internalType": "address",
          "name": "_owner",
          "type": "address"
        }
      ],
      "name": "initialize",
      "outputs": [],
      "stateMutability": "nonpayable",
      "type": "function"
    },
    {
      "inputs": [
        {
          "internalType": "bytes32",
          "name": "",
          "type": "bytes32"
        }
      ],
      "name": "leafIdEntersHere",
      "outputs": [
        {
          "internalType": "bool",
          "name": "",
          "type": "bool"
        }
      ],
      "stateMutability": "view",
      "type": "function"
    },
    {
      "inputs": [],
      "name": "lightClient",
      "outputs": [
        {
          "internalType": "contract AttestedLightClient",
          "name": "",
          "type": "address"
        }
      ],
      "stateMutability": "view",
      "type": "function"
    },
    {
      "inputs": [],
      "name": "liquidityWell",
      "outputs": [
        {
          "internalType": "contract LiquidityWell",
          "name": "",
          "type": "address"
        }
      ],
      "stateMutability": "view",
      "type": "function"
    },
    {
      "inputs": [],
      "name": "newestExitLeafIdLastEpoch",
      "outputs": [
        {
          "internalType": "bytes32",
          "name": "",
          "type": "bytes32"
        }
      ],
      "stateMutability": "view",
      "type": "function"
    },
    {
      "inputs": [],
      "name": "newestExitLeafIdThisEpoch",
      "outputs": [
        {
          "internalType": "bytes32",
          "name": "",
          "type": "bytes32"
        }
      ],
      "stateMutability": "view",
      "type": "function"
    },
    {
      "inputs": [],
      "name": "oldestExitLeafIdLastEpoch",
      "outputs": [
        {
          "internalType": "bytes32",
          "name": "",
          "type": "bytes32"
        }
      ],
      "stateMutability": "view",
      "type": "function"
    },
    {
      "inputs": [],
      "name": "oldestExitLeafIdThisEpoch",
      "outputs": [
        {
          "internalType": "bytes32",
          "name": "",
          "type": "bytes32"
        }
      ],
      "stateMutability": "view",
      "type": "function"
    },
    {
      "inputs": [
        {
          "internalType": "bytes32",
          "name": "role",
          "type": "bytes32"
        },
        {
          "internalType": "address",
          "name": "account",
          "type": "address"
        }
      ],
      "name": "renounceRole",
      "outputs": [],
      "stateMutability": "nonpayable",
      "type": "function"
    },
    {
      "inputs": [
        {
          "internalType": "bytes32",
          "name": "role",
          "type": "bytes32"
        },
        {
          "internalType": "address",
          "name": "account",
          "type": "address"
        }
      ],
      "name": "revokeRole",
      "outputs": [],
      "stateMutability": "nonpayable",
      "type": "function"
    },
    {
      "inputs": [
        {
          "internalType": "address payable",
          "name": "_lightClient",
          "type": "address"
        }
      ],
      "name": "setLightClient",
      "outputs": [],
      "stateMutability": "nonpayable",
      "type": "function"
    },
    {
      "inputs": [
        {
          "internalType": "address payable",
          "name": "_liquidityWell",
          "type": "address"
        }
      ],
      "name": "setLiquidityWell",
      "outputs": [],
      "stateMutability": "nonpayable",
      "type": "function"
    },
    {
      "inputs": [
        {
          "internalType": "bytes32",
          "name": "_version",
          "type": "bytes32"
        }
      ],
      "name": "setVersion",
      "outputs": [],
      "stateMutability": "nonpayable",
      "type": "function"
    },
    {
      "inputs": [
        {
          "internalType": "bytes4",
          "name": "interfaceId",
          "type": "bytes4"
        }
      ],
      "name": "supportsInterface",
      "outputs": [
        {
          "internalType": "bool",
          "name": "",
          "type": "bool"
        }
      ],
      "stateMutability": "view",
      "type": "function"
    },
    {
      "inputs": [
        {
          "internalType": "bytes32",
          "name": "_leafId",
          "type": "bytes32"
        },
        {
          "internalType": "bytes32",
          "name": "_appRoot",
          "type": "bytes32"
        },
        {
          "internalType": "bytes32[]",
          "name": "_inclusionProof",
          "type": "bytes32[]"
        }
      ],
      "name": "verifyAgainstRoot",
      "outputs": [
        {
          "internalType": "bool",
          "name": "",
          "type": "bool"
        }
      ],
      "stateMutability": "view",
      "type": "function"
    },
    {
      "inputs": [],
      "name": "version",
      "outputs": [
        {
          "internalType": "bytes32",
          "name": "",
          "type": "bytes32"
        }
      ],
      "stateMutability": "view",
      "type": "function"
    },
    {
      "stateMutability": "payable",
      "type": "receive"
    }
  ],
  "bytecode": "0x60806040523480156200001157600080fd5b50620000226200002860201b60201c565b620001d2565b600060019054906101000a900460ff16156200007b576040517f08c379a0000000000000000000000000000000000000000000000000000000008152600401620000729062000175565b60405180910390fd5b60ff801660008054906101000a900460ff1660ff1614620000ec5760ff6000806101000a81548160ff021916908360ff1602179055507f7f26b83ff96e1f2b6a682f133852f6798a09c465da95921460cefb384740249860ff604051620000e39190620001b5565b60405180910390a15b565b600082825260208201905092915050565b7f496e697469616c697a61626c653a20636f6e747261637420697320696e69746960008201527f616c697a696e6700000000000000000000000000000000000000000000000000602082015250565b60006200015d602783620000ee565b91506200016a82620000ff565b604082019050919050565b6000602082019050818103600083015262000190816200014e565b9050919050565b600060ff82169050919050565b620001af8162000197565b82525050565b6000602082019050620001cc6000830184620001a4565b92915050565b6132db80620001e26000396000f3fe6080604052600436106101f25760003560e01c806391d148541161010d578063ca5f81b5116100a0578063e2b4f20f1161006f578063e2b4f20f14610712578063e8b002191461073d578063ebd6350c14610768578063f9d19972146107a5578063fbcacc41146107e2576101f9565b8063ca5f81b51461066a578063cd1c122814610693578063d0444c97146106be578063d547741f146106e9576101f9565b8063afc55296116100dc578063afc55296146105c2578063b5700e68146105eb578063bcd6175f14610616578063c4d66de814610641576101f9565b806391d14854146104f2578063a217fddf1461052f578063a50c82fe1461055a578063ae6720a514610597576101f9565b806336568abe116101855780633e553bab116101545780633e553bab1461042057806354eb4b291461044957806354fd4d501461048a5780636d54c084146104b5576101f9565b806336568abe1461038557806336b7c9e7146103ae5780633b5a8ddf146103ca5780633df9544e146103f5576101f9565b80631ca2736f116101c15780631ca2736f146102c9578063248a9ca3146102f45780632f2ff15d146103315780633270c0141461035a576101f9565b806301ffc9a7146101fb57806305ad10f9146102385780630c728ed61461024f57806316920aa51461028c576101f9565b366101f957005b005b34801561020757600080fd5b50610222600480360381019061021d9190611f7a565b61080b565b60405161022f9190611fc2565b60405180910390f35b34801561024457600080fd5b5061024d610885565b005b34801561025b57600080fd5b5061027660048036038101906102719190612013565b610962565b6040516102839190612130565b60405180910390f35b34801561029857600080fd5b506102b360048036038101906102ae9190612013565b610a29565b6040516102c0919061215a565b60405180910390f35b3480156102d557600080fd5b506102de610a7f565b6040516102eb9190612224565b60405180910390f35b34801561030057600080fd5b5061031b60048036038101906103169190612013565b610b3c565b604051610328919061215a565b60405180910390f35b34801561033d57600080fd5b5061035860048036038101906103539190612272565b610b5c565b005b34801561036657600080fd5b5061036f610b7d565b60405161037c919061215a565b60405180910390f35b34801561039157600080fd5b506103ac60048036038101906103a79190612272565b610c76565b005b6103c860048036038101906103c39190612463565b610cf9565b005b3480156103d657600080fd5b506103df610ff6565b6040516103ec9190612509565b60405180910390f35b34801561040157600080fd5b5061040a610ffc565b604051610417919061215a565b60405180910390f35b34801561042c57600080fd5b5061044760048036038101906104429190612562565b611002565b005b34801561045557600080fd5b50610470600480360381019061046b9190612013565b611092565b6040516104819594939291906125ad565b60405180910390f35b34801561049657600080fd5b5061049f6110f8565b6040516104ac919061215a565b60405180910390f35b3480156104c157600080fd5b506104dc60048036038101906104d79190612013565b6110fe565b6040516104e99190611fc2565b60405180910390f35b3480156104fe57600080fd5b5061051960048036038101906105149190612272565b61111e565b6040516105269190611fc2565b60405180910390f35b34801561053b57600080fd5b50610544611189565b604051610551919061215a565b60405180910390f35b34801561056657600080fd5b50610581600480360381019061057c9190612600565b611190565b60405161058e9190611fc2565b60405180910390f35b3480156105a357600080fd5b506105ac6111b3565b6040516105b9919061215a565b60405180910390f35b3480156105ce57600080fd5b506105e960048036038101906105e4919061266f565b6111b9565b005b3480156105f757600080fd5b5061060061141a565b60405161060d919061270e565b60405180910390f35b34801561062257600080fd5b5061062b611440565b604051610638919061215a565b60405180910390f35b34801561064d57600080fd5b5061066860048036038101906106639190612729565b611446565b005b34801561067657600080fd5b50610691600480360381019061068c9190612013565b611592565b005b34801561069f57600080fd5b506106a86115e8565b6040516106b5919061215a565b60405180910390f35b3480156106ca57600080fd5b506106d36115ee565b6040516106e09190612224565b60405180910390f35b3480156106f557600080fd5b50610710600480360381019061070b9190612272565b6116ab565b005b34801561071e57600080fd5b506107276116cc565b6040516107349190612789565b60405180910390f35b34801561074957600080fd5b506107526116f2565b60405161075f9190612509565b60405180910390f35b34801561077457600080fd5b5061078f600480360381019061078a91906127a4565b6116f8565b60405161079c9190612130565b60405180910390f35b3480156107b157600080fd5b506107cc60048036038101906107c791906127a4565b611752565b6040516107d9919061215a565b60405180910390f35b3480156107ee57600080fd5b5061080960048036038101906108049190612562565b6117d9565b005b60007f7965db0b000000000000000000000000000000000000000000000000000000007bffffffffffffffffffffffffffffffffffffffffffffffffffffffff1916827bffffffffffffffffffffffffffffffffffffffffffffffffffffffff1916148061087e575061087d82611869565b5b9050919050565b6108926000801b3361111e565b806108ea575060a160009054906101000a900473ffffffffffffffffffffffffffffffffffffffff1673ffffffffffffffffffffffffffffffffffffffff163373ffffffffffffffffffffffffffffffffffffffff16145b610929576040517f08c379a00000000000000000000000000000000000000000000000000000000081526004016109209061287a565b60405180910390fd5b609954609a81905550609b54609c81905550609d54609e819055506000801b6099819055506000801b609b819055506000609d81905550565b61096a611ebd565b609760008381526020019081526020016000206040518060a001604052908160008201548152602001600182015481526020016002820160009054906101000a900473ffffffffffffffffffffffffffffffffffffffff1673ffffffffffffffffffffffffffffffffffffffff1673ffffffffffffffffffffffffffffffffffffffff1681526020016002820160149054906101000a900463ffffffff1663ffffffff1663ffffffff1681526020016003820154815250509050919050565b600081604051602001610a3c919061215a565b60405160208183030381529060405280519060200120604051602001610a6291906128bb565b604051602081830303815290604052805190602001209050919050565b60606000609d5467ffffffffffffffff811115610a9f57610a9e612320565b5b604051908082528060200260200182016040528015610acd5781602001602082028036833780820191505090505b5090506000609954905060005b609d54811015610b335781838281518110610af857610af76128d6565b5b602002602001018181525050609760008381526020019081526020016000206001015491506000801b820315610b3357806001019050610ada565b50819250505090565b600060656000838152602001908152602001600020600101549050919050565b610b6582610b3c565b610b6e816118d3565b610b7883836118e7565b505050565b60008073ffffffffffffffffffffffffffffffffffffffff1660a160009054906101000a900473ffffffffffffffffffffffffffffffffffffffff1673ffffffffffffffffffffffffffffffffffffffff1603610bdf576000801b9050610c73565b60a160009054906101000a900473ffffffffffffffffffffffffffffffffffffffff1673ffffffffffffffffffffffffffffffffffffffff16633270c0146040518163ffffffff1660e01b8152600401602060405180830381865afa158015610c4c573d6000803e3d6000fd5b505050506040513d601f19601f82011682018060405250810190610c70919061291a565b90505b90565b610c7e6119c8565b73ffffffffffffffffffffffffffffffffffffffff168173ffffffffffffffffffffffffffffffffffffffff1614610ceb576040517f08c379a0000000000000000000000000000000000000000000000000000000008152600401610ce2906129b9565b60405180910390fd5b610cf582826119d0565b5050565b600060a060009054906101000a900473ffffffffffffffffffffffffffffffffffffffff1673ffffffffffffffffffffffffffffffffffffffff1663b0831697876040518263ffffffff1660e01b8152600401610d5691906129d9565b602060405180830381865afa158015610d73573d6000803e3d6000fd5b505050506040513d601f19601f82011682018060405250810190610d979190612a09565b905060a160009054906101000a900473ffffffffffffffffffffffffffffffffffffffff1673ffffffffffffffffffffffffffffffffffffffff16638749d96084846040518363ffffffff1660e01b8152600401610df6929190612a36565b602060405180830381865afa158015610e13573d6000803e3d6000fd5b505050506040513d601f19601f82011682018060405250810190610e379190612a8b565b610e76576040517f08c379a0000000000000000000000000000000000000000000000000000000008152600401610e6d90612b04565b60405180910390fd5b6000610e83338789611752565b9050610e90818487611190565b610ecf576040517f08c379a0000000000000000000000000000000000000000000000000000000008152600401610ec690612b70565b60405180910390fd5b6098600082815260200190815260200160002060009054906101000a900460ff1615610f30576040517f08c379a0000000000000000000000000000000000000000000000000000000008152600401610f2790612bdc565b60405180910390fd5b60016098600083815260200190815260200160002060006101000a81548160ff02191690831515021790555060a060009054906101000a900473ffffffffffffffffffffffffffffffffffffffff1673ffffffffffffffffffffffffffffffffffffffff1663593bbff68388336040518463ffffffff1660e01b8152600401610fbb93929190612bfc565b600060405180830381600087803b158015610fd557600080fd5b505af1158015610fe9573d6000803e3d6000fd5b5050505050505050505050565b609d5481565b609a5481565b61100f6000801b3361111e565b61104e576040517f08c379a000000000000000000000000000000000000000000000000000000000815260040161104590612ca5565b60405180910390fd5b8060a160006101000a81548173ffffffffffffffffffffffffffffffffffffffff021916908373ffffffffffffffffffffffffffffffffffffffff16021790555050565b60976020528060005260406000206000915090508060000154908060010154908060020160009054906101000a900473ffffffffffffffffffffffffffffffffffffffff16908060020160149054906101000a900463ffffffff16908060030154905085565b609f5481565b60986020528060005260406000206000915054906101000a900460ff1681565b60006065600084815260200190815260200160002060000160008373ffffffffffffffffffffffffffffffffffffffff1673ffffffffffffffffffffffffffffffffffffffff16815260200190815260200160002060009054906101000a900460ff16905092915050565b6000801b81565b60008061119c85610a29565b90506111a9838583611ab2565b9150509392505050565b609c5481565b60a060009054906101000a900473ffffffffffffffffffffffffffffffffffffffff1673ffffffffffffffffffffffffffffffffffffffff16637f4cf2618383336040518463ffffffff1660e01b815260040161121893929190612bfc565b600060405180830381600087803b15801561123257600080fd5b505af1158015611246573d6000803e3d6000fd5b50505050600060a060009054906101000a900473ffffffffffffffffffffffffffffffffffffffff1673ffffffffffffffffffffffffffffffffffffffff1663a4eaa712846040518263ffffffff1660e01b81526004016112a79190612cc5565b602060405180830381865afa1580156112c4573d6000803e3d6000fd5b505050506040513d601f19601f820116820180604052508101906112e89190612cf5565b905060006112f7338484611752565b905060006113063385856116f8565b90506000801b60995403611327578160998190555081609b81905550611351565b8160976000609b54815260200190815260200160002060010181905550609b548160000181815250505b81609b819055508060976000848152602001908152602001600020600082015181600001556020820151816001015560408201518160020160006101000a81548173ffffffffffffffffffffffffffffffffffffffff021916908373ffffffffffffffffffffffffffffffffffffffff16021790555060608201518160020160146101000a81548163ffffffff021916908363ffffffff16021790555060808201518160030155905050609d600081548092919061140e90612d51565b91905055505050505050565b60a160009054906101000a900473ffffffffffffffffffffffffffffffffffffffff1681565b60995481565b60008060019054906101000a900460ff161590508080156114775750600160008054906101000a900460ff1660ff16105b806114a4575061148630611ac9565b1580156114a35750600160008054906101000a900460ff1660ff16145b5b6114e3576040517f08c379a00000000000000000000000000000000000000000000000000000000081526004016114da90612e0b565b60405180910390fd5b60016000806101000a81548160ff021916908360ff1602179055508015611520576001600060016101000a81548160ff0219169083151502179055505b611528611aec565b6115356000801b836118e7565b801561158e5760008060016101000a81548160ff0219169083151502179055507f7f26b83ff96e1f2b6a682f133852f6798a09c465da95921460cefb384740249860016040516115859190612e73565b60405180910390a15b5050565b61159f6000801b3361111e565b6115de576040517f08c379a00000000000000000000000000000000000000000000000000000000081526004016115d590612ca5565b60405180910390fd5b80609f8190555050565b609b5481565b60606000609e5467ffffffffffffffff81111561160e5761160d612320565b5b60405190808252806020026020018201604052801561163c5781602001602082028036833780820191505090505b5090506000609a54905060005b609e548110156116a25781838281518110611667576116666128d6565b5b602002602001018181525050609760008381526020019081526020016000206001015491506000801b8203156116a257806001019050611649565b50819250505090565b6116b482610b3c565b6116bd816118d3565b6116c783836119d0565b505050565b60a060009054906101000a900473ffffffffffffffffffffffffffffffffffffffff1681565b609e5481565b611700611ebd565b6040518060a001604052806000801b81526020016000801b81526020018573ffffffffffffffffffffffffffffffffffffffff1681526020018363ffffffff1681526020018481525090509392505050565b60008084848460405160200161176a93929190612f2d565b60405160208183030381529060405280519060200120905080604051602001611793919061215a565b604051602081830303815290604052805190602001206040516020016117b991906128bb565b604051602081830303815290604052805190602001209150509392505050565b6117e66000801b3361111e565b611825576040517f08c379a000000000000000000000000000000000000000000000000000000000815260040161181c90612ca5565b60405180910390fd5b8060a060006101000a81548173ffffffffffffffffffffffffffffffffffffffff021916908373ffffffffffffffffffffffffffffffffffffffff16021790555050565b60007f01ffc9a7000000000000000000000000000000000000000000000000000000007bffffffffffffffffffffffffffffffffffffffffffffffffffffffff1916827bffffffffffffffffffffffffffffffffffffffffffffffffffffffff1916149050919050565b6118e4816118df6119c8565b611b3d565b50565b6118f1828261111e565b6119c45760016065600084815260200190815260200160002060000160008373ffffffffffffffffffffffffffffffffffffffff1673ffffffffffffffffffffffffffffffffffffffff16815260200190815260200160002060006101000a81548160ff0219169083151502179055506119696119c8565b73ffffffffffffffffffffffffffffffffffffffff168173ffffffffffffffffffffffffffffffffffffffff16837f2f8788117e7eff1d82e926ec794901d17c78024a50270940304540a733656f0d60405160405180910390a45b5050565b600033905090565b6119da828261111e565b15611aae5760006065600084815260200190815260200160002060000160008373ffffffffffffffffffffffffffffffffffffffff1673ffffffffffffffffffffffffffffffffffffffff16815260200190815260200160002060006101000a81548160ff021916908315150217905550611a536119c8565b73ffffffffffffffffffffffffffffffffffffffff168173ffffffffffffffffffffffffffffffffffffffff16837ff6391f5c32d9c69d2a47ea670b442974b53935d1edc7fd64eb21e047a839171b60405160405180910390a45b5050565b600082611abf8584611bc2565b1490509392505050565b6000808273ffffffffffffffffffffffffffffffffffffffff163b119050919050565b600060019054906101000a900460ff16611b3b576040517f08c379a0000000000000000000000000000000000000000000000000000000008152600401611b3290612fdc565b60405180910390fd5b565b611b47828261111e565b611bbe57611b5481611c12565b611b628360001c6020611c3f565b604051602001611b73929190613105565b6040516020818303038152906040526040517f08c379a0000000000000000000000000000000000000000000000000000000008152600401611bb59190613178565b60405180910390fd5b5050565b60008082905060005b8451811015611c0757611bf882868381518110611beb57611bea6128d6565b5b6020026020010151611e7b565b91508080600101915050611bcb565b508091505092915050565b6060611c388273ffffffffffffffffffffffffffffffffffffffff16601460ff16611c3f565b9050919050565b606060006002836002611c52919061319a565b611c5c91906131dc565b67ffffffffffffffff811115611c7557611c74612320565b5b6040519080825280601f01601f191660200182016040528015611ca75781602001600182028036833780820191505090505b5090507f300000000000000000000000000000000000000000000000000000000000000081600081518110611cdf57611cde6128d6565b5b60200101907effffffffffffffffffffffffffffffffffffffffffffffffffffffffffffff1916908160001a9053507f780000000000000000000000000000000000000000000000000000000000000081600181518110611d4357611d426128d6565b5b60200101907effffffffffffffffffffffffffffffffffffffffffffffffffffffffffffff1916908160001a90535060006001846002611d83919061319a565b611d8d91906131dc565b90505b6001811115611e2d577f3031323334353637383961626364656600000000000000000000000000000000600f861660108110611dcf57611dce6128d6565b5b1a60f81b828281518110611de657611de56128d6565b5b60200101907effffffffffffffffffffffffffffffffffffffffffffffffffffffffffffff1916908160001a905350600485901c945080611e2690613210565b9050611d90565b5060008414611e71576040517f08c379a0000000000000000000000000000000000000000000000000000000008152600401611e6890613285565b60405180910390fd5b8091505092915050565b6000818310611e9357611e8e8284611ea6565b611e9e565b611e9d8383611ea6565b5b905092915050565b600082600052816020526040600020905092915050565b6040518060a001604052806000801916815260200160008019168152602001600073ffffffffffffffffffffffffffffffffffffffff168152602001600063ffffffff168152602001600081525090565b6000604051905090565b600080fd5b600080fd5b60007fffffffff0000000000000000000000000000000000000000000000000000000082169050919050565b611f5781611f22565b8114611f6257600080fd5b50565b600081359050611f7481611f4e565b92915050565b600060208284031215611f9057611f8f611f18565b5b6000611f9e84828501611f65565b91505092915050565b60008115159050919050565b611fbc81611fa7565b82525050565b6000602082019050611fd76000830184611fb3565b92915050565b6000819050919050565b611ff081611fdd565b8114611ffb57600080fd5b50565b60008135905061200d81611fe7565b92915050565b60006020828403121561202957612028611f18565b5b600061203784828501611ffe565b91505092915050565b61204981611fdd565b82525050565b600073ffffffffffffffffffffffffffffffffffffffff82169050919050565b600061207a8261204f565b9050919050565b61208a8161206f565b82525050565b600063ffffffff82169050919050565b6120a981612090565b82525050565b6000819050919050565b6120c2816120af565b82525050565b60a0820160008201516120de6000850182612040565b5060208201516120f16020850182612040565b5060408201516121046040850182612081565b50606082015161211760608501826120a0565b50608082015161212a60808501826120b9565b50505050565b600060a08201905061214560008301846120c8565b92915050565b61215481611fdd565b82525050565b600060208201905061216f600083018461214b565b92915050565b600081519050919050565b600082825260208201905092915050565b6000819050602082019050919050565b60006121ad8383612040565b60208301905092915050565b6000602082019050919050565b60006121d182612175565b6121db8185612180565b93506121e683612191565b8060005b838110156122175781516121fe88826121a1565b9750612209836121b9565b9250506001810190506121ea565b5085935050505092915050565b6000602082019050818103600083015261223e81846121c6565b905092915050565b61224f8161206f565b811461225a57600080fd5b50565b60008135905061226c81612246565b92915050565b6000806040838503121561228957612288611f18565b5b600061229785828601611ffe565b92505060206122a88582860161225d565b9150509250929050565b6122bb81612090565b81146122c657600080fd5b50565b6000813590506122d8816122b2565b92915050565b6122e7816120af565b81146122f257600080fd5b50565b600081359050612304816122de565b92915050565b600080fd5b6000601f19601f8301169050919050565b7f4e487b7100000000000000000000000000000000000000000000000000000000600052604160045260246000fd5b6123588261230f565b810181811067ffffffffffffffff8211171561237757612376612320565b5b80604052505050565b600061238a611f0e565b9050612396828261234f565b919050565b600067ffffffffffffffff8211156123b6576123b5612320565b5b602082029050602081019050919050565b600080fd5b60006123df6123da8461239b565b612380565b90508083825260208201905060208402830185811115612402576124016123c7565b5b835b8181101561242b57806124178882611ffe565b845260208401935050602081019050612404565b5050509392505050565b600082601f83011261244a5761244961230a565b5b813561245a8482602086016123cc565b91505092915050565b600080600080600060a0868803121561247f5761247e611f18565b5b600061248d888289016122c9565b955050602061249e888289016122f5565b945050604086013567ffffffffffffffff8111156124bf576124be611f1d565b5b6124cb88828901612435565b93505060606124dc88828901611ffe565b92505060806124ed88828901611ffe565b9150509295509295909350565b612503816120af565b82525050565b600060208201905061251e60008301846124fa565b92915050565b600061252f8261204f565b9050919050565b61253f81612524565b811461254a57600080fd5b50565b60008135905061255c81612536565b92915050565b60006020828403121561257857612577611f18565b5b60006125868482850161254d565b91505092915050565b6125988161206f565b82525050565b6125a781612090565b82525050565b600060a0820190506125c2600083018861214b565b6125cf602083018761214b565b6125dc604083018661258f565b6125e9606083018561259e565b6125f660808301846124fa565b9695505050505050565b60008060006060848603121561261957612618611f18565b5b600061262786828701611ffe565b935050602061263886828701611ffe565b925050604084013567ffffffffffffffff81111561265957612658611f1d565b5b61266586828701612435565b9150509250925092565b6000806040838503121561268657612685611f18565b5b60006126948582860161225d565b92505060206126a5858286016122f5565b9150509250929050565b6000819050919050565b60006126d46126cf6126ca8461204f565b6126af565b61204f565b9050919050565b60006126e6826126b9565b9050919050565b60006126f8826126db565b9050919050565b612708816126ed565b82525050565b600060208201905061272360008301846126ff565b92915050565b60006020828403121561273f5761273e611f18565b5b600061274d8482850161225d565b91505092915050565b6000612761826126b9565b9050919050565b600061277382612756565b9050919050565b61278381612768565b82525050565b600060208201905061279e600083018461277a565b92915050565b6000806000606084860312156127bd576127bc611f18565b5b60006127cb8682870161225d565b93505060206127dc868287016122f5565b92505060406127ed868287016122c9565b9150509250925092565b600082825260208201905092915050565b7f4f6e6c79206f776e6572206f72206c6967687420636c69656e742063616e206360008201527f616c6c20746869732066756e6374696f6e000000000000000000000000000000602082015250565b60006128646031836127f7565b915061286f82612808565b604082019050919050565b6000602082019050818103600083015261289381612857565b9050919050565b6000819050919050565b6128b56128b082611fdd565b61289a565b82525050565b60006128c782846128a4565b60208201915081905092915050565b7f4e487b7100000000000000000000000000000000000000000000000000000000600052603260045260246000fd5b60008151905061291481611fe7565b92915050565b6000602082840312156129305761292f611f18565b5b600061293e84828501612905565b91505092915050565b7f416363657373436f6e74726f6c3a2063616e206f6e6c792072656e6f756e636560008201527f20726f6c657320666f722073656c660000000000000000000000000000000000602082015250565b60006129a3602f836127f7565b91506129ae82612947565b604082019050919050565b600060208201905081810360008301526129d281612996565b9050919050565b60006020820190506129ee600083018461259e565b92915050565b600081519050612a0381612246565b92915050565b600060208284031215612a1f57612a1e611f18565b5b6000612a2d848285016129f4565b91505092915050565b6000604082019050612a4b600083018561214b565b612a58602083018461214b565b9392505050565b612a6881611fa7565b8114612a7357600080fd5b50565b600081519050612a8581612a5f565b92915050565b600060208284031215612aa157612aa0611f18565b5b6000612aaf84828501612a76565b91505092915050565b7f524c572331000000000000000000000000000000000000000000000000000000600082015250565b6000612aee6005836127f7565b9150612af982612ab8565b602082019050919050565b60006020820190508181036000830152612b1d81612ae1565b9050919050565b7f524c572332000000000000000000000000000000000000000000000000000000600082015250565b6000612b5a6005836127f7565b9150612b6582612b24565b602082019050919050565b60006020820190508181036000830152612b8981612b4d565b9050919050565b7f524c572333000000000000000000000000000000000000000000000000000000600082015250565b6000612bc66005836127f7565b9150612bd182612b90565b602082019050919050565b60006020820190508181036000830152612bf581612bb9565b9050919050565b6000606082019050612c11600083018661258f565b612c1e60208301856124fa565b612c2b604083018461258f565b949350505050565b7f4f6e6c79206f776e65722063616e2063616c6c20746869732066756e6374696f60008201527f6e00000000000000000000000000000000000000000000000000000000000000602082015250565b6000612c8f6021836127f7565b9150612c9a82612c33565b604082019050919050565b60006020820190508181036000830152612cbe81612c82565b9050919050565b6000602082019050612cda600083018461258f565b92915050565b600081519050612cef816122b2565b92915050565b600060208284031215612d0b57612d0a611f18565b5b6000612d1984828501612ce0565b91505092915050565b7f4e487b7100000000000000000000000000000000000000000000000000000000600052601160045260246000fd5b6000612d5c826120af565b91507fffffffffffffffffffffffffffffffffffffffffffffffffffffffffffffffff8203612d8e57612d8d612d22565b5b600182019050919050565b7f496e697469616c697a61626c653a20636f6e747261637420697320616c72656160008201527f647920696e697469616c697a6564000000000000000000000000000000000000602082015250565b6000612df5602e836127f7565b9150612e0082612d99565b604082019050919050565b60006020820190508181036000830152612e2481612de8565b9050919050565b6000819050919050565b600060ff82169050919050565b6000612e5d612e58612e5384612e2b565b6126af565b612e35565b9050919050565b612e6d81612e42565b82525050565b6000602082019050612e886000830184612e64565b92915050565b60008160601b9050919050565b6000612ea682612e8e565b9050919050565b6000612eb882612e9b565b9050919050565b612ed0612ecb8261206f565b612ead565b82525050565b6000819050919050565b612ef1612eec826120af565b612ed6565b82525050565b60008160e01b9050919050565b6000612f0f82612ef7565b9050919050565b612f27612f2282612090565b612f04565b82525050565b6000612f398286612ebf565b601482019150612f498285612ee0565b602082019150612f598284612f16565b600482019150819050949350505050565b7f496e697469616c697a61626c653a20636f6e7472616374206973206e6f74206960008201527f6e697469616c697a696e67000000000000000000000000000000000000000000602082015250565b6000612fc6602b836127f7565b9150612fd182612f6a565b604082019050919050565b60006020820190508181036000830152612ff581612fb9565b9050919050565b600081905092915050565b7f416363657373436f6e74726f6c3a206163636f756e7420000000000000000000600082015250565b600061303d601783612ffc565b915061304882613007565b601782019050919050565b600081519050919050565b60005b8381101561307c578082015181840152602081019050613061565b60008484015250505050565b600061309382613053565b61309d8185612ffc565b93506130ad81856020860161305e565b80840191505092915050565b7f206973206d697373696e6720726f6c6520000000000000000000000000000000600082015250565b60006130ef601183612ffc565b91506130fa826130b9565b601182019050919050565b600061311082613030565b915061311c8285613088565b9150613127826130e2565b91506131338284613088565b91508190509392505050565b600061314a82613053565b61315481856127f7565b935061316481856020860161305e565b61316d8161230f565b840191505092915050565b60006020820190508181036000830152613192818461313f565b905092915050565b60006131a5826120af565b91506131b0836120af565b92508282026131be816120af565b915082820484148315176131d5576131d4612d22565b5b5092915050565b60006131e7826120af565b91506131f2836120af565b925082820190508082111561320a57613209612d22565b5b92915050565b600061321b826120af565b91506000820361322e5761322d612d22565b5b600182039050919050565b7f537472696e67733a20686578206c656e67746820696e73756666696369656e74600082015250565b600061326f6020836127f7565b915061327a82613239565b602082019050919050565b6000602082019050818103600083015261329e81613262565b905091905056fea264697066735822122046d93ec07072dff1aefd693d5d3625c0ab3fffcfb6dbb7690b74d385b81da58b64736f6c63430008180033",
  "linkReferences": {},
  "deployedLinkReferences": {}
}