{
  "_format": "hh-sol-artifact-1",
  "contractName": "RewardToken",
  "sourceName": "contracts/rewardToken.sol",
  "abi": [
    {
      "inputs": [],
      "stateMutability": "nonpayable",
      "type": "constructor"
    },
    {
      "anonymous": false,
      "inputs": [
        {
          "indexed": true,
          "internalType": "address",
          "name": "owner",
          "type": "address"
        },
        {
          "indexed": true,
          "internalType": "address",
          "name": "spender",
          "type": "address"
        },
        {
          "indexed": false,
          "internalType": "uint256",
          "name": "value",
          "type": "uint256"
        }
      ],
      "name": "Approval",
      "type": "event"
    },
    {
      "anonymous": false,
      "inputs": [
        {
          "indexed": false,
          "internalType": "uint8",
          "name": "version",
          "type": "uint8"
        }
      ],
      "name": "Initialized",
      "type": "event"
    },
    {
      "anonymous": false,
      "inputs": [
        {
          "indexed": true,
          "internalType": "address",
          "name": "previousOwner",
          "type": "address"
        },
        {
          "indexed": true,
          "internalType": "address",
          "name": "newOwner",
          "type": "address"
        }
      ],
      "name": "OwnershipTransferred",
      "type": "event"
    },
    {
      "anonymous": false,
      "inputs": [
        {
          "indexed": true,
          "internalType": "address",
          "name": "from",
          "type": "address"
        },
        {
          "indexed": true,
          "internalType": "address",
          "name": "to",
          "type": "address"
        },
        {
          "indexed": false,
          "internalType": "uint256",
          "name": "value",
          "type": "uint256"
        }
      ],
      "name": "Transfer",
      "type": "event"
    },
    {
      "inputs": [],
      "name": "MILLI_DAYS_PER_YEAR",
      "outputs": [
        {
          "internalType": "uint256",
          "name": "",
          "type": "uint256"
        }
      ],
      "stateMutability": "view",
      "type": "function"
    },
    {
      "inputs": [],
      "name": "REBASE_RATE_PER_YEAR",
      "outputs": [
        {
          "internalType": "uint256",
          "name": "",
          "type": "uint256"
        }
      ],
      "stateMutability": "view",
      "type": "function"
    },
    {
      "inputs": [
        {
          "internalType": "address",
          "name": "owner",
          "type": "address"
        },
        {
          "internalType": "address",
          "name": "spender",
          "type": "address"
        }
      ],
      "name": "allowance",
      "outputs": [
        {
          "internalType": "uint256",
          "name": "",
          "type": "uint256"
        }
      ],
      "stateMutability": "view",
      "type": "function"
    },
    {
      "inputs": [
        {
          "internalType": "address",
          "name": "spender",
          "type": "address"
        },
        {
          "internalType": "uint256",
          "name": "amount",
          "type": "uint256"
        }
      ],
      "name": "approve",
      "outputs": [
        {
          "internalType": "bool",
          "name": "",
          "type": "bool"
        }
      ],
      "stateMutability": "nonpayable",
      "type": "function"
    },
    {
      "inputs": [
        {
          "internalType": "address",
          "name": "account",
          "type": "address"
        }
      ],
      "name": "balanceOf",
      "outputs": [
        {
          "internalType": "uint256",
          "name": "",
          "type": "uint256"
        }
      ],
      "stateMutability": "view",
      "type": "function"
    },
    {
      "inputs": [
        {
          "internalType": "address",
          "name": "account",
          "type": "address"
        },
        {
          "internalType": "uint256",
          "name": "amount",
          "type": "uint256"
        }
      ],
      "name": "burnFrom",
      "outputs": [],
      "stateMutability": "nonpayable",
      "type": "function"
    },
    {
      "inputs": [
        {
          "internalType": "address",
          "name": "account",
          "type": "address"
        }
      ],
      "name": "calculateRebaseReward",
      "outputs": [
        {
          "internalType": "uint256",
          "name": "",
          "type": "uint256"
        }
      ],
      "stateMutability": "view",
      "type": "function"
    },
    {
      "inputs": [],
      "name": "decimals",
      "outputs": [
        {
          "internalType": "uint8",
          "name": "",
          "type": "uint8"
        }
      ],
      "stateMutability": "view",
      "type": "function"
    },
    {
      "inputs": [
        {
          "internalType": "address",
          "name": "spender",
          "type": "address"
        },
        {
          "internalType": "uint256",
          "name": "subtractedValue",
          "type": "uint256"
        }
      ],
      "name": "decreaseAllowance",
      "outputs": [
        {
          "internalType": "bool",
          "name": "",
          "type": "bool"
        }
      ],
      "stateMutability": "nonpayable",
      "type": "function"
    },
    {
      "inputs": [
        {
          "internalType": "address",
          "name": "",
          "type": "address"
        }
      ],
      "name": "entryTimestamp",
      "outputs": [
        {
          "internalType": "uint256",
          "name": "",
          "type": "uint256"
        }
      ],
      "stateMutability": "view",
      "type": "function"
    },
    {
      "inputs": [
        {
          "internalType": "address",
          "name": "spender",
          "type": "address"
        },
        {
          "internalType": "uint256",
          "name": "addedValue",
          "type": "uint256"
        }
      ],
      "name": "increaseAllowance",
      "outputs": [
        {
          "internalType": "bool",
          "name": "",
          "type": "bool"
        }
      ],
      "stateMutability": "nonpayable",
      "type": "function"
    },
    {
      "inputs": [
        {
          "internalType": "string",
          "name": "name",
          "type": "string"
        },
        {
          "internalType": "string",
          "name": "symbol",
          "type": "string"
        }
      ],
      "name": "initialize",
      "outputs": [],
      "stateMutability": "nonpayable",
      "type": "function"
    },
    {
      "inputs": [],
      "name": "liquidityWell",
      "outputs": [
        {
          "internalType": "contract LiquidityWell",
          "name": "",
          "type": "address"
        }
      ],
      "stateMutability": "view",
      "type": "function"
    },
    {
      "inputs": [
        {
          "internalType": "address",
          "name": "account",
          "type": "address"
        },
        {
          "internalType": "uint256",
          "name": "amount",
          "type": "uint256"
        }
      ],
      "name": "mint",
      "outputs": [],
      "stateMutability": "nonpayable",
      "type": "function"
    },
    {
      "inputs": [],
      "name": "name",
      "outputs": [
        {
          "internalType": "string",
          "name": "",
          "type": "string"
        }
      ],
      "stateMutability": "view",
      "type": "function"
    },
    {
      "inputs": [],
      "name": "owner",
      "outputs": [
        {
          "internalType": "address",
          "name": "",
          "type": "address"
        }
      ],
      "stateMutability": "view",
      "type": "function"
    },
    {
      "inputs": [
        {
          "internalType": "address",
          "name": "",
          "type": "address"
        }
      ],
      "name": "points",
      "outputs": [
        {
          "internalType": "uint256",
          "name": "",
          "type": "uint256"
        }
      ],
      "stateMutability": "view",
      "type": "function"
    },
    {
      "inputs": [
        {
          "internalType": "address",
          "name": "account",
          "type": "address"
        }
      ],
      "name": "rebase",
      "outputs": [],
      "stateMutability": "nonpayable",
      "type": "function"
    },
    {
      "inputs": [],
      "name": "renounceOwnership",
      "outputs": [],
      "stateMutability": "nonpayable",
      "type": "function"
    },
    {
      "inputs": [
        {
          "internalType": "address",
          "name": "account",
          "type": "address"
        },
        {
          "internalType": "uint256",
          "name": "timestamp",
          "type": "uint256"
        }
      ],
      "name": "setEntryTimestamp",
      "outputs": [],
      "stateMutability": "nonpayable",
      "type": "function"
    },
    {
      "inputs": [
        {
          "internalType": "address payable",
          "name": "_liquidityWell",
          "type": "address"
        }
      ],
      "name": "setLiquidityWell",
      "outputs": [],
      "stateMutability": "nonpayable",
      "type": "function"
    },
    {
      "inputs": [
        {
          "internalType": "address",
          "name": "account",
          "type": "address"
        },
        {
          "internalType": "uint256",
          "name": "_points",
          "type": "uint256"
        }
      ],
      "name": "setPoints",
      "outputs": [],
      "stateMutability": "nonpayable",
      "type": "function"
    },
    {
      "inputs": [
        {
          "internalType": "bytes32",
          "name": "_version",
          "type": "bytes32"
        }
      ],
      "name": "setVersion",
      "outputs": [],
      "stateMutability": "nonpayable",
      "type": "function"
    },
    {
      "inputs": [],
      "name": "symbol",
      "outputs": [
        {
          "internalType": "string",
          "name": "",
          "type": "string"
        }
      ],
      "stateMutability": "view",
      "type": "function"
    },
    {
      "inputs": [],
      "name": "totalSupply",
      "outputs": [
        {
          "internalType": "uint256",
          "name": "",
          "type": "uint256"
        }
      ],
      "stateMutability": "view",
      "type": "function"
    },
    {
      "inputs": [
        {
          "internalType": "address",
          "name": "to",
          "type": "address"
        },
        {
          "internalType": "uint256",
          "name": "amount",
          "type": "uint256"
        }
      ],
      "name": "transfer",
      "outputs": [
        {
          "internalType": "bool",
          "name": "",
          "type": "bool"
        }
      ],
      "stateMutability": "nonpayable",
      "type": "function"
    },
    {
      "inputs": [
        {
          "internalType": "address",
          "name": "from",
          "type": "address"
        },
        {
          "internalType": "address",
          "name": "to",
          "type": "address"
        },
        {
          "internalType": "uint256",
          "name": "amount",
          "type": "uint256"
        }
      ],
      "name": "transferFrom",
      "outputs": [
        {
          "internalType": "bool",
          "name": "",
          "type": "bool"
        }
      ],
      "stateMutability": "nonpayable",
      "type": "function"
    },
    {
      "inputs": [
        {
          "internalType": "address",
          "name": "newOwner",
          "type": "address"
        }
      ],
      "name": "transferOwnership",
      "outputs": [],
      "stateMutability": "nonpayable",
      "type": "function"
    },
    {
      "inputs": [],
      "name": "version",
      "outputs": [
        {
          "internalType": "bytes32",
          "name": "",
          "type": "bytes32"
        }
      ],
      "stateMutability": "view",
      "type": "function"
    }
  ],
  "bytecode": "0x60806040523480156200001157600080fd5b50620000226200002860201b60201c565b620001d2565b600060019054906101000a900460ff16156200007b576040517f08c379a0000000000000000000000000000000000000000000000000000000008152600401620000729062000175565b60405180910390fd5b60ff801660008054906101000a900460ff1660ff1614620000ec5760ff6000806101000a81548160ff021916908360ff1602179055507f7f26b83ff96e1f2b6a682f133852f6798a09c465da95921460cefb384740249860ff604051620000e39190620001b5565b60405180910390a15b565b600082825260208201905092915050565b7f496e697469616c697a61626c653a20636f6e747261637420697320696e69746960008201527f616c697a696e6700000000000000000000000000000000000000000000000000602082015250565b60006200015d602783620000ee565b91506200016a82620000ff565b604082019050919050565b6000602082019050818103600083015262000190816200014e565b9050919050565b600060ff82169050919050565b620001af8162000197565b82525050565b6000602082019050620001cc6000830184620001a4565b92915050565b612e2280620001e26000396000f3fe608060405234801561001057600080fd5b50600436106101cf5760003560e01c806379cc679011610104578063c8126462116100a2578063e2b4f20f11610071578063e2b4f20f14610542578063ed6a7e5a14610560578063f2fde38b14610590578063fbcacc41146105ac576101cf565b8063c8126462146104be578063ca5f81b5146104da578063d0df1374146104f6578063dd62ed3e14610512576101cf565b8063961ae39f116100de578063961ae39f14610422578063a457c2d714610440578063a9059cbb14610470578063c075f07a146104a0576101cf565b806379cc6790146103ca5780638da5cb5b146103e657806395d89b4114610404576101cf565b806339509351116101715780634cd88b761161014b5780634cd88b761461035657806354fd4d501461037257806370a0823114610390578063715018a6146103c0576101cf565b806339509351146102ee5780633bc007a81461031e57806340c10f191461033a576101cf565b8063189c3379116101ad578063189c33791461024057806323b872dd14610270578063313ce567146102a0578063358b8166146102be576101cf565b806306fdde03146101d4578063095ea7b3146101f257806318160ddd14610222575b600080fd5b6101dc6105c8565b6040516101e99190611bc3565b60405180910390f35b61020c60048036038101906102079190611c8d565b61065a565b6040516102199190611ce8565b60405180910390f35b61022a61067d565b6040516102379190611d12565b60405180910390f35b61025a60048036038101906102559190611d2d565b610687565b6040516102679190611d12565b60405180910390f35b61028a60048036038101906102859190611d5a565b610726565b6040516102979190611ce8565b60405180910390f35b6102a8610755565b6040516102b59190611dc9565b60405180910390f35b6102d860048036038101906102d39190611d2d565b61075e565b6040516102e59190611d12565b60405180910390f35b61030860048036038101906103039190611c8d565b610776565b6040516103159190611ce8565b60405180910390f35b61033860048036038101906103339190611c8d565b6107ad565b005b610354600480360381019061034f9190611c8d565b610885565b005b610370600480360381019061036b9190611f19565b610923565b005b61037a610a6d565b6040516103879190611faa565b60405180910390f35b6103aa60048036038101906103a59190611d2d565b610a73565b6040516103b79190611d12565b60405180910390f35b6103c8610abc565b005b6103e460048036038101906103df9190611c8d565b610ad0565b005b6103ee610b6e565b6040516103fb9190611fd4565b60405180910390f35b61040c610b98565b6040516104199190611bc3565b60405180910390f35b61042a610c2a565b6040516104379190611d12565b60405180910390f35b61045a60048036038101906104559190611c8d565b610c30565b6040516104679190611ce8565b60405180910390f35b61048a60048036038101906104859190611c8d565b610ca7565b6040516104979190611ce8565b60405180910390f35b6104a8610cca565b6040516104b59190611d12565b60405180910390f35b6104d860048036038101906104d39190611c8d565b610ccf565b005b6104f460048036038101906104ef919061201b565b610da7565b005b610510600480360381019061050b9190611d2d565b610db9565b005b61052c60048036038101906105279190612048565b610ea8565b6040516105399190611d12565b60405180910390f35b61054a610f2f565b60405161055791906120e7565b60405180910390f35b61057a60048036038101906105759190611d2d565b610f55565b6040516105879190611d12565b60405180910390f35b6105aa60048036038101906105a59190611d2d565b610f6d565b005b6105c660048036038101906105c19190612140565b610ff0565b005b6060603680546105d79061219c565b80601f01602080910402602001604051908101604052809291908181526020018280546106039061219c565b80156106505780601f1061062557610100808354040283529160200191610650565b820191906000526020600020905b81548152906001019060200180831161063357829003601f168201915b5050505050905090565b60008061066561103c565b9050610672818585611044565b600191505092915050565b6000603554905090565b600080609760008473ffffffffffffffffffffffffffffffffffffffff1673ffffffffffffffffffffffffffffffffffffffff16815260200190815260200160002054426106d591906121fc565b9050600062015180826106e8919061225f565b905060006106f585610a73565b9050618ead826001836107089190612290565b6107129190612290565b61071c919061225f565b9350505050919050565b60008061073161103c565b905061073e85828561120d565b610749858585611299565b60019150509392505050565b60006012905090565b60986020528060005260406000206000915090505481565b60008061078161103c565b90506107a28185856107938589610ea8565b61079d91906122d2565b611044565b600191505092915050565b609960009054906101000a900473ffffffffffffffffffffffffffffffffffffffff1673ffffffffffffffffffffffffffffffffffffffff163373ffffffffffffffffffffffffffffffffffffffff161461083d576040517f08c379a000000000000000000000000000000000000000000000000000000000815260040161083490612378565b60405180910390fd5b80609860008473ffffffffffffffffffffffffffffffffffffffff1673ffffffffffffffffffffffffffffffffffffffff168152602001908152602001600020819055505050565b609960009054906101000a900473ffffffffffffffffffffffffffffffffffffffff1673ffffffffffffffffffffffffffffffffffffffff163373ffffffffffffffffffffffffffffffffffffffff1614610915576040517f08c379a000000000000000000000000000000000000000000000000000000000815260040161090c90612378565b60405180910390fd5b61091f8282611512565b5050565b60008060019054906101000a900460ff161590508080156109545750600160008054906101000a900460ff1660ff16105b80610981575061096330611669565b1580156109805750600160008054906101000a900460ff1660ff16145b5b6109c0576040517f08c379a00000000000000000000000000000000000000000000000000000000081526004016109b79061240a565b60405180910390fd5b60016000806101000a81548160ff021916908360ff16021790555080156109fd576001600060016101000a81548160ff0219169083151502179055505b610a07838361168c565b610a0f6116e9565b8015610a685760008060016101000a81548160ff0219169083151502179055507f7f26b83ff96e1f2b6a682f133852f6798a09c465da95921460cefb38474024986001604051610a5f9190612465565b60405180910390a15b505050565b609a5481565b6000603360008373ffffffffffffffffffffffffffffffffffffffff1673ffffffffffffffffffffffffffffffffffffffff168152602001908152602001600020549050919050565b610ac4611742565b610ace60006117c0565b565b609960009054906101000a900473ffffffffffffffffffffffffffffffffffffffff1673ffffffffffffffffffffffffffffffffffffffff163373ffffffffffffffffffffffffffffffffffffffff1614610b60576040517f08c379a0000000000000000000000000000000000000000000000000000000008152600401610b5790612378565b60405180910390fd5b610b6a8282611886565b5050565b6000606560009054906101000a900473ffffffffffffffffffffffffffffffffffffffff16905090565b606060378054610ba79061219c565b80601f0160208091040260200160405190810160405280929190818152602001828054610bd39061219c565b8015610c205780601f10610bf557610100808354040283529160200191610c20565b820191906000526020600020905b815481529060010190602001808311610c0357829003601f168201915b5050505050905090565b618ead81565b600080610c3b61103c565b90506000610c498286610ea8565b905083811015610c8e576040517f08c379a0000000000000000000000000000000000000000000000000000000008152600401610c85906124f2565b60405180910390fd5b610c9b8286868403611044565b60019250505092915050565b600080610cb261103c565b9050610cbf818585611299565b600191505092915050565b600181565b609960009054906101000a900473ffffffffffffffffffffffffffffffffffffffff1673ffffffffffffffffffffffffffffffffffffffff163373ffffffffffffffffffffffffffffffffffffffff1614610d5f576040517f08c379a0000000000000000000000000000000000000000000000000000000008152600401610d5690612378565b60405180910390fd5b80609760008473ffffffffffffffffffffffffffffffffffffffff1673ffffffffffffffffffffffffffffffffffffffff168152602001908152602001600020819055505050565b610daf611742565b80609a8190555050565b609960009054906101000a900473ffffffffffffffffffffffffffffffffffffffff1673ffffffffffffffffffffffffffffffffffffffff163373ffffffffffffffffffffffffffffffffffffffff1614610e49576040517f08c379a0000000000000000000000000000000000000000000000000000000008152600401610e4090612378565b60405180910390fd5b6000610e5482610687565b9050610e608282611512565b42609760008473ffffffffffffffffffffffffffffffffffffffff1673ffffffffffffffffffffffffffffffffffffffff168152602001908152602001600020819055505050565b6000603460008473ffffffffffffffffffffffffffffffffffffffff1673ffffffffffffffffffffffffffffffffffffffff16815260200190815260200160002060008373ffffffffffffffffffffffffffffffffffffffff1673ffffffffffffffffffffffffffffffffffffffff16815260200190815260200160002054905092915050565b609960009054906101000a900473ffffffffffffffffffffffffffffffffffffffff1681565b60976020528060005260406000206000915090505481565b610f75611742565b600073ffffffffffffffffffffffffffffffffffffffff168173ffffffffffffffffffffffffffffffffffffffff1603610fe4576040517f08c379a0000000000000000000000000000000000000000000000000000000008152600401610fdb90612584565b60405180910390fd5b610fed816117c0565b50565b610ff8611742565b80609960006101000a81548173ffffffffffffffffffffffffffffffffffffffff021916908373ffffffffffffffffffffffffffffffffffffffff16021790555050565b600033905090565b600073ffffffffffffffffffffffffffffffffffffffff168373ffffffffffffffffffffffffffffffffffffffff16036110b3576040517f08c379a00000000000000000000000000000000000000000000000000000000081526004016110aa90612616565b60405180910390fd5b600073ffffffffffffffffffffffffffffffffffffffff168273ffffffffffffffffffffffffffffffffffffffff1603611122576040517f08c379a0000000000000000000000000000000000000000000000000000000008152600401611119906126a8565b60405180910390fd5b80603460008573ffffffffffffffffffffffffffffffffffffffff1673ffffffffffffffffffffffffffffffffffffffff16815260200190815260200160002060008473ffffffffffffffffffffffffffffffffffffffff1673ffffffffffffffffffffffffffffffffffffffff168152602001908152602001600020819055508173ffffffffffffffffffffffffffffffffffffffff168373ffffffffffffffffffffffffffffffffffffffff167f8c5be1e5ebec7d5bd14f71427d1e84f3dd0314c0f7b2291e5b200ac8c7c3b925836040516112009190611d12565b60405180910390a3505050565b60006112198484610ea8565b90507fffffffffffffffffffffffffffffffffffffffffffffffffffffffffffffffff81146112935781811015611285576040517f08c379a000000000000000000000000000000000000000000000000000000000815260040161127c90612714565b60405180910390fd5b6112928484848403611044565b5b50505050565b600073ffffffffffffffffffffffffffffffffffffffff168373ffffffffffffffffffffffffffffffffffffffff1603611308576040517f08c379a00000000000000000000000000000000000000000000000000000000081526004016112ff906127a6565b60405180910390fd5b600073ffffffffffffffffffffffffffffffffffffffff168273ffffffffffffffffffffffffffffffffffffffff1603611377576040517f08c379a000000000000000000000000000000000000000000000000000000000815260040161136e90612838565b60405180910390fd5b611382838383611a55565b6000603360008573ffffffffffffffffffffffffffffffffffffffff1673ffffffffffffffffffffffffffffffffffffffff16815260200190815260200160002054905081811015611409576040517f08c379a0000000000000000000000000000000000000000000000000000000008152600401611400906128ca565b60405180910390fd5b818103603360008673ffffffffffffffffffffffffffffffffffffffff1673ffffffffffffffffffffffffffffffffffffffff1681526020019081526020016000208190555081603360008573ffffffffffffffffffffffffffffffffffffffff1673ffffffffffffffffffffffffffffffffffffffff168152602001908152602001600020600082825401925050819055508273ffffffffffffffffffffffffffffffffffffffff168473ffffffffffffffffffffffffffffffffffffffff167fddf252ad1be2c89b69c2b068fc378daa952ba7f163c4a11628f55a4df523b3ef846040516114f99190611d12565b60405180910390a361150c848484611a5a565b50505050565b600073ffffffffffffffffffffffffffffffffffffffff168273ffffffffffffffffffffffffffffffffffffffff1603611581576040517f08c379a000000000000000000000000000000000000000000000000000000000815260040161157890612936565b60405180910390fd5b61158d60008383611a55565b806035600082825461159f91906122d2565b9250508190555080603360008473ffffffffffffffffffffffffffffffffffffffff1673ffffffffffffffffffffffffffffffffffffffff168152602001908152602001600020600082825401925050819055508173ffffffffffffffffffffffffffffffffffffffff16600073ffffffffffffffffffffffffffffffffffffffff167fddf252ad1be2c89b69c2b068fc378daa952ba7f163c4a11628f55a4df523b3ef836040516116519190611d12565b60405180910390a361166560008383611a5a565b5050565b6000808273ffffffffffffffffffffffffffffffffffffffff163b119050919050565b600060019054906101000a900460ff166116db576040517f08c379a00000000000000000000000000000000000000000000000000000000081526004016116d2906129c8565b60405180910390fd5b6116e58282611a5f565b5050565b600060019054906101000a900460ff16611738576040517f08c379a000000000000000000000000000000000000000000000000000000000815260040161172f906129c8565b60405180910390fd5b611740611ad2565b565b61174a61103c565b73ffffffffffffffffffffffffffffffffffffffff16611768610b6e565b73ffffffffffffffffffffffffffffffffffffffff16146117be576040517f08c379a00000000000000000000000000000000000000000000000000000000081526004016117b590612a34565b60405180910390fd5b565b6000606560009054906101000a900473ffffffffffffffffffffffffffffffffffffffff16905081606560006101000a81548173ffffffffffffffffffffffffffffffffffffffff021916908373ffffffffffffffffffffffffffffffffffffffff1602179055508173ffffffffffffffffffffffffffffffffffffffff168173ffffffffffffffffffffffffffffffffffffffff167f8be0079c531659141344cd1fd0a4f28419497f9722a3daafe3b4186f6b6457e060405160405180910390a35050565b600073ffffffffffffffffffffffffffffffffffffffff168273ffffffffffffffffffffffffffffffffffffffff16036118f5576040517f08c379a00000000000000000000000000000000000000000000000000000000081526004016118ec90612ac6565b60405180910390fd5b61190182600083611a55565b6000603360008473ffffffffffffffffffffffffffffffffffffffff1673ffffffffffffffffffffffffffffffffffffffff16815260200190815260200160002054905081811015611988576040517f08c379a000000000000000000000000000000000000000000000000000000000815260040161197f90612b58565b60405180910390fd5b818103603360008573ffffffffffffffffffffffffffffffffffffffff1673ffffffffffffffffffffffffffffffffffffffff1681526020019081526020016000208190555081603560008282540392505081905550600073ffffffffffffffffffffffffffffffffffffffff168373ffffffffffffffffffffffffffffffffffffffff167fddf252ad1be2c89b69c2b068fc378daa952ba7f163c4a11628f55a4df523b3ef84604051611a3c9190611d12565b60405180910390a3611a5083600084611a5a565b505050565b505050565b505050565b600060019054906101000a900460ff16611aae576040517f08c379a0000000000000000000000000000000000000000000000000000000008152600401611aa5906129c8565b60405180910390fd5b8160369081611abd9190612d1a565b508060379081611acd9190612d1a565b505050565b600060019054906101000a900460ff16611b21576040517f08c379a0000000000000000000000000000000000000000000000000000000008152600401611b18906129c8565b60405180910390fd5b611b31611b2c61103c565b6117c0565b565b600081519050919050565b600082825260208201905092915050565b60005b83811015611b6d578082015181840152602081019050611b52565b60008484015250505050565b6000601f19601f8301169050919050565b6000611b9582611b33565b611b9f8185611b3e565b9350611baf818560208601611b4f565b611bb881611b79565b840191505092915050565b60006020820190508181036000830152611bdd8184611b8a565b905092915050565b6000604051905090565b600080fd5b600080fd5b600073ffffffffffffffffffffffffffffffffffffffff82169050919050565b6000611c2482611bf9565b9050919050565b611c3481611c19565b8114611c3f57600080fd5b50565b600081359050611c5181611c2b565b92915050565b6000819050919050565b611c6a81611c57565b8114611c7557600080fd5b50565b600081359050611c8781611c61565b92915050565b60008060408385031215611ca457611ca3611bef565b5b6000611cb285828601611c42565b9250506020611cc385828601611c78565b9150509250929050565b60008115159050919050565b611ce281611ccd565b82525050565b6000602082019050611cfd6000830184611cd9565b92915050565b611d0c81611c57565b82525050565b6000602082019050611d276000830184611d03565b92915050565b600060208284031215611d4357611d42611bef565b5b6000611d5184828501611c42565b91505092915050565b600080600060608486031215611d7357611d72611bef565b5b6000611d8186828701611c42565b9350506020611d9286828701611c42565b9250506040611da386828701611c78565b9150509250925092565b600060ff82169050919050565b611dc381611dad565b82525050565b6000602082019050611dde6000830184611dba565b92915050565b600080fd5b600080fd5b7f4e487b7100000000000000000000000000000000000000000000000000000000600052604160045260246000fd5b611e2682611b79565b810181811067ffffffffffffffff82111715611e4557611e44611dee565b5b80604052505050565b6000611e58611be5565b9050611e648282611e1d565b919050565b600067ffffffffffffffff821115611e8457611e83611dee565b5b611e8d82611b79565b9050602081019050919050565b82818337600083830152505050565b6000611ebc611eb784611e69565b611e4e565b905082815260208101848484011115611ed857611ed7611de9565b5b611ee3848285611e9a565b509392505050565b600082601f830112611f0057611eff611de4565b5b8135611f10848260208601611ea9565b91505092915050565b60008060408385031215611f3057611f2f611bef565b5b600083013567ffffffffffffffff811115611f4e57611f4d611bf4565b5b611f5a85828601611eeb565b925050602083013567ffffffffffffffff811115611f7b57611f7a611bf4565b5b611f8785828601611eeb565b9150509250929050565b6000819050919050565b611fa481611f91565b82525050565b6000602082019050611fbf6000830184611f9b565b92915050565b611fce81611c19565b82525050565b6000602082019050611fe96000830184611fc5565b92915050565b611ff881611f91565b811461200357600080fd5b50565b60008135905061201581611fef565b92915050565b60006020828403121561203157612030611bef565b5b600061203f84828501612006565b91505092915050565b6000806040838503121561205f5761205e611bef565b5b600061206d85828601611c42565b925050602061207e85828601611c42565b9150509250929050565b6000819050919050565b60006120ad6120a86120a384611bf9565b612088565b611bf9565b9050919050565b60006120bf82612092565b9050919050565b60006120d1826120b4565b9050919050565b6120e1816120c6565b82525050565b60006020820190506120fc60008301846120d8565b92915050565b600061210d82611bf9565b9050919050565b61211d81612102565b811461212857600080fd5b50565b60008135905061213a81612114565b92915050565b60006020828403121561215657612155611bef565b5b60006121648482850161212b565b91505092915050565b7f4e487b7100000000000000000000000000000000000000000000000000000000600052602260045260246000fd5b600060028204905060018216806121b457607f821691505b6020821081036121c7576121c661216d565b5b50919050565b7f4e487b7100000000000000000000000000000000000000000000000000000000600052601160045260246000fd5b600061220782611c57565b915061221283611c57565b925082820390508181111561222a576122296121cd565b5b92915050565b7f4e487b7100000000000000000000000000000000000000000000000000000000600052601260045260246000fd5b600061226a82611c57565b915061227583611c57565b92508261228557612284612230565b5b828204905092915050565b600061229b82611c57565b91506122a683611c57565b92508282026122b481611c57565b915082820484148315176122cb576122ca6121cd565b5b5092915050565b60006122dd82611c57565b91506122e883611c57565b9250828201905080821115612300576122ff6121cd565b5b92915050565b7f4f6e6c79206c69717569646974792077656c6c2063616e2063616c6c2074686960008201527f732066756e6374696f6e00000000000000000000000000000000000000000000602082015250565b6000612362602a83611b3e565b915061236d82612306565b604082019050919050565b6000602082019050818103600083015261239181612355565b9050919050565b7f496e697469616c697a61626c653a20636f6e747261637420697320616c72656160008201527f647920696e697469616c697a6564000000000000000000000000000000000000602082015250565b60006123f4602e83611b3e565b91506123ff82612398565b604082019050919050565b60006020820190508181036000830152612423816123e7565b9050919050565b6000819050919050565b600061244f61244a6124458461242a565b612088565b611dad565b9050919050565b61245f81612434565b82525050565b600060208201905061247a6000830184612456565b92915050565b7f45524332303a2064656372656173656420616c6c6f77616e63652062656c6f7760008201527f207a65726f000000000000000000000000000000000000000000000000000000602082015250565b60006124dc602583611b3e565b91506124e782612480565b604082019050919050565b6000602082019050818103600083015261250b816124cf565b9050919050565b7f4f776e61626c653a206e6577206f776e657220697320746865207a65726f206160008201527f6464726573730000000000000000000000000000000000000000000000000000602082015250565b600061256e602683611b3e565b915061257982612512565b604082019050919050565b6000602082019050818103600083015261259d81612561565b9050919050565b7f45524332303a20617070726f76652066726f6d20746865207a65726f2061646460008201527f7265737300000000000000000000000000000000000000000000000000000000602082015250565b6000612600602483611b3e565b915061260b826125a4565b604082019050919050565b6000602082019050818103600083015261262f816125f3565b9050919050565b7f45524332303a20617070726f766520746f20746865207a65726f20616464726560008201527f7373000000000000000000000000000000000000000000000000000000000000602082015250565b6000612692602283611b3e565b915061269d82612636565b604082019050919050565b600060208201905081810360008301526126c181612685565b9050919050565b7f45524332303a20696e73756666696369656e7420616c6c6f77616e6365000000600082015250565b60006126fe601d83611b3e565b9150612709826126c8565b602082019050919050565b6000602082019050818103600083015261272d816126f1565b9050919050565b7f45524332303a207472616e736665722066726f6d20746865207a65726f20616460008201527f6472657373000000000000000000000000000000000000000000000000000000602082015250565b6000612790602583611b3e565b915061279b82612734565b604082019050919050565b600060208201905081810360008301526127bf81612783565b9050919050565b7f45524332303a207472616e7366657220746f20746865207a65726f206164647260008201527f6573730000000000000000000000000000000000000000000000000000000000602082015250565b6000612822602383611b3e565b915061282d826127c6565b604082019050919050565b6000602082019050818103600083015261285181612815565b9050919050565b7f45524332303a207472616e7366657220616d6f756e742065786365656473206260008201527f616c616e63650000000000000000000000000000000000000000000000000000602082015250565b60006128b4602683611b3e565b91506128bf82612858565b604082019050919050565b600060208201905081810360008301526128e3816128a7565b9050919050565b7f45524332303a206d696e7420746f20746865207a65726f206164647265737300600082015250565b6000612920601f83611b3e565b915061292b826128ea565b602082019050919050565b6000602082019050818103600083015261294f81612913565b9050919050565b7f496e697469616c697a61626c653a20636f6e7472616374206973206e6f74206960008201527f6e697469616c697a696e67000000000000000000000000000000000000000000602082015250565b60006129b2602b83611b3e565b91506129bd82612956565b604082019050919050565b600060208201905081810360008301526129e1816129a5565b9050919050565b7f4f776e61626c653a2063616c6c6572206973206e6f7420746865206f776e6572600082015250565b6000612a1e602083611b3e565b9150612a29826129e8565b602082019050919050565b60006020820190508181036000830152612a4d81612a11565b9050919050565b7f45524332303a206275726e2066726f6d20746865207a65726f2061646472657360008201527f7300000000000000000000000000000000000000000000000000000000000000602082015250565b6000612ab0602183611b3e565b9150612abb82612a54565b604082019050919050565b60006020820190508181036000830152612adf81612aa3565b9050919050565b7f45524332303a206275726e20616d6f756e7420657863656564732062616c616e60008201527f6365000000000000000000000000000000000000000000000000000000000000602082015250565b6000612b42602283611b3e565b9150612b4d82612ae6565b604082019050919050565b60006020820190508181036000830152612b7181612b35565b9050919050565b60008190508160005260206000209050919050565b60006020601f8301049050919050565b600082821b905092915050565b600060088302612bda7fffffffffffffffffffffffffffffffffffffffffffffffffffffffffffffffff82612b9d565b612be48683612b9d565b95508019841693508086168417925050509392505050565b6000612c17612c12612c0d84611c57565b612088565b611c57565b9050919050565b6000819050919050565b612c3183612bfc565b612c45612c3d82612c1e565b848454612baa565b825550505050565b600090565b612c5a612c4d565b612c65818484612c28565b505050565b5b81811015612c8957612c7e600082612c52565b600181019050612c6b565b5050565b601f821115612cce57612c9f81612b78565b612ca884612b8d565b81016020851015612cb7578190505b612ccb612cc385612b8d565b830182612c6a565b50505b505050565b600082821c905092915050565b6000612cf160001984600802612cd3565b1980831691505092915050565b6000612d0a8383612ce0565b9150826002028217905092915050565b612d2382611b33565b67ffffffffffffffff811115612d3c57612d3b611dee565b5b612d46825461219c565b612d51828285612c8d565b600060209050601f831160018114612d845760008415612d72578287015190505b612d7c8582612cfe565b865550612de4565b601f198416612d9286612b78565b60005b82811015612dba57848901518255600182019150602085019450602081019050612d95565b86831015612dd75784890151612dd3601f891682612ce0565b8355505b6001600288020188555050505b50505050505056fea2646970667358221220fa3b2643c6f4091a282fcf72c8baeeeb2b5c98d57aa79504b9bc5bf5b5eaf61464736f6c63430008180033",
  "linkReferences": {},
  "deployedLinkReferences": {}
}