{
  "_format": "hh-sol-artifact-1",
  "contractName": "XDNS",
  "sourceName": "contracts/XDNS.sol",
  "abi": [
    {
      "anonymous": false,
      "inputs": [
        {
          "indexed": false,
          "internalType": "string",
          "name": "networkId",
          "type": "string"
        },
        {
          "indexed": false,
          "internalType": "string",
          "name": "contractName",
          "type": "string"
        }
      ],
      "name": "ContractAddressDeleted",
      "type": "event"
    },
    {
      "anonymous": false,
      "inputs": [
        {
          "indexed": false,
          "internalType": "string",
          "name": "networkId",
          "type": "string"
        },
        {
          "indexed": false,
          "internalType": "string",
          "name": "contractName",
          "type": "string"
        },
        {
          "indexed": false,
          "internalType": "address",
          "name": "contractAddress",
          "type": "address"
        }
      ],
      "name": "ContractAddressSet",
      "type": "event"
    },
    {
      "anonymous": false,
      "inputs": [
        {
          "indexed": false,
          "internalType": "string",
          "name": "contractName",
          "type": "string"
        }
      ],
      "name": "ContractNameAdded",
      "type": "event"
    },
    {
      "anonymous": false,
      "inputs": [
        {
          "indexed": false,
          "internalType": "uint8",
          "name": "version",
          "type": "uint8"
        }
      ],
      "name": "Initialized",
      "type": "event"
    },
    {
      "anonymous": false,
      "inputs": [
        {
          "indexed": false,
          "internalType": "string",
          "name": "networkId",
          "type": "string"
        }
      ],
      "name": "NetworkIdAdded",
      "type": "event"
    },
    {
      "anonymous": false,
      "inputs": [
        {
          "indexed": true,
          "internalType": "bytes32",
          "name": "role",
          "type": "bytes32"
        },
        {
          "indexed": true,
          "internalType": "bytes32",
          "name": "previousAdminRole",
          "type": "bytes32"
        },
        {
          "indexed": true,
          "internalType": "bytes32",
          "name": "newAdminRole",
          "type": "bytes32"
        }
      ],
      "name": "RoleAdminChanged",
      "type": "event"
    },
    {
      "anonymous": false,
      "inputs": [
        {
          "indexed": true,
          "internalType": "bytes32",
          "name": "role",
          "type": "bytes32"
        },
        {
          "indexed": true,
          "internalType": "address",
          "name": "account",
          "type": "address"
        },
        {
          "indexed": true,
          "internalType": "address",
          "name": "sender",
          "type": "address"
        }
      ],
      "name": "RoleGranted",
      "type": "event"
    },
    {
      "anonymous": false,
      "inputs": [
        {
          "indexed": true,
          "internalType": "bytes32",
          "name": "role",
          "type": "bytes32"
        },
        {
          "indexed": true,
          "internalType": "address",
          "name": "account",
          "type": "address"
        },
        {
          "indexed": true,
          "internalType": "address",
          "name": "sender",
          "type": "address"
        }
      ],
      "name": "RoleRevoked",
      "type": "event"
    },
    {
      "anonymous": false,
      "inputs": [
        {
          "indexed": false,
          "internalType": "string",
          "name": "networkId",
          "type": "string"
        },
        {
          "indexed": false,
          "internalType": "string",
          "name": "tokenName",
          "type": "string"
        }
      ],
      "name": "TokenAddressDeleted",
      "type": "event"
    },
    {
      "anonymous": false,
      "inputs": [
        {
          "indexed": false,
          "internalType": "string",
          "name": "networkId",
          "type": "string"
        },
        {
          "indexed": false,
          "internalType": "string",
          "name": "tokenName",
          "type": "string"
        },
        {
          "indexed": false,
          "internalType": "address",
          "name": "tokenAddress",
          "type": "address"
        }
      ],
      "name": "TokenAddressSet",
      "type": "event"
    },
    {
      "anonymous": false,
      "inputs": [
        {
          "indexed": false,
          "internalType": "string",
          "name": "tokenName",
          "type": "string"
        }
      ],
      "name": "TokenNameAdded",
      "type": "event"
    },
    {
      "inputs": [],
      "name": "DEFAULT_ADMIN_ROLE",
      "outputs": [
        {
          "internalType": "bytes32",
          "name": "",
          "type": "bytes32"
        }
      ],
      "stateMutability": "view",
      "type": "function"
    },
    {
      "inputs": [
        {
          "internalType": "uint256",
          "name": "",
          "type": "uint256"
        }
      ],
      "name": "contractNames",
      "outputs": [
        {
          "internalType": "string",
          "name": "",
          "type": "string"
        }
      ],
      "stateMutability": "view",
      "type": "function"
    },
    {
      "inputs": [
        {
          "internalType": "string",
          "name": "",
          "type": "string"
        },
        {
          "internalType": "string",
          "name": "",
          "type": "string"
        }
      ],
      "name": "contracts",
      "outputs": [
        {
          "internalType": "address",
          "name": "",
          "type": "address"
        }
      ],
      "stateMutability": "view",
      "type": "function"
    },
    {
      "inputs": [
        {
          "internalType": "string",
          "name": "networkId",
          "type": "string"
        },
        {
          "internalType": "string",
          "name": "contractName",
          "type": "string"
        }
      ],
      "name": "deleteContractAddress",
      "outputs": [],
      "stateMutability": "nonpayable",
      "type": "function"
    },
    {
      "inputs": [
        {
          "internalType": "string",
          "name": "networkId",
          "type": "string"
        },
        {
          "internalType": "string",
          "name": "tokenName",
          "type": "string"
        }
      ],
      "name": "deleteTokenAddress",
      "outputs": [],
      "stateMutability": "nonpayable",
      "type": "function"
    },
    {
      "inputs": [],
      "name": "disableInitializers",
      "outputs": [],
      "stateMutability": "nonpayable",
      "type": "function"
    },
    {
      "inputs": [],
      "name": "getAllContractNames",
      "outputs": [
        {
          "internalType": "string[]",
          "name": "",
          "type": "string[]"
        }
      ],
      "stateMutability": "view",
      "type": "function"
    },
    {
      "inputs": [
        {
          "internalType": "string",
          "name": "networkId",
          "type": "string"
        }
      ],
      "name": "getAllContractsForNetwork",
      "outputs": [
        {
          "internalType": "string[]",
          "name": "",
          "type": "string[]"
        },
        {
          "internalType": "address[]",
          "name": "",
          "type": "address[]"
        }
      ],
      "stateMutability": "view",
      "type": "function"
    },
    {
      "inputs": [],
      "name": "getAllNetworkIds",
      "outputs": [
        {
          "internalType": "string[]",
          "name": "",
          "type": "string[]"
        }
      ],
      "stateMutability": "view",
      "type": "function"
    },
    {
      "inputs": [],
      "name": "getAllTokenNames",
      "outputs": [
        {
          "internalType": "string[]",
          "name": "",
          "type": "string[]"
        }
      ],
      "stateMutability": "view",
      "type": "function"
    },
    {
      "inputs": [
        {
          "internalType": "string",
          "name": "networkId",
          "type": "string"
        }
      ],
      "name": "getAllTokensForNetwork",
      "outputs": [
        {
          "internalType": "string[]",
          "name": "",
          "type": "string[]"
        },
        {
          "internalType": "address[]",
          "name": "",
          "type": "address[]"
        }
      ],
      "stateMutability": "view",
      "type": "function"
    },
    {
      "inputs": [
        {
          "internalType": "string",
          "name": "networkId",
          "type": "string"
        },
        {
          "internalType": "string",
          "name": "contractName",
          "type": "string"
        }
      ],
      "name": "getContractAddressForNetwork",
      "outputs": [
        {
          "internalType": "address",
          "name": "",
          "type": "address"
        }
      ],
      "stateMutability": "view",
      "type": "function"
    },
    {
      "inputs": [
        {
          "internalType": "bytes32",
          "name": "role",
          "type": "bytes32"
        }
      ],
      "name": "getRoleAdmin",
      "outputs": [
        {
          "internalType": "bytes32",
          "name": "",
          "type": "bytes32"
        }
      ],
      "stateMutability": "view",
      "type": "function"
    },
    {
      "inputs": [
        {
          "internalType": "string",
          "name": "networkId",
          "type": "string"
        },
        {
          "internalType": "string",
          "name": "tokenName",
          "type": "string"
        }
      ],
      "name": "getTokenAddressForNetwork",
      "outputs": [
        {
          "internalType": "address",
          "name": "",
          "type": "address"
        }
      ],
      "stateMutability": "view",
      "type": "function"
    },
    {
      "inputs": [
        {
          "internalType": "bytes32",
          "name": "role",
          "type": "bytes32"
        },
        {
          "internalType": "address",
          "name": "account",
          "type": "address"
        }
      ],
      "name": "grantRole",
      "outputs": [],
      "stateMutability": "nonpayable",
      "type": "function"
    },
    {
      "inputs": [
        {
          "internalType": "bytes32",
          "name": "role",
          "type": "bytes32"
        },
        {
          "internalType": "address",
          "name": "account",
          "type": "address"
        }
      ],
      "name": "hasRole",
      "outputs": [
        {
          "internalType": "bool",
          "name": "",
          "type": "bool"
        }
      ],
      "stateMutability": "view",
      "type": "function"
    },
    {
      "inputs": [
        {
          "internalType": "address",
          "name": "_owner",
          "type": "address"
        }
      ],
      "name": "initialize",
      "outputs": [],
      "stateMutability": "nonpayable",
      "type": "function"
    },
    {
      "inputs": [
        {
          "internalType": "uint256",
          "name": "",
          "type": "uint256"
        }
      ],
      "name": "networkIds",
      "outputs": [
        {
          "internalType": "string",
          "name": "",
          "type": "string"
        }
      ],
      "stateMutability": "view",
      "type": "function"
    },
    {
      "inputs": [
        {
          "internalType": "bytes32",
          "name": "role",
          "type": "bytes32"
        },
        {
          "internalType": "address",
          "name": "account",
          "type": "address"
        }
      ],
      "name": "renounceRole",
      "outputs": [],
      "stateMutability": "nonpayable",
      "type": "function"
    },
    {
      "inputs": [
        {
          "internalType": "bytes32",
          "name": "role",
          "type": "bytes32"
        },
        {
          "internalType": "address",
          "name": "account",
          "type": "address"
        }
      ],
      "name": "revokeRole",
      "outputs": [],
      "stateMutability": "nonpayable",
      "type": "function"
    },
    {
      "inputs": [
        {
          "internalType": "string",
          "name": "networkId",
          "type": "string"
        },
        {
          "internalType": "string",
          "name": "contractName",
          "type": "string"
        },
        {
          "internalType": "address",
          "name": "contractAddress",
          "type": "address"
        }
      ],
      "name": "setContractAddress",
      "outputs": [],
      "stateMutability": "nonpayable",
      "type": "function"
    },
    {
      "inputs": [
        {
          "internalType": "string",
          "name": "networkId",
          "type": "string"
        },
        {
          "internalType": "string",
          "name": "tokenName",
          "type": "string"
        },
        {
          "internalType": "address",
          "name": "tokenAddress",
          "type": "address"
        }
      ],
      "name": "setTokenAddress",
      "outputs": [],
      "stateMutability": "nonpayable",
      "type": "function"
    },
    {
      "inputs": [
        {
          "internalType": "uint256",
          "name": "_version",
          "type": "uint256"
        }
      ],
      "name": "setVersion",
      "outputs": [],
      "stateMutability": "nonpayable",
      "type": "function"
    },
    {
      "inputs": [
        {
          "internalType": "bytes4",
          "name": "interfaceId",
          "type": "bytes4"
        }
      ],
      "name": "supportsInterface",
      "outputs": [
        {
          "internalType": "bool",
          "name": "",
          "type": "bool"
        }
      ],
      "stateMutability": "view",
      "type": "function"
    },
    {
      "inputs": [
        {
          "internalType": "uint256",
          "name": "",
          "type": "uint256"
        }
      ],
      "name": "tokenNames",
      "outputs": [
        {
          "internalType": "string",
          "name": "",
          "type": "string"
        }
      ],
      "stateMutability": "view",
      "type": "function"
    },
    {
      "inputs": [
        {
          "internalType": "string",
          "name": "",
          "type": "string"
        },
        {
          "internalType": "string",
          "name": "",
          "type": "string"
        }
      ],
      "name": "tokens",
      "outputs": [
        {
          "internalType": "address",
          "name": "",
          "type": "address"
        }
      ],
      "stateMutability": "view",
      "type": "function"
    },
    {
      "inputs": [],
      "name": "version",
      "outputs": [
        {
          "internalType": "uint256",
          "name": "",
          "type": "uint256"
        }
      ],
      "stateMutability": "view",
      "type": "function"
    }
  ],
  "bytecode": "0x608060405234801561001057600080fd5b50613a7e806100206000396000f3fe608060405234801561001057600080fd5b50600436106101a95760003560e01c8063628f1292116100f9578063b21d87f511610097578063d547741f11610071578063d547741f14610506578063d7a9b81614610522578063f28b69e314610540578063fd4c58d514610570576101a9565b8063b21d87f51461049b578063bf3dacb4146104b9578063c4d66de8146104ea576101a9565b806389efa615116100d357806389efa6151461040157806391d14854146104315780639c31ff0f14610461578063a217fddf1461047d576101a9565b8063628f12921461037057806366672d9a146103a057806386c36a73146103d0576101a9565b806331f44900116101665780633ca6bb92116101405780633ca6bb92146102ea578063408def1e1461031a578063471411011461033657806354fd4d5014610352576101a9565b806331f44900146102a657806335a3cc58146102b057806336568abe146102ce576101a9565b806301ffc9a7146101ae5780631ba5cfc8146101de57806320017b81146101fa578063248a9ca31461022a5780632f2ff15d1461025a578063310495ab14610276575b600080fd5b6101c860048036038101906101c39190612699565b61058c565b6040516101d591906126e1565b60405180910390f35b6101f860048036038101906101f39190612842565b610606565b005b610214600480360381019061020f9190612842565b610709565b60405161022191906128fb565b60405180910390f35b610244600480360381019061023f919061294c565b610777565b6040516102519190612988565b60405180910390f35b610274600480360381019061026f91906129cf565b610797565b005b610290600480360381019061028b9190612a45565b6107b8565b60405161029d9190612af1565b60405180910390f35b6102ae610864565b005b6102b86108ba565b6040516102c59190612c1f565b60405180910390f35b6102e860048036038101906102e391906129cf565b610993565b005b61030460048036038101906102ff9190612a45565b610a16565b6040516103119190612af1565b60405180910390f35b610334600480360381019061032f9190612a45565b610ac2565b005b610350600480360381019061034b9190612c41565b610b18565b005b61035a610ca0565b6040516103679190612cdb565b60405180910390f35b61038a60048036038101906103859190612842565b610ca6565b60405161039791906128fb565b60405180910390f35b6103ba60048036038101906103b59190612842565b610d7f565b6040516103c791906128fb565b60405180910390f35b6103ea60048036038101906103e59190612cf6565b610e58565b6040516103f8929190612dfd565b60405180910390f35b61041b60048036038101906104169190612a45565b6111dd565b6040516104289190612af1565b60405180910390f35b61044b600480360381019061044691906129cf565b611289565b60405161045891906126e1565b60405180910390f35b61047b60048036038101906104769190612842565b6112f4565b005b6104856113f7565b6040516104929190612988565b60405180910390f35b6104a36113fe565b6040516104b09190612c1f565b60405180910390f35b6104d360048036038101906104ce9190612cf6565b6114d7565b6040516104e1929190612dfd565b60405180910390f35b61050460048036038101906104ff9190612e34565b61185c565b005b610520600480360381019061051b91906129cf565b6119a8565b005b61052a6119c9565b6040516105379190612c1f565b60405180910390f35b61055a60048036038101906105559190612842565b611aa2565b60405161056791906128fb565b60405180910390f35b61058a60048036038101906105859190612c41565b611b10565b005b60007f7965db0b000000000000000000000000000000000000000000000000000000007bffffffffffffffffffffffffffffffffffffffffffffffffffffffff1916827bffffffffffffffffffffffffffffffffffffffffffffffffffffffff191614806105ff57506105fe82611c98565b5b9050919050565b6106136000801b33611289565b610652576040517f08c379a000000000000000000000000000000000000000000000000000000000815260040161064990612ed3565b60405180910390fd5b6000609b836040516106649190612f2f565b9081526020016040518091039020826040516106809190612f2f565b908152602001604051809103902060006101000a81548173ffffffffffffffffffffffffffffffffffffffff021916908373ffffffffffffffffffffffffffffffffffffffff1602179055507f77928e7192fb90d3e370fc73d05d847843a865619ce55b51092343ddb734608d82826040516106fd929190612f46565b60405180910390a15050565b609b82805160208101820180518482526020830160208501208183528095505050505050818051602081018201805184825260208301602085012081835280955050505050506000915091509054906101000a900473ffffffffffffffffffffffffffffffffffffffff1681565b600060656000838152602001908152602001600020600101549050919050565b6107a082610777565b6107a981611d02565b6107b38383611d16565b505050565b609981815481106107c857600080fd5b9060005260206000200160009150905080546107e390612fac565b80601f016020809104026020016040519081016040528092919081815260200182805461080f90612fac565b801561085c5780601f106108315761010080835404028352916020019161085c565b820191906000526020600020905b81548152906001019060200180831161083f57829003601f168201915b505050505081565b6108716000801b33611289565b6108b0576040517f08c379a00000000000000000000000000000000000000000000000000000000081526004016108a790612ed3565b60405180910390fd5b6108b8611df7565b565b60606097805480602002602001604051908101604052809291908181526020016000905b8282101561098a5783829060005260206000200180546108fd90612fac565b80601f016020809104026020016040519081016040528092919081815260200182805461092990612fac565b80156109765780601f1061094b57610100808354040283529160200191610976565b820191906000526020600020905b81548152906001019060200180831161095957829003601f168201915b5050505050815260200190600101906108de565b50505050905090565b61099b611eb7565b73ffffffffffffffffffffffffffffffffffffffff168173ffffffffffffffffffffffffffffffffffffffff1614610a08576040517f08c379a00000000000000000000000000000000000000000000000000000000081526004016109ff9061304f565b60405180910390fd5b610a128282611ebf565b5050565b60988181548110610a2657600080fd5b906000526020600020016000915090508054610a4190612fac565b80601f0160208091040260200160405190810160405280929190818152602001828054610a6d90612fac565b8015610aba5780601f10610a8f57610100808354040283529160200191610aba565b820191906000526020600020905b815481529060010190602001808311610a9d57829003601f168201915b505050505081565b610acf6000801b33611289565b610b0e576040517f08c379a0000000000000000000000000000000000000000000000000000000008152600401610b0590612ed3565b60405180910390fd5b80609c8190555050565b610b256000801b33611289565b610b64576040517f08c379a0000000000000000000000000000000000000000000000000000000008152600401610b5b90612ed3565b60405180910390fd5b80600073ffffffffffffffffffffffffffffffffffffffff168173ffffffffffffffffffffffffffffffffffffffff1603610bd4576040517f08c379a0000000000000000000000000000000000000000000000000000000008152600401610bcb906130e1565b60405180910390fd5b610bdd84611fa1565b610be6836120af565b81609a85604051610bf79190612f2f565b908152602001604051809103902084604051610c139190612f2f565b908152602001604051809103902060006101000a81548173ffffffffffffffffffffffffffffffffffffffff021916908373ffffffffffffffffffffffffffffffffffffffff1602179055507fbaa9ab102984e56556f57f363e3adb930a6458a0dbf84498716f46c5c6e8d535848484604051610c9293929190613101565b60405180910390a150505050565b609c5481565b600080609b84604051610cb99190612f2f565b908152602001604051809103902083604051610cd59190612f2f565b908152602001604051809103902060009054906101000a900473ffffffffffffffffffffffffffffffffffffffff169050600073ffffffffffffffffffffffffffffffffffffffff168173ffffffffffffffffffffffffffffffffffffffff1603610d75576040517f08c379a0000000000000000000000000000000000000000000000000000000008152600401610d6c906131b8565b60405180910390fd5b8091505092915050565b600080609a84604051610d929190612f2f565b908152602001604051809103902083604051610dae9190612f2f565b908152602001604051809103902060009054906101000a900473ffffffffffffffffffffffffffffffffffffffff169050600073ffffffffffffffffffffffffffffffffffffffff168173ffffffffffffffffffffffffffffffffffffffff1603610e4e576040517f08c379a0000000000000000000000000000000000000000000000000000000008152600401610e459061324a565b60405180910390fd5b8091505092915050565b6060806000609a84604051610e6d9190612f2f565b908152602001604051809103902090506000805b609880549050811015610f3857600073ffffffffffffffffffffffffffffffffffffffff168360988381548110610ebb57610eba61326a565b5b90600052602060002001604051610ed29190613331565b908152602001604051809103902060009054906101000a900473ffffffffffffffffffffffffffffffffffffffff1673ffffffffffffffffffffffffffffffffffffffff1614610f2b578180610f2790613377565b9250505b8080600101915050610e81565b5060008167ffffffffffffffff811115610f5557610f54612717565b5b604051908082528060200260200182016040528015610f8857816020015b6060815260200190600190039081610f735790505b50905060008267ffffffffffffffff811115610fa757610fa6612717565b5b604051908082528060200260200182016040528015610fd55781602001602082028036833780820191505090505b5090506000805b6098805490508110156111cc57600060988281548110610fff57610ffe61326a565b5b90600052602060002001805461101490612fac565b80601f016020809104026020016040519081016040528092919081815260200182805461104090612fac565b801561108d5780601f106110625761010080835404028352916020019161108d565b820191906000526020600020905b81548152906001019060200180831161107057829003601f168201915b50505050509050600073ffffffffffffffffffffffffffffffffffffffff1687826040516110bb9190612f2f565b908152602001604051809103902060009054906101000a900473ffffffffffffffffffffffffffffffffffffffff1673ffffffffffffffffffffffffffffffffffffffff16146111be57808584815181106111195761111861326a565b5b602002602001018190525086816040516111339190612f2f565b908152602001604051809103902060009054906101000a900473ffffffffffffffffffffffffffffffffffffffff168484815181106111755761117461326a565b5b602002602001019073ffffffffffffffffffffffffffffffffffffffff16908173ffffffffffffffffffffffffffffffffffffffff168152505082806111ba90613377565b9350505b508080600101915050610fdc565b508282965096505050505050915091565b609781815481106111ed57600080fd5b90600052602060002001600091509050805461120890612fac565b80601f016020809104026020016040519081016040528092919081815260200182805461123490612fac565b80156112815780601f1061125657610100808354040283529160200191611281565b820191906000526020600020905b81548152906001019060200180831161126457829003601f168201915b505050505081565b60006065600084815260200190815260200160002060000160008373ffffffffffffffffffffffffffffffffffffffff1673ffffffffffffffffffffffffffffffffffffffff16815260200190815260200160002060009054906101000a900460ff16905092915050565b6113016000801b33611289565b611340576040517f08c379a000000000000000000000000000000000000000000000000000000000815260040161133790612ed3565b60405180910390fd5b6000609a836040516113529190612f2f565b90815260200160405180910390208260405161136e9190612f2f565b908152602001604051809103902060006101000a81548173ffffffffffffffffffffffffffffffffffffffff021916908373ffffffffffffffffffffffffffffffffffffffff1602179055507fa70582e3256aa3fe04142ef07aab89819505f3381936f484a4b77069f91b4c1382826040516113eb929190612f46565b60405180910390a15050565b6000801b81565b60606099805480602002602001604051908101604052809291908181526020016000905b828210156114ce57838290600052602060002001805461144190612fac565b80601f016020809104026020016040519081016040528092919081815260200182805461146d90612fac565b80156114ba5780601f1061148f576101008083540402835291602001916114ba565b820191906000526020600020905b81548152906001019060200180831161149d57829003601f168201915b505050505081526020019060010190611422565b50505050905090565b6060806000609b846040516114ec9190612f2f565b908152602001604051809103902090506000805b6099805490508110156115b757600073ffffffffffffffffffffffffffffffffffffffff16836099838154811061153a5761153961326a565b5b906000526020600020016040516115519190613331565b908152602001604051809103902060009054906101000a900473ffffffffffffffffffffffffffffffffffffffff1673ffffffffffffffffffffffffffffffffffffffff16146115aa5781806115a690613377565b9250505b8080600101915050611500565b5060008167ffffffffffffffff8111156115d4576115d3612717565b5b60405190808252806020026020018201604052801561160757816020015b60608152602001906001900390816115f25790505b50905060008267ffffffffffffffff81111561162657611625612717565b5b6040519080825280602002602001820160405280156116545781602001602082028036833780820191505090505b5090506000805b60998054905081101561184b5760006099828154811061167e5761167d61326a565b5b90600052602060002001805461169390612fac565b80601f01602080910402602001604051908101604052809291908181526020018280546116bf90612fac565b801561170c5780601f106116e15761010080835404028352916020019161170c565b820191906000526020600020905b8154815290600101906020018083116116ef57829003601f168201915b50505050509050600073ffffffffffffffffffffffffffffffffffffffff16878260405161173a9190612f2f565b908152602001604051809103902060009054906101000a900473ffffffffffffffffffffffffffffffffffffffff1673ffffffffffffffffffffffffffffffffffffffff161461183d57808584815181106117985761179761326a565b5b602002602001018190525086816040516117b29190612f2f565b908152602001604051809103902060009054906101000a900473ffffffffffffffffffffffffffffffffffffffff168484815181106117f4576117f361326a565b5b602002602001019073ffffffffffffffffffffffffffffffffffffffff16908173ffffffffffffffffffffffffffffffffffffffff1681525050828061183990613377565b9350505b50808060010191505061165b565b508282965096505050505050915091565b60008060019054906101000a900460ff1615905080801561188d5750600160008054906101000a900460ff1660ff16105b806118ba575061189c306121bd565b1580156118b95750600160008054906101000a900460ff1660ff16145b5b6118f9576040517f08c379a00000000000000000000000000000000000000000000000000000000081526004016118f090613431565b60405180910390fd5b60016000806101000a81548160ff021916908360ff1602179055508015611936576001600060016101000a81548160ff0219169083151502179055505b61193e6121e0565b61194b6000801b83611d16565b80156119a45760008060016101000a81548160ff0219169083151502179055507f7f26b83ff96e1f2b6a682f133852f6798a09c465da95921460cefb3847402498600160405161199b91906134a3565b60405180910390a15b5050565b6119b182610777565b6119ba81611d02565b6119c48383611ebf565b505050565b60606098805480602002602001604051908101604052809291908181526020016000905b82821015611a99578382906000526020600020018054611a0c90612fac565b80601f0160208091040260200160405190810160405280929190818152602001828054611a3890612fac565b8015611a855780601f10611a5a57610100808354040283529160200191611a85565b820191906000526020600020905b815481529060010190602001808311611a6857829003601f168201915b5050505050815260200190600101906119ed565b50505050905090565b609a82805160208101820180518482526020830160208501208183528095505050505050818051602081018201805184825260208301602085012081835280955050505050506000915091509054906101000a900473ffffffffffffffffffffffffffffffffffffffff1681565b611b1d6000801b33611289565b611b5c576040517f08c379a0000000000000000000000000000000000000000000000000000000008152600401611b5390612ed3565b60405180910390fd5b80600073ffffffffffffffffffffffffffffffffffffffff168173ffffffffffffffffffffffffffffffffffffffff1603611bcc576040517f08c379a0000000000000000000000000000000000000000000000000000000008152600401611bc3906130e1565b60405180910390fd5b611bd584611fa1565b611bde83612231565b81609b85604051611bef9190612f2f565b908152602001604051809103902084604051611c0b9190612f2f565b908152602001604051809103902060006101000a81548173ffffffffffffffffffffffffffffffffffffffff021916908373ffffffffffffffffffffffffffffffffffffffff1602179055507f5db58de833fbe834a714bc33638616220dac90d1c8c0dd261b1df55ef5177253848484604051611c8a93929190613101565b60405180910390a150505050565b60007f01ffc9a7000000000000000000000000000000000000000000000000000000007bffffffffffffffffffffffffffffffffffffffffffffffffffffffff1916827bffffffffffffffffffffffffffffffffffffffffffffffffffffffff1916149050919050565b611d1381611d0e611eb7565b61233f565b50565b611d208282611289565b611df35760016065600084815260200190815260200160002060000160008373ffffffffffffffffffffffffffffffffffffffff1673ffffffffffffffffffffffffffffffffffffffff16815260200190815260200160002060006101000a81548160ff021916908315150217905550611d98611eb7565b73ffffffffffffffffffffffffffffffffffffffff168173ffffffffffffffffffffffffffffffffffffffff16837f2f8788117e7eff1d82e926ec794901d17c78024a50270940304540a733656f0d60405160405180910390a45b5050565b600060019054906101000a900460ff1615611e47576040517f08c379a0000000000000000000000000000000000000000000000000000000008152600401611e3e90613530565b60405180910390fd5b60ff801660008054906101000a900460ff1660ff1614611eb55760ff6000806101000a81548160ff021916908360ff1602179055507f7f26b83ff96e1f2b6a682f133852f6798a09c465da95921460cefb384740249860ff604051611eac919061355f565b60405180910390a15b565b600033905090565b611ec98282611289565b15611f9d5760006065600084815260200190815260200160002060000160008373ffffffffffffffffffffffffffffffffffffffff1673ffffffffffffffffffffffffffffffffffffffff16815260200190815260200160002060006101000a81548160ff021916908315150217905550611f42611eb7565b73ffffffffffffffffffffffffffffffffffffffff168173ffffffffffffffffffffffffffffffffffffffff16837ff6391f5c32d9c69d2a47ea670b442974b53935d1edc7fd64eb21e047a839171b60405160405180910390a45b5050565b6000805b6097805490508110156120385782604051602001611fc39190612f2f565b6040516020818303038152906040528051906020012060978281548110611fed57611fec61326a565b5b906000526020600020016040516020016120079190613331565b604051602081830303815290604052805190602001200361202b5760019150612038565b8080600101915050611fa5565b50806120ab576097829080600181540180825580915050600190039060005260206000200160009091909190915090816120729190613707565b507f40fa98b7978ed02f5f7f4b0c88ea667b56841195057dd9096cd878eae02b2a31826040516120a29190612af1565b60405180910390a15b5050565b6000805b60988054905081101561214657826040516020016120d19190612f2f565b60405160208183030381529060405280519060200120609882815481106120fb576120fa61326a565b5b906000526020600020016040516020016121159190613331565b60405160208183030381529060405280519060200120036121395760019150612146565b80806001019150506120b3565b50806121b9576098829080600181540180825580915050600190039060005260206000200160009091909190915090816121809190613707565b507f100f4c1e6cf20aaec2fc2c59430434c899ee91409f7e285e5bba80d7fe84de1b826040516121b09190612af1565b60405180910390a15b5050565b6000808273ffffffffffffffffffffffffffffffffffffffff163b119050919050565b600060019054906101000a900460ff1661222f576040517f08c379a00000000000000000000000000000000000000000000000000000000081526004016122269061384b565b60405180910390fd5b565b6000805b6099805490508110156122c857826040516020016122539190612f2f565b604051602081830303815290604052805190602001206099828154811061227d5761227c61326a565b5b906000526020600020016040516020016122979190613331565b60405160208183030381529060405280519060200120036122bb57600191506122c8565b8080600101915050612235565b508061233b576099829080600181540180825580915050600190039060005260206000200160009091909190915090816123029190613707565b507fe1424d8ddba36f1e249651e441e5e8b8c544eea5e494a5977b998ca39201dd67826040516123329190612af1565b60405180910390a15b5050565b6123498282611289565b6123c057612356816123c4565b6123648360001c60206123f1565b604051602001612375929190613903565b6040516020818303038152906040526040517f08c379a00000000000000000000000000000000000000000000000000000000081526004016123b79190612af1565b60405180910390fd5b5050565b60606123ea8273ffffffffffffffffffffffffffffffffffffffff16601460ff166123f1565b9050919050565b606060006002836002612404919061393d565b61240e919061397f565b67ffffffffffffffff81111561242757612426612717565b5b6040519080825280601f01601f1916602001820160405280156124595781602001600182028036833780820191505090505b5090507f3000000000000000000000000000000000000000000000000000000000000000816000815181106124915761249061326a565b5b60200101907effffffffffffffffffffffffffffffffffffffffffffffffffffffffffffff1916908160001a9053507f7800000000000000000000000000000000000000000000000000000000000000816001815181106124f5576124f461326a565b5b60200101907effffffffffffffffffffffffffffffffffffffffffffffffffffffffffffff1916908160001a90535060006001846002612535919061393d565b61253f919061397f565b90505b60018111156125df577f3031323334353637383961626364656600000000000000000000000000000000600f8616601081106125815761258061326a565b5b1a60f81b8282815181106125985761259761326a565b5b60200101907effffffffffffffffffffffffffffffffffffffffffffffffffffffffffffff1916908160001a905350600485901c9450806125d8906139b3565b9050612542565b5060008414612623576040517f08c379a000000000000000000000000000000000000000000000000000000000815260040161261a90613a28565b60405180910390fd5b8091505092915050565b6000604051905090565b600080fd5b600080fd5b60007fffffffff0000000000000000000000000000000000000000000000000000000082169050919050565b61267681612641565b811461268157600080fd5b50565b6000813590506126938161266d565b92915050565b6000602082840312156126af576126ae612637565b5b60006126bd84828501612684565b91505092915050565b60008115159050919050565b6126db816126c6565b82525050565b60006020820190506126f660008301846126d2565b92915050565b600080fd5b600080fd5b6000601f19601f8301169050919050565b7f4e487b7100000000000000000000000000000000000000000000000000000000600052604160045260246000fd5b61274f82612706565b810181811067ffffffffffffffff8211171561276e5761276d612717565b5b80604052505050565b600061278161262d565b905061278d8282612746565b919050565b600067ffffffffffffffff8211156127ad576127ac612717565b5b6127b682612706565b9050602081019050919050565b82818337600083830152505050565b60006127e56127e084612792565b612777565b90508281526020810184848401111561280157612800612701565b5b61280c8482856127c3565b509392505050565b600082601f830112612829576128286126fc565b5b81356128398482602086016127d2565b91505092915050565b6000806040838503121561285957612858612637565b5b600083013567ffffffffffffffff8111156128775761287661263c565b5b61288385828601612814565b925050602083013567ffffffffffffffff8111156128a4576128a361263c565b5b6128b085828601612814565b9150509250929050565b600073ffffffffffffffffffffffffffffffffffffffff82169050919050565b60006128e5826128ba565b9050919050565b6128f5816128da565b82525050565b600060208201905061291060008301846128ec565b92915050565b6000819050919050565b61292981612916565b811461293457600080fd5b50565b60008135905061294681612920565b92915050565b60006020828403121561296257612961612637565b5b600061297084828501612937565b91505092915050565b61298281612916565b82525050565b600060208201905061299d6000830184612979565b92915050565b6129ac816128da565b81146129b757600080fd5b50565b6000813590506129c9816129a3565b92915050565b600080604083850312156129e6576129e5612637565b5b60006129f485828601612937565b9250506020612a05858286016129ba565b9150509250929050565b6000819050919050565b612a2281612a0f565b8114612a2d57600080fd5b50565b600081359050612a3f81612a19565b92915050565b600060208284031215612a5b57612a5a612637565b5b6000612a6984828501612a30565b91505092915050565b600081519050919050565b600082825260208201905092915050565b60005b83811015612aac578082015181840152602081019050612a91565b60008484015250505050565b6000612ac382612a72565b612acd8185612a7d565b9350612add818560208601612a8e565b612ae681612706565b840191505092915050565b60006020820190508181036000830152612b0b8184612ab8565b905092915050565b600081519050919050565b600082825260208201905092915050565b6000819050602082019050919050565b600082825260208201905092915050565b6000612b5b82612a72565b612b658185612b3f565b9350612b75818560208601612a8e565b612b7e81612706565b840191505092915050565b6000612b958383612b50565b905092915050565b6000602082019050919050565b6000612bb582612b13565b612bbf8185612b1e565b935083602082028501612bd185612b2f565b8060005b85811015612c0d5784840389528151612bee8582612b89565b9450612bf983612b9d565b925060208a01995050600181019050612bd5565b50829750879550505050505092915050565b60006020820190508181036000830152612c398184612baa565b905092915050565b600080600060608486031215612c5a57612c59612637565b5b600084013567ffffffffffffffff811115612c7857612c7761263c565b5b612c8486828701612814565b935050602084013567ffffffffffffffff811115612ca557612ca461263c565b5b612cb186828701612814565b9250506040612cc2868287016129ba565b9150509250925092565b612cd581612a0f565b82525050565b6000602082019050612cf06000830184612ccc565b92915050565b600060208284031215612d0c57612d0b612637565b5b600082013567ffffffffffffffff811115612d2a57612d2961263c565b5b612d3684828501612814565b91505092915050565b600081519050919050565b600082825260208201905092915050565b6000819050602082019050919050565b612d74816128da565b82525050565b6000612d868383612d6b565b60208301905092915050565b6000602082019050919050565b6000612daa82612d3f565b612db48185612d4a565b9350612dbf83612d5b565b8060005b83811015612df0578151612dd78882612d7a565b9750612de283612d92565b925050600181019050612dc3565b5085935050505092915050565b60006040820190508181036000830152612e178185612baa565b90508181036020830152612e2b8184612d9f565b90509392505050565b600060208284031215612e4a57612e49612637565b5b6000612e58848285016129ba565b91505092915050565b7f58444e533a204f6e6c79206f776e65722063616e2063616c6c2074686973206660008201527f756e6374696f6e00000000000000000000000000000000000000000000000000602082015250565b6000612ebd602783612a7d565b9150612ec882612e61565b604082019050919050565b60006020820190508181036000830152612eec81612eb0565b9050919050565b600081905092915050565b6000612f0982612a72565b612f138185612ef3565b9350612f23818560208601612a8e565b80840191505092915050565b6000612f3b8284612efe565b915081905092915050565b60006040820190508181036000830152612f608185612ab8565b90508181036020830152612f748184612ab8565b90509392505050565b7f4e487b7100000000000000000000000000000000000000000000000000000000600052602260045260246000fd5b60006002820490506001821680612fc457607f821691505b602082108103612fd757612fd6612f7d565b5b50919050565b7f416363657373436f6e74726f6c3a2063616e206f6e6c792072656e6f756e636560008201527f20726f6c657320666f722073656c660000000000000000000000000000000000602082015250565b6000613039602f83612a7d565b915061304482612fdd565b604082019050919050565b600060208201905081810360008301526130688161302c565b9050919050565b7f58444e533a2041646472657373206d757374206e6f7420626520746865207a6560008201527f726f206164647265737300000000000000000000000000000000000000000000602082015250565b60006130cb602a83612a7d565b91506130d68261306f565b604082019050919050565b600060208201905081810360008301526130fa816130be565b9050919050565b6000606082019050818103600083015261311b8186612ab8565b9050818103602083015261312f8185612ab8565b905061313e60408301846128ec565b949350505050565b7f58444e533a20546f6b656e2061646472657373206e6f7420617661696c61626c60008201527f6520666f7220676976656e206e6574776f726b206f72206e616d650000000000602082015250565b60006131a2603b83612a7d565b91506131ad82613146565b604082019050919050565b600060208201905081810360008301526131d181613195565b9050919050565b7f58444e533a20436f6e74726163742061646472657373206e6f7420617661696c60008201527f61626c6520666f7220676976656e206e6574776f726b206f6e206e616d650000602082015250565b6000613234603e83612a7d565b915061323f826131d8565b604082019050919050565b6000602082019050818103600083015261326381613227565b9050919050565b7f4e487b7100000000000000000000000000000000000000000000000000000000600052603260045260246000fd5b60008190508160005260206000209050919050565b600081546132bb81612fac565b6132c58186612ef3565b945060018216600081146132e057600181146132f557613328565b60ff1983168652811515820286019350613328565b6132fe85613299565b60005b8381101561332057815481890152600182019150602081019050613301565b838801955050505b50505092915050565b600061333d82846132ae565b915081905092915050565b7f4e487b7100000000000000000000000000000000000000000000000000000000600052601160045260246000fd5b600061338282612a0f565b91507fffffffffffffffffffffffffffffffffffffffffffffffffffffffffffffffff82036133b4576133b3613348565b5b600182019050919050565b7f496e697469616c697a61626c653a20636f6e747261637420697320616c72656160008201527f647920696e697469616c697a6564000000000000000000000000000000000000602082015250565b600061341b602e83612a7d565b9150613426826133bf565b604082019050919050565b6000602082019050818103600083015261344a8161340e565b9050919050565b6000819050919050565b600060ff82169050919050565b6000819050919050565b600061348d61348861348384613451565b613468565b61345b565b9050919050565b61349d81613472565b82525050565b60006020820190506134b86000830184613494565b92915050565b7f496e697469616c697a61626c653a20636f6e747261637420697320696e69746960008201527f616c697a696e6700000000000000000000000000000000000000000000000000602082015250565b600061351a602783612a7d565b9150613525826134be565b604082019050919050565b600060208201905081810360008301526135498161350d565b9050919050565b6135598161345b565b82525050565b60006020820190506135746000830184613550565b92915050565b60006020601f8301049050919050565b600082821b905092915050565b6000600883026135c77fffffffffffffffffffffffffffffffffffffffffffffffffffffffffffffffff8261358a565b6135d1868361358a565b95508019841693508086168417925050509392505050565b60006136046135ff6135fa84612a0f565b613468565b612a0f565b9050919050565b6000819050919050565b61361e836135e9565b61363261362a8261360b565b848454613597565b825550505050565b600090565b61364761363a565b613652818484613615565b505050565b5b818110156136765761366b60008261363f565b600181019050613658565b5050565b601f8211156136bb5761368c81613299565b6136958461357a565b810160208510156136a4578190505b6136b86136b08561357a565b830182613657565b50505b505050565b600082821c905092915050565b60006136de600019846008026136c0565b1980831691505092915050565b60006136f783836136cd565b9150826002028217905092915050565b61371082612a72565b67ffffffffffffffff81111561372957613728612717565b5b6137338254612fac565b61373e82828561367a565b600060209050601f831160018114613771576000841561375f578287015190505b61376985826136eb565b8655506137d1565b601f19841661377f86613299565b60005b828110156137a757848901518255600182019150602085019450602081019050613782565b868310156137c457848901516137c0601f8916826136cd565b8355505b6001600288020188555050505b505050505050565b7f496e697469616c697a61626c653a20636f6e7472616374206973206e6f74206960008201527f6e697469616c697a696e67000000000000000000000000000000000000000000602082015250565b6000613835602b83612a7d565b9150613840826137d9565b604082019050919050565b6000602082019050818103600083015261386481613828565b9050919050565b7f416363657373436f6e74726f6c3a206163636f756e7420000000000000000000600082015250565b60006138a1601783612ef3565b91506138ac8261386b565b601782019050919050565b7f206973206d697373696e6720726f6c6520000000000000000000000000000000600082015250565b60006138ed601183612ef3565b91506138f8826138b7565b601182019050919050565b600061390e82613894565b915061391a8285612efe565b9150613925826138e0565b91506139318284612efe565b91508190509392505050565b600061394882612a0f565b915061395383612a0f565b925082820261396181612a0f565b9150828204841483151761397857613977613348565b5b5092915050565b600061398a82612a0f565b915061399583612a0f565b92508282019050808211156139ad576139ac613348565b5b92915050565b60006139be82612a0f565b9150600082036139d1576139d0613348565b5b600182039050919050565b7f537472696e67733a20686578206c656e67746820696e73756666696369656e74600082015250565b6000613a12602083612a7d565b9150613a1d826139dc565b602082019050919050565b60006020820190508181036000830152613a4181613a05565b905091905056fea2646970667358221220c813b6333806ff5c9e1a6a5acb8f4a79886142fe4bbeca16ab2c6890d306405364736f6c63430008180033",
  "linkReferences": {},
  "deployedLinkReferences": {}
}