{
  "_format": "hh-sol-artifact-1",
  "contractName": "BRNBalanceGetter",
  "sourceName": "contracts/BRNBalanceGetter.sol",
  "abi": [
    {
      "inputs": [],
      "stateMutability": "nonpayable",
      "type": "constructor"
    },
    {
      "anonymous": false,
      "inputs": [
        {
          "indexed": false,
          "internalType": "uint8",
          "name": "version",
          "type": "uint8"
        }
      ],
      "name": "Initialized",
      "type": "event"
    },
    {
      "anonymous": false,
      "inputs": [
        {
          "indexed": true,
          "internalType": "bytes32",
          "name": "role",
          "type": "bytes32"
        },
        {
          "indexed": true,
          "internalType": "bytes32",
          "name": "previousAdminRole",
          "type": "bytes32"
        },
        {
          "indexed": true,
          "internalType": "bytes32",
          "name": "newAdminRole",
          "type": "bytes32"
        }
      ],
      "name": "RoleAdminChanged",
      "type": "event"
    },
    {
      "anonymous": false,
      "inputs": [
        {
          "indexed": true,
          "internalType": "bytes32",
          "name": "role",
          "type": "bytes32"
        },
        {
          "indexed": true,
          "internalType": "address",
          "name": "account",
          "type": "address"
        },
        {
          "indexed": true,
          "internalType": "address",
          "name": "sender",
          "type": "address"
        }
      ],
      "name": "RoleGranted",
      "type": "event"
    },
    {
      "anonymous": false,
      "inputs": [
        {
          "indexed": true,
          "internalType": "bytes32",
          "name": "role",
          "type": "bytes32"
        },
        {
          "indexed": true,
          "internalType": "address",
          "name": "account",
          "type": "address"
        },
        {
          "indexed": true,
          "internalType": "address",
          "name": "sender",
          "type": "address"
        }
      ],
      "name": "RoleRevoked",
      "type": "event"
    },
    {
      "inputs": [],
      "name": "DEFAULT_ADMIN_ROLE",
      "outputs": [
        {
          "internalType": "bytes32",
          "name": "",
          "type": "bytes32"
        }
      ],
      "stateMutability": "view",
      "type": "function"
    },
    {
      "inputs": [
        {
          "internalType": "address",
          "name": "account",
          "type": "address"
        }
      ],
      "name": "balanceOf",
      "outputs": [
        {
          "internalType": "uint256",
          "name": "",
          "type": "uint256"
        }
      ],
      "stateMutability": "view",
      "type": "function"
    },
    {
      "inputs": [
        {
          "internalType": "bytes32",
          "name": "role",
          "type": "bytes32"
        }
      ],
      "name": "getRoleAdmin",
      "outputs": [
        {
          "internalType": "bytes32",
          "name": "",
          "type": "bytes32"
        }
      ],
      "stateMutability": "view",
      "type": "function"
    },
    {
      "inputs": [
        {
          "internalType": "bytes32",
          "name": "role",
          "type": "bytes32"
        },
        {
          "internalType": "address",
          "name": "account",
          "type": "address"
        }
      ],
      "name": "grantRole",
      "outputs": [],
      "stateMutability": "nonpayable",
      "type": "function"
    },
    {
      "inputs": [
        {
          "internalType": "bytes32",
          "name": "role",
          "type": "bytes32"
        },
        {
          "internalType": "address",
          "name": "account",
          "type": "address"
        }
      ],
      "name": "hasRole",
      "outputs": [
        {
          "internalType": "bool",
          "name": "",
          "type": "bool"
        }
      ],
      "stateMutability": "view",
      "type": "function"
    },
    {
      "inputs": [
        {
          "internalType": "address",
          "name": "_owner",
          "type": "address"
        }
      ],
      "name": "initialize",
      "outputs": [],
      "stateMutability": "nonpayable",
      "type": "function"
    },
    {
      "inputs": [
        {
          "internalType": "bytes32",
          "name": "role",
          "type": "bytes32"
        },
        {
          "internalType": "address",
          "name": "account",
          "type": "address"
        }
      ],
      "name": "renounceRole",
      "outputs": [],
      "stateMutability": "nonpayable",
      "type": "function"
    },
    {
      "inputs": [
        {
          "internalType": "bytes32",
          "name": "role",
          "type": "bytes32"
        },
        {
          "internalType": "address",
          "name": "account",
          "type": "address"
        }
      ],
      "name": "revokeRole",
      "outputs": [],
      "stateMutability": "nonpayable",
      "type": "function"
    },
    {
      "inputs": [
        {
          "internalType": "bytes32",
          "name": "_version",
          "type": "bytes32"
        }
      ],
      "name": "setVersion",
      "outputs": [],
      "stateMutability": "nonpayable",
      "type": "function"
    },
    {
      "inputs": [
        {
          "internalType": "bytes4",
          "name": "interfaceId",
          "type": "bytes4"
        }
      ],
      "name": "supportsInterface",
      "outputs": [
        {
          "internalType": "bool",
          "name": "",
          "type": "bool"
        }
      ],
      "stateMutability": "view",
      "type": "function"
    },
    {
      "inputs": [],
      "name": "totalSupply",
      "outputs": [
        {
          "internalType": "uint256",
          "name": "",
          "type": "uint256"
        }
      ],
      "stateMutability": "view",
      "type": "function"
    },
    {
      "inputs": [],
      "name": "version",
      "outputs": [
        {
          "internalType": "bytes32",
          "name": "",
          "type": "bytes32"
        }
      ],
      "stateMutability": "view",
      "type": "function"
    }
  ],
  "bytecode": "0x60806040523480156200001157600080fd5b50620000226200002860201b60201c565b620001d2565b600060019054906101000a900460ff16156200007b576040517f08c379a0000000000000000000000000000000000000000000000000000000008152600401620000729062000175565b60405180910390fd5b60ff801660008054906101000a900460ff1660ff1614620000ec5760ff6000806101000a81548160ff021916908360ff1602179055507f7f26b83ff96e1f2b6a682f133852f6798a09c465da95921460cefb384740249860ff604051620000e39190620001b5565b60405180910390a15b565b600082825260208201905092915050565b7f496e697469616c697a61626c653a20636f6e747261637420697320696e69746960008201527f616c697a696e6700000000000000000000000000000000000000000000000000602082015250565b60006200015d602783620000ee565b91506200016a82620000ff565b604082019050919050565b6000602082019050818103600083015262000190816200014e565b9050919050565b600060ff82169050919050565b620001af8162000197565b82525050565b6000602082019050620001cc6000830184620001a4565b92915050565b61142080620001e26000396000f3fe608060405234801561001057600080fd5b50600436106100b45760003560e01c806370a082311161007157806370a082311461018d57806391d14854146101bd578063a217fddf146101ed578063c4d66de81461020b578063ca5f81b514610227578063d547741f14610243576100b4565b806301ffc9a7146100b957806318160ddd146100e9578063248a9ca3146101075780632f2ff15d1461013757806336568abe1461015357806354fd4d501461016f575b600080fd5b6100d360048036038101906100ce9190610c14565b61025f565b6040516100e09190610c5c565b60405180910390f35b6100f16102d9565b6040516100fe9190610c90565b60405180910390f35b610121600480360381019061011c9190610ce1565b6102ec565b60405161012e9190610d1d565b60405180910390f35b610151600480360381019061014c9190610d96565b61030c565b005b61016d60048036038101906101689190610d96565b61032d565b005b6101776103b0565b6040516101849190610d1d565b60405180910390f35b6101a760048036038101906101a29190610dd6565b6103b6565b6040516101b49190610c90565b60405180910390f35b6101d760048036038101906101d29190610d96565b6103d7565b6040516101e49190610c5c565b60405180910390f35b6101f5610442565b6040516102029190610d1d565b60405180910390f35b61022560048036038101906102209190610dd6565b610449565b005b610241600480360381019061023c9190610ce1565b610595565b005b61025d60048036038101906102589190610d96565b6105eb565b005b60007f7965db0b000000000000000000000000000000000000000000000000000000007bffffffffffffffffffffffffffffffffffffffffffffffffffffffff1916827bffffffffffffffffffffffffffffffffffffffffffffffffffffffff191614806102d257506102d18261060c565b5b9050919050565b60006a52b7d2dcc80cd2e4000000905090565b600060656000838152602001908152602001600020600101549050919050565b610315826102ec565b61031e81610676565b610328838361068a565b505050565b61033561076b565b73ffffffffffffffffffffffffffffffffffffffff168173ffffffffffffffffffffffffffffffffffffffff16146103a2576040517f08c379a000000000000000000000000000000000000000000000000000000000815260040161039990610e86565b60405180910390fd5b6103ac8282610773565b5050565b60975481565b60008173ffffffffffffffffffffffffffffffffffffffff16319050919050565b60006065600084815260200190815260200160002060000160008373ffffffffffffffffffffffffffffffffffffffff1673ffffffffffffffffffffffffffffffffffffffff16815260200190815260200160002060009054906101000a900460ff16905092915050565b6000801b81565b60008060019054906101000a900460ff1615905080801561047a5750600160008054906101000a900460ff1660ff16105b806104a7575061048930610855565b1580156104a65750600160008054906101000a900460ff1660ff16145b5b6104e6576040517f08c379a00000000000000000000000000000000000000000000000000000000081526004016104dd90610f18565b60405180910390fd5b60016000806101000a81548160ff021916908360ff1602179055508015610523576001600060016101000a81548160ff0219169083151502179055505b61052b610878565b6105386000801b8361068a565b80156105915760008060016101000a81548160ff0219169083151502179055507f7f26b83ff96e1f2b6a682f133852f6798a09c465da95921460cefb384740249860016040516105889190610f8a565b60405180910390a15b5050565b6105a26000801b336103d7565b6105e1576040517f08c379a00000000000000000000000000000000000000000000000000000000081526004016105d890610ff1565b60405180910390fd5b8060978190555050565b6105f4826102ec565b6105fd81610676565b6106078383610773565b505050565b60007f01ffc9a7000000000000000000000000000000000000000000000000000000007bffffffffffffffffffffffffffffffffffffffffffffffffffffffff1916827bffffffffffffffffffffffffffffffffffffffffffffffffffffffff1916149050919050565b6106878161068261076b565b6108c9565b50565b61069482826103d7565b6107675760016065600084815260200190815260200160002060000160008373ffffffffffffffffffffffffffffffffffffffff1673ffffffffffffffffffffffffffffffffffffffff16815260200190815260200160002060006101000a81548160ff02191690831515021790555061070c61076b565b73ffffffffffffffffffffffffffffffffffffffff168173ffffffffffffffffffffffffffffffffffffffff16837f2f8788117e7eff1d82e926ec794901d17c78024a50270940304540a733656f0d60405160405180910390a45b5050565b600033905090565b61077d82826103d7565b156108515760006065600084815260200190815260200160002060000160008373ffffffffffffffffffffffffffffffffffffffff1673ffffffffffffffffffffffffffffffffffffffff16815260200190815260200160002060006101000a81548160ff0219169083151502179055506107f661076b565b73ffffffffffffffffffffffffffffffffffffffff168173ffffffffffffffffffffffffffffffffffffffff16837ff6391f5c32d9c69d2a47ea670b442974b53935d1edc7fd64eb21e047a839171b60405160405180910390a45b5050565b6000808273ffffffffffffffffffffffffffffffffffffffff163b119050919050565b600060019054906101000a900460ff166108c7576040517f08c379a00000000000000000000000000000000000000000000000000000000081526004016108be90611083565b60405180910390fd5b565b6108d382826103d7565b61094a576108e08161094e565b6108ee8360001c602061097b565b6040516020016108ff9291906111ac565b6040516020818303038152906040526040517f08c379a00000000000000000000000000000000000000000000000000000000081526004016109419190611230565b60405180910390fd5b5050565b60606109748273ffffffffffffffffffffffffffffffffffffffff16601460ff1661097b565b9050919050565b60606000600283600261098e9190611281565b61099891906112c3565b67ffffffffffffffff8111156109b1576109b06112f7565b5b6040519080825280601f01601f1916602001820160405280156109e35781602001600182028036833780820191505090505b5090507f300000000000000000000000000000000000000000000000000000000000000081600081518110610a1b57610a1a611326565b5b60200101907effffffffffffffffffffffffffffffffffffffffffffffffffffffffffffff1916908160001a9053507f780000000000000000000000000000000000000000000000000000000000000081600181518110610a7f57610a7e611326565b5b60200101907effffffffffffffffffffffffffffffffffffffffffffffffffffffffffffff1916908160001a90535060006001846002610abf9190611281565b610ac991906112c3565b90505b6001811115610b69577f3031323334353637383961626364656600000000000000000000000000000000600f861660108110610b0b57610b0a611326565b5b1a60f81b828281518110610b2257610b21611326565b5b60200101907effffffffffffffffffffffffffffffffffffffffffffffffffffffffffffff1916908160001a905350600485901c945080610b6290611355565b9050610acc565b5060008414610bad576040517f08c379a0000000000000000000000000000000000000000000000000000000008152600401610ba4906113ca565b60405180910390fd5b8091505092915050565b600080fd5b60007fffffffff0000000000000000000000000000000000000000000000000000000082169050919050565b610bf181610bbc565b8114610bfc57600080fd5b50565b600081359050610c0e81610be8565b92915050565b600060208284031215610c2a57610c29610bb7565b5b6000610c3884828501610bff565b91505092915050565b60008115159050919050565b610c5681610c41565b82525050565b6000602082019050610c716000830184610c4d565b92915050565b6000819050919050565b610c8a81610c77565b82525050565b6000602082019050610ca56000830184610c81565b92915050565b6000819050919050565b610cbe81610cab565b8114610cc957600080fd5b50565b600081359050610cdb81610cb5565b92915050565b600060208284031215610cf757610cf6610bb7565b5b6000610d0584828501610ccc565b91505092915050565b610d1781610cab565b82525050565b6000602082019050610d326000830184610d0e565b92915050565b600073ffffffffffffffffffffffffffffffffffffffff82169050919050565b6000610d6382610d38565b9050919050565b610d7381610d58565b8114610d7e57600080fd5b50565b600081359050610d9081610d6a565b92915050565b60008060408385031215610dad57610dac610bb7565b5b6000610dbb85828601610ccc565b9250506020610dcc85828601610d81565b9150509250929050565b600060208284031215610dec57610deb610bb7565b5b6000610dfa84828501610d81565b91505092915050565b600082825260208201905092915050565b7f416363657373436f6e74726f6c3a2063616e206f6e6c792072656e6f756e636560008201527f20726f6c657320666f722073656c660000000000000000000000000000000000602082015250565b6000610e70602f83610e03565b9150610e7b82610e14565b604082019050919050565b60006020820190508181036000830152610e9f81610e63565b9050919050565b7f496e697469616c697a61626c653a20636f6e747261637420697320616c72656160008201527f647920696e697469616c697a6564000000000000000000000000000000000000602082015250565b6000610f02602e83610e03565b9150610f0d82610ea6565b604082019050919050565b60006020820190508181036000830152610f3181610ef5565b9050919050565b6000819050919050565b600060ff82169050919050565b6000819050919050565b6000610f74610f6f610f6a84610f38565b610f4f565b610f42565b9050919050565b610f8481610f59565b82525050565b6000602082019050610f9f6000830184610f7b565b92915050565b7f42524e42616c616e636547657474657223300000000000000000000000000000600082015250565b6000610fdb601283610e03565b9150610fe682610fa5565b602082019050919050565b6000602082019050818103600083015261100a81610fce565b9050919050565b7f496e697469616c697a61626c653a20636f6e7472616374206973206e6f74206960008201527f6e697469616c697a696e67000000000000000000000000000000000000000000602082015250565b600061106d602b83610e03565b915061107882611011565b604082019050919050565b6000602082019050818103600083015261109c81611060565b9050919050565b600081905092915050565b7f416363657373436f6e74726f6c3a206163636f756e7420000000000000000000600082015250565b60006110e46017836110a3565b91506110ef826110ae565b601782019050919050565b600081519050919050565b60005b83811015611123578082015181840152602081019050611108565b60008484015250505050565b600061113a826110fa565b61114481856110a3565b9350611154818560208601611105565b80840191505092915050565b7f206973206d697373696e6720726f6c6520000000000000000000000000000000600082015250565b60006111966011836110a3565b91506111a182611160565b601182019050919050565b60006111b7826110d7565b91506111c3828561112f565b91506111ce82611189565b91506111da828461112f565b91508190509392505050565b6000601f19601f8301169050919050565b6000611202826110fa565b61120c8185610e03565b935061121c818560208601611105565b611225816111e6565b840191505092915050565b6000602082019050818103600083015261124a81846111f7565b905092915050565b7f4e487b7100000000000000000000000000000000000000000000000000000000600052601160045260246000fd5b600061128c82610c77565b915061129783610c77565b92508282026112a581610c77565b915082820484148315176112bc576112bb611252565b5b5092915050565b60006112ce82610c77565b91506112d983610c77565b92508282019050808211156112f1576112f0611252565b5b92915050565b7f4e487b7100000000000000000000000000000000000000000000000000000000600052604160045260246000fd5b7f4e487b7100000000000000000000000000000000000000000000000000000000600052603260045260246000fd5b600061136082610c77565b91506000820361137357611372611252565b5b600182039050919050565b7f537472696e67733a20686578206c656e67746820696e73756666696369656e74600082015250565b60006113b4602083610e03565b91506113bf8261137e565b602082019050919050565b600060208201905081810360008301526113e3816113a7565b905091905056fea2646970667358221220c5ae103a43e3393424736f612db985146ba11ad3c08fa8a42a38036e866f06dc64736f6c63430008180033",
  "linkReferences": {},
  "deployedLinkReferences": {}
}