{
  "_format": "hh-sol-artifact-1",
  "contractName": "TRNInflation",
  "sourceName": "contracts/TRNInflation.sol",
  "abi": [
    {
      "inputs": [],
      "stateMutability": "nonpayable",
      "type": "constructor"
    },
    {
      "anonymous": false,
      "inputs": [
        {
          "indexed": false,
          "internalType": "uint8",
          "name": "version",
          "type": "uint8"
        }
      ],
      "name": "Initialized",
      "type": "event"
    },
    {
      "anonymous": false,
      "inputs": [
        {
          "indexed": true,
          "internalType": "bytes32",
          "name": "role",
          "type": "bytes32"
        },
        {
          "indexed": true,
          "internalType": "bytes32",
          "name": "previousAdminRole",
          "type": "bytes32"
        },
        {
          "indexed": true,
          "internalType": "bytes32",
          "name": "newAdminRole",
          "type": "bytes32"
        }
      ],
      "name": "RoleAdminChanged",
      "type": "event"
    },
    {
      "anonymous": false,
      "inputs": [
        {
          "indexed": true,
          "internalType": "bytes32",
          "name": "role",
          "type": "bytes32"
        },
        {
          "indexed": true,
          "internalType": "address",
          "name": "account",
          "type": "address"
        },
        {
          "indexed": true,
          "internalType": "address",
          "name": "sender",
          "type": "address"
        }
      ],
      "name": "RoleGranted",
      "type": "event"
    },
    {
      "anonymous": false,
      "inputs": [
        {
          "indexed": true,
          "internalType": "bytes32",
          "name": "role",
          "type": "bytes32"
        },
        {
          "indexed": true,
          "internalType": "address",
          "name": "account",
          "type": "address"
        },
        {
          "indexed": true,
          "internalType": "address",
          "name": "sender",
          "type": "address"
        }
      ],
      "name": "RoleRevoked",
      "type": "event"
    },
    {
      "stateMutability": "payable",
      "type": "fallback"
    },
    {
      "inputs": [],
      "name": "ATTESTER_INFLATION",
      "outputs": [
        {
          "internalType": "uint256",
          "name": "",
          "type": "uint256"
        }
      ],
      "stateMutability": "view",
      "type": "function"
    },
    {
      "inputs": [],
      "name": "DEFAULT_ADMIN_ROLE",
      "outputs": [
        {
          "internalType": "bytes32",
          "name": "",
          "type": "bytes32"
        }
      ],
      "stateMutability": "view",
      "type": "function"
    },
    {
      "inputs": [],
      "name": "EXECUTOR_INFLATION",
      "outputs": [
        {
          "internalType": "uint256",
          "name": "",
          "type": "uint256"
        }
      ],
      "stateMutability": "view",
      "type": "function"
    },
    {
      "inputs": [],
      "name": "MICRO_WEEKS_IN_YEAR",
      "outputs": [
        {
          "internalType": "uint256",
          "name": "",
          "type": "uint256"
        }
      ],
      "stateMutability": "view",
      "type": "function"
    },
    {
      "inputs": [],
      "name": "TOTAL_SUPPLY",
      "outputs": [
        {
          "internalType": "uint256",
          "name": "",
          "type": "uint256"
        }
      ],
      "stateMutability": "view",
      "type": "function"
    },
    {
      "inputs": [],
      "name": "TRNInflationRewardsAddress",
      "outputs": [
        {
          "internalType": "contract TRNInflationRewards",
          "name": "",
          "type": "address"
        }
      ],
      "stateMutability": "view",
      "type": "function"
    },
    {
      "inputs": [],
      "name": "USER_INFLATION",
      "outputs": [
        {
          "internalType": "uint256",
          "name": "",
          "type": "uint256"
        }
      ],
      "stateMutability": "view",
      "type": "function"
    },
    {
      "inputs": [],
      "name": "WEEKLY_INFLATION_INTERVAL",
      "outputs": [
        {
          "internalType": "uint256",
          "name": "",
          "type": "uint256"
        }
      ],
      "stateMutability": "view",
      "type": "function"
    },
    {
      "inputs": [],
      "name": "calculateWeeklyScheduledInflation",
      "outputs": [
        {
          "internalType": "uint256",
          "name": "weeklyInflationTotal",
          "type": "uint256"
        }
      ],
      "stateMutability": "pure",
      "type": "function"
    },
    {
      "inputs": [],
      "name": "calculateWeeklyScheduledInflationForAttesters",
      "outputs": [
        {
          "internalType": "uint256",
          "name": "",
          "type": "uint256"
        }
      ],
      "stateMutability": "pure",
      "type": "function"
    },
    {
      "inputs": [],
      "name": "calculateWeeklyScheduledInflationForExecutors",
      "outputs": [
        {
          "internalType": "uint256",
          "name": "",
          "type": "uint256"
        }
      ],
      "stateMutability": "pure",
      "type": "function"
    },
    {
      "inputs": [],
      "name": "calculateWeeklyScheduledInflationForUsers",
      "outputs": [
        {
          "internalType": "uint256",
          "name": "",
          "type": "uint256"
        }
      ],
      "stateMutability": "pure",
      "type": "function"
    },
    {
      "inputs": [],
      "name": "checkIsInflationOn",
      "outputs": [
        {
          "internalType": "bool",
          "name": "",
          "type": "bool"
        }
      ],
      "stateMutability": "view",
      "type": "function"
    },
    {
      "inputs": [],
      "name": "distributeInflation",
      "outputs": [],
      "stateMutability": "nonpayable",
      "type": "function"
    },
    {
      "inputs": [
        {
          "internalType": "bytes32",
          "name": "role",
          "type": "bytes32"
        }
      ],
      "name": "getRoleAdmin",
      "outputs": [
        {
          "internalType": "bytes32",
          "name": "",
          "type": "bytes32"
        }
      ],
      "stateMutability": "view",
      "type": "function"
    },
    {
      "inputs": [
        {
          "internalType": "bytes32",
          "name": "role",
          "type": "bytes32"
        },
        {
          "internalType": "address",
          "name": "account",
          "type": "address"
        }
      ],
      "name": "grantRole",
      "outputs": [],
      "stateMutability": "nonpayable",
      "type": "function"
    },
    {
      "inputs": [
        {
          "internalType": "bytes32",
          "name": "role",
          "type": "bytes32"
        },
        {
          "internalType": "address",
          "name": "account",
          "type": "address"
        }
      ],
      "name": "hasRole",
      "outputs": [
        {
          "internalType": "bool",
          "name": "",
          "type": "bool"
        }
      ],
      "stateMutability": "view",
      "type": "function"
    },
    {
      "inputs": [
        {
          "internalType": "address",
          "name": "_owner",
          "type": "address"
        },
        {
          "internalType": "address payable",
          "name": "_TRNInflationRewardsAddress",
          "type": "address"
        }
      ],
      "name": "initialize",
      "outputs": [],
      "stateMutability": "nonpayable",
      "type": "function"
    },
    {
      "inputs": [],
      "name": "isInflationOn",
      "outputs": [
        {
          "internalType": "bool",
          "name": "",
          "type": "bool"
        }
      ],
      "stateMutability": "view",
      "type": "function"
    },
    {
      "inputs": [],
      "name": "lastInflationTime",
      "outputs": [
        {
          "internalType": "uint256",
          "name": "",
          "type": "uint256"
        }
      ],
      "stateMutability": "view",
      "type": "function"
    },
    {
      "inputs": [
        {
          "internalType": "bytes32",
          "name": "role",
          "type": "bytes32"
        },
        {
          "internalType": "address",
          "name": "account",
          "type": "address"
        }
      ],
      "name": "renounceRole",
      "outputs": [],
      "stateMutability": "nonpayable",
      "type": "function"
    },
    {
      "inputs": [
        {
          "internalType": "bytes32",
          "name": "role",
          "type": "bytes32"
        },
        {
          "internalType": "address",
          "name": "account",
          "type": "address"
        }
      ],
      "name": "revokeRole",
      "outputs": [],
      "stateMutability": "nonpayable",
      "type": "function"
    },
    {
      "inputs": [],
      "name": "setInflationOff",
      "outputs": [],
      "stateMutability": "nonpayable",
      "type": "function"
    },
    {
      "inputs": [],
      "name": "setInflationOn",
      "outputs": [],
      "stateMutability": "nonpayable",
      "type": "function"
    },
    {
      "inputs": [
        {
          "internalType": "address payable",
          "name": "_TRNInflationRewardsAddress",
          "type": "address"
        }
      ],
      "name": "setTRNInflationRewardsAddress",
      "outputs": [],
      "stateMutability": "nonpayable",
      "type": "function"
    },
    {
      "inputs": [
        {
          "internalType": "bytes32",
          "name": "_version",
          "type": "bytes32"
        }
      ],
      "name": "setVersion",
      "outputs": [],
      "stateMutability": "nonpayable",
      "type": "function"
    },
    {
      "inputs": [
        {
          "internalType": "bytes4",
          "name": "interfaceId",
          "type": "bytes4"
        }
      ],
      "name": "supportsInterface",
      "outputs": [
        {
          "internalType": "bool",
          "name": "",
          "type": "bool"
        }
      ],
      "stateMutability": "view",
      "type": "function"
    },
    {
      "inputs": [],
      "name": "version",
      "outputs": [
        {
          "internalType": "bytes32",
          "name": "",
          "type": "bytes32"
        }
      ],
      "stateMutability": "view",
      "type": "function"
    },
    {
      "stateMutability": "payable",
      "type": "receive"
    }
  ],
  "bytecode": "0x60806040523480156200001157600080fd5b50620000226200002860201b60201c565b620001d2565b600060019054906101000a900460ff16156200007b576040517f08c379a0000000000000000000000000000000000000000000000000000000008152600401620000729062000175565b60405180910390fd5b60ff801660008054906101000a900460ff1660ff1614620000ec5760ff6000806101000a81548160ff021916908360ff1602179055507f7f26b83ff96e1f2b6a682f133852f6798a09c465da95921460cefb384740249860ff604051620000e39190620001b5565b60405180910390a15b565b600082825260208201905092915050565b7f496e697469616c697a61626c653a20636f6e747261637420697320696e69746960008201527f616c697a696e6700000000000000000000000000000000000000000000000000602082015250565b60006200015d602783620000ee565b91506200016a82620000ff565b604082019050919050565b6000602082019050818103600083015262000190816200014e565b9050919050565b600060ff82169050919050565b620001af8162000197565b82525050565b6000602082019050620001cc6000830184620001a4565b92915050565b61209880620001e26000396000f3fe6080604052600436106101bb5760003560e01c8063727efba5116100ec578063c373fee31161008a578063ca5f81b511610064578063ca5f81b5146105be578063d547741f146105e7578063f31d5cc214610610578063fd87a99a1461063b576101c2565b8063c373fee314610551578063c51083a414610568578063c793722a14610593576101c2565b806391d14854116100c657806391d14854146104a9578063a217fddf146104e6578063b159cfbf14610511578063c1ba4d381461053a576101c2565b8063727efba514610428578063821ec0e314610453578063902d55a51461047e576101c2565b806336568abe11610159578063485cc95511610133578063485cc9551461037e57806353f42534146103a757806354fd4d50146103d2578063703204ca146103fd576101c2565b806336568abe146102ff578063391d7577146103285780633fb457f714610353576101c2565b806315007e381161019557806315007e38146102575780632187e4e314610282578063248a9ca3146102995780632f2ff15d146102d6576101c2565b806301ffc9a7146101c4578063052d23301461020157806306421fe61461022c576101c2565b366101c257005b005b3480156101d057600080fd5b506101eb60048036038101906101e6919061157a565b610666565b6040516101f891906115c2565b60405180910390f35b34801561020d57600080fd5b506102166106e0565b60405161022391906115f6565b60405180910390f35b34801561023857600080fd5b5061024161070f565b60405161024e91906115f6565b60405180910390f35b34801561026357600080fd5b5061026c6107b3565b60405161027991906115f6565b60405180910390f35b34801561028e57600080fd5b506102976107b9565b005b3480156102a557600080fd5b506102c060048036038101906102bb9190611647565b610822565b6040516102cd9190611683565b60405180910390f35b3480156102e257600080fd5b506102fd60048036038101906102f891906116fc565b610842565b005b34801561030b57600080fd5b50610326600480360381019061032191906116fc565b610863565b005b34801561033457600080fd5b5061033d6108e6565b60405161034a91906115f6565b60405180910390f35b34801561035f57600080fd5b506103686108ee565b60405161037591906115f6565b60405180910390f35b34801561038a57600080fd5b506103a560048036038101906103a0919061177a565b61091d565b005b3480156103b357600080fd5b506103bc610ad5565b6040516103c991906115f6565b60405180910390f35b3480156103de57600080fd5b506103e7610adb565b6040516103f49190611683565b60405180910390f35b34801561040957600080fd5b50610412610ae1565b60405161041f91906115f6565b60405180910390f35b34801561043457600080fd5b5061043d610ae7565b60405161044a91906115f6565b60405180910390f35b34801561045f57600080fd5b50610468610aee565b6040516104759190611819565b60405180910390f35b34801561048a57600080fd5b50610493610b14565b6040516104a091906115f6565b60405180910390f35b3480156104b557600080fd5b506104d060048036038101906104cb91906116fc565b610b23565b6040516104dd91906115c2565b60405180910390f35b3480156104f257600080fd5b506104fb610b8e565b6040516105089190611683565b60405180910390f35b34801561051d57600080fd5b5061053860048036038101906105339190611834565b610b95565b005b34801561054657600080fd5b5061054f610c25565b005b34801561055d57600080fd5b50610566610c8e565b005b34801561057457600080fd5b5061057d610e9c565b60405161058a91906115f6565b60405180910390f35b34801561059f57600080fd5b506105a8610ecb565b6040516105b591906115c2565b60405180910390f35b3480156105ca57600080fd5b506105e560048036038101906105e09190611647565b610ede565b005b3480156105f357600080fd5b5061060e600480360381019061060991906116fc565b610f34565b005b34801561061c57600080fd5b50610625610f55565b60405161063291906115c2565b60405180910390f35b34801561064757600080fd5b50610650610f6c565b60405161065d91906115f6565b60405180910390f35b60007f7965db0b000000000000000000000000000000000000000000000000000000007bffffffffffffffffffffffffffffffffffffffffffffffffffffffff1916827bffffffffffffffffffffffffffffffffffffffffffffffffffffffff191614806106d957506106d882610f72565b5b9050919050565b600063031c2a5c611f406a52b7d2dcc80cd2e40000006107009190611890565b61070a9190611901565b905090565b60008063031c2a5c612ee06a52b7d2dcc80cd2e40000006107309190611890565b61073a9190611901565b9050600063031c2a5c612ee06a52b7d2dcc80cd2e400000061075c9190611890565b6107669190611901565b9050600063031c2a5c611f406a52b7d2dcc80cd2e40000006107889190611890565b6107929190611901565b90508082846107a19190611932565b6107ab9190611932565b935050505090565b611f4081565b6107c66000801b33610b23565b610805576040517f08c379a00000000000000000000000000000000000000000000000000000000081526004016107fc906119e9565b60405180910390fd5b6001609960006101000a81548160ff021916908315150217905550565b600060656000838152602001908152602001600020600101549050919050565b61084b82610822565b61085481610fdc565b61085e8383610ff0565b505050565b61086b6110d1565b73ffffffffffffffffffffffffffffffffffffffff168173ffffffffffffffffffffffffffffffffffffffff16146108d8576040517f08c379a00000000000000000000000000000000000000000000000000000000081526004016108cf90611a7b565b60405180910390fd5b6108e282826110d9565b5050565b63031c2a5c81565b600063031c2a5c612ee06a52b7d2dcc80cd2e400000061090e9190611890565b6109189190611901565b905090565b60008060019054906101000a900460ff1615905080801561094e5750600160008054906101000a900460ff1660ff16105b8061097b575061095d306111bb565b15801561097a5750600160008054906101000a900460ff1660ff16145b5b6109ba576040517f08c379a00000000000000000000000000000000000000000000000000000000081526004016109b190611b0d565b60405180910390fd5b60016000806101000a81548160ff021916908360ff16021790555080156109f7576001600060016101000a81548160ff0219169083151502179055505b6109ff6111de565b610a0c6000801b84610ff0565b60006098819055506001609960006101000a81548160ff0219169083151502179055504260988190555081609760006101000a81548173ffffffffffffffffffffffffffffffffffffffff021916908373ffffffffffffffffffffffffffffffffffffffff1602179055508015610ad05760008060016101000a81548160ff0219169083151502179055507f7f26b83ff96e1f2b6a682f133852f6798a09c465da95921460cefb38474024986001604051610ac79190611b75565b60405180910390a15b505050565b612ee081565b609a5481565b60985481565b62093a8081565b609760009054906101000a900473ffffffffffffffffffffffffffffffffffffffff1681565b6a52b7d2dcc80cd2e400000081565b60006065600084815260200190815260200160002060000160008373ffffffffffffffffffffffffffffffffffffffff1673ffffffffffffffffffffffffffffffffffffffff16815260200190815260200160002060009054906101000a900460ff16905092915050565b6000801b81565b610ba26000801b33610b23565b610be1576040517f08c379a0000000000000000000000000000000000000000000000000000000008152600401610bd8906119e9565b60405180910390fd5b80609760006101000a81548173ffffffffffffffffffffffffffffffffffffffff021916908373ffffffffffffffffffffffffffffffffffffffff16021790555050565b610c326000801b33610b23565b610c71576040517f08c379a0000000000000000000000000000000000000000000000000000000008152600401610c68906119e9565b60405180910390fd5b6000609960006101000a81548160ff021916908315150217905550565b609960009054906101000a900460ff16610cdd576040517f08c379a0000000000000000000000000000000000000000000000000000000008152600401610cd490611bdc565b60405180910390fd5b6000610ce761070f565b9050600062093a8060985442610cfd9190611bfc565b610d079190611901565b905060018111610d4c576040517f08c379a0000000000000000000000000000000000000000000000000000000008152600401610d4390611c7c565b60405180910390fd5b60008183610d5a9190611890565b905042609881905550600047905081811015610dab576040517f08c379a0000000000000000000000000000000000000000000000000000000008152600401610da290611d0e565b60405180910390fd5b609760009054906101000a900473ffffffffffffffffffffffffffffffffffffffff1673ffffffffffffffffffffffffffffffffffffffff166108fc839081150290604051600060405180830381858888f19350505050158015610e13573d6000803e3d6000fd5b50609760009054906101000a900473ffffffffffffffffffffffffffffffffffffffff1673ffffffffffffffffffffffffffffffffffffffff1663a987b5ad6040518163ffffffff1660e01b8152600401600060405180830381600087803b158015610e7e57600080fd5b505af1158015610e92573d6000803e3d6000fd5b5050505050505050565b600063031c2a5c612ee06a52b7d2dcc80cd2e4000000610ebc9190611890565b610ec69190611901565b905090565b609960009054906101000a900460ff1681565b610eeb6000801b33610b23565b610f2a576040517f08c379a0000000000000000000000000000000000000000000000000000000008152600401610f21906119e9565b60405180910390fd5b80609a8190555050565b610f3d82610822565b610f4681610fdc565b610f5083836110d9565b505050565b6000609960009054906101000a900460ff16905090565b612ee081565b60007f01ffc9a7000000000000000000000000000000000000000000000000000000007bffffffffffffffffffffffffffffffffffffffffffffffffffffffff1916827bffffffffffffffffffffffffffffffffffffffffffffffffffffffff1916149050919050565b610fed81610fe86110d1565b61122f565b50565b610ffa8282610b23565b6110cd5760016065600084815260200190815260200160002060000160008373ffffffffffffffffffffffffffffffffffffffff1673ffffffffffffffffffffffffffffffffffffffff16815260200190815260200160002060006101000a81548160ff0219169083151502179055506110726110d1565b73ffffffffffffffffffffffffffffffffffffffff168173ffffffffffffffffffffffffffffffffffffffff16837f2f8788117e7eff1d82e926ec794901d17c78024a50270940304540a733656f0d60405160405180910390a45b5050565b600033905090565b6110e38282610b23565b156111b75760006065600084815260200190815260200160002060000160008373ffffffffffffffffffffffffffffffffffffffff1673ffffffffffffffffffffffffffffffffffffffff16815260200190815260200160002060006101000a81548160ff02191690831515021790555061115c6110d1565b73ffffffffffffffffffffffffffffffffffffffff168173ffffffffffffffffffffffffffffffffffffffff16837ff6391f5c32d9c69d2a47ea670b442974b53935d1edc7fd64eb21e047a839171b60405160405180910390a45b5050565b6000808273ffffffffffffffffffffffffffffffffffffffff163b119050919050565b600060019054906101000a900460ff1661122d576040517f08c379a000000000000000000000000000000000000000000000000000000000815260040161122490611da0565b60405180910390fd5b565b6112398282610b23565b6112b057611246816112b4565b6112548360001c60206112e1565b604051602001611265929190611ec9565b6040516020818303038152906040526040517f08c379a00000000000000000000000000000000000000000000000000000000081526004016112a79190611f4d565b60405180910390fd5b5050565b60606112da8273ffffffffffffffffffffffffffffffffffffffff16601460ff166112e1565b9050919050565b6060600060028360026112f49190611890565b6112fe9190611932565b67ffffffffffffffff81111561131757611316611f6f565b5b6040519080825280601f01601f1916602001820160405280156113495781602001600182028036833780820191505090505b5090507f30000000000000000000000000000000000000000000000000000000000000008160008151811061138157611380611f9e565b5b60200101907effffffffffffffffffffffffffffffffffffffffffffffffffffffffffffff1916908160001a9053507f7800000000000000000000000000000000000000000000000000000000000000816001815181106113e5576113e4611f9e565b5b60200101907effffffffffffffffffffffffffffffffffffffffffffffffffffffffffffff1916908160001a905350600060018460026114259190611890565b61142f9190611932565b90505b60018111156114cf577f3031323334353637383961626364656600000000000000000000000000000000600f86166010811061147157611470611f9e565b5b1a60f81b82828151811061148857611487611f9e565b5b60200101907effffffffffffffffffffffffffffffffffffffffffffffffffffffffffffff1916908160001a905350600485901c9450806114c890611fcd565b9050611432565b5060008414611513576040517f08c379a000000000000000000000000000000000000000000000000000000000815260040161150a90612042565b60405180910390fd5b8091505092915050565b600080fd5b60007fffffffff0000000000000000000000000000000000000000000000000000000082169050919050565b61155781611522565b811461156257600080fd5b50565b6000813590506115748161154e565b92915050565b6000602082840312156115905761158f61151d565b5b600061159e84828501611565565b91505092915050565b60008115159050919050565b6115bc816115a7565b82525050565b60006020820190506115d760008301846115b3565b92915050565b6000819050919050565b6115f0816115dd565b82525050565b600060208201905061160b60008301846115e7565b92915050565b6000819050919050565b61162481611611565b811461162f57600080fd5b50565b6000813590506116418161161b565b92915050565b60006020828403121561165d5761165c61151d565b5b600061166b84828501611632565b91505092915050565b61167d81611611565b82525050565b60006020820190506116986000830184611674565b92915050565b600073ffffffffffffffffffffffffffffffffffffffff82169050919050565b60006116c98261169e565b9050919050565b6116d9816116be565b81146116e457600080fd5b50565b6000813590506116f6816116d0565b92915050565b600080604083850312156117135761171261151d565b5b600061172185828601611632565b9250506020611732858286016116e7565b9150509250929050565b60006117478261169e565b9050919050565b6117578161173c565b811461176257600080fd5b50565b6000813590506117748161174e565b92915050565b600080604083850312156117915761179061151d565b5b600061179f858286016116e7565b92505060206117b085828601611765565b9150509250929050565b6000819050919050565b60006117df6117da6117d58461169e565b6117ba565b61169e565b9050919050565b60006117f1826117c4565b9050919050565b6000611803826117e6565b9050919050565b611813816117f8565b82525050565b600060208201905061182e600083018461180a565b92915050565b60006020828403121561184a5761184961151d565b5b600061185884828501611765565b91505092915050565b7f4e487b7100000000000000000000000000000000000000000000000000000000600052601160045260246000fd5b600061189b826115dd565b91506118a6836115dd565b92508282026118b4816115dd565b915082820484148315176118cb576118ca611861565b5b5092915050565b7f4e487b7100000000000000000000000000000000000000000000000000000000600052601260045260246000fd5b600061190c826115dd565b9150611917836115dd565b925082611927576119266118d2565b5b828204905092915050565b600061193d826115dd565b9150611948836115dd565b92508282019050808211156119605761195f611861565b5b92915050565b600082825260208201905092915050565b7f4f6e6c79206f776e65722063616e2063616c6c20746869732066756e6374696f60008201527f6e00000000000000000000000000000000000000000000000000000000000000602082015250565b60006119d3602183611966565b91506119de82611977565b604082019050919050565b60006020820190508181036000830152611a02816119c6565b9050919050565b7f416363657373436f6e74726f6c3a2063616e206f6e6c792072656e6f756e636560008201527f20726f6c657320666f722073656c660000000000000000000000000000000000602082015250565b6000611a65602f83611966565b9150611a7082611a09565b604082019050919050565b60006020820190508181036000830152611a9481611a58565b9050919050565b7f496e697469616c697a61626c653a20636f6e747261637420697320616c72656160008201527f647920696e697469616c697a6564000000000000000000000000000000000000602082015250565b6000611af7602e83611966565b9150611b0282611a9b565b604082019050919050565b60006020820190508181036000830152611b2681611aea565b9050919050565b6000819050919050565b600060ff82169050919050565b6000611b5f611b5a611b5584611b2d565b6117ba565b611b37565b9050919050565b611b6f81611b44565b82525050565b6000602082019050611b8a6000830184611b66565b92915050565b7f496e666c6174696f6e206973206f666600000000000000000000000000000000600082015250565b6000611bc6601083611966565b9150611bd182611b90565b602082019050919050565b60006020820190508181036000830152611bf581611bb9565b9050919050565b6000611c07826115dd565b9150611c12836115dd565b9250828203905081811115611c2a57611c29611861565b5b92915050565b7f446973616c6c6f7720726570656174656420646973747269627574696f6e7300600082015250565b6000611c66601f83611966565b9150611c7182611c30565b602082019050919050565b60006020820190508181036000830152611c9581611c59565b9050919050565b7f496e73756666696369656e742062616c616e636520696e2054524e47656e657360008201527f6973496e666c6174696f6e52657761726473486f6c6465720000000000000000602082015250565b6000611cf8603883611966565b9150611d0382611c9c565b604082019050919050565b60006020820190508181036000830152611d2781611ceb565b9050919050565b7f496e697469616c697a61626c653a20636f6e7472616374206973206e6f74206960008201527f6e697469616c697a696e67000000000000000000000000000000000000000000602082015250565b6000611d8a602b83611966565b9150611d9582611d2e565b604082019050919050565b60006020820190508181036000830152611db981611d7d565b9050919050565b600081905092915050565b7f416363657373436f6e74726f6c3a206163636f756e7420000000000000000000600082015250565b6000611e01601783611dc0565b9150611e0c82611dcb565b601782019050919050565b600081519050919050565b60005b83811015611e40578082015181840152602081019050611e25565b60008484015250505050565b6000611e5782611e17565b611e618185611dc0565b9350611e71818560208601611e22565b80840191505092915050565b7f206973206d697373696e6720726f6c6520000000000000000000000000000000600082015250565b6000611eb3601183611dc0565b9150611ebe82611e7d565b601182019050919050565b6000611ed482611df4565b9150611ee08285611e4c565b9150611eeb82611ea6565b9150611ef78284611e4c565b91508190509392505050565b6000601f19601f8301169050919050565b6000611f1f82611e17565b611f298185611966565b9350611f39818560208601611e22565b611f4281611f03565b840191505092915050565b60006020820190508181036000830152611f678184611f14565b905092915050565b7f4e487b7100000000000000000000000000000000000000000000000000000000600052604160045260246000fd5b7f4e487b7100000000000000000000000000000000000000000000000000000000600052603260045260246000fd5b6000611fd8826115dd565b915060008203611feb57611fea611861565b5b600182039050919050565b7f537472696e67733a20686578206c656e67746820696e73756666696369656e74600082015250565b600061202c602083611966565b915061203782611ff6565b602082019050919050565b6000602082019050818103600083015261205b8161201f565b905091905056fea26469706673582212205abd421e10ef8f1a406017ba8b9bd276a6e0c08ba12364a04712f5056a00b7c064736f6c63430008180033",
  "linkReferences": {},
  "deployedLinkReferences": {}
}