{
  "_format": "hh-sol-artifact-1",
  "contractName": "LongRangeAttestationsBook",
  "sourceName": "contracts/longRangeAttestationsBook.sol",
  "abi": [
    {
      "inputs": [],
      "stateMutability": "nonpayable",
      "type": "constructor"
    },
    {
      "anonymous": false,
      "inputs": [
        {
          "indexed": false,
          "internalType": "bytes32",
          "name": "orderId",
          "type": "bytes32"
        }
      ],
      "name": "AddPendingAttestationToUnknownOrder",
      "type": "event"
    },
    {
      "anonymous": false,
      "inputs": [
        {
          "indexed": false,
          "internalType": "bytes32",
          "name": "orderId",
          "type": "bytes32"
        },
        {
          "indexed": false,
          "internalType": "address",
          "name": "bidWinner",
          "type": "address"
        },
        {
          "indexed": false,
          "internalType": "address",
          "name": "committedExecutor",
          "type": "address"
        }
      ],
      "name": "ExecutorMismatch",
      "type": "event"
    },
    {
      "anonymous": false,
      "inputs": [
        {
          "indexed": false,
          "internalType": "bytes32",
          "name": "orderId",
          "type": "bytes32"
        },
        {
          "indexed": false,
          "internalType": "bytes",
          "name": "messagePayload",
          "type": "bytes"
        },
        {
          "indexed": false,
          "internalType": "bytes",
          "name": "newMessagePayload",
          "type": "bytes"
        }
      ],
      "name": "GMPMismatch",
      "type": "event"
    },
    {
      "anonymous": false,
      "inputs": [
        {
          "indexed": false,
          "internalType": "uint8",
          "name": "version",
          "type": "uint8"
        }
      ],
      "name": "Initialized",
      "type": "event"
    },
    {
      "anonymous": false,
      "inputs": [
        {
          "indexed": false,
          "internalType": "bytes4",
          "name": "networkId",
          "type": "bytes4"
        },
        {
          "indexed": false,
          "internalType": "bytes32",
          "name": "batchHash",
          "type": "bytes32"
        },
        {
          "indexed": false,
          "internalType": "uint256",
          "name": "batchIndex",
          "type": "uint256"
        },
        {
          "indexed": false,
          "internalType": "uint256",
          "name": "batchSize",
          "type": "uint256"
        }
      ],
      "name": "LongRangeBatchCreated",
      "type": "event"
    },
    {
      "anonymous": false,
      "inputs": [
        {
          "indexed": false,
          "internalType": "bytes32",
          "name": "orderId",
          "type": "bytes32"
        },
        {
          "indexed": false,
          "internalType": "bytes4",
          "name": "networkId",
          "type": "bytes4"
        },
        {
          "indexed": false,
          "internalType": "bytes",
          "name": "messagePayload",
          "type": "bytes"
        }
      ],
      "name": "NewOrderAttested",
      "type": "event"
    },
    {
      "anonymous": false,
      "inputs": [
        {
          "indexed": true,
          "internalType": "bytes32",
          "name": "role",
          "type": "bytes32"
        },
        {
          "indexed": true,
          "internalType": "bytes32",
          "name": "previousAdminRole",
          "type": "bytes32"
        },
        {
          "indexed": true,
          "internalType": "bytes32",
          "name": "newAdminRole",
          "type": "bytes32"
        }
      ],
      "name": "RoleAdminChanged",
      "type": "event"
    },
    {
      "anonymous": false,
      "inputs": [
        {
          "indexed": true,
          "internalType": "bytes32",
          "name": "role",
          "type": "bytes32"
        },
        {
          "indexed": true,
          "internalType": "address",
          "name": "account",
          "type": "address"
        },
        {
          "indexed": true,
          "internalType": "address",
          "name": "sender",
          "type": "address"
        }
      ],
      "name": "RoleGranted",
      "type": "event"
    },
    {
      "anonymous": false,
      "inputs": [
        {
          "indexed": true,
          "internalType": "bytes32",
          "name": "role",
          "type": "bytes32"
        },
        {
          "indexed": true,
          "internalType": "address",
          "name": "account",
          "type": "address"
        },
        {
          "indexed": true,
          "internalType": "address",
          "name": "sender",
          "type": "address"
        }
      ],
      "name": "RoleRevoked",
      "type": "event"
    },
    {
      "inputs": [],
      "name": "DEFAULT_ADMIN_ROLE",
      "outputs": [
        {
          "internalType": "bytes32",
          "name": "",
          "type": "bytes32"
        }
      ],
      "stateMutability": "view",
      "type": "function"
    },
    {
      "inputs": [
        {
          "internalType": "bytes4",
          "name": "networkId",
          "type": "bytes4"
        },
        {
          "internalType": "bytes32",
          "name": "orderId",
          "type": "bytes32"
        },
        {
          "internalType": "address",
          "name": "attester",
          "type": "address"
        },
        {
          "internalType": "bytes",
          "name": "messagePayload",
          "type": "bytes"
        }
      ],
      "name": "addPendingOrder",
      "outputs": [
        {
          "internalType": "bool",
          "name": "",
          "type": "bool"
        }
      ],
      "stateMutability": "nonpayable",
      "type": "function"
    },
    {
      "inputs": [
        {
          "internalType": "bytes4",
          "name": "",
          "type": "bytes4"
        }
      ],
      "name": "addedCounters",
      "outputs": [
        {
          "internalType": "uint256",
          "name": "",
          "type": "uint256"
        }
      ],
      "stateMutability": "view",
      "type": "function"
    },
    {
      "inputs": [],
      "name": "attestersPortal",
      "outputs": [
        {
          "internalType": "contract AttestersPortal",
          "name": "",
          "type": "address"
        }
      ],
      "stateMutability": "view",
      "type": "function"
    },
    {
      "inputs": [],
      "name": "attestersVerifierProofs",
      "outputs": [
        {
          "internalType": "contract AttestationsVerifierProofs",
          "name": "",
          "type": "address"
        }
      ],
      "stateMutability": "view",
      "type": "function"
    },
    {
      "inputs": [
        {
          "internalType": "bytes32",
          "name": "",
          "type": "bytes32"
        }
      ],
      "name": "batchForOrder",
      "outputs": [
        {
          "internalType": "bytes32",
          "name": "",
          "type": "bytes32"
        }
      ],
      "stateMutability": "view",
      "type": "function"
    },
    {
      "inputs": [
        {
          "internalType": "bytes4",
          "name": "",
          "type": "bytes4"
        }
      ],
      "name": "batchedCounters",
      "outputs": [
        {
          "internalType": "uint256",
          "name": "",
          "type": "uint256"
        }
      ],
      "stateMutability": "view",
      "type": "function"
    },
    {
      "inputs": [
        {
          "internalType": "bytes4",
          "name": "",
          "type": "bytes4"
        }
      ],
      "name": "batchesHashHead",
      "outputs": [
        {
          "internalType": "bytes32",
          "name": "",
          "type": "bytes32"
        }
      ],
      "stateMutability": "view",
      "type": "function"
    },
    {
      "inputs": [
        {
          "internalType": "bytes4",
          "name": "",
          "type": "bytes4"
        }
      ],
      "name": "batchesHeads",
      "outputs": [
        {
          "internalType": "uint256",
          "name": "",
          "type": "uint256"
        }
      ],
      "stateMutability": "view",
      "type": "function"
    },
    {
      "inputs": [],
      "name": "biddingBook",
      "outputs": [
        {
          "internalType": "contract BiddingBook",
          "name": "",
          "type": "address"
        }
      ],
      "stateMutability": "view",
      "type": "function"
    },
    {
      "inputs": [
        {
          "internalType": "bytes4",
          "name": "networkId",
          "type": "bytes4"
        },
        {
          "internalType": "uint256",
          "name": "maxSize",
          "type": "uint256"
        }
      ],
      "name": "callMakeLongRangeBatch",
      "outputs": [],
      "stateMutability": "nonpayable",
      "type": "function"
    },
    {
      "inputs": [
        {
          "internalType": "bytes4",
          "name": "",
          "type": "bytes4"
        }
      ],
      "name": "completedBatchesCountByNetwork",
      "outputs": [
        {
          "internalType": "uint256",
          "name": "",
          "type": "uint256"
        }
      ],
      "stateMutability": "view",
      "type": "function"
    },
    {
      "inputs": [
        {
          "internalType": "bytes[]",
          "name": "messagePayloads",
          "type": "bytes[]"
        }
      ],
      "name": "constructGMPPayload",
      "outputs": [
        {
          "internalType": "bytes",
          "name": "",
          "type": "bytes"
        }
      ],
      "stateMutability": "pure",
      "type": "function"
    },
    {
      "inputs": [
        {
          "internalType": "bytes4",
          "name": "",
          "type": "bytes4"
        }
      ],
      "name": "currentBatchIndexByNetwork",
      "outputs": [
        {
          "internalType": "uint256",
          "name": "",
          "type": "uint256"
        }
      ],
      "stateMutability": "view",
      "type": "function"
    },
    {
      "inputs": [
        {
          "internalType": "bytes32",
          "name": "",
          "type": "bytes32"
        }
      ],
      "name": "disputes",
      "outputs": [
        {
          "internalType": "bytes32",
          "name": "orderId",
          "type": "bytes32"
        },
        {
          "internalType": "bytes",
          "name": "messagePayload",
          "type": "bytes"
        },
        {
          "internalType": "uint256",
          "name": "votes",
          "type": "uint256"
        }
      ],
      "stateMutability": "view",
      "type": "function"
    },
    {
      "inputs": [
        {
          "internalType": "bytes4",
          "name": "networkId",
          "type": "bytes4"
        },
        {
          "internalType": "uint256",
          "name": "batchIndex",
          "type": "uint256"
        }
      ],
      "name": "getBatchHash",
      "outputs": [
        {
          "internalType": "bytes32",
          "name": "",
          "type": "bytes32"
        }
      ],
      "stateMutability": "view",
      "type": "function"
    },
    {
      "inputs": [
        {
          "internalType": "bytes4",
          "name": "networkId",
          "type": "bytes4"
        }
      ],
      "name": "getBatchIndexByNetwork",
      "outputs": [
        {
          "internalType": "uint256",
          "name": "",
          "type": "uint256"
        }
      ],
      "stateMutability": "view",
      "type": "function"
    },
    {
      "inputs": [
        {
          "internalType": "bytes4",
          "name": "networkId",
          "type": "bytes4"
        },
        {
          "internalType": "uint256",
          "name": "batchIndex",
          "type": "uint256"
        }
      ],
      "name": "getBatchMessageHashByIndexAndNetwork",
      "outputs": [
        {
          "internalType": "bytes32",
          "name": "",
          "type": "bytes32"
        }
      ],
      "stateMutability": "view",
      "type": "function"
    },
    {
      "inputs": [
        {
          "internalType": "bytes4",
          "name": "networkId",
          "type": "bytes4"
        },
        {
          "internalType": "bytes32",
          "name": "batchHash",
          "type": "bytes32"
        }
      ],
      "name": "getBatchPayload",
      "outputs": [
        {
          "internalType": "bytes",
          "name": "",
          "type": "bytes"
        }
      ],
      "stateMutability": "view",
      "type": "function"
    },
    {
      "inputs": [
        {
          "internalType": "bytes32",
          "name": "orderId",
          "type": "bytes32"
        }
      ],
      "name": "getBatchPayloadByOrderId",
      "outputs": [
        {
          "internalType": "bytes",
          "name": "",
          "type": "bytes"
        }
      ],
      "stateMutability": "view",
      "type": "function"
    },
    {
      "inputs": [
        {
          "internalType": "bytes4",
          "name": "networkId",
          "type": "bytes4"
        }
      ],
      "name": "getLimitPerBatch",
      "outputs": [
        {
          "internalType": "uint256",
          "name": "",
          "type": "uint256"
        }
      ],
      "stateMutability": "view",
      "type": "function"
    },
    {
      "inputs": [
        {
          "internalType": "uint256",
          "name": "currentBatchId",
          "type": "uint256"
        },
        {
          "internalType": "bytes4",
          "name": "networkId",
          "type": "bytes4"
        }
      ],
      "name": "getOrdersOfBatchConstructed",
      "outputs": [
        {
          "internalType": "bytes32[]",
          "name": "",
          "type": "bytes32[]"
        },
        {
          "internalType": "bytes[]",
          "name": "",
          "type": "bytes[]"
        }
      ],
      "stateMutability": "view",
      "type": "function"
    },
    {
      "inputs": [
        {
          "internalType": "bytes32",
          "name": "role",
          "type": "bytes32"
        }
      ],
      "name": "getRoleAdmin",
      "outputs": [
        {
          "internalType": "bytes32",
          "name": "",
          "type": "bytes32"
        }
      ],
      "stateMutability": "view",
      "type": "function"
    },
    {
      "inputs": [
        {
          "internalType": "bytes32",
          "name": "role",
          "type": "bytes32"
        },
        {
          "internalType": "address",
          "name": "account",
          "type": "address"
        }
      ],
      "name": "grantRole",
      "outputs": [],
      "stateMutability": "nonpayable",
      "type": "function"
    },
    {
      "inputs": [
        {
          "internalType": "bytes32",
          "name": "",
          "type": "bytes32"
        },
        {
          "internalType": "address",
          "name": "",
          "type": "address"
        }
      ],
      "name": "hasAttestedOrder",
      "outputs": [
        {
          "internalType": "bool",
          "name": "",
          "type": "bool"
        }
      ],
      "stateMutability": "view",
      "type": "function"
    },
    {
      "inputs": [
        {
          "internalType": "bytes32",
          "name": "role",
          "type": "bytes32"
        },
        {
          "internalType": "address",
          "name": "account",
          "type": "address"
        }
      ],
      "name": "hasRole",
      "outputs": [
        {
          "internalType": "bool",
          "name": "",
          "type": "bool"
        }
      ],
      "stateMutability": "view",
      "type": "function"
    },
    {
      "inputs": [
        {
          "internalType": "address",
          "name": "_owner",
          "type": "address"
        }
      ],
      "name": "initialize",
      "outputs": [],
      "stateMutability": "nonpayable",
      "type": "function"
    },
    {
      "inputs": [
        {
          "internalType": "bytes32",
          "name": "orderId",
          "type": "bytes32"
        },
        {
          "internalType": "address",
          "name": "attester",
          "type": "address"
        }
      ],
      "name": "isAttested",
      "outputs": [
        {
          "internalType": "bool",
          "name": "",
          "type": "bool"
        }
      ],
      "stateMutability": "view",
      "type": "function"
    },
    {
      "inputs": [
        {
          "internalType": "bytes4",
          "name": "networkId",
          "type": "bytes4"
        }
      ],
      "name": "lastBatchConstructedHeightOffset",
      "outputs": [
        {
          "internalType": "uint256",
          "name": "",
          "type": "uint256"
        }
      ],
      "stateMutability": "view",
      "type": "function"
    },
    {
      "inputs": [
        {
          "internalType": "bytes4",
          "name": "",
          "type": "bytes4"
        }
      ],
      "name": "limitPerBatch",
      "outputs": [
        {
          "internalType": "uint256",
          "name": "",
          "type": "uint256"
        }
      ],
      "stateMutability": "view",
      "type": "function"
    },
    {
      "inputs": [
        {
          "internalType": "bytes4",
          "name": "",
          "type": "bytes4"
        }
      ],
      "name": "longBatchesOrderHeads",
      "outputs": [
        {
          "internalType": "bytes32",
          "name": "",
          "type": "bytes32"
        }
      ],
      "stateMutability": "view",
      "type": "function"
    },
    {
      "inputs": [],
      "name": "maxIntervalSec",
      "outputs": [
        {
          "internalType": "uint256",
          "name": "",
          "type": "uint256"
        }
      ],
      "stateMutability": "view",
      "type": "function"
    },
    {
      "inputs": [],
      "name": "orderBook",
      "outputs": [
        {
          "internalType": "contract OrderBook",
          "name": "",
          "type": "address"
        }
      ],
      "stateMutability": "view",
      "type": "function"
    },
    {
      "inputs": [
        {
          "internalType": "bytes32",
          "name": "",
          "type": "bytes32"
        }
      ],
      "name": "pendingOrders",
      "outputs": [
        {
          "internalType": "bytes32",
          "name": "orderId",
          "type": "bytes32"
        },
        {
          "internalType": "bytes32",
          "name": "next",
          "type": "bytes32"
        },
        {
          "internalType": "uint256",
          "name": "validSubmissionsCount",
          "type": "uint256"
        },
        {
          "internalType": "bytes",
          "name": "messagePayload",
          "type": "bytes"
        },
        {
          "internalType": "bytes4",
          "name": "network",
          "type": "bytes4"
        },
        {
          "internalType": "uint256",
          "name": "timestamp",
          "type": "uint256"
        }
      ],
      "stateMutability": "view",
      "type": "function"
    },
    {
      "inputs": [],
      "name": "pendingOrdersHead",
      "outputs": [
        {
          "internalType": "bytes32",
          "name": "",
          "type": "bytes32"
        }
      ],
      "stateMutability": "view",
      "type": "function"
    },
    {
      "inputs": [
        {
          "internalType": "bytes4",
          "name": "",
          "type": "bytes4"
        }
      ],
      "name": "pendingOrdersHeadByNetwork",
      "outputs": [
        {
          "internalType": "bytes32",
          "name": "",
          "type": "bytes32"
        }
      ],
      "stateMutability": "view",
      "type": "function"
    },
    {
      "inputs": [
        {
          "internalType": "bytes4",
          "name": "",
          "type": "bytes4"
        }
      ],
      "name": "recentAddedCounters",
      "outputs": [
        {
          "internalType": "uint256",
          "name": "",
          "type": "uint256"
        }
      ],
      "stateMutability": "view",
      "type": "function"
    },
    {
      "inputs": [
        {
          "internalType": "bytes32",
          "name": "role",
          "type": "bytes32"
        },
        {
          "internalType": "address",
          "name": "account",
          "type": "address"
        }
      ],
      "name": "renounceRole",
      "outputs": [],
      "stateMutability": "nonpayable",
      "type": "function"
    },
    {
      "inputs": [
        {
          "internalType": "bytes32",
          "name": "role",
          "type": "bytes32"
        },
        {
          "internalType": "address",
          "name": "account",
          "type": "address"
        }
      ],
      "name": "revokeRole",
      "outputs": [],
      "stateMutability": "nonpayable",
      "type": "function"
    },
    {
      "inputs": [
        {
          "internalType": "address",
          "name": "_attestersVerifierProofs",
          "type": "address"
        }
      ],
      "name": "setAttestationsVerifierProofs",
      "outputs": [],
      "stateMutability": "nonpayable",
      "type": "function"
    },
    {
      "inputs": [
        {
          "internalType": "address payable",
          "name": "_attestersPortal",
          "type": "address"
        }
      ],
      "name": "setAttestersPortal",
      "outputs": [],
      "stateMutability": "nonpayable",
      "type": "function"
    },
    {
      "inputs": [
        {
          "internalType": "address payable",
          "name": "_biddingBook",
          "type": "address"
        }
      ],
      "name": "setBiddingBook",
      "outputs": [],
      "stateMutability": "nonpayable",
      "type": "function"
    },
    {
      "inputs": [
        {
          "internalType": "bytes4",
          "name": "networkId",
          "type": "bytes4"
        },
        {
          "internalType": "uint256",
          "name": "_limitPerBatch",
          "type": "uint256"
        }
      ],
      "name": "setLimitPerBatch",
      "outputs": [],
      "stateMutability": "nonpayable",
      "type": "function"
    },
    {
      "inputs": [
        {
          "internalType": "address payable",
          "name": "_orderBook",
          "type": "address"
        }
      ],
      "name": "setOrderBook",
      "outputs": [],
      "stateMutability": "nonpayable",
      "type": "function"
    },
    {
      "inputs": [
        {
          "internalType": "address payable",
          "name": "_singleAttestationBook",
          "type": "address"
        }
      ],
      "name": "setSingleAttestationBook",
      "outputs": [],
      "stateMutability": "nonpayable",
      "type": "function"
    },
    {
      "inputs": [
        {
          "internalType": "bytes4",
          "name": "networkId",
          "type": "bytes4"
        },
        {
          "internalType": "uint256",
          "name": "_startingBatchIndex",
          "type": "uint256"
        }
      ],
      "name": "setStartingBatchIndex",
      "outputs": [],
      "stateMutability": "nonpayable",
      "type": "function"
    },
    {
      "inputs": [
        {
          "internalType": "bytes32",
          "name": "_version",
          "type": "bytes32"
        }
      ],
      "name": "setVersion",
      "outputs": [],
      "stateMutability": "nonpayable",
      "type": "function"
    },
    {
      "inputs": [],
      "name": "singleAttestationBook",
      "outputs": [
        {
          "internalType": "contract SingleAttestationBookV4",
          "name": "",
          "type": "address"
        }
      ],
      "stateMutability": "view",
      "type": "function"
    },
    {
      "inputs": [
        {
          "internalType": "bytes4",
          "name": "interfaceId",
          "type": "bytes4"
        }
      ],
      "name": "supportsInterface",
      "outputs": [
        {
          "internalType": "bool",
          "name": "",
          "type": "bool"
        }
      ],
      "stateMutability": "view",
      "type": "function"
    },
    {
      "inputs": [
        {
          "internalType": "bytes32",
          "name": "_startingHead",
          "type": "bytes32"
        },
        {
          "internalType": "uint256",
          "name": "limit",
          "type": "uint256"
        },
        {
          "internalType": "bytes4",
          "name": "network",
          "type": "bytes4"
        }
      ],
      "name": "traverseBatches",
      "outputs": [
        {
          "internalType": "bytes32[]",
          "name": "",
          "type": "bytes32[]"
        }
      ],
      "stateMutability": "view",
      "type": "function"
    },
    {
      "inputs": [],
      "name": "version",
      "outputs": [
        {
          "internalType": "bytes32",
          "name": "",
          "type": "bytes32"
        }
      ],
      "stateMutability": "view",
      "type": "function"
    }
  ],
  "bytecode": "0x60806040523480156200001157600080fd5b50620000226200002860201b60201c565b620001d2565b600060019054906101000a900460ff16156200007b576040517f08c379a0000000000000000000000000000000000000000000000000000000008152600401620000729062000175565b60405180910390fd5b60ff801660008054906101000a900460ff1660ff1614620000ec5760ff6000806101000a81548160ff021916908360ff1602179055507f7f26b83ff96e1f2b6a682f133852f6798a09c465da95921460cefb384740249860ff604051620000e39190620001b5565b60405180910390a15b565b600082825260208201905092915050565b7f496e697469616c697a61626c653a20636f6e747261637420697320696e69746960008201527f616c697a696e6700000000000000000000000000000000000000000000000000602082015250565b60006200015d602783620000ee565b91506200016a82620000ff565b604082019050919050565b6000602082019050818103600083015262000190816200014e565b9050919050565b600060ff82169050919050565b620001af8162000197565b82525050565b6000602082019050620001cc6000830184620001a4565b92915050565b615ff980620001e26000396000f3fe608060405234801561001057600080fd5b50600436106102f15760003560e01c8063776af5ba1161019d578063bcd06826116100e9578063d03685cb116100a2578063dd4f03d51161007c578063dd4f03d514610a3c578063e18ec5ce14610a6c578063f784c7d014610a9c578063ffe6d2f314610ab8576102f1565b8063d03685cb146109d4578063d20b662a146109f0578063d547741f14610a20576102f1565b8063bcd0682614610900578063c1b77ee814610930578063c4d66de814610960578063ca5f81b51461097c578063ca880bbb14610998578063ccf428ff146109b6576102f1565b806399be018c11610156578063a5211a2711610130578063a5211a2714610868578063a57bfa0614610898578063b5d7de55146108c8578063ba6466f7146108e4576102f1565b806399be018c146107fe5780639a1598c81461082e578063a217fddf1461084a576102f1565b8063776af5ba146106eb5780637b55766f1461070957806383cc3e4b1461073e57806385d9cded1461076e57806391d148541461079e57806395e538b5146107ce576102f1565b80632f2ff15d1161025c578063411df7be116102155780635a5cf617116101ef5780635a5cf6171461063d5780635d1c57101461066d5780635dc331f81461068b5780635f0737a5146106bb576102f1565b8063411df7be146105be57806354fd4d50146105ee578063566b9a0e1461060c576102f1565b80632f2ff15d146104ec57806332946aca1461050857806336568abe146105385780633aac5d3d146105545780633dc2363414610572578063409e16aa146105a2576102f1565b80631477180d116102ae5780631477180d146103f2578063187c85f7146104225780631966c1541461045257806323eb96331461046e578063248a9ca31461049e5780632aa8269e146104ce576102f1565b806301ffc9a7146102f657806307bc4e981461032657806307d9cccf1461035657806311be19971461037457806312a58f53146103a657806312bcf96f146103d6575b600080fd5b610310600480360381019061030b9190614031565b610ae8565b60405161031d9190614079565b60405180910390f35b610340600480360381019061033b9190614031565b610b62565b60405161034d91906140ad565b60405180910390f35b61035e610c4a565b60405161036b91906140e1565b60405180910390f35b61038e60048036038101906103899190614128565b610c50565b60405161039d939291906141e5565b60405180910390f35b6103c060048036038101906103bb9190614031565b610d02565b6040516103cd91906140ad565b60405180910390f35b6103f060048036038101906103eb919061424f565b610dc2565b005b61040c60048036038101906104079190614031565b610f3b565b60405161041991906140ad565b60405180910390f35b61043c60048036038101906104379190614031565b610f53565b60405161044991906140ad565b60405180910390f35b61046c600480360381019061046791906142ed565b610f6b565b005b61048860048036038101906104839190614358565b610ffb565b6040516104959190614079565b60405180910390f35b6104b860048036038101906104b39190614128565b61102a565b6040516104c591906140e1565b60405180910390f35b6104d661104a565b6040516104e391906143f7565b60405180910390f35b61050660048036038101906105019190614358565b611070565b005b610522600480360381019061051d9190614128565b611091565b60405161052f91906140e1565b60405180910390f35b610552600480360381019061054d9190614358565b6110a9565b005b61055c61112c565b6040516105699190614445565b60405180910390f35b61058c60048036038101906105879190614128565b611152565b6040516105999190614460565b60405180910390f35b6105bc60048036038101906105b791906142ed565b611212565b005b6105d860048036038101906105d39190614031565b6112a2565b6040516105e591906140e1565b60405180910390f35b6105f66112ba565b60405161060391906140e1565b60405180910390f35b61062660048036038101906106219190614482565b6112c0565b60405161063492919061468c565b60405180910390f35b61065760048036038101906106529190614031565b61150b565b60405161066491906140e1565b60405180910390f35b610675611523565b60405161068291906146e4565b60405180910390f35b6106a560048036038101906106a09190614764565b611549565b6040516106b29190614079565b60405180910390f35b6106d560048036038101906106d09190614031565b611ee9565b6040516106e291906140ad565b60405180910390f35b6106f3611f01565b604051610700919061480d565b60405180910390f35b610723600480360381019061071e9190614128565b611f27565b60405161073596959493929190614837565b60405180910390f35b61075860048036038101906107539190614ab0565b611ff8565b6040516107659190614460565b60405180910390f35b61078860048036038101906107839190614031565b6120aa565b60405161079591906140ad565b60405180910390f35b6107b860048036038101906107b39190614358565b6120c2565b6040516107c59190614079565b60405180910390f35b6107e860048036038101906107e39190614358565b61212d565b6040516107f59190614079565b60405180910390f35b61081860048036038101906108139190614031565b612195565b60405161082591906140ad565b60405180910390f35b610848600480360381019061084391906142ed565b6121ad565b005b61085261223d565b60405161085f91906140e1565b60405180910390f35b610882600480360381019061087d9190614af9565b612244565b60405161088f9190614460565b60405180910390f35b6108b260048036038101906108ad919061424f565b612339565b6040516108bf91906140e1565b60405180910390f35b6108e260048036038101906108dd919061424f565b6123a9565b005b6108fe60048036038101906108f99190614b39565b61244f565b005b61091a60048036038101906109159190614b66565b6124df565b6040516109279190614bb9565b60405180910390f35b61094a60048036038101906109459190614031565b612645565b60405161095791906140e1565b60405180910390f35b61097a60048036038101906109759190614b39565b61265d565b005b61099660048036038101906109919190614128565b6127b1565b005b6109a0612807565b6040516109ad91906140ad565b60405180910390f35b6109be61280d565b6040516109cb9190614bfc565b60405180910390f35b6109ee60048036038101906109e991906142ed565b612833565b005b610a0a6004803603810190610a059190614031565b6128c3565b604051610a1791906140ad565b60405180910390f35b610a3a6004803603810190610a359190614358565b6128db565b005b610a566004803603810190610a519190614031565b6128fc565b604051610a6391906140ad565b60405180910390f35b610a866004803603810190610a81919061424f565b61296f565b604051610a9391906140e1565b60405180910390f35b610ab66004803603810190610ab1919061424f565b6129df565b005b610ad26004803603810190610acd9190614031565b612ac8565b604051610adf91906140ad565b60405180910390f35b60007f7965db0b000000000000000000000000000000000000000000000000000000007bffffffffffffffffffffffffffffffffffffffffffffffffffffffff1916827bffffffffffffffffffffffffffffffffffffffffffffffffffffffff19161480610b5b5750610b5a82612ae0565b5b9050919050565b600060a56000837bffffffffffffffffffffffffffffffffffffffffffffffffffffffff19167bffffffffffffffffffffffffffffffffffffffffffffffffffffffff1916815260200190815260200160002060003073ffffffffffffffffffffffffffffffffffffffff166312a58f53856040518263ffffffff1660e01b8152600401610bf09190614c17565b602060405180830381865afa158015610c0d573d6000803e3d6000fd5b505050506040513d601f19601f82011682018060405250810190610c319190614c47565b8152602001908152602001600020600401549050919050565b60b05481565b6098602052806000526040600020600091509050806000015490806001018054610c7990614ca3565b80601f0160208091040260200160405190810160405280929190818152602001828054610ca590614ca3565b8015610cf25780601f10610cc757610100808354040283529160200191610cf2565b820191906000526020600020905b815481529060010190602001808311610cd557829003601f168201915b5050505050908060020154905083565b600060a96000837bffffffffffffffffffffffffffffffffffffffffffffffffffffffff19167bffffffffffffffffffffffffffffffffffffffffffffffffffffffff19168152602001908152602001600020600060aa6000857bffffffffffffffffffffffffffffffffffffffffffffffffffffffff19167bffffffffffffffffffffffffffffffffffffffffffffffffffffffff19168152602001908152602001600020548152602001908152602001600020600101549050919050565b610dcf6000801b336120c2565b610e0e576040517f08c379a0000000000000000000000000000000000000000000000000000000008152600401610e0590614d31565b60405180910390fd5b600181610e1b9190614d80565b60a66000847bffffffffffffffffffffffffffffffffffffffffffffffffffffffff19167bffffffffffffffffffffffffffffffffffffffffffffffffffffffff1916815260200190815260200160002081905550600181610e7d9190614d80565b60a96000847bffffffffffffffffffffffffffffffffffffffffffffffffffffffff19167bffffffffffffffffffffffffffffffffffffffffffffffffffffffff19168152602001908152602001600020600060aa6000867bffffffffffffffffffffffffffffffffffffffffffffffffffffffff19167bffffffffffffffffffffffffffffffffffffffffffffffffffffffff19168152602001908152602001600020548152602001908152602001600020600101819055505050565b60ac6020528060005260406000206000915090505481565b60a86020528060005260406000206000915090505481565b610f786000801b336120c2565b610fb7576040517f08c379a0000000000000000000000000000000000000000000000000000000008152600401610fae90614d31565b60405180910390fd5b80609b60006101000a81548173ffffffffffffffffffffffffffffffffffffffff021916908373ffffffffffffffffffffffffffffffffffffffff16021790555050565b609e6020528160005260406000206020528060005260406000206000915091509054906101000a900460ff1681565b600060656000838152602001908152602001600020600101549050919050565b609d60009054906101000a900473ffffffffffffffffffffffffffffffffffffffff1681565b6110798261102a565b61108281612b4a565b61108c8383612b5e565b505050565b609a6020528060005260406000206000915090505481565b6110b1612c3f565b73ffffffffffffffffffffffffffffffffffffffff168173ffffffffffffffffffffffffffffffffffffffff161461111e576040517f08c379a000000000000000000000000000000000000000000000000000000000815260040161111590614e26565b60405180910390fd5b6111288282612c47565b5050565b60ad60009054906101000a900473ffffffffffffffffffffffffffffffffffffffff1681565b60603073ffffffffffffffffffffffffffffffffffffffff1663a5211a276097600085815260200190815260200160002060040160009054906101000a900460e01b609a6000868152602001908152602001600020546040518363ffffffff1660e01b81526004016111c5929190614e46565b600060405180830381865afa1580156111e2573d6000803e3d6000fd5b505050506040513d6000823e3d601f19601f8201168201806040525081019061120b9190614edf565b9050919050565b61121f6000801b336120c2565b61125e576040517f08c379a000000000000000000000000000000000000000000000000000000000815260040161125590614d31565b60405180910390fd5b80609d60006101000a81548173ffffffffffffffffffffffffffffffffffffffff021916908373ffffffffffffffffffffffffffffffffffffffff16021790555050565b60aa6020528060005260406000206000915090505481565b609f5481565b606080600060a56000857bffffffffffffffffffffffffffffffffffffffffffffffffffffffff19167bffffffffffffffffffffffffffffffffffffffffffffffffffffffff19168152602001908152602001600020600086815260200190815260200160002090506000816000018054905067ffffffffffffffff81111561134c5761134b61489f565b5b60405190808252806020026020018201604052801561137a5781602001602082028036833780820191505090505b5090506000826001018054905067ffffffffffffffff8111156113a05761139f61489f565b5b6040519080825280602002602001820160405280156113d357816020015b60608152602001906001900390816113be5790505b50905060005b83600001805490508110156114fa578360000181815481106113fe576113fd614f28565b5b906000526020600020015483828151811061141c5761141b614f28565b5b60200260200101818152505083600101818154811061143e5761143d614f28565b5b90600052602060002001805461145390614ca3565b80601f016020809104026020016040519081016040528092919081815260200182805461147f90614ca3565b80156114cc5780601f106114a1576101008083540402835291602001916114cc565b820191906000526020600020905b8154815290600101906020018083116114af57829003601f168201915b50505050508282815181106114e4576114e3614f28565b5b60200260200101819052508060010190506113d9565b508181945094505050509250929050565b60996020528060005260406000206000915090505481565b609b60009054906101000a900473ffffffffffffffffffffffffffffffffffffffff1681565b6000609b60009054906101000a900473ffffffffffffffffffffffffffffffffffffffff1673ffffffffffffffffffffffffffffffffffffffff163373ffffffffffffffffffffffffffffffffffffffff16148061163f575060ad60009054906101000a900473ffffffffffffffffffffffffffffffffffffffff1673ffffffffffffffffffffffffffffffffffffffff1663ee06b289336040518263ffffffff1660e01b81526004016115fd9190614f66565b602060405180830381865afa15801561161a573d6000803e3d6000fd5b505050506040513d601f19601f8201168201806040525081019061163e9190614fad565b5b61167e576040517f08c379a000000000000000000000000000000000000000000000000000000000815260040161167590615026565b60405180910390fd5b609c60009054906101000a900473ffffffffffffffffffffffffffffffffffffffff1673ffffffffffffffffffffffffffffffffffffffff1663eacce00a866040518263ffffffff1660e01b81526004016116d991906140e1565b602060405180830381865afa1580156116f6573d6000803e3d6000fd5b505050506040513d601f19601f8201168201806040525081019061171a9190614fad565b611756577f25c13bd1dd5894d1cb741dbb8cc30560e931f1348341094e58c93ac615ba09ea8560405161174d91906140e1565b60405180910390a15b600060976000878152602001908152602001600020905085816000015403611aa057609e600087815260200190815260200160002060008673ffffffffffffffffffffffffffffffffffffffff1673ffffffffffffffffffffffffffffffffffffffff16815260200190815260200160002060009054906101000a900460ff16156117e5576000915050611ee0565b83836040516117f5929190615076565b60405180910390208160030160405161180e9190615127565b604051809103902014611a13576000609860008686604051611831929190615076565b6040518091039020815260200190815260200160002060020154111561189957609860008585604051611865929190615076565b60405180910390208152602001908152602001600020600201600081548092919061188f9061513e565b9190505550611951565b604051806060016040528087815260200185858080601f016020809104026020016040519081016040528093929190818152602001838380828437600081840152601f19601f820116905080830192505050505050508152602001600181525060986000868660405161190d929190615076565b604051809103902081526020019081526020016000206000820151816000015560208201518160010190816119429190615313565b50604082015181600201559050505b60986000826003016040516119669190615127565b6040518091039020815260200190815260200160002060020154609860008686604051611994929190615076565b604051809103902081526020019081526020016000206002015411156119c95783838260030191826119c79291906153f0565b505b7f6a7a63f4c3bf06c0b26dee19f563473bde7917904c8f48bd0405a1b63a321d1d86826003018686604051611a019493929190615571565b60405180910390a16000915050611ee0565b6001609e600088815260200190815260200160002060008773ffffffffffffffffffffffffffffffffffffffff1673ffffffffffffffffffffffffffffffffffffffff16815260200190815260200160002060006101000a81548160ff021916908315150217905550806002016000815480929190611a919061513e565b91905055506000915050611ee0565b60006040518060c001604052808881526020016000801b81526020016001815260200186868080601f016020809104026020016040519081016040528093929190818152602001838380828437600081840152601f19601f820116905080830192505050505050508152602001897bffffffffffffffffffffffffffffffffffffffffffffffffffffffff191681526020014281525090508660976000609960008c7bffffffffffffffffffffffffffffffffffffffffffffffffffffffff19167bffffffffffffffffffffffffffffffffffffffffffffffffffffffff191681526020019081526020016000205481526020019081526020016000206001018190555080609760008981526020019081526020016000206000820151816000015560208201518160010155604082015181600201556060820151816003019081611beb9190615313565b5060808201518160040160006101000a81548163ffffffff021916908360e01c021790555060a0820151816005015590505086609960008a7bffffffffffffffffffffffffffffffffffffffffffffffffffffffff19167bffffffffffffffffffffffffffffffffffffffffffffffffffffffff19168152602001908152602001600020819055508660b0819055506001609e600089815260200190815260200160002060008873ffffffffffffffffffffffffffffffffffffffff1673ffffffffffffffffffffffffffffffffffffffff16815260200190815260200160002060006101000a81548160ff02191690831515021790555060a16000897bffffffffffffffffffffffffffffffffffffffffffffffffffffffff19167bffffffffffffffffffffffffffffffffffffffffffffffffffffffff191681526020019081526020016000206000815480929190611d459061513e565b919050555060a06000897bffffffffffffffffffffffffffffffffffffffffffffffffffffffff19167bffffffffffffffffffffffffffffffffffffffffffffffffffffffff191681526020019081526020016000206000815480929190611dac9061513e565b919050555060ad60009054906101000a900473ffffffffffffffffffffffffffffffffffffffff1673ffffffffffffffffffffffffffffffffffffffff1663c26c12eb6040518163ffffffff1660e01b8152600401602060405180830381865afa158015611e1e573d6000803e3d6000fd5b505050506040513d601f19601f82011682018060405250810190611e429190614c47565b816040015110611e9c57611e9b888887878080601f016020809104026020016040519081016040528093929190818152602001838380828437600081840152601f19601f82011690508083019250505050505050612d29565b5b7f9fe5274682471bff41cd793d955ebbe7cff748e10ecf1fc3c0ac1f572574c4c287898787604051611ed194939291906155b8565b60405180910390a16001925050505b95945050505050565b60a66020528060005260406000206000915090505481565b609c60009054906101000a900473ffffffffffffffffffffffffffffffffffffffff1681565b6097602052806000526040600020600091509050806000015490806001015490806002015490806003018054611f5c90614ca3565b80601f0160208091040260200160405190810160405280929190818152602001828054611f8890614ca3565b8015611fd55780601f10611faa57610100808354040283529160200191611fd5565b820191906000526020600020905b815481529060010190602001808311611fb857829003601f168201915b5050505050908060040160009054906101000a900460e01b908060050154905086565b606060008067ffffffffffffffff8111156120165761201561489f565b5b6040519080825280601f01601f1916602001820160405280156120485781602001600182028036833780820191505090505b50905060005b83518110156120a0578184828151811061206b5761206a614f28565b5b6020026020010151604051602001612084929190615629565b604051602081830303815290604052915080600101905061204e565b5080915050919050565b60a16020528060005260406000206000915090505481565b60006065600084815260200190815260200160002060000160008373ffffffffffffffffffffffffffffffffffffffff1673ffffffffffffffffffffffffffffffffffffffff16815260200190815260200160002060009054906101000a900460ff16905092915050565b6000609e600084815260200190815260200160002060008373ffffffffffffffffffffffffffffffffffffffff1673ffffffffffffffffffffffffffffffffffffffff16815260200190815260200160002060009054906101000a900460ff16905092915050565b60a26020528060005260406000206000915090505481565b6121ba6000801b336120c2565b6121f9576040517f08c379a00000000000000000000000000000000000000000000000000000000081526004016121f090614d31565b60405180910390fd5b80609c60006101000a81548173ffffffffffffffffffffffffffffffffffffffff021916908373ffffffffffffffffffffffffffffffffffffffff16021790555050565b6000801b81565b606060a36000847bffffffffffffffffffffffffffffffffffffffffffffffffffffffff19167bffffffffffffffffffffffffffffffffffffffffffffffffffffffff19168152602001908152602001600020600083815260200190815260200160002080546122b390614ca3565b80601f01602080910402602001604051908101604052809291908181526020018280546122df90614ca3565b801561232c5780601f106123015761010080835404028352916020019161232c565b820191906000526020600020905b81548152906001019060200180831161230f57829003601f168201915b5050505050905092915050565b600060a56000847bffffffffffffffffffffffffffffffffffffffffffffffffffffffff19167bffffffffffffffffffffffffffffffffffffffffffffffffffffffff19168152602001908152602001600020600083815260200190815260200160002060030154905092915050565b6123b66000801b336120c2565b6123f5576040517f08c379a00000000000000000000000000000000000000000000000000000000081526004016123ec90614d31565b60405180910390fd5b8060a86000847bffffffffffffffffffffffffffffffffffffffffffffffffffffffff19167bffffffffffffffffffffffffffffffffffffffffffffffffffffffff19168152602001908152602001600020819055505050565b61245c6000801b336120c2565b61249b576040517f08c379a000000000000000000000000000000000000000000000000000000000815260040161249290614d31565b60405180910390fd5b8060ae60006101000a81548173ffffffffffffffffffffffffffffffffffffffff021916908373ffffffffffffffffffffffffffffffffffffffff16021790555050565b606060008367ffffffffffffffff8111156124fd576124fc61489f565b5b60405190808252806020026020018201604052801561252b5781602001602082028036833780820191505090505b509050600085905060005b858110156126355760a96000867bffffffffffffffffffffffffffffffffffffffffffffffffffffffff19167bffffffffffffffffffffffffffffffffffffffffffffffffffffffff1916815260200190815260200160002060008381526020019081526020016000206002015491506000801b82031561263557818382815181106125c5576125c4614f28565b5b6020026020010181815250506001811180156126205750826001826125ea9190614d80565b815181106125fb576125fa614f28565b5b602002602001015183828151811061261657612615614f28565b5b6020026020010151145b612635578061262e9061513e565b9050612536565b8083528293505050509392505050565b60ab6020528060005260406000206000915090505481565b60008060019054906101000a900460ff1615905080801561268e5750600160008054906101000a900460ff1660ff16105b806126bb575061269d30613072565b1580156126ba5750600160008054906101000a900460ff1660ff16145b5b6126fa576040517f08c379a00000000000000000000000000000000000000000000000000000000081526004016126f1906156bf565b60405180910390fd5b60016000806101000a81548160ff021916908360ff1602179055508015612737576001600060016101000a81548160ff0219169083151502179055505b603c60af81905550612747613095565b6127546000801b83612b5e565b80156127ad5760008060016101000a81548160ff0219169083151502179055507f7f26b83ff96e1f2b6a682f133852f6798a09c465da95921460cefb384740249860016040516127a49190615727565b60405180910390a15b5050565b6127be6000801b336120c2565b6127fd576040517f08c379a00000000000000000000000000000000000000000000000000000000081526004016127f490614d31565b60405180910390fd5b80609f8190555050565b60af5481565b60ae60009054906101000a900473ffffffffffffffffffffffffffffffffffffffff1681565b6128406000801b336120c2565b61287f576040517f08c379a000000000000000000000000000000000000000000000000000000000815260040161287690614d31565b60405180910390fd5b8060ad60006101000a81548173ffffffffffffffffffffffffffffffffffffffff021916908373ffffffffffffffffffffffffffffffffffffffff16021790555050565b60a76020528060005260406000206000915090505481565b6128e48261102a565b6128ed81612b4a565b6128f78383612c47565b505050565b60008060a86000847bffffffffffffffffffffffffffffffffffffffffffffffffffffffff19167bffffffffffffffffffffffffffffffffffffffffffffffffffffffff191681526020019081526020016000205490506000810361296557600191505061296a565b809150505b919050565b600060a56000847bffffffffffffffffffffffffffffffffffffffffffffffffffffffff19167bffffffffffffffffffffffffffffffffffffffffffffffffffffffff19168152602001908152602001600020600083815260200190815260200160002060030154905092915050565b60ad60009054906101000a900473ffffffffffffffffffffffffffffffffffffffff1673ffffffffffffffffffffffffffffffffffffffff1663ee06b289336040518263ffffffff1660e01b8152600401612a3a9190614f66565b602060405180830381865afa158015612a57573d6000803e3d6000fd5b505050506040513d601f19601f82011682018060405250810190612a7b9190614fad565b612aba576040517f08c379a0000000000000000000000000000000000000000000000000000000008152600401612ab19061578e565b60405180910390fd5b612ac482826130e6565b5050565b60a06020528060005260406000206000915090505481565b60007f01ffc9a7000000000000000000000000000000000000000000000000000000007bffffffffffffffffffffffffffffffffffffffffffffffffffffffff1916827bffffffffffffffffffffffffffffffffffffffffffffffffffffffff1916149050919050565b612b5b81612b56612c3f565b6136b5565b50565b612b6882826120c2565b612c3b5760016065600084815260200190815260200160002060000160008373ffffffffffffffffffffffffffffffffffffffff1673ffffffffffffffffffffffffffffffffffffffff16815260200190815260200160002060006101000a81548160ff021916908315150217905550612be0612c3f565b73ffffffffffffffffffffffffffffffffffffffff168173ffffffffffffffffffffffffffffffffffffffff16837f2f8788117e7eff1d82e926ec794901d17c78024a50270940304540a733656f0d60405160405180910390a45b5050565b600033905090565b612c5182826120c2565b15612d255760006065600084815260200190815260200160002060000160008373ffffffffffffffffffffffffffffffffffffffff1673ffffffffffffffffffffffffffffffffffffffff16815260200190815260200160002060006101000a81548160ff021916908315150217905550612cca612c3f565b73ffffffffffffffffffffffffffffffffffffffff168173ffffffffffffffffffffffffffffffffffffffff16837ff6391f5c32d9c69d2a47ea670b442974b53935d1edc7fd64eb21e047a839171b60405160405180910390a45b5050565b6000600160ac6000867bffffffffffffffffffffffffffffffffffffffffffffffffffffffff19167bffffffffffffffffffffffffffffffffffffffffffffffffffffffff1916815260200190815260200160002054612d8991906157ae565b9050600060a46000867bffffffffffffffffffffffffffffffffffffffffffffffffffffffff19167bffffffffffffffffffffffffffffffffffffffffffffffffffffffff1916815260200190815260200160002060008381526020019081526020016000209050806002016000815480929190612e069061513e565b91905055503073ffffffffffffffffffffffffffffffffffffffff1663dd4f03d5866040518263ffffffff1660e01b8152600401612e449190614c17565b602060405180830381865afa158015612e61573d6000803e3d6000fd5b505050506040513d601f19601f82011682018060405250810190612e859190614c47565b8160020154101580612f1d5750600360af54612ea191906157e2565b3073ffffffffffffffffffffffffffffffffffffffff166307bc4e98876040518263ffffffff1660e01b8152600401612eda9190614c17565b602060405180830381865afa158015612ef7573d6000803e3d6000fd5b505050506040513d601f19601f82011682018060405250810190612f1b9190614c47565b115b80612f7b57506000801b60ab6000877bffffffffffffffffffffffffffffffffffffffffffffffffffffffff19167bffffffffffffffffffffffffffffffffffffffffffffffffffffffff1916815260200190815260200160002054145b1561306b57613003853073ffffffffffffffffffffffffffffffffffffffff1663dd4f03d5886040518263ffffffff1660e01b8152600401612fbd9190614c17565b602060405180830381865afa158015612fda573d6000803e3d6000fd5b505050506040513d601f19601f82011682018060405250810190612ffe9190614c47565b6130e6565b60ac6000867bffffffffffffffffffffffffffffffffffffffffffffffffffffffff19167bffffffffffffffffffffffffffffffffffffffffffffffffffffffff1916815260200190815260200160002060008154809291906130659061513e565b91905055505b5050505050565b6000808273ffffffffffffffffffffffffffffffffffffffff163b119050919050565b600060019054906101000a900460ff166130e4576040517f08c379a00000000000000000000000000000000000000000000000000000000081526004016130db90615896565b60405180910390fd5b565b6000600160a96000857bffffffffffffffffffffffffffffffffffffffffffffffffffffffff19167bffffffffffffffffffffffffffffffffffffffffffffffffffffffff19168152602001908152602001600020600060aa6000877bffffffffffffffffffffffffffffffffffffffffffffffffffffffff19167bffffffffffffffffffffffffffffffffffffffffffffffffffffffff19168152602001908152602001600020548152602001908152602001600020600101546131ab91906157ae565b9050600060ab6000857bffffffffffffffffffffffffffffffffffffffffffffffffffffffff19167bffffffffffffffffffffffffffffffffffffffffffffffffffffffff19168152602001908152602001600020549050600060a56000867bffffffffffffffffffffffffffffffffffffffffffffffffffffffff19167bffffffffffffffffffffffffffffffffffffffffffffffffffffffff19168152602001908152602001600020600084815260200190815260200160002090506000801b82036132c85760996000867bffffffffffffffffffffffffffffffffffffffffffffffffffffffff19167bffffffffffffffffffffffffffffffffffffffffffffffffffffffff191681526020019081526020016000205491505b60005b848110156133805760006097600085815260200190815260200160002090506000801b8160000154036132fe5750613380565b8260000181600001549080600181540180825580915050600190039060005260206000200160009091909190915055826001018160030190806001815401808255809150506001900390600052602060002001600090919091909150908161336691906158e1565b5080600101549350816133789061513e565b9150506132cb565b6000810361339157505050506136b1565b80826002018190555060006133a783868961373a565b90508060a96000897bffffffffffffffffffffffffffffffffffffffffffffffffffffffff19167bffffffffffffffffffffffffffffffffffffffffffffffffffffffff19168152602001908152602001600020600060aa60008b7bffffffffffffffffffffffffffffffffffffffffffffffffffffffff19167bffffffffffffffffffffffffffffffffffffffffffffffffffffffff19168152602001908152602001600020548152602001908152602001600020600201819055508060aa6000897bffffffffffffffffffffffffffffffffffffffffffffffffffffffff19167bffffffffffffffffffffffffffffffffffffffffffffffffffffffff191681526020019081526020016000208190555060405180606001604052808281526020018681526020016000801b81525060a96000897bffffffffffffffffffffffffffffffffffffffffffffffffffffffff19167bffffffffffffffffffffffffffffffffffffffffffffffffffffffff1916815260200190815260200160002060008381526020019081526020016000206000820151816000015560208201518160010155604082015181600201559050508360ab6000897bffffffffffffffffffffffffffffffffffffffffffffffffffffffff19167bffffffffffffffffffffffffffffffffffffffffffffffffffffffff19168152602001908152602001600020819055508460a66000897bffffffffffffffffffffffffffffffffffffffffffffffffffffffff19167bffffffffffffffffffffffffffffffffffffffffffffffffffffffff191681526020019081526020016000208190555060a76000887bffffffffffffffffffffffffffffffffffffffffffffffffffffffff19167bffffffffffffffffffffffffffffffffffffffffffffffffffffffff1916815260200190815260200160002060008154809291906136699061513e565b91905055507f42e4f9d4f8d51b9b97132e2cc3368b314ced97201ad82b39c9aa0294061e275a878287856040516136a394939291906159c9565b60405180910390a150505050505b5050565b6136bf82826120c2565b613736576136cc816139fe565b6136da8360001c6020613a2b565b6040516020016136eb929190615aed565b6040516020818303038152906040526040517f08c379a000000000000000000000000000000000000000000000000000000000815260040161372d9190615b60565b60405180910390fd5b5050565b60008061381985600101805480602002602001604051908101604052809291908181526020016000905b8282101561381057838290600052602060002001805461378390614ca3565b80601f01602080910402602001604051908101604052809291908181526020018280546137af90614ca3565b80156137fc5780601f106137d1576101008083540402835291602001916137fc565b820191906000526020600020905b8154815290600101906020018083116137df57829003601f168201915b505050505081526020019060010190613764565b50505050611ff8565b90506000613828828686613c67565b9050600060ae60009054906101000a900473ffffffffffffffffffffffffffffffffffffffff1673ffffffffffffffffffffffffffffffffffffffff16630660bab9836040518263ffffffff1660e01b81526004016138879190615d18565b600060405180830381865afa1580156138a4573d6000803e3d6000fd5b505050506040513d6000823e3d601f19601f820116820180604052508101906138cd9190614edf565b905060008180519060200120905060005b886002015481101561396d576000801b609a60008b600001848154811061390857613907614f28565b5b9060005260206000200154815260200190815260200160002054036139605781609a60008b600001848154811061394257613941614f28565b5b90600052602060002001548152602001908152602001600020819055505b80806001019150506138de565b508088600301819055504288600401819055508160a36000887bffffffffffffffffffffffffffffffffffffffffffffffffffffffff19167bffffffffffffffffffffffffffffffffffffffffffffffffffffffff19168152602001908152602001600020600083815260200190815260200160002090816139ef9190615313565b50809450505050509392505050565b6060613a248273ffffffffffffffffffffffffffffffffffffffff16601460ff16613a2b565b9050919050565b606060006002836002613a3e91906157e2565b613a4891906157ae565b67ffffffffffffffff811115613a6157613a6061489f565b5b6040519080825280601f01601f191660200182016040528015613a935781602001600182028036833780820191505090505b5090507f300000000000000000000000000000000000000000000000000000000000000081600081518110613acb57613aca614f28565b5b60200101907effffffffffffffffffffffffffffffffffffffffffffffffffffffffffffff1916908160001a9053507f780000000000000000000000000000000000000000000000000000000000000081600181518110613b2f57613b2e614f28565b5b60200101907effffffffffffffffffffffffffffffffffffffffffffffffffffffffffffff1916908160001a90535060006001846002613b6f91906157e2565b613b7991906157ae565b90505b6001811115613c19577f3031323334353637383961626364656600000000000000000000000000000000600f861660108110613bbb57613bba614f28565b5b1a60f81b828281518110613bd257613bd1614f28565b5b60200101907effffffffffffffffffffffffffffffffffffffffffffffffffffffffffffff1916908160001a905350600485901c945080613c1290615d3a565b9050613b7c565b5060008414613c5d576040517f08c379a0000000000000000000000000000000000000000000000000000000008152600401613c5490615daf565b60405180910390fd5b8091505092915050565b613c6f613f7a565b600060ad60009054906101000a900473ffffffffffffffffffffffffffffffffffffffff1673ffffffffffffffffffffffffffffffffffffffff1663484f657b6040518163ffffffff1660e01b8152600401600060405180830381865afa158015613cde573d6000803e3d6000fd5b505050506040513d6000823e3d601f19601f82011682018060405250810190613d079190615ea7565b9050600060ad60009054906101000a900473ffffffffffffffffffffffffffffffffffffffff1673ffffffffffffffffffffffffffffffffffffffff1663d34ad5796040518163ffffffff1660e01b8152600401600060405180830381865afa158015613d78573d6000803e3d6000fd5b505050506040513d6000823e3d601f19601f82011682018060405250810190613da19190615ea7565b905060008067ffffffffffffffff811115613dbf57613dbe61489f565b5b604051908082528060200260200182016040528015613ded5781602001602082028036833780820191505090505b509050600060ae60009054906101000a900473ffffffffffffffffffffffffffffffffffffffff1673ffffffffffffffffffffffffffffffffffffffff16633014cbc9856040518263ffffffff1660e01b8152600401613e4d9190615f5f565b602060405180830381865afa158015613e6a573d6000803e3d6000fd5b505050506040513d601f19601f82011682018060405250810190613e8e9190615f96565b9050600060ae60009054906101000a900473ffffffffffffffffffffffffffffffffffffffff1673ffffffffffffffffffffffffffffffffffffffff16633014cbc9856040518263ffffffff1660e01b8152600401613eed9190615f5f565b602060405180830381865afa158015613f0a573d6000803e3d6000fd5b505050506040513d601f19601f82011682018060405250810190613f2e9190615f96565b90506040518060e001604052806000151581526020018381526020018281526020018481526020018481526020018a81526020018963ffffffff16815250955050505050509392505050565b6040518060e001604052806000151581526020016000801916815260200160008019168152602001606081526020016060815260200160608152602001600063ffffffff1681525090565b6000604051905090565b600080fd5b600080fd5b60007fffffffff0000000000000000000000000000000000000000000000000000000082169050919050565b61400e81613fd9565b811461401957600080fd5b50565b60008135905061402b81614005565b92915050565b60006020828403121561404757614046613fcf565b5b60006140558482850161401c565b91505092915050565b60008115159050919050565b6140738161405e565b82525050565b600060208201905061408e600083018461406a565b92915050565b6000819050919050565b6140a781614094565b82525050565b60006020820190506140c2600083018461409e565b92915050565b6000819050919050565b6140db816140c8565b82525050565b60006020820190506140f660008301846140d2565b92915050565b614105816140c8565b811461411057600080fd5b50565b600081359050614122816140fc565b92915050565b60006020828403121561413e5761413d613fcf565b5b600061414c84828501614113565b91505092915050565b600081519050919050565b600082825260208201905092915050565b60005b8381101561418f578082015181840152602081019050614174565b60008484015250505050565b6000601f19601f8301169050919050565b60006141b782614155565b6141c18185614160565b93506141d1818560208601614171565b6141da8161419b565b840191505092915050565b60006060820190506141fa60008301866140d2565b818103602083015261420c81856141ac565b905061421b604083018461409e565b949350505050565b61422c81614094565b811461423757600080fd5b50565b60008135905061424981614223565b92915050565b6000806040838503121561426657614265613fcf565b5b60006142748582860161401c565b92505060206142858582860161423a565b9150509250929050565b600073ffffffffffffffffffffffffffffffffffffffff82169050919050565b60006142ba8261428f565b9050919050565b6142ca816142af565b81146142d557600080fd5b50565b6000813590506142e7816142c1565b92915050565b60006020828403121561430357614302613fcf565b5b6000614311848285016142d8565b91505092915050565b60006143258261428f565b9050919050565b6143358161431a565b811461434057600080fd5b50565b6000813590506143528161432c565b92915050565b6000806040838503121561436f5761436e613fcf565b5b600061437d85828601614113565b925050602061438e85828601614343565b9150509250929050565b6000819050919050565b60006143bd6143b86143b38461428f565b614398565b61428f565b9050919050565b60006143cf826143a2565b9050919050565b60006143e1826143c4565b9050919050565b6143f1816143d6565b82525050565b600060208201905061440c60008301846143e8565b92915050565b600061441d826143a2565b9050919050565b600061442f82614412565b9050919050565b61443f81614424565b82525050565b600060208201905061445a6000830184614436565b92915050565b6000602082019050818103600083015261447a81846141ac565b905092915050565b6000806040838503121561449957614498613fcf565b5b60006144a78582860161423a565b92505060206144b88582860161401c565b9150509250929050565b600081519050919050565b600082825260208201905092915050565b6000819050602082019050919050565b6144f7816140c8565b82525050565b600061450983836144ee565b60208301905092915050565b6000602082019050919050565b600061452d826144c2565b61453781856144cd565b9350614542836144de565b8060005b8381101561457357815161455a88826144fd565b975061456583614515565b925050600181019050614546565b5085935050505092915050565b600081519050919050565b600082825260208201905092915050565b6000819050602082019050919050565b600082825260208201905092915050565b60006145c882614155565b6145d281856145ac565b93506145e2818560208601614171565b6145eb8161419b565b840191505092915050565b600061460283836145bd565b905092915050565b6000602082019050919050565b600061462282614580565b61462c818561458b565b93508360208202850161463e8561459c565b8060005b8581101561467a578484038952815161465b85826145f6565b94506146668361460a565b925060208a01995050600181019050614642565b50829750879550505050505092915050565b600060408201905081810360008301526146a68185614522565b905081810360208301526146ba8184614617565b90509392505050565b60006146ce82614412565b9050919050565b6146de816146c3565b82525050565b60006020820190506146f960008301846146d5565b92915050565b600080fd5b600080fd5b600080fd5b60008083601f840112614724576147236146ff565b5b8235905067ffffffffffffffff81111561474157614740614704565b5b60208301915083600182028301111561475d5761475c614709565b5b9250929050565b6000806000806000608086880312156147805761477f613fcf565b5b600061478e8882890161401c565b955050602061479f88828901614113565b94505060406147b088828901614343565b935050606086013567ffffffffffffffff8111156147d1576147d0613fd4565b5b6147dd8882890161470e565b92509250509295509295909350565b60006147f7826143c4565b9050919050565b614807816147ec565b82525050565b600060208201905061482260008301846147fe565b92915050565b61483181613fd9565b82525050565b600060c08201905061484c60008301896140d2565b61485960208301886140d2565b614866604083018761409e565b818103606083015261487881866141ac565b90506148876080830185614828565b61489460a083018461409e565b979650505050505050565b7f4e487b7100000000000000000000000000000000000000000000000000000000600052604160045260246000fd5b6148d78261419b565b810181811067ffffffffffffffff821117156148f6576148f561489f565b5b80604052505050565b6000614909613fc5565b905061491582826148ce565b919050565b600067ffffffffffffffff8211156149355761493461489f565b5b602082029050602081019050919050565b600080fd5b600067ffffffffffffffff8211156149665761496561489f565b5b61496f8261419b565b9050602081019050919050565b82818337600083830152505050565b600061499e6149998461494b565b6148ff565b9050828152602081018484840111156149ba576149b9614946565b5b6149c584828561497c565b509392505050565b600082601f8301126149e2576149e16146ff565b5b81356149f284826020860161498b565b91505092915050565b6000614a0e614a098461491a565b6148ff565b90508083825260208201905060208402830185811115614a3157614a30614709565b5b835b81811015614a7857803567ffffffffffffffff811115614a5657614a556146ff565b5b808601614a6389826149cd565b85526020850194505050602081019050614a33565b5050509392505050565b600082601f830112614a9757614a966146ff565b5b8135614aa78482602086016149fb565b91505092915050565b600060208284031215614ac657614ac5613fcf565b5b600082013567ffffffffffffffff811115614ae457614ae3613fd4565b5b614af084828501614a82565b91505092915050565b60008060408385031215614b1057614b0f613fcf565b5b6000614b1e8582860161401c565b9250506020614b2f85828601614113565b9150509250929050565b600060208284031215614b4f57614b4e613fcf565b5b6000614b5d84828501614343565b91505092915050565b600080600060608486031215614b7f57614b7e613fcf565b5b6000614b8d86828701614113565b9350506020614b9e8682870161423a565b9250506040614baf8682870161401c565b9150509250925092565b60006020820190508181036000830152614bd38184614522565b905092915050565b6000614be6826143c4565b9050919050565b614bf681614bdb565b82525050565b6000602082019050614c116000830184614bed565b92915050565b6000602082019050614c2c6000830184614828565b92915050565b600081519050614c4181614223565b92915050565b600060208284031215614c5d57614c5c613fcf565b5b6000614c6b84828501614c32565b91505092915050565b7f4e487b7100000000000000000000000000000000000000000000000000000000600052602260045260246000fd5b60006002820490506001821680614cbb57607f821691505b602082108103614cce57614ccd614c74565b5b50919050565b600082825260208201905092915050565b7f5041423100000000000000000000000000000000000000000000000000000000600082015250565b6000614d1b600483614cd4565b9150614d2682614ce5565b602082019050919050565b60006020820190508181036000830152614d4a81614d0e565b9050919050565b7f4e487b7100000000000000000000000000000000000000000000000000000000600052601160045260246000fd5b6000614d8b82614094565b9150614d9683614094565b9250828203905081811115614dae57614dad614d51565b5b92915050565b7f416363657373436f6e74726f6c3a2063616e206f6e6c792072656e6f756e636560008201527f20726f6c657320666f722073656c660000000000000000000000000000000000602082015250565b6000614e10602f83614cd4565b9150614e1b82614db4565b604082019050919050565b60006020820190508181036000830152614e3f81614e03565b9050919050565b6000604082019050614e5b6000830185614828565b614e6860208301846140d2565b9392505050565b6000614e82614e7d8461494b565b6148ff565b905082815260208101848484011115614e9e57614e9d614946565b5b614ea9848285614171565b509392505050565b600082601f830112614ec657614ec56146ff565b5b8151614ed6848260208601614e6f565b91505092915050565b600060208284031215614ef557614ef4613fcf565b5b600082015167ffffffffffffffff811115614f1357614f12613fd4565b5b614f1f84828501614eb1565b91505092915050565b7f4e487b7100000000000000000000000000000000000000000000000000000000600052603260045260246000fd5b614f608161431a565b82525050565b6000602082019050614f7b6000830184614f57565b92915050565b614f8a8161405e565b8114614f9557600080fd5b50565b600081519050614fa781614f81565b92915050565b600060208284031215614fc357614fc2613fcf565b5b6000614fd184828501614f98565b91505092915050565b7f5041423200000000000000000000000000000000000000000000000000000000600082015250565b6000615010600483614cd4565b915061501b82614fda565b602082019050919050565b6000602082019050818103600083015261503f81615003565b9050919050565b600081905092915050565b600061505d8385615046565b935061506a83858461497c565b82840190509392505050565b6000615083828486615051565b91508190509392505050565b60008190508160005260206000209050919050565b600081546150b181614ca3565b6150bb8186615046565b945060018216600081146150d657600181146150eb5761511e565b60ff198316865281151582028601935061511e565b6150f48561508f565b60005b83811015615116578154818901526001820191506020810190506150f7565b838801955050505b50505092915050565b600061513382846150a4565b915081905092915050565b600061514982614094565b91507fffffffffffffffffffffffffffffffffffffffffffffffffffffffffffffffff820361517b5761517a614d51565b5b600182019050919050565b60006020601f8301049050919050565b600082821b905092915050565b6000600883026151d37fffffffffffffffffffffffffffffffffffffffffffffffffffffffffffffffff82615196565b6151dd8683615196565b95508019841693508086168417925050509392505050565b600061521061520b61520684614094565b614398565b614094565b9050919050565b6000819050919050565b61522a836151f5565b61523e61523682615217565b8484546151a3565b825550505050565b600090565b615253615246565b61525e818484615221565b505050565b5b818110156152825761527760008261524b565b600181019050615264565b5050565b601f8211156152c7576152988161508f565b6152a184615186565b810160208510156152b0578190505b6152c46152bc85615186565b830182615263565b50505b505050565b600082821c905092915050565b60006152ea600019846008026152cc565b1980831691505092915050565b600061530383836152d9565b9150826002028217905092915050565b61531c82614155565b67ffffffffffffffff8111156153355761533461489f565b5b61533f8254614ca3565b61534a828285615286565b600060209050601f83116001811461537d576000841561536b578287015190505b61537585826152f7565b8655506153dd565b601f19841661538b8661508f565b60005b828110156153b35784890151825560018201915060208501945060208101905061538e565b868310156153d057848901516153cc601f8916826152d9565b8355505b6001600288020188555050505b505050505050565b600082905092915050565b6153fa83836153e5565b67ffffffffffffffff8111156154135761541261489f565b5b61541d8254614ca3565b615428828285615286565b6000601f8311600181146154575760008415615445578287013590505b61544f85826152f7565b8655506154b7565b601f1984166154658661508f565b60005b8281101561548d57848901358255600182019150602085019450602081019050615468565b868310156154aa57848901356154a6601f8916826152d9565b8355505b6001600288020188555050505b50505050505050565b600081546154cd81614ca3565b6154d78186614160565b945060018216600081146154f257600181146155085761553b565b60ff19831686528115156020028601935061553b565b6155118561508f565b60005b8381101561553357815481890152600182019150602081019050615514565b808801955050505b50505092915050565b60006155508385614160565b935061555d83858461497c565b6155668361419b565b840190509392505050565b600060608201905061558660008301876140d2565b818103602083015261559881866154c0565b905081810360408301526155ad818486615544565b905095945050505050565b60006060820190506155cd60008301876140d2565b6155da6020830186614828565b81810360408301526155ed818486615544565b905095945050505050565b600061560382614155565b61560d8185615046565b935061561d818560208601614171565b80840191505092915050565b600061563582856155f8565b915061564182846155f8565b91508190509392505050565b7f496e697469616c697a61626c653a20636f6e747261637420697320616c72656160008201527f647920696e697469616c697a6564000000000000000000000000000000000000602082015250565b60006156a9602e83614cd4565b91506156b48261564d565b604082019050919050565b600060208201905081810360008301526156d88161569c565b9050919050565b6000819050919050565b600060ff82169050919050565b600061571161570c615707846156df565b614398565b6156e9565b9050919050565b615721816156f6565b82525050565b600060208201905061573c6000830184615718565b92915050565b7f5041422330000000000000000000000000000000000000000000000000000000600082015250565b6000615778600583614cd4565b915061578382615742565b602082019050919050565b600060208201905081810360008301526157a78161576b565b9050919050565b60006157b982614094565b91506157c483614094565b92508282019050808211156157dc576157db614d51565b5b92915050565b60006157ed82614094565b91506157f883614094565b925082820261580681614094565b9150828204841483151761581d5761581c614d51565b5b5092915050565b7f496e697469616c697a61626c653a20636f6e7472616374206973206e6f74206960008201527f6e697469616c697a696e67000000000000000000000000000000000000000000602082015250565b6000615880602b83614cd4565b915061588b82615824565b604082019050919050565b600060208201905081810360008301526158af81615873565b9050919050565b6000815490506158c581614ca3565b9050919050565b60008190508160005260206000209050919050565b8181036158ef5750506159c7565b6158f8826158b6565b67ffffffffffffffff8111156159115761591061489f565b5b61591b8254614ca3565b615926828285615286565b6000601f8311600181146159555760008415615943578287015490505b61594d85826152f7565b8655506159c0565b601f198416615963876158cc565b965061596e8661508f565b60005b8281101561599657848901548255600182019150600185019450602081019050615971565b868310156159b357848901546159af601f8916826152d9565b8355505b6001600288020188555050505b5050505050505b565b60006080820190506159de6000830187614828565b6159eb60208301866140d2565b6159f8604083018561409e565b615a05606083018461409e565b95945050505050565b600081905092915050565b7f416363657373436f6e74726f6c3a206163636f756e7420000000000000000000600082015250565b6000615a4f601783615a0e565b9150615a5a82615a19565b601782019050919050565b600081519050919050565b6000615a7b82615a65565b615a858185615a0e565b9350615a95818560208601614171565b80840191505092915050565b7f206973206d697373696e6720726f6c6520000000000000000000000000000000600082015250565b6000615ad7601183615a0e565b9150615ae282615aa1565b601182019050919050565b6000615af882615a42565b9150615b048285615a70565b9150615b0f82615aca565b9150615b1b8284615a70565b91508190509392505050565b6000615b3282615a65565b615b3c8185614cd4565b9350615b4c818560208601614171565b615b558161419b565b840191505092915050565b60006020820190508181036000830152615b7a8184615b27565b905092915050565b615b8b8161405e565b82525050565b600081519050919050565b600082825260208201905092915050565b6000819050602082019050919050565b615bc68161431a565b82525050565b6000615bd88383615bbd565b60208301905092915050565b6000602082019050919050565b6000615bfc82615b91565b615c068185615b9c565b9350615c1183615bad565b8060005b83811015615c42578151615c298882615bcc565b9750615c3483615be4565b925050600181019050615c15565b5085935050505092915050565b600063ffffffff82169050919050565b615c6881615c4f565b82525050565b600060e083016000830151615c866000860182615b82565b506020830151615c9960208601826144ee565b506040830151615cac60408601826144ee565b5060608301518482036060860152615cc48282615bf1565b91505060808301518482036080860152615cde8282615bf1565b91505060a083015184820360a0860152615cf882826145bd565b91505060c0830151615d0d60c0860182615c5f565b508091505092915050565b60006020820190508181036000830152615d328184615c6e565b905092915050565b6000615d4582614094565b915060008203615d5857615d57614d51565b5b600182039050919050565b7f537472696e67733a20686578206c656e67746820696e73756666696369656e74600082015250565b6000615d99602083614cd4565b9150615da482615d63565b602082019050919050565b60006020820190508181036000830152615dc881615d8c565b9050919050565b600067ffffffffffffffff821115615dea57615de961489f565b5b602082029050602081019050919050565b600081519050615e0a8161432c565b92915050565b6000615e23615e1e84615dcf565b6148ff565b90508083825260208201905060208402830185811115615e4657615e45614709565b5b835b81811015615e6f5780615e5b8882615dfb565b845260208401935050602081019050615e48565b5050509392505050565b600082601f830112615e8e57615e8d6146ff565b5b8151615e9e848260208601615e10565b91505092915050565b600060208284031215615ebd57615ebc613fcf565b5b600082015167ffffffffffffffff811115615edb57615eda613fd4565b5b615ee784828501615e79565b91505092915050565b600082825260208201905092915050565b6000615f0c82615b91565b615f168185615ef0565b9350615f2183615bad565b8060005b83811015615f52578151615f398882615bcc565b9750615f4483615be4565b925050600181019050615f25565b5085935050505092915050565b60006020820190508181036000830152615f798184615f01565b905092915050565b600081519050615f90816140fc565b92915050565b600060208284031215615fac57615fab613fcf565b5b6000615fba84828501615f81565b9150509291505056fea264697066735822122070a2ae20e3f54978176cdb4efad58e89bcc5821ff22919c9d6344ade73fc397564736f6c63430008180033",
  "linkReferences": {},
  "deployedLinkReferences": {}
}