{
  "_format": "hh-sol-artifact-1",
  "contractName": "AttestationBatchMakerV2",
  "sourceName": "contracts/attestationBatchMakerV2.sol",
  "abi": [
    {
      "inputs": [],
      "stateMutability": "nonpayable",
      "type": "constructor"
    },
    {
      "anonymous": false,
      "inputs": [
        {
          "indexed": true,
          "internalType": "bytes32",
          "name": "attestationBatchMessageHash",
          "type": "bytes32"
        },
        {
          "indexed": true,
          "internalType": "uint32",
          "name": "batchIndex",
          "type": "uint32"
        },
        {
          "indexed": true,
          "internalType": "bytes4",
          "name": "networkId",
          "type": "bytes4"
        },
        {
          "indexed": false,
          "internalType": "bytes",
          "name": "encodedBatchPayload",
          "type": "bytes"
        }
      ],
      "name": "BatchConstructed",
      "type": "event"
    },
    {
      "anonymous": false,
      "inputs": [
        {
          "indexed": false,
          "internalType": "uint256",
          "name": "errorCode",
          "type": "uint256"
        },
        {
          "indexed": false,
          "internalType": "bytes4",
          "name": "networkId",
          "type": "bytes4"
        }
      ],
      "name": "BatchError",
      "type": "event"
    },
    {
      "anonymous": false,
      "inputs": [
        {
          "indexed": false,
          "internalType": "uint8",
          "name": "version",
          "type": "uint8"
        }
      ],
      "name": "Initialized",
      "type": "event"
    },
    {
      "anonymous": false,
      "inputs": [
        {
          "indexed": true,
          "internalType": "bytes32",
          "name": "id",
          "type": "bytes32"
        },
        {
          "indexed": true,
          "internalType": "address",
          "name": "attester",
          "type": "address"
        },
        {
          "indexed": true,
          "internalType": "uint32",
          "name": "batchIndex",
          "type": "uint32"
        },
        {
          "indexed": false,
          "internalType": "address",
          "name": "beneficiary",
          "type": "address"
        },
        {
          "indexed": false,
          "internalType": "bytes32",
          "name": "attestationBatchMessageHash",
          "type": "bytes32"
        },
        {
          "indexed": false,
          "internalType": "bytes",
          "name": "signature",
          "type": "bytes"
        }
      ],
      "name": "OrderAttested",
      "type": "event"
    },
    {
      "anonymous": false,
      "inputs": [
        {
          "indexed": true,
          "internalType": "bytes32",
          "name": "role",
          "type": "bytes32"
        },
        {
          "indexed": true,
          "internalType": "bytes32",
          "name": "previousAdminRole",
          "type": "bytes32"
        },
        {
          "indexed": true,
          "internalType": "bytes32",
          "name": "newAdminRole",
          "type": "bytes32"
        }
      ],
      "name": "RoleAdminChanged",
      "type": "event"
    },
    {
      "anonymous": false,
      "inputs": [
        {
          "indexed": true,
          "internalType": "bytes32",
          "name": "role",
          "type": "bytes32"
        },
        {
          "indexed": true,
          "internalType": "address",
          "name": "account",
          "type": "address"
        },
        {
          "indexed": true,
          "internalType": "address",
          "name": "sender",
          "type": "address"
        }
      ],
      "name": "RoleGranted",
      "type": "event"
    },
    {
      "anonymous": false,
      "inputs": [
        {
          "indexed": true,
          "internalType": "bytes32",
          "name": "role",
          "type": "bytes32"
        },
        {
          "indexed": true,
          "internalType": "address",
          "name": "account",
          "type": "address"
        },
        {
          "indexed": true,
          "internalType": "address",
          "name": "sender",
          "type": "address"
        }
      ],
      "name": "RoleRevoked",
      "type": "event"
    },
    {
      "inputs": [],
      "name": "DEFAULT_ADMIN_ROLE",
      "outputs": [
        {
          "internalType": "bytes32",
          "name": "",
          "type": "bytes32"
        }
      ],
      "stateMutability": "view",
      "type": "function"
    },
    {
      "inputs": [
        {
          "internalType": "bytes",
          "name": "batchPayload",
          "type": "bytes"
        },
        {
          "internalType": "bytes",
          "name": "signature",
          "type": "bytes"
        },
        {
          "internalType": "bytes4",
          "name": "networkId",
          "type": "bytes4"
        }
      ],
      "name": "attestBatch",
      "outputs": [],
      "stateMutability": "nonpayable",
      "type": "function"
    },
    {
      "inputs": [],
      "name": "attestationsVerifierProofs",
      "outputs": [
        {
          "internalType": "contract AttestationsVerifierProofs",
          "name": "",
          "type": "address"
        }
      ],
      "stateMutability": "view",
      "type": "function"
    },
    {
      "inputs": [],
      "name": "attestersPortal",
      "outputs": [
        {
          "internalType": "contract AttestersPortal",
          "name": "",
          "type": "address"
        }
      ],
      "stateMutability": "view",
      "type": "function"
    },
    {
      "inputs": [
        {
          "internalType": "bytes4",
          "name": "",
          "type": "bytes4"
        }
      ],
      "name": "batchConstructionIntervalHeightByNetwork",
      "outputs": [
        {
          "internalType": "uint256",
          "name": "",
          "type": "uint256"
        }
      ],
      "stateMutability": "view",
      "type": "function"
    },
    {
      "inputs": [
        {
          "internalType": "bytes32",
          "name": "",
          "type": "bytes32"
        }
      ],
      "name": "batchMessageHashToCombinedKey",
      "outputs": [
        {
          "internalType": "bytes32",
          "name": "",
          "type": "bytes32"
        }
      ],
      "stateMutability": "view",
      "type": "function"
    },
    {
      "inputs": [
        {
          "internalType": "bytes32",
          "name": "",
          "type": "bytes32"
        },
        {
          "internalType": "uint256",
          "name": "",
          "type": "uint256"
        }
      ],
      "name": "batchMessageHashesByIndexSourceHash",
      "outputs": [
        {
          "internalType": "bytes32",
          "name": "attestationBatchMessageHash",
          "type": "bytes32"
        },
        {
          "internalType": "address",
          "name": "attester",
          "type": "address"
        },
        {
          "internalType": "bytes",
          "name": "signature",
          "type": "bytes"
        }
      ],
      "stateMutability": "view",
      "type": "function"
    },
    {
      "inputs": [
        {
          "internalType": "bytes32",
          "name": "",
          "type": "bytes32"
        }
      ],
      "name": "batchPayloads",
      "outputs": [
        {
          "internalType": "bytes",
          "name": "",
          "type": "bytes"
        }
      ],
      "stateMutability": "view",
      "type": "function"
    },
    {
      "inputs": [
        {
          "internalType": "bytes4",
          "name": "network",
          "type": "bytes4"
        },
        {
          "internalType": "uint32",
          "name": "index",
          "type": "uint32"
        }
      ],
      "name": "combineNetworkIdWithIndex",
      "outputs": [
        {
          "internalType": "bytes32",
          "name": "",
          "type": "bytes32"
        }
      ],
      "stateMutability": "pure",
      "type": "function"
    },
    {
      "inputs": [
        {
          "internalType": "bytes4",
          "name": "network",
          "type": "bytes4"
        },
        {
          "internalType": "bytes32",
          "name": "orderId",
          "type": "bytes32"
        }
      ],
      "name": "combineNetworkIdWithOrderId",
      "outputs": [
        {
          "internalType": "bytes32",
          "name": "",
          "type": "bytes32"
        }
      ],
      "stateMutability": "pure",
      "type": "function"
    },
    {
      "inputs": [
        {
          "internalType": "bytes4",
          "name": "",
          "type": "bytes4"
        }
      ],
      "name": "currentBatchIndexByNetwork",
      "outputs": [
        {
          "internalType": "uint32",
          "name": "",
          "type": "uint32"
        }
      ],
      "stateMutability": "view",
      "type": "function"
    },
    {
      "inputs": [
        {
          "internalType": "bytes32",
          "name": "attestationBatchMessageHash",
          "type": "bytes32"
        },
        {
          "internalType": "bytes4",
          "name": "networkId",
          "type": "bytes4"
        }
      ],
      "name": "getBatchAttestationCountByMessageHash",
      "outputs": [
        {
          "internalType": "uint256",
          "name": "",
          "type": "uint256"
        }
      ],
      "stateMutability": "view",
      "type": "function"
    },
    {
      "inputs": [
        {
          "internalType": "bytes4",
          "name": "networkId",
          "type": "bytes4"
        },
        {
          "internalType": "uint32",
          "name": "index",
          "type": "uint32"
        }
      ],
      "name": "getBatchAttestationsByIndex",
      "outputs": [
        {
          "components": [
            {
              "internalType": "bytes32",
              "name": "attestationBatchMessageHash",
              "type": "bytes32"
            },
            {
              "internalType": "address",
              "name": "attester",
              "type": "address"
            },
            {
              "internalType": "bytes",
              "name": "signature",
              "type": "bytes"
            }
          ],
          "internalType": "struct AttestationBatchMakerV2.BatchAttestation[]",
          "name": "",
          "type": "tuple[]"
        }
      ],
      "stateMutability": "view",
      "type": "function"
    },
    {
      "inputs": [
        {
          "internalType": "bytes4",
          "name": "networkId",
          "type": "bytes4"
        },
        {
          "internalType": "uint32",
          "name": "index",
          "type": "uint32"
        }
      ],
      "name": "getBatchAttestationsToNetworkByIndex",
      "outputs": [
        {
          "components": [
            {
              "internalType": "bytes32",
              "name": "attestationBatchMessageHash",
              "type": "bytes32"
            },
            {
              "internalType": "address",
              "name": "attester",
              "type": "address"
            },
            {
              "internalType": "bytes",
              "name": "signature",
              "type": "bytes"
            }
          ],
          "internalType": "struct AttestationBatchMakerV2.BatchAttestation[]",
          "name": "",
          "type": "tuple[]"
        }
      ],
      "stateMutability": "view",
      "type": "function"
    },
    {
      "inputs": [
        {
          "internalType": "bytes4",
          "name": "networkId",
          "type": "bytes4"
        }
      ],
      "name": "getBatchIndexByNetwork",
      "outputs": [
        {
          "internalType": "uint32",
          "name": "",
          "type": "uint32"
        }
      ],
      "stateMutability": "view",
      "type": "function"
    },
    {
      "inputs": [
        {
          "internalType": "bytes4",
          "name": "networkId",
          "type": "bytes4"
        },
        {
          "internalType": "uint32",
          "name": "index",
          "type": "uint32"
        }
      ],
      "name": "getBatchMessageHashByIndexAndNetwork",
      "outputs": [
        {
          "internalType": "bytes32",
          "name": "",
          "type": "bytes32"
        }
      ],
      "stateMutability": "view",
      "type": "function"
    },
    {
      "inputs": [
        {
          "internalType": "bytes32",
          "name": "attestationBatchMessageHash",
          "type": "bytes32"
        }
      ],
      "name": "getBatchPayload",
      "outputs": [
        {
          "internalType": "bytes",
          "name": "",
          "type": "bytes"
        }
      ],
      "stateMutability": "view",
      "type": "function"
    },
    {
      "inputs": [
        {
          "internalType": "bytes4",
          "name": "networkId",
          "type": "bytes4"
        },
        {
          "internalType": "uint32",
          "name": "index",
          "type": "uint32"
        }
      ],
      "name": "getMostPopularBatchPayloadByIndexWithQuorumCheck",
      "outputs": [
        {
          "internalType": "bytes",
          "name": "",
          "type": "bytes"
        }
      ],
      "stateMutability": "view",
      "type": "function"
    },
    {
      "inputs": [],
      "name": "getQuorum",
      "outputs": [
        {
          "internalType": "uint256",
          "name": "",
          "type": "uint256"
        }
      ],
      "stateMutability": "view",
      "type": "function"
    },
    {
      "inputs": [
        {
          "internalType": "bytes32",
          "name": "role",
          "type": "bytes32"
        }
      ],
      "name": "getRoleAdmin",
      "outputs": [
        {
          "internalType": "bytes32",
          "name": "",
          "type": "bytes32"
        }
      ],
      "stateMutability": "view",
      "type": "function"
    },
    {
      "inputs": [],
      "name": "getStartingGMPayload",
      "outputs": [
        {
          "internalType": "bytes",
          "name": "",
          "type": "bytes"
        }
      ],
      "stateMutability": "nonpayable",
      "type": "function"
    },
    {
      "inputs": [
        {
          "internalType": "bytes32",
          "name": "role",
          "type": "bytes32"
        },
        {
          "internalType": "address",
          "name": "account",
          "type": "address"
        }
      ],
      "name": "grantRole",
      "outputs": [],
      "stateMutability": "nonpayable",
      "type": "function"
    },
    {
      "inputs": [
        {
          "internalType": "bytes4",
          "name": "networkId",
          "type": "bytes4"
        }
      ],
      "name": "haltNetwork",
      "outputs": [],
      "stateMutability": "nonpayable",
      "type": "function"
    },
    {
      "inputs": [
        {
          "internalType": "bytes32",
          "name": "role",
          "type": "bytes32"
        },
        {
          "internalType": "address",
          "name": "account",
          "type": "address"
        }
      ],
      "name": "hasRole",
      "outputs": [
        {
          "internalType": "bool",
          "name": "",
          "type": "bool"
        }
      ],
      "stateMutability": "view",
      "type": "function"
    },
    {
      "inputs": [
        {
          "internalType": "address",
          "name": "_owner",
          "type": "address"
        }
      ],
      "name": "initialize",
      "outputs": [],
      "stateMutability": "nonpayable",
      "type": "function"
    },
    {
      "inputs": [
        {
          "internalType": "bytes4",
          "name": "networkId",
          "type": "bytes4"
        },
        {
          "internalType": "uint256",
          "name": "recentSingleOrderIdsAttestedLen",
          "type": "uint256"
        }
      ],
      "name": "isReadyToConstructBatch",
      "outputs": [
        {
          "internalType": "bool",
          "name": "",
          "type": "bool"
        }
      ],
      "stateMutability": "view",
      "type": "function"
    },
    {
      "inputs": [
        {
          "internalType": "bytes4",
          "name": "",
          "type": "bytes4"
        }
      ],
      "name": "lastBatchConstructedHeightOffset",
      "outputs": [
        {
          "internalType": "uint256",
          "name": "",
          "type": "uint256"
        }
      ],
      "stateMutability": "view",
      "type": "function"
    },
    {
      "inputs": [
        {
          "internalType": "bytes4",
          "name": "",
          "type": "bytes4"
        }
      ],
      "name": "lastBatchConstructedTimestamp",
      "outputs": [
        {
          "internalType": "uint256",
          "name": "",
          "type": "uint256"
        }
      ],
      "stateMutability": "view",
      "type": "function"
    },
    {
      "inputs": [
        {
          "internalType": "bytes4",
          "name": "",
          "type": "bytes4"
        }
      ],
      "name": "networkHaltedMap",
      "outputs": [
        {
          "internalType": "bool",
          "name": "",
          "type": "bool"
        }
      ],
      "stateMutability": "view",
      "type": "function"
    },
    {
      "inputs": [
        {
          "internalType": "bytes32",
          "name": "",
          "type": "bytes32"
        }
      ],
      "name": "perNetworkBatchBatchMessageHash",
      "outputs": [
        {
          "internalType": "bytes32",
          "name": "",
          "type": "bytes32"
        }
      ],
      "stateMutability": "view",
      "type": "function"
    },
    {
      "inputs": [
        {
          "internalType": "bytes4",
          "name": "",
          "type": "bytes4"
        }
      ],
      "name": "perNetworkBatchCreatedCounter",
      "outputs": [
        {
          "internalType": "uint256",
          "name": "",
          "type": "uint256"
        }
      ],
      "stateMutability": "view",
      "type": "function"
    },
    {
      "inputs": [
        {
          "internalType": "bytes4",
          "name": "",
          "type": "bytes4"
        }
      ],
      "name": "perNetworkSingleAttestationsCounter",
      "outputs": [
        {
          "internalType": "uint256",
          "name": "",
          "type": "uint256"
        }
      ],
      "stateMutability": "view",
      "type": "function"
    },
    {
      "inputs": [
        {
          "internalType": "bytes32",
          "name": "role",
          "type": "bytes32"
        },
        {
          "internalType": "address",
          "name": "account",
          "type": "address"
        }
      ],
      "name": "renounceRole",
      "outputs": [],
      "stateMutability": "nonpayable",
      "type": "function"
    },
    {
      "inputs": [
        {
          "internalType": "bytes32",
          "name": "role",
          "type": "bytes32"
        },
        {
          "internalType": "address",
          "name": "account",
          "type": "address"
        }
      ],
      "name": "revokeRole",
      "outputs": [],
      "stateMutability": "nonpayable",
      "type": "function"
    },
    {
      "inputs": [
        {
          "internalType": "address payable",
          "name": "_attestationsVerifierProofs",
          "type": "address"
        }
      ],
      "name": "setAttestationsVerifierProofs",
      "outputs": [],
      "stateMutability": "nonpayable",
      "type": "function"
    },
    {
      "inputs": [
        {
          "internalType": "address payable",
          "name": "_attestersPortal",
          "type": "address"
        }
      ],
      "name": "setAttestersPortal",
      "outputs": [],
      "stateMutability": "nonpayable",
      "type": "function"
    },
    {
      "inputs": [
        {
          "internalType": "bytes4",
          "name": "networkId",
          "type": "bytes4"
        },
        {
          "internalType": "uint256",
          "name": "interval",
          "type": "uint256"
        }
      ],
      "name": "setBatchConstructionIntervalHeightByNetwork",
      "outputs": [],
      "stateMutability": "nonpayable",
      "type": "function"
    },
    {
      "inputs": [
        {
          "internalType": "bytes4",
          "name": "networkId",
          "type": "bytes4"
        },
        {
          "internalType": "uint32",
          "name": "index",
          "type": "uint32"
        }
      ],
      "name": "setBatchIndexByNetwork",
      "outputs": [],
      "stateMutability": "nonpayable",
      "type": "function"
    },
    {
      "inputs": [
        {
          "internalType": "address payable",
          "name": "_singleAttestationBook",
          "type": "address"
        }
      ],
      "name": "setSingleAttestationBook",
      "outputs": [],
      "stateMutability": "nonpayable",
      "type": "function"
    },
    {
      "inputs": [
        {
          "internalType": "bytes32",
          "name": "_version",
          "type": "bytes32"
        }
      ],
      "name": "setVersion",
      "outputs": [],
      "stateMutability": "nonpayable",
      "type": "function"
    },
    {
      "inputs": [],
      "name": "singleAttestationBook",
      "outputs": [
        {
          "internalType": "contract SingleAttestationBookV2",
          "name": "",
          "type": "address"
        }
      ],
      "stateMutability": "view",
      "type": "function"
    },
    {
      "inputs": [
        {
          "internalType": "bytes4",
          "name": "interfaceId",
          "type": "bytes4"
        }
      ],
      "name": "supportsInterface",
      "outputs": [
        {
          "internalType": "bool",
          "name": "",
          "type": "bool"
        }
      ],
      "stateMutability": "view",
      "type": "function"
    },
    {
      "inputs": [
        {
          "internalType": "bytes4",
          "name": "networkId",
          "type": "bytes4"
        }
      ],
      "name": "tryConstructBatch",
      "outputs": [],
      "stateMutability": "nonpayable",
      "type": "function"
    },
    {
      "inputs": [
        {
          "internalType": "bytes4",
          "name": "networkId",
          "type": "bytes4"
        }
      ],
      "name": "unhaltNetwork",
      "outputs": [],
      "stateMutability": "nonpayable",
      "type": "function"
    },
    {
      "inputs": [],
      "name": "version",
      "outputs": [
        {
          "internalType": "bytes32",
          "name": "",
          "type": "bytes32"
        }
      ],
      "stateMutability": "view",
      "type": "function"
    }
  ],
  "bytecode": "0x60806040523480156200001157600080fd5b50620000226200002860201b60201c565b620001d2565b600060019054906101000a900460ff16156200007b576040517f08c379a0000000000000000000000000000000000000000000000000000000008152600401620000729062000175565b60405180910390fd5b60ff801660008054906101000a900460ff1660ff1614620000ec5760ff6000806101000a81548160ff021916908360ff1602179055507f7f26b83ff96e1f2b6a682f133852f6798a09c465da95921460cefb384740249860ff604051620000e39190620001b5565b60405180910390a15b565b600082825260208201905092915050565b7f496e697469616c697a61626c653a20636f6e747261637420697320696e69746960008201527f616c697a696e6700000000000000000000000000000000000000000000000000602082015250565b60006200015d602783620000ee565b91506200016a82620000ff565b604082019050919050565b6000602082019050818103600083015262000190816200014e565b9050919050565b600060ff82169050919050565b620001af8162000197565b82525050565b6000602082019050620001cc6000830184620001a4565b92915050565b615e3280620001e26000396000f3fe608060405234801561001057600080fd5b506004361061027f5760003560e01c806375dac0a91161015c578063c5687af0116100ce578063d547741f11610087578063d547741f1461087a578063dd2b05d614610896578063e6aac252146108c6578063e8e1cbf7146108f6578063f51d27e814610926578063ffdd6f89146109425761027f565b8063c5687af014610796578063c6f4c0cf146107c6578063c769eb13146107e2578063c81a167d14610812578063ca5f81b514610842578063d03685cb1461085e5761027f565b8063a217fddf11610120578063a217fddf146106c2578063b4c41e6a146106e0578063ba6466f714610710578063c24ab55a1461072c578063c26c12eb1461075c578063c4d66de81461077a5761027f565b806375dac0a9146105e6578063770b24e2146106025780637e47d0e31461063257806384c1f2251461066257806391d14854146106925761027f565b8063343aff46116101f557806354fd4d50116101b957806354fd4d50146104ea5780635d1c5710146105085780635d3e2e28146105265780635f0737a514610556578063693ecfb7146105865780637177377b146105b65761027f565b8063343aff461461044857806336568abe146104785780633aac5d3d146104945780634be6cd57146104b2578063526e124f146104ce5761027f565b80631f3a5ea4116102475780631f3a5ea41461034c57806321c6fe001461037c578063248a9ca31461039a578063248d9151146103ca5780632c148ccf146103fa5780632f2ff15d1461042c5761027f565b806301ffc9a71461028457806307bc4e98146102b45780630e8bbd08146102e457806312a58f53146103005780631966c15414610330575b600080fd5b61029e60048036038101906102999190613b5c565b610960565b6040516102ab9190613ba4565b60405180910390f35b6102ce60048036038101906102c99190613b5c565b6109da565b6040516102db9190613bd8565b60405180910390f35b6102fe60048036038101906102f99190613b5c565b6109f2565b005b61031a60048036038101906103159190613b5c565b610aab565b6040516103279190613c12565b60405180910390f35b61034a60048036038101906103459190613c8b565b610b16565b005b61036660048036038101906103619190613cee565b610ba6565b6040516103739190613bd8565b60405180910390f35b610384610bda565b6040516103919190613dbe565b60405180910390f35b6103b460048036038101906103af9190613de0565b610c2f565b6040516103c19190613e1c565b60405180910390f35b6103e460048036038101906103df9190613de0565b610c4f565b6040516103f19190613dbe565b60405180910390f35b610414600480360381019061040f9190613e63565b610cf4565b60405161042393929190613ec4565b60405180910390f35b61044660048036038101906104419190613f2e565b610de3565b005b610462600480360381019061045d9190613f9a565b610e04565b60405161046f9190613e1c565b60405180910390f35b610492600480360381019061048d9190613f2e565b610e2b565b005b61049c610eae565b6040516104a99190614039565b60405180910390f35b6104cc60048036038101906104c79190613b5c565b610ed4565b005b6104e860048036038101906104e39190614054565b611b99565b005b6104f2611c3f565b6040516104ff9190613e1c565b60405180910390f35b610510611c45565b60405161051d91906140b5565b60405180910390f35b610540600480360381019061053b9190613de0565b611c6b565b60405161054d9190613dbe565b60405180910390f35b610570600480360381019061056b9190613b5c565b611d0b565b60405161057d9190613c12565b60405180910390f35b6105a0600480360381019061059b9190613b5c565b611d2e565b6040516105ad9190613ba4565b60405180910390f35b6105d060048036038101906105cb9190613de0565b611d4e565b6040516105dd9190613e1c565b60405180910390f35b61060060048036038101906105fb9190614265565b611d66565b005b61061c60048036038101906106179190613de0565b6121f7565b6040516106299190613e1c565b60405180910390f35b61064c60048036038101906106479190613f9a565b61220f565b604051610659919061446f565b60405180910390f35b61067c60048036038101906106779190613f9a565b61237d565b6040516106899190613dbe565b60405180910390f35b6106ac60048036038101906106a79190613f2e565b6125a6565b6040516106b99190613ba4565b60405180910390f35b6106ca612611565b6040516106d79190613e1c565b60405180910390f35b6106fa60048036038101906106f59190613b5c565b612618565b6040516107079190613bd8565b60405180910390f35b61072a60048036038101906107259190613c8b565b612630565b005b61074660048036038101906107419190613f9a565b6126c0565b604051610753919061446f565b60405180910390f35b61076461282e565b6040516107719190613bd8565b60405180910390f35b610794600480360381019061078f9190614491565b612926565b005b6107b060048036038101906107ab9190613b5c565b612a72565b6040516107bd9190613bd8565b60405180910390f35b6107e060048036038101906107db9190613b5c565b612a8a565b005b6107fc60048036038101906107f79190613f9a565b612b43565b6040516108099190613e1c565b60405180910390f35b61082c60048036038101906108279190614054565b612b76565b6040516108399190613ba4565b60405180910390f35b61085c60048036038101906108579190613de0565b612df1565b005b61087860048036038101906108739190613c8b565b612e47565b005b610894600480360381019061088f9190613f2e565b612ed7565b005b6108b060048036038101906108ab91906144be565b612ef8565b6040516108bd9190613e1c565b60405180910390f35b6108e060048036038101906108db9190613b5c565b612f2b565b6040516108ed9190613bd8565b60405180910390f35b610910600480360381019061090b9190613b5c565b612f43565b60405161091d9190613bd8565b60405180910390f35b610940600480360381019061093b9190613f9a565b612f5b565b005b61094a61321a565b6040516109579190614531565b60405180910390f35b60007f7965db0b000000000000000000000000000000000000000000000000000000007bffffffffffffffffffffffffffffffffffffffffffffffffffffffff1916827bffffffffffffffffffffffffffffffffffffffffffffffffffffffff191614806109d357506109d282613240565b5b9050919050565b60a26020528060005260406000206000915090505481565b6109ff6000801b336125a6565b610a3e576040517f08c379a0000000000000000000000000000000000000000000000000000000008152600401610a35906145a9565b60405180910390fd5b6001609e6000837bffffffffffffffffffffffffffffffffffffffffffffffffffffffff19167bffffffffffffffffffffffffffffffffffffffffffffffffffffffff1916815260200190815260200160002060006101000a81548160ff02191690831515021790555050565b6000609d6000837bffffffffffffffffffffffffffffffffffffffffffffffffffffffff19167bffffffffffffffffffffffffffffffffffffffffffffffffffffffff1916815260200190815260200160002060009054906101000a900463ffffffff169050919050565b610b236000801b336125a6565b610b62576040517f08c379a0000000000000000000000000000000000000000000000000000000008152600401610b59906145a9565b60405180910390fd5b80609960006101000a81548173ffffffffffffffffffffffffffffffffffffffff021916908373ffffffffffffffffffffffffffffffffffffffff16021790555050565b6000609a6000609b600086815260200190815260200160002054815260200190815260200160002080549050905092915050565b6060600067ffffffffffffffff811115610bf757610bf661413a565b5b6040519080825280601f01601f191660200182016040528015610c295781602001600182028036833780820191505090505b50905090565b600060656000838152602001908152602001600020600101549050919050565b6060609c60008381526020019081526020016000208054610c6f906145f8565b80601f0160208091040260200160405190810160405280929190818152602001828054610c9b906145f8565b8015610ce85780601f10610cbd57610100808354040283529160200191610ce8565b820191906000526020600020905b815481529060010190602001808311610ccb57829003601f168201915b50505050509050919050565b609a6020528160005260406000208181548110610d1057600080fd5b9060005260206000209060030201600091509150508060000154908060010160009054906101000a900473ffffffffffffffffffffffffffffffffffffffff1690806002018054610d60906145f8565b80601f0160208091040260200160405190810160405280929190818152602001828054610d8c906145f8565b8015610dd95780601f10610dae57610100808354040283529160200191610dd9565b820191906000526020600020905b815481529060010190602001808311610dbc57829003601f168201915b5050505050905083565b610dec82610c2f565b610df5816132aa565b610dff83836132be565b505050565b600060a16000610e148585612b43565b815260200190815260200160002054905092915050565b610e3361339f565b73ffffffffffffffffffffffffffffffffffffffff168173ffffffffffffffffffffffffffffffffffffffff1614610ea0576040517f08c379a0000000000000000000000000000000000000000000000000000000008152600401610e979061469b565b60405180910390fd5b610eaa82826133a7565b5050565b609760009054906101000a900473ffffffffffffffffffffffffffffffffffffffff1681565b6000610ede610bda565b90506000609960009054906101000a900473ffffffffffffffffffffffffffffffffffffffff1673ffffffffffffffffffffffffffffffffffffffff166383d5383d846040518263ffffffff1660e01b8152600401610f3d91906146ca565b600060405180830381865afa158015610f5a573d6000803e3d6000fd5b505050506040513d6000823e3d601f19601f82011682018060405250810190610f8391906147bd565b9050610f90838251612b76565b610fd5577f95d5662791929affea1c27920ff5b5dd6958901b47005ce51c53916d83bd2a0e600084604051610fc6929190614841565b60405180910390a15050611b96565b6000610fdf61282e565b90506000825167ffffffffffffffff811115610ffe57610ffd61413a565b5b60405190808252806020026020018201604052801561102c5781602001602082028036833780820191505090505b50905060005b83518110156112eb5760008482815181106110505761104f61486a565b5b602002602001015190506000609960009054906101000a900473ffffffffffffffffffffffffffffffffffffffff1673ffffffffffffffffffffffffffffffffffffffff1663bb2703ea836040518263ffffffff1660e01b81526004016110b79190613e1c565b602060405180830381865afa1580156110d4573d6000803e3d6000fd5b505050506040513d601f19601f820116820180604052508101906110f89190614899565b90506000609960009054906101000a900473ffffffffffffffffffffffffffffffffffffffff1673ffffffffffffffffffffffffffffffffffffffff1663984da1b7836040518263ffffffff1660e01b81526004016111579190613e1c565b602060405180830381865afa158015611174573d6000803e3d6000fd5b505050506040513d601f19601f8201168201806040525081019061119891906148db565b90506000609960009054906101000a900473ffffffffffffffffffffffffffffffffffffffff1673ffffffffffffffffffffffffffffffffffffffff166325394aba846040518263ffffffff1660e01b81526004016111f79190613e1c565b600060405180830381865afa158015611214573d6000803e3d6000fd5b505050506040513d6000823e3d601f19601f8201168201806040525081019061123d9190614978565b90508682106112dc576000815103611297577f95d5662791929affea1c27920ff5b5dd6958901b47005ce51c53916d83bd2a0e60038b6040516112819291906149fc565b60405180910390a1505050505050505050611b96565b88816040516020016112aa929190614a61565b6040516020818303038152906040529850838686815181106112cf576112ce61486a565b5b6020026020010181815250505b50505050806001019050611032565b506000845103611338577f95d5662791929affea1c27920ff5b5dd6958901b47005ce51c53916d83bd2a0e600186604051611327929190614ac0565b60405180910390a150505050611b96565b60006001609d6000887bffffffffffffffffffffffffffffffffffffffffffffffffffffffff19167bffffffffffffffffffffffffffffffffffffffffffffffffffffffff1916815260200190815260200160002060009054906101000a900463ffffffff166113a89190614b18565b905060006113b68783612b43565b90506000801b60a16000838152602001908152602001600020541461141a577f95d5662791929affea1c27920ff5b5dd6958901b47005ce51c53916d83bd2a0e600288604051611407929190614b8b565b60405180910390a1505050505050611b96565b609760009054906101000a900473ffffffffffffffffffffffffffffffffffffffff1673ffffffffffffffffffffffffffffffffffffffff1663484f657b6040518163ffffffff1660e01b8152600401600060405180830381865afa9250505080156114a957506040513d6000823e3d601f19601f820116820180604052508101906114a69190614c8c565b60015b6114f2577f95d5662791929affea1c27920ff5b5dd6958901b47005ce51c53916d83bd2a0e6008886040516114df929190614d10565b60405180910390a1505050505050611b96565b609760009054906101000a900473ffffffffffffffffffffffffffffffffffffffff1673ffffffffffffffffffffffffffffffffffffffff1663d34ad5796040518163ffffffff1660e01b8152600401600060405180830381865afa92505050801561158157506040513d6000823e3d601f19601f8201168201806040525081019061157e9190614c8c565b60015b6115cb577f95d5662791929affea1c27920ff5b5dd6958901b47005ce51c53916d83bd2a0e6007896040516115b7929190614d74565b60405180910390a150505050505050611b96565b609860009054906101000a900473ffffffffffffffffffffffffffffffffffffffff1673ffffffffffffffffffffffffffffffffffffffff16633014cbc9836040518263ffffffff1660e01b81526004016116269190614e4c565b602060405180830381865afa92505050801561166057506040513d601f19601f8201168201806040525081019061165d9190614899565b60015b6116ab577f95d5662791929affea1c27920ff5b5dd6958901b47005ce51c53916d83bd2a0e60068a604051611696929190614ea9565b60405180910390a15050505050505050611b96565b609860009054906101000a900473ffffffffffffffffffffffffffffffffffffffff1673ffffffffffffffffffffffffffffffffffffffff16633014cbc9836040518263ffffffff1660e01b81526004016117069190614e4c565b602060405180830381865afa92505050801561174057506040513d601f19601f8201168201806040525081019061173d9190614899565b60015b61178c577f95d5662791929affea1c27920ff5b5dd6958901b47005ce51c53916d83bd2a0e60058b604051611776929190614f0d565b60405180910390a1505050505050505050611b96565b60006040518060e00160405280609e60008f7bffffffffffffffffffffffffffffffffffffffffffffffffffffffff19167bffffffffffffffffffffffffffffffffffffffffffffffffffffffff1916815260200190815260200160002060009054906101000a900460ff1615158152602001848152602001838152602001600067ffffffffffffffff8111156118265761182561413a565b5b6040519080825280602002602001820160405280156118545781602001602082028036833780820191505090505b508152602001600067ffffffffffffffff8111156118755761187461413a565b5b6040519080825280602002602001820160405280156118a35781602001602082028036833780820191505090505b5081526020018c81526020018863ffffffff168152509050609860009054906101000a900473ffffffffffffffffffffffffffffffffffffffff1673ffffffffffffffffffffffffffffffffffffffff16630660bab9826040518263ffffffff1660e01b8152600401611916919061506d565b600060405180830381865afa92505050801561195557506040513d6000823e3d601f19601f820116820180604052508101906119529190614978565b60015b6119a3577f95d5662791929affea1c27920ff5b5dd6958901b47005ce51c53916d83bd2a0e60048d60405161198b9291906150ca565b60405180910390a15050505050505050505050611b96565b600081805190602001209050609960009054906101000a900473ffffffffffffffffffffffffffffffffffffffff1673ffffffffffffffffffffffffffffffffffffffff166306a1ab9d828c6040518363ffffffff1660e01b8152600401611a0c9291906151a2565b600060405180830381600087803b158015611a2657600080fd5b505af1158015611a3a573d6000803e3d6000fd5b5050505081609c60008381526020019081526020016000209081611a5e9190615374565b508060a160008a81526020019081526020016000208190555087609b600083815260200190815260200160002081905550609960009054906101000a900473ffffffffffffffffffffffffffffffffffffffff1673ffffffffffffffffffffffffffffffffffffffff16635ae895fd8f6040518263ffffffff1660e01b8152600401611aea91906146ca565b600060405180830381600087803b158015611b0457600080fd5b505af1158015611b18573d6000803e3d6000fd5b50505050611b258e613489565b8d7bffffffffffffffffffffffffffffffffffffffffffffffffffffffff19168360c0015163ffffffff16827f075340e7be521a169ff6dc4e12937d1eb1dfc72d06b568b64786f4f5d4972fbe85604051611b809190613dbe565b60405180910390a4505050505050505050505050505b50565b611ba66000801b336125a6565b611be5576040517f08c379a0000000000000000000000000000000000000000000000000000000008152600401611bdc906145a9565b60405180910390fd5b8060a46000847bffffffffffffffffffffffffffffffffffffffffffffffffffffffff19167bffffffffffffffffffffffffffffffffffffffffffffffffffffffff19168152602001908152602001600020819055505050565b60a55481565b609960009054906101000a900473ffffffffffffffffffffffffffffffffffffffff1681565b609c6020528060005260406000206000915090508054611c8a906145f8565b80601f0160208091040260200160405190810160405280929190818152602001828054611cb6906145f8565b8015611d035780601f10611cd857610100808354040283529160200191611d03565b820191906000526020600020905b815481529060010190602001808311611ce657829003601f168201915b505050505081565b609d6020528060005260406000206000915054906101000a900463ffffffff1681565b609e6020528060005260406000206000915054906101000a900460ff1681565b609b6020528060005260406000206000915090505481565b609760009054906101000a900473ffffffffffffffffffffffffffffffffffffffff1673ffffffffffffffffffffffffffffffffffffffff1663ee06b289336040518263ffffffff1660e01b8152600401611dc19190615446565b602060405180830381865afa158015611dde573d6000803e3d6000fd5b505050506040513d601f19601f82011682018060405250810190611e02919061548d565b611e41576040517f08c379a0000000000000000000000000000000000000000000000000000000008152600401611e38906145a9565b60405180910390fd5b60008484810190611e529190615678565b90506000609860009054906101000a900473ffffffffffffffffffffffffffffffffffffffff1673ffffffffffffffffffffffffffffffffffffffff16630660bab9836040518263ffffffff1660e01b8152600401611eb1919061506d565b600060405180830381865afa158015611ece573d6000803e3d6000fd5b505050506040513d6000823e3d601f19601f82011682018060405250810190611ef79190614978565b8051906020012090503373ffffffffffffffffffffffffffffffffffffffff16609860009054906101000a900473ffffffffffffffffffffffffffffffffffffffff1673ffffffffffffffffffffffffffffffffffffffff166397aba7f983876040518363ffffffff1660e01b8152600401611f749291906156c1565b602060405180830381865afa158015611f91573d6000803e3d6000fd5b505050506040513d601f19601f82011682018060405250810190611fb591906156f1565b73ffffffffffffffffffffffffffffffffffffffff161461200b576040517f08c379a00000000000000000000000000000000000000000000000000000000081526004016120029061576a565b60405180910390fd5b600061201b848460c00151612b43565b90506000609a600083815260200190815260200160002090506000805b82805490508110156120fe57848382815481106120585761205761486a565b5b90600052602060002090600302016000015414806120e557503373ffffffffffffffffffffffffffffffffffffffff1683828154811061209b5761209a61486a565b5b906000526020600020906003020160010160009054906101000a900473ffffffffffffffffffffffffffffffffffffffff1673ffffffffffffffffffffffffffffffffffffffff16145b156120f357600191506120fe565b806001019050612038565b50806121ec578160405180606001604052808681526020013373ffffffffffffffffffffffffffffffffffffffff1681526020018981525090806001815401808255809150506001900390600052602060002090600302016000909190919091506000820151816000015560208201518160010160006101000a81548173ffffffffffffffffffffffffffffffffffffffff021916908373ffffffffffffffffffffffffffffffffffffffff16021790555060408201518160020190816121c59190615374565b50505081609a60008581526020019081526020016000209080546121ea92919061393b565b505b505050505050505050565b60a16020528060005260406000206000915090505481565b6060609a600061221f8585612b43565b8152602001908152602001600020805480602002602001604051908101604052809291908181526020016000905b828210156123715783829060005260206000209060030201604051806060016040529081600082015481526020016001820160009054906101000a900473ffffffffffffffffffffffffffffffffffffffff1673ffffffffffffffffffffffffffffffffffffffff1673ffffffffffffffffffffffffffffffffffffffff1681526020016002820180546122e0906145f8565b80601f016020809104026020016040519081016040528092919081815260200182805461230c906145f8565b80156123595780601f1061232e57610100808354040283529160200191612359565b820191906000526020600020905b81548152906001019060200180831161233c57829003601f168201915b5050505050815250508152602001906001019061224d565b50505050905092915050565b6060600061238b84846126c0565b905060008151036123ec57600067ffffffffffffffff8111156123b1576123b061413a565b5b6040519080825280601f01601f1916602001820160405280156123e35781602001600182028036833780820191505090505b509150506125a0565b6000816000815181106124025761240161486a565b5b60200260200101519050609760009054906101000a900473ffffffffffffffffffffffffffffffffffffffff1673ffffffffffffffffffffffffffffffffffffffff1663c26c12eb6040518163ffffffff1660e01b8152600401602060405180830381865afa158015612479573d6000803e3d6000fd5b505050506040513d601f19601f8201168201806040525081019061249d91906148db565b82511061254d57609c60008260000151815260200190815260200160002080546124c6906145f8565b80601f01602080910402602001604051908101604052809291908181526020018280546124f2906145f8565b801561253f5780601f106125145761010080835404028352916020019161253f565b820191906000526020600020905b81548152906001019060200180831161252257829003601f168201915b5050505050925050506125a0565b600067ffffffffffffffff8111156125685761256761413a565b5b6040519080825280601f01601f19166020018201604052801561259a5781602001600182028036833780820191505090505b50925050505b92915050565b60006065600084815260200190815260200160002060000160008373ffffffffffffffffffffffffffffffffffffffff1673ffffffffffffffffffffffffffffffffffffffff16815260200190815260200160002060009054906101000a900460ff16905092915050565b6000801b81565b609f6020528060005260406000206000915090505481565b61263d6000801b336125a6565b61267c576040517f08c379a0000000000000000000000000000000000000000000000000000000008152600401612673906145a9565b60405180910390fd5b80609860006101000a81548173ffffffffffffffffffffffffffffffffffffffff021916908373ffffffffffffffffffffffffffffffffffffffff16021790555050565b6060609a60006126d08585612b43565b8152602001908152602001600020805480602002602001604051908101604052809291908181526020016000905b828210156128225783829060005260206000209060030201604051806060016040529081600082015481526020016001820160009054906101000a900473ffffffffffffffffffffffffffffffffffffffff1673ffffffffffffffffffffffffffffffffffffffff1673ffffffffffffffffffffffffffffffffffffffff168152602001600282018054612791906145f8565b80601f01602080910402602001604051908101604052809291908181526020018280546127bd906145f8565b801561280a5780601f106127df5761010080835404028352916020019161280a565b820191906000526020600020905b8154815290600101906020018083116127ed57829003601f168201915b505050505081525050815260200190600101906126fe565b50505050905092915050565b60008060019050600073ffffffffffffffffffffffffffffffffffffffff16609760009054906101000a900473ffffffffffffffffffffffffffffffffffffffff1673ffffffffffffffffffffffffffffffffffffffff161461291f57609760009054906101000a900473ffffffffffffffffffffffffffffffffffffffff1673ffffffffffffffffffffffffffffffffffffffff1663c26c12eb6040518163ffffffff1660e01b8152600401602060405180830381865afa1580156128f8573d6000803e3d6000fd5b505050506040513d601f19601f8201168201806040525081019061291c91906148db565b90505b8091505090565b60008060019054906101000a900460ff161590508080156129575750600160008054906101000a900460ff1660ff16105b806129845750612966306135d9565b1580156129835750600160008054906101000a900460ff1660ff16145b5b6129c3576040517f08c379a00000000000000000000000000000000000000000000000000000000081526004016129ba906157fc565b60405180910390fd5b60016000806101000a81548160ff021916908360ff1602179055508015612a00576001600060016101000a81548160ff0219169083151502179055505b612a086135fc565b612a156000801b836132be565b8015612a6e5760008060016101000a81548160ff0219169083151502179055507f7f26b83ff96e1f2b6a682f133852f6798a09c465da95921460cefb38474024986001604051612a65919061585a565b60405180910390a15b5050565b60a06020528060005260406000206000915090505481565b612a976000801b336125a6565b612ad6576040517f08c379a0000000000000000000000000000000000000000000000000000000008152600401612acd906145a9565b60405180910390fd5b6000609e6000837bffffffffffffffffffffffffffffffffffffffffffffffffffffffff19167bffffffffffffffffffffffffffffffffffffffffffffffffffffffff1916815260200190815260200160002060006101000a81548160ff02191690831515021790555050565b60008282604051602001612b589291906158cc565b60405160208183030381529060405280519060200120905092915050565b600080821480612be15750609e6000847bffffffffffffffffffffffffffffffffffffffffffffffffffffffff19167bffffffffffffffffffffffffffffffffffffffffffffffffffffffff1916815260200190815260200160002060009054906101000a900460ff165b15612bef5760009050612deb565b600060a36000857bffffffffffffffffffffffffffffffffffffffffffffffffffffffff19167bffffffffffffffffffffffffffffffffffffffffffffffffffffffff1916815260200190815260200160002054905080421015612c57576000915050612deb565b6000609960009054906101000a900473ffffffffffffffffffffffffffffffffffffffff1673ffffffffffffffffffffffffffffffffffffffff16639a8e3454866040518263ffffffff1660e01b8152600401612cb491906146ca565b602060405180830381865afa158015612cd1573d6000803e3d6000fd5b505050506040513d601f19601f82011682018060405250810190612cf591906148db565b9050808410612d0957600192505050612deb565b6000612d1361282e565b90508185108015612dd2575060a46000877bffffffffffffffffffffffffffffffffffffffffffffffffffffffff19167bffffffffffffffffffffffffffffffffffffffffffffffffffffffff191681526020019081526020016000205460a26000887bffffffffffffffffffffffffffffffffffffffffffffffffffffffff19167bffffffffffffffffffffffffffffffffffffffffffffffffffffffff191681526020019081526020016000205442612dce91906158f8565b1015155b15612de35760009350505050612deb565b600193505050505b92915050565b612dfe6000801b336125a6565b612e3d576040517f08c379a0000000000000000000000000000000000000000000000000000000008152600401612e34906145a9565b60405180910390fd5b8060a58190555050565b612e546000801b336125a6565b612e93576040517f08c379a0000000000000000000000000000000000000000000000000000000008152600401612e8a906145a9565b60405180910390fd5b80609760006101000a81548173ffffffffffffffffffffffffffffffffffffffff021916908373ffffffffffffffffffffffffffffffffffffffff16021790555050565b612ee082610c2f565b612ee9816132aa565b612ef383836133a7565b505050565b60008282604051602001612f0d92919061594d565b60405160208183030381529060405280519060200120905092915050565b60a46020528060005260406000206000915090505481565b60a36020528060005260406000206000915090505481565b612f686000801b336125a6565b612fa7576040517f08c379a0000000000000000000000000000000000000000000000000000000008152600401612f9e906145a9565b60405180910390fd5b80609d6000847bffffffffffffffffffffffffffffffffffffffffffffffffffffffff19167bffffffffffffffffffffffffffffffffffffffffffffffffffffffff1916815260200190815260200160002060006101000a81548163ffffffff021916908363ffffffff16021790555060a06000837bffffffffffffffffffffffffffffffffffffffffffffffffffffffff19167bffffffffffffffffffffffffffffffffffffffffffffffffffffffff19168152602001908152602001600020548163ffffffff16101561321657600060a06000847bffffffffffffffffffffffffffffffffffffffffffffffffffffffff19167bffffffffffffffffffffffffffffffffffffffffffffffffffffffff1916815260200190815260200160002054905060008290505b818163ffffffff1610156131b75760006130ec8583612b43565b9050609a6000828152602001908152602001600020600061310d9190613a19565b600067ffffffffffffffff8111156131285761312761413a565b5b6040519080825280601f01601f19166020018201604052801561315a5781602001600182028036833780820191505090505b50609c600060a16000858152602001908152602001600020548152602001908152602001600020908161318d9190615374565b5060a160008281526020019081526020016000206000905550806131b090615979565b90506130d2565b508163ffffffff1660a06000857bffffffffffffffffffffffffffffffffffffffffffffffffffffffff19167bffffffffffffffffffffffffffffffffffffffffffffffffffffffff1916815260200190815260200160002081905550505b5050565b609860009054906101000a900473ffffffffffffffffffffffffffffffffffffffff1681565b60007f01ffc9a7000000000000000000000000000000000000000000000000000000007bffffffffffffffffffffffffffffffffffffffffffffffffffffffff1916827bffffffffffffffffffffffffffffffffffffffffffffffffffffffff1916149050919050565b6132bb816132b661339f565b61364d565b50565b6132c882826125a6565b61339b5760016065600084815260200190815260200160002060000160008373ffffffffffffffffffffffffffffffffffffffff1673ffffffffffffffffffffffffffffffffffffffff16815260200190815260200160002060006101000a81548160ff02191690831515021790555061334061339f565b73ffffffffffffffffffffffffffffffffffffffff168173ffffffffffffffffffffffffffffffffffffffff16837f2f8788117e7eff1d82e926ec794901d17c78024a50270940304540a733656f0d60405160405180910390a45b5050565b600033905090565b6133b182826125a6565b156134855760006065600084815260200190815260200160002060000160008373ffffffffffffffffffffffffffffffffffffffff1673ffffffffffffffffffffffffffffffffffffffff16815260200190815260200160002060006101000a81548160ff02191690831515021790555061342a61339f565b73ffffffffffffffffffffffffffffffffffffffff168173ffffffffffffffffffffffffffffffffffffffff16837ff6391f5c32d9c69d2a47ea670b442974b53935d1edc7fd64eb21e047a839171b60405160405180910390a45b5050565b609d6000827bffffffffffffffffffffffffffffffffffffffffffffffffffffffff19167bffffffffffffffffffffffffffffffffffffffffffffffffffffffff19168152602001908152602001600020600081819054906101000a900463ffffffff16809291906134fa90615979565b91906101000a81548163ffffffff021916908363ffffffff1602179055505060a06000827bffffffffffffffffffffffffffffffffffffffffffffffffffffffff19167bffffffffffffffffffffffffffffffffffffffffffffffffffffffff19168152602001908152602001600020600081548092919061357b906159a5565b91905055504260a26000837bffffffffffffffffffffffffffffffffffffffffffffffffffffffff19167bffffffffffffffffffffffffffffffffffffffffffffffffffffffff191681526020019081526020016000208190555050565b6000808273ffffffffffffffffffffffffffffffffffffffff163b119050919050565b600060019054906101000a900460ff1661364b576040517f08c379a000000000000000000000000000000000000000000000000000000000815260040161364290615a5f565b60405180910390fd5b565b61365782826125a6565b6136ce57613664816136d2565b6136728360001c60206136ff565b604051602001613683929190615b5e565b6040516020818303038152906040526040517f08c379a00000000000000000000000000000000000000000000000000000000081526004016136c59190615bd1565b60405180910390fd5b5050565b60606136f88273ffffffffffffffffffffffffffffffffffffffff16601460ff166136ff565b9050919050565b6060600060028360026137129190615bf3565b61371c9190615c35565b67ffffffffffffffff8111156137355761373461413a565b5b6040519080825280601f01601f1916602001820160405280156137675781602001600182028036833780820191505090505b5090507f30000000000000000000000000000000000000000000000000000000000000008160008151811061379f5761379e61486a565b5b60200101907effffffffffffffffffffffffffffffffffffffffffffffffffffffffffffff1916908160001a9053507f7800000000000000000000000000000000000000000000000000000000000000816001815181106138035761380261486a565b5b60200101907effffffffffffffffffffffffffffffffffffffffffffffffffffffffffffff1916908160001a905350600060018460026138439190615bf3565b61384d9190615c35565b90505b60018111156138ed577f3031323334353637383961626364656600000000000000000000000000000000600f86166010811061388f5761388e61486a565b5b1a60f81b8282815181106138a6576138a561486a565b5b60200101907effffffffffffffffffffffffffffffffffffffffffffffffffffffffffffff1916908160001a905350600485901c9450806138e690615c69565b9050613850565b5060008414613931576040517f08c379a000000000000000000000000000000000000000000000000000000000815260040161392890615cde565b60405180910390fd5b8091505092915050565b828054828255906000526020600020906003028101928215613a085760005260206000209160030282015b82811115613a07578282600082015481600001556001820160009054906101000a900473ffffffffffffffffffffffffffffffffffffffff168160010160006101000a81548173ffffffffffffffffffffffffffffffffffffffff021916908373ffffffffffffffffffffffffffffffffffffffff160217905550600282018160020190816139f59190615d14565b50505091600301919060030190613966565b5b509050613a159190613a3d565b5090565b5080546000825560030290600052602060002090810190613a3a9190613a3d565b50565b5b80821115613a8f576000808201600090556001820160006101000a81549073ffffffffffffffffffffffffffffffffffffffff0219169055600282016000613a869190613a93565b50600301613a3e565b5090565b508054613a9f906145f8565b6000825580601f10613ab15750613ad0565b601f016020900490600052602060002090810190613acf9190613ad3565b5b50565b5b80821115613aec576000816000905550600101613ad4565b5090565b6000604051905090565b600080fd5b600080fd5b60007fffffffff0000000000000000000000000000000000000000000000000000000082169050919050565b613b3981613b04565b8114613b4457600080fd5b50565b600081359050613b5681613b30565b92915050565b600060208284031215613b7257613b71613afa565b5b6000613b8084828501613b47565b91505092915050565b60008115159050919050565b613b9e81613b89565b82525050565b6000602082019050613bb96000830184613b95565b92915050565b6000819050919050565b613bd281613bbf565b82525050565b6000602082019050613bed6000830184613bc9565b92915050565b600063ffffffff82169050919050565b613c0c81613bf3565b82525050565b6000602082019050613c276000830184613c03565b92915050565b600073ffffffffffffffffffffffffffffffffffffffff82169050919050565b6000613c5882613c2d565b9050919050565b613c6881613c4d565b8114613c7357600080fd5b50565b600081359050613c8581613c5f565b92915050565b600060208284031215613ca157613ca0613afa565b5b6000613caf84828501613c76565b91505092915050565b6000819050919050565b613ccb81613cb8565b8114613cd657600080fd5b50565b600081359050613ce881613cc2565b92915050565b60008060408385031215613d0557613d04613afa565b5b6000613d1385828601613cd9565b9250506020613d2485828601613b47565b9150509250929050565b600081519050919050565b600082825260208201905092915050565b60005b83811015613d68578082015181840152602081019050613d4d565b60008484015250505050565b6000601f19601f8301169050919050565b6000613d9082613d2e565b613d9a8185613d39565b9350613daa818560208601613d4a565b613db381613d74565b840191505092915050565b60006020820190508181036000830152613dd88184613d85565b905092915050565b600060208284031215613df657613df5613afa565b5b6000613e0484828501613cd9565b91505092915050565b613e1681613cb8565b82525050565b6000602082019050613e316000830184613e0d565b92915050565b613e4081613bbf565b8114613e4b57600080fd5b50565b600081359050613e5d81613e37565b92915050565b60008060408385031215613e7a57613e79613afa565b5b6000613e8885828601613cd9565b9250506020613e9985828601613e4e565b9150509250929050565b6000613eae82613c2d565b9050919050565b613ebe81613ea3565b82525050565b6000606082019050613ed96000830186613e0d565b613ee66020830185613eb5565b8181036040830152613ef88184613d85565b9050949350505050565b613f0b81613ea3565b8114613f1657600080fd5b50565b600081359050613f2881613f02565b92915050565b60008060408385031215613f4557613f44613afa565b5b6000613f5385828601613cd9565b9250506020613f6485828601613f19565b9150509250929050565b613f7781613bf3565b8114613f8257600080fd5b50565b600081359050613f9481613f6e565b92915050565b60008060408385031215613fb157613fb0613afa565b5b6000613fbf85828601613b47565b9250506020613fd085828601613f85565b9150509250929050565b6000819050919050565b6000613fff613ffa613ff584613c2d565b613fda565b613c2d565b9050919050565b600061401182613fe4565b9050919050565b600061402382614006565b9050919050565b61403381614018565b82525050565b600060208201905061404e600083018461402a565b92915050565b6000806040838503121561406b5761406a613afa565b5b600061407985828601613b47565b925050602061408a85828601613e4e565b9150509250929050565b600061409f82614006565b9050919050565b6140af81614094565b82525050565b60006020820190506140ca60008301846140a6565b92915050565b600080fd5b600080fd5b600080fd5b60008083601f8401126140f5576140f46140d0565b5b8235905067ffffffffffffffff811115614112576141116140d5565b5b60208301915083600182028301111561412e5761412d6140da565b5b9250929050565b600080fd5b7f4e487b7100000000000000000000000000000000000000000000000000000000600052604160045260246000fd5b61417282613d74565b810181811067ffffffffffffffff821117156141915761419061413a565b5b80604052505050565b60006141a4613af0565b90506141b08282614169565b919050565b600067ffffffffffffffff8211156141d0576141cf61413a565b5b6141d982613d74565b9050602081019050919050565b82818337600083830152505050565b6000614208614203846141b5565b61419a565b90508281526020810184848401111561422457614223614135565b5b61422f8482856141e6565b509392505050565b600082601f83011261424c5761424b6140d0565b5b813561425c8482602086016141f5565b91505092915050565b6000806000806060858703121561427f5761427e613afa565b5b600085013567ffffffffffffffff81111561429d5761429c613aff565b5b6142a9878288016140df565b9450945050602085013567ffffffffffffffff8111156142cc576142cb613aff565b5b6142d887828801614237565b92505060406142e987828801613b47565b91505092959194509250565b600081519050919050565b600082825260208201905092915050565b6000819050602082019050919050565b61432a81613cb8565b82525050565b61433981613ea3565b82525050565b600082825260208201905092915050565b600061435b82613d2e565b614365818561433f565b9350614375818560208601613d4a565b61437e81613d74565b840191505092915050565b60006060830160008301516143a16000860182614321565b5060208301516143b46020860182614330565b50604083015184820360408601526143cc8282614350565b9150508091505092915050565b60006143e58383614389565b905092915050565b6000602082019050919050565b6000614405826142f5565b61440f8185614300565b93508360208202850161442185614311565b8060005b8581101561445d578484038952815161443e85826143d9565b9450614449836143ed565b925060208a01995050600181019050614425565b50829750879550505050505092915050565b6000602082019050818103600083015261448981846143fa565b905092915050565b6000602082840312156144a7576144a6613afa565b5b60006144b584828501613f19565b91505092915050565b600080604083850312156144d5576144d4613afa565b5b60006144e385828601613b47565b92505060206144f485828601613cd9565b9150509250929050565b600061450982613fe4565b9050919050565b600061451b826144fe565b9050919050565b61452b81614510565b82525050565b60006020820190506145466000830184614522565b92915050565b600082825260208201905092915050565b7f424d233000000000000000000000000000000000000000000000000000000000600082015250565b600061459360048361454c565b915061459e8261455d565b602082019050919050565b600060208201905081810360008301526145c281614586565b9050919050565b7f4e487b7100000000000000000000000000000000000000000000000000000000600052602260045260246000fd5b6000600282049050600182168061461057607f821691505b602082108103614623576146226145c9565b5b50919050565b7f416363657373436f6e74726f6c3a2063616e206f6e6c792072656e6f756e636560008201527f20726f6c657320666f722073656c660000000000000000000000000000000000602082015250565b6000614685602f8361454c565b915061469082614629565b604082019050919050565b600060208201905081810360008301526146b481614678565b9050919050565b6146c481613b04565b82525050565b60006020820190506146df60008301846146bb565b92915050565b600067ffffffffffffffff821115614700576146ff61413a565b5b602082029050602081019050919050565b60008151905061472081613cc2565b92915050565b6000614739614734846146e5565b61419a565b9050808382526020820190506020840283018581111561475c5761475b6140da565b5b835b8181101561478557806147718882614711565b84526020840193505060208101905061475e565b5050509392505050565b600082601f8301126147a4576147a36140d0565b5b81516147b4848260208601614726565b91505092915050565b6000602082840312156147d3576147d2613afa565b5b600082015167ffffffffffffffff8111156147f1576147f0613aff565b5b6147fd8482850161478f565b91505092915050565b6000819050919050565b600061482b61482661482184614806565b613fda565b613bbf565b9050919050565b61483b81614810565b82525050565b60006040820190506148566000830185614832565b61486360208301846146bb565b9392505050565b7f4e487b7100000000000000000000000000000000000000000000000000000000600052603260045260246000fd5b6000602082840312156148af576148ae613afa565b5b60006148bd84828501614711565b91505092915050565b6000815190506148d581613e37565b92915050565b6000602082840312156148f1576148f0613afa565b5b60006148ff848285016148c6565b91505092915050565b600061491b614916846141b5565b61419a565b90508281526020810184848401111561493757614936614135565b5b614942848285613d4a565b509392505050565b600082601f83011261495f5761495e6140d0565b5b815161496f848260208601614908565b91505092915050565b60006020828403121561498e5761498d613afa565b5b600082015167ffffffffffffffff8111156149ac576149ab613aff565b5b6149b88482850161494a565b91505092915050565b6000819050919050565b60006149e66149e16149dc846149c1565b613fda565b613bbf565b9050919050565b6149f6816149cb565b82525050565b6000604082019050614a1160008301856149ed565b614a1e60208301846146bb565b9392505050565b600081905092915050565b6000614a3b82613d2e565b614a458185614a25565b9350614a55818560208601613d4a565b80840191505092915050565b6000614a6d8285614a30565b9150614a798284614a30565b91508190509392505050565b6000819050919050565b6000614aaa614aa5614aa084614a85565b613fda565b613bbf565b9050919050565b614aba81614a8f565b82525050565b6000604082019050614ad56000830185614ab1565b614ae260208301846146bb565b9392505050565b7f4e487b7100000000000000000000000000000000000000000000000000000000600052601160045260246000fd5b6000614b2382613bf3565b9150614b2e83613bf3565b9250828201905063ffffffff811115614b4a57614b49614ae9565b5b92915050565b6000819050919050565b6000614b75614b70614b6b84614b50565b613fda565b613bbf565b9050919050565b614b8581614b5a565b82525050565b6000604082019050614ba06000830185614b7c565b614bad60208301846146bb565b9392505050565b600067ffffffffffffffff821115614bcf57614bce61413a565b5b602082029050602081019050919050565b600081519050614bef81613f02565b92915050565b6000614c08614c0384614bb4565b61419a565b90508083825260208201905060208402830185811115614c2b57614c2a6140da565b5b835b81811015614c545780614c408882614be0565b845260208401935050602081019050614c2d565b5050509392505050565b600082601f830112614c7357614c726140d0565b5b8151614c83848260208601614bf5565b91505092915050565b600060208284031215614ca257614ca1613afa565b5b600082015167ffffffffffffffff811115614cc057614cbf613aff565b5b614ccc84828501614c5e565b91505092915050565b6000819050919050565b6000614cfa614cf5614cf084614cd5565b613fda565b613bbf565b9050919050565b614d0a81614cdf565b82525050565b6000604082019050614d256000830185614d01565b614d3260208301846146bb565b9392505050565b6000819050919050565b6000614d5e614d59614d5484614d39565b613fda565b613bbf565b9050919050565b614d6e81614d43565b82525050565b6000604082019050614d896000830185614d65565b614d9660208301846146bb565b9392505050565b600081519050919050565b600082825260208201905092915050565b6000819050602082019050919050565b6000614dd58383614330565b60208301905092915050565b6000602082019050919050565b6000614df982614d9d565b614e038185614da8565b9350614e0e83614db9565b8060005b83811015614e3f578151614e268882614dc9565b9750614e3183614de1565b925050600181019050614e12565b5085935050505092915050565b60006020820190508181036000830152614e668184614dee565b905092915050565b6000819050919050565b6000614e93614e8e614e8984614e6e565b613fda565b613bbf565b9050919050565b614ea381614e78565b82525050565b6000604082019050614ebe6000830185614e9a565b614ecb60208301846146bb565b9392505050565b6000819050919050565b6000614ef7614ef2614eed84614ed2565b613fda565b613bbf565b9050919050565b614f0781614edc565b82525050565b6000604082019050614f226000830185614efe565b614f2f60208301846146bb565b9392505050565b614f3f81613b89565b82525050565b600082825260208201905092915050565b6000614f6182614d9d565b614f6b8185614f45565b9350614f7683614db9565b8060005b83811015614fa7578151614f8e8882614dc9565b9750614f9983614de1565b925050600181019050614f7a565b5085935050505092915050565b614fbd81613bf3565b82525050565b600060e083016000830151614fdb6000860182614f36565b506020830151614fee6020860182614321565b5060408301516150016040860182614321565b50606083015184820360608601526150198282614f56565b915050608083015184820360808601526150338282614f56565b91505060a083015184820360a086015261504d8282614350565b91505060c083015161506260c0860182614fb4565b508091505092915050565b600060208201905081810360008301526150878184614fc3565b905092915050565b6000819050919050565b60006150b46150af6150aa8461508f565b613fda565b613bbf565b9050919050565b6150c481615099565b82525050565b60006040820190506150df60008301856150bb565b6150ec60208301846146bb565b9392505050565b600081519050919050565b600082825260208201905092915050565b6000819050602082019050919050565b600061512b8383614321565b60208301905092915050565b6000602082019050919050565b600061514f826150f3565b61515981856150fe565b93506151648361510f565b8060005b8381101561519557815161517c888261511f565b975061518783615137565b925050600181019050615168565b5085935050505092915050565b60006040820190506151b76000830185613e0d565b81810360208301526151c98184615144565b90509392505050565b60008190508160005260206000209050919050565b60006020601f8301049050919050565b600082821b905092915050565b6000600883026152347fffffffffffffffffffffffffffffffffffffffffffffffffffffffffffffffff826151f7565b61523e86836151f7565b95508019841693508086168417925050509392505050565b600061527161526c61526784613bbf565b613fda565b613bbf565b9050919050565b6000819050919050565b61528b83615256565b61529f61529782615278565b848454615204565b825550505050565b600090565b6152b46152a7565b6152bf818484615282565b505050565b5b818110156152e3576152d86000826152ac565b6001810190506152c5565b5050565b601f821115615328576152f9816151d2565b615302846151e7565b81016020851015615311578190505b61532561531d856151e7565b8301826152c4565b50505b505050565b600082821c905092915050565b600061534b6000198460080261532d565b1980831691505092915050565b6000615364838361533a565b9150826002028217905092915050565b61537d82613d2e565b67ffffffffffffffff8111156153965761539561413a565b5b6153a082546145f8565b6153ab8282856152e7565b600060209050601f8311600181146153de57600084156153cc578287015190505b6153d68582615358565b86555061543e565b601f1984166153ec866151d2565b60005b82811015615414578489015182556001820191506020850194506020810190506153ef565b86831015615431578489015161542d601f89168261533a565b8355505b6001600288020188555050505b505050505050565b600060208201905061545b6000830184613eb5565b92915050565b61546a81613b89565b811461547557600080fd5b50565b60008151905061548781615461565b92915050565b6000602082840312156154a3576154a2613afa565b5b60006154b184828501615478565b91505092915050565b600080fd5b600080fd5b6000813590506154d381615461565b92915050565b60006154ec6154e784614bb4565b61419a565b9050808382526020820190506020840283018581111561550f5761550e6140da565b5b835b8181101561553857806155248882613f19565b845260208401935050602081019050615511565b5050509392505050565b600082601f830112615557576155566140d0565b5b81356155678482602086016154d9565b91505092915050565b600060e08284031215615586576155856154ba565b5b61559060e061419a565b905060006155a0848285016154c4565b60008301525060206155b484828501613cd9565b60208301525060406155c884828501613cd9565b604083015250606082013567ffffffffffffffff8111156155ec576155eb6154bf565b5b6155f884828501615542565b606083015250608082013567ffffffffffffffff81111561561c5761561b6154bf565b5b61562884828501615542565b60808301525060a082013567ffffffffffffffff81111561564c5761564b6154bf565b5b61565884828501614237565b60a08301525060c061566c84828501613f85565b60c08301525092915050565b60006020828403121561568e5761568d613afa565b5b600082013567ffffffffffffffff8111156156ac576156ab613aff565b5b6156b884828501615570565b91505092915050565b60006040820190506156d66000830185613e0d565b81810360208301526156e88184613d85565b90509392505050565b60006020828403121561570757615706613afa565b5b600061571584828501614be0565b91505092915050565b7f424d233900000000000000000000000000000000000000000000000000000000600082015250565b600061575460048361454c565b915061575f8261571e565b602082019050919050565b6000602082019050818103600083015261578381615747565b9050919050565b7f496e697469616c697a61626c653a20636f6e747261637420697320616c72656160008201527f647920696e697469616c697a6564000000000000000000000000000000000000602082015250565b60006157e6602e8361454c565b91506157f18261578a565b604082019050919050565b60006020820190508181036000830152615815816157d9565b9050919050565b600060ff82169050919050565b600061584461583f61583a84614a85565b613fda565b61581c565b9050919050565b61585481615829565b82525050565b600060208201905061586f600083018461584b565b92915050565b6000819050919050565b61589061588b82613b04565b615875565b82525050565b60008160e01b9050919050565b60006158ae82615896565b9050919050565b6158c66158c182613bf3565b6158a3565b82525050565b60006158d8828561587f565b6004820191506158e882846158b5565b6004820191508190509392505050565b600061590382613bbf565b915061590e83613bbf565b925082820390508181111561592657615925614ae9565b5b92915050565b6000819050919050565b61594761594282613cb8565b61592c565b82525050565b6000615959828561587f565b6004820191506159698284615936565b6020820191508190509392505050565b600061598482613bf3565b915063ffffffff820361599a57615999614ae9565b5b600182019050919050565b60006159b082613bbf565b91507fffffffffffffffffffffffffffffffffffffffffffffffffffffffffffffffff82036159e2576159e1614ae9565b5b600182019050919050565b7f496e697469616c697a61626c653a20636f6e7472616374206973206e6f74206960008201527f6e697469616c697a696e67000000000000000000000000000000000000000000602082015250565b6000615a49602b8361454c565b9150615a54826159ed565b604082019050919050565b60006020820190508181036000830152615a7881615a3c565b9050919050565b600081905092915050565b7f416363657373436f6e74726f6c3a206163636f756e7420000000000000000000600082015250565b6000615ac0601783615a7f565b9150615acb82615a8a565b601782019050919050565b600081519050919050565b6000615aec82615ad6565b615af68185615a7f565b9350615b06818560208601613d4a565b80840191505092915050565b7f206973206d697373696e6720726f6c6520000000000000000000000000000000600082015250565b6000615b48601183615a7f565b9150615b5382615b12565b601182019050919050565b6000615b6982615ab3565b9150615b758285615ae1565b9150615b8082615b3b565b9150615b8c8284615ae1565b91508190509392505050565b6000615ba382615ad6565b615bad818561454c565b9350615bbd818560208601613d4a565b615bc681613d74565b840191505092915050565b60006020820190508181036000830152615beb8184615b98565b905092915050565b6000615bfe82613bbf565b9150615c0983613bbf565b9250828202615c1781613bbf565b91508282048414831517615c2e57615c2d614ae9565b5b5092915050565b6000615c4082613bbf565b9150615c4b83613bbf565b9250828201905080821115615c6357615c62614ae9565b5b92915050565b6000615c7482613bbf565b915060008203615c8757615c86614ae9565b5b600182039050919050565b7f537472696e67733a20686578206c656e67746820696e73756666696369656e74600082015250565b6000615cc860208361454c565b9150615cd382615c92565b602082019050919050565b60006020820190508181036000830152615cf781615cbb565b9050919050565b600081549050615d0d816145f8565b9050919050565b818103615d22575050615dfa565b615d2b82615cfe565b67ffffffffffffffff811115615d4457615d4361413a565b5b615d4e82546145f8565b615d598282856152e7565b6000601f831160018114615d885760008415615d76578287015490505b615d808582615358565b865550615df3565b601f198416615d96876151d2565b9650615da1866151d2565b60005b82811015615dc957848901548255600182019150600185019450602081019050615da4565b86831015615de65784890154615de2601f89168261533a565b8355505b6001600288020188555050505b5050505050505b56fea26469706673582212205dd3964c72b06c3e9a38b0887b5d88d2e9618964b4a639df60a1a9e1357b438464736f6c63430008180033",
  "linkReferences": {},
  "deployedLinkReferences": {}
}