{
  "_format": "hh-sol-artifact-1",
  "contractName": "PendingBook",
  "sourceName": "contracts/pendingBook.sol",
  "abi": [
    {
      "inputs": [],
      "stateMutability": "nonpayable",
      "type": "constructor"
    },
    {
      "anonymous": false,
      "inputs": [
        {
          "indexed": false,
          "internalType": "uint256",
          "name": "populated",
          "type": "uint256"
        },
        {
          "indexed": false,
          "internalType": "uint256",
          "name": "total",
          "type": "uint256"
        },
        {
          "indexed": false,
          "internalType": "bytes32[]",
          "name": "orderIds",
          "type": "bytes32[]"
        }
      ],
      "name": "BatchPopulated",
      "type": "event"
    },
    {
      "anonymous": false,
      "inputs": [
        {
          "indexed": false,
          "internalType": "uint8",
          "name": "version",
          "type": "uint8"
        }
      ],
      "name": "Initialized",
      "type": "event"
    },
    {
      "anonymous": false,
      "inputs": [
        {
          "indexed": true,
          "internalType": "bytes32",
          "name": "role",
          "type": "bytes32"
        },
        {
          "indexed": true,
          "internalType": "bytes32",
          "name": "previousAdminRole",
          "type": "bytes32"
        },
        {
          "indexed": true,
          "internalType": "bytes32",
          "name": "newAdminRole",
          "type": "bytes32"
        }
      ],
      "name": "RoleAdminChanged",
      "type": "event"
    },
    {
      "anonymous": false,
      "inputs": [
        {
          "indexed": true,
          "internalType": "bytes32",
          "name": "role",
          "type": "bytes32"
        },
        {
          "indexed": true,
          "internalType": "address",
          "name": "account",
          "type": "address"
        },
        {
          "indexed": true,
          "internalType": "address",
          "name": "sender",
          "type": "address"
        }
      ],
      "name": "RoleGranted",
      "type": "event"
    },
    {
      "anonymous": false,
      "inputs": [
        {
          "indexed": true,
          "internalType": "bytes32",
          "name": "role",
          "type": "bytes32"
        },
        {
          "indexed": true,
          "internalType": "address",
          "name": "account",
          "type": "address"
        },
        {
          "indexed": true,
          "internalType": "address",
          "name": "sender",
          "type": "address"
        }
      ],
      "name": "RoleRevoked",
      "type": "event"
    },
    {
      "inputs": [],
      "name": "DEFAULT_ADMIN_ROLE",
      "outputs": [
        {
          "internalType": "bytes32",
          "name": "",
          "type": "bytes32"
        }
      ],
      "stateMutability": "view",
      "type": "function"
    },
    {
      "inputs": [
        {
          "internalType": "bytes32",
          "name": "orderId",
          "type": "bytes32"
        },
        {
          "components": [
            {
              "internalType": "bytes4",
              "name": "destination",
              "type": "bytes4"
            },
            {
              "internalType": "bytes4",
              "name": "source",
              "type": "bytes4"
            },
            {
              "internalType": "uint32",
              "name": "asset",
              "type": "uint32"
            },
            {
              "internalType": "bytes32",
              "name": "targetAccount",
              "type": "bytes32"
            },
            {
              "internalType": "uint256",
              "name": "amount",
              "type": "uint256"
            },
            {
              "internalType": "address",
              "name": "rewardAsset",
              "type": "address"
            },
            {
              "internalType": "uint256",
              "name": "maxReward",
              "type": "uint256"
            },
            {
              "internalType": "uint32",
              "name": "nonce",
              "type": "uint32"
            },
            {
              "internalType": "address",
              "name": "sourceAccount",
              "type": "address"
            },
            {
              "internalType": "uint256",
              "name": "orderTimestamp",
              "type": "uint256"
            }
          ],
          "internalType": "struct OrderBook.Order",
          "name": "order",
          "type": "tuple"
        }
      ],
      "name": "add",
      "outputs": [],
      "stateMutability": "nonpayable",
      "type": "function"
    },
    {
      "inputs": [
        {
          "internalType": "bytes32",
          "name": "orderId",
          "type": "bytes32"
        },
        {
          "internalType": "address",
          "name": "_executor",
          "type": "address"
        }
      ],
      "name": "assign",
      "outputs": [],
      "stateMutability": "nonpayable",
      "type": "function"
    },
    {
      "inputs": [
        {
          "internalType": "bytes32",
          "name": "orderId",
          "type": "bytes32"
        }
      ],
      "name": "attestL2",
      "outputs": [],
      "stateMutability": "nonpayable",
      "type": "function"
    },
    {
      "inputs": [],
      "name": "biddingBook",
      "outputs": [
        {
          "internalType": "contract BiddingBook",
          "name": "",
          "type": "address"
        }
      ],
      "stateMutability": "view",
      "type": "function"
    },
    {
      "inputs": [
        {
          "internalType": "bytes32",
          "name": "orderId",
          "type": "bytes32"
        }
      ],
      "name": "claim",
      "outputs": [],
      "stateMutability": "nonpayable",
      "type": "function"
    },
    {
      "inputs": [
        {
          "internalType": "bytes32",
          "name": "orderId",
          "type": "bytes32"
        }
      ],
      "name": "confirm",
      "outputs": [],
      "stateMutability": "nonpayable",
      "type": "function"
    },
    {
      "inputs": [],
      "name": "confirmationBook",
      "outputs": [
        {
          "internalType": "contract ConfirmationBook",
          "name": "",
          "type": "address"
        }
      ],
      "stateMutability": "view",
      "type": "function"
    },
    {
      "inputs": [],
      "name": "emergencyCleanup",
      "outputs": [],
      "stateMutability": "nonpayable",
      "type": "function"
    },
    {
      "inputs": [
        {
          "internalType": "bytes32",
          "name": "",
          "type": "bytes32"
        }
      ],
      "name": "executors",
      "outputs": [
        {
          "internalType": "address",
          "name": "",
          "type": "address"
        }
      ],
      "stateMutability": "view",
      "type": "function"
    },
    {
      "inputs": [
        {
          "internalType": "uint256",
          "name": "_limit",
          "type": "uint256"
        }
      ],
      "name": "getAllPending",
      "outputs": [
        {
          "internalType": "bytes32[]",
          "name": "",
          "type": "bytes32[]"
        }
      ],
      "stateMutability": "view",
      "type": "function"
    },
    {
      "inputs": [
        {
          "internalType": "address",
          "name": "executor",
          "type": "address"
        },
        {
          "internalType": "uint256",
          "name": "_limit",
          "type": "uint256"
        }
      ],
      "name": "getAllPendingByExecutor",
      "outputs": [
        {
          "internalType": "bytes32[]",
          "name": "",
          "type": "bytes32[]"
        }
      ],
      "stateMutability": "view",
      "type": "function"
    },
    {
      "inputs": [
        {
          "internalType": "bytes4",
          "name": "network",
          "type": "bytes4"
        },
        {
          "internalType": "uint256",
          "name": "_limit",
          "type": "uint256"
        }
      ],
      "name": "getAllPendingByNetwork",
      "outputs": [
        {
          "internalType": "bytes32[]",
          "name": "",
          "type": "bytes32[]"
        }
      ],
      "stateMutability": "view",
      "type": "function"
    },
    {
      "inputs": [
        {
          "internalType": "address",
          "name": "executor",
          "type": "address"
        },
        {
          "internalType": "uint256",
          "name": "_limit",
          "type": "uint256"
        }
      ],
      "name": "getAllPendingClaimableByExecutor",
      "outputs": [
        {
          "internalType": "bytes32[]",
          "name": "",
          "type": "bytes32[]"
        }
      ],
      "stateMutability": "view",
      "type": "function"
    },
    {
      "inputs": [
        {
          "internalType": "address",
          "name": "executor",
          "type": "address"
        },
        {
          "internalType": "uint256",
          "name": "_limit",
          "type": "uint256"
        }
      ],
      "name": "getAllPendingExecutableByExecutor",
      "outputs": [
        {
          "internalType": "bytes32[]",
          "name": "",
          "type": "bytes32[]"
        }
      ],
      "stateMutability": "view",
      "type": "function"
    },
    {
      "inputs": [],
      "name": "getFirstExecutor",
      "outputs": [
        {
          "internalType": "address",
          "name": "",
          "type": "address"
        }
      ],
      "stateMutability": "view",
      "type": "function"
    },
    {
      "inputs": [
        {
          "internalType": "bytes32",
          "name": "role",
          "type": "bytes32"
        }
      ],
      "name": "getRoleAdmin",
      "outputs": [
        {
          "internalType": "bytes32",
          "name": "",
          "type": "bytes32"
        }
      ],
      "stateMutability": "view",
      "type": "function"
    },
    {
      "inputs": [
        {
          "internalType": "bytes32",
          "name": "role",
          "type": "bytes32"
        },
        {
          "internalType": "address",
          "name": "account",
          "type": "address"
        }
      ],
      "name": "grantRole",
      "outputs": [],
      "stateMutability": "nonpayable",
      "type": "function"
    },
    {
      "inputs": [
        {
          "internalType": "bytes32",
          "name": "role",
          "type": "bytes32"
        },
        {
          "internalType": "address",
          "name": "account",
          "type": "address"
        }
      ],
      "name": "hasRole",
      "outputs": [
        {
          "internalType": "bool",
          "name": "",
          "type": "bool"
        }
      ],
      "stateMutability": "view",
      "type": "function"
    },
    {
      "inputs": [
        {
          "internalType": "address",
          "name": "_owner",
          "type": "address"
        }
      ],
      "name": "initialize",
      "outputs": [],
      "stateMutability": "nonpayable",
      "type": "function"
    },
    {
      "inputs": [],
      "name": "orderBook",
      "outputs": [
        {
          "internalType": "contract OrderBook",
          "name": "",
          "type": "address"
        }
      ],
      "stateMutability": "view",
      "type": "function"
    },
    {
      "inputs": [
        {
          "internalType": "bytes32",
          "name": "",
          "type": "bytes32"
        }
      ],
      "name": "orders",
      "outputs": [
        {
          "internalType": "bytes4",
          "name": "destination",
          "type": "bytes4"
        },
        {
          "internalType": "bytes4",
          "name": "source",
          "type": "bytes4"
        },
        {
          "internalType": "uint32",
          "name": "asset",
          "type": "uint32"
        },
        {
          "internalType": "bytes32",
          "name": "targetAccount",
          "type": "bytes32"
        },
        {
          "internalType": "uint256",
          "name": "amount",
          "type": "uint256"
        },
        {
          "internalType": "address",
          "name": "rewardAsset",
          "type": "address"
        },
        {
          "internalType": "uint256",
          "name": "maxReward",
          "type": "uint256"
        },
        {
          "internalType": "uint32",
          "name": "nonce",
          "type": "uint32"
        },
        {
          "internalType": "address",
          "name": "sourceAccount",
          "type": "address"
        },
        {
          "internalType": "uint256",
          "name": "orderTimestamp",
          "type": "uint256"
        }
      ],
      "stateMutability": "view",
      "type": "function"
    },
    {
      "inputs": [],
      "name": "pendingOrderCount",
      "outputs": [
        {
          "internalType": "uint256",
          "name": "",
          "type": "uint256"
        }
      ],
      "stateMutability": "view",
      "type": "function"
    },
    {
      "inputs": [
        {
          "internalType": "address",
          "name": "",
          "type": "address"
        }
      ],
      "name": "pendingOrderCountByExecutor",
      "outputs": [
        {
          "internalType": "uint256",
          "name": "",
          "type": "uint256"
        }
      ],
      "stateMutability": "view",
      "type": "function"
    },
    {
      "inputs": [
        {
          "internalType": "bytes4",
          "name": "",
          "type": "bytes4"
        }
      ],
      "name": "pendingOrderCountByNetwork",
      "outputs": [
        {
          "internalType": "uint256",
          "name": "",
          "type": "uint256"
        }
      ],
      "stateMutability": "view",
      "type": "function"
    },
    {
      "inputs": [
        {
          "internalType": "bytes32",
          "name": "",
          "type": "bytes32"
        }
      ],
      "name": "pendingOrders",
      "outputs": [
        {
          "internalType": "bytes32",
          "name": "orderId",
          "type": "bytes32"
        },
        {
          "internalType": "bytes32",
          "name": "next",
          "type": "bytes32"
        }
      ],
      "stateMutability": "view",
      "type": "function"
    },
    {
      "inputs": [
        {
          "internalType": "address",
          "name": "",
          "type": "address"
        }
      ],
      "name": "pendingOrdersByExecutor",
      "outputs": [
        {
          "internalType": "bytes32",
          "name": "",
          "type": "bytes32"
        }
      ],
      "stateMutability": "view",
      "type": "function"
    },
    {
      "inputs": [
        {
          "internalType": "bytes4",
          "name": "",
          "type": "bytes4"
        }
      ],
      "name": "pendingOrdersByNetwork",
      "outputs": [
        {
          "internalType": "bytes32",
          "name": "",
          "type": "bytes32"
        }
      ],
      "stateMutability": "view",
      "type": "function"
    },
    {
      "inputs": [],
      "name": "pendingOrdersHead",
      "outputs": [
        {
          "internalType": "bytes32",
          "name": "",
          "type": "bytes32"
        }
      ],
      "stateMutability": "view",
      "type": "function"
    },
    {
      "inputs": [
        {
          "internalType": "bytes32",
          "name": "orderId",
          "type": "bytes32"
        }
      ],
      "name": "refund",
      "outputs": [],
      "stateMutability": "nonpayable",
      "type": "function"
    },
    {
      "inputs": [
        {
          "internalType": "bytes32",
          "name": "role",
          "type": "bytes32"
        },
        {
          "internalType": "address",
          "name": "account",
          "type": "address"
        }
      ],
      "name": "renounceRole",
      "outputs": [],
      "stateMutability": "nonpayable",
      "type": "function"
    },
    {
      "inputs": [
        {
          "internalType": "bytes32",
          "name": "role",
          "type": "bytes32"
        },
        {
          "internalType": "address",
          "name": "account",
          "type": "address"
        }
      ],
      "name": "revokeRole",
      "outputs": [],
      "stateMutability": "nonpayable",
      "type": "function"
    },
    {
      "inputs": [
        {
          "internalType": "address payable",
          "name": "_biddingBook",
          "type": "address"
        }
      ],
      "name": "setBiddingBook",
      "outputs": [],
      "stateMutability": "nonpayable",
      "type": "function"
    },
    {
      "inputs": [
        {
          "internalType": "address payable",
          "name": "_confirmationBook",
          "type": "address"
        }
      ],
      "name": "setConfirmationBook",
      "outputs": [],
      "stateMutability": "nonpayable",
      "type": "function"
    },
    {
      "inputs": [
        {
          "internalType": "address payable",
          "name": "_orderBook",
          "type": "address"
        }
      ],
      "name": "setOrderBook",
      "outputs": [],
      "stateMutability": "nonpayable",
      "type": "function"
    },
    {
      "inputs": [
        {
          "internalType": "address payable",
          "name": "_singleAttestationBook",
          "type": "address"
        }
      ],
      "name": "setSingleAttestationBook",
      "outputs": [],
      "stateMutability": "nonpayable",
      "type": "function"
    },
    {
      "inputs": [
        {
          "internalType": "bytes32",
          "name": "_version",
          "type": "bytes32"
        }
      ],
      "name": "setVersion",
      "outputs": [],
      "stateMutability": "nonpayable",
      "type": "function"
    },
    {
      "inputs": [],
      "name": "singleAttestationBook",
      "outputs": [
        {
          "internalType": "contract SingleAttestationBook",
          "name": "",
          "type": "address"
        }
      ],
      "stateMutability": "view",
      "type": "function"
    },
    {
      "inputs": [
        {
          "internalType": "bytes32",
          "name": "",
          "type": "bytes32"
        }
      ],
      "name": "statuses",
      "outputs": [
        {
          "internalType": "enum PendingBook.OrderStatus",
          "name": "",
          "type": "uint8"
        }
      ],
      "stateMutability": "view",
      "type": "function"
    },
    {
      "inputs": [
        {
          "internalType": "bytes4",
          "name": "interfaceId",
          "type": "bytes4"
        }
      ],
      "name": "supportsInterface",
      "outputs": [
        {
          "internalType": "bool",
          "name": "",
          "type": "bool"
        }
      ],
      "stateMutability": "view",
      "type": "function"
    },
    {
      "inputs": [],
      "name": "version",
      "outputs": [
        {
          "internalType": "bytes32",
          "name": "",
          "type": "bytes32"
        }
      ],
      "stateMutability": "view",
      "type": "function"
    }
  ],
  "bytecode": "0x60806040523480156200001157600080fd5b50620000226200002860201b60201c565b620001d2565b600060019054906101000a900460ff16156200007b576040517f08c379a0000000000000000000000000000000000000000000000000000000008152600401620000729062000175565b60405180910390fd5b60ff801660008054906101000a900460ff1660ff1614620000ec5760ff6000806101000a81548160ff021916908360ff1602179055507f7f26b83ff96e1f2b6a682f133852f6798a09c465da95921460cefb384740249860ff604051620000e39190620001b5565b60405180910390a15b565b600082825260208201905092915050565b7f496e697469616c697a61626c653a20636f6e747261637420697320696e69746960008201527f616c697a696e6700000000000000000000000000000000000000000000000000602082015250565b60006200015d602783620000ee565b91506200016a82620000ff565b604082019050919050565b6000602082019050818103600083015262000190816200014e565b9050919050565b600060ff82169050919050565b620001af8162000197565b82525050565b6000602082019050620001cc6000830184620001a4565b92915050565b6141a980620001e26000396000f3fe608060405234801561001057600080fd5b50600436106102535760003560e01c8063797af62711610146578063ac8174de116100c3578063c8dd9aa611610087578063c8dd9aa614610726578063ca5f81b514610756578063d547741f14610772578063d6a7f9dd1461078e578063f1a36c7d146107be578063f7a6dacd146107ee57610253565b8063ac8174de14610672578063b4e32465146106a2578063bd66528a146106be578063c117861f146106da578063c4d66de81461070a57610253565b80639a1598c81161010a5780639a1598c8146105c55780639c3f1e90146105e15780639e1769561461061a578063a217fddf14610638578063a81bde4e1461065657610253565b8063797af627146104fc5780637b55766f146105185780637c758a8c146105495780637e98aed61461057957806391d148541461059557610253565b806336568abe116101d4578063574cd2e711610198578063574cd2e71461047e5780635d1c5710146104885780636eb36afd146104a65780637249fbb6146104c2578063776af5ba146104de57610253565b806336568abe146103c8578063409e16aa146103e457806343d6cb2d146104005780634d28d0231461043057806354fd4d501461046057610253565b8063296b1cf81161021b578063296b1cf8146103225780632aa8269e146103405780632b1c1af61461035e5780632f2ff15d1461038e57806334e47714146103aa57610253565b806301ffc9a71461025857806307d9cccf1461028857806310f7cf32146102a65780631966c154146102d6578063248a9ca3146102f2575b600080fd5b610272600480360381019061026d9190613154565b61081e565b60405161027f919061319c565b60405180910390f35b610290610898565b60405161029d91906131d0565b60405180910390f35b6102c060048036038101906102bb9190613217565b61089e565b6040516102cd91906132bb565b60405180910390f35b6102f060048036038101906102eb9190613334565b6108be565b005b61030c60048036038101906103079190613217565b61094e565b60405161031991906131d0565b60405180910390f35b61032a61096e565b60405161033791906133c0565b60405180910390f35b610348610994565b60405161035591906133fc565b60405180910390f35b61037860048036038101906103739190613154565b6109ba565b6040516103859190613430565b60405180910390f35b6103a860048036038101906103a39190613489565b6109d2565b005b6103b26109f3565b6040516103bf9190613430565b60405180910390f35b6103e260048036038101906103dd9190613489565b6109f9565b005b6103fe60048036038101906103f99190613334565b610a7c565b005b61041a600480360381019061041591906134f5565b610b0c565b60405161042791906135f3565b60405180910390f35b61044a60048036038101906104459190613615565b610cbc565b6040516104579190613430565b60405180910390f35b610468610cd4565b60405161047591906131d0565b60405180910390f35b610486610cda565b005b610490611113565b60405161049d9190613675565b60405180910390f35b6104c060048036038101906104bb9190613334565b611139565b005b6104dc60048036038101906104d79190613217565b6111c9565b005b6104e66112a1565b6040516104f391906136b1565b60405180910390f35b61051660048036038101906105119190613217565b6112c7565b005b610532600480360381019061052d9190613217565b611396565b6040516105409291906136cc565b60405180910390f35b610563600480360381019061055e91906136f5565b6113ba565b60405161057091906135f3565b60405180910390f35b610593600480360381019061058e9190613217565b611556565b005b6105af60048036038101906105aa9190613489565b611625565b6040516105bc919061319c565b60405180910390f35b6105df60048036038101906105da9190613334565b611690565b005b6105fb60048036038101906105f69190613217565b611720565b6040516106119a99989796959493929190613772565b60405180910390f35b6106226117ee565b60405161062f919061380e565b60405180910390f35b61064061189f565b60405161064d91906131d0565b60405180910390f35b610670600480360381019061066b9190613489565b6118a6565b005b61068c60048036038101906106879190613154565b611a49565b60405161069991906131d0565b60405180910390f35b6106bc60048036038101906106b791906139dc565b611a61565b005b6106d860048036038101906106d39190613217565b611dce565b005b6106f460048036038101906106ef9190613615565b611ea6565b60405161070191906131d0565b60405180910390f35b610724600480360381019061071f9190613615565b611ebe565b005b610740600480360381019061073b91906136f5565b61200a565b60405161074d91906135f3565b60405180910390f35b610770600480360381019061076b9190613217565b6121f7565b005b61078c60048036038101906107879190613489565b61224d565b005b6107a860048036038101906107a39190613217565b61226e565b6040516107b5919061380e565b60405180910390f35b6107d860048036038101906107d391906136f5565b6122a1565b6040516107e591906135f3565b60405180910390f35b61080860048036038101906108039190613a1d565b61248e565b60405161081591906135f3565b60405180910390f35b60007f7965db0b000000000000000000000000000000000000000000000000000000007bffffffffffffffffffffffffffffffffffffffffffffffffffffffff1916827bffffffffffffffffffffffffffffffffffffffffffffffffffffffff19161480610891575061089082612583565b5b9050919050565b609b5481565b60986020528060005260406000206000915054906101000a900460ff1681565b6108cb6000801b33611625565b61090a576040517f08c379a000000000000000000000000000000000000000000000000000000000815260040161090190613aa7565b60405180910390fd5b8060a160006101000a81548173ffffffffffffffffffffffffffffffffffffffff021916908373ffffffffffffffffffffffffffffffffffffffff16021790555050565b600060656000838152602001908152602001600020600101549050919050565b60a260009054906101000a900473ffffffffffffffffffffffffffffffffffffffff1681565b60a460009054906101000a900473ffffffffffffffffffffffffffffffffffffffff1681565b609f6020528060005260406000206000915090505481565b6109db8261094e565b6109e4816125ed565b6109ee8383612601565b505050565b60a05481565b610a016126e2565b73ffffffffffffffffffffffffffffffffffffffff168173ffffffffffffffffffffffffffffffffffffffff1614610a6e576040517f08c379a0000000000000000000000000000000000000000000000000000000008152600401610a6590613b39565b60405180910390fd5b610a7882826126ea565b5050565b610a896000801b33611625565b610ac8576040517f08c379a0000000000000000000000000000000000000000000000000000000008152600401610abf90613aa7565b60405180910390fd5b8060a460006101000a81548173ffffffffffffffffffffffffffffffffffffffff021916908373ffffffffffffffffffffffffffffffffffffffff16021790555050565b60606000609f6000857bffffffffffffffffffffffffffffffffffffffffffffffffffffffff19167bffffffffffffffffffffffffffffffffffffffffffffffffffffffff191681526020019081526020016000205490506000808411610b735781610b75565b835b90506000818311610b865782610b88565b815b905060008167ffffffffffffffff811115610ba657610ba561383f565b5b604051908082528060200260200182016040528015610bd45781602001602082028036833780820191505090505b5090506000609b54905060005b6000801b8214158015610bf357508381105b15610cad57887bffffffffffffffffffffffffffffffffffffffffffffffffffffffff19166097600084815260200190815260200160002060000160049054906101000a900460e01b7bffffffffffffffffffffffffffffffffffffffffffffffffffffffff191603610c8f5781838281518110610c7457610c73613b59565b5b6020026020010181815250508080610c8b90613bb7565b9150505b609a6000838152602001908152602001600020600101549150610be1565b82965050505050505092915050565b609e6020528060005260406000206000915090505481565b60a55481565b610ce76000801b33611625565b610d26576040517f08c379a0000000000000000000000000000000000000000000000000000000008152600401610d1d90613aa7565b60405180910390fd5b6000609b5490505b6000801b81146110fe5760976000828152602001908152602001600020600080820160006101000a81549063ffffffff02191690556000820160046101000a81549063ffffffff02191690556000820160086101000a81549063ffffffff0219169055600182016000905560028201600090556003820160006101000a81549073ffffffffffffffffffffffffffffffffffffffff021916905560048201600090556005820160006101000a81549063ffffffff02191690556005820160046101000a81549073ffffffffffffffffffffffffffffffffffffffff0219169055600682016000905550506098600082815260200190815260200160002060006101000a81549060ff02191690556099600082815260200190815260200160002060006101000a81549073ffffffffffffffffffffffffffffffffffffffff0219169055609a60008281526020019081526020016000206000808201600090556001820160009055505060006099600083815260200190815260200160002060009054906101000a900473ffffffffffffffffffffffffffffffffffffffff169050600073ffffffffffffffffffffffffffffffffffffffff168173ffffffffffffffffffffffffffffffffffffffff1614158015610f4b57506000609e60008373ffffffffffffffffffffffffffffffffffffffff1673ffffffffffffffffffffffffffffffffffffffff16815260200190815260200160002054115b15610fa657609e60008273ffffffffffffffffffffffffffffffffffffffff1673ffffffffffffffffffffffffffffffffffffffff1681526020019081526020016000206000815480929190610fa090613bff565b91905055505b60006097600084815260200190815260200160002060000160049054906101000a900460e01b9050600060e01b7bffffffffffffffffffffffffffffffffffffffffffffffffffffffff1916817bffffffffffffffffffffffffffffffffffffffffffffffffffffffff19161415801561107157506000609f6000837bffffffffffffffffffffffffffffffffffffffffffffffffffffffff19167bffffffffffffffffffffffffffffffffffffffffffffffffffffffff1916815260200190815260200160002054115b156110de57609f6000827bffffffffffffffffffffffffffffffffffffffffffffffffffffffff19167bffffffffffffffffffffffffffffffffffffffffffffffffffffffff1916815260200190815260200160002060008154809291906110d890613bff565b91905055505b609a60008481526020019081526020016000206001015492505050610d2e565b6000801b609b81905550600060a08190555050565b60a160009054906101000a900473ffffffffffffffffffffffffffffffffffffffff1681565b6111466000801b33611625565b611185576040517f08c379a000000000000000000000000000000000000000000000000000000000815260040161117c90613aa7565b60405180910390fd5b8060a260006101000a81548173ffffffffffffffffffffffffffffffffffffffff021916908373ffffffffffffffffffffffffffffffffffffffff16021790555050565b60a260009054906101000a900473ffffffffffffffffffffffffffffffffffffffff1673ffffffffffffffffffffffffffffffffffffffff163373ffffffffffffffffffffffffffffffffffffffff1614611259576040517f08c379a000000000000000000000000000000000000000000000000000000000815260040161125090613c74565b60405180910390fd5b60036098600083815260200190815260200160002060006101000a81548160ff021916908360048111156112905761128f613244565b5b021790555061129e816127cc565b50565b60a360009054906101000a900473ffffffffffffffffffffffffffffffffffffffff1681565b60a260009054906101000a900473ffffffffffffffffffffffffffffffffffffffff1673ffffffffffffffffffffffffffffffffffffffff163373ffffffffffffffffffffffffffffffffffffffff1614611357576040517f08c379a000000000000000000000000000000000000000000000000000000000815260040161134e90613c74565b60405180910390fd5b60016098600083815260200190815260200160002060006101000a81548160ff0219169083600481111561138e5761138d613244565b5b021790555050565b609a6020528060005260406000206000915090508060000154908060010154905082565b60606000609e60008573ffffffffffffffffffffffffffffffffffffffff1673ffffffffffffffffffffffffffffffffffffffff168152602001908152602001600020549050600080841161140f5781611411565b835b905060008183116114225782611424565b815b905060008167ffffffffffffffff8111156114425761144161383f565b5b6040519080825280602002602001820160405280156114705781602001602082028036833780820191505090505b5090506000609b54905060005b6000801b821415801561148f57508381105b15611547578873ffffffffffffffffffffffffffffffffffffffff166099600084815260200190815260200160002060009054906101000a900473ffffffffffffffffffffffffffffffffffffffff1673ffffffffffffffffffffffffffffffffffffffff1603611529578183828151811061150e5761150d613b59565b5b602002602001018181525050808061152590613bb7565b9150505b609a600083815260200190815260200160002060010154915061147d565b82965050505050505092915050565b60a260009054906101000a900473ffffffffffffffffffffffffffffffffffffffff1673ffffffffffffffffffffffffffffffffffffffff163373ffffffffffffffffffffffffffffffffffffffff16146115e6576040517f08c379a00000000000000000000000000000000000000000000000000000000081526004016115dd90613c74565b60405180910390fd5b60026098600083815260200190815260200160002060006101000a81548160ff0219169083600481111561161d5761161c613244565b5b021790555050565b60006065600084815260200190815260200160002060000160008373ffffffffffffffffffffffffffffffffffffffff1673ffffffffffffffffffffffffffffffffffffffff16815260200190815260200160002060009054906101000a900460ff16905092915050565b61169d6000801b33611625565b6116dc576040517f08c379a00000000000000000000000000000000000000000000000000000000081526004016116d390613aa7565b60405180910390fd5b8060a360006101000a81548173ffffffffffffffffffffffffffffffffffffffff021916908373ffffffffffffffffffffffffffffffffffffffff16021790555050565b60976020528060005260406000206000915090508060000160009054906101000a900460e01b908060000160049054906101000a900460e01b908060000160089054906101000a900463ffffffff16908060010154908060020154908060030160009054906101000a900473ffffffffffffffffffffffffffffffffffffffff16908060040154908060050160009054906101000a900463ffffffff16908060050160049054906101000a900473ffffffffffffffffffffffffffffffffffffffff1690806006015490508a565b600080609b54905060005b6000801b82146118975760006099600084815260200190815260200160002060009054906101000a900473ffffffffffffffffffffffffffffffffffffffff169050600073ffffffffffffffffffffffffffffffffffffffff168173ffffffffffffffffffffffffffffffffffffffff16146118785780915050611897565b609a6000848152602001908152602001600020600101549250506117f9565b809250505090565b6000801b81565b60a460009054906101000a900473ffffffffffffffffffffffffffffffffffffffff1673ffffffffffffffffffffffffffffffffffffffff163373ffffffffffffffffffffffffffffffffffffffff1614611936576040517f08c379a000000000000000000000000000000000000000000000000000000000815260040161192d90613ce0565b60405180910390fd5b600073ffffffffffffffffffffffffffffffffffffffff166099600084815260200190815260200160002060009054906101000a900473ffffffffffffffffffffffffffffffffffffffff1673ffffffffffffffffffffffffffffffffffffffff1603611a4557609e60008273ffffffffffffffffffffffffffffffffffffffff1673ffffffffffffffffffffffffffffffffffffffff16815260200190815260200160002060008154809291906119ed90613bb7565b9190505550806099600084815260200190815260200160002060006101000a81548173ffffffffffffffffffffffffffffffffffffffff021916908373ffffffffffffffffffffffffffffffffffffffff1602179055505b5050565b609d6020528060005260406000206000915090505481565b60a360009054906101000a900473ffffffffffffffffffffffffffffffffffffffff1673ffffffffffffffffffffffffffffffffffffffff163373ffffffffffffffffffffffffffffffffffffffff1614611af1576040517f08c379a0000000000000000000000000000000000000000000000000000000008152600401611ae890613d4c565b60405180910390fd5b600060e01b7bffffffffffffffffffffffffffffffffffffffffffffffffffffffff19166097600084815260200190815260200160002060000160049054906101000a900460e01b7bffffffffffffffffffffffffffffffffffffffffffffffffffffffff191603611dca57806097600084815260200190815260200160002060008201518160000160006101000a81548163ffffffff021916908360e01c021790555060208201518160000160046101000a81548163ffffffff021916908360e01c021790555060408201518160000160086101000a81548163ffffffff021916908363ffffffff160217905550606082015181600101556080820151816002015560a08201518160030160006101000a81548173ffffffffffffffffffffffffffffffffffffffff021916908373ffffffffffffffffffffffffffffffffffffffff16021790555060c0820151816004015560e08201518160050160006101000a81548163ffffffff021916908363ffffffff1602179055506101008201518160050160046101000a81548173ffffffffffffffffffffffffffffffffffffffff021916908373ffffffffffffffffffffffffffffffffffffffff160217905550610120820151816006015590505060006098600084815260200190815260200160002060006101000a81548160ff02191690836004811115611cf957611cf8613244565b5b02179055506040518060400160405280838152602001609b54815250609a6000848152602001908152602001600020600082015181600001556020820151816001015590505081609b81905550609f600082602001517bffffffffffffffffffffffffffffffffffffffffffffffffffffffff19167bffffffffffffffffffffffffffffffffffffffffffffffffffffffff191681526020019081526020016000206000815480929190611dac90613bb7565b919050555060a06000815480929190611dc490613bb7565b91905055505b5050565b60a260009054906101000a900473ffffffffffffffffffffffffffffffffffffffff1673ffffffffffffffffffffffffffffffffffffffff163373ffffffffffffffffffffffffffffffffffffffff1614611e5e576040517f08c379a0000000000000000000000000000000000000000000000000000000008152600401611e5590613c74565b60405180910390fd5b60046098600083815260200190815260200160002060006101000a81548160ff02191690836004811115611e9557611e94613244565b5b0217905550611ea3816127cc565b50565b609c6020528060005260406000206000915090505481565b60008060019054906101000a900460ff16159050808015611eef5750600160008054906101000a900460ff1660ff16105b80611f1c5750611efe30612d8b565b158015611f1b5750600160008054906101000a900460ff1660ff16145b5b611f5b576040517f08c379a0000000000000000000000000000000000000000000000000000000008152600401611f5290613dde565b60405180910390fd5b60016000806101000a81548160ff021916908360ff1602179055508015611f98576001600060016101000a81548160ff0219169083151502179055505b611fa0612dae565b611fad6000801b83612601565b80156120065760008060016101000a81548160ff0219169083151502179055507f7f26b83ff96e1f2b6a682f133852f6798a09c465da95921460cefb38474024986001604051611ffd9190613e46565b60405180910390a15b5050565b60606000609e60008573ffffffffffffffffffffffffffffffffffffffff1673ffffffffffffffffffffffffffffffffffffffff168152602001908152602001600020549050600080841161205f5781612061565b835b905060008183116120725782612074565b815b905060008167ffffffffffffffff8111156120925761209161383f565b5b6040519080825280602002602001820160405280156120c05781602001602082028036833780820191505090505b5090506000609b54905060005b6000801b82141580156120df57508381105b156121e8578873ffffffffffffffffffffffffffffffffffffffff166099600084815260200190815260200160002060009054906101000a900473ffffffffffffffffffffffffffffffffffffffff1673ffffffffffffffffffffffffffffffffffffffff1614801561219657506002600481111561216157612160613244565b5b6098600084815260200190815260200160002060009054906101000a900460ff16600481111561219457612193613244565b5b145b156121ca57818382815181106121af576121ae613b59565b5b60200260200101818152505080806121c690613bb7565b9150505b609a60008381526020019081526020016000206001015491506120cd565b82965050505050505092915050565b6122046000801b33611625565b612243576040517f08c379a000000000000000000000000000000000000000000000000000000000815260040161223a90613aa7565b60405180910390fd5b8060a58190555050565b6122568261094e565b61225f816125ed565b61226983836126ea565b505050565b60996020528060005260406000206000915054906101000a900473ffffffffffffffffffffffffffffffffffffffff1681565b60606000609e60008573ffffffffffffffffffffffffffffffffffffffff1673ffffffffffffffffffffffffffffffffffffffff16815260200190815260200160002054905060008084116122f657816122f8565b835b90506000818311612309578261230b565b815b905060008167ffffffffffffffff8111156123295761232861383f565b5b6040519080825280602002602001820160405280156123575781602001602082028036833780820191505090505b5090506000609b54905060005b6000801b821415801561237657508381105b1561247f578873ffffffffffffffffffffffffffffffffffffffff166099600084815260200190815260200160002060009054906101000a900473ffffffffffffffffffffffffffffffffffffffff1673ffffffffffffffffffffffffffffffffffffffff1614801561242d5750600060048111156123f8576123f7613244565b5b6098600084815260200190815260200160002060009054906101000a900460ff16600481111561242b5761242a613244565b5b145b15612461578183828151811061244657612445613b59565b5b602002602001018181525050808061245d90613bb7565b9150505b609a6000838152602001908152602001600020600101549150612364565b82965050505050505092915050565b606060008083116124a15760a0546124a3565b825b905060008160a054116124b85760a0546124ba565b815b905060008167ffffffffffffffff8111156124d8576124d761383f565b5b6040519080825280602002602001820160405280156125065781602001602082028036833780820191505090505b5090506000609b54905060005b838110801561252557506000801b8214155b15612576578183828151811061253e5761253d613b59565b5b602002602001018181525050609a6000838152602001908152602001600020600101549150808061256e90613bb7565b915050612513565b5081945050505050919050565b60007f01ffc9a7000000000000000000000000000000000000000000000000000000007bffffffffffffffffffffffffffffffffffffffffffffffffffffffff1916827bffffffffffffffffffffffffffffffffffffffffffffffffffffffff1916149050919050565b6125fe816125f96126e2565b612dff565b50565b61260b8282611625565b6126de5760016065600084815260200190815260200160002060000160008373ffffffffffffffffffffffffffffffffffffffff1673ffffffffffffffffffffffffffffffffffffffff16815260200190815260200160002060006101000a81548160ff0219169083151502179055506126836126e2565b73ffffffffffffffffffffffffffffffffffffffff168173ffffffffffffffffffffffffffffffffffffffff16837f2f8788117e7eff1d82e926ec794901d17c78024a50270940304540a733656f0d60405160405180910390a45b5050565b600033905090565b6126f48282611625565b156127c85760006065600084815260200190815260200160002060000160008373ffffffffffffffffffffffffffffffffffffffff1673ffffffffffffffffffffffffffffffffffffffff16815260200190815260200160002060006101000a81548160ff02191690831515021790555061276d6126e2565b73ffffffffffffffffffffffffffffffffffffffff168173ffffffffffffffffffffffffffffffffffffffff16837ff6391f5c32d9c69d2a47ea670b442974b53935d1edc7fd64eb21e047a839171b60405160405180910390a45b5050565b600060976000838152602001908152602001600020604051806101400160405290816000820160009054906101000a900460e01b7bffffffffffffffffffffffffffffffffffffffffffffffffffffffff19167bffffffffffffffffffffffffffffffffffffffffffffffffffffffff191681526020016000820160049054906101000a900460e01b7bffffffffffffffffffffffffffffffffffffffffffffffffffffffff19167bffffffffffffffffffffffffffffffffffffffffffffffffffffffff191681526020016000820160089054906101000a900463ffffffff1663ffffffff1663ffffffff16815260200160018201548152602001600282015481526020016003820160009054906101000a900473ffffffffffffffffffffffffffffffffffffffff1673ffffffffffffffffffffffffffffffffffffffff1673ffffffffffffffffffffffffffffffffffffffff168152602001600482015481526020016005820160009054906101000a900463ffffffff1663ffffffff1663ffffffff1681526020016005820160049054906101000a900473ffffffffffffffffffffffffffffffffffffffff1673ffffffffffffffffffffffffffffffffffffffff1673ffffffffffffffffffffffffffffffffffffffff168152602001600682015481525050905060976000838152602001908152602001600020600080820160006101000a81549063ffffffff02191690556000820160046101000a81549063ffffffff02191690556000820160086101000a81549063ffffffff0219169055600182016000905560028201600090556003820160006101000a81549073ffffffffffffffffffffffffffffffffffffffff021916905560048201600090556005820160006101000a81549063ffffffff02191690556005820160046101000a81549073ffffffffffffffffffffffffffffffffffffffff0219169055600682016000905550506098600083815260200190815260200160002060006101000a81549060ff02191690556000609b54905060008060001b90505b6000801b8214612b8757838203612b66576000801b8103612b0957609a600083815260200190815260200160002060010154609b81905550612b3b565b609a600083815260200190815260200160002060010154609a6000838152602001908152602001600020600101819055505b609a600083815260200190815260200160002060008082016000905560018201600090555050612b87565b819050609a6000838152602001908152602001600020600101549150612acc565b60006099600086815260200190815260200160002060009054906101000a900473ffffffffffffffffffffffffffffffffffffffff169050600073ffffffffffffffffffffffffffffffffffffffff168173ffffffffffffffffffffffffffffffffffffffff1614158015612c3b57506000609e60008373ffffffffffffffffffffffffffffffffffffffff1673ffffffffffffffffffffffffffffffffffffffff16815260200190815260200160002054115b15612c9657609e60008273ffffffffffffffffffffffffffffffffffffffff1673ffffffffffffffffffffffffffffffffffffffff1681526020019081526020016000206000815480929190612c9090613bff565b91905055505b6000609f600086602001517bffffffffffffffffffffffffffffffffffffffffffffffffffffffff19167bffffffffffffffffffffffffffffffffffffffffffffffffffffffff19168152602001908152602001600020541115612d6057609f600085602001517bffffffffffffffffffffffffffffffffffffffffffffffffffffffff19167bffffffffffffffffffffffffffffffffffffffffffffffffffffffff191681526020019081526020016000206000815480929190612d5a90613bff565b91905055505b600060a0541115612d845760a06000815480929190612d7e90613bff565b91905055505b5050505050565b6000808273ffffffffffffffffffffffffffffffffffffffff163b119050919050565b600060019054906101000a900460ff16612dfd576040517f08c379a0000000000000000000000000000000000000000000000000000000008152600401612df490613ed3565b60405180910390fd5b565b612e098282611625565b612e8057612e1681612e84565b612e248360001c6020612eb1565b604051602001612e35929190613ffc565b6040516020818303038152906040526040517f08c379a0000000000000000000000000000000000000000000000000000000008152600401612e77919061406f565b60405180910390fd5b5050565b6060612eaa8273ffffffffffffffffffffffffffffffffffffffff16601460ff16612eb1565b9050919050565b606060006002836002612ec49190614091565b612ece91906140d3565b67ffffffffffffffff811115612ee757612ee661383f565b5b6040519080825280601f01601f191660200182016040528015612f195781602001600182028036833780820191505090505b5090507f300000000000000000000000000000000000000000000000000000000000000081600081518110612f5157612f50613b59565b5b60200101907effffffffffffffffffffffffffffffffffffffffffffffffffffffffffffff1916908160001a9053507f780000000000000000000000000000000000000000000000000000000000000081600181518110612fb557612fb4613b59565b5b60200101907effffffffffffffffffffffffffffffffffffffffffffffffffffffffffffff1916908160001a90535060006001846002612ff59190614091565b612fff91906140d3565b90505b600181111561309f577f3031323334353637383961626364656600000000000000000000000000000000600f86166010811061304157613040613b59565b5b1a60f81b82828151811061305857613057613b59565b5b60200101907effffffffffffffffffffffffffffffffffffffffffffffffffffffffffffff1916908160001a905350600485901c94508061309890613bff565b9050613002565b50600084146130e3576040517f08c379a00000000000000000000000000000000000000000000000000000000081526004016130da90614153565b60405180910390fd5b8091505092915050565b6000604051905090565b600080fd5b60007fffffffff0000000000000000000000000000000000000000000000000000000082169050919050565b613131816130fc565b811461313c57600080fd5b50565b60008135905061314e81613128565b92915050565b60006020828403121561316a576131696130f7565b5b60006131788482850161313f565b91505092915050565b60008115159050919050565b61319681613181565b82525050565b60006020820190506131b1600083018461318d565b92915050565b6000819050919050565b6131ca816131b7565b82525050565b60006020820190506131e560008301846131c1565b92915050565b6131f4816131b7565b81146131ff57600080fd5b50565b600081359050613211816131eb565b92915050565b60006020828403121561322d5761322c6130f7565b5b600061323b84828501613202565b91505092915050565b7f4e487b7100000000000000000000000000000000000000000000000000000000600052602160045260246000fd5b6005811061328457613283613244565b5b50565b600081905061329582613273565b919050565b60006132a582613287565b9050919050565b6132b58161329a565b82525050565b60006020820190506132d060008301846132ac565b92915050565b600073ffffffffffffffffffffffffffffffffffffffff82169050919050565b6000613301826132d6565b9050919050565b613311816132f6565b811461331c57600080fd5b50565b60008135905061332e81613308565b92915050565b60006020828403121561334a576133496130f7565b5b60006133588482850161331f565b91505092915050565b6000819050919050565b600061338661338161337c846132d6565b613361565b6132d6565b9050919050565b60006133988261336b565b9050919050565b60006133aa8261338d565b9050919050565b6133ba8161339f565b82525050565b60006020820190506133d560008301846133b1565b92915050565b60006133e68261338d565b9050919050565b6133f6816133db565b82525050565b600060208201905061341160008301846133ed565b92915050565b6000819050919050565b61342a81613417565b82525050565b60006020820190506134456000830184613421565b92915050565b6000613456826132d6565b9050919050565b6134668161344b565b811461347157600080fd5b50565b6000813590506134838161345d565b92915050565b600080604083850312156134a05761349f6130f7565b5b60006134ae85828601613202565b92505060206134bf85828601613474565b9150509250929050565b6134d281613417565b81146134dd57600080fd5b50565b6000813590506134ef816134c9565b92915050565b6000806040838503121561350c5761350b6130f7565b5b600061351a8582860161313f565b925050602061352b858286016134e0565b9150509250929050565b600081519050919050565b600082825260208201905092915050565b6000819050602082019050919050565b61356a816131b7565b82525050565b600061357c8383613561565b60208301905092915050565b6000602082019050919050565b60006135a082613535565b6135aa8185613540565b93506135b583613551565b8060005b838110156135e65781516135cd8882613570565b97506135d883613588565b9250506001810190506135b9565b5085935050505092915050565b6000602082019050818103600083015261360d8184613595565b905092915050565b60006020828403121561362b5761362a6130f7565b5b600061363984828501613474565b91505092915050565b600061364d8261336b565b9050919050565b600061365f82613642565b9050919050565b61366f81613654565b82525050565b600060208201905061368a6000830184613666565b92915050565b600061369b8261338d565b9050919050565b6136ab81613690565b82525050565b60006020820190506136c660008301846136a2565b92915050565b60006040820190506136e160008301856131c1565b6136ee60208301846131c1565b9392505050565b6000806040838503121561370c5761370b6130f7565b5b600061371a85828601613474565b925050602061372b858286016134e0565b9150509250929050565b61373e816130fc565b82525050565b600063ffffffff82169050919050565b61375d81613744565b82525050565b61376c8161344b565b82525050565b600061014082019050613788600083018d613735565b613795602083018c613735565b6137a2604083018b613754565b6137af606083018a6131c1565b6137bc6080830189613421565b6137c960a0830188613763565b6137d660c0830187613421565b6137e360e0830186613754565b6137f1610100830185613763565b6137ff610120830184613421565b9b9a5050505050505050505050565b60006020820190506138236000830184613763565b92915050565b600080fd5b6000601f19601f8301169050919050565b7f4e487b7100000000000000000000000000000000000000000000000000000000600052604160045260246000fd5b6138778261382e565b810181811067ffffffffffffffff821117156138965761389561383f565b5b80604052505050565b60006138a96130ed565b90506138b5828261386e565b919050565b6138c381613744565b81146138ce57600080fd5b50565b6000813590506138e0816138ba565b92915050565b600061014082840312156138fd576138fc613829565b5b61390861014061389f565b905060006139188482850161313f565b600083015250602061392c8482850161313f565b6020830152506040613940848285016138d1565b604083015250606061395484828501613202565b6060830152506080613968848285016134e0565b60808301525060a061397c84828501613474565b60a08301525060c0613990848285016134e0565b60c08301525060e06139a4848285016138d1565b60e0830152506101006139b984828501613474565b610100830152506101206139cf848285016134e0565b6101208301525092915050565b60008061016083850312156139f4576139f36130f7565b5b6000613a0285828601613202565b9250506020613a13858286016138e6565b9150509250929050565b600060208284031215613a3357613a326130f7565b5b6000613a41848285016134e0565b91505092915050565b600082825260208201905092915050565b7f4f42310000000000000000000000000000000000000000000000000000000000600082015250565b6000613a91600383613a4a565b9150613a9c82613a5b565b602082019050919050565b60006020820190508181036000830152613ac081613a84565b9050919050565b7f416363657373436f6e74726f6c3a2063616e206f6e6c792072656e6f756e636560008201527f20726f6c657320666f722073656c660000000000000000000000000000000000602082015250565b6000613b23602f83613a4a565b9150613b2e82613ac7565b604082019050919050565b60006020820190508181036000830152613b5281613b16565b9050919050565b7f4e487b7100000000000000000000000000000000000000000000000000000000600052603260045260246000fd5b7f4e487b7100000000000000000000000000000000000000000000000000000000600052601160045260246000fd5b6000613bc282613417565b91507fffffffffffffffffffffffffffffffffffffffffffffffffffffffffffffffff8203613bf457613bf3613b88565b5b600182019050919050565b6000613c0a82613417565b915060008203613c1d57613c1c613b88565b5b600182039050919050565b7f4f42350000000000000000000000000000000000000000000000000000000000600082015250565b6000613c5e600383613a4a565b9150613c6982613c28565b602082019050919050565b60006020820190508181036000830152613c8d81613c51565b9050919050565b7f4f42370000000000000000000000000000000000000000000000000000000000600082015250565b6000613cca600383613a4a565b9150613cd582613c94565b602082019050919050565b60006020820190508181036000830152613cf981613cbd565b9050919050565b7f4f42360000000000000000000000000000000000000000000000000000000000600082015250565b6000613d36600383613a4a565b9150613d4182613d00565b602082019050919050565b60006020820190508181036000830152613d6581613d29565b9050919050565b7f496e697469616c697a61626c653a20636f6e747261637420697320616c72656160008201527f647920696e697469616c697a6564000000000000000000000000000000000000602082015250565b6000613dc8602e83613a4a565b9150613dd382613d6c565b604082019050919050565b60006020820190508181036000830152613df781613dbb565b9050919050565b6000819050919050565b600060ff82169050919050565b6000613e30613e2b613e2684613dfe565b613361565b613e08565b9050919050565b613e4081613e15565b82525050565b6000602082019050613e5b6000830184613e37565b92915050565b7f496e697469616c697a61626c653a20636f6e7472616374206973206e6f74206960008201527f6e697469616c697a696e67000000000000000000000000000000000000000000602082015250565b6000613ebd602b83613a4a565b9150613ec882613e61565b604082019050919050565b60006020820190508181036000830152613eec81613eb0565b9050919050565b600081905092915050565b7f416363657373436f6e74726f6c3a206163636f756e7420000000000000000000600082015250565b6000613f34601783613ef3565b9150613f3f82613efe565b601782019050919050565b600081519050919050565b60005b83811015613f73578082015181840152602081019050613f58565b60008484015250505050565b6000613f8a82613f4a565b613f948185613ef3565b9350613fa4818560208601613f55565b80840191505092915050565b7f206973206d697373696e6720726f6c6520000000000000000000000000000000600082015250565b6000613fe6601183613ef3565b9150613ff182613fb0565b601182019050919050565b600061400782613f27565b91506140138285613f7f565b915061401e82613fd9565b915061402a8284613f7f565b91508190509392505050565b600061404182613f4a565b61404b8185613a4a565b935061405b818560208601613f55565b6140648161382e565b840191505092915050565b600060208201905081810360008301526140898184614036565b905092915050565b600061409c82613417565b91506140a783613417565b92508282026140b581613417565b915082820484148315176140cc576140cb613b88565b5b5092915050565b60006140de82613417565b91506140e983613417565b925082820190508082111561410157614100613b88565b5b92915050565b7f537472696e67733a20686578206c656e67746820696e73756666696369656e74600082015250565b600061413d602083613a4a565b915061414882614107565b602082019050919050565b6000602082019050818103600083015261416c81614130565b905091905056fea26469706673582212203789afff79e2a560ab9fd7beb8a8a6c30a18d091fae80bbf21e32f4b0af038ef64736f6c63430008180033",
  "linkReferences": {},
  "deployedLinkReferences": {}
}