{
  "_format": "hh-sol-artifact-1",
  "contractName": "FaultProof",
  "sourceName": "contracts/faultProof.sol",
  "abi": [
    {
      "inputs": [],
      "stateMutability": "nonpayable",
      "type": "constructor"
    },
    {
      "anonymous": false,
      "inputs": [
        {
          "indexed": false,
          "internalType": "bytes32",
          "name": "orderId",
          "type": "bytes32"
        },
        {
          "indexed": false,
          "internalType": "bytes4",
          "name": "chainId",
          "type": "bytes4"
        },
        {
          "indexed": false,
          "internalType": "bytes",
          "name": "proof",
          "type": "bytes"
        }
      ],
      "name": "CorrectnessConfirmed",
      "type": "event"
    },
    {
      "anonymous": false,
      "inputs": [
        {
          "indexed": false,
          "internalType": "bytes32",
          "name": "orderId",
          "type": "bytes32"
        },
        {
          "indexed": false,
          "internalType": "bytes4",
          "name": "chainId",
          "type": "bytes4"
        },
        {
          "indexed": false,
          "internalType": "address",
          "name": "beneficiary",
          "type": "address"
        },
        {
          "indexed": false,
          "internalType": "uint256",
          "name": "claimableAmountInNative",
          "type": "uint256"
        },
        {
          "indexed": false,
          "internalType": "uint256",
          "name": "amount",
          "type": "uint256"
        }
      ],
      "name": "FaultProofClaimed",
      "type": "event"
    },
    {
      "anonymous": false,
      "inputs": [
        {
          "indexed": false,
          "internalType": "uint8",
          "name": "version",
          "type": "uint8"
        }
      ],
      "name": "Initialized",
      "type": "event"
    },
    {
      "anonymous": false,
      "inputs": [
        {
          "indexed": true,
          "internalType": "bytes32",
          "name": "role",
          "type": "bytes32"
        },
        {
          "indexed": true,
          "internalType": "bytes32",
          "name": "previousAdminRole",
          "type": "bytes32"
        },
        {
          "indexed": true,
          "internalType": "bytes32",
          "name": "newAdminRole",
          "type": "bytes32"
        }
      ],
      "name": "RoleAdminChanged",
      "type": "event"
    },
    {
      "anonymous": false,
      "inputs": [
        {
          "indexed": true,
          "internalType": "bytes32",
          "name": "role",
          "type": "bytes32"
        },
        {
          "indexed": true,
          "internalType": "address",
          "name": "account",
          "type": "address"
        },
        {
          "indexed": true,
          "internalType": "address",
          "name": "sender",
          "type": "address"
        }
      ],
      "name": "RoleGranted",
      "type": "event"
    },
    {
      "anonymous": false,
      "inputs": [
        {
          "indexed": true,
          "internalType": "bytes32",
          "name": "role",
          "type": "bytes32"
        },
        {
          "indexed": true,
          "internalType": "address",
          "name": "account",
          "type": "address"
        },
        {
          "indexed": true,
          "internalType": "address",
          "name": "sender",
          "type": "address"
        }
      ],
      "name": "RoleRevoked",
      "type": "event"
    },
    {
      "inputs": [],
      "name": "DEFAULT_ADMIN_ROLE",
      "outputs": [
        {
          "internalType": "bytes32",
          "name": "",
          "type": "bytes32"
        }
      ],
      "stateMutability": "view",
      "type": "function"
    },
    {
      "inputs": [],
      "name": "attestersPortal",
      "outputs": [
        {
          "internalType": "contract AttestersPortal",
          "name": "",
          "type": "address"
        }
      ],
      "stateMutability": "view",
      "type": "function"
    },
    {
      "inputs": [],
      "name": "attestersStaking",
      "outputs": [
        {
          "internalType": "contract AttestersStaking",
          "name": "",
          "type": "address"
        }
      ],
      "stateMutability": "view",
      "type": "function"
    },
    {
      "inputs": [],
      "name": "batchMaker",
      "outputs": [
        {
          "internalType": "contract AttestationBatchMaker",
          "name": "",
          "type": "address"
        }
      ],
      "stateMutability": "view",
      "type": "function"
    },
    {
      "inputs": [],
      "name": "biddingBook",
      "outputs": [
        {
          "internalType": "contract BiddingBook",
          "name": "",
          "type": "address"
        }
      ],
      "stateMutability": "view",
      "type": "function"
    },
    {
      "inputs": [
        {
          "internalType": "bytes32",
          "name": "orderId",
          "type": "bytes32"
        },
        {
          "internalType": "bytes4",
          "name": "destinationChainId",
          "type": "bytes4"
        },
        {
          "internalType": "bytes32",
          "name": "headerId",
          "type": "bytes32"
        },
        {
          "internalType": "bytes32",
          "name": "executionReceiptLeafHash",
          "type": "bytes32"
        },
        {
          "internalType": "bytes32[]",
          "name": "proof",
          "type": "bytes32[]"
        }
      ],
      "name": "claimFaultProof",
      "outputs": [],
      "stateMutability": "nonpayable",
      "type": "function"
    },
    {
      "inputs": [],
      "name": "confirmationBook",
      "outputs": [
        {
          "internalType": "contract ConfirmationBook",
          "name": "",
          "type": "address"
        }
      ],
      "stateMutability": "view",
      "type": "function"
    },
    {
      "inputs": [
        {
          "internalType": "bytes32",
          "name": "_orderId",
          "type": "bytes32"
        },
        {
          "internalType": "bytes",
          "name": "payload",
          "type": "bytes"
        }
      ],
      "name": "deriveCommittedBeneficiaryOfGMPPayload",
      "outputs": [
        {
          "internalType": "address",
          "name": "",
          "type": "address"
        }
      ],
      "stateMutability": "view",
      "type": "function"
    },
    {
      "inputs": [
        {
          "internalType": "bytes4",
          "name": "_orderId",
          "type": "bytes4"
        },
        {
          "internalType": "bytes4",
          "name": "_chainId",
          "type": "bytes4"
        },
        {
          "internalType": "address",
          "name": "_beneficiary",
          "type": "address"
        }
      ],
      "name": "emergencyClaimFaultProof",
      "outputs": [],
      "stateMutability": "nonpayable",
      "type": "function"
    },
    {
      "inputs": [
        {
          "internalType": "uint32",
          "name": "assetId",
          "type": "uint32"
        },
        {
          "internalType": "uint256",
          "name": "amount",
          "type": "uint256"
        }
      ],
      "name": "getAssetAmountInNative",
      "outputs": [
        {
          "internalType": "uint256",
          "name": "",
          "type": "uint256"
        }
      ],
      "stateMutability": "view",
      "type": "function"
    },
    {
      "inputs": [
        {
          "internalType": "uint32",
          "name": "assetId",
          "type": "uint32"
        }
      ],
      "name": "getAssetPriceInNative",
      "outputs": [
        {
          "internalType": "uint256",
          "name": "",
          "type": "uint256"
        }
      ],
      "stateMutability": "view",
      "type": "function"
    },
    {
      "inputs": [
        {
          "internalType": "uint32",
          "name": "assetId",
          "type": "uint32"
        },
        {
          "internalType": "uint256",
          "name": "amount",
          "type": "uint256"
        }
      ],
      "name": "getClaimableAmountInNative",
      "outputs": [
        {
          "internalType": "uint256",
          "name": "",
          "type": "uint256"
        }
      ],
      "stateMutability": "view",
      "type": "function"
    },
    {
      "inputs": [],
      "name": "getNativeAssetId",
      "outputs": [
        {
          "internalType": "uint32",
          "name": "",
          "type": "uint32"
        }
      ],
      "stateMutability": "view",
      "type": "function"
    },
    {
      "inputs": [
        {
          "internalType": "bytes32",
          "name": "role",
          "type": "bytes32"
        }
      ],
      "name": "getRoleAdmin",
      "outputs": [
        {
          "internalType": "bytes32",
          "name": "",
          "type": "bytes32"
        }
      ],
      "stateMutability": "view",
      "type": "function"
    },
    {
      "inputs": [
        {
          "internalType": "bytes32",
          "name": "role",
          "type": "bytes32"
        },
        {
          "internalType": "address",
          "name": "account",
          "type": "address"
        }
      ],
      "name": "grantRole",
      "outputs": [],
      "stateMutability": "nonpayable",
      "type": "function"
    },
    {
      "inputs": [
        {
          "internalType": "bytes32",
          "name": "role",
          "type": "bytes32"
        },
        {
          "internalType": "address",
          "name": "account",
          "type": "address"
        }
      ],
      "name": "hasRole",
      "outputs": [
        {
          "internalType": "bool",
          "name": "",
          "type": "bool"
        }
      ],
      "stateMutability": "view",
      "type": "function"
    },
    {
      "inputs": [
        {
          "internalType": "address",
          "name": "_owner",
          "type": "address"
        }
      ],
      "name": "initialize",
      "outputs": [],
      "stateMutability": "nonpayable",
      "type": "function"
    },
    {
      "inputs": [],
      "name": "insuranceMultiplier",
      "outputs": [
        {
          "internalType": "uint256",
          "name": "",
          "type": "uint256"
        }
      ],
      "stateMutability": "view",
      "type": "function"
    },
    {
      "inputs": [],
      "name": "isConfirmationBookBased",
      "outputs": [
        {
          "internalType": "bool",
          "name": "",
          "type": "bool"
        }
      ],
      "stateMutability": "view",
      "type": "function"
    },
    {
      "inputs": [],
      "name": "isLightClientBased",
      "outputs": [
        {
          "internalType": "bool",
          "name": "",
          "type": "bool"
        }
      ],
      "stateMutability": "view",
      "type": "function"
    },
    {
      "inputs": [],
      "name": "isOn",
      "outputs": [
        {
          "internalType": "bool",
          "name": "",
          "type": "bool"
        }
      ],
      "stateMutability": "view",
      "type": "function"
    },
    {
      "inputs": [],
      "name": "l3LightClient",
      "outputs": [
        {
          "internalType": "contract L3LightClient",
          "name": "",
          "type": "address"
        }
      ],
      "stateMutability": "view",
      "type": "function"
    },
    {
      "inputs": [],
      "name": "nativeAssetId",
      "outputs": [
        {
          "internalType": "uint32",
          "name": "",
          "type": "uint32"
        }
      ],
      "stateMutability": "view",
      "type": "function"
    },
    {
      "inputs": [],
      "name": "openMarketPrice",
      "outputs": [
        {
          "internalType": "contract OpenMarketPricer",
          "name": "",
          "type": "address"
        }
      ],
      "stateMutability": "view",
      "type": "function"
    },
    {
      "inputs": [],
      "name": "orderBook",
      "outputs": [
        {
          "internalType": "contract OrderBook",
          "name": "",
          "type": "address"
        }
      ],
      "stateMutability": "view",
      "type": "function"
    },
    {
      "inputs": [
        {
          "internalType": "bytes32",
          "name": "role",
          "type": "bytes32"
        },
        {
          "internalType": "address",
          "name": "account",
          "type": "address"
        }
      ],
      "name": "renounceRole",
      "outputs": [],
      "stateMutability": "nonpayable",
      "type": "function"
    },
    {
      "inputs": [
        {
          "internalType": "bytes32",
          "name": "role",
          "type": "bytes32"
        },
        {
          "internalType": "address",
          "name": "account",
          "type": "address"
        }
      ],
      "name": "revokeRole",
      "outputs": [],
      "stateMutability": "nonpayable",
      "type": "function"
    },
    {
      "inputs": [
        {
          "internalType": "address payable",
          "name": "_attestersPortal",
          "type": "address"
        }
      ],
      "name": "setAttestersPortal",
      "outputs": [],
      "stateMutability": "nonpayable",
      "type": "function"
    },
    {
      "inputs": [
        {
          "internalType": "address payable",
          "name": "_attestersStaking",
          "type": "address"
        }
      ],
      "name": "setAttestersStaking",
      "outputs": [],
      "stateMutability": "nonpayable",
      "type": "function"
    },
    {
      "inputs": [
        {
          "internalType": "address payable",
          "name": "_batchMaker",
          "type": "address"
        }
      ],
      "name": "setBatchMaker",
      "outputs": [],
      "stateMutability": "nonpayable",
      "type": "function"
    },
    {
      "inputs": [
        {
          "internalType": "address payable",
          "name": "_biddingBook",
          "type": "address"
        }
      ],
      "name": "setBiddingBook",
      "outputs": [],
      "stateMutability": "nonpayable",
      "type": "function"
    },
    {
      "inputs": [
        {
          "internalType": "address payable",
          "name": "_confirmationBook",
          "type": "address"
        }
      ],
      "name": "setConfirmationBook",
      "outputs": [],
      "stateMutability": "nonpayable",
      "type": "function"
    },
    {
      "inputs": [],
      "name": "setConfirmationBookBased",
      "outputs": [],
      "stateMutability": "nonpayable",
      "type": "function"
    },
    {
      "inputs": [
        {
          "internalType": "uint256",
          "name": "_insuranceMultiplier",
          "type": "uint256"
        }
      ],
      "name": "setInsuranceMultiplier",
      "outputs": [],
      "stateMutability": "nonpayable",
      "type": "function"
    },
    {
      "inputs": [
        {
          "internalType": "address payable",
          "name": "_l3LightClient",
          "type": "address"
        }
      ],
      "name": "setL3LightClient",
      "outputs": [],
      "stateMutability": "nonpayable",
      "type": "function"
    },
    {
      "inputs": [],
      "name": "setLightClientBased",
      "outputs": [],
      "stateMutability": "nonpayable",
      "type": "function"
    },
    {
      "inputs": [
        {
          "internalType": "uint32",
          "name": "_nativeAssetId",
          "type": "uint32"
        }
      ],
      "name": "setNativeAssetId",
      "outputs": [],
      "stateMutability": "nonpayable",
      "type": "function"
    },
    {
      "inputs": [
        {
          "internalType": "address payable",
          "name": "_openMarketPrice",
          "type": "address"
        }
      ],
      "name": "setOpenMarketPrice",
      "outputs": [],
      "stateMutability": "nonpayable",
      "type": "function"
    },
    {
      "inputs": [
        {
          "internalType": "address payable",
          "name": "_orderBook",
          "type": "address"
        }
      ],
      "name": "setOrderBook",
      "outputs": [],
      "stateMutability": "nonpayable",
      "type": "function"
    },
    {
      "inputs": [
        {
          "internalType": "bytes32",
          "name": "_version",
          "type": "bytes32"
        }
      ],
      "name": "setVersion",
      "outputs": [],
      "stateMutability": "nonpayable",
      "type": "function"
    },
    {
      "inputs": [
        {
          "internalType": "bytes4",
          "name": "interfaceId",
          "type": "bytes4"
        }
      ],
      "name": "supportsInterface",
      "outputs": [
        {
          "internalType": "bool",
          "name": "",
          "type": "bool"
        }
      ],
      "stateMutability": "view",
      "type": "function"
    },
    {
      "inputs": [],
      "name": "turnOff",
      "outputs": [],
      "stateMutability": "nonpayable",
      "type": "function"
    },
    {
      "inputs": [],
      "name": "turnOn",
      "outputs": [],
      "stateMutability": "nonpayable",
      "type": "function"
    },
    {
      "inputs": [
        {
          "internalType": "bytes32",
          "name": "orderId",
          "type": "bytes32"
        },
        {
          "internalType": "address",
          "name": "_sender",
          "type": "address"
        }
      ],
      "name": "verifyFaultProofValidityAgainstConfirmationBook",
      "outputs": [
        {
          "internalType": "bool",
          "name": "",
          "type": "bool"
        }
      ],
      "stateMutability": "view",
      "type": "function"
    },
    {
      "inputs": [],
      "name": "version",
      "outputs": [
        {
          "internalType": "bytes32",
          "name": "",
          "type": "bytes32"
        }
      ],
      "stateMutability": "view",
      "type": "function"
    }
  ],
  "bytecode": "0x60806040523480156200001157600080fd5b50620000226200002860201b60201c565b620001d2565b600060019054906101000a900460ff16156200007b576040517f08c379a0000000000000000000000000000000000000000000000000000000008152600401620000729062000175565b60405180910390fd5b60ff801660008054906101000a900460ff1660ff1614620000ec5760ff6000806101000a81548160ff021916908360ff1602179055507f7f26b83ff96e1f2b6a682f133852f6798a09c465da95921460cefb384740249860ff604051620000e39190620001b5565b60405180910390a15b565b600082825260208201905092915050565b7f496e697469616c697a61626c653a20636f6e747261637420697320696e69746960008201527f616c697a696e6700000000000000000000000000000000000000000000000000602082015250565b60006200015d602783620000ee565b91506200016a82620000ff565b604082019050919050565b6000602082019050818103600083015262000190816200014e565b9050919050565b600060ff82169050919050565b620001af8162000197565b82525050565b6000602082019050620001cc6000830184620001a4565b92915050565b614c9180620001e26000396000f3fe608060405234801561001057600080fd5b506004361061027f5760003560e01c806387820f731161015c578063bb34d329116100ce578063d547741f11610087578063d547741f1461073a578063eb2642cf14610756578063ed8bc5b514610774578063f16cbc2914610790578063f55deae5146107ac578063f5f96186146107ca5761027f565b8063bb34d3291461067e578063c03edd0e1461069a578063c2c4760a146106b6578063c4d66de8146106e6578063ca5f81b514610702578063d03685cb1461071e5761027f565b8063a217fddf11610120578063a217fddf14610606578063aafcde8414610624578063af10c81014610642578063aff80d871461064c578063ba33ed7d14610656578063ba6c9d59146106605761027f565b806387820f73146105645780638aeb8cf61461058057806391d148541461059e5780639836d65b146105ce5780639a1598c8146105ea5761027f565b80633aac5d3d116101f557806360532edb116101b957806360532edb146104a2578063621ccaf4146104c05780636eb36afd146104de57806376b88285146104fa578063776af5ba1461052a5780637834f9d7146105485761027f565b80633aac5d3d146103ea5780633bf94ee114610408578063409e16aa1461043857806354fd4d50146104545780635c348d67146104725761027f565b8063296b1cf811610247578063296b1cf81461034e5780632aa8269e1461036c5780632d1f31a01461038a5780632f2ff15d1461039457806336568abe146103b05780633a05f9cc146103cc5761027f565b806301ffc9a71461028457806314046c92146102b4578063175bbecf146102e45780631c6da63914610302578063248a9ca31461031e575b600080fd5b61029e60048036038101906102999190612d96565b6107e8565b6040516102ab9190612dde565b60405180910390f35b6102ce60048036038101906102c99190612e6b565b610862565b6040516102db9190612eba565b60405180910390f35b6102ec610898565b6040516102f99190612dde565b60405180910390f35b61031c60048036038101906103179190612f33565b6108ab565b005b61033860048036038101906103339190612fbc565b610926565b6040516103459190612ff8565b60405180910390f35b610356610946565b6040516103639190613072565b60405180910390f35b61037461096c565b60405161038191906130ae565b60405180910390f35b610392610992565b005b6103ae60048036038101906103a991906130c9565b610a16565b005b6103ca60048036038101906103c591906130c9565b610a37565b005b6103d4610aba565b6040516103e19190612dde565b60405180910390f35b6103f2610acd565b6040516103ff919061313c565b60405180910390f35b610422600480360381019061041d91906130c9565b610af3565b60405161042f9190612dde565b60405180910390f35b610452600480360381019061044d9190613195565b610f7e565b005b61045c61100e565b6040516104699190612ff8565b60405180910390f35b61048c60048036038101906104879190612e6b565b611014565b6040516104999190612eba565b60405180910390f35b6104aa611035565b6040516104b791906131e3565b60405180910390f35b6104c861105b565b6040516104d5919061321f565b60405180910390f35b6104f860048036038101906104f39190613195565b611081565b005b610514600480360381019061050f919061329f565b611111565b604051610521919061330e565b60405180910390f35b610532611374565b60405161053f919061334a565b60405180910390f35b610562600480360381019061055d9190613365565b61139a565b005b61057e600480360381019061057991906134e1565b61140a565b005b6105886115b6565b6040516105959190613599565b60405180910390f35b6105b860048036038101906105b391906130c9565b6115dc565b6040516105c59190612dde565b60405180910390f35b6105e860048036038101906105e39190613195565b611647565b005b61060460048036038101906105ff9190613195565b6116d7565b005b61060e611767565b60405161061b9190612ff8565b60405180910390f35b61062c61176e565b60405161063991906135c3565b60405180910390f35b61064a611784565b005b6106546117ed565b005b61065e611871565b005b6106686118da565b6040516106759190612eba565b60405180910390f35b610698600480360381019061069391906135de565b6118e0565b005b6106b460048036038101906106af9190613195565b611936565b005b6106d060048036038101906106cb9190613365565b6119c6565b6040516106dd9190612eba565b60405180910390f35b61070060048036038101906106fb919061360b565b611b14565b005b61071c60048036038101906107179190612fbc565b611c68565b005b61073860048036038101906107339190613195565b611cbe565b005b610754600480360381019061074f91906130c9565b611d4e565b005b61075e611d6f565b60405161076b9190612dde565b60405180910390f35b61078e60048036038101906107899190613195565b611d82565b005b6107aa60048036038101906107a59190613195565b611e12565b005b6107b4611ea2565b6040516107c19190613659565b60405180910390f35b6107d2611ec8565b6040516107df91906135c3565b60405180910390f35b60007f7965db0b000000000000000000000000000000000000000000000000000000007bffffffffffffffffffffffffffffffffffffffffffffffffffffffff1916827bffffffffffffffffffffffffffffffffffffffffffffffffffffffff1916148061085b575061085a82611ee2565b5b9050919050565b60008061086e846119c6565b9050670de0b6b3a7640000818461088591906136a3565b61088f9190613714565b91505092915050565b609e60189054906101000a900460ff1681565b6108b86000801b336115dc565b6108f7576040517f08c379a00000000000000000000000000000000000000000000000000000000081526004016108ee906137c8565b60405180910390fd5b610921837bffffffffffffffffffffffffffffffffffffffffffffffffffffffff19168383611f4c565b505050565b600060656000838152602001908152602001600020600101549050919050565b609a60009054906101000a900473ffffffffffffffffffffffffffffffffffffffff1681565b609960009054906101000a900473ffffffffffffffffffffffffffffffffffffffff1681565b61099f6000801b336115dc565b6109de576040517f08c379a00000000000000000000000000000000000000000000000000000000081526004016109d5906137c8565b60405180910390fd5b6001609e60196101000a81548160ff0219169083151502179055506000609e601a6101000a81548160ff021916908315150217905550565b610a1f82610926565b610a28816121af565b610a3283836121c3565b505050565b610a3f6122a4565b73ffffffffffffffffffffffffffffffffffffffff168173ffffffffffffffffffffffffffffffffffffffff1614610aac576040517f08c379a0000000000000000000000000000000000000000000000000000000008152600401610aa39061385a565b60405180910390fd5b610ab682826122ac565b5050565b609e60199054906101000a900460ff1681565b609e60009054906101000a900473ffffffffffffffffffffffffffffffffffffffff1681565b6000806000609860009054906101000a900473ffffffffffffffffffffffffffffffffffffffff1673ffffffffffffffffffffffffffffffffffffffff16635778472a866040518263ffffffff1660e01b8152600401610b539190612ff8565b61016060405180830381865afa158015610b71573d6000803e3d6000fd5b505050506040513d601f19601f82011682018060405250810190610b9591906139e3565b915091506000609a60009054906101000a900473ffffffffffffffffffffffffffffffffffffffff1673ffffffffffffffffffffffffffffffffffffffff166311c8305c8460000151888660600151876080015188604001518b6040518763ffffffff1660e01b8152600401610c1096959493929190613a34565b602060405180830381865afa158015610c2d573d6000803e3d6000fd5b505050506040513d601f19601f82011682018060405250810190610c519190613a95565b90506000609a60009054906101000a900473ffffffffffffffffffffffffffffffffffffffff1673ffffffffffffffffffffffffffffffffffffffff1663ec95bfe7836040518263ffffffff1660e01b8152600401610cb09190612ff8565b602060405180830381865afa158015610ccd573d6000803e3d6000fd5b505050506040513d601f19601f82011682018060405250810190610cf19190613ac2565b03610d025760009350505050610f78565b6000609a60009054906101000a900473ffffffffffffffffffffffffffffffffffffffff1673ffffffffffffffffffffffffffffffffffffffff16636fb05db5886040518263ffffffff1660e01b8152600401610d5f9190612ff8565b602060405180830381865afa158015610d7c573d6000803e3d6000fd5b505050506040513d601f19601f82011682018060405250810190610da09190613a95565b90506000801b8103610db9576000945050505050610f78565b6000609b60009054906101000a900473ffffffffffffffffffffffffffffffffffffffff1673ffffffffffffffffffffffffffffffffffffffff1663248d9151836040518263ffffffff1660e01b8152600401610e169190612ff8565b600060405180830381865afa158015610e33573d6000803e3d6000fd5b505050506040513d6000823e3d601f19601f82011682018060405250810190610e5c9190613bbf565b9050600081806020019051810190610e749190613dff565b905060003073ffffffffffffffffffffffffffffffffffffffff166376b882858b8460a001516040518363ffffffff1660e01b8152600401610eb7929190613e9d565b602060405180830381865afa158015610ed4573d6000803e3d6000fd5b505050506040513d601f19601f82011682018060405250810190610ef89190613ecd565b9050600073ffffffffffffffffffffffffffffffffffffffff168173ffffffffffffffffffffffffffffffffffffffff1603610f3e576000975050505050505050610f78565b8873ffffffffffffffffffffffffffffffffffffffff168173ffffffffffffffffffffffffffffffffffffffff1614159750505050505050505b92915050565b610f8b6000801b336115dc565b610fca576040517f08c379a0000000000000000000000000000000000000000000000000000000008152600401610fc1906137c8565b60405180910390fd5b80609960006101000a81548173ffffffffffffffffffffffffffffffffffffffff021916908373ffffffffffffffffffffffffffffffffffffffff16021790555050565b60a05481565b6000609f546110238484610862565b61102d91906136a3565b905092915050565b609760009054906101000a900473ffffffffffffffffffffffffffffffffffffffff1681565b609d60009054906101000a900473ffffffffffffffffffffffffffffffffffffffff1681565b61108e6000801b336115dc565b6110cd576040517f08c379a00000000000000000000000000000000000000000000000000000000081526004016110c4906137c8565b60405180910390fd5b80609a60006101000a81548173ffffffffffffffffffffffffffffffffffffffff021916908373ffffffffffffffffffffffffffffffffffffffff16021790555050565b6000808383905011611158576040517f08c379a000000000000000000000000000000000000000000000000000000000815260040161114f90613f46565b60405180910390fd5b60005b8383905081101561136757600084848381811061117b5761117a613f66565b5b9050013560f81c60f81b60f81c90506001826111979190613f95565b915060008160ff160361122f576000858584906020866111b79190613f95565b926111c493929190613fd3565b906111cf9190614026565b905086810361121a5785856020856111e79190613f95565b906034866111f59190613f95565b9261120293929190613fd3565b9061120d91906140b1565b60601c935050505061136d565b6034836112279190613f95565b925050611361565b60018160ff160361124e576020826112479190613f95565b9150611360565b60038160ff160361126d576068826112669190613f95565b915061135f565b60048160ff160361128c5760e0826112859190613f95565b915061135e565b60058160ff1603611322576000858584906020866112aa9190613f95565b926112b793929190613fd3565b906112c29190614026565b905086810361130d5785856020856112da9190613f95565b906034866112e89190613f95565b926112f593929190613fd3565b9061130091906140b1565b60601c935050505061136d565b60c88361131a9190613f95565b92505061135d565b6040517f08c379a00000000000000000000000000000000000000000000000000000000081526004016113549061415c565b60405180910390fd5b5b5b5b5b5061115b565b60009150505b9392505050565b609860009054906101000a900473ffffffffffffffffffffffffffffffffffffffff1681565b6113a76000801b336115dc565b6113e6576040517f08c379a00000000000000000000000000000000000000000000000000000000081526004016113dd906137c8565b60405180910390fd5b80609e60146101000a81548163ffffffff021916908363ffffffff16021790555050565b609e60199054906101000a900460ff161561150557609760009054906101000a900473ffffffffffffffffffffffffffffffffffffffff1673ffffffffffffffffffffffffffffffffffffffff166393d17128858584866040518563ffffffff1660e01b8152600401611480949392919061423a565b602060405180830381865afa15801561149d573d6000803e3d6000fd5b505050506040513d601f19601f820116820180604052508101906114c19190614286565b611500576040517f08c379a00000000000000000000000000000000000000000000000000000000081526004016114f7906142ff565b60405180910390fd5b6115a4565b609e601a9054906101000a900460ff1615611568576115248533610af3565b611563576040517f08c379a000000000000000000000000000000000000000000000000000000000815260040161155a90614391565b60405180910390fd5b6115a3565b6040517f08c379a000000000000000000000000000000000000000000000000000000000815260040161159a90614423565b60405180910390fd5b5b6115af858533611f4c565b5050505050565b609b60009054906101000a900473ffffffffffffffffffffffffffffffffffffffff1681565b60006065600084815260200190815260200160002060000160008373ffffffffffffffffffffffffffffffffffffffff1673ffffffffffffffffffffffffffffffffffffffff16815260200190815260200160002060009054906101000a900460ff16905092915050565b6116546000801b336115dc565b611693576040517f08c379a000000000000000000000000000000000000000000000000000000000815260040161168a906137c8565b60405180910390fd5b80609c60006101000a81548173ffffffffffffffffffffffffffffffffffffffff021916908373ffffffffffffffffffffffffffffffffffffffff16021790555050565b6116e46000801b336115dc565b611723576040517f08c379a000000000000000000000000000000000000000000000000000000000815260040161171a906137c8565b60405180910390fd5b80609860006101000a81548173ffffffffffffffffffffffffffffffffffffffff021916908373ffffffffffffffffffffffffffffffffffffffff16021790555050565b6000801b81565b609e60149054906101000a900463ffffffff1681565b6117916000801b336115dc565b6117d0576040517f08c379a00000000000000000000000000000000000000000000000000000000081526004016117c7906137c8565b60405180910390fd5b6000609e60186101000a81548160ff021916908315150217905550565b6117fa6000801b336115dc565b611839576040517f08c379a0000000000000000000000000000000000000000000000000000000008152600401611830906137c8565b60405180910390fd5b6000609e60196101000a81548160ff0219169083151502179055506001609e601a6101000a81548160ff021916908315150217905550565b61187e6000801b336115dc565b6118bd576040517f08c379a00000000000000000000000000000000000000000000000000000000081526004016118b4906137c8565b60405180910390fd5b6001609e60186101000a81548160ff021916908315150217905550565b609f5481565b6118ed6000801b336115dc565b61192c576040517f08c379a0000000000000000000000000000000000000000000000000000000008152600401611923906137c8565b60405180910390fd5b80609f8190555050565b6119436000801b336115dc565b611982576040517f08c379a0000000000000000000000000000000000000000000000000000000008152600401611979906137c8565b60405180910390fd5b80609d60006101000a81548173ffffffffffffffffffffffffffffffffffffffff021916908373ffffffffffffffffffffffffffffffffffffffff16021790555050565b6000609e60149054906101000a900463ffffffff1663ffffffff168263ffffffff16036119fd57670de0b6b3a76400009050611b0f565b600073ffffffffffffffffffffffffffffffffffffffff16609c60009054906101000a900473ffffffffffffffffffffffffffffffffffffffff1673ffffffffffffffffffffffffffffffffffffffff1614611b0a57609c60009054906101000a900473ffffffffffffffffffffffffffffffffffffffff1673ffffffffffffffffffffffffffffffffffffffff1663afce54d183609e60149054906101000a900463ffffffff166040518363ffffffff1660e01b8152600401611ac2929190614443565b602060405180830381865afa158015611adf573d6000803e3d6000fd5b505050506040513d601f19601f82011682018060405250810190611b039190613ac2565b9050611b0f565b600090505b919050565b60008060019054906101000a900460ff16159050808015611b455750600160008054906101000a900460ff1660ff16105b80611b725750611b543061238e565b158015611b715750600160008054906101000a900460ff1660ff16145b5b611bb1576040517f08c379a0000000000000000000000000000000000000000000000000000000008152600401611ba8906144de565b60405180910390fd5b60016000806101000a81548160ff021916908360ff1602179055508015611bee576001600060016101000a81548160ff0219169083151502179055505b611bf66123b1565b611c036000801b836121c3565b6002609f819055508015611c645760008060016101000a81548160ff0219169083151502179055507f7f26b83ff96e1f2b6a682f133852f6798a09c465da95921460cefb38474024986001604051611c5b9190614546565b60405180910390a15b5050565b611c756000801b336115dc565b611cb4576040517f08c379a0000000000000000000000000000000000000000000000000000000008152600401611cab906137c8565b60405180910390fd5b8060a08190555050565b611ccb6000801b336115dc565b611d0a576040517f08c379a0000000000000000000000000000000000000000000000000000000008152600401611d01906137c8565b60405180910390fd5b80609e60006101000a81548173ffffffffffffffffffffffffffffffffffffffff021916908373ffffffffffffffffffffffffffffffffffffffff16021790555050565b611d5782610926565b611d60816121af565b611d6a83836122ac565b505050565b609e601a9054906101000a900460ff1681565b611d8f6000801b336115dc565b611dce576040517f08c379a0000000000000000000000000000000000000000000000000000000008152600401611dc5906137c8565b60405180910390fd5b80609760006101000a81548173ffffffffffffffffffffffffffffffffffffffff021916908373ffffffffffffffffffffffffffffffffffffffff16021790555050565b611e1f6000801b336115dc565b611e5e576040517f08c379a0000000000000000000000000000000000000000000000000000000008152600401611e55906137c8565b60405180910390fd5b80609b60006101000a81548173ffffffffffffffffffffffffffffffffffffffff021916908373ffffffffffffffffffffffffffffffffffffffff16021790555050565b609c60009054906101000a900473ffffffffffffffffffffffffffffffffffffffff1681565b6000609e60149054906101000a900463ffffffff16905090565b60007f01ffc9a7000000000000000000000000000000000000000000000000000000007bffffffffffffffffffffffffffffffffffffffffffffffffffffffff1916827bffffffffffffffffffffffffffffffffffffffffffffffffffffffff1916149050919050565b609e60189054906101000a900460ff16611f9b576040517f08c379a0000000000000000000000000000000000000000000000000000000008152600401611f92906145ad565b60405180910390fd5b600080600080609860009054906101000a900473ffffffffffffffffffffffffffffffffffffffff1673ffffffffffffffffffffffffffffffffffffffff1663fb4d3144886040518263ffffffff1660e01b8152600401611ffc9190612ff8565b61022060405180830381865afa15801561201a573d6000803e3d6000fd5b505050506040513d601f19601f8201168201806040525081019061203e9190614645565b50935093509350935080612087576040517f08c379a000000000000000000000000000000000000000000000000000000000815260040161207e90614711565b60405180910390fd5b8473ffffffffffffffffffffffffffffffffffffffff16826020015173ffffffffffffffffffffffffffffffffffffffff16146120f9576040517f08c379a00000000000000000000000000000000000000000000000000000000081526004016120f0906147a3565b60405180910390fd5b6000846040015190506000612112828760800151611014565b905060008111612157576040517f08c379a000000000000000000000000000000000000000000000000000000000815260040161214e9061480f565b60405180910390fd5b6121618188612402565b7fa955696e20fc53a82863fed96eaefd8ce35710eb1d10fc1aed5bf26c19af874c898989848a6080015160405161219c95949392919061482f565b60405180910390a1505050505050505050565b6121c0816121bb6122a4565b612a3c565b50565b6121cd82826115dc565b6122a05760016065600084815260200190815260200160002060000160008373ffffffffffffffffffffffffffffffffffffffff1673ffffffffffffffffffffffffffffffffffffffff16815260200190815260200160002060006101000a81548160ff0219169083151502179055506122456122a4565b73ffffffffffffffffffffffffffffffffffffffff168173ffffffffffffffffffffffffffffffffffffffff16837f2f8788117e7eff1d82e926ec794901d17c78024a50270940304540a733656f0d60405160405180910390a45b5050565b600033905090565b6122b682826115dc565b1561238a5760006065600084815260200190815260200160002060000160008373ffffffffffffffffffffffffffffffffffffffff1673ffffffffffffffffffffffffffffffffffffffff16815260200190815260200160002060006101000a81548160ff02191690831515021790555061232f6122a4565b73ffffffffffffffffffffffffffffffffffffffff168173ffffffffffffffffffffffffffffffffffffffff16837ff6391f5c32d9c69d2a47ea670b442974b53935d1edc7fd64eb21e047a839171b60405160405180910390a45b5050565b6000808273ffffffffffffffffffffffffffffffffffffffff163b119050919050565b600060019054906101000a900460ff16612400576040517f08c379a00000000000000000000000000000000000000000000000000000000081526004016123f7906148f4565b60405180910390fd5b565b6000609e60009054906101000a900473ffffffffffffffffffffffffffffffffffffffff1673ffffffffffffffffffffffffffffffffffffffff1663ad410f816040518163ffffffff1660e01b8152600401602060405180830381865afa158015612471573d6000803e3d6000fd5b505050506040513d601f19601f820116820180604052508101906124959190613ac2565b9050600081036124da576040517f08c379a00000000000000000000000000000000000000000000000000000000081526004016124d190614960565b60405180910390fd5b600081670de0b6b3a7640000856124f191906136a3565b6124fb9190613714565b90506000609e60009054906101000a900473ffffffffffffffffffffffffffffffffffffffff1673ffffffffffffffffffffffffffffffffffffffff1663484f657b6040518163ffffffff1660e01b8152600401600060405180830381865afa15801561256c573d6000803e3d6000fd5b505050506040513d6000823e3d601f19601f820116820180604052508101906125959190614980565b905060005b81518110156129a6576000609d60009054906101000a900473ffffffffffffffffffffffffffffffffffffffff1673ffffffffffffffffffffffffffffffffffffffff1663c0df90438484815181106125f6576125f5613f66565b5b60200260200101516040518263ffffffff1660e01b815260040161261a919061330e565b602060405180830381865afa158015612637573d6000803e3d6000fd5b505050506040513d601f19601f8201168201806040525081019061265b9190613ac2565b9050609d60009054906101000a900473ffffffffffffffffffffffffffffffffffffffff1673ffffffffffffffffffffffffffffffffffffffff1663f6b911bc8484815181106126ae576126ad613f66565b5b60200260200101518585815181106126c9576126c8613f66565b5b6020026020010151846040518463ffffffff1660e01b81526004016126f0939291906149c9565b600060405180830381600087803b15801561270a57600080fd5b505af115801561271e573d6000803e3d6000fd5b505050506000609d60009054906101000a900473ffffffffffffffffffffffffffffffffffffffff1673ffffffffffffffffffffffffffffffffffffffff1663fa086c0685858151811061277557612774613f66565b5b60200260200101516040518263ffffffff1660e01b8152600401612799919061330e565b600060405180830381865afa1580156127b6573d6000803e3d6000fd5b505050506040513d6000823e3d601f19601f820116820180604052508101906127df9190614980565b905060005b815181101561299857600082828151811061280257612801613f66565b5b60200260200101519050609d60009054906101000a900473ffffffffffffffffffffffffffffffffffffffff1673ffffffffffffffffffffffffffffffffffffffff1663f6b911bc87878151811061285d5761285c613f66565b5b602002602001015183670de0b6b3a76400008b609d60009054906101000a900473ffffffffffffffffffffffffffffffffffffffff1673ffffffffffffffffffffffffffffffffffffffff1663b4782cf58d8d815181106128c1576128c0613f66565b5b6020026020010151896040518363ffffffff1660e01b81526004016128e7929190614a00565b602060405180830381865afa158015612904573d6000803e3d6000fd5b505050506040513d601f19601f820116820180604052508101906129289190613ac2565b61293291906136a3565b61293c9190613714565b6040518463ffffffff1660e01b815260040161295a939291906149c9565b600060405180830381600087803b15801561297457600080fd5b505af1158015612988573d6000803e3d6000fd5b50505050508060010190506127e4565b50505080600101905061259a565b50609d60009054906101000a900473ffffffffffffffffffffffffffffffffffffffff1673ffffffffffffffffffffffffffffffffffffffff1662f714ce86866040518363ffffffff1660e01b8152600401612a03929190614a29565b600060405180830381600087803b158015612a1d57600080fd5b505af1158015612a31573d6000803e3d6000fd5b505050505050505050565b612a4682826115dc565b612abd57612a5381612ac1565b612a618360001c6020612aee565b604051602001612a72929190614b31565b6040516020818303038152906040526040517f08c379a0000000000000000000000000000000000000000000000000000000008152600401612ab49190614ba4565b60405180910390fd5b5050565b6060612ae78273ffffffffffffffffffffffffffffffffffffffff16601460ff16612aee565b9050919050565b606060006002836002612b0191906136a3565b612b0b9190613f95565b67ffffffffffffffff811115612b2457612b236133a3565b5b6040519080825280601f01601f191660200182016040528015612b565781602001600182028036833780820191505090505b5090507f300000000000000000000000000000000000000000000000000000000000000081600081518110612b8e57612b8d613f66565b5b60200101907effffffffffffffffffffffffffffffffffffffffffffffffffffffffffffff1916908160001a9053507f780000000000000000000000000000000000000000000000000000000000000081600181518110612bf257612bf1613f66565b5b60200101907effffffffffffffffffffffffffffffffffffffffffffffffffffffffffffff1916908160001a90535060006001846002612c3291906136a3565b612c3c9190613f95565b90505b6001811115612cdc577f3031323334353637383961626364656600000000000000000000000000000000600f861660108110612c7e57612c7d613f66565b5b1a60f81b828281518110612c9557612c94613f66565b5b60200101907effffffffffffffffffffffffffffffffffffffffffffffffffffffffffffff1916908160001a905350600485901c945080612cd590614bc6565b9050612c3f565b5060008414612d20576040517f08c379a0000000000000000000000000000000000000000000000000000000008152600401612d1790614c3b565b60405180910390fd5b8091505092915050565b6000604051905090565b600080fd5b600080fd5b60007fffffffff0000000000000000000000000000000000000000000000000000000082169050919050565b612d7381612d3e565b8114612d7e57600080fd5b50565b600081359050612d9081612d6a565b92915050565b600060208284031215612dac57612dab612d34565b5b6000612dba84828501612d81565b91505092915050565b60008115159050919050565b612dd881612dc3565b82525050565b6000602082019050612df36000830184612dcf565b92915050565b600063ffffffff82169050919050565b612e1281612df9565b8114612e1d57600080fd5b50565b600081359050612e2f81612e09565b92915050565b6000819050919050565b612e4881612e35565b8114612e5357600080fd5b50565b600081359050612e6581612e3f565b92915050565b60008060408385031215612e8257612e81612d34565b5b6000612e9085828601612e20565b9250506020612ea185828601612e56565b9150509250929050565b612eb481612e35565b82525050565b6000602082019050612ecf6000830184612eab565b92915050565b600073ffffffffffffffffffffffffffffffffffffffff82169050919050565b6000612f0082612ed5565b9050919050565b612f1081612ef5565b8114612f1b57600080fd5b50565b600081359050612f2d81612f07565b92915050565b600080600060608486031215612f4c57612f4b612d34565b5b6000612f5a86828701612d81565b9350506020612f6b86828701612d81565b9250506040612f7c86828701612f1e565b9150509250925092565b6000819050919050565b612f9981612f86565b8114612fa457600080fd5b50565b600081359050612fb681612f90565b92915050565b600060208284031215612fd257612fd1612d34565b5b6000612fe084828501612fa7565b91505092915050565b612ff281612f86565b82525050565b600060208201905061300d6000830184612fe9565b92915050565b6000819050919050565b600061303861303361302e84612ed5565b613013565b612ed5565b9050919050565b600061304a8261301d565b9050919050565b600061305c8261303f565b9050919050565b61306c81613051565b82525050565b60006020820190506130876000830184613063565b92915050565b60006130988261303f565b9050919050565b6130a88161308d565b82525050565b60006020820190506130c3600083018461309f565b92915050565b600080604083850312156130e0576130df612d34565b5b60006130ee85828601612fa7565b92505060206130ff85828601612f1e565b9150509250929050565b60006131148261301d565b9050919050565b600061312682613109565b9050919050565b6131368161311b565b82525050565b6000602082019050613151600083018461312d565b92915050565b600061316282612ed5565b9050919050565b61317281613157565b811461317d57600080fd5b50565b60008135905061318f81613169565b92915050565b6000602082840312156131ab576131aa612d34565b5b60006131b984828501613180565b91505092915050565b60006131cd8261303f565b9050919050565b6131dd816131c2565b82525050565b60006020820190506131f860008301846131d4565b92915050565b600061320982613109565b9050919050565b613219816131fe565b82525050565b60006020820190506132346000830184613210565b92915050565b600080fd5b600080fd5b600080fd5b60008083601f84011261325f5761325e61323a565b5b8235905067ffffffffffffffff81111561327c5761327b61323f565b5b60208301915083600182028301111561329857613297613244565b5b9250929050565b6000806000604084860312156132b8576132b7612d34565b5b60006132c686828701612fa7565b935050602084013567ffffffffffffffff8111156132e7576132e6612d39565b5b6132f386828701613249565b92509250509250925092565b61330881612ef5565b82525050565b600060208201905061332360008301846132ff565b92915050565b60006133348261303f565b9050919050565b61334481613329565b82525050565b600060208201905061335f600083018461333b565b92915050565b60006020828403121561337b5761337a612d34565b5b600061338984828501612e20565b91505092915050565b6000601f19601f8301169050919050565b7f4e487b7100000000000000000000000000000000000000000000000000000000600052604160045260246000fd5b6133db82613392565b810181811067ffffffffffffffff821117156133fa576133f96133a3565b5b80604052505050565b600061340d612d2a565b905061341982826133d2565b919050565b600067ffffffffffffffff821115613439576134386133a3565b5b602082029050602081019050919050565b600061345d6134588461341e565b613403565b905080838252602082019050602084028301858111156134805761347f613244565b5b835b818110156134a957806134958882612fa7565b845260208401935050602081019050613482565b5050509392505050565b600082601f8301126134c8576134c761323a565b5b81356134d884826020860161344a565b91505092915050565b600080600080600060a086880312156134fd576134fc612d34565b5b600061350b88828901612fa7565b955050602061351c88828901612d81565b945050604061352d88828901612fa7565b935050606061353e88828901612fa7565b925050608086013567ffffffffffffffff81111561355f5761355e612d39565b5b61356b888289016134b3565b9150509295509295909350565b60006135838261303f565b9050919050565b61359381613578565b82525050565b60006020820190506135ae600083018461358a565b92915050565b6135bd81612df9565b82525050565b60006020820190506135d860008301846135b4565b92915050565b6000602082840312156135f4576135f3612d34565b5b600061360284828501612e56565b91505092915050565b60006020828403121561362157613620612d34565b5b600061362f84828501612f1e565b91505092915050565b60006136438261303f565b9050919050565b61365381613638565b82525050565b600060208201905061366e600083018461364a565b92915050565b7f4e487b7100000000000000000000000000000000000000000000000000000000600052601160045260246000fd5b60006136ae82612e35565b91506136b983612e35565b92508282026136c781612e35565b915082820484148315176136de576136dd613674565b5b5092915050565b7f4e487b7100000000000000000000000000000000000000000000000000000000600052601260045260246000fd5b600061371f82612e35565b915061372a83612e35565b92508261373a576137396136e5565b5b828204905092915050565b600082825260208201905092915050565b7f4f6e6c79206f776e65722063616e2063616c6c20746869732066756e6374696f60008201527f6e00000000000000000000000000000000000000000000000000000000000000602082015250565b60006137b2602183613745565b91506137bd82613756565b604082019050919050565b600060208201905081810360008301526137e1816137a5565b9050919050565b7f416363657373436f6e74726f6c3a2063616e206f6e6c792072656e6f756e636560008201527f20726f6c657320666f722073656c660000000000000000000000000000000000602082015250565b6000613844602f83613745565b915061384f826137e8565b604082019050919050565b6000602082019050818103600083015261387381613837565b9050919050565b600080fd5b600080fd5b60008151905061389381612d6a565b92915050565b6000815190506138a881612e09565b92915050565b6000815190506138bd81612f90565b92915050565b6000815190506138d281612e3f565b92915050565b6000815190506138e781612f07565b92915050565b600061014082840312156139045761390361387a565b5b61390f610140613403565b9050600061391f84828501613884565b600083015250602061393384828501613884565b602083015250604061394784828501613899565b604083015250606061395b848285016138ae565b606083015250608061396f848285016138c3565b60808301525060a0613983848285016138d8565b60a08301525060c0613997848285016138c3565b60c08301525060e06139ab84828501613899565b60e0830152506101006139c0848285016138d8565b610100830152506101206139d6848285016138c3565b6101208301525092915050565b60008061016083850312156139fb576139fa612d34565b5b6000613a09858286016138ed565b925050610140613a1b858286016138ae565b9150509250929050565b613a2e81612d3e565b82525050565b600060c082019050613a496000830189613a25565b613a566020830188612fe9565b613a636040830187612fe9565b613a706060830186612eab565b613a7d60808301856135b4565b613a8a60a08301846132ff565b979650505050505050565b600060208284031215613aab57613aaa612d34565b5b6000613ab9848285016138ae565b91505092915050565b600060208284031215613ad857613ad7612d34565b5b6000613ae6848285016138c3565b91505092915050565b600080fd5b600067ffffffffffffffff821115613b0f57613b0e6133a3565b5b613b1882613392565b9050602081019050919050565b60005b83811015613b43578082015181840152602081019050613b28565b60008484015250505050565b6000613b62613b5d84613af4565b613403565b905082815260208101848484011115613b7e57613b7d613aef565b5b613b89848285613b25565b509392505050565b600082601f830112613ba657613ba561323a565b5b8151613bb6848260208601613b4f565b91505092915050565b600060208284031215613bd557613bd4612d34565b5b600082015167ffffffffffffffff811115613bf357613bf2612d39565b5b613bff84828501613b91565b91505092915050565b613c1181612dc3565b8114613c1c57600080fd5b50565b600081519050613c2e81613c08565b92915050565b600067ffffffffffffffff821115613c4f57613c4e6133a3565b5b602082029050602081019050919050565b6000613c73613c6e84613c34565b613403565b90508083825260208201905060208402830185811115613c9657613c95613244565b5b835b81811015613cbf5780613cab88826138d8565b845260208401935050602081019050613c98565b5050509392505050565b600082601f830112613cde57613cdd61323a565b5b8151613cee848260208601613c60565b91505092915050565b600060e08284031215613d0d57613d0c61387a565b5b613d1760e0613403565b90506000613d2784828501613c1f565b6000830152506020613d3b848285016138ae565b6020830152506040613d4f848285016138ae565b604083015250606082015167ffffffffffffffff811115613d7357613d7261387f565b5b613d7f84828501613cc9565b606083015250608082015167ffffffffffffffff811115613da357613da261387f565b5b613daf84828501613cc9565b60808301525060a082015167ffffffffffffffff811115613dd357613dd261387f565b5b613ddf84828501613b91565b60a08301525060c0613df384828501613899565b60c08301525092915050565b600060208284031215613e1557613e14612d34565b5b600082015167ffffffffffffffff811115613e3357613e32612d39565b5b613e3f84828501613cf7565b91505092915050565b600081519050919050565b600082825260208201905092915050565b6000613e6f82613e48565b613e798185613e53565b9350613e89818560208601613b25565b613e9281613392565b840191505092915050565b6000604082019050613eb26000830185612fe9565b8181036020830152613ec48184613e64565b90509392505050565b600060208284031215613ee357613ee2612d34565b5b6000613ef1848285016138d8565b91505092915050565b7f454d5054595f5041594c4f414400000000000000000000000000000000000000600082015250565b6000613f30600d83613745565b9150613f3b82613efa565b602082019050919050565b60006020820190508181036000830152613f5f81613f23565b9050919050565b7f4e487b7100000000000000000000000000000000000000000000000000000000600052603260045260246000fd5b6000613fa082612e35565b9150613fab83612e35565b9250828201905080821115613fc357613fc2613674565b5b92915050565b600080fd5b600080fd5b60008085851115613fe757613fe6613fc9565b5b83861115613ff857613ff7613fce565b5b6001850283019150848603905094509492505050565b600082905092915050565b600082821b905092915050565b6000614032838361400e565b8261403d8135612f86565b9250602082101561407d576140787fffffffffffffffffffffffffffffffffffffffffffffffffffffffffffffffff83602003600802614019565b831692505b505092915050565b60007fffffffffffffffffffffffffffffffffffffffff00000000000000000000000082169050919050565b60006140bd838361400e565b826140c88135614085565b92506014821015614108576141037fffffffffffffffffffffffffffffffffffffffff00000000000000000000000083601403600802614019565b831692505b505092915050565b7f494e56414c49445f4d4553534147455f54595045000000000000000000000000600082015250565b6000614146601483613745565b915061415182614110565b602082019050919050565b6000602082019050818103600083015261417581614139565b9050919050565b600081519050919050565b600082825260208201905092915050565b6000819050602082019050919050565b6141b181612f86565b82525050565b60006141c383836141a8565b60208301905092915050565b6000602082019050919050565b60006141e78261417c565b6141f18185614187565b93506141fc83614198565b8060005b8381101561422d57815161421488826141b7565b975061421f836141cf565b925050600181019050614200565b5085935050505092915050565b600060808201905061424f6000830187613a25565b61425c6020830186612fe9565b818103604083015261426e81856141dc565b905061427d6060830184612fe9565b95945050505050565b60006020828403121561429c5761429b612d34565b5b60006142aa84828501613c1f565b91505092915050565b7f496e76616c69642070726f6f6600000000000000000000000000000000000000600082015250565b60006142e9600d83613745565b91506142f4826142b3565b602082019050919050565b60006020820190508181036000830152614318816142dc565b9050919050565b7f4f72646572206973206e6f7420636f6e6669726d656420696e2074686520636f60008201527f6e6669726d6174696f6e20626f6f6b0000000000000000000000000000000000602082015250565b600061437b602f83613745565b91506143868261431f565b604082019050919050565b600060208201905081810360008301526143aa8161436e565b9050919050565b7f4661756c7450726f6f663a204e6f206661756c742070726f6f6620766572696660008201527f69636174696f6e206d6574686f64206973207365740000000000000000000000602082015250565b600061440d603583613745565b9150614418826143b1565b604082019050919050565b6000602082019050818103600083015261443c81614400565b9050919050565b600060408201905061445860008301856135b4565b61446560208301846135b4565b9392505050565b7f496e697469616c697a61626c653a20636f6e747261637420697320616c72656160008201527f647920696e697469616c697a6564000000000000000000000000000000000000602082015250565b60006144c8602e83613745565b91506144d38261446c565b604082019050919050565b600060208201905081810360008301526144f7816144bb565b9050919050565b6000819050919050565b600060ff82169050919050565b600061453061452b614526846144fe565b613013565b614508565b9050919050565b61454081614515565b82525050565b600060208201905061455b6000830184614537565b92915050565b7f436f6e7472616374206973207475726e6564206f666600000000000000000000600082015250565b6000614597601683613745565b91506145a282614561565b602082019050919050565b600060208201905081810360008301526145c68161458a565b9050919050565b6000608082840312156145e3576145e261387a565b5b6145ed6080613403565b905060006145fd848285016138c3565b6000830152506020614611848285016138d8565b6020830152506040614625848285016138c3565b6040830152506060614639848285016138c3565b60608301525092915050565b6000806000806000610220868803121561466257614661612d34565b5b6000614670888289016138ed565b955050610140614682888289016138ae565b945050610160614694888289016145cd565b9350506101e06146a688828901613c1f565b9250506102006146b8888289016138c3565b9150509295509295909350565b7f4f72646572206973206e6f742061747465737465640000000000000000000000600082015250565b60006146fb601583613745565b9150614706826146c5565b602082019050919050565b6000602082019050818103600083015261472a816146ee565b9050919050565b7f42656e6566696369617279206973206e6f74207468652077696e6e6572206f6660008201527f2074686520626964000000000000000000000000000000000000000000000000602082015250565b600061478d602883613745565b915061479882614731565b604082019050919050565b600060208201905081810360008301526147bc81614780565b9050919050565b7f436c61696d61626c6520616d6f756e74206973207a65726f0000000000000000600082015250565b60006147f9601883613745565b9150614804826147c3565b602082019050919050565b60006020820190508181036000830152614828816147ec565b9050919050565b600060a0820190506148446000830188612fe9565b6148516020830187613a25565b61485e60408301866132ff565b61486b6060830185612eab565b6148786080830184612eab565b9695505050505050565b7f496e697469616c697a61626c653a20636f6e7472616374206973206e6f74206960008201527f6e697469616c697a696e67000000000000000000000000000000000000000000602082015250565b60006148de602b83613745565b91506148e982614882565b604082019050919050565b6000602082019050818103600083015261490d816148d1565b9050919050565b7f43757272656e7420636f6d6d6974746565207374616b65206973207a65726f00600082015250565b600061494a601f83613745565b915061495582614914565b602082019050919050565b600060208201905081810360008301526149798161493d565b9050919050565b60006020828403121561499657614995612d34565b5b600082015167ffffffffffffffff8111156149b4576149b3612d39565b5b6149c084828501613cc9565b91505092915050565b60006060820190506149de60008301866132ff565b6149eb60208301856132ff565b6149f86040830184612eab565b949350505050565b6000604082019050614a1560008301856132ff565b614a2260208301846132ff565b9392505050565b6000604082019050614a3e6000830185612eab565b614a4b60208301846132ff565b9392505050565b600081905092915050565b7f416363657373436f6e74726f6c3a206163636f756e7420000000000000000000600082015250565b6000614a93601783614a52565b9150614a9e82614a5d565b601782019050919050565b600081519050919050565b6000614abf82614aa9565b614ac98185614a52565b9350614ad9818560208601613b25565b80840191505092915050565b7f206973206d697373696e6720726f6c6520000000000000000000000000000000600082015250565b6000614b1b601183614a52565b9150614b2682614ae5565b601182019050919050565b6000614b3c82614a86565b9150614b488285614ab4565b9150614b5382614b0e565b9150614b5f8284614ab4565b91508190509392505050565b6000614b7682614aa9565b614b808185613745565b9350614b90818560208601613b25565b614b9981613392565b840191505092915050565b60006020820190508181036000830152614bbe8184614b6b565b905092915050565b6000614bd182612e35565b915060008203614be457614be3613674565b5b600182039050919050565b7f537472696e67733a20686578206c656e67746820696e73756666696369656e74600082015250565b6000614c25602083613745565b9150614c3082614bef565b602082019050919050565b60006020820190508181036000830152614c5481614c18565b905091905056fea2646970667358221220e8bda0fc0ebc34b876579fd170fd6eadb64c4c3c501603f7b0570a8638a92b7d64736f6c63430008180033",
  "linkReferences": {},
  "deployedLinkReferences": {}
}