{
  "_format": "hh-sol-artifact-1",
  "contractName": "FaultProofsClaimer",
  "sourceName": "contracts/faultProof.sol",
  "abi": [
    {
      "anonymous": false,
      "inputs": [
        {
          "indexed": false,
          "internalType": "bytes4",
          "name": "orderId",
          "type": "bytes4"
        },
        {
          "indexed": false,
          "internalType": "bytes4",
          "name": "chainId",
          "type": "bytes4"
        },
        {
          "indexed": false,
          "internalType": "bytes",
          "name": "proof",
          "type": "bytes"
        }
      ],
      "name": "CorrectnessConfirmed",
      "type": "event"
    },
    {
      "anonymous": false,
      "inputs": [
        {
          "indexed": false,
          "internalType": "bytes4",
          "name": "orderId",
          "type": "bytes4"
        },
        {
          "indexed": false,
          "internalType": "bytes4",
          "name": "chainId",
          "type": "bytes4"
        },
        {
          "indexed": false,
          "internalType": "address",
          "name": "beneficiary",
          "type": "address"
        },
        {
          "indexed": false,
          "internalType": "uint256",
          "name": "claimableAmountInNative",
          "type": "uint256"
        },
        {
          "indexed": false,
          "internalType": "uint256",
          "name": "amount",
          "type": "uint256"
        }
      ],
      "name": "FaultProofClaimed",
      "type": "event"
    },
    {
      "anonymous": false,
      "inputs": [
        {
          "indexed": false,
          "internalType": "uint8",
          "name": "version",
          "type": "uint8"
        }
      ],
      "name": "Initialized",
      "type": "event"
    },
    {
      "anonymous": false,
      "inputs": [
        {
          "indexed": true,
          "internalType": "bytes32",
          "name": "role",
          "type": "bytes32"
        },
        {
          "indexed": true,
          "internalType": "bytes32",
          "name": "previousAdminRole",
          "type": "bytes32"
        },
        {
          "indexed": true,
          "internalType": "bytes32",
          "name": "newAdminRole",
          "type": "bytes32"
        }
      ],
      "name": "RoleAdminChanged",
      "type": "event"
    },
    {
      "anonymous": false,
      "inputs": [
        {
          "indexed": true,
          "internalType": "bytes32",
          "name": "role",
          "type": "bytes32"
        },
        {
          "indexed": true,
          "internalType": "address",
          "name": "account",
          "type": "address"
        },
        {
          "indexed": true,
          "internalType": "address",
          "name": "sender",
          "type": "address"
        }
      ],
      "name": "RoleGranted",
      "type": "event"
    },
    {
      "anonymous": false,
      "inputs": [
        {
          "indexed": true,
          "internalType": "bytes32",
          "name": "role",
          "type": "bytes32"
        },
        {
          "indexed": true,
          "internalType": "address",
          "name": "account",
          "type": "address"
        },
        {
          "indexed": true,
          "internalType": "address",
          "name": "sender",
          "type": "address"
        }
      ],
      "name": "RoleRevoked",
      "type": "event"
    },
    {
      "inputs": [],
      "name": "DEFAULT_ADMIN_ROLE",
      "outputs": [
        {
          "internalType": "bytes32",
          "name": "",
          "type": "bytes32"
        }
      ],
      "stateMutability": "view",
      "type": "function"
    },
    {
      "inputs": [],
      "name": "attestersPortal",
      "outputs": [
        {
          "internalType": "contract AttestersPortal",
          "name": "",
          "type": "address"
        }
      ],
      "stateMutability": "view",
      "type": "function"
    },
    {
      "inputs": [],
      "name": "attestersStaking",
      "outputs": [
        {
          "internalType": "contract AttestersStaking",
          "name": "",
          "type": "address"
        }
      ],
      "stateMutability": "view",
      "type": "function"
    },
    {
      "inputs": [],
      "name": "biddingBook",
      "outputs": [
        {
          "internalType": "contract BiddingBook",
          "name": "",
          "type": "address"
        }
      ],
      "stateMutability": "view",
      "type": "function"
    },
    {
      "inputs": [
        {
          "internalType": "bytes4",
          "name": "orderId",
          "type": "bytes4"
        },
        {
          "internalType": "bytes4",
          "name": "destinationChainId",
          "type": "bytes4"
        },
        {
          "internalType": "bytes32",
          "name": "headerId",
          "type": "bytes32"
        },
        {
          "internalType": "bytes32",
          "name": "executionReceiptLeafHash",
          "type": "bytes32"
        },
        {
          "internalType": "bytes32[]",
          "name": "proof",
          "type": "bytes32[]"
        }
      ],
      "name": "claimFaultProof",
      "outputs": [],
      "stateMutability": "nonpayable",
      "type": "function"
    },
    {
      "inputs": [
        {
          "internalType": "bytes4",
          "name": "_orderId",
          "type": "bytes4"
        },
        {
          "internalType": "bytes4",
          "name": "_chainId",
          "type": "bytes4"
        },
        {
          "internalType": "address",
          "name": "_beneficiary",
          "type": "address"
        }
      ],
      "name": "emergencyClaimFaultProof",
      "outputs": [],
      "stateMutability": "nonpayable",
      "type": "function"
    },
    {
      "inputs": [
        {
          "internalType": "uint32",
          "name": "assetId",
          "type": "uint32"
        },
        {
          "internalType": "uint256",
          "name": "amount",
          "type": "uint256"
        }
      ],
      "name": "getAssetAmountInNative",
      "outputs": [
        {
          "internalType": "uint256",
          "name": "",
          "type": "uint256"
        }
      ],
      "stateMutability": "view",
      "type": "function"
    },
    {
      "inputs": [
        {
          "internalType": "uint32",
          "name": "assetId",
          "type": "uint32"
        }
      ],
      "name": "getAssetPriceInNative",
      "outputs": [
        {
          "internalType": "uint256",
          "name": "",
          "type": "uint256"
        }
      ],
      "stateMutability": "view",
      "type": "function"
    },
    {
      "inputs": [
        {
          "internalType": "uint32",
          "name": "assetId",
          "type": "uint32"
        },
        {
          "internalType": "uint256",
          "name": "amount",
          "type": "uint256"
        }
      ],
      "name": "getClaimableAmountInNative",
      "outputs": [
        {
          "internalType": "uint256",
          "name": "",
          "type": "uint256"
        }
      ],
      "stateMutability": "view",
      "type": "function"
    },
    {
      "inputs": [],
      "name": "getNativeAssetId",
      "outputs": [
        {
          "internalType": "uint32",
          "name": "",
          "type": "uint32"
        }
      ],
      "stateMutability": "view",
      "type": "function"
    },
    {
      "inputs": [
        {
          "internalType": "bytes32",
          "name": "role",
          "type": "bytes32"
        }
      ],
      "name": "getRoleAdmin",
      "outputs": [
        {
          "internalType": "bytes32",
          "name": "",
          "type": "bytes32"
        }
      ],
      "stateMutability": "view",
      "type": "function"
    },
    {
      "inputs": [
        {
          "internalType": "bytes32",
          "name": "role",
          "type": "bytes32"
        },
        {
          "internalType": "address",
          "name": "account",
          "type": "address"
        }
      ],
      "name": "grantRole",
      "outputs": [],
      "stateMutability": "nonpayable",
      "type": "function"
    },
    {
      "inputs": [
        {
          "internalType": "bytes32",
          "name": "role",
          "type": "bytes32"
        },
        {
          "internalType": "address",
          "name": "account",
          "type": "address"
        }
      ],
      "name": "hasRole",
      "outputs": [
        {
          "internalType": "bool",
          "name": "",
          "type": "bool"
        }
      ],
      "stateMutability": "view",
      "type": "function"
    },
    {
      "inputs": [
        {
          "internalType": "address",
          "name": "_owner",
          "type": "address"
        }
      ],
      "name": "initialize",
      "outputs": [],
      "stateMutability": "nonpayable",
      "type": "function"
    },
    {
      "inputs": [],
      "name": "insuranceMultiplier",
      "outputs": [
        {
          "internalType": "uint256",
          "name": "",
          "type": "uint256"
        }
      ],
      "stateMutability": "view",
      "type": "function"
    },
    {
      "inputs": [],
      "name": "isOn",
      "outputs": [
        {
          "internalType": "bool",
          "name": "",
          "type": "bool"
        }
      ],
      "stateMutability": "view",
      "type": "function"
    },
    {
      "inputs": [],
      "name": "l3LightClient",
      "outputs": [
        {
          "internalType": "contract L3LightClient",
          "name": "",
          "type": "address"
        }
      ],
      "stateMutability": "view",
      "type": "function"
    },
    {
      "inputs": [],
      "name": "nativeAssetId",
      "outputs": [
        {
          "internalType": "uint32",
          "name": "",
          "type": "uint32"
        }
      ],
      "stateMutability": "view",
      "type": "function"
    },
    {
      "inputs": [],
      "name": "openMarketPrice",
      "outputs": [
        {
          "internalType": "contract OpenMarketPricer",
          "name": "",
          "type": "address"
        }
      ],
      "stateMutability": "view",
      "type": "function"
    },
    {
      "inputs": [],
      "name": "orderBook",
      "outputs": [
        {
          "internalType": "contract OrderBook",
          "name": "",
          "type": "address"
        }
      ],
      "stateMutability": "view",
      "type": "function"
    },
    {
      "inputs": [
        {
          "internalType": "bytes32",
          "name": "role",
          "type": "bytes32"
        },
        {
          "internalType": "address",
          "name": "account",
          "type": "address"
        }
      ],
      "name": "renounceRole",
      "outputs": [],
      "stateMutability": "nonpayable",
      "type": "function"
    },
    {
      "inputs": [
        {
          "internalType": "bytes32",
          "name": "role",
          "type": "bytes32"
        },
        {
          "internalType": "address",
          "name": "account",
          "type": "address"
        }
      ],
      "name": "revokeRole",
      "outputs": [],
      "stateMutability": "nonpayable",
      "type": "function"
    },
    {
      "inputs": [
        {
          "internalType": "address payable",
          "name": "_attestersPortal",
          "type": "address"
        }
      ],
      "name": "setAttestersPortal",
      "outputs": [],
      "stateMutability": "nonpayable",
      "type": "function"
    },
    {
      "inputs": [
        {
          "internalType": "address payable",
          "name": "_attestersStaking",
          "type": "address"
        }
      ],
      "name": "setAttestersStaking",
      "outputs": [],
      "stateMutability": "nonpayable",
      "type": "function"
    },
    {
      "inputs": [
        {
          "internalType": "address payable",
          "name": "_biddingBook",
          "type": "address"
        }
      ],
      "name": "setBiddingBook",
      "outputs": [],
      "stateMutability": "nonpayable",
      "type": "function"
    },
    {
      "inputs": [
        {
          "internalType": "uint256",
          "name": "_insuranceMultiplier",
          "type": "uint256"
        }
      ],
      "name": "setInsuranceMultiplier",
      "outputs": [],
      "stateMutability": "nonpayable",
      "type": "function"
    },
    {
      "inputs": [
        {
          "internalType": "address payable",
          "name": "_l3LightClient",
          "type": "address"
        }
      ],
      "name": "setL3LightClient",
      "outputs": [],
      "stateMutability": "nonpayable",
      "type": "function"
    },
    {
      "inputs": [
        {
          "internalType": "uint32",
          "name": "_nativeAssetId",
          "type": "uint32"
        }
      ],
      "name": "setNativeAssetId",
      "outputs": [],
      "stateMutability": "nonpayable",
      "type": "function"
    },
    {
      "inputs": [
        {
          "internalType": "address payable",
          "name": "_openMarketPrice",
          "type": "address"
        }
      ],
      "name": "setOpenMarketPrice",
      "outputs": [],
      "stateMutability": "nonpayable",
      "type": "function"
    },
    {
      "inputs": [
        {
          "internalType": "address payable",
          "name": "_orderBook",
          "type": "address"
        }
      ],
      "name": "setOrderBook",
      "outputs": [],
      "stateMutability": "nonpayable",
      "type": "function"
    },
    {
      "inputs": [
        {
          "internalType": "bytes32",
          "name": "_version",
          "type": "bytes32"
        }
      ],
      "name": "setVersion",
      "outputs": [],
      "stateMutability": "nonpayable",
      "type": "function"
    },
    {
      "inputs": [
        {
          "internalType": "bytes4",
          "name": "interfaceId",
          "type": "bytes4"
        }
      ],
      "name": "supportsInterface",
      "outputs": [
        {
          "internalType": "bool",
          "name": "",
          "type": "bool"
        }
      ],
      "stateMutability": "view",
      "type": "function"
    },
    {
      "inputs": [],
      "name": "turnOff",
      "outputs": [],
      "stateMutability": "nonpayable",
      "type": "function"
    },
    {
      "inputs": [],
      "name": "turnOn",
      "outputs": [],
      "stateMutability": "nonpayable",
      "type": "function"
    },
    {
      "inputs": [],
      "name": "version",
      "outputs": [
        {
          "internalType": "bytes32",
          "name": "",
          "type": "bytes32"
        }
      ],
      "stateMutability": "view",
      "type": "function"
    }
  ],
  "bytecode": "0x60806040526002609d5534801561001557600080fd5b50613a56806100256000396000f3fe608060405234801561001057600080fd5b50600436106102115760003560e01c806391d1485411610125578063c03edd0e116100ad578063d03685cb1161007c578063d03685cb146105c6578063d547741f146105e2578063ed8bc5b5146105fe578063f55deae51461061a578063f5f961861461063857610211565b8063c03edd0e14610542578063c2c4760a1461055e578063c4d66de81461058e578063ca5f81b5146105aa57610211565b8063aafcde84116100f4578063aafcde84146104d6578063af10c810146104f4578063ba33ed7d146104fe578063ba6c9d5914610508578063bb34d3291461052657610211565b806391d14854146104505780639836d65b146104805780639a1598c81461049c578063a217fddf146104b857610211565b806336568abe116101a85780635c348d67116101775780635c348d67146103aa57806360532edb146103da578063621ccaf4146103f8578063776af5ba146104165780637834f9d71461043457610211565b806336568abe146103365780633aac5d3d14610352578063409e16aa1461037057806354fd4d501461038c57610211565b80631e02eaaf116101e45780631e02eaaf146102b0578063248a9ca3146102cc5780632aa8269e146102fc5780632f2ff15d1461031a57610211565b806301ffc9a71461021657806314046c9214610246578063175bbecf146102765780631c6da63914610294575b600080fd5b610230600480360381019061022b9190612330565b610656565b60405161023d9190612378565b60405180910390f35b610260600480360381019061025b9190612405565b6106d0565b60405161026d9190612454565b60405180910390f35b61027e610706565b60405161028b9190612378565b60405180910390f35b6102ae60048036038101906102a991906124cd565b610719565b005b6102ca60048036038101906102c591906126af565b610775565b005b6102e660048036038101906102e19190612746565b6108b4565b6040516102f39190612782565b60405180910390f35b6103046108d4565b60405161031191906127fc565b60405180910390f35b610334600480360381019061032f9190612817565b6108fa565b005b610350600480360381019061034b9190612817565b61091b565b005b61035a61099e565b604051610367919061288a565b60405180910390f35b61038a600480360381019061038591906128e3565b6109c4565b005b610394610a54565b6040516103a19190612782565b60405180910390f35b6103c460048036038101906103bf9190612405565b610a5a565b6040516103d19190612454565b60405180910390f35b6103e2610a7b565b6040516103ef9190612931565b60405180910390f35b610400610aa1565b60405161040d919061296d565b60405180910390f35b61041e610ac7565b60405161042b91906129a9565b60405180910390f35b61044e600480360381019061044991906129c4565b610aed565b005b61046a60048036038101906104659190612817565b610b5d565b6040516104779190612378565b60405180910390f35b61049a600480360381019061049591906128e3565b610bc8565b005b6104b660048036038101906104b191906128e3565b610c58565b005b6104c0610ce8565b6040516104cd9190612782565b60405180910390f35b6104de610cef565b6040516104eb9190612a00565b60405180910390f35b6104fc610d05565b005b610506610d6e565b005b610510610dd7565b60405161051d9190612454565b60405180910390f35b610540600480360381019061053b9190612a1b565b610ddd565b005b61055c600480360381019061055791906128e3565b610e33565b005b610578600480360381019061057391906129c4565b610ec3565b6040516105859190612454565b60405180910390f35b6105a860048036038101906105a39190612a48565b611011565b005b6105c460048036038101906105bf9190612746565b61115d565b005b6105e060048036038101906105db91906128e3565b6111b3565b005b6105fc60048036038101906105f79190612817565b611243565b005b610618600480360381019061061391906128e3565b611264565b005b6106226112f4565b60405161062f9190612a96565b60405180910390f35b61064061131a565b60405161064d9190612a00565b60405180910390f35b60007f7965db0b000000000000000000000000000000000000000000000000000000007bffffffffffffffffffffffffffffffffffffffffffffffffffffffff1916827bffffffffffffffffffffffffffffffffffffffffffffffffffffffff191614806106c957506106c882611334565b5b9050919050565b6000806106dc84610ec3565b9050670de0b6b3a764000081846106f39190612ae0565b6106fd9190612b51565b91505092915050565b609c60189054906101000a900460ff1681565b6107266000801b33610b5d565b610765576040517f08c379a000000000000000000000000000000000000000000000000000000000815260040161075c90612c05565b60405180910390fd5b61077083838361139e565b505050565b6107826000801b33610b5d565b6107c1576040517f08c379a00000000000000000000000000000000000000000000000000000000081526004016107b890612c05565b60405180910390fd5b609760009054906101000a900473ffffffffffffffffffffffffffffffffffffffff1673ffffffffffffffffffffffffffffffffffffffff166393d17128858584866040518563ffffffff1660e01b81526004016108229493929190612cf2565b602060405180830381865afa15801561083f573d6000803e3d6000fd5b505050506040513d601f19601f820116820180604052508101906108639190612d6a565b6108a2576040517f08c379a000000000000000000000000000000000000000000000000000000000815260040161089990612de3565b60405180910390fd5b6108ad85853361139e565b5050505050565b600060656000838152602001908152602001600020600101549050919050565b609960009054906101000a900473ffffffffffffffffffffffffffffffffffffffff1681565b610903826108b4565b61090c81611601565b6109168383611615565b505050565b6109236116f6565b73ffffffffffffffffffffffffffffffffffffffff168173ffffffffffffffffffffffffffffffffffffffff1614610990576040517f08c379a000000000000000000000000000000000000000000000000000000000815260040161098790612e75565b60405180910390fd5b61099a82826116fe565b5050565b609c60009054906101000a900473ffffffffffffffffffffffffffffffffffffffff1681565b6109d16000801b33610b5d565b610a10576040517f08c379a0000000000000000000000000000000000000000000000000000000008152600401610a0790612c05565b60405180910390fd5b80609960006101000a81548173ffffffffffffffffffffffffffffffffffffffff021916908373ffffffffffffffffffffffffffffffffffffffff16021790555050565b609e5481565b6000609d54610a6984846106d0565b610a739190612ae0565b905092915050565b609760009054906101000a900473ffffffffffffffffffffffffffffffffffffffff1681565b609b60009054906101000a900473ffffffffffffffffffffffffffffffffffffffff1681565b609860009054906101000a900473ffffffffffffffffffffffffffffffffffffffff1681565b610afa6000801b33610b5d565b610b39576040517f08c379a0000000000000000000000000000000000000000000000000000000008152600401610b3090612c05565b60405180910390fd5b80609c60146101000a81548163ffffffff021916908363ffffffff16021790555050565b60006065600084815260200190815260200160002060000160008373ffffffffffffffffffffffffffffffffffffffff1673ffffffffffffffffffffffffffffffffffffffff16815260200190815260200160002060009054906101000a900460ff16905092915050565b610bd56000801b33610b5d565b610c14576040517f08c379a0000000000000000000000000000000000000000000000000000000008152600401610c0b90612c05565b60405180910390fd5b80609a60006101000a81548173ffffffffffffffffffffffffffffffffffffffff021916908373ffffffffffffffffffffffffffffffffffffffff16021790555050565b610c656000801b33610b5d565b610ca4576040517f08c379a0000000000000000000000000000000000000000000000000000000008152600401610c9b90612c05565b60405180910390fd5b80609860006101000a81548173ffffffffffffffffffffffffffffffffffffffff021916908373ffffffffffffffffffffffffffffffffffffffff16021790555050565b6000801b81565b609c60149054906101000a900463ffffffff1681565b610d126000801b33610b5d565b610d51576040517f08c379a0000000000000000000000000000000000000000000000000000000008152600401610d4890612c05565b60405180910390fd5b6000609c60186101000a81548160ff021916908315150217905550565b610d7b6000801b33610b5d565b610dba576040517f08c379a0000000000000000000000000000000000000000000000000000000008152600401610db190612c05565b60405180910390fd5b6001609c60186101000a81548160ff021916908315150217905550565b609d5481565b610dea6000801b33610b5d565b610e29576040517f08c379a0000000000000000000000000000000000000000000000000000000008152600401610e2090612c05565b60405180910390fd5b80609d8190555050565b610e406000801b33610b5d565b610e7f576040517f08c379a0000000000000000000000000000000000000000000000000000000008152600401610e7690612c05565b60405180910390fd5b80609b60006101000a81548173ffffffffffffffffffffffffffffffffffffffff021916908373ffffffffffffffffffffffffffffffffffffffff16021790555050565b6000609c60149054906101000a900463ffffffff1663ffffffff168263ffffffff1603610efa57670de0b6b3a7640000905061100c565b600073ffffffffffffffffffffffffffffffffffffffff16609a60009054906101000a900473ffffffffffffffffffffffffffffffffffffffff1673ffffffffffffffffffffffffffffffffffffffff161461100757609a60009054906101000a900473ffffffffffffffffffffffffffffffffffffffff1673ffffffffffffffffffffffffffffffffffffffff1663afce54d183609c60149054906101000a900463ffffffff166040518363ffffffff1660e01b8152600401610fbf929190612e95565b602060405180830381865afa158015610fdc573d6000803e3d6000fd5b505050506040513d601f19601f820116820180604052508101906110009190612ed3565b905061100c565b600090505b919050565b60008060019054906101000a900460ff161590508080156110425750600160008054906101000a900460ff1660ff16105b8061106f5750611051306117e0565b15801561106e5750600160008054906101000a900460ff1660ff16145b5b6110ae576040517f08c379a00000000000000000000000000000000000000000000000000000000081526004016110a590612f72565b60405180910390fd5b60016000806101000a81548160ff021916908360ff16021790555080156110eb576001600060016101000a81548160ff0219169083151502179055505b6110f3611803565b6111006000801b83611615565b80156111595760008060016101000a81548160ff0219169083151502179055507f7f26b83ff96e1f2b6a682f133852f6798a09c465da95921460cefb384740249860016040516111509190612fda565b60405180910390a15b5050565b61116a6000801b33610b5d565b6111a9576040517f08c379a00000000000000000000000000000000000000000000000000000000081526004016111a090612c05565b60405180910390fd5b80609e8190555050565b6111c06000801b33610b5d565b6111ff576040517f08c379a00000000000000000000000000000000000000000000000000000000081526004016111f690612c05565b60405180910390fd5b80609c60006101000a81548173ffffffffffffffffffffffffffffffffffffffff021916908373ffffffffffffffffffffffffffffffffffffffff16021790555050565b61124c826108b4565b61125581611601565b61125f83836116fe565b505050565b6112716000801b33610b5d565b6112b0576040517f08c379a00000000000000000000000000000000000000000000000000000000081526004016112a790612c05565b60405180910390fd5b80609760006101000a81548173ffffffffffffffffffffffffffffffffffffffff021916908373ffffffffffffffffffffffffffffffffffffffff16021790555050565b609a60009054906101000a900473ffffffffffffffffffffffffffffffffffffffff1681565b6000609c60149054906101000a900463ffffffff16905090565b60007f01ffc9a7000000000000000000000000000000000000000000000000000000007bffffffffffffffffffffffffffffffffffffffffffffffffffffffff1916827bffffffffffffffffffffffffffffffffffffffffffffffffffffffff1916149050919050565b609c60189054906101000a900460ff166113ed576040517f08c379a00000000000000000000000000000000000000000000000000000000081526004016113e490613041565b60405180910390fd5b600080600080609860009054906101000a900473ffffffffffffffffffffffffffffffffffffffff1673ffffffffffffffffffffffffffffffffffffffff1663fb4d3144886040518263ffffffff1660e01b815260040161144e9190613082565b61020060405180830381865afa15801561146c573d6000803e3d6000fd5b505050506040513d601f19601f82011682018060405250810190611490919061324e565b509350935093509350806114d9576040517f08c379a00000000000000000000000000000000000000000000000000000000081526004016114d09061331a565b60405180910390fd5b8473ffffffffffffffffffffffffffffffffffffffff16826020015173ffffffffffffffffffffffffffffffffffffffff161461154b576040517f08c379a0000000000000000000000000000000000000000000000000000000008152600401611542906133ac565b60405180910390fd5b6000846040015190506000611564828760800151610a5a565b9050600081116115a9576040517f08c379a00000000000000000000000000000000000000000000000000000000081526004016115a090613418565b60405180910390fd5b6115b38188611854565b7f60e6e7542bf0201804a3fb7a18cf8f9aa46169caab4c63d610dfdb3e86cbbd28898989848a608001516040516115ee959493929190613447565b60405180910390a1505050505050505050565b6116128161160d6116f6565b611fd6565b50565b61161f8282610b5d565b6116f25760016065600084815260200190815260200160002060000160008373ffffffffffffffffffffffffffffffffffffffff1673ffffffffffffffffffffffffffffffffffffffff16815260200190815260200160002060006101000a81548160ff0219169083151502179055506116976116f6565b73ffffffffffffffffffffffffffffffffffffffff168173ffffffffffffffffffffffffffffffffffffffff16837f2f8788117e7eff1d82e926ec794901d17c78024a50270940304540a733656f0d60405160405180910390a45b5050565b600033905090565b6117088282610b5d565b156117dc5760006065600084815260200190815260200160002060000160008373ffffffffffffffffffffffffffffffffffffffff1673ffffffffffffffffffffffffffffffffffffffff16815260200190815260200160002060006101000a81548160ff0219169083151502179055506117816116f6565b73ffffffffffffffffffffffffffffffffffffffff168173ffffffffffffffffffffffffffffffffffffffff16837ff6391f5c32d9c69d2a47ea670b442974b53935d1edc7fd64eb21e047a839171b60405160405180910390a45b5050565b6000808273ffffffffffffffffffffffffffffffffffffffff163b119050919050565b600060019054906101000a900460ff16611852576040517f08c379a00000000000000000000000000000000000000000000000000000000081526004016118499061350c565b60405180910390fd5b565b47821115611897576040517f08c379a000000000000000000000000000000000000000000000000000000000815260040161188e90613578565b60405180910390fd5b8073ffffffffffffffffffffffffffffffffffffffff166108fc839081150290604051600060405180830381858888f193505050501580156118dd573d6000803e3d6000fd5b506000609c60009054906101000a900473ffffffffffffffffffffffffffffffffffffffff1673ffffffffffffffffffffffffffffffffffffffff1663ad410f816040518163ffffffff1660e01b8152600401602060405180830381865afa15801561194d573d6000803e3d6000fd5b505050506040513d601f19601f820116820180604052508101906119719190612ed3565b9050600081670de0b6b3a76400008561198a9190612ae0565b6119949190612b51565b90506000609c60009054906101000a900473ffffffffffffffffffffffffffffffffffffffff1673ffffffffffffffffffffffffffffffffffffffff1663484f657b6040518163ffffffff1660e01b8152600401600060405180830381865afa158015611a05573d6000803e3d6000fd5b505050506040513d6000823e3d601f19601f82011682018060405250810190611a2e919061365b565b905060005b8151811015611f4057609b60009054906101000a900473ffffffffffffffffffffffffffffffffffffffff1673ffffffffffffffffffffffffffffffffffffffff1663f6b911bc838381518110611a8d57611a8c6136a4565b5b6020026020010151848481518110611aa857611aa76136a4565b5b6020026020010151670de0b6b3a764000087609b60009054906101000a900473ffffffffffffffffffffffffffffffffffffffff1673ffffffffffffffffffffffffffffffffffffffff16634fc99ed6898981518110611b0b57611b0a6136a4565b5b60200260200101516040518263ffffffff1660e01b8152600401611b2f91906136d3565b602060405180830381865afa158015611b4c573d6000803e3d6000fd5b505050506040513d601f19601f82011682018060405250810190611b70919061372c565b73ffffffffffffffffffffffffffffffffffffffff166318160ddd6040518163ffffffff1660e01b8152600401602060405180830381865afa158015611bba573d6000803e3d6000fd5b505050506040513d601f19601f82011682018060405250810190611bde9190612ed3565b611be89190612ae0565b611bf29190612b51565b6040518463ffffffff1660e01b8152600401611c1093929190613759565b600060405180830381600087803b158015611c2a57600080fd5b505af1158015611c3e573d6000803e3d6000fd5b505050506000609b60009054906101000a900473ffffffffffffffffffffffffffffffffffffffff1673ffffffffffffffffffffffffffffffffffffffff1663fa086c06848481518110611c9557611c946136a4565b5b60200260200101516040518263ffffffff1660e01b8152600401611cb991906136d3565b600060405180830381865afa158015611cd6573d6000803e3d6000fd5b505050506040513d6000823e3d601f19601f82011682018060405250810190611cff919061365b565b905060005b8151811015611f31576000828281518110611d2257611d216136a4565b5b60200260200101519050609b60009054906101000a900473ffffffffffffffffffffffffffffffffffffffff1673ffffffffffffffffffffffffffffffffffffffff1663f6b911bc868681518110611d7d57611d7c6136a4565b5b602002602001015183670de0b6b3a76400008a609b60009054906101000a900473ffffffffffffffffffffffffffffffffffffffff1673ffffffffffffffffffffffffffffffffffffffff16634fc99ed68c8c81518110611de157611de06136a4565b5b60200260200101516040518263ffffffff1660e01b8152600401611e0591906136d3565b602060405180830381865afa158015611e22573d6000803e3d6000fd5b505050506040513d601f19601f82011682018060405250810190611e46919061372c565b73ffffffffffffffffffffffffffffffffffffffff166370a08231886040518263ffffffff1660e01b8152600401611e7e91906136d3565b602060405180830381865afa158015611e9b573d6000803e3d6000fd5b505050506040513d601f19601f82011682018060405250810190611ebf9190612ed3565b611ec99190612ae0565b611ed39190612b51565b6040518463ffffffff1660e01b8152600401611ef193929190613759565b600060405180830381600087803b158015611f0b57600080fd5b505af1158015611f1f573d6000803e3d6000fd5b50505050508080600101915050611d04565b50508080600101915050611a33565b50609b60009054906101000a900473ffffffffffffffffffffffffffffffffffffffff1673ffffffffffffffffffffffffffffffffffffffff1662f714ce86866040518363ffffffff1660e01b8152600401611f9d929190613790565b600060405180830381600087803b158015611fb757600080fd5b505af1158015611fcb573d6000803e3d6000fd5b505050505050505050565b611fe08282610b5d565b61205757611fed8161205b565b611ffb8360001c6020612088565b60405160200161200c9291906138c2565b6040516020818303038152906040526040517f08c379a000000000000000000000000000000000000000000000000000000000815260040161204e9190613935565b60405180910390fd5b5050565b60606120818273ffffffffffffffffffffffffffffffffffffffff16601460ff16612088565b9050919050565b60606000600283600261209b9190612ae0565b6120a59190613957565b67ffffffffffffffff8111156120be576120bd61256c565b5b6040519080825280601f01601f1916602001820160405280156120f05781602001600182028036833780820191505090505b5090507f300000000000000000000000000000000000000000000000000000000000000081600081518110612128576121276136a4565b5b60200101907effffffffffffffffffffffffffffffffffffffffffffffffffffffffffffff1916908160001a9053507f78000000000000000000000000000000000000000000000000000000000000008160018151811061218c5761218b6136a4565b5b60200101907effffffffffffffffffffffffffffffffffffffffffffffffffffffffffffff1916908160001a905350600060018460026121cc9190612ae0565b6121d69190613957565b90505b6001811115612276577f3031323334353637383961626364656600000000000000000000000000000000600f861660108110612218576122176136a4565b5b1a60f81b82828151811061222f5761222e6136a4565b5b60200101907effffffffffffffffffffffffffffffffffffffffffffffffffffffffffffff1916908160001a905350600485901c94508061226f9061398b565b90506121d9565b50600084146122ba576040517f08c379a00000000000000000000000000000000000000000000000000000000081526004016122b190613a00565b60405180910390fd5b8091505092915050565b6000604051905090565b600080fd5b600080fd5b60007fffffffff0000000000000000000000000000000000000000000000000000000082169050919050565b61230d816122d8565b811461231857600080fd5b50565b60008135905061232a81612304565b92915050565b600060208284031215612346576123456122ce565b5b60006123548482850161231b565b91505092915050565b60008115159050919050565b6123728161235d565b82525050565b600060208201905061238d6000830184612369565b92915050565b600063ffffffff82169050919050565b6123ac81612393565b81146123b757600080fd5b50565b6000813590506123c9816123a3565b92915050565b6000819050919050565b6123e2816123cf565b81146123ed57600080fd5b50565b6000813590506123ff816123d9565b92915050565b6000806040838503121561241c5761241b6122ce565b5b600061242a858286016123ba565b925050602061243b858286016123f0565b9150509250929050565b61244e816123cf565b82525050565b60006020820190506124696000830184612445565b92915050565b600073ffffffffffffffffffffffffffffffffffffffff82169050919050565b600061249a8261246f565b9050919050565b6124aa8161248f565b81146124b557600080fd5b50565b6000813590506124c7816124a1565b92915050565b6000806000606084860312156124e6576124e56122ce565b5b60006124f48682870161231b565b93505060206125058682870161231b565b9250506040612516868287016124b8565b9150509250925092565b6000819050919050565b61253381612520565b811461253e57600080fd5b50565b6000813590506125508161252a565b92915050565b600080fd5b6000601f19601f8301169050919050565b7f4e487b7100000000000000000000000000000000000000000000000000000000600052604160045260246000fd5b6125a48261255b565b810181811067ffffffffffffffff821117156125c3576125c261256c565b5b80604052505050565b60006125d66122c4565b90506125e2828261259b565b919050565b600067ffffffffffffffff8211156126025761260161256c565b5b602082029050602081019050919050565b600080fd5b600061262b612626846125e7565b6125cc565b9050808382526020820190506020840283018581111561264e5761264d612613565b5b835b8181101561267757806126638882612541565b845260208401935050602081019050612650565b5050509392505050565b600082601f83011261269657612695612556565b5b81356126a6848260208601612618565b91505092915050565b600080600080600060a086880312156126cb576126ca6122ce565b5b60006126d98882890161231b565b95505060206126ea8882890161231b565b94505060406126fb88828901612541565b935050606061270c88828901612541565b925050608086013567ffffffffffffffff81111561272d5761272c6122d3565b5b61273988828901612681565b9150509295509295909350565b60006020828403121561275c5761275b6122ce565b5b600061276a84828501612541565b91505092915050565b61277c81612520565b82525050565b60006020820190506127976000830184612773565b92915050565b6000819050919050565b60006127c26127bd6127b88461246f565b61279d565b61246f565b9050919050565b60006127d4826127a7565b9050919050565b60006127e6826127c9565b9050919050565b6127f6816127db565b82525050565b600060208201905061281160008301846127ed565b92915050565b6000806040838503121561282e5761282d6122ce565b5b600061283c85828601612541565b925050602061284d858286016124b8565b9150509250929050565b6000612862826127a7565b9050919050565b600061287482612857565b9050919050565b61288481612869565b82525050565b600060208201905061289f600083018461287b565b92915050565b60006128b08261246f565b9050919050565b6128c0816128a5565b81146128cb57600080fd5b50565b6000813590506128dd816128b7565b92915050565b6000602082840312156128f9576128f86122ce565b5b6000612907848285016128ce565b91505092915050565b600061291b826127c9565b9050919050565b61292b81612910565b82525050565b60006020820190506129466000830184612922565b92915050565b600061295782612857565b9050919050565b6129678161294c565b82525050565b6000602082019050612982600083018461295e565b92915050565b6000612993826127c9565b9050919050565b6129a381612988565b82525050565b60006020820190506129be600083018461299a565b92915050565b6000602082840312156129da576129d96122ce565b5b60006129e8848285016123ba565b91505092915050565b6129fa81612393565b82525050565b6000602082019050612a1560008301846129f1565b92915050565b600060208284031215612a3157612a306122ce565b5b6000612a3f848285016123f0565b91505092915050565b600060208284031215612a5e57612a5d6122ce565b5b6000612a6c848285016124b8565b91505092915050565b6000612a80826127c9565b9050919050565b612a9081612a75565b82525050565b6000602082019050612aab6000830184612a87565b92915050565b7f4e487b7100000000000000000000000000000000000000000000000000000000600052601160045260246000fd5b6000612aeb826123cf565b9150612af6836123cf565b9250828202612b04816123cf565b91508282048414831517612b1b57612b1a612ab1565b5b5092915050565b7f4e487b7100000000000000000000000000000000000000000000000000000000600052601260045260246000fd5b6000612b5c826123cf565b9150612b67836123cf565b925082612b7757612b76612b22565b5b828204905092915050565b600082825260208201905092915050565b7f4f6e6c79206f776e65722063616e2063616c6c20746869732066756e6374696f60008201527f6e00000000000000000000000000000000000000000000000000000000000000602082015250565b6000612bef602183612b82565b9150612bfa82612b93565b604082019050919050565b60006020820190508181036000830152612c1e81612be2565b9050919050565b612c2e816122d8565b82525050565b600081519050919050565b600082825260208201905092915050565b6000819050602082019050919050565b612c6981612520565b82525050565b6000612c7b8383612c60565b60208301905092915050565b6000602082019050919050565b6000612c9f82612c34565b612ca98185612c3f565b9350612cb483612c50565b8060005b83811015612ce5578151612ccc8882612c6f565b9750612cd783612c87565b925050600181019050612cb8565b5085935050505092915050565b6000608082019050612d076000830187612c25565b612d146020830186612773565b8181036040830152612d268185612c94565b9050612d356060830184612773565b95945050505050565b612d478161235d565b8114612d5257600080fd5b50565b600081519050612d6481612d3e565b92915050565b600060208284031215612d8057612d7f6122ce565b5b6000612d8e84828501612d55565b91505092915050565b7f496e76616c69642070726f6f6600000000000000000000000000000000000000600082015250565b6000612dcd600d83612b82565b9150612dd882612d97565b602082019050919050565b60006020820190508181036000830152612dfc81612dc0565b9050919050565b7f416363657373436f6e74726f6c3a2063616e206f6e6c792072656e6f756e636560008201527f20726f6c657320666f722073656c660000000000000000000000000000000000602082015250565b6000612e5f602f83612b82565b9150612e6a82612e03565b604082019050919050565b60006020820190508181036000830152612e8e81612e52565b9050919050565b6000604082019050612eaa60008301856129f1565b612eb760208301846129f1565b9392505050565b600081519050612ecd816123d9565b92915050565b600060208284031215612ee957612ee86122ce565b5b6000612ef784828501612ebe565b91505092915050565b7f496e697469616c697a61626c653a20636f6e747261637420697320616c72656160008201527f647920696e697469616c697a6564000000000000000000000000000000000000602082015250565b6000612f5c602e83612b82565b9150612f6782612f00565b604082019050919050565b60006020820190508181036000830152612f8b81612f4f565b9050919050565b6000819050919050565b600060ff82169050919050565b6000612fc4612fbf612fba84612f92565b61279d565b612f9c565b9050919050565b612fd481612fa9565b82525050565b6000602082019050612fef6000830184612fcb565b92915050565b7f436f6e7472616374206973207475726e6564206f666600000000000000000000600082015250565b600061302b601683612b82565b915061303682612ff5565b602082019050919050565b6000602082019050818103600083015261305a8161301e565b9050919050565b600061306c826122d8565b9050919050565b61307c81613061565b82525050565b60006020820190506130976000830184613073565b92915050565b600080fd5b6000815190506130b181612304565b92915050565b6000815190506130c6816123a3565b92915050565b6000815190506130db8161252a565b92915050565b6000815190506130f0816124a1565b92915050565b6000610120828403121561310d5761310c61309d565b5b6131186101206125cc565b90506000613128848285016130a2565b600083015250602061313c848285016130a2565b6020830152506040613150848285016130b7565b6040830152506060613164848285016130cc565b606083015250608061317884828501612ebe565b60808301525060a061318c848285016130e1565b60a08301525060c06131a084828501612ebe565b60c08301525060e06131b4848285016130b7565b60e0830152506101006131c9848285016130e1565b6101008301525092915050565b6000608082840312156131ec576131eb61309d565b5b6131f660806125cc565b9050600061320684828501612ebe565b600083015250602061321a848285016130e1565b602083015250604061322e84828501612ebe565b604083015250606061324284828501612ebe565b60608301525092915050565b6000806000806000610200868803121561326b5761326a6122ce565b5b6000613279888289016130f6565b95505061012061328b888289016130cc565b94505061014061329d888289016131d6565b9350506101c06132af88828901612d55565b9250506101e06132c188828901612ebe565b9150509295509295909350565b7f4f72646572206973206e6f742061747465737465640000000000000000000000600082015250565b6000613304601583612b82565b915061330f826132ce565b602082019050919050565b60006020820190508181036000830152613333816132f7565b9050919050565b7f42656e6566696369617279206973206e6f74207468652077696e6e6572206f6660008201527f2074686520626964000000000000000000000000000000000000000000000000602082015250565b6000613396602883612b82565b91506133a18261333a565b604082019050919050565b600060208201905081810360008301526133c581613389565b9050919050565b7f436c61696d61626c6520616d6f756e74206973207a65726f0000000000000000600082015250565b6000613402601883612b82565b915061340d826133cc565b602082019050919050565b60006020820190508181036000830152613431816133f5565b9050919050565b6134418161248f565b82525050565b600060a08201905061345c6000830188612c25565b6134696020830187612c25565b6134766040830186613438565b6134836060830185612445565b6134906080830184612445565b9695505050505050565b7f496e697469616c697a61626c653a20636f6e7472616374206973206e6f74206960008201527f6e697469616c697a696e67000000000000000000000000000000000000000000602082015250565b60006134f6602b83612b82565b91506135018261349a565b604082019050919050565b60006020820190508181036000830152613525816134e9565b9050919050565b7f496e73756666696369656e742062616c616e636520746f207769746864726177600082015250565b6000613562602083612b82565b915061356d8261352c565b602082019050919050565b6000602082019050818103600083015261359181613555565b9050919050565b600067ffffffffffffffff8211156135b3576135b261256c565b5b602082029050602081019050919050565b60006135d76135d284613598565b6125cc565b905080838252602082019050602084028301858111156135fa576135f9612613565b5b835b81811015613623578061360f88826130e1565b8452602084019350506020810190506135fc565b5050509392505050565b600082601f83011261364257613641612556565b5b81516136528482602086016135c4565b91505092915050565b600060208284031215613671576136706122ce565b5b600082015167ffffffffffffffff81111561368f5761368e6122d3565b5b61369b8482850161362d565b91505092915050565b7f4e487b7100000000000000000000000000000000000000000000000000000000600052603260045260246000fd5b60006020820190506136e86000830184613438565b92915050565b60006136f98261248f565b9050919050565b613709816136ee565b811461371457600080fd5b50565b60008151905061372681613700565b92915050565b600060208284031215613742576137416122ce565b5b600061375084828501613717565b91505092915050565b600060608201905061376e6000830186613438565b61377b6020830185613438565b6137886040830184612445565b949350505050565b60006040820190506137a56000830185612445565b6137b26020830184613438565b9392505050565b600081905092915050565b7f416363657373436f6e74726f6c3a206163636f756e7420000000000000000000600082015250565b60006137fa6017836137b9565b9150613805826137c4565b601782019050919050565b600081519050919050565b60005b8381101561383957808201518184015260208101905061381e565b60008484015250505050565b600061385082613810565b61385a81856137b9565b935061386a81856020860161381b565b80840191505092915050565b7f206973206d697373696e6720726f6c6520000000000000000000000000000000600082015250565b60006138ac6011836137b9565b91506138b782613876565b601182019050919050565b60006138cd826137ed565b91506138d98285613845565b91506138e48261389f565b91506138f08284613845565b91508190509392505050565b600061390782613810565b6139118185612b82565b935061392181856020860161381b565b61392a8161255b565b840191505092915050565b6000602082019050818103600083015261394f81846138fc565b905092915050565b6000613962826123cf565b915061396d836123cf565b925082820190508082111561398557613984612ab1565b5b92915050565b6000613996826123cf565b9150600082036139a9576139a8612ab1565b5b600182039050919050565b7f537472696e67733a20686578206c656e67746820696e73756666696369656e74600082015250565b60006139ea602083612b82565b91506139f5826139b4565b602082019050919050565b60006020820190508181036000830152613a19816139dd565b905091905056fea26469706673582212201727710edd5cd039951653f988d19e628a50d1cd722f2da02a1f5489966be03864736f6c63430008180033",
  "linkReferences": {},
  "deployedLinkReferences": {}
}