{
  "_format": "hh-sol-artifact-1",
  "contractName": "L3LightClient",
  "sourceName": "contracts/L3LightClient.sol",
  "abi": [
    {
      "inputs": [],
      "stateMutability": "nonpayable",
      "type": "constructor"
    },
    {
      "anonymous": false,
      "inputs": [
        {
          "indexed": false,
          "internalType": "bytes32",
          "name": "headerId",
          "type": "bytes32"
        },
        {
          "components": [
            {
              "internalType": "bytes32",
              "name": "prevHeaderHash",
              "type": "bytes32"
            },
            {
              "internalType": "bytes32",
              "name": "headerHash",
              "type": "bytes32"
            },
            {
              "internalType": "bytes32",
              "name": "stateRoot",
              "type": "bytes32"
            },
            {
              "internalType": "bytes32",
              "name": "txRoot",
              "type": "bytes32"
            },
            {
              "internalType": "bytes32",
              "name": "receiptsRoot",
              "type": "bytes32"
            },
            {
              "internalType": "bytes32",
              "name": "appRoot",
              "type": "bytes32"
            },
            {
              "internalType": "bytes32",
              "name": "epochAppRoot",
              "type": "bytes32"
            },
            {
              "internalType": "bytes32",
              "name": "nextHeaderHash",
              "type": "bytes32"
            }
          ],
          "indexed": false,
          "internalType": "struct L3LightClient.Header",
          "name": "header",
          "type": "tuple"
        }
      ],
      "name": "HeaderLinked",
      "type": "event"
    },
    {
      "anonymous": false,
      "inputs": [
        {
          "indexed": false,
          "internalType": "bytes32",
          "name": "headerId",
          "type": "bytes32"
        },
        {
          "components": [
            {
              "internalType": "bytes32",
              "name": "prevHeaderHash",
              "type": "bytes32"
            },
            {
              "internalType": "bytes32",
              "name": "headerHash",
              "type": "bytes32"
            },
            {
              "internalType": "bytes32",
              "name": "stateRoot",
              "type": "bytes32"
            },
            {
              "internalType": "bytes32",
              "name": "txRoot",
              "type": "bytes32"
            },
            {
              "internalType": "bytes32",
              "name": "receiptsRoot",
              "type": "bytes32"
            },
            {
              "internalType": "bytes32",
              "name": "appRoot",
              "type": "bytes32"
            },
            {
              "internalType": "bytes32",
              "name": "epochAppRoot",
              "type": "bytes32"
            },
            {
              "internalType": "bytes32",
              "name": "nextHeaderHash",
              "type": "bytes32"
            }
          ],
          "indexed": false,
          "internalType": "struct L3LightClient.Header",
          "name": "header",
          "type": "tuple"
        }
      ],
      "name": "HeaderSupported",
      "type": "event"
    },
    {
      "anonymous": false,
      "inputs": [
        {
          "indexed": false,
          "internalType": "uint8",
          "name": "version",
          "type": "uint8"
        }
      ],
      "name": "Initialized",
      "type": "event"
    },
    {
      "anonymous": false,
      "inputs": [
        {
          "indexed": true,
          "internalType": "bytes32",
          "name": "role",
          "type": "bytes32"
        },
        {
          "indexed": true,
          "internalType": "bytes32",
          "name": "previousAdminRole",
          "type": "bytes32"
        },
        {
          "indexed": true,
          "internalType": "bytes32",
          "name": "newAdminRole",
          "type": "bytes32"
        }
      ],
      "name": "RoleAdminChanged",
      "type": "event"
    },
    {
      "anonymous": false,
      "inputs": [
        {
          "indexed": true,
          "internalType": "bytes32",
          "name": "role",
          "type": "bytes32"
        },
        {
          "indexed": true,
          "internalType": "address",
          "name": "account",
          "type": "address"
        },
        {
          "indexed": true,
          "internalType": "address",
          "name": "sender",
          "type": "address"
        }
      ],
      "name": "RoleGranted",
      "type": "event"
    },
    {
      "anonymous": false,
      "inputs": [
        {
          "indexed": true,
          "internalType": "bytes32",
          "name": "role",
          "type": "bytes32"
        },
        {
          "indexed": true,
          "internalType": "address",
          "name": "account",
          "type": "address"
        },
        {
          "indexed": true,
          "internalType": "address",
          "name": "sender",
          "type": "address"
        }
      ],
      "name": "RoleRevoked",
      "type": "event"
    },
    {
      "inputs": [],
      "name": "DEFAULT_ADMIN_ROLE",
      "outputs": [
        {
          "internalType": "bytes32",
          "name": "",
          "type": "bytes32"
        }
      ],
      "stateMutability": "view",
      "type": "function"
    },
    {
      "inputs": [],
      "name": "attestationBatchMaker",
      "outputs": [
        {
          "internalType": "contract AttestationBatchMaker",
          "name": "",
          "type": "address"
        }
      ],
      "stateMutability": "view",
      "type": "function"
    },
    {
      "inputs": [],
      "name": "attestationVerifierProofs",
      "outputs": [
        {
          "internalType": "contract AttestationsVerifierProofs",
          "name": "",
          "type": "address"
        }
      ],
      "stateMutability": "view",
      "type": "function"
    },
    {
      "inputs": [],
      "name": "attestedLightClient",
      "outputs": [
        {
          "internalType": "contract AttestedLightClient",
          "name": "",
          "type": "address"
        }
      ],
      "stateMutability": "view",
      "type": "function"
    },
    {
      "inputs": [],
      "name": "attestersPortal",
      "outputs": [
        {
          "internalType": "contract AttestersPortal",
          "name": "",
          "type": "address"
        }
      ],
      "stateMutability": "view",
      "type": "function"
    },
    {
      "inputs": [
        {
          "components": [
            {
              "internalType": "bytes32",
              "name": "prevHeaderHash",
              "type": "bytes32"
            },
            {
              "internalType": "bytes32",
              "name": "headerHash",
              "type": "bytes32"
            },
            {
              "internalType": "bytes32",
              "name": "stateRoot",
              "type": "bytes32"
            },
            {
              "internalType": "bytes32",
              "name": "txRoot",
              "type": "bytes32"
            },
            {
              "internalType": "bytes32",
              "name": "receiptsRoot",
              "type": "bytes32"
            },
            {
              "internalType": "bytes32",
              "name": "appRoot",
              "type": "bytes32"
            },
            {
              "internalType": "bytes32",
              "name": "epochAppRoot",
              "type": "bytes32"
            },
            {
              "internalType": "bytes32",
              "name": "nextHeaderHash",
              "type": "bytes32"
            }
          ],
          "internalType": "struct L3LightClient.Header",
          "name": "header",
          "type": "tuple"
        }
      ],
      "name": "calculateHeaderId",
      "outputs": [
        {
          "internalType": "bytes32",
          "name": "",
          "type": "bytes32"
        }
      ],
      "stateMutability": "pure",
      "type": "function"
    },
    {
      "inputs": [],
      "name": "checkEpochTransition",
      "outputs": [
        {
          "internalType": "bool",
          "name": "",
          "type": "bool"
        }
      ],
      "stateMutability": "view",
      "type": "function"
    },
    {
      "inputs": [
        {
          "internalType": "bytes32",
          "name": "headerId",
          "type": "bytes32"
        }
      ],
      "name": "checkHeaderHasReachedQuorum",
      "outputs": [
        {
          "internalType": "bool",
          "name": "",
          "type": "bool"
        }
      ],
      "stateMutability": "view",
      "type": "function"
    },
    {
      "inputs": [],
      "name": "collectHeadersGMP",
      "outputs": [
        {
          "internalType": "bytes",
          "name": "",
          "type": "bytes"
        }
      ],
      "stateMutability": "view",
      "type": "function"
    },
    {
      "inputs": [
        {
          "internalType": "bytes32",
          "name": "_headerId",
          "type": "bytes32"
        }
      ],
      "name": "emergencyRemoveHeader",
      "outputs": [],
      "stateMutability": "nonpayable",
      "type": "function"
    },
    {
      "inputs": [],
      "name": "epochCounter",
      "outputs": [
        {
          "internalType": "uint256",
          "name": "",
          "type": "uint256"
        }
      ],
      "stateMutability": "view",
      "type": "function"
    },
    {
      "inputs": [],
      "name": "epochDuration",
      "outputs": [
        {
          "internalType": "uint256",
          "name": "",
          "type": "uint256"
        }
      ],
      "stateMutability": "view",
      "type": "function"
    },
    {
      "inputs": [],
      "name": "getCurrentAppRoot",
      "outputs": [
        {
          "internalType": "bytes32",
          "name": "",
          "type": "bytes32"
        }
      ],
      "stateMutability": "view",
      "type": "function"
    },
    {
      "inputs": [],
      "name": "getHeadersForBatch",
      "outputs": [
        {
          "components": [
            {
              "internalType": "bytes32",
              "name": "prevHeaderHash",
              "type": "bytes32"
            },
            {
              "internalType": "bytes32",
              "name": "headerHash",
              "type": "bytes32"
            },
            {
              "internalType": "bytes32",
              "name": "stateRoot",
              "type": "bytes32"
            },
            {
              "internalType": "bytes32",
              "name": "txRoot",
              "type": "bytes32"
            },
            {
              "internalType": "bytes32",
              "name": "receiptsRoot",
              "type": "bytes32"
            },
            {
              "internalType": "bytes32",
              "name": "appRoot",
              "type": "bytes32"
            },
            {
              "internalType": "bytes32",
              "name": "epochAppRoot",
              "type": "bytes32"
            },
            {
              "internalType": "bytes32",
              "name": "nextHeaderHash",
              "type": "bytes32"
            }
          ],
          "internalType": "struct L3LightClient.Header[]",
          "name": "",
          "type": "tuple[]"
        }
      ],
      "stateMutability": "view",
      "type": "function"
    },
    {
      "inputs": [],
      "name": "getNewest",
      "outputs": [
        {
          "internalType": "bytes32",
          "name": "",
          "type": "bytes32"
        }
      ],
      "stateMutability": "view",
      "type": "function"
    },
    {
      "inputs": [],
      "name": "getOldest",
      "outputs": [
        {
          "internalType": "bytes32",
          "name": "",
          "type": "bytes32"
        }
      ],
      "stateMutability": "view",
      "type": "function"
    },
    {
      "inputs": [
        {
          "internalType": "bytes32",
          "name": "role",
          "type": "bytes32"
        }
      ],
      "name": "getRoleAdmin",
      "outputs": [
        {
          "internalType": "bytes32",
          "name": "",
          "type": "bytes32"
        }
      ],
      "stateMutability": "view",
      "type": "function"
    },
    {
      "inputs": [
        {
          "internalType": "bytes32",
          "name": "role",
          "type": "bytes32"
        },
        {
          "internalType": "address",
          "name": "account",
          "type": "address"
        }
      ],
      "name": "grantRole",
      "outputs": [],
      "stateMutability": "nonpayable",
      "type": "function"
    },
    {
      "inputs": [
        {
          "internalType": "bytes32",
          "name": "role",
          "type": "bytes32"
        },
        {
          "internalType": "address",
          "name": "account",
          "type": "address"
        }
      ],
      "name": "hasRole",
      "outputs": [
        {
          "internalType": "bool",
          "name": "",
          "type": "bool"
        }
      ],
      "stateMutability": "view",
      "type": "function"
    },
    {
      "inputs": [],
      "name": "headerQuorumPercent",
      "outputs": [
        {
          "internalType": "uint256",
          "name": "",
          "type": "uint256"
        }
      ],
      "stateMutability": "view",
      "type": "function"
    },
    {
      "inputs": [
        {
          "internalType": "bytes32",
          "name": "",
          "type": "bytes32"
        }
      ],
      "name": "headersCreatedTimestamp",
      "outputs": [
        {
          "internalType": "uint256",
          "name": "",
          "type": "uint256"
        }
      ],
      "stateMutability": "view",
      "type": "function"
    },
    {
      "inputs": [],
      "name": "headersInBatchLimit",
      "outputs": [
        {
          "internalType": "uint256",
          "name": "",
          "type": "uint256"
        }
      ],
      "stateMutability": "view",
      "type": "function"
    },
    {
      "inputs": [
        {
          "internalType": "bytes32",
          "name": "",
          "type": "bytes32"
        }
      ],
      "name": "headersList",
      "outputs": [
        {
          "internalType": "bytes32",
          "name": "prevHeaderHash",
          "type": "bytes32"
        },
        {
          "internalType": "bytes32",
          "name": "headerHash",
          "type": "bytes32"
        },
        {
          "internalType": "bytes32",
          "name": "stateRoot",
          "type": "bytes32"
        },
        {
          "internalType": "bytes32",
          "name": "txRoot",
          "type": "bytes32"
        },
        {
          "internalType": "bytes32",
          "name": "receiptsRoot",
          "type": "bytes32"
        },
        {
          "internalType": "bytes32",
          "name": "appRoot",
          "type": "bytes32"
        },
        {
          "internalType": "bytes32",
          "name": "epochAppRoot",
          "type": "bytes32"
        },
        {
          "internalType": "bytes32",
          "name": "nextHeaderHash",
          "type": "bytes32"
        }
      ],
      "stateMutability": "view",
      "type": "function"
    },
    {
      "inputs": [
        {
          "internalType": "bytes32",
          "name": "",
          "type": "bytes32"
        },
        {
          "internalType": "uint256",
          "name": "",
          "type": "uint256"
        }
      ],
      "name": "headersSupport",
      "outputs": [
        {
          "internalType": "address",
          "name": "attester",
          "type": "address"
        },
        {
          "internalType": "bytes32",
          "name": "headerId",
          "type": "bytes32"
        },
        {
          "internalType": "bytes",
          "name": "signature",
          "type": "bytes"
        }
      ],
      "stateMutability": "view",
      "type": "function"
    },
    {
      "inputs": [
        {
          "internalType": "address",
          "name": "_owner",
          "type": "address"
        }
      ],
      "name": "initialize",
      "outputs": [],
      "stateMutability": "nonpayable",
      "type": "function"
    },
    {
      "inputs": [],
      "name": "lastEpochTimestamp",
      "outputs": [
        {
          "internalType": "uint256",
          "name": "",
          "type": "uint256"
        }
      ],
      "stateMutability": "view",
      "type": "function"
    },
    {
      "inputs": [],
      "name": "lastInBatchHeaderId",
      "outputs": [
        {
          "internalType": "bytes32",
          "name": "",
          "type": "bytes32"
        }
      ],
      "stateMutability": "view",
      "type": "function"
    },
    {
      "inputs": [],
      "name": "lastInBatchTimestamp",
      "outputs": [
        {
          "internalType": "uint256",
          "name": "",
          "type": "uint256"
        }
      ],
      "stateMutability": "view",
      "type": "function"
    },
    {
      "inputs": [
        {
          "internalType": "bytes32",
          "name": "_headerId",
          "type": "bytes32"
        }
      ],
      "name": "markBatchCollectedTimestamp",
      "outputs": [
        {
          "internalType": "bool",
          "name": "",
          "type": "bool"
        }
      ],
      "stateMutability": "nonpayable",
      "type": "function"
    },
    {
      "inputs": [],
      "name": "newest",
      "outputs": [
        {
          "internalType": "bytes32",
          "name": "",
          "type": "bytes32"
        }
      ],
      "stateMutability": "view",
      "type": "function"
    },
    {
      "inputs": [],
      "name": "oldest",
      "outputs": [
        {
          "internalType": "bytes32",
          "name": "",
          "type": "bytes32"
        }
      ],
      "stateMutability": "view",
      "type": "function"
    },
    {
      "inputs": [],
      "name": "remoteLiquidityWell",
      "outputs": [
        {
          "internalType": "contract RemoteLiquidityWell",
          "name": "",
          "type": "address"
        }
      ],
      "stateMutability": "view",
      "type": "function"
    },
    {
      "inputs": [
        {
          "internalType": "bytes32",
          "name": "role",
          "type": "bytes32"
        },
        {
          "internalType": "address",
          "name": "account",
          "type": "address"
        }
      ],
      "name": "renounceRole",
      "outputs": [],
      "stateMutability": "nonpayable",
      "type": "function"
    },
    {
      "inputs": [
        {
          "internalType": "bytes32",
          "name": "role",
          "type": "bytes32"
        },
        {
          "internalType": "address",
          "name": "account",
          "type": "address"
        }
      ],
      "name": "revokeRole",
      "outputs": [],
      "stateMutability": "nonpayable",
      "type": "function"
    },
    {
      "inputs": [
        {
          "internalType": "address payable",
          "name": "_attestationBatchMaker",
          "type": "address"
        }
      ],
      "name": "setAttestationBatchMaker",
      "outputs": [],
      "stateMutability": "nonpayable",
      "type": "function"
    },
    {
      "inputs": [
        {
          "internalType": "address payable",
          "name": "_attestationVerifierProofs",
          "type": "address"
        }
      ],
      "name": "setAttestationVerifierProofs",
      "outputs": [],
      "stateMutability": "nonpayable",
      "type": "function"
    },
    {
      "inputs": [
        {
          "internalType": "address payable",
          "name": "_attestedLightClient",
          "type": "address"
        }
      ],
      "name": "setAttestedLightClient",
      "outputs": [],
      "stateMutability": "nonpayable",
      "type": "function"
    },
    {
      "inputs": [
        {
          "internalType": "address payable",
          "name": "_attestersPortal",
          "type": "address"
        }
      ],
      "name": "setAttestersPortal",
      "outputs": [],
      "stateMutability": "nonpayable",
      "type": "function"
    },
    {
      "inputs": [
        {
          "internalType": "uint256",
          "name": "_epochDuration",
          "type": "uint256"
        }
      ],
      "name": "setEpochDuration",
      "outputs": [],
      "stateMutability": "nonpayable",
      "type": "function"
    },
    {
      "inputs": [
        {
          "internalType": "uint256",
          "name": "_headerQuorumPercent",
          "type": "uint256"
        }
      ],
      "name": "setHeaderQuorumPercent",
      "outputs": [],
      "stateMutability": "nonpayable",
      "type": "function"
    },
    {
      "inputs": [
        {
          "internalType": "uint256",
          "name": "_headersInBatchLimit",
          "type": "uint256"
        }
      ],
      "name": "setHeadersInBatchLimit",
      "outputs": [],
      "stateMutability": "nonpayable",
      "type": "function"
    },
    {
      "inputs": [
        {
          "internalType": "address payable",
          "name": "_remoteLiquidityWell",
          "type": "address"
        }
      ],
      "name": "setRemoteLiquidityWell",
      "outputs": [],
      "stateMutability": "nonpayable",
      "type": "function"
    },
    {
      "inputs": [
        {
          "internalType": "bytes32",
          "name": "_version",
          "type": "bytes32"
        }
      ],
      "name": "setVersion",
      "outputs": [],
      "stateMutability": "nonpayable",
      "type": "function"
    },
    {
      "inputs": [
        {
          "internalType": "bytes32",
          "name": "headerHash",
          "type": "bytes32"
        },
        {
          "internalType": "bytes32",
          "name": "prevHeaderHash",
          "type": "bytes32"
        },
        {
          "internalType": "bytes32",
          "name": "stateRoot",
          "type": "bytes32"
        },
        {
          "internalType": "bytes32",
          "name": "txRoot",
          "type": "bytes32"
        },
        {
          "internalType": "bytes32",
          "name": "receiptsRoot",
          "type": "bytes32"
        },
        {
          "internalType": "bytes32",
          "name": "epochAppRoot",
          "type": "bytes32"
        },
        {
          "internalType": "bytes32",
          "name": "appRoot",
          "type": "bytes32"
        },
        {
          "internalType": "bytes",
          "name": "signature",
          "type": "bytes"
        }
      ],
      "name": "supportCircuitHeader",
      "outputs": [],
      "stateMutability": "nonpayable",
      "type": "function"
    },
    {
      "inputs": [
        {
          "internalType": "bytes4",
          "name": "interfaceId",
          "type": "bytes4"
        }
      ],
      "name": "supportsInterface",
      "outputs": [
        {
          "internalType": "bool",
          "name": "",
          "type": "bool"
        }
      ],
      "stateMutability": "view",
      "type": "function"
    },
    {
      "inputs": [
        {
          "internalType": "bytes4",
          "name": "_chainId",
          "type": "bytes4"
        },
        {
          "internalType": "bytes32",
          "name": "_headerId",
          "type": "bytes32"
        },
        {
          "internalType": "bytes32[]",
          "name": "_proof",
          "type": "bytes32[]"
        },
        {
          "internalType": "bytes32",
          "name": "_appAsLeaf",
          "type": "bytes32"
        }
      ],
      "name": "verifyAppInclusion",
      "outputs": [
        {
          "internalType": "bool",
          "name": "",
          "type": "bool"
        }
      ],
      "stateMutability": "view",
      "type": "function"
    },
    {
      "inputs": [
        {
          "internalType": "bytes32",
          "name": "_headerId",
          "type": "bytes32"
        },
        {
          "internalType": "bytes32",
          "name": "_appRoot",
          "type": "bytes32"
        }
      ],
      "name": "verifyEitherAppRoot",
      "outputs": [
        {
          "internalType": "bool",
          "name": "",
          "type": "bool"
        }
      ],
      "stateMutability": "view",
      "type": "function"
    },
    {
      "inputs": [
        {
          "internalType": "bytes4",
          "name": "_chainId",
          "type": "bytes4"
        },
        {
          "internalType": "bytes32",
          "name": "_headerId",
          "type": "bytes32"
        },
        {
          "internalType": "bytes32[]",
          "name": "_proof",
          "type": "bytes32[]"
        },
        {
          "internalType": "bytes32",
          "name": "_epochAppAsLeaf",
          "type": "bytes32"
        }
      ],
      "name": "verifyEpochAppInclusion",
      "outputs": [
        {
          "internalType": "bool",
          "name": "",
          "type": "bool"
        }
      ],
      "stateMutability": "view",
      "type": "function"
    },
    {
      "inputs": [
        {
          "internalType": "bytes4",
          "name": "_chainId",
          "type": "bytes4"
        },
        {
          "internalType": "bytes32",
          "name": "_headerId",
          "type": "bytes32"
        },
        {
          "internalType": "bytes32[]",
          "name": "_proof",
          "type": "bytes32[]"
        },
        {
          "internalType": "bytes32",
          "name": "_receiptAsLeaf",
          "type": "bytes32"
        }
      ],
      "name": "verifyReceiptInclusion",
      "outputs": [
        {
          "internalType": "bool",
          "name": "",
          "type": "bool"
        }
      ],
      "stateMutability": "view",
      "type": "function"
    },
    {
      "inputs": [
        {
          "internalType": "bytes4",
          "name": "_chainId",
          "type": "bytes4"
        },
        {
          "internalType": "bytes32",
          "name": "_headerId",
          "type": "bytes32"
        },
        {
          "internalType": "bytes32[]",
          "name": "_proof",
          "type": "bytes32[]"
        },
        {
          "internalType": "bytes32",
          "name": "_stateAsLeaf",
          "type": "bytes32"
        }
      ],
      "name": "verifyStateInclusion",
      "outputs": [
        {
          "internalType": "bool",
          "name": "",
          "type": "bool"
        }
      ],
      "stateMutability": "view",
      "type": "function"
    },
    {
      "inputs": [
        {
          "internalType": "bytes4",
          "name": "_chainId",
          "type": "bytes4"
        },
        {
          "internalType": "bytes32",
          "name": "_headerId",
          "type": "bytes32"
        },
        {
          "internalType": "bytes32[]",
          "name": "_proof",
          "type": "bytes32[]"
        },
        {
          "internalType": "bytes32",
          "name": "_txAsLeaf",
          "type": "bytes32"
        }
      ],
      "name": "verifyTxInclusion",
      "outputs": [
        {
          "internalType": "bool",
          "name": "",
          "type": "bool"
        }
      ],
      "stateMutability": "view",
      "type": "function"
    },
    {
      "inputs": [],
      "name": "version",
      "outputs": [
        {
          "internalType": "bytes32",
          "name": "",
          "type": "bytes32"
        }
      ],
      "stateMutability": "view",
      "type": "function"
    }
  ],
  "bytecode": "0x60806040523480156200001157600080fd5b50620000226200002860201b60201c565b620001d2565b600060019054906101000a900460ff16156200007b576040517f08c379a0000000000000000000000000000000000000000000000000000000008152600401620000729062000175565b60405180910390fd5b60ff801660008054906101000a900460ff1660ff1614620000ec5760ff6000806101000a81548160ff021916908360ff1602179055507f7f26b83ff96e1f2b6a682f133852f6798a09c465da95921460cefb384740249860ff604051620000e39190620001b5565b60405180910390a15b565b600082825260208201905092915050565b7f496e697469616c697a61626c653a20636f6e747261637420697320696e69746960008201527f616c697a696e6700000000000000000000000000000000000000000000000000602082015250565b60006200015d602783620000ee565b91506200016a82620000ff565b604082019050919050565b6000602082019050818103600083015262000190816200014e565b9050919050565b600060ff82169050919050565b620001af8162000197565b82525050565b6000602082019050620001cc6000830184620001a4565b92915050565b614b1680620001e26000396000f3fe608060405234801561001057600080fd5b506004361061030c5760003560e01c80638749d9601161019d578063bb4ebc24116100e9578063d03685cb116100a2578063e2c618bb1161007c578063e2c618bb1461097d578063f118c86d146109b4578063f3d218c2146109d2578063f64fc64714610a045761030c565b8063d03685cb14610929578063d547741f14610945578063e29434d3146109615761030c565b8063bb4ebc241461087d578063bd53412d14610899578063c4d66de8146108b7578063c59604b3146108d3578063ca5f81b5146108f1578063cf07732d1461090d5761030c565b80639491756511610156578063a03036a911610130578063a03036a9146107f7578063a217fddf14610827578063a431eacc14610845578063af3c7a8c146108615761030c565b806394917565146107795780639d62fecf146107975780639db7e9b9146107c75761030c565b80638749d9601461066b5780638a9fa4a21461069b5780638bdbdac1146106cb5780638e8aba4e146106e957806391d148541461071957806393d17128146107495761030c565b80633aac5d3d1161025c5780634ff0876a1161021557806354fd4d50116101ef57806354fd4d50146105f55780635e9f32ca146106135780636b8b0a831461062f5780637d02bc1c1461064d5761030c565b80634ff0876a1461059b5780635176d03a146105b957806351cf9bc6146105d75761030c565b80633aac5d3d146104c55780633c3c22b3146104e35780633d50e17814610501578063418730761461051f57806345b3ac9f1461054f5780634ea06fe41461056b5761030c565b8063248a9ca3116102c95780633270c014116102a35780633270c0141461043d57806336568abe1461045b57806336ed589f14610477578063375f547a146104955761030c565b8063248a9ca3146103d55780632f2ff15d1461040557806330024dfe146104215761030c565b806301ffc9a714610311578063070fb4c71461034157806314b19c5a1461035f578063228473c11461037d578063228e75561461039b5780632471c44c146103b9575b600080fd5b61032b60048036038101906103269190612e3e565b610a22565b6040516103389190612e86565b60405180910390f35b610349610a9c565b6040516103569190612eba565b60405180910390f35b610367610aa2565b6040516103749190612eba565b60405180910390f35b610385610aa8565b6040516103929190612eee565b60405180910390f35b6103a3610ab2565b6040516103b09190612f88565b60405180910390f35b6103d360048036038101906103ce9190612fcf565b610ad8565b005b6103ef60048036038101906103ea9190612fcf565b610c88565b6040516103fc9190612eee565b60405180910390f35b61041f600480360381019061041a919061303a565b610ca8565b005b61043b600480360381019061043691906130a6565b610cc9565b005b610445610d1f565b6040516104529190612eee565b60405180910390f35b6104756004803603810190610470919061303a565b610d3f565b005b61047f610dc2565b60405161048c9190612eee565b60405180910390f35b6104af60048036038101906104aa919061322c565b610dc8565b6040516104bc9190612e86565b60405180910390f35b6104cd610e50565b6040516104da91906132e2565b60405180910390f35b6104eb610e76565b6040516104f89190612eee565b60405180910390f35b610509610e7c565b604051610516919061337c565b60405180910390f35b61053960048036038101906105349190612fcf565b6110a0565b6040516105469190612e86565b60405180910390f35b610569600480360381019061056491906133f9565b6111c6565b005b61058560048036038101906105809190612fcf565b61159d565b6040516105929190612eba565b60405180910390f35b6105a36115b5565b6040516105b09190612eba565b60405180910390f35b6105c16115bb565b6040516105ce91906134f0565b60405180910390f35b6105df6115e1565b6040516105ec919061352c565b60405180910390f35b6105fd611607565b60405161060a9190612eee565b60405180910390f35b61062d60048036038101906106289190613585565b61160d565b005b61063761169d565b6040516106449190612eba565b60405180910390f35b6106556116a3565b6040516106629190612eee565b60405180910390f35b610685600480360381019061068091906135b2565b6116ad565b6040516106929190612e86565b60405180910390f35b6106b560048036038101906106b09190612fcf565b6116f0565b6040516106c29190612e86565b60405180910390f35b6106d3611799565b6040516106e09190612eee565b60405180910390f35b61070360048036038101906106fe91906136c1565b61179f565b6040516107109190612eee565b60405180910390f35b610733600480360381019061072e919061303a565b6117f7565b6040516107409190612e86565b60405180910390f35b610763600480360381019061075e919061322c565b611862565b6040516107709190612e86565b60405180910390f35b6107816118ea565b60405161078e9190612e86565b60405180910390f35b6107b160048036038101906107ac919061322c565b611904565b6040516107be9190612e86565b60405180910390f35b6107e160048036038101906107dc919061322c565b61198c565b6040516107ee9190612e86565b60405180910390f35b610811600480360381019061080c919061322c565b611a14565b60405161081e9190612e86565b60405180910390f35b61082f611a9c565b60405161083c9190612eee565b60405180910390f35b61085f600480360381019061085a91906130a6565b611aa3565b005b61087b60048036038101906108769190613585565b611af9565b005b61089760048036038101906108929190613585565b611b89565b005b6108a1611c19565b6040516108ae9190612eba565b60405180910390f35b6108d160048036038101906108cc91906136ef565b611c1f565b005b6108db611d7d565b6040516108e8919061387d565b60405180910390f35b61090b60048036038101906109069190612fcf565b612003565b005b61092760048036038101906109229190613585565b612059565b005b610943600480360381019061093e9190613585565b6120e9565b005b61095f600480360381019061095a919061303a565b612179565b005b61097b600480360381019061097691906130a6565b61219a565b005b61099760048036038101906109929190612fcf565b6121f0565b6040516109ab98979695949392919061389f565b60405180910390f35b6109bc612238565b6040516109c9919061393e565b60405180910390f35b6109ec60048036038101906109e79190613959565b61225e565b6040516109fb939291906139a8565b60405180910390f35b610a0c61234d565b604051610a199190612eba565b60405180910390f35b60007f7965db0b000000000000000000000000000000000000000000000000000000007bffffffffffffffffffffffffffffffffffffffffffffffffffffffff1916827bffffffffffffffffffffffffffffffffffffffffffffffffffffffff19161480610a955750610a9482612353565b5b9050919050565b60a65481565b60a45481565b600060a154905090565b609860009054906101000a900473ffffffffffffffffffffffffffffffffffffffff1681565b610ae56000801b336117f7565b610b24576040517f08c379a0000000000000000000000000000000000000000000000000000000008152600401610b1b90613a69565b60405180910390fd5b6000801b8103610b69576040517f08c379a0000000000000000000000000000000000000000000000000000000008152600401610b6090613ad5565b60405180910390fd5b6000801b609e600083815260200190815260200160002060000154141580610baa57506000801b609e60008381526020019081526020016000206007015414155b610be9576040517f08c379a0000000000000000000000000000000000000000000000000000000008152600401610be090613b41565b60405180910390fd5b6000609e60008381526020019081526020016000206000015490506000609e60008481526020019081526020016000206007015490506000801b8214610c495780609e600084815260200190815260200160002060070181905550610c51565b8060a2819055505b6000801b8114610c7b5781609e600083815260200190815260200160002060000181905550610c83565b8160a1819055505b505050565b600060656000838152602001908152602001600020600101549050919050565b610cb182610c88565b610cba816123bd565b610cc483836123d1565b505050565b610cd66000801b336117f7565b610d15576040517f08c379a0000000000000000000000000000000000000000000000000000000008152600401610d0c90613a69565b60405180910390fd5b80609c8190555050565b6000609e600060a154815260200190815260200160002060050154905090565b610d476124b2565b73ffffffffffffffffffffffffffffffffffffffff168173ffffffffffffffffffffffffffffffffffffffff1614610db4576040517f08c379a0000000000000000000000000000000000000000000000000000000008152600401610dab90613bd3565b60405180910390fd5b610dbe82826124ba565b5050565b60a55481565b60008060001b609e60008681526020019081526020016000206001015403610e25576040517f08c379a0000000000000000000000000000000000000000000000000000000008152600401610e1c90613c3f565b60405180910390fd5b610e4683609e6000878152602001908152602001600020600301548461259c565b9050949350505050565b609760009054906101000a900473ffffffffffffffffffffffffffffffffffffffff1681565b60a25481565b6060609860009054906101000a900473ffffffffffffffffffffffffffffffffffffffff1673ffffffffffffffffffffffffffffffffffffffff163373ffffffffffffffffffffffffffffffffffffffff1614610f0e576040517f08c379a0000000000000000000000000000000000000000000000000000000008152600401610f0590613cd1565b60405180910390fd5b6000610f18611d7d565b90506000815103610f7957600067ffffffffffffffff811115610f3e57610f3d6130e9565b5b6040519080825280601f01601f191660200182016040528015610f705781602001600182028036833780820191505090505b5091505061109d565b6000600167ffffffffffffffff811115610f9657610f956130e9565b5b6040519080825280601f01601f191660200182016040528015610fc85781602001600182028036833780820191505090505b509050600460f81b81600081518110610fe457610fe3613cf1565b5b60200101907effffffffffffffffffffffffffffffffffffffffffffffffffffffffffffff1916908160001a90535060005b825181101561109657600083828151811061103457611033613cf1565b5b6020026020010151905082816000015182602001518360400151846060015185608001518660c001518760a00151604051602001611079989796959493929190613d7d565b604051602081830303815290604052925050806001019050611016565b5080925050505b90565b600080609760009054906101000a900473ffffffffffffffffffffffffffffffffffffffff1673ffffffffffffffffffffffffffffffffffffffff1663484f657b6040518163ffffffff1660e01b8152600401600060405180830381865afa158015611110573d6000803e3d6000fd5b505050506040513d6000823e3d601f19601f820116820180604052508101906111399190613ee3565b905060008151905060008103611184576040517f08c379a000000000000000000000000000000000000000000000000000000000815260040161117b90613f78565b60405180910390fd5b600081606460a06000888152602001908152602001600020805490506111aa9190613fc7565b6111b49190614038565b905060a8548110159350505050919050565b609760009054906101000a900473ffffffffffffffffffffffffffffffffffffffff1673ffffffffffffffffffffffffffffffffffffffff1663ee06b289336040518263ffffffff1660e01b81526004016112219190614069565b602060405180830381865afa15801561123e573d6000803e3d6000fd5b505050506040513d601f19601f8201168201806040525081019061126291906140b0565b6112a1576040517f08c379a00000000000000000000000000000000000000000000000000000000081526004016112989061414f565b60405180910390fd5b60006040518061010001604052808a81526020018b81526020018981526020018881526020018781526020018581526020018681526020016000801b815250905060006112ed8261179f565b9050600060a0600083815260200190815260200160002090506000801b609e60008481526020019081526020016000206001015414611361576040517f08c379a0000000000000000000000000000000000000000000000000000000008152600401611358906141bb565b60405180910390fd5b60005b818054905081101561142d573373ffffffffffffffffffffffffffffffffffffffff1682828154811061139a57611399613cf1565b5b906000526020600020906003020160000160009054906101000a900473ffffffffffffffffffffffffffffffffffffffff1673ffffffffffffffffffffffffffffffffffffffff1603611422576040517f08c379a000000000000000000000000000000000000000000000000000000000815260040161141990614227565b60405180910390fd5b806001019050611364565b508060405180606001604052803373ffffffffffffffffffffffffffffffffffffffff16815260200184815260200187878080601f016020809104026020016040519081016040528093929190818152602001838380828437600081840152601f19601f82011690508083019250505050505050815250908060018154018082558091505060019003906000526020600020906003020160009091909190915060008201518160000160006101000a81548173ffffffffffffffffffffffffffffffffffffffff021916908373ffffffffffffffffffffffffffffffffffffffff1602179055506020820151816001015560408201518160020190816115339190614449565b50505061153f826110a0565b1561155657611554828c8e8d8d8d8d8d6125b3565b505b7ffdb9ba83e284a0c9b02484b7d7ce41e84018a527f006b942e926ca8ccaed8eed82846040516115879291906145bd565b60405180910390a1505050505050505050505050565b609f6020528060005260406000206000915090505481565b609c5481565b609a60009054906101000a900473ffffffffffffffffffffffffffffffffffffffff1681565b609b60009054906101000a900473ffffffffffffffffffffffffffffffffffffffff1681565b609d5481565b61161a6000801b336117f7565b611659576040517f08c379a000000000000000000000000000000000000000000000000000000000815260040161165090613a69565b60405180910390fd5b80609860006101000a81548173ffffffffffffffffffffffffffffffffffffffff021916908373ffffffffffffffffffffffffffffffffffffffff16021790555050565b60a75481565b600060a254905090565b600081609e60008581526020019081526020016000206005015414806116e8575081609e600085815260200190815260200160002060060154145b905092915050565b6000609860009054906101000a900473ffffffffffffffffffffffffffffffffffffffff1673ffffffffffffffffffffffffffffffffffffffff163373ffffffffffffffffffffffffffffffffffffffff1614611782576040517f08c379a000000000000000000000000000000000000000000000000000000000815260040161177990613cd1565b60405180910390fd5b8160a5819055504260a68190555060019050919050565b60a15481565b6000816000015182602001518360400151846060015185608001518660c001518760a001516040516020016117da97969594939291906145e7565b604051602081830303815290604052805190602001209050919050565b60006065600084815260200190815260200160002060000160008373ffffffffffffffffffffffffffffffffffffffff1673ffffffffffffffffffffffffffffffffffffffff16815260200190815260200160002060009054906101000a900460ff16905092915050565b60008060001b609e600086815260200190815260200160002060010154036118bf576040517f08c379a00000000000000000000000000000000000000000000000000000000081526004016118b690613c3f565b60405180910390fd5b6118e083609e6000878152602001908152602001600020600401548461259c565b9050949350505050565b6000609c5460a3546118fc9190614668565b421015905090565b60008060001b609e60008681526020019081526020016000206001015403611961576040517f08c379a000000000000000000000000000000000000000000000000000000000815260040161195890613c3f565b60405180910390fd5b61198283609e6000878152602001908152602001600020600201548461259c565b9050949350505050565b60008060001b609e600086815260200190815260200160002060010154036119e9576040517f08c379a00000000000000000000000000000000000000000000000000000000081526004016119e090613c3f565b60405180910390fd5b611a0a83609e6000878152602001908152602001600020600601548461259c565b9050949350505050565b60008060001b609e60008681526020019081526020016000206001015403611a71576040517f08c379a0000000000000000000000000000000000000000000000000000000008152600401611a6890613c3f565b60405180910390fd5b611a9283609e6000878152602001908152602001600020600501548461259c565b9050949350505050565b6000801b81565b611ab06000801b336117f7565b611aef576040517f08c379a0000000000000000000000000000000000000000000000000000000008152600401611ae690613a69565b60405180910390fd5b8060a78190555050565b611b066000801b336117f7565b611b45576040517f08c379a0000000000000000000000000000000000000000000000000000000008152600401611b3c90613a69565b60405180910390fd5b80609b60006101000a81548173ffffffffffffffffffffffffffffffffffffffff021916908373ffffffffffffffffffffffffffffffffffffffff16021790555050565b611b966000801b336117f7565b611bd5576040517f08c379a0000000000000000000000000000000000000000000000000000000008152600401611bcc90613a69565b60405180910390fd5b80609a60006101000a81548173ffffffffffffffffffffffffffffffffffffffff021916908373ffffffffffffffffffffffffffffffffffffffff16021790555050565b60a85481565b60008060019054906101000a900460ff16159050808015611c505750600160008054906101000a900460ff1660ff16105b80611c7d5750611c5f3061286f565b158015611c7c5750600160008054906101000a900460ff1660ff16145b5b611cbc576040517f08c379a0000000000000000000000000000000000000000000000000000000008152600401611cb39061470e565b60405180910390fd5b60016000806101000a81548160ff021916908360ff1602179055508015611cf9576001600060016101000a81548160ff0219169083151502179055505b611d01612892565b611d0e6000801b836123d1565b600a60a78190555062093a80609c819055508015611d795760008060016101000a81548160ff0219169083151502179055507f7f26b83ff96e1f2b6a682f133852f6798a09c465da95921460cefb38474024986001604051611d709190614776565b60405180910390a15b5050565b6060600060a75467ffffffffffffffff811115611d9d57611d9c6130e9565b5b604051908082528060200260200182016040528015611dd657816020015b611dc3612d75565b815260200190600190039081611dbb5790505b509050600060a55490506000801b8103611df05760a25490505b6000805b60a754811015611f50576000801b830315611f50576000609e6000858152602001908152602001600020604051806101000160405290816000820154815260200160018201548152602001600282015481526020016003820154815260200160048201548152602001600582015481526020016006820154815260200160078201548152505090506000801b816020015103611e905750611f50565b609e60008581526020019081526020016000206040518061010001604052908160008201548152602001600182015481526020016002820154815260200160038201548152602001600482015481526020016005820154815260200160068201548152602001600782015481525050858381518110611f1257611f11613cf1565b5b6020026020010181905250609e60008581526020019081526020016000206007015493508280611f4190614791565b93505050806001019050611df4565b5060008167ffffffffffffffff811115611f6d57611f6c6130e9565b5b604051908082528060200260200182016040528015611fa657816020015b611f93612d75565b815260200190600190039081611f8b5790505b50905060005b82811015611ff857848181518110611fc757611fc6613cf1565b5b6020026020010151828281518110611fe257611fe1613cf1565b5b6020026020010181905250806001019050611fac565b508094505050505090565b6120106000801b336117f7565b61204f576040517f08c379a000000000000000000000000000000000000000000000000000000000815260040161204690613a69565b60405180910390fd5b80609d8190555050565b6120666000801b336117f7565b6120a5576040517f08c379a000000000000000000000000000000000000000000000000000000000815260040161209c90613a69565b60405180910390fd5b80609960006101000a81548173ffffffffffffffffffffffffffffffffffffffff021916908373ffffffffffffffffffffffffffffffffffffffff16021790555050565b6120f66000801b336117f7565b612135576040517f08c379a000000000000000000000000000000000000000000000000000000000815260040161212c90613a69565b60405180910390fd5b80609760006101000a81548173ffffffffffffffffffffffffffffffffffffffff021916908373ffffffffffffffffffffffffffffffffffffffff16021790555050565b61218282610c88565b61218b816123bd565b61219583836124ba565b505050565b6121a76000801b336117f7565b6121e6576040517f08c379a00000000000000000000000000000000000000000000000000000000081526004016121dd90613a69565b60405180910390fd5b8060a88190555050565b609e6020528060005260406000206000915090508060000154908060010154908060020154908060030154908060040154908060050154908060060154908060070154905088565b609960009054906101000a900473ffffffffffffffffffffffffffffffffffffffff1681565b60a0602052816000526040600020818154811061227a57600080fd5b9060005260206000209060030201600091509150508060000160009054906101000a900473ffffffffffffffffffffffffffffffffffffffff16908060010154908060020180546122ca90614276565b80601f01602080910402602001604051908101604052809291908181526020018280546122f690614276565b80156123435780601f1061231857610100808354040283529160200191612343565b820191906000526020600020905b81548152906001019060200180831161232657829003601f168201915b5050505050905083565b60a35481565b60007f01ffc9a7000000000000000000000000000000000000000000000000000000007bffffffffffffffffffffffffffffffffffffffffffffffffffffffff1916827bffffffffffffffffffffffffffffffffffffffffffffffffffffffff1916149050919050565b6123ce816123c96124b2565b6128e3565b50565b6123db82826117f7565b6124ae5760016065600084815260200190815260200160002060000160008373ffffffffffffffffffffffffffffffffffffffff1673ffffffffffffffffffffffffffffffffffffffff16815260200190815260200160002060006101000a81548160ff0219169083151502179055506124536124b2565b73ffffffffffffffffffffffffffffffffffffffff168173ffffffffffffffffffffffffffffffffffffffff16837f2f8788117e7eff1d82e926ec794901d17c78024a50270940304540a733656f0d60405160405180910390a45b5050565b600033905090565b6124c482826117f7565b156125985760006065600084815260200190815260200160002060000160008373ffffffffffffffffffffffffffffffffffffffff1673ffffffffffffffffffffffffffffffffffffffff16815260200190815260200160002060006101000a81548160ff02191690831515021790555061253d6124b2565b73ffffffffffffffffffffffffffffffffffffffff168173ffffffffffffffffffffffffffffffffffffffff16837ff6391f5c32d9c69d2a47ea670b442974b53935d1edc7fd64eb21e047a839171b60405160405180910390a45b5050565b6000826125a98584612968565b1490509392505050565b6000806040518061010001604052808a81526020018981526020018881526020018781526020018681526020018481526020018581526020016000801b81525090506125fe8161179f565b8a1461263f576040517f08c379a000000000000000000000000000000000000000000000000000000000815260040161263690614825565b60405180910390fd5b6000801b609e60008c81526020019081526020016000206001015414612669576000915050612863565b6000801b60a154148061268057506000801b60a254145b1561275d578960a1819055508960a28190555080609e60008c8152602001908152602001600020600082015181600001556020820151816001015560408201518160020155606082015181600301556080820151816004015560a0820151816005015560c0820151816006015560e0820151816007015590505042609f60008c81526020019081526020016000208190555061271a6129b8565b7f2a5fc362d2d8789a6ad3567452db34018b9ad870bce9acc2f97654065c2874b78a8260405161274b9291906145bd565b60405180910390a16001915050612863565b6000609e600060a154815260200190815260200160002090508981600101541461278c57600092505050612863565b8a816007018190555081609e60008d8152602001908152602001600020600082015181600001556020820151816001015560408201518160020155606082015181600301556080820151816004015560a0820151816005015560c0820151816006015560e0820151816007015590505042609f60008d8152602001908152602001600020819055508a60a1819055506128236129b8565b7f2a5fc362d2d8789a6ad3567452db34018b9ad870bce9acc2f97654065c2874b78b836040516128549291906145bd565b60405180910390a16001925050505b98975050505050505050565b6000808273ffffffffffffffffffffffffffffffffffffffff163b119050919050565b600060019054906101000a900460ff166128e1576040517f08c379a00000000000000000000000000000000000000000000000000000000081526004016128d8906148b7565b60405180910390fd5b565b6128ed82826117f7565b612964576128fa816129d0565b6129088360001c60206129fd565b6040516020016129199291906149b6565b6040516020818303038152906040526040517f08c379a000000000000000000000000000000000000000000000000000000000815260040161295b9190614a29565b60405180910390fd5b5050565b60008082905060005b84518110156129ad5761299e8286838151811061299157612990613cf1565b5b6020026020010151612c39565b91508080600101915050612971565b508091505092915050565b6129c06118ea565b156129ce576129cd612c64565b5b565b60606129f68273ffffffffffffffffffffffffffffffffffffffff16601460ff166129fd565b9050919050565b606060006002836002612a109190613fc7565b612a1a9190614668565b67ffffffffffffffff811115612a3357612a326130e9565b5b6040519080825280601f01601f191660200182016040528015612a655781602001600182028036833780820191505090505b5090507f300000000000000000000000000000000000000000000000000000000000000081600081518110612a9d57612a9c613cf1565b5b60200101907effffffffffffffffffffffffffffffffffffffffffffffffffffffffffffff1916908160001a9053507f780000000000000000000000000000000000000000000000000000000000000081600181518110612b0157612b00613cf1565b5b60200101907effffffffffffffffffffffffffffffffffffffffffffffffffffffffffffff1916908160001a90535060006001846002612b419190613fc7565b612b4b9190614668565b90505b6001811115612beb577f3031323334353637383961626364656600000000000000000000000000000000600f861660108110612b8d57612b8c613cf1565b5b1a60f81b828281518110612ba457612ba3613cf1565b5b60200101907effffffffffffffffffffffffffffffffffffffffffffffffffffffffffffff1916908160001a905350600485901c945080612be490614a4b565b9050612b4e565b5060008414612c2f576040517f08c379a0000000000000000000000000000000000000000000000000000000008152600401612c2690614ac0565b60405180910390fd5b8091505092915050565b6000818310612c5157612c4c8284612d5e565b612c5c565b612c5b8383612d5e565b5b905092915050565b4260a38190555060a46000815480929190612c7e90614791565b9190505550600073ffffffffffffffffffffffffffffffffffffffff16609a60009054906101000a900473ffffffffffffffffffffffffffffffffffffffff1673ffffffffffffffffffffffffffffffffffffffff1614612d5c57609a60009054906101000a900473ffffffffffffffffffffffffffffffffffffffff1673ffffffffffffffffffffffffffffffffffffffff166305ad10f96040518163ffffffff1660e01b8152600401600060405180830381600087803b158015612d4357600080fd5b505af1158015612d57573d6000803e3d6000fd5b505050505b565b600082600052816020526040600020905092915050565b60405180610100016040528060008019168152602001600080191681526020016000801916815260200160008019168152602001600080191681526020016000801916815260200160008019168152602001600080191681525090565b6000604051905090565b600080fd5b600080fd5b60007fffffffff0000000000000000000000000000000000000000000000000000000082169050919050565b612e1b81612de6565b8114612e2657600080fd5b50565b600081359050612e3881612e12565b92915050565b600060208284031215612e5457612e53612ddc565b5b6000612e6284828501612e29565b91505092915050565b60008115159050919050565b612e8081612e6b565b82525050565b6000602082019050612e9b6000830184612e77565b92915050565b6000819050919050565b612eb481612ea1565b82525050565b6000602082019050612ecf6000830184612eab565b92915050565b6000819050919050565b612ee881612ed5565b82525050565b6000602082019050612f036000830184612edf565b92915050565b600073ffffffffffffffffffffffffffffffffffffffff82169050919050565b6000819050919050565b6000612f4e612f49612f4484612f09565b612f29565b612f09565b9050919050565b6000612f6082612f33565b9050919050565b6000612f7282612f55565b9050919050565b612f8281612f67565b82525050565b6000602082019050612f9d6000830184612f79565b92915050565b612fac81612ed5565b8114612fb757600080fd5b50565b600081359050612fc981612fa3565b92915050565b600060208284031215612fe557612fe4612ddc565b5b6000612ff384828501612fba565b91505092915050565b600061300782612f09565b9050919050565b61301781612ffc565b811461302257600080fd5b50565b6000813590506130348161300e565b92915050565b6000806040838503121561305157613050612ddc565b5b600061305f85828601612fba565b925050602061307085828601613025565b9150509250929050565b61308381612ea1565b811461308e57600080fd5b50565b6000813590506130a08161307a565b92915050565b6000602082840312156130bc576130bb612ddc565b5b60006130ca84828501613091565b91505092915050565b600080fd5b6000601f19601f8301169050919050565b7f4e487b7100000000000000000000000000000000000000000000000000000000600052604160045260246000fd5b613121826130d8565b810181811067ffffffffffffffff821117156131405761313f6130e9565b5b80604052505050565b6000613153612dd2565b905061315f8282613118565b919050565b600067ffffffffffffffff82111561317f5761317e6130e9565b5b602082029050602081019050919050565b600080fd5b60006131a86131a384613164565b613149565b905080838252602082019050602084028301858111156131cb576131ca613190565b5b835b818110156131f457806131e08882612fba565b8452602084019350506020810190506131cd565b5050509392505050565b600082601f830112613213576132126130d3565b5b8135613223848260208601613195565b91505092915050565b6000806000806080858703121561324657613245612ddc565b5b600061325487828801612e29565b945050602061326587828801612fba565b935050604085013567ffffffffffffffff81111561328657613285612de1565b5b613292878288016131fe565b92505060606132a387828801612fba565b91505092959194509250565b60006132ba82612f33565b9050919050565b60006132cc826132af565b9050919050565b6132dc816132c1565b82525050565b60006020820190506132f760008301846132d3565b92915050565b600081519050919050565b600082825260208201905092915050565b60005b8381101561333757808201518184015260208101905061331c565b60008484015250505050565b600061334e826132fd565b6133588185613308565b9350613368818560208601613319565b613371816130d8565b840191505092915050565b600060208201905081810360008301526133968184613343565b905092915050565b600080fd5b60008083601f8401126133b9576133b86130d3565b5b8235905067ffffffffffffffff8111156133d6576133d561339e565b5b6020830191508360018202830111156133f2576133f1613190565b5b9250929050565b60008060008060008060008060006101008a8c03121561341c5761341b612ddc565b5b600061342a8c828d01612fba565b995050602061343b8c828d01612fba565b985050604061344c8c828d01612fba565b975050606061345d8c828d01612fba565b965050608061346e8c828d01612fba565b95505060a061347f8c828d01612fba565b94505060c06134908c828d01612fba565b93505060e08a013567ffffffffffffffff8111156134b1576134b0612de1565b5b6134bd8c828d016133a3565b92509250509295985092959850929598565b60006134da826132af565b9050919050565b6134ea816134cf565b82525050565b600060208201905061350560008301846134e1565b92915050565b600061351682612f55565b9050919050565b6135268161350b565b82525050565b6000602082019050613541600083018461351d565b92915050565b600061355282612f09565b9050919050565b61356281613547565b811461356d57600080fd5b50565b60008135905061357f81613559565b92915050565b60006020828403121561359b5761359a612ddc565b5b60006135a984828501613570565b91505092915050565b600080604083850312156135c9576135c8612ddc565b5b60006135d785828601612fba565b92505060206135e885828601612fba565b9150509250929050565b600080fd5b6000610100828403121561360e5761360d6135f2565b5b613619610100613149565b9050600061362984828501612fba565b600083015250602061363d84828501612fba565b602083015250604061365184828501612fba565b604083015250606061366584828501612fba565b606083015250608061367984828501612fba565b60808301525060a061368d84828501612fba565b60a08301525060c06136a184828501612fba565b60c08301525060e06136b584828501612fba565b60e08301525092915050565b600061010082840312156136d8576136d7612ddc565b5b60006136e6848285016135f7565b91505092915050565b60006020828403121561370557613704612ddc565b5b600061371384828501613025565b91505092915050565b600081519050919050565b600082825260208201905092915050565b6000819050602082019050919050565b61375181612ed5565b82525050565b6101008201600082015161376e6000850182613748565b5060208201516137816020850182613748565b5060408201516137946040850182613748565b5060608201516137a76060850182613748565b5060808201516137ba6080850182613748565b5060a08201516137cd60a0850182613748565b5060c08201516137e060c0850182613748565b5060e08201516137f360e0850182613748565b50505050565b60006138058383613757565b6101008301905092915050565b6000602082019050919050565b600061382a8261371c565b6138348185613727565b935061383f83613738565b8060005b8381101561387057815161385788826137f9565b975061386283613812565b925050600181019050613843565b5085935050505092915050565b60006020820190508181036000830152613897818461381f565b905092915050565b6000610100820190506138b5600083018b612edf565b6138c2602083018a612edf565b6138cf6040830189612edf565b6138dc6060830188612edf565b6138e96080830187612edf565b6138f660a0830186612edf565b61390360c0830185612edf565b61391060e0830184612edf565b9998505050505050505050565b600061392882612f55565b9050919050565b6139388161391d565b82525050565b6000602082019050613953600083018461392f565b92915050565b600080604083850312156139705761396f612ddc565b5b600061397e85828601612fba565b925050602061398f85828601613091565b9150509250929050565b6139a281612ffc565b82525050565b60006060820190506139bd6000830186613999565b6139ca6020830185612edf565b81810360408301526139dc8184613343565b9050949350505050565b600082825260208201905092915050565b7f4f6e6c79206f776e65722063616e2063616c6c20746869732066756e6374696f60008201527f6e00000000000000000000000000000000000000000000000000000000000000602082015250565b6000613a536021836139e6565b9150613a5e826139f7565b604082019050919050565b60006020820190508181036000830152613a8281613a46565b9050919050565b7f496e76616c696420494400000000000000000000000000000000000000000000600082015250565b6000613abf600a836139e6565b9150613aca82613a89565b602082019050919050565b60006020820190508181036000830152613aee81613ab2565b9050919050565b7f4944206e6f7420666f756e640000000000000000000000000000000000000000600082015250565b6000613b2b600c836139e6565b9150613b3682613af5565b602082019050919050565b60006020820190508181036000830152613b5a81613b1e565b9050919050565b7f416363657373436f6e74726f6c3a2063616e206f6e6c792072656e6f756e636560008201527f20726f6c657320666f722073656c660000000000000000000000000000000000602082015250565b6000613bbd602f836139e6565b9150613bc882613b61565b604082019050919050565b60006020820190508181036000830152613bec81613bb0565b9050919050565b7f486561646572206e6f7420666f756e6400000000000000000000000000000000600082015250565b6000613c296010836139e6565b9150613c3482613bf3565b602082019050919050565b60006020820190508181036000830152613c5881613c1c565b9050919050565b7f4f6e6c79206174746573746174696f6e206261746368206d616b65722063616e60008201527f2063616c6c20746869732066756e6374696f6e00000000000000000000000000602082015250565b6000613cbb6033836139e6565b9150613cc682613c5f565b604082019050919050565b60006020820190508181036000830152613cea81613cae565b9050919050565b7f4e487b7100000000000000000000000000000000000000000000000000000000600052603260045260246000fd5b600081905092915050565b6000613d36826132fd565b613d408185613d20565b9350613d50818560208601613319565b80840191505092915050565b6000819050919050565b613d77613d7282612ed5565b613d5c565b82525050565b6000613d89828b613d2b565b9150613d95828a613d66565b602082019150613da58289613d66565b602082019150613db58288613d66565b602082019150613dc58287613d66565b602082019150613dd58286613d66565b602082019150613de58285613d66565b602082019150613df58284613d66565b6020820191508190509998505050505050505050565b600067ffffffffffffffff821115613e2657613e256130e9565b5b602082029050602081019050919050565b600081519050613e468161300e565b92915050565b6000613e5f613e5a84613e0b565b613149565b90508083825260208201905060208402830185811115613e8257613e81613190565b5b835b81811015613eab5780613e978882613e37565b845260208401935050602081019050613e84565b5050509392505050565b600082601f830112613eca57613ec96130d3565b5b8151613eda848260208601613e4c565b91505092915050565b600060208284031215613ef957613ef8612ddc565b5b600082015167ffffffffffffffff811115613f1757613f16612de1565b5b613f2384828501613eb5565b91505092915050565b7f4150360000000000000000000000000000000000000000000000000000000000600082015250565b6000613f626003836139e6565b9150613f6d82613f2c565b602082019050919050565b60006020820190508181036000830152613f9181613f55565b9050919050565b7f4e487b7100000000000000000000000000000000000000000000000000000000600052601160045260246000fd5b6000613fd282612ea1565b9150613fdd83612ea1565b9250828202613feb81612ea1565b9150828204841483151761400257614001613f98565b5b5092915050565b7f4e487b7100000000000000000000000000000000000000000000000000000000600052601260045260246000fd5b600061404382612ea1565b915061404e83612ea1565b92508261405e5761405d614009565b5b828204905092915050565b600060208201905061407e6000830184613999565b92915050565b61408d81612e6b565b811461409857600080fd5b50565b6000815190506140aa81614084565b92915050565b6000602082840312156140c6576140c5612ddc565b5b60006140d48482850161409b565b91505092915050565b7f4f6e6c792063757272656e7420636f6d6d6974746565206d656d62657220636160008201527f6e2063616c6c20746869732066756e6374696f6e000000000000000000000000602082015250565b60006141396034836139e6565b9150614144826140dd565b604082019050919050565b600060208201905081810360008301526141688161412c565b9050919050565b7f48656164657220616c7265616479206578697374730000000000000000000000600082015250565b60006141a56015836139e6565b91506141b08261416f565b602082019050919050565b600060208201905081810360008301526141d481614198565b9050919050565b7f566f746520616c72656164792063617374656400000000000000000000000000600082015250565b60006142116013836139e6565b915061421c826141db565b602082019050919050565b6000602082019050818103600083015261424081614204565b9050919050565b7f4e487b7100000000000000000000000000000000000000000000000000000000600052602260045260246000fd5b6000600282049050600182168061428e57607f821691505b6020821081036142a1576142a0614247565b5b50919050565b60008190508160005260206000209050919050565b60006020601f8301049050919050565b600082821b905092915050565b6000600883026143097fffffffffffffffffffffffffffffffffffffffffffffffffffffffffffffffff826142cc565b61431386836142cc565b95508019841693508086168417925050509392505050565b600061434661434161433c84612ea1565b612f29565b612ea1565b9050919050565b6000819050919050565b6143608361432b565b61437461436c8261434d565b8484546142d9565b825550505050565b600090565b61438961437c565b614394818484614357565b505050565b5b818110156143b8576143ad600082614381565b60018101905061439a565b5050565b601f8211156143fd576143ce816142a7565b6143d7846142bc565b810160208510156143e6578190505b6143fa6143f2856142bc565b830182614399565b50505b505050565b600082821c905092915050565b600061442060001984600802614402565b1980831691505092915050565b6000614439838361440f565b9150826002028217905092915050565b614452826132fd565b67ffffffffffffffff81111561446b5761446a6130e9565b5b6144758254614276565b6144808282856143bc565b600060209050601f8311600181146144b357600084156144a1578287015190505b6144ab858261442d565b865550614513565b601f1984166144c1866142a7565b60005b828110156144e9578489015182556001820191506020850194506020810190506144c4565b868310156145065784890151614502601f89168261440f565b8355505b6001600288020188555050505b505050505050565b610100820160008201516145326000850182613748565b5060208201516145456020850182613748565b5060408201516145586040850182613748565b50606082015161456b6060850182613748565b50608082015161457e6080850182613748565b5060a082015161459160a0850182613748565b5060c08201516145a460c0850182613748565b5060e08201516145b760e0850182613748565b50505050565b6000610120820190506145d36000830185612edf565b6145e0602083018461451b565b9392505050565b60006145f3828a613d66565b6020820191506146038289613d66565b6020820191506146138288613d66565b6020820191506146238287613d66565b6020820191506146338286613d66565b6020820191506146438285613d66565b6020820191506146538284613d66565b60208201915081905098975050505050505050565b600061467382612ea1565b915061467e83612ea1565b925082820190508082111561469657614695613f98565b5b92915050565b7f496e697469616c697a61626c653a20636f6e747261637420697320616c72656160008201527f647920696e697469616c697a6564000000000000000000000000000000000000602082015250565b60006146f8602e836139e6565b91506147038261469c565b604082019050919050565b60006020820190508181036000830152614727816146eb565b9050919050565b6000819050919050565b600060ff82169050919050565b600061476061475b6147568461472e565b612f29565b614738565b9050919050565b61477081614745565b82525050565b600060208201905061478b6000830184614767565b92915050565b600061479c82612ea1565b91507fffffffffffffffffffffffffffffffffffffffffffffffffffffffffffffffff82036147ce576147cd613f98565b5b600182019050919050565b7f496e76616c696420686561646572496400000000000000000000000000000000600082015250565b600061480f6010836139e6565b915061481a826147d9565b602082019050919050565b6000602082019050818103600083015261483e81614802565b9050919050565b7f496e697469616c697a61626c653a20636f6e7472616374206973206e6f74206960008201527f6e697469616c697a696e67000000000000000000000000000000000000000000602082015250565b60006148a1602b836139e6565b91506148ac82614845565b604082019050919050565b600060208201905081810360008301526148d081614894565b9050919050565b600081905092915050565b7f416363657373436f6e74726f6c3a206163636f756e7420000000000000000000600082015250565b60006149186017836148d7565b9150614923826148e2565b601782019050919050565b600081519050919050565b60006149448261492e565b61494e81856148d7565b935061495e818560208601613319565b80840191505092915050565b7f206973206d697373696e6720726f6c6520000000000000000000000000000000600082015250565b60006149a06011836148d7565b91506149ab8261496a565b601182019050919050565b60006149c18261490b565b91506149cd8285614939565b91506149d882614993565b91506149e48284614939565b91508190509392505050565b60006149fb8261492e565b614a0581856139e6565b9350614a15818560208601613319565b614a1e816130d8565b840191505092915050565b60006020820190508181036000830152614a4381846149f0565b905092915050565b6000614a5682612ea1565b915060008203614a6957614a68613f98565b5b600182039050919050565b7f537472696e67733a20686578206c656e67746820696e73756666696369656e74600082015250565b6000614aaa6020836139e6565b9150614ab582614a74565b602082019050919050565b60006020820190508181036000830152614ad981614a9d565b905091905056fea26469706673582212207baf3658169909f485735324608beacf7a6932e9617f9741716aea8ba0d4a30f64736f6c63430008180033",
  "linkReferences": {},
  "deployedLinkReferences": {}
}