{
  "_format": "hh-sol-artifact-1",
  "contractName": "RemoteOrderV2",
  "sourceName": "contracts/remoteOrderV2.sol",
  "abi": [
    {
      "inputs": [],
      "stateMutability": "nonpayable",
      "type": "constructor"
    },
    {
      "anonymous": false,
      "inputs": [
        {
          "indexed": true,
          "internalType": "bytes32",
          "name": "id",
          "type": "bytes32"
        },
        {
          "indexed": true,
          "internalType": "address",
          "name": "executor",
          "type": "address"
        },
        {
          "indexed": true,
          "internalType": "uint256",
          "name": "amount",
          "type": "uint256"
        },
        {
          "indexed": false,
          "internalType": "address",
          "name": "rewardAsset",
          "type": "address"
        }
      ],
      "name": "Claimed",
      "type": "event"
    },
    {
      "anonymous": false,
      "inputs": [
        {
          "indexed": true,
          "internalType": "bytes32",
          "name": "id",
          "type": "bytes32"
        },
        {
          "indexed": true,
          "internalType": "address",
          "name": "orderer",
          "type": "address"
        },
        {
          "indexed": true,
          "internalType": "uint256",
          "name": "amount",
          "type": "uint256"
        },
        {
          "indexed": false,
          "internalType": "address",
          "name": "rewardAsset",
          "type": "address"
        }
      ],
      "name": "ClaimedRefund",
      "type": "event"
    },
    {
      "anonymous": false,
      "inputs": [
        {
          "indexed": true,
          "internalType": "bytes32",
          "name": "id",
          "type": "bytes32"
        },
        {
          "indexed": true,
          "internalType": "address",
          "name": "target",
          "type": "address"
        },
        {
          "indexed": false,
          "internalType": "uint256",
          "name": "amount",
          "type": "uint256"
        },
        {
          "indexed": false,
          "internalType": "address",
          "name": "asset",
          "type": "address"
        },
        {
          "indexed": true,
          "internalType": "address",
          "name": "sender",
          "type": "address"
        }
      ],
      "name": "Confirmation",
      "type": "event"
    },
    {
      "anonymous": false,
      "inputs": [
        {
          "indexed": true,
          "internalType": "uint256",
          "name": "confirmedCount",
          "type": "uint256"
        },
        {
          "indexed": true,
          "internalType": "uint256",
          "name": "batchSize",
          "type": "uint256"
        },
        {
          "indexed": true,
          "internalType": "address",
          "name": "sender",
          "type": "address"
        }
      ],
      "name": "ConfirmedBatch",
      "type": "event"
    },
    {
      "anonymous": false,
      "inputs": [
        {
          "indexed": false,
          "internalType": "uint8",
          "name": "version",
          "type": "uint8"
        }
      ],
      "name": "Initialized",
      "type": "event"
    },
    {
      "anonymous": false,
      "inputs": [
        {
          "indexed": true,
          "internalType": "bytes32",
          "name": "id",
          "type": "bytes32"
        },
        {
          "indexed": true,
          "internalType": "bytes4",
          "name": "destination",
          "type": "bytes4"
        },
        {
          "indexed": false,
          "internalType": "uint32",
          "name": "asset",
          "type": "uint32"
        },
        {
          "indexed": false,
          "internalType": "bytes32",
          "name": "targetAccount",
          "type": "bytes32"
        },
        {
          "indexed": false,
          "internalType": "uint256",
          "name": "amount",
          "type": "uint256"
        },
        {
          "indexed": false,
          "internalType": "address",
          "name": "rewardAsset",
          "type": "address"
        },
        {
          "indexed": false,
          "internalType": "uint256",
          "name": "insurance",
          "type": "uint256"
        },
        {
          "indexed": false,
          "internalType": "uint256",
          "name": "maxReward",
          "type": "uint256"
        },
        {
          "indexed": false,
          "internalType": "uint32",
          "name": "nonce",
          "type": "uint32"
        },
        {
          "indexed": false,
          "internalType": "address",
          "name": "sourceAccount",
          "type": "address"
        },
        {
          "indexed": false,
          "internalType": "uint256",
          "name": "orderTimestamp",
          "type": "uint256"
        }
      ],
      "name": "OrderCreated",
      "type": "event"
    },
    {
      "anonymous": false,
      "inputs": [
        {
          "indexed": true,
          "internalType": "bytes32",
          "name": "id",
          "type": "bytes32"
        },
        {
          "indexed": true,
          "internalType": "uint32",
          "name": "nonce",
          "type": "uint32"
        },
        {
          "indexed": true,
          "internalType": "address",
          "name": "sender",
          "type": "address"
        },
        {
          "indexed": false,
          "internalType": "uint256",
          "name": "orderTimestamp",
          "type": "uint256"
        }
      ],
      "name": "RemoteOrderCreated",
      "type": "event"
    },
    {
      "anonymous": false,
      "inputs": [
        {
          "indexed": true,
          "internalType": "bytes32",
          "name": "role",
          "type": "bytes32"
        },
        {
          "indexed": true,
          "internalType": "bytes32",
          "name": "previousAdminRole",
          "type": "bytes32"
        },
        {
          "indexed": true,
          "internalType": "bytes32",
          "name": "newAdminRole",
          "type": "bytes32"
        }
      ],
      "name": "RoleAdminChanged",
      "type": "event"
    },
    {
      "anonymous": false,
      "inputs": [
        {
          "indexed": true,
          "internalType": "bytes32",
          "name": "role",
          "type": "bytes32"
        },
        {
          "indexed": true,
          "internalType": "address",
          "name": "account",
          "type": "address"
        },
        {
          "indexed": true,
          "internalType": "address",
          "name": "sender",
          "type": "address"
        }
      ],
      "name": "RoleGranted",
      "type": "event"
    },
    {
      "anonymous": false,
      "inputs": [
        {
          "indexed": true,
          "internalType": "bytes32",
          "name": "role",
          "type": "bytes32"
        },
        {
          "indexed": true,
          "internalType": "address",
          "name": "account",
          "type": "address"
        },
        {
          "indexed": true,
          "internalType": "address",
          "name": "sender",
          "type": "address"
        }
      ],
      "name": "RoleRevoked",
      "type": "event"
    },
    {
      "stateMutability": "payable",
      "type": "fallback"
    },
    {
      "inputs": [],
      "name": "DEFAULT_ADMIN_ROLE",
      "outputs": [
        {
          "internalType": "bytes32",
          "name": "",
          "type": "bytes32"
        }
      ],
      "stateMutability": "view",
      "type": "function"
    },
    {
      "inputs": [
        {
          "internalType": "address",
          "name": "assetHere",
          "type": "address"
        },
        {
          "internalType": "uint32",
          "name": "assetThere",
          "type": "uint32"
        }
      ],
      "name": "addSupportedBridgeAsset",
      "outputs": [],
      "stateMutability": "nonpayable",
      "type": "function"
    },
    {
      "inputs": [
        {
          "internalType": "address payable",
          "name": "_attesters",
          "type": "address"
        }
      ],
      "name": "assignAttesters",
      "outputs": [],
      "stateMutability": "nonpayable",
      "type": "function"
    },
    {
      "inputs": [
        {
          "internalType": "address payable",
          "name": "_claimerGMP",
          "type": "address"
        }
      ],
      "name": "assignClaimerGMP",
      "outputs": [],
      "stateMutability": "nonpayable",
      "type": "function"
    },
    {
      "inputs": [
        {
          "internalType": "address",
          "name": "_openMarketPricer",
          "type": "address"
        }
      ],
      "name": "assignOpenMarketPricer",
      "outputs": [],
      "stateMutability": "nonpayable",
      "type": "function"
    },
    {
      "inputs": [],
      "name": "attesters",
      "outputs": [
        {
          "internalType": "contract AttestationsVerifierProofs",
          "name": "",
          "type": "address"
        }
      ],
      "stateMutability": "view",
      "type": "function"
    },
    {
      "inputs": [
        {
          "internalType": "uint256",
          "name": "amount",
          "type": "uint256"
        }
      ],
      "name": "calcProtocolFee",
      "outputs": [
        {
          "internalType": "uint256",
          "name": "",
          "type": "uint256"
        }
      ],
      "stateMutability": "view",
      "type": "function"
    },
    {
      "inputs": [
        {
          "internalType": "bytes32",
          "name": "orderId",
          "type": "bytes32"
        },
        {
          "internalType": "address",
          "name": "rewardAsset",
          "type": "address"
        },
        {
          "internalType": "uint256",
          "name": "maxReward",
          "type": "uint256"
        },
        {
          "internalType": "uint256",
          "name": "settledAmount",
          "type": "uint256"
        },
        {
          "internalType": "address",
          "name": "beneficiary",
          "type": "address"
        },
        {
          "internalType": "uint256",
          "name": "orderTimestamp",
          "type": "uint256"
        },
        {
          "internalType": "bytes32",
          "name": "_batchPayloadHash",
          "type": "bytes32"
        },
        {
          "internalType": "bytes",
          "name": "_batchPayload",
          "type": "bytes"
        }
      ],
      "name": "checkIsClaimableV2",
      "outputs": [
        {
          "internalType": "bool",
          "name": "",
          "type": "bool"
        }
      ],
      "stateMutability": "view",
      "type": "function"
    },
    {
      "inputs": [
        {
          "internalType": "bytes32",
          "name": "orderId",
          "type": "bytes32"
        },
        {
          "internalType": "uint256",
          "name": "orderTimestamp",
          "type": "uint256"
        },
        {
          "internalType": "address",
          "name": "rewardAsset",
          "type": "address"
        },
        {
          "internalType": "uint256",
          "name": "maxReward",
          "type": "uint256"
        },
        {
          "internalType": "address",
          "name": "beneficiary",
          "type": "address"
        },
        {
          "internalType": "bytes32",
          "name": "_batchPayloadHash",
          "type": "bytes32"
        },
        {
          "internalType": "bytes",
          "name": "_batchPayload",
          "type": "bytes"
        }
      ],
      "name": "checkIsRefundable",
      "outputs": [
        {
          "internalType": "bool",
          "name": "",
          "type": "bool"
        }
      ],
      "stateMutability": "view",
      "type": "function"
    },
    {
      "inputs": [
        {
          "internalType": "uint256",
          "name": "orderTimestamp",
          "type": "uint256"
        }
      ],
      "name": "checkIsTimestampTooEarly",
      "outputs": [
        {
          "internalType": "bool",
          "name": "",
          "type": "bool"
        }
      ],
      "stateMutability": "view",
      "type": "function"
    },
    {
      "inputs": [
        {
          "internalType": "bytes32",
          "name": "orderId",
          "type": "bytes32"
        },
        {
          "internalType": "address",
          "name": "rewardAsset",
          "type": "address"
        },
        {
          "internalType": "uint256",
          "name": "maxReward",
          "type": "uint256"
        },
        {
          "internalType": "uint256",
          "name": "settledAmount",
          "type": "uint256"
        },
        {
          "internalType": "uint256",
          "name": "orderTimestamp",
          "type": "uint256"
        }
      ],
      "name": "claimPayout",
      "outputs": [],
      "stateMutability": "payable",
      "type": "function"
    },
    {
      "inputs": [
        {
          "components": [
            {
              "internalType": "bytes32",
              "name": "id",
              "type": "bytes32"
            },
            {
              "internalType": "address",
              "name": "rewardAsset",
              "type": "address"
            },
            {
              "internalType": "uint256",
              "name": "maxReward",
              "type": "uint256"
            },
            {
              "internalType": "uint256",
              "name": "settledAmount",
              "type": "uint256"
            },
            {
              "internalType": "uint256",
              "name": "orderTimestamp",
              "type": "uint256"
            }
          ],
          "internalType": "struct RemoteOrderV2.Payout[]",
          "name": "payouts",
          "type": "tuple[]"
        },
        {
          "internalType": "bytes32",
          "name": "_batchPayloadHash",
          "type": "bytes32"
        },
        {
          "internalType": "bytes",
          "name": "_batchPayload",
          "type": "bytes"
        }
      ],
      "name": "claimPayoutBatch",
      "outputs": [],
      "stateMutability": "payable",
      "type": "function"
    },
    {
      "inputs": [
        {
          "internalType": "bytes32",
          "name": "orderId",
          "type": "bytes32"
        },
        {
          "internalType": "address",
          "name": "rewardAsset",
          "type": "address"
        },
        {
          "internalType": "uint256",
          "name": "maxReward",
          "type": "uint256"
        },
        {
          "internalType": "uint256",
          "name": "settledAmount",
          "type": "uint256"
        },
        {
          "internalType": "uint256",
          "name": "orderTimestamp",
          "type": "uint256"
        },
        {
          "internalType": "bytes32",
          "name": "_batchPayloadHash",
          "type": "bytes32"
        },
        {
          "internalType": "bytes",
          "name": "_batchPayload",
          "type": "bytes"
        }
      ],
      "name": "claimPayoutV2",
      "outputs": [],
      "stateMutability": "payable",
      "type": "function"
    },
    {
      "inputs": [
        {
          "internalType": "uint32",
          "name": "orderNonce",
          "type": "uint32"
        },
        {
          "internalType": "address",
          "name": "rewardAsset",
          "type": "address"
        },
        {
          "internalType": "uint256",
          "name": "maxReward",
          "type": "uint256"
        },
        {
          "internalType": "uint256",
          "name": "orderTimestamp",
          "type": "uint256"
        },
        {
          "internalType": "bytes32",
          "name": "_batchPayloadHash",
          "type": "bytes32"
        },
        {
          "internalType": "bytes",
          "name": "_batchPayload",
          "type": "bytes"
        }
      ],
      "name": "claimRefund",
      "outputs": [],
      "stateMutability": "payable",
      "type": "function"
    },
    {
      "inputs": [],
      "name": "claimerGMP",
      "outputs": [
        {
          "internalType": "contract ClaimerGMP",
          "name": "",
          "type": "address"
        }
      ],
      "stateMutability": "view",
      "type": "function"
    },
    {
      "inputs": [
        {
          "components": [
            {
              "internalType": "bytes32",
              "name": "id",
              "type": "bytes32"
            },
            {
              "internalType": "address payable",
              "name": "target",
              "type": "address"
            },
            {
              "internalType": "uint256",
              "name": "amount",
              "type": "uint256"
            },
            {
              "internalType": "address",
              "name": "asset",
              "type": "address"
            }
          ],
          "internalType": "struct RemoteOrderV2.ConfirmBatchOrderEntry[]",
          "name": "confirmBatch",
          "type": "tuple[]"
        }
      ],
      "name": "confirmBatchOrder",
      "outputs": [],
      "stateMutability": "payable",
      "type": "function"
    },
    {
      "inputs": [
        {
          "internalType": "bytes32",
          "name": "id",
          "type": "bytes32"
        },
        {
          "internalType": "address payable",
          "name": "target",
          "type": "address"
        },
        {
          "internalType": "uint256",
          "name": "amount",
          "type": "uint256"
        },
        {
          "internalType": "address",
          "name": "asset",
          "type": "address"
        }
      ],
      "name": "confirmOrder",
      "outputs": [
        {
          "internalType": "bool",
          "name": "",
          "type": "bool"
        }
      ],
      "stateMutability": "payable",
      "type": "function"
    },
    {
      "inputs": [
        {
          "internalType": "address",
          "name": "rewardAsset",
          "type": "address"
        },
        {
          "internalType": "uint256",
          "name": "maxReward",
          "type": "uint256"
        },
        {
          "internalType": "uint256",
          "name": "orderTimestamp",
          "type": "uint256"
        }
      ],
      "name": "constructInitialPayloadHash",
      "outputs": [
        {
          "internalType": "bytes32",
          "name": "",
          "type": "bytes32"
        }
      ],
      "stateMutability": "pure",
      "type": "function"
    },
    {
      "inputs": [],
      "name": "currentProtocolFee",
      "outputs": [
        {
          "internalType": "uint256",
          "name": "",
          "type": "uint256"
        }
      ],
      "stateMutability": "view",
      "type": "function"
    },
    {
      "inputs": [
        {
          "internalType": "address",
          "name": "asset",
          "type": "address"
        },
        {
          "internalType": "uint256",
          "name": "amount",
          "type": "uint256"
        },
        {
          "internalType": "address",
          "name": "beneficiary",
          "type": "address"
        }
      ],
      "name": "emergencyWithdraw",
      "outputs": [],
      "stateMutability": "nonpayable",
      "type": "function"
    },
    {
      "inputs": [
        {
          "internalType": "address",
          "name": "asset",
          "type": "address"
        },
        {
          "internalType": "uint256",
          "name": "amount",
          "type": "uint256"
        }
      ],
      "name": "ensureAmountWithinAcceptedRange",
      "outputs": [
        {
          "internalType": "bool",
          "name": "",
          "type": "bool"
        }
      ],
      "stateMutability": "view",
      "type": "function"
    },
    {
      "inputs": [
        {
          "internalType": "address",
          "name": "assetHere",
          "type": "address"
        }
      ],
      "name": "ensureAssetIsSupported",
      "outputs": [
        {
          "internalType": "bool",
          "name": "",
          "type": "bool"
        }
      ],
      "stateMutability": "view",
      "type": "function"
    },
    {
      "inputs": [],
      "name": "escrowGMP",
      "outputs": [
        {
          "internalType": "contract EscrowGMP",
          "name": "",
          "type": "address"
        }
      ],
      "stateMutability": "view",
      "type": "function"
    },
    {
      "inputs": [
        {
          "internalType": "address",
          "name": "requester",
          "type": "address"
        },
        {
          "internalType": "uint32",
          "name": "nonce",
          "type": "uint32"
        }
      ],
      "name": "generateId",
      "outputs": [
        {
          "internalType": "bytes32",
          "name": "",
          "type": "bytes32"
        }
      ],
      "stateMutability": "view",
      "type": "function"
    },
    {
      "inputs": [],
      "name": "getOrderTimeout",
      "outputs": [
        {
          "internalType": "uint256",
          "name": "",
          "type": "uint256"
        }
      ],
      "stateMutability": "view",
      "type": "function"
    },
    {
      "inputs": [
        {
          "internalType": "bytes32",
          "name": "role",
          "type": "bytes32"
        }
      ],
      "name": "getRoleAdmin",
      "outputs": [
        {
          "internalType": "bytes32",
          "name": "",
          "type": "bytes32"
        }
      ],
      "stateMutability": "view",
      "type": "function"
    },
    {
      "inputs": [
        {
          "internalType": "bytes32",
          "name": "role",
          "type": "bytes32"
        },
        {
          "internalType": "address",
          "name": "account",
          "type": "address"
        }
      ],
      "name": "grantRole",
      "outputs": [],
      "stateMutability": "nonpayable",
      "type": "function"
    },
    {
      "inputs": [
        {
          "internalType": "bytes32",
          "name": "role",
          "type": "bytes32"
        },
        {
          "internalType": "address",
          "name": "account",
          "type": "address"
        }
      ],
      "name": "hasRole",
      "outputs": [
        {
          "internalType": "bool",
          "name": "",
          "type": "bool"
        }
      ],
      "stateMutability": "view",
      "type": "function"
    },
    {
      "inputs": [
        {
          "internalType": "address",
          "name": "_owner",
          "type": "address"
        }
      ],
      "name": "initialize",
      "outputs": [],
      "stateMutability": "nonpayable",
      "type": "function"
    },
    {
      "inputs": [],
      "name": "isHalted",
      "outputs": [
        {
          "internalType": "bool",
          "name": "",
          "type": "bool"
        }
      ],
      "stateMutability": "view",
      "type": "function"
    },
    {
      "inputs": [
        {
          "internalType": "bytes32",
          "name": "id",
          "type": "bytes32"
        }
      ],
      "name": "isKnownId",
      "outputs": [
        {
          "internalType": "bool",
          "name": "",
          "type": "bool"
        }
      ],
      "stateMutability": "view",
      "type": "function"
    },
    {
      "inputs": [
        {
          "internalType": "address",
          "name": "",
          "type": "address"
        }
      ],
      "name": "maxAllowedAmounts",
      "outputs": [
        {
          "internalType": "uint256",
          "name": "",
          "type": "uint256"
        }
      ],
      "stateMutability": "view",
      "type": "function"
    },
    {
      "inputs": [
        {
          "internalType": "address",
          "name": "",
          "type": "address"
        }
      ],
      "name": "minAllowedAmounts",
      "outputs": [
        {
          "internalType": "uint256",
          "name": "",
          "type": "uint256"
        }
      ],
      "stateMutability": "view",
      "type": "function"
    },
    {
      "inputs": [],
      "name": "openMarketPricer",
      "outputs": [
        {
          "internalType": "contract OpenMarketPricer",
          "name": "",
          "type": "address"
        }
      ],
      "stateMutability": "view",
      "type": "function"
    },
    {
      "inputs": [
        {
          "internalType": "bytes4",
          "name": "destination",
          "type": "bytes4"
        },
        {
          "internalType": "uint32",
          "name": "asset",
          "type": "uint32"
        },
        {
          "internalType": "bytes32",
          "name": "targetAccount",
          "type": "bytes32"
        },
        {
          "internalType": "uint256",
          "name": "amount",
          "type": "uint256"
        },
        {
          "internalType": "address",
          "name": "rewardAsset",
          "type": "address"
        },
        {
          "internalType": "uint256",
          "name": "insurance",
          "type": "uint256"
        },
        {
          "internalType": "uint256",
          "name": "maxReward",
          "type": "uint256"
        }
      ],
      "name": "order",
      "outputs": [
        {
          "internalType": "bytes32",
          "name": "",
          "type": "bytes32"
        }
      ],
      "stateMutability": "payable",
      "type": "function"
    },
    {
      "inputs": [
        {
          "internalType": "bytes",
          "name": "input",
          "type": "bytes"
        }
      ],
      "name": "orderMemoryData",
      "outputs": [
        {
          "internalType": "bytes32",
          "name": "",
          "type": "bytes32"
        }
      ],
      "stateMutability": "payable",
      "type": "function"
    },
    {
      "inputs": [
        {
          "internalType": "bytes32",
          "name": "",
          "type": "bytes32"
        }
      ],
      "name": "orderPayloads",
      "outputs": [
        {
          "internalType": "bytes32",
          "name": "",
          "type": "bytes32"
        }
      ],
      "stateMutability": "view",
      "type": "function"
    },
    {
      "inputs": [],
      "name": "orderTimeout",
      "outputs": [
        {
          "internalType": "uint256",
          "name": "",
          "type": "uint256"
        }
      ],
      "stateMutability": "view",
      "type": "function"
    },
    {
      "inputs": [
        {
          "internalType": "bytes32",
          "name": "",
          "type": "bytes32"
        }
      ],
      "name": "orderWinners",
      "outputs": [
        {
          "internalType": "address",
          "name": "",
          "type": "address"
        }
      ],
      "stateMutability": "view",
      "type": "function"
    },
    {
      "inputs": [],
      "name": "protocolFeesCollector",
      "outputs": [
        {
          "internalType": "address",
          "name": "",
          "type": "address"
        }
      ],
      "stateMutability": "view",
      "type": "function"
    },
    {
      "inputs": [
        {
          "internalType": "bytes32",
          "name": "role",
          "type": "bytes32"
        },
        {
          "internalType": "address",
          "name": "account",
          "type": "address"
        }
      ],
      "name": "renounceRole",
      "outputs": [],
      "stateMutability": "nonpayable",
      "type": "function"
    },
    {
      "inputs": [
        {
          "internalType": "bytes32",
          "name": "role",
          "type": "bytes32"
        },
        {
          "internalType": "address",
          "name": "account",
          "type": "address"
        }
      ],
      "name": "revokeRole",
      "outputs": [],
      "stateMutability": "nonpayable",
      "type": "function"
    },
    {
      "inputs": [
        {
          "internalType": "address",
          "name": "asset",
          "type": "address"
        },
        {
          "internalType": "uint256",
          "name": "minAmount",
          "type": "uint256"
        },
        {
          "internalType": "uint256",
          "name": "maxAmount",
          "type": "uint256"
        }
      ],
      "name": "setAmountRange",
      "outputs": [],
      "stateMutability": "nonpayable",
      "type": "function"
    },
    {
      "inputs": [
        {
          "internalType": "uint256",
          "name": "_protocolFee",
          "type": "uint256"
        }
      ],
      "name": "setCurrentProtocolFee",
      "outputs": [],
      "stateMutability": "nonpayable",
      "type": "function"
    },
    {
      "inputs": [
        {
          "internalType": "contract EscrowGMP",
          "name": "_escrowGMP",
          "type": "address"
        }
      ],
      "name": "setEscrowGMP",
      "outputs": [],
      "stateMutability": "nonpayable",
      "type": "function"
    },
    {
      "inputs": [
        {
          "internalType": "uint256",
          "name": "_orderTimeout",
          "type": "uint256"
        }
      ],
      "name": "setOrderTimeout",
      "outputs": [],
      "stateMutability": "nonpayable",
      "type": "function"
    },
    {
      "inputs": [
        {
          "internalType": "address",
          "name": "_protocolFeesCollector",
          "type": "address"
        }
      ],
      "name": "setProtocolFeesCollector",
      "outputs": [],
      "stateMutability": "nonpayable",
      "type": "function"
    },
    {
      "inputs": [
        {
          "internalType": "bytes4",
          "name": "_sourceId",
          "type": "bytes4"
        }
      ],
      "name": "setSourceId",
      "outputs": [],
      "stateMutability": "nonpayable",
      "type": "function"
    },
    {
      "inputs": [
        {
          "internalType": "bytes32",
          "name": "_version",
          "type": "bytes32"
        }
      ],
      "name": "setVersion",
      "outputs": [],
      "stateMutability": "nonpayable",
      "type": "function"
    },
    {
      "inputs": [
        {
          "internalType": "bytes32",
          "name": "orderId",
          "type": "bytes32"
        },
        {
          "internalType": "address",
          "name": "sender",
          "type": "address"
        },
        {
          "internalType": "address",
          "name": "rewardAsset",
          "type": "address"
        },
        {
          "internalType": "uint256",
          "name": "maxReward",
          "type": "uint256"
        },
        {
          "internalType": "uint256",
          "name": "settledAmount",
          "type": "uint256"
        },
        {
          "internalType": "uint32",
          "name": "rewardAssetId",
          "type": "uint32"
        },
        {
          "internalType": "uint32",
          "name": "assetId",
          "type": "uint32"
        },
        {
          "internalType": "uint256",
          "name": "amount",
          "type": "uint256"
        },
        {
          "internalType": "uint32",
          "name": "nonce",
          "type": "uint32"
        }
      ],
      "name": "settleSurplusReward",
      "outputs": [
        {
          "internalType": "bool",
          "name": "",
          "type": "bool"
        }
      ],
      "stateMutability": "payable",
      "type": "function"
    },
    {
      "inputs": [],
      "name": "sourceId",
      "outputs": [
        {
          "internalType": "bytes4",
          "name": "",
          "type": "bytes4"
        }
      ],
      "stateMutability": "view",
      "type": "function"
    },
    {
      "inputs": [
        {
          "internalType": "address",
          "name": "",
          "type": "address"
        }
      ],
      "name": "supportedAssets",
      "outputs": [
        {
          "internalType": "uint32",
          "name": "",
          "type": "uint32"
        }
      ],
      "stateMutability": "view",
      "type": "function"
    },
    {
      "inputs": [
        {
          "internalType": "bytes4",
          "name": "interfaceId",
          "type": "bytes4"
        }
      ],
      "name": "supportsInterface",
      "outputs": [
        {
          "internalType": "bool",
          "name": "",
          "type": "bool"
        }
      ],
      "stateMutability": "view",
      "type": "function"
    },
    {
      "inputs": [],
      "name": "turnOffHalt",
      "outputs": [],
      "stateMutability": "nonpayable",
      "type": "function"
    },
    {
      "inputs": [],
      "name": "turnOnHalt",
      "outputs": [],
      "stateMutability": "nonpayable",
      "type": "function"
    },
    {
      "inputs": [],
      "name": "version",
      "outputs": [
        {
          "internalType": "bytes32",
          "name": "",
          "type": "bytes32"
        }
      ],
      "stateMutability": "view",
      "type": "function"
    },
    {
      "stateMutability": "payable",
      "type": "receive"
    }
  ],
  "bytecode": "0x60806040523480156200001157600080fd5b50620000226200002860201b60201c565b620001d2565b600060019054906101000a900460ff16156200007b576040517f08c379a0000000000000000000000000000000000000000000000000000000008152600401620000729062000175565b60405180910390fd5b60ff801660008054906101000a900460ff1660ff1614620000ec5760ff6000806101000a81548160ff021916908360ff1602179055507f7f26b83ff96e1f2b6a682f133852f6798a09c465da95921460cefb384740249860ff604051620000e39190620001b5565b60405180910390a15b565b600082825260208201905092915050565b7f496e697469616c697a61626c653a20636f6e747261637420697320696e69746960008201527f616c697a696e6700000000000000000000000000000000000000000000000000602082015250565b60006200015d602783620000ee565b91506200016a82620000ff565b604082019050919050565b6000602082019050818103600083015262000190816200014e565b9050919050565b600060ff82169050919050565b620001af8162000197565b82525050565b6000602082019050620001cc6000830184620001a4565b92915050565b615de880620001e26000396000f3fe60806040526004361061036d5760003560e01c80639815fc9a116101c6578063d4cb7899116100f7578063e1dc3d6911610095578063e97b80711161006f578063e97b807114610d03578063eb5e13dd14610d2e578063f4953cb214610d4a578063f735544d14610d7557610374565b8063e1dc3d6914610c6b578063e822cdba14610c9b578063e96e743114610cd857610374565b8063dac5dc35116100d1578063dac5dc3514610b8b578063dac8a7a014610bc8578063db7a6aa714610bf1578063e0e84a9e14610c2e57610374565b8063d4cb789914610b1d578063d547741f14610b46578063d82ee62114610b6f57610374565b8063bd81579e11610164578063ca5f81b51161013e578063ca5f81b514610a77578063cb7a18c214610aa0578063d069aab914610ac9578063d0eccac514610af457610374565b8063bd81579e146109e6578063c4d66de814610a23578063c7ff158414610a4c57610374565b8063a7251255116101a0578063a725125514610939578063a796b62814610955578063b967f4591461097e578063ba206004146109bb57610374565b80639815fc9a146108ba5780639c32a66c146108e3578063a217fddf1461090e57610374565b80633562c20b116102a057806358317a4d1161023e5780637dba853c116102185780637dba853c146107d85780638ebba5761461081557806391d148541461085257806396bb543a1461088f57610374565b806358317a4d1461074257806364a479271461077f57806373b3e5041461079b57610374565b80634f3f04321161027a5780634f3f04321461068e57806354fd4d50146106be578063551512de146106e957806356591d591461071257610374565b80633562c20b146105ff57806336568abe146106285780633d4821881461065157610374565b80631b5d00ad1161030d578063248a9ca3116102e7578063248a9ca3146105335780632bef3922146105705780632f2ff15d146105ad57806331d2b5f8146105d657610374565b80631b5d00ad146104c85780632178dc9f146104f157806323728d321461050857610374565b806301ffc9a71161034957806301ffc9a7146103e85780630ef917ed1461042557806313f1cea11461044e5780631b3035a41461048b57610374565b806211888214610376578062cfe24f1461038d57806301a8f065146103b857610374565b3661037457005b005b34801561038257600080fd5b5061038b610d91565b005b34801561039957600080fd5b506103a2610dfa565b6040516103af9190613a79565b60405180910390f35b6103d260048036038101906103cd9190613b90565b610e20565b6040516103df9190613c12565b60405180910390f35b3480156103f457600080fd5b5061040f600480360381019061040a9190613c85565b61104d565b60405161041c9190613c12565b60405180910390f35b34801561043157600080fd5b5061044c60048036038101906104479190613cb2565b6110c7565b005b34801561045a57600080fd5b5061047560048036038101906104709190613cb2565b611157565b6040516104829190613cee565b60405180910390f35b34801561049757600080fd5b506104b260048036038101906104ad9190613d09565b61116f565b6040516104bf9190613d45565b60405180910390f35b3480156104d457600080fd5b506104ef60048036038101906104ea9190613d9c565b6111a2565b005b3480156104fd57600080fd5b50610506611250565b005b34801561051457600080fd5b5061051d6112b9565b60405161052a9190613cee565b60405180910390f35b34801561053f57600080fd5b5061055a60048036038101906105559190613d09565b6112bf565b6040516105679190613deb565b60405180910390f35b34801561057c57600080fd5b5061059760048036038101906105929190613f4c565b6112df565b6040516105a49190613c12565b60405180910390f35b3480156105b957600080fd5b506105d460048036038101906105cf919061401e565b6113f8565b005b3480156105e257600080fd5b506105fd60048036038101906105f89190613cb2565b611419565b005b34801561060b57600080fd5b506106266004803603810190610621919061409c565b6114a9565b005b34801561063457600080fd5b5061064f600480360381019061064a919061401e565b611539565b005b34801561065d57600080fd5b50610678600480360381019061067391906140c9565b6115bc565b6040516106859190613c12565b60405180910390f35b6106a860048036038101906106a39190614187565b611677565b6040516106b59190613deb565b60405180910390f35b3480156106ca57600080fd5b506106d3611a10565b6040516106e09190613deb565b60405180910390f35b3480156106f557600080fd5b50610710600480360381019061070b91906141d0565b611a16565b005b61072c60048036038101906107279190614223565b611a74565b6040516107399190613deb565b60405180910390f35b34801561074e57600080fd5b50610769600480360381019061076491906142c5565b611b7d565b6040516107769190613deb565b60405180910390f35b61079960048036038101906107949190614318565b611bb3565b005b3480156107a757600080fd5b506107c260048036038101906107bd9190613d9c565b611d50565b6040516107cf9190613deb565b60405180910390f35b3480156107e457600080fd5b506107ff60048036038101906107fa9190613d09565b611dbf565b60405161080c9190613c12565b60405180910390f35b34801561082157600080fd5b5061083c60048036038101906108379190613cb2565b611e6a565b6040516108499190613cee565b60405180910390f35b34801561085e57600080fd5b506108796004803603810190610874919061401e565b611e82565b6040516108869190613c12565b60405180910390f35b34801561089b57600080fd5b506108a4611eed565b6040516108b191906143f7565b60405180910390f35b3480156108c657600080fd5b506108e160048036038101906108dc9190614412565b611f13565b005b3480156108ef57600080fd5b506108f8611fa3565b6040516109059190614460565b60405180910390f35b34801561091a57600080fd5b50610923611fc9565b6040516109309190613deb565b60405180910390f35b610953600480360381019061094e91906145d4565b611fd0565b005b34801561096157600080fd5b5061097c60048036038101906109779190614412565b61205b565b005b34801561098a57600080fd5b506109a560048036038101906109a0919061465f565b6120eb565b6040516109b29190613c12565b60405180910390f35b3480156109c757600080fd5b506109d06121af565b6040516109dd9190613cee565b60405180910390f35b3480156109f257600080fd5b50610a0d6004803603810190610a089190613cb2565b6121b5565b604051610a1a91906146ae565b60405180910390f35b348015610a2f57600080fd5b50610a4a6004803603810190610a459190613cb2565b6121d8565b005b348015610a5857600080fd5b50610a6161239b565b604051610a6e9190613c12565b60405180910390f35b348015610a8357600080fd5b50610a9e6004803603810190610a999190613d09565b6123ae565b005b348015610aac57600080fd5b50610ac76004803603810190610ac291906142c5565b612404565b005b348015610ad557600080fd5b50610ade6124dd565b604051610aeb91906146d8565b60405180910390f35b348015610b0057600080fd5b50610b1b6004803603810190610b1691906146f3565b6124f0565b005b348015610b2957600080fd5b50610b446004803603810190610b3f9190613c85565b612546565b005b348015610b5257600080fd5b50610b6d6004803603810190610b68919061401e565b6125b3565b005b610b896004803603810190610b84919061477b565b6125d4565b005b348015610b9757600080fd5b50610bb26004803603810190610bad91906146f3565b61280e565b604051610bbf9190613cee565b60405180910390f35b348015610bd457600080fd5b50610bef6004803603810190610bea91906146f3565b612833565b005b348015610bfd57600080fd5b50610c186004803603810190610c139190613d09565b612889565b604051610c259190613deb565b60405180910390f35b348015610c3a57600080fd5b50610c556004803603810190610c5091906146f3565b6128a1565b604051610c629190613c12565b60405180910390f35b610c856004803603810190610c8091906147c8565b6128ba565b604051610c929190613c12565b60405180910390f35b348015610ca757600080fd5b50610cc26004803603810190610cbd9190613cb2565b612b14565b604051610ccf9190613c12565b60405180910390f35b348015610ce457600080fd5b50610ced612bad565b604051610cfa91906148b3565b60405180910390f35b348015610d0f57600080fd5b50610d18612bd3565b604051610d259190613d45565b60405180910390f35b610d486004803603810190610d4391906148ce565b612bf9565b005b348015610d5657600080fd5b50610d5f612ded565b604051610d6c9190613cee565b60405180910390f35b610d8f6004803603810190610d8a9190614977565b612df7565b005b610d9e6000801b33611e82565b610ddd576040517f08c379a0000000000000000000000000000000000000000000000000000000008152600401610dd490614a4f565b60405180910390fd5b600060d360006101000a81548160ff021916908315150217905550565b60ca60009054906101000a900473ffffffffffffffffffffffffffffffffffffffff1681565b600060d360009054906101000a900460ff1615610e72576040517f08c379a0000000000000000000000000000000000000000000000000000000008152600401610e6990614abb565b60405180910390fd5b60008585858533604051602001610e8d959493929190614aea565b6040516020818303038152906040528051906020012090506000801b60cd60008381526020019081526020016000205414610efd576040517f08c379a0000000000000000000000000000000000000000000000000000000008152600401610ef490614b89565b60405180910390fd5b8560cd600083815260200190815260200160002081905550600073ffffffffffffffffffffffffffffffffffffffff168373ffffffffffffffffffffffffffffffffffffffff1603610f8d5783341015610f8c576040517f08c379a0000000000000000000000000000000000000000000000000000000008152600401610f8390614bf5565b60405180910390fd5b5b610f9984848733612e6f565b610fd8576040517f08c379a0000000000000000000000000000000000000000000000000000000008152600401610fcf90614bf5565b60405180910390fd5b3373ffffffffffffffffffffffffffffffffffffffff168573ffffffffffffffffffffffffffffffffffffffff16877f9b6b927a15db2ff3d6b64c3fe4884ab3f2a07a59ef5a477a9f314bc729bf41808787604051611038929190614c15565b60405180910390a46001915050949350505050565b60007f7965db0b000000000000000000000000000000000000000000000000000000007bffffffffffffffffffffffffffffffffffffffffffffffffffffffff1916827bffffffffffffffffffffffffffffffffffffffffffffffffffffffff191614806110c057506110bf82612f75565b5b9050919050565b6110d46000801b33611e82565b611113576040517f08c379a000000000000000000000000000000000000000000000000000000000815260040161110a90614a4f565b60405180910390fd5b8060cb60006101000a81548173ffffffffffffffffffffffffffffffffffffffff021916908373ffffffffffffffffffffffffffffffffffffffff16021790555050565b60d06020528060005260406000206000915090505481565b60ce6020528060005260406000206000915054906101000a900473ffffffffffffffffffffffffffffffffffffffff1681565b6111af6000801b33611e82565b6111ee576040517f08c379a00000000000000000000000000000000000000000000000000000000081526004016111e590614a4f565b60405180910390fd5b8060cf60008473ffffffffffffffffffffffffffffffffffffffff1673ffffffffffffffffffffffffffffffffffffffff16815260200190815260200160002060006101000a81548163ffffffff021916908363ffffffff1602179055505050565b61125d6000801b33611e82565b61129c576040517f08c379a000000000000000000000000000000000000000000000000000000000815260040161129390614a4f565b60405180910390fd5b600160d360006101000a81548160ff021916908315150217905550565b60d25481565b600060656000838152602001908152602001600020600101549050919050565b60008073ffffffffffffffffffffffffffffffffffffffff1660d660009054906101000a900473ffffffffffffffffffffffffffffffffffffffff1673ffffffffffffffffffffffffffffffffffffffff160361133f57600090506113ec565b60d660009054906101000a900473ffffffffffffffffffffffffffffffffffffffff1673ffffffffffffffffffffffffffffffffffffffff16638ade88218a8a8a8a8a8a8a8a6040518963ffffffff1660e01b81526004016113a8989796959493929190614cbd565b602060405180830381865afa1580156113c5573d6000803e3d6000fd5b505050506040513d601f19601f820116820180604052508101906113e99190614d6e565b90505b98975050505050505050565b611401826112bf565b61140a81612fdf565b6114148383612ff3565b505050565b6114266000801b33611e82565b611465576040517f08c379a000000000000000000000000000000000000000000000000000000000815260040161145c90614a4f565b60405180910390fd5b8060cc60006101000a81548173ffffffffffffffffffffffffffffffffffffffff021916908373ffffffffffffffffffffffffffffffffffffffff16021790555050565b6114b66000801b33611e82565b6114f5576040517f08c379a00000000000000000000000000000000000000000000000000000000081526004016114ec90614a4f565b60405180910390fd5b8060d560006101000a81548173ffffffffffffffffffffffffffffffffffffffff021916908373ffffffffffffffffffffffffffffffffffffffff16021790555050565b6115416130d4565b73ffffffffffffffffffffffffffffffffffffffff168173ffffffffffffffffffffffffffffffffffffffff16146115ae576040517f08c379a00000000000000000000000000000000000000000000000000000000081526004016115a590614e0d565b60405180910390fd5b6115b882826130dc565b5050565b600060d660009054906101000a900473ffffffffffffffffffffffffffffffffffffffff1673ffffffffffffffffffffffffffffffffffffffff1663a949ca15898960c9548a8a8a8a8a6040518963ffffffff1660e01b8152600401611629989796959493929190614e2d565b602060405180830381865afa158015611646573d6000803e3d6000fd5b505050506040513d601f19601f8201168201806040525081019061166a9190614d6e565b9050979650505050505050565b600060d360009054906101000a900460ff16156116c9576040517f08c379a00000000000000000000000000000000000000000000000000000000081526004016116c090614abb565b60405180910390fd5b600043905060006116da3383611d50565b90506000806000806000806000808b8060200190518101906116fc9190614f1b565b9750975097509750975097509750975061171584612b14565b611754576040517f08c379a000000000000000000000000000000000000000000000000000000000815260040161174b9061501d565b60405180910390fd5b60d360019054906101000a900460e01b7bffffffffffffffffffffffffffffffffffffffffffffffffffffffff1916887bffffffffffffffffffffffffffffffffffffffffffffffffffffffff1916036117ad57600080fd5b6117b784836120eb565b6117f6576040517f08c379a00000000000000000000000000000000000000000000000000000000081526004016117ed90615089565b60405180910390fd5b600073ffffffffffffffffffffffffffffffffffffffff168473ffffffffffffffffffffffffffffffffffffffff16036118715781341461186c576040517f08c379a000000000000000000000000000000000000000000000000000000000815260040161186390614b89565b60405180910390fd5b61189f565b61189e3330848773ffffffffffffffffffffffffffffffffffffffff166131be909392919063ffffffff16565b5b60d560009054906101000a900473ffffffffffffffffffffffffffffffffffffffff1673ffffffffffffffffffffffffffffffffffffffff16630d8dd7638a8685426040516020016118f3939291906150a9565b604051602081830303815290604052805190602001206040518363ffffffff1660e01b81526004016119269291906150e0565b6020604051808303816000875af1158015611945573d6000803e3d6000fd5b505050506040513d601f19601f820116820180604052508101906119699190614d6e565b6119a8576040517f08c379a000000000000000000000000000000000000000000000000000000000815260040161199f90615155565b60405180910390fd5b3373ffffffffffffffffffffffffffffffffffffffff168a63ffffffff168a7f890b8d3b4a67090e510bd923450d355a7fb174ec26ddaf6bdb82fc453e27aa7f426040516119f69190613cee565b60405180910390a4889a5050505050505050505050919050565b60d45481565b611a236000801b33611e82565b611a62576040517f08c379a0000000000000000000000000000000000000000000000000000000008152600401611a5990614a4f565b60405180910390fd5b611a6e82848330612e6f565b50505050565b600060d360009054906101000a900460ff1615611ac6576040517f08c379a0000000000000000000000000000000000000000000000000000000008152600401611abd90614abb565b60405180910390fd5b60008888888888888833604051602001611ae7989796959493929190615175565b60405160208183030381529060405290506000611b0382611677565b9050897bffffffffffffffffffffffffffffffffffffffffffffffffffffffff1916817f3bb399125b923176baf5098f432689e4843dee54b68daf1d7cadd91d99a636018b8b8b8b8b8b433342604051611b65999897969594939291906151f3565b60405180910390a38092505050979650505050505050565b6000838383604051602001611b94939291906150a9565b6040516020818303038152906040528051906020012090509392505050565b60d360009054906101000a900460ff1615611c03576040517f08c379a0000000000000000000000000000000000000000000000000000000008152600401611bfa90614abb565b60405180910390fd5b611c1387878787338888886112df565b611c52576040517f08c379a0000000000000000000000000000000000000000000000000000000008152600401611c49906152cc565b60405180910390fd5b60d560009054906101000a900473ffffffffffffffffffffffffffffffffffffffff1673ffffffffffffffffffffffffffffffffffffffff1663a77715d0886040518263ffffffff1660e01b8152600401611cad9190613deb565b600060405180830381600087803b158015611cc757600080fd5b505af1158015611cdb573d6000803e3d6000fd5b5050505060008403611ceb578493505b611cf784873330613247565b833373ffffffffffffffffffffffffffffffffffffffff16887fba78a15e874441cf1871e3d2633ba91540bab663ae8664088ace7d60009ddd6589604051611d3f9190613d45565b60405180910390a450505050505050565b6000828260d360019054906101000a900460e01b604051602001611d76939291906152ec565b604051602081830303815290604052805190602001206000801b604051602001611da19291906150e0565b60405160208183030381529060405280519060200120905092915050565b60008060001b60d560009054906101000a900473ffffffffffffffffffffffffffffffffffffffff1673ffffffffffffffffffffffffffffffffffffffff1663dd50923e846040518263ffffffff1660e01b8152600401611e209190613deb565b602060405180830381865afa158015611e3d573d6000803e3d6000fd5b505050506040513d601f19601f82011682018060405250810190611e619190615323565b14159050919050565b60d16020528060005260406000206000915090505481565b60006065600084815260200190815260200160002060000160008373ffffffffffffffffffffffffffffffffffffffff1673ffffffffffffffffffffffffffffffffffffffff16815260200190815260200160002060009054906101000a900460ff16905092915050565b60d660009054906101000a900473ffffffffffffffffffffffffffffffffffffffff1681565b611f206000801b33611e82565b611f5f576040517f08c379a0000000000000000000000000000000000000000000000000000000008152600401611f5690614a4f565b60405180910390fd5b8060d660006101000a81548173ffffffffffffffffffffffffffffffffffffffff021916908373ffffffffffffffffffffffffffffffffffffffff16021790555050565b60cc60009054906101000a900473ffffffffffffffffffffffffffffffffffffffff1681565b6000801b81565b60d360009054906101000a900460ff1615612020576040517f08c379a000000000000000000000000000000000000000000000000000000000815260040161201790614abb565b60405180910390fd5b6040517f08c379a00000000000000000000000000000000000000000000000000000000081526004016120529061539c565b60405180910390fd5b6120686000801b33611e82565b6120a7576040517f08c379a000000000000000000000000000000000000000000000000000000000815260040161209e90614a4f565b60405180910390fd5b8060ca60006101000a81548173ffffffffffffffffffffffffffffffffffffffff021916908373ffffffffffffffffffffffffffffffffffffffff16021790555050565b60008060d160008573ffffffffffffffffffffffffffffffffffffffff1673ffffffffffffffffffffffffffffffffffffffff168152602001908152602001600020549050600060d060008673ffffffffffffffffffffffffffffffffffffffff1673ffffffffffffffffffffffffffffffffffffffff1681526020019081526020016000205490506000821480156121845750600081145b15612194576001925050506121a9565b8184101580156121a45750808411155b925050505b92915050565b60c95481565b60cf6020528060005260406000206000915054906101000a900463ffffffff1681565b60008060019054906101000a900460ff161590508080156122095750600160008054906101000a900460ff1660ff16105b806122365750612218306132f8565b1580156122355750600160008054906101000a900460ff1660ff16145b5b612275576040517f08c379a000000000000000000000000000000000000000000000000000000000815260040161226c9061542e565b60405180910390fd5b60016000806101000a81548160ff021916908360ff16021790555080156122b2576001600060016101000a81548160ff0219169083151502179055505b600073ffffffffffffffffffffffffffffffffffffffff168273ffffffffffffffffffffffffffffffffffffffff1603612321576040517f08c379a000000000000000000000000000000000000000000000000000000000815260040161231890614a4f565b60405180910390fd5b61232e6000801b83612ff3565b61233661331b565b61233e61336c565b80156123975760008060016101000a81548160ff0219169083151502179055507f7f26b83ff96e1f2b6a682f133852f6798a09c465da95921460cefb3847402498600160405161238e9190615496565b60405180910390a15b5050565b60d360009054906101000a900460ff1681565b6123bb6000801b33611e82565b6123fa576040517f08c379a00000000000000000000000000000000000000000000000000000000081526004016123f190614a4f565b60405180910390fd5b8060d48190555050565b6124116000801b33611e82565b612450576040517f08c379a000000000000000000000000000000000000000000000000000000000815260040161244790614a4f565b60405180910390fd5b8160d160008573ffffffffffffffffffffffffffffffffffffffff1673ffffffffffffffffffffffffffffffffffffffff168152602001908152602001600020819055508060d060008573ffffffffffffffffffffffffffffffffffffffff1673ffffffffffffffffffffffffffffffffffffffff16815260200190815260200160002081905550505050565b60d360019054906101000a900460e01b81565b6124fd6000801b33611e82565b61253c576040517f08c379a000000000000000000000000000000000000000000000000000000000815260040161253390614a4f565b60405180910390fd5b8060c98190555050565b6125536000801b33611e82565b612592576040517f08c379a000000000000000000000000000000000000000000000000000000000815260040161258990614a4f565b60405180910390fd5b8060d360016101000a81548163ffffffff021916908360e01c021790555050565b6125bc826112bf565b6125c581612fdf565b6125cf83836130dc565b505050565b60d360009054906101000a900460ff1615612624576040517f08c379a000000000000000000000000000000000000000000000000000000000815260040161261b90614abb565b60405180910390fd5b60008060005b8484905081101561277d57600073ffffffffffffffffffffffffffffffffffffffff168585838181106126605761265f6154b1565b5b90506080020160600160208101906126789190613cb2565b73ffffffffffffffffffffffffffffffffffffffff16036126c5578484828181106126a6576126a56154b1565b5b90506080020160400135826126bb919061550f565b9150348211612772575b61275d8585838181106126db576126da6154b1565b5b905060800201600001358686848181106126f8576126f76154b1565b5b90506080020160200160208101906127109190614412565b878785818110612723576127226154b1565b5b905060800201604001358888868181106127405761273f6154b1565b5b90506080020160600160208101906127589190613cb2565b610e20565b1561277157828061276d90615543565b9350505b5b80600101905061262a565b503481146127c0576040517f08c379a00000000000000000000000000000000000000000000000000000000081526004016127b7906155d7565b60405180910390fd5b3373ffffffffffffffffffffffffffffffffffffffff1684849050837f6fa7448ce5bbe23aad605192a99ac2b8aedaeb46e3ee8644d05a6d45d34d666660405160405180910390a450505050565b6000620f424060d2548361282291906155f7565b61282c9190615668565b9050919050565b6128406000801b33611e82565b61287f576040517f08c379a000000000000000000000000000000000000000000000000000000000815260040161287690614a4f565b60405180910390fd5b8060d28190555050565b60cd6020528060005260406000206000915090505481565b600060c954826128b1919061550f565b42109050919050565b600060d360009054906101000a900460ff16156128da5760009050612b07565b60ca60009054906101000a900473ffffffffffffffffffffffffffffffffffffffff1673ffffffffffffffffffffffffffffffffffffffff163373ffffffffffffffffffffffffffffffffffffffff161461296a576040517f08c379a0000000000000000000000000000000000000000000000000000000008152600401612961906156e5565b60405180910390fd5b60006129768a84611d50565b90508a8114612989576000915050612b07565b86881161299a576000915050612b07565b600087896129a89190615705565b90506129b6818b8d30612e6f565b15612a1657878b73ffffffffffffffffffffffffffffffffffffffff168d7fba78a15e874441cf1871e3d2633ba91540bab663ae8664088ace7d60009ddd658d604051612a039190613d45565b60405180910390a4600192505050612b07565b600073ffffffffffffffffffffffffffffffffffffffff1660cc60009054906101000a900473ffffffffffffffffffffffffffffffffffffffff1673ffffffffffffffffffffffffffffffffffffffff1614612b005760cc60009054906101000a900473ffffffffffffffffffffffffffffffffffffffff1673ffffffffffffffffffffffffffffffffffffffff16637936e59287878a8c6040518563ffffffff1660e01b8152600401612acd9493929190615739565b600060405180830381600087803b158015612ae757600080fd5b505af1158015612afb573d6000803e3d6000fd5b505050505b6000925050505b9998505050505050505050565b60008073ffffffffffffffffffffffffffffffffffffffff168273ffffffffffffffffffffffffffffffffffffffff161480612ba65750600060cf60008473ffffffffffffffffffffffffffffffffffffffff1673ffffffffffffffffffffffffffffffffffffffff16815260200190815260200160002060009054906101000a900463ffffffff1663ffffffff1614155b9050919050565b60d560009054906101000a900473ffffffffffffffffffffffffffffffffffffffff1681565b60cb60009054906101000a900473ffffffffffffffffffffffffffffffffffffffff1681565b60d360009054906101000a900460ff1615612c49576040517f08c379a0000000000000000000000000000000000000000000000000000000008152600401612c4090614abb565b60405180910390fd5b60c95483612c57919061550f565b421015612c99576040517f08c379a0000000000000000000000000000000000000000000000000000000008152600401612c90906157ca565b60405180910390fd5b6000612ca53388611d50565b9050612cb6818588883388886115bc565b612cf5576040517f08c379a0000000000000000000000000000000000000000000000000000000008152600401612cec90615836565b60405180910390fd5b60d560009054906101000a900473ffffffffffffffffffffffffffffffffffffffff1673ffffffffffffffffffffffffffffffffffffffff166313b2512a826040518263ffffffff1660e01b8152600401612d509190613deb565b600060405180830381600087803b158015612d6a57600080fd5b505af1158015612d7e573d6000803e3d6000fd5b50505050612d8e85873330612e6f565b15612de457843373ffffffffffffffffffffffffffffffffffffffff16827fc6832f33d5e3e2c3ba480fe926469147cc18d6b337aaa032a6708eb6c6ceeb8c89604051612ddb9190613d45565b60405180910390a45b50505050505050565b600060c954905090565b60d360009054906101000a900460ff1615612e47576040517f08c379a0000000000000000000000000000000000000000000000000000000008152600401612e3e90614abb565b60405180910390fd5b612e6885858585856000801b60405180602001604052806000815250611bb3565b5050505050565b6000612e796133c5565b60008503612e8a5760019050612f65565b600073ffffffffffffffffffffffffffffffffffffffff168473ffffffffffffffffffffffffffffffffffffffff1603612f335760008373ffffffffffffffffffffffffffffffffffffffff1686604051612ee490615887565b60006040518083038185875af1925050503d8060008114612f21576040519150601f19603f3d011682016040523d82523d6000602084013e612f26565b606091505b5050905080915050612f65565b612f608284878773ffffffffffffffffffffffffffffffffffffffff166131be909392919063ffffffff16565b600190505b612f6d613414565b949350505050565b60007f01ffc9a7000000000000000000000000000000000000000000000000000000007bffffffffffffffffffffffffffffffffffffffffffffffffffffffff1916827bffffffffffffffffffffffffffffffffffffffffffffffffffffffff1916149050919050565b612ff081612feb6130d4565b61341e565b50565b612ffd8282611e82565b6130d05760016065600084815260200190815260200160002060000160008373ffffffffffffffffffffffffffffffffffffffff1673ffffffffffffffffffffffffffffffffffffffff16815260200190815260200160002060006101000a81548160ff0219169083151502179055506130756130d4565b73ffffffffffffffffffffffffffffffffffffffff168173ffffffffffffffffffffffffffffffffffffffff16837f2f8788117e7eff1d82e926ec794901d17c78024a50270940304540a733656f0d60405160405180910390a45b5050565b600033905090565b6130e68282611e82565b156131ba5760006065600084815260200190815260200160002060000160008373ffffffffffffffffffffffffffffffffffffffff1673ffffffffffffffffffffffffffffffffffffffff16815260200190815260200160002060006101000a81548160ff02191690831515021790555061315f6130d4565b73ffffffffffffffffffffffffffffffffffffffff168173ffffffffffffffffffffffffffffffffffffffff16837ff6391f5c32d9c69d2a47ea670b442974b53935d1edc7fd64eb21e047a839171b60405160405180910390a45b5050565b613241846323b872dd60e01b8585856040516024016131df9392919061589c565b604051602081830303815290604052907bffffffffffffffffffffffffffffffffffffffffffffffffffffffff19166020820180517bffffffffffffffffffffffffffffffffffffffffffffffffffffffff83818316178352505050506134a3565b50505050565b60008060d25411613259576000613263565b6132628561280e565b5b9050613293818560cb60009054906101000a900473ffffffffffffffffffffffffffffffffffffffff1685612e6f565b80156132b257506132b181866132a99190615705565b858585612e6f565b5b6132f1576040517f08c379a00000000000000000000000000000000000000000000000000000000081526004016132e8906155d7565b60405180910390fd5b5050505050565b6000808273ffffffffffffffffffffffffffffffffffffffff163b119050919050565b600060019054906101000a900460ff1661336a576040517f08c379a000000000000000000000000000000000000000000000000000000000815260040161336190615945565b60405180910390fd5b565b600060019054906101000a900460ff166133bb576040517f08c379a00000000000000000000000000000000000000000000000000000000081526004016133b290615945565b60405180910390fd5b6133c361356b565b565b60026097540361340a576040517f08c379a0000000000000000000000000000000000000000000000000000000008152600401613401906159b1565b60405180910390fd5b6002609781905550565b6001609781905550565b6134288282611e82565b61349f57613435816135c4565b6134438360001c60206135f1565b604051602001613454929190615ab0565b6040516020818303038152906040526040517f08c379a00000000000000000000000000000000000000000000000000000000081526004016134969190615b23565b60405180910390fd5b5050565b6000613505826040518060400160405280602081526020017f5361666545524332303a206c6f772d6c6576656c2063616c6c206661696c65648152508573ffffffffffffffffffffffffffffffffffffffff1661382d9092919063ffffffff16565b90506000815114806135275750808060200190518101906135269190614d6e565b5b613566576040517f08c379a000000000000000000000000000000000000000000000000000000000815260040161355d90615bb7565b60405180910390fd5b505050565b600060019054906101000a900460ff166135ba576040517f08c379a00000000000000000000000000000000000000000000000000000000081526004016135b190615945565b60405180910390fd5b6001609781905550565b60606135ea8273ffffffffffffffffffffffffffffffffffffffff16601460ff166135f1565b9050919050565b60606000600283600261360491906155f7565b61360e919061550f565b67ffffffffffffffff81111561362757613626613e21565b5b6040519080825280601f01601f1916602001820160405280156136595781602001600182028036833780820191505090505b5090507f300000000000000000000000000000000000000000000000000000000000000081600081518110613691576136906154b1565b5b60200101907effffffffffffffffffffffffffffffffffffffffffffffffffffffffffffff1916908160001a9053507f7800000000000000000000000000000000000000000000000000000000000000816001815181106136f5576136f46154b1565b5b60200101907effffffffffffffffffffffffffffffffffffffffffffffffffffffffffffff1916908160001a9053506000600184600261373591906155f7565b61373f919061550f565b90505b60018111156137df577f3031323334353637383961626364656600000000000000000000000000000000600f861660108110613781576137806154b1565b5b1a60f81b828281518110613798576137976154b1565b5b60200101907effffffffffffffffffffffffffffffffffffffffffffffffffffffffffffff1916908160001a905350600485901c9450806137d890615bd7565b9050613742565b5060008414613823576040517f08c379a000000000000000000000000000000000000000000000000000000000815260040161381a90615c4c565b60405180910390fd5b8091505092915050565b606061383c8484600085613845565b90509392505050565b60608247101561388a576040517f08c379a000000000000000000000000000000000000000000000000000000000815260040161388190615cde565b60405180910390fd5b6000808673ffffffffffffffffffffffffffffffffffffffff1685876040516138b39190615d2f565b60006040518083038185875af1925050503d80600081146138f0576040519150601f19603f3d011682016040523d82523d6000602084013e6138f5565b606091505b509150915061390687838387613912565b92505050949350505050565b6060831561397457600083510361396c5761392c85613987565b61396b576040517f08c379a000000000000000000000000000000000000000000000000000000000815260040161396290615d92565b60405180910390fd5b5b82905061397f565b61397e83836139aa565b5b949350505050565b6000808273ffffffffffffffffffffffffffffffffffffffff163b119050919050565b6000825111156139bd5781518083602001fd5b806040517f08c379a00000000000000000000000000000000000000000000000000000000081526004016139f19190615b23565b60405180910390fd5b600073ffffffffffffffffffffffffffffffffffffffff82169050919050565b6000819050919050565b6000613a3f613a3a613a35846139fa565b613a1a565b6139fa565b9050919050565b6000613a5182613a24565b9050919050565b6000613a6382613a46565b9050919050565b613a7381613a58565b82525050565b6000602082019050613a8e6000830184613a6a565b92915050565b6000604051905090565b600080fd5b600080fd5b6000819050919050565b613abb81613aa8565b8114613ac657600080fd5b50565b600081359050613ad881613ab2565b92915050565b6000613ae9826139fa565b9050919050565b613af981613ade565b8114613b0457600080fd5b50565b600081359050613b1681613af0565b92915050565b6000819050919050565b613b2f81613b1c565b8114613b3a57600080fd5b50565b600081359050613b4c81613b26565b92915050565b6000613b5d826139fa565b9050919050565b613b6d81613b52565b8114613b7857600080fd5b50565b600081359050613b8a81613b64565b92915050565b60008060008060808587031215613baa57613ba9613a9e565b5b6000613bb887828801613ac9565b9450506020613bc987828801613b07565b9350506040613bda87828801613b3d565b9250506060613beb87828801613b7b565b91505092959194509250565b60008115159050919050565b613c0c81613bf7565b82525050565b6000602082019050613c276000830184613c03565b92915050565b60007fffffffff0000000000000000000000000000000000000000000000000000000082169050919050565b613c6281613c2d565b8114613c6d57600080fd5b50565b600081359050613c7f81613c59565b92915050565b600060208284031215613c9b57613c9a613a9e565b5b6000613ca984828501613c70565b91505092915050565b600060208284031215613cc857613cc7613a9e565b5b6000613cd684828501613b7b565b91505092915050565b613ce881613b1c565b82525050565b6000602082019050613d036000830184613cdf565b92915050565b600060208284031215613d1f57613d1e613a9e565b5b6000613d2d84828501613ac9565b91505092915050565b613d3f81613b52565b82525050565b6000602082019050613d5a6000830184613d36565b92915050565b600063ffffffff82169050919050565b613d7981613d60565b8114613d8457600080fd5b50565b600081359050613d9681613d70565b92915050565b60008060408385031215613db357613db2613a9e565b5b6000613dc185828601613b7b565b9250506020613dd285828601613d87565b9150509250929050565b613de581613aa8565b82525050565b6000602082019050613e006000830184613ddc565b92915050565b600080fd5b600080fd5b6000601f19601f8301169050919050565b7f4e487b7100000000000000000000000000000000000000000000000000000000600052604160045260246000fd5b613e5982613e10565b810181811067ffffffffffffffff82111715613e7857613e77613e21565b5b80604052505050565b6000613e8b613a94565b9050613e978282613e50565b919050565b600067ffffffffffffffff821115613eb757613eb6613e21565b5b613ec082613e10565b9050602081019050919050565b82818337600083830152505050565b6000613eef613eea84613e9c565b613e81565b905082815260208101848484011115613f0b57613f0a613e0b565b5b613f16848285613ecd565b509392505050565b600082601f830112613f3357613f32613e06565b5b8135613f43848260208601613edc565b91505092915050565b600080600080600080600080610100898b031215613f6d57613f6c613a9e565b5b6000613f7b8b828c01613ac9565b9850506020613f8c8b828c01613b7b565b9750506040613f9d8b828c01613b3d565b9650506060613fae8b828c01613b3d565b9550506080613fbf8b828c01613b7b565b94505060a0613fd08b828c01613b3d565b93505060c0613fe18b828c01613ac9565b92505060e089013567ffffffffffffffff81111561400257614001613aa3565b5b61400e8b828c01613f1e565b9150509295985092959890939650565b6000806040838503121561403557614034613a9e565b5b600061404385828601613ac9565b925050602061405485828601613b7b565b9150509250929050565b600061406982613b52565b9050919050565b6140798161405e565b811461408457600080fd5b50565b60008135905061409681614070565b92915050565b6000602082840312156140b2576140b1613a9e565b5b60006140c084828501614087565b91505092915050565b600080600080600080600060e0888a0312156140e8576140e7613a9e565b5b60006140f68a828b01613ac9565b97505060206141078a828b01613b3d565b96505060406141188a828b01613b7b565b95505060606141298a828b01613b3d565b945050608061413a8a828b01613b7b565b93505060a061414b8a828b01613ac9565b92505060c088013567ffffffffffffffff81111561416c5761416b613aa3565b5b6141788a828b01613f1e565b91505092959891949750929550565b60006020828403121561419d5761419c613a9e565b5b600082013567ffffffffffffffff8111156141bb576141ba613aa3565b5b6141c784828501613f1e565b91505092915050565b6000806000606084860312156141e9576141e8613a9e565b5b60006141f786828701613b7b565b935050602061420886828701613b3d565b925050604061421986828701613b7b565b9150509250925092565b600080600080600080600060e0888a03121561424257614241613a9e565b5b60006142508a828b01613c70565b97505060206142618a828b01613d87565b96505060406142728a828b01613ac9565b95505060606142838a828b01613b3d565b94505060806142948a828b01613b7b565b93505060a06142a58a828b01613b3d565b92505060c06142b68a828b01613b3d565b91505092959891949750929550565b6000806000606084860312156142de576142dd613a9e565b5b60006142ec86828701613b7b565b93505060206142fd86828701613b3d565b925050604061430e86828701613b3d565b9150509250925092565b600080600080600080600060e0888a03121561433757614336613a9e565b5b60006143458a828b01613ac9565b97505060206143568a828b01613b7b565b96505060406143678a828b01613b3d565b95505060606143788a828b01613b3d565b94505060806143898a828b01613b3d565b93505060a061439a8a828b01613ac9565b92505060c088013567ffffffffffffffff8111156143bb576143ba613aa3565b5b6143c78a828b01613f1e565b91505092959891949750929550565b60006143e182613a46565b9050919050565b6143f1816143d6565b82525050565b600060208201905061440c60008301846143e8565b92915050565b60006020828403121561442857614427613a9e565b5b600061443684828501613b07565b91505092915050565b600061444a82613a46565b9050919050565b61445a8161443f565b82525050565b60006020820190506144756000830184614451565b92915050565b600067ffffffffffffffff82111561449657614495613e21565b5b602082029050602081019050919050565b600080fd5b600080fd5b600060a082840312156144c7576144c66144ac565b5b6144d160a0613e81565b905060006144e184828501613ac9565b60008301525060206144f584828501613b7b565b602083015250604061450984828501613b3d565b604083015250606061451d84828501613b3d565b606083015250608061453184828501613b3d565b60808301525092915050565b600061455061454b8461447b565b613e81565b90508083825260208201905060a08402830185811115614573576145726144a7565b5b835b8181101561459c578061458888826144b1565b84526020840193505060a081019050614575565b5050509392505050565b600082601f8301126145bb576145ba613e06565b5b81356145cb84826020860161453d565b91505092915050565b6000806000606084860312156145ed576145ec613a9e565b5b600084013567ffffffffffffffff81111561460b5761460a613aa3565b5b614617868287016145a6565b935050602061462886828701613ac9565b925050604084013567ffffffffffffffff81111561464957614648613aa3565b5b61465586828701613f1e565b9150509250925092565b6000806040838503121561467657614675613a9e565b5b600061468485828601613b7b565b925050602061469585828601613b3d565b9150509250929050565b6146a881613d60565b82525050565b60006020820190506146c3600083018461469f565b92915050565b6146d281613c2d565b82525050565b60006020820190506146ed60008301846146c9565b92915050565b60006020828403121561470957614708613a9e565b5b600061471784828501613b3d565b91505092915050565b600080fd5b60008083601f84011261473b5761473a613e06565b5b8235905067ffffffffffffffff81111561475857614757614720565b5b602083019150836080820283011115614774576147736144a7565b5b9250929050565b6000806020838503121561479257614791613a9e565b5b600083013567ffffffffffffffff8111156147b0576147af613aa3565b5b6147bc85828601614725565b92509250509250929050565b60008060008060008060008060006101208a8c0312156147eb576147ea613a9e565b5b60006147f98c828d01613ac9565b995050602061480a8c828d01613b7b565b985050604061481b8c828d01613b7b565b975050606061482c8c828d01613b3d565b965050608061483d8c828d01613b3d565b95505060a061484e8c828d01613d87565b94505060c061485f8c828d01613d87565b93505060e06148708c828d01613b3d565b9250506101006148828c828d01613d87565b9150509295985092959850929598565b600061489d82613a46565b9050919050565b6148ad81614892565b82525050565b60006020820190506148c860008301846148a4565b92915050565b60008060008060008060c087890312156148eb576148ea613a9e565b5b60006148f989828a01613d87565b965050602061490a89828a01613b7b565b955050604061491b89828a01613b3d565b945050606061492c89828a01613b3d565b935050608061493d89828a01613ac9565b92505060a087013567ffffffffffffffff81111561495e5761495d613aa3565b5b61496a89828a01613f1e565b9150509295509295509295565b600080600080600060a0868803121561499357614992613a9e565b5b60006149a188828901613ac9565b95505060206149b288828901613b7b565b94505060406149c388828901613b3d565b93505060606149d488828901613b3d565b92505060806149e588828901613b3d565b9150509295509295909350565b600082825260208201905092915050565b7f524f233000000000000000000000000000000000000000000000000000000000600082015250565b6000614a396004836149f2565b9150614a4482614a03565b602082019050919050565b60006020820190508181036000830152614a6881614a2c565b9050919050565b7f524f233200000000000000000000000000000000000000000000000000000000600082015250565b6000614aa56004836149f2565b9150614ab082614a6f565b602082019050919050565b60006020820190508181036000830152614ad481614a98565b9050919050565b614ae481613ade565b82525050565b600060a082019050614aff6000830188613ddc565b614b0c6020830187614adb565b614b196040830186613cdf565b614b266060830185613d36565b614b336080830184613d36565b9695505050505050565b7f524f233700000000000000000000000000000000000000000000000000000000600082015250565b6000614b736004836149f2565b9150614b7e82614b3d565b602082019050919050565b60006020820190508181036000830152614ba281614b66565b9050919050565b7f524f233800000000000000000000000000000000000000000000000000000000600082015250565b6000614bdf6004836149f2565b9150614bea82614ba9565b602082019050919050565b60006020820190508181036000830152614c0e81614bd2565b9050919050565b6000604082019050614c2a6000830185613cdf565b614c376020830184613d36565b9392505050565b600081519050919050565b600082825260208201905092915050565b60005b83811015614c78578082015181840152602081019050614c5d565b60008484015250505050565b6000614c8f82614c3e565b614c998185614c49565b9350614ca9818560208601614c5a565b614cb281613e10565b840191505092915050565b600061010082019050614cd3600083018b613ddc565b614ce0602083018a613d36565b614ced6040830189613cdf565b614cfa6060830188613cdf565b614d076080830187613d36565b614d1460a0830186613cdf565b614d2160c0830185613ddc565b81810360e0830152614d338184614c84565b90509998505050505050505050565b614d4b81613bf7565b8114614d5657600080fd5b50565b600081519050614d6881614d42565b92915050565b600060208284031215614d8457614d83613a9e565b5b6000614d9284828501614d59565b91505092915050565b7f416363657373436f6e74726f6c3a2063616e206f6e6c792072656e6f756e636560008201527f20726f6c657320666f722073656c660000000000000000000000000000000000602082015250565b6000614df7602f836149f2565b9150614e0282614d9b565b604082019050919050565b60006020820190508181036000830152614e2681614dea565b9050919050565b600061010082019050614e43600083018b613ddc565b614e50602083018a613cdf565b614e5d6040830189613cdf565b614e6a6060830188613d36565b614e776080830187613cdf565b614e8460a0830186613d36565b614e9160c0830185613ddc565b81810360e0830152614ea38184614c84565b90509998505050505050505050565b600081519050614ec181613c59565b92915050565b600081519050614ed681613d70565b92915050565b600081519050614eeb81613ab2565b92915050565b600081519050614f0081613b26565b92915050565b600081519050614f1581613af0565b92915050565b600080600080600080600080610100898b031215614f3c57614f3b613a9e565b5b6000614f4a8b828c01614eb2565b9850506020614f5b8b828c01614ec7565b9750506040614f6c8b828c01614edc565b9650506060614f7d8b828c01614ef1565b9550506080614f8e8b828c01614f06565b94505060a0614f9f8b828c01614ef1565b93505060c0614fb08b828c01614ef1565b92505060e0614fc18b828c01614f06565b9150509295985092959890939650565b7f524f233400000000000000000000000000000000000000000000000000000000600082015250565b60006150076004836149f2565b915061501282614fd1565b602082019050919050565b6000602082019050818103600083015261503681614ffa565b9050919050565b7f524f233500000000000000000000000000000000000000000000000000000000600082015250565b60006150736004836149f2565b915061507e8261503d565b602082019050919050565b600060208201905081810360008301526150a281615066565b9050919050565b60006060820190506150be6000830186613d36565b6150cb6020830185613cdf565b6150d86040830184613cdf565b949350505050565b60006040820190506150f56000830185613ddc565b6151026020830184613ddc565b9392505050565b7f524f233130000000000000000000000000000000000000000000000000000000600082015250565b600061513f6005836149f2565b915061514a82615109565b602082019050919050565b6000602082019050818103600083015261516e81615132565b9050919050565b60006101008201905061518b600083018b6146c9565b615198602083018a61469f565b6151a56040830189613ddc565b6151b26060830188613cdf565b6151bf6080830187613d36565b6151cc60a0830186613cdf565b6151d960c0830185613cdf565b6151e660e0830184613d36565b9998505050505050505050565b600061012082019050615209600083018c61469f565b615216602083018b613ddc565b615223604083018a613cdf565b6152306060830189613d36565b61523d6080830188613cdf565b61524a60a0830187613cdf565b61525760c083018661469f565b61526460e0830185613d36565b615272610100830184613cdf565b9a9950505050505050505050565b7f524f233133000000000000000000000000000000000000000000000000000000600082015250565b60006152b66005836149f2565b91506152c182615280565b602082019050919050565b600060208201905081810360008301526152e5816152a9565b9050919050565b60006060820190506153016000830186613d36565b61530e602083018561469f565b61531b60408301846146c9565b949350505050565b60006020828403121561533957615338613a9e565b5b600061534784828501614edc565b91505092915050565b7f5573652053696e676c6520436c61696d20426174636800000000000000000000600082015250565b60006153866016836149f2565b915061539182615350565b602082019050919050565b600060208201905081810360008301526153b581615379565b9050919050565b7f496e697469616c697a61626c653a20636f6e747261637420697320616c72656160008201527f647920696e697469616c697a6564000000000000000000000000000000000000602082015250565b6000615418602e836149f2565b9150615423826153bc565b604082019050919050565b600060208201905081810360008301526154478161540b565b9050919050565b6000819050919050565b600060ff82169050919050565b600061548061547b6154768461544e565b613a1a565b615458565b9050919050565b61549081615465565b82525050565b60006020820190506154ab6000830184615487565b92915050565b7f4e487b7100000000000000000000000000000000000000000000000000000000600052603260045260246000fd5b7f4e487b7100000000000000000000000000000000000000000000000000000000600052601160045260246000fd5b600061551a82613b1c565b915061552583613b1c565b925082820190508082111561553d5761553c6154e0565b5b92915050565b600061554e82613b1c565b91507fffffffffffffffffffffffffffffffffffffffffffffffffffffffffffffffff82036155805761557f6154e0565b5b600182019050919050565b7f524f233136000000000000000000000000000000000000000000000000000000600082015250565b60006155c16005836149f2565b91506155cc8261558b565b602082019050919050565b600060208201905081810360008301526155f0816155b4565b9050919050565b600061560282613b1c565b915061560d83613b1c565b925082820261561b81613b1c565b91508282048414831517615632576156316154e0565b5b5092915050565b7f4e487b7100000000000000000000000000000000000000000000000000000000600052601260045260246000fd5b600061567382613b1c565b915061567e83613b1c565b92508261568e5761568d615639565b5b828204905092915050565b7f524f233134000000000000000000000000000000000000000000000000000000600082015250565b60006156cf6005836149f2565b91506156da82615699565b602082019050919050565b600060208201905081810360008301526156fe816156c2565b9050919050565b600061571082613b1c565b915061571b83613b1c565b9250828203905081811115615733576157326154e0565b5b92915050565b600060808201905061574e600083018761469f565b61575b6020830186613cdf565b615768604083018561469f565b6157756060830184613cdf565b95945050505050565b7f524f233131000000000000000000000000000000000000000000000000000000600082015250565b60006157b46005836149f2565b91506157bf8261577e565b602082019050919050565b600060208201905081810360008301526157e3816157a7565b9050919050565b7f524f233132000000000000000000000000000000000000000000000000000000600082015250565b60006158206005836149f2565b915061582b826157ea565b602082019050919050565b6000602082019050818103600083015261584f81615813565b9050919050565b600081905092915050565b50565b6000615871600083615856565b915061587c82615861565b600082019050919050565b600061589282615864565b9150819050919050565b60006060820190506158b16000830186613d36565b6158be6020830185613d36565b6158cb6040830184613cdf565b949350505050565b7f496e697469616c697a61626c653a20636f6e7472616374206973206e6f74206960008201527f6e697469616c697a696e67000000000000000000000000000000000000000000602082015250565b600061592f602b836149f2565b915061593a826158d3565b604082019050919050565b6000602082019050818103600083015261595e81615922565b9050919050565b7f5265656e7472616e637947756172643a207265656e7472616e742063616c6c00600082015250565b600061599b601f836149f2565b91506159a682615965565b602082019050919050565b600060208201905081810360008301526159ca8161598e565b9050919050565b600081905092915050565b7f416363657373436f6e74726f6c3a206163636f756e7420000000000000000000600082015250565b6000615a126017836159d1565b9150615a1d826159dc565b601782019050919050565b600081519050919050565b6000615a3e82615a28565b615a4881856159d1565b9350615a58818560208601614c5a565b80840191505092915050565b7f206973206d697373696e6720726f6c6520000000000000000000000000000000600082015250565b6000615a9a6011836159d1565b9150615aa582615a64565b601182019050919050565b6000615abb82615a05565b9150615ac78285615a33565b9150615ad282615a8d565b9150615ade8284615a33565b91508190509392505050565b6000615af582615a28565b615aff81856149f2565b9350615b0f818560208601614c5a565b615b1881613e10565b840191505092915050565b60006020820190508181036000830152615b3d8184615aea565b905092915050565b7f5361666545524332303a204552433230206f7065726174696f6e20646964206e60008201527f6f74207375636365656400000000000000000000000000000000000000000000602082015250565b6000615ba1602a836149f2565b9150615bac82615b45565b604082019050919050565b60006020820190508181036000830152615bd081615b94565b9050919050565b6000615be282613b1c565b915060008203615bf557615bf46154e0565b5b600182039050919050565b7f537472696e67733a20686578206c656e67746820696e73756666696369656e74600082015250565b6000615c366020836149f2565b9150615c4182615c00565b602082019050919050565b60006020820190508181036000830152615c6581615c29565b9050919050565b7f416464726573733a20696e73756666696369656e742062616c616e636520666f60008201527f722063616c6c0000000000000000000000000000000000000000000000000000602082015250565b6000615cc86026836149f2565b9150615cd382615c6c565b604082019050919050565b60006020820190508181036000830152615cf781615cbb565b9050919050565b6000615d0982614c3e565b615d138185615856565b9350615d23818560208601614c5a565b80840191505092915050565b6000615d3b8284615cfe565b915081905092915050565b7f416464726573733a2063616c6c20746f206e6f6e2d636f6e7472616374000000600082015250565b6000615d7c601d836149f2565b9150615d8782615d46565b602082019050919050565b60006020820190508181036000830152615dab81615d6f565b905091905056fea2646970667358221220d310c292194e5611b1b6bac18d6381cbe5ec2d626e431e9c16cac5e531545e0764736f6c63430008180033",
  "linkReferences": {},
  "deployedLinkReferences": {}
}