{
  "_format": "hh-sol-artifact-1",
  "contractName": "SingleAttestationBookV3",
  "sourceName": "contracts/singleAttestationBookV3.sol",
  "abi": [
    {
      "inputs": [],
      "stateMutability": "nonpayable",
      "type": "constructor"
    },
    {
      "anonymous": false,
      "inputs": [
        {
          "indexed": true,
          "internalType": "bytes32",
          "name": "attestationBatchMessageHash",
          "type": "bytes32"
        },
        {
          "indexed": true,
          "internalType": "uint32",
          "name": "batchIndex",
          "type": "uint32"
        },
        {
          "indexed": true,
          "internalType": "bytes4",
          "name": "networkId",
          "type": "bytes4"
        },
        {
          "indexed": false,
          "internalType": "bytes",
          "name": "encodedBatchPayload",
          "type": "bytes"
        }
      ],
      "name": "BatchConstructed",
      "type": "event"
    },
    {
      "anonymous": false,
      "inputs": [
        {
          "indexed": true,
          "internalType": "bytes4",
          "name": "networkId",
          "type": "bytes4"
        },
        {
          "indexed": false,
          "internalType": "uint256",
          "name": "interval",
          "type": "uint256"
        }
      ],
      "name": "BatchConstructionIntervalHeightSet",
      "type": "event"
    },
    {
      "anonymous": false,
      "inputs": [
        {
          "indexed": false,
          "internalType": "uint256",
          "name": "totalOrders",
          "type": "uint256"
        },
        {
          "indexed": false,
          "internalType": "uint256",
          "name": "submittedOrders",
          "type": "uint256"
        }
      ],
      "name": "BatchSubmitted",
      "type": "event"
    },
    {
      "anonymous": false,
      "inputs": [
        {
          "indexed": false,
          "internalType": "uint8",
          "name": "version",
          "type": "uint8"
        }
      ],
      "name": "Initialized",
      "type": "event"
    },
    {
      "anonymous": false,
      "inputs": [
        {
          "indexed": true,
          "internalType": "bytes32",
          "name": "id",
          "type": "bytes32"
        },
        {
          "indexed": true,
          "internalType": "bytes4",
          "name": "networkId",
          "type": "bytes4"
        },
        {
          "indexed": true,
          "internalType": "uint256",
          "name": "currentRecentCount",
          "type": "uint256"
        }
      ],
      "name": "OrderAttestationDuplicatedOrAboveLimit",
      "type": "event"
    },
    {
      "anonymous": false,
      "inputs": [
        {
          "indexed": true,
          "internalType": "bytes32",
          "name": "id",
          "type": "bytes32"
        },
        {
          "indexed": true,
          "internalType": "address",
          "name": "attester",
          "type": "address"
        },
        {
          "indexed": true,
          "internalType": "uint32",
          "name": "batchIndex",
          "type": "uint32"
        },
        {
          "indexed": false,
          "internalType": "address",
          "name": "beneficiary",
          "type": "address"
        },
        {
          "indexed": false,
          "internalType": "bytes",
          "name": "signature",
          "type": "bytes"
        }
      ],
      "name": "OrderAttested",
      "type": "event"
    },
    {
      "anonymous": false,
      "inputs": [
        {
          "indexed": true,
          "internalType": "bytes32",
          "name": "role",
          "type": "bytes32"
        },
        {
          "indexed": true,
          "internalType": "bytes32",
          "name": "previousAdminRole",
          "type": "bytes32"
        },
        {
          "indexed": true,
          "internalType": "bytes32",
          "name": "newAdminRole",
          "type": "bytes32"
        }
      ],
      "name": "RoleAdminChanged",
      "type": "event"
    },
    {
      "anonymous": false,
      "inputs": [
        {
          "indexed": true,
          "internalType": "bytes32",
          "name": "role",
          "type": "bytes32"
        },
        {
          "indexed": true,
          "internalType": "address",
          "name": "account",
          "type": "address"
        },
        {
          "indexed": true,
          "internalType": "address",
          "name": "sender",
          "type": "address"
        }
      ],
      "name": "RoleGranted",
      "type": "event"
    },
    {
      "anonymous": false,
      "inputs": [
        {
          "indexed": true,
          "internalType": "bytes32",
          "name": "role",
          "type": "bytes32"
        },
        {
          "indexed": true,
          "internalType": "address",
          "name": "account",
          "type": "address"
        },
        {
          "indexed": true,
          "internalType": "address",
          "name": "sender",
          "type": "address"
        }
      ],
      "name": "RoleRevoked",
      "type": "event"
    },
    {
      "stateMutability": "payable",
      "type": "fallback"
    },
    {
      "inputs": [],
      "name": "DEFAULT_ADMIN_ROLE",
      "outputs": [
        {
          "internalType": "bytes32",
          "name": "",
          "type": "bytes32"
        }
      ],
      "stateMutability": "view",
      "type": "function"
    },
    {
      "inputs": [
        {
          "internalType": "bytes32",
          "name": "",
          "type": "bytes32"
        },
        {
          "internalType": "uint256",
          "name": "",
          "type": "uint256"
        }
      ],
      "name": "DLQSingleOrderAttestationsByNetwork",
      "outputs": [
        {
          "internalType": "bytes32",
          "name": "orderId",
          "type": "bytes32"
        },
        {
          "internalType": "address",
          "name": "attester",
          "type": "address"
        },
        {
          "internalType": "address",
          "name": "beneficiary",
          "type": "address"
        },
        {
          "internalType": "bytes",
          "name": "signature",
          "type": "bytes"
        }
      ],
      "stateMutability": "view",
      "type": "function"
    },
    {
      "inputs": [],
      "name": "TRNToken",
      "outputs": [
        {
          "internalType": "contract IERC20",
          "name": "",
          "type": "address"
        }
      ],
      "stateMutability": "view",
      "type": "function"
    },
    {
      "inputs": [],
      "name": "allowBatchOverride",
      "outputs": [
        {
          "internalType": "bool",
          "name": "",
          "type": "bool"
        }
      ],
      "stateMutability": "view",
      "type": "function"
    },
    {
      "inputs": [
        {
          "internalType": "bytes32",
          "name": "",
          "type": "bytes32"
        }
      ],
      "name": "antiDuplicateMap",
      "outputs": [
        {
          "internalType": "bytes32",
          "name": "",
          "type": "bytes32"
        }
      ],
      "stateMutability": "view",
      "type": "function"
    },
    {
      "inputs": [
        {
          "internalType": "bytes32[]",
          "name": "orderIds",
          "type": "bytes32[]"
        },
        {
          "internalType": "address[]",
          "name": "beneficiaries",
          "type": "address[]"
        },
        {
          "internalType": "bytes[]",
          "name": "signatures",
          "type": "bytes[]"
        },
        {
          "internalType": "bytes[]",
          "name": "messagePayloads",
          "type": "bytes[]"
        },
        {
          "internalType": "bytes4[]",
          "name": "networks",
          "type": "bytes4[]"
        }
      ],
      "name": "attestOrdersBatch",
      "outputs": [],
      "stateMutability": "nonpayable",
      "type": "function"
    },
    {
      "inputs": [
        {
          "internalType": "bytes32",
          "name": "orderId",
          "type": "bytes32"
        },
        {
          "internalType": "address",
          "name": "beneficiary",
          "type": "address"
        },
        {
          "internalType": "bytes",
          "name": "signature",
          "type": "bytes"
        },
        {
          "internalType": "bytes",
          "name": "messagePayload",
          "type": "bytes"
        },
        {
          "internalType": "bytes4",
          "name": "network",
          "type": "bytes4"
        }
      ],
      "name": "attestSingleOrder",
      "outputs": [],
      "stateMutability": "nonpayable",
      "type": "function"
    },
    {
      "inputs": [
        {
          "internalType": "bytes32[]",
          "name": "orderIds",
          "type": "bytes32[]"
        },
        {
          "internalType": "address[]",
          "name": "beneficiaries",
          "type": "address[]"
        },
        {
          "internalType": "bytes[]",
          "name": "signatures",
          "type": "bytes[]"
        },
        {
          "internalType": "bytes[]",
          "name": "messagePayloads",
          "type": "bytes[]"
        },
        {
          "internalType": "bytes4[]",
          "name": "networks",
          "type": "bytes4[]"
        }
      ],
      "name": "attestSingleOrders",
      "outputs": [],
      "stateMutability": "nonpayable",
      "type": "function"
    },
    {
      "inputs": [],
      "name": "attestationBatchMaker",
      "outputs": [
        {
          "internalType": "contract AttestationBatchMakerV3",
          "name": "",
          "type": "address"
        }
      ],
      "stateMutability": "view",
      "type": "function"
    },
    {
      "inputs": [],
      "name": "attestationsVerifierProofs",
      "outputs": [
        {
          "internalType": "contract AttestationsVerifierProofs",
          "name": "",
          "type": "address"
        }
      ],
      "stateMutability": "view",
      "type": "function"
    },
    {
      "inputs": [],
      "name": "attestersPortal",
      "outputs": [
        {
          "internalType": "contract AttestersPortal",
          "name": "",
          "type": "address"
        }
      ],
      "stateMutability": "view",
      "type": "function"
    },
    {
      "inputs": [
        {
          "internalType": "bytes32",
          "name": "",
          "type": "bytes32"
        },
        {
          "internalType": "uint256",
          "name": "",
          "type": "uint256"
        }
      ],
      "name": "batchToIncludedOrderIdsByMessageHash",
      "outputs": [
        {
          "internalType": "bytes32",
          "name": "",
          "type": "bytes32"
        }
      ],
      "stateMutability": "view",
      "type": "function"
    },
    {
      "inputs": [
        {
          "internalType": "bytes4",
          "name": "networkId",
          "type": "bytes4"
        },
        {
          "internalType": "uint256",
          "name": "currentQuorum",
          "type": "uint256"
        },
        {
          "internalType": "uint256",
          "name": "batchConstructionIntervalHeight",
          "type": "uint256"
        },
        {
          "internalType": "uint256",
          "name": "lastBatchConstructedHeightOffset",
          "type": "uint256"
        }
      ],
      "name": "checkBatchReadyToConstruct",
      "outputs": [
        {
          "internalType": "bool",
          "name": "",
          "type": "bool"
        }
      ],
      "stateMutability": "view",
      "type": "function"
    },
    {
      "inputs": [],
      "name": "checkForMatchingGMPMessagePayload",
      "outputs": [
        {
          "internalType": "bool",
          "name": "",
          "type": "bool"
        }
      ],
      "stateMutability": "view",
      "type": "function"
    },
    {
      "inputs": [
        {
          "internalType": "bytes4",
          "name": "network",
          "type": "bytes4"
        },
        {
          "internalType": "uint32",
          "name": "index",
          "type": "uint32"
        }
      ],
      "name": "combineNetworkIdWithIndex",
      "outputs": [
        {
          "internalType": "bytes32",
          "name": "",
          "type": "bytes32"
        }
      ],
      "stateMutability": "pure",
      "type": "function"
    },
    {
      "inputs": [
        {
          "internalType": "bytes4",
          "name": "network",
          "type": "bytes4"
        },
        {
          "internalType": "bytes32",
          "name": "orderId",
          "type": "bytes32"
        }
      ],
      "name": "combineNetworkIdWithOrderId",
      "outputs": [
        {
          "internalType": "bytes32",
          "name": "",
          "type": "bytes32"
        }
      ],
      "stateMutability": "pure",
      "type": "function"
    },
    {
      "inputs": [
        {
          "internalType": "bytes32",
          "name": "orderId",
          "type": "bytes32"
        }
      ],
      "name": "getBatchAttestationMessageHashByOrderId",
      "outputs": [
        {
          "internalType": "bytes32",
          "name": "",
          "type": "bytes32"
        }
      ],
      "stateMutability": "view",
      "type": "function"
    },
    {
      "inputs": [
        {
          "internalType": "bytes32",
          "name": "attestationBatchMessageHash",
          "type": "bytes32"
        }
      ],
      "name": "getBatchOrdersCount",
      "outputs": [
        {
          "internalType": "uint256",
          "name": "",
          "type": "uint256"
        }
      ],
      "stateMutability": "view",
      "type": "function"
    },
    {
      "inputs": [
        {
          "internalType": "bytes32",
          "name": "orderId",
          "type": "bytes32"
        }
      ],
      "name": "getBatchPayloadByOrderId",
      "outputs": [
        {
          "internalType": "bytes",
          "name": "",
          "type": "bytes"
        }
      ],
      "stateMutability": "view",
      "type": "function"
    },
    {
      "inputs": [
        {
          "internalType": "bytes32",
          "name": "attestationBatchMessageHash",
          "type": "bytes32"
        }
      ],
      "name": "getIncludedOrderIds",
      "outputs": [
        {
          "internalType": "bytes32[]",
          "name": "",
          "type": "bytes32[]"
        }
      ],
      "stateMutability": "view",
      "type": "function"
    },
    {
      "inputs": [
        {
          "internalType": "bytes",
          "name": "messagePayload",
          "type": "bytes"
        }
      ],
      "name": "getMessagePayloadHash",
      "outputs": [
        {
          "internalType": "bytes32",
          "name": "",
          "type": "bytes32"
        }
      ],
      "stateMutability": "pure",
      "type": "function"
    },
    {
      "inputs": [
        {
          "internalType": "bytes4",
          "name": "networkId",
          "type": "bytes4"
        }
      ],
      "name": "getPerNetworkLimitOrDefault",
      "outputs": [
        {
          "internalType": "uint256",
          "name": "",
          "type": "uint256"
        }
      ],
      "stateMutability": "view",
      "type": "function"
    },
    {
      "inputs": [
        {
          "internalType": "bytes4",
          "name": "networkId",
          "type": "bytes4"
        }
      ],
      "name": "getRecentSingleOrderAttestedWithLimit",
      "outputs": [
        {
          "internalType": "bytes32[]",
          "name": "",
          "type": "bytes32[]"
        },
        {
          "internalType": "bytes[]",
          "name": "",
          "type": "bytes[]"
        }
      ],
      "stateMutability": "view",
      "type": "function"
    },
    {
      "inputs": [
        {
          "internalType": "bytes4",
          "name": "networkId",
          "type": "bytes4"
        }
      ],
      "name": "getRecentSingleOrderIdsAttested",
      "outputs": [
        {
          "internalType": "bytes32[]",
          "name": "",
          "type": "bytes32[]"
        }
      ],
      "stateMutability": "view",
      "type": "function"
    },
    {
      "inputs": [
        {
          "internalType": "bytes4",
          "name": "networkId",
          "type": "bytes4"
        }
      ],
      "name": "getRecentSingleOrderIdsAttestedWithLimit",
      "outputs": [
        {
          "internalType": "bytes32[]",
          "name": "",
          "type": "bytes32[]"
        }
      ],
      "stateMutability": "view",
      "type": "function"
    },
    {
      "inputs": [
        {
          "internalType": "bytes4",
          "name": "networkId",
          "type": "bytes4"
        }
      ],
      "name": "getRecentlyAttestedCount",
      "outputs": [
        {
          "internalType": "uint256",
          "name": "",
          "type": "uint256"
        }
      ],
      "stateMutability": "view",
      "type": "function"
    },
    {
      "inputs": [
        {
          "internalType": "bytes32",
          "name": "role",
          "type": "bytes32"
        }
      ],
      "name": "getRoleAdmin",
      "outputs": [
        {
          "internalType": "bytes32",
          "name": "",
          "type": "bytes32"
        }
      ],
      "stateMutability": "view",
      "type": "function"
    },
    {
      "inputs": [
        {
          "internalType": "bytes4",
          "name": "networkId",
          "type": "bytes4"
        }
      ],
      "name": "getTotalAttestedCount",
      "outputs": [
        {
          "internalType": "uint256",
          "name": "",
          "type": "uint256"
        }
      ],
      "stateMutability": "view",
      "type": "function"
    },
    {
      "inputs": [
        {
          "internalType": "bytes4",
          "name": "networkId",
          "type": "bytes4"
        }
      ],
      "name": "getTotalBatchedCount",
      "outputs": [
        {
          "internalType": "uint256",
          "name": "",
          "type": "uint256"
        }
      ],
      "stateMutability": "view",
      "type": "function"
    },
    {
      "inputs": [
        {
          "internalType": "bytes32",
          "name": "role",
          "type": "bytes32"
        },
        {
          "internalType": "address",
          "name": "account",
          "type": "address"
        }
      ],
      "name": "grantRole",
      "outputs": [],
      "stateMutability": "nonpayable",
      "type": "function"
    },
    {
      "inputs": [
        {
          "internalType": "bytes32",
          "name": "role",
          "type": "bytes32"
        },
        {
          "internalType": "address",
          "name": "account",
          "type": "address"
        }
      ],
      "name": "hasRole",
      "outputs": [
        {
          "internalType": "bool",
          "name": "",
          "type": "bool"
        }
      ],
      "stateMutability": "view",
      "type": "function"
    },
    {
      "inputs": [
        {
          "internalType": "address",
          "name": "_owner",
          "type": "address"
        }
      ],
      "name": "initialize",
      "outputs": [],
      "stateMutability": "nonpayable",
      "type": "function"
    },
    {
      "inputs": [
        {
          "internalType": "bytes32",
          "name": "orderId",
          "type": "bytes32"
        },
        {
          "internalType": "address",
          "name": "beneficiary",
          "type": "address"
        },
        {
          "internalType": "bytes4",
          "name": "network",
          "type": "bytes4"
        }
      ],
      "name": "isAttestationSubmitted",
      "outputs": [
        {
          "internalType": "bool",
          "name": "",
          "type": "bool"
        }
      ],
      "stateMutability": "view",
      "type": "function"
    },
    {
      "inputs": [
        {
          "internalType": "bytes4",
          "name": "networkId",
          "type": "bytes4"
        },
        {
          "internalType": "bytes32",
          "name": "orderId",
          "type": "bytes32"
        }
      ],
      "name": "isAttested",
      "outputs": [
        {
          "internalType": "bool",
          "name": "",
          "type": "bool"
        },
        {
          "internalType": "bool",
          "name": "",
          "type": "bool"
        }
      ],
      "stateMutability": "view",
      "type": "function"
    },
    {
      "inputs": [],
      "name": "limit",
      "outputs": [
        {
          "internalType": "uint256",
          "name": "",
          "type": "uint256"
        }
      ],
      "stateMutability": "view",
      "type": "function"
    },
    {
      "inputs": [
        {
          "internalType": "bytes32",
          "name": "attestationBatchMessageHash",
          "type": "bytes32"
        },
        {
          "internalType": "bytes32[]",
          "name": "orderIds",
          "type": "bytes32[]"
        }
      ],
      "name": "linkCreatedBatchWithOrders",
      "outputs": [],
      "stateMutability": "nonpayable",
      "type": "function"
    },
    {
      "inputs": [
        {
          "internalType": "bytes32",
          "name": "",
          "type": "bytes32"
        }
      ],
      "name": "messagePayloadHashCounter",
      "outputs": [
        {
          "internalType": "uint256",
          "name": "",
          "type": "uint256"
        }
      ],
      "stateMutability": "view",
      "type": "function"
    },
    {
      "inputs": [
        {
          "internalType": "bytes32",
          "name": "",
          "type": "bytes32"
        }
      ],
      "name": "messagePayloadMap",
      "outputs": [
        {
          "internalType": "bytes",
          "name": "",
          "type": "bytes"
        }
      ],
      "stateMutability": "view",
      "type": "function"
    },
    {
      "inputs": [
        {
          "internalType": "bytes32",
          "name": "",
          "type": "bytes32"
        }
      ],
      "name": "mostPopularPayloadHash",
      "outputs": [
        {
          "internalType": "bytes32",
          "name": "",
          "type": "bytes32"
        }
      ],
      "stateMutability": "view",
      "type": "function"
    },
    {
      "inputs": [
        {
          "internalType": "bytes32",
          "name": "",
          "type": "bytes32"
        }
      ],
      "name": "orderToBatchAttestationMessageHashMap",
      "outputs": [
        {
          "internalType": "bytes32",
          "name": "",
          "type": "bytes32"
        }
      ],
      "stateMutability": "view",
      "type": "function"
    },
    {
      "inputs": [],
      "name": "pendingAttestationsBook",
      "outputs": [
        {
          "internalType": "contract PendingAttestationsBook",
          "name": "",
          "type": "address"
        }
      ],
      "stateMutability": "view",
      "type": "function"
    },
    {
      "inputs": [
        {
          "internalType": "bytes4",
          "name": "",
          "type": "bytes4"
        }
      ],
      "name": "perNetworkLimit",
      "outputs": [
        {
          "internalType": "uint256",
          "name": "",
          "type": "uint256"
        }
      ],
      "stateMutability": "view",
      "type": "function"
    },
    {
      "inputs": [
        {
          "internalType": "bytes4",
          "name": "",
          "type": "bytes4"
        }
      ],
      "name": "perNetworkSingleAttestationsCounter",
      "outputs": [
        {
          "internalType": "uint256",
          "name": "",
          "type": "uint256"
        }
      ],
      "stateMutability": "view",
      "type": "function"
    },
    {
      "inputs": [
        {
          "internalType": "bytes4",
          "name": "",
          "type": "bytes4"
        }
      ],
      "name": "recentAttestationsCounter",
      "outputs": [
        {
          "internalType": "uint256",
          "name": "",
          "type": "uint256"
        }
      ],
      "stateMutability": "view",
      "type": "function"
    },
    {
      "inputs": [
        {
          "internalType": "bytes32",
          "name": "",
          "type": "bytes32"
        },
        {
          "internalType": "uint256",
          "name": "",
          "type": "uint256"
        }
      ],
      "name": "recentSingleOrderAttestationsByNetwork",
      "outputs": [
        {
          "internalType": "address",
          "name": "attester",
          "type": "address"
        },
        {
          "internalType": "address",
          "name": "beneficiary",
          "type": "address"
        },
        {
          "internalType": "bytes",
          "name": "signature",
          "type": "bytes"
        },
        {
          "internalType": "bytes",
          "name": "messagePayload",
          "type": "bytes"
        }
      ],
      "stateMutability": "view",
      "type": "function"
    },
    {
      "inputs": [
        {
          "internalType": "bytes4",
          "name": "",
          "type": "bytes4"
        },
        {
          "internalType": "uint256",
          "name": "",
          "type": "uint256"
        }
      ],
      "name": "recentSingleOrderIdsAttested",
      "outputs": [
        {
          "internalType": "bytes32",
          "name": "",
          "type": "bytes32"
        }
      ],
      "stateMutability": "view",
      "type": "function"
    },
    {
      "inputs": [
        {
          "internalType": "bytes32",
          "name": "role",
          "type": "bytes32"
        },
        {
          "internalType": "address",
          "name": "account",
          "type": "address"
        }
      ],
      "name": "renounceRole",
      "outputs": [],
      "stateMutability": "nonpayable",
      "type": "function"
    },
    {
      "inputs": [
        {
          "internalType": "bytes32",
          "name": "role",
          "type": "bytes32"
        },
        {
          "internalType": "address",
          "name": "account",
          "type": "address"
        }
      ],
      "name": "revokeRole",
      "outputs": [],
      "stateMutability": "nonpayable",
      "type": "function"
    },
    {
      "inputs": [
        {
          "internalType": "contract AttestationBatchMakerV3",
          "name": "_attestationBatchMaker",
          "type": "address"
        }
      ],
      "name": "setAttestationBatchMaker",
      "outputs": [],
      "stateMutability": "nonpayable",
      "type": "function"
    },
    {
      "inputs": [
        {
          "internalType": "contract SingleAttestationBookV2",
          "name": "_singleAttestationBookV2",
          "type": "address"
        }
      ],
      "name": "setAttestationBookV2",
      "outputs": [],
      "stateMutability": "nonpayable",
      "type": "function"
    },
    {
      "inputs": [
        {
          "internalType": "contract AttestationsVerifierProofs",
          "name": "_attestationsVerifierProofs",
          "type": "address"
        }
      ],
      "name": "setAttestationsVerifierProofs",
      "outputs": [],
      "stateMutability": "nonpayable",
      "type": "function"
    },
    {
      "inputs": [
        {
          "internalType": "contract AttestersPortal",
          "name": "_attestersPortal",
          "type": "address"
        }
      ],
      "name": "setAttestersPortal",
      "outputs": [],
      "stateMutability": "nonpayable",
      "type": "function"
    },
    {
      "inputs": [
        {
          "internalType": "uint256",
          "name": "_limit",
          "type": "uint256"
        }
      ],
      "name": "setLimit",
      "outputs": [],
      "stateMutability": "nonpayable",
      "type": "function"
    },
    {
      "inputs": [
        {
          "internalType": "bytes4",
          "name": "networkId",
          "type": "bytes4"
        },
        {
          "internalType": "uint256",
          "name": "_limit",
          "type": "uint256"
        }
      ],
      "name": "setNetworkLimit",
      "outputs": [],
      "stateMutability": "nonpayable",
      "type": "function"
    },
    {
      "inputs": [
        {
          "internalType": "contract PendingAttestationsBook",
          "name": "_pendingAttestationsBook",
          "type": "address"
        }
      ],
      "name": "setPendingAttestationsBook",
      "outputs": [],
      "stateMutability": "nonpayable",
      "type": "function"
    },
    {
      "inputs": [
        {
          "internalType": "bool",
          "name": "_usePendingAttestationsBook",
          "type": "bool"
        }
      ],
      "name": "setUsePendingAttestationsBook",
      "outputs": [],
      "stateMutability": "nonpayable",
      "type": "function"
    },
    {
      "inputs": [
        {
          "internalType": "bytes32",
          "name": "_version",
          "type": "bytes32"
        }
      ],
      "name": "setVersion",
      "outputs": [],
      "stateMutability": "nonpayable",
      "type": "function"
    },
    {
      "inputs": [
        {
          "internalType": "bytes32",
          "name": "",
          "type": "bytes32"
        }
      ],
      "name": "signaturesCount",
      "outputs": [
        {
          "internalType": "uint256",
          "name": "",
          "type": "uint256"
        }
      ],
      "stateMutability": "view",
      "type": "function"
    },
    {
      "inputs": [],
      "name": "singleAttestationBookV2",
      "outputs": [
        {
          "internalType": "contract SingleAttestationBookV2",
          "name": "",
          "type": "address"
        }
      ],
      "stateMutability": "view",
      "type": "function"
    },
    {
      "inputs": [
        {
          "internalType": "bytes4",
          "name": "interfaceId",
          "type": "bytes4"
        }
      ],
      "name": "supportsInterface",
      "outputs": [
        {
          "internalType": "bool",
          "name": "",
          "type": "bool"
        }
      ],
      "stateMutability": "view",
      "type": "function"
    },
    {
      "inputs": [],
      "name": "usePendingAttestationsBook",
      "outputs": [
        {
          "internalType": "bool",
          "name": "",
          "type": "bool"
        }
      ],
      "stateMutability": "view",
      "type": "function"
    },
    {
      "inputs": [],
      "name": "version",
      "outputs": [
        {
          "internalType": "bytes32",
          "name": "",
          "type": "bytes32"
        }
      ],
      "stateMutability": "view",
      "type": "function"
    },
    {
      "stateMutability": "payable",
      "type": "receive"
    }
  ],
  "bytecode": "0x60806040523480156200001157600080fd5b50620000226200002860201b60201c565b620001d2565b600060019054906101000a900460ff16156200007b576040517f08c379a0000000000000000000000000000000000000000000000000000000008152600401620000729062000175565b60405180910390fd5b60ff801660008054906101000a900460ff1660ff1614620000ec5760ff6000806101000a81548160ff021916908360ff1602179055507f7f26b83ff96e1f2b6a682f133852f6798a09c465da95921460cefb384740249860ff604051620000e39190620001b5565b60405180910390a15b565b600082825260208201905092915050565b7f496e697469616c697a61626c653a20636f6e747261637420697320696e69746960008201527f616c697a696e6700000000000000000000000000000000000000000000000000602082015250565b60006200015d602783620000ee565b91506200016a82620000ff565b604082019050919050565b6000602082019050818103600083015262000190816200014e565b9050919050565b600060ff82169050919050565b620001af8162000197565b82525050565b6000602082019050620001cc6000830184620001a4565b92915050565b615ff380620001e26000396000f3fe6080604052600436106103b15760003560e01c8063984da1b7116101e7578063d538c65b1161010d578063e6d2fb95116100a0578063f60565981161006f578063f605659814610fa0578063fb3b201114610fdd578063fcc2256e14611006578063ffdd6f8914611031576103b8565b8063e6d2fb9514610ecf578063e6dc94a414610efa578063e700e26714610f37578063eb6ba35414610f77576103b8565b8063dc88b9c9116100dc578063dc88b9c914610def578063dd2b05d614610e2c578063df8ff96514610e69578063e3caa06514610ea6576103b8565b8063d538c65b14610d21578063d547741f14610d4c578063d6248d3414610d75578063dc7d5cae14610db2576103b8565b8063ba53b8ac11610185578063c769eb1311610154578063c769eb1314610c67578063c8a3ab2714610ca4578063ca5f81b514610ccf578063d03685cb14610cf8576103b8565b8063ba53b8ac14610b9b578063ba6466f714610bd8578063bb2703ea14610c01578063c4d66de814610c3e576103b8565b8063a217fddf116101c1578063a217fddf14610acb578063a4d66daf14610af6578063ae9b88e214610b21578063b4c41e6a14610b5e576103b8565b8063984da1b714610a145780639929249c14610a515780639a8e345414610a8e576103b8565b80633dc23634116102d75780635e9f32ca1161026a57806383d5383d1161023957806383d5383d14610920578063882417d51461095d5780638e6ff4701461099a57806391d14854146109d7576103b8565b80635e9f32ca14610840578063637f9280146108695780637994a724146108a65780637fc74166146108e3576103b8565b806350d61473116102a657806350d61473146107845780635385297e146107c157806354fd4d50146107ec5780635611943614610817576103b8565b80633dc23634146106a157806341bb1b0e146106de5780634762a5281461071b5780634a7f16881461075b576103b8565b806325394aba1161034f5780632f5593c91161031e5780632f5593c9146105e6578063361444a51461060f57806336568abe1461064d5780633aac5d3d14610676576103b8565b806325394aba1461052c57806327ea6f2b146105695780632a92e26e146105925780632f2ff15d146105bd576103b8565b806316a9cad91161038b57806316a9cad91461045d578063228e7556146104865780632313ae91146104b1578063248a9ca3146104ef576103b8565b806301ffc9a7146103ba57806306a1ab9d146103f75780630b83ab2a14610420576103b8565b366103b857005b005b3480156103c657600080fd5b506103e160048036038101906103dc9190613b19565b61105c565b6040516103ee9190613b61565b60405180910390f35b34801561040357600080fd5b5061041e60048036038101906104199190613d0b565b6110d6565b005b34801561042c57600080fd5b5061044760048036038101906104429190613d67565b611296565b6040516104549190613e52565b60405180910390f35b34801561046957600080fd5b50610484600480360381019061047f9190613ee4565b611301565b005b34801561049257600080fd5b5061049b611391565b6040516104a89190613f70565b60405180910390f35b3480156104bd57600080fd5b506104d860048036038101906104d39190613b19565b6113b7565b6040516104e69291906140cc565b60405180910390f35b3480156104fb57600080fd5b5061051660048036038101906105119190613d67565b61150c565b6040516105239190614112565b60405180910390f35b34801561053857600080fd5b50610553600480360381019061054e9190613d67565b61152c565b6040516105609190614177565b60405180910390f35b34801561057557600080fd5b50610590600480360381019061058b91906141cf565b6115cc565b005b34801561059e57600080fd5b506105a7611622565b6040516105b4919061421d565b60405180910390f35b3480156105c957600080fd5b506105e460048036038101906105df9190614264565b611648565b005b3480156105f257600080fd5b5061060d60048036038101906106089190614401565b611669565b005b34801561061b57600080fd5b506106366004803603810190610631919061451e565b61194f565b60405161064492919061455e565b60405180910390f35b34801561065957600080fd5b50610674600480360381019061066f9190614264565b611a2b565b005b34801561068257600080fd5b5061068b611aae565b60405161069891906145ba565b60405180910390f35b3480156106ad57600080fd5b506106c860048036038101906106c39190613d67565b611ad4565b6040516106d59190614177565b60405180910390f35b3480156106ea57600080fd5b5061070560048036038101906107009190613d67565b611b97565b6040516107129190614112565b60405180910390f35b34801561072757600080fd5b50610742600480360381019061073d91906145d5565b611bb4565b6040516107529493929190614624565b60405180910390f35b34801561076757600080fd5b50610782600480360381019061077d91906146c6565b611cc9565b005b34801561079057600080fd5b506107ab60048036038101906107a69190614782565b61227e565b6040516107b89190613b61565b60405180910390f35b3480156107cd57600080fd5b506107d6612381565b6040516107e39190613b61565b60405180910390f35b3480156107f857600080fd5b50610801612394565b60405161080e9190614112565b60405180910390f35b34801561082357600080fd5b5061083e60048036038101906108399190614825565b61239a565b005b34801561084c57600080fd5b5061086760048036038101906108629190614890565b61242a565b005b34801561087557600080fd5b50610890600480360381019061088b9190613b19565b6124ba565b60405161089d91906148cc565b60405180910390f35b3480156108b257600080fd5b506108cd60048036038101906108c891906148e7565b6124d2565b6040516108da9190614112565b60405180910390f35b3480156108ef57600080fd5b5061090a60048036038101906109059190613d67565b612503565b60405161091791906148cc565b60405180910390f35b34801561092c57600080fd5b5061094760048036038101906109429190613b19565b612523565b6040516109549190613e52565b60405180910390f35b34801561096957600080fd5b50610984600480360381019061097f9190614927565b61267f565b6040516109919190614112565b60405180910390f35b3480156109a657600080fd5b506109c160048036038101906109bc91906145d5565b6126a1565b6040516109ce9190614112565b60405180910390f35b3480156109e357600080fd5b506109fe60048036038101906109f99190614264565b6126d2565b604051610a0b9190613b61565b60405180910390f35b348015610a2057600080fd5b50610a3b6004803603810190610a369190613d67565b61273d565b604051610a4891906148cc565b60405180910390f35b348015610a5d57600080fd5b50610a786004803603810190610a739190613d67565b612755565b604051610a859190614112565b60405180910390f35b348015610a9a57600080fd5b50610ab56004803603810190610ab09190613b19565b61276d565b604051610ac291906148cc565b60405180910390f35b348015610ad757600080fd5b50610ae06127e1565b604051610aed9190614112565b60405180910390f35b348015610b0257600080fd5b50610b0b6127e8565b604051610b1891906148cc565b60405180910390f35b348015610b2d57600080fd5b50610b486004803603810190610b439190613b19565b6127ee565b604051610b5591906148cc565b60405180910390f35b348015610b6a57600080fd5b50610b856004803603810190610b809190613b19565b612806565b604051610b9291906148cc565b60405180910390f35b348015610ba757600080fd5b50610bc26004803603810190610bbd9190613b19565b61281e565b604051610bcf9190613e52565b60405180910390f35b348015610be457600080fd5b50610bff6004803603810190610bfa91906149b2565b6128c7565b005b348015610c0d57600080fd5b50610c286004803603810190610c239190613d67565b612957565b604051610c359190614112565b60405180910390f35b348015610c4a57600080fd5b50610c656004803603810190610c6091906149df565b61296f565b005b348015610c7357600080fd5b50610c8e6004803603810190610c899190614a48565b612af1565b604051610c9b9190614112565b60405180910390f35b348015610cb057600080fd5b50610cb9612b24565b604051610cc69190613b61565b60405180910390f35b348015610cdb57600080fd5b50610cf66004803603810190610cf19190613d67565b612b37565b005b348015610d0457600080fd5b50610d1f6004803603810190610d1a9190614ac6565b612b8d565b005b348015610d2d57600080fd5b50610d36612c1d565b604051610d439190613b61565b60405180910390f35b348015610d5857600080fd5b50610d736004803603810190610d6e9190614264565b612c30565b005b348015610d8157600080fd5b50610d9c6004803603810190610d979190613d67565b612c51565b604051610da991906148cc565b60405180910390f35b348015610dbe57600080fd5b50610dd96004803603810190610dd49190613b19565b612c69565b604051610de691906148cc565b60405180910390f35b348015610dfb57600080fd5b50610e166004803603810190610e119190614af3565b612d0e565b604051610e239190613b61565b60405180910390f35b348015610e3857600080fd5b50610e536004803603810190610e4e919061451e565b612dbe565b604051610e609190614112565b60405180910390f35b348015610e7557600080fd5b50610e906004803603810190610e8b9190613d67565b612df1565b604051610e9d9190614112565b60405180910390f35b348015610eb257600080fd5b50610ecd6004803603810190610ec89190614b86565b612e09565b005b348015610edb57600080fd5b50610ee4612e72565b604051610ef19190614bd4565b60405180910390f35b348015610f0657600080fd5b50610f216004803603810190610f1c9190613b19565b612e98565b604051610f2e91906148cc565b60405180910390f35b348015610f4357600080fd5b50610f5e6004803603810190610f5991906145d5565b612f3d565b604051610f6e9493929190614bef565b60405180910390f35b348015610f8357600080fd5b50610f9e6004803603810190610f9991906148e7565b6130da565b005b348015610fac57600080fd5b50610fc76004803603810190610fc29190613b19565b613180565b604051610fd491906148cc565b60405180910390f35b348015610fe957600080fd5b506110046004803603810190610fff9190614401565b613225565b005b34801561101257600080fd5b5061101b61344c565b6040516110289190614c63565b60405180910390f35b34801561103d57600080fd5b50611046613472565b6040516110539190614c9f565b60405180910390f35b60007f7965db0b000000000000000000000000000000000000000000000000000000007bffffffffffffffffffffffffffffffffffffffffffffffffffffffff1916827bffffffffffffffffffffffffffffffffffffffffffffffffffffffff191614806110cf57506110ce82613498565b5b9050919050565b609a60009054906101000a900473ffffffffffffffffffffffffffffffffffffffff1673ffffffffffffffffffffffffffffffffffffffff163373ffffffffffffffffffffffffffffffffffffffff1614611166576040517f08c379a000000000000000000000000000000000000000000000000000000000815260040161115d90614d3d565b60405180910390fd5b6000805b825181101561125e57600083828151811061118857611187614d5d565b5b602002602001015190506000801b8114611252578460a060008381526020019081526020016000208190555060ac60009054906101000a900473ffffffffffffffffffffffffffffffffffffffff1673ffffffffffffffffffffffffffffffffffffffff16637d7f68ff82876040518363ffffffff1660e01b8152600401611211929190614d8c565b600060405180830381600087803b15801561122b57600080fd5b505af115801561123f573d6000803e3d6000fd5b50505050828061124e90614de4565b9350505b5080600101905061116a565b5060008111156112915781609f6000858152602001908152602001600020908051906020019061128f929190613a43565b505b505050565b6060609f60008381526020019081526020016000208054806020026020016040519081016040528092919081815260200182805480156112f557602002820191906000526020600020905b8154815260200190600101908083116112e1575b50505050509050919050565b61130e6000801b336126d2565b61134d576040517f08c379a000000000000000000000000000000000000000000000000000000000815260040161134490614e9e565b60405180910390fd5b8060ac60006101000a81548173ffffffffffffffffffffffffffffffffffffffff021916908373ffffffffffffffffffffffffffffffffffffffff16021790555050565b609a60009054906101000a900473ffffffffffffffffffffffffffffffffffffffff1681565b60608060006113c58461276d565b90506000609860009054906101000a900473ffffffffffffffffffffffffffffffffffffffff1673ffffffffffffffffffffffffffffffffffffffff1663c26c12eb6040518163ffffffff1660e01b8152600401602060405180830381865afa158015611436573d6000803e3d6000fd5b505050506040513d601f19601f8201168201806040525081019061145a9190614ed3565b905060ac60009054906101000a900473ffffffffffffffffffffffffffffffffffffffff1673ffffffffffffffffffffffffffffffffffffffff1663ae8905918284886040518463ffffffff1660e01b81526004016114bb93929190614f0f565b600060405180830381865afa1580156114d8573d6000803e3d6000fd5b505050506040513d6000823e3d601f19601f820116820180604052508101906115019190615179565b935093505050915091565b600060656000838152602001908152602001600020600101549050919050565b60a9602052806000526040600020600091509050805461154b90615220565b80601f016020809104026020016040519081016040528092919081815260200182805461157790615220565b80156115c45780601f10611599576101008083540402835291602001916115c4565b820191906000526020600020905b8154815290600101906020018083116115a757829003601f168201915b505050505081565b6115d96000801b336126d2565b611618576040517f08c379a000000000000000000000000000000000000000000000000000000000815260040161160f90614e9e565b60405180910390fd5b8060a28190555050565b609760009054906101000a900473ffffffffffffffffffffffffffffffffffffffff1681565b6116518261150c565b61165a81613502565b6116648383613516565b505050565b609860009054906101000a900473ffffffffffffffffffffffffffffffffffffffff1673ffffffffffffffffffffffffffffffffffffffff1663ee06b289336040518263ffffffff1660e01b81526004016116c49190615251565b602060405180830381865afa1580156116e1573d6000803e3d6000fd5b505050506040513d601f19601f820116820180604052508101906117059190615281565b611744576040517f08c379a000000000000000000000000000000000000000000000000000000000815260040161173b90615320565b60405180910390fd5b878790508a8a905014801561175e5750858590508a8a9050145b61179d576040517f08c379a00000000000000000000000000000000000000000000000000000000081526004016117949061538c565b60405180910390fd5b6000805b8b8b90508110156119055760006118208d8d848181106117c4576117c3614d5d565b5b905060200201358c8c858181106117de576117dd614d5d565b5b90506020020160208101906117f391906149df565b87878681811061180657611805614d5d565b5b905060200201602081019061181b9190613b19565b61227e565b9050801561182e57506118fa565b6118ea8d8d8481811061184457611843614d5d565b5b905060200201358c8c8581811061185e5761185d614d5d565b5b905060200201602081019061187391906149df565b8b8b8681811061188657611885614d5d565b5b905060200281019061189891906153bb565b8b8b888181106118ab576118aa614d5d565b5b90506020028101906118bd91906153bb565b8b8b8a8181106118d0576118cf614d5d565b5b90506020020160208101906118e59190613b19565b611cc9565b82806118f590614de4565b935050505b8060010190506117a1565b507fe6753980bcf56ae86a3ce8797b44ea013b10495e5d37288f85245ea482e604d08b8b90508260405161193a92919061541e565b60405180910390a15050505050505050505050565b600080600060a060008581526020019081526020016000205490506000801b8103611a1b57609b60009054906101000a900473ffffffffffffffffffffffffffffffffffffffff1673ffffffffffffffffffffffffffffffffffffffff1663361444a586866040518363ffffffff1660e01b81526004016119d1929190615447565b6040805180830381865afa1580156119ed573d6000803e3d6000fd5b505050506040513d601f19601f82011682018060405250810190611a119190615470565b9250925050611a24565b60018092509250505b9250929050565b611a336135f7565b73ffffffffffffffffffffffffffffffffffffffff168173ffffffffffffffffffffffffffffffffffffffff1614611aa0576040517f08c379a0000000000000000000000000000000000000000000000000000000008152600401611a9790615522565b60405180910390fd5b611aaa82826135ff565b5050565b609860009054906101000a900473ffffffffffffffffffffffffffffffffffffffff1681565b6060600060a06000848152602001908152602001600020549050609a60009054906101000a900473ffffffffffffffffffffffffffffffffffffffff1673ffffffffffffffffffffffffffffffffffffffff1663248d9151826040518263ffffffff1660e01b8152600401611b499190614112565b600060405180830381865afa158015611b66573d6000803e3d6000fd5b505050506040513d6000823e3d601f19601f82011682018060405250810190611b8f9190615542565b915050919050565b600060a06000838152602001908152602001600020549050919050565b609e6020528160005260406000208181548110611bd057600080fd5b9060005260206000209060040201600091509150508060000154908060010160009054906101000a900473ffffffffffffffffffffffffffffffffffffffff16908060020160009054906101000a900473ffffffffffffffffffffffffffffffffffffffff1690806003018054611c4690615220565b80601f0160208091040260200160405190810160405280929190818152602001828054611c7290615220565b8015611cbf5780601f10611c9457610100808354040283529160200191611cbf565b820191906000526020600020905b815481529060010190602001808311611ca257829003601f168201915b5050505050905084565b609860009054906101000a900473ffffffffffffffffffffffffffffffffffffffff1673ffffffffffffffffffffffffffffffffffffffff1663ee06b289336040518263ffffffff1660e01b8152600401611d249190615251565b602060405180830381865afa158015611d41573d6000803e3d6000fd5b505050506040513d601f19601f82011682018060405250810190611d659190615281565b611da4576040517f08c379a0000000000000000000000000000000000000000000000000000000008152600401611d9b90615320565b60405180910390fd5b600083836000818110611dba57611db9614d5d565b5b9050013560f81c60f81b60f81c905060008160ff1603611e1f5760358484905014611e1a576040517f08c379a0000000000000000000000000000000000000000000000000000000008152600401611e11906155d7565b60405180910390fd5b611f0f565b60018160ff1603611e755760218484905014611e70576040517f08c379a0000000000000000000000000000000000000000000000000000000008152600401611e6790615643565b60405180910390fd5b611f0e565b60058160ff1603611ecb5760c98484905014611ec6576040517f08c379a0000000000000000000000000000000000000000000000000000000008152600401611ebd906156af565b60405180910390fd5b611f0d565b6000611f0c576040517f08c379a0000000000000000000000000000000000000000000000000000000008152600401611f039061571b565b60405180910390fd5b5b5b5b8383600190602192611f2393929190615745565b604051602001611f349291906157bf565b6040516020818303038152906040528051906020012088604051602001611f5b91906157f9565b6040516020818303038152906040528051906020012014611fb1576040517f08c379a0000000000000000000000000000000000000000000000000000000008152600401611fa890615860565b60405180910390fd5b6000611fbd858561267f565b90503373ffffffffffffffffffffffffffffffffffffffff16609960009054906101000a900473ffffffffffffffffffffffffffffffffffffffff1673ffffffffffffffffffffffffffffffffffffffff166397aba7f9838a8a6040518463ffffffff1660e01b8152600401612035939291906158ad565b602060405180830381865afa158015612052573d6000803e3d6000fd5b505050506040513d601f19601f8201168201806040525081019061207691906158f4565b73ffffffffffffffffffffffffffffffffffffffff16146120cc576040517f08c379a00000000000000000000000000000000000000000000000000000000081526004016120c39061596d565b60405180910390fd5b600060ac60009054906101000a900473ffffffffffffffffffffffffffffffffffffffff1673ffffffffffffffffffffffffffffffffffffffff16635dc331f8858c338a8a6040518663ffffffff1660e01b815260040161213195949392919061598d565b6020604051808303816000875af1158015612150573d6000803e3d6000fd5b505050506040513d601f19601f820116820180604052508101906121749190615281565b9050801561227257609a60009054906101000a900473ffffffffffffffffffffffffffffffffffffffff1673ffffffffffffffffffffffffffffffffffffffff166312a58f53856040518263ffffffff1660e01b81526004016121d791906159db565b602060405180830381865afa1580156121f4573d6000803e3d6000fd5b505050506040513d601f19601f820116820180604052508101906122189190615a0b565b63ffffffff163373ffffffffffffffffffffffffffffffffffffffff168b7f0442be2a6eff0e312e87c4a6da5c9e84f3bd7e912b92c9b3f3d69159e19c59288c8c8c60405161226993929190615a38565b60405180910390a45b50505050505050505050565b600080609a60009054906101000a900473ffffffffffffffffffffffffffffffffffffffff1673ffffffffffffffffffffffffffffffffffffffff166312a58f53846040518263ffffffff1660e01b81526004016122dc91906159db565b602060405180830381865afa1580156122f9573d6000803e3d6000fd5b505050506040513d601f19601f8201168201806040525081019061231d9190615a0b565b9050600085858360405160200161233693929190615ae8565b6040516020818303038152906040528051906020012090508560a7600083815260200190815260200160002054036123735760019250505061237a565b6000925050505b9392505050565b60a560009054906101000a900460ff1681565b60a65481565b6123a76000801b336126d2565b6123e6576040517f08c379a00000000000000000000000000000000000000000000000000000000081526004016123dd90614e9e565b60405180910390fd5b80609b60006101000a81548173ffffffffffffffffffffffffffffffffffffffff021916908373ffffffffffffffffffffffffffffffffffffffff16021790555050565b6124376000801b336126d2565b612476576040517f08c379a000000000000000000000000000000000000000000000000000000000815260040161246d90614e9e565b60405180910390fd5b80609a60006101000a81548173ffffffffffffffffffffffffffffffffffffffff021916908373ffffffffffffffffffffffffffffffffffffffff16021790555050565b60a36020528060005260406000206000915090505481565b609c60205281600052604060002081815481106124ee57600080fd5b90600052602060002001600091509150505481565b6000609f6000838152602001908152602001600020805490509050919050565b606060006125308361276d565b90506000609860009054906101000a900473ffffffffffffffffffffffffffffffffffffffff1673ffffffffffffffffffffffffffffffffffffffff1663c26c12eb6040518163ffffffff1660e01b8152600401602060405180830381865afa1580156125a1573d6000803e3d6000fd5b505050506040513d601f19601f820116820180604052508101906125c59190614ed3565b905060008060ac60009054906101000a900473ffffffffffffffffffffffffffffffffffffffff1673ffffffffffffffffffffffffffffffffffffffff1663ae8905918486896040518463ffffffff1660e01b815260040161262993929190614f0f565b600060405180830381865afa158015612646573d6000803e3d6000fd5b505050506040513d6000823e3d601f19601f8201168201806040525081019061266f9190615179565b9150915081945050505050919050565b60008282604051612691929190615b25565b6040518091039020905092915050565b609f60205281600052604060002081815481106126bd57600080fd5b90600052602060002001600091509150505481565b60006065600084815260200190815260200160002060000160008373ffffffffffffffffffffffffffffffffffffffff1673ffffffffffffffffffffffffffffffffffffffff16815260200190815260200160002060009054906101000a900460ff16905092915050565b60aa6020528060005260406000206000915090505481565b60a06020528060005260406000206000915090505481565b60008060a36000847bffffffffffffffffffffffffffffffffffffffffffffffffffffffff19167bffffffffffffffffffffffffffffffffffffffffffffffffffffffff19168152602001908152602001600020549050600081036127d75760a2549150506127dc565b809150505b919050565b6000801b81565b60a25481565b60a46020528060005260406000206000915090505481565b60a16020528060005260406000206000915090505481565b6060609c6000837bffffffffffffffffffffffffffffffffffffffffffffffffffffffff19167bffffffffffffffffffffffffffffffffffffffffffffffffffffffff191681526020019081526020016000208054806020026020016040519081016040528092919081815260200182805480156128bb57602002820191906000526020600020905b8154815260200190600101908083116128a7575b50505050509050919050565b6128d46000801b336126d2565b612913576040517f08c379a000000000000000000000000000000000000000000000000000000000815260040161290a90614e9e565b60405180910390fd5b80609960006101000a81548173ffffffffffffffffffffffffffffffffffffffff021916908373ffffffffffffffffffffffffffffffffffffffff16021790555050565b60ab6020528060005260406000206000915090505481565b60008060019054906101000a900460ff161590508080156129a05750600160008054906101000a900460ff1660ff16105b806129cd57506129af306136e1565b1580156129cc5750600160008054906101000a900460ff1660ff16145b5b612a0c576040517f08c379a0000000000000000000000000000000000000000000000000000000008152600401612a0390615bb0565b60405180910390fd5b60016000806101000a81548160ff021916908360ff1602179055508015612a49576001600060016101000a81548160ff0219169083151502179055505b612a51613704565b612a5e6000801b83613516565b600160a560006101000a81548160ff021916908315150217905550600060a560016101000a81548160ff0219169083151502179055508015612aed5760008060016101000a81548160ff0219169083151502179055507f7f26b83ff96e1f2b6a682f133852f6798a09c465da95921460cefb38474024986001604051612ae49190615c18565b60405180910390a15b5050565b60008282604051602001612b06929190615c54565b60405160208183030381529060405280519060200120905092915050565b60ac60149054906101000a900460ff1681565b612b446000801b336126d2565b612b83576040517f08c379a0000000000000000000000000000000000000000000000000000000008152600401612b7a90614e9e565b60405180910390fd5b8060a68190555050565b612b9a6000801b336126d2565b612bd9576040517f08c379a0000000000000000000000000000000000000000000000000000000008152600401612bd090614e9e565b60405180910390fd5b80609860006101000a81548173ffffffffffffffffffffffffffffffffffffffff021916908373ffffffffffffffffffffffffffffffffffffffff16021790555050565b60a560019054906101000a900460ff1681565b612c398261150c565b612c4281613502565b612c4c83836135ff565b505050565b60a86020528060005260406000206000915090505481565b600060ac60009054906101000a900473ffffffffffffffffffffffffffffffffffffffff1673ffffffffffffffffffffffffffffffffffffffff1663ffe6d2f3836040518263ffffffff1660e01b8152600401612cc691906159db565b602060405180830381865afa158015612ce3573d6000803e3d6000fd5b505050506040513d601f19601f82011682018060405250810190612d079190614ed3565b9050919050565b60008060ac60009054906101000a900473ffffffffffffffffffffffffffffffffffffffff1673ffffffffffffffffffffffffffffffffffffffff16635fbe1eb1876040518263ffffffff1660e01b8152600401612d6c91906159db565b602060405180830381865afa158015612d89573d6000803e3d6000fd5b505050506040513d601f19601f82011682018060405250810190612dad9190614ed3565b905060008111915050949350505050565b60008282604051602001612dd3929190615c80565b60405160208183030381529060405280519060200120905092915050565b60a76020528060005260406000206000915090505481565b612e166000801b336126d2565b612e55576040517f08c379a0000000000000000000000000000000000000000000000000000000008152600401612e4c90614e9e565b60405180910390fd5b8060ac60146101000a81548160ff02191690831515021790555050565b60ac60009054906101000a900473ffffffffffffffffffffffffffffffffffffffff1681565b600060ac60009054906101000a900473ffffffffffffffffffffffffffffffffffffffff1673ffffffffffffffffffffffffffffffffffffffff166399be018c836040518263ffffffff1660e01b8152600401612ef591906159db565b602060405180830381865afa158015612f12573d6000803e3d6000fd5b505050506040513d601f19601f82011682018060405250810190612f369190614ed3565b9050919050565b609d6020528160005260406000208181548110612f5957600080fd5b9060005260206000209060040201600091509150508060000160009054906101000a900473ffffffffffffffffffffffffffffffffffffffff16908060010160009054906101000a900473ffffffffffffffffffffffffffffffffffffffff1690806002018054612fc990615220565b80601f0160208091040260200160405190810160405280929190818152602001828054612ff590615220565b80156130425780601f1061301757610100808354040283529160200191613042565b820191906000526020600020905b81548152906001019060200180831161302557829003601f168201915b50505050509080600301805461305790615220565b80601f016020809104026020016040519081016040528092919081815260200182805461308390615220565b80156130d05780601f106130a5576101008083540402835291602001916130d0565b820191906000526020600020905b8154815290600101906020018083116130b357829003601f168201915b5050505050905084565b6130e76000801b336126d2565b613126576040517f08c379a000000000000000000000000000000000000000000000000000000000815260040161311d90614e9e565b60405180910390fd5b8060a36000847bffffffffffffffffffffffffffffffffffffffffffffffffffffffff19167bffffffffffffffffffffffffffffffffffffffffffffffffffffffff19168152602001908152602001600020819055505050565b600060ac60009054906101000a900473ffffffffffffffffffffffffffffffffffffffff1673ffffffffffffffffffffffffffffffffffffffff166385d9cded836040518263ffffffff1660e01b81526004016131dd91906159db565b602060405180830381865afa1580156131fa573d6000803e3d6000fd5b505050506040513d601f19601f8201168201806040525081019061321e9190614ed3565b9050919050565b609860009054906101000a900473ffffffffffffffffffffffffffffffffffffffff1673ffffffffffffffffffffffffffffffffffffffff1663ee06b289336040518263ffffffff1660e01b81526004016132809190615251565b602060405180830381865afa15801561329d573d6000803e3d6000fd5b505050506040513d601f19601f820116820180604052508101906132c19190615281565b613300576040517f08c379a00000000000000000000000000000000000000000000000000000000081526004016132f790615320565b60405180910390fd5b878790508a8a905014801561331a5750858590508a8a9050145b801561332b5750818190508a8a9050145b61336a576040517f08c379a00000000000000000000000000000000000000000000000000000000081526004016133619061538c565b60405180910390fd5b60005b8a8a905081101561343f576134348b8b8381811061338e5761338d614d5d565b5b905060200201358a8a848181106133a8576133a7614d5d565b5b90506020020160208101906133bd91906149df565b8989858181106133d0576133cf614d5d565b5b90506020028101906133e291906153bb565b8989878181106133f5576133f4614d5d565b5b905060200281019061340791906153bb565b89898981811061341a57613419614d5d565b5b905060200201602081019061342f9190613b19565b611cc9565b80600101905061336d565b5050505050505050505050565b609b60009054906101000a900473ffffffffffffffffffffffffffffffffffffffff1681565b609960009054906101000a900473ffffffffffffffffffffffffffffffffffffffff1681565b60007f01ffc9a7000000000000000000000000000000000000000000000000000000007bffffffffffffffffffffffffffffffffffffffffffffffffffffffff1916827bffffffffffffffffffffffffffffffffffffffffffffffffffffffff1916149050919050565b6135138161350e6135f7565b613755565b50565b61352082826126d2565b6135f35760016065600084815260200190815260200160002060000160008373ffffffffffffffffffffffffffffffffffffffff1673ffffffffffffffffffffffffffffffffffffffff16815260200190815260200160002060006101000a81548160ff0219169083151502179055506135986135f7565b73ffffffffffffffffffffffffffffffffffffffff168173ffffffffffffffffffffffffffffffffffffffff16837f2f8788117e7eff1d82e926ec794901d17c78024a50270940304540a733656f0d60405160405180910390a45b5050565b600033905090565b61360982826126d2565b156136dd5760006065600084815260200190815260200160002060000160008373ffffffffffffffffffffffffffffffffffffffff1673ffffffffffffffffffffffffffffffffffffffff16815260200190815260200160002060006101000a81548160ff0219169083151502179055506136826135f7565b73ffffffffffffffffffffffffffffffffffffffff168173ffffffffffffffffffffffffffffffffffffffff16837ff6391f5c32d9c69d2a47ea670b442974b53935d1edc7fd64eb21e047a839171b60405160405180910390a45b5050565b6000808273ffffffffffffffffffffffffffffffffffffffff163b119050919050565b600060019054906101000a900460ff16613753576040517f08c379a000000000000000000000000000000000000000000000000000000000815260040161374a90615d1e565b60405180910390fd5b565b61375f82826126d2565b6137d65761376c816137da565b61377a8360001c6020613807565b60405160200161378b929190615e1d565b6040516020818303038152906040526040517f08c379a00000000000000000000000000000000000000000000000000000000081526004016137cd9190615e90565b60405180910390fd5b5050565b60606138008273ffffffffffffffffffffffffffffffffffffffff16601460ff16613807565b9050919050565b60606000600283600261381a9190615eb2565b6138249190615ef4565b67ffffffffffffffff81111561383d5761383c613bc8565b5b6040519080825280601f01601f19166020018201604052801561386f5781602001600182028036833780820191505090505b5090507f3000000000000000000000000000000000000000000000000000000000000000816000815181106138a7576138a6614d5d565b5b60200101907effffffffffffffffffffffffffffffffffffffffffffffffffffffffffffff1916908160001a9053507f78000000000000000000000000000000000000000000000000000000000000008160018151811061390b5761390a614d5d565b5b60200101907effffffffffffffffffffffffffffffffffffffffffffffffffffffffffffff1916908160001a9053506000600184600261394b9190615eb2565b6139559190615ef4565b90505b60018111156139f5577f3031323334353637383961626364656600000000000000000000000000000000600f86166010811061399757613996614d5d565b5b1a60f81b8282815181106139ae576139ad614d5d565b5b60200101907effffffffffffffffffffffffffffffffffffffffffffffffffffffffffffff1916908160001a905350600485901c9450806139ee90615f28565b9050613958565b5060008414613a39576040517f08c379a0000000000000000000000000000000000000000000000000000000008152600401613a3090615f9d565b60405180910390fd5b8091505092915050565b828054828255906000526020600020908101928215613a7f579160200282015b82811115613a7e578251825591602001919060010190613a63565b5b509050613a8c9190613a90565b5090565b5b80821115613aa9576000816000905550600101613a91565b5090565b6000604051905090565b600080fd5b600080fd5b60007fffffffff0000000000000000000000000000000000000000000000000000000082169050919050565b613af681613ac1565b8114613b0157600080fd5b50565b600081359050613b1381613aed565b92915050565b600060208284031215613b2f57613b2e613ab7565b5b6000613b3d84828501613b04565b91505092915050565b60008115159050919050565b613b5b81613b46565b82525050565b6000602082019050613b766000830184613b52565b92915050565b6000819050919050565b613b8f81613b7c565b8114613b9a57600080fd5b50565b600081359050613bac81613b86565b92915050565b600080fd5b6000601f19601f8301169050919050565b7f4e487b7100000000000000000000000000000000000000000000000000000000600052604160045260246000fd5b613c0082613bb7565b810181811067ffffffffffffffff82111715613c1f57613c1e613bc8565b5b80604052505050565b6000613c32613aad565b9050613c3e8282613bf7565b919050565b600067ffffffffffffffff821115613c5e57613c5d613bc8565b5b602082029050602081019050919050565b600080fd5b6000613c87613c8284613c43565b613c28565b90508083825260208201905060208402830185811115613caa57613ca9613c6f565b5b835b81811015613cd35780613cbf8882613b9d565b845260208401935050602081019050613cac565b5050509392505050565b600082601f830112613cf257613cf1613bb2565b5b8135613d02848260208601613c74565b91505092915050565b60008060408385031215613d2257613d21613ab7565b5b6000613d3085828601613b9d565b925050602083013567ffffffffffffffff811115613d5157613d50613abc565b5b613d5d85828601613cdd565b9150509250929050565b600060208284031215613d7d57613d7c613ab7565b5b6000613d8b84828501613b9d565b91505092915050565b600081519050919050565b600082825260208201905092915050565b6000819050602082019050919050565b613dc981613b7c565b82525050565b6000613ddb8383613dc0565b60208301905092915050565b6000602082019050919050565b6000613dff82613d94565b613e098185613d9f565b9350613e1483613db0565b8060005b83811015613e45578151613e2c8882613dcf565b9750613e3783613de7565b925050600181019050613e18565b5085935050505092915050565b60006020820190508181036000830152613e6c8184613df4565b905092915050565b600073ffffffffffffffffffffffffffffffffffffffff82169050919050565b6000613e9f82613e74565b9050919050565b6000613eb182613e94565b9050919050565b613ec181613ea6565b8114613ecc57600080fd5b50565b600081359050613ede81613eb8565b92915050565b600060208284031215613efa57613ef9613ab7565b5b6000613f0884828501613ecf565b91505092915050565b6000819050919050565b6000613f36613f31613f2c84613e74565b613f11565b613e74565b9050919050565b6000613f4882613f1b565b9050919050565b6000613f5a82613f3d565b9050919050565b613f6a81613f4f565b82525050565b6000602082019050613f856000830184613f61565b92915050565b600081519050919050565b600082825260208201905092915050565b6000819050602082019050919050565b600081519050919050565b600082825260208201905092915050565b60005b83811015613ff1578082015181840152602081019050613fd6565b60008484015250505050565b600061400882613fb7565b6140128185613fc2565b9350614022818560208601613fd3565b61402b81613bb7565b840191505092915050565b60006140428383613ffd565b905092915050565b6000602082019050919050565b600061406282613f8b565b61406c8185613f96565b93508360208202850161407e85613fa7565b8060005b858110156140ba578484038952815161409b8582614036565b94506140a68361404a565b925060208a01995050600181019050614082565b50829750879550505050505092915050565b600060408201905081810360008301526140e68185613df4565b905081810360208301526140fa8184614057565b90509392505050565b61410c81613b7c565b82525050565b60006020820190506141276000830184614103565b92915050565b600082825260208201905092915050565b600061414982613fb7565b614153818561412d565b9350614163818560208601613fd3565b61416c81613bb7565b840191505092915050565b60006020820190508181036000830152614191818461413e565b905092915050565b6000819050919050565b6141ac81614199565b81146141b757600080fd5b50565b6000813590506141c9816141a3565b92915050565b6000602082840312156141e5576141e4613ab7565b5b60006141f3848285016141ba565b91505092915050565b600061420782613f3d565b9050919050565b614217816141fc565b82525050565b6000602082019050614232600083018461420e565b92915050565b61424181613e94565b811461424c57600080fd5b50565b60008135905061425e81614238565b92915050565b6000806040838503121561427b5761427a613ab7565b5b600061428985828601613b9d565b925050602061429a8582860161424f565b9150509250929050565b600080fd5b60008083601f8401126142bf576142be613bb2565b5b8235905067ffffffffffffffff8111156142dc576142db6142a4565b5b6020830191508360208202830111156142f8576142f7613c6f565b5b9250929050565b60008083601f84011261431557614314613bb2565b5b8235905067ffffffffffffffff811115614332576143316142a4565b5b60208301915083602082028301111561434e5761434d613c6f565b5b9250929050565b60008083601f84011261436b5761436a613bb2565b5b8235905067ffffffffffffffff811115614388576143876142a4565b5b6020830191508360208202830111156143a4576143a3613c6f565b5b9250929050565b60008083601f8401126143c1576143c0613bb2565b5b8235905067ffffffffffffffff8111156143de576143dd6142a4565b5b6020830191508360208202830111156143fa576143f9613c6f565b5b9250929050565b60008060008060008060008060008060a08b8d03121561442457614423613ab7565b5b60008b013567ffffffffffffffff81111561444257614441613abc565b5b61444e8d828e016142a9565b9a509a505060208b013567ffffffffffffffff81111561447157614470613abc565b5b61447d8d828e016142ff565b985098505060408b013567ffffffffffffffff8111156144a05761449f613abc565b5b6144ac8d828e01614355565b965096505060608b013567ffffffffffffffff8111156144cf576144ce613abc565b5b6144db8d828e01614355565b945094505060808b013567ffffffffffffffff8111156144fe576144fd613abc565b5b61450a8d828e016143ab565b92509250509295989b9194979a5092959850565b6000806040838503121561453557614534613ab7565b5b600061454385828601613b04565b925050602061455485828601613b9d565b9150509250929050565b60006040820190506145736000830185613b52565b6145806020830184613b52565b9392505050565b600061459282613f1b565b9050919050565b60006145a482614587565b9050919050565b6145b481614599565b82525050565b60006020820190506145cf60008301846145ab565b92915050565b600080604083850312156145ec576145eb613ab7565b5b60006145fa85828601613b9d565b925050602061460b858286016141ba565b9150509250929050565b61461e81613e94565b82525050565b60006080820190506146396000830187614103565b6146466020830186614615565b6146536040830185614615565b8181036060830152614665818461413e565b905095945050505050565b60008083601f84011261468657614685613bb2565b5b8235905067ffffffffffffffff8111156146a3576146a26142a4565b5b6020830191508360018202830111156146bf576146be613c6f565b5b9250929050565b600080600080600080600060a0888a0312156146e5576146e4613ab7565b5b60006146f38a828b01613b9d565b97505060206147048a828b0161424f565b965050604088013567ffffffffffffffff81111561472557614724613abc565b5b6147318a828b01614670565b9550955050606088013567ffffffffffffffff81111561475457614753613abc565b5b6147608a828b01614670565b935093505060806147738a828b01613b04565b91505092959891949750929550565b60008060006060848603121561479b5761479a613ab7565b5b60006147a986828701613b9d565b93505060206147ba8682870161424f565b92505060406147cb86828701613b04565b9150509250925092565b60006147e082613e74565b9050919050565b60006147f2826147d5565b9050919050565b614802816147e7565b811461480d57600080fd5b50565b60008135905061481f816147f9565b92915050565b60006020828403121561483b5761483a613ab7565b5b600061484984828501614810565b91505092915050565b600061485d82613e94565b9050919050565b61486d81614852565b811461487857600080fd5b50565b60008135905061488a81614864565b92915050565b6000602082840312156148a6576148a5613ab7565b5b60006148b48482850161487b565b91505092915050565b6148c681614199565b82525050565b60006020820190506148e160008301846148bd565b92915050565b600080604083850312156148fe576148fd613ab7565b5b600061490c85828601613b04565b925050602061491d858286016141ba565b9150509250929050565b6000806020838503121561493e5761493d613ab7565b5b600083013567ffffffffffffffff81111561495c5761495b613abc565b5b61496885828601614670565b92509250509250929050565b600061497f82613e94565b9050919050565b61498f81614974565b811461499a57600080fd5b50565b6000813590506149ac81614986565b92915050565b6000602082840312156149c8576149c7613ab7565b5b60006149d68482850161499d565b91505092915050565b6000602082840312156149f5576149f4613ab7565b5b6000614a038482850161424f565b91505092915050565b600063ffffffff82169050919050565b614a2581614a0c565b8114614a3057600080fd5b50565b600081359050614a4281614a1c565b92915050565b60008060408385031215614a5f57614a5e613ab7565b5b6000614a6d85828601613b04565b9250506020614a7e85828601614a33565b9150509250929050565b6000614a93826147d5565b9050919050565b614aa381614a88565b8114614aae57600080fd5b50565b600081359050614ac081614a9a565b92915050565b600060208284031215614adc57614adb613ab7565b5b6000614aea84828501614ab1565b91505092915050565b60008060008060808587031215614b0d57614b0c613ab7565b5b6000614b1b87828801613b04565b9450506020614b2c878288016141ba565b9350506040614b3d878288016141ba565b9250506060614b4e878288016141ba565b91505092959194509250565b614b6381613b46565b8114614b6e57600080fd5b50565b600081359050614b8081614b5a565b92915050565b600060208284031215614b9c57614b9b613ab7565b5b6000614baa84828501614b71565b91505092915050565b6000614bbe82613f3d565b9050919050565b614bce81614bb3565b82525050565b6000602082019050614be96000830184614bc5565b92915050565b6000608082019050614c046000830187614615565b614c116020830186614615565b8181036040830152614c23818561413e565b90508181036060830152614c37818461413e565b905095945050505050565b6000614c4d82614587565b9050919050565b614c5d81614c42565b82525050565b6000602082019050614c786000830184614c54565b92915050565b6000614c8982613f3d565b9050919050565b614c9981614c7e565b82525050565b6000602082019050614cb46000830184614c90565b92915050565b600082825260208201905092915050565b7f4f6e6c7920746865206174746573746174696f6e42617463684d616b6572206360008201527f616e2063616c6c20746869732066756e6374696f6e0000000000000000000000602082015250565b6000614d27603583614cba565b9150614d3282614ccb565b604082019050919050565b60006020820190508181036000830152614d5681614d1a565b9050919050565b7f4e487b7100000000000000000000000000000000000000000000000000000000600052603260045260246000fd5b6000604082019050614da16000830185614103565b614dae6020830184614103565b9392505050565b7f4e487b7100000000000000000000000000000000000000000000000000000000600052601160045260246000fd5b6000614def82614199565b91507fffffffffffffffffffffffffffffffffffffffffffffffffffffffffffffffff8203614e2157614e20614db5565b5b600182019050919050565b7f4f6e6c79206f776e65722063616e2063616c6c20746869732066756e6374696f60008201527f6e00000000000000000000000000000000000000000000000000000000000000602082015250565b6000614e88602183614cba565b9150614e9382614e2c565b604082019050919050565b60006020820190508181036000830152614eb781614e7b565b9050919050565b600081519050614ecd816141a3565b92915050565b600060208284031215614ee957614ee8613ab7565b5b6000614ef784828501614ebe565b91505092915050565b614f0981613ac1565b82525050565b6000606082019050614f2460008301866148bd565b614f3160208301856148bd565b614f3e6040830184614f00565b949350505050565b600081519050614f5581613b86565b92915050565b6000614f6e614f6984613c43565b613c28565b90508083825260208201905060208402830185811115614f9157614f90613c6f565b5b835b81811015614fba5780614fa68882614f46565b845260208401935050602081019050614f93565b5050509392505050565b600082601f830112614fd957614fd8613bb2565b5b8151614fe9848260208601614f5b565b91505092915050565b600067ffffffffffffffff82111561500d5761500c613bc8565b5b602082029050602081019050919050565b600080fd5b600067ffffffffffffffff82111561503e5761503d613bc8565b5b61504782613bb7565b9050602081019050919050565b600061506761506284615023565b613c28565b9050828152602081018484840111156150835761508261501e565b5b61508e848285613fd3565b509392505050565b600082601f8301126150ab576150aa613bb2565b5b81516150bb848260208601615054565b91505092915050565b60006150d76150d284614ff2565b613c28565b905080838252602082019050602084028301858111156150fa576150f9613c6f565b5b835b8181101561514157805167ffffffffffffffff81111561511f5761511e613bb2565b5b80860161512c8982615096565b855260208501945050506020810190506150fc565b5050509392505050565b600082601f8301126151605761515f613bb2565b5b81516151708482602086016150c4565b91505092915050565b600080604083850312156151905761518f613ab7565b5b600083015167ffffffffffffffff8111156151ae576151ad613abc565b5b6151ba85828601614fc4565b925050602083015167ffffffffffffffff8111156151db576151da613abc565b5b6151e78582860161514b565b9150509250929050565b7f4e487b7100000000000000000000000000000000000000000000000000000000600052602260045260246000fd5b6000600282049050600182168061523857607f821691505b60208210810361524b5761524a6151f1565b5b50919050565b60006020820190506152666000830184614615565b92915050565b60008151905061527b81614b5a565b92915050565b60006020828403121561529757615296613ab7565b5b60006152a58482850161526c565b91505092915050565b7f4f6e6c792063757272656e7420636f6d6d6974746565206d656d62657220636160008201527f6e2063616c6c20746869732066756e6374696f6e000000000000000000000000602082015250565b600061530a603483614cba565b9150615315826152ae565b604082019050919050565b60006020820190508181036000830152615339816152fd565b9050919050565b7f4174746573746174696f6e426f6f6b3a20696e76616c696420696e7075740000600082015250565b6000615376601e83614cba565b915061538182615340565b602082019050919050565b600060208201905081810360008301526153a581615369565b9050919050565b600080fd5b600080fd5b600080fd5b600080833560016020038436030381126153d8576153d76153ac565b5b80840192508235915067ffffffffffffffff8211156153fa576153f96153b1565b5b602083019250600182023603831315615416576154156153b6565b5b509250929050565b600060408201905061543360008301856148bd565b61544060208301846148bd565b9392505050565b600060408201905061545c6000830185614f00565b6154696020830184614103565b9392505050565b6000806040838503121561548757615486613ab7565b5b60006154958582860161526c565b92505060206154a68582860161526c565b9150509250929050565b7f416363657373436f6e74726f6c3a2063616e206f6e6c792072656e6f756e636560008201527f20726f6c657320666f722073656c660000000000000000000000000000000000602082015250565b600061550c602f83614cba565b9150615517826154b0565b604082019050919050565b6000602082019050818103600083015261553b816154ff565b9050919050565b60006020828403121561555857615557613ab7565b5b600082015167ffffffffffffffff81111561557657615575613abc565b5b61558284828501615096565b91505092915050565b7f5341423200000000000000000000000000000000000000000000000000000000600082015250565b60006155c1600483614cba565b91506155cc8261558b565b602082019050919050565b600060208201905081810360008301526155f0816155b4565b9050919050565b7f5341423300000000000000000000000000000000000000000000000000000000600082015250565b600061562d600483614cba565b9150615638826155f7565b602082019050919050565b6000602082019050818103600083015261565c81615620565b9050919050565b7f5341423400000000000000000000000000000000000000000000000000000000600082015250565b6000615699600483614cba565b91506156a482615663565b602082019050919050565b600060208201905081810360008301526156c88161568c565b9050919050565b7f5341423500000000000000000000000000000000000000000000000000000000600082015250565b6000615705600483614cba565b9150615710826156cf565b602082019050919050565b60006020820190508181036000830152615734816156f8565b9050919050565b600080fd5b600080fd5b600080858511156157595761575861573b565b5b8386111561576a57615769615740565b5b6001850283019150848603905094509492505050565b600081905092915050565b82818337600083830152505050565b60006157a68385615780565b93506157b383858461578b565b82840190509392505050565b60006157cc82848661579a565b91508190509392505050565b6000819050919050565b6157f36157ee82613b7c565b6157d8565b82525050565b600061580582846157e2565b60208201915081905092915050565b7f5341423600000000000000000000000000000000000000000000000000000000600082015250565b600061584a600483614cba565b915061585582615814565b602082019050919050565b600060208201905081810360008301526158798161583d565b9050919050565b600061588c838561412d565b935061589983858461578b565b6158a283613bb7565b840190509392505050565b60006040820190506158c26000830186614103565b81810360208301526158d5818486615880565b9050949350505050565b6000815190506158ee81614238565b92915050565b60006020828403121561590a57615909613ab7565b5b6000615918848285016158df565b91505092915050565b7f5341423900000000000000000000000000000000000000000000000000000000600082015250565b6000615957600483614cba565b915061596282615921565b602082019050919050565b600060208201905081810360008301526159868161594a565b9050919050565b60006080820190506159a26000830188614f00565b6159af6020830187614103565b6159bc6040830186614615565b81810360608301526159cf818486615880565b90509695505050505050565b60006020820190506159f06000830184614f00565b92915050565b600081519050615a0581614a1c565b92915050565b600060208284031215615a2157615a20613ab7565b5b6000615a2f848285016159f6565b91505092915050565b6000604082019050615a4d6000830186614615565b8181036020830152615a60818486615880565b9050949350505050565b60008160601b9050919050565b6000615a8282615a6a565b9050919050565b6000615a9482615a77565b9050919050565b615aac615aa782613e94565b615a89565b82525050565b60008160e01b9050919050565b6000615aca82615ab2565b9050919050565b615ae2615add82614a0c565b615abf565b82525050565b6000615af482866157e2565b602082019150615b048285615a9b565b601482019150615b148284615ad1565b600482019150819050949350505050565b6000615b3282848661579a565b91508190509392505050565b7f496e697469616c697a61626c653a20636f6e747261637420697320616c72656160008201527f647920696e697469616c697a6564000000000000000000000000000000000000602082015250565b6000615b9a602e83614cba565b9150615ba582615b3e565b604082019050919050565b60006020820190508181036000830152615bc981615b8d565b9050919050565b6000819050919050565b600060ff82169050919050565b6000615c02615bfd615bf884615bd0565b613f11565b615bda565b9050919050565b615c1281615be7565b82525050565b6000602082019050615c2d6000830184615c09565b92915050565b6000819050919050565b615c4e615c4982613ac1565b615c33565b82525050565b6000615c608285615c3d565b600482019150615c708284615ad1565b6004820191508190509392505050565b6000615c8c8285615c3d565b600482019150615c9c82846157e2565b6020820191508190509392505050565b7f496e697469616c697a61626c653a20636f6e7472616374206973206e6f74206960008201527f6e697469616c697a696e67000000000000000000000000000000000000000000602082015250565b6000615d08602b83614cba565b9150615d1382615cac565b604082019050919050565b60006020820190508181036000830152615d3781615cfb565b9050919050565b600081905092915050565b7f416363657373436f6e74726f6c3a206163636f756e7420000000000000000000600082015250565b6000615d7f601783615d3e565b9150615d8a82615d49565b601782019050919050565b600081519050919050565b6000615dab82615d95565b615db58185615d3e565b9350615dc5818560208601613fd3565b80840191505092915050565b7f206973206d697373696e6720726f6c6520000000000000000000000000000000600082015250565b6000615e07601183615d3e565b9150615e1282615dd1565b601182019050919050565b6000615e2882615d72565b9150615e348285615da0565b9150615e3f82615dfa565b9150615e4b8284615da0565b91508190509392505050565b6000615e6282615d95565b615e6c8185614cba565b9350615e7c818560208601613fd3565b615e8581613bb7565b840191505092915050565b60006020820190508181036000830152615eaa8184615e57565b905092915050565b6000615ebd82614199565b9150615ec883614199565b9250828202615ed681614199565b91508282048414831517615eed57615eec614db5565b5b5092915050565b6000615eff82614199565b9150615f0a83614199565b9250828201905080821115615f2257615f21614db5565b5b92915050565b6000615f3382614199565b915060008203615f4657615f45614db5565b5b600182039050919050565b7f537472696e67733a20686578206c656e67746820696e73756666696369656e74600082015250565b6000615f87602083614cba565b9150615f9282615f51565b602082019050919050565b60006020820190508181036000830152615fb681615f7a565b905091905056fea26469706673582212200b3af26f5b62188283d07ba4957f7f991d088879944e013e1ca8462c9d792c4864736f6c63430008180033",
  "linkReferences": {},
  "deployedLinkReferences": {}
}