{
  "_format": "hh-sol-artifact-1",
  "contractName": "EscrowOrder",
  "sourceName": "contracts/escrowOrder.sol",
  "abi": [
    {
      "inputs": [],
      "stateMutability": "nonpayable",
      "type": "constructor"
    },
    {
      "anonymous": false,
      "inputs": [
        {
          "indexed": true,
          "internalType": "bytes32",
          "name": "id",
          "type": "bytes32"
        },
        {
          "indexed": true,
          "internalType": "address",
          "name": "executorOrOrderer",
          "type": "address"
        },
        {
          "indexed": true,
          "internalType": "uint256",
          "name": "amount",
          "type": "uint256"
        },
        {
          "indexed": false,
          "internalType": "address",
          "name": "rewardAsset",
          "type": "address"
        }
      ],
      "name": "Claimed",
      "type": "event"
    },
    {
      "anonymous": false,
      "inputs": [
        {
          "indexed": true,
          "internalType": "bytes32",
          "name": "id",
          "type": "bytes32"
        },
        {
          "indexed": true,
          "internalType": "address",
          "name": "target",
          "type": "address"
        },
        {
          "indexed": true,
          "internalType": "uint256",
          "name": "amount",
          "type": "uint256"
        },
        {
          "indexed": false,
          "internalType": "address",
          "name": "asset",
          "type": "address"
        },
        {
          "indexed": false,
          "internalType": "address",
          "name": "sender",
          "type": "address"
        }
      ],
      "name": "Confirmation",
      "type": "event"
    },
    {
      "anonymous": false,
      "inputs": [
        {
          "indexed": true,
          "internalType": "uint256",
          "name": "confirmedCount",
          "type": "uint256"
        },
        {
          "indexed": true,
          "internalType": "uint256",
          "name": "batchSize",
          "type": "uint256"
        },
        {
          "indexed": false,
          "internalType": "address",
          "name": "sender",
          "type": "address"
        }
      ],
      "name": "ConfirmedBatch",
      "type": "event"
    },
    {
      "anonymous": false,
      "inputs": [
        {
          "indexed": true,
          "internalType": "bytes32",
          "name": "id",
          "type": "bytes32"
        },
        {
          "indexed": true,
          "internalType": "bytes32",
          "name": "remoteOrderId",
          "type": "bytes32"
        },
        {
          "indexed": true,
          "internalType": "address",
          "name": "sender",
          "type": "address"
        },
        {
          "indexed": false,
          "internalType": "bytes32",
          "name": "targetAccount",
          "type": "bytes32"
        },
        {
          "indexed": false,
          "internalType": "bytes4",
          "name": "chainId",
          "type": "bytes4"
        },
        {
          "indexed": false,
          "internalType": "uint32",
          "name": "assetId",
          "type": "uint32"
        },
        {
          "indexed": false,
          "internalType": "address",
          "name": "asset",
          "type": "address"
        },
        {
          "indexed": false,
          "internalType": "uint256",
          "name": "amount",
          "type": "uint256"
        }
      ],
      "name": "EscrowFundsLocked",
      "type": "event"
    },
    {
      "anonymous": false,
      "inputs": [
        {
          "indexed": true,
          "internalType": "bytes32",
          "name": "id",
          "type": "bytes32"
        },
        {
          "indexed": true,
          "internalType": "address",
          "name": "sender",
          "type": "address"
        },
        {
          "indexed": true,
          "internalType": "bytes4",
          "name": "chainId",
          "type": "bytes4"
        },
        {
          "indexed": false,
          "internalType": "uint32",
          "name": "assetId",
          "type": "uint32"
        },
        {
          "indexed": false,
          "internalType": "uint256",
          "name": "amount",
          "type": "uint256"
        },
        {
          "indexed": false,
          "internalType": "uint32",
          "name": "rewardAssetId",
          "type": "uint32"
        },
        {
          "indexed": false,
          "internalType": "uint256",
          "name": "rewardAmount",
          "type": "uint256"
        },
        {
          "indexed": false,
          "internalType": "bytes32",
          "name": "targetAccount",
          "type": "bytes32"
        },
        {
          "indexed": false,
          "internalType": "uint256",
          "name": "orderSubmissionTime",
          "type": "uint256"
        },
        {
          "indexed": false,
          "internalType": "uint256",
          "name": "indicatedTimeoutDuration",
          "type": "uint256"
        }
      ],
      "name": "EscrowOrderCreated",
      "type": "event"
    },
    {
      "anonymous": false,
      "inputs": [
        {
          "indexed": false,
          "internalType": "uint8",
          "name": "version",
          "type": "uint8"
        }
      ],
      "name": "Initialized",
      "type": "event"
    },
    {
      "anonymous": false,
      "inputs": [
        {
          "indexed": true,
          "internalType": "bytes32",
          "name": "id",
          "type": "bytes32"
        },
        {
          "indexed": true,
          "internalType": "bytes4",
          "name": "destination",
          "type": "bytes4"
        },
        {
          "indexed": false,
          "internalType": "uint32",
          "name": "asset",
          "type": "uint32"
        },
        {
          "indexed": false,
          "internalType": "bytes32",
          "name": "targetAccount",
          "type": "bytes32"
        },
        {
          "indexed": false,
          "internalType": "uint256",
          "name": "amount",
          "type": "uint256"
        },
        {
          "indexed": false,
          "internalType": "address",
          "name": "rewardAsset",
          "type": "address"
        },
        {
          "indexed": false,
          "internalType": "uint256",
          "name": "insurance",
          "type": "uint256"
        },
        {
          "indexed": false,
          "internalType": "uint256",
          "name": "maxReward",
          "type": "uint256"
        },
        {
          "indexed": false,
          "internalType": "uint32",
          "name": "nonce",
          "type": "uint32"
        }
      ],
      "name": "OrderCreated",
      "type": "event"
    },
    {
      "anonymous": false,
      "inputs": [
        {
          "indexed": true,
          "internalType": "bytes32",
          "name": "role",
          "type": "bytes32"
        },
        {
          "indexed": true,
          "internalType": "bytes32",
          "name": "previousAdminRole",
          "type": "bytes32"
        },
        {
          "indexed": true,
          "internalType": "bytes32",
          "name": "newAdminRole",
          "type": "bytes32"
        }
      ],
      "name": "RoleAdminChanged",
      "type": "event"
    },
    {
      "anonymous": false,
      "inputs": [
        {
          "indexed": true,
          "internalType": "bytes32",
          "name": "role",
          "type": "bytes32"
        },
        {
          "indexed": true,
          "internalType": "address",
          "name": "account",
          "type": "address"
        },
        {
          "indexed": true,
          "internalType": "address",
          "name": "sender",
          "type": "address"
        }
      ],
      "name": "RoleGranted",
      "type": "event"
    },
    {
      "anonymous": false,
      "inputs": [
        {
          "indexed": true,
          "internalType": "bytes32",
          "name": "role",
          "type": "bytes32"
        },
        {
          "indexed": true,
          "internalType": "address",
          "name": "account",
          "type": "address"
        },
        {
          "indexed": true,
          "internalType": "address",
          "name": "sender",
          "type": "address"
        }
      ],
      "name": "RoleRevoked",
      "type": "event"
    },
    {
      "stateMutability": "payable",
      "type": "fallback"
    },
    {
      "inputs": [],
      "name": "DEFAULT_ADMIN_ROLE",
      "outputs": [
        {
          "internalType": "bytes32",
          "name": "",
          "type": "bytes32"
        }
      ],
      "stateMutability": "view",
      "type": "function"
    },
    {
      "inputs": [
        {
          "internalType": "address",
          "name": "assetHere",
          "type": "address"
        },
        {
          "internalType": "uint32",
          "name": "assetThere",
          "type": "uint32"
        }
      ],
      "name": "addSupportedBridgeAsset",
      "outputs": [],
      "stateMutability": "nonpayable",
      "type": "function"
    },
    {
      "inputs": [
        {
          "internalType": "address",
          "name": "_attesters",
          "type": "address"
        }
      ],
      "name": "assignAttesters",
      "outputs": [],
      "stateMutability": "nonpayable",
      "type": "function"
    },
    {
      "inputs": [],
      "name": "attesters",
      "outputs": [
        {
          "internalType": "address",
          "name": "",
          "type": "address"
        }
      ],
      "stateMutability": "view",
      "type": "function"
    },
    {
      "inputs": [
        {
          "internalType": "uint256",
          "name": "amount",
          "type": "uint256"
        }
      ],
      "name": "calcProtocolFee",
      "outputs": [
        {
          "internalType": "uint256",
          "name": "",
          "type": "uint256"
        }
      ],
      "stateMutability": "view",
      "type": "function"
    },
    {
      "inputs": [
        {
          "internalType": "bytes32",
          "name": "remoteOrderId",
          "type": "bytes32"
        },
        {
          "internalType": "address",
          "name": "originalSender",
          "type": "address"
        },
        {
          "internalType": "address",
          "name": "beneficiary",
          "type": "address"
        },
        {
          "internalType": "bytes32",
          "name": "targetAccount",
          "type": "bytes32"
        },
        {
          "internalType": "bytes4",
          "name": "chainId",
          "type": "bytes4"
        },
        {
          "internalType": "uint32",
          "name": "assetId",
          "type": "uint32"
        },
        {
          "internalType": "address",
          "name": "assetAddress",
          "type": "address"
        },
        {
          "internalType": "uint256",
          "name": "amount",
          "type": "uint256"
        }
      ],
      "name": "checkIsClaimable",
      "outputs": [
        {
          "internalType": "bool",
          "name": "",
          "type": "bool"
        }
      ],
      "stateMutability": "view",
      "type": "function"
    },
    {
      "inputs": [
        {
          "internalType": "address",
          "name": "beneficiary",
          "type": "address"
        },
        {
          "internalType": "bytes32",
          "name": "targetAccount",
          "type": "bytes32"
        },
        {
          "internalType": "bytes4",
          "name": "chainId",
          "type": "bytes4"
        },
        {
          "internalType": "uint32",
          "name": "assetId",
          "type": "uint32"
        },
        {
          "internalType": "address",
          "name": "assetAddress",
          "type": "address"
        },
        {
          "internalType": "uint256",
          "name": "amount",
          "type": "uint256"
        },
        {
          "internalType": "uint256",
          "name": "index",
          "type": "uint256"
        },
        {
          "internalType": "uint256",
          "name": "orderSubmissionTime",
          "type": "uint256"
        },
        {
          "internalType": "uint256",
          "name": "indicatedTimeoutDuration",
          "type": "uint256"
        }
      ],
      "name": "checkIsRefundable",
      "outputs": [
        {
          "internalType": "bool",
          "name": "",
          "type": "bool"
        }
      ],
      "stateMutability": "view",
      "type": "function"
    },
    {
      "inputs": [
        {
          "internalType": "bytes32",
          "name": "remoteOrderId",
          "type": "bytes32"
        },
        {
          "internalType": "address",
          "name": "originalSender",
          "type": "address"
        },
        {
          "internalType": "bytes32",
          "name": "targetAccount",
          "type": "bytes32"
        },
        {
          "internalType": "bytes4",
          "name": "chainId",
          "type": "bytes4"
        },
        {
          "internalType": "uint32",
          "name": "assetId",
          "type": "uint32"
        },
        {
          "internalType": "address",
          "name": "assetAddress",
          "type": "address"
        },
        {
          "internalType": "uint256",
          "name": "amount",
          "type": "uint256"
        }
      ],
      "name": "commitEscrowToTarget",
      "outputs": [],
      "stateMutability": "payable",
      "type": "function"
    },
    {
      "inputs": [],
      "name": "currentEscrowInsurance",
      "outputs": [
        {
          "internalType": "uint256",
          "name": "",
          "type": "uint256"
        }
      ],
      "stateMutability": "view",
      "type": "function"
    },
    {
      "inputs": [],
      "name": "currentProtocolFee",
      "outputs": [
        {
          "internalType": "uint256",
          "name": "",
          "type": "uint256"
        }
      ],
      "stateMutability": "view",
      "type": "function"
    },
    {
      "inputs": [
        {
          "internalType": "bytes",
          "name": "_input",
          "type": "bytes"
        }
      ],
      "name": "decodeEscrowOrder",
      "outputs": [
        {
          "internalType": "bytes4",
          "name": "",
          "type": "bytes4"
        },
        {
          "internalType": "uint32",
          "name": "",
          "type": "uint32"
        },
        {
          "internalType": "address",
          "name": "",
          "type": "address"
        },
        {
          "internalType": "uint256",
          "name": "",
          "type": "uint256"
        },
        {
          "internalType": "uint32",
          "name": "",
          "type": "uint32"
        },
        {
          "internalType": "address",
          "name": "",
          "type": "address"
        },
        {
          "internalType": "uint256",
          "name": "",
          "type": "uint256"
        },
        {
          "internalType": "bytes32",
          "name": "",
          "type": "bytes32"
        },
        {
          "internalType": "uint256",
          "name": "",
          "type": "uint256"
        }
      ],
      "stateMutability": "pure",
      "type": "function"
    },
    {
      "inputs": [
        {
          "internalType": "address",
          "name": "asset",
          "type": "address"
        },
        {
          "internalType": "uint256",
          "name": "amount",
          "type": "uint256"
        },
        {
          "internalType": "address",
          "name": "beneficiary",
          "type": "address"
        }
      ],
      "name": "emergencyWithdraw",
      "outputs": [],
      "stateMutability": "nonpayable",
      "type": "function"
    },
    {
      "inputs": [
        {
          "internalType": "bytes4",
          "name": "chainId",
          "type": "bytes4"
        },
        {
          "internalType": "uint32",
          "name": "rewardAssetId",
          "type": "uint32"
        },
        {
          "internalType": "address",
          "name": "rewardAddress",
          "type": "address"
        },
        {
          "internalType": "uint256",
          "name": "rewardAmount",
          "type": "uint256"
        },
        {
          "internalType": "uint32",
          "name": "assetId",
          "type": "uint32"
        },
        {
          "internalType": "address",
          "name": "assetAddress",
          "type": "address"
        },
        {
          "internalType": "uint256",
          "name": "amount",
          "type": "uint256"
        },
        {
          "internalType": "bytes32",
          "name": "targetAccount",
          "type": "bytes32"
        },
        {
          "internalType": "uint256",
          "name": "selfIndicatedTimeoutDuration",
          "type": "uint256"
        }
      ],
      "name": "encodeEscrowOrder",
      "outputs": [
        {
          "internalType": "bytes",
          "name": "",
          "type": "bytes"
        }
      ],
      "stateMutability": "pure",
      "type": "function"
    },
    {
      "inputs": [
        {
          "internalType": "address",
          "name": "asset",
          "type": "address"
        },
        {
          "internalType": "uint256",
          "name": "amount",
          "type": "uint256"
        }
      ],
      "name": "ensureAmountWithinAcceptedRange",
      "outputs": [
        {
          "internalType": "bool",
          "name": "",
          "type": "bool"
        }
      ],
      "stateMutability": "view",
      "type": "function"
    },
    {
      "inputs": [
        {
          "internalType": "address",
          "name": "assetHere",
          "type": "address"
        }
      ],
      "name": "ensureAssetIsSupported",
      "outputs": [
        {
          "internalType": "bool",
          "name": "",
          "type": "bool"
        }
      ],
      "stateMutability": "view",
      "type": "function"
    },
    {
      "inputs": [],
      "name": "escrowGMP",
      "outputs": [
        {
          "internalType": "contract EscrowGMP",
          "name": "",
          "type": "address"
        }
      ],
      "stateMutability": "view",
      "type": "function"
    },
    {
      "inputs": [
        {
          "internalType": "bytes32",
          "name": "remoteOrderId",
          "type": "bytes32"
        },
        {
          "internalType": "bytes4",
          "name": "chainId",
          "type": "bytes4"
        },
        {
          "internalType": "uint32",
          "name": "assetId",
          "type": "uint32"
        },
        {
          "internalType": "address",
          "name": "assetAddress",
          "type": "address"
        },
        {
          "internalType": "uint256",
          "name": "amount",
          "type": "uint256"
        },
        {
          "internalType": "bytes32",
          "name": "targetAccount",
          "type": "bytes32"
        }
      ],
      "name": "escrowLock",
      "outputs": [
        {
          "internalType": "bytes32",
          "name": "",
          "type": "bytes32"
        }
      ],
      "stateMutability": "payable",
      "type": "function"
    },
    {
      "inputs": [
        {
          "internalType": "bytes32",
          "name": "remoteOrderId",
          "type": "bytes32"
        },
        {
          "internalType": "address",
          "name": "sender",
          "type": "address"
        },
        {
          "internalType": "bytes32",
          "name": "targetAccount",
          "type": "bytes32"
        },
        {
          "internalType": "bytes4",
          "name": "chainId",
          "type": "bytes4"
        },
        {
          "internalType": "uint32",
          "name": "assetId",
          "type": "uint32"
        },
        {
          "internalType": "address",
          "name": "assetAddress",
          "type": "address"
        },
        {
          "internalType": "uint256",
          "name": "amount",
          "type": "uint256"
        }
      ],
      "name": "generateEscrowLockId",
      "outputs": [
        {
          "internalType": "bytes32",
          "name": "",
          "type": "bytes32"
        }
      ],
      "stateMutability": "pure",
      "type": "function"
    },
    {
      "inputs": [
        {
          "internalType": "address",
          "name": "sender",
          "type": "address"
        },
        {
          "internalType": "uint256",
          "name": "timeNow",
          "type": "uint256"
        },
        {
          "internalType": "uint256",
          "name": "timeoutDuration",
          "type": "uint256"
        },
        {
          "internalType": "uint256",
          "name": "index",
          "type": "uint256"
        }
      ],
      "name": "generateEscrowOrderId",
      "outputs": [
        {
          "internalType": "bytes32",
          "name": "",
          "type": "bytes32"
        }
      ],
      "stateMutability": "view",
      "type": "function"
    },
    {
      "inputs": [
        {
          "internalType": "bytes32",
          "name": "role",
          "type": "bytes32"
        }
      ],
      "name": "getRoleAdmin",
      "outputs": [
        {
          "internalType": "bytes32",
          "name": "",
          "type": "bytes32"
        }
      ],
      "stateMutability": "view",
      "type": "function"
    },
    {
      "inputs": [
        {
          "internalType": "bytes32",
          "name": "role",
          "type": "bytes32"
        },
        {
          "internalType": "address",
          "name": "account",
          "type": "address"
        }
      ],
      "name": "grantRole",
      "outputs": [],
      "stateMutability": "nonpayable",
      "type": "function"
    },
    {
      "inputs": [
        {
          "internalType": "bytes32",
          "name": "role",
          "type": "bytes32"
        },
        {
          "internalType": "address",
          "name": "account",
          "type": "address"
        }
      ],
      "name": "hasRole",
      "outputs": [
        {
          "internalType": "bool",
          "name": "",
          "type": "bool"
        }
      ],
      "stateMutability": "view",
      "type": "function"
    },
    {
      "inputs": [
        {
          "internalType": "address",
          "name": "_owner",
          "type": "address"
        }
      ],
      "name": "initialize",
      "outputs": [],
      "stateMutability": "nonpayable",
      "type": "function"
    },
    {
      "inputs": [],
      "name": "isHalted",
      "outputs": [
        {
          "internalType": "bool",
          "name": "",
          "type": "bool"
        }
      ],
      "stateMutability": "view",
      "type": "function"
    },
    {
      "inputs": [
        {
          "internalType": "bytes32",
          "name": "id",
          "type": "bytes32"
        }
      ],
      "name": "isKnownId",
      "outputs": [
        {
          "internalType": "bool",
          "name": "",
          "type": "bool"
        }
      ],
      "stateMutability": "view",
      "type": "function"
    },
    {
      "inputs": [
        {
          "internalType": "address",
          "name": "",
          "type": "address"
        }
      ],
      "name": "maxAllowedAmounts",
      "outputs": [
        {
          "internalType": "uint256",
          "name": "",
          "type": "uint256"
        }
      ],
      "stateMutability": "view",
      "type": "function"
    },
    {
      "inputs": [
        {
          "internalType": "address",
          "name": "",
          "type": "address"
        }
      ],
      "name": "minAllowedAmounts",
      "outputs": [
        {
          "internalType": "uint256",
          "name": "",
          "type": "uint256"
        }
      ],
      "stateMutability": "view",
      "type": "function"
    },
    {
      "inputs": [
        {
          "internalType": "bytes4[]",
          "name": "chainId",
          "type": "bytes4[]"
        },
        {
          "internalType": "uint32[]",
          "name": "rewardAssetId",
          "type": "uint32[]"
        },
        {
          "internalType": "address[]",
          "name": "rewardAddress",
          "type": "address[]"
        },
        {
          "internalType": "uint256[]",
          "name": "rewardAmount",
          "type": "uint256[]"
        },
        {
          "internalType": "uint32[]",
          "name": "assetId",
          "type": "uint32[]"
        },
        {
          "internalType": "address[]",
          "name": "assetAddress",
          "type": "address[]"
        },
        {
          "internalType": "uint256[]",
          "name": "amount",
          "type": "uint256[]"
        },
        {
          "internalType": "bytes32[]",
          "name": "targetAccount",
          "type": "bytes32[]"
        },
        {
          "internalType": "uint256[]",
          "name": "selfIndicatedTimeoutDuration",
          "type": "uint256[]"
        },
        {
          "internalType": "uint256",
          "name": "count",
          "type": "uint256"
        }
      ],
      "name": "multiEscrowOrder",
      "outputs": [
        {
          "internalType": "bytes32[]",
          "name": "",
          "type": "bytes32[]"
        }
      ],
      "stateMutability": "payable",
      "type": "function"
    },
    {
      "inputs": [
        {
          "internalType": "bytes4",
          "name": "chainId",
          "type": "bytes4"
        },
        {
          "internalType": "uint32",
          "name": "rewardAssetId",
          "type": "uint32"
        },
        {
          "internalType": "address",
          "name": "rewardAddress",
          "type": "address"
        },
        {
          "internalType": "uint256",
          "name": "rewardAmount",
          "type": "uint256"
        },
        {
          "internalType": "uint32",
          "name": "assetId",
          "type": "uint32"
        },
        {
          "internalType": "address",
          "name": "assetAddress",
          "type": "address"
        },
        {
          "internalType": "uint256",
          "name": "amount",
          "type": "uint256"
        },
        {
          "internalType": "bytes32",
          "name": "targetAccount",
          "type": "bytes32"
        },
        {
          "internalType": "uint256",
          "name": "selfIndicatedTimeoutDuration",
          "type": "uint256"
        }
      ],
      "name": "orderEscrowLock",
      "outputs": [
        {
          "internalType": "bytes32",
          "name": "",
          "type": "bytes32"
        }
      ],
      "stateMutability": "payable",
      "type": "function"
    },
    {
      "inputs": [
        {
          "internalType": "bytes32",
          "name": "",
          "type": "bytes32"
        }
      ],
      "name": "orderPayloads",
      "outputs": [
        {
          "internalType": "bytes32",
          "name": "",
          "type": "bytes32"
        }
      ],
      "stateMutability": "view",
      "type": "function"
    },
    {
      "inputs": [],
      "name": "orderTimeout",
      "outputs": [
        {
          "internalType": "uint256",
          "name": "",
          "type": "uint256"
        }
      ],
      "stateMutability": "view",
      "type": "function"
    },
    {
      "inputs": [
        {
          "internalType": "bytes32",
          "name": "",
          "type": "bytes32"
        }
      ],
      "name": "orderWinners",
      "outputs": [
        {
          "internalType": "address",
          "name": "",
          "type": "address"
        }
      ],
      "stateMutability": "view",
      "type": "function"
    },
    {
      "inputs": [],
      "name": "protocolFeesCollector",
      "outputs": [
        {
          "internalType": "address",
          "name": "",
          "type": "address"
        }
      ],
      "stateMutability": "view",
      "type": "function"
    },
    {
      "inputs": [
        {
          "internalType": "bytes32",
          "name": "targetAccount",
          "type": "bytes32"
        },
        {
          "internalType": "bytes4",
          "name": "chainId",
          "type": "bytes4"
        },
        {
          "internalType": "uint32",
          "name": "assetId",
          "type": "uint32"
        },
        {
          "internalType": "address",
          "name": "assetAddress",
          "type": "address"
        },
        {
          "internalType": "uint256",
          "name": "amount",
          "type": "uint256"
        },
        {
          "internalType": "uint256",
          "name": "index",
          "type": "uint256"
        },
        {
          "internalType": "uint256",
          "name": "orderSubmissionTime",
          "type": "uint256"
        },
        {
          "internalType": "uint256",
          "name": "indicatedTimeoutDuration",
          "type": "uint256"
        }
      ],
      "name": "refundEscrowToSender",
      "outputs": [],
      "stateMutability": "payable",
      "type": "function"
    },
    {
      "inputs": [
        {
          "internalType": "bytes32",
          "name": "role",
          "type": "bytes32"
        },
        {
          "internalType": "address",
          "name": "account",
          "type": "address"
        }
      ],
      "name": "renounceRole",
      "outputs": [],
      "stateMutability": "nonpayable",
      "type": "function"
    },
    {
      "inputs": [
        {
          "internalType": "bytes32",
          "name": "role",
          "type": "bytes32"
        },
        {
          "internalType": "address",
          "name": "account",
          "type": "address"
        }
      ],
      "name": "revokeRole",
      "outputs": [],
      "stateMutability": "nonpayable",
      "type": "function"
    },
    {
      "inputs": [
        {
          "internalType": "address",
          "name": "asset",
          "type": "address"
        },
        {
          "internalType": "uint256",
          "name": "minAmount",
          "type": "uint256"
        },
        {
          "internalType": "uint256",
          "name": "maxAmount",
          "type": "uint256"
        }
      ],
      "name": "setAmountRange",
      "outputs": [],
      "stateMutability": "nonpayable",
      "type": "function"
    },
    {
      "inputs": [
        {
          "internalType": "uint256",
          "name": "_currentEscrowInsurance",
          "type": "uint256"
        }
      ],
      "name": "setCurrentEscrowInsurance",
      "outputs": [],
      "stateMutability": "nonpayable",
      "type": "function"
    },
    {
      "inputs": [
        {
          "internalType": "uint256",
          "name": "_protocolFee",
          "type": "uint256"
        }
      ],
      "name": "setCurrentProtocolFee",
      "outputs": [],
      "stateMutability": "nonpayable",
      "type": "function"
    },
    {
      "inputs": [
        {
          "internalType": "contract EscrowGMP",
          "name": "_escrowGMP",
          "type": "address"
        }
      ],
      "name": "setEscrowGMP",
      "outputs": [],
      "stateMutability": "nonpayable",
      "type": "function"
    },
    {
      "inputs": [
        {
          "internalType": "uint256",
          "name": "_orderTimeout",
          "type": "uint256"
        }
      ],
      "name": "setOrderTimeout",
      "outputs": [],
      "stateMutability": "nonpayable",
      "type": "function"
    },
    {
      "inputs": [
        {
          "internalType": "address",
          "name": "_protocolFeesCollector",
          "type": "address"
        }
      ],
      "name": "setProtocolFeesCollector",
      "outputs": [],
      "stateMutability": "nonpayable",
      "type": "function"
    },
    {
      "inputs": [
        {
          "internalType": "bytes4",
          "name": "_sourceId",
          "type": "bytes4"
        }
      ],
      "name": "setSourceId",
      "outputs": [],
      "stateMutability": "nonpayable",
      "type": "function"
    },
    {
      "inputs": [
        {
          "internalType": "uint256",
          "name": "_timeoutMargin",
          "type": "uint256"
        }
      ],
      "name": "setTimeoutMargin",
      "outputs": [],
      "stateMutability": "nonpayable",
      "type": "function"
    },
    {
      "inputs": [
        {
          "internalType": "bytes32",
          "name": "_version",
          "type": "bytes32"
        }
      ],
      "name": "setVersion",
      "outputs": [],
      "stateMutability": "nonpayable",
      "type": "function"
    },
    {
      "inputs": [],
      "name": "sourceId",
      "outputs": [
        {
          "internalType": "bytes4",
          "name": "",
          "type": "bytes4"
        }
      ],
      "stateMutability": "view",
      "type": "function"
    },
    {
      "inputs": [
        {
          "internalType": "address",
          "name": "",
          "type": "address"
        }
      ],
      "name": "supportedAssets",
      "outputs": [
        {
          "internalType": "uint32",
          "name": "",
          "type": "uint32"
        }
      ],
      "stateMutability": "view",
      "type": "function"
    },
    {
      "inputs": [
        {
          "internalType": "bytes4",
          "name": "interfaceId",
          "type": "bytes4"
        }
      ],
      "name": "supportsInterface",
      "outputs": [
        {
          "internalType": "bool",
          "name": "",
          "type": "bool"
        }
      ],
      "stateMutability": "view",
      "type": "function"
    },
    {
      "inputs": [],
      "name": "timeoutMargin",
      "outputs": [
        {
          "internalType": "uint256",
          "name": "",
          "type": "uint256"
        }
      ],
      "stateMutability": "view",
      "type": "function"
    },
    {
      "inputs": [],
      "name": "turnOffHalt",
      "outputs": [],
      "stateMutability": "nonpayable",
      "type": "function"
    },
    {
      "inputs": [],
      "name": "turnOnHalt",
      "outputs": [],
      "stateMutability": "nonpayable",
      "type": "function"
    },
    {
      "inputs": [],
      "name": "version",
      "outputs": [
        {
          "internalType": "bytes32",
          "name": "",
          "type": "bytes32"
        }
      ],
      "stateMutability": "view",
      "type": "function"
    },
    {
      "stateMutability": "payable",
      "type": "receive"
    }
  ],
  "bytecode": "0x60806040523480156200001157600080fd5b50620000226200002860201b60201c565b620001d2565b600060019054906101000a900460ff16156200007b576040517f08c379a0000000000000000000000000000000000000000000000000000000008152600401620000729062000175565b60405180910390fd5b60ff801660008054906101000a900460ff1660ff1614620000ec5760ff6000806101000a81548160ff021916908360ff1602179055507f7f26b83ff96e1f2b6a682f133852f6798a09c465da95921460cefb384740249860ff604051620000e39190620001b5565b60405180910390a15b565b600082825260208201905092915050565b7f496e697469616c697a61626c653a20636f6e747261637420697320696e69746960008201527f616c697a696e6700000000000000000000000000000000000000000000000000602082015250565b60006200015d602783620000ee565b91506200016a82620000ff565b604082019050919050565b6000602082019050818103600083015262000190816200014e565b9050919050565b600060ff82169050919050565b620001af8162000197565b82525050565b6000602082019050620001cc6000830184620001a4565b92915050565b615cca80620001e26000396000f3fe6080604052600436106103005760003560e01c8063a217fddf11610190578063d069aab9116100dc578063dac5dc3511610095578063e822cdba1161006f578063e822cdba14610bea578063e96e743114610c27578063e97b807114610c52578063ee5c520314610c7d57610307565b8063dac5dc3514610b47578063dac8a7a014610b84578063db7a6aa714610bad57610307565b8063d069aab914610a48578063d0eccac514610a73578063d4cb789914610a9c578063d547741f14610ac5578063d648f45a14610aee578063d67a5d4614610b1e57610307565b8063ba20600411610149578063c69c422711610123578063c69c42271461098e578063c7ff1584146109cb578063ca5f81b5146109f6578063cb7a18c214610a1f57610307565b8063ba206004146108fd578063bd81579e14610928578063c4d66de81461096557610307565b8063a217fddf146107cf578063a796b628146107fa578063a939e6e914610823578063b0375ca314610853578063b60faa6b14610883578063b967f459146108c057610307565b8063248a9ca31161024f578063551512de1161020857806380489147116101e2578063804891471461071057806380962b37146107395780638ebba5761461075557806391d148541461079257610307565b8063551512de1461066d57806372f8fdf2146106965780637dba853c146106d357610307565b8063248a9ca31461054d57806328c3a2261461058a5780632f2ff15d146105c75780633562c20b146105f057806336568abe1461061957806354fd4d501461064257610307565b806316929586116102bc5780631b5d00ad116102965780631b5d00ad146104c65780631b961526146104ef5780632178dc9f1461050b57806323728d321461052257610307565b806316929586146104335780631b3035a41461045e5780631b573e171461049b57610307565b8062118882146103095780625c67bf14610320578062cfe24f1461036557806301ffc9a7146103905780630ef917ed146103cd57806313f1cea1146103f657610307565b3661030757005b005b34801561031557600080fd5b5061031e610cba565b005b34801561032c57600080fd5b5061034760048036038101906103429190613810565b610d23565b60405161035c99989796959493929190613926565b60405180910390f35b34801561037157600080fd5b5061037a610d64565b60405161038791906139b3565b60405180910390f35b34801561039c57600080fd5b506103b760048036038101906103b291906139fa565b610d8a565b6040516103c49190613a42565b60405180910390f35b3480156103d957600080fd5b506103f460048036038101906103ef9190613a89565b610e04565b005b34801561040257600080fd5b5061041d60048036038101906104189190613a89565b610e94565b60405161042a9190613ab6565b60405180910390f35b34801561043f57600080fd5b50610448610eac565b6040516104559190613ab6565b60405180910390f35b34801561046a57600080fd5b5061048560048036038101906104809190613afd565b610eb2565b60405161049291906139b3565b60405180910390f35b3480156104a757600080fd5b506104b0610ee5565b6040516104bd9190613ab6565b60405180910390f35b3480156104d257600080fd5b506104ed60048036038101906104e89190613b56565b610eeb565b005b61050960048036038101906105049190613bc2565b610f99565b005b34801561051757600080fd5b5061052061112a565b005b34801561052e57600080fd5b50610537611193565b6040516105449190613ab6565b60405180910390f35b34801561055957600080fd5b50610574600480360381019061056f9190613afd565b611199565b6040516105819190613c64565b60405180910390f35b34801561059657600080fd5b506105b160048036038101906105ac9190613c7f565b6111b9565b6040516105be9190613a42565b60405180910390f35b3480156105d357600080fd5b506105ee60048036038101906105e99190613d49565b6112b7565b005b3480156105fc57600080fd5b5061061760048036038101906106129190613dc7565b6112d8565b005b34801561062557600080fd5b50610640600480360381019061063b9190613d49565b611368565b005b34801561064e57600080fd5b506106576113eb565b6040516106649190613c64565b60405180910390f35b34801561067957600080fd5b50610694600480360381019061068f9190613df4565b6113f1565b005b3480156106a257600080fd5b506106bd60048036038101906106b89190613e47565b61144f565b6040516106ca9190613a42565b60405180910390f35b3480156106df57600080fd5b506106fa60048036038101906106f59190613afd565b611544565b6040516107079190613a42565b60405180910390f35b34801561071c57600080fd5b5061073760048036038101906107329190613efd565b6115ef565b005b610753600480360381019061074e9190613f2a565b611645565b005b34801561076157600080fd5b5061077c60048036038101906107779190613a89565b6117ef565b6040516107899190613ab6565b60405180910390f35b34801561079e57600080fd5b506107b960048036038101906107b49190613d49565b611807565b6040516107c69190613a42565b60405180910390f35b3480156107db57600080fd5b506107e4611872565b6040516107f19190613c64565b60405180910390f35b34801561080657600080fd5b50610821600480360381019061081c9190613a89565b611879565b005b61083d600480360381019061083891906143b4565b611909565b60405161084a919061464d565b60405180910390f35b61086d6004803603810190610868919061466f565b611cea565b60405161087a9190613c64565b60405180910390f35b34801561088f57600080fd5b506108aa60048036038101906108a591906146fc565b611f47565b6040516108b79190613c64565b60405180910390f35b3480156108cc57600080fd5b506108e760048036038101906108e29190614763565b611fb7565b6040516108f49190613a42565b60405180910390f35b34801561090957600080fd5b506109126120e2565b60405161091f9190613ab6565b60405180910390f35b34801561093457600080fd5b5061094f600480360381019061094a9190613a89565b6120e8565b60405161095c91906147a3565b60405180910390f35b34801561097157600080fd5b5061098c60048036038101906109879190613a89565b61210b565b005b34801561099a57600080fd5b506109b560048036038101906109b09190613bc2565b6122d6565b6040516109c29190613c64565b60405180910390f35b3480156109d757600080fd5b506109e0612318565b6040516109ed9190613a42565b60405180910390f35b348015610a0257600080fd5b50610a1d6004803603810190610a189190613afd565b61232b565b005b348015610a2b57600080fd5b50610a466004803603810190610a4191906147be565b612381565b005b348015610a5457600080fd5b50610a5d61245a565b604051610a6a9190614811565b60405180910390f35b348015610a7f57600080fd5b50610a9a6004803603810190610a959190613efd565b61246d565b005b348015610aa857600080fd5b50610ac36004803603810190610abe91906139fa565b6124c3565b005b348015610ad157600080fd5b50610aec6004803603810190610ae79190613d49565b612530565b005b610b086004803603810190610b03919061482c565b612551565b604051610b159190613c64565b60405180910390f35b348015610b2a57600080fd5b50610b456004803603810190610b409190613efd565b61267c565b005b348015610b5357600080fd5b50610b6e6004803603810190610b699190613efd565b6126d2565b604051610b7b9190613ab6565b60405180910390f35b348015610b9057600080fd5b50610bab6004803603810190610ba69190613efd565b6126f7565b005b348015610bb957600080fd5b50610bd46004803603810190610bcf9190613afd565b61274d565b604051610be19190613c64565b60405180910390f35b348015610bf657600080fd5b50610c116004803603810190610c0c9190613a89565b612765565b604051610c1e9190613a42565b60405180910390f35b348015610c3357600080fd5b50610c3c6127fe565b604051610c499190614955565b60405180910390f35b348015610c5e57600080fd5b50610c67612824565b604051610c7491906139b3565b60405180910390f35b348015610c8957600080fd5b50610ca46004803603810190610c9f919061482c565b61284a565b604051610cb191906149ef565b60405180910390f35b610cc76000801b33611807565b610d06576040517f08c379a0000000000000000000000000000000000000000000000000000000008152600401610cfd90614a6e565b60405180910390fd5b600060cf60006101000a81548160ff021916908315150217905550565b600080600080600080600080600089806020019051810190610d459190614b20565b9850985098509850985098509850985098509193959799909294969850565b60ca60009054906101000a900473ffffffffffffffffffffffffffffffffffffffff1681565b60007f7965db0b000000000000000000000000000000000000000000000000000000007bffffffffffffffffffffffffffffffffffffffffffffffffffffffff1916827bffffffffffffffffffffffffffffffffffffffffffffffffffffffff19161480610dfd5750610dfc8261288b565b5b9050919050565b610e116000801b33611807565b610e50576040517f08c379a0000000000000000000000000000000000000000000000000000000008152600401610e4790614a6e565b60405180910390fd5b8060cc60006101000a81548173ffffffffffffffffffffffffffffffffffffffff021916908373ffffffffffffffffffffffffffffffffffffffff16021790555050565b60d36020528060005260406000206000915090505481565b60cd5481565b60d16020528060005260406000206000915054906101000a900473ffffffffffffffffffffffffffffffffffffffff1681565b60ce5481565b610ef86000801b33611807565b610f37576040517f08c379a0000000000000000000000000000000000000000000000000000000008152600401610f2e90614a6e565b60405180910390fd5b8060d260008473ffffffffffffffffffffffffffffffffffffffff1673ffffffffffffffffffffffffffffffffffffffff16815260200190815260200160002060006101000a81548163ffffffff021916908363ffffffff1602179055505050565b60cf60009054906101000a900460ff1615610fe9576040517f08c379a0000000000000000000000000000000000000000000000000000000008152600401610fe090614c36565b60405180910390fd5b610ff9878733888888888861144f565b611038576040517f08c379a000000000000000000000000000000000000000000000000000000000815260040161102f90614ca2565b60405180910390fd5b60d660049054906101000a900473ffffffffffffffffffffffffffffffffffffffff1673ffffffffffffffffffffffffffffffffffffffff1663a77715d0886040518263ffffffff1660e01b81526004016110939190613c64565b600060405180830381600087803b1580156110ad57600080fd5b505af11580156110c1573d6000803e3d6000fd5b505050506110d1818333306128f5565b803373ffffffffffffffffffffffffffffffffffffffff16887fba78a15e874441cf1871e3d2633ba91540bab663ae8664088ace7d60009ddd658560405161111991906139b3565b60405180910390a450505050505050565b6111376000801b33611807565b611176576040517f08c379a000000000000000000000000000000000000000000000000000000000815260040161116d90614a6e565b60405180910390fd5b600160cf60006101000a81548160ff021916908315150217905550565b60cb5481565b600060656000838152602001908152602001600020600101549050919050565b600060ce5482846111ca9190614cf1565b6111d49190614cf1565b4210156111e457600090506112aa565b60006111f28b858588611f47565b90506000611205828d8d8d8d8d8d6122d6565b90508060d660049054906101000a900473ffffffffffffffffffffffffffffffffffffffff1673ffffffffffffffffffffffffffffffffffffffff16639e5238d2846040518263ffffffff1660e01b81526004016112639190613c64565b602060405180830381865afa158015611280573d6000803e3d6000fd5b505050506040513d601f19601f820116820180604052508101906112a49190614d25565b14925050505b9998505050505050505050565b6112c082611199565b6112c9816129a6565b6112d383836129ba565b505050565b6112e56000801b33611807565b611324576040517f08c379a000000000000000000000000000000000000000000000000000000000815260040161131b90614a6e565b60405180910390fd5b8060d660046101000a81548173ffffffffffffffffffffffffffffffffffffffff021916908373ffffffffffffffffffffffffffffffffffffffff16021790555050565b611370612a9b565b73ffffffffffffffffffffffffffffffffffffffff168173ffffffffffffffffffffffffffffffffffffffff16146113dd576040517f08c379a00000000000000000000000000000000000000000000000000000000081526004016113d490614dc4565b60405180910390fd5b6113e78282612aa3565b5050565b60d55481565b6113fe6000801b33611807565b61143d576040517f08c379a000000000000000000000000000000000000000000000000000000000815260040161143490614a6e565b60405180910390fd5b61144982848330612b85565b50505050565b6000806114618a8a89898989896122d6565b905060008189604051602001611478929190614de4565b604051602081830303815290604052805190602001209050600060d660049054906101000a900473ffffffffffffffffffffffffffffffffffffffff1673ffffffffffffffffffffffffffffffffffffffff16639e5238d28d6040518263ffffffff1660e01b81526004016114ed9190613c64565b602060405180830381865afa15801561150a573d6000803e3d6000fd5b505050506040513d601f19601f8201168201806040525081019061152e9190614d25565b9050818114935050505098975050505050505050565b60008060001b60d660049054906101000a900473ffffffffffffffffffffffffffffffffffffffff1673ffffffffffffffffffffffffffffffffffffffff1663dd50923e846040518263ffffffff1660e01b81526004016115a59190613c64565b602060405180830381865afa1580156115c2573d6000803e3d6000fd5b505050506040513d601f19601f820116820180604052508101906115e69190614d25565b14159050919050565b6115fc6000801b33611807565b61163b576040517f08c379a000000000000000000000000000000000000000000000000000000000815260040161163290614a6e565b60405180910390fd5b8060cd8190555050565b60cf60009054906101000a900460ff1615611695576040517f08c379a000000000000000000000000000000000000000000000000000000000815260040161168c90614c36565b60405180910390fd5b6116a63389898989898989896111b9565b6116e5576040517f08c379a00000000000000000000000000000000000000000000000000000000081526004016116dc90614e59565b60405180910390fd5b60006116f333848487611f47565b905060d660049054906101000a900473ffffffffffffffffffffffffffffffffffffffff1673ffffffffffffffffffffffffffffffffffffffff166313b2512a826040518263ffffffff1660e01b81526004016117509190613c64565b600060405180830381600087803b15801561176a57600080fd5b505af115801561177e573d6000803e3d6000fd5b5050505061178e85873330612b85565b156117e457843373ffffffffffffffffffffffffffffffffffffffff16827fba78a15e874441cf1871e3d2633ba91540bab663ae8664088ace7d60009ddd65896040516117db91906139b3565b60405180910390a45b505050505050505050565b60d46020528060005260406000206000915090505481565b60006065600084815260200190815260200160002060000160008373ffffffffffffffffffffffffffffffffffffffff1673ffffffffffffffffffffffffffffffffffffffff16815260200190815260200160002060009054906101000a900460ff16905092915050565b6000801b81565b6118866000801b33611807565b6118c5576040517f08c379a00000000000000000000000000000000000000000000000000000000081526004016118bc90614a6e565b60405180910390fd5b8060ca60006101000a81548173ffffffffffffffffffffffffffffffffffffffff021916908373ffffffffffffffffffffffffffffffffffffffff16021790555050565b606060cf60009054906101000a900460ff161561195b576040517f08c379a000000000000000000000000000000000000000000000000000000000815260040161195290614c36565b60405180910390fd5b60008267ffffffffffffffff811115611977576119766136e5565b5b6040519080825280602002602001820160405280156119a55781602001602082028036833780820191505090505b5090506000831180156119b85750828c51145b80156119c45750828b51145b80156119d05750828a51145b80156119dc5750828951145b80156119e85750828851145b80156119f45750828751145b8015611a005750828651145b8015611a0c5750828551145b8015611a185750828451145b611a57576040517f08c379a0000000000000000000000000000000000000000000000000000000008152600401611a4e90614ec5565b60405180910390fd5b6000805b84811015611c8a57611b67611b618f8381518110611a7c57611a7b614ee5565b5b60200260200101518f8481518110611a9757611a96614ee5565b5b60200260200101518f8581518110611ab257611ab1614ee5565b5b60200260200101518f8681518110611acd57611acc614ee5565b5b60200260200101518f8781518110611ae857611ae7614ee5565b5b60200260200101518f8881518110611b0357611b02614ee5565b5b60200260200101518f8981518110611b1e57611b1d614ee5565b5b60200260200101518f8a81518110611b3957611b38614ee5565b5b60200260200101518f8b81518110611b5457611b53614ee5565b5b602002602001015161284a565b82612c8c565b838281518110611b7a57611b79614ee5565b5b602002602001018181525050600060cb541115611ba25760cb5482611b9f9190614cf1565b91505b600073ffffffffffffffffffffffffffffffffffffffff168c8281518110611bcd57611bcc614ee5565b5b602002602001015173ffffffffffffffffffffffffffffffffffffffff1603611c1d578a8181518110611c0357611c02614ee5565b5b602002602001015182611c169190614cf1565b9150611c7f565b611c7e33308d8481518110611c3557611c34614ee5565b5b60200260200101518f8581518110611c5057611c4f614ee5565b5b602002602001015173ffffffffffffffffffffffffffffffffffffffff16612f2b909392919063ffffffff16565b5b806001019050611a5b565b506000811115611cd757803414611cd6576040517f08c379a0000000000000000000000000000000000000000000000000000000008152600401611ccd90614f60565b60405180910390fd5b5b81925050509a9950505050505050505050565b600060cf60009054906101000a900460ff1615611d3c576040517f08c379a0000000000000000000000000000000000000000000000000000000008152600401611d3390614c36565b60405180910390fd5b611d4584612765565b50600073ffffffffffffffffffffffffffffffffffffffff168473ffffffffffffffffffffffffffffffffffffffff1603611dc157823414611dbc576040517f08c379a0000000000000000000000000000000000000000000000000000000008152600401611db390614fcc565b60405180910390fd5b611def565b611dee3330858773ffffffffffffffffffffffffffffffffffffffff16612f2b909392919063ffffffff16565b5b6000611e008833858a8a8a8a6122d6565b905060d660049054906101000a900473ffffffffffffffffffffffffffffffffffffffff1673ffffffffffffffffffffffffffffffffffffffff166355f067d189836040518363ffffffff1660e01b8152600401611e5f929190614fec565b6020604051808303816000875af1158015611e7e573d6000803e3d6000fd5b505050506040513d601f19601f82011682018060405250810190611ea29190615041565b611ee1576040517f08c379a0000000000000000000000000000000000000000000000000000000008152600401611ed8906150ba565b60405180910390fd5b3373ffffffffffffffffffffffffffffffffffffffff1681897f4e113f33a918debfcf17dc25bc745b839caead8e10c4bb346cca683bd389f850868b8b8b8b604051611f319594939291906150da565b60405180910390a4809150509695505050505050565b600084848460d660009054906101000a900460e01b604051602001611f6f949392919061512d565b6040516020818303038152906040528051906020012082604051602001611f97929190615172565b604051602081830303815290604052805190602001209050949350505050565b60008060d460008573ffffffffffffffffffffffffffffffffffffffff1673ffffffffffffffffffffffffffffffffffffffff1681526020019081526020016000205414806120455750600060d360008573ffffffffffffffffffffffffffffffffffffffff1673ffffffffffffffffffffffffffffffffffffffff16815260200190815260200160002054145b806120da575060d460008473ffffffffffffffffffffffffffffffffffffffff1673ffffffffffffffffffffffffffffffffffffffff1681526020019081526020016000205482101580156120d9575060d360008473ffffffffffffffffffffffffffffffffffffffff1673ffffffffffffffffffffffffffffffffffffffff168152602001908152602001600020548211155b5b905092915050565b60c95481565b60d26020528060005260406000206000915054906101000a900463ffffffff1681565b60008060019054906101000a900460ff1615905080801561213c5750600160008054906101000a900460ff1660ff16105b80612169575061214b30612fb4565b1580156121685750600160008054906101000a900460ff1660ff16145b5b6121a8576040517f08c379a000000000000000000000000000000000000000000000000000000000815260040161219f9061520d565b60405180910390fd5b60016000806101000a81548160ff021916908360ff16021790555080156121e5576001600060016101000a81548160ff0219169083151502179055505b600073ffffffffffffffffffffffffffffffffffffffff168273ffffffffffffffffffffffffffffffffffffffff1603612254576040517f08c379a000000000000000000000000000000000000000000000000000000000815260040161224b90615279565b60405180910390fd5b61225c612fd7565b6122696000801b836129ba565b608060c981905550612279613028565b80156122d25760008060016101000a81548160ff0219169083151502179055507f7f26b83ff96e1f2b6a682f133852f6798a09c465da95921460cefb384740249860016040516122c991906152e1565b60405180910390a15b5050565b6000878787878787876040516020016122f597969594939291906152fc565b604051602081830303815290604052805190602001209050979650505050505050565b60cf60009054906101000a900460ff1681565b6123386000801b33611807565b612377576040517f08c379a000000000000000000000000000000000000000000000000000000000815260040161236e90614a6e565b60405180910390fd5b8060d58190555050565b61238e6000801b33611807565b6123cd576040517f08c379a00000000000000000000000000000000000000000000000000000000081526004016123c490614a6e565b60405180910390fd5b8160d460008573ffffffffffffffffffffffffffffffffffffffff1673ffffffffffffffffffffffffffffffffffffffff168152602001908152602001600020819055508060d360008573ffffffffffffffffffffffffffffffffffffffff1673ffffffffffffffffffffffffffffffffffffffff16815260200190815260200160002081905550505050565b60d660009054906101000a900460e01b81565b61247a6000801b33611807565b6124b9576040517f08c379a00000000000000000000000000000000000000000000000000000000081526004016124b090614a6e565b60405180910390fd5b8060c98190555050565b6124d06000801b33611807565b61250f576040517f08c379a000000000000000000000000000000000000000000000000000000000815260040161250690614a6e565b60405180910390fd5b8060d660006101000a81548163ffffffff021916908360e01c021790555050565b61253982611199565b612542816129a6565b61254c8383612aa3565b505050565b600060cf60009054906101000a900460ff16156125a3576040517f08c379a000000000000000000000000000000000000000000000000000000000815260040161259a90614c36565b60405180910390fd5b60006125c06125b98c8c8c8c8c8c8c8c8c61284a565b6000612c8c565b9050600073ffffffffffffffffffffffffffffffffffffffff168973ffffffffffffffffffffffffffffffffffffffff160361263d57873414612638576040517f08c379a000000000000000000000000000000000000000000000000000000000815260040161262f906153b7565b60405180910390fd5b61266b565b61266a33308a8c73ffffffffffffffffffffffffffffffffffffffff16612f2b909392919063ffffffff16565b5b809150509998505050505050505050565b6126896000801b33611807565b6126c8576040517f08c379a00000000000000000000000000000000000000000000000000000000081526004016126bf90614a6e565b60405180910390fd5b8060ce8190555050565b6000620f424060cb54836126e691906153d7565b6126f09190615448565b9050919050565b6127046000801b33611807565b612743576040517f08c379a000000000000000000000000000000000000000000000000000000000815260040161273a90614a6e565b60405180910390fd5b8060cb8190555050565b60d06020528060005260406000206000915090505481565b60008073ffffffffffffffffffffffffffffffffffffffff168273ffffffffffffffffffffffffffffffffffffffff1614806127f75750600060d260008473ffffffffffffffffffffffffffffffffffffffff1673ffffffffffffffffffffffffffffffffffffffff16815260200190815260200160002060009054906101000a900463ffffffff1663ffffffff1614155b9050919050565b60d660049054906101000a900473ffffffffffffffffffffffffffffffffffffffff1681565b60cc60009054906101000a900473ffffffffffffffffffffffffffffffffffffffff1681565b606089898989898989898960405160200161286d99989796959493929190613926565b60405160208183030381529060405290509998505050505050505050565b60007f01ffc9a7000000000000000000000000000000000000000000000000000000007bffffffffffffffffffffffffffffffffffffffffffffffffffffffff1916827bffffffffffffffffffffffffffffffffffffffffffffffffffffffff1916149050919050565b60008060cb5411612907576000612911565b612910856126d2565b5b905061292a81866129229190615479565b858585612b85565b8015612960575061295f818560cc60009054906101000a900473ffffffffffffffffffffffffffffffffffffffff1686612b85565b5b61299f576040517f08c379a0000000000000000000000000000000000000000000000000000000008152600401612996906154f9565b60405180910390fd5b5050505050565b6129b7816129b2612a9b565b613081565b50565b6129c48282611807565b612a975760016065600084815260200190815260200160002060000160008373ffffffffffffffffffffffffffffffffffffffff1673ffffffffffffffffffffffffffffffffffffffff16815260200190815260200160002060006101000a81548160ff021916908315150217905550612a3c612a9b565b73ffffffffffffffffffffffffffffffffffffffff168173ffffffffffffffffffffffffffffffffffffffff16837f2f8788117e7eff1d82e926ec794901d17c78024a50270940304540a733656f0d60405160405180910390a45b5050565b600033905090565b612aad8282611807565b15612b815760006065600084815260200190815260200160002060000160008373ffffffffffffffffffffffffffffffffffffffff1673ffffffffffffffffffffffffffffffffffffffff16815260200190815260200160002060006101000a81548160ff021916908315150217905550612b26612a9b565b73ffffffffffffffffffffffffffffffffffffffff168173ffffffffffffffffffffffffffffffffffffffff16837ff6391f5c32d9c69d2a47ea670b442974b53935d1edc7fd64eb21e047a839171b60405160405180910390a45b5050565b6000612b8f613106565b6000851115612c7757600073ffffffffffffffffffffffffffffffffffffffff168473ffffffffffffffffffffffffffffffffffffffff1603612c415760008373ffffffffffffffffffffffffffffffffffffffff1686604051612bf29061554a565b60006040518083038185875af1925050503d8060008114612c2f576040519150601f19603f3d011682016040523d82523d6000602084013e612c34565b606091505b5050905080915050612c7c565b612c6e8284878773ffffffffffffffffffffffffffffffffffffffff16612f2b909392919063ffffffff16565b60019050612c7c565b600190505b612c84613155565b949350505050565b600080600080600080600080600080612ca48c610d23565b985098509850985098509850985098509850612cbf87612765565b612cfe576040517f08c379a0000000000000000000000000000000000000000000000000000000008152600401612cf5906155ab565b60405180910390fd5b612d088787611fb7565b612d47576040517f08c379a0000000000000000000000000000000000000000000000000000000008152600401612d3e90615617565b60405180910390fd5b612d518484611fb7565b612d90576040517f08c379a0000000000000000000000000000000000000000000000000000000008152600401612d8790615683565b60405180910390fd5b612d9984612765565b506000612da83342848f611f47565b90506000612dbb8233868e8e8e8e6122d6565b905060d660049054906101000a900473ffffffffffffffffffffffffffffffffffffffff1673ffffffffffffffffffffffffffffffffffffffff166355f067d183836040518363ffffffff1660e01b8152600401612e1a929190614fec565b6020604051808303816000875af1158015612e39573d6000803e3d6000fd5b505050506040513d601f19601f82011682018060405250810190612e5d9190615041565b612e9c576040517f08c379a0000000000000000000000000000000000000000000000000000000008152600401612e93906156ef565b60405180910390fd5b8a7bffffffffffffffffffffffffffffffffffffffffffffffffffffffff19163373ffffffffffffffffffffffffffffffffffffffff16837fe34424918643f966be564933511195eee021351ad0f51361b662a0781627a8878a898f8e8b428c604051612f0f979695949392919061570f565b60405180910390a4819b50505050505050505050505092915050565b612fae846323b872dd60e01b858585604051602401612f4c9392919061577e565b604051602081830303815290604052907bffffffffffffffffffffffffffffffffffffffffffffffffffffffff19166020820180517bffffffffffffffffffffffffffffffffffffffffffffffffffffffff838183161783525050505061315f565b50505050565b6000808273ffffffffffffffffffffffffffffffffffffffff163b119050919050565b600060019054906101000a900460ff16613026576040517f08c379a000000000000000000000000000000000000000000000000000000000815260040161301d90615827565b60405180910390fd5b565b600060019054906101000a900460ff16613077576040517f08c379a000000000000000000000000000000000000000000000000000000000815260040161306e90615827565b60405180910390fd5b61307f613227565b565b61308b8282611807565b6131025761309881613280565b6130a68360001c60206132ad565b6040516020016130b7929190615926565b6040516020818303038152906040526040517f08c379a00000000000000000000000000000000000000000000000000000000081526004016130f99190615999565b60405180910390fd5b5050565b60026097540361314b576040517f08c379a000000000000000000000000000000000000000000000000000000000815260040161314290615a07565b60405180910390fd5b6002609781905550565b6001609781905550565b60006131c1826040518060400160405280602081526020017f5361666545524332303a206c6f772d6c6576656c2063616c6c206661696c65648152508573ffffffffffffffffffffffffffffffffffffffff166134e99092919063ffffffff16565b90506000815114806131e35750808060200190518101906131e29190615041565b5b613222576040517f08c379a000000000000000000000000000000000000000000000000000000000815260040161321990615a99565b60405180910390fd5b505050565b600060019054906101000a900460ff16613276576040517f08c379a000000000000000000000000000000000000000000000000000000000815260040161326d90615827565b60405180910390fd5b6001609781905550565b60606132a68273ffffffffffffffffffffffffffffffffffffffff16601460ff166132ad565b9050919050565b6060600060028360026132c091906153d7565b6132ca9190614cf1565b67ffffffffffffffff8111156132e3576132e26136e5565b5b6040519080825280601f01601f1916602001820160405280156133155781602001600182028036833780820191505090505b5090507f30000000000000000000000000000000000000000000000000000000000000008160008151811061334d5761334c614ee5565b5b60200101907effffffffffffffffffffffffffffffffffffffffffffffffffffffffffffff1916908160001a9053507f7800000000000000000000000000000000000000000000000000000000000000816001815181106133b1576133b0614ee5565b5b60200101907effffffffffffffffffffffffffffffffffffffffffffffffffffffffffffff1916908160001a905350600060018460026133f191906153d7565b6133fb9190614cf1565b90505b600181111561349b577f3031323334353637383961626364656600000000000000000000000000000000600f86166010811061343d5761343c614ee5565b5b1a60f81b82828151811061345457613453614ee5565b5b60200101907effffffffffffffffffffffffffffffffffffffffffffffffffffffffffffff1916908160001a905350600485901c94508061349490615ab9565b90506133fe565b50600084146134df576040517f08c379a00000000000000000000000000000000000000000000000000000000081526004016134d690615b2e565b60405180910390fd5b8091505092915050565b60606134f88484600085613501565b90509392505050565b606082471015613546576040517f08c379a000000000000000000000000000000000000000000000000000000000815260040161353d90615bc0565b60405180910390fd5b6000808673ffffffffffffffffffffffffffffffffffffffff16858760405161356f9190615c11565b60006040518083038185875af1925050503d80600081146135ac576040519150601f19603f3d011682016040523d82523d6000602084013e6135b1565b606091505b50915091506135c2878383876135ce565b92505050949350505050565b60608315613630576000835103613628576135e885613643565b613627576040517f08c379a000000000000000000000000000000000000000000000000000000000815260040161361e90615c74565b60405180910390fd5b5b82905061363b565b61363a8383613666565b5b949350505050565b6000808273ffffffffffffffffffffffffffffffffffffffff163b119050919050565b6000825111156136795781518083602001fd5b806040517f08c379a00000000000000000000000000000000000000000000000000000000081526004016136ad9190615999565b60405180910390fd5b6000604051905090565b600080fd5b600080fd5b600080fd5b600080fd5b6000601f19601f8301169050919050565b7f4e487b7100000000000000000000000000000000000000000000000000000000600052604160045260246000fd5b61371d826136d4565b810181811067ffffffffffffffff8211171561373c5761373b6136e5565b5b80604052505050565b600061374f6136b6565b905061375b8282613714565b919050565b600067ffffffffffffffff82111561377b5761377a6136e5565b5b613784826136d4565b9050602081019050919050565b82818337600083830152505050565b60006137b36137ae84613760565b613745565b9050828152602081018484840111156137cf576137ce6136cf565b5b6137da848285613791565b509392505050565b600082601f8301126137f7576137f66136ca565b5b81356138078482602086016137a0565b91505092915050565b600060208284031215613826576138256136c0565b5b600082013567ffffffffffffffff811115613844576138436136c5565b5b613850848285016137e2565b91505092915050565b60007fffffffff0000000000000000000000000000000000000000000000000000000082169050919050565b61388e81613859565b82525050565b600063ffffffff82169050919050565b6138ad81613894565b82525050565b600073ffffffffffffffffffffffffffffffffffffffff82169050919050565b60006138de826138b3565b9050919050565b6138ee816138d3565b82525050565b6000819050919050565b613907816138f4565b82525050565b6000819050919050565b6139208161390d565b82525050565b60006101208201905061393c600083018c613885565b613949602083018b6138a4565b613956604083018a6138e5565b61396360608301896138fe565b61397060808301886138a4565b61397d60a08301876138e5565b61398a60c08301866138fe565b61399760e0830185613917565b6139a56101008301846138fe565b9a9950505050505050505050565b60006020820190506139c860008301846138e5565b92915050565b6139d781613859565b81146139e257600080fd5b50565b6000813590506139f4816139ce565b92915050565b600060208284031215613a1057613a0f6136c0565b5b6000613a1e848285016139e5565b91505092915050565b60008115159050919050565b613a3c81613a27565b82525050565b6000602082019050613a576000830184613a33565b92915050565b613a66816138d3565b8114613a7157600080fd5b50565b600081359050613a8381613a5d565b92915050565b600060208284031215613a9f57613a9e6136c0565b5b6000613aad84828501613a74565b91505092915050565b6000602082019050613acb60008301846138fe565b92915050565b613ada8161390d565b8114613ae557600080fd5b50565b600081359050613af781613ad1565b92915050565b600060208284031215613b1357613b126136c0565b5b6000613b2184828501613ae8565b91505092915050565b613b3381613894565b8114613b3e57600080fd5b50565b600081359050613b5081613b2a565b92915050565b60008060408385031215613b6d57613b6c6136c0565b5b6000613b7b85828601613a74565b9250506020613b8c85828601613b41565b9150509250929050565b613b9f816138f4565b8114613baa57600080fd5b50565b600081359050613bbc81613b96565b92915050565b600080600080600080600060e0888a031215613be157613be06136c0565b5b6000613bef8a828b01613ae8565b9750506020613c008a828b01613a74565b9650506040613c118a828b01613ae8565b9550506060613c228a828b016139e5565b9450506080613c338a828b01613b41565b93505060a0613c448a828b01613a74565b92505060c0613c558a828b01613bad565b91505092959891949750929550565b6000602082019050613c796000830184613917565b92915050565b60008060008060008060008060006101208a8c031215613ca257613ca16136c0565b5b6000613cb08c828d01613a74565b9950506020613cc18c828d01613ae8565b9850506040613cd28c828d016139e5565b9750506060613ce38c828d01613b41565b9650506080613cf48c828d01613a74565b95505060a0613d058c828d01613bad565b94505060c0613d168c828d01613bad565b93505060e0613d278c828d01613bad565b925050610100613d398c828d01613bad565b9150509295985092959850929598565b60008060408385031215613d6057613d5f6136c0565b5b6000613d6e85828601613ae8565b9250506020613d7f85828601613a74565b9150509250929050565b6000613d94826138d3565b9050919050565b613da481613d89565b8114613daf57600080fd5b50565b600081359050613dc181613d9b565b92915050565b600060208284031215613ddd57613ddc6136c0565b5b6000613deb84828501613db2565b91505092915050565b600080600060608486031215613e0d57613e0c6136c0565b5b6000613e1b86828701613a74565b9350506020613e2c86828701613bad565b9250506040613e3d86828701613a74565b9150509250925092565b600080600080600080600080610100898b031215613e6857613e676136c0565b5b6000613e768b828c01613ae8565b9850506020613e878b828c01613a74565b9750506040613e988b828c01613a74565b9650506060613ea98b828c01613ae8565b9550506080613eba8b828c016139e5565b94505060a0613ecb8b828c01613b41565b93505060c0613edc8b828c01613a74565b92505060e0613eed8b828c01613bad565b9150509295985092959890939650565b600060208284031215613f1357613f126136c0565b5b6000613f2184828501613bad565b91505092915050565b600080600080600080600080610100898b031215613f4b57613f4a6136c0565b5b6000613f598b828c01613ae8565b9850506020613f6a8b828c016139e5565b9750506040613f7b8b828c01613b41565b9650506060613f8c8b828c01613a74565b9550506080613f9d8b828c01613bad565b94505060a0613fae8b828c01613bad565b93505060c0613fbf8b828c01613bad565b92505060e0613fd08b828c01613bad565b9150509295985092959890939650565b600067ffffffffffffffff821115613ffb57613ffa6136e5565b5b602082029050602081019050919050565b600080fd5b600061402461401f84613fe0565b613745565b905080838252602082019050602084028301858111156140475761404661400c565b5b835b81811015614070578061405c88826139e5565b845260208401935050602081019050614049565b5050509392505050565b600082601f83011261408f5761408e6136ca565b5b813561409f848260208601614011565b91505092915050565b600067ffffffffffffffff8211156140c3576140c26136e5565b5b602082029050602081019050919050565b60006140e76140e2846140a8565b613745565b9050808382526020820190506020840283018581111561410a5761410961400c565b5b835b81811015614133578061411f8882613b41565b84526020840193505060208101905061410c565b5050509392505050565b600082601f830112614152576141516136ca565b5b81356141628482602086016140d4565b91505092915050565b600067ffffffffffffffff821115614186576141856136e5565b5b602082029050602081019050919050565b60006141aa6141a58461416b565b613745565b905080838252602082019050602084028301858111156141cd576141cc61400c565b5b835b818110156141f657806141e28882613a74565b8452602084019350506020810190506141cf565b5050509392505050565b600082601f830112614215576142146136ca565b5b8135614225848260208601614197565b91505092915050565b600067ffffffffffffffff821115614249576142486136e5565b5b602082029050602081019050919050565b600061426d6142688461422e565b613745565b905080838252602082019050602084028301858111156142905761428f61400c565b5b835b818110156142b957806142a58882613bad565b845260208401935050602081019050614292565b5050509392505050565b600082601f8301126142d8576142d76136ca565b5b81356142e884826020860161425a565b91505092915050565b600067ffffffffffffffff82111561430c5761430b6136e5565b5b602082029050602081019050919050565b600061433061432b846142f1565b613745565b905080838252602082019050602084028301858111156143535761435261400c565b5b835b8181101561437c57806143688882613ae8565b845260208401935050602081019050614355565b5050509392505050565b600082601f83011261439b5761439a6136ca565b5b81356143ab84826020860161431d565b91505092915050565b6000806000806000806000806000806101408b8d0312156143d8576143d76136c0565b5b60008b013567ffffffffffffffff8111156143f6576143f56136c5565b5b6144028d828e0161407a565b9a505060208b013567ffffffffffffffff811115614423576144226136c5565b5b61442f8d828e0161413d565b99505060408b013567ffffffffffffffff8111156144505761444f6136c5565b5b61445c8d828e01614200565b98505060608b013567ffffffffffffffff81111561447d5761447c6136c5565b5b6144898d828e016142c3565b97505060808b013567ffffffffffffffff8111156144aa576144a96136c5565b5b6144b68d828e0161413d565b96505060a08b013567ffffffffffffffff8111156144d7576144d66136c5565b5b6144e38d828e01614200565b95505060c08b013567ffffffffffffffff811115614504576145036136c5565b5b6145108d828e016142c3565b94505060e08b013567ffffffffffffffff811115614531576145306136c5565b5b61453d8d828e01614386565b9350506101008b013567ffffffffffffffff81111561455f5761455e6136c5565b5b61456b8d828e016142c3565b92505061012061457d8d828e01613bad565b9150509295989b9194979a5092959850565b600081519050919050565b600082825260208201905092915050565b6000819050602082019050919050565b6145c48161390d565b82525050565b60006145d683836145bb565b60208301905092915050565b6000602082019050919050565b60006145fa8261458f565b614604818561459a565b935061460f836145ab565b8060005b8381101561464057815161462788826145ca565b9750614632836145e2565b925050600181019050614613565b5085935050505092915050565b6000602082019050818103600083015261466781846145ef565b905092915050565b60008060008060008060c0878903121561468c5761468b6136c0565b5b600061469a89828a01613ae8565b96505060206146ab89828a016139e5565b95505060406146bc89828a01613b41565b94505060606146cd89828a01613a74565b93505060806146de89828a01613bad565b92505060a06146ef89828a01613ae8565b9150509295509295509295565b60008060008060808587031215614716576147156136c0565b5b600061472487828801613a74565b945050602061473587828801613bad565b935050604061474687828801613bad565b925050606061475787828801613bad565b91505092959194509250565b6000806040838503121561477a576147796136c0565b5b600061478885828601613a74565b925050602061479985828601613bad565b9150509250929050565b60006020820190506147b860008301846138a4565b92915050565b6000806000606084860312156147d7576147d66136c0565b5b60006147e586828701613a74565b93505060206147f686828701613bad565b925050604061480786828701613bad565b9150509250925092565b60006020820190506148266000830184613885565b92915050565b60008060008060008060008060006101208a8c03121561484f5761484e6136c0565b5b600061485d8c828d016139e5565b995050602061486e8c828d01613b41565b985050604061487f8c828d01613a74565b97505060606148908c828d01613bad565b96505060806148a18c828d01613b41565b95505060a06148b28c828d01613a74565b94505060c06148c38c828d01613bad565b93505060e06148d48c828d01613ae8565b9250506101006148e68c828d01613bad565b9150509295985092959850929598565b6000819050919050565b600061491b614916614911846138b3565b6148f6565b6138b3565b9050919050565b600061492d82614900565b9050919050565b600061493f82614922565b9050919050565b61494f81614934565b82525050565b600060208201905061496a6000830184614946565b92915050565b600081519050919050565b600082825260208201905092915050565b60005b838110156149aa57808201518184015260208101905061498f565b60008484015250505050565b60006149c182614970565b6149cb818561497b565b93506149db81856020860161498c565b6149e4816136d4565b840191505092915050565b60006020820190508181036000830152614a0981846149b6565b905092915050565b600082825260208201905092915050565b7f454f233000000000000000000000000000000000000000000000000000000000600082015250565b6000614a58600483614a11565b9150614a6382614a22565b602082019050919050565b60006020820190508181036000830152614a8781614a4b565b9050919050565b600081519050614a9d816139ce565b92915050565b600081519050614ab281613b2a565b92915050565b6000614ac3826138b3565b9050919050565b614ad381614ab8565b8114614ade57600080fd5b50565b600081519050614af081614aca565b92915050565b600081519050614b0581613b96565b92915050565b600081519050614b1a81613ad1565b92915050565b60008060008060008060008060006101208a8c031215614b4357614b426136c0565b5b6000614b518c828d01614a8e565b9950506020614b628c828d01614aa3565b9850506040614b738c828d01614ae1565b9750506060614b848c828d01614af6565b9650506080614b958c828d01614aa3565b95505060a0614ba68c828d01614ae1565b94505060c0614bb78c828d01614af6565b93505060e0614bc88c828d01614b0b565b925050610100614bda8c828d01614af6565b9150509295985092959850929598565b7f454f233200000000000000000000000000000000000000000000000000000000600082015250565b6000614c20600483614a11565b9150614c2b82614bea565b602082019050919050565b60006020820190508181036000830152614c4f81614c13565b9050919050565b7f454f233133000000000000000000000000000000000000000000000000000000600082015250565b6000614c8c600583614a11565b9150614c9782614c56565b602082019050919050565b60006020820190508181036000830152614cbb81614c7f565b9050919050565b7f4e487b7100000000000000000000000000000000000000000000000000000000600052601160045260246000fd5b6000614cfc826138f4565b9150614d07836138f4565b9250828201905080821115614d1f57614d1e614cc2565b5b92915050565b600060208284031215614d3b57614d3a6136c0565b5b6000614d4984828501614b0b565b91505092915050565b7f416363657373436f6e74726f6c3a2063616e206f6e6c792072656e6f756e636560008201527f20726f6c657320666f722073656c660000000000000000000000000000000000602082015250565b6000614dae602f83614a11565b9150614db982614d52565b604082019050919050565b60006020820190508181036000830152614ddd81614da1565b9050919050565b6000604082019050614df96000830185613917565b614e0660208301846138e5565b9392505050565b7f454f233134000000000000000000000000000000000000000000000000000000600082015250565b6000614e43600583614a11565b9150614e4e82614e0d565b602082019050919050565b60006020820190508181036000830152614e7281614e36565b9050919050565b7f454f233400000000000000000000000000000000000000000000000000000000600082015250565b6000614eaf600483614a11565b9150614eba82614e79565b602082019050919050565b60006020820190508181036000830152614ede81614ea2565b9050919050565b7f4e487b7100000000000000000000000000000000000000000000000000000000600052603260045260246000fd5b7f454f233500000000000000000000000000000000000000000000000000000000600082015250565b6000614f4a600483614a11565b9150614f5582614f14565b602082019050919050565b60006020820190508181036000830152614f7981614f3d565b9050919050565b7f454f233131000000000000000000000000000000000000000000000000000000600082015250565b6000614fb6600583614a11565b9150614fc182614f80565b602082019050919050565b60006020820190508181036000830152614fe581614fa9565b9050919050565b60006040820190506150016000830185613917565b61500e6020830184613917565b9392505050565b61501e81613a27565b811461502957600080fd5b50565b60008151905061503b81615015565b92915050565b600060208284031215615057576150566136c0565b5b60006150658482850161502c565b91505092915050565b7f454f233132000000000000000000000000000000000000000000000000000000600082015250565b60006150a4600583614a11565b91506150af8261506e565b602082019050919050565b600060208201905081810360008301526150d381615097565b9050919050565b600060a0820190506150ef6000830188613917565b6150fc6020830187613885565b61510960408301866138a4565b61511660608301856138e5565b61512360808301846138fe565b9695505050505050565b600060808201905061514260008301876138e5565b61514f60208301866138fe565b61515c60408301856138fe565b6151696060830184613885565b95945050505050565b60006040820190506151876000830185613917565b61519460208301846138fe565b9392505050565b7f496e697469616c697a61626c653a20636f6e747261637420697320616c72656160008201527f647920696e697469616c697a6564000000000000000000000000000000000000602082015250565b60006151f7602e83614a11565b91506152028261519b565b604082019050919050565b60006020820190508181036000830152615226816151ea565b9050919050565b7f454f233100000000000000000000000000000000000000000000000000000000600082015250565b6000615263600483614a11565b915061526e8261522d565b602082019050919050565b6000602082019050818103600083015261529281615256565b9050919050565b6000819050919050565b600060ff82169050919050565b60006152cb6152c66152c184615299565b6148f6565b6152a3565b9050919050565b6152db816152b0565b82525050565b60006020820190506152f660008301846152d2565b92915050565b600060e082019050615311600083018a613917565b61531e60208301896138e5565b61532b6040830188613917565b6153386060830187613885565b61534560808301866138a4565b61535260a08301856138e5565b61535f60c08301846138fe565b98975050505050505050565b7f454f233600000000000000000000000000000000000000000000000000000000600082015250565b60006153a1600483614a11565b91506153ac8261536b565b602082019050919050565b600060208201905081810360008301526153d081615394565b9050919050565b60006153e2826138f4565b91506153ed836138f4565b92508282026153fb816138f4565b9150828204841483151761541257615411614cc2565b5b5092915050565b7f4e487b7100000000000000000000000000000000000000000000000000000000600052601260045260246000fd5b6000615453826138f4565b915061545e836138f4565b92508261546e5761546d615419565b5b828204905092915050565b6000615484826138f4565b915061548f836138f4565b92508282039050818111156154a7576154a6614cc2565b5b92915050565b7f454f233135000000000000000000000000000000000000000000000000000000600082015250565b60006154e3600583614a11565b91506154ee826154ad565b602082019050919050565b60006020820190508181036000830152615512816154d6565b9050919050565b600081905092915050565b50565b6000615534600083615519565b915061553f82615524565b600082019050919050565b600061555582615527565b9150819050919050565b7f454f233700000000000000000000000000000000000000000000000000000000600082015250565b6000615595600483614a11565b91506155a08261555f565b602082019050919050565b600060208201905081810360008301526155c481615588565b9050919050565b7f454f233800000000000000000000000000000000000000000000000000000000600082015250565b6000615601600483614a11565b915061560c826155cb565b602082019050919050565b60006020820190508181036000830152615630816155f4565b9050919050565b7f454f233900000000000000000000000000000000000000000000000000000000600082015250565b600061566d600483614a11565b915061567882615637565b602082019050919050565b6000602082019050818103600083015261569c81615660565b9050919050565b7f454f233130000000000000000000000000000000000000000000000000000000600082015250565b60006156d9600583614a11565b91506156e4826156a3565b602082019050919050565b60006020820190508181036000830152615708816156cc565b9050919050565b600060e082019050615724600083018a6138a4565b61573160208301896138fe565b61573e60408301886138a4565b61574b60608301876138fe565b6157586080830186613917565b61576560a08301856138fe565b61577260c08301846138fe565b98975050505050505050565b600060608201905061579360008301866138e5565b6157a060208301856138e5565b6157ad60408301846138fe565b949350505050565b7f496e697469616c697a61626c653a20636f6e7472616374206973206e6f74206960008201527f6e697469616c697a696e67000000000000000000000000000000000000000000602082015250565b6000615811602b83614a11565b915061581c826157b5565b604082019050919050565b6000602082019050818103600083015261584081615804565b9050919050565b600081905092915050565b7f416363657373436f6e74726f6c3a206163636f756e7420000000000000000000600082015250565b6000615888601783615847565b915061589382615852565b601782019050919050565b600081519050919050565b60006158b48261589e565b6158be8185615847565b93506158ce81856020860161498c565b80840191505092915050565b7f206973206d697373696e6720726f6c6520000000000000000000000000000000600082015250565b6000615910601183615847565b915061591b826158da565b601182019050919050565b60006159318261587b565b915061593d82856158a9565b915061594882615903565b915061595482846158a9565b91508190509392505050565b600061596b8261589e565b6159758185614a11565b935061598581856020860161498c565b61598e816136d4565b840191505092915050565b600060208201905081810360008301526159b38184615960565b905092915050565b7f5265656e7472616e637947756172643a207265656e7472616e742063616c6c00600082015250565b60006159f1601f83614a11565b91506159fc826159bb565b602082019050919050565b60006020820190508181036000830152615a20816159e4565b9050919050565b7f5361666545524332303a204552433230206f7065726174696f6e20646964206e60008201527f6f74207375636365656400000000000000000000000000000000000000000000602082015250565b6000615a83602a83614a11565b9150615a8e82615a27565b604082019050919050565b60006020820190508181036000830152615ab281615a76565b9050919050565b6000615ac4826138f4565b915060008203615ad757615ad6614cc2565b5b600182039050919050565b7f537472696e67733a20686578206c656e67746820696e73756666696369656e74600082015250565b6000615b18602083614a11565b9150615b2382615ae2565b602082019050919050565b60006020820190508181036000830152615b4781615b0b565b9050919050565b7f416464726573733a20696e73756666696369656e742062616c616e636520666f60008201527f722063616c6c0000000000000000000000000000000000000000000000000000602082015250565b6000615baa602683614a11565b9150615bb582615b4e565b604082019050919050565b60006020820190508181036000830152615bd981615b9d565b9050919050565b6000615beb82614970565b615bf58185615519565b9350615c0581856020860161498c565b80840191505092915050565b6000615c1d8284615be0565b915081905092915050565b7f416464726573733a2063616c6c20746f206e6f6e2d636f6e7472616374000000600082015250565b6000615c5e601d83614a11565b9150615c6982615c28565b602082019050919050565b60006020820190508181036000830152615c8d81615c51565b905091905056fea2646970667358221220cd9739117ebf2f37d072d618ca882a7438b4ba69c4b4bef28abe5ff0eccdeb7564736f6c63430008180033",
  "linkReferences": {},
  "deployedLinkReferences": {}
}