{
  "_format": "hh-sol-artifact-1",
  "contractName": "DutchAuctionToken",
  "sourceName": "contracts/DutchAuction.sol",
  "abi": [
    {
      "inputs": [],
      "stateMutability": "nonpayable",
      "type": "constructor"
    },
    {
      "anonymous": false,
      "inputs": [
        {
          "indexed": true,
          "internalType": "address",
          "name": "owner",
          "type": "address"
        },
        {
          "indexed": true,
          "internalType": "address",
          "name": "spender",
          "type": "address"
        },
        {
          "indexed": false,
          "internalType": "uint256",
          "name": "value",
          "type": "uint256"
        }
      ],
      "name": "Approval",
      "type": "event"
    },
    {
      "anonymous": false,
      "inputs": [
        {
          "indexed": true,
          "internalType": "address",
          "name": "bidder",
          "type": "address"
        },
        {
          "indexed": false,
          "internalType": "uint256",
          "name": "amount",
          "type": "uint256"
        },
        {
          "indexed": false,
          "internalType": "uint256",
          "name": "price",
          "type": "uint256"
        }
      ],
      "name": "BidPlaced",
      "type": "event"
    },
    {
      "anonymous": false,
      "inputs": [
        {
          "indexed": false,
          "internalType": "uint8",
          "name": "version",
          "type": "uint8"
        }
      ],
      "name": "Initialized",
      "type": "event"
    },
    {
      "anonymous": false,
      "inputs": [
        {
          "indexed": true,
          "internalType": "address",
          "name": "previousOwner",
          "type": "address"
        },
        {
          "indexed": true,
          "internalType": "address",
          "name": "newOwner",
          "type": "address"
        }
      ],
      "name": "OwnershipTransferred",
      "type": "event"
    },
    {
      "anonymous": false,
      "inputs": [
        {
          "indexed": true,
          "internalType": "address",
          "name": "bidder",
          "type": "address"
        },
        {
          "indexed": false,
          "internalType": "uint256",
          "name": "amount",
          "type": "uint256"
        }
      ],
      "name": "TokensClaimed",
      "type": "event"
    },
    {
      "anonymous": false,
      "inputs": [
        {
          "indexed": true,
          "internalType": "address",
          "name": "from",
          "type": "address"
        },
        {
          "indexed": true,
          "internalType": "address",
          "name": "to",
          "type": "address"
        },
        {
          "indexed": false,
          "internalType": "uint256",
          "name": "value",
          "type": "uint256"
        }
      ],
      "name": "Transfer",
      "type": "event"
    },
    {
      "inputs": [
        {
          "internalType": "address",
          "name": "owner",
          "type": "address"
        },
        {
          "internalType": "address",
          "name": "spender",
          "type": "address"
        }
      ],
      "name": "allowance",
      "outputs": [
        {
          "internalType": "uint256",
          "name": "",
          "type": "uint256"
        }
      ],
      "stateMutability": "view",
      "type": "function"
    },
    {
      "inputs": [
        {
          "internalType": "uint256",
          "name": "",
          "type": "uint256"
        }
      ],
      "name": "allowedAssets",
      "outputs": [
        {
          "internalType": "address",
          "name": "",
          "type": "address"
        }
      ],
      "stateMutability": "view",
      "type": "function"
    },
    {
      "inputs": [
        {
          "internalType": "address",
          "name": "spender",
          "type": "address"
        },
        {
          "internalType": "uint256",
          "name": "amount",
          "type": "uint256"
        }
      ],
      "name": "approve",
      "outputs": [
        {
          "internalType": "bool",
          "name": "",
          "type": "bool"
        }
      ],
      "stateMutability": "nonpayable",
      "type": "function"
    },
    {
      "inputs": [],
      "name": "auctionEnd",
      "outputs": [
        {
          "internalType": "uint256",
          "name": "",
          "type": "uint256"
        }
      ],
      "stateMutability": "view",
      "type": "function"
    },
    {
      "inputs": [],
      "name": "auctionStart",
      "outputs": [
        {
          "internalType": "uint256",
          "name": "",
          "type": "uint256"
        }
      ],
      "stateMutability": "view",
      "type": "function"
    },
    {
      "inputs": [
        {
          "internalType": "address",
          "name": "account",
          "type": "address"
        }
      ],
      "name": "balanceOf",
      "outputs": [
        {
          "internalType": "uint256",
          "name": "",
          "type": "uint256"
        }
      ],
      "stateMutability": "view",
      "type": "function"
    },
    {
      "inputs": [
        {
          "internalType": "address",
          "name": "",
          "type": "address"
        }
      ],
      "name": "bids",
      "outputs": [
        {
          "internalType": "uint256",
          "name": "amount",
          "type": "uint256"
        },
        {
          "internalType": "uint256",
          "name": "price",
          "type": "uint256"
        }
      ],
      "stateMutability": "view",
      "type": "function"
    },
    {
      "inputs": [],
      "name": "claimTokens",
      "outputs": [],
      "stateMutability": "nonpayable",
      "type": "function"
    },
    {
      "inputs": [],
      "name": "currentPrice",
      "outputs": [
        {
          "internalType": "uint256",
          "name": "",
          "type": "uint256"
        }
      ],
      "stateMutability": "view",
      "type": "function"
    },
    {
      "inputs": [],
      "name": "decimals",
      "outputs": [
        {
          "internalType": "uint8",
          "name": "",
          "type": "uint8"
        }
      ],
      "stateMutability": "view",
      "type": "function"
    },
    {
      "inputs": [
        {
          "internalType": "address",
          "name": "spender",
          "type": "address"
        },
        {
          "internalType": "uint256",
          "name": "subtractedValue",
          "type": "uint256"
        }
      ],
      "name": "decreaseAllowance",
      "outputs": [
        {
          "internalType": "bool",
          "name": "",
          "type": "bool"
        }
      ],
      "stateMutability": "nonpayable",
      "type": "function"
    },
    {
      "inputs": [],
      "name": "endPrice",
      "outputs": [
        {
          "internalType": "uint256",
          "name": "",
          "type": "uint256"
        }
      ],
      "stateMutability": "view",
      "type": "function"
    },
    {
      "inputs": [
        {
          "internalType": "address",
          "name": "",
          "type": "address"
        }
      ],
      "name": "exchangeRates",
      "outputs": [
        {
          "internalType": "uint256",
          "name": "",
          "type": "uint256"
        }
      ],
      "stateMutability": "view",
      "type": "function"
    },
    {
      "inputs": [
        {
          "internalType": "address",
          "name": "spender",
          "type": "address"
        },
        {
          "internalType": "uint256",
          "name": "addedValue",
          "type": "uint256"
        }
      ],
      "name": "increaseAllowance",
      "outputs": [
        {
          "internalType": "bool",
          "name": "",
          "type": "bool"
        }
      ],
      "stateMutability": "nonpayable",
      "type": "function"
    },
    {
      "inputs": [
        {
          "internalType": "string",
          "name": "name",
          "type": "string"
        },
        {
          "internalType": "string",
          "name": "symbol",
          "type": "string"
        },
        {
          "internalType": "uint256",
          "name": "_startPrice",
          "type": "uint256"
        },
        {
          "internalType": "uint256",
          "name": "_endPrice",
          "type": "uint256"
        },
        {
          "internalType": "uint256",
          "name": "_duration",
          "type": "uint256"
        },
        {
          "internalType": "uint256",
          "name": "_totalTokensForSale",
          "type": "uint256"
        },
        {
          "internalType": "address[]",
          "name": "_allowedAssets",
          "type": "address[]"
        },
        {
          "internalType": "uint256[]",
          "name": "_exchangeRates",
          "type": "uint256[]"
        }
      ],
      "name": "initialize",
      "outputs": [],
      "stateMutability": "nonpayable",
      "type": "function"
    },
    {
      "inputs": [],
      "name": "name",
      "outputs": [
        {
          "internalType": "string",
          "name": "",
          "type": "string"
        }
      ],
      "stateMutability": "view",
      "type": "function"
    },
    {
      "inputs": [],
      "name": "owner",
      "outputs": [
        {
          "internalType": "address",
          "name": "",
          "type": "address"
        }
      ],
      "stateMutability": "view",
      "type": "function"
    },
    {
      "inputs": [
        {
          "internalType": "uint256",
          "name": "amount",
          "type": "uint256"
        },
        {
          "internalType": "address",
          "name": "asset",
          "type": "address"
        }
      ],
      "name": "placeBid",
      "outputs": [],
      "stateMutability": "payable",
      "type": "function"
    },
    {
      "inputs": [],
      "name": "renounceOwnership",
      "outputs": [],
      "stateMutability": "nonpayable",
      "type": "function"
    },
    {
      "inputs": [
        {
          "internalType": "bytes32",
          "name": "_version",
          "type": "bytes32"
        }
      ],
      "name": "setVersion",
      "outputs": [],
      "stateMutability": "nonpayable",
      "type": "function"
    },
    {
      "inputs": [],
      "name": "startPrice",
      "outputs": [
        {
          "internalType": "uint256",
          "name": "",
          "type": "uint256"
        }
      ],
      "stateMutability": "view",
      "type": "function"
    },
    {
      "inputs": [],
      "name": "symbol",
      "outputs": [
        {
          "internalType": "string",
          "name": "",
          "type": "string"
        }
      ],
      "stateMutability": "view",
      "type": "function"
    },
    {
      "inputs": [
        {
          "internalType": "address",
          "name": "",
          "type": "address"
        }
      ],
      "name": "tokensBought",
      "outputs": [
        {
          "internalType": "uint256",
          "name": "",
          "type": "uint256"
        }
      ],
      "stateMutability": "view",
      "type": "function"
    },
    {
      "inputs": [],
      "name": "totalSupply",
      "outputs": [
        {
          "internalType": "uint256",
          "name": "",
          "type": "uint256"
        }
      ],
      "stateMutability": "view",
      "type": "function"
    },
    {
      "inputs": [],
      "name": "totalTokensForSale",
      "outputs": [
        {
          "internalType": "uint256",
          "name": "",
          "type": "uint256"
        }
      ],
      "stateMutability": "view",
      "type": "function"
    },
    {
      "inputs": [],
      "name": "totalTokensSold",
      "outputs": [
        {
          "internalType": "uint256",
          "name": "",
          "type": "uint256"
        }
      ],
      "stateMutability": "view",
      "type": "function"
    },
    {
      "inputs": [
        {
          "internalType": "address",
          "name": "to",
          "type": "address"
        },
        {
          "internalType": "uint256",
          "name": "amount",
          "type": "uint256"
        }
      ],
      "name": "transfer",
      "outputs": [
        {
          "internalType": "bool",
          "name": "",
          "type": "bool"
        }
      ],
      "stateMutability": "nonpayable",
      "type": "function"
    },
    {
      "inputs": [
        {
          "internalType": "address",
          "name": "from",
          "type": "address"
        },
        {
          "internalType": "address",
          "name": "to",
          "type": "address"
        },
        {
          "internalType": "uint256",
          "name": "amount",
          "type": "uint256"
        }
      ],
      "name": "transferFrom",
      "outputs": [
        {
          "internalType": "bool",
          "name": "",
          "type": "bool"
        }
      ],
      "stateMutability": "nonpayable",
      "type": "function"
    },
    {
      "inputs": [
        {
          "internalType": "address",
          "name": "newOwner",
          "type": "address"
        }
      ],
      "name": "transferOwnership",
      "outputs": [],
      "stateMutability": "nonpayable",
      "type": "function"
    },
    {
      "inputs": [],
      "name": "version",
      "outputs": [
        {
          "internalType": "bytes32",
          "name": "",
          "type": "bytes32"
        }
      ],
      "stateMutability": "view",
      "type": "function"
    },
    {
      "inputs": [
        {
          "internalType": "address payable",
          "name": "recipient",
          "type": "address"
        }
      ],
      "name": "withdrawFunds",
      "outputs": [],
      "stateMutability": "nonpayable",
      "type": "function"
    }
  ],
  "bytecode": "0x60806040523480156200001157600080fd5b50620000226200002860201b60201c565b620001d2565b600060019054906101000a900460ff16156200007b576040517f08c379a0000000000000000000000000000000000000000000000000000000008152600401620000729062000175565b60405180910390fd5b60ff801660008054906101000a900460ff1660ff1614620000ec5760ff6000806101000a81548160ff021916908360ff1602179055507f7f26b83ff96e1f2b6a682f133852f6798a09c465da95921460cefb384740249860ff604051620000e39190620001b5565b60405180910390a15b565b600082825260208201905092915050565b7f496e697469616c697a61626c653a20636f6e747261637420697320696e69746960008201527f616c697a696e6700000000000000000000000000000000000000000000000000602082015250565b60006200015d602783620000ee565b91506200016a82620000ff565b604082019050919050565b6000602082019050818103600083015262000190816200014e565b9050919050565b600060ff82169050919050565b620001af8162000197565b82525050565b6000602082019050620001cc6000830184620001a4565b92915050565b6140ff80620001e26000396000f3fe6080604052600436106101d85760003560e01c806363b20117116101025780639d1b464a11610095578063ca5f81b511610064578063ca5f81b5146106e0578063dd62ed3e14610709578063f1a9af8914610746578063f2fde38b14610771576101d8565b80639d1b464a14610610578063a457c2d71461063b578063a9059cbb14610678578063b868723e146106b5576101d8565b8063783d4621116100d1578063783d46211461055457806385c15d9a1461057d5780638da5cb5b146105ba57806395d89b41146105e5576101d8565b806363b20117146104ac57806368742da6146104d757806370a0823114610500578063715018a61461053d576101d8565b80632a24f46c1161017a5780634f245ef7116101495780634f245ef7146103ed57806354fd4d501461041857806360219c7b1461044357806362ea82db1461046e576101d8565b80632a24f46c14610343578063313ce5671461036e578063395093511461039957806348c54b9d146103d6576101d8565b806318160ddd116101b657806318160ddd146102825780631ea52c73146102ad57806323b872dd146102c9578063264d779714610306576101d8565b806306fdde03146101dd578063095ea7b3146102085780630ccd3ef914610245575b600080fd5b3480156101e957600080fd5b506101f261079a565b6040516101ff9190612744565b60405180910390f35b34801561021457600080fd5b5061022f600480360381019061022a919061280e565b61082c565b60405161023c9190612869565b60405180910390f35b34801561025157600080fd5b5061026c60048036038101906102679190612884565b61084f565b60405161027991906128c0565b60405180910390f35b34801561028e57600080fd5b5061029761088e565b6040516102a491906128ea565b60405180910390f35b6102c760048036038101906102c29190612905565b610898565b005b3480156102d557600080fd5b506102f060048036038101906102eb9190612945565b610cf3565b6040516102fd9190612869565b60405180910390f35b34801561031257600080fd5b5061032d60048036038101906103289190612998565b610d22565b60405161033a91906128ea565b60405180910390f35b34801561034f57600080fd5b50610358610d3a565b60405161036591906128ea565b60405180910390f35b34801561037a57600080fd5b50610383610d40565b60405161039091906129e1565b60405180910390f35b3480156103a557600080fd5b506103c060048036038101906103bb919061280e565b610d49565b6040516103cd9190612869565b60405180910390f35b3480156103e257600080fd5b506103eb610d80565b005b3480156103f957600080fd5b50610402610efa565b60405161040f91906128ea565b60405180910390f35b34801561042457600080fd5b5061042d610f00565b60405161043a9190612a15565b60405180910390f35b34801561044f57600080fd5b50610458610f06565b60405161046591906128ea565b60405180910390f35b34801561047a57600080fd5b5061049560048036038101906104909190612998565b610f0c565b6040516104a3929190612a30565b60405180910390f35b3480156104b857600080fd5b506104c1610f30565b6040516104ce91906128ea565b60405180910390f35b3480156104e357600080fd5b506104fe60048036038101906104f99190612a97565b610f36565b005b34801561050c57600080fd5b5061052760048036038101906105229190612998565b61110b565b60405161053491906128ea565b60405180910390f35b34801561054957600080fd5b50610552611154565b005b34801561056057600080fd5b5061057b60048036038101906105769190612d84565b611168565b005b34801561058957600080fd5b506105a4600480360381019061059f9190612998565b6113db565b6040516105b191906128ea565b60405180910390f35b3480156105c657600080fd5b506105cf6113f3565b6040516105dc91906128c0565b60405180910390f35b3480156105f157600080fd5b506105fa61141d565b6040516106079190612744565b60405180910390f35b34801561061c57600080fd5b506106256114af565b60405161063291906128ea565b60405180910390f35b34801561064757600080fd5b50610662600480360381019061065d919061280e565b61152b565b60405161066f9190612869565b60405180910390f35b34801561068457600080fd5b5061069f600480360381019061069a919061280e565b6115a2565b6040516106ac9190612869565b60405180910390f35b3480156106c157600080fd5b506106ca6115c5565b6040516106d791906128ea565b60405180910390f35b3480156106ec57600080fd5b5061070760048036038101906107029190612ed6565b6115cb565b005b34801561071557600080fd5b50610730600480360381019061072b9190612f03565b6115dd565b60405161073d91906128ea565b60405180910390f35b34801561075257600080fd5b5061075b611664565b60405161076891906128ea565b60405180910390f35b34801561077d57600080fd5b5061079860048036038101906107939190612998565b61166a565b005b6060603680546107a990612f72565b80601f01602080910402602001604051908101604052809291908181526020018280546107d590612f72565b80156108225780601f106107f757610100808354040283529160200191610822565b820191906000526020600020905b81548152906001019060200180831161080557829003601f168201915b5050505050905090565b6000806108376116ed565b90506108448185856116f5565b600191505092915050565b60cf818154811061085f57600080fd5b906000526020600020016000915054906101000a900473ffffffffffffffffffffffffffffffffffffffff1681565b6000603554905090565b60ca5442106108dc576040517f08c379a00000000000000000000000000000000000000000000000000000000081526004016108d390612fef565b60405180910390fd5b600073ffffffffffffffffffffffffffffffffffffffff168173ffffffffffffffffffffffffffffffffffffffff1614806109565750600060d060008373ffffffffffffffffffffffffffffffffffffffff1673ffffffffffffffffffffffffffffffffffffffff16815260200190815260200160002054115b610995576040517f08c379a000000000000000000000000000000000000000000000000000000000815260040161098c9061305b565b60405180910390fd5b600061099f6114af565b90506000610a07826109f960d060008773ffffffffffffffffffffffffffffffffffffffff1673ffffffffffffffffffffffffffffffffffffffff16815260200190815260200160002054876118be90919063ffffffff16565b6118d490919063ffffffff16565b905060cd54610a218260ce546118ea90919063ffffffff16565b1115610a62576040517f08c379a0000000000000000000000000000000000000000000000000000000008152600401610a59906130c7565b60405180910390fd5b600073ffffffffffffffffffffffffffffffffffffffff168373ffffffffffffffffffffffffffffffffffffffff1603610add57833414610ad8576040517f08c379a0000000000000000000000000000000000000000000000000000000008152600401610acf90613133565b60405180910390fd5b610b0b565b610b0a3330868673ffffffffffffffffffffffffffffffffffffffff16611900909392919063ffffffff16565b5b610b608460d160003373ffffffffffffffffffffffffffffffffffffffff1673ffffffffffffffffffffffffffffffffffffffff168152602001908152602001600020600001546118ea90919063ffffffff16565b60d160003373ffffffffffffffffffffffffffffffffffffffff1673ffffffffffffffffffffffffffffffffffffffff168152602001908152602001600020600001819055508160d160003373ffffffffffffffffffffffffffffffffffffffff1673ffffffffffffffffffffffffffffffffffffffff16815260200190815260200160002060010181905550610c3f8160d260003373ffffffffffffffffffffffffffffffffffffffff1673ffffffffffffffffffffffffffffffffffffffff168152602001908152602001600020546118ea90919063ffffffff16565b60d260003373ffffffffffffffffffffffffffffffffffffffff1673ffffffffffffffffffffffffffffffffffffffff16815260200190815260200160002081905550610c978160ce546118ea90919063ffffffff16565b60ce819055503373ffffffffffffffffffffffffffffffffffffffff167fdf8644c0a4c21ed214ce69f395675b3a5fcd1039083daea5058898de40ea31498584604051610ce5929190612a30565b60405180910390a250505050565b600080610cfe6116ed565b9050610d0b858285611989565b610d16858585611a15565b60019150509392505050565b60d26020528060005260406000206000915090505481565b60ca5481565b60006012905090565b600080610d546116ed565b9050610d75818585610d6685896115dd565b610d709190613182565b6116f5565b600191505092915050565b60ca5442101580610d94575060cd5460ce54145b610dd3576040517f08c379a0000000000000000000000000000000000000000000000000000000008152600401610dca90613202565b60405180910390fd5b600060d260003373ffffffffffffffffffffffffffffffffffffffff1673ffffffffffffffffffffffffffffffffffffffff16815260200190815260200160002054905060008111610e5a576040517f08c379a0000000000000000000000000000000000000000000000000000000008152600401610e519061326e565b60405180910390fd5b600060d260003373ffffffffffffffffffffffffffffffffffffffff1673ffffffffffffffffffffffffffffffffffffffff16815260200190815260200160002081905550610ea93382611c8e565b3373ffffffffffffffffffffffffffffffffffffffff167f896e034966eaaf1adc54acc0f257056febbd300c9e47182cf761982cf1f5e43082604051610eef91906128ea565b60405180910390a250565b60c95481565b60d35481565b60cd5481565b60d16020528060005260406000206000915090508060000154908060010154905082565b60ce5481565b610f3e611de5565b60ca54421015610f83576040517f08c379a0000000000000000000000000000000000000000000000000000000008152600401610f7a90613202565b60405180910390fd5b60004790508173ffffffffffffffffffffffffffffffffffffffff166108fc829081150290604051600060405180830381858888f19350505050158015610fce573d6000803e3d6000fd5b5060005b60cf8054905081101561110657600060cf8281548110610ff557610ff461328e565b5b9060005260206000200160009054906101000a900473ffffffffffffffffffffffffffffffffffffffff169050600073ffffffffffffffffffffffffffffffffffffffff168173ffffffffffffffffffffffffffffffffffffffff160361106e57600047905061106781600087611e63565b50506110fa565b60008173ffffffffffffffffffffffffffffffffffffffff166370a08231306040518263ffffffff1660e01b81526004016110a991906128c0565b602060405180830381865afa1580156110c6573d6000803e3d6000fd5b505050506040513d601f19601f820116820180604052508101906110ea91906132d2565b90506110f7818387611e63565b50505b50806001019050610fd2565b505050565b6000603360008373ffffffffffffffffffffffffffffffffffffffff1673ffffffffffffffffffffffffffffffffffffffff168152602001908152602001600020549050919050565b61115c611de5565b6111666000611f6a565b565b60008060019054906101000a900460ff161590508080156111995750600160008054906101000a900460ff1660ff16105b806111c657506111a830612030565b1580156111c55750600160008054906101000a900460ff1660ff16145b5b611205576040517f08c379a00000000000000000000000000000000000000000000000000000000081526004016111fc90613371565b60405180910390fd5b60016000806101000a81548160ff021916908360ff1602179055508015611242576001600060016101000a81548160ff0219169083151502179055505b61124c8989612053565b6112546120b0565b8151835114611298576040517f08c379a000000000000000000000000000000000000000000000000000000000815260040161128f906133dd565b60405180910390fd5b4260c9819055508460c9546112ad9190613182565b60ca819055508660cb819055508560cc819055508360cd819055508260cf90805190602001906112de92919061260d565b5060005b835181101561136e578281815181106112fe576112fd61328e565b5b602002602001015160d0600086848151811061131d5761131c61328e565b5b602002602001015173ffffffffffffffffffffffffffffffffffffffff1673ffffffffffffffffffffffffffffffffffffffff168152602001908152602001600020819055508060010190506112e2565b50611377612109565b80156113d05760008060016101000a81548160ff0219169083151502179055507f7f26b83ff96e1f2b6a682f133852f6798a09c465da95921460cefb384740249860016040516113c79190613442565b60405180910390a15b505050505050505050565b60d06020528060005260406000206000915090505481565b6000606560009054906101000a900473ffffffffffffffffffffffffffffffffffffffff16905090565b60606037805461142c90612f72565b80601f016020809104026020016040519081016040528092919081815260200182805461145890612f72565b80156114a55780601f1061147a576101008083540402835291602001916114a5565b820191906000526020600020905b81548152906001019060200180831161148857829003601f168201915b5050505050905090565b600060ca5442106114c45760cc549050611528565b600060c954426114d4919061345d565b9050600060cc5460cb546114e8919061345d565b9050600060c95460ca546114fc919061345d565b905080838361150b9190613491565b6115159190613502565b60cb54611522919061345d565b93505050505b90565b6000806115366116ed565b9050600061154482866115dd565b905083811015611589576040517f08c379a0000000000000000000000000000000000000000000000000000000008152600401611580906135a5565b60405180910390fd5b61159682868684036116f5565b60019250505092915050565b6000806115ad6116ed565b90506115ba818585611a15565b600191505092915050565b60cc5481565b6115d3611de5565b8060d38190555050565b6000603460008473ffffffffffffffffffffffffffffffffffffffff1673ffffffffffffffffffffffffffffffffffffffff16815260200190815260200160002060008373ffffffffffffffffffffffffffffffffffffffff1673ffffffffffffffffffffffffffffffffffffffff16815260200190815260200160002054905092915050565b60cb5481565b611672611de5565b600073ffffffffffffffffffffffffffffffffffffffff168173ffffffffffffffffffffffffffffffffffffffff16036116e1576040517f08c379a00000000000000000000000000000000000000000000000000000000081526004016116d890613637565b60405180910390fd5b6116ea81611f6a565b50565b600033905090565b600073ffffffffffffffffffffffffffffffffffffffff168373ffffffffffffffffffffffffffffffffffffffff1603611764576040517f08c379a000000000000000000000000000000000000000000000000000000000815260040161175b906136c9565b60405180910390fd5b600073ffffffffffffffffffffffffffffffffffffffff168273ffffffffffffffffffffffffffffffffffffffff16036117d3576040517f08c379a00000000000000000000000000000000000000000000000000000000081526004016117ca9061375b565b60405180910390fd5b80603460008573ffffffffffffffffffffffffffffffffffffffff1673ffffffffffffffffffffffffffffffffffffffff16815260200190815260200160002060008473ffffffffffffffffffffffffffffffffffffffff1673ffffffffffffffffffffffffffffffffffffffff168152602001908152602001600020819055508173ffffffffffffffffffffffffffffffffffffffff168373ffffffffffffffffffffffffffffffffffffffff167f8c5be1e5ebec7d5bd14f71427d1e84f3dd0314c0f7b2291e5b200ac8c7c3b925836040516118b191906128ea565b60405180910390a3505050565b600081836118cc9190613491565b905092915050565b600081836118e29190613502565b905092915050565b600081836118f89190613182565b905092915050565b611983846323b872dd60e01b8585856040516024016119219392919061377b565b604051602081830303815290604052907bffffffffffffffffffffffffffffffffffffffffffffffffffffffff19166020820180517bffffffffffffffffffffffffffffffffffffffffffffffffffffffff8381831617835250505050612162565b50505050565b600061199584846115dd565b90507fffffffffffffffffffffffffffffffffffffffffffffffffffffffffffffffff8114611a0f5781811015611a01576040517f08c379a00000000000000000000000000000000000000000000000000000000081526004016119f8906137fe565b60405180910390fd5b611a0e84848484036116f5565b5b50505050565b600073ffffffffffffffffffffffffffffffffffffffff168373ffffffffffffffffffffffffffffffffffffffff1603611a84576040517f08c379a0000000000000000000000000000000000000000000000000000000008152600401611a7b90613890565b60405180910390fd5b600073ffffffffffffffffffffffffffffffffffffffff168273ffffffffffffffffffffffffffffffffffffffff1603611af3576040517f08c379a0000000000000000000000000000000000000000000000000000000008152600401611aea90613922565b60405180910390fd5b611afe83838361222a565b6000603360008573ffffffffffffffffffffffffffffffffffffffff1673ffffffffffffffffffffffffffffffffffffffff16815260200190815260200160002054905081811015611b85576040517f08c379a0000000000000000000000000000000000000000000000000000000008152600401611b7c906139b4565b60405180910390fd5b818103603360008673ffffffffffffffffffffffffffffffffffffffff1673ffffffffffffffffffffffffffffffffffffffff1681526020019081526020016000208190555081603360008573ffffffffffffffffffffffffffffffffffffffff1673ffffffffffffffffffffffffffffffffffffffff168152602001908152602001600020600082825401925050819055508273ffffffffffffffffffffffffffffffffffffffff168473ffffffffffffffffffffffffffffffffffffffff167fddf252ad1be2c89b69c2b068fc378daa952ba7f163c4a11628f55a4df523b3ef84604051611c7591906128ea565b60405180910390a3611c8884848461222f565b50505050565b600073ffffffffffffffffffffffffffffffffffffffff168273ffffffffffffffffffffffffffffffffffffffff1603611cfd576040517f08c379a0000000000000000000000000000000000000000000000000000000008152600401611cf490613a20565b60405180910390fd5b611d096000838361222a565b8060356000828254611d1b9190613182565b9250508190555080603360008473ffffffffffffffffffffffffffffffffffffffff1673ffffffffffffffffffffffffffffffffffffffff168152602001908152602001600020600082825401925050819055508173ffffffffffffffffffffffffffffffffffffffff16600073ffffffffffffffffffffffffffffffffffffffff167fddf252ad1be2c89b69c2b068fc378daa952ba7f163c4a11628f55a4df523b3ef83604051611dcd91906128ea565b60405180910390a3611de16000838361222f565b5050565b611ded6116ed565b73ffffffffffffffffffffffffffffffffffffffff16611e0b6113f3565b73ffffffffffffffffffffffffffffffffffffffff1614611e61576040517f08c379a0000000000000000000000000000000000000000000000000000000008152600401611e5890613a8c565b60405180910390fd5b565b6000611e6d612234565b6000841115611f5657600073ffffffffffffffffffffffffffffffffffffffff168373ffffffffffffffffffffffffffffffffffffffff1603611f22576000808373ffffffffffffffffffffffffffffffffffffffff1686604051611ed190613add565b60006040518083038185875af1925050503d8060008114611f0e576040519150601f19603f3d011682016040523d82523d6000602084013e611f13565b606091505b50915091508192505050611f5b565b611f4d82858573ffffffffffffffffffffffffffffffffffffffff166122839092919063ffffffff16565b60019050611f5b565b600090505b611f63612309565b9392505050565b6000606560009054906101000a900473ffffffffffffffffffffffffffffffffffffffff16905081606560006101000a81548173ffffffffffffffffffffffffffffffffffffffff021916908373ffffffffffffffffffffffffffffffffffffffff1602179055508173ffffffffffffffffffffffffffffffffffffffff168173ffffffffffffffffffffffffffffffffffffffff167f8be0079c531659141344cd1fd0a4f28419497f9722a3daafe3b4186f6b6457e060405160405180910390a35050565b6000808273ffffffffffffffffffffffffffffffffffffffff163b119050919050565b600060019054906101000a900460ff166120a2576040517f08c379a000000000000000000000000000000000000000000000000000000000815260040161209990613b64565b60405180910390fd5b6120ac8282612313565b5050565b600060019054906101000a900460ff166120ff576040517f08c379a00000000000000000000000000000000000000000000000000000000081526004016120f690613b64565b60405180910390fd5b612107612386565b565b600060019054906101000a900460ff16612158576040517f08c379a000000000000000000000000000000000000000000000000000000000815260040161214f90613b64565b60405180910390fd5b6121606123e7565b565b60006121c4826040518060400160405280602081526020017f5361666545524332303a206c6f772d6c6576656c2063616c6c206661696c65648152508573ffffffffffffffffffffffffffffffffffffffff166124409092919063ffffffff16565b90506000815114806121e65750808060200190518101906121e59190613bb0565b5b612225576040517f08c379a000000000000000000000000000000000000000000000000000000000815260040161221c90613c4f565b60405180910390fd5b505050565b505050565b505050565b600260975403612279576040517f08c379a000000000000000000000000000000000000000000000000000000000815260040161227090613cbb565b60405180910390fd5b6002609781905550565b6123048363a9059cbb60e01b84846040516024016122a2929190613cdb565b604051602081830303815290604052907bffffffffffffffffffffffffffffffffffffffffffffffffffffffff19166020820180517bffffffffffffffffffffffffffffffffffffffffffffffffffffffff8381831617835250505050612162565b505050565b6001609781905550565b600060019054906101000a900460ff16612362576040517f08c379a000000000000000000000000000000000000000000000000000000000815260040161235990613b64565b60405180910390fd5b81603690816123719190613ea6565b5080603790816123819190613ea6565b505050565b600060019054906101000a900460ff166123d5576040517f08c379a00000000000000000000000000000000000000000000000000000000081526004016123cc90613b64565b60405180910390fd5b6123e56123e06116ed565b611f6a565b565b600060019054906101000a900460ff16612436576040517f08c379a000000000000000000000000000000000000000000000000000000000815260040161242d90613b64565b60405180910390fd5b6001609781905550565b606061244f8484600085612458565b90509392505050565b60608247101561249d576040517f08c379a000000000000000000000000000000000000000000000000000000000815260040161249490613fea565b60405180910390fd5b6000808673ffffffffffffffffffffffffffffffffffffffff1685876040516124c69190614046565b60006040518083038185875af1925050503d8060008114612503576040519150601f19603f3d011682016040523d82523d6000602084013e612508565b606091505b509150915061251987838387612525565b92505050949350505050565b6060831561258757600083510361257f5761253f8561259a565b61257e576040517f08c379a0000000000000000000000000000000000000000000000000000000008152600401612575906140a9565b60405180910390fd5b5b829050612592565b61259183836125bd565b5b949350505050565b6000808273ffffffffffffffffffffffffffffffffffffffff163b119050919050565b6000825111156125d05781518083602001fd5b806040517f08c379a00000000000000000000000000000000000000000000000000000000081526004016126049190612744565b60405180910390fd5b828054828255906000526020600020908101928215612686579160200282015b828111156126855782518260006101000a81548173ffffffffffffffffffffffffffffffffffffffff021916908373ffffffffffffffffffffffffffffffffffffffff1602179055509160200191906001019061262d565b5b5090506126939190612697565b5090565b5b808211156126b0576000816000905550600101612698565b5090565b600081519050919050565b600082825260208201905092915050565b60005b838110156126ee5780820151818401526020810190506126d3565b60008484015250505050565b6000601f19601f8301169050919050565b6000612716826126b4565b61272081856126bf565b93506127308185602086016126d0565b612739816126fa565b840191505092915050565b6000602082019050818103600083015261275e818461270b565b905092915050565b6000604051905090565b600080fd5b600080fd5b600073ffffffffffffffffffffffffffffffffffffffff82169050919050565b60006127a58261277a565b9050919050565b6127b58161279a565b81146127c057600080fd5b50565b6000813590506127d2816127ac565b92915050565b6000819050919050565b6127eb816127d8565b81146127f657600080fd5b50565b600081359050612808816127e2565b92915050565b6000806040838503121561282557612824612770565b5b6000612833858286016127c3565b9250506020612844858286016127f9565b9150509250929050565b60008115159050919050565b6128638161284e565b82525050565b600060208201905061287e600083018461285a565b92915050565b60006020828403121561289a57612899612770565b5b60006128a8848285016127f9565b91505092915050565b6128ba8161279a565b82525050565b60006020820190506128d560008301846128b1565b92915050565b6128e4816127d8565b82525050565b60006020820190506128ff60008301846128db565b92915050565b6000806040838503121561291c5761291b612770565b5b600061292a858286016127f9565b925050602061293b858286016127c3565b9150509250929050565b60008060006060848603121561295e5761295d612770565b5b600061296c868287016127c3565b935050602061297d868287016127c3565b925050604061298e868287016127f9565b9150509250925092565b6000602082840312156129ae576129ad612770565b5b60006129bc848285016127c3565b91505092915050565b600060ff82169050919050565b6129db816129c5565b82525050565b60006020820190506129f660008301846129d2565b92915050565b6000819050919050565b612a0f816129fc565b82525050565b6000602082019050612a2a6000830184612a06565b92915050565b6000604082019050612a4560008301856128db565b612a5260208301846128db565b9392505050565b6000612a648261277a565b9050919050565b612a7481612a59565b8114612a7f57600080fd5b50565b600081359050612a9181612a6b565b92915050565b600060208284031215612aad57612aac612770565b5b6000612abb84828501612a82565b91505092915050565b600080fd5b600080fd5b7f4e487b7100000000000000000000000000000000000000000000000000000000600052604160045260246000fd5b612b06826126fa565b810181811067ffffffffffffffff82111715612b2557612b24612ace565b5b80604052505050565b6000612b38612766565b9050612b448282612afd565b919050565b600067ffffffffffffffff821115612b6457612b63612ace565b5b612b6d826126fa565b9050602081019050919050565b82818337600083830152505050565b6000612b9c612b9784612b49565b612b2e565b905082815260208101848484011115612bb857612bb7612ac9565b5b612bc3848285612b7a565b509392505050565b600082601f830112612be057612bdf612ac4565b5b8135612bf0848260208601612b89565b91505092915050565b600067ffffffffffffffff821115612c1457612c13612ace565b5b602082029050602081019050919050565b600080fd5b6000612c3d612c3884612bf9565b612b2e565b90508083825260208201905060208402830185811115612c6057612c5f612c25565b5b835b81811015612c895780612c7588826127c3565b845260208401935050602081019050612c62565b5050509392505050565b600082601f830112612ca857612ca7612ac4565b5b8135612cb8848260208601612c2a565b91505092915050565b600067ffffffffffffffff821115612cdc57612cdb612ace565b5b602082029050602081019050919050565b6000612d00612cfb84612cc1565b612b2e565b90508083825260208201905060208402830185811115612d2357612d22612c25565b5b835b81811015612d4c5780612d3888826127f9565b845260208401935050602081019050612d25565b5050509392505050565b600082601f830112612d6b57612d6a612ac4565b5b8135612d7b848260208601612ced565b91505092915050565b600080600080600080600080610100898b031215612da557612da4612770565b5b600089013567ffffffffffffffff811115612dc357612dc2612775565b5b612dcf8b828c01612bcb565b985050602089013567ffffffffffffffff811115612df057612def612775565b5b612dfc8b828c01612bcb565b9750506040612e0d8b828c016127f9565b9650506060612e1e8b828c016127f9565b9550506080612e2f8b828c016127f9565b94505060a0612e408b828c016127f9565b93505060c089013567ffffffffffffffff811115612e6157612e60612775565b5b612e6d8b828c01612c93565b92505060e089013567ffffffffffffffff811115612e8e57612e8d612775565b5b612e9a8b828c01612d56565b9150509295985092959890939650565b612eb3816129fc565b8114612ebe57600080fd5b50565b600081359050612ed081612eaa565b92915050565b600060208284031215612eec57612eeb612770565b5b6000612efa84828501612ec1565b91505092915050565b60008060408385031215612f1a57612f19612770565b5b6000612f28858286016127c3565b9250506020612f39858286016127c3565b9150509250929050565b7f4e487b7100000000000000000000000000000000000000000000000000000000600052602260045260246000fd5b60006002820490506001821680612f8a57607f821691505b602082108103612f9d57612f9c612f43565b5b50919050565b7f41756374696f6e2068617320656e646564000000000000000000000000000000600082015250565b6000612fd96011836126bf565b9150612fe482612fa3565b602082019050919050565b6000602082019050818103600083015261300881612fcc565b9050919050565b7f4173736574206e6f7420616c6c6f776564000000000000000000000000000000600082015250565b60006130456011836126bf565b91506130508261300f565b602082019050919050565b6000602082019050818103600083015261307481613038565b9050919050565b7f4e6f7420656e6f75676820746f6b656e7320666f722073616c65000000000000600082015250565b60006130b1601a836126bf565b91506130bc8261307b565b602082019050919050565b600060208201905081810360008301526130e0816130a4565b9050919050565b7f496e636f72726563742045544820616d6f756e74000000000000000000000000600082015250565b600061311d6014836126bf565b9150613128826130e7565b602082019050919050565b6000602082019050818103600083015261314c81613110565b9050919050565b7f4e487b7100000000000000000000000000000000000000000000000000000000600052601160045260246000fd5b600061318d826127d8565b9150613198836127d8565b92508282019050808211156131b0576131af613153565b5b92915050565b7f41756374696f6e206e6f74207965742066696e69736865640000000000000000600082015250565b60006131ec6018836126bf565b91506131f7826131b6565b602082019050919050565b6000602082019050818103600083015261321b816131df565b9050919050565b7f4e6f20746f6b656e7320746f20636c61696d0000000000000000000000000000600082015250565b60006132586012836126bf565b915061326382613222565b602082019050919050565b600060208201905081810360008301526132878161324b565b9050919050565b7f4e487b7100000000000000000000000000000000000000000000000000000000600052603260045260246000fd5b6000815190506132cc816127e2565b92915050565b6000602082840312156132e8576132e7612770565b5b60006132f6848285016132bd565b91505092915050565b7f496e697469616c697a61626c653a20636f6e747261637420697320616c72656160008201527f647920696e697469616c697a6564000000000000000000000000000000000000602082015250565b600061335b602e836126bf565b9150613366826132ff565b604082019050919050565b6000602082019050818103600083015261338a8161334e565b9050919050565b7f417272617973206d757374206265207468652073616d65206c656e6774680000600082015250565b60006133c7601e836126bf565b91506133d282613391565b602082019050919050565b600060208201905081810360008301526133f6816133ba565b9050919050565b6000819050919050565b6000819050919050565b600061342c613427613422846133fd565b613407565b6129c5565b9050919050565b61343c81613411565b82525050565b60006020820190506134576000830184613433565b92915050565b6000613468826127d8565b9150613473836127d8565b925082820390508181111561348b5761348a613153565b5b92915050565b600061349c826127d8565b91506134a7836127d8565b92508282026134b5816127d8565b915082820484148315176134cc576134cb613153565b5b5092915050565b7f4e487b7100000000000000000000000000000000000000000000000000000000600052601260045260246000fd5b600061350d826127d8565b9150613518836127d8565b925082613528576135276134d3565b5b828204905092915050565b7f45524332303a2064656372656173656420616c6c6f77616e63652062656c6f7760008201527f207a65726f000000000000000000000000000000000000000000000000000000602082015250565b600061358f6025836126bf565b915061359a82613533565b604082019050919050565b600060208201905081810360008301526135be81613582565b9050919050565b7f4f776e61626c653a206e6577206f776e657220697320746865207a65726f206160008201527f6464726573730000000000000000000000000000000000000000000000000000602082015250565b60006136216026836126bf565b915061362c826135c5565b604082019050919050565b6000602082019050818103600083015261365081613614565b9050919050565b7f45524332303a20617070726f76652066726f6d20746865207a65726f2061646460008201527f7265737300000000000000000000000000000000000000000000000000000000602082015250565b60006136b36024836126bf565b91506136be82613657565b604082019050919050565b600060208201905081810360008301526136e2816136a6565b9050919050565b7f45524332303a20617070726f766520746f20746865207a65726f20616464726560008201527f7373000000000000000000000000000000000000000000000000000000000000602082015250565b60006137456022836126bf565b9150613750826136e9565b604082019050919050565b6000602082019050818103600083015261377481613738565b9050919050565b600060608201905061379060008301866128b1565b61379d60208301856128b1565b6137aa60408301846128db565b949350505050565b7f45524332303a20696e73756666696369656e7420616c6c6f77616e6365000000600082015250565b60006137e8601d836126bf565b91506137f3826137b2565b602082019050919050565b60006020820190508181036000830152613817816137db565b9050919050565b7f45524332303a207472616e736665722066726f6d20746865207a65726f20616460008201527f6472657373000000000000000000000000000000000000000000000000000000602082015250565b600061387a6025836126bf565b91506138858261381e565b604082019050919050565b600060208201905081810360008301526138a98161386d565b9050919050565b7f45524332303a207472616e7366657220746f20746865207a65726f206164647260008201527f6573730000000000000000000000000000000000000000000000000000000000602082015250565b600061390c6023836126bf565b9150613917826138b0565b604082019050919050565b6000602082019050818103600083015261393b816138ff565b9050919050565b7f45524332303a207472616e7366657220616d6f756e742065786365656473206260008201527f616c616e63650000000000000000000000000000000000000000000000000000602082015250565b600061399e6026836126bf565b91506139a982613942565b604082019050919050565b600060208201905081810360008301526139cd81613991565b9050919050565b7f45524332303a206d696e7420746f20746865207a65726f206164647265737300600082015250565b6000613a0a601f836126bf565b9150613a15826139d4565b602082019050919050565b60006020820190508181036000830152613a39816139fd565b9050919050565b7f4f776e61626c653a2063616c6c6572206973206e6f7420746865206f776e6572600082015250565b6000613a766020836126bf565b9150613a8182613a40565b602082019050919050565b60006020820190508181036000830152613aa581613a69565b9050919050565b600081905092915050565b50565b6000613ac7600083613aac565b9150613ad282613ab7565b600082019050919050565b6000613ae882613aba565b9150819050919050565b7f496e697469616c697a61626c653a20636f6e7472616374206973206e6f74206960008201527f6e697469616c697a696e67000000000000000000000000000000000000000000602082015250565b6000613b4e602b836126bf565b9150613b5982613af2565b604082019050919050565b60006020820190508181036000830152613b7d81613b41565b9050919050565b613b8d8161284e565b8114613b9857600080fd5b50565b600081519050613baa81613b84565b92915050565b600060208284031215613bc657613bc5612770565b5b6000613bd484828501613b9b565b91505092915050565b7f5361666545524332303a204552433230206f7065726174696f6e20646964206e60008201527f6f74207375636365656400000000000000000000000000000000000000000000602082015250565b6000613c39602a836126bf565b9150613c4482613bdd565b604082019050919050565b60006020820190508181036000830152613c6881613c2c565b9050919050565b7f5265656e7472616e637947756172643a207265656e7472616e742063616c6c00600082015250565b6000613ca5601f836126bf565b9150613cb082613c6f565b602082019050919050565b60006020820190508181036000830152613cd481613c98565b9050919050565b6000604082019050613cf060008301856128b1565b613cfd60208301846128db565b9392505050565b60008190508160005260206000209050919050565b60006020601f8301049050919050565b600082821b905092915050565b600060088302613d667fffffffffffffffffffffffffffffffffffffffffffffffffffffffffffffffff82613d29565b613d708683613d29565b95508019841693508086168417925050509392505050565b6000613da3613d9e613d99846127d8565b613407565b6127d8565b9050919050565b6000819050919050565b613dbd83613d88565b613dd1613dc982613daa565b848454613d36565b825550505050565b600090565b613de6613dd9565b613df1818484613db4565b505050565b5b81811015613e1557613e0a600082613dde565b600181019050613df7565b5050565b601f821115613e5a57613e2b81613d04565b613e3484613d19565b81016020851015613e43578190505b613e57613e4f85613d19565b830182613df6565b50505b505050565b600082821c905092915050565b6000613e7d60001984600802613e5f565b1980831691505092915050565b6000613e968383613e6c565b9150826002028217905092915050565b613eaf826126b4565b67ffffffffffffffff811115613ec857613ec7612ace565b5b613ed28254612f72565b613edd828285613e19565b600060209050601f831160018114613f105760008415613efe578287015190505b613f088582613e8a565b865550613f70565b601f198416613f1e86613d04565b60005b82811015613f4657848901518255600182019150602085019450602081019050613f21565b86831015613f635784890151613f5f601f891682613e6c565b8355505b6001600288020188555050505b505050505050565b7f416464726573733a20696e73756666696369656e742062616c616e636520666f60008201527f722063616c6c0000000000000000000000000000000000000000000000000000602082015250565b6000613fd46026836126bf565b9150613fdf82613f78565b604082019050919050565b6000602082019050818103600083015261400381613fc7565b9050919050565b600081519050919050565b60006140208261400a565b61402a8185613aac565b935061403a8185602086016126d0565b80840191505092915050565b60006140528284614015565b915081905092915050565b7f416464726573733a2063616c6c20746f206e6f6e2d636f6e7472616374000000600082015250565b6000614093601d836126bf565b915061409e8261405d565b602082019050919050565b600060208201905081810360008301526140c281614086565b905091905056fea2646970667358221220943d07a354fec76c9069892cd8bbee97beba9dabe98e7e4b942b40374b415f3364736f6c63430008180033",
  "linkReferences": {},
  "deployedLinkReferences": {}
}