{
  "_format": "hh-sol-artifact-1",
  "contractName": "LPTokenInitializer",
  "sourceName": "contracts/lpTokenInitializer.sol",
  "abi": [
    {
      "anonymous": false,
      "inputs": [
        {
          "indexed": true,
          "internalType": "address",
          "name": "lpToken",
          "type": "address"
        }
      ],
      "name": "LPTokenInitialized",
      "type": "event"
    },
    {
      "inputs": [
        {
          "internalType": "string",
          "name": "name",
          "type": "string"
        },
        {
          "internalType": "string",
          "name": "symbol",
          "type": "string"
        }
      ],
      "name": "initialize",
      "outputs": [
        {
          "internalType": "contract LPToken",
          "name": "",
          "type": "address"
        }
      ],
      "stateMutability": "nonpayable",
      "type": "function"
    },
    {
      "inputs": [
        {
          "internalType": "string",
          "name": "name",
          "type": "string"
        },
        {
          "internalType": "string",
          "name": "symbol",
          "type": "string"
        }
      ],
      "name": "initialize_address",
      "outputs": [
        {
          "internalType": "address",
          "name": "",
          "type": "address"
        }
      ],
      "stateMutability": "nonpayable",
      "type": "function"
    },
    {
      "inputs": [
        {
          "internalType": "bytes32",
          "name": "_version",
          "type": "bytes32"
        }
      ],
      "name": "setVersion",
      "outputs": [],
      "stateMutability": "nonpayable",
      "type": "function"
    },
    {
      "inputs": [],
      "name": "version",
      "outputs": [
        {
          "internalType": "bytes32",
          "name": "",
          "type": "bytes32"
        }
      ],
      "stateMutability": "view",
      "type": "function"
    }
  ],
  "bytecode": "0x608060405234801561001057600080fd5b50612cd3806100206000396000f3fe608060405234801561001057600080fd5b506004361061004c5760003560e01c80633dd9e71f146100515780634cd88b761461008157806354fd4d50146100b1578063ca5f81b5146100cf575b600080fd5b61006b60048036038101906100669190610360565b6100eb565b6040516100789190610419565b60405180910390f35b61009b60048036038101906100969190610360565b6100ff565b6040516100a89190610493565b60405180910390f35b6100b96101e9565b6040516100c691906104c7565b60405180910390f35b6100e960048036038101906100e4919061050e565b6101ef565b005b60006100f783836100ff565b905092915050565b60008060405161010e906101f9565b604051809103906000f08015801561012a573d6000803e3d6000fd5b5090508073ffffffffffffffffffffffffffffffffffffffff1663077f224a8585336040518463ffffffff1660e01b815260040161016a939291906105ba565b600060405180830381600087803b15801561018457600080fd5b505af1158015610198573d6000803e3d6000fd5b505050508073ffffffffffffffffffffffffffffffffffffffff167f72171a3ae01ef9b129d367e5a204c7d5abe8e0a2ba7f3bdba0bf00b9d96afec960405160405180910390a28091505092915050565b60005481565b8060008190555050565b61269e8061060083390190565b6000604051905090565b600080fd5b600080fd5b600080fd5b600080fd5b6000601f19601f8301169050919050565b7f4e487b7100000000000000000000000000000000000000000000000000000000600052604160045260246000fd5b61026d82610224565b810181811067ffffffffffffffff8211171561028c5761028b610235565b5b80604052505050565b600061029f610206565b90506102ab8282610264565b919050565b600067ffffffffffffffff8211156102cb576102ca610235565b5b6102d482610224565b9050602081019050919050565b82818337600083830152505050565b60006103036102fe846102b0565b610295565b90508281526020810184848401111561031f5761031e61021f565b5b61032a8482856102e1565b509392505050565b600082601f8301126103475761034661021a565b5b81356103578482602086016102f0565b91505092915050565b6000806040838503121561037757610376610210565b5b600083013567ffffffffffffffff81111561039557610394610215565b5b6103a185828601610332565b925050602083013567ffffffffffffffff8111156103c2576103c1610215565b5b6103ce85828601610332565b9150509250929050565b600073ffffffffffffffffffffffffffffffffffffffff82169050919050565b6000610403826103d8565b9050919050565b610413816103f8565b82525050565b600060208201905061042e600083018461040a565b92915050565b6000819050919050565b600061045961045461044f846103d8565b610434565b6103d8565b9050919050565b600061046b8261043e565b9050919050565b600061047d82610460565b9050919050565b61048d81610472565b82525050565b60006020820190506104a86000830184610484565b92915050565b6000819050919050565b6104c1816104ae565b82525050565b60006020820190506104dc60008301846104b8565b92915050565b6104eb816104ae565b81146104f657600080fd5b50565b600081359050610508816104e2565b92915050565b60006020828403121561052457610523610210565b5b6000610532848285016104f9565b91505092915050565b600081519050919050565b600082825260208201905092915050565b60005b8381101561057557808201518184015260208101905061055a565b60008484015250505050565b600061058c8261053b565b6105968185610546565b93506105a6818560208601610557565b6105af81610224565b840191505092915050565b600060608201905081810360008301526105d48186610581565b905081810360208301526105e88185610581565b90506105f7604083018461040a565b94935050505056fe608060405234801561001057600080fd5b5061267e806100206000396000f3fe608060405234801561001057600080fd5b506004361061012c5760003560e01c8063715018a6116100ad578063a457c2d711610071578063a457c2d71461030d578063a9059cbb1461033d578063ca5f81b51461036d578063dd62ed3e14610389578063f2fde38b146103b95761012c565b8063715018a6146102a15780638da5cb5b146102ab57806395d89b41146102c95780639cb8a26a146102e75780639dc29fac146102f15761012c565b8063313ce567116100f4578063313ce567146101e9578063395093511461020757806340c10f191461023757806354fd4d501461025357806370a08231146102715761012c565b806306fdde0314610131578063077f224a1461014f578063095ea7b31461016b57806318160ddd1461019b57806323b872dd146101b9575b600080fd5b6101396103d5565b604051610146919061159d565b60405180910390f35b61016960048036038101906101649190611766565b610467565b005b61018560048036038101906101809190611827565b6105bb565b6040516101929190611882565b60405180910390f35b6101a36105de565b6040516101b091906118ac565b60405180910390f35b6101d360048036038101906101ce91906118c7565b6105e8565b6040516101e09190611882565b60405180910390f35b6101f1610617565b6040516101fe9190611936565b60405180910390f35b610221600480360381019061021c9190611827565b610620565b60405161022e9190611882565b60405180910390f35b610251600480360381019061024c9190611827565b610657565b005b61025b61066d565b604051610268919061196a565b60405180910390f35b61028b60048036038101906102869190611985565b610673565b60405161029891906118ac565b60405180910390f35b6102a96106bc565b005b6102b36106d0565b6040516102c091906119c1565b60405180910390f35b6102d16106fa565b6040516102de919061159d565b60405180910390f35b6102ef61078c565b005b61030b60048036038101906103069190611827565b61084a565b005b61032760048036038101906103229190611827565b610860565b6040516103349190611882565b60405180910390f35b61035760048036038101906103529190611827565b6108d7565b6040516103649190611882565b60405180910390f35b61038760048036038101906103829190611a08565b6108fa565b005b6103a3600480360381019061039e9190611a35565b61090c565b6040516103b091906118ac565b60405180910390f35b6103d360048036038101906103ce9190611985565b610993565b005b6060603680546103e490611aa4565b80601f016020809104026020016040519081016040528092919081815260200182805461041090611aa4565b801561045d5780601f106104325761010080835404028352916020019161045d565b820191906000526020600020905b81548152906001019060200180831161044057829003601f168201915b5050505050905090565b60008060019054906101000a900460ff161590508080156104985750600160008054906101000a900460ff1660ff16105b806104c557506104a730610a16565b1580156104c45750600160008054906101000a900460ff1660ff16145b5b610504576040517f08c379a00000000000000000000000000000000000000000000000000000000081526004016104fb90611b47565b60405180910390fd5b60016000806101000a81548160ff021916908360ff1602179055508015610541576001600060016101000a81548160ff0219169083151502179055505b61054b8484610a39565b610553610a96565b61055c82610993565b80156105b55760008060016101000a81548160ff0219169083151502179055507f7f26b83ff96e1f2b6a682f133852f6798a09c465da95921460cefb384740249860016040516105ac9190611bac565b60405180910390a15b50505050565b6000806105c6610aef565b90506105d3818585610af7565b600191505092915050565b6000603554905090565b6000806105f3610aef565b9050610600858285610cc0565b61060b858585610d4c565b60019150509392505050565b60006012905090565b60008061062b610aef565b905061064c81858561063d858961090c565b6106479190611bf6565b610af7565b600191505092915050565b61065f610fc5565b6106698282611043565b5050565b60975481565b6000603360008373ffffffffffffffffffffffffffffffffffffffff1673ffffffffffffffffffffffffffffffffffffffff168152602001908152602001600020549050919050565b6106c4610fc5565b6106ce600061119a565b565b6000606560009054906101000a900473ffffffffffffffffffffffffffffffffffffffff16905090565b60606037805461070990611aa4565b80601f016020809104026020016040519081016040528092919081815260200182805461073590611aa4565b80156107825780601f1061075757610100808354040283529160200191610782565b820191906000526020600020905b81548152906001019060200180831161076557829003601f168201915b5050505050905090565b610794610fc5565b600061079e6106d0565b73ffffffffffffffffffffffffffffffffffffffff16476040516107c190611c5b565b60006040518083038185875af1925050503d80600081146107fe576040519150601f19603f3d011682016040523d82523d6000602084013e610803565b606091505b5050905080610847576040517f08c379a000000000000000000000000000000000000000000000000000000000815260040161083e90611cbc565b60405180910390fd5b50565b610852610fc5565b61085c8282611260565b5050565b60008061086b610aef565b90506000610879828661090c565b9050838110156108be576040517f08c379a00000000000000000000000000000000000000000000000000000000081526004016108b590611d4e565b60405180910390fd5b6108cb8286868403610af7565b60019250505092915050565b6000806108e2610aef565b90506108ef818585610d4c565b600191505092915050565b610902610fc5565b8060978190555050565b6000603460008473ffffffffffffffffffffffffffffffffffffffff1673ffffffffffffffffffffffffffffffffffffffff16815260200190815260200160002060008373ffffffffffffffffffffffffffffffffffffffff1673ffffffffffffffffffffffffffffffffffffffff16815260200190815260200160002054905092915050565b61099b610fc5565b600073ffffffffffffffffffffffffffffffffffffffff168173ffffffffffffffffffffffffffffffffffffffff1603610a0a576040517f08c379a0000000000000000000000000000000000000000000000000000000008152600401610a0190611de0565b60405180910390fd5b610a138161119a565b50565b6000808273ffffffffffffffffffffffffffffffffffffffff163b119050919050565b600060019054906101000a900460ff16610a88576040517f08c379a0000000000000000000000000000000000000000000000000000000008152600401610a7f90611e72565b60405180910390fd5b610a92828261142f565b5050565b600060019054906101000a900460ff16610ae5576040517f08c379a0000000000000000000000000000000000000000000000000000000008152600401610adc90611e72565b60405180910390fd5b610aed6114a2565b565b600033905090565b600073ffffffffffffffffffffffffffffffffffffffff168373ffffffffffffffffffffffffffffffffffffffff1603610b66576040517f08c379a0000000000000000000000000000000000000000000000000000000008152600401610b5d90611f04565b60405180910390fd5b600073ffffffffffffffffffffffffffffffffffffffff168273ffffffffffffffffffffffffffffffffffffffff1603610bd5576040517f08c379a0000000000000000000000000000000000000000000000000000000008152600401610bcc90611f96565b60405180910390fd5b80603460008573ffffffffffffffffffffffffffffffffffffffff1673ffffffffffffffffffffffffffffffffffffffff16815260200190815260200160002060008473ffffffffffffffffffffffffffffffffffffffff1673ffffffffffffffffffffffffffffffffffffffff168152602001908152602001600020819055508173ffffffffffffffffffffffffffffffffffffffff168373ffffffffffffffffffffffffffffffffffffffff167f8c5be1e5ebec7d5bd14f71427d1e84f3dd0314c0f7b2291e5b200ac8c7c3b92583604051610cb391906118ac565b60405180910390a3505050565b6000610ccc848461090c565b90507fffffffffffffffffffffffffffffffffffffffffffffffffffffffffffffffff8114610d465781811015610d38576040517f08c379a0000000000000000000000000000000000000000000000000000000008152600401610d2f90612002565b60405180910390fd5b610d458484848403610af7565b5b50505050565b600073ffffffffffffffffffffffffffffffffffffffff168373ffffffffffffffffffffffffffffffffffffffff1603610dbb576040517f08c379a0000000000000000000000000000000000000000000000000000000008152600401610db290612094565b60405180910390fd5b600073ffffffffffffffffffffffffffffffffffffffff168273ffffffffffffffffffffffffffffffffffffffff1603610e2a576040517f08c379a0000000000000000000000000000000000000000000000000000000008152600401610e2190612126565b60405180910390fd5b610e35838383611503565b6000603360008573ffffffffffffffffffffffffffffffffffffffff1673ffffffffffffffffffffffffffffffffffffffff16815260200190815260200160002054905081811015610ebc576040517f08c379a0000000000000000000000000000000000000000000000000000000008152600401610eb3906121b8565b60405180910390fd5b818103603360008673ffffffffffffffffffffffffffffffffffffffff1673ffffffffffffffffffffffffffffffffffffffff1681526020019081526020016000208190555081603360008573ffffffffffffffffffffffffffffffffffffffff1673ffffffffffffffffffffffffffffffffffffffff168152602001908152602001600020600082825401925050819055508273ffffffffffffffffffffffffffffffffffffffff168473ffffffffffffffffffffffffffffffffffffffff167fddf252ad1be2c89b69c2b068fc378daa952ba7f163c4a11628f55a4df523b3ef84604051610fac91906118ac565b60405180910390a3610fbf848484611508565b50505050565b610fcd610aef565b73ffffffffffffffffffffffffffffffffffffffff16610feb6106d0565b73ffffffffffffffffffffffffffffffffffffffff1614611041576040517f08c379a000000000000000000000000000000000000000000000000000000000815260040161103890612224565b60405180910390fd5b565b600073ffffffffffffffffffffffffffffffffffffffff168273ffffffffffffffffffffffffffffffffffffffff16036110b2576040517f08c379a00000000000000000000000000000000000000000000000000000000081526004016110a990612290565b60405180910390fd5b6110be60008383611503565b80603560008282546110d09190611bf6565b9250508190555080603360008473ffffffffffffffffffffffffffffffffffffffff1673ffffffffffffffffffffffffffffffffffffffff168152602001908152602001600020600082825401925050819055508173ffffffffffffffffffffffffffffffffffffffff16600073ffffffffffffffffffffffffffffffffffffffff167fddf252ad1be2c89b69c2b068fc378daa952ba7f163c4a11628f55a4df523b3ef8360405161118291906118ac565b60405180910390a361119660008383611508565b5050565b6000606560009054906101000a900473ffffffffffffffffffffffffffffffffffffffff16905081606560006101000a81548173ffffffffffffffffffffffffffffffffffffffff021916908373ffffffffffffffffffffffffffffffffffffffff1602179055508173ffffffffffffffffffffffffffffffffffffffff168173ffffffffffffffffffffffffffffffffffffffff167f8be0079c531659141344cd1fd0a4f28419497f9722a3daafe3b4186f6b6457e060405160405180910390a35050565b600073ffffffffffffffffffffffffffffffffffffffff168273ffffffffffffffffffffffffffffffffffffffff16036112cf576040517f08c379a00000000000000000000000000000000000000000000000000000000081526004016112c690612322565b60405180910390fd5b6112db82600083611503565b6000603360008473ffffffffffffffffffffffffffffffffffffffff1673ffffffffffffffffffffffffffffffffffffffff16815260200190815260200160002054905081811015611362576040517f08c379a0000000000000000000000000000000000000000000000000000000008152600401611359906123b4565b60405180910390fd5b818103603360008573ffffffffffffffffffffffffffffffffffffffff1673ffffffffffffffffffffffffffffffffffffffff1681526020019081526020016000208190555081603560008282540392505081905550600073ffffffffffffffffffffffffffffffffffffffff168373ffffffffffffffffffffffffffffffffffffffff167fddf252ad1be2c89b69c2b068fc378daa952ba7f163c4a11628f55a4df523b3ef8460405161141691906118ac565b60405180910390a361142a83600084611508565b505050565b600060019054906101000a900460ff1661147e576040517f08c379a000000000000000000000000000000000000000000000000000000000815260040161147590611e72565b60405180910390fd5b816036908161148d9190612576565b50806037908161149d9190612576565b505050565b600060019054906101000a900460ff166114f1576040517f08c379a00000000000000000000000000000000000000000000000000000000081526004016114e890611e72565b60405180910390fd5b6115016114fc610aef565b61119a565b565b505050565b505050565b600081519050919050565b600082825260208201905092915050565b60005b8381101561154757808201518184015260208101905061152c565b60008484015250505050565b6000601f19601f8301169050919050565b600061156f8261150d565b6115798185611518565b9350611589818560208601611529565b61159281611553565b840191505092915050565b600060208201905081810360008301526115b78184611564565b905092915050565b6000604051905090565b600080fd5b600080fd5b600080fd5b600080fd5b7f4e487b7100000000000000000000000000000000000000000000000000000000600052604160045260246000fd5b61161582611553565b810181811067ffffffffffffffff82111715611634576116336115dd565b5b80604052505050565b60006116476115bf565b9050611653828261160c565b919050565b600067ffffffffffffffff821115611673576116726115dd565b5b61167c82611553565b9050602081019050919050565b82818337600083830152505050565b60006116ab6116a684611658565b61163d565b9050828152602081018484840111156116c7576116c66115d8565b5b6116d2848285611689565b509392505050565b600082601f8301126116ef576116ee6115d3565b5b81356116ff848260208601611698565b91505092915050565b600073ffffffffffffffffffffffffffffffffffffffff82169050919050565b600061173382611708565b9050919050565b61174381611728565b811461174e57600080fd5b50565b6000813590506117608161173a565b92915050565b60008060006060848603121561177f5761177e6115c9565b5b600084013567ffffffffffffffff81111561179d5761179c6115ce565b5b6117a9868287016116da565b935050602084013567ffffffffffffffff8111156117ca576117c96115ce565b5b6117d6868287016116da565b92505060406117e786828701611751565b9150509250925092565b6000819050919050565b611804816117f1565b811461180f57600080fd5b50565b600081359050611821816117fb565b92915050565b6000806040838503121561183e5761183d6115c9565b5b600061184c85828601611751565b925050602061185d85828601611812565b9150509250929050565b60008115159050919050565b61187c81611867565b82525050565b60006020820190506118976000830184611873565b92915050565b6118a6816117f1565b82525050565b60006020820190506118c1600083018461189d565b92915050565b6000806000606084860312156118e0576118df6115c9565b5b60006118ee86828701611751565b93505060206118ff86828701611751565b925050604061191086828701611812565b9150509250925092565b600060ff82169050919050565b6119308161191a565b82525050565b600060208201905061194b6000830184611927565b92915050565b6000819050919050565b61196481611951565b82525050565b600060208201905061197f600083018461195b565b92915050565b60006020828403121561199b5761199a6115c9565b5b60006119a984828501611751565b91505092915050565b6119bb81611728565b82525050565b60006020820190506119d660008301846119b2565b92915050565b6119e581611951565b81146119f057600080fd5b50565b600081359050611a02816119dc565b92915050565b600060208284031215611a1e57611a1d6115c9565b5b6000611a2c848285016119f3565b91505092915050565b60008060408385031215611a4c57611a4b6115c9565b5b6000611a5a85828601611751565b9250506020611a6b85828601611751565b9150509250929050565b7f4e487b7100000000000000000000000000000000000000000000000000000000600052602260045260246000fd5b60006002820490506001821680611abc57607f821691505b602082108103611acf57611ace611a75565b5b50919050565b7f496e697469616c697a61626c653a20636f6e747261637420697320616c72656160008201527f647920696e697469616c697a6564000000000000000000000000000000000000602082015250565b6000611b31602e83611518565b9150611b3c82611ad5565b604082019050919050565b60006020820190508181036000830152611b6081611b24565b9050919050565b6000819050919050565b6000819050919050565b6000611b96611b91611b8c84611b67565b611b71565b61191a565b9050919050565b611ba681611b7b565b82525050565b6000602082019050611bc16000830184611b9d565b92915050565b7f4e487b7100000000000000000000000000000000000000000000000000000000600052601160045260246000fd5b6000611c01826117f1565b9150611c0c836117f1565b9250828201905080821115611c2457611c23611bc7565b5b92915050565b600081905092915050565b50565b6000611c45600083611c2a565b9150611c5082611c35565b600082019050919050565b6000611c6682611c38565b9150819050919050565b7f63616c6c7b76616c75657d206661696c65640000000000000000000000000000600082015250565b6000611ca6601283611518565b9150611cb182611c70565b602082019050919050565b60006020820190508181036000830152611cd581611c99565b9050919050565b7f45524332303a2064656372656173656420616c6c6f77616e63652062656c6f7760008201527f207a65726f000000000000000000000000000000000000000000000000000000602082015250565b6000611d38602583611518565b9150611d4382611cdc565b604082019050919050565b60006020820190508181036000830152611d6781611d2b565b9050919050565b7f4f776e61626c653a206e6577206f776e657220697320746865207a65726f206160008201527f6464726573730000000000000000000000000000000000000000000000000000602082015250565b6000611dca602683611518565b9150611dd582611d6e565b604082019050919050565b60006020820190508181036000830152611df981611dbd565b9050919050565b7f496e697469616c697a61626c653a20636f6e7472616374206973206e6f74206960008201527f6e697469616c697a696e67000000000000000000000000000000000000000000602082015250565b6000611e5c602b83611518565b9150611e6782611e00565b604082019050919050565b60006020820190508181036000830152611e8b81611e4f565b9050919050565b7f45524332303a20617070726f76652066726f6d20746865207a65726f2061646460008201527f7265737300000000000000000000000000000000000000000000000000000000602082015250565b6000611eee602483611518565b9150611ef982611e92565b604082019050919050565b60006020820190508181036000830152611f1d81611ee1565b9050919050565b7f45524332303a20617070726f766520746f20746865207a65726f20616464726560008201527f7373000000000000000000000000000000000000000000000000000000000000602082015250565b6000611f80602283611518565b9150611f8b82611f24565b604082019050919050565b60006020820190508181036000830152611faf81611f73565b9050919050565b7f45524332303a20696e73756666696369656e7420616c6c6f77616e6365000000600082015250565b6000611fec601d83611518565b9150611ff782611fb6565b602082019050919050565b6000602082019050818103600083015261201b81611fdf565b9050919050565b7f45524332303a207472616e736665722066726f6d20746865207a65726f20616460008201527f6472657373000000000000000000000000000000000000000000000000000000602082015250565b600061207e602583611518565b915061208982612022565b604082019050919050565b600060208201905081810360008301526120ad81612071565b9050919050565b7f45524332303a207472616e7366657220746f20746865207a65726f206164647260008201527f6573730000000000000000000000000000000000000000000000000000000000602082015250565b6000612110602383611518565b915061211b826120b4565b604082019050919050565b6000602082019050818103600083015261213f81612103565b9050919050565b7f45524332303a207472616e7366657220616d6f756e742065786365656473206260008201527f616c616e63650000000000000000000000000000000000000000000000000000602082015250565b60006121a2602683611518565b91506121ad82612146565b604082019050919050565b600060208201905081810360008301526121d181612195565b9050919050565b7f4f776e61626c653a2063616c6c6572206973206e6f7420746865206f776e6572600082015250565b600061220e602083611518565b9150612219826121d8565b602082019050919050565b6000602082019050818103600083015261223d81612201565b9050919050565b7f45524332303a206d696e7420746f20746865207a65726f206164647265737300600082015250565b600061227a601f83611518565b915061228582612244565b602082019050919050565b600060208201905081810360008301526122a98161226d565b9050919050565b7f45524332303a206275726e2066726f6d20746865207a65726f2061646472657360008201527f7300000000000000000000000000000000000000000000000000000000000000602082015250565b600061230c602183611518565b9150612317826122b0565b604082019050919050565b6000602082019050818103600083015261233b816122ff565b9050919050565b7f45524332303a206275726e20616d6f756e7420657863656564732062616c616e60008201527f6365000000000000000000000000000000000000000000000000000000000000602082015250565b600061239e602283611518565b91506123a982612342565b604082019050919050565b600060208201905081810360008301526123cd81612391565b9050919050565b60008190508160005260206000209050919050565b60006020601f8301049050919050565b600082821b905092915050565b6000600883026124367fffffffffffffffffffffffffffffffffffffffffffffffffffffffffffffffff826123f9565b61244086836123f9565b95508019841693508086168417925050509392505050565b600061247361246e612469846117f1565b611b71565b6117f1565b9050919050565b6000819050919050565b61248d83612458565b6124a16124998261247a565b848454612406565b825550505050565b600090565b6124b66124a9565b6124c1818484612484565b505050565b5b818110156124e5576124da6000826124ae565b6001810190506124c7565b5050565b601f82111561252a576124fb816123d4565b612504846123e9565b81016020851015612513578190505b61252761251f856123e9565b8301826124c6565b50505b505050565b600082821c905092915050565b600061254d6000198460080261252f565b1980831691505092915050565b6000612566838361253c565b9150826002028217905092915050565b61257f8261150d565b67ffffffffffffffff811115612598576125976115dd565b5b6125a28254611aa4565b6125ad8282856124e9565b600060209050601f8311600181146125e057600084156125ce578287015190505b6125d8858261255a565b865550612640565b601f1984166125ee866123d4565b60005b82811015612616578489015182556001820191506020850194506020810190506125f1565b86831015612633578489015161262f601f89168261253c565b8355505b6001600288020188555050505b50505050505056fea2646970667358221220e3d16182c9ef20c0ddf517d0a36d45373131cf3d0e0509d3e7e4c3eda45ec2ac64736f6c63430008180033a26469706673582212207e13a7a3203b4713105bd6b682dc21f26c5231faf0b1f4b76a8e9635882d92ba64736f6c63430008180033",
  "linkReferences": {},
  "deployedLinkReferences": {}
}