{
  "_format": "hh-sol-artifact-1",
  "contractName": "VestingWalletUpgradeable",
  "sourceName": "@openzeppelin/contracts-upgradeable/finance/VestingWalletUpgradeable.sol",
  "abi": [
    {
      "anonymous": false,
      "inputs": [
        {
          "indexed": true,
          "internalType": "address",
          "name": "token",
          "type": "address"
        },
        {
          "indexed": false,
          "internalType": "uint256",
          "name": "amount",
          "type": "uint256"
        }
      ],
      "name": "ERC20Released",
      "type": "event"
    },
    {
      "anonymous": false,
      "inputs": [
        {
          "indexed": false,
          "internalType": "uint256",
          "name": "amount",
          "type": "uint256"
        }
      ],
      "name": "EtherReleased",
      "type": "event"
    },
    {
      "anonymous": false,
      "inputs": [
        {
          "indexed": false,
          "internalType": "uint8",
          "name": "version",
          "type": "uint8"
        }
      ],
      "name": "Initialized",
      "type": "event"
    },
    {
      "inputs": [],
      "name": "beneficiary",
      "outputs": [
        {
          "internalType": "address",
          "name": "",
          "type": "address"
        }
      ],
      "stateMutability": "view",
      "type": "function"
    },
    {
      "inputs": [],
      "name": "duration",
      "outputs": [
        {
          "internalType": "uint256",
          "name": "",
          "type": "uint256"
        }
      ],
      "stateMutability": "view",
      "type": "function"
    },
    {
      "inputs": [
        {
          "internalType": "address",
          "name": "token",
          "type": "address"
        }
      ],
      "name": "releasable",
      "outputs": [
        {
          "internalType": "uint256",
          "name": "",
          "type": "uint256"
        }
      ],
      "stateMutability": "view",
      "type": "function"
    },
    {
      "inputs": [],
      "name": "releasable",
      "outputs": [
        {
          "internalType": "uint256",
          "name": "",
          "type": "uint256"
        }
      ],
      "stateMutability": "view",
      "type": "function"
    },
    {
      "inputs": [
        {
          "internalType": "address",
          "name": "token",
          "type": "address"
        }
      ],
      "name": "release",
      "outputs": [],
      "stateMutability": "nonpayable",
      "type": "function"
    },
    {
      "inputs": [],
      "name": "release",
      "outputs": [],
      "stateMutability": "nonpayable",
      "type": "function"
    },
    {
      "inputs": [],
      "name": "released",
      "outputs": [
        {
          "internalType": "uint256",
          "name": "",
          "type": "uint256"
        }
      ],
      "stateMutability": "view",
      "type": "function"
    },
    {
      "inputs": [
        {
          "internalType": "address",
          "name": "token",
          "type": "address"
        }
      ],
      "name": "released",
      "outputs": [
        {
          "internalType": "uint256",
          "name": "",
          "type": "uint256"
        }
      ],
      "stateMutability": "view",
      "type": "function"
    },
    {
      "inputs": [],
      "name": "start",
      "outputs": [
        {
          "internalType": "uint256",
          "name": "",
          "type": "uint256"
        }
      ],
      "stateMutability": "view",
      "type": "function"
    },
    {
      "inputs": [
        {
          "internalType": "uint64",
          "name": "timestamp",
          "type": "uint64"
        }
      ],
      "name": "vestedAmount",
      "outputs": [
        {
          "internalType": "uint256",
          "name": "",
          "type": "uint256"
        }
      ],
      "stateMutability": "view",
      "type": "function"
    },
    {
      "inputs": [
        {
          "internalType": "address",
          "name": "token",
          "type": "address"
        },
        {
          "internalType": "uint64",
          "name": "timestamp",
          "type": "uint64"
        }
      ],
      "name": "vestedAmount",
      "outputs": [
        {
          "internalType": "uint256",
          "name": "",
          "type": "uint256"
        }
      ],
      "stateMutability": "view",
      "type": "function"
    },
    {
      "stateMutability": "payable",
      "type": "receive"
    }
  ],
  "bytecode": "0x608060405234801561001057600080fd5b5061123b806100206000396000f3fe6080604052600436106100a05760003560e01c806386d1a69f1161006457806386d1a69f146101a557806396132521146101bc5780639852595c146101e7578063a3f8eace14610224578063be9a655514610261578063fbccedae1461028c576100a7565b80630a17b06b146100ac5780630fb5a6b4146100e9578063191655871461011457806338af3eed1461013d578063810ec23b14610168576100a7565b366100a757005b600080fd5b3480156100b857600080fd5b506100d360048036038101906100ce9190610ab6565b6102b7565b6040516100e09190610afc565b60405180910390f35b3480156100f557600080fd5b506100fe6102dc565b60405161010b9190610afc565b60405180910390f35b34801561012057600080fd5b5061013b60048036038101906101369190610b75565b610304565b005b34801561014957600080fd5b506101526103cb565b60405161015f9190610bb1565b60405180910390f35b34801561017457600080fd5b5061018f600480360381019061018a9190610bcc565b6103f5565b60405161019c9190610afc565b60405180910390f35b3480156101b157600080fd5b506101ba610495565b005b3480156101c857600080fd5b506101d1610505565b6040516101de9190610afc565b60405180910390f35b3480156101f357600080fd5b5061020e60048036038101906102099190610b75565b61050f565b60405161021b9190610afc565b60405180910390f35b34801561023057600080fd5b5061024b60048036038101906102469190610b75565b610558565b6040516102589190610afc565b60405180910390f35b34801561026d57600080fd5b5061027661057e565b6040516102839190610afc565b60405180910390f35b34801561029857600080fd5b506102a16105a6565b6040516102ae9190610afc565b60405180910390f35b60006102d56102c4610505565b476102cf9190610c3b565b836105c8565b9050919050565b6000603660009054906101000a900467ffffffffffffffff1667ffffffffffffffff16905090565b600061030f82610558565b905080603460008473ffffffffffffffffffffffffffffffffffffffff1673ffffffffffffffffffffffffffffffffffffffff16815260200190815260200160002060008282546103609190610c3b565b925050819055508173ffffffffffffffffffffffffffffffffffffffff167fc0e523490dd523c33b1878c9eb14ff46991e3f5b2cd33710918618f2a39cba1b826040516103ad9190610afc565b60405180910390a26103c7826103c16103cb565b83610662565b5050565b6000603560009054906101000a900473ffffffffffffffffffffffffffffffffffffffff16905090565b600061048d6104038461050f565b8473ffffffffffffffffffffffffffffffffffffffff166370a08231306040518263ffffffff1660e01b815260040161043c9190610bb1565b602060405180830381865afa158015610459573d6000803e3d6000fd5b505050506040513d601f19601f8201168201806040525081019061047d9190610c9b565b6104879190610c3b565b836105c8565b905092915050565b600061049f6105a6565b905080603360008282546104b39190610c3b565b925050819055507fda9d4e5f101b8b9b1c5b76d0c5a9f7923571acfc02376aa076b75a8c080c956b816040516104e99190610afc565b60405180910390a16105026104fc6103cb565b826106e8565b50565b6000603354905090565b6000603460008373ffffffffffffffffffffffffffffffffffffffff1673ffffffffffffffffffffffffffffffffffffffff168152602001908152602001600020549050919050565b60006105638261050f565b61056d83426103f5565b6105779190610cc8565b9050919050565b6000603560149054906101000a900467ffffffffffffffff1667ffffffffffffffff16905090565b60006105b0610505565b6105b9426102b7565b6105c39190610cc8565b905090565b60006105d261057e565b8267ffffffffffffffff1610156105ec576000905061065c565b6105f46102dc565b6105fc61057e565b6106069190610c3b565b8267ffffffffffffffff16111561061f5782905061065c565b6106276102dc565b61062f61057e565b8367ffffffffffffffff166106449190610cc8565b8461064f9190610cfc565b6106599190610d6d565b90505b92915050565b6106e38363a9059cbb60e01b8484604051602401610681929190610d9e565b604051602081830303815290604052907bffffffffffffffffffffffffffffffffffffffffffffffffffffffff19166020820180517bffffffffffffffffffffffffffffffffffffffffffffffffffffffff83818316178352505050506107dc565b505050565b8047101561072b576040517f08c379a000000000000000000000000000000000000000000000000000000000815260040161072290610e24565b60405180910390fd5b60008273ffffffffffffffffffffffffffffffffffffffff168260405161075190610e75565b60006040518083038185875af1925050503d806000811461078e576040519150601f19603f3d011682016040523d82523d6000602084013e610793565b606091505b50509050806107d7576040517f08c379a00000000000000000000000000000000000000000000000000000000081526004016107ce90610efc565b60405180910390fd5b505050565b600061083e826040518060400160405280602081526020017f5361666545524332303a206c6f772d6c6576656c2063616c6c206661696c65648152508573ffffffffffffffffffffffffffffffffffffffff166108a49092919063ffffffff16565b905060008151148061086057508080602001905181019061085f9190610f54565b5b61089f576040517f08c379a000000000000000000000000000000000000000000000000000000000815260040161089690610ff3565b60405180910390fd5b505050565b60606108b384846000856108bc565b90509392505050565b606082471015610901576040517f08c379a00000000000000000000000000000000000000000000000000000000081526004016108f890611085565b60405180910390fd5b6000808673ffffffffffffffffffffffffffffffffffffffff16858760405161092a919061110b565b60006040518083038185875af1925050503d8060008114610967576040519150601f19603f3d011682016040523d82523d6000602084013e61096c565b606091505b509150915061097d87838387610989565b92505050949350505050565b606083156109eb5760008351036109e3576109a3856109fe565b6109e2576040517f08c379a00000000000000000000000000000000000000000000000000000000081526004016109d99061116e565b60405180910390fd5b5b8290506109f6565b6109f58383610a21565b5b949350505050565b6000808273ffffffffffffffffffffffffffffffffffffffff163b119050919050565b600082511115610a345781518083602001fd5b806040517f08c379a0000000000000000000000000000000000000000000000000000000008152600401610a6891906111e3565b60405180910390fd5b600080fd5b600067ffffffffffffffff82169050919050565b610a9381610a76565b8114610a9e57600080fd5b50565b600081359050610ab081610a8a565b92915050565b600060208284031215610acc57610acb610a71565b5b6000610ada84828501610aa1565b91505092915050565b6000819050919050565b610af681610ae3565b82525050565b6000602082019050610b116000830184610aed565b92915050565b600073ffffffffffffffffffffffffffffffffffffffff82169050919050565b6000610b4282610b17565b9050919050565b610b5281610b37565b8114610b5d57600080fd5b50565b600081359050610b6f81610b49565b92915050565b600060208284031215610b8b57610b8a610a71565b5b6000610b9984828501610b60565b91505092915050565b610bab81610b37565b82525050565b6000602082019050610bc66000830184610ba2565b92915050565b60008060408385031215610be357610be2610a71565b5b6000610bf185828601610b60565b9250506020610c0285828601610aa1565b9150509250929050565b7f4e487b7100000000000000000000000000000000000000000000000000000000600052601160045260246000fd5b6000610c4682610ae3565b9150610c5183610ae3565b9250828201905080821115610c6957610c68610c0c565b5b92915050565b610c7881610ae3565b8114610c8357600080fd5b50565b600081519050610c9581610c6f565b92915050565b600060208284031215610cb157610cb0610a71565b5b6000610cbf84828501610c86565b91505092915050565b6000610cd382610ae3565b9150610cde83610ae3565b9250828203905081811115610cf657610cf5610c0c565b5b92915050565b6000610d0782610ae3565b9150610d1283610ae3565b9250828202610d2081610ae3565b91508282048414831517610d3757610d36610c0c565b5b5092915050565b7f4e487b7100000000000000000000000000000000000000000000000000000000600052601260045260246000fd5b6000610d7882610ae3565b9150610d8383610ae3565b925082610d9357610d92610d3e565b5b828204905092915050565b6000604082019050610db36000830185610ba2565b610dc06020830184610aed565b9392505050565b600082825260208201905092915050565b7f416464726573733a20696e73756666696369656e742062616c616e6365000000600082015250565b6000610e0e601d83610dc7565b9150610e1982610dd8565b602082019050919050565b60006020820190508181036000830152610e3d81610e01565b9050919050565b600081905092915050565b50565b6000610e5f600083610e44565b9150610e6a82610e4f565b600082019050919050565b6000610e8082610e52565b9150819050919050565b7f416464726573733a20756e61626c6520746f2073656e642076616c75652c207260008201527f6563697069656e74206d61792068617665207265766572746564000000000000602082015250565b6000610ee6603a83610dc7565b9150610ef182610e8a565b604082019050919050565b60006020820190508181036000830152610f1581610ed9565b9050919050565b60008115159050919050565b610f3181610f1c565b8114610f3c57600080fd5b50565b600081519050610f4e81610f28565b92915050565b600060208284031215610f6a57610f69610a71565b5b6000610f7884828501610f3f565b91505092915050565b7f5361666545524332303a204552433230206f7065726174696f6e20646964206e60008201527f6f74207375636365656400000000000000000000000000000000000000000000602082015250565b6000610fdd602a83610dc7565b9150610fe882610f81565b604082019050919050565b6000602082019050818103600083015261100c81610fd0565b9050919050565b7f416464726573733a20696e73756666696369656e742062616c616e636520666f60008201527f722063616c6c0000000000000000000000000000000000000000000000000000602082015250565b600061106f602683610dc7565b915061107a82611013565b604082019050919050565b6000602082019050818103600083015261109e81611062565b9050919050565b600081519050919050565b60005b838110156110ce5780820151818401526020810190506110b3565b60008484015250505050565b60006110e5826110a5565b6110ef8185610e44565b93506110ff8185602086016110b0565b80840191505092915050565b600061111782846110da565b915081905092915050565b7f416464726573733a2063616c6c20746f206e6f6e2d636f6e7472616374000000600082015250565b6000611158601d83610dc7565b915061116382611122565b602082019050919050565b600060208201905081810360008301526111878161114b565b9050919050565b600081519050919050565b6000601f19601f8301169050919050565b60006111b58261118e565b6111bf8185610dc7565b93506111cf8185602086016110b0565b6111d881611199565b840191505092915050565b600060208201905081810360008301526111fd81846111aa565b90509291505056fea26469706673582212205178839c371745fa591509f0a4afa76f23cb7fe321e619d4913897b34b9594a764736f6c63430008180033",
  "linkReferences": {},
  "deployedLinkReferences": {}
}