{
  "_format": "hh-sol-artifact-1",
  "contractName": "ClaimerGMPV2",
  "sourceName": "contracts/claimerGMPV2.sol",
  "abi": [
    {
      "anonymous": false,
      "inputs": [
        {
          "indexed": false,
          "internalType": "uint8",
          "name": "version",
          "type": "uint8"
        }
      ],
      "name": "Initialized",
      "type": "event"
    },
    {
      "anonymous": false,
      "inputs": [
        {
          "indexed": true,
          "internalType": "bytes32",
          "name": "role",
          "type": "bytes32"
        },
        {
          "indexed": true,
          "internalType": "bytes32",
          "name": "previousAdminRole",
          "type": "bytes32"
        },
        {
          "indexed": true,
          "internalType": "bytes32",
          "name": "newAdminRole",
          "type": "bytes32"
        }
      ],
      "name": "RoleAdminChanged",
      "type": "event"
    },
    {
      "anonymous": false,
      "inputs": [
        {
          "indexed": true,
          "internalType": "bytes32",
          "name": "role",
          "type": "bytes32"
        },
        {
          "indexed": true,
          "internalType": "address",
          "name": "account",
          "type": "address"
        },
        {
          "indexed": true,
          "internalType": "address",
          "name": "sender",
          "type": "address"
        }
      ],
      "name": "RoleGranted",
      "type": "event"
    },
    {
      "anonymous": false,
      "inputs": [
        {
          "indexed": true,
          "internalType": "bytes32",
          "name": "role",
          "type": "bytes32"
        },
        {
          "indexed": true,
          "internalType": "address",
          "name": "account",
          "type": "address"
        },
        {
          "indexed": true,
          "internalType": "address",
          "name": "sender",
          "type": "address"
        }
      ],
      "name": "RoleRevoked",
      "type": "event"
    },
    {
      "inputs": [],
      "name": "DEFAULT_ADMIN_ROLE",
      "outputs": [
        {
          "internalType": "bytes32",
          "name": "",
          "type": "bytes32"
        }
      ],
      "stateMutability": "view",
      "type": "function"
    },
    {
      "inputs": [],
      "name": "attesters",
      "outputs": [
        {
          "internalType": "contract AttestationsVerifierProofs",
          "name": "",
          "type": "address"
        }
      ],
      "stateMutability": "view",
      "type": "function"
    },
    {
      "inputs": [
        {
          "components": [
            {
              "internalType": "bytes32",
              "name": "id",
              "type": "bytes32"
            },
            {
              "internalType": "address",
              "name": "rewardAsset",
              "type": "address"
            },
            {
              "internalType": "uint256",
              "name": "maxReward",
              "type": "uint256"
            },
            {
              "internalType": "uint256",
              "name": "settledAmount",
              "type": "uint256"
            },
            {
              "internalType": "uint256",
              "name": "orderTimestamp",
              "type": "uint256"
            }
          ],
          "internalType": "struct RemoteOrder.Payout[]",
          "name": "payouts",
          "type": "tuple[]"
        },
        {
          "internalType": "bytes32",
          "name": "_batchPayloadHash",
          "type": "bytes32"
        },
        {
          "internalType": "bytes",
          "name": "_batchPayload",
          "type": "bytes"
        }
      ],
      "name": "checkClaimPayoutBatch",
      "outputs": [
        {
          "internalType": "address[]",
          "name": "",
          "type": "address[]"
        },
        {
          "internalType": "uint256[]",
          "name": "",
          "type": "uint256[]"
        },
        {
          "internalType": "uint256",
          "name": "",
          "type": "uint256"
        }
      ],
      "stateMutability": "payable",
      "type": "function"
    },
    {
      "inputs": [
        {
          "internalType": "bytes32",
          "name": "orderId",
          "type": "bytes32"
        },
        {
          "internalType": "address",
          "name": "rewardAsset",
          "type": "address"
        },
        {
          "internalType": "uint256",
          "name": "maxReward",
          "type": "uint256"
        },
        {
          "internalType": "uint256",
          "name": "settledAmount",
          "type": "uint256"
        },
        {
          "internalType": "address",
          "name": "beneficiary",
          "type": "address"
        },
        {
          "internalType": "uint256",
          "name": "orderTimestamp",
          "type": "uint256"
        },
        {
          "internalType": "bytes32",
          "name": "_batchPayloadHash",
          "type": "bytes32"
        },
        {
          "internalType": "bytes",
          "name": "_batchPayload",
          "type": "bytes"
        }
      ],
      "name": "checkIsClaimable",
      "outputs": [
        {
          "internalType": "bool",
          "name": "",
          "type": "bool"
        }
      ],
      "stateMutability": "view",
      "type": "function"
    },
    {
      "inputs": [
        {
          "internalType": "bytes32",
          "name": "orderId",
          "type": "bytes32"
        },
        {
          "internalType": "address",
          "name": "rewardAsset",
          "type": "address"
        },
        {
          "internalType": "uint256",
          "name": "maxReward",
          "type": "uint256"
        },
        {
          "internalType": "uint256",
          "name": "settledAmount",
          "type": "uint256"
        },
        {
          "internalType": "address",
          "name": "beneficiary",
          "type": "address"
        },
        {
          "internalType": "uint256",
          "name": "orderTimestamp",
          "type": "uint256"
        }
      ],
      "name": "checkIsClaimableWithEscrow",
      "outputs": [
        {
          "internalType": "bool",
          "name": "",
          "type": "bool"
        }
      ],
      "stateMutability": "view",
      "type": "function"
    },
    {
      "inputs": [
        {
          "internalType": "bytes32",
          "name": "orderId",
          "type": "bytes32"
        },
        {
          "internalType": "uint256",
          "name": "orderTimestamp",
          "type": "uint256"
        },
        {
          "internalType": "uint256",
          "name": "orderTimeout",
          "type": "uint256"
        },
        {
          "internalType": "address",
          "name": "rewardAsset",
          "type": "address"
        },
        {
          "internalType": "uint256",
          "name": "maxReward",
          "type": "uint256"
        },
        {
          "internalType": "address",
          "name": "beneficiary",
          "type": "address"
        },
        {
          "internalType": "bytes32",
          "name": "_batchPayloadHash",
          "type": "bytes32"
        },
        {
          "internalType": "bytes",
          "name": "_batchPayload",
          "type": "bytes"
        }
      ],
      "name": "checkIsRefundable",
      "outputs": [
        {
          "internalType": "bool",
          "name": "",
          "type": "bool"
        }
      ],
      "stateMutability": "view",
      "type": "function"
    },
    {
      "inputs": [
        {
          "internalType": "bytes32",
          "name": "orderId",
          "type": "bytes32"
        },
        {
          "internalType": "uint256",
          "name": "orderTimestamp",
          "type": "uint256"
        },
        {
          "internalType": "uint256",
          "name": "orderTimeout",
          "type": "uint256"
        },
        {
          "internalType": "address",
          "name": "rewardAsset",
          "type": "address"
        },
        {
          "internalType": "uint256",
          "name": "maxReward",
          "type": "uint256"
        },
        {
          "internalType": "address",
          "name": "beneficiary",
          "type": "address"
        }
      ],
      "name": "checkIsRefundableWithEscrow",
      "outputs": [
        {
          "internalType": "bool",
          "name": "",
          "type": "bool"
        }
      ],
      "stateMutability": "view",
      "type": "function"
    },
    {
      "inputs": [],
      "name": "disableInitializers",
      "outputs": [],
      "stateMutability": "nonpayable",
      "type": "function"
    },
    {
      "inputs": [],
      "name": "escrowGMP",
      "outputs": [
        {
          "internalType": "contract EscrowGMP",
          "name": "",
          "type": "address"
        }
      ],
      "stateMutability": "view",
      "type": "function"
    },
    {
      "inputs": [],
      "name": "forceCheckV2",
      "outputs": [
        {
          "internalType": "bool",
          "name": "",
          "type": "bool"
        }
      ],
      "stateMutability": "view",
      "type": "function"
    },
    {
      "inputs": [
        {
          "internalType": "address",
          "name": "requester",
          "type": "address"
        },
        {
          "internalType": "uint32",
          "name": "nonce",
          "type": "uint32"
        }
      ],
      "name": "generateId",
      "outputs": [
        {
          "internalType": "bytes32",
          "name": "",
          "type": "bytes32"
        }
      ],
      "stateMutability": "pure",
      "type": "function"
    },
    {
      "inputs": [
        {
          "internalType": "bytes32",
          "name": "role",
          "type": "bytes32"
        }
      ],
      "name": "getRoleAdmin",
      "outputs": [
        {
          "internalType": "bytes32",
          "name": "",
          "type": "bytes32"
        }
      ],
      "stateMutability": "view",
      "type": "function"
    },
    {
      "inputs": [
        {
          "internalType": "bytes32",
          "name": "role",
          "type": "bytes32"
        },
        {
          "internalType": "address",
          "name": "account",
          "type": "address"
        }
      ],
      "name": "grantRole",
      "outputs": [],
      "stateMutability": "nonpayable",
      "type": "function"
    },
    {
      "inputs": [
        {
          "internalType": "bytes32",
          "name": "role",
          "type": "bytes32"
        },
        {
          "internalType": "address",
          "name": "account",
          "type": "address"
        }
      ],
      "name": "hasRole",
      "outputs": [
        {
          "internalType": "bool",
          "name": "",
          "type": "bool"
        }
      ],
      "stateMutability": "view",
      "type": "function"
    },
    {
      "inputs": [
        {
          "internalType": "address",
          "name": "_owner",
          "type": "address"
        }
      ],
      "name": "initialize",
      "outputs": [],
      "stateMutability": "nonpayable",
      "type": "function"
    },
    {
      "inputs": [
        {
          "internalType": "bytes32",
          "name": "_batchPayloadHash",
          "type": "bytes32"
        },
        {
          "internalType": "bytes",
          "name": "_batchPayload",
          "type": "bytes"
        },
        {
          "internalType": "bytes32",
          "name": "_id",
          "type": "bytes32"
        },
        {
          "internalType": "address",
          "name": "_beneficiary",
          "type": "address"
        },
        {
          "internalType": "uint256",
          "name": "_settledAmount",
          "type": "uint256"
        },
        {
          "internalType": "uint8",
          "name": "actionType",
          "type": "uint8"
        }
      ],
      "name": "isClaimable",
      "outputs": [
        {
          "internalType": "bool",
          "name": "",
          "type": "bool"
        }
      ],
      "stateMutability": "view",
      "type": "function"
    },
    {
      "inputs": [
        {
          "internalType": "bytes32",
          "name": "_batchPayloadHash",
          "type": "bytes32"
        },
        {
          "internalType": "bytes",
          "name": "_batchPayload",
          "type": "bytes"
        },
        {
          "internalType": "bytes32",
          "name": "_id",
          "type": "bytes32"
        },
        {
          "internalType": "address",
          "name": "_beneficiary",
          "type": "address"
        },
        {
          "internalType": "uint256",
          "name": "_settledAmount",
          "type": "uint256"
        },
        {
          "internalType": "uint8",
          "name": "actionType",
          "type": "uint8"
        }
      ],
      "name": "isClaimableNoPayloadStored",
      "outputs": [
        {
          "internalType": "bool",
          "name": "",
          "type": "bool"
        }
      ],
      "stateMutability": "view",
      "type": "function"
    },
    {
      "inputs": [
        {
          "internalType": "bytes32",
          "name": "role",
          "type": "bytes32"
        },
        {
          "internalType": "address",
          "name": "account",
          "type": "address"
        }
      ],
      "name": "renounceRole",
      "outputs": [],
      "stateMutability": "nonpayable",
      "type": "function"
    },
    {
      "inputs": [
        {
          "internalType": "bytes32",
          "name": "role",
          "type": "bytes32"
        },
        {
          "internalType": "address",
          "name": "account",
          "type": "address"
        }
      ],
      "name": "revokeRole",
      "outputs": [],
      "stateMutability": "nonpayable",
      "type": "function"
    },
    {
      "inputs": [
        {
          "internalType": "address",
          "name": "_attesters",
          "type": "address"
        }
      ],
      "name": "setAttester",
      "outputs": [],
      "stateMutability": "nonpayable",
      "type": "function"
    },
    {
      "inputs": [
        {
          "internalType": "contract EscrowGMP",
          "name": "_escrowGMP",
          "type": "address"
        }
      ],
      "name": "setEscrowGMP",
      "outputs": [],
      "stateMutability": "nonpayable",
      "type": "function"
    },
    {
      "inputs": [
        {
          "internalType": "bool",
          "name": "_forceCheckV2",
          "type": "bool"
        }
      ],
      "name": "setForceCheckV2",
      "outputs": [],
      "stateMutability": "nonpayable",
      "type": "function"
    },
    {
      "inputs": [
        {
          "internalType": "bytes32",
          "name": "_version",
          "type": "bytes32"
        }
      ],
      "name": "setVersion",
      "outputs": [],
      "stateMutability": "nonpayable",
      "type": "function"
    },
    {
      "inputs": [
        {
          "internalType": "bytes4",
          "name": "interfaceId",
          "type": "bytes4"
        }
      ],
      "name": "supportsInterface",
      "outputs": [
        {
          "internalType": "bool",
          "name": "",
          "type": "bool"
        }
      ],
      "stateMutability": "view",
      "type": "function"
    },
    {
      "inputs": [
        {
          "internalType": "bytes",
          "name": "payload",
          "type": "bytes"
        },
        {
          "internalType": "bytes32",
          "name": "_id",
          "type": "bytes32"
        },
        {
          "internalType": "address",
          "name": "_beneficiary",
          "type": "address"
        },
        {
          "internalType": "uint256",
          "name": "_settledAmount",
          "type": "uint256"
        },
        {
          "internalType": "uint8",
          "name": "_actionType",
          "type": "uint8"
        }
      ],
      "name": "verifyGMPPayloadInclusion",
      "outputs": [
        {
          "internalType": "bool",
          "name": "",
          "type": "bool"
        }
      ],
      "stateMutability": "pure",
      "type": "function"
    },
    {
      "inputs": [],
      "name": "version",
      "outputs": [
        {
          "internalType": "bytes32",
          "name": "",
          "type": "bytes32"
        }
      ],
      "stateMutability": "view",
      "type": "function"
    }
  ],
  "bytecode": "0x608060405234801561001057600080fd5b50614c9c806100206000396000f3fe6080604052600436106101805760003560e01c80639751d908116100d1578063c8a63d711161008a578063d547741f11610064578063d547741f146105be578063e9148ffb146105e7578063e96e743114610624578063ef56a3b21461064f57610180565b8063c8a63d711461052f578063ca5f81b514610558578063d3edc5291461058157610180565b80639751d908146104065780639daf85ab14610438578063a217fddf14610461578063a949ca151461048c578063c4d66de8146104c9578063c6b4fc81146104f257610180565b806336568abe1161013e57806373b3e5041161011857806373b3e504146103125780638ade88211461034f57806390f2ca321461038c57806391d14854146103c957610180565b806336568abe1461029357806354fd4d50146102bc57806358951493146102e757610180565b8062cfe24f1461018557806301ffc9a7146101b0578063248a9ca3146101ed5780632f2ff15d1461022a57806331f44900146102535780633562c20b1461026a575b600080fd5b34801561019157600080fd5b5061019a61068c565b6040516101a79190612cc9565b60405180910390f35b3480156101bc57600080fd5b506101d760048036038101906101d29190612d50565b6106b2565b6040516101e49190612d98565b60405180910390f35b3480156101f957600080fd5b50610214600480360381019061020f9190612de9565b61072c565b6040516102219190612e25565b60405180910390f35b34801561023657600080fd5b50610251600480360381019061024c9190612e7e565b61074c565b005b34801561025f57600080fd5b5061026861076d565b005b34801561027657600080fd5b50610291600480360381019061028c9190612efc565b6107c3565b005b34801561029f57600080fd5b506102ba60048036038101906102b59190612e7e565b610853565b005b3480156102c857600080fd5b506102d16108d6565b6040516102de9190612e25565b60405180910390f35b3480156102f357600080fd5b506102fc6108dc565b6040516103099190612d98565b60405180910390f35b34801561031e57600080fd5b5061033960048036038101906103349190612f65565b6108ef565b6040516103469190612e25565b60405180910390f35b34801561035b57600080fd5b5061037660048036038101906103719190613121565b61094d565b6040516103839190612d98565b60405180910390f35b34801561039857600080fd5b506103b360048036038101906103ae919061322c565b610d6a565b6040516103c09190612d98565b60405180910390f35b3480156103d557600080fd5b506103f060048036038101906103eb9190612e7e565b611270565b6040516103fd9190612d98565b60405180910390f35b610420600480360381019061041b9190613433565b6112db565b60405161042f93929190613649565b60405180910390f35b34801561044457600080fd5b5061045f600480360381019061045a919061368e565b611865565b005b34801561046d57600080fd5b506104766118f5565b6040516104839190612e25565b60405180910390f35b34801561049857600080fd5b506104b360048036038101906104ae91906136bb565b6118fc565b6040516104c09190612d98565b60405180910390f35b3480156104d557600080fd5b506104f060048036038101906104eb919061368e565b6119f4565b005b3480156104fe57600080fd5b50610519600480360381019061051491906137e8565b611bca565b6040516105269190612d98565b60405180910390f35b34801561053b57600080fd5b50610556600480360381019061055191906138ae565b611e91565b005b34801561056457600080fd5b5061057f600480360381019061057a9190612de9565b611efa565b005b34801561058d57600080fd5b506105a860048036038101906105a391906138db565b611f50565b6040516105b59190612d98565b60405180910390f35b3480156105ca57600080fd5b506105e560048036038101906105e09190612e7e565b61204f565b005b3480156105f357600080fd5b5061060e60048036038101906106099190613968565b612070565b60405161061b9190612d98565b60405180910390f35b34801561063057600080fd5b5061063961218e565b6040516106469190613a16565b60405180910390f35b34801561065b57600080fd5b506106766004803603810190610671919061322c565b6121b4565b6040516106839190612d98565b60405180910390f35b609760009054906101000a900473ffffffffffffffffffffffffffffffffffffffff1681565b60007f7965db0b000000000000000000000000000000000000000000000000000000007bffffffffffffffffffffffffffffffffffffffffffffffffffffffff1916827bffffffffffffffffffffffffffffffffffffffffffffffffffffffff191614806107255750610724826125df565b5b9050919050565b600060656000838152602001908152602001600020600101549050919050565b6107558261072c565b61075e81612649565b610768838361265d565b505050565b61077a6000801b33611270565b6107b9576040517f08c379a00000000000000000000000000000000000000000000000000000000081526004016107b090613ab4565b60405180910390fd5b6107c161273e565b565b6107d06000801b33611270565b61080f576040517f08c379a000000000000000000000000000000000000000000000000000000000815260040161080690613ab4565b60405180910390fd5b80609860006101000a81548173ffffffffffffffffffffffffffffffffffffffff021916908373ffffffffffffffffffffffffffffffffffffffff16021790555050565b61085b6127fe565b73ffffffffffffffffffffffffffffffffffffffff168173ffffffffffffffffffffffffffffffffffffffff16146108c8576040517f08c379a00000000000000000000000000000000000000000000000000000000081526004016108bf90613b46565b60405180910390fd5b6108d28282612806565b5050565b60995481565b609a60009054906101000a900460ff1681565b60008282604051602001610904929190613b84565b604051602081830303815290604052805190602001206000801b60405160200161092f929190613bad565b60405160208183030381529060405280519060200120905092915050565b60008073ffffffffffffffffffffffffffffffffffffffff16609860009054906101000a900473ffffffffffffffffffffffffffffffffffffffff1673ffffffffffffffffffffffffffffffffffffffff16036109e65760006109e5576040517f08c379a00000000000000000000000000000000000000000000000000000000081526004016109dc90613c22565b60405180910390fd5b5b6000609860009054906101000a900473ffffffffffffffffffffffffffffffffffffffff1673ffffffffffffffffffffffffffffffffffffffff1663cb9871d98b6040518263ffffffff1660e01b8152600401610a439190612e25565b602060405180830381865afa158015610a60573d6000803e3d6000fd5b505050506040513d601f19601f82011682018060405250810190610a849190613c57565b90506000801b811480610a9a5750600160001b81145b80610aa85750600260001b81145b15610ab7576000915050610d5e565b6000898987604051602001610ace93929190613c84565b60405160208183030381529060405280519060200120905060008188604051602001610afb929190613cbb565b6040516020818303038152906040528051906020012090506000891115610b4a5781888a604051602001610b3193929190613ce4565b6040516020818303038152906040528051906020012090505b82811480610b7f5750828189604051602001610b67929190613cbb565b60405160208183030381529060405280519060200120145b80610bd95750828189604051602001610b99929190613cbb565b6040516020818303038152906040528051906020012089604051602001610bc1929190613cbb565b60405160208183030381529060405280519060200120145b80610c5b5750828189604051602001610bf3929190613cbb565b6040516020818303038152906040528051906020012089604051602001610c1b929190613cbb565b6040516020818303038152906040528051906020012089604051602001610c43929190613cbb565b60405160208183030381529060405280519060200120145b15610c6c5760019350505050610d5e565b609760009054906101000a900473ffffffffffffffffffffffffffffffffffffffff1673ffffffffffffffffffffffffffffffffffffffff16634c13eff06040518163ffffffff1660e01b8152600401602060405180830381865afa158015610cd9573d6000803e3d6000fd5b505050506040513d601f19601f82011682018060405250810190610cfd9190613d30565b80610d145750609a60009054906101000a900460ff165b15610d56578183141580610d2a57506000801b83145b15610d3b5760009350505050610d5e565b6000610d4b87878f8c8e86610d6a565b945050505050610d5e565b600093505050505b98975050505050505050565b60008073ffffffffffffffffffffffffffffffffffffffff16609760009054906101000a900473ffffffffffffffffffffffffffffffffffffffff1673ffffffffffffffffffffffffffffffffffffffff1603610e03576000610e02576040517f08c379a0000000000000000000000000000000000000000000000000000000008152600401610df990613da9565b60405180910390fd5b5b609760009054906101000a900473ffffffffffffffffffffffffffffffffffffffff1673ffffffffffffffffffffffffffffffffffffffff1663b38aee73886040518263ffffffff1660e01b8152600401610e5e9190612e25565b602060405180830381865afa158015610e7b573d6000803e3d6000fd5b505050506040513d601f19601f82011682018060405250810190610e9f9190613d30565b610ede576040517f08c379a0000000000000000000000000000000000000000000000000000000008152600401610ed590613e15565b60405180910390fd5b6000865111610f22576040517f08c379a0000000000000000000000000000000000000000000000000000000008152600401610f1990613e81565b60405180910390fd5b86868051906020012014610f6b576040517f08c379a0000000000000000000000000000000000000000000000000000000008152600401610f6290613f13565b60405180910390fd5b600073ffffffffffffffffffffffffffffffffffffffff16609860009054906101000a900473ffffffffffffffffffffffffffffffffffffffff1673ffffffffffffffffffffffffffffffffffffffff1603611003576000611002576040517f08c379a0000000000000000000000000000000000000000000000000000000008152600401610ff990613c22565b60405180910390fd5b5b6000609860009054906101000a900473ffffffffffffffffffffffffffffffffffffffff1673ffffffffffffffffffffffffffffffffffffffff1663cb9871d9876040518263ffffffff1660e01b81526004016110609190612e25565b602060405180830381865afa15801561107d573d6000803e3d6000fd5b505050506040513d601f19601f820116820180604052508101906110a19190613c57565b90506000801b8114806110b75750600160001b81145b806110c55750600260001b81145b156110d4576000915050611266565b6000878060200190518101906110ea91906141c2565b90506000609760009054906101000a900473ffffffffffffffffffffffffffffffffffffffff1673ffffffffffffffffffffffffffffffffffffffff16630660bab9836040518263ffffffff1660e01b815260040161114991906143a6565b600060405180830381865afa158015611166573d6000803e3d6000fd5b505050506040513d6000823e3d601f19601f8201168201806040525081019061118f91906143c8565b8051906020012090508981146111da576040517f08c379a00000000000000000000000000000000000000000000000000000000081526004016111d190613f13565b60405180910390fd5b3073ffffffffffffffffffffffffffffffffffffffff1663c6b4fc818360a001518a8a8a8a6040518663ffffffff1660e01b815260040161121f95949392919061446a565b602060405180830381865afa15801561123c573d6000803e3d6000fd5b505050506040513d601f19601f820116820180604052508101906112609190613d30565b93505050505b9695505050505050565b60006065600084815260200190815260200160002060000160008373ffffffffffffffffffffffffffffffffffffffff1673ffffffffffffffffffffffffffffffffffffffff16815260200190815260200160002060009054906101000a900460ff16905092915050565b606080600080865167ffffffffffffffff8111156112fc576112fb612ff6565b5b60405190808252806020026020018201604052801561132a5781602001602082028036833780820191505090505b5090506000875167ffffffffffffffff81111561134a57611349612ff6565b5b6040519080825280602002602001820160405280156113785781602001602082028036833780820191505090505b5090506000805b895181101561184f5761142e8a828151811061139e5761139d6144c4565b5b6020026020010151600001518b83815181106113bd576113bc6144c4565b5b6020026020010151602001518c84815181106113dc576113db6144c4565b5b6020026020010151604001518d85815181106113fb576113fa6144c4565b5b602002602001015160600151338f878151811061141b5761141a6144c4565b5b6020026020010151608001518f8f61094d565b61146d576040517f08c379a00000000000000000000000000000000000000000000000000000000081526004016114649061453f565b60405180910390fd5b6000801b609860009054906101000a900473ffffffffffffffffffffffffffffffffffffffff1673ffffffffffffffffffffffffffffffffffffffff1663cb9871d98c84815181106114c2576114c16144c4565b5b6020026020010151600001516040518263ffffffff1660e01b81526004016114ea9190612e25565b602060405180830381865afa158015611507573d6000803e3d6000fd5b505050506040513d601f19601f8201168201806040525081019061152b9190613c57565b0361156b576040517f08c379a00000000000000000000000000000000000000000000000000000000081526004016115629061453f565b60405180910390fd5b609860009054906101000a900473ffffffffffffffffffffffffffffffffffffffff1673ffffffffffffffffffffffffffffffffffffffff1663a77715d08b83815181106115bc576115bb6144c4565b5b6020026020010151600001516040518263ffffffff1660e01b81526004016115e49190612e25565b600060405180830381600087803b1580156115fe57600080fd5b505af1158015611612573d6000803e3d6000fd5b505050506000805b83811015611739578b8381518110611635576116346144c4565b5b60200260200101516020015173ffffffffffffffffffffffffffffffffffffffff1686828151811061166a576116696144c4565b5b602002602001015173ffffffffffffffffffffffffffffffffffffffff160361172e5760008c84815181106116a2576116a16144c4565b5b602002602001015160600151116116d7578b83815181106116c6576116c56144c4565b5b6020026020010151604001516116f7565b8b83815181106116ea576116e96144c4565b5b6020026020010151606001515b85828151811061170a576117096144c4565b5b6020026020010181815161171e919061458e565b9150818152505060019150611739565b80600101905061161a565b5080611843578a8281518110611752576117516144c4565b5b602002602001015160200151858481518110611771576117706144c4565b5b602002602001019073ffffffffffffffffffffffffffffffffffffffff16908173ffffffffffffffffffffffffffffffffffffffff168152505060008b83815181106117c0576117bf6144c4565b5b602002602001015160600151116117f5578a82815181106117e4576117e36144c4565b5b602002602001015160400151611815565b8a8281518110611808576118076144c4565b5b6020026020010151606001515b848481518110611828576118276144c4565b5b602002602001018181525050828061183f906145c2565b9350505b5080600101905061137f565b5082828295509550955050505093509350939050565b6118726000801b33611270565b6118b1576040517f08c379a00000000000000000000000000000000000000000000000000000000081526004016118a890613ab4565b60405180910390fd5b80609760006101000a81548173ffffffffffffffffffffffffffffffffffffffff021916908373ffffffffffffffffffffffffffffffffffffffff16021790555050565b6000801b81565b600061190c898989898989611f50565b1561191a57600190506119e8565b609760009054906101000a900473ffffffffffffffffffffffffffffffffffffffff1673ffffffffffffffffffffffffffffffffffffffff16634c13eff06040518163ffffffff1660e01b8152600401602060405180830381865afa158015611987573d6000803e3d6000fd5b505050506040513d601f19601f820116820180604052508101906119ab9190613d30565b806119c25750609a60009054906101000a900460ff165b156119e3576000600190506119db84848c888a86610d6a565b9150506119e8565b600090505b98975050505050505050565b60008060019054906101000a900460ff16159050808015611a255750600160008054906101000a900460ff1660ff16105b80611a525750611a34306128e8565b158015611a515750600160008054906101000a900460ff1660ff16145b5b611a91576040517f08c379a0000000000000000000000000000000000000000000000000000000008152600401611a889061467c565b60405180910390fd5b60016000806101000a81548160ff021916908360ff1602179055508015611ace576001600060016101000a81548160ff0219169083151502179055505b600073ffffffffffffffffffffffffffffffffffffffff168273ffffffffffffffffffffffffffffffffffffffff1603611b3d576040517f08c379a0000000000000000000000000000000000000000000000000000000008152600401611b34906146e8565b60405180910390fd5b6001609a60006101000a81548160ff021916908315150217905550611b656000801b8361265d565b611b6d61290b565b8015611bc65760008060016101000a81548160ff0219169083151502179055507f7f26b83ff96e1f2b6a682f133852f6798a09c465da95921460cefb38474024986001604051611bbd9190614743565b60405180910390a15b5050565b600080600090505b87879050811015611e81576000888883818110611bf257611bf16144c4565b5b9050013560f81c60f81b60f81c9050600182611c0e919061458e565b915060008160ff1603611cee57600089898490602086611c2e919061458e565b92611c3b93929190614768565b90611c4691906147bb565b9050602083611c55919061458e565b925060008a8a8590601487611c6a919061458e565b92611c7793929190614768565b90611c829190614846565b60601c9050601484611c94919061458e565b93508882148015611cd057508773ffffffffffffffffffffffffffffffffffffffff168173ffffffffffffffffffffffffffffffffffffffff16145b15611ce75760008660ff1614945050505050611e87565b5050611e7b565b60018160ff1603611d5357600089898490602086611d0c919061458e565b92611d1993929190614768565b90611d2491906147bb565b9050602083611d33919061458e565b9250878103611d4d5760018560ff16149350505050611e87565b50611e7a565b60058160ff1603611e7957600089898490602086611d71919061458e565b92611d7e93929190614768565b90611d8991906147bb565b9050602083611d98919061458e565b925060008a8a8590601487611dad919061458e565b92611dba93929190614768565b90611dc59190614846565b60601c9050601484611dd7919061458e565b935060008b8b8690602088611dec919061458e565b92611df993929190614768565b90611e0491906147bb565b60001c90508983148015611e4357508873ffffffffffffffffffffffffffffffffffffffff168273ffffffffffffffffffffffffffffffffffffffff16145b8015611e4e57508781145b15611e665760058760ff161495505050505050611e87565b609485611e73919061458e565b94505050505b5b5b50611bd2565b60009150505b9695505050505050565b611e9e6000801b33611270565b611edd576040517f08c379a0000000000000000000000000000000000000000000000000000000008152600401611ed490613ab4565b60405180910390fd5b80609a60006101000a81548160ff02191690831515021790555050565b611f076000801b33611270565b611f46576040517f08c379a0000000000000000000000000000000000000000000000000000000008152600401611f3d90613ab4565b60405180910390fd5b8060998190555050565b60008486611f5e919061458e565b421015611f6e5760009050612045565b6000848488604051602001611f8593929190613c84565b6040516020818303038152906040528051906020012090506000609860009054906101000a900473ffffffffffffffffffffffffffffffffffffffff1673ffffffffffffffffffffffffffffffffffffffff1663cb9871d98a6040518263ffffffff1660e01b8152600401611ffa9190612e25565b602060405180830381865afa158015612017573d6000803e3d6000fd5b505050506040513d601f19601f8201168201806040525081019061203b9190613c57565b9050818114925050505b9695505050505050565b6120588261072c565b61206181612649565b61206b8383612806565b505050565b60008086868460405160200161208893929190613c84565b604051602081830303815290604052805190602001209050600081905060008611156120dc578786866040516020016120c3939291906148a5565b6040516020818303038152906040528051906020012090505b6000609860009054906101000a900473ffffffffffffffffffffffffffffffffffffffff1673ffffffffffffffffffffffffffffffffffffffff1663cb9871d98b6040518263ffffffff1660e01b81526004016121399190612e25565b602060405180830381865afa158015612156573d6000803e3d6000fd5b505050506040513d601f19601f8201168201806040525081019061217a9190613c57565b905081811493505050509695505050505050565b609860009054906101000a900473ffffffffffffffffffffffffffffffffffffffff1681565b60008073ffffffffffffffffffffffffffffffffffffffff16609760009054906101000a900473ffffffffffffffffffffffffffffffffffffffff1673ffffffffffffffffffffffffffffffffffffffff160361224d57600061224c576040517f08c379a000000000000000000000000000000000000000000000000000000000815260040161224390613da9565b60405180910390fd5b5b6000865111612291576040517f08c379a000000000000000000000000000000000000000000000000000000000815260040161228890613e81565b60405180910390fd5b868680519060200120146122da576040517f08c379a00000000000000000000000000000000000000000000000000000000081526004016122d190613f13565b60405180910390fd5b600073ffffffffffffffffffffffffffffffffffffffff16609860009054906101000a900473ffffffffffffffffffffffffffffffffffffffff1673ffffffffffffffffffffffffffffffffffffffff1603612372576000612371576040517f08c379a000000000000000000000000000000000000000000000000000000000815260040161236890613c22565b60405180910390fd5b5b6000609860009054906101000a900473ffffffffffffffffffffffffffffffffffffffff1673ffffffffffffffffffffffffffffffffffffffff1663cb9871d9876040518263ffffffff1660e01b81526004016123cf9190612e25565b602060405180830381865afa1580156123ec573d6000803e3d6000fd5b505050506040513d601f19601f820116820180604052508101906124109190613c57565b90506000801b8114806124265750600160001b81145b806124345750600260001b81145b156124435760009150506125d5565b60008780602001905181019061245991906141c2565b90506000609760009054906101000a900473ffffffffffffffffffffffffffffffffffffffff1673ffffffffffffffffffffffffffffffffffffffff16630660bab9836040518263ffffffff1660e01b81526004016124b891906143a6565b600060405180830381865afa1580156124d5573d6000803e3d6000fd5b505050506040513d6000823e3d601f19601f820116820180604052508101906124fe91906143c8565b805190602001209050898114612549576040517f08c379a000000000000000000000000000000000000000000000000000000000815260040161254090613f13565b60405180910390fd5b3073ffffffffffffffffffffffffffffffffffffffff1663c6b4fc818360a001518a8a8a8a6040518663ffffffff1660e01b815260040161258e95949392919061446a565b602060405180830381865afa1580156125ab573d6000803e3d6000fd5b505050506040513d601f19601f820116820180604052508101906125cf9190613d30565b93505050505b9695505050505050565b60007f01ffc9a7000000000000000000000000000000000000000000000000000000007bffffffffffffffffffffffffffffffffffffffffffffffffffffffff1916827bffffffffffffffffffffffffffffffffffffffffffffffffffffffff1916149050919050565b61265a816126556127fe565b61295c565b50565b6126678282611270565b61273a5760016065600084815260200190815260200160002060000160008373ffffffffffffffffffffffffffffffffffffffff1673ffffffffffffffffffffffffffffffffffffffff16815260200190815260200160002060006101000a81548160ff0219169083151502179055506126df6127fe565b73ffffffffffffffffffffffffffffffffffffffff168173ffffffffffffffffffffffffffffffffffffffff16837f2f8788117e7eff1d82e926ec794901d17c78024a50270940304540a733656f0d60405160405180910390a45b5050565b600060019054906101000a900460ff161561278e576040517f08c379a00000000000000000000000000000000000000000000000000000000081526004016127859061494e565b60405180910390fd5b60ff801660008054906101000a900460ff1660ff16146127fc5760ff6000806101000a81548160ff021916908360ff1602179055507f7f26b83ff96e1f2b6a682f133852f6798a09c465da95921460cefb384740249860ff6040516127f3919061496e565b60405180910390a15b565b600033905090565b6128108282611270565b156128e45760006065600084815260200190815260200160002060000160008373ffffffffffffffffffffffffffffffffffffffff1673ffffffffffffffffffffffffffffffffffffffff16815260200190815260200160002060006101000a81548160ff0219169083151502179055506128896127fe565b73ffffffffffffffffffffffffffffffffffffffff168173ffffffffffffffffffffffffffffffffffffffff16837ff6391f5c32d9c69d2a47ea670b442974b53935d1edc7fd64eb21e047a839171b60405160405180910390a45b5050565b6000808273ffffffffffffffffffffffffffffffffffffffff163b119050919050565b600060019054906101000a900460ff1661295a576040517f08c379a0000000000000000000000000000000000000000000000000000000008152600401612951906149fb565b60405180910390fd5b565b6129668282611270565b6129dd57612973816129e1565b6129818360001c6020612a0e565b604051602001612992929190614afa565b6040516020818303038152906040526040517f08c379a00000000000000000000000000000000000000000000000000000000081526004016129d49190614b6d565b60405180910390fd5b5050565b6060612a078273ffffffffffffffffffffffffffffffffffffffff16601460ff16612a0e565b9050919050565b606060006002836002612a219190614b8f565b612a2b919061458e565b67ffffffffffffffff811115612a4457612a43612ff6565b5b6040519080825280601f01601f191660200182016040528015612a765781602001600182028036833780820191505090505b5090507f300000000000000000000000000000000000000000000000000000000000000081600081518110612aae57612aad6144c4565b5b60200101907effffffffffffffffffffffffffffffffffffffffffffffffffffffffffffff1916908160001a9053507f780000000000000000000000000000000000000000000000000000000000000081600181518110612b1257612b116144c4565b5b60200101907effffffffffffffffffffffffffffffffffffffffffffffffffffffffffffff1916908160001a90535060006001846002612b529190614b8f565b612b5c919061458e565b90505b6001811115612bfc577f3031323334353637383961626364656600000000000000000000000000000000600f861660108110612b9e57612b9d6144c4565b5b1a60f81b828281518110612bb557612bb46144c4565b5b60200101907effffffffffffffffffffffffffffffffffffffffffffffffffffffffffffff1916908160001a905350600485901c945080612bf590614bd1565b9050612b5f565b5060008414612c40576040517f08c379a0000000000000000000000000000000000000000000000000000000008152600401612c3790614c46565b60405180910390fd5b8091505092915050565b600073ffffffffffffffffffffffffffffffffffffffff82169050919050565b6000819050919050565b6000612c8f612c8a612c8584612c4a565b612c6a565b612c4a565b9050919050565b6000612ca182612c74565b9050919050565b6000612cb382612c96565b9050919050565b612cc381612ca8565b82525050565b6000602082019050612cde6000830184612cba565b92915050565b6000604051905090565b600080fd5b600080fd5b60007fffffffff0000000000000000000000000000000000000000000000000000000082169050919050565b612d2d81612cf8565b8114612d3857600080fd5b50565b600081359050612d4a81612d24565b92915050565b600060208284031215612d6657612d65612cee565b5b6000612d7484828501612d3b565b91505092915050565b60008115159050919050565b612d9281612d7d565b82525050565b6000602082019050612dad6000830184612d89565b92915050565b6000819050919050565b612dc681612db3565b8114612dd157600080fd5b50565b600081359050612de381612dbd565b92915050565b600060208284031215612dff57612dfe612cee565b5b6000612e0d84828501612dd4565b91505092915050565b612e1f81612db3565b82525050565b6000602082019050612e3a6000830184612e16565b92915050565b6000612e4b82612c4a565b9050919050565b612e5b81612e40565b8114612e6657600080fd5b50565b600081359050612e7881612e52565b92915050565b60008060408385031215612e9557612e94612cee565b5b6000612ea385828601612dd4565b9250506020612eb485828601612e69565b9150509250929050565b6000612ec982612e40565b9050919050565b612ed981612ebe565b8114612ee457600080fd5b50565b600081359050612ef681612ed0565b92915050565b600060208284031215612f1257612f11612cee565b5b6000612f2084828501612ee7565b91505092915050565b600063ffffffff82169050919050565b612f4281612f29565b8114612f4d57600080fd5b50565b600081359050612f5f81612f39565b92915050565b60008060408385031215612f7c57612f7b612cee565b5b6000612f8a85828601612e69565b9250506020612f9b85828601612f50565b9150509250929050565b6000819050919050565b612fb881612fa5565b8114612fc357600080fd5b50565b600081359050612fd581612faf565b92915050565b600080fd5b600080fd5b6000601f19601f8301169050919050565b7f4e487b7100000000000000000000000000000000000000000000000000000000600052604160045260246000fd5b61302e82612fe5565b810181811067ffffffffffffffff8211171561304d5761304c612ff6565b5b80604052505050565b6000613060612ce4565b905061306c8282613025565b919050565b600067ffffffffffffffff82111561308c5761308b612ff6565b5b61309582612fe5565b9050602081019050919050565b82818337600083830152505050565b60006130c46130bf84613071565b613056565b9050828152602081018484840111156130e0576130df612fe0565b5b6130eb8482856130a2565b509392505050565b600082601f83011261310857613107612fdb565b5b81356131188482602086016130b1565b91505092915050565b600080600080600080600080610100898b03121561314257613141612cee565b5b60006131508b828c01612dd4565b98505060206131618b828c01612e69565b97505060406131728b828c01612fc6565b96505060606131838b828c01612fc6565b95505060806131948b828c01612e69565b94505060a06131a58b828c01612fc6565b93505060c06131b68b828c01612dd4565b92505060e089013567ffffffffffffffff8111156131d7576131d6612cf3565b5b6131e38b828c016130f3565b9150509295985092959890939650565b600060ff82169050919050565b613209816131f3565b811461321457600080fd5b50565b60008135905061322681613200565b92915050565b60008060008060008060c0878903121561324957613248612cee565b5b600061325789828a01612dd4565b965050602087013567ffffffffffffffff81111561327857613277612cf3565b5b61328489828a016130f3565b955050604061329589828a01612dd4565b94505060606132a689828a01612e69565b93505060806132b789828a01612fc6565b92505060a06132c889828a01613217565b9150509295509295509295565b600067ffffffffffffffff8211156132f0576132ef612ff6565b5b602082029050602081019050919050565b600080fd5b600080fd5b600080fd5b600060a0828403121561332657613325613306565b5b61333060a0613056565b9050600061334084828501612dd4565b600083015250602061335484828501612e69565b602083015250604061336884828501612fc6565b604083015250606061337c84828501612fc6565b606083015250608061339084828501612fc6565b60808301525092915050565b60006133af6133aa846132d5565b613056565b90508083825260208201905060a084028301858111156133d2576133d1613301565b5b835b818110156133fb57806133e78882613310565b84526020840193505060a0810190506133d4565b5050509392505050565b600082601f83011261341a57613419612fdb565b5b813561342a84826020860161339c565b91505092915050565b60008060006060848603121561344c5761344b612cee565b5b600084013567ffffffffffffffff81111561346a57613469612cf3565b5b61347686828701613405565b935050602061348786828701612dd4565b925050604084013567ffffffffffffffff8111156134a8576134a7612cf3565b5b6134b4868287016130f3565b9150509250925092565b600081519050919050565b600082825260208201905092915050565b6000819050602082019050919050565b6134f381612e40565b82525050565b600061350583836134ea565b60208301905092915050565b6000602082019050919050565b6000613529826134be565b61353381856134c9565b935061353e836134da565b8060005b8381101561356f57815161355688826134f9565b975061356183613511565b925050600181019050613542565b5085935050505092915050565b600081519050919050565b600082825260208201905092915050565b6000819050602082019050919050565b6135b181612fa5565b82525050565b60006135c383836135a8565b60208301905092915050565b6000602082019050919050565b60006135e78261357c565b6135f18185613587565b93506135fc83613598565b8060005b8381101561362d57815161361488826135b7565b975061361f836135cf565b925050600181019050613600565b5085935050505092915050565b61364381612fa5565b82525050565b60006060820190508181036000830152613663818661351e565b9050818103602083015261367781856135dc565b9050613686604083018461363a565b949350505050565b6000602082840312156136a4576136a3612cee565b5b60006136b284828501612e69565b91505092915050565b600080600080600080600080610100898b0312156136dc576136db612cee565b5b60006136ea8b828c01612dd4565b98505060206136fb8b828c01612fc6565b975050604061370c8b828c01612fc6565b965050606061371d8b828c01612e69565b955050608061372e8b828c01612fc6565b94505060a061373f8b828c01612e69565b93505060c06137508b828c01612dd4565b92505060e089013567ffffffffffffffff81111561377157613770612cf3565b5b61377d8b828c016130f3565b9150509295985092959890939650565b600080fd5b60008083601f8401126137a8576137a7612fdb565b5b8235905067ffffffffffffffff8111156137c5576137c461378d565b5b6020830191508360018202830111156137e1576137e0613301565b5b9250929050565b60008060008060008060a0878903121561380557613804612cee565b5b600087013567ffffffffffffffff81111561382357613822612cf3565b5b61382f89828a01613792565b9650965050602061384289828a01612dd4565b945050604061385389828a01612e69565b935050606061386489828a01612fc6565b925050608061387589828a01613217565b9150509295509295509295565b61388b81612d7d565b811461389657600080fd5b50565b6000813590506138a881613882565b92915050565b6000602082840312156138c4576138c3612cee565b5b60006138d284828501613899565b91505092915050565b60008060008060008060c087890312156138f8576138f7612cee565b5b600061390689828a01612dd4565b965050602061391789828a01612fc6565b955050604061392889828a01612fc6565b945050606061393989828a01612e69565b935050608061394a89828a01612fc6565b92505060a061395b89828a01612e69565b9150509295509295509295565b60008060008060008060c0878903121561398557613984612cee565b5b600061399389828a01612dd4565b96505060206139a489828a01612e69565b95505060406139b589828a01612fc6565b94505060606139c689828a01612fc6565b93505060806139d789828a01612e69565b92505060a06139e889828a01612fc6565b9150509295509295509295565b6000613a0082612c96565b9050919050565b613a10816139f5565b82525050565b6000602082019050613a2b6000830184613a07565b92915050565b600082825260208201905092915050565b7f4f6e6c79206f776e65722063616e2063616c6c20746869732066756e6374696f60008201527f6e00000000000000000000000000000000000000000000000000000000000000602082015250565b6000613a9e602183613a31565b9150613aa982613a42565b604082019050919050565b60006020820190508181036000830152613acd81613a91565b9050919050565b7f416363657373436f6e74726f6c3a2063616e206f6e6c792072656e6f756e636560008201527f20726f6c657320666f722073656c660000000000000000000000000000000000602082015250565b6000613b30602f83613a31565b9150613b3b82613ad4565b604082019050919050565b60006020820190508181036000830152613b5f81613b23565b9050919050565b613b6f81612e40565b82525050565b613b7e81612f29565b82525050565b6000604082019050613b996000830185613b66565b613ba66020830184613b75565b9392505050565b6000604082019050613bc26000830185612e16565b613bcf6020830184612e16565b9392505050565b7f457363726f77474d50206e6f7420736574000000000000000000000000000000600082015250565b6000613c0c601183613a31565b9150613c1782613bd6565b602082019050919050565b60006020820190508181036000830152613c3b81613bff565b9050919050565b600081519050613c5181612dbd565b92915050565b600060208284031215613c6d57613c6c612cee565b5b6000613c7b84828501613c42565b91505092915050565b6000606082019050613c996000830186613b66565b613ca6602083018561363a565b613cb3604083018461363a565b949350505050565b6000604082019050613cd06000830185612e16565b613cdd6020830184613b66565b9392505050565b6000606082019050613cf96000830186612e16565b613d066020830185613b66565b613d13604083018461363a565b949350505050565b600081519050613d2a81613882565b92915050565b600060208284031215613d4657613d45612cee565b5b6000613d5484828501613d1b565b91505092915050565b7f417474657374657273206e6f7420736574000000000000000000000000000000600082015250565b6000613d93601183613a31565b9150613d9e82613d5d565b602082019050919050565b60006020820190508181036000830152613dc281613d86565b9050919050565b7f4261746368207061796c6f61642068617368206e6f7420636f6d6d6974746564600082015250565b6000613dff602083613a31565b9150613e0a82613dc9565b602082019050919050565b60006020820190508181036000830152613e2e81613df2565b9050919050565b7f4261746368207061796c6f616420697320656d70747900000000000000000000600082015250565b6000613e6b601683613a31565b9150613e7682613e35565b602082019050919050565b60006020820190508181036000830152613e9a81613e5e565b9050919050565b7f4261746368207061796c6f6164206861736820646f6573206e6f74206d61746360008201527f6800000000000000000000000000000000000000000000000000000000000000602082015250565b6000613efd602183613a31565b9150613f0882613ea1565b604082019050919050565b60006020820190508181036000830152613f2c81613ef0565b9050919050565b600067ffffffffffffffff821115613f4e57613f4d612ff6565b5b602082029050602081019050919050565b600081519050613f6e81612e52565b92915050565b6000613f87613f8284613f33565b613056565b90508083825260208201905060208402830185811115613faa57613fa9613301565b5b835b81811015613fd35780613fbf8882613f5f565b845260208401935050602081019050613fac565b5050509392505050565b600082601f830112613ff257613ff1612fdb565b5b8151614002848260208601613f74565b91505092915050565b60005b8381101561402957808201518184015260208101905061400e565b60008484015250505050565b600061404861404384613071565b613056565b90508281526020810184848401111561406457614063612fe0565b5b61406f84828561400b565b509392505050565b600082601f83011261408c5761408b612fdb565b5b815161409c848260208601614035565b91505092915050565b6000815190506140b481612f39565b92915050565b600060e082840312156140d0576140cf613306565b5b6140da60e0613056565b905060006140ea84828501613d1b565b60008301525060206140fe84828501613c42565b602083015250604061411284828501613c42565b604083015250606082015167ffffffffffffffff8111156141365761413561330b565b5b61414284828501613fdd565b606083015250608082015167ffffffffffffffff8111156141665761416561330b565b5b61417284828501613fdd565b60808301525060a082015167ffffffffffffffff8111156141965761419561330b565b5b6141a284828501614077565b60a08301525060c06141b6848285016140a5565b60c08301525092915050565b6000602082840312156141d8576141d7612cee565b5b600082015167ffffffffffffffff8111156141f6576141f5612cf3565b5b614202848285016140ba565b91505092915050565b61421481612d7d565b82525050565b61422381612db3565b82525050565b600082825260208201905092915050565b6000614245826134be565b61424f8185614229565b935061425a836134da565b8060005b8381101561428b57815161427288826134f9565b975061427d83613511565b92505060018101905061425e565b5085935050505092915050565b600081519050919050565b600082825260208201905092915050565b60006142bf82614298565b6142c981856142a3565b93506142d981856020860161400b565b6142e281612fe5565b840191505092915050565b6142f681612f29565b82525050565b600060e083016000830151614314600086018261420b565b506020830151614327602086018261421a565b50604083015161433a604086018261421a565b5060608301518482036060860152614352828261423a565b9150506080830151848203608086015261436c828261423a565b91505060a083015184820360a086015261438682826142b4565b91505060c083015161439b60c08601826142ed565b508091505092915050565b600060208201905081810360008301526143c081846142fc565b905092915050565b6000602082840312156143de576143dd612cee565b5b600082015167ffffffffffffffff8111156143fc576143fb612cf3565b5b61440884828501614077565b91505092915050565b600082825260208201905092915050565b600061442d82614298565b6144378185614411565b935061444781856020860161400b565b61445081612fe5565b840191505092915050565b614464816131f3565b82525050565b600060a08201905081810360008301526144848188614422565b90506144936020830187612e16565b6144a06040830186613b66565b6144ad606083018561363a565b6144ba608083018461445b565b9695505050505050565b7f4e487b7100000000000000000000000000000000000000000000000000000000600052603260045260246000fd5b7f524f233135000000000000000000000000000000000000000000000000000000600082015250565b6000614529600583613a31565b9150614534826144f3565b602082019050919050565b600060208201905081810360008301526145588161451c565b9050919050565b7f4e487b7100000000000000000000000000000000000000000000000000000000600052601160045260246000fd5b600061459982612fa5565b91506145a483612fa5565b92508282019050808211156145bc576145bb61455f565b5b92915050565b60006145cd82612fa5565b91507fffffffffffffffffffffffffffffffffffffffffffffffffffffffffffffffff82036145ff576145fe61455f565b5b600182019050919050565b7f496e697469616c697a61626c653a20636f6e747261637420697320616c72656160008201527f647920696e697469616c697a6564000000000000000000000000000000000000602082015250565b6000614666602e83613a31565b91506146718261460a565b604082019050919050565b6000602082019050818103600083015261469581614659565b9050919050565b7f4f776e65722063616e6e6f74206265207a65726f206164647265737300000000600082015250565b60006146d2601c83613a31565b91506146dd8261469c565b602082019050919050565b60006020820190508181036000830152614701816146c5565b9050919050565b6000819050919050565b600061472d61472861472384614708565b612c6a565b6131f3565b9050919050565b61473d81614712565b82525050565b60006020820190506147586000830184614734565b92915050565b600080fd5b600080fd5b6000808585111561477c5761477b61475e565b5b8386111561478d5761478c614763565b5b6001850283019150848603905094509492505050565b600082905092915050565b600082821b905092915050565b60006147c783836147a3565b826147d28135612db3565b925060208210156148125761480d7fffffffffffffffffffffffffffffffffffffffffffffffffffffffffffffffff836020036008026147ae565b831692505b505092915050565b60007fffffffffffffffffffffffffffffffffffffffff00000000000000000000000082169050919050565b600061485283836147a3565b8261485d813561481a565b9250601482101561489d576148987fffffffffffffffffffffffffffffffffffffffff000000000000000000000000836014036008026147ae565b831692505b505092915050565b60006060820190506148ba6000830186613b66565b6148c7602083018561363a565b6148d46040830184613b66565b949350505050565b7f496e697469616c697a61626c653a20636f6e747261637420697320696e69746960008201527f616c697a696e6700000000000000000000000000000000000000000000000000602082015250565b6000614938602783613a31565b9150614943826148dc565b604082019050919050565b600060208201905081810360008301526149678161492b565b9050919050565b6000602082019050614983600083018461445b565b92915050565b7f496e697469616c697a61626c653a20636f6e7472616374206973206e6f74206960008201527f6e697469616c697a696e67000000000000000000000000000000000000000000602082015250565b60006149e5602b83613a31565b91506149f082614989565b604082019050919050565b60006020820190508181036000830152614a14816149d8565b9050919050565b600081905092915050565b7f416363657373436f6e74726f6c3a206163636f756e7420000000000000000000600082015250565b6000614a5c601783614a1b565b9150614a6782614a26565b601782019050919050565b600081519050919050565b6000614a8882614a72565b614a928185614a1b565b9350614aa281856020860161400b565b80840191505092915050565b7f206973206d697373696e6720726f6c6520000000000000000000000000000000600082015250565b6000614ae4601183614a1b565b9150614aef82614aae565b601182019050919050565b6000614b0582614a4f565b9150614b118285614a7d565b9150614b1c82614ad7565b9150614b288284614a7d565b91508190509392505050565b6000614b3f82614a72565b614b498185613a31565b9350614b5981856020860161400b565b614b6281612fe5565b840191505092915050565b60006020820190508181036000830152614b878184614b34565b905092915050565b6000614b9a82612fa5565b9150614ba583612fa5565b9250828202614bb381612fa5565b91508282048414831517614bca57614bc961455f565b5b5092915050565b6000614bdc82612fa5565b915060008203614bef57614bee61455f565b5b600182039050919050565b7f537472696e67733a20686578206c656e67746820696e73756666696369656e74600082015250565b6000614c30602083613a31565b9150614c3b82614bfa565b602082019050919050565b60006020820190508181036000830152614c5f81614c23565b905091905056fea26469706673582212207a7ca42fda3dd9d2f29248ab83905c816554f03fb14f4479cfd9c977ff0dc56e64736f6c63430008180033",
  "linkReferences": {},
  "deployedLinkReferences": {}
}