{
  "_format": "hh-sol-artifact-1",
  "contractName": "PayloadGetter",
  "sourceName": "contracts/payloadGetter.sol",
  "abi": [
    {
      "inputs": [],
      "stateMutability": "nonpayable",
      "type": "constructor"
    },
    {
      "anonymous": false,
      "inputs": [
        {
          "indexed": false,
          "internalType": "uint256",
          "name": "count",
          "type": "uint256"
        }
      ],
      "name": "AttestRevertBatch",
      "type": "event"
    },
    {
      "anonymous": false,
      "inputs": [
        {
          "indexed": false,
          "internalType": "uint256",
          "name": "count",
          "type": "uint256"
        },
        {
          "indexed": false,
          "internalType": "bytes32",
          "name": "batchHash",
          "type": "bytes32"
        }
      ],
      "name": "FormSizedRevertBatchPayloadHash",
      "type": "event"
    },
    {
      "anonymous": false,
      "inputs": [
        {
          "indexed": false,
          "internalType": "uint8",
          "name": "version",
          "type": "uint8"
        }
      ],
      "name": "Initialized",
      "type": "event"
    },
    {
      "anonymous": false,
      "inputs": [
        {
          "indexed": false,
          "internalType": "bytes32",
          "name": "orderId",
          "type": "bytes32"
        }
      ],
      "name": "RevertOrderApproved",
      "type": "event"
    },
    {
      "anonymous": false,
      "inputs": [
        {
          "indexed": false,
          "internalType": "bytes32",
          "name": "orderId",
          "type": "bytes32"
        }
      ],
      "name": "RevertOrderRevertWithCommitPrevented",
      "type": "event"
    },
    {
      "anonymous": false,
      "inputs": [
        {
          "indexed": true,
          "internalType": "bytes32",
          "name": "role",
          "type": "bytes32"
        },
        {
          "indexed": true,
          "internalType": "bytes32",
          "name": "previousAdminRole",
          "type": "bytes32"
        },
        {
          "indexed": true,
          "internalType": "bytes32",
          "name": "newAdminRole",
          "type": "bytes32"
        }
      ],
      "name": "RoleAdminChanged",
      "type": "event"
    },
    {
      "anonymous": false,
      "inputs": [
        {
          "indexed": true,
          "internalType": "bytes32",
          "name": "role",
          "type": "bytes32"
        },
        {
          "indexed": true,
          "internalType": "address",
          "name": "account",
          "type": "address"
        },
        {
          "indexed": true,
          "internalType": "address",
          "name": "sender",
          "type": "address"
        }
      ],
      "name": "RoleGranted",
      "type": "event"
    },
    {
      "anonymous": false,
      "inputs": [
        {
          "indexed": true,
          "internalType": "bytes32",
          "name": "role",
          "type": "bytes32"
        },
        {
          "indexed": true,
          "internalType": "address",
          "name": "account",
          "type": "address"
        },
        {
          "indexed": true,
          "internalType": "address",
          "name": "sender",
          "type": "address"
        }
      ],
      "name": "RoleRevoked",
      "type": "event"
    },
    {
      "inputs": [],
      "name": "DEFAULT_ADMIN_ROLE",
      "outputs": [
        {
          "internalType": "bytes32",
          "name": "",
          "type": "bytes32"
        }
      ],
      "stateMutability": "view",
      "type": "function"
    },
    {
      "inputs": [],
      "name": "abmV1",
      "outputs": [
        {
          "internalType": "contract AttestationBatchMaker",
          "name": "",
          "type": "address"
        }
      ],
      "stateMutability": "view",
      "type": "function"
    },
    {
      "inputs": [],
      "name": "abmV2",
      "outputs": [
        {
          "internalType": "contract AttestationBatchMakerV2",
          "name": "",
          "type": "address"
        }
      ],
      "stateMutability": "view",
      "type": "function"
    },
    {
      "inputs": [],
      "name": "abmV3",
      "outputs": [
        {
          "internalType": "contract AttestationBatchMakerV3",
          "name": "",
          "type": "address"
        }
      ],
      "stateMutability": "view",
      "type": "function"
    },
    {
      "inputs": [
        {
          "internalType": "bytes32",
          "name": "orderId",
          "type": "bytes32"
        }
      ],
      "name": "attestRevert",
      "outputs": [
        {
          "internalType": "bool",
          "name": "",
          "type": "bool"
        }
      ],
      "stateMutability": "nonpayable",
      "type": "function"
    },
    {
      "inputs": [
        {
          "internalType": "bytes32[]",
          "name": "orderId",
          "type": "bytes32[]"
        }
      ],
      "name": "attestRevertBatch",
      "outputs": [],
      "stateMutability": "nonpayable",
      "type": "function"
    },
    {
      "inputs": [],
      "name": "attesters",
      "outputs": [
        {
          "internalType": "contract AttestationsVerifierProofs",
          "name": "",
          "type": "address"
        }
      ],
      "stateMutability": "view",
      "type": "function"
    },
    {
      "inputs": [],
      "name": "attestersPortal",
      "outputs": [
        {
          "internalType": "contract AttestersPortal",
          "name": "",
          "type": "address"
        }
      ],
      "stateMutability": "view",
      "type": "function"
    },
    {
      "inputs": [
        {
          "internalType": "bytes32",
          "name": "",
          "type": "bytes32"
        }
      ],
      "name": "batchForOrder",
      "outputs": [
        {
          "internalType": "bytes32",
          "name": "",
          "type": "bytes32"
        }
      ],
      "stateMutability": "view",
      "type": "function"
    },
    {
      "inputs": [
        {
          "internalType": "bytes32",
          "name": "",
          "type": "bytes32"
        }
      ],
      "name": "batchForOrderVersion",
      "outputs": [
        {
          "internalType": "uint256",
          "name": "",
          "type": "uint256"
        }
      ],
      "stateMutability": "view",
      "type": "function"
    },
    {
      "inputs": [
        {
          "internalType": "bytes4",
          "name": "",
          "type": "bytes4"
        }
      ],
      "name": "batchIndexByNetwork",
      "outputs": [
        {
          "internalType": "uint32",
          "name": "",
          "type": "uint32"
        }
      ],
      "stateMutability": "view",
      "type": "function"
    },
    {
      "inputs": [
        {
          "internalType": "uint32",
          "name": "",
          "type": "uint32"
        }
      ],
      "name": "batchIndexByNetworkList",
      "outputs": [
        {
          "internalType": "uint32",
          "name": "nextBatchIndex",
          "type": "uint32"
        },
        {
          "internalType": "bytes4",
          "name": "networkId",
          "type": "bytes4"
        }
      ],
      "stateMutability": "view",
      "type": "function"
    },
    {
      "inputs": [],
      "name": "batchIndexByNetworkListHead",
      "outputs": [
        {
          "internalType": "uint32",
          "name": "",
          "type": "uint32"
        }
      ],
      "stateMutability": "view",
      "type": "function"
    },
    {
      "inputs": [
        {
          "internalType": "bytes32",
          "name": "",
          "type": "bytes32"
        }
      ],
      "name": "batchPayloadByHashMemo",
      "outputs": [
        {
          "internalType": "bytes",
          "name": "",
          "type": "bytes"
        }
      ],
      "stateMutability": "view",
      "type": "function"
    },
    {
      "inputs": [
        {
          "internalType": "bytes32",
          "name": "",
          "type": "bytes32"
        }
      ],
      "name": "batchPayloadByOrderIdMemo",
      "outputs": [
        {
          "internalType": "bytes",
          "name": "",
          "type": "bytes"
        }
      ],
      "stateMutability": "view",
      "type": "function"
    },
    {
      "inputs": [
        {
          "internalType": "uint256",
          "name": "",
          "type": "uint256"
        }
      ],
      "name": "batchingSizeHead",
      "outputs": [
        {
          "internalType": "bytes32",
          "name": "",
          "type": "bytes32"
        }
      ],
      "stateMutability": "view",
      "type": "function"
    },
    {
      "inputs": [],
      "name": "biddingBook",
      "outputs": [
        {
          "internalType": "contract BiddingBook",
          "name": "",
          "type": "address"
        }
      ],
      "stateMutability": "view",
      "type": "function"
    },
    {
      "inputs": [
        {
          "internalType": "uint256",
          "name": "_size",
          "type": "uint256"
        },
        {
          "internalType": "bytes4",
          "name": "networkId",
          "type": "bytes4"
        }
      ],
      "name": "formSizedRevertBatchPayloadHash",
      "outputs": [
        {
          "internalType": "bytes",
          "name": "",
          "type": "bytes"
        }
      ],
      "stateMutability": "nonpayable",
      "type": "function"
    },
    {
      "inputs": [
        {
          "internalType": "bytes4",
          "name": "_networkId",
          "type": "bytes4"
        },
        {
          "internalType": "uint32",
          "name": "batchIndex",
          "type": "uint32"
        }
      ],
      "name": "getBatchHash",
      "outputs": [
        {
          "internalType": "bytes32",
          "name": "",
          "type": "bytes32"
        }
      ],
      "stateMutability": "view",
      "type": "function"
    },
    {
      "inputs": [
        {
          "internalType": "bytes4",
          "name": "networkId",
          "type": "bytes4"
        }
      ],
      "name": "getBatchIndexByNetwork",
      "outputs": [
        {
          "internalType": "uint256",
          "name": "",
          "type": "uint256"
        }
      ],
      "stateMutability": "view",
      "type": "function"
    },
    {
      "inputs": [
        {
          "internalType": "bytes4",
          "name": "networkId",
          "type": "bytes4"
        },
        {
          "internalType": "bytes32",
          "name": "batchHash",
          "type": "bytes32"
        }
      ],
      "name": "getBatchPayload",
      "outputs": [
        {
          "internalType": "bytes",
          "name": "",
          "type": "bytes"
        }
      ],
      "stateMutability": "view",
      "type": "function"
    },
    {
      "inputs": [
        {
          "internalType": "bytes32",
          "name": "orderId",
          "type": "bytes32"
        }
      ],
      "name": "getBatchPayloadByOrderId",
      "outputs": [
        {
          "internalType": "bytes",
          "name": "",
          "type": "bytes"
        }
      ],
      "stateMutability": "view",
      "type": "function"
    },
    {
      "inputs": [
        {
          "internalType": "uint256",
          "name": "_size",
          "type": "uint256"
        }
      ],
      "name": "getOrdinalHead",
      "outputs": [
        {
          "internalType": "uint256",
          "name": "",
          "type": "uint256"
        }
      ],
      "stateMutability": "view",
      "type": "function"
    },
    {
      "inputs": [
        {
          "internalType": "bytes32",
          "name": "role",
          "type": "bytes32"
        }
      ],
      "name": "getRoleAdmin",
      "outputs": [
        {
          "internalType": "bytes32",
          "name": "",
          "type": "bytes32"
        }
      ],
      "stateMutability": "view",
      "type": "function"
    },
    {
      "inputs": [
        {
          "internalType": "bytes32",
          "name": "role",
          "type": "bytes32"
        },
        {
          "internalType": "address",
          "name": "account",
          "type": "address"
        }
      ],
      "name": "grantRole",
      "outputs": [],
      "stateMutability": "nonpayable",
      "type": "function"
    },
    {
      "inputs": [
        {
          "internalType": "bytes32",
          "name": "role",
          "type": "bytes32"
        },
        {
          "internalType": "address",
          "name": "account",
          "type": "address"
        }
      ],
      "name": "hasRole",
      "outputs": [
        {
          "internalType": "bool",
          "name": "",
          "type": "bool"
        }
      ],
      "stateMutability": "view",
      "type": "function"
    },
    {
      "inputs": [
        {
          "internalType": "address",
          "name": "_owner",
          "type": "address"
        }
      ],
      "name": "initialize",
      "outputs": [],
      "stateMutability": "nonpayable",
      "type": "function"
    },
    {
      "inputs": [],
      "name": "longRangeAttestationsBook",
      "outputs": [
        {
          "internalType": "contract LongRangeAttestationsBook",
          "name": "",
          "type": "address"
        }
      ],
      "stateMutability": "view",
      "type": "function"
    },
    {
      "inputs": [
        {
          "internalType": "bytes32",
          "name": "orderId",
          "type": "bytes32"
        }
      ],
      "name": "memoBatchPayloadByOrderId",
      "outputs": [
        {
          "internalType": "bytes",
          "name": "",
          "type": "bytes"
        }
      ],
      "stateMutability": "nonpayable",
      "type": "function"
    },
    {
      "inputs": [],
      "name": "orderBook",
      "outputs": [
        {
          "internalType": "contract OrderBook",
          "name": "",
          "type": "address"
        }
      ],
      "stateMutability": "view",
      "type": "function"
    },
    {
      "inputs": [
        {
          "internalType": "uint256",
          "name": "",
          "type": "uint256"
        }
      ],
      "name": "ordinalNumberToRevertOrders",
      "outputs": [
        {
          "internalType": "bytes32",
          "name": "",
          "type": "bytes32"
        }
      ],
      "stateMutability": "view",
      "type": "function"
    },
    {
      "inputs": [
        {
          "internalType": "uint32",
          "name": "",
          "type": "uint32"
        }
      ],
      "name": "payloadIndexToNetworkMap",
      "outputs": [
        {
          "internalType": "bytes4",
          "name": "",
          "type": "bytes4"
        }
      ],
      "stateMutability": "view",
      "type": "function"
    },
    {
      "inputs": [
        {
          "internalType": "bytes32",
          "name": "role",
          "type": "bytes32"
        },
        {
          "internalType": "address",
          "name": "account",
          "type": "address"
        }
      ],
      "name": "renounceRole",
      "outputs": [],
      "stateMutability": "nonpayable",
      "type": "function"
    },
    {
      "inputs": [],
      "name": "revertApprovedCount",
      "outputs": [
        {
          "internalType": "uint256",
          "name": "",
          "type": "uint256"
        }
      ],
      "stateMutability": "view",
      "type": "function"
    },
    {
      "inputs": [
        {
          "internalType": "bytes32",
          "name": "",
          "type": "bytes32"
        }
      ],
      "name": "revertOrdersToOrdinalNumber",
      "outputs": [
        {
          "internalType": "uint256",
          "name": "",
          "type": "uint256"
        }
      ],
      "stateMutability": "view",
      "type": "function"
    },
    {
      "inputs": [],
      "name": "revertPayloadIndex",
      "outputs": [
        {
          "internalType": "uint32",
          "name": "",
          "type": "uint32"
        }
      ],
      "stateMutability": "view",
      "type": "function"
    },
    {
      "inputs": [
        {
          "internalType": "bytes32",
          "name": "",
          "type": "bytes32"
        }
      ],
      "name": "revertPayloads",
      "outputs": [
        {
          "internalType": "bytes",
          "name": "",
          "type": "bytes"
        }
      ],
      "stateMutability": "view",
      "type": "function"
    },
    {
      "inputs": [
        {
          "internalType": "uint32",
          "name": "",
          "type": "uint32"
        }
      ],
      "name": "revertPayloadsIndexToHashMap",
      "outputs": [
        {
          "internalType": "bytes32",
          "name": "",
          "type": "bytes32"
        }
      ],
      "stateMutability": "view",
      "type": "function"
    },
    {
      "inputs": [
        {
          "internalType": "bytes32",
          "name": "",
          "type": "bytes32"
        }
      ],
      "name": "revertVotesCountMap",
      "outputs": [
        {
          "internalType": "uint256",
          "name": "",
          "type": "uint256"
        }
      ],
      "stateMutability": "view",
      "type": "function"
    },
    {
      "inputs": [
        {
          "internalType": "bytes32",
          "name": "",
          "type": "bytes32"
        }
      ],
      "name": "revertVotesMap",
      "outputs": [
        {
          "internalType": "bool",
          "name": "",
          "type": "bool"
        }
      ],
      "stateMutability": "view",
      "type": "function"
    },
    {
      "inputs": [
        {
          "internalType": "bytes32",
          "name": "",
          "type": "bytes32"
        }
      ],
      "name": "revertedOrderToBatchHashIndex",
      "outputs": [
        {
          "internalType": "uint32",
          "name": "",
          "type": "uint32"
        }
      ],
      "stateMutability": "view",
      "type": "function"
    },
    {
      "inputs": [
        {
          "internalType": "bytes32",
          "name": "role",
          "type": "bytes32"
        },
        {
          "internalType": "address",
          "name": "account",
          "type": "address"
        }
      ],
      "name": "revokeRole",
      "outputs": [],
      "stateMutability": "nonpayable",
      "type": "function"
    },
    {
      "inputs": [],
      "name": "sabv1",
      "outputs": [
        {
          "internalType": "contract SingleAttestationBook",
          "name": "",
          "type": "address"
        }
      ],
      "stateMutability": "view",
      "type": "function"
    },
    {
      "inputs": [],
      "name": "sabv2",
      "outputs": [
        {
          "internalType": "contract SingleAttestationBookV2",
          "name": "",
          "type": "address"
        }
      ],
      "stateMutability": "view",
      "type": "function"
    },
    {
      "inputs": [],
      "name": "sabv3",
      "outputs": [
        {
          "internalType": "contract SingleAttestationBookV3",
          "name": "",
          "type": "address"
        }
      ],
      "stateMutability": "view",
      "type": "function"
    },
    {
      "inputs": [],
      "name": "sabv4",
      "outputs": [
        {
          "internalType": "contract SingleAttestationBookV4",
          "name": "",
          "type": "address"
        }
      ],
      "stateMutability": "view",
      "type": "function"
    },
    {
      "inputs": [
        {
          "internalType": "contract AttestationsVerifierProofs",
          "name": "_attesters",
          "type": "address"
        }
      ],
      "name": "setAVP",
      "outputs": [],
      "stateMutability": "nonpayable",
      "type": "function"
    },
    {
      "inputs": [
        {
          "internalType": "address",
          "name": "_abmV1",
          "type": "address"
        }
      ],
      "name": "setAbmV1",
      "outputs": [],
      "stateMutability": "nonpayable",
      "type": "function"
    },
    {
      "inputs": [
        {
          "internalType": "address",
          "name": "_abmV2",
          "type": "address"
        }
      ],
      "name": "setAbmV2",
      "outputs": [],
      "stateMutability": "nonpayable",
      "type": "function"
    },
    {
      "inputs": [
        {
          "internalType": "address",
          "name": "_abmV3",
          "type": "address"
        }
      ],
      "name": "setAbmV3",
      "outputs": [],
      "stateMutability": "nonpayable",
      "type": "function"
    },
    {
      "inputs": [
        {
          "internalType": "address payable",
          "name": "_attestersPortal",
          "type": "address"
        }
      ],
      "name": "setAttestersPortal",
      "outputs": [],
      "stateMutability": "nonpayable",
      "type": "function"
    },
    {
      "inputs": [
        {
          "internalType": "address",
          "name": "_biddingBook",
          "type": "address"
        }
      ],
      "name": "setBiddingBook",
      "outputs": [],
      "stateMutability": "nonpayable",
      "type": "function"
    },
    {
      "inputs": [
        {
          "internalType": "address payable",
          "name": "_longRangeAttestationsBook",
          "type": "address"
        }
      ],
      "name": "setLongRangeAttestationsBook",
      "outputs": [],
      "stateMutability": "nonpayable",
      "type": "function"
    },
    {
      "inputs": [
        {
          "internalType": "address",
          "name": "_orderBook",
          "type": "address"
        }
      ],
      "name": "setOrderBook",
      "outputs": [],
      "stateMutability": "nonpayable",
      "type": "function"
    },
    {
      "inputs": [
        {
          "internalType": "address payable",
          "name": "_sabV1",
          "type": "address"
        }
      ],
      "name": "setSabV1",
      "outputs": [],
      "stateMutability": "nonpayable",
      "type": "function"
    },
    {
      "inputs": [
        {
          "internalType": "address payable",
          "name": "_sabV2",
          "type": "address"
        }
      ],
      "name": "setSabV2",
      "outputs": [],
      "stateMutability": "nonpayable",
      "type": "function"
    },
    {
      "inputs": [
        {
          "internalType": "address payable",
          "name": "_sabV3",
          "type": "address"
        }
      ],
      "name": "setSabV3",
      "outputs": [],
      "stateMutability": "nonpayable",
      "type": "function"
    },
    {
      "inputs": [
        {
          "internalType": "address payable",
          "name": "_sabV4",
          "type": "address"
        }
      ],
      "name": "setSabV4",
      "outputs": [],
      "stateMutability": "nonpayable",
      "type": "function"
    },
    {
      "inputs": [
        {
          "internalType": "bytes32",
          "name": "_version",
          "type": "bytes32"
        }
      ],
      "name": "setVersion",
      "outputs": [],
      "stateMutability": "nonpayable",
      "type": "function"
    },
    {
      "inputs": [
        {
          "internalType": "bytes4",
          "name": "interfaceId",
          "type": "bytes4"
        }
      ],
      "name": "supportsInterface",
      "outputs": [
        {
          "internalType": "bool",
          "name": "",
          "type": "bool"
        }
      ],
      "stateMutability": "view",
      "type": "function"
    },
    {
      "inputs": [],
      "name": "version",
      "outputs": [
        {
          "internalType": "bytes32",
          "name": "",
          "type": "bytes32"
        }
      ],
      "stateMutability": "view",
      "type": "function"
    }
  ],
  "bytecode": "0x60806040523480156200001157600080fd5b50620000226200002860201b60201c565b620001d2565b600060019054906101000a900460ff16156200007b576040517f08c379a0000000000000000000000000000000000000000000000000000000008152600401620000729062000175565b60405180910390fd5b60ff801660008054906101000a900460ff1660ff1614620000ec5760ff6000806101000a81548160ff021916908360ff1602179055507f7f26b83ff96e1f2b6a682f133852f6798a09c465da95921460cefb384740249860ff604051620000e39190620001b5565b60405180910390a15b565b600082825260208201905092915050565b7f496e697469616c697a61626c653a20636f6e747261637420697320696e69746960008201527f616c697a696e6700000000000000000000000000000000000000000000000000602082015250565b60006200015d602783620000ee565b91506200016a82620000ff565b604082019050919050565b6000602082019050818103600083015262000190816200014e565b9050919050565b600060ff82169050919050565b620001af8162000197565b82525050565b6000602082019050620001cc6000830184620001a4565b92915050565b615f0280620001e26000396000f3fe608060405234801561001057600080fd5b50600436106103ae5760003560e01c80637c464dde116101f4578063b9733e831161011a578063d16a95b8116100ad578063e0339f0e1161007c578063e0339f0e14610bf0578063e889553214610c0e578063f7aa12a014610c2a578063fb6b06a914610c5a576103ae565b8063d16a95b814610b7c578063d3e6abe314610b9a578063d547741f14610bb8578063d9fe9c3414610bd4576103ae565b8063c5de641d116100e9578063c5de641d14610af6578063ca5f81b514610b26578063ccbc654d14610b42578063d03685cb14610b60576103ae565b8063b9733e8314610a72578063bd2ac83714610aa2578063bf5b5b2d14610abe578063c4d66de814610ada576103ae565b806391d1485411610192578063a217fddf11610161578063a217fddf146109d6578063a4c80a72146109f4578063a5211a2714610a24578063b230b0d614610a54576103ae565b806391d148541461093c578063969b6e671461096c5780639966b5d21461099c5780639a1598c8146109ba576103ae565b80638089b0f3116101ce5780638089b0f314610890578063838d8174146108c057806383b8b56d146108f05780639027d78d14610920576103ae565b80637c464dde146108125780637cb5ac3b146108425780637e9e9c7914610860576103ae565b80633aac5d3d116102d957806354fd4d50116102775780636ccf534f116102465780636ccf534f1461078a578063729f69c7146107a8578063776af5ba146107c4578063797841dd146107e2576103ae565b806354fd4d50146106ee5780635681f0531461070c5780636938a2ea1461073c5780636bf84cd81461075a576103ae565b8063409e16aa116102b3578063409e16aa14610641578063485dc4c11461065d5780634bf92a8b1461068d5780634e5f180b146106be576103ae565b80633aac5d3d146105d55780633d9517ee146105f35780633dc2363414610611576103ae565b8063169b0e19116103515780632aa8269e116103205780632aa8269e1461054f5780632f2ff15d1461056d57806332946aca1461058957806336568abe146105b9576103ae565b8063169b0e19146104a35780631a46b830146104d357806320a432dd14610503578063248a9ca31461051f576103ae565b80630a60e27a1161038d5780630a60e27a1461041d5780630b2786db1461043b5780630e2b02fa1461045757806312a58f5314610473576103ae565b8062cfe24f146103b357806301ffc9a7146103d157806303a00aa614610401575b600080fd5b6103bb610c8a565b6040516103c89190614386565b60405180910390f35b6103eb60048036038101906103e6919061440d565b610cb0565b6040516103f89190614455565b60405180910390f35b61041b600480360381019061041691906144c0565b610d2a565b005b610425610dba565b604051610432919061450e565b60405180910390f35b61045560048036038101906104509190614567565b610de0565b005b610471600480360381019061046c9190614567565b610e70565b005b61048d6004803603810190610488919061440d565b610f00565b60405161049a91906145ad565b60405180910390f35b6104bd60048036038101906104b891906145f4565b610f71565b6040516104ca91906146c4565b60405180910390f35b6104ed60048036038101906104e8919061440d565b611634565b6040516104fa9190614705565b60405180910390f35b61051d6004803603810190610518919061474c565b611657565b005b610539600480360381019061053491906147af565b6116e7565b60405161054691906147eb565b60405180910390f35b610557611707565b6040516105649190614827565b60405180910390f35b61058760048036038101906105829190614842565b61172d565b005b6105a3600480360381019061059e91906147af565b61174e565b6040516105b091906147eb565b60405180910390f35b6105d360048036038101906105ce9190614842565b611766565b005b6105dd6117e9565b6040516105ea91906148b5565b60405180910390f35b6105fb61180f565b60405161060891906145ad565b60405180910390f35b61062b600480360381019061062691906147af565b611815565b60405161063891906146c4565b60405180910390f35b61065b6004803603810190610656919061474c565b611a71565b005b610677600480360381019061067291906147af565b611b01565b6040516106849190614455565b60405180910390f35b6106a760048036038101906106a291906148fc565b611bee565b6040516106b5929190614938565b60405180910390f35b6106d860048036038101906106d391906147af565b611c2f565b6040516106e591906145ad565b60405180910390f35b6106f6611c47565b60405161070391906147eb565b60405180910390f35b610726600480360381019061072191906147af565b611c4d565b60405161073391906145ad565b60405180910390f35b610744611c65565b6040516107519190614982565b60405180910390f35b610774600480360381019061076f91906147af565b611c8b565b60405161078191906145ad565b60405180910390f35b610792611ca3565b60405161079f9190614705565b60405180910390f35b6107c260048036038101906107bd9190614567565b611cb9565b005b6107cc611d49565b6040516107d991906149be565b60405180910390f35b6107fc60048036038101906107f791906147af565b611d6f565b60405161080991906146c4565b60405180910390f35b61082c600480360381019061082791906148fc565b611e0f565b60405161083991906149d9565b60405180910390f35b61084a611e2f565b6040516108579190614a15565b60405180910390f35b61087a600480360381019061087591906147af565b611e55565b60405161088791906146c4565b60405180910390f35b6108aa60048036038101906108a59190614a30565b611ef5565b6040516108b791906147eb565b60405180910390f35b6108da60048036038101906108d59190614a70565b611f1f565b6040516108e791906145ad565b60405180910390f35b61090a600480360381019061090591906147af565b611f54565b6040516109179190614455565b60405180910390f35b61093a60048036038101906109359190614b02565b611f74565b005b61095660048036038101906109519190614842565b612218565b6040516109639190614455565b60405180910390f35b61098660048036038101906109819190614a70565b612283565b60405161099391906147eb565b60405180910390f35b6109a461229b565b6040516109b19190614705565b60405180910390f35b6109d460048036038101906109cf919061474c565b6122b1565b005b6109de612341565b6040516109eb91906147eb565b60405180910390f35b610a0e6004803603810190610a0991906147af565b612348565b604051610a1b91906146c4565b60405180910390f35b610a3e6004803603810190610a399190614b4f565b612f3e565b604051610a4b91906146c4565b60405180910390f35b610a5c612fe4565b604051610a699190614bb0565b60405180910390f35b610a8c6004803603810190610a8791906148fc565b61300a565b604051610a9991906147eb565b60405180910390f35b610abc6004803603810190610ab7919061474c565b613022565b005b610ad86004803603810190610ad39190614567565b6130b2565b005b610af46004803603810190610aef919061474c565b613142565b005b610b106004803603810190610b0b91906147af565b61328e565b604051610b1d91906146c4565b60405180910390f35b610b406004803603810190610b3b91906147af565b61332e565b005b610b4a613384565b604051610b579190614bec565b60405180910390f35b610b7a6004803603810190610b759190614567565b6133aa565b005b610b8461343a565b604051610b919190614c28565b60405180910390f35b610ba2613460565b604051610baf9190614c64565b60405180910390f35b610bd26004803603810190610bcd9190614842565b613486565b005b610bee6004803603810190610be9919061474c565b6134a7565b005b610bf8613537565b604051610c059190614ca0565b60405180910390f35b610c286004803603810190610c239190614567565b61355d565b005b610c446004803603810190610c3f91906147af565b6135ed565b604051610c519190614705565b60405180910390f35b610c746004803603810190610c6f9190614a70565b613610565b604051610c8191906147eb565b60405180910390f35b60ab60009054906101000a900473ffffffffffffffffffffffffffffffffffffffff1681565b60007f7965db0b000000000000000000000000000000000000000000000000000000007bffffffffffffffffffffffffffffffffffffffffffffffffffffffff1916827bffffffffffffffffffffffffffffffffffffffffffffffffffffffff19161480610d235750610d2282613628565b5b9050919050565b610d376000801b33612218565b610d76576040517f08c379a0000000000000000000000000000000000000000000000000000000008152600401610d6d90614d18565b60405180910390fd5b8060ab60006101000a81548173ffffffffffffffffffffffffffffffffffffffff021916908373ffffffffffffffffffffffffffffffffffffffff16021790555050565b60ad60009054906101000a900473ffffffffffffffffffffffffffffffffffffffff1681565b610ded6000801b33612218565b610e2c576040517f08c379a0000000000000000000000000000000000000000000000000000000008152600401610e2390614d18565b60405180910390fd5b8060aa60006101000a81548173ffffffffffffffffffffffffffffffffffffffff021916908373ffffffffffffffffffffffffffffffffffffffff16021790555050565b610e7d6000801b33612218565b610ebc576040517f08c379a0000000000000000000000000000000000000000000000000000000008152600401610eb390614d18565b60405180910390fd5b8060a760006101000a81548173ffffffffffffffffffffffffffffffffffffffff021916908373ffffffffffffffffffffffffffffffffffffffff16021790555050565b600060a16000837bffffffffffffffffffffffffffffffffffffffffffffffffffffffff19167bffffffffffffffffffffffffffffffffffffffffffffffffffffffff1916815260200190815260200160002060009054906101000a900463ffffffff1663ffffffff169050919050565b606060b260009054906101000a900473ffffffffffffffffffffffffffffffffffffffff1673ffffffffffffffffffffffffffffffffffffffff1663ee06b289336040518263ffffffff1660e01b8152600401610fce9190614d47565b602060405180830381865afa158015610feb573d6000803e3d6000fd5b505050506040513d601f19601f8201168201806040525081019061100f9190614d8e565b61104e576040517f08c379a000000000000000000000000000000000000000000000000000000000815260040161104590614e07565b60405180910390fd5b600060a460008581526020019081526020016000205490506000609c60008381526020019081526020016000205490506000609b54868361108f9190614e56565b116110a55785826110a09190614e56565b6110a9565b609b545b905060008282116110bb5760006110c8565b82826110c79190614e8a565b5b905060008067ffffffffffffffff8111156110e6576110e5614ebe565b5b6040519080825280601f01601f1916602001820160405280156111185781602001600182028036833780820191505090505b5090506000820361113057809550505050505061162e565b6000801b850361115157609d60008081526020019081526020016000205494505b60008267ffffffffffffffff81111561116d5761116c614ebe565b5b60405190808252806020026020018201604052801561119b5781602001602082028036833780820191505090505b509050600060b560009054906101000a900463ffffffff1663ffffffff16036111f257609f60009054906101000a900463ffffffff1660b560006101000a81548163ffffffff021916908363ffffffff1602179055505b60405180604001604052806001609f60009054906101000a900463ffffffff1661121c9190614eed565b63ffffffff168152602001897bffffffffffffffffffffffffffffffffffffffffffffffffffffffff191681525060b46000609f60009054906101000a900463ffffffff1663ffffffff1663ffffffff16815260200190815260200160002060008201518160000160006101000a81548163ffffffff021916908363ffffffff16021790555060208201518160000160046101000a81548163ffffffff021916908360e01c02179055509050506001609f60009054906101000a900463ffffffff166112e89190614eed565b609f60006101000a81548163ffffffff021916908363ffffffff1602179055506000600190505b6000801b87141580156113225750848611155b156113ef5782818860405160200161133b929190614f89565b60405160208183030381529060405260405160200161135b929190614ff1565b6040516020818303038152906040529250609f60009054906101000a900463ffffffff16609e600089815260200190815260200160002060006101000a81548163ffffffff021916908363ffffffff1602179055508660a460008c815260200190815260200160002081905550609d6000878152602001908152602001600020549650856113e890615015565b955061130f565b600061140e84609f60009054906101000a900463ffffffff168c613692565b9050600060ab60009054906101000a900473ffffffffffffffffffffffffffffffffffffffff1673ffffffffffffffffffffffffffffffffffffffff16630660bab9836040518263ffffffff1660e01b815260040161146d919061523c565b600060405180830381865afa15801561148a573d6000803e3d6000fd5b505050506040513d6000823e3d601f19601f820116820180604052508101906114b39190615350565b90506000818051906020012090508060a26000609f60009054906101000a900463ffffffff1663ffffffff1663ffffffff168152602001908152602001600020819055508160a360008381526020019081526020016000209081611517919061559b565b508b60a06000609f60009054906101000a900463ffffffff1663ffffffff1663ffffffff16815260200190815260200160002060006101000a81548163ffffffff021916908360e01c0217905550609f60009054906101000a900463ffffffff1660a160008e7bffffffffffffffffffffffffffffffffffffffffffffffffffffffff19167bffffffffffffffffffffffffffffffffffffffffffffffffffffffff1916815260200190815260200160002060006101000a81548163ffffffff021916908363ffffffff1602179055507ff87a467dc0f43e41c885972d62988d4ccb13345bf739b4dcb1f243692a3a4b80878260405161161892919061566d565b60405180910390a1819a50505050505050505050505b92915050565b60a16020528060005260406000206000915054906101000a900463ffffffff1681565b6116646000801b33612218565b6116a3576040517f08c379a000000000000000000000000000000000000000000000000000000000815260040161169a90614d18565b60405180910390fd5b8060ad60006101000a81548173ffffffffffffffffffffffffffffffffffffffff021916908373ffffffffffffffffffffffffffffffffffffffff16021790555050565b600060656000838152602001908152602001600020600101549050919050565b60b160009054906101000a900473ffffffffffffffffffffffffffffffffffffffff1681565b611736826116e7565b61173f816139a5565b61174983836139b9565b505050565b60976020528060005260406000206000915090505481565b61176e613a9a565b73ffffffffffffffffffffffffffffffffffffffff168173ffffffffffffffffffffffffffffffffffffffff16146117db576040517f08c379a00000000000000000000000000000000000000000000000000000000081526004016117d290615708565b60405180910390fd5b6117e58282613aa2565b5050565b60b260009054906101000a900473ffffffffffffffffffffffffffffffffffffffff1681565b609b5481565b606060008067ffffffffffffffff81111561183357611832614ebe565b5b6040519080825280601f01601f1916602001820160405280156118655781602001600182028036833780820191505090505b5090506000818051906020012090508060a5600086815260200190815260200160002060405161189591906157ab565b6040518091039020146119475760a5600085815260200190815260200160002080546118c0906153c8565b80601f01602080910402602001604051908101604052809291908181526020018280546118ec906153c8565b80156119395780601f1061190e57610100808354040283529160200191611939565b820191906000526020600020905b81548152906001019060200180831161191c57829003601f168201915b505050505092505050611a6c565b6000609e600086815260200190815260200160002060009054906101000a900463ffffffff1663ffffffff161115611a6657600060a26000609e600088815260200190815260200160002060009054906101000a900463ffffffff1663ffffffff1663ffffffff16815260200190815260200160002054905060a3600082815260200190815260200160002080546119de906153c8565b80601f0160208091040260200160405190810160405280929190818152602001828054611a0a906153c8565b8015611a575780601f10611a2c57610100808354040283529160200191611a57565b820191906000526020600020905b815481529060010190602001808311611a3a57829003601f168201915b50505050509350505050611a6c565b81925050505b919050565b611a7e6000801b33612218565b611abd576040517f08c379a0000000000000000000000000000000000000000000000000000000008152600401611ab490614d18565b60405180910390fd5b8060b160006101000a81548173ffffffffffffffffffffffffffffffffffffffff021916908373ffffffffffffffffffffffffffffffffffffffff16021790555050565b600060b260009054906101000a900473ffffffffffffffffffffffffffffffffffffffff1673ffffffffffffffffffffffffffffffffffffffff1663ee06b289336040518263ffffffff1660e01b8152600401611b5e9190614d47565b602060405180830381865afa158015611b7b573d6000803e3d6000fd5b505050506040513d601f19601f82011682018060405250810190611b9f9190614d8e565b611bde576040517f08c379a0000000000000000000000000000000000000000000000000000000008152600401611bd590614e07565b60405180910390fd5b611be782613b84565b9050919050565b60b46020528060005260406000206000915090508060000160009054906101000a900463ffffffff16908060000160049054906101000a900460e01b905082565b609a6020528060005260406000206000915090505481565b60b35481565b609c6020528060005260406000206000915090505481565b60a960009054906101000a900473ffffffffffffffffffffffffffffffffffffffff1681565b60986020528060005260406000206000915090505481565b609f60009054906101000a900463ffffffff1681565b611cc66000801b33612218565b611d05576040517f08c379a0000000000000000000000000000000000000000000000000000000008152600401611cfc90614d18565b60405180910390fd5b8060a960006101000a81548173ffffffffffffffffffffffffffffffffffffffff021916908373ffffffffffffffffffffffffffffffffffffffff16021790555050565b60b060009054906101000a900473ffffffffffffffffffffffffffffffffffffffff1681565b60a66020528060005260406000206000915090508054611d8e906153c8565b80601f0160208091040260200160405190810160405280929190818152602001828054611dba906153c8565b8015611e075780601f10611ddc57610100808354040283529160200191611e07565b820191906000526020600020905b815481529060010190602001808311611dea57829003601f168201915b505050505081565b60a06020528060005260406000206000915054906101000a900460e01b81565b60aa60009054906101000a900473ffffffffffffffffffffffffffffffffffffffff1681565b60a36020528060005260406000206000915090508054611e74906153c8565b80601f0160208091040260200160405190810160405280929190818152602001828054611ea0906153c8565b8015611eed5780601f10611ec257610100808354040283529160200191611eed565b820191906000526020600020905b815481529060010190602001808311611ed057829003601f168201915b505050505081565b600060a260008363ffffffff1663ffffffff16815260200190815260200160002054905092915050565b60008060a46000848152602001908152602001600020549050609c600082815260200190815260200160002054915050919050565b60996020528060005260406000206000915054906101000a900460ff1681565b60b260009054906101000a900473ffffffffffffffffffffffffffffffffffffffff1673ffffffffffffffffffffffffffffffffffffffff1663ee06b289336040518263ffffffff1660e01b8152600401611fcf9190614d47565b602060405180830381865afa158015611fec573d6000803e3d6000fd5b505050506040513d601f19601f820116820180604052508101906120109190614d8e565b61204f576040517f08c379a000000000000000000000000000000000000000000000000000000000815260040161204690614e07565b60405180910390fd5b6000805b838390508110156121db576000848483818110612073576120726157c2565b5b905060200201353360405160200161208c929190615839565b604051602081830303815290604052805190602001209050600115156099600083815260200190815260200160002060009054906101000a900460ff161515036120d657506121ce565b60b060009054906101000a900473ffffffffffffffffffffffffffffffffffffffff1673ffffffffffffffffffffffffffffffffffffffff1663eacce00a868685818110612127576121266157c2565b5b905060200201356040518263ffffffff1660e01b815260040161214a91906147eb565b602060405180830381865afa158015612167573d6000803e3d6000fd5b505050506040513d601f19601f8201168201806040525081019061218b9190614d8e565b61219557506121ce565b6121b78585848181106121ab576121aa6157c2565b5b90506020020135613b84565b156121cc576001836121c99190614e56565b92505b505b8080600101915050612053565b507f900e35b5b7ca1f0ede322c07c899ecaf08f6ba3cc40d96e46391cb175d941a3b8160405161220b91906145ad565b60405180910390a1505050565b60006065600084815260200190815260200160002060000160008373ffffffffffffffffffffffffffffffffffffffff1673ffffffffffffffffffffffffffffffffffffffff16815260200190815260200160002060009054906101000a900460ff16905092915050565b60a46020528060005260406000206000915090505481565b60b560009054906101000a900463ffffffff1681565b6122be6000801b33612218565b6122fd576040517f08c379a00000000000000000000000000000000000000000000000000000000081526004016122f490614d18565b60405180910390fd5b8060b060006101000a81548173ffffffffffffffffffffffffffffffffffffffff021916908373ffffffffffffffffffffffffffffffffffffffff16021790555050565b6000801b81565b606060003073ffffffffffffffffffffffffffffffffffffffff16633dc23634846040518263ffffffff1660e01b815260040161238591906147eb565b600060405180830381865afa1580156123a2573d6000803e3d6000fd5b505050506040513d6000823e3d601f19601f820116820180604052508101906123cb9190615350565b905060008067ffffffffffffffff8111156123e9576123e8614ebe565b5b6040519080825280601f01601f19166020018201604052801561241b5781602001600182028036833780820191505090505b50905060008180519060200120905080838051906020012014612556578060a5600087815260200190815260200160002060405161245991906157ab565b6040518091039020036124b0578260a560008781526020019081526020016000209081612486919061559b565b508260a660008580519060200120815260200190815260200160002090816124ae919061559b565b505b60a5600086815260200190815260200160002080546124ce906153c8565b80601f01602080910402602001604051908101604052809291908181526020018280546124fa906153c8565b80156125475780601f1061251c57610100808354040283529160200191612547565b820191906000526020600020905b81548152906001019060200180831161252a57829003601f168201915b50505050509350505050612f39565b600073ffffffffffffffffffffffffffffffffffffffff1660ac60009054906101000a900473ffffffffffffffffffffffffffffffffffffffff1673ffffffffffffffffffffffffffffffffffffffff161415801561265c57508060ac60009054906101000a900473ffffffffffffffffffffffffffffffffffffffff1673ffffffffffffffffffffffffffffffffffffffff16633dc23634876040518263ffffffff1660e01b815260040161260c91906147eb565b600060405180830381865afa158015612629573d6000803e3d6000fd5b505050506040513d6000823e3d601f19601f820116820180604052508101906126529190615350565b8051906020012014155b156127cd5760ac60009054906101000a900473ffffffffffffffffffffffffffffffffffffffff1673ffffffffffffffffffffffffffffffffffffffff16633dc23634866040518263ffffffff1660e01b81526004016126bc91906147eb565b600060405180830381865afa1580156126d9573d6000803e3d6000fd5b505050506040513d6000823e3d601f19601f820116820180604052508101906127029190615350565b60a560008781526020019081526020016000209081612721919061559b565b5060ac60009054906101000a900473ffffffffffffffffffffffffffffffffffffffff1673ffffffffffffffffffffffffffffffffffffffff16633dc23634866040518263ffffffff1660e01b815260040161277d91906147eb565b600060405180830381865afa15801561279a573d6000803e3d6000fd5b505050506040513d6000823e3d601f19601f820116820180604052508101906127c39190615350565b9350505050612f39565b600073ffffffffffffffffffffffffffffffffffffffff1660a860009054906101000a900473ffffffffffffffffffffffffffffffffffffffff1673ffffffffffffffffffffffffffffffffffffffff16141580156128d357508060a860009054906101000a900473ffffffffffffffffffffffffffffffffffffffff1673ffffffffffffffffffffffffffffffffffffffff16633dc23634876040518263ffffffff1660e01b815260040161288391906147eb565b600060405180830381865afa1580156128a0573d6000803e3d6000fd5b505050506040513d6000823e3d601f19601f820116820180604052508101906128c99190615350565b8051906020012014155b15612a445760a860009054906101000a900473ffffffffffffffffffffffffffffffffffffffff1673ffffffffffffffffffffffffffffffffffffffff16633dc23634866040518263ffffffff1660e01b815260040161293391906147eb565b600060405180830381865afa158015612950573d6000803e3d6000fd5b505050506040513d6000823e3d601f19601f820116820180604052508101906129799190615350565b60a560008781526020019081526020016000209081612998919061559b565b5060a860009054906101000a900473ffffffffffffffffffffffffffffffffffffffff1673ffffffffffffffffffffffffffffffffffffffff16633dc23634866040518263ffffffff1660e01b81526004016129f491906147eb565b600060405180830381865afa158015612a11573d6000803e3d6000fd5b505050506040513d6000823e3d601f19601f82011682018060405250810190612a3a9190615350565b9350505050612f39565b600073ffffffffffffffffffffffffffffffffffffffff1660a960009054906101000a900473ffffffffffffffffffffffffffffffffffffffff1673ffffffffffffffffffffffffffffffffffffffff1614158015612b4a57508060a960009054906101000a900473ffffffffffffffffffffffffffffffffffffffff1673ffffffffffffffffffffffffffffffffffffffff16633dc23634876040518263ffffffff1660e01b8152600401612afa91906147eb565b600060405180830381865afa158015612b17573d6000803e3d6000fd5b505050506040513d6000823e3d601f19601f82011682018060405250810190612b409190615350565b8051906020012014155b15612cbb5760a960009054906101000a900473ffffffffffffffffffffffffffffffffffffffff1673ffffffffffffffffffffffffffffffffffffffff16633dc23634866040518263ffffffff1660e01b8152600401612baa91906147eb565b600060405180830381865afa158015612bc7573d6000803e3d6000fd5b505050506040513d6000823e3d601f19601f82011682018060405250810190612bf09190615350565b60a560008781526020019081526020016000209081612c0f919061559b565b5060a960009054906101000a900473ffffffffffffffffffffffffffffffffffffffff1673ffffffffffffffffffffffffffffffffffffffff16633dc23634866040518263ffffffff1660e01b8152600401612c6b91906147eb565b600060405180830381865afa158015612c88573d6000803e3d6000fd5b505050506040513d6000823e3d601f19601f82011682018060405250810190612cb19190615350565b9350505050612f39565b600073ffffffffffffffffffffffffffffffffffffffff1660aa60009054906101000a900473ffffffffffffffffffffffffffffffffffffffff1673ffffffffffffffffffffffffffffffffffffffff1614158015612dc157508060aa60009054906101000a900473ffffffffffffffffffffffffffffffffffffffff1673ffffffffffffffffffffffffffffffffffffffff16633dc23634876040518263ffffffff1660e01b8152600401612d7191906147eb565b600060405180830381865afa158015612d8e573d6000803e3d6000fd5b505050506040513d6000823e3d601f19601f82011682018060405250810190612db79190615350565b8051906020012014155b15612f325760aa60009054906101000a900473ffffffffffffffffffffffffffffffffffffffff1673ffffffffffffffffffffffffffffffffffffffff16633dc23634866040518263ffffffff1660e01b8152600401612e2191906147eb565b600060405180830381865afa158015612e3e573d6000803e3d6000fd5b505050506040513d6000823e3d601f19601f82011682018060405250810190612e679190615350565b60a560008781526020019081526020016000209081612e86919061559b565b5060aa60009054906101000a900473ffffffffffffffffffffffffffffffffffffffff1673ffffffffffffffffffffffffffffffffffffffff16633dc23634866040518263ffffffff1660e01b8152600401612ee291906147eb565b600060405180830381865afa158015612eff573d6000803e3d6000fd5b505050506040513d6000823e3d601f19601f82011682018060405250810190612f289190615350565b9350505050612f39565b8193505050505b919050565b606060a660008381526020019081526020016000208054612f5e906153c8565b80601f0160208091040260200160405190810160405280929190818152602001828054612f8a906153c8565b8015612fd75780601f10612fac57610100808354040283529160200191612fd7565b820191906000526020600020905b815481529060010190602001808311612fba57829003601f168201915b5050505050905092915050565b60ae60009054906101000a900473ffffffffffffffffffffffffffffffffffffffff1681565b60a26020528060005260406000206000915090505481565b61302f6000801b33612218565b61306e576040517f08c379a000000000000000000000000000000000000000000000000000000000815260040161306590614d18565b60405180910390fd5b8060ae60006101000a81548173ffffffffffffffffffffffffffffffffffffffff021916908373ffffffffffffffffffffffffffffffffffffffff16021790555050565b6130bf6000801b33612218565b6130fe576040517f08c379a00000000000000000000000000000000000000000000000000000000081526004016130f590614d18565b60405180910390fd5b8060a860006101000a81548173ffffffffffffffffffffffffffffffffffffffff021916908373ffffffffffffffffffffffffffffffffffffffff16021790555050565b60008060019054906101000a900460ff161590508080156131735750600160008054906101000a900460ff1660ff16105b806131a0575061318230613f5a565b15801561319f5750600160008054906101000a900460ff1660ff16145b5b6131df576040517f08c379a00000000000000000000000000000000000000000000000000000000081526004016131d6906158d7565b60405180910390fd5b60016000806101000a81548160ff021916908360ff160217905550801561321c576001600060016101000a81548160ff0219169083151502179055505b613224613f7d565b6132316000801b836139b9565b801561328a5760008060016101000a81548160ff0219169083151502179055507f7f26b83ff96e1f2b6a682f133852f6798a09c465da95921460cefb384740249860016040516132819190615932565b60405180910390a15b5050565b60a560205280600052604060002060009150905080546132ad906153c8565b80601f01602080910402602001604051908101604052809291908181526020018280546132d9906153c8565b80156133265780601f106132fb57610100808354040283529160200191613326565b820191906000526020600020905b81548152906001019060200180831161330957829003601f168201915b505050505081565b61333b6000801b33612218565b61337a576040517f08c379a000000000000000000000000000000000000000000000000000000000815260040161337190614d18565b60405180910390fd5b8060b38190555050565b60af60009054906101000a900473ffffffffffffffffffffffffffffffffffffffff1681565b6133b76000801b33612218565b6133f6576040517f08c379a00000000000000000000000000000000000000000000000000000000081526004016133ed90614d18565b60405180910390fd5b8060b260006101000a81548173ffffffffffffffffffffffffffffffffffffffff021916908373ffffffffffffffffffffffffffffffffffffffff16021790555050565b60a860009054906101000a900473ffffffffffffffffffffffffffffffffffffffff1681565b60ac60009054906101000a900473ffffffffffffffffffffffffffffffffffffffff1681565b61348f826116e7565b613498816139a5565b6134a28383613aa2565b505050565b6134b46000801b33612218565b6134f3576040517f08c379a00000000000000000000000000000000000000000000000000000000081526004016134ea90614d18565b60405180910390fd5b8060af60006101000a81548173ffffffffffffffffffffffffffffffffffffffff021916908373ffffffffffffffffffffffffffffffffffffffff16021790555050565b60a760009054906101000a900473ffffffffffffffffffffffffffffffffffffffff1681565b61356a6000801b33612218565b6135a9576040517f08c379a00000000000000000000000000000000000000000000000000000000081526004016135a090614d18565b60405180910390fd5b8060ac60006101000a81548173ffffffffffffffffffffffffffffffffffffffff021916908373ffffffffffffffffffffffffffffffffffffffff16021790555050565b609e6020528060005260406000206000915054906101000a900463ffffffff1681565b609d6020528060005260406000206000915090505481565b60007f01ffc9a7000000000000000000000000000000000000000000000000000000007bffffffffffffffffffffffffffffffffffffffffffffffffffffffff1916827bffffffffffffffffffffffffffffffffffffffffffffffffffffffff1916149050919050565b61369a6142bc565b600060b260009054906101000a900473ffffffffffffffffffffffffffffffffffffffff1673ffffffffffffffffffffffffffffffffffffffff1663484f657b6040518163ffffffff1660e01b8152600401600060405180830381865afa158015613709573d6000803e3d6000fd5b505050506040513d6000823e3d601f19601f820116820180604052508101906137329190615a25565b9050600060b260009054906101000a900473ffffffffffffffffffffffffffffffffffffffff1673ffffffffffffffffffffffffffffffffffffffff1663d34ad5796040518163ffffffff1660e01b8152600401600060405180830381865afa1580156137a3573d6000803e3d6000fd5b505050506040513d6000823e3d601f19601f820116820180604052508101906137cc9190615a25565b905060008067ffffffffffffffff8111156137ea576137e9614ebe565b5b6040519080825280602002602001820160405280156138185781602001602082028036833780820191505090505b509050600060ab60009054906101000a900473ffffffffffffffffffffffffffffffffffffffff1673ffffffffffffffffffffffffffffffffffffffff16633014cbc9856040518263ffffffff1660e01b81526004016138789190615add565b602060405180830381865afa158015613895573d6000803e3d6000fd5b505050506040513d601f19601f820116820180604052508101906138b99190615b14565b9050600060ab60009054906101000a900473ffffffffffffffffffffffffffffffffffffffff1673ffffffffffffffffffffffffffffffffffffffff16633014cbc9856040518263ffffffff1660e01b81526004016139189190615add565b602060405180830381865afa158015613935573d6000803e3d6000fd5b505050506040513d601f19601f820116820180604052508101906139599190615b14565b90506040518060e001604052806000151581526020018381526020018281526020018481526020018481526020018a81526020018963ffffffff16815250955050505050509392505050565b6139b6816139b1613a9a565b613fce565b50565b6139c38282612218565b613a965760016065600084815260200190815260200160002060000160008373ffffffffffffffffffffffffffffffffffffffff1673ffffffffffffffffffffffffffffffffffffffff16815260200190815260200160002060006101000a81548160ff021916908315150217905550613a3b613a9a565b73ffffffffffffffffffffffffffffffffffffffff168173ffffffffffffffffffffffffffffffffffffffff16837f2f8788117e7eff1d82e926ec794901d17c78024a50270940304540a733656f0d60405160405180910390a45b5050565b600033905090565b613aac8282612218565b15613b805760006065600084815260200190815260200160002060000160008373ffffffffffffffffffffffffffffffffffffffff1673ffffffffffffffffffffffffffffffffffffffff16815260200190815260200160002060006101000a81548160ff021916908315150217905550613b25613a9a565b73ffffffffffffffffffffffffffffffffffffffff168173ffffffffffffffffffffffffffffffffffffffff16837ff6391f5c32d9c69d2a47ea670b442974b53935d1edc7fd64eb21e047a839171b60405160405180910390a45b5050565b6000808233604051602001613b9a929190615839565b604051602081830303815290604052805190602001209050600115156099600083815260200190815260200160002060009054906101000a900460ff16151503613be8576000915050613f55565b60016099600083815260200190815260200160002060006101000a81548160ff0219169083151502179055506001609a60008581526020019081526020016000206000828254613c389190614e56565b9250508190555060b060009054906101000a900473ffffffffffffffffffffffffffffffffffffffff1673ffffffffffffffffffffffffffffffffffffffff1663eacce00a846040518263ffffffff1660e01b8152600401613c9a91906147eb565b602060405180830381865afa158015613cb7573d6000803e3d6000fd5b505050506040513d601f19601f82011682018060405250810190613cdb9190614d8e565b613d1a576040517f08c379a0000000000000000000000000000000000000000000000000000000008152600401613d1190615b8d565b60405180910390fd5b600060ac60009054906101000a900473ffffffffffffffffffffffffffffffffffffffff1673ffffffffffffffffffffffffffffffffffffffff16633dc23634856040518263ffffffff1660e01b8152600401613d7791906147eb565b600060405180830381865afa158015613d94573d6000803e3d6000fd5b505050506040513d6000823e3d601f19601f82011682018060405250810190613dbd9190615350565b511115613e05577f4c822e6e7d1fd6d1e4bbcc4393e6660296d4ea2746bda2a76359997a8876ceea83604051613df391906147eb565b60405180910390a16000915050613f55565b60b260009054906101000a900473ffffffffffffffffffffffffffffffffffffffff1673ffffffffffffffffffffffffffffffffffffffff1663c26c12eb6040518163ffffffff1660e01b8152600401602060405180830381865afa158015613e72573d6000803e3d6000fd5b505050506040513d601f19601f82011682018060405250810190613e969190615bc2565b609a60008581526020019081526020016000205410613f4f57609b54609c60008581526020019081526020016000208190555082609d6000609b5481526020019081526020016000208190555082609d6000609b548152602001908152602001600020819055506001609b6000828254613f109190614e56565b925050819055507fd2b827007b94414d006e643f549cb8e3a624c5efff2eabb0e7563a1f69fadab483604051613f4691906147eb565b60405180910390a15b60019150505b919050565b6000808273ffffffffffffffffffffffffffffffffffffffff163b119050919050565b600060019054906101000a900460ff16613fcc576040517f08c379a0000000000000000000000000000000000000000000000000000000008152600401613fc390615c61565b60405180910390fd5b565b613fd88282612218565b61404f57613fe581614053565b613ff38360001c6020614080565b604051602001614004929190615d60565b6040516020818303038152906040526040517f08c379a00000000000000000000000000000000000000000000000000000000081526004016140469190615dd3565b60405180910390fd5b5050565b60606140798273ffffffffffffffffffffffffffffffffffffffff16601460ff16614080565b9050919050565b6060600060028360026140939190615df5565b61409d9190614e56565b67ffffffffffffffff8111156140b6576140b5614ebe565b5b6040519080825280601f01601f1916602001820160405280156140e85781602001600182028036833780820191505090505b5090507f3000000000000000000000000000000000000000000000000000000000000000816000815181106141205761411f6157c2565b5b60200101907effffffffffffffffffffffffffffffffffffffffffffffffffffffffffffff1916908160001a9053507f780000000000000000000000000000000000000000000000000000000000000081600181518110614184576141836157c2565b5b60200101907effffffffffffffffffffffffffffffffffffffffffffffffffffffffffffff1916908160001a905350600060018460026141c49190615df5565b6141ce9190614e56565b90505b600181111561426e577f3031323334353637383961626364656600000000000000000000000000000000600f8616601081106142105761420f6157c2565b5b1a60f81b828281518110614227576142266157c2565b5b60200101907effffffffffffffffffffffffffffffffffffffffffffffffffffffffffffff1916908160001a905350600485901c94508061426790615e37565b90506141d1565b50600084146142b2576040517f08c379a00000000000000000000000000000000000000000000000000000000081526004016142a990615eac565b60405180910390fd5b8091505092915050565b6040518060e001604052806000151581526020016000801916815260200160008019168152602001606081526020016060815260200160608152602001600063ffffffff1681525090565b600073ffffffffffffffffffffffffffffffffffffffff82169050919050565b6000819050919050565b600061434c61434761434284614307565b614327565b614307565b9050919050565b600061435e82614331565b9050919050565b600061437082614353565b9050919050565b61438081614365565b82525050565b600060208201905061439b6000830184614377565b92915050565b6000604051905090565b600080fd5b600080fd5b60007fffffffff0000000000000000000000000000000000000000000000000000000082169050919050565b6143ea816143b5565b81146143f557600080fd5b50565b600081359050614407816143e1565b92915050565b600060208284031215614423576144226143ab565b5b6000614431848285016143f8565b91505092915050565b60008115159050919050565b61444f8161443a565b82525050565b600060208201905061446a6000830184614446565b92915050565b600061447b82614307565b9050919050565b600061448d82614470565b9050919050565b61449d81614482565b81146144a857600080fd5b50565b6000813590506144ba81614494565b92915050565b6000602082840312156144d6576144d56143ab565b5b60006144e4848285016144ab565b91505092915050565b60006144f882614353565b9050919050565b614508816144ed565b82525050565b600060208201905061452360008301846144ff565b92915050565b600061453482614307565b9050919050565b61454481614529565b811461454f57600080fd5b50565b6000813590506145618161453b565b92915050565b60006020828403121561457d5761457c6143ab565b5b600061458b84828501614552565b91505092915050565b6000819050919050565b6145a781614594565b82525050565b60006020820190506145c2600083018461459e565b92915050565b6145d181614594565b81146145dc57600080fd5b50565b6000813590506145ee816145c8565b92915050565b6000806040838503121561460b5761460a6143ab565b5b6000614619858286016145df565b925050602061462a858286016143f8565b9150509250929050565b600081519050919050565b600082825260208201905092915050565b60005b8381101561466e578082015181840152602081019050614653565b60008484015250505050565b6000601f19601f8301169050919050565b600061469682614634565b6146a0818561463f565b93506146b0818560208601614650565b6146b98161467a565b840191505092915050565b600060208201905081810360008301526146de818461468b565b905092915050565b600063ffffffff82169050919050565b6146ff816146e6565b82525050565b600060208201905061471a60008301846146f6565b92915050565b61472981614470565b811461473457600080fd5b50565b60008135905061474681614720565b92915050565b600060208284031215614762576147616143ab565b5b600061477084828501614737565b91505092915050565b6000819050919050565b61478c81614779565b811461479757600080fd5b50565b6000813590506147a981614783565b92915050565b6000602082840312156147c5576147c46143ab565b5b60006147d38482850161479a565b91505092915050565b6147e581614779565b82525050565b600060208201905061480060008301846147dc565b92915050565b600061481182614353565b9050919050565b61482181614806565b82525050565b600060208201905061483c6000830184614818565b92915050565b60008060408385031215614859576148586143ab565b5b60006148678582860161479a565b925050602061487885828601614737565b9150509250929050565b600061488d82614331565b9050919050565b600061489f82614882565b9050919050565b6148af81614894565b82525050565b60006020820190506148ca60008301846148a6565b92915050565b6148d9816146e6565b81146148e457600080fd5b50565b6000813590506148f6816148d0565b92915050565b600060208284031215614912576149116143ab565b5b6000614920848285016148e7565b91505092915050565b614932816143b5565b82525050565b600060408201905061494d60008301856146f6565b61495a6020830184614929565b9392505050565b600061496c82614882565b9050919050565b61497c81614961565b82525050565b60006020820190506149976000830184614973565b92915050565b60006149a882614353565b9050919050565b6149b88161499d565b82525050565b60006020820190506149d360008301846149af565b92915050565b60006020820190506149ee6000830184614929565b92915050565b60006149ff82614882565b9050919050565b614a0f816149f4565b82525050565b6000602082019050614a2a6000830184614a06565b92915050565b60008060408385031215614a4757614a466143ab565b5b6000614a55858286016143f8565b9250506020614a66858286016148e7565b9150509250929050565b600060208284031215614a8657614a856143ab565b5b6000614a94848285016145df565b91505092915050565b600080fd5b600080fd5b600080fd5b60008083601f840112614ac257614ac1614a9d565b5b8235905067ffffffffffffffff811115614adf57614ade614aa2565b5b602083019150836020820283011115614afb57614afa614aa7565b5b9250929050565b60008060208385031215614b1957614b186143ab565b5b600083013567ffffffffffffffff811115614b3757614b366143b0565b5b614b4385828601614aac565b92509250509250929050565b60008060408385031215614b6657614b656143ab565b5b6000614b74858286016143f8565b9250506020614b858582860161479a565b9150509250929050565b6000614b9a82614353565b9050919050565b614baa81614b8f565b82525050565b6000602082019050614bc56000830184614ba1565b92915050565b6000614bd682614353565b9050919050565b614be681614bcb565b82525050565b6000602082019050614c016000830184614bdd565b92915050565b6000614c1282614882565b9050919050565b614c2281614c07565b82525050565b6000602082019050614c3d6000830184614c19565b92915050565b6000614c4e82614353565b9050919050565b614c5e81614c43565b82525050565b6000602082019050614c796000830184614c55565b92915050565b6000614c8a82614882565b9050919050565b614c9a81614c7f565b82525050565b6000602082019050614cb56000830184614c91565b92915050565b600082825260208201905092915050565b7f5047233100000000000000000000000000000000000000000000000000000000600082015250565b6000614d02600483614cbb565b9150614d0d82614ccc565b602082019050919050565b60006020820190508181036000830152614d3181614cf5565b9050919050565b614d4181614470565b82525050565b6000602082019050614d5c6000830184614d38565b92915050565b614d6b8161443a565b8114614d7657600080fd5b50565b600081519050614d8881614d62565b92915050565b600060208284031215614da457614da36143ab565b5b6000614db284828501614d79565b91505092915050565b7f5047233000000000000000000000000000000000000000000000000000000000600082015250565b6000614df1600483614cbb565b9150614dfc82614dbb565b602082019050919050565b60006020820190508181036000830152614e2081614de4565b9050919050565b7f4e487b7100000000000000000000000000000000000000000000000000000000600052601160045260246000fd5b6000614e6182614594565b9150614e6c83614594565b9250828201905080821115614e8457614e83614e27565b5b92915050565b6000614e9582614594565b9150614ea083614594565b9250828203905081811115614eb857614eb7614e27565b5b92915050565b7f4e487b7100000000000000000000000000000000000000000000000000000000600052604160045260246000fd5b6000614ef8826146e6565b9150614f03836146e6565b9250828201905063ffffffff811115614f1f57614f1e614e27565b5b92915050565b600060ff82169050919050565b60008160f81b9050919050565b6000614f4a82614f32565b9050919050565b614f62614f5d82614f25565b614f3f565b82525050565b6000819050919050565b614f83614f7e82614779565b614f68565b82525050565b6000614f958285614f51565b600182019150614fa58284614f72565b6020820191508190509392505050565b600081905092915050565b6000614fcb82614634565b614fd58185614fb5565b9350614fe5818560208601614650565b80840191505092915050565b6000614ffd8285614fc0565b91506150098284614fc0565b91508190509392505050565b600061502082614594565b91507fffffffffffffffffffffffffffffffffffffffffffffffffffffffffffffffff820361505257615051614e27565b5b600182019050919050565b6150668161443a565b82525050565b61507581614779565b82525050565b600081519050919050565b600082825260208201905092915050565b6000819050602082019050919050565b6150b081614470565b82525050565b60006150c283836150a7565b60208301905092915050565b6000602082019050919050565b60006150e68261507b565b6150f08185615086565b93506150fb83615097565b8060005b8381101561512c57815161511388826150b6565b975061511e836150ce565b9250506001810190506150ff565b5085935050505092915050565b600082825260208201905092915050565b600061515582614634565b61515f8185615139565b935061516f818560208601614650565b6151788161467a565b840191505092915050565b61518c816146e6565b82525050565b600060e0830160008301516151aa600086018261505d565b5060208301516151bd602086018261506c565b5060408301516151d0604086018261506c565b50606083015184820360608601526151e882826150db565b9150506080830151848203608086015261520282826150db565b91505060a083015184820360a086015261521c828261514a565b91505060c083015161523160c0860182615183565b508091505092915050565b600060208201905081810360008301526152568184615192565b905092915050565b600080fd5b61526c8261467a565b810181811067ffffffffffffffff8211171561528b5761528a614ebe565b5b80604052505050565b600061529e6143a1565b90506152aa8282615263565b919050565b600067ffffffffffffffff8211156152ca576152c9614ebe565b5b6152d38261467a565b9050602081019050919050565b60006152f36152ee846152af565b615294565b90508281526020810184848401111561530f5761530e61525e565b5b61531a848285614650565b509392505050565b600082601f83011261533757615336614a9d565b5b81516153478482602086016152e0565b91505092915050565b600060208284031215615366576153656143ab565b5b600082015167ffffffffffffffff811115615384576153836143b0565b5b61539084828501615322565b91505092915050565b7f4e487b7100000000000000000000000000000000000000000000000000000000600052602260045260246000fd5b600060028204905060018216806153e057607f821691505b6020821081036153f3576153f2615399565b5b50919050565b60008190508160005260206000209050919050565b60006020601f8301049050919050565b600082821b905092915050565b60006008830261545b7fffffffffffffffffffffffffffffffffffffffffffffffffffffffffffffffff8261541e565b615465868361541e565b95508019841693508086168417925050509392505050565b600061549861549361548e84614594565b614327565b614594565b9050919050565b6000819050919050565b6154b28361547d565b6154c66154be8261549f565b84845461542b565b825550505050565b600090565b6154db6154ce565b6154e68184846154a9565b505050565b5b8181101561550a576154ff6000826154d3565b6001810190506154ec565b5050565b601f82111561554f57615520816153f9565b6155298461540e565b81016020851015615538578190505b61554c6155448561540e565b8301826154eb565b50505b505050565b600082821c905092915050565b600061557260001984600802615554565b1980831691505092915050565b600061558b8383615561565b9150826002028217905092915050565b6155a482614634565b67ffffffffffffffff8111156155bd576155bc614ebe565b5b6155c782546153c8565b6155d282828561550e565b600060209050601f83116001811461560557600084156155f3578287015190505b6155fd858261557f565b865550615665565b601f198416615613866153f9565b60005b8281101561563b57848901518255600182019150602085019450602081019050615616565b868310156156585784890151615654601f891682615561565b8355505b6001600288020188555050505b505050505050565b6000604082019050615682600083018561459e565b61568f60208301846147dc565b9392505050565b7f416363657373436f6e74726f6c3a2063616e206f6e6c792072656e6f756e636560008201527f20726f6c657320666f722073656c660000000000000000000000000000000000602082015250565b60006156f2602f83614cbb565b91506156fd82615696565b604082019050919050565b60006020820190508181036000830152615721816156e5565b9050919050565b60008154615735816153c8565b61573f8186614fb5565b9450600182166000811461575a576001811461576f576157a2565b60ff19831686528115158202860193506157a2565b615778856153f9565b60005b8381101561579a5781548189015260018201915060208101905061577b565b838801955050505b50505092915050565b60006157b78284615728565b915081905092915050565b7f4e487b7100000000000000000000000000000000000000000000000000000000600052603260045260246000fd5b60008160601b9050919050565b6000615809826157f1565b9050919050565b600061581b826157fe565b9050919050565b61583361582e82614470565b615810565b82525050565b60006158458285614f72565b6020820191506158558284615822565b6014820191508190509392505050565b7f496e697469616c697a61626c653a20636f6e747261637420697320616c72656160008201527f647920696e697469616c697a6564000000000000000000000000000000000000602082015250565b60006158c1602e83614cbb565b91506158cc82615865565b604082019050919050565b600060208201905081810360008301526158f0816158b4565b9050919050565b6000819050919050565b600061591c615917615912846158f7565b614327565b614f25565b9050919050565b61592c81615901565b82525050565b60006020820190506159476000830184615923565b92915050565b600067ffffffffffffffff82111561596857615967614ebe565b5b602082029050602081019050919050565b60008151905061598881614720565b92915050565b60006159a161599c8461594d565b615294565b905080838252602082019050602084028301858111156159c4576159c3614aa7565b5b835b818110156159ed57806159d98882615979565b8452602084019350506020810190506159c6565b5050509392505050565b600082601f830112615a0c57615a0b614a9d565b5b8151615a1c84826020860161598e565b91505092915050565b600060208284031215615a3b57615a3a6143ab565b5b600082015167ffffffffffffffff811115615a5957615a586143b0565b5b615a65848285016159f7565b91505092915050565b600082825260208201905092915050565b6000615a8a8261507b565b615a948185615a6e565b9350615a9f83615097565b8060005b83811015615ad0578151615ab788826150b6565b9750615ac2836150ce565b925050600181019050615aa3565b5085935050505092915050565b60006020820190508181036000830152615af78184615a7f565b905092915050565b600081519050615b0e81614783565b92915050565b600060208284031215615b2a57615b296143ab565b5b6000615b3884828501615aff565b91505092915050565b7f5047233200000000000000000000000000000000000000000000000000000000600082015250565b6000615b77600483614cbb565b9150615b8282615b41565b602082019050919050565b60006020820190508181036000830152615ba681615b6a565b9050919050565b600081519050615bbc816145c8565b92915050565b600060208284031215615bd857615bd76143ab565b5b6000615be684828501615bad565b91505092915050565b7f496e697469616c697a61626c653a20636f6e7472616374206973206e6f74206960008201527f6e697469616c697a696e67000000000000000000000000000000000000000000602082015250565b6000615c4b602b83614cbb565b9150615c5682615bef565b604082019050919050565b60006020820190508181036000830152615c7a81615c3e565b9050919050565b600081905092915050565b7f416363657373436f6e74726f6c3a206163636f756e7420000000000000000000600082015250565b6000615cc2601783615c81565b9150615ccd82615c8c565b601782019050919050565b600081519050919050565b6000615cee82615cd8565b615cf88185615c81565b9350615d08818560208601614650565b80840191505092915050565b7f206973206d697373696e6720726f6c6520000000000000000000000000000000600082015250565b6000615d4a601183615c81565b9150615d5582615d14565b601182019050919050565b6000615d6b82615cb5565b9150615d778285615ce3565b9150615d8282615d3d565b9150615d8e8284615ce3565b91508190509392505050565b6000615da582615cd8565b615daf8185614cbb565b9350615dbf818560208601614650565b615dc88161467a565b840191505092915050565b60006020820190508181036000830152615ded8184615d9a565b905092915050565b6000615e0082614594565b9150615e0b83614594565b9250828202615e1981614594565b91508282048414831517615e3057615e2f614e27565b5b5092915050565b6000615e4282614594565b915060008203615e5557615e54614e27565b5b600182039050919050565b7f537472696e67733a20686578206c656e67746820696e73756666696369656e74600082015250565b6000615e96602083614cbb565b9150615ea182615e60565b602082019050919050565b60006020820190508181036000830152615ec581615e89565b905091905056fea26469706673582212202e5e99cdf38808ef73e351076011967ab4f25082f61814c4d57bf85b15aa525464736f6c63430008180033",
  "linkReferences": {},
  "deployedLinkReferences": {}
}