{
  "_format": "hh-sol-artifact-1",
  "contractName": "CustomVestingWallet",
  "sourceName": "contracts/vestingFactory.sol",
  "abi": [
    {
      "inputs": [],
      "stateMutability": "nonpayable",
      "type": "constructor"
    },
    {
      "anonymous": false,
      "inputs": [
        {
          "indexed": true,
          "internalType": "address",
          "name": "token",
          "type": "address"
        },
        {
          "indexed": false,
          "internalType": "uint256",
          "name": "amount",
          "type": "uint256"
        }
      ],
      "name": "ERC20Released",
      "type": "event"
    },
    {
      "anonymous": false,
      "inputs": [
        {
          "indexed": false,
          "internalType": "uint256",
          "name": "amount",
          "type": "uint256"
        }
      ],
      "name": "EtherReleased",
      "type": "event"
    },
    {
      "anonymous": false,
      "inputs": [
        {
          "indexed": false,
          "internalType": "uint8",
          "name": "version",
          "type": "uint8"
        }
      ],
      "name": "Initialized",
      "type": "event"
    },
    {
      "inputs": [],
      "name": "beneficiary",
      "outputs": [
        {
          "internalType": "address",
          "name": "",
          "type": "address"
        }
      ],
      "stateMutability": "view",
      "type": "function"
    },
    {
      "inputs": [],
      "name": "duration",
      "outputs": [
        {
          "internalType": "uint256",
          "name": "",
          "type": "uint256"
        }
      ],
      "stateMutability": "view",
      "type": "function"
    },
    {
      "inputs": [
        {
          "internalType": "address",
          "name": "beneficiary",
          "type": "address"
        },
        {
          "internalType": "uint64",
          "name": "startTimestamp",
          "type": "uint64"
        },
        {
          "internalType": "uint64",
          "name": "durationSeconds",
          "type": "uint64"
        }
      ],
      "name": "initialize",
      "outputs": [],
      "stateMutability": "nonpayable",
      "type": "function"
    },
    {
      "inputs": [
        {
          "internalType": "address",
          "name": "token",
          "type": "address"
        }
      ],
      "name": "releasable",
      "outputs": [
        {
          "internalType": "uint256",
          "name": "",
          "type": "uint256"
        }
      ],
      "stateMutability": "view",
      "type": "function"
    },
    {
      "inputs": [],
      "name": "releasable",
      "outputs": [
        {
          "internalType": "uint256",
          "name": "",
          "type": "uint256"
        }
      ],
      "stateMutability": "view",
      "type": "function"
    },
    {
      "inputs": [
        {
          "internalType": "address",
          "name": "_token",
          "type": "address"
        }
      ],
      "name": "release",
      "outputs": [],
      "stateMutability": "nonpayable",
      "type": "function"
    },
    {
      "inputs": [],
      "name": "release",
      "outputs": [],
      "stateMutability": "nonpayable",
      "type": "function"
    },
    {
      "inputs": [],
      "name": "released",
      "outputs": [
        {
          "internalType": "uint256",
          "name": "",
          "type": "uint256"
        }
      ],
      "stateMutability": "view",
      "type": "function"
    },
    {
      "inputs": [
        {
          "internalType": "address",
          "name": "token",
          "type": "address"
        }
      ],
      "name": "released",
      "outputs": [
        {
          "internalType": "uint256",
          "name": "",
          "type": "uint256"
        }
      ],
      "stateMutability": "view",
      "type": "function"
    },
    {
      "inputs": [],
      "name": "start",
      "outputs": [
        {
          "internalType": "uint256",
          "name": "",
          "type": "uint256"
        }
      ],
      "stateMutability": "view",
      "type": "function"
    },
    {
      "inputs": [
        {
          "internalType": "uint64",
          "name": "timestamp",
          "type": "uint64"
        }
      ],
      "name": "vestedAmount",
      "outputs": [
        {
          "internalType": "uint256",
          "name": "",
          "type": "uint256"
        }
      ],
      "stateMutability": "view",
      "type": "function"
    },
    {
      "inputs": [
        {
          "internalType": "address",
          "name": "token",
          "type": "address"
        },
        {
          "internalType": "uint64",
          "name": "timestamp",
          "type": "uint64"
        }
      ],
      "name": "vestedAmount",
      "outputs": [
        {
          "internalType": "uint256",
          "name": "",
          "type": "uint256"
        }
      ],
      "stateMutability": "view",
      "type": "function"
    },
    {
      "stateMutability": "payable",
      "type": "receive"
    }
  ],
  "bytecode": "0x60806040523480156200001157600080fd5b50620000226200002860201b60201c565b620001d2565b600060019054906101000a900460ff16156200007b576040517f08c379a0000000000000000000000000000000000000000000000000000000008152600401620000729062000175565b60405180910390fd5b60ff801660008054906101000a900460ff1660ff1614620000ec5760ff6000806101000a81548160ff021916908360ff1602179055507f7f26b83ff96e1f2b6a682f133852f6798a09c465da95921460cefb384740249860ff604051620000e39190620001b5565b60405180910390a15b565b600082825260208201905092915050565b7f496e697469616c697a61626c653a20636f6e747261637420697320696e69746960008201527f616c697a696e6700000000000000000000000000000000000000000000000000602082015250565b60006200015d602783620000ee565b91506200016a82620000ff565b604082019050919050565b6000602082019050818103600083015262000190816200014e565b9050919050565b600060ff82169050919050565b620001af8162000197565b82525050565b6000602082019050620001cc6000830184620001a4565b92915050565b6117fc80620001e26000396000f3fe6080604052600436106100ab5760003560e01c8063961325211161006457806396132521146101c75780639852595c146101f2578063989a83661461022f578063a3f8eace14610258578063be9a655514610295578063fbccedae146102c0576100b2565b80630a17b06b146100b75780630fb5a6b4146100f4578063191655871461011f57806338af3eed14610148578063810ec23b1461017357806386d1a69f146101b0576100b2565b366100b257005b600080fd5b3480156100c357600080fd5b506100de60048036038101906100d99190610e01565b6102eb565b6040516100eb9190610e47565b60405180910390f35b34801561010057600080fd5b50610109610310565b6040516101169190610e47565b60405180910390f35b34801561012b57600080fd5b5061014660048036038101906101419190610ec0565b610338565b005b34801561015457600080fd5b5061015d610344565b60405161016a9190610efc565b60405180910390f35b34801561017f57600080fd5b5061019a60048036038101906101959190610f17565b61036e565b6040516101a79190610e47565b60405180910390f35b3480156101bc57600080fd5b506101c561040e565b005b3480156101d357600080fd5b506101dc61047e565b6040516101e99190610e47565b60405180910390f35b3480156101fe57600080fd5b5061021960048036038101906102149190610ec0565b610488565b6040516102269190610e47565b60405180910390f35b34801561023b57600080fd5b5061025660048036038101906102519190610f57565b6104d1565b005b34801561026457600080fd5b5061027f600480360381019061027a9190610ec0565b610615565b60405161028c9190610e47565b60405180910390f35b3480156102a157600080fd5b506102aa610627565b6040516102b79190610e47565b60405180910390f35b3480156102cc57600080fd5b506102d561064f565b6040516102e29190610e47565b60405180910390f35b60006103096102f861047e565b476103039190610fd9565b83610671565b9050919050565b6000603660009054906101000a900467ffffffffffffffff1667ffffffffffffffff16905090565b6103418161070b565b50565b6000603560009054906101000a900473ffffffffffffffffffffffffffffffffffffffff16905090565b600061040661037c84610488565b8473ffffffffffffffffffffffffffffffffffffffff166370a08231306040518263ffffffff1660e01b81526004016103b59190610efc565b602060405180830381865afa1580156103d2573d6000803e3d6000fd5b505050506040513d601f19601f820116820180604052508101906103f69190611039565b6104009190610fd9565b83610671565b905092915050565b600061041861064f565b9050806033600082825461042c9190610fd9565b925050819055507fda9d4e5f101b8b9b1c5b76d0c5a9f7923571acfc02376aa076b75a8c080c956b816040516104629190610e47565b60405180910390a161047b610475610344565b826107d2565b50565b6000603354905090565b6000603460008373ffffffffffffffffffffffffffffffffffffffff1673ffffffffffffffffffffffffffffffffffffffff168152602001908152602001600020549050919050565b60008060019054906101000a900460ff161590508080156105025750600160008054906101000a900460ff1660ff16105b8061052f5750610511306108c6565b15801561052e5750600160008054906101000a900460ff1660ff16145b5b61056e576040517f08c379a0000000000000000000000000000000000000000000000000000000008152600401610565906110e9565b60405180910390fd5b60016000806101000a81548160ff021916908360ff16021790555080156105ab576001600060016101000a81548160ff0219169083151502179055505b6105b68484846108e9565b801561060f5760008060016101000a81548160ff0219169083151502179055507f7f26b83ff96e1f2b6a682f133852f6798a09c465da95921460cefb38474024986001604051610606919061115b565b60405180910390a15b50505050565b600061062082610948565b9050919050565b6000603560149054906101000a900467ffffffffffffffff1667ffffffffffffffff16905090565b600061065961047e565b610662426102eb565b61066c9190611176565b905090565b600061067b610627565b8267ffffffffffffffff1610156106955760009050610705565b61069d610310565b6106a5610627565b6106af9190610fd9565b8267ffffffffffffffff1611156106c857829050610705565b6106d0610310565b6106d8610627565b8367ffffffffffffffff166106ed9190611176565b846106f891906111aa565b610702919061121b565b90505b92915050565b600061071682610615565b905080603460008473ffffffffffffffffffffffffffffffffffffffff1673ffffffffffffffffffffffffffffffffffffffff16815260200190815260200160002060008282546107679190610fd9565b925050819055508173ffffffffffffffffffffffffffffffffffffffff167fc0e523490dd523c33b1878c9eb14ff46991e3f5b2cd33710918618f2a39cba1b826040516107b49190610e47565b60405180910390a26107ce826107c8610344565b8361096e565b5050565b80471015610815576040517f08c379a000000000000000000000000000000000000000000000000000000000815260040161080c90611298565b60405180910390fd5b60008273ffffffffffffffffffffffffffffffffffffffff168260405161083b906112e9565b60006040518083038185875af1925050503d8060008114610878576040519150601f19603f3d011682016040523d82523d6000602084013e61087d565b606091505b50509050806108c1576040517f08c379a00000000000000000000000000000000000000000000000000000000081526004016108b890611370565b60405180910390fd5b505050565b6000808273ffffffffffffffffffffffffffffffffffffffff163b119050919050565b600060019054906101000a900460ff16610938576040517f08c379a000000000000000000000000000000000000000000000000000000000815260040161092f90611402565b60405180910390fd5b6109438383836109f4565b505050565b600061095382610488565b61095d834261036e565b6109679190611176565b9050919050565b6109ef8363a9059cbb60e01b848460405160240161098d929190611422565b604051602081830303815290604052907bffffffffffffffffffffffffffffffffffffffffffffffffffffffff19166020820180517bffffffffffffffffffffffffffffffffffffffffffffffffffffffff8381831617835250505050610b4a565b505050565b600060019054906101000a900460ff16610a43576040517f08c379a0000000000000000000000000000000000000000000000000000000008152600401610a3a90611402565b60405180910390fd5b600073ffffffffffffffffffffffffffffffffffffffff168373ffffffffffffffffffffffffffffffffffffffff1603610ab2576040517f08c379a0000000000000000000000000000000000000000000000000000000008152600401610aa9906114bd565b60405180910390fd5b82603560006101000a81548173ffffffffffffffffffffffffffffffffffffffff021916908373ffffffffffffffffffffffffffffffffffffffff16021790555081603560146101000a81548167ffffffffffffffff021916908367ffffffffffffffff16021790555080603660006101000a81548167ffffffffffffffff021916908367ffffffffffffffff160217905550505050565b6000610bac826040518060400160405280602081526020017f5361666545524332303a206c6f772d6c6576656c2063616c6c206661696c65648152508573ffffffffffffffffffffffffffffffffffffffff16610c129092919063ffffffff16565b9050600081511480610bce575080806020019051810190610bcd9190611515565b5b610c0d576040517f08c379a0000000000000000000000000000000000000000000000000000000008152600401610c04906115b4565b60405180910390fd5b505050565b6060610c218484600085610c2a565b90509392505050565b606082471015610c6f576040517f08c379a0000000000000000000000000000000000000000000000000000000008152600401610c6690611646565b60405180910390fd5b6000808673ffffffffffffffffffffffffffffffffffffffff168587604051610c9891906116cc565b60006040518083038185875af1925050503d8060008114610cd5576040519150601f19603f3d011682016040523d82523d6000602084013e610cda565b606091505b5091509150610ceb87838387610cf7565b92505050949350505050565b60608315610d59576000835103610d5157610d11856108c6565b610d50576040517f08c379a0000000000000000000000000000000000000000000000000000000008152600401610d479061172f565b60405180910390fd5b5b829050610d64565b610d638383610d6c565b5b949350505050565b600082511115610d7f5781518083602001fd5b806040517f08c379a0000000000000000000000000000000000000000000000000000000008152600401610db391906117a4565b60405180910390fd5b600080fd5b600067ffffffffffffffff82169050919050565b610dde81610dc1565b8114610de957600080fd5b50565b600081359050610dfb81610dd5565b92915050565b600060208284031215610e1757610e16610dbc565b5b6000610e2584828501610dec565b91505092915050565b6000819050919050565b610e4181610e2e565b82525050565b6000602082019050610e5c6000830184610e38565b92915050565b600073ffffffffffffffffffffffffffffffffffffffff82169050919050565b6000610e8d82610e62565b9050919050565b610e9d81610e82565b8114610ea857600080fd5b50565b600081359050610eba81610e94565b92915050565b600060208284031215610ed657610ed5610dbc565b5b6000610ee484828501610eab565b91505092915050565b610ef681610e82565b82525050565b6000602082019050610f116000830184610eed565b92915050565b60008060408385031215610f2e57610f2d610dbc565b5b6000610f3c85828601610eab565b9250506020610f4d85828601610dec565b9150509250929050565b600080600060608486031215610f7057610f6f610dbc565b5b6000610f7e86828701610eab565b9350506020610f8f86828701610dec565b9250506040610fa086828701610dec565b9150509250925092565b7f4e487b7100000000000000000000000000000000000000000000000000000000600052601160045260246000fd5b6000610fe482610e2e565b9150610fef83610e2e565b925082820190508082111561100757611006610faa565b5b92915050565b61101681610e2e565b811461102157600080fd5b50565b6000815190506110338161100d565b92915050565b60006020828403121561104f5761104e610dbc565b5b600061105d84828501611024565b91505092915050565b600082825260208201905092915050565b7f496e697469616c697a61626c653a20636f6e747261637420697320616c72656160008201527f647920696e697469616c697a6564000000000000000000000000000000000000602082015250565b60006110d3602e83611066565b91506110de82611077565b604082019050919050565b60006020820190508181036000830152611102816110c6565b9050919050565b6000819050919050565b600060ff82169050919050565b6000819050919050565b600061114561114061113b84611109565b611120565b611113565b9050919050565b6111558161112a565b82525050565b6000602082019050611170600083018461114c565b92915050565b600061118182610e2e565b915061118c83610e2e565b92508282039050818111156111a4576111a3610faa565b5b92915050565b60006111b582610e2e565b91506111c083610e2e565b92508282026111ce81610e2e565b915082820484148315176111e5576111e4610faa565b5b5092915050565b7f4e487b7100000000000000000000000000000000000000000000000000000000600052601260045260246000fd5b600061122682610e2e565b915061123183610e2e565b925082611241576112406111ec565b5b828204905092915050565b7f416464726573733a20696e73756666696369656e742062616c616e6365000000600082015250565b6000611282601d83611066565b915061128d8261124c565b602082019050919050565b600060208201905081810360008301526112b181611275565b9050919050565b600081905092915050565b50565b60006112d36000836112b8565b91506112de826112c3565b600082019050919050565b60006112f4826112c6565b9150819050919050565b7f416464726573733a20756e61626c6520746f2073656e642076616c75652c207260008201527f6563697069656e74206d61792068617665207265766572746564000000000000602082015250565b600061135a603a83611066565b9150611365826112fe565b604082019050919050565b600060208201905081810360008301526113898161134d565b9050919050565b7f496e697469616c697a61626c653a20636f6e7472616374206973206e6f74206960008201527f6e697469616c697a696e67000000000000000000000000000000000000000000602082015250565b60006113ec602b83611066565b91506113f782611390565b604082019050919050565b6000602082019050818103600083015261141b816113df565b9050919050565b60006040820190506114376000830185610eed565b6114446020830184610e38565b9392505050565b7f56657374696e6757616c6c65743a2062656e6566696369617279206973207a6560008201527f726f206164647265737300000000000000000000000000000000000000000000602082015250565b60006114a7602a83611066565b91506114b28261144b565b604082019050919050565b600060208201905081810360008301526114d68161149a565b9050919050565b60008115159050919050565b6114f2816114dd565b81146114fd57600080fd5b50565b60008151905061150f816114e9565b92915050565b60006020828403121561152b5761152a610dbc565b5b600061153984828501611500565b91505092915050565b7f5361666545524332303a204552433230206f7065726174696f6e20646964206e60008201527f6f74207375636365656400000000000000000000000000000000000000000000602082015250565b600061159e602a83611066565b91506115a982611542565b604082019050919050565b600060208201905081810360008301526115cd81611591565b9050919050565b7f416464726573733a20696e73756666696369656e742062616c616e636520666f60008201527f722063616c6c0000000000000000000000000000000000000000000000000000602082015250565b6000611630602683611066565b915061163b826115d4565b604082019050919050565b6000602082019050818103600083015261165f81611623565b9050919050565b600081519050919050565b60005b8381101561168f578082015181840152602081019050611674565b60008484015250505050565b60006116a682611666565b6116b081856112b8565b93506116c0818560208601611671565b80840191505092915050565b60006116d8828461169b565b915081905092915050565b7f416464726573733a2063616c6c20746f206e6f6e2d636f6e7472616374000000600082015250565b6000611719601d83611066565b9150611724826116e3565b602082019050919050565b600060208201905081810360008301526117488161170c565b9050919050565b600081519050919050565b6000601f19601f8301169050919050565b60006117768261174f565b6117808185611066565b9350611790818560208601611671565b6117998161175a565b840191505092915050565b600060208201905081810360008301526117be818461176b565b90509291505056fea26469706673582212207a797aef42f638a260f0deb77e59f82d86990351c3d1705131753c48e01d78ff64736f6c63430008180033",
  "linkReferences": {},
  "deployedLinkReferences": {}
}