{
  "_format": "hh-sol-artifact-1",
  "contractName": "VestingFactory",
  "sourceName": "contracts/vestingFactory.sol",
  "abi": [
    {
      "inputs": [],
      "stateMutability": "nonpayable",
      "type": "constructor"
    },
    {
      "anonymous": false,
      "inputs": [
        {
          "indexed": false,
          "internalType": "uint8",
          "name": "version",
          "type": "uint8"
        }
      ],
      "name": "Initialized",
      "type": "event"
    },
    {
      "anonymous": false,
      "inputs": [
        {
          "indexed": true,
          "internalType": "bytes32",
          "name": "role",
          "type": "bytes32"
        },
        {
          "indexed": true,
          "internalType": "bytes32",
          "name": "previousAdminRole",
          "type": "bytes32"
        },
        {
          "indexed": true,
          "internalType": "bytes32",
          "name": "newAdminRole",
          "type": "bytes32"
        }
      ],
      "name": "RoleAdminChanged",
      "type": "event"
    },
    {
      "anonymous": false,
      "inputs": [
        {
          "indexed": true,
          "internalType": "bytes32",
          "name": "role",
          "type": "bytes32"
        },
        {
          "indexed": true,
          "internalType": "address",
          "name": "account",
          "type": "address"
        },
        {
          "indexed": true,
          "internalType": "address",
          "name": "sender",
          "type": "address"
        }
      ],
      "name": "RoleGranted",
      "type": "event"
    },
    {
      "anonymous": false,
      "inputs": [
        {
          "indexed": true,
          "internalType": "bytes32",
          "name": "role",
          "type": "bytes32"
        },
        {
          "indexed": true,
          "internalType": "address",
          "name": "account",
          "type": "address"
        },
        {
          "indexed": true,
          "internalType": "address",
          "name": "sender",
          "type": "address"
        }
      ],
      "name": "RoleRevoked",
      "type": "event"
    },
    {
      "inputs": [],
      "name": "DEFAULT_ADMIN_ROLE",
      "outputs": [
        {
          "internalType": "bytes32",
          "name": "",
          "type": "bytes32"
        }
      ],
      "stateMutability": "view",
      "type": "function"
    },
    {
      "inputs": [],
      "name": "VESTING_DURATION_18_MONTHS",
      "outputs": [
        {
          "internalType": "uint64",
          "name": "",
          "type": "uint64"
        }
      ],
      "stateMutability": "view",
      "type": "function"
    },
    {
      "inputs": [],
      "name": "VESTING_DURATION_24_MONTHS",
      "outputs": [
        {
          "internalType": "uint64",
          "name": "",
          "type": "uint64"
        }
      ],
      "stateMutability": "view",
      "type": "function"
    },
    {
      "inputs": [
        {
          "internalType": "address",
          "name": "beneficiary",
          "type": "address"
        },
        {
          "internalType": "uint256",
          "name": "amount",
          "type": "uint256"
        }
      ],
      "name": "createVestingWallet18Months",
      "outputs": [],
      "stateMutability": "nonpayable",
      "type": "function"
    },
    {
      "inputs": [
        {
          "internalType": "address",
          "name": "beneficiary",
          "type": "address"
        },
        {
          "internalType": "uint256",
          "name": "amount",
          "type": "uint256"
        }
      ],
      "name": "createVestingWallet24Months",
      "outputs": [],
      "stateMutability": "nonpayable",
      "type": "function"
    },
    {
      "inputs": [
        {
          "internalType": "bytes32",
          "name": "role",
          "type": "bytes32"
        }
      ],
      "name": "getRoleAdmin",
      "outputs": [
        {
          "internalType": "bytes32",
          "name": "",
          "type": "bytes32"
        }
      ],
      "stateMutability": "view",
      "type": "function"
    },
    {
      "inputs": [
        {
          "internalType": "bytes32",
          "name": "role",
          "type": "bytes32"
        },
        {
          "internalType": "address",
          "name": "account",
          "type": "address"
        }
      ],
      "name": "grantRole",
      "outputs": [],
      "stateMutability": "nonpayable",
      "type": "function"
    },
    {
      "inputs": [
        {
          "internalType": "bytes32",
          "name": "role",
          "type": "bytes32"
        },
        {
          "internalType": "address",
          "name": "account",
          "type": "address"
        }
      ],
      "name": "hasRole",
      "outputs": [
        {
          "internalType": "bool",
          "name": "",
          "type": "bool"
        }
      ],
      "stateMutability": "view",
      "type": "function"
    },
    {
      "inputs": [
        {
          "internalType": "contract ERC20",
          "name": "_token",
          "type": "address"
        },
        {
          "internalType": "uint64",
          "name": "_startDate",
          "type": "uint64"
        },
        {
          "internalType": "address",
          "name": "_owner",
          "type": "address"
        }
      ],
      "name": "initialize",
      "outputs": [],
      "stateMutability": "nonpayable",
      "type": "function"
    },
    {
      "inputs": [
        {
          "internalType": "address",
          "name": "beneficiary",
          "type": "address"
        },
        {
          "internalType": "address",
          "name": "_token",
          "type": "address"
        }
      ],
      "name": "releasable",
      "outputs": [
        {
          "internalType": "uint256",
          "name": "",
          "type": "uint256"
        }
      ],
      "stateMutability": "view",
      "type": "function"
    },
    {
      "inputs": [
        {
          "internalType": "address",
          "name": "_token",
          "type": "address"
        }
      ],
      "name": "release",
      "outputs": [],
      "stateMutability": "nonpayable",
      "type": "function"
    },
    {
      "inputs": [
        {
          "internalType": "bytes32",
          "name": "role",
          "type": "bytes32"
        },
        {
          "internalType": "address",
          "name": "account",
          "type": "address"
        }
      ],
      "name": "renounceRole",
      "outputs": [],
      "stateMutability": "nonpayable",
      "type": "function"
    },
    {
      "inputs": [
        {
          "internalType": "bytes32",
          "name": "role",
          "type": "bytes32"
        },
        {
          "internalType": "address",
          "name": "account",
          "type": "address"
        }
      ],
      "name": "revokeRole",
      "outputs": [],
      "stateMutability": "nonpayable",
      "type": "function"
    },
    {
      "inputs": [
        {
          "internalType": "bytes32",
          "name": "_version",
          "type": "bytes32"
        }
      ],
      "name": "setVersion",
      "outputs": [],
      "stateMutability": "nonpayable",
      "type": "function"
    },
    {
      "inputs": [],
      "name": "startDate",
      "outputs": [
        {
          "internalType": "uint64",
          "name": "",
          "type": "uint64"
        }
      ],
      "stateMutability": "view",
      "type": "function"
    },
    {
      "inputs": [
        {
          "internalType": "bytes4",
          "name": "interfaceId",
          "type": "bytes4"
        }
      ],
      "name": "supportsInterface",
      "outputs": [
        {
          "internalType": "bool",
          "name": "",
          "type": "bool"
        }
      ],
      "stateMutability": "view",
      "type": "function"
    },
    {
      "inputs": [],
      "name": "version",
      "outputs": [
        {
          "internalType": "bytes32",
          "name": "",
          "type": "bytes32"
        }
      ],
      "stateMutability": "view",
      "type": "function"
    },
    {
      "inputs": [
        {
          "internalType": "address",
          "name": "",
          "type": "address"
        }
      ],
      "name": "vestingWallets",
      "outputs": [
        {
          "internalType": "address",
          "name": "",
          "type": "address"
        }
      ],
      "stateMutability": "view",
      "type": "function"
    }
  ],
  "bytecode": "0x60806040523480156200001157600080fd5b50620000226200002860201b60201c565b620001d2565b600060019054906101000a900460ff16156200007b576040517f08c379a0000000000000000000000000000000000000000000000000000000008152600401620000729062000175565b60405180910390fd5b60ff801660008054906101000a900460ff1660ff1614620000ec5760ff6000806101000a81548160ff021916908360ff1602179055507f7f26b83ff96e1f2b6a682f133852f6798a09c465da95921460cefb384740249860ff604051620000e39190620001b5565b60405180910390a15b565b600082825260208201905092915050565b7f496e697469616c697a61626c653a20636f6e747261637420697320696e69746960008201527f616c697a696e6700000000000000000000000000000000000000000000000000602082015250565b60006200015d602783620000ee565b91506200016a82620000ff565b604082019050919050565b6000602082019050818103600083015262000190816200014e565b9050919050565b600060ff82169050919050565b620001af8162000197565b82525050565b6000602082019050620001cc6000830184620001a4565b92915050565b613ffc80620001e26000396000f3fe60806040523480156200001157600080fd5b5060043610620001305760003560e01c80637138e72011620000b1578063bcbe03df116200007b578063bcbe03df1462000335578063c45ac0501462000355578063ca5f81b5146200038b578063d547741f14620003ab578063e3d9e75d14620003cb5762000130565b80637138e720146200028757806391d1485414620002a7578063a217fddf14620002dd578063baf3510714620002ff5762000130565b8063248a9ca311620000ff578063248a9ca314620001cf5780632f2ff15d146200020557806336568abe14620002255780633e6f3d34146200024557806354fd4d5014620002655762000130565b806301ffc9a714620001355780630b97bc86146200016b57806319165587146200018d57806320fac5df14620001ad575b600080fd5b6200015360048036038101906200014d91906200185a565b620003ed565b604051620001629190620018a9565b60405180910390f35b620001756200046a565b604051620001849190620018eb565b60405180910390f35b620001ab6004803603810190620001a591906200196d565b62000484565b005b620001b762000555565b604051620001c69190620018eb565b60405180910390f35b620001ed6004803603810190620001e79190620019da565b6200055d565b604051620001fc919062001a1d565b60405180910390f35b6200022360048036038101906200021d919062001a3a565b6200057d565b005b6200024360048036038101906200023d919062001a3a565b620005a4565b005b6200026360048036038101906200025d919062001abc565b6200062e565b005b6200026f620009c7565b6040516200027e919062001a1d565b60405180910390f35b620002a560048036038101906200029f919062001abc565b620009cd565b005b620002c56004803603810190620002bf919062001a3a565b62000d66565b604051620002d49190620018a9565b60405180910390f35b620002e762000dd1565b604051620002f6919062001a1d565b60405180910390f35b6200031d60048036038101906200031791906200196d565b62000dd8565b6040516200032c919062001b14565b60405180910390f35b6200035360048036038101906200034d919062001ba7565b62000e0b565b005b6200037360048036038101906200036d919062001c03565b62000fd3565b60405162000382919062001c5b565b60405180910390f35b620003a96004803603810190620003a39190620019da565b620010bb565b005b620003c96004803603810190620003c3919062001a3a565b62001116565b005b620003d56200113d565b604051620003e49190620018eb565b60405180910390f35b60007f7965db0b000000000000000000000000000000000000000000000000000000007bffffffffffffffffffffffffffffffffffffffffffffffffffffffff1916827bffffffffffffffffffffffffffffffffffffffffffffffffffffffff19161480620004635750620004628262001145565b5b9050919050565b609760149054906101000a900467ffffffffffffffff1681565b609860003373ffffffffffffffffffffffffffffffffffffffff1673ffffffffffffffffffffffffffffffffffffffff16815260200190815260200160002060009054906101000a900473ffffffffffffffffffffffffffffffffffffffff1673ffffffffffffffffffffffffffffffffffffffff166319165587826040518263ffffffff1660e01b81526004016200051e919062001b14565b600060405180830381600087803b1580156200053957600080fd5b505af11580156200054e573d6000803e3d6000fd5b5050505050565b6303b5380081565b600060656000838152602001908152602001600020600101549050919050565b62000588826200055d565b6200059381620011af565b6200059f8383620011c7565b505050565b620005ae620012ad565b73ffffffffffffffffffffffffffffffffffffffff168173ffffffffffffffffffffffffffffffffffffffff16146200061e576040517f08c379a0000000000000000000000000000000000000000000000000000000008152600401620006159062001cff565b60405180910390fd5b6200062a8282620012b5565b5050565b6200063d6000801b3362000d66565b6200067f576040517f08c379a0000000000000000000000000000000000000000000000000000000008152600401620006769062001d97565b60405180910390fd5b60008111620006c5576040517f08c379a0000000000000000000000000000000000000000000000000000000008152600401620006bc9062001e09565b60405180910390fd5b600073ffffffffffffffffffffffffffffffffffffffff16609860008473ffffffffffffffffffffffffffffffffffffffff1673ffffffffffffffffffffffffffffffffffffffff16815260200190815260200160002060009054906101000a900473ffffffffffffffffffffffffffffffffffffffff1673ffffffffffffffffffffffffffffffffffffffff161462000796576040517f08c379a00000000000000000000000000000000000000000000000000000000081526004016200078d9062001ea1565b60405180910390fd5b6000620007ce604051620007aa90620017ea565b604051809103906000f080158015620007c7573d6000803e3d6000fd5b506200139c565b90508073ffffffffffffffffffffffffffffffffffffffff1663989a836684609760149054906101000a900467ffffffffffffffff166303b538006040518463ffffffff1660e01b8152600401620008299392919062001ec3565b600060405180830381600087803b1580156200084457600080fd5b505af115801562000859573d6000803e3d6000fd5b5050505080609860008573ffffffffffffffffffffffffffffffffffffffff1673ffffffffffffffffffffffffffffffffffffffff16815260200190815260200160002060006101000a81548173ffffffffffffffffffffffffffffffffffffffff021916908373ffffffffffffffffffffffffffffffffffffffff160217905550609760009054906101000a900473ffffffffffffffffffffffffffffffffffffffff1673ffffffffffffffffffffffffffffffffffffffff1663a9059cbb82846040518363ffffffff1660e01b81526004016200093a92919062001f00565b6020604051808303816000875af11580156200095a573d6000803e3d6000fd5b505050506040513d601f19601f8201168201806040525081019062000980919062001f5e565b620009c2576040517f08c379a0000000000000000000000000000000000000000000000000000000008152600401620009b99062001fe0565b60405180910390fd5b505050565b60995481565b620009dc6000801b3362000d66565b62000a1e576040517f08c379a000000000000000000000000000000000000000000000000000000000815260040162000a159062001d97565b60405180910390fd5b6000811162000a64576040517f08c379a000000000000000000000000000000000000000000000000000000000815260040162000a5b9062001e09565b60405180910390fd5b600073ffffffffffffffffffffffffffffffffffffffff16609860008473ffffffffffffffffffffffffffffffffffffffff1673ffffffffffffffffffffffffffffffffffffffff16815260200190815260200160002060009054906101000a900473ffffffffffffffffffffffffffffffffffffffff1673ffffffffffffffffffffffffffffffffffffffff161462000b35576040517f08c379a000000000000000000000000000000000000000000000000000000000815260040162000b2c9062001ea1565b60405180910390fd5b600062000b6d60405162000b4990620017ea565b604051809103906000f08015801562000b66573d6000803e3d6000fd5b506200139c565b90508073ffffffffffffffffffffffffffffffffffffffff1663989a836684609760149054906101000a900467ffffffffffffffff166302c7ea006040518463ffffffff1660e01b815260040162000bc89392919062001ec3565b600060405180830381600087803b15801562000be357600080fd5b505af115801562000bf8573d6000803e3d6000fd5b5050505080609860008573ffffffffffffffffffffffffffffffffffffffff1673ffffffffffffffffffffffffffffffffffffffff16815260200190815260200160002060006101000a81548173ffffffffffffffffffffffffffffffffffffffff021916908373ffffffffffffffffffffffffffffffffffffffff160217905550609760009054906101000a900473ffffffffffffffffffffffffffffffffffffffff1673ffffffffffffffffffffffffffffffffffffffff1663a9059cbb82846040518363ffffffff1660e01b815260040162000cd992919062001f00565b6020604051808303816000875af115801562000cf9573d6000803e3d6000fd5b505050506040513d601f19601f8201168201806040525081019062000d1f919062001f5e565b62000d61576040517f08c379a000000000000000000000000000000000000000000000000000000000815260040162000d589062001fe0565b60405180910390fd5b505050565b60006065600084815260200190815260200160002060000160008373ffffffffffffffffffffffffffffffffffffffff1673ffffffffffffffffffffffffffffffffffffffff16815260200190815260200160002060009054906101000a900460ff16905092915050565b6000801b81565b60986020528060005260406000206000915054906101000a900473ffffffffffffffffffffffffffffffffffffffff1681565b60008060019054906101000a900460ff1615905080801562000e3d5750600160008054906101000a900460ff1660ff16105b8062000e6e575062000e4f3062001459565b15801562000e6d5750600160008054906101000a900460ff1660ff16145b5b62000eb0576040517f08c379a000000000000000000000000000000000000000000000000000000000815260040162000ea79062002078565b60405180910390fd5b60016000806101000a81548160ff021916908360ff160217905550801562000eee576001600060016101000a81548160ff0219169083151502179055505b62000ef86200147c565b62000f076000801b83620011c7565b82609760146101000a81548167ffffffffffffffff021916908367ffffffffffffffff16021790555083609760006101000a81548173ffffffffffffffffffffffffffffffffffffffff021916908373ffffffffffffffffffffffffffffffffffffffff160217905550801562000fcd5760008060016101000a81548160ff0219169083151502179055507f7f26b83ff96e1f2b6a682f133852f6798a09c465da95921460cefb3847402498600160405162000fc49190620020f4565b60405180910390a15b50505050565b6000609860008473ffffffffffffffffffffffffffffffffffffffff1673ffffffffffffffffffffffffffffffffffffffff16815260200190815260200160002060009054906101000a900473ffffffffffffffffffffffffffffffffffffffff1673ffffffffffffffffffffffffffffffffffffffff1663a3f8eace836040518263ffffffff1660e01b81526004016200106f919062001b14565b602060405180830381865afa1580156200108d573d6000803e3d6000fd5b505050506040513d601f19601f82011682018060405250810190620010b3919062002128565b905092915050565b620010ca6000801b3362000d66565b6200110c576040517f08c379a0000000000000000000000000000000000000000000000000000000008152600401620011039062001d97565b60405180910390fd5b8060998190555050565b62001121826200055d565b6200112c81620011af565b620011388383620012b5565b505050565b6302c7ea0081565b60007f01ffc9a7000000000000000000000000000000000000000000000000000000007bffffffffffffffffffffffffffffffffffffffffffffffffffffffff1916827bffffffffffffffffffffffffffffffffffffffffffffffffffffffff1916149050919050565b620011c481620011be620012ad565b620014d0565b50565b620011d3828262000d66565b620012a95760016065600084815260200190815260200160002060000160008373ffffffffffffffffffffffffffffffffffffffff1673ffffffffffffffffffffffffffffffffffffffff16815260200190815260200160002060006101000a81548160ff0219169083151502179055506200124e620012ad565b73ffffffffffffffffffffffffffffffffffffffff168173ffffffffffffffffffffffffffffffffffffffff16837f2f8788117e7eff1d82e926ec794901d17c78024a50270940304540a733656f0d60405160405180910390a45b5050565b600033905090565b620012c1828262000d66565b15620013985760006065600084815260200190815260200160002060000160008373ffffffffffffffffffffffffffffffffffffffff1673ffffffffffffffffffffffffffffffffffffffff16815260200190815260200160002060006101000a81548160ff0219169083151502179055506200133d620012ad565b73ffffffffffffffffffffffffffffffffffffffff168173ffffffffffffffffffffffffffffffffffffffff16837ff6391f5c32d9c69d2a47ea670b442974b53935d1edc7fd64eb21e047a839171b60405160405180910390a45b5050565b6000763d602d80600a3d3981f3363d3d373d3d3d363d730000008260601b60e81c176000526e5af43d82803e903d91602b57fd5bf38260781b17602052603760096000f09050600073ffffffffffffffffffffffffffffffffffffffff168173ffffffffffffffffffffffffffffffffffffffff160362001454576040517f08c379a00000000000000000000000000000000000000000000000000000000081526004016200144b90620021aa565b60405180910390fd5b919050565b6000808273ffffffffffffffffffffffffffffffffffffffff163b119050919050565b600060019054906101000a900460ff16620014ce576040517f08c379a0000000000000000000000000000000000000000000000000000000008152600401620014c59062002242565b60405180910390fd5b565b620014dc828262000d66565b6200155c57620014ec8162001560565b620014fc8360001c60206200158f565b6040516020016200150f9291906200237d565b6040516020818303038152906040526040517f08c379a000000000000000000000000000000000000000000000000000000000815260040162001553919062002411565b60405180910390fd5b5050565b6060620015888273ffffffffffffffffffffffffffffffffffffffff16601460ff166200158f565b9050919050565b606060006002836002620015a4919062002464565b620015b09190620024af565b67ffffffffffffffff811115620015cc57620015cb620024ea565b5b6040519080825280601f01601f191660200182016040528015620015ff5781602001600182028036833780820191505090505b5090507f3000000000000000000000000000000000000000000000000000000000000000816000815181106200163a576200163962002519565b5b60200101907effffffffffffffffffffffffffffffffffffffffffffffffffffffffffffff1916908160001a9053507f780000000000000000000000000000000000000000000000000000000000000081600181518110620016a157620016a062002519565b5b60200101907effffffffffffffffffffffffffffffffffffffffffffffffffffffffffffff1916908160001a90535060006001846002620016e3919062002464565b620016ef9190620024af565b90505b600181111562001799577f3031323334353637383961626364656600000000000000000000000000000000600f86166010811062001735576200173462002519565b5b1a60f81b8282815181106200174f576200174e62002519565b5b60200101907effffffffffffffffffffffffffffffffffffffffffffffffffffffffffffff1916908160001a905350600485901c945080620017919062002548565b9050620016f2565b5060008414620017e0576040517f08c379a0000000000000000000000000000000000000000000000000000000008152600401620017d790620025c6565b60405180910390fd5b8091505092915050565b6119de80620025e983390190565b600080fd5b60007fffffffff0000000000000000000000000000000000000000000000000000000082169050919050565b6200183481620017fd565b81146200184057600080fd5b50565b600081359050620018548162001829565b92915050565b600060208284031215620018735762001872620017f8565b5b6000620018838482850162001843565b91505092915050565b60008115159050919050565b620018a3816200188c565b82525050565b6000602082019050620018c0600083018462001898565b92915050565b600067ffffffffffffffff82169050919050565b620018e581620018c6565b82525050565b6000602082019050620019026000830184620018da565b92915050565b600073ffffffffffffffffffffffffffffffffffffffff82169050919050565b6000620019358262001908565b9050919050565b620019478162001928565b81146200195357600080fd5b50565b60008135905062001967816200193c565b92915050565b600060208284031215620019865762001985620017f8565b5b6000620019968482850162001956565b91505092915050565b6000819050919050565b620019b4816200199f565b8114620019c057600080fd5b50565b600081359050620019d481620019a9565b92915050565b600060208284031215620019f357620019f2620017f8565b5b600062001a0384828501620019c3565b91505092915050565b62001a17816200199f565b82525050565b600060208201905062001a34600083018462001a0c565b92915050565b6000806040838503121562001a545762001a53620017f8565b5b600062001a6485828601620019c3565b925050602062001a778582860162001956565b9150509250929050565b6000819050919050565b62001a968162001a81565b811462001aa257600080fd5b50565b60008135905062001ab68162001a8b565b92915050565b6000806040838503121562001ad65762001ad5620017f8565b5b600062001ae68582860162001956565b925050602062001af98582860162001aa5565b9150509250929050565b62001b0e8162001928565b82525050565b600060208201905062001b2b600083018462001b03565b92915050565b600062001b3e8262001928565b9050919050565b62001b508162001b31565b811462001b5c57600080fd5b50565b60008135905062001b708162001b45565b92915050565b62001b8181620018c6565b811462001b8d57600080fd5b50565b60008135905062001ba18162001b76565b92915050565b60008060006060848603121562001bc35762001bc2620017f8565b5b600062001bd38682870162001b5f565b935050602062001be68682870162001b90565b925050604062001bf98682870162001956565b9150509250925092565b6000806040838503121562001c1d5762001c1c620017f8565b5b600062001c2d8582860162001956565b925050602062001c408582860162001956565b9150509250929050565b62001c558162001a81565b82525050565b600060208201905062001c72600083018462001c4a565b92915050565b600082825260208201905092915050565b7f416363657373436f6e74726f6c3a2063616e206f6e6c792072656e6f756e636560008201527f20726f6c657320666f722073656c660000000000000000000000000000000000602082015250565b600062001ce7602f8362001c78565b915062001cf48262001c89565b604082019050919050565b6000602082019050818103600083015262001d1a8162001cd8565b9050919050565b7f56657374696e67466163746f72793a204f6e6c79206f776e65722063616e206360008201527f616c6c20746869732066756e6374696f6e000000000000000000000000000000602082015250565b600062001d7f60318362001c78565b915062001d8c8262001d21565b604082019050919050565b6000602082019050818103600083015262001db28162001d70565b9050919050565b7f416d6f756e74206d7573742062652067726561746572207468616e2030000000600082015250565b600062001df1601d8362001c78565b915062001dfe8262001db9565b602082019050919050565b6000602082019050818103600083015262001e248162001de2565b9050919050565b7f56657374696e672077616c6c657420616c72656164792065786973747320666f60008201527f7220746869732062656e65666963696172790000000000000000000000000000602082015250565b600062001e8960328362001c78565b915062001e968262001e2b565b604082019050919050565b6000602082019050818103600083015262001ebc8162001e7a565b9050919050565b600060608201905062001eda600083018662001b03565b62001ee96020830185620018da565b62001ef86040830184620018da565b949350505050565b600060408201905062001f17600083018562001b03565b62001f26602083018462001c4a565b9392505050565b62001f38816200188c565b811462001f4457600080fd5b50565b60008151905062001f588162001f2d565b92915050565b60006020828403121562001f775762001f76620017f8565b5b600062001f878482850162001f47565b91505092915050565b7f546f6b656e207472616e73666572206661696c65640000000000000000000000600082015250565b600062001fc860158362001c78565b915062001fd58262001f90565b602082019050919050565b6000602082019050818103600083015262001ffb8162001fb9565b9050919050565b7f496e697469616c697a61626c653a20636f6e747261637420697320616c72656160008201527f647920696e697469616c697a6564000000000000000000000000000000000000602082015250565b600062002060602e8362001c78565b91506200206d8262002002565b604082019050919050565b60006020820190508181036000830152620020938162002051565b9050919050565b6000819050919050565b600060ff82169050919050565b6000819050919050565b6000620020dc620020d6620020d0846200209a565b620020b1565b620020a4565b9050919050565b620020ee81620020bb565b82525050565b60006020820190506200210b6000830184620020e3565b92915050565b600081519050620021228162001a8b565b92915050565b600060208284031215620021415762002140620017f8565b5b6000620021518482850162002111565b91505092915050565b7f455243313136373a20637265617465206661696c656400000000000000000000600082015250565b60006200219260168362001c78565b91506200219f826200215a565b602082019050919050565b60006020820190508181036000830152620021c58162002183565b9050919050565b7f496e697469616c697a61626c653a20636f6e7472616374206973206e6f74206960008201527f6e697469616c697a696e67000000000000000000000000000000000000000000602082015250565b60006200222a602b8362001c78565b91506200223782620021cc565b604082019050919050565b600060208201905081810360008301526200225d816200221b565b9050919050565b600081905092915050565b7f416363657373436f6e74726f6c3a206163636f756e7420000000000000000000600082015250565b6000620022a760178362002264565b9150620022b4826200226f565b601782019050919050565b600081519050919050565b60005b83811015620022ea578082015181840152602081019050620022cd565b60008484015250505050565b60006200230382620022bf565b6200230f818562002264565b935062002321818560208601620022ca565b80840191505092915050565b7f206973206d697373696e6720726f6c6520000000000000000000000000000000600082015250565b60006200236560118362002264565b915062002372826200232d565b601182019050919050565b60006200238a8262002298565b9150620023988285620022f6565b9150620023a58262002356565b9150620023b38284620022f6565b91508190509392505050565b6000601f19601f8301169050919050565b6000620023dd82620022bf565b620023e9818562001c78565b9350620023fb818560208601620022ca565b6200240681620023bf565b840191505092915050565b600060208201905081810360008301526200242d8184620023d0565b905092915050565b7f4e487b7100000000000000000000000000000000000000000000000000000000600052601160045260246000fd5b6000620024718262001a81565b91506200247e8362001a81565b92508282026200248e8162001a81565b91508282048414831517620024a857620024a762002435565b5b5092915050565b6000620024bc8262001a81565b9150620024c98362001a81565b9250828201905080821115620024e457620024e362002435565b5b92915050565b7f4e487b7100000000000000000000000000000000000000000000000000000000600052604160045260246000fd5b7f4e487b7100000000000000000000000000000000000000000000000000000000600052603260045260246000fd5b6000620025558262001a81565b9150600082036200256b576200256a62002435565b5b600182039050919050565b7f537472696e67733a20686578206c656e67746820696e73756666696369656e74600082015250565b6000620025ae60208362001c78565b9150620025bb8262002576565b602082019050919050565b60006020820190508181036000830152620025e1816200259f565b905091905056fe60806040523480156200001157600080fd5b50620000226200002860201b60201c565b620001d2565b600060019054906101000a900460ff16156200007b576040517f08c379a0000000000000000000000000000000000000000000000000000000008152600401620000729062000175565b60405180910390fd5b60ff801660008054906101000a900460ff1660ff1614620000ec5760ff6000806101000a81548160ff021916908360ff1602179055507f7f26b83ff96e1f2b6a682f133852f6798a09c465da95921460cefb384740249860ff604051620000e39190620001b5565b60405180910390a15b565b600082825260208201905092915050565b7f496e697469616c697a61626c653a20636f6e747261637420697320696e69746960008201527f616c697a696e6700000000000000000000000000000000000000000000000000602082015250565b60006200015d602783620000ee565b91506200016a82620000ff565b604082019050919050565b6000602082019050818103600083015262000190816200014e565b9050919050565b600060ff82169050919050565b620001af8162000197565b82525050565b6000602082019050620001cc6000830184620001a4565b92915050565b6117fc80620001e26000396000f3fe6080604052600436106100ab5760003560e01c8063961325211161006457806396132521146101c75780639852595c146101f2578063989a83661461022f578063a3f8eace14610258578063be9a655514610295578063fbccedae146102c0576100b2565b80630a17b06b146100b75780630fb5a6b4146100f4578063191655871461011f57806338af3eed14610148578063810ec23b1461017357806386d1a69f146101b0576100b2565b366100b257005b600080fd5b3480156100c357600080fd5b506100de60048036038101906100d99190610e01565b6102eb565b6040516100eb9190610e47565b60405180910390f35b34801561010057600080fd5b50610109610310565b6040516101169190610e47565b60405180910390f35b34801561012b57600080fd5b5061014660048036038101906101419190610ec0565b610338565b005b34801561015457600080fd5b5061015d610344565b60405161016a9190610efc565b60405180910390f35b34801561017f57600080fd5b5061019a60048036038101906101959190610f17565b61036e565b6040516101a79190610e47565b60405180910390f35b3480156101bc57600080fd5b506101c561040e565b005b3480156101d357600080fd5b506101dc61047e565b6040516101e99190610e47565b60405180910390f35b3480156101fe57600080fd5b5061021960048036038101906102149190610ec0565b610488565b6040516102269190610e47565b60405180910390f35b34801561023b57600080fd5b5061025660048036038101906102519190610f57565b6104d1565b005b34801561026457600080fd5b5061027f600480360381019061027a9190610ec0565b610615565b60405161028c9190610e47565b60405180910390f35b3480156102a157600080fd5b506102aa610627565b6040516102b79190610e47565b60405180910390f35b3480156102cc57600080fd5b506102d561064f565b6040516102e29190610e47565b60405180910390f35b60006103096102f861047e565b476103039190610fd9565b83610671565b9050919050565b6000603660009054906101000a900467ffffffffffffffff1667ffffffffffffffff16905090565b6103418161070b565b50565b6000603560009054906101000a900473ffffffffffffffffffffffffffffffffffffffff16905090565b600061040661037c84610488565b8473ffffffffffffffffffffffffffffffffffffffff166370a08231306040518263ffffffff1660e01b81526004016103b59190610efc565b602060405180830381865afa1580156103d2573d6000803e3d6000fd5b505050506040513d601f19601f820116820180604052508101906103f69190611039565b6104009190610fd9565b83610671565b905092915050565b600061041861064f565b9050806033600082825461042c9190610fd9565b925050819055507fda9d4e5f101b8b9b1c5b76d0c5a9f7923571acfc02376aa076b75a8c080c956b816040516104629190610e47565b60405180910390a161047b610475610344565b826107d2565b50565b6000603354905090565b6000603460008373ffffffffffffffffffffffffffffffffffffffff1673ffffffffffffffffffffffffffffffffffffffff168152602001908152602001600020549050919050565b60008060019054906101000a900460ff161590508080156105025750600160008054906101000a900460ff1660ff16105b8061052f5750610511306108c6565b15801561052e5750600160008054906101000a900460ff1660ff16145b5b61056e576040517f08c379a0000000000000000000000000000000000000000000000000000000008152600401610565906110e9565b60405180910390fd5b60016000806101000a81548160ff021916908360ff16021790555080156105ab576001600060016101000a81548160ff0219169083151502179055505b6105b68484846108e9565b801561060f5760008060016101000a81548160ff0219169083151502179055507f7f26b83ff96e1f2b6a682f133852f6798a09c465da95921460cefb38474024986001604051610606919061115b565b60405180910390a15b50505050565b600061062082610948565b9050919050565b6000603560149054906101000a900467ffffffffffffffff1667ffffffffffffffff16905090565b600061065961047e565b610662426102eb565b61066c9190611176565b905090565b600061067b610627565b8267ffffffffffffffff1610156106955760009050610705565b61069d610310565b6106a5610627565b6106af9190610fd9565b8267ffffffffffffffff1611156106c857829050610705565b6106d0610310565b6106d8610627565b8367ffffffffffffffff166106ed9190611176565b846106f891906111aa565b610702919061121b565b90505b92915050565b600061071682610615565b905080603460008473ffffffffffffffffffffffffffffffffffffffff1673ffffffffffffffffffffffffffffffffffffffff16815260200190815260200160002060008282546107679190610fd9565b925050819055508173ffffffffffffffffffffffffffffffffffffffff167fc0e523490dd523c33b1878c9eb14ff46991e3f5b2cd33710918618f2a39cba1b826040516107b49190610e47565b60405180910390a26107ce826107c8610344565b8361096e565b5050565b80471015610815576040517f08c379a000000000000000000000000000000000000000000000000000000000815260040161080c90611298565b60405180910390fd5b60008273ffffffffffffffffffffffffffffffffffffffff168260405161083b906112e9565b60006040518083038185875af1925050503d8060008114610878576040519150601f19603f3d011682016040523d82523d6000602084013e61087d565b606091505b50509050806108c1576040517f08c379a00000000000000000000000000000000000000000000000000000000081526004016108b890611370565b60405180910390fd5b505050565b6000808273ffffffffffffffffffffffffffffffffffffffff163b119050919050565b600060019054906101000a900460ff16610938576040517f08c379a000000000000000000000000000000000000000000000000000000000815260040161092f90611402565b60405180910390fd5b6109438383836109f4565b505050565b600061095382610488565b61095d834261036e565b6109679190611176565b9050919050565b6109ef8363a9059cbb60e01b848460405160240161098d929190611422565b604051602081830303815290604052907bffffffffffffffffffffffffffffffffffffffffffffffffffffffff19166020820180517bffffffffffffffffffffffffffffffffffffffffffffffffffffffff8381831617835250505050610b4a565b505050565b600060019054906101000a900460ff16610a43576040517f08c379a0000000000000000000000000000000000000000000000000000000008152600401610a3a90611402565b60405180910390fd5b600073ffffffffffffffffffffffffffffffffffffffff168373ffffffffffffffffffffffffffffffffffffffff1603610ab2576040517f08c379a0000000000000000000000000000000000000000000000000000000008152600401610aa9906114bd565b60405180910390fd5b82603560006101000a81548173ffffffffffffffffffffffffffffffffffffffff021916908373ffffffffffffffffffffffffffffffffffffffff16021790555081603560146101000a81548167ffffffffffffffff021916908367ffffffffffffffff16021790555080603660006101000a81548167ffffffffffffffff021916908367ffffffffffffffff160217905550505050565b6000610bac826040518060400160405280602081526020017f5361666545524332303a206c6f772d6c6576656c2063616c6c206661696c65648152508573ffffffffffffffffffffffffffffffffffffffff16610c129092919063ffffffff16565b9050600081511480610bce575080806020019051810190610bcd9190611515565b5b610c0d576040517f08c379a0000000000000000000000000000000000000000000000000000000008152600401610c04906115b4565b60405180910390fd5b505050565b6060610c218484600085610c2a565b90509392505050565b606082471015610c6f576040517f08c379a0000000000000000000000000000000000000000000000000000000008152600401610c6690611646565b60405180910390fd5b6000808673ffffffffffffffffffffffffffffffffffffffff168587604051610c9891906116cc565b60006040518083038185875af1925050503d8060008114610cd5576040519150601f19603f3d011682016040523d82523d6000602084013e610cda565b606091505b5091509150610ceb87838387610cf7565b92505050949350505050565b60608315610d59576000835103610d5157610d11856108c6565b610d50576040517f08c379a0000000000000000000000000000000000000000000000000000000008152600401610d479061172f565b60405180910390fd5b5b829050610d64565b610d638383610d6c565b5b949350505050565b600082511115610d7f5781518083602001fd5b806040517f08c379a0000000000000000000000000000000000000000000000000000000008152600401610db391906117a4565b60405180910390fd5b600080fd5b600067ffffffffffffffff82169050919050565b610dde81610dc1565b8114610de957600080fd5b50565b600081359050610dfb81610dd5565b92915050565b600060208284031215610e1757610e16610dbc565b5b6000610e2584828501610dec565b91505092915050565b6000819050919050565b610e4181610e2e565b82525050565b6000602082019050610e5c6000830184610e38565b92915050565b600073ffffffffffffffffffffffffffffffffffffffff82169050919050565b6000610e8d82610e62565b9050919050565b610e9d81610e82565b8114610ea857600080fd5b50565b600081359050610eba81610e94565b92915050565b600060208284031215610ed657610ed5610dbc565b5b6000610ee484828501610eab565b91505092915050565b610ef681610e82565b82525050565b6000602082019050610f116000830184610eed565b92915050565b60008060408385031215610f2e57610f2d610dbc565b5b6000610f3c85828601610eab565b9250506020610f4d85828601610dec565b9150509250929050565b600080600060608486031215610f7057610f6f610dbc565b5b6000610f7e86828701610eab565b9350506020610f8f86828701610dec565b9250506040610fa086828701610dec565b9150509250925092565b7f4e487b7100000000000000000000000000000000000000000000000000000000600052601160045260246000fd5b6000610fe482610e2e565b9150610fef83610e2e565b925082820190508082111561100757611006610faa565b5b92915050565b61101681610e2e565b811461102157600080fd5b50565b6000815190506110338161100d565b92915050565b60006020828403121561104f5761104e610dbc565b5b600061105d84828501611024565b91505092915050565b600082825260208201905092915050565b7f496e697469616c697a61626c653a20636f6e747261637420697320616c72656160008201527f647920696e697469616c697a6564000000000000000000000000000000000000602082015250565b60006110d3602e83611066565b91506110de82611077565b604082019050919050565b60006020820190508181036000830152611102816110c6565b9050919050565b6000819050919050565b600060ff82169050919050565b6000819050919050565b600061114561114061113b84611109565b611120565b611113565b9050919050565b6111558161112a565b82525050565b6000602082019050611170600083018461114c565b92915050565b600061118182610e2e565b915061118c83610e2e565b92508282039050818111156111a4576111a3610faa565b5b92915050565b60006111b582610e2e565b91506111c083610e2e565b92508282026111ce81610e2e565b915082820484148315176111e5576111e4610faa565b5b5092915050565b7f4e487b7100000000000000000000000000000000000000000000000000000000600052601260045260246000fd5b600061122682610e2e565b915061123183610e2e565b925082611241576112406111ec565b5b828204905092915050565b7f416464726573733a20696e73756666696369656e742062616c616e6365000000600082015250565b6000611282601d83611066565b915061128d8261124c565b602082019050919050565b600060208201905081810360008301526112b181611275565b9050919050565b600081905092915050565b50565b60006112d36000836112b8565b91506112de826112c3565b600082019050919050565b60006112f4826112c6565b9150819050919050565b7f416464726573733a20756e61626c6520746f2073656e642076616c75652c207260008201527f6563697069656e74206d61792068617665207265766572746564000000000000602082015250565b600061135a603a83611066565b9150611365826112fe565b604082019050919050565b600060208201905081810360008301526113898161134d565b9050919050565b7f496e697469616c697a61626c653a20636f6e7472616374206973206e6f74206960008201527f6e697469616c697a696e67000000000000000000000000000000000000000000602082015250565b60006113ec602b83611066565b91506113f782611390565b604082019050919050565b6000602082019050818103600083015261141b816113df565b9050919050565b60006040820190506114376000830185610eed565b6114446020830184610e38565b9392505050565b7f56657374696e6757616c6c65743a2062656e6566696369617279206973207a6560008201527f726f206164647265737300000000000000000000000000000000000000000000602082015250565b60006114a7602a83611066565b91506114b28261144b565b604082019050919050565b600060208201905081810360008301526114d68161149a565b9050919050565b60008115159050919050565b6114f2816114dd565b81146114fd57600080fd5b50565b60008151905061150f816114e9565b92915050565b60006020828403121561152b5761152a610dbc565b5b600061153984828501611500565b91505092915050565b7f5361666545524332303a204552433230206f7065726174696f6e20646964206e60008201527f6f74207375636365656400000000000000000000000000000000000000000000602082015250565b600061159e602a83611066565b91506115a982611542565b604082019050919050565b600060208201905081810360008301526115cd81611591565b9050919050565b7f416464726573733a20696e73756666696369656e742062616c616e636520666f60008201527f722063616c6c0000000000000000000000000000000000000000000000000000602082015250565b6000611630602683611066565b915061163b826115d4565b604082019050919050565b6000602082019050818103600083015261165f81611623565b9050919050565b600081519050919050565b60005b8381101561168f578082015181840152602081019050611674565b60008484015250505050565b60006116a682611666565b6116b081856112b8565b93506116c0818560208601611671565b80840191505092915050565b60006116d8828461169b565b915081905092915050565b7f416464726573733a2063616c6c20746f206e6f6e2d636f6e7472616374000000600082015250565b6000611719601d83611066565b9150611724826116e3565b602082019050919050565b600060208201905081810360008301526117488161170c565b9050919050565b600081519050919050565b6000601f19601f8301169050919050565b60006117768261174f565b6117808185611066565b9350611790818560208601611671565b6117998161175a565b840191505092915050565b600060208201905081810360008301526117be818461176b565b90509291505056fea26469706673582212207a797aef42f638a260f0deb77e59f82d86990351c3d1705131753c48e01d78ff64736f6c63430008180033a2646970667358221220129cb9a6c80e437c7616b7076f2a69460c42ec1a259ddbdba264d24b685b5a3964736f6c63430008180033",
  "linkReferences": {},
  "deployedLinkReferences": {}
}