{
  "_format": "hh-sol-artifact-1",
  "contractName": "LiquidityWell",
  "sourceName": "contracts/liquidityWell.sol",
  "abi": [
    {
      "inputs": [],
      "stateMutability": "nonpayable",
      "type": "constructor"
    },
    {
      "anonymous": false,
      "inputs": [
        {
          "indexed": false,
          "internalType": "uint8",
          "name": "version",
          "type": "uint8"
        }
      ],
      "name": "Initialized",
      "type": "event"
    },
    {
      "anonymous": false,
      "inputs": [
        {
          "indexed": true,
          "internalType": "bytes32",
          "name": "role",
          "type": "bytes32"
        },
        {
          "indexed": true,
          "internalType": "bytes32",
          "name": "previousAdminRole",
          "type": "bytes32"
        },
        {
          "indexed": true,
          "internalType": "bytes32",
          "name": "newAdminRole",
          "type": "bytes32"
        }
      ],
      "name": "RoleAdminChanged",
      "type": "event"
    },
    {
      "anonymous": false,
      "inputs": [
        {
          "indexed": true,
          "internalType": "bytes32",
          "name": "role",
          "type": "bytes32"
        },
        {
          "indexed": true,
          "internalType": "address",
          "name": "account",
          "type": "address"
        },
        {
          "indexed": true,
          "internalType": "address",
          "name": "sender",
          "type": "address"
        }
      ],
      "name": "RoleGranted",
      "type": "event"
    },
    {
      "anonymous": false,
      "inputs": [
        {
          "indexed": true,
          "internalType": "bytes32",
          "name": "role",
          "type": "bytes32"
        },
        {
          "indexed": true,
          "internalType": "address",
          "name": "account",
          "type": "address"
        },
        {
          "indexed": true,
          "internalType": "address",
          "name": "sender",
          "type": "address"
        }
      ],
      "name": "RoleRevoked",
      "type": "event"
    },
    {
      "stateMutability": "payable",
      "type": "fallback"
    },
    {
      "inputs": [],
      "name": "DEFAULT_ADMIN_ROLE",
      "outputs": [
        {
          "internalType": "bytes32",
          "name": "",
          "type": "bytes32"
        }
      ],
      "stateMutability": "view",
      "type": "function"
    },
    {
      "inputs": [
        {
          "internalType": "address",
          "name": "_asset",
          "type": "address"
        },
        {
          "internalType": "uint256",
          "name": "_amount",
          "type": "uint256"
        }
      ],
      "name": "addLiquidity",
      "outputs": [],
      "stateMutability": "payable",
      "type": "function"
    },
    {
      "inputs": [
        {
          "internalType": "address",
          "name": "",
          "type": "address"
        }
      ],
      "name": "assetAddressToId",
      "outputs": [
        {
          "internalType": "uint32",
          "name": "",
          "type": "uint32"
        }
      ],
      "stateMutability": "view",
      "type": "function"
    },
    {
      "inputs": [
        {
          "internalType": "uint32",
          "name": "",
          "type": "uint32"
        }
      ],
      "name": "assetIdToAddress",
      "outputs": [
        {
          "internalType": "address",
          "name": "",
          "type": "address"
        }
      ],
      "stateMutability": "view",
      "type": "function"
    },
    {
      "inputs": [],
      "name": "attestationVerifier",
      "outputs": [
        {
          "internalType": "contract AttestationsVerifierProofs",
          "name": "",
          "type": "address"
        }
      ],
      "stateMutability": "view",
      "type": "function"
    },
    {
      "inputs": [
        {
          "internalType": "uint32",
          "name": "_assetId",
          "type": "uint32"
        },
        {
          "internalType": "address",
          "name": "_account",
          "type": "address"
        }
      ],
      "name": "calculateAccountAssetId",
      "outputs": [
        {
          "internalType": "bytes32",
          "name": "",
          "type": "bytes32"
        }
      ],
      "stateMutability": "view",
      "type": "function"
    },
    {
      "inputs": [
        {
          "internalType": "uint32",
          "name": "assetId",
          "type": "uint32"
        }
      ],
      "name": "calculateAccountPointsToTotalShareHere",
      "outputs": [
        {
          "internalType": "uint256",
          "name": "",
          "type": "uint256"
        }
      ],
      "stateMutability": "view",
      "type": "function"
    },
    {
      "inputs": [
        {
          "internalType": "uint32",
          "name": "assetId",
          "type": "uint32"
        },
        {
          "internalType": "uint256",
          "name": "amount",
          "type": "uint256"
        }
      ],
      "name": "calculateInitialRewardPoints",
      "outputs": [
        {
          "internalType": "uint256",
          "name": "",
          "type": "uint256"
        }
      ],
      "stateMutability": "view",
      "type": "function"
    },
    {
      "inputs": [
        {
          "internalType": "bytes32",
          "name": "sfxId",
          "type": "bytes32"
        },
        {
          "internalType": "address",
          "name": "rewardAsset",
          "type": "address"
        },
        {
          "internalType": "uint256",
          "name": "maxReward",
          "type": "uint256"
        },
        {
          "internalType": "uint256",
          "name": "_settledAmount",
          "type": "uint256"
        },
        {
          "internalType": "uint256",
          "name": "orderTimestamp",
          "type": "uint256"
        },
        {
          "internalType": "bytes32",
          "name": "_batchPayloadHash",
          "type": "bytes32"
        },
        {
          "internalType": "bytes",
          "name": "_batchPayload",
          "type": "bytes"
        }
      ],
      "name": "claimPayout",
      "outputs": [],
      "stateMutability": "payable",
      "type": "function"
    },
    {
      "inputs": [],
      "name": "claimReward",
      "outputs": [],
      "stateMutability": "nonpayable",
      "type": "function"
    },
    {
      "inputs": [
        {
          "internalType": "bytes32",
          "name": "id",
          "type": "bytes32"
        },
        {
          "internalType": "address payable",
          "name": "target",
          "type": "address"
        },
        {
          "internalType": "uint256",
          "name": "amount",
          "type": "uint256"
        },
        {
          "internalType": "address",
          "name": "asset",
          "type": "address"
        }
      ],
      "name": "confirmOrder",
      "outputs": [],
      "stateMutability": "nonpayable",
      "type": "function"
    },
    {
      "inputs": [
        {
          "internalType": "address",
          "name": "_asset",
          "type": "address"
        },
        {
          "internalType": "uint256",
          "name": "_amount",
          "type": "uint256"
        },
        {
          "internalType": "address",
          "name": "_sender",
          "type": "address"
        }
      ],
      "name": "decreaseLiquidity",
      "outputs": [],
      "stateMutability": "nonpayable",
      "type": "function"
    },
    {
      "inputs": [
        {
          "internalType": "address",
          "name": "_asset",
          "type": "address"
        },
        {
          "internalType": "uint256",
          "name": "_amount",
          "type": "uint256"
        }
      ],
      "name": "deductLiquidity",
      "outputs": [],
      "stateMutability": "nonpayable",
      "type": "function"
    },
    {
      "inputs": [
        {
          "internalType": "uint32",
          "name": "assetId",
          "type": "uint32"
        },
        {
          "internalType": "address",
          "name": "account",
          "type": "address"
        }
      ],
      "name": "getAssetAccountIdAmounts",
      "outputs": [
        {
          "internalType": "uint256",
          "name": "",
          "type": "uint256"
        }
      ],
      "stateMutability": "view",
      "type": "function"
    },
    {
      "inputs": [
        {
          "internalType": "uint32",
          "name": "assetId",
          "type": "uint32"
        }
      ],
      "name": "getAssetIdToTotalAmounts",
      "outputs": [
        {
          "internalType": "uint256",
          "name": "",
          "type": "uint256"
        }
      ],
      "stateMutability": "view",
      "type": "function"
    },
    {
      "inputs": [
        {
          "internalType": "uint32",
          "name": "assetId",
          "type": "uint32"
        }
      ],
      "name": "getCurrentAssetLiquidityInWell",
      "outputs": [
        {
          "internalType": "uint256",
          "name": "",
          "type": "uint256"
        }
      ],
      "stateMutability": "view",
      "type": "function"
    },
    {
      "inputs": [],
      "name": "getCurrentLiquidityInWell",
      "outputs": [
        {
          "internalType": "uint256",
          "name": "",
          "type": "uint256"
        }
      ],
      "stateMutability": "view",
      "type": "function"
    },
    {
      "inputs": [],
      "name": "getCurrentPoints",
      "outputs": [
        {
          "internalType": "uint256",
          "name": "",
          "type": "uint256"
        }
      ],
      "stateMutability": "view",
      "type": "function"
    },
    {
      "inputs": [
        {
          "internalType": "uint32",
          "name": "assetId",
          "type": "uint32"
        }
      ],
      "name": "getLPAddress",
      "outputs": [
        {
          "internalType": "address",
          "name": "",
          "type": "address"
        }
      ],
      "stateMutability": "view",
      "type": "function"
    },
    {
      "inputs": [
        {
          "internalType": "uint32",
          "name": "assetId",
          "type": "uint32"
        },
        {
          "internalType": "address",
          "name": "account",
          "type": "address"
        }
      ],
      "name": "getLPBalance",
      "outputs": [
        {
          "internalType": "uint256",
          "name": "",
          "type": "uint256"
        }
      ],
      "stateMutability": "view",
      "type": "function"
    },
    {
      "inputs": [
        {
          "internalType": "uint32",
          "name": "_assetId",
          "type": "uint32"
        },
        {
          "internalType": "address",
          "name": "_account",
          "type": "address"
        }
      ],
      "name": "getLPTokenBalance",
      "outputs": [
        {
          "internalType": "uint256",
          "name": "",
          "type": "uint256"
        }
      ],
      "stateMutability": "view",
      "type": "function"
    },
    {
      "inputs": [
        {
          "internalType": "uint32",
          "name": "_assetId",
          "type": "uint32"
        }
      ],
      "name": "getLPTokenTotalSupply",
      "outputs": [
        {
          "internalType": "uint256",
          "name": "",
          "type": "uint256"
        }
      ],
      "stateMutability": "view",
      "type": "function"
    },
    {
      "inputs": [
        {
          "internalType": "address",
          "name": "_account",
          "type": "address"
        }
      ],
      "name": "getRewardTokenBalance",
      "outputs": [
        {
          "internalType": "uint256",
          "name": "",
          "type": "uint256"
        }
      ],
      "stateMutability": "view",
      "type": "function"
    },
    {
      "inputs": [
        {
          "internalType": "bytes32",
          "name": "role",
          "type": "bytes32"
        }
      ],
      "name": "getRoleAdmin",
      "outputs": [
        {
          "internalType": "bytes32",
          "name": "",
          "type": "bytes32"
        }
      ],
      "stateMutability": "view",
      "type": "function"
    },
    {
      "inputs": [],
      "name": "getTotalPointsRecalculated",
      "outputs": [
        {
          "internalType": "uint256",
          "name": "",
          "type": "uint256"
        }
      ],
      "stateMutability": "view",
      "type": "function"
    },
    {
      "inputs": [
        {
          "internalType": "bytes32",
          "name": "role",
          "type": "bytes32"
        },
        {
          "internalType": "address",
          "name": "account",
          "type": "address"
        }
      ],
      "name": "grantRole",
      "outputs": [],
      "stateMutability": "nonpayable",
      "type": "function"
    },
    {
      "inputs": [
        {
          "internalType": "bytes32",
          "name": "role",
          "type": "bytes32"
        },
        {
          "internalType": "address",
          "name": "account",
          "type": "address"
        }
      ],
      "name": "hasRole",
      "outputs": [
        {
          "internalType": "bool",
          "name": "",
          "type": "bool"
        }
      ],
      "stateMutability": "view",
      "type": "function"
    },
    {
      "inputs": [
        {
          "internalType": "address",
          "name": "_asset",
          "type": "address"
        },
        {
          "internalType": "uint256",
          "name": "_amount",
          "type": "uint256"
        },
        {
          "internalType": "address",
          "name": "_sender",
          "type": "address"
        }
      ],
      "name": "increaseLiquidity",
      "outputs": [],
      "stateMutability": "payable",
      "type": "function"
    },
    {
      "inputs": [
        {
          "internalType": "address",
          "name": "_owner",
          "type": "address"
        }
      ],
      "name": "initialize",
      "outputs": [],
      "stateMutability": "nonpayable",
      "type": "function"
    },
    {
      "inputs": [],
      "name": "isOnFlag",
      "outputs": [
        {
          "internalType": "bool",
          "name": "",
          "type": "bool"
        }
      ],
      "stateMutability": "view",
      "type": "function"
    },
    {
      "inputs": [],
      "name": "lpTokenInitializer",
      "outputs": [
        {
          "internalType": "contract LPTokenInitializer",
          "name": "",
          "type": "address"
        }
      ],
      "stateMutability": "view",
      "type": "function"
    },
    {
      "inputs": [
        {
          "internalType": "uint32",
          "name": "",
          "type": "uint32"
        }
      ],
      "name": "lpTokens",
      "outputs": [
        {
          "internalType": "contract LPToken",
          "name": "",
          "type": "address"
        }
      ],
      "stateMutability": "view",
      "type": "function"
    },
    {
      "inputs": [
        {
          "internalType": "address",
          "name": "_asset",
          "type": "address"
        }
      ],
      "name": "mapAssetToId",
      "outputs": [
        {
          "internalType": "uint32",
          "name": "",
          "type": "uint32"
        }
      ],
      "stateMutability": "view",
      "type": "function"
    },
    {
      "inputs": [
        {
          "internalType": "uint32",
          "name": "_assetId",
          "type": "uint32"
        }
      ],
      "name": "mapIdToAsset",
      "outputs": [
        {
          "internalType": "address",
          "name": "",
          "type": "address"
        }
      ],
      "stateMutability": "view",
      "type": "function"
    },
    {
      "inputs": [],
      "name": "marketPricer",
      "outputs": [
        {
          "internalType": "contract OpenMarketPricer",
          "name": "",
          "type": "address"
        }
      ],
      "stateMutability": "view",
      "type": "function"
    },
    {
      "inputs": [],
      "name": "orderer",
      "outputs": [
        {
          "internalType": "contract RemoteOrder",
          "name": "",
          "type": "address"
        }
      ],
      "stateMutability": "view",
      "type": "function"
    },
    {
      "inputs": [],
      "name": "remoteLiquidityWell",
      "outputs": [
        {
          "internalType": "contract RemoteLiquidityWell",
          "name": "",
          "type": "address"
        }
      ],
      "stateMutability": "view",
      "type": "function"
    },
    {
      "inputs": [
        {
          "internalType": "address",
          "name": "_asset",
          "type": "address"
        },
        {
          "internalType": "uint256",
          "name": "_amount",
          "type": "uint256"
        }
      ],
      "name": "removeLiquidity",
      "outputs": [],
      "stateMutability": "nonpayable",
      "type": "function"
    },
    {
      "inputs": [
        {
          "internalType": "bytes32",
          "name": "role",
          "type": "bytes32"
        },
        {
          "internalType": "address",
          "name": "account",
          "type": "address"
        }
      ],
      "name": "renounceRole",
      "outputs": [],
      "stateMutability": "nonpayable",
      "type": "function"
    },
    {
      "inputs": [
        {
          "internalType": "bytes32",
          "name": "role",
          "type": "bytes32"
        },
        {
          "internalType": "address",
          "name": "account",
          "type": "address"
        }
      ],
      "name": "revokeRole",
      "outputs": [],
      "stateMutability": "nonpayable",
      "type": "function"
    },
    {
      "inputs": [],
      "name": "rewardAssetId",
      "outputs": [
        {
          "internalType": "uint32",
          "name": "",
          "type": "uint32"
        }
      ],
      "stateMutability": "view",
      "type": "function"
    },
    {
      "inputs": [],
      "name": "rewardToken",
      "outputs": [
        {
          "internalType": "contract RewardToken",
          "name": "",
          "type": "address"
        }
      ],
      "stateMutability": "view",
      "type": "function"
    },
    {
      "inputs": [
        {
          "internalType": "address",
          "name": "_asset",
          "type": "address"
        },
        {
          "internalType": "uint256",
          "name": "_amount",
          "type": "uint256"
        }
      ],
      "name": "setAllowanceForOrderer",
      "outputs": [],
      "stateMutability": "nonpayable",
      "type": "function"
    },
    {
      "inputs": [
        {
          "internalType": "address",
          "name": "_attestationVerifier",
          "type": "address"
        }
      ],
      "name": "setAttestationVerifier",
      "outputs": [],
      "stateMutability": "nonpayable",
      "type": "function"
    },
    {
      "inputs": [
        {
          "internalType": "address payable",
          "name": "_lpTokenInitializer",
          "type": "address"
        }
      ],
      "name": "setLPTokenInitializer",
      "outputs": [],
      "stateMutability": "nonpayable",
      "type": "function"
    },
    {
      "inputs": [
        {
          "internalType": "address",
          "name": "_marketPricer",
          "type": "address"
        }
      ],
      "name": "setMarketPricer",
      "outputs": [],
      "stateMutability": "nonpayable",
      "type": "function"
    },
    {
      "inputs": [
        {
          "internalType": "address payable",
          "name": "_orderer",
          "type": "address"
        }
      ],
      "name": "setOrderer",
      "outputs": [],
      "stateMutability": "nonpayable",
      "type": "function"
    },
    {
      "inputs": [
        {
          "internalType": "address payable",
          "name": "_remoteLiquidityWell",
          "type": "address"
        }
      ],
      "name": "setRemoteLiquidityWell",
      "outputs": [],
      "stateMutability": "nonpayable",
      "type": "function"
    },
    {
      "inputs": [
        {
          "internalType": "uint32",
          "name": "_rewardAssetId",
          "type": "uint32"
        }
      ],
      "name": "setRewardAssetId",
      "outputs": [],
      "stateMutability": "nonpayable",
      "type": "function"
    },
    {
      "inputs": [
        {
          "internalType": "address",
          "name": "_rewardToken",
          "type": "address"
        }
      ],
      "name": "setRewardToken",
      "outputs": [],
      "stateMutability": "nonpayable",
      "type": "function"
    },
    {
      "inputs": [
        {
          "internalType": "bytes32",
          "name": "_version",
          "type": "bytes32"
        }
      ],
      "name": "setVersion",
      "outputs": [],
      "stateMutability": "nonpayable",
      "type": "function"
    },
    {
      "inputs": [
        {
          "internalType": "uint32",
          "name": "",
          "type": "uint32"
        }
      ],
      "name": "supportedAssetIds",
      "outputs": [
        {
          "internalType": "bool",
          "name": "",
          "type": "bool"
        }
      ],
      "stateMutability": "view",
      "type": "function"
    },
    {
      "inputs": [
        {
          "internalType": "uint256",
          "name": "",
          "type": "uint256"
        }
      ],
      "name": "supportedAssetIdsArray",
      "outputs": [
        {
          "internalType": "uint32",
          "name": "",
          "type": "uint32"
        }
      ],
      "stateMutability": "view",
      "type": "function"
    },
    {
      "inputs": [
        {
          "internalType": "address",
          "name": "",
          "type": "address"
        }
      ],
      "name": "supportedAssets",
      "outputs": [
        {
          "internalType": "bool",
          "name": "",
          "type": "bool"
        }
      ],
      "stateMutability": "view",
      "type": "function"
    },
    {
      "inputs": [
        {
          "internalType": "bytes4",
          "name": "interfaceId",
          "type": "bytes4"
        }
      ],
      "name": "supportsInterface",
      "outputs": [
        {
          "internalType": "bool",
          "name": "",
          "type": "bool"
        }
      ],
      "stateMutability": "view",
      "type": "function"
    },
    {
      "inputs": [],
      "name": "turnOff",
      "outputs": [],
      "stateMutability": "nonpayable",
      "type": "function"
    },
    {
      "inputs": [
        {
          "internalType": "address",
          "name": "_asset",
          "type": "address"
        }
      ],
      "name": "turnOffAssetSupport",
      "outputs": [],
      "stateMutability": "nonpayable",
      "type": "function"
    },
    {
      "inputs": [],
      "name": "turnOn",
      "outputs": [],
      "stateMutability": "nonpayable",
      "type": "function"
    },
    {
      "inputs": [
        {
          "internalType": "address",
          "name": "_asset",
          "type": "address"
        },
        {
          "internalType": "uint32",
          "name": "_assetId",
          "type": "uint32"
        },
        {
          "internalType": "string",
          "name": "_tokenName",
          "type": "string"
        }
      ],
      "name": "turnOnAssetSupport",
      "outputs": [],
      "stateMutability": "nonpayable",
      "type": "function"
    },
    {
      "inputs": [],
      "name": "version",
      "outputs": [
        {
          "internalType": "bytes32",
          "name": "",
          "type": "bytes32"
        }
      ],
      "stateMutability": "view",
      "type": "function"
    },
    {
      "stateMutability": "payable",
      "type": "receive"
    }
  ],
  "bytecode": "0x60806040523480156200001157600080fd5b50620000226200002860201b60201c565b620001d2565b600060019054906101000a900460ff16156200007b576040517f08c379a0000000000000000000000000000000000000000000000000000000008152600401620000729062000175565b60405180910390fd5b60ff801660008054906101000a900460ff1660ff1614620000ec5760ff6000806101000a81548160ff021916908360ff1602179055507f7f26b83ff96e1f2b6a682f133852f6798a09c465da95921460cefb384740249860ff604051620000e39190620001b5565b60405180910390a15b565b600082825260208201905092915050565b7f496e697469616c697a61626c653a20636f6e747261637420697320696e69746960008201527f616c697a696e6700000000000000000000000000000000000000000000000000602082015250565b60006200015d602783620000ee565b91506200016a82620000ff565b604082019050919050565b6000602082019050818103600083015262000190816200014e565b9050919050565b600060ff82169050919050565b620001af8162000197565b82525050565b6000602082019050620001cc6000830184620001a4565b92915050565b615b1580620001e26000396000f3fe60806040526004361061039b5760003560e01c806391d14854116101dc578063c589247311610102578063ddbf6213116100a0578063f7c618c11161006f578063f7c618c114610e06578063f98b113914610e31578063f9d55a1d14610e4d578063ff1d929714610e8a576103a2565b8063ddbf621314610d36578063ddccbeb514610d73578063e8910cff14610d9e578063f457fb6914610dc9576103a2565b8063d547741f116100dc578063d547741f14610c7e578063d5cef1a714610ca7578063d8420fb314610cd0578063d982be1e14610cf9576103a2565b8063c589247314610bef578063ca5f81b514610c18578063d228d95a14610c41576103a2565b8063b08316971161017a578063bb4ebc2411610149578063bb4ebc2414610b23578063bd81579e14610b4c578063c33d6f7b14610b89578063c4d66de814610bc6576103a2565b8063b083169714610a8d578063b4b3c5a014610aca578063b88a802f14610af5578063ba33ed7d14610b0c576103a2565b8063a201ccf6116101b6578063a201ccf6146109e5578063a217fddf14610a0e578063a4eaa71214610a39578063af10c81014610a76576103a2565b806391d148541461094257806394242aaf1461097f578063a1b94fce146109bc576103a2565b80635176d03a116102c1578063628cf32f1161025f5780637f4cf2611161022e5780637f4cf2611461088a57806382f6f608146108b35780638aee8127146108dc5780638edd45ac14610905576103a2565b8063628cf32f146107bc5780636d136c25146107e757806372f25883146108245780637c22e26a14610861576103a2565b8063562a93501161029b578063562a935014610730578063566887001461075b57806357d8207014610777578063593bbff6146107a0576103a2565b80635176d03a1461069d57806354f53106146106c857806354fd4d5014610705576103a2565b80632f2ff15d116103395780633c70ef51116103085780633c70ef51146105e1578063460136791461060c57806346760f25146106495780634e67fd4f14610672576103a2565b80632f2ff15d14610529578063337ac43314610552578063338d8c711461058f57806336568abe146105b8576103a2565b8063248a9ca311610375578063248a9ca31461044757806326a69b1914610484578063273d4a84146104c1578063296bf486146104ec576103a2565b806301a8f065146103a457806301ffc9a7146103cd57806307701cc31461040a576103a2565b366103a257005b005b3480156103b057600080fd5b506103cb60048036038101906103c69190614298565b610eb5565b005b3480156103d957600080fd5b506103f460048036038101906103ef9190614357565b611053565b604051610401919061439f565b60405180910390f35b34801561041657600080fd5b50610431600480360381019061042c91906143ba565b6110cd565b60405161043e91906143f6565b60405180910390f35b34801561045357600080fd5b5061046e60048036038101906104699190614411565b6111d1565b60405161047b919061444d565b60405180910390f35b34801561049057600080fd5b506104ab60048036038101906104a691906144a4565b6111f1565b6040516104b891906143f6565b60405180910390f35b3480156104cd57600080fd5b506104d66112f8565b6040516104e391906143f6565b60405180910390f35b3480156104f857600080fd5b50610513600480360381019061050e91906143ba565b611390565b60405161052091906144f3565b60405180910390f35b34801561053557600080fd5b50610550600480360381019061054b919061450e565b6113b3565b005b34801561055e57600080fd5b506105796004803603810190610574919061454e565b6113d4565b60405161058691906144f3565b60405180910390f35b34801561059b57600080fd5b506105b660048036038101906105b1919061457b565b61140e565b005b3480156105c457600080fd5b506105df60048036038101906105da919061450e565b61146c565b005b3480156105ed57600080fd5b506105f66114ef565b604051610603919061461a565b60405180910390f35b34801561061857600080fd5b50610633600480360381019061062e91906144a4565b611515565b60405161064091906143f6565b60405180910390f35b34801561065557600080fd5b50610670600480360381019061066b9190614635565b611529565b005b34801561067e57600080fd5b506106876115b9565b60405161069491906143f6565b60405180910390f35b3480156106a957600080fd5b506106b261164d565b6040516106bf9190614695565b60405180910390f35b3480156106d457600080fd5b506106ef60048036038101906106ea91906146b0565b611673565b6040516106fc91906146ec565b60405180910390f35b34801561071157600080fd5b5061071a6116a6565b604051610727919061444d565b60405180910390f35b34801561073c57600080fd5b506107456116ac565b6040516107529190614728565b60405180910390f35b6107756004803603810190610770919061457b565b6116d2565b005b34801561078357600080fd5b5061079e6004803603810190610799919061457b565b61182d565b005b6107ba60048036038101906107b59190614743565b611921565b005b3480156107c857600080fd5b506107d1611a10565b6040516107de91906147b7565b60405180910390f35b3480156107f357600080fd5b5061080e600480360381019061080991906146b0565b611a36565b60405161081b91906146ec565b60405180910390f35b34801561083057600080fd5b5061084b600480360381019061084691906146b0565b611a7f565b604051610858919061439f565b60405180910390f35b34801561086d57600080fd5b5061088860048036038101906108839190614635565b611a9f565b005b34801561089657600080fd5b506108b160048036038101906108ac9190614743565b611b2f565b005b3480156108bf57600080fd5b506108da60048036038101906108d591906143ba565b611c1e565b005b3480156108e857600080fd5b5061090360048036038101906108fe91906143ba565b611cae565b005b34801561091157600080fd5b5061092c600480360381019061092791906146b0565b611d3e565b60405161093991906143f6565b60405180910390f35b34801561094e57600080fd5b506109696004803603810190610964919061450e565b611d50565b604051610976919061439f565b60405180910390f35b34801561098b57600080fd5b506109a660048036038101906109a191906144a4565b611dbb565b6040516109b391906143f6565b60405180910390f35b3480156109c857600080fd5b506109e360048036038101906109de91906143ba565b611e83565b005b3480156109f157600080fd5b50610a0c6004803603810190610a07919061457b565b6122e6565b005b348015610a1a57600080fd5b50610a23612443565b604051610a30919061444d565b60405180910390f35b348015610a4557600080fd5b50610a606004803603810190610a5b91906143ba565b61244a565b604051610a6d91906144f3565b60405180910390f35b348015610a8257600080fd5b50610a8b612514565b005b348015610a9957600080fd5b50610ab46004803603810190610aaf91906146b0565b61257d565b604051610ac191906146ec565b60405180910390f35b348015610ad657600080fd5b50610adf612657565b604051610aec91906147f3565b60405180910390f35b348015610b0157600080fd5b50610b0a61267d565b005b348015610b1857600080fd5b50610b2161275b565b005b348015610b2f57600080fd5b50610b4a6004803603810190610b459190614635565b6127c4565b005b348015610b5857600080fd5b50610b736004803603810190610b6e91906143ba565b612854565b604051610b80919061439f565b60405180910390f35b348015610b9557600080fd5b50610bb06004803603810190610bab91906146b0565b612874565b604051610bbd91906143f6565b60405180910390f35b348015610bd257600080fd5b50610bed6004803603810190610be891906143ba565b6128b9565b005b348015610bfb57600080fd5b50610c166004803603810190610c1191906146b0565b612a20565b005b348015610c2457600080fd5b50610c3f6004803603810190610c3a9190614411565b612a90565b005b348015610c4d57600080fd5b50610c686004803603810190610c63919061480e565b612ae6565b604051610c7591906143f6565b60405180910390f35b348015610c8a57600080fd5b50610ca56004803603810190610ca0919061450e565b612bc3565b005b348015610cb357600080fd5b50610cce6004803603810190610cc99190614994565b612be4565b005b348015610cdc57600080fd5b50610cf76004803603810190610cf291906143ba565b612f59565b005b348015610d0557600080fd5b50610d206004803603810190610d1b91906146b0565b612fe9565b604051610d2d91906143f6565b60405180910390f35b348015610d4257600080fd5b50610d5d6004803603810190610d5891906146b0565b612ffb565b604051610d6a9190614a24565b60405180910390f35b348015610d7f57600080fd5b50610d8861302e565b604051610d95919061439f565b60405180910390f35b348015610daa57600080fd5b50610db3613041565b604051610dc091906143f6565b60405180910390f35b348015610dd557600080fd5b50610df06004803603810190610deb91906146b0565b6130c0565b604051610dfd91906143f6565b60405180910390f35b348015610e1257600080fd5b50610e1b6131bb565b604051610e289190614a60565b60405180910390f35b610e4b6004803603810190610e469190614b1c565b6131e1565b005b348015610e5957600080fd5b50610e746004803603810190610e6f91906144a4565b6132d2565b604051610e81919061444d565b60405180910390f35b348015610e9657600080fd5b50610e9f613305565b604051610eac91906144f3565b60405180910390f35b609f60009054906101000a900460ff16610f04576040517f08c379a0000000000000000000000000000000000000000000000000000000008152600401610efb90614c37565b60405180910390fd5b610f116000801b33611d50565b80610f69575060a160009054906101000a900473ffffffffffffffffffffffffffffffffffffffff1673ffffffffffffffffffffffffffffffffffffffff163373ffffffffffffffffffffffffffffffffffffffff16145b610fa8576040517f08c379a0000000000000000000000000000000000000000000000000000000008152600401610f9f90614cc9565b60405180910390fd5b60a260009054906101000a900473ffffffffffffffffffffffffffffffffffffffff1673ffffffffffffffffffffffffffffffffffffffff166301a8f065858585856040518563ffffffff1660e01b81526004016110099493929190614cf8565b6020604051808303816000875af1158015611028573d6000803e3d6000fd5b505050506040513d601f19601f8201168201806040525081019061104c9190614d69565b5050505050565b60007f7965db0b000000000000000000000000000000000000000000000000000000007bffffffffffffffffffffffffffffffffffffffffffffffffffffffff1916827bffffffffffffffffffffffffffffffffffffffffffffffffffffffff191614806110c657506110c58261331b565b5b9050919050565b60008073ffffffffffffffffffffffffffffffffffffffff16609c60009054906101000a900473ffffffffffffffffffffffffffffffffffffffff1673ffffffffffffffffffffffffffffffffffffffff160361112d57600090506111cc565b609c60009054906101000a900473ffffffffffffffffffffffffffffffffffffffff1673ffffffffffffffffffffffffffffffffffffffff166370a08231836040518263ffffffff1660e01b815260040161118891906146ec565b602060405180830381865afa1580156111a5573d6000803e3d6000fd5b505050506040513d601f19601f820116820180604052508101906111c99190614dab565b90505b919050565b600060656000838152602001908152602001600020600101549050919050565b600080609e60008563ffffffff1663ffffffff16815260200190815260200160002060009054906101000a900473ffffffffffffffffffffffffffffffffffffffff169050600073ffffffffffffffffffffffffffffffffffffffff168173ffffffffffffffffffffffffffffffffffffffff16036112745760009150506112f2565b8073ffffffffffffffffffffffffffffffffffffffff166370a08231846040518263ffffffff1660e01b81526004016112ad91906146ec565b602060405180830381865afa1580156112ca573d6000803e3d6000fd5b505050506040513d601f19601f820116820180604052508101906112ee9190614dab565b9150505b92915050565b6000609c60009054906101000a900473ffffffffffffffffffffffffffffffffffffffff1673ffffffffffffffffffffffffffffffffffffffff166318160ddd6040518163ffffffff1660e01b8152600401602060405180830381865afa158015611367573d6000803e3d6000fd5b505050506040513d601f19601f8201168201806040525081019061138b9190614dab565b905090565b609b6020528060005260406000206000915054906101000a900463ffffffff1681565b6113bc826111d1565b6113c581613385565b6113cf8383613399565b505050565b609981815481106113e457600080fd5b9060005260206000209060089182820401919006600402915054906101000a900463ffffffff1681565b609f60009054906101000a900460ff1661145d576040517f08c379a000000000000000000000000000000000000000000000000000000000815260040161145490614c37565b60405180910390fd5b61146882823361347a565b5050565b611474613907565b73ffffffffffffffffffffffffffffffffffffffff168173ffffffffffffffffffffffffffffffffffffffff16146114e1576040517f08c379a00000000000000000000000000000000000000000000000000000000081526004016114d890614e4a565b60405180910390fd5b6114eb828261390f565b5050565b60a360009054906101000a900473ffffffffffffffffffffffffffffffffffffffff1681565b600061152183836111f1565b905092915050565b6115366000801b33611d50565b611575576040517f08c379a000000000000000000000000000000000000000000000000000000000815260040161156c90614edc565b60405180910390fd5b8060a460006101000a81548173ffffffffffffffffffffffffffffffffffffffff021916908373ffffffffffffffffffffffffffffffffffffffff16021790555050565b6000806000905060005b609980549050811015611645576000609982815481106115e6576115e5614efc565b5b90600052602060002090600891828204019190066004029054906101000a900463ffffffff1690506000611619826130c0565b905060006116278383612ae6565b905080856116359190614f5a565b94505050508060010190506115c3565b508091505090565b609d60009054906101000a900473ffffffffffffffffffffffffffffffffffffffff1681565b609a6020528060005260406000206000915054906101000a900473ffffffffffffffffffffffffffffffffffffffff1681565b60a05481565b60a460009054906101000a900473ffffffffffffffffffffffffffffffffffffffff1681565b609f60009054906101000a900460ff16611721576040517f08c379a000000000000000000000000000000000000000000000000000000000815260040161171890614c37565b60405180910390fd5b600073ffffffffffffffffffffffffffffffffffffffff168273ffffffffffffffffffffffffffffffffffffffff160361179c57803414611797576040517f08c379a000000000000000000000000000000000000000000000000000000000815260040161178e90614fda565b60405180910390fd5b61181e565b8173ffffffffffffffffffffffffffffffffffffffff166323b872dd3330846040518463ffffffff1660e01b81526004016117d993929190614ffa565b6020604051808303816000875af11580156117f8573d6000803e3d6000fd5b505050506040513d601f19601f8201168201806040525081019061181c9190614d69565b505b6118298282336139f1565b5050565b609f60009054906101000a900460ff1661187c576040517f08c379a000000000000000000000000000000000000000000000000000000000815260040161187390614c37565b60405180910390fd5b8173ffffffffffffffffffffffffffffffffffffffff1663095ea7b360a260009054906101000a900473ffffffffffffffffffffffffffffffffffffffff16836040518363ffffffff1660e01b81526004016118d9929190615031565b6020604051808303816000875af11580156118f8573d6000803e3d6000fd5b505050506040513d601f19601f8201168201806040525081019061191c9190614d69565b505050565b609f60009054906101000a900460ff16611970576040517f08c379a000000000000000000000000000000000000000000000000000000000815260040161196790614c37565b60405180910390fd5b609d60009054906101000a900473ffffffffffffffffffffffffffffffffffffffff1673ffffffffffffffffffffffffffffffffffffffff163373ffffffffffffffffffffffffffffffffffffffff1614611a00576040517f08c379a00000000000000000000000000000000000000000000000000000000081526004016119f7906150cc565b60405180910390fd5b611a0b8383836139f1565b505050565b60a260009054906101000a900473ffffffffffffffffffffffffffffffffffffffff1681565b6000609e60008363ffffffff1663ffffffff16815260200190815260200160002060009054906101000a900473ffffffffffffffffffffffffffffffffffffffff169050919050565b60986020528060005260406000206000915054906101000a900460ff1681565b611aac6000801b33611d50565b611aeb576040517f08c379a0000000000000000000000000000000000000000000000000000000008152600401611ae290614edc565b60405180910390fd5b8060a260006101000a81548173ffffffffffffffffffffffffffffffffffffffff021916908373ffffffffffffffffffffffffffffffffffffffff16021790555050565b609f60009054906101000a900460ff16611b7e576040517f08c379a0000000000000000000000000000000000000000000000000000000008152600401611b7590614c37565b60405180910390fd5b609d60009054906101000a900473ffffffffffffffffffffffffffffffffffffffff1673ffffffffffffffffffffffffffffffffffffffff163373ffffffffffffffffffffffffffffffffffffffff1614611c0e576040517f08c379a0000000000000000000000000000000000000000000000000000000008152600401611c05906150cc565b60405180910390fd5b611c1983838361347a565b505050565b611c2b6000801b33611d50565b611c6a576040517f08c379a0000000000000000000000000000000000000000000000000000000008152600401611c6190614edc565b60405180910390fd5b8060a160006101000a81548173ffffffffffffffffffffffffffffffffffffffff021916908373ffffffffffffffffffffffffffffffffffffffff16021790555050565b611cbb6000801b33611d50565b611cfa576040517f08c379a0000000000000000000000000000000000000000000000000000000008152600401611cf190614edc565b60405180910390fd5b80609c60006101000a81548173ffffffffffffffffffffffffffffffffffffffff021916908373ffffffffffffffffffffffffffffffffffffffff16021790555050565b6000611d49826130c0565b9050919050565b60006065600084815260200190815260200160002060000160008373ffffffffffffffffffffffffffffffffffffffff1673ffffffffffffffffffffffffffffffffffffffff16815260200190815260200160002060009054906101000a900460ff16905092915050565b600080609e60008563ffffffff1663ffffffff16815260200190815260200160002060009054906101000a900473ffffffffffffffffffffffffffffffffffffffff1690508073ffffffffffffffffffffffffffffffffffffffff166370a08231846040518263ffffffff1660e01b8152600401611e3991906146ec565b602060405180830381865afa158015611e56573d6000803e3d6000fd5b505050506040513d601f19601f82011682018060405250810190611e7a9190614dab565b91505092915050565b611e906000801b33611d50565b611ecf576040517f08c379a0000000000000000000000000000000000000000000000000000000008152600401611ec690614edc565b60405180910390fd5b6000609b60008373ffffffffffffffffffffffffffffffffffffffff1673ffffffffffffffffffffffffffffffffffffffff16815260200190815260200160002060009054906101000a900463ffffffff1690506000609760008473ffffffffffffffffffffffffffffffffffffffff1673ffffffffffffffffffffffffffffffffffffffff16815260200190815260200160002060006101000a81548160ff0219169083151502179055506000609860008363ffffffff1663ffffffff16815260200190815260200160002060006101000a81548160ff0219169083151502179055506000609a60008363ffffffff1663ffffffff16815260200190815260200160002060006101000a81548173ffffffffffffffffffffffffffffffffffffffff021916908373ffffffffffffffffffffffffffffffffffffffff1602179055506000609b60008473ffffffffffffffffffffffffffffffffffffffff1673ffffffffffffffffffffffffffffffffffffffff16815260200190815260200160002060006101000a81548163ffffffff021916908363ffffffff16021790555060005b6099805490508110156121b1578163ffffffff166099828154811061209c5761209b614efc565b5b90600052602060002090600891828204019190066004029054906101000a900463ffffffff1663ffffffff16036121a657609960016099805490506120e191906150ec565b815481106120f2576120f1614efc565b5b90600052602060002090600891828204019190066004029054906101000a900463ffffffff166099828154811061212c5761212b614efc565b5b90600052602060002090600891828204019190066004026101000a81548163ffffffff021916908363ffffffff160217905550609980548061217157612170615120565b5b60019003818190600052602060002090600891828204019190066004026101000a81549063ffffffff021916905590556121b1565b806001019050612074565b506000609e60008363ffffffff1663ffffffff16815260200190815260200160002060009054906101000a900473ffffffffffffffffffffffffffffffffffffffff169050600073ffffffffffffffffffffffffffffffffffffffff168173ffffffffffffffffffffffffffffffffffffffff16146122e15760008173ffffffffffffffffffffffffffffffffffffffff166318160ddd6040518163ffffffff1660e01b8152600401602060405180830381865afa158015612277573d6000803e3d6000fd5b505050506040513d601f19601f8201168201806040525081019061229b9190614dab565b9050609e60008463ffffffff1663ffffffff16815260200190815260200160002060006101000a81549073ffffffffffffffffffffffffffffffffffffffff0219169055505b505050565b609f60009054906101000a900460ff16612335576040517f08c379a000000000000000000000000000000000000000000000000000000000815260040161232c90614c37565b60405180910390fd5b61233f828261140e565b600073ffffffffffffffffffffffffffffffffffffffff168273ffffffffffffffffffffffffffffffffffffffff16036123bf573373ffffffffffffffffffffffffffffffffffffffff166108fc829081150290604051600060405180830381858888f193505050501580156123b9573d6000803e3d6000fd5b5061243f565b8173ffffffffffffffffffffffffffffffffffffffff1663a9059cbb33836040518363ffffffff1660e01b81526004016123fa929190615031565b6020604051808303816000875af1158015612419573d6000803e3d6000fd5b505050506040513d601f19601f8201168201806040525081019061243d9190614d69565b505b5050565b6000801b81565b600080609b60008473ffffffffffffffffffffffffffffffffffffffff1673ffffffffffffffffffffffffffffffffffffffff16815260200190815260200160002060009054906101000a900463ffffffff169050609860008263ffffffff1663ffffffff16815260200190815260200160002060009054906101000a900460ff1661250b576040517f08c379a00000000000000000000000000000000000000000000000000000000081526004016125029061519b565b60405180910390fd5b80915050919050565b6125216000801b33611d50565b612560576040517f08c379a000000000000000000000000000000000000000000000000000000000815260040161255790614edc565b60405180910390fd5b6000609f60006101000a81548160ff021916908315150217905550565b600080609a60008463ffffffff1663ffffffff16815260200190815260200160002060009054906101000a900473ffffffffffffffffffffffffffffffffffffffff169050609760008273ffffffffffffffffffffffffffffffffffffffff1673ffffffffffffffffffffffffffffffffffffffff16815260200190815260200160002060009054906101000a900460ff1661264e576040517f08c379a00000000000000000000000000000000000000000000000000000000081526004016126459061519b565b60405180910390fd5b80915050919050565b60a160009054906101000a900473ffffffffffffffffffffffffffffffffffffffff1681565b609f60009054906101000a900460ff166126cc576040517f08c379a00000000000000000000000000000000000000000000000000000000081526004016126c390614c37565b60405180910390fd5b609c60009054906101000a900473ffffffffffffffffffffffffffffffffffffffff1673ffffffffffffffffffffffffffffffffffffffff1663d0df1374336040518263ffffffff1660e01b815260040161272791906146ec565b600060405180830381600087803b15801561274157600080fd5b505af1158015612755573d6000803e3d6000fd5b50505050565b6127686000801b33611d50565b6127a7576040517f08c379a000000000000000000000000000000000000000000000000000000000815260040161279e90614edc565b60405180910390fd5b6001609f60006101000a81548160ff021916908315150217905550565b6127d16000801b33611d50565b612810576040517f08c379a000000000000000000000000000000000000000000000000000000000815260040161280790614edc565b60405180910390fd5b80609d60006101000a81548173ffffffffffffffffffffffffffffffffffffffff021916908373ffffffffffffffffffffffffffffffffffffffff16021790555050565b60976020528060005260406000206000915054906101000a900460ff1681565b60008061288183336111f1565b9050600061288e846130c0565b9050600081036128a3576000925050506128b4565b80826128af91906151ea565b925050505b919050565b60008060019054906101000a900460ff161590508080156128ea5750600160008054906101000a900460ff1660ff16105b8061291757506128f930613e1a565b1580156129165750600160008054906101000a900460ff1660ff16145b5b612956576040517f08c379a000000000000000000000000000000000000000000000000000000000815260040161294d9061528d565b60405180910390fd5b60016000806101000a81548160ff021916908360ff1602179055508015612993576001600060016101000a81548160ff0219169083151502179055505b61299b613e3d565b6129a86000801b83613399565b6001609f60006101000a81548160ff0219169083151502179055508015612a1c5760008060016101000a81548160ff0219169083151502179055507f7f26b83ff96e1f2b6a682f133852f6798a09c465da95921460cefb38474024986001604051612a1391906152f5565b60405180910390a15b5050565b612a2d6000801b33611d50565b612a6c576040517f08c379a0000000000000000000000000000000000000000000000000000000008152600401612a6390614edc565b60405180910390fd5b80609d60146101000a81548163ffffffff021916908363ffffffff16021790555050565b612a9d6000801b33611d50565b612adc576040517f08c379a0000000000000000000000000000000000000000000000000000000008152600401612ad390614edc565b60405180910390fd5b8060a08190555050565b60008060a360009054906101000a900473ffffffffffffffffffffffffffffffffffffffff1673ffffffffffffffffffffffffffffffffffffffff1663afce54d185609d60149054906101000a900463ffffffff166040518363ffffffff1660e01b8152600401612b58929190615310565b602060405180830381865afa158015612b75573d6000803e3d6000fd5b505050506040513d601f19601f82011682018060405250810190612b999190614dab565b9050670de0b6b3a76400008184612bb09190615339565b612bba91906151ea565b91505092915050565b612bcc826111d1565b612bd581613385565b612bdf838361390f565b505050565b612bf16000801b33611d50565b612c30576040517f08c379a0000000000000000000000000000000000000000000000000000000008152600401612c2790614edc565b60405180910390fd5b609760008473ffffffffffffffffffffffffffffffffffffffff1673ffffffffffffffffffffffffffffffffffffffff16815260200190815260200160002060009054906101000a900460ff1615612cbd576040517f08c379a0000000000000000000000000000000000000000000000000000000008152600401612cb4906153c7565b60405180910390fd5b6001609760008573ffffffffffffffffffffffffffffffffffffffff1673ffffffffffffffffffffffffffffffffffffffff16815260200190815260200160002060006101000a81548160ff0219169083151502179055506001609860008463ffffffff1663ffffffff16815260200190815260200160002060006101000a81548160ff02191690831515021790555082609a60008463ffffffff1663ffffffff16815260200190815260200160002060006101000a81548173ffffffffffffffffffffffffffffffffffffffff021916908373ffffffffffffffffffffffffffffffffffffffff16021790555081609b60008573ffffffffffffffffffffffffffffffffffffffff1673ffffffffffffffffffffffffffffffffffffffff16815260200190815260200160002060006101000a81548163ffffffff021916908363ffffffff16021790555060998290806001815401808255809150506001900390600052602060002090600891828204019190066004029091909190916101000a81548163ffffffff021916908363ffffffff16021790555060a460009054906101000a900473ffffffffffffffffffffffffffffffffffffffff1673ffffffffffffffffffffffffffffffffffffffff16634cd88b7682836040518363ffffffff1660e01b8152600401612eb4929190615455565b6020604051808303816000875af1158015612ed3573d6000803e3d6000fd5b505050506040513d601f19601f82011682018060405250810190612ef791906154ca565b609e60008463ffffffff1663ffffffff16815260200190815260200160002060006101000a81548173ffffffffffffffffffffffffffffffffffffffff021916908373ffffffffffffffffffffffffffffffffffffffff160217905550505050565b612f666000801b33611d50565b612fa5576040517f08c379a0000000000000000000000000000000000000000000000000000000008152600401612f9c90614edc565b60405180910390fd5b8060a360006101000a81548173ffffffffffffffffffffffffffffffffffffffff021916908373ffffffffffffffffffffffffffffffffffffffff16021790555050565b6000612ff4826130c0565b9050919050565b609e6020528060005260406000206000915054906101000a900473ffffffffffffffffffffffffffffffffffffffff1681565b609f60009054906101000a900460ff1681565b6000806000905060005b6099805490508110156130b85760006099828154811061306e5761306d614efc565b5b90600052602060002090600891828204019190066004029054906101000a900463ffffffff16905061309f81611d3e565b836130aa9190614f5a565b92505080600101905061304b565b508091505090565b600080609e60008463ffffffff1663ffffffff16815260200190815260200160002060009054906101000a900473ffffffffffffffffffffffffffffffffffffffff169050600073ffffffffffffffffffffffffffffffffffffffff168173ffffffffffffffffffffffffffffffffffffffff16036131435760009150506131b6565b8073ffffffffffffffffffffffffffffffffffffffff166318160ddd6040518163ffffffff1660e01b8152600401602060405180830381865afa15801561318e573d6000803e3d6000fd5b505050506040513d601f19601f820116820180604052508101906131b29190614dab565b9150505b919050565b609c60009054906101000a900473ffffffffffffffffffffffffffffffffffffffff1681565b609f60009054906101000a900460ff16613230576040517f08c379a000000000000000000000000000000000000000000000000000000000815260040161322790614c37565b60405180910390fd5b60a260009054906101000a900473ffffffffffffffffffffffffffffffffffffffff1673ffffffffffffffffffffffffffffffffffffffff166364a47927888888888888886040518863ffffffff1660e01b8152600401613297979695949392919061554c565b600060405180830381600087803b1580156132b157600080fd5b505af11580156132c5573d6000803e3d6000fd5b5050505050505050505050565b600082826040516020016132e7929190615640565b60405160208183030381529060405280519060200120905092915050565b609d60149054906101000a900463ffffffff1681565b60007f01ffc9a7000000000000000000000000000000000000000000000000000000007bffffffffffffffffffffffffffffffffffffffffffffffffffffffff1916827bffffffffffffffffffffffffffffffffffffffffffffffffffffffff1916149050919050565b61339681613391613907565b613e8e565b50565b6133a38282611d50565b6134765760016065600084815260200190815260200160002060000160008373ffffffffffffffffffffffffffffffffffffffff1673ffffffffffffffffffffffffffffffffffffffff16815260200190815260200160002060006101000a81548160ff02191690831515021790555061341b613907565b73ffffffffffffffffffffffffffffffffffffffff168173ffffffffffffffffffffffffffffffffffffffff16837f2f8788117e7eff1d82e926ec794901d17c78024a50270940304540a733656f0d60405160405180910390a45b5050565b609f60009054906101000a900460ff166134c9576040517f08c379a00000000000000000000000000000000000000000000000000000000081526004016134c090614c37565b60405180910390fd5b609760008473ffffffffffffffffffffffffffffffffffffffff1673ffffffffffffffffffffffffffffffffffffffff16815260200190815260200160002060009054906101000a900460ff16613555576040517f08c379a000000000000000000000000000000000000000000000000000000000815260040161354c9061519b565b60405180910390fd5b6000609b60008573ffffffffffffffffffffffffffffffffffffffff1673ffffffffffffffffffffffffffffffffffffffff16815260200190815260200160002060009054906101000a900463ffffffff169050600083116135ec576040517f08c379a00000000000000000000000000000000000000000000000000000000081526004016135e3906156b8565b60405180910390fd5b60006135f882846132d2565b9050600061360683856111f1565b90506000811161364b576040517f08c379a000000000000000000000000000000000000000000000000000000000815260040161364290615724565b60405180910390fd5b8481101561368e576040517f08c379a000000000000000000000000000000000000000000000000000000000815260040161368590615790565b60405180910390fd5b6000613699846130c0565b9050600081116136de576040517f08c379a00000000000000000000000000000000000000000000000000000000081526004016136d5906157fc565b60405180910390fd5b60006136ea8588612ae6565b90506000811161372f576040517f08c379a000000000000000000000000000000000000000000000000000000000815260040161372690615868565b60405180910390fd5b609c60009054906101000a900473ffffffffffffffffffffffffffffffffffffffff1673ffffffffffffffffffffffffffffffffffffffff1663d0df1374876040518263ffffffff1660e01b815260040161378a91906146ec565b600060405180830381600087803b1580156137a457600080fd5b505af11580156137b8573d6000803e3d6000fd5b505050506000609e60008763ffffffff1663ffffffff16815260200190815260200160002060009054906101000a900473ffffffffffffffffffffffffffffffffffffffff1690508073ffffffffffffffffffffffffffffffffffffffff16639dc29fac888a6040518363ffffffff1660e01b815260040161383b929190615031565b600060405180830381600087803b15801561385557600080fd5b505af1158015613869573d6000803e3d6000fd5b50505050609c60009054906101000a900473ffffffffffffffffffffffffffffffffffffffff1673ffffffffffffffffffffffffffffffffffffffff166379cc679088846040518363ffffffff1660e01b81526004016138ca929190615031565b600060405180830381600087803b1580156138e457600080fd5b505af11580156138f8573d6000803e3d6000fd5b50505050505050505050505050565b600033905090565b6139198282611d50565b156139ed5760006065600084815260200190815260200160002060000160008373ffffffffffffffffffffffffffffffffffffffff1673ffffffffffffffffffffffffffffffffffffffff16815260200190815260200160002060006101000a81548160ff021916908315150217905550613992613907565b73ffffffffffffffffffffffffffffffffffffffff168173ffffffffffffffffffffffffffffffffffffffff16837ff6391f5c32d9c69d2a47ea670b442974b53935d1edc7fd64eb21e047a839171b60405160405180910390a45b5050565b609f60009054906101000a900460ff16613a40576040517f08c379a0000000000000000000000000000000000000000000000000000000008152600401613a3790614c37565b60405180910390fd5b609760008473ffffffffffffffffffffffffffffffffffffffff1673ffffffffffffffffffffffffffffffffffffffff16815260200190815260200160002060009054906101000a900460ff16613acc576040517f08c379a0000000000000000000000000000000000000000000000000000000008152600401613ac39061519b565b60405180910390fd5b6000609b60008573ffffffffffffffffffffffffffffffffffffffff1673ffffffffffffffffffffffffffffffffffffffff16815260200190815260200160002060009054906101000a900463ffffffff1690506000613b2c8285612ae6565b905060008111613b71576040517f08c379a0000000000000000000000000000000000000000000000000000000008152600401613b6890615868565b60405180910390fd5b60008411613bb4576040517f08c379a0000000000000000000000000000000000000000000000000000000008152600401613bab906156b8565b60405180910390fd5b609c60009054906101000a900473ffffffffffffffffffffffffffffffffffffffff1673ffffffffffffffffffffffffffffffffffffffff1663c812646284426040518363ffffffff1660e01b8152600401613c11929190615031565b600060405180830381600087803b158015613c2b57600080fd5b505af1158015613c3f573d6000803e3d6000fd5b50505050609c60009054906101000a900473ffffffffffffffffffffffffffffffffffffffff1673ffffffffffffffffffffffffffffffffffffffff16633bc007a884836040518363ffffffff1660e01b8152600401613ca0929190615031565b600060405180830381600087803b158015613cba57600080fd5b505af1158015613cce573d6000803e3d6000fd5b505050506000609e60008463ffffffff1663ffffffff16815260200190815260200160002060009054906101000a900473ffffffffffffffffffffffffffffffffffffffff1690508073ffffffffffffffffffffffffffffffffffffffff166340c10f1985876040518363ffffffff1660e01b8152600401613d51929190615031565b600060405180830381600087803b158015613d6b57600080fd5b505af1158015613d7f573d6000803e3d6000fd5b50505050609c60009054906101000a900473ffffffffffffffffffffffffffffffffffffffff1673ffffffffffffffffffffffffffffffffffffffff166340c10f1985846040518363ffffffff1660e01b8152600401613de0929190615031565b600060405180830381600087803b158015613dfa57600080fd5b505af1158015613e0e573d6000803e3d6000fd5b50505050505050505050565b6000808273ffffffffffffffffffffffffffffffffffffffff163b119050919050565b600060019054906101000a900460ff16613e8c576040517f08c379a0000000000000000000000000000000000000000000000000000000008152600401613e83906158fa565b60405180910390fd5b565b613e988282611d50565b613f0f57613ea581613f13565b613eb38360001c6020613f40565b604051602001613ec49291906159ee565b6040516020818303038152906040526040517f08c379a0000000000000000000000000000000000000000000000000000000008152600401613f069190615a28565b60405180910390fd5b5050565b6060613f398273ffffffffffffffffffffffffffffffffffffffff16601460ff16613f40565b9050919050565b606060006002836002613f539190615339565b613f5d9190614f5a565b67ffffffffffffffff811115613f7657613f75614869565b5b6040519080825280601f01601f191660200182016040528015613fa85781602001600182028036833780820191505090505b5090507f300000000000000000000000000000000000000000000000000000000000000081600081518110613fe057613fdf614efc565b5b60200101907effffffffffffffffffffffffffffffffffffffffffffffffffffffffffffff1916908160001a9053507f78000000000000000000000000000000000000000000000000000000000000008160018151811061404457614043614efc565b5b60200101907effffffffffffffffffffffffffffffffffffffffffffffffffffffffffffff1916908160001a905350600060018460026140849190615339565b61408e9190614f5a565b90505b600181111561412e577f3031323334353637383961626364656600000000000000000000000000000000600f8616601081106140d0576140cf614efc565b5b1a60f81b8282815181106140e7576140e6614efc565b5b60200101907effffffffffffffffffffffffffffffffffffffffffffffffffffffffffffff1916908160001a905350600485901c94508061412790615a4a565b9050614091565b5060008414614172576040517f08c379a000000000000000000000000000000000000000000000000000000000815260040161416990615abf565b60405180910390fd5b8091505092915050565b6000604051905090565b600080fd5b600080fd5b6000819050919050565b6141a381614190565b81146141ae57600080fd5b50565b6000813590506141c08161419a565b92915050565b600073ffffffffffffffffffffffffffffffffffffffff82169050919050565b60006141f1826141c6565b9050919050565b614201816141e6565b811461420c57600080fd5b50565b60008135905061421e816141f8565b92915050565b6000819050919050565b61423781614224565b811461424257600080fd5b50565b6000813590506142548161422e565b92915050565b6000614265826141c6565b9050919050565b6142758161425a565b811461428057600080fd5b50565b6000813590506142928161426c565b92915050565b600080600080608085870312156142b2576142b1614186565b5b60006142c0878288016141b1565b94505060206142d18782880161420f565b93505060406142e287828801614245565b92505060606142f387828801614283565b91505092959194509250565b60007fffffffff0000000000000000000000000000000000000000000000000000000082169050919050565b614334816142ff565b811461433f57600080fd5b50565b6000813590506143518161432b565b92915050565b60006020828403121561436d5761436c614186565b5b600061437b84828501614342565b91505092915050565b60008115159050919050565b61439981614384565b82525050565b60006020820190506143b46000830184614390565b92915050565b6000602082840312156143d0576143cf614186565b5b60006143de84828501614283565b91505092915050565b6143f081614224565b82525050565b600060208201905061440b60008301846143e7565b92915050565b60006020828403121561442757614426614186565b5b6000614435848285016141b1565b91505092915050565b61444781614190565b82525050565b6000602082019050614462600083018461443e565b92915050565b600063ffffffff82169050919050565b61448181614468565b811461448c57600080fd5b50565b60008135905061449e81614478565b92915050565b600080604083850312156144bb576144ba614186565b5b60006144c98582860161448f565b92505060206144da85828601614283565b9150509250929050565b6144ed81614468565b82525050565b600060208201905061450860008301846144e4565b92915050565b6000806040838503121561452557614524614186565b5b6000614533858286016141b1565b925050602061454485828601614283565b9150509250929050565b60006020828403121561456457614563614186565b5b600061457284828501614245565b91505092915050565b6000806040838503121561459257614591614186565b5b60006145a085828601614283565b92505060206145b185828601614245565b9150509250929050565b6000819050919050565b60006145e06145db6145d6846141c6565b6145bb565b6141c6565b9050919050565b60006145f2826145c5565b9050919050565b6000614604826145e7565b9050919050565b614614816145f9565b82525050565b600060208201905061462f600083018461460b565b92915050565b60006020828403121561464b5761464a614186565b5b60006146598482850161420f565b91505092915050565b600061466d826145c5565b9050919050565b600061467f82614662565b9050919050565b61468f81614674565b82525050565b60006020820190506146aa6000830184614686565b92915050565b6000602082840312156146c6576146c5614186565b5b60006146d48482850161448f565b91505092915050565b6146e68161425a565b82525050565b600060208201905061470160008301846146dd565b92915050565b6000614712826145e7565b9050919050565b61472281614707565b82525050565b600060208201905061473d6000830184614719565b92915050565b60008060006060848603121561475c5761475b614186565b5b600061476a86828701614283565b935050602061477b86828701614245565b925050604061478c86828701614283565b9150509250925092565b60006147a182614662565b9050919050565b6147b181614796565b82525050565b60006020820190506147cc60008301846147a8565b92915050565b60006147dd826145e7565b9050919050565b6147ed816147d2565b82525050565b600060208201905061480860008301846147e4565b92915050565b6000806040838503121561482557614824614186565b5b60006148338582860161448f565b925050602061484485828601614245565b9150509250929050565b600080fd5b600080fd5b6000601f19601f8301169050919050565b7f4e487b7100000000000000000000000000000000000000000000000000000000600052604160045260246000fd5b6148a182614858565b810181811067ffffffffffffffff821117156148c0576148bf614869565b5b80604052505050565b60006148d361417c565b90506148df8282614898565b919050565b600067ffffffffffffffff8211156148ff576148fe614869565b5b61490882614858565b9050602081019050919050565b82818337600083830152505050565b6000614937614932846148e4565b6148c9565b90508281526020810184848401111561495357614952614853565b5b61495e848285614915565b509392505050565b600082601f83011261497b5761497a61484e565b5b813561498b848260208601614924565b91505092915050565b6000806000606084860312156149ad576149ac614186565b5b60006149bb86828701614283565b93505060206149cc8682870161448f565b925050604084013567ffffffffffffffff8111156149ed576149ec61418b565b5b6149f986828701614966565b9150509250925092565b6000614a0e826145e7565b9050919050565b614a1e81614a03565b82525050565b6000602082019050614a396000830184614a15565b92915050565b6000614a4a826145e7565b9050919050565b614a5a81614a3f565b82525050565b6000602082019050614a756000830184614a51565b92915050565b600067ffffffffffffffff821115614a9657614a95614869565b5b614a9f82614858565b9050602081019050919050565b6000614abf614aba84614a7b565b6148c9565b905082815260208101848484011115614adb57614ada614853565b5b614ae6848285614915565b509392505050565b600082601f830112614b0357614b0261484e565b5b8135614b13848260208601614aac565b91505092915050565b600080600080600080600060e0888a031215614b3b57614b3a614186565b5b6000614b498a828b016141b1565b9750506020614b5a8a828b01614283565b9650506040614b6b8a828b01614245565b9550506060614b7c8a828b01614245565b9450506080614b8d8a828b01614245565b93505060a0614b9e8a828b016141b1565b92505060c088013567ffffffffffffffff811115614bbf57614bbe61418b565b5b614bcb8a828b01614aee565b91505092959891949750929550565b600082825260208201905092915050565b7f436f6e7472616374206973207475726e6564206f666600000000000000000000600082015250565b6000614c21601683614bda565b9150614c2c82614beb565b602082019050919050565b60006020820190508181036000830152614c5081614c14565b9050919050565b7f4f6e6c79206f776e6572206f72206174746573746174696f6e2076657269666960008201527f65722063616e2063616c6c20746869732066756e6374696f6e00000000000000602082015250565b6000614cb3603983614bda565b9150614cbe82614c57565b604082019050919050565b60006020820190508181036000830152614ce281614ca6565b9050919050565b614cf2816141e6565b82525050565b6000608082019050614d0d600083018761443e565b614d1a6020830186614ce9565b614d2760408301856143e7565b614d3460608301846146dd565b95945050505050565b614d4681614384565b8114614d5157600080fd5b50565b600081519050614d6381614d3d565b92915050565b600060208284031215614d7f57614d7e614186565b5b6000614d8d84828501614d54565b91505092915050565b600081519050614da58161422e565b92915050565b600060208284031215614dc157614dc0614186565b5b6000614dcf84828501614d96565b91505092915050565b7f416363657373436f6e74726f6c3a2063616e206f6e6c792072656e6f756e636560008201527f20726f6c657320666f722073656c660000000000000000000000000000000000602082015250565b6000614e34602f83614bda565b9150614e3f82614dd8565b604082019050919050565b60006020820190508181036000830152614e6381614e27565b9050919050565b7f4f6e6c79206f776e65722063616e2063616c6c20746869732066756e6374696f60008201527f6e00000000000000000000000000000000000000000000000000000000000000602082015250565b6000614ec6602183614bda565b9150614ed182614e6a565b604082019050919050565b60006020820190508181036000830152614ef581614eb9565b9050919050565b7f4e487b7100000000000000000000000000000000000000000000000000000000600052603260045260246000fd5b7f4e487b7100000000000000000000000000000000000000000000000000000000600052601160045260246000fd5b6000614f6582614224565b9150614f7083614224565b9250828201905080821115614f8857614f87614f2b565b5b92915050565b7f4c50360000000000000000000000000000000000000000000000000000000000600082015250565b6000614fc4600383614bda565b9150614fcf82614f8e565b602082019050919050565b60006020820190508181036000830152614ff381614fb7565b9050919050565b600060608201905061500f60008301866146dd565b61501c60208301856146dd565b61502960408301846143e7565b949350505050565b600060408201905061504660008301856146dd565b61505360208301846143e7565b9392505050565b7f4f6e6c792072656d6f7465206c69717569646974792077656c6c2063616e206360008201527f616c6c20746869732066756e6374696f6e000000000000000000000000000000602082015250565b60006150b6603183614bda565b91506150c18261505a565b604082019050919050565b600060208201905081810360008301526150e5816150a9565b9050919050565b60006150f782614224565b915061510283614224565b925082820390508181111561511a57615119614f2b565b5b92915050565b7f4e487b7100000000000000000000000000000000000000000000000000000000600052603160045260246000fd5b7f4c50300000000000000000000000000000000000000000000000000000000000600082015250565b6000615185600383614bda565b91506151908261514f565b602082019050919050565b600060208201905081810360008301526151b481615178565b9050919050565b7f4e487b7100000000000000000000000000000000000000000000000000000000600052601260045260246000fd5b60006151f582614224565b915061520083614224565b9250826152105761520f6151bb565b5b828204905092915050565b7f496e697469616c697a61626c653a20636f6e747261637420697320616c72656160008201527f647920696e697469616c697a6564000000000000000000000000000000000000602082015250565b6000615277602e83614bda565b91506152828261521b565b604082019050919050565b600060208201905081810360008301526152a68161526a565b9050919050565b6000819050919050565b600060ff82169050919050565b60006152df6152da6152d5846152ad565b6145bb565b6152b7565b9050919050565b6152ef816152c4565b82525050565b600060208201905061530a60008301846152e6565b92915050565b600060408201905061532560008301856144e4565b61533260208301846144e4565b9392505050565b600061534482614224565b915061534f83614224565b925082820261535d81614224565b9150828204841483151761537457615373614f2b565b5b5092915050565b7f417373657420616c726561647920737570706f72746564000000000000000000600082015250565b60006153b1601783614bda565b91506153bc8261537b565b602082019050919050565b600060208201905081810360008301526153e0816153a4565b9050919050565b600081519050919050565b60005b838110156154105780820151818401526020810190506153f5565b60008484015250505050565b6000615427826153e7565b6154318185614bda565b93506154418185602086016153f2565b61544a81614858565b840191505092915050565b6000604082019050818103600083015261546f818561541c565b90508181036020830152615483818461541c565b90509392505050565b60006154978261425a565b9050919050565b6154a78161548c565b81146154b257600080fd5b50565b6000815190506154c48161549e565b92915050565b6000602082840312156154e0576154df614186565b5b60006154ee848285016154b5565b91505092915050565b600081519050919050565b600082825260208201905092915050565b600061551e826154f7565b6155288185615502565b93506155388185602086016153f2565b61554181614858565b840191505092915050565b600060e082019050615561600083018a61443e565b61556e60208301896146dd565b61557b60408301886143e7565b61558860608301876143e7565b61559560808301866143e7565b6155a260a083018561443e565b81810360c08301526155b48184615513565b905098975050505050505050565b60008160e01b9050919050565b60006155da826155c2565b9050919050565b6155f26155ed82614468565b6155cf565b82525050565b60008160601b9050919050565b6000615610826155f8565b9050919050565b600061562282615605565b9050919050565b61563a6156358261425a565b615617565b82525050565b600061564c82856155e1565b60048201915061565c8284615629565b6014820191508190509392505050565b7f4c50310000000000000000000000000000000000000000000000000000000000600082015250565b60006156a2600383614bda565b91506156ad8261566c565b602082019050919050565b600060208201905081810360008301526156d181615695565b9050919050565b7f4c50320000000000000000000000000000000000000000000000000000000000600082015250565b600061570e600383614bda565b9150615719826156d8565b602082019050919050565b6000602082019050818103600083015261573d81615701565b9050919050565b7f4c50330000000000000000000000000000000000000000000000000000000000600082015250565b600061577a600383614bda565b915061578582615744565b602082019050919050565b600060208201905081810360008301526157a98161576d565b9050919050565b7f4c50340000000000000000000000000000000000000000000000000000000000600082015250565b60006157e6600383614bda565b91506157f1826157b0565b602082019050919050565b60006020820190508181036000830152615815816157d9565b9050919050565b7f4c50350000000000000000000000000000000000000000000000000000000000600082015250565b6000615852600383614bda565b915061585d8261581c565b602082019050919050565b6000602082019050818103600083015261588181615845565b9050919050565b7f496e697469616c697a61626c653a20636f6e7472616374206973206e6f74206960008201527f6e697469616c697a696e67000000000000000000000000000000000000000000602082015250565b60006158e4602b83614bda565b91506158ef82615888565b604082019050919050565b60006020820190508181036000830152615913816158d7565b9050919050565b600081905092915050565b7f416363657373436f6e74726f6c3a206163636f756e7420000000000000000000600082015250565b600061595b60178361591a565b915061596682615925565b601782019050919050565b600061597c826153e7565b615986818561591a565b93506159968185602086016153f2565b80840191505092915050565b7f206973206d697373696e6720726f6c6520000000000000000000000000000000600082015250565b60006159d860118361591a565b91506159e3826159a2565b601182019050919050565b60006159f98261594e565b9150615a058285615971565b9150615a10826159cb565b9150615a1c8284615971565b91508190509392505050565b60006020820190508181036000830152615a42818461541c565b905092915050565b6000615a5582614224565b915060008203615a6857615a67614f2b565b5b600182039050919050565b7f537472696e67733a20686578206c656e67746820696e73756666696369656e74600082015250565b6000615aa9602083614bda565b9150615ab482615a73565b602082019050919050565b60006020820190508181036000830152615ad881615a9c565b905091905056fea26469706673582212209d73309a4071a4d45748547bb601a2c6941dcfed0ee2ca228e803072d243d1b564736f6c63430008180033",
  "linkReferences": {},
  "deployedLinkReferences": {}
}