{
  "_format": "hh-sol-artifact-1",
  "contractName": "AttestedLightClient",
  "sourceName": "contracts/attestedLightClient.sol",
  "abi": [
    {
      "inputs": [],
      "stateMutability": "nonpayable",
      "type": "constructor"
    },
    {
      "anonymous": false,
      "inputs": [
        {
          "indexed": false,
          "internalType": "bytes32",
          "name": "headerId",
          "type": "bytes32"
        },
        {
          "components": [
            {
              "internalType": "bytes32",
              "name": "prevHeaderHash",
              "type": "bytes32"
            },
            {
              "internalType": "bytes32",
              "name": "headerHash",
              "type": "bytes32"
            },
            {
              "internalType": "bytes32",
              "name": "stateRoot",
              "type": "bytes32"
            },
            {
              "internalType": "bytes32",
              "name": "txRoot",
              "type": "bytes32"
            },
            {
              "internalType": "bytes32",
              "name": "receiptsRoot",
              "type": "bytes32"
            },
            {
              "internalType": "bytes32",
              "name": "appRoot",
              "type": "bytes32"
            },
            {
              "internalType": "bytes32",
              "name": "epochAppRoot",
              "type": "bytes32"
            },
            {
              "internalType": "bytes32",
              "name": "nextHeaderHash",
              "type": "bytes32"
            }
          ],
          "indexed": false,
          "internalType": "struct AttestedLightClient.Header",
          "name": "header",
          "type": "tuple"
        }
      ],
      "name": "HeaderLinked",
      "type": "event"
    },
    {
      "anonymous": false,
      "inputs": [
        {
          "indexed": false,
          "internalType": "uint8",
          "name": "version",
          "type": "uint8"
        }
      ],
      "name": "Initialized",
      "type": "event"
    },
    {
      "anonymous": false,
      "inputs": [
        {
          "indexed": true,
          "internalType": "bytes32",
          "name": "role",
          "type": "bytes32"
        },
        {
          "indexed": true,
          "internalType": "bytes32",
          "name": "previousAdminRole",
          "type": "bytes32"
        },
        {
          "indexed": true,
          "internalType": "bytes32",
          "name": "newAdminRole",
          "type": "bytes32"
        }
      ],
      "name": "RoleAdminChanged",
      "type": "event"
    },
    {
      "anonymous": false,
      "inputs": [
        {
          "indexed": true,
          "internalType": "bytes32",
          "name": "role",
          "type": "bytes32"
        },
        {
          "indexed": true,
          "internalType": "address",
          "name": "account",
          "type": "address"
        },
        {
          "indexed": true,
          "internalType": "address",
          "name": "sender",
          "type": "address"
        }
      ],
      "name": "RoleGranted",
      "type": "event"
    },
    {
      "anonymous": false,
      "inputs": [
        {
          "indexed": true,
          "internalType": "bytes32",
          "name": "role",
          "type": "bytes32"
        },
        {
          "indexed": true,
          "internalType": "address",
          "name": "account",
          "type": "address"
        },
        {
          "indexed": true,
          "internalType": "address",
          "name": "sender",
          "type": "address"
        }
      ],
      "name": "RoleRevoked",
      "type": "event"
    },
    {
      "inputs": [],
      "name": "DEFAULT_ADMIN_ROLE",
      "outputs": [
        {
          "internalType": "bytes32",
          "name": "",
          "type": "bytes32"
        }
      ],
      "stateMutability": "view",
      "type": "function"
    },
    {
      "inputs": [
        {
          "internalType": "bytes32",
          "name": "headerHash",
          "type": "bytes32"
        },
        {
          "internalType": "bytes32",
          "name": "prevHeaderHash",
          "type": "bytes32"
        },
        {
          "internalType": "bytes32",
          "name": "stateRoot",
          "type": "bytes32"
        },
        {
          "internalType": "bytes32",
          "name": "txRoot",
          "type": "bytes32"
        },
        {
          "internalType": "bytes32",
          "name": "receiptsRoot",
          "type": "bytes32"
        },
        {
          "internalType": "bytes32",
          "name": "epochAppRoot",
          "type": "bytes32"
        },
        {
          "internalType": "bytes32",
          "name": "appRoot",
          "type": "bytes32"
        }
      ],
      "name": "addCircuitHeader",
      "outputs": [],
      "stateMutability": "nonpayable",
      "type": "function"
    },
    {
      "inputs": [],
      "name": "attestationVerifierProofs",
      "outputs": [
        {
          "internalType": "contract AttestationsVerifierProofs",
          "name": "",
          "type": "address"
        }
      ],
      "stateMutability": "view",
      "type": "function"
    },
    {
      "inputs": [
        {
          "components": [
            {
              "internalType": "bytes32",
              "name": "prevHeaderHash",
              "type": "bytes32"
            },
            {
              "internalType": "bytes32",
              "name": "headerHash",
              "type": "bytes32"
            },
            {
              "internalType": "bytes32",
              "name": "stateRoot",
              "type": "bytes32"
            },
            {
              "internalType": "bytes32",
              "name": "txRoot",
              "type": "bytes32"
            },
            {
              "internalType": "bytes32",
              "name": "receiptsRoot",
              "type": "bytes32"
            },
            {
              "internalType": "bytes32",
              "name": "appRoot",
              "type": "bytes32"
            },
            {
              "internalType": "bytes32",
              "name": "epochAppRoot",
              "type": "bytes32"
            },
            {
              "internalType": "bytes32",
              "name": "nextHeaderHash",
              "type": "bytes32"
            }
          ],
          "internalType": "struct AttestedLightClient.Header",
          "name": "header",
          "type": "tuple"
        }
      ],
      "name": "calculateHeaderId",
      "outputs": [
        {
          "internalType": "bytes32",
          "name": "",
          "type": "bytes32"
        }
      ],
      "stateMutability": "pure",
      "type": "function"
    },
    {
      "inputs": [],
      "name": "checkEpochTransition",
      "outputs": [
        {
          "internalType": "bool",
          "name": "",
          "type": "bool"
        }
      ],
      "stateMutability": "view",
      "type": "function"
    },
    {
      "inputs": [
        {
          "internalType": "bytes32",
          "name": "_headerId",
          "type": "bytes32"
        }
      ],
      "name": "emergencyRemoveHeader",
      "outputs": [],
      "stateMutability": "nonpayable",
      "type": "function"
    },
    {
      "inputs": [],
      "name": "epochCounter",
      "outputs": [
        {
          "internalType": "uint256",
          "name": "",
          "type": "uint256"
        }
      ],
      "stateMutability": "view",
      "type": "function"
    },
    {
      "inputs": [],
      "name": "epochDuration",
      "outputs": [
        {
          "internalType": "uint256",
          "name": "",
          "type": "uint256"
        }
      ],
      "stateMutability": "view",
      "type": "function"
    },
    {
      "inputs": [],
      "name": "getCurrentAppRoot",
      "outputs": [
        {
          "internalType": "bytes32",
          "name": "",
          "type": "bytes32"
        }
      ],
      "stateMutability": "view",
      "type": "function"
    },
    {
      "inputs": [],
      "name": "getNewest",
      "outputs": [
        {
          "internalType": "bytes32",
          "name": "",
          "type": "bytes32"
        }
      ],
      "stateMutability": "view",
      "type": "function"
    },
    {
      "inputs": [],
      "name": "getOldest",
      "outputs": [
        {
          "internalType": "bytes32",
          "name": "",
          "type": "bytes32"
        }
      ],
      "stateMutability": "view",
      "type": "function"
    },
    {
      "inputs": [
        {
          "internalType": "bytes32",
          "name": "role",
          "type": "bytes32"
        }
      ],
      "name": "getRoleAdmin",
      "outputs": [
        {
          "internalType": "bytes32",
          "name": "",
          "type": "bytes32"
        }
      ],
      "stateMutability": "view",
      "type": "function"
    },
    {
      "inputs": [
        {
          "internalType": "bytes32",
          "name": "role",
          "type": "bytes32"
        },
        {
          "internalType": "address",
          "name": "account",
          "type": "address"
        }
      ],
      "name": "grantRole",
      "outputs": [],
      "stateMutability": "nonpayable",
      "type": "function"
    },
    {
      "inputs": [
        {
          "internalType": "bytes32",
          "name": "role",
          "type": "bytes32"
        },
        {
          "internalType": "address",
          "name": "account",
          "type": "address"
        }
      ],
      "name": "hasRole",
      "outputs": [
        {
          "internalType": "bool",
          "name": "",
          "type": "bool"
        }
      ],
      "stateMutability": "view",
      "type": "function"
    },
    {
      "inputs": [
        {
          "internalType": "bytes32",
          "name": "",
          "type": "bytes32"
        }
      ],
      "name": "headersCreatedTimestamp",
      "outputs": [
        {
          "internalType": "uint256",
          "name": "",
          "type": "uint256"
        }
      ],
      "stateMutability": "view",
      "type": "function"
    },
    {
      "inputs": [
        {
          "internalType": "bytes32",
          "name": "",
          "type": "bytes32"
        }
      ],
      "name": "headersList",
      "outputs": [
        {
          "internalType": "bytes32",
          "name": "prevHeaderHash",
          "type": "bytes32"
        },
        {
          "internalType": "bytes32",
          "name": "headerHash",
          "type": "bytes32"
        },
        {
          "internalType": "bytes32",
          "name": "stateRoot",
          "type": "bytes32"
        },
        {
          "internalType": "bytes32",
          "name": "txRoot",
          "type": "bytes32"
        },
        {
          "internalType": "bytes32",
          "name": "receiptsRoot",
          "type": "bytes32"
        },
        {
          "internalType": "bytes32",
          "name": "appRoot",
          "type": "bytes32"
        },
        {
          "internalType": "bytes32",
          "name": "epochAppRoot",
          "type": "bytes32"
        },
        {
          "internalType": "bytes32",
          "name": "nextHeaderHash",
          "type": "bytes32"
        }
      ],
      "stateMutability": "view",
      "type": "function"
    },
    {
      "inputs": [
        {
          "internalType": "address",
          "name": "_owner",
          "type": "address"
        }
      ],
      "name": "initialize",
      "outputs": [],
      "stateMutability": "nonpayable",
      "type": "function"
    },
    {
      "inputs": [],
      "name": "lastEpochTimestamp",
      "outputs": [
        {
          "internalType": "uint256",
          "name": "",
          "type": "uint256"
        }
      ],
      "stateMutability": "view",
      "type": "function"
    },
    {
      "inputs": [],
      "name": "newest",
      "outputs": [
        {
          "internalType": "bytes32",
          "name": "",
          "type": "bytes32"
        }
      ],
      "stateMutability": "view",
      "type": "function"
    },
    {
      "inputs": [],
      "name": "oldest",
      "outputs": [
        {
          "internalType": "bytes32",
          "name": "",
          "type": "bytes32"
        }
      ],
      "stateMutability": "view",
      "type": "function"
    },
    {
      "inputs": [],
      "name": "remoteLiquidityWell",
      "outputs": [
        {
          "internalType": "contract RemoteLiquidityWell",
          "name": "",
          "type": "address"
        }
      ],
      "stateMutability": "view",
      "type": "function"
    },
    {
      "inputs": [
        {
          "internalType": "bytes32",
          "name": "role",
          "type": "bytes32"
        },
        {
          "internalType": "address",
          "name": "account",
          "type": "address"
        }
      ],
      "name": "renounceRole",
      "outputs": [],
      "stateMutability": "nonpayable",
      "type": "function"
    },
    {
      "inputs": [
        {
          "internalType": "bytes32",
          "name": "role",
          "type": "bytes32"
        },
        {
          "internalType": "address",
          "name": "account",
          "type": "address"
        }
      ],
      "name": "revokeRole",
      "outputs": [],
      "stateMutability": "nonpayable",
      "type": "function"
    },
    {
      "inputs": [
        {
          "internalType": "address payable",
          "name": "_attestationVerifierProofs",
          "type": "address"
        }
      ],
      "name": "setAttestationVerifierProofs",
      "outputs": [],
      "stateMutability": "nonpayable",
      "type": "function"
    },
    {
      "inputs": [
        {
          "internalType": "uint256",
          "name": "_epochDuration",
          "type": "uint256"
        }
      ],
      "name": "setEpochDuration",
      "outputs": [],
      "stateMutability": "nonpayable",
      "type": "function"
    },
    {
      "inputs": [
        {
          "internalType": "address payable",
          "name": "_remoteLiquidityWell",
          "type": "address"
        }
      ],
      "name": "setRemoteLiquidityWell",
      "outputs": [],
      "stateMutability": "nonpayable",
      "type": "function"
    },
    {
      "inputs": [
        {
          "internalType": "bytes32",
          "name": "_version",
          "type": "bytes32"
        }
      ],
      "name": "setVersion",
      "outputs": [],
      "stateMutability": "nonpayable",
      "type": "function"
    },
    {
      "inputs": [
        {
          "internalType": "bytes4",
          "name": "interfaceId",
          "type": "bytes4"
        }
      ],
      "name": "supportsInterface",
      "outputs": [
        {
          "internalType": "bool",
          "name": "",
          "type": "bool"
        }
      ],
      "stateMutability": "view",
      "type": "function"
    },
    {
      "inputs": [
        {
          "internalType": "bytes32",
          "name": "_headerId",
          "type": "bytes32"
        },
        {
          "internalType": "bytes32",
          "name": "_appRoot",
          "type": "bytes32"
        }
      ],
      "name": "verifyEitherAppRoot",
      "outputs": [
        {
          "internalType": "bool",
          "name": "",
          "type": "bool"
        }
      ],
      "stateMutability": "view",
      "type": "function"
    },
    {
      "inputs": [],
      "name": "version",
      "outputs": [
        {
          "internalType": "bytes32",
          "name": "",
          "type": "bytes32"
        }
      ],
      "stateMutability": "view",
      "type": "function"
    }
  ],
  "bytecode": "0x60806040523480156200001157600080fd5b50620000226200002860201b60201c565b620001d2565b600060019054906101000a900460ff16156200007b576040517f08c379a0000000000000000000000000000000000000000000000000000000008152600401620000729062000175565b60405180910390fd5b60ff801660008054906101000a900460ff1660ff1614620000ec5760ff6000806101000a81548160ff021916908360ff1602179055507f7f26b83ff96e1f2b6a682f133852f6798a09c465da95921460cefb384740249860ff604051620000e39190620001b5565b60405180910390a15b565b600082825260208201905092915050565b7f496e697469616c697a61626c653a20636f6e747261637420697320696e69746960008201527f616c697a696e6700000000000000000000000000000000000000000000000000602082015250565b60006200015d602783620000ee565b91506200016a82620000ff565b604082019050919050565b6000602082019050818103600083015262000190816200014e565b9050919050565b600060ff82169050919050565b620001af8162000197565b82525050565b6000602082019050620001cc6000830184620001a4565b92915050565b61280b80620001e26000396000f3fe608060405234801561001057600080fd5b50600436106101da5760003560e01c80637d02bc1c11610104578063bb4ebc24116100a2578063d547741f11610071578063d547741f14610545578063e2c618bb14610561578063f118c86d14610598578063f64fc647146105b6576101da565b8063bb4ebc24146104d5578063c4d66de8146104f1578063ca5f81b51461050d578063cf07732d14610529576101da565b80638e8aba4e116100de5780638e8aba4e1461043957806391d14854146104695780639491756514610499578063a217fddf146104b7576101da565b80637d02bc1c146103cd5780638749d960146103eb5780638bdbdac11461041b576101da565b80633270c0141161017c5780634ea06fe41161014b5780634ea06fe4146103435780634ff0876a146103735780635176d03a1461039157806354fd4d50146103af576101da565b80633270c014146102cf57806336568abe146102ed5780633c3c22b3146103095780634864f3bd14610327576101da565b80632471c44c116101b85780632471c44c1461024b578063248a9ca3146102675780632f2ff15d1461029757806330024dfe146102b3576101da565b806301ffc9a7146101df57806314b19c5a1461020f578063228473c11461022d575b600080fd5b6101f960048036038101906101f4919061187f565b6105d4565b60405161020691906118c7565b60405180910390f35b61021761064e565b60405161022491906118fb565b60405180910390f35b610235610654565b604051610242919061192f565b60405180910390f35b61026560048036038101906102609190611976565b61065e565b005b610281600480360381019061027c9190611976565b61080e565b60405161028e919061192f565b60405180910390f35b6102b160048036038101906102ac9190611a01565b61082e565b005b6102cd60048036038101906102c89190611a6d565b61084f565b005b6102d76108a5565b6040516102e4919061192f565b60405180910390f35b61030760048036038101906103029190611a01565b6108c5565b005b610311610948565b60405161031e919061192f565b60405180910390f35b610341600480360381019061033c9190611a9a565b61094e565b005b61035d60048036038101906103589190611976565b6109f7565b60405161036a91906118fb565b60405180910390f35b61037b610a0f565b60405161038891906118fb565b60405180910390f35b610399610a15565b6040516103a69190611b9b565b60405180910390f35b6103b7610a3b565b6040516103c4919061192f565b60405180910390f35b6103d5610a41565b6040516103e2919061192f565b60405180910390f35b61040560048036038101906104009190611bb6565b610a4b565b60405161041291906118c7565b60405180910390f35b610423610a8e565b604051610430919061192f565b60405180910390f35b610453600480360381019061044e9190611d51565b610a94565b604051610460919061192f565b60405180910390f35b610483600480360381019061047e9190611a01565b610aec565b60405161049091906118c7565b60405180910390f35b6104a1610b57565b6040516104ae91906118c7565b60405180910390f35b6104bf610b71565b6040516104cc919061192f565b60405180910390f35b6104ef60048036038101906104ea9190611dbd565b610b78565b005b61050b60048036038101906105069190611dea565b610c08565b005b61052760048036038101906105229190611976565b610d5e565b005b610543600480360381019061053e9190611dbd565b610db4565b005b61055f600480360381019061055a9190611a01565b610e44565b005b61057b60048036038101906105769190611976565b610e65565b60405161058f989796959493929190611e17565b60405180910390f35b6105a0610ead565b6040516105ad9190611ec8565b60405180910390f35b6105be610ed3565b6040516105cb91906118fb565b60405180910390f35b60007f7965db0b000000000000000000000000000000000000000000000000000000007bffffffffffffffffffffffffffffffffffffffffffffffffffffffff1916827bffffffffffffffffffffffffffffffffffffffffffffffffffffffff19161480610647575061064682610ed9565b5b9050919050565b609f5481565b6000609c54905090565b61066b6000801b33610aec565b6106aa576040517f08c379a00000000000000000000000000000000000000000000000000000000081526004016106a190611f66565b60405180910390fd5b6000801b81036106ef576040517f08c379a00000000000000000000000000000000000000000000000000000000081526004016106e690611fd2565b60405180910390fd5b6000801b609a60008381526020019081526020016000206000015414158061073057506000801b609a60008381526020019081526020016000206007015414155b61076f576040517f08c379a00000000000000000000000000000000000000000000000000000000081526004016107669061203e565b60405180910390fd5b6000609a60008381526020019081526020016000206000015490506000609a60008481526020019081526020016000206007015490506000801b82146107cf5780609a6000848152602001908152602001600020600701819055506107d7565b80609d819055505b6000801b81146108015781609a600083815260200190815260200160002060000181905550610809565b81609c819055505b505050565b600060656000838152602001908152602001600020600101549050919050565b6108378261080e565b61084081610f43565b61084a8383610f57565b505050565b61085c6000801b33610aec565b61089b576040517f08c379a000000000000000000000000000000000000000000000000000000000815260040161089290611f66565b60405180910390fd5b8060998190555050565b6000609a6000609c54815260200190815260200160002060050154905090565b6108cd611038565b73ffffffffffffffffffffffffffffffffffffffff168173ffffffffffffffffffffffffffffffffffffffff161461093a576040517f08c379a0000000000000000000000000000000000000000000000000000000008152600401610931906120d0565b60405180910390fd5b6109448282611040565b5050565b609d5481565b609760009054906101000a900473ffffffffffffffffffffffffffffffffffffffff1673ffffffffffffffffffffffffffffffffffffffff163373ffffffffffffffffffffffffffffffffffffffff16146109de576040517f08c379a00000000000000000000000000000000000000000000000000000000081526004016109d590612162565b60405180910390fd5b6109ed86888787878787611122565b5050505050505050565b609b6020528060005260406000206000915090505481565b60995481565b609860009054906101000a900473ffffffffffffffffffffffffffffffffffffffff1681565b60a05481565b6000609d54905090565b600081609a6000858152602001908152602001600020600501541480610a86575081609a600085815260200190815260200160002060060154145b905092915050565b609c5481565b6000816000015182602001518360400151846060015185608001518660c001518760a00151604051602001610acf97969594939291906121a3565b604051602081830303815290604052805190602001209050919050565b60006065600084815260200190815260200160002060000160008373ffffffffffffffffffffffffffffffffffffffff1673ffffffffffffffffffffffffffffffffffffffff16815260200190815260200160002060009054906101000a900460ff16905092915050565b6000609954609e54610b699190612253565b421015905090565b6000801b81565b610b856000801b33610aec565b610bc4576040517f08c379a0000000000000000000000000000000000000000000000000000000008152600401610bbb90611f66565b60405180910390fd5b80609860006101000a81548173ffffffffffffffffffffffffffffffffffffffff021916908373ffffffffffffffffffffffffffffffffffffffff16021790555050565b60008060019054906101000a900460ff16159050808015610c395750600160008054906101000a900460ff1660ff16105b80610c665750610c48306113a4565b158015610c655750600160008054906101000a900460ff1660ff16145b5b610ca5576040517f08c379a0000000000000000000000000000000000000000000000000000000008152600401610c9c906122f9565b60405180910390fd5b60016000806101000a81548160ff021916908360ff1602179055508015610ce2576001600060016101000a81548160ff0219169083151502179055505b610cea6113c7565b62093a80609981905550610d016000801b83610f57565b8015610d5a5760008060016101000a81548160ff0219169083151502179055507f7f26b83ff96e1f2b6a682f133852f6798a09c465da95921460cefb38474024986001604051610d519190612361565b60405180910390a15b5050565b610d6b6000801b33610aec565b610daa576040517f08c379a0000000000000000000000000000000000000000000000000000000008152600401610da190611f66565b60405180910390fd5b8060a08190555050565b610dc16000801b33610aec565b610e00576040517f08c379a0000000000000000000000000000000000000000000000000000000008152600401610df790611f66565b60405180910390fd5b80609760006101000a81548173ffffffffffffffffffffffffffffffffffffffff021916908373ffffffffffffffffffffffffffffffffffffffff16021790555050565b610e4d8261080e565b610e5681610f43565b610e608383611040565b505050565b609a6020528060005260406000206000915090508060000154908060010154908060020154908060030154908060040154908060050154908060060154908060070154905088565b609760009054906101000a900473ffffffffffffffffffffffffffffffffffffffff1681565b609e5481565b60007f01ffc9a7000000000000000000000000000000000000000000000000000000007bffffffffffffffffffffffffffffffffffffffffffffffffffffffff1916827bffffffffffffffffffffffffffffffffffffffffffffffffffffffff1916149050919050565b610f5481610f4f611038565b611418565b50565b610f618282610aec565b6110345760016065600084815260200190815260200160002060000160008373ffffffffffffffffffffffffffffffffffffffff1673ffffffffffffffffffffffffffffffffffffffff16815260200190815260200160002060006101000a81548160ff021916908315150217905550610fd9611038565b73ffffffffffffffffffffffffffffffffffffffff168173ffffffffffffffffffffffffffffffffffffffff16837f2f8788117e7eff1d82e926ec794901d17c78024a50270940304540a733656f0d60405160405180910390a45b5050565b600033905090565b61104a8282610aec565b1561111e5760006065600084815260200190815260200160002060000160008373ffffffffffffffffffffffffffffffffffffffff1673ffffffffffffffffffffffffffffffffffffffff16815260200190815260200160002060006101000a81548160ff0219169083151502179055506110c3611038565b73ffffffffffffffffffffffffffffffffffffffff168173ffffffffffffffffffffffffffffffffffffffff16837ff6391f5c32d9c69d2a47ea670b442974b53935d1edc7fd64eb21e047a839171b60405160405180910390a45b5050565b6000806040518061010001604052808a81526020018981526020018881526020018781526020018681526020018481526020018581526020016000801b8152509050600061116f82610a94565b90506000801b609a6000838152602001908152602001600020600101541461119c57600092505050611399565b6000801b609c5414806111b357506000801b609d54145b156112915780609c8190555080609d8190555081609a6000838152602001908152602001600020600082015181600001556020820151816001015560408201518160020155606082015181600301556080820151816004015560a0820151816005015560c0820151816006015560e0820151816007015590505042609b60008381526020019081526020016000208190555061124d61149d565b7f2a5fc362d2d8789a6ad3567452db34018b9ad870bce9acc2f97654065c2874b7818360405161127e92919061242d565b60405180910390a1600192505050611399565b6000609a6000609c54815260200190815260200160002090508a8160010154146112c15760009350505050611399565b81816007018190555082609a6000848152602001908152602001600020600082015181600001556020820151816001015560408201518160020155606082015181600301556080820151816004015560a0820151816005015560c0820151816006015560e0820151816007015590505042609b60008481526020019081526020016000208190555081609c8190555061135861149d565b7f2a5fc362d2d8789a6ad3567452db34018b9ad870bce9acc2f97654065c2874b7828460405161138992919061242d565b60405180910390a1600193505050505b979650505050505050565b6000808273ffffffffffffffffffffffffffffffffffffffff163b119050919050565b600060019054906101000a900460ff16611416576040517f08c379a000000000000000000000000000000000000000000000000000000000815260040161140d906124c9565b60405180910390fd5b565b6114228282610aec565b6114995761142f816114b5565b61143d8360001c60206114e2565b60405160200161144e9291906125f2565b6040516020818303038152906040526040517f08c379a00000000000000000000000000000000000000000000000000000000081526004016114909190612665565b60405180910390fd5b5050565b6114a5610b57565b156114b3576114b261171e565b5b565b60606114db8273ffffffffffffffffffffffffffffffffffffffff16601460ff166114e2565b9050919050565b6060600060028360026114f59190612687565b6114ff9190612253565b67ffffffffffffffff81111561151857611517611c0c565b5b6040519080825280601f01601f19166020018201604052801561154a5781602001600182028036833780820191505090505b5090507f300000000000000000000000000000000000000000000000000000000000000081600081518110611582576115816126c9565b5b60200101907effffffffffffffffffffffffffffffffffffffffffffffffffffffffffffff1916908160001a9053507f7800000000000000000000000000000000000000000000000000000000000000816001815181106115e6576115e56126c9565b5b60200101907effffffffffffffffffffffffffffffffffffffffffffffffffffffffffffff1916908160001a905350600060018460026116269190612687565b6116309190612253565b90505b60018111156116d0577f3031323334353637383961626364656600000000000000000000000000000000600f861660108110611672576116716126c9565b5b1a60f81b828281518110611689576116886126c9565b5b60200101907effffffffffffffffffffffffffffffffffffffffffffffffffffffffffffff1916908160001a905350600485901c9450806116c9906126f8565b9050611633565b5060008414611714576040517f08c379a000000000000000000000000000000000000000000000000000000000815260040161170b9061276d565b60405180910390fd5b8091505092915050565b42609e81905550609f60008154809291906117389061278d565b9190505550600073ffffffffffffffffffffffffffffffffffffffff16609860009054906101000a900473ffffffffffffffffffffffffffffffffffffffff1673ffffffffffffffffffffffffffffffffffffffff161461181657609860009054906101000a900473ffffffffffffffffffffffffffffffffffffffff1673ffffffffffffffffffffffffffffffffffffffff166305ad10f96040518163ffffffff1660e01b8152600401600060405180830381600087803b1580156117fd57600080fd5b505af1158015611811573d6000803e3d6000fd5b505050505b565b6000604051905090565b600080fd5b60007fffffffff0000000000000000000000000000000000000000000000000000000082169050919050565b61185c81611827565b811461186757600080fd5b50565b60008135905061187981611853565b92915050565b60006020828403121561189557611894611822565b5b60006118a38482850161186a565b91505092915050565b60008115159050919050565b6118c1816118ac565b82525050565b60006020820190506118dc60008301846118b8565b92915050565b6000819050919050565b6118f5816118e2565b82525050565b600060208201905061191060008301846118ec565b92915050565b6000819050919050565b61192981611916565b82525050565b60006020820190506119446000830184611920565b92915050565b61195381611916565b811461195e57600080fd5b50565b6000813590506119708161194a565b92915050565b60006020828403121561198c5761198b611822565b5b600061199a84828501611961565b91505092915050565b600073ffffffffffffffffffffffffffffffffffffffff82169050919050565b60006119ce826119a3565b9050919050565b6119de816119c3565b81146119e957600080fd5b50565b6000813590506119fb816119d5565b92915050565b60008060408385031215611a1857611a17611822565b5b6000611a2685828601611961565b9250506020611a37858286016119ec565b9150509250929050565b611a4a816118e2565b8114611a5557600080fd5b50565b600081359050611a6781611a41565b92915050565b600060208284031215611a8357611a82611822565b5b6000611a9184828501611a58565b91505092915050565b600080600080600080600060e0888a031215611ab957611ab8611822565b5b6000611ac78a828b01611961565b9750506020611ad88a828b01611961565b9650506040611ae98a828b01611961565b9550506060611afa8a828b01611961565b9450506080611b0b8a828b01611961565b93505060a0611b1c8a828b01611961565b92505060c0611b2d8a828b01611961565b91505092959891949750929550565b6000819050919050565b6000611b61611b5c611b57846119a3565b611b3c565b6119a3565b9050919050565b6000611b7382611b46565b9050919050565b6000611b8582611b68565b9050919050565b611b9581611b7a565b82525050565b6000602082019050611bb06000830184611b8c565b92915050565b60008060408385031215611bcd57611bcc611822565b5b6000611bdb85828601611961565b9250506020611bec85828601611961565b9150509250929050565b600080fd5b6000601f19601f8301169050919050565b7f4e487b7100000000000000000000000000000000000000000000000000000000600052604160045260246000fd5b611c4482611bfb565b810181811067ffffffffffffffff82111715611c6357611c62611c0c565b5b80604052505050565b6000611c76611818565b9050611c828282611c3b565b919050565b60006101008284031215611c9e57611c9d611bf6565b5b611ca9610100611c6c565b90506000611cb984828501611961565b6000830152506020611ccd84828501611961565b6020830152506040611ce184828501611961565b6040830152506060611cf584828501611961565b6060830152506080611d0984828501611961565b60808301525060a0611d1d84828501611961565b60a08301525060c0611d3184828501611961565b60c08301525060e0611d4584828501611961565b60e08301525092915050565b60006101008284031215611d6857611d67611822565b5b6000611d7684828501611c87565b91505092915050565b6000611d8a826119a3565b9050919050565b611d9a81611d7f565b8114611da557600080fd5b50565b600081359050611db781611d91565b92915050565b600060208284031215611dd357611dd2611822565b5b6000611de184828501611da8565b91505092915050565b600060208284031215611e0057611dff611822565b5b6000611e0e848285016119ec565b91505092915050565b600061010082019050611e2d600083018b611920565b611e3a602083018a611920565b611e476040830189611920565b611e546060830188611920565b611e616080830187611920565b611e6e60a0830186611920565b611e7b60c0830185611920565b611e8860e0830184611920565b9998505050505050505050565b6000611ea082611b46565b9050919050565b6000611eb282611e95565b9050919050565b611ec281611ea7565b82525050565b6000602082019050611edd6000830184611eb9565b92915050565b600082825260208201905092915050565b7f4f6e6c79206f776e65722063616e2063616c6c20746869732066756e6374696f60008201527f6e00000000000000000000000000000000000000000000000000000000000000602082015250565b6000611f50602183611ee3565b9150611f5b82611ef4565b604082019050919050565b60006020820190508181036000830152611f7f81611f43565b9050919050565b7f496e76616c696420494400000000000000000000000000000000000000000000600082015250565b6000611fbc600a83611ee3565b9150611fc782611f86565b602082019050919050565b60006020820190508181036000830152611feb81611faf565b9050919050565b7f4944206e6f7420666f756e640000000000000000000000000000000000000000600082015250565b6000612028600c83611ee3565b915061203382611ff2565b602082019050919050565b600060208201905081810360008301526120578161201b565b9050919050565b7f416363657373436f6e74726f6c3a2063616e206f6e6c792072656e6f756e636560008201527f20726f6c657320666f722073656c660000000000000000000000000000000000602082015250565b60006120ba602f83611ee3565b91506120c58261205e565b604082019050919050565b600060208201905081810360008301526120e9816120ad565b9050919050565b7f4f6e6c79206174746573746174696f6e2076657269666965722063616e20636160008201527f6c6c20746869732066756e6374696f6e00000000000000000000000000000000602082015250565b600061214c603083611ee3565b9150612157826120f0565b604082019050919050565b6000602082019050818103600083015261217b8161213f565b9050919050565b6000819050919050565b61219d61219882611916565b612182565b82525050565b60006121af828a61218c565b6020820191506121bf828961218c565b6020820191506121cf828861218c565b6020820191506121df828761218c565b6020820191506121ef828661218c565b6020820191506121ff828561218c565b60208201915061220f828461218c565b60208201915081905098975050505050505050565b7f4e487b7100000000000000000000000000000000000000000000000000000000600052601160045260246000fd5b600061225e826118e2565b9150612269836118e2565b925082820190508082111561228157612280612224565b5b92915050565b7f496e697469616c697a61626c653a20636f6e747261637420697320616c72656160008201527f647920696e697469616c697a6564000000000000000000000000000000000000602082015250565b60006122e3602e83611ee3565b91506122ee82612287565b604082019050919050565b60006020820190508181036000830152612312816122d6565b9050919050565b6000819050919050565b600060ff82169050919050565b600061234b61234661234184612319565b611b3c565b612323565b9050919050565b61235b81612330565b82525050565b60006020820190506123766000830184612352565b92915050565b61238581611916565b82525050565b610100820160008201516123a2600085018261237c565b5060208201516123b5602085018261237c565b5060408201516123c8604085018261237c565b5060608201516123db606085018261237c565b5060808201516123ee608085018261237c565b5060a082015161240160a085018261237c565b5060c082015161241460c085018261237c565b5060e082015161242760e085018261237c565b50505050565b6000610120820190506124436000830185611920565b612450602083018461238b565b9392505050565b7f496e697469616c697a61626c653a20636f6e7472616374206973206e6f74206960008201527f6e697469616c697a696e67000000000000000000000000000000000000000000602082015250565b60006124b3602b83611ee3565b91506124be82612457565b604082019050919050565b600060208201905081810360008301526124e2816124a6565b9050919050565b600081905092915050565b7f416363657373436f6e74726f6c3a206163636f756e7420000000000000000000600082015250565b600061252a6017836124e9565b9150612535826124f4565b601782019050919050565b600081519050919050565b60005b8381101561256957808201518184015260208101905061254e565b60008484015250505050565b600061258082612540565b61258a81856124e9565b935061259a81856020860161254b565b80840191505092915050565b7f206973206d697373696e6720726f6c6520000000000000000000000000000000600082015250565b60006125dc6011836124e9565b91506125e7826125a6565b601182019050919050565b60006125fd8261251d565b91506126098285612575565b9150612614826125cf565b91506126208284612575565b91508190509392505050565b600061263782612540565b6126418185611ee3565b935061265181856020860161254b565b61265a81611bfb565b840191505092915050565b6000602082019050818103600083015261267f818461262c565b905092915050565b6000612692826118e2565b915061269d836118e2565b92508282026126ab816118e2565b915082820484148315176126c2576126c1612224565b5b5092915050565b7f4e487b7100000000000000000000000000000000000000000000000000000000600052603260045260246000fd5b6000612703826118e2565b91506000820361271657612715612224565b5b600182039050919050565b7f537472696e67733a20686578206c656e67746820696e73756666696369656e74600082015250565b6000612757602083611ee3565b915061276282612721565b602082019050919050565b600060208201905081810360008301526127868161274a565b9050919050565b6000612798826118e2565b91507fffffffffffffffffffffffffffffffffffffffffffffffffffffffffffffffff82036127ca576127c9612224565b5b60018201905091905056fea264697066735822122031f503b1437c26d141cdeb7d5833fb8951cf1b68958b81305c21ed5137daf5d964736f6c63430008180033",
  "linkReferences": {},
  "deployedLinkReferences": {}
}