{
  "_format": "hh-sol-artifact-1",
  "contractName": "AttestationBook",
  "sourceName": "contracts/attestationBook.sol",
  "abi": [
    {
      "anonymous": false,
      "inputs": [
        {
          "indexed": false,
          "internalType": "bytes32",
          "name": "orderId",
          "type": "bytes32"
        }
      ],
      "name": "AlreadySubmitted",
      "type": "event"
    },
    {
      "anonymous": false,
      "inputs": [
        {
          "indexed": true,
          "internalType": "bytes32",
          "name": "claimId",
          "type": "bytes32"
        },
        {
          "indexed": true,
          "internalType": "bytes32",
          "name": "orderId",
          "type": "bytes32"
        },
        {
          "indexed": false,
          "internalType": "uint256",
          "name": "timestampConfirmation",
          "type": "uint256"
        },
        {
          "indexed": false,
          "internalType": "uint256",
          "name": "timestampOrder",
          "type": "uint256"
        },
        {
          "indexed": false,
          "internalType": "uint256",
          "name": "timestampAttestation",
          "type": "uint256"
        },
        {
          "indexed": false,
          "internalType": "uint256",
          "name": "claimTimestamp",
          "type": "uint256"
        },
        {
          "indexed": false,
          "internalType": "uint256",
          "name": "refundTimestamp",
          "type": "uint256"
        }
      ],
      "name": "ConfirmClaim",
      "type": "event"
    },
    {
      "anonymous": false,
      "inputs": [
        {
          "indexed": true,
          "internalType": "bytes32",
          "name": "orderId",
          "type": "bytes32"
        },
        {
          "indexed": true,
          "internalType": "bytes32",
          "name": "attestationBatchHash",
          "type": "bytes32"
        },
        {
          "indexed": false,
          "internalType": "uint256",
          "name": "timestampOrder",
          "type": "uint256"
        },
        {
          "indexed": false,
          "internalType": "uint256",
          "name": "timestampConfirmation",
          "type": "uint256"
        },
        {
          "indexed": false,
          "internalType": "uint256",
          "name": "timestampAttestation",
          "type": "uint256"
        },
        {
          "indexed": false,
          "internalType": "uint256",
          "name": "claimTimestamp",
          "type": "uint256"
        },
        {
          "indexed": false,
          "internalType": "uint256",
          "name": "refundTimestamp",
          "type": "uint256"
        }
      ],
      "name": "ConfirmL2Attestation",
      "type": "event"
    },
    {
      "anonymous": false,
      "inputs": [
        {
          "indexed": true,
          "internalType": "bytes32",
          "name": "refundId",
          "type": "bytes32"
        },
        {
          "indexed": true,
          "internalType": "bytes32",
          "name": "orderId",
          "type": "bytes32"
        },
        {
          "indexed": false,
          "internalType": "uint256",
          "name": "timestampConfirmation",
          "type": "uint256"
        },
        {
          "indexed": false,
          "internalType": "uint256",
          "name": "timestampOrder",
          "type": "uint256"
        },
        {
          "indexed": false,
          "internalType": "uint256",
          "name": "timestampAttestation",
          "type": "uint256"
        },
        {
          "indexed": false,
          "internalType": "uint256",
          "name": "claimTimestamp",
          "type": "uint256"
        },
        {
          "indexed": false,
          "internalType": "uint256",
          "name": "refundTimestamp",
          "type": "uint256"
        },
        {
          "indexed": false,
          "internalType": "uint256",
          "name": "nowTimestamp",
          "type": "uint256"
        }
      ],
      "name": "ConfirmRefund",
      "type": "event"
    },
    {
      "anonymous": false,
      "inputs": [
        {
          "indexed": true,
          "internalType": "bytes32",
          "name": "confirmationId",
          "type": "bytes32"
        },
        {
          "indexed": true,
          "internalType": "bytes32",
          "name": "orderId",
          "type": "bytes32"
        },
        {
          "indexed": false,
          "internalType": "uint256",
          "name": "timestampOrder",
          "type": "uint256"
        },
        {
          "indexed": false,
          "internalType": "uint256",
          "name": "timestampConfirmation",
          "type": "uint256"
        },
        {
          "indexed": false,
          "internalType": "uint256",
          "name": "timestampAttestation",
          "type": "uint256"
        },
        {
          "indexed": false,
          "internalType": "uint256",
          "name": "claimTimestamp",
          "type": "uint256"
        },
        {
          "indexed": false,
          "internalType": "uint256",
          "name": "refundTimestamp",
          "type": "uint256"
        }
      ],
      "name": "ConfirmationAttest",
      "type": "event"
    },
    {
      "anonymous": false,
      "inputs": [
        {
          "indexed": false,
          "internalType": "bytes32",
          "name": "orderId",
          "type": "bytes32"
        }
      ],
      "name": "GMPUnmatchedAdded",
      "type": "event"
    },
    {
      "anonymous": false,
      "inputs": [
        {
          "indexed": false,
          "internalType": "bytes32",
          "name": "orderId",
          "type": "bytes32"
        }
      ],
      "name": "GMPUnmatchedRemoved",
      "type": "event"
    },
    {
      "anonymous": false,
      "inputs": [
        {
          "indexed": false,
          "internalType": "uint8",
          "name": "version",
          "type": "uint8"
        }
      ],
      "name": "Initialized",
      "type": "event"
    },
    {
      "anonymous": false,
      "inputs": [
        {
          "indexed": true,
          "internalType": "bytes32",
          "name": "role",
          "type": "bytes32"
        },
        {
          "indexed": true,
          "internalType": "bytes32",
          "name": "previousAdminRole",
          "type": "bytes32"
        },
        {
          "indexed": true,
          "internalType": "bytes32",
          "name": "newAdminRole",
          "type": "bytes32"
        }
      ],
      "name": "RoleAdminChanged",
      "type": "event"
    },
    {
      "anonymous": false,
      "inputs": [
        {
          "indexed": true,
          "internalType": "bytes32",
          "name": "role",
          "type": "bytes32"
        },
        {
          "indexed": true,
          "internalType": "address",
          "name": "account",
          "type": "address"
        },
        {
          "indexed": true,
          "internalType": "address",
          "name": "sender",
          "type": "address"
        }
      ],
      "name": "RoleGranted",
      "type": "event"
    },
    {
      "anonymous": false,
      "inputs": [
        {
          "indexed": true,
          "internalType": "bytes32",
          "name": "role",
          "type": "bytes32"
        },
        {
          "indexed": true,
          "internalType": "address",
          "name": "account",
          "type": "address"
        },
        {
          "indexed": true,
          "internalType": "address",
          "name": "sender",
          "type": "address"
        }
      ],
      "name": "RoleRevoked",
      "type": "event"
    },
    {
      "inputs": [],
      "name": "DEFAULT_ADMIN_ROLE",
      "outputs": [
        {
          "internalType": "bytes32",
          "name": "",
          "type": "bytes32"
        }
      ],
      "stateMutability": "view",
      "type": "function"
    },
    {
      "inputs": [
        {
          "internalType": "bytes4",
          "name": "networkId",
          "type": "bytes4"
        },
        {
          "internalType": "bytes32",
          "name": "orderId",
          "type": "bytes32"
        },
        {
          "internalType": "address",
          "name": "sender",
          "type": "address"
        },
        {
          "internalType": "uint256",
          "name": "amount",
          "type": "uint256"
        },
        {
          "internalType": "address",
          "name": "assetAddress",
          "type": "address"
        }
      ],
      "name": "anchorClaim",
      "outputs": [],
      "stateMutability": "nonpayable",
      "type": "function"
    },
    {
      "inputs": [
        {
          "internalType": "bytes4",
          "name": "networkId",
          "type": "bytes4"
        },
        {
          "internalType": "bytes32",
          "name": "orderId",
          "type": "bytes32"
        },
        {
          "internalType": "bytes32",
          "name": "attestationBatchHash",
          "type": "bytes32"
        }
      ],
      "name": "anchorL2Attestation",
      "outputs": [],
      "stateMutability": "nonpayable",
      "type": "function"
    },
    {
      "inputs": [
        {
          "internalType": "bytes4",
          "name": "networkId",
          "type": "bytes4"
        },
        {
          "internalType": "bytes32",
          "name": "orderId",
          "type": "bytes32"
        },
        {
          "internalType": "bytes32",
          "name": "target",
          "type": "bytes32"
        },
        {
          "internalType": "uint256",
          "name": "amount",
          "type": "uint256"
        },
        {
          "internalType": "uint32",
          "name": "asset",
          "type": "uint32"
        },
        {
          "internalType": "address",
          "name": "sender",
          "type": "address"
        },
        {
          "internalType": "bytes32",
          "name": "txHash",
          "type": "bytes32"
        }
      ],
      "name": "anchorOrderConfirmation",
      "outputs": [],
      "stateMutability": "nonpayable",
      "type": "function"
    },
    {
      "inputs": [
        {
          "internalType": "bytes4",
          "name": "networkId",
          "type": "bytes4"
        },
        {
          "internalType": "bytes32",
          "name": "orderId",
          "type": "bytes32"
        },
        {
          "internalType": "bytes32",
          "name": "gmpPayload",
          "type": "bytes32"
        }
      ],
      "name": "anchorOrderGMPUnmatched",
      "outputs": [],
      "stateMutability": "nonpayable",
      "type": "function"
    },
    {
      "inputs": [
        {
          "internalType": "bytes4",
          "name": "networkId",
          "type": "bytes4"
        },
        {
          "internalType": "bytes32",
          "name": "orderId",
          "type": "bytes32"
        },
        {
          "internalType": "uint256",
          "name": "amount",
          "type": "uint256"
        },
        {
          "internalType": "address",
          "name": "assetAddress",
          "type": "address"
        },
        {
          "internalType": "address",
          "name": "sender",
          "type": "address"
        }
      ],
      "name": "anchorRefund",
      "outputs": [],
      "stateMutability": "nonpayable",
      "type": "function"
    },
    {
      "inputs": [
        {
          "internalType": "bytes32",
          "name": "",
          "type": "bytes32"
        }
      ],
      "name": "attestations",
      "outputs": [
        {
          "internalType": "uint256",
          "name": "",
          "type": "uint256"
        }
      ],
      "stateMutability": "view",
      "type": "function"
    },
    {
      "inputs": [],
      "name": "attestersPortal",
      "outputs": [
        {
          "internalType": "contract AttestersPortal",
          "name": "",
          "type": "address"
        }
      ],
      "stateMutability": "view",
      "type": "function"
    },
    {
      "inputs": [],
      "name": "biddingBook",
      "outputs": [
        {
          "internalType": "contract BiddingBook",
          "name": "",
          "type": "address"
        }
      ],
      "stateMutability": "view",
      "type": "function"
    },
    {
      "inputs": [
        {
          "internalType": "bytes32",
          "name": "",
          "type": "bytes32"
        }
      ],
      "name": "claims",
      "outputs": [
        {
          "internalType": "uint256",
          "name": "",
          "type": "uint256"
        }
      ],
      "stateMutability": "view",
      "type": "function"
    },
    {
      "inputs": [
        {
          "internalType": "bytes32",
          "name": "",
          "type": "bytes32"
        }
      ],
      "name": "confirmations",
      "outputs": [
        {
          "internalType": "uint256",
          "name": "",
          "type": "uint256"
        }
      ],
      "stateMutability": "view",
      "type": "function"
    },
    {
      "inputs": [],
      "name": "disableInitializers",
      "outputs": [],
      "stateMutability": "nonpayable",
      "type": "function"
    },
    {
      "inputs": [
        {
          "internalType": "bytes4",
          "name": "networkId",
          "type": "bytes4"
        },
        {
          "internalType": "bytes32",
          "name": "orderId",
          "type": "bytes32"
        }
      ],
      "name": "emergencyRemoveOrderGMPUnmatched",
      "outputs": [],
      "stateMutability": "nonpayable",
      "type": "function"
    },
    {
      "inputs": [
        {
          "internalType": "bytes4",
          "name": "networkId",
          "type": "bytes4"
        },
        {
          "internalType": "bytes32",
          "name": "orderId",
          "type": "bytes32"
        },
        {
          "internalType": "uint256",
          "name": "amount",
          "type": "uint256"
        },
        {
          "internalType": "address",
          "name": "assetAddress",
          "type": "address"
        },
        {
          "internalType": "address",
          "name": "sender",
          "type": "address"
        }
      ],
      "name": "generateClaimId",
      "outputs": [
        {
          "internalType": "bytes32",
          "name": "",
          "type": "bytes32"
        }
      ],
      "stateMutability": "pure",
      "type": "function"
    },
    {
      "inputs": [
        {
          "internalType": "bytes4",
          "name": "networkId",
          "type": "bytes4"
        },
        {
          "internalType": "bytes32",
          "name": "orderId",
          "type": "bytes32"
        },
        {
          "internalType": "bytes32",
          "name": "target",
          "type": "bytes32"
        },
        {
          "internalType": "uint256",
          "name": "amount",
          "type": "uint256"
        },
        {
          "internalType": "uint32",
          "name": "asset",
          "type": "uint32"
        },
        {
          "internalType": "address",
          "name": "sender",
          "type": "address"
        }
      ],
      "name": "generateConfirmationId",
      "outputs": [
        {
          "internalType": "bytes32",
          "name": "",
          "type": "bytes32"
        }
      ],
      "stateMutability": "pure",
      "type": "function"
    },
    {
      "inputs": [
        {
          "internalType": "bytes4",
          "name": "networkId",
          "type": "bytes4"
        },
        {
          "internalType": "bytes32",
          "name": "orderId",
          "type": "bytes32"
        },
        {
          "internalType": "uint256",
          "name": "amount",
          "type": "uint256"
        },
        {
          "internalType": "address",
          "name": "asset",
          "type": "address"
        },
        {
          "internalType": "address",
          "name": "sender",
          "type": "address"
        }
      ],
      "name": "generateRefundId",
      "outputs": [
        {
          "internalType": "bytes32",
          "name": "",
          "type": "bytes32"
        }
      ],
      "stateMutability": "pure",
      "type": "function"
    },
    {
      "inputs": [
        {
          "internalType": "bytes32",
          "name": "orderId",
          "type": "bytes32"
        }
      ],
      "name": "getConfirmationTxHash",
      "outputs": [
        {
          "internalType": "bytes32",
          "name": "",
          "type": "bytes32"
        }
      ],
      "stateMutability": "view",
      "type": "function"
    },
    {
      "inputs": [
        {
          "internalType": "bytes4",
          "name": "networkId",
          "type": "bytes4"
        }
      ],
      "name": "getGMPUnmatched",
      "outputs": [
        {
          "internalType": "bytes32[]",
          "name": "",
          "type": "bytes32[]"
        }
      ],
      "stateMutability": "view",
      "type": "function"
    },
    {
      "inputs": [
        {
          "internalType": "bytes32",
          "name": "role",
          "type": "bytes32"
        }
      ],
      "name": "getRoleAdmin",
      "outputs": [
        {
          "internalType": "bytes32",
          "name": "",
          "type": "bytes32"
        }
      ],
      "stateMutability": "view",
      "type": "function"
    },
    {
      "inputs": [
        {
          "internalType": "bytes32",
          "name": "orderId",
          "type": "bytes32"
        }
      ],
      "name": "getTimestampsByOrderId",
      "outputs": [
        {
          "internalType": "uint256",
          "name": "",
          "type": "uint256"
        },
        {
          "internalType": "uint256",
          "name": "",
          "type": "uint256"
        },
        {
          "internalType": "uint256",
          "name": "",
          "type": "uint256"
        },
        {
          "internalType": "uint256",
          "name": "",
          "type": "uint256"
        },
        {
          "internalType": "uint256",
          "name": "",
          "type": "uint256"
        }
      ],
      "stateMutability": "view",
      "type": "function"
    },
    {
      "inputs": [
        {
          "internalType": "bytes4",
          "name": "",
          "type": "bytes4"
        },
        {
          "internalType": "uint256",
          "name": "",
          "type": "uint256"
        }
      ],
      "name": "gmpUnmatched",
      "outputs": [
        {
          "internalType": "bytes32",
          "name": "",
          "type": "bytes32"
        }
      ],
      "stateMutability": "view",
      "type": "function"
    },
    {
      "inputs": [
        {
          "internalType": "bytes32",
          "name": "",
          "type": "bytes32"
        }
      ],
      "name": "gmpUnmatchedPayload",
      "outputs": [
        {
          "internalType": "bytes32",
          "name": "",
          "type": "bytes32"
        }
      ],
      "stateMutability": "view",
      "type": "function"
    },
    {
      "inputs": [
        {
          "internalType": "bytes32",
          "name": "role",
          "type": "bytes32"
        },
        {
          "internalType": "address",
          "name": "account",
          "type": "address"
        }
      ],
      "name": "grantRole",
      "outputs": [],
      "stateMutability": "nonpayable",
      "type": "function"
    },
    {
      "inputs": [
        {
          "internalType": "bytes32",
          "name": "role",
          "type": "bytes32"
        },
        {
          "internalType": "address",
          "name": "account",
          "type": "address"
        }
      ],
      "name": "hasRole",
      "outputs": [
        {
          "internalType": "bool",
          "name": "",
          "type": "bool"
        }
      ],
      "stateMutability": "view",
      "type": "function"
    },
    {
      "inputs": [
        {
          "internalType": "address",
          "name": "_owner",
          "type": "address"
        }
      ],
      "name": "initialize",
      "outputs": [],
      "stateMutability": "nonpayable",
      "type": "function"
    },
    {
      "inputs": [],
      "name": "orderBook",
      "outputs": [
        {
          "internalType": "contract OrderBook",
          "name": "",
          "type": "address"
        }
      ],
      "stateMutability": "view",
      "type": "function"
    },
    {
      "inputs": [
        {
          "internalType": "bytes32",
          "name": "",
          "type": "bytes32"
        }
      ],
      "name": "orderIdToClaimId",
      "outputs": [
        {
          "internalType": "bytes32",
          "name": "",
          "type": "bytes32"
        }
      ],
      "stateMutability": "view",
      "type": "function"
    },
    {
      "inputs": [
        {
          "internalType": "bytes32",
          "name": "",
          "type": "bytes32"
        }
      ],
      "name": "orderIdToConfirmationId",
      "outputs": [
        {
          "internalType": "bytes32",
          "name": "",
          "type": "bytes32"
        }
      ],
      "stateMutability": "view",
      "type": "function"
    },
    {
      "inputs": [
        {
          "internalType": "bytes32",
          "name": "",
          "type": "bytes32"
        }
      ],
      "name": "orderIdToConfirmationTxHash",
      "outputs": [
        {
          "internalType": "bytes32",
          "name": "",
          "type": "bytes32"
        }
      ],
      "stateMutability": "view",
      "type": "function"
    },
    {
      "inputs": [
        {
          "internalType": "bytes32",
          "name": "",
          "type": "bytes32"
        }
      ],
      "name": "orderIdToL2BatchHash",
      "outputs": [
        {
          "internalType": "bytes32",
          "name": "",
          "type": "bytes32"
        }
      ],
      "stateMutability": "view",
      "type": "function"
    },
    {
      "inputs": [
        {
          "internalType": "bytes32",
          "name": "",
          "type": "bytes32"
        }
      ],
      "name": "orderIdToL2BatchIndex",
      "outputs": [
        {
          "internalType": "uint32",
          "name": "",
          "type": "uint32"
        }
      ],
      "stateMutability": "view",
      "type": "function"
    },
    {
      "inputs": [
        {
          "internalType": "bytes32",
          "name": "",
          "type": "bytes32"
        }
      ],
      "name": "orderIdToRefundId",
      "outputs": [
        {
          "internalType": "bytes32",
          "name": "",
          "type": "bytes32"
        }
      ],
      "stateMutability": "view",
      "type": "function"
    },
    {
      "inputs": [
        {
          "internalType": "bytes32",
          "name": "",
          "type": "bytes32"
        }
      ],
      "name": "refunds",
      "outputs": [
        {
          "internalType": "uint256",
          "name": "",
          "type": "uint256"
        }
      ],
      "stateMutability": "view",
      "type": "function"
    },
    {
      "inputs": [
        {
          "internalType": "bytes32",
          "name": "role",
          "type": "bytes32"
        },
        {
          "internalType": "address",
          "name": "account",
          "type": "address"
        }
      ],
      "name": "renounceRole",
      "outputs": [],
      "stateMutability": "nonpayable",
      "type": "function"
    },
    {
      "inputs": [
        {
          "internalType": "bytes32",
          "name": "role",
          "type": "bytes32"
        },
        {
          "internalType": "address",
          "name": "account",
          "type": "address"
        }
      ],
      "name": "revokeRole",
      "outputs": [],
      "stateMutability": "nonpayable",
      "type": "function"
    },
    {
      "inputs": [
        {
          "internalType": "contract AttestersPortal",
          "name": "_attestersPortal",
          "type": "address"
        }
      ],
      "name": "setAttestersPortal",
      "outputs": [],
      "stateMutability": "nonpayable",
      "type": "function"
    },
    {
      "inputs": [
        {
          "internalType": "contract BiddingBook",
          "name": "_biddingBook",
          "type": "address"
        }
      ],
      "name": "setBiddingBook",
      "outputs": [],
      "stateMutability": "nonpayable",
      "type": "function"
    },
    {
      "inputs": [
        {
          "internalType": "contract OrderBook",
          "name": "_orderBook",
          "type": "address"
        }
      ],
      "name": "setOrderBook",
      "outputs": [],
      "stateMutability": "nonpayable",
      "type": "function"
    },
    {
      "inputs": [
        {
          "internalType": "contract SingleAttestationBook",
          "name": "_singleAttestationBook",
          "type": "address"
        }
      ],
      "name": "setSingleAttestationBook",
      "outputs": [],
      "stateMutability": "nonpayable",
      "type": "function"
    },
    {
      "inputs": [
        {
          "internalType": "uint256",
          "name": "_version",
          "type": "uint256"
        }
      ],
      "name": "setVersion",
      "outputs": [],
      "stateMutability": "nonpayable",
      "type": "function"
    },
    {
      "inputs": [],
      "name": "singleAttestationBook",
      "outputs": [
        {
          "internalType": "contract SingleAttestationBook",
          "name": "",
          "type": "address"
        }
      ],
      "stateMutability": "view",
      "type": "function"
    },
    {
      "inputs": [
        {
          "internalType": "bytes4",
          "name": "interfaceId",
          "type": "bytes4"
        }
      ],
      "name": "supportsInterface",
      "outputs": [
        {
          "internalType": "bool",
          "name": "",
          "type": "bool"
        }
      ],
      "stateMutability": "view",
      "type": "function"
    },
    {
      "inputs": [
        {
          "internalType": "bytes4",
          "name": "networkId",
          "type": "bytes4"
        },
        {
          "internalType": "bytes32",
          "name": "orderId",
          "type": "bytes32"
        },
        {
          "internalType": "uint256",
          "name": "amount",
          "type": "uint256"
        },
        {
          "internalType": "address",
          "name": "assetAddress",
          "type": "address"
        },
        {
          "internalType": "address",
          "name": "sender",
          "type": "address"
        }
      ],
      "name": "verifyClaimId",
      "outputs": [
        {
          "internalType": "bool",
          "name": "",
          "type": "bool"
        }
      ],
      "stateMutability": "view",
      "type": "function"
    },
    {
      "inputs": [
        {
          "internalType": "bytes4",
          "name": "networkId",
          "type": "bytes4"
        },
        {
          "internalType": "bytes32",
          "name": "orderId",
          "type": "bytes32"
        },
        {
          "internalType": "bytes32",
          "name": "target",
          "type": "bytes32"
        },
        {
          "internalType": "uint256",
          "name": "amount",
          "type": "uint256"
        },
        {
          "internalType": "uint32",
          "name": "asset",
          "type": "uint32"
        },
        {
          "internalType": "address",
          "name": "sender",
          "type": "address"
        }
      ],
      "name": "verifyConfirmationId",
      "outputs": [
        {
          "internalType": "bool",
          "name": "",
          "type": "bool"
        }
      ],
      "stateMutability": "view",
      "type": "function"
    },
    {
      "inputs": [
        {
          "internalType": "bytes4",
          "name": "networkId",
          "type": "bytes4"
        },
        {
          "internalType": "bytes32",
          "name": "orderId",
          "type": "bytes32"
        },
        {
          "internalType": "uint256",
          "name": "amount",
          "type": "uint256"
        },
        {
          "internalType": "address",
          "name": "asset",
          "type": "address"
        },
        {
          "internalType": "address",
          "name": "sender",
          "type": "address"
        }
      ],
      "name": "verifyRefundId",
      "outputs": [
        {
          "internalType": "bool",
          "name": "",
          "type": "bool"
        }
      ],
      "stateMutability": "view",
      "type": "function"
    },
    {
      "inputs": [],
      "name": "version",
      "outputs": [
        {
          "internalType": "uint256",
          "name": "",
          "type": "uint256"
        }
      ],
      "stateMutability": "view",
      "type": "function"
    }
  ],
  "bytecode": "0x608060405234801561001057600080fd5b506146d6806100206000396000f3fe608060405234801561001057600080fd5b506004361061028a5760003560e01c8063879d06c51161015c578063b7ad2aa0116100ce578063d547741f11610087578063d547741f1461087d578063e07e922e14610899578063ec95bfe7146108c9578063eff0f592146108f9578063f1d037c814610929578063f5999f15146109455761028a565b8063b7ad2aa0146107ad578063baf72d3b146107dd578063bb88b9b91461080d578063c4d66de814610829578063ce32fe4a14610845578063d03685cb146108615761028a565b80639a1598c8116101205780639a1598c8146106b3578063a0b22ff6146106cf578063a217fddf146106ff578063a2256a2e1461071d578063b0d14a641461074d578063b208daed1461077d5761028a565b8063879d06c5146105c3578063897824ed146105f35780638a1727531461062357806391d1485414610653578063940992a3146106835761028a565b806336568abe116102005780635d1c5710116101b95780635d1c5710146104c3578063625fcc21146104e15780636f97410b146105115780636fb05db514610541578063776af5ba146105715780637c6dbf0d1461058f5761028a565b806336568abe146104175780633aac5d3d14610433578063408def1e14610451578063409e16aa1461046d57806354fd4d501461048957806356abbffb146104a75761028a565b8063248a9ca311610252578063248a9ca314610343578063250ce7a81461037357806327197059146103a35780632aa8269e146103d35780632f2ff15d146103f157806331f449001461040d5761028a565b806301ffc9a71461028f5780630a8614a8146102bf57806311c8305c146102db5780631966c1541461030b5780631ddceedc14610327575b600080fd5b6102a960048036038101906102a49190612de1565b610975565b6040516102b69190612e29565b60405180910390f35b6102d960048036038101906102d49190612e7a565b6109ef565b005b6102f560048036038101906102f09190612f9d565b610bee565b6040516103029190613039565b60405180910390f35b610325600480360381019061032091906130a4565b610c2d565b005b610341600480360381019061033c91906130d1565b610cbd565b005b61035d6004803603810190610358919061314c565b610f78565b60405161036a9190613039565b60405180910390f35b61038d6004803603810190610388919061314c565b610f98565b60405161039a9190613039565b60405180910390f35b6103bd60048036038101906103b8919061314c565b610fb0565b6040516103ca9190613039565b60405180910390f35b6103db610fc8565b6040516103e891906131d8565b60405180910390f35b61040b600480360381019061040691906131f3565b610fee565b005b61041561100f565b005b610431600480360381019061042c91906131f3565b611065565b005b61043b6110e8565b6040516104489190613266565b60405180910390f35b61046b60048036038101906104669190613281565b61110e565b005b610487600480360381019061048291906132ec565b611164565b005b6104916111f4565b60405161049e9190613328565b60405180910390f35b6104c160048036038101906104bc9190612e7a565b6111fa565b005b6104cb6114cb565b6040516104d89190613364565b60405180910390f35b6104fb60048036038101906104f6919061314c565b6114f1565b6040516105089190613039565b60405180910390f35b61052b6004803603810190610526919061314c565b61150e565b6040516105389190613039565b60405180910390f35b61055b6004803603810190610556919061314c565b611526565b6040516105689190613039565b60405180910390f35b61057961153e565b60405161058691906133a0565b60405180910390f35b6105a960048036038101906105a4919061314c565b611564565b6040516105ba9594939291906133bb565b60405180910390f35b6105dd60048036038101906105d89190612f9d565b6116e9565b6040516105ea9190612e29565b60405180910390f35b61060d600480360381019061060891906130d1565b611721565b60405161061a9190612e29565b60405180910390f35b61063d6004803603810190610638919061314c565b611757565b60405161064a9190613328565b60405180910390f35b61066d600480360381019061066891906131f3565b61176f565b60405161067a9190612e29565b60405180910390f35b61069d6004803603810190610698919061314c565b6117da565b6040516106aa9190613328565b60405180910390f35b6106cd60048036038101906106c8919061344c565b6117f2565b005b6106e960048036038101906106e49190613479565b611882565b6040516106f69190613039565b60405180910390f35b6107076118b3565b6040516107149190613039565b60405180910390f35b6107376004803603810190610732919061314c565b6118ba565b6040516107449190613039565b60405180910390f35b61076760048036038101906107629190612de1565b6118d2565b6040516107749190613577565b60405180910390f35b610797600480360381019061079291906130d1565b61197b565b6040516107a49190613039565b60405180910390f35b6107c760048036038101906107c291906130d1565b6119b7565b6040516107d49190612e29565b60405180910390f35b6107f760048036038101906107f291906130d1565b6119ed565b6040516108049190613039565b60405180910390f35b61082760048036038101906108229190613599565b611a29565b005b610843600480360381019061083e919061363b565b611f9d565b005b61085f600480360381019061085a9190613668565b6120e9565b005b61087b600480360381019061087691906136e6565b6121d2565b005b610897600480360381019061089291906131f3565b612262565b005b6108b360048036038101906108ae919061314c565b612283565b6040516108c09190613039565b60405180910390f35b6108e360048036038101906108de919061314c565b61229b565b6040516108f09190613328565b60405180910390f35b610913600480360381019061090e919061314c565b6122b3565b6040516109209190613328565b60405180910390f35b610943600480360381019061093e9190613713565b6122cb565b005b61095f600480360381019061095a919061314c565b612584565b60405161096c919061379d565b60405180910390f35b60007f7965db0b000000000000000000000000000000000000000000000000000000007bffffffffffffffffffffffffffffffffffffffffffffffffffffffff1916827bffffffffffffffffffffffffffffffffffffffffffffffffffffffff191614806109e857506109e7826125a7565b5b9050919050565b609760009054906101000a900473ffffffffffffffffffffffffffffffffffffffff1673ffffffffffffffffffffffffffffffffffffffff1663ee06b289336040518263ffffffff1660e01b8152600401610a4a91906137c7565b602060405180830381865afa158015610a67573d6000803e3d6000fd5b505050506040513d601f19601f82011682018060405250810190610a8b919061380e565b610aca576040517f08c379a0000000000000000000000000000000000000000000000000000000008152600401610ac1906138be565b60405180910390fd5b600060a36000857bffffffffffffffffffffffffffffffffffffffffffffffffffffffff19167bffffffffffffffffffffffffffffffffffffffffffffffffffffffff1916815260200190815260200160002090506000805b8280549050811015610b695784838281548110610b4357610b426138de565b5b906000526020600020015403610b5c5760019150610b69565b8080600101915050610b23565b5080610b9857818490806001815401808255809150506001900390600052602060002001600090919091909150555b8260a46000868152602001908152602001600020819055507f4b649f71dc6a3df234c4b5d708a9e044ebd814503795ecf65c5d65fe05cd694e84604051610bdf9190613039565b60405180910390a15050505050565b6000868686868686604051602001610c0b969594939291906139ee565b6040516020818303038152906040528051906020012090509695505050505050565b610c3a6000801b3361176f565b610c79576040517f08c379a0000000000000000000000000000000000000000000000000000000008152600401610c7090613ad0565b60405180910390fd5b80609a60006101000a81548173ffffffffffffffffffffffffffffffffffffffff021916908373ffffffffffffffffffffffffffffffffffffffff16021790555050565b609760009054906101000a900473ffffffffffffffffffffffffffffffffffffffff1673ffffffffffffffffffffffffffffffffffffffff1663ee06b289336040518263ffffffff1660e01b8152600401610d1891906137c7565b602060405180830381865afa158015610d35573d6000803e3d6000fd5b505050506040513d601f19601f82011682018060405250810190610d59919061380e565b610d98576040517f08c379a0000000000000000000000000000000000000000000000000000000008152600401610d8f906138be565b60405180910390fd5b609860009054906101000a900473ffffffffffffffffffffffffffffffffffffffff1673ffffffffffffffffffffffffffffffffffffffff1663eacce00a856040518263ffffffff1660e01b8152600401610df39190613039565b602060405180830381865afa158015610e10573d6000803e3d6000fd5b505050506040513d601f19601f82011682018060405250810190610e34919061380e565b610e73576040517f08c379a0000000000000000000000000000000000000000000000000000000008152600401610e6a90613b3c565b60405180910390fd5b6000610e8286868686866119ed565b90506000609c60008381526020019081526020016000205414610edc577fc0817a0f8623df5cbe2a5f733daa045d5f54641b030d70aef80462322b63e93b85604051610ece9190613039565b60405180910390a150610f71565b8060a160008781526020019081526020016000208190555042609c6000838152602001908152602001600020819055506000806000806000610f1d8a611564565b9450945094509450945089867f2b5f31c045b1f152a1e225023acc52f0347c92919ee47d292bee3afd547e5992868885878942604051610f6296959493929190613b5c565b60405180910390a35050505050505b5050505050565b600060656000838152602001908152602001600020600101549050919050565b60a16020528060005260406000206000915090505481565b60a26020528060005260406000206000915090505481565b609960009054906101000a900473ffffffffffffffffffffffffffffffffffffffff1681565b610ff782610f78565b61100081612611565b61100a8383612625565b505050565b61101c6000801b3361176f565b61105b576040517f08c379a000000000000000000000000000000000000000000000000000000000815260040161105290613ad0565b60405180910390fd5b611063612706565b565b61106d6127c6565b73ffffffffffffffffffffffffffffffffffffffff168173ffffffffffffffffffffffffffffffffffffffff16146110da576040517f08c379a00000000000000000000000000000000000000000000000000000000081526004016110d190613c2f565b60405180910390fd5b6110e482826127ce565b5050565b609760009054906101000a900473ffffffffffffffffffffffffffffffffffffffff1681565b61111b6000801b3361176f565b61115a576040517f08c379a000000000000000000000000000000000000000000000000000000000815260040161115190613ad0565b60405180910390fd5b8060a78190555050565b6111716000801b3361176f565b6111b0576040517f08c379a00000000000000000000000000000000000000000000000000000000081526004016111a790613ad0565b60405180910390fd5b80609960006101000a81548173ffffffffffffffffffffffffffffffffffffffff021916908373ffffffffffffffffffffffffffffffffffffffff16021790555050565b60a75481565b609760009054906101000a900473ffffffffffffffffffffffffffffffffffffffff1673ffffffffffffffffffffffffffffffffffffffff1663ee06b289336040518263ffffffff1660e01b815260040161125591906137c7565b602060405180830381865afa158015611272573d6000803e3d6000fd5b505050506040513d601f19601f82011682018060405250810190611296919061380e565b6112d5576040517f08c379a00000000000000000000000000000000000000000000000000000000081526004016112cc906138be565b60405180910390fd5b609860009054906101000a900473ffffffffffffffffffffffffffffffffffffffff1673ffffffffffffffffffffffffffffffffffffffff1663eacce00a836040518263ffffffff1660e01b81526004016113309190613039565b602060405180830381865afa15801561134d573d6000803e3d6000fd5b505050506040513d601f19601f82011682018060405250810190611371919061380e565b6113b0576040517f08c379a00000000000000000000000000000000000000000000000000000000081526004016113a790613b3c565b60405180910390fd5b6000609e6000848152602001908152602001600020541415806113e957506000801b60a560008481526020019081526020016000205414155b1561142a577fc0817a0f8623df5cbe2a5f733daa045d5f54641b030d70aef80462322b63e93b8260405161141d9190613039565b60405180910390a16114c6565b8060a560008481526020019081526020016000208190555042609e600084815260200190815260200160002081905550600080600080600061146b87611564565b9450945094509450945061147f88886128b0565b85877f59eaad113d661d1f565d1b3df3be897e353b4fda321264d06b845ebf94a4f8bf87878787876040516114b89594939291906133bb565b60405180910390a350505050505b505050565b609a60009054906101000a900473ffffffffffffffffffffffffffffffffffffffff1681565b600060a06000838152602001908152602001600020549050919050565b609f6020528060005260406000206000915090505481565b60a56020528060005260406000206000915090505481565b609860009054906101000a900473ffffffffffffffffffffffffffffffffffffffff1681565b600080600080600080609f6000888152602001908152602001600020549050600060a16000898152602001908152602001600020549050600060a260008a81526020019081526020016000205490506000609b60008581526020019081526020016000205490506000609c60008581526020019081526020016000205490506000609d60008581526020019081526020016000205490506000609e60008e8152602001908152602001600020549050609860009054906101000a900473ffffffffffffffffffffffffffffffffffffffff1673ffffffffffffffffffffffffffffffffffffffff1663b84c3c9a8e6040518263ffffffff1660e01b815260040161166e9190613039565b602060405180830381865afa9250505080156116a857506040513d601f19601f820116820180604052508101906116a59190613c64565b60015b6116c8576000848484849b509b509b509b509b50505050505050506116e0565b80858585859c509c509c509c509c5050505050505050505b91939590929450565b6000806116fa888888888888610bee565b90506000609b60008381526020019081526020016000205414159150509695505050505050565b60008061173187878787876119ed565b90506000609c600083815260200190815260200160002054141591505095945050505050565b609c6020528060005260406000206000915090505481565b60006065600084815260200190815260200160002060000160008373ffffffffffffffffffffffffffffffffffffffff1673ffffffffffffffffffffffffffffffffffffffff16815260200190815260200160002060009054906101000a900460ff16905092915050565b609e6020528060005260406000206000915090505481565b6117ff6000801b3361176f565b61183e576040517f08c379a000000000000000000000000000000000000000000000000000000000815260040161183590613ad0565b60405180910390fd5b80609860006101000a81548173ffffffffffffffffffffffffffffffffffffffff021916908373ffffffffffffffffffffffffffffffffffffffff16021790555050565b60a3602052816000526040600020818154811061189e57600080fd5b90600052602060002001600091509150505481565b6000801b81565b60a06020528060005260406000206000915090505481565b606060a36000837bffffffffffffffffffffffffffffffffffffffffffffffffffffffff19167bffffffffffffffffffffffffffffffffffffffffffffffffffffffff1916815260200190815260200160002080548060200260200160405190810160405280929190818152602001828054801561196f57602002820191906000526020600020905b81548152602001906001019080831161195b575b50505050509050919050565b60008585858585604051602001611996959493929190613c91565b60405160208183030381529060405280519060200120905095945050505050565b6000806119c7878787878761197b565b90506000609d600083815260200190815260200160002054141591505095945050505050565b60008585858585604051602001611a08959493929190613c91565b60405160208183030381529060405280519060200120905095945050505050565b609760009054906101000a900473ffffffffffffffffffffffffffffffffffffffff1673ffffffffffffffffffffffffffffffffffffffff1663ee06b289336040518263ffffffff1660e01b8152600401611a8491906137c7565b602060405180830381865afa158015611aa1573d6000803e3d6000fd5b505050506040513d601f19601f82011682018060405250810190611ac5919061380e565b611b04576040517f08c379a0000000000000000000000000000000000000000000000000000000008152600401611afb906138be565b60405180910390fd5b600080609860009054906101000a900473ffffffffffffffffffffffffffffffffffffffff1673ffffffffffffffffffffffffffffffffffffffff16635778472a896040518263ffffffff1660e01b8152600401611b629190613039565b61012060405180830381865afa158015611b80573d6000803e3d6000fd5b505050506040513d601f19601f82011682018060405250810190611ba49190613e9f565b9150915086826060015114611bee576040517f08c379a0000000000000000000000000000000000000000000000000000000008152600401611be590613f2d565b60405180910390fd5b85826080015114611c34576040517f08c379a0000000000000000000000000000000000000000000000000000000008152600401611c2b90613f99565b60405180910390fd5b8463ffffffff16826040015163ffffffff1614611c86576040517f08c379a0000000000000000000000000000000000000000000000000000000008152600401611c7d90613f2d565b60405180910390fd5b6000609960009054906101000a900473ffffffffffffffffffffffffffffffffffffffff1673ffffffffffffffffffffffffffffffffffffffff166391704e1e8a6040518263ffffffff1660e01b8152600401611ce39190613039565b606060405180830381865afa158015611d00573d6000803e3d6000fd5b505050506040513d601f19601f82011682018060405250810190611d24919061401d565b90508473ffffffffffffffffffffffffffffffffffffffff16816020015173ffffffffffffffffffffffffffffffffffffffff1614611d98576040517f08c379a0000000000000000000000000000000000000000000000000000000008152600401611d8f90614096565b60405180910390fd5b42609960009054906101000a900473ffffffffffffffffffffffffffffffffffffffff1673ffffffffffffffffffffffffffffffffffffffff16635f8909bd6040518163ffffffff1660e01b8152600401602060405180830381865afa158015611e06573d6000803e3d6000fd5b505050506040513d601f19601f82011682018060405250810190611e2a9190613c64565b8260000151611e3991906140e5565b10611e79576040517f08c379a0000000000000000000000000000000000000000000000000000000008152600401611e7090614165565b60405180910390fd5b6000611e898b8b8b8b8b8b610bee565b90506000609b60008381526020019081526020016000205414611ee6577fc0817a0f8623df5cbe2a5f733daa045d5f54641b030d70aef80462322b63e93b8a604051611ed59190613039565b60405180910390a150505050611f94565b80609f60008c81526020019081526020016000208190555042609b6000838152602001908152602001600020819055508460a060008c8152602001908152602001600020819055506000806000806000611f3f8f611564565b945094509450945094508e867f0f9be96bb0c861bd12d264c2d76c027cf027d4d5bae5d19d64f728f14eac98f68787858789604051611f829594939291906133bb565b60405180910390a35050505050505050505b50505050505050565b60008060019054906101000a900460ff16159050808015611fce5750600160008054906101000a900460ff1660ff16105b80611ffb5750611fdd30612a18565b158015611ffa5750600160008054906101000a900460ff1660ff16145b5b61203a576040517f08c379a0000000000000000000000000000000000000000000000000000000008152600401612031906141f7565b60405180910390fd5b60016000806101000a81548160ff021916908360ff1602179055508015612077576001600060016101000a81548160ff0219169083151502179055505b61207f612a3b565b61208c6000801b83612625565b80156120e55760008060016101000a81548160ff0219169083151502179055507f7f26b83ff96e1f2b6a682f133852f6798a09c465da95921460cefb384740249860016040516120dc919061425f565b60405180910390a15b5050565b609760009054906101000a900473ffffffffffffffffffffffffffffffffffffffff1673ffffffffffffffffffffffffffffffffffffffff1663ee06b289336040518263ffffffff1660e01b815260040161214491906137c7565b602060405180830381865afa158015612161573d6000803e3d6000fd5b505050506040513d601f19601f82011682018060405250810190612185919061380e565b6121c4576040517f08c379a00000000000000000000000000000000000000000000000000000000081526004016121bb906138be565b60405180910390fd5b6121ce82826128b0565b5050565b6121df6000801b3361176f565b61221e576040517f08c379a000000000000000000000000000000000000000000000000000000000815260040161221590613ad0565b60405180910390fd5b80609760006101000a81548173ffffffffffffffffffffffffffffffffffffffff021916908373ffffffffffffffffffffffffffffffffffffffff16021790555050565b61226b82610f78565b61227481612611565b61227e83836127ce565b505050565b60a46020528060005260406000206000915090505481565b609b6020528060005260406000206000915090505481565b609d6020528060005260406000206000915090505481565b609760009054906101000a900473ffffffffffffffffffffffffffffffffffffffff1673ffffffffffffffffffffffffffffffffffffffff1663ee06b289336040518263ffffffff1660e01b815260040161232691906137c7565b602060405180830381865afa158015612343573d6000803e3d6000fd5b505050506040513d601f19601f82011682018060405250810190612367919061380e565b6123a6576040517f08c379a000000000000000000000000000000000000000000000000000000000815260040161239d906138be565b60405180910390fd5b609860009054906101000a900473ffffffffffffffffffffffffffffffffffffffff1673ffffffffffffffffffffffffffffffffffffffff1663eacce00a856040518263ffffffff1660e01b81526004016124019190613039565b602060405180830381865afa15801561241e573d6000803e3d6000fd5b505050506040513d601f19601f82011682018060405250810190612442919061380e565b612481576040517f08c379a000000000000000000000000000000000000000000000000000000000815260040161247890613b3c565b60405180910390fd5b6000612490868685858861197b565b90506000609d600083815260200190815260200160002054146124ea577fc0817a0f8623df5cbe2a5f733daa045d5f54641b030d70aef80462322b63e93b856040516124dc9190613039565b60405180910390a15061257d565b8060a260008781526020019081526020016000208190555042609d600083815260200190815260200160002081905550600080600080600061252b8a611564565b9450945094509450945089867fcb698f5ca3ebf5bf6db7b1b0102641587af79ee768e55981e13540f78fc44efa868885878960405161256e9594939291906133bb565b60405180910390a35050505050505b5050505050565b60a66020528060005260406000206000915054906101000a900463ffffffff1681565b60007f01ffc9a7000000000000000000000000000000000000000000000000000000007bffffffffffffffffffffffffffffffffffffffffffffffffffffffff1916827bffffffffffffffffffffffffffffffffffffffffffffffffffffffff1916149050919050565b6126228161261d6127c6565b612a8c565b50565b61262f828261176f565b6127025760016065600084815260200190815260200160002060000160008373ffffffffffffffffffffffffffffffffffffffff1673ffffffffffffffffffffffffffffffffffffffff16815260200190815260200160002060006101000a81548160ff0219169083151502179055506126a76127c6565b73ffffffffffffffffffffffffffffffffffffffff168173ffffffffffffffffffffffffffffffffffffffff16837f2f8788117e7eff1d82e926ec794901d17c78024a50270940304540a733656f0d60405160405180910390a45b5050565b600060019054906101000a900460ff1615612756576040517f08c379a000000000000000000000000000000000000000000000000000000000815260040161274d906142ec565b60405180910390fd5b60ff801660008054906101000a900460ff1660ff16146127c45760ff6000806101000a81548160ff021916908360ff1602179055507f7f26b83ff96e1f2b6a682f133852f6798a09c465da95921460cefb384740249860ff6040516127bb919061431b565b60405180910390a15b565b600033905090565b6127d8828261176f565b156128ac5760006065600084815260200190815260200160002060000160008373ffffffffffffffffffffffffffffffffffffffff1673ffffffffffffffffffffffffffffffffffffffff16815260200190815260200160002060006101000a81548160ff0219169083151502179055506128516127c6565b73ffffffffffffffffffffffffffffffffffffffff168173ffffffffffffffffffffffffffffffffffffffff16837ff6391f5c32d9c69d2a47ea670b442974b53935d1edc7fd64eb21e047a839171b60405160405180910390a45b5050565b600060a36000847bffffffffffffffffffffffffffffffffffffffffffffffffffffffff19167bffffffffffffffffffffffffffffffffffffffffffffffffffffffff19168152602001908152602001600020905060005b81805490508110156129c05782828281548110612928576129276138de565b5b9060005260206000200154036129b357816001838054905061294a9190614336565b8154811061295b5761295a6138de565b5b9060005260206000200154828281548110612979576129786138de565b5b9060005260206000200181905550818054806129985761299761436a565b5b600190038181906000526020600020016000905590556129c0565b8080600101915050612908565b506000801b60a46000848152602001908152602001600020819055507f4995ec9243b13a7390c10fa72ebe9d2672eab44937922b9e3f78637688d2531782604051612a0b9190613039565b60405180910390a1505050565b6000808273ffffffffffffffffffffffffffffffffffffffff163b119050919050565b600060019054906101000a900460ff16612a8a576040517f08c379a0000000000000000000000000000000000000000000000000000000008152600401612a819061440b565b60405180910390fd5b565b612a96828261176f565b612b0d57612aa381612b11565b612ab18360001c6020612b3e565b604051602001612ac2929190614534565b6040516020818303038152906040526040517f08c379a0000000000000000000000000000000000000000000000000000000008152600401612b0491906145a7565b60405180910390fd5b5050565b6060612b378273ffffffffffffffffffffffffffffffffffffffff16601460ff16612b3e565b9050919050565b606060006002836002612b5191906145c9565b612b5b91906140e5565b67ffffffffffffffff811115612b7457612b73613d06565b5b6040519080825280601f01601f191660200182016040528015612ba65781602001600182028036833780820191505090505b5090507f300000000000000000000000000000000000000000000000000000000000000081600081518110612bde57612bdd6138de565b5b60200101907effffffffffffffffffffffffffffffffffffffffffffffffffffffffffffff1916908160001a9053507f780000000000000000000000000000000000000000000000000000000000000081600181518110612c4257612c416138de565b5b60200101907effffffffffffffffffffffffffffffffffffffffffffffffffffffffffffff1916908160001a90535060006001846002612c8291906145c9565b612c8c91906140e5565b90505b6001811115612d2c577f3031323334353637383961626364656600000000000000000000000000000000600f861660108110612cce57612ccd6138de565b5b1a60f81b828281518110612ce557612ce46138de565b5b60200101907effffffffffffffffffffffffffffffffffffffffffffffffffffffffffffff1916908160001a905350600485901c945080612d259061460b565b9050612c8f565b5060008414612d70576040517f08c379a0000000000000000000000000000000000000000000000000000000008152600401612d6790614680565b60405180910390fd5b8091505092915050565b6000604051905090565b600080fd5b60007fffffffff0000000000000000000000000000000000000000000000000000000082169050919050565b612dbe81612d89565b8114612dc957600080fd5b50565b600081359050612ddb81612db5565b92915050565b600060208284031215612df757612df6612d84565b5b6000612e0584828501612dcc565b91505092915050565b60008115159050919050565b612e2381612e0e565b82525050565b6000602082019050612e3e6000830184612e1a565b92915050565b6000819050919050565b612e5781612e44565b8114612e6257600080fd5b50565b600081359050612e7481612e4e565b92915050565b600080600060608486031215612e9357612e92612d84565b5b6000612ea186828701612dcc565b9350506020612eb286828701612e65565b9250506040612ec386828701612e65565b9150509250925092565b6000819050919050565b612ee081612ecd565b8114612eeb57600080fd5b50565b600081359050612efd81612ed7565b92915050565b600063ffffffff82169050919050565b612f1c81612f03565b8114612f2757600080fd5b50565b600081359050612f3981612f13565b92915050565b600073ffffffffffffffffffffffffffffffffffffffff82169050919050565b6000612f6a82612f3f565b9050919050565b612f7a81612f5f565b8114612f8557600080fd5b50565b600081359050612f9781612f71565b92915050565b60008060008060008060c08789031215612fba57612fb9612d84565b5b6000612fc889828a01612dcc565b9650506020612fd989828a01612e65565b9550506040612fea89828a01612e65565b9450506060612ffb89828a01612eee565b935050608061300c89828a01612f2a565b92505060a061301d89828a01612f88565b9150509295509295509295565b61303381612e44565b82525050565b600060208201905061304e600083018461302a565b92915050565b600061305f82612f3f565b9050919050565b600061307182613054565b9050919050565b61308181613066565b811461308c57600080fd5b50565b60008135905061309e81613078565b92915050565b6000602082840312156130ba576130b9612d84565b5b60006130c88482850161308f565b91505092915050565b600080600080600060a086880312156130ed576130ec612d84565b5b60006130fb88828901612dcc565b955050602061310c88828901612e65565b945050604061311d88828901612eee565b935050606061312e88828901612f88565b925050608061313f88828901612f88565b9150509295509295909350565b60006020828403121561316257613161612d84565b5b600061317084828501612e65565b91505092915050565b6000819050919050565b600061319e61319961319484612f3f565b613179565b612f3f565b9050919050565b60006131b082613183565b9050919050565b60006131c2826131a5565b9050919050565b6131d2816131b7565b82525050565b60006020820190506131ed60008301846131c9565b92915050565b6000806040838503121561320a57613209612d84565b5b600061321885828601612e65565b925050602061322985828601612f88565b9150509250929050565b600061323e82613183565b9050919050565b600061325082613233565b9050919050565b61326081613245565b82525050565b600060208201905061327b6000830184613257565b92915050565b60006020828403121561329757613296612d84565b5b60006132a584828501612eee565b91505092915050565b60006132b982612f5f565b9050919050565b6132c9816132ae565b81146132d457600080fd5b50565b6000813590506132e6816132c0565b92915050565b60006020828403121561330257613301612d84565b5b6000613310848285016132d7565b91505092915050565b61332281612ecd565b82525050565b600060208201905061333d6000830184613319565b92915050565b600061334e82613233565b9050919050565b61335e81613343565b82525050565b60006020820190506133796000830184613355565b92915050565b600061338a826131a5565b9050919050565b61339a8161337f565b82525050565b60006020820190506133b56000830184613391565b92915050565b600060a0820190506133d06000830188613319565b6133dd6020830187613319565b6133ea6040830186613319565b6133f76060830185613319565b6134046080830184613319565b9695505050505050565b600061341982612f5f565b9050919050565b6134298161340e565b811461343457600080fd5b50565b60008135905061344681613420565b92915050565b60006020828403121561346257613461612d84565b5b600061347084828501613437565b91505092915050565b600080604083850312156134905761348f612d84565b5b600061349e85828601612dcc565b92505060206134af85828601612eee565b9150509250929050565b600081519050919050565b600082825260208201905092915050565b6000819050602082019050919050565b6134ee81612e44565b82525050565b600061350083836134e5565b60208301905092915050565b6000602082019050919050565b6000613524826134b9565b61352e81856134c4565b9350613539836134d5565b8060005b8381101561356a57815161355188826134f4565b975061355c8361350c565b92505060018101905061353d565b5085935050505092915050565b600060208201905081810360008301526135918184613519565b905092915050565b600080600080600080600060e0888a0312156135b8576135b7612d84565b5b60006135c68a828b01612dcc565b97505060206135d78a828b01612e65565b96505060406135e88a828b01612e65565b95505060606135f98a828b01612eee565b945050608061360a8a828b01612f2a565b93505060a061361b8a828b01612f88565b92505060c061362c8a828b01612e65565b91505092959891949750929550565b60006020828403121561365157613650612d84565b5b600061365f84828501612f88565b91505092915050565b6000806040838503121561367f5761367e612d84565b5b600061368d85828601612dcc565b925050602061369e85828601612e65565b9150509250929050565b60006136b382613054565b9050919050565b6136c3816136a8565b81146136ce57600080fd5b50565b6000813590506136e0816136ba565b92915050565b6000602082840312156136fc576136fb612d84565b5b600061370a848285016136d1565b91505092915050565b600080600080600060a0868803121561372f5761372e612d84565b5b600061373d88828901612dcc565b955050602061374e88828901612e65565b945050604061375f88828901612f88565b935050606061377088828901612eee565b925050608061378188828901612f88565b9150509295509295909350565b61379781612f03565b82525050565b60006020820190506137b2600083018461378e565b92915050565b6137c181612f5f565b82525050565b60006020820190506137dc60008301846137b8565b92915050565b6137eb81612e0e565b81146137f657600080fd5b50565b600081519050613808816137e2565b92915050565b60006020828403121561382457613823612d84565b5b6000613832848285016137f9565b91505092915050565b600082825260208201905092915050565b7f4f6e6c792063757272656e7420636f6d6d6974746565206d656d62657220636160008201527f6e2063616c6c20746869732066756e6374696f6e000000000000000000000000602082015250565b60006138a860348361383b565b91506138b38261384c565b604082019050919050565b600060208201905081810360008301526138d78161389b565b9050919050565b7f4e487b7100000000000000000000000000000000000000000000000000000000600052603260045260246000fd5b6000819050919050565b61392861392382612d89565b61390d565b82525050565b6000819050919050565b61394961394482612e44565b61392e565b82525050565b6000819050919050565b61396a61396582612ecd565b61394f565b82525050565b60008160e01b9050919050565b600061398882613970565b9050919050565b6139a061399b82612f03565b61397d565b82525050565b60008160601b9050919050565b60006139be826139a6565b9050919050565b60006139d0826139b3565b9050919050565b6139e86139e382612f5f565b6139c5565b82525050565b60006139fa8289613917565b600482019150613a0a8288613938565b602082019150613a1a8287613938565b602082019150613a2a8286613959565b602082019150613a3a828561398f565b600482019150613a4a82846139d7565b601482019150819050979650505050505050565b7f4f6e6c79206f776e65722063616e2063616c6c20746869732066756e6374696f60008201527f6e00000000000000000000000000000000000000000000000000000000000000602082015250565b6000613aba60218361383b565b9150613ac582613a5e565b604082019050919050565b60006020820190508181036000830152613ae981613aad565b9050919050565b7f4f7264657220646f6573206e6f74206578697374000000000000000000000000600082015250565b6000613b2660148361383b565b9150613b3182613af0565b602082019050919050565b60006020820190508181036000830152613b5581613b19565b9050919050565b600060c082019050613b716000830189613319565b613b7e6020830188613319565b613b8b6040830187613319565b613b986060830186613319565b613ba56080830185613319565b613bb260a0830184613319565b979650505050505050565b7f416363657373436f6e74726f6c3a2063616e206f6e6c792072656e6f756e636560008201527f20726f6c657320666f722073656c660000000000000000000000000000000000602082015250565b6000613c19602f8361383b565b9150613c2482613bbd565b604082019050919050565b60006020820190508181036000830152613c4881613c0c565b9050919050565b600081519050613c5e81612ed7565b92915050565b600060208284031215613c7a57613c79612d84565b5b6000613c8884828501613c4f565b91505092915050565b6000613c9d8288613917565b600482019150613cad8287613938565b602082019150613cbd8286613959565b602082019150613ccd82856139d7565b601482019150613cdd82846139d7565b6014820191508190509695505050505050565b600080fd5b6000601f19601f8301169050919050565b7f4e487b7100000000000000000000000000000000000000000000000000000000600052604160045260246000fd5b613d3e82613cf5565b810181811067ffffffffffffffff82111715613d5d57613d5c613d06565b5b80604052505050565b6000613d70612d7a565b9050613d7c8282613d35565b919050565b600081519050613d9081612db5565b92915050565b600081519050613da581612f13565b92915050565b600081519050613dba81612e4e565b92915050565b600081519050613dcf81612f71565b92915050565b60006101008284031215613dec57613deb613cf0565b5b613df7610100613d66565b90506000613e0784828501613d81565b6000830152506020613e1b84828501613d81565b6020830152506040613e2f84828501613d96565b6040830152506060613e4384828501613dab565b6060830152506080613e5784828501613c4f565b60808301525060a0613e6b84828501613dc0565b60a08301525060c0613e7f84828501613c4f565b60c08301525060e0613e9384828501613d96565b60e08301525092915050565b6000806101208385031215613eb757613eb6612d84565b5b6000613ec585828601613dd5565b925050610100613ed785828601613dab565b9150509250929050565b7f4142233300000000000000000000000000000000000000000000000000000000600082015250565b6000613f1760048361383b565b9150613f2282613ee1565b602082019050919050565b60006020820190508181036000830152613f4681613f0a565b9050919050565b7f4142233200000000000000000000000000000000000000000000000000000000600082015250565b6000613f8360048361383b565b9150613f8e82613f4d565b602082019050919050565b60006020820190508181036000830152613fb281613f76565b9050919050565b600060608284031215613fcf57613fce613cf0565b5b613fd96060613d66565b90506000613fe984828501613c4f565b6000830152506020613ffd84828501613dc0565b602083015250604061401184828501613c4f565b60408301525092915050565b60006060828403121561403357614032612d84565b5b600061404184828501613fb9565b91505092915050565b7f4142233100000000000000000000000000000000000000000000000000000000600082015250565b600061408060048361383b565b915061408b8261404a565b602082019050919050565b600060208201905081810360008301526140af81614073565b9050919050565b7f4e487b7100000000000000000000000000000000000000000000000000000000600052601160045260246000fd5b60006140f082612ecd565b91506140fb83612ecd565b9250828201905080821115614113576141126140b6565b5b92915050565b7f4142233400000000000000000000000000000000000000000000000000000000600082015250565b600061414f60048361383b565b915061415a82614119565b602082019050919050565b6000602082019050818103600083015261417e81614142565b9050919050565b7f496e697469616c697a61626c653a20636f6e747261637420697320616c72656160008201527f647920696e697469616c697a6564000000000000000000000000000000000000602082015250565b60006141e1602e8361383b565b91506141ec82614185565b604082019050919050565b60006020820190508181036000830152614210816141d4565b9050919050565b6000819050919050565b600060ff82169050919050565b600061424961424461423f84614217565b613179565b614221565b9050919050565b6142598161422e565b82525050565b60006020820190506142746000830184614250565b92915050565b7f496e697469616c697a61626c653a20636f6e747261637420697320696e69746960008201527f616c697a696e6700000000000000000000000000000000000000000000000000602082015250565b60006142d660278361383b565b91506142e18261427a565b604082019050919050565b60006020820190508181036000830152614305816142c9565b9050919050565b61431581614221565b82525050565b6000602082019050614330600083018461430c565b92915050565b600061434182612ecd565b915061434c83612ecd565b9250828203905081811115614364576143636140b6565b5b92915050565b7f4e487b7100000000000000000000000000000000000000000000000000000000600052603160045260246000fd5b7f496e697469616c697a61626c653a20636f6e7472616374206973206e6f74206960008201527f6e697469616c697a696e67000000000000000000000000000000000000000000602082015250565b60006143f5602b8361383b565b915061440082614399565b604082019050919050565b60006020820190508181036000830152614424816143e8565b9050919050565b600081905092915050565b7f416363657373436f6e74726f6c3a206163636f756e7420000000000000000000600082015250565b600061446c60178361442b565b915061447782614436565b601782019050919050565b600081519050919050565b60005b838110156144ab578082015181840152602081019050614490565b60008484015250505050565b60006144c282614482565b6144cc818561442b565b93506144dc81856020860161448d565b80840191505092915050565b7f206973206d697373696e6720726f6c6520000000000000000000000000000000600082015250565b600061451e60118361442b565b9150614529826144e8565b601182019050919050565b600061453f8261445f565b915061454b82856144b7565b915061455682614511565b915061456282846144b7565b91508190509392505050565b600061457982614482565b614583818561383b565b935061459381856020860161448d565b61459c81613cf5565b840191505092915050565b600060208201905081810360008301526145c1818461456e565b905092915050565b60006145d482612ecd565b91506145df83612ecd565b92508282026145ed81612ecd565b91508282048414831517614604576146036140b6565b5b5092915050565b600061461682612ecd565b915060008203614629576146286140b6565b5b600182039050919050565b7f537472696e67733a20686578206c656e67746820696e73756666696369656e74600082015250565b600061466a60208361383b565b915061467582614634565b602082019050919050565b600060208201905081810360008301526146998161465d565b905091905056fea26469706673582212207a5f17bdd68563d7092bbd6f8e8257e18edb9650e8961c9999f3df6c43d8cdc664736f6c63430008180033",
  "linkReferences": {},
  "deployedLinkReferences": {}
}