{
  "_format": "hh-sol-artifact-1",
  "contractName": "AttestersStaking",
  "sourceName": "contracts/attestersStaking.sol",
  "abi": [
    {
      "inputs": [],
      "stateMutability": "nonpayable",
      "type": "constructor"
    },
    {
      "anonymous": false,
      "inputs": [
        {
          "indexed": true,
          "internalType": "uint256",
          "name": "emittedAt",
          "type": "uint256"
        },
        {
          "indexed": true,
          "internalType": "address",
          "name": "stakeholder",
          "type": "address"
        }
      ],
      "name": "AttesterDeregistrationIntention",
      "type": "event"
    },
    {
      "anonymous": false,
      "inputs": [
        {
          "indexed": false,
          "internalType": "uint8",
          "name": "version",
          "type": "uint8"
        }
      ],
      "name": "Initialized",
      "type": "event"
    },
    {
      "anonymous": false,
      "inputs": [
        {
          "indexed": true,
          "internalType": "address",
          "name": "attester",
          "type": "address"
        },
        {
          "indexed": false,
          "internalType": "uint256",
          "name": "stake",
          "type": "uint256"
        }
      ],
      "name": "NewAttesterRegistered",
      "type": "event"
    },
    {
      "anonymous": false,
      "inputs": [
        {
          "indexed": true,
          "internalType": "bytes32",
          "name": "role",
          "type": "bytes32"
        },
        {
          "indexed": true,
          "internalType": "bytes32",
          "name": "previousAdminRole",
          "type": "bytes32"
        },
        {
          "indexed": true,
          "internalType": "bytes32",
          "name": "newAdminRole",
          "type": "bytes32"
        }
      ],
      "name": "RoleAdminChanged",
      "type": "event"
    },
    {
      "anonymous": false,
      "inputs": [
        {
          "indexed": true,
          "internalType": "bytes32",
          "name": "role",
          "type": "bytes32"
        },
        {
          "indexed": true,
          "internalType": "address",
          "name": "account",
          "type": "address"
        },
        {
          "indexed": true,
          "internalType": "address",
          "name": "sender",
          "type": "address"
        }
      ],
      "name": "RoleGranted",
      "type": "event"
    },
    {
      "anonymous": false,
      "inputs": [
        {
          "indexed": true,
          "internalType": "bytes32",
          "name": "role",
          "type": "bytes32"
        },
        {
          "indexed": true,
          "internalType": "address",
          "name": "account",
          "type": "address"
        },
        {
          "indexed": true,
          "internalType": "address",
          "name": "sender",
          "type": "address"
        }
      ],
      "name": "RoleRevoked",
      "type": "event"
    },
    {
      "anonymous": false,
      "inputs": [
        {
          "indexed": true,
          "internalType": "address",
          "name": "attester",
          "type": "address"
        },
        {
          "indexed": true,
          "internalType": "uint256",
          "name": "stake",
          "type": "uint256"
        }
      ],
      "name": "StakeNominated",
      "type": "event"
    },
    {
      "stateMutability": "payable",
      "type": "fallback"
    },
    {
      "inputs": [],
      "name": "DEFAULT_ADMIN_ROLE",
      "outputs": [
        {
          "internalType": "bytes32",
          "name": "",
          "type": "bytes32"
        }
      ],
      "stateMutability": "view",
      "type": "function"
    },
    {
      "inputs": [],
      "name": "REBASE_RATE_PER_YEAR",
      "outputs": [
        {
          "internalType": "uint256",
          "name": "",
          "type": "uint256"
        }
      ],
      "stateMutability": "view",
      "type": "function"
    },
    {
      "inputs": [
        {
          "internalType": "address",
          "name": "",
          "type": "address"
        }
      ],
      "name": "attesterNominationsCountMap",
      "outputs": [
        {
          "internalType": "uint256",
          "name": "",
          "type": "uint256"
        }
      ],
      "stateMutability": "view",
      "type": "function"
    },
    {
      "inputs": [
        {
          "internalType": "address",
          "name": "",
          "type": "address"
        }
      ],
      "name": "attesterSelfStake",
      "outputs": [
        {
          "internalType": "uint256",
          "name": "",
          "type": "uint256"
        }
      ],
      "stateMutability": "view",
      "type": "function"
    },
    {
      "inputs": [
        {
          "internalType": "address",
          "name": "",
          "type": "address"
        },
        {
          "internalType": "uint256",
          "name": "",
          "type": "uint256"
        }
      ],
      "name": "attesterToNominatorMap",
      "outputs": [
        {
          "internalType": "address",
          "name": "",
          "type": "address"
        }
      ],
      "stateMutability": "view",
      "type": "function"
    },
    {
      "inputs": [],
      "name": "attestersPortal",
      "outputs": [
        {
          "internalType": "contract AttestersPortal",
          "name": "",
          "type": "address"
        }
      ],
      "stateMutability": "view",
      "type": "function"
    },
    {
      "inputs": [
        {
          "internalType": "address",
          "name": "_attester",
          "type": "address"
        },
        {
          "internalType": "address",
          "name": "_account",
          "type": "address"
        },
        {
          "internalType": "uint256",
          "name": "_amount",
          "type": "uint256"
        }
      ],
      "name": "burn",
      "outputs": [],
      "stateMutability": "nonpayable",
      "type": "function"
    },
    {
      "inputs": [
        {
          "internalType": "address",
          "name": "_account",
          "type": "address"
        }
      ],
      "name": "calculateAllNominatorRebaseReward",
      "outputs": [
        {
          "internalType": "uint256",
          "name": "",
          "type": "uint256"
        }
      ],
      "stateMutability": "view",
      "type": "function"
    },
    {
      "inputs": [
        {
          "internalType": "address",
          "name": "account",
          "type": "address"
        }
      ],
      "name": "calculateAttesterRebaseReward",
      "outputs": [
        {
          "internalType": "uint256",
          "name": "",
          "type": "uint256"
        }
      ],
      "stateMutability": "view",
      "type": "function"
    },
    {
      "inputs": [
        {
          "internalType": "address",
          "name": "_account",
          "type": "address"
        },
        {
          "internalType": "address",
          "name": "_attester",
          "type": "address"
        }
      ],
      "name": "calculateNominatorRebaseReward",
      "outputs": [
        {
          "internalType": "uint256",
          "name": "",
          "type": "uint256"
        }
      ],
      "stateMutability": "view",
      "type": "function"
    },
    {
      "inputs": [],
      "name": "committeeRotationLockPeriod",
      "outputs": [
        {
          "internalType": "uint256",
          "name": "",
          "type": "uint256"
        }
      ],
      "stateMutability": "view",
      "type": "function"
    },
    {
      "inputs": [],
      "name": "currentCommitteeStake",
      "outputs": [
        {
          "internalType": "uint256",
          "name": "",
          "type": "uint256"
        }
      ],
      "stateMutability": "view",
      "type": "function"
    },
    {
      "inputs": [],
      "name": "deregisterAttester",
      "outputs": [],
      "stateMutability": "nonpayable",
      "type": "function"
    },
    {
      "inputs": [],
      "name": "disableInitializers",
      "outputs": [],
      "stateMutability": "nonpayable",
      "type": "function"
    },
    {
      "inputs": [
        {
          "internalType": "address",
          "name": "",
          "type": "address"
        }
      ],
      "name": "entryTimestamp",
      "outputs": [
        {
          "internalType": "uint256",
          "name": "",
          "type": "uint256"
        }
      ],
      "stateMutability": "view",
      "type": "function"
    },
    {
      "inputs": [
        {
          "internalType": "address",
          "name": "",
          "type": "address"
        }
      ],
      "name": "exitIntentions",
      "outputs": [
        {
          "internalType": "uint256",
          "name": "",
          "type": "uint256"
        }
      ],
      "stateMutability": "view",
      "type": "function"
    },
    {
      "inputs": [],
      "name": "faultProofsClaimer",
      "outputs": [
        {
          "internalType": "contract FaultProof",
          "name": "",
          "type": "address"
        }
      ],
      "stateMutability": "view",
      "type": "function"
    },
    {
      "inputs": [
        {
          "internalType": "address",
          "name": "_attester",
          "type": "address"
        }
      ],
      "name": "getAttesterSupply",
      "outputs": [
        {
          "internalType": "uint256",
          "name": "",
          "type": "uint256"
        }
      ],
      "stateMutability": "view",
      "type": "function"
    },
    {
      "inputs": [
        {
          "internalType": "address",
          "name": "_attester",
          "type": "address"
        }
      ],
      "name": "getLPToken",
      "outputs": [
        {
          "internalType": "contract LPToken",
          "name": "",
          "type": "address"
        }
      ],
      "stateMutability": "view",
      "type": "function"
    },
    {
      "inputs": [
        {
          "internalType": "address",
          "name": "_attester",
          "type": "address"
        }
      ],
      "name": "getNominatorsOf",
      "outputs": [
        {
          "internalType": "address[]",
          "name": "",
          "type": "address[]"
        }
      ],
      "stateMutability": "view",
      "type": "function"
    },
    {
      "inputs": [
        {
          "internalType": "bytes32",
          "name": "role",
          "type": "bytes32"
        }
      ],
      "name": "getRoleAdmin",
      "outputs": [
        {
          "internalType": "bytes32",
          "name": "",
          "type": "bytes32"
        }
      ],
      "stateMutability": "view",
      "type": "function"
    },
    {
      "inputs": [
        {
          "internalType": "address",
          "name": "_attester",
          "type": "address"
        },
        {
          "internalType": "address",
          "name": "_account",
          "type": "address"
        }
      ],
      "name": "getStakingBalanceOf",
      "outputs": [
        {
          "internalType": "uint256",
          "name": "",
          "type": "uint256"
        }
      ],
      "stateMutability": "view",
      "type": "function"
    },
    {
      "inputs": [
        {
          "internalType": "bytes32",
          "name": "role",
          "type": "bytes32"
        },
        {
          "internalType": "address",
          "name": "account",
          "type": "address"
        }
      ],
      "name": "grantRole",
      "outputs": [],
      "stateMutability": "nonpayable",
      "type": "function"
    },
    {
      "inputs": [
        {
          "internalType": "bytes32",
          "name": "role",
          "type": "bytes32"
        },
        {
          "internalType": "address",
          "name": "account",
          "type": "address"
        }
      ],
      "name": "hasRole",
      "outputs": [
        {
          "internalType": "bool",
          "name": "",
          "type": "bool"
        }
      ],
      "stateMutability": "view",
      "type": "function"
    },
    {
      "inputs": [
        {
          "internalType": "address",
          "name": "_owner",
          "type": "address"
        }
      ],
      "name": "initialize",
      "outputs": [],
      "stateMutability": "nonpayable",
      "type": "function"
    },
    {
      "inputs": [],
      "name": "isNominationEnabled",
      "outputs": [
        {
          "internalType": "bool",
          "name": "",
          "type": "bool"
        }
      ],
      "stateMutability": "view",
      "type": "function"
    },
    {
      "inputs": [],
      "name": "isRegistrationEnabled",
      "outputs": [
        {
          "internalType": "bool",
          "name": "",
          "type": "bool"
        }
      ],
      "stateMutability": "view",
      "type": "function"
    },
    {
      "inputs": [
        {
          "internalType": "address",
          "name": "_attester",
          "type": "address"
        }
      ],
      "name": "isStakeableAttester",
      "outputs": [
        {
          "internalType": "bool",
          "name": "",
          "type": "bool"
        }
      ],
      "stateMutability": "view",
      "type": "function"
    },
    {
      "inputs": [],
      "name": "lastCommitteeRotationTimestamp",
      "outputs": [
        {
          "internalType": "uint256",
          "name": "",
          "type": "uint256"
        }
      ],
      "stateMutability": "view",
      "type": "function"
    },
    {
      "inputs": [],
      "name": "lpTokenInitializer",
      "outputs": [
        {
          "internalType": "contract LPTokenInitializer",
          "name": "",
          "type": "address"
        }
      ],
      "stateMutability": "view",
      "type": "function"
    },
    {
      "inputs": [
        {
          "internalType": "address",
          "name": "",
          "type": "address"
        }
      ],
      "name": "lpTokens",
      "outputs": [
        {
          "internalType": "contract LPToken",
          "name": "",
          "type": "address"
        }
      ],
      "stateMutability": "view",
      "type": "function"
    },
    {
      "inputs": [],
      "name": "minAttestationStake",
      "outputs": [
        {
          "internalType": "uint256",
          "name": "",
          "type": "uint256"
        }
      ],
      "stateMutability": "view",
      "type": "function"
    },
    {
      "inputs": [],
      "name": "minNominationStake",
      "outputs": [
        {
          "internalType": "uint256",
          "name": "",
          "type": "uint256"
        }
      ],
      "stateMutability": "view",
      "type": "function"
    },
    {
      "inputs": [],
      "name": "minStakeEmitInterval",
      "outputs": [
        {
          "internalType": "uint256",
          "name": "",
          "type": "uint256"
        }
      ],
      "stateMutability": "view",
      "type": "function"
    },
    {
      "inputs": [
        {
          "internalType": "address",
          "name": "attester",
          "type": "address"
        },
        {
          "internalType": "uint256",
          "name": "stake",
          "type": "uint256"
        }
      ],
      "name": "nominateStake",
      "outputs": [],
      "stateMutability": "payable",
      "type": "function"
    },
    {
      "inputs": [
        {
          "internalType": "bytes32",
          "name": "",
          "type": "bytes32"
        }
      ],
      "name": "nominationEntryTimestamp",
      "outputs": [
        {
          "internalType": "uint256",
          "name": "",
          "type": "uint256"
        }
      ],
      "stateMutability": "view",
      "type": "function"
    },
    {
      "inputs": [
        {
          "internalType": "bytes32",
          "name": "",
          "type": "bytes32"
        }
      ],
      "name": "nominationsMap",
      "outputs": [
        {
          "internalType": "uint256",
          "name": "",
          "type": "uint256"
        }
      ],
      "stateMutability": "view",
      "type": "function"
    },
    {
      "inputs": [
        {
          "internalType": "address",
          "name": "",
          "type": "address"
        },
        {
          "internalType": "uint256",
          "name": "",
          "type": "uint256"
        }
      ],
      "name": "nominatorToAttesterMap",
      "outputs": [
        {
          "internalType": "address",
          "name": "",
          "type": "address"
        }
      ],
      "stateMutability": "view",
      "type": "function"
    },
    {
      "inputs": [
        {
          "internalType": "uint256",
          "name": "",
          "type": "uint256"
        }
      ],
      "name": "nominatorsMap",
      "outputs": [
        {
          "internalType": "address",
          "name": "",
          "type": "address"
        }
      ],
      "stateMutability": "view",
      "type": "function"
    },
    {
      "inputs": [],
      "name": "rebaseAttester",
      "outputs": [],
      "stateMutability": "nonpayable",
      "type": "function"
    },
    {
      "inputs": [],
      "name": "rebaseNominatorAll",
      "outputs": [],
      "stateMutability": "nonpayable",
      "type": "function"
    },
    {
      "inputs": [
        {
          "internalType": "address",
          "name": "nominator",
          "type": "address"
        },
        {
          "internalType": "address",
          "name": "attester",
          "type": "address"
        }
      ],
      "name": "rebaseNominatorForAttester",
      "outputs": [],
      "stateMutability": "nonpayable",
      "type": "function"
    },
    {
      "inputs": [
        {
          "internalType": "string",
          "name": "_attesterLPTokenSymbol",
          "type": "string"
        },
        {
          "internalType": "uint256",
          "name": "commissionPercent",
          "type": "uint256"
        }
      ],
      "name": "registerAttester",
      "outputs": [],
      "stateMutability": "payable",
      "type": "function"
    },
    {
      "inputs": [
        {
          "internalType": "bytes32",
          "name": "role",
          "type": "bytes32"
        },
        {
          "internalType": "address",
          "name": "account",
          "type": "address"
        }
      ],
      "name": "renounceRole",
      "outputs": [],
      "stateMutability": "nonpayable",
      "type": "function"
    },
    {
      "inputs": [
        {
          "internalType": "bytes32",
          "name": "role",
          "type": "bytes32"
        },
        {
          "internalType": "address",
          "name": "account",
          "type": "address"
        }
      ],
      "name": "revokeRole",
      "outputs": [],
      "stateMutability": "nonpayable",
      "type": "function"
    },
    {
      "inputs": [
        {
          "internalType": "bool",
          "name": "value",
          "type": "bool"
        }
      ],
      "name": "setAttesterRegistrationFlag",
      "outputs": [],
      "stateMutability": "nonpayable",
      "type": "function"
    },
    {
      "inputs": [
        {
          "internalType": "address payable",
          "name": "_attestersPortal",
          "type": "address"
        }
      ],
      "name": "setAttestersPortal",
      "outputs": [],
      "stateMutability": "nonpayable",
      "type": "function"
    },
    {
      "inputs": [
        {
          "internalType": "address payable",
          "name": "_faultProofsClaimer",
          "type": "address"
        }
      ],
      "name": "setFaultProof",
      "outputs": [],
      "stateMutability": "nonpayable",
      "type": "function"
    },
    {
      "inputs": [
        {
          "internalType": "address payable",
          "name": "_lpTokenInitializer",
          "type": "address"
        }
      ],
      "name": "setLPTokenInitializer",
      "outputs": [],
      "stateMutability": "nonpayable",
      "type": "function"
    },
    {
      "inputs": [
        {
          "internalType": "uint256",
          "name": "newMinStake",
          "type": "uint256"
        }
      ],
      "name": "setMinAttestationStake",
      "outputs": [],
      "stateMutability": "nonpayable",
      "type": "function"
    },
    {
      "inputs": [
        {
          "internalType": "uint256",
          "name": "newMinStake",
          "type": "uint256"
        }
      ],
      "name": "setMinNominationStake",
      "outputs": [],
      "stateMutability": "nonpayable",
      "type": "function"
    },
    {
      "inputs": [
        {
          "internalType": "bool",
          "name": "value",
          "type": "bool"
        }
      ],
      "name": "setNominationFlag",
      "outputs": [],
      "stateMutability": "nonpayable",
      "type": "function"
    },
    {
      "inputs": [
        {
          "internalType": "bytes32",
          "name": "_version",
          "type": "bytes32"
        }
      ],
      "name": "setVersion",
      "outputs": [],
      "stateMutability": "nonpayable",
      "type": "function"
    },
    {
      "inputs": [],
      "name": "signalExitAttesterIntention",
      "outputs": [],
      "stateMutability": "nonpayable",
      "type": "function"
    },
    {
      "inputs": [],
      "name": "stakeableAttesters",
      "outputs": [
        {
          "internalType": "uint256",
          "name": "",
          "type": "uint256"
        }
      ],
      "stateMutability": "view",
      "type": "function"
    },
    {
      "inputs": [
        {
          "internalType": "bytes4",
          "name": "interfaceId",
          "type": "bytes4"
        }
      ],
      "name": "supportsInterface",
      "outputs": [
        {
          "internalType": "bool",
          "name": "",
          "type": "bool"
        }
      ],
      "stateMutability": "view",
      "type": "function"
    },
    {
      "inputs": [],
      "name": "totalAttestedStake",
      "outputs": [
        {
          "internalType": "uint256",
          "name": "",
          "type": "uint256"
        }
      ],
      "stateMutability": "view",
      "type": "function"
    },
    {
      "inputs": [],
      "name": "totalNominators",
      "outputs": [
        {
          "internalType": "uint256",
          "name": "",
          "type": "uint256"
        }
      ],
      "stateMutability": "view",
      "type": "function"
    },
    {
      "inputs": [],
      "name": "unNominateAll",
      "outputs": [],
      "stateMutability": "nonpayable",
      "type": "function"
    },
    {
      "inputs": [
        {
          "internalType": "address",
          "name": "attester",
          "type": "address"
        }
      ],
      "name": "unNominateAttester",
      "outputs": [],
      "stateMutability": "nonpayable",
      "type": "function"
    },
    {
      "inputs": [],
      "name": "version",
      "outputs": [
        {
          "internalType": "bytes32",
          "name": "",
          "type": "bytes32"
        }
      ],
      "stateMutability": "view",
      "type": "function"
    },
    {
      "inputs": [
        {
          "internalType": "uint256",
          "name": "_amount",
          "type": "uint256"
        },
        {
          "internalType": "address",
          "name": "_beneficiary",
          "type": "address"
        }
      ],
      "name": "withdraw",
      "outputs": [],
      "stateMutability": "nonpayable",
      "type": "function"
    },
    {
      "inputs": [],
      "name": "withdrawalLockPeriod",
      "outputs": [
        {
          "internalType": "uint256",
          "name": "",
          "type": "uint256"
        }
      ],
      "stateMutability": "view",
      "type": "function"
    },
    {
      "stateMutability": "payable",
      "type": "receive"
    }
  ],
  "bytecode": "0x60806040523480156200001157600080fd5b50620000226200002860201b60201c565b620001d2565b600060019054906101000a900460ff16156200007b576040517f08c379a0000000000000000000000000000000000000000000000000000000008152600401620000729062000175565b60405180910390fd5b60ff801660008054906101000a900460ff1660ff1614620000ec5760ff6000806101000a81548160ff021916908360ff1602179055507f7f26b83ff96e1f2b6a682f133852f6798a09c465da95921460cefb384740249860ff604051620000e39190620001b5565b60405180910390a15b565b600082825260208201905092915050565b7f496e697469616c697a61626c653a20636f6e747261637420697320696e69746960008201527f616c697a696e6700000000000000000000000000000000000000000000000000602082015250565b60006200015d602783620000ee565b91506200016a82620000ff565b604082019050919050565b6000602082019050818103600083015262000190816200014e565b9050919050565b600060ff82169050919050565b620001af8162000197565b82525050565b6000602082019050620001cc6000830184620001a4565b92915050565b615dbf80620001e26000396000f3fe6080604052600436106103bb5760003560e01c8063852ace60116101f2578063ca5f81b51161010d578063e09e8c6f116100a0578063f1e2a0b41161006f578063f1e2a0b414610e4f578063f6b911bc14610e8c578063fa086c0614610eb5578063fa59c83714610ef2576103c2565b8063e09e8c6f14610d6f578063e5592db614610d98578063eb9c491514610dd5578063ed6a7e5a14610e12576103c2565b8063d39d6968116100dc578063d39d696814610cb3578063d547741f14610cde578063d7f14dd714610d07578063de1181b014610d44576103c2565b8063ca5f81b514610bfb578063cff0018714610c24578063d03685cb14610c61578063d0c06b6814610c8a576103c2565b8063a7afe60711610185578063c075f07a11610154578063c075f07a14610b3f578063c0df904314610b6a578063c4d66de814610ba7578063c73eee4d14610bd0576103c2565b8063a7afe60714610a83578063b17b658d14610aae578063b4782cf514610aeb578063b530b3f814610b28576103c2565b80639cab0fa9116101c15780639cab0fa9146109c5578063a087d17c14610a02578063a217fddf14610a2d578063a4adfb0e14610a58576103c2565b8063852ace60146108f5578063867768e91461092057806391d148541461094b5780639c3182a114610988576103c2565b80633335f482116102e25780634cd5975c1161027557806359420e9e1161024457806359420e9e1461084d5780635bebb924146108765780637ef251b7146108a15780637f2b893c146108cc576103c2565b80634cd5975c1461079e5780634fc99ed6146107ba57806354fd4d50146107f7578063562a935014610822576103c2565b80633b6cb10e116102b15780633b6cb10e1461070c57806341f640f6146107355780634471a0c11461075e57806346760f2514610775576103c2565b80633335f4821461066457806336568abe1461067b57806337867a03146106a45780633aac5d3d146106e1576103c2565b806316d6d9b21161035a578063245425fc11610329578063245425fc146105d0578063248a9ca3146105e75780632f2ff15d1461062457806331f449001461064d576103c2565b806316d6d9b2146105145780631e88e5971461053f5780631fdfe8151461057c578063240551c1146105a7576103c2565b806307f9ccd11161039657806307f9ccd1146104675780630858998e1461047e57806313689cb8146104bb57806314275e15146104d7576103c2565b8062f714ce146103c457806301ffc9a7146103ed578063068f63e11461042a576103c2565b366103c257005b005b3480156103d057600080fd5b506103eb60048036038101906103e691906144cd565b610f1d565b005b3480156103f957600080fd5b50610414600480360381019061040f9190614565565b61103b565b60405161042191906145ad565b60405180910390f35b34801561043657600080fd5b50610451600480360381019061044c91906145c8565b6110b5565b60405161045e9190614604565b60405180910390f35b34801561047357600080fd5b5061047c6110cd565b005b34801561048a57600080fd5b506104a560048036038101906104a091906145c8565b6114cd565b6040516104b29190614604565b60405180910390f35b6104d560048036038101906104d0919061461f565b6114e5565b005b3480156104e357600080fd5b506104fe60048036038101906104f9919061461f565b6119e6565b60405161050b919061466e565b60405180910390f35b34801561052057600080fd5b50610529611a34565b6040516105369190614604565b60405180910390f35b34801561054b57600080fd5b50610566600480360381019061056191906146bf565b611a3a565b6040516105739190614604565b60405180910390f35b34801561058857600080fd5b50610591611a52565b60405161059e91906145ad565b60405180910390f35b3480156105b357600080fd5b506105ce60048036038101906105c991906145c8565b611a65565b005b3480156105dc57600080fd5b506105e5611a72565b005b3480156105f357600080fd5b5061060e600480360381019061060991906146bf565b611b52565b60405161061b91906146fb565b60405180910390f35b34801561063057600080fd5b5061064b60048036038101906106469190614716565b611b72565b005b34801561065957600080fd5b50610662611b93565b005b34801561067057600080fd5b50610679611be9565b005b34801561068757600080fd5b506106a2600480360381019061069d9190614716565b611dad565b005b3480156106b057600080fd5b506106cb60048036038101906106c691906145c8565b611e30565b6040516106d89190614604565b60405180910390f35b3480156106ed57600080fd5b506106f6611f37565b60405161070391906147b5565b60405180910390f35b34801561071857600080fd5b50610733600480360381019061072e91906147d0565b611f5d565b005b34801561074157600080fd5b5061075c600480360381019061075791906147d0565b611fb3565b005b34801561076a57600080fd5b50610773612009565b005b34801561078157600080fd5b5061079c6004803603810190610797919061483b565b6120f5565b005b6107b860048036038101906107b391906149ae565b612185565b005b3480156107c657600080fd5b506107e160048036038101906107dc91906145c8565b6125d8565b6040516107ee9190614a3d565b60405180910390f35b34801561080357600080fd5b5061080c612641565b60405161081991906146fb565b60405180910390f35b34801561082e57600080fd5b50610837612647565b6040516108449190614a79565b60405180910390f35b34801561085957600080fd5b50610874600480360381019061086f9190614ac0565b61266d565b005b34801561088257600080fd5b5061088b6126d6565b6040516108989190614604565b60405180910390f35b3480156108ad57600080fd5b506108b66126dc565b6040516108c39190614604565b60405180910390f35b3480156108d857600080fd5b506108f360048036038101906108ee919061483b565b6126e2565b005b34801561090157600080fd5b5061090a612772565b6040516109179190614604565b60405180910390f35b34801561092c57600080fd5b50610935612778565b6040516109429190614604565b60405180910390f35b34801561095757600080fd5b50610972600480360381019061096d9190614716565b61277e565b60405161097f91906145ad565b60405180910390f35b34801561099457600080fd5b506109af60048036038101906109aa91906145c8565b6127e9565b6040516109bc91906145ad565b60405180910390f35b3480156109d157600080fd5b506109ec60048036038101906109e7919061461f565b61282a565b6040516109f9919061466e565b60405180910390f35b348015610a0e57600080fd5b50610a17612878565b604051610a2491906145ad565b60405180910390f35b348015610a3957600080fd5b50610a4261288b565b604051610a4f91906146fb565b60405180910390f35b348015610a6457600080fd5b50610a6d612892565b604051610a7a9190614604565b60405180910390f35b348015610a8f57600080fd5b50610a98612898565b604051610aa59190614604565b60405180910390f35b348015610aba57600080fd5b50610ad56004803603810190610ad091906145c8565b61289e565b604051610ae29190614a3d565b60405180910390f35b348015610af757600080fd5b50610b126004803603810190610b0d9190614aed565b6128d1565b604051610b1f9190614604565b60405180910390f35b348015610b3457600080fd5b50610b3d612974565b005b348015610b4b57600080fd5b50610b54612ac8565b604051610b619190614604565b60405180910390f35b348015610b7657600080fd5b50610b916004803603810190610b8c91906145c8565b612acd565b604051610b9e9190614604565b60405180910390f35b348015610bb357600080fd5b50610bce6004803603810190610bc991906145c8565b612b64565b005b348015610bdc57600080fd5b50610be5612d68565b604051610bf29190614604565b60405180910390f35b348015610c0757600080fd5b50610c226004803603810190610c1d91906146bf565b612d6e565b005b348015610c3057600080fd5b50610c4b6004803603810190610c4691906146bf565b612dc4565b604051610c589190614604565b60405180910390f35b348015610c6d57600080fd5b50610c886004803603810190610c83919061483b565b612ddc565b005b348015610c9657600080fd5b50610cb16004803603810190610cac9190614aed565b612e6c565b005b348015610cbf57600080fd5b50610cc861302f565b604051610cd59190614604565b60405180910390f35b348015610cea57600080fd5b50610d056004803603810190610d009190614716565b613035565b005b348015610d1357600080fd5b50610d2e6004803603810190610d299190614aed565b613056565b604051610d3b9190614604565b60405180910390f35b348015610d5057600080fd5b50610d5961313b565b604051610d669190614604565b60405180910390f35b348015610d7b57600080fd5b50610d966004803603810190610d919190614ac0565b613141565b005b348015610da457600080fd5b50610dbf6004803603810190610dba91906145c8565b6131aa565b604051610dcc9190614604565b60405180910390f35b348015610de157600080fd5b50610dfc6004803603810190610df791906147d0565b613292565b604051610e09919061466e565b60405180910390f35b348015610e1e57600080fd5b50610e396004803603810190610e3491906145c8565b6132c5565b604051610e469190614604565b60405180910390f35b348015610e5b57600080fd5b50610e766004803603810190610e7191906145c8565b6132dd565b604051610e839190614604565b60405180910390f35b348015610e9857600080fd5b50610eb36004803603810190610eae9190614b2d565b6132f5565b005b348015610ec157600080fd5b50610edc6004803603810190610ed791906145c8565b61340e565b604051610ee99190614c3e565b60405180910390f35b348015610efe57600080fd5b50610f076134db565b604051610f149190614c81565b60405180910390f35b60ab60009054906101000a900473ffffffffffffffffffffffffffffffffffffffff1673ffffffffffffffffffffffffffffffffffffffff163373ffffffffffffffffffffffffffffffffffffffff1614610fad576040517f08c379a0000000000000000000000000000000000000000000000000000000008152600401610fa490614d1f565b60405180910390fd5b47821115610ff0576040517f08c379a0000000000000000000000000000000000000000000000000000000008152600401610fe790614d8b565b60405180910390fd5b8073ffffffffffffffffffffffffffffffffffffffff166108fc839081150290604051600060405180830381858888f19350505050158015611036573d6000803e3d6000fd5b505050565b60007f7965db0b000000000000000000000000000000000000000000000000000000007bffffffffffffffffffffffffffffffffffffffffffffffffffffffff1916827bffffffffffffffffffffffffffffffffffffffffffffffffffffffff191614806110ae57506110ad82613501565b5b9050919050565b60a06020528060005260406000206000915090505481565b6110d6336127e9565b611115576040517f08c379a000000000000000000000000000000000000000000000000000000000815260040161110c90614df7565b60405180910390fd5b600060a060003373ffffffffffffffffffffffffffffffffffffffff1673ffffffffffffffffffffffffffffffffffffffff1681526020019081526020016000205411611197576040517f08c379a000000000000000000000000000000000000000000000000000000000815260040161118e90614e63565b60405180910390fd5b60a45460a060003373ffffffffffffffffffffffffffffffffffffffff1673ffffffffffffffffffffffffffffffffffffffff16815260200190815260200160002054426111e59190614eb2565b1015611226576040517f08c379a000000000000000000000000000000000000000000000000000000000815260040161121d90614f32565b60405180910390fd5b60005b609d60003373ffffffffffffffffffffffffffffffffffffffff1673ffffffffffffffffffffffffffffffffffffffff16815260200190815260200160002080549050811015611303576112f8609d60003373ffffffffffffffffffffffffffffffffffffffff1673ffffffffffffffffffffffffffffffffffffffff16815260200190815260200160002082815481106112c7576112c6614f52565b5b9060005260206000200160009054906101000a900473ffffffffffffffffffffffffffffffffffffffff163361356b565b806001019050611229565b50600061131033336128d1565b90506000609b60003373ffffffffffffffffffffffffffffffffffffffff1673ffffffffffffffffffffffffffffffffffffffff1681526020019081526020016000208190555060016098600082825461136a9190614eb2565b9250508190555060ac60003373ffffffffffffffffffffffffffffffffffffffff1673ffffffffffffffffffffffffffffffffffffffff16815260200190815260200160002060009054906101000a900473ffffffffffffffffffffffffffffffffffffffff1673ffffffffffffffffffffffffffffffffffffffff16639dc29fac33836040518363ffffffff1660e01b815260040161140b929190614f81565b600060405180830381600087803b15801561142557600080fd5b505af1158015611439573d6000803e3d6000fd5b5050505060aa60009054906101000a900473ffffffffffffffffffffffffffffffffffffffff1673ffffffffffffffffffffffffffffffffffffffff1663cc78fef1336040518263ffffffff1660e01b8152600401611498919061466e565b600060405180830381600087803b1580156114b257600080fd5b505af11580156114c6573d6000803e3d6000fd5b5050505050565b609b6020528060005260406000206000915090505481565b803414611527576040517f08c379a000000000000000000000000000000000000000000000000000000000815260040161151e90614ff6565b60405180910390fd5b609760009054906101000a900460ff16611576576040517f08c379a000000000000000000000000000000000000000000000000000000000815260040161156d90615062565b60405180910390fd5b60a2548110156115bb576040517f08c379a00000000000000000000000000000000000000000000000000000000081526004016115b2906150ce565b60405180910390fd5b6115c4826127e9565b611603576040517f08c379a00000000000000000000000000000000000000000000000000000000081526004016115fa90614df7565b60405180910390fd5b6000609c60008473ffffffffffffffffffffffffffffffffffffffff1673ffffffffffffffffffffffffffffffffffffffff1681526020019081526020016000205414611685576040517f08c379a000000000000000000000000000000000000000000000000000000000815260040161167c9061513a565b60405180910390fd5b6000338360405160200161169a9291906151a2565b604051602081830303815290604052805190602001209050600060ae60008381526020019081526020016000205414611708576040517f08c379a00000000000000000000000000000000000000000000000000000000081526004016116ff9061521a565b60405180910390fd5b60016099600082825461171b919061523a565b92505081905550609d60008473ffffffffffffffffffffffffffffffffffffffff1673ffffffffffffffffffffffffffffffffffffffff168152602001908152602001600020339080600181540180825580915050600190039060005260206000200160009091909190916101000a81548173ffffffffffffffffffffffffffffffffffffffff021916908373ffffffffffffffffffffffffffffffffffffffff160217905550609e60003373ffffffffffffffffffffffffffffffffffffffff1673ffffffffffffffffffffffffffffffffffffffff168152602001908152602001600020839080600181540180825580915050600190039060005260206000200160009091909190916101000a81548173ffffffffffffffffffffffffffffffffffffffff021916908373ffffffffffffffffffffffffffffffffffffffff1602179055506001609c60008573ffffffffffffffffffffffffffffffffffffffff1673ffffffffffffffffffffffffffffffffffffffff16815260200190815260200160002060008282546118b2919061523a565b925050819055504260ae60008381526020019081526020016000208190555060ac60008473ffffffffffffffffffffffffffffffffffffffff1673ffffffffffffffffffffffffffffffffffffffff16815260200190815260200160002060009054906101000a900473ffffffffffffffffffffffffffffffffffffffff1673ffffffffffffffffffffffffffffffffffffffff166340c10f1933846040518363ffffffff1660e01b815260040161196b929190614f81565b600060405180830381600087803b15801561198557600080fd5b505af1158015611999573d6000803e3d6000fd5b50505050818373ffffffffffffffffffffffffffffffffffffffff167f803fe3a743fe5e601977394256dd29f0491dbb50d216dfeac59880434d4ed98960405160405180910390a3505050565b609e6020528160005260406000208181548110611a0257600080fd5b906000526020600020016000915091509054906101000a900473ffffffffffffffffffffffffffffffffffffffff1681565b60a85481565b60ae6020528060005260406000206000915090505481565b609760019054906101000a900460ff1681565b611a6f338261356b565b50565b60005b609e60003373ffffffffffffffffffffffffffffffffffffffff1673ffffffffffffffffffffffffffffffffffffffff16815260200190815260200160002080549050811015611b4f57611b4433609e60003373ffffffffffffffffffffffffffffffffffffffff1673ffffffffffffffffffffffffffffffffffffffff1681526020019081526020016000208381548110611b1457611b13614f52565b5b9060005260206000200160009054906101000a900473ffffffffffffffffffffffffffffffffffffffff1661356b565b806001019050611a75565b50565b600060656000838152602001908152602001600020600101549050919050565b611b7b82611b52565b611b8481613e24565b611b8e8383613e38565b505050565b611ba06000801b3361277e565b611bdf576040517f08c379a0000000000000000000000000000000000000000000000000000000008152600401611bd6906152e0565b60405180910390fd5b611be7613f19565b565b611bf2336127e9565b611c31576040517f08c379a0000000000000000000000000000000000000000000000000000000008152600401611c289061534c565b60405180910390fd5b6000611c3c336131aa565b905060008111611c81576040517f08c379a0000000000000000000000000000000000000000000000000000000008152600401611c78906153b8565b60405180910390fd5b60ac60003373ffffffffffffffffffffffffffffffffffffffff1673ffffffffffffffffffffffffffffffffffffffff16815260200190815260200160002060009054906101000a900473ffffffffffffffffffffffffffffffffffffffff1673ffffffffffffffffffffffffffffffffffffffff166340c10f1933836040518363ffffffff1660e01b8152600401611d1b929190614f81565b600060405180830381600087803b158015611d3557600080fd5b505af1158015611d49573d6000803e3d6000fd5b505050504260ad60003373ffffffffffffffffffffffffffffffffffffffff1673ffffffffffffffffffffffffffffffffffffffff168152602001908152602001600020819055508060a36000828254611da3919061523a565b9250508190555050565b611db5613fd9565b73ffffffffffffffffffffffffffffffffffffffff168173ffffffffffffffffffffffffffffffffffffffff1614611e22576040517f08c379a0000000000000000000000000000000000000000000000000000000008152600401611e199061544a565b60405180910390fd5b611e2c8282613fe1565b5050565b6000806000905060005b609d60008573ffffffffffffffffffffffffffffffffffffffff1673ffffffffffffffffffffffffffffffffffffffff16815260200190815260200160002080549050811015611f2d576000609d60008673ffffffffffffffffffffffffffffffffffffffff1673ffffffffffffffffffffffffffffffffffffffff1681526020019081526020016000208281548110611ed757611ed6614f52565b5b9060005260206000200160009054906101000a900473ffffffffffffffffffffffffffffffffffffffff1690506000611f108287613056565b90508084611f1e919061523a565b93505050806001019050611e3a565b5080915050919050565b60aa60009054906101000a900473ffffffffffffffffffffffffffffffffffffffff1681565b611f6a6000801b3361277e565b611fa9576040517f08c379a0000000000000000000000000000000000000000000000000000000008152600401611fa0906152e0565b60405180910390fd5b8060a28190555050565b611fc06000801b3361277e565b611fff576040517f08c379a0000000000000000000000000000000000000000000000000000000008152600401611ff6906152e0565b60405180910390fd5b8060a18190555050565b600033905060005b609d60008373ffffffffffffffffffffffffffffffffffffffff1673ffffffffffffffffffffffffffffffffffffffff168152602001908152602001600020805490508110156120f1576000609d60008473ffffffffffffffffffffffffffffffffffffffff1673ffffffffffffffffffffffffffffffffffffffff16815260200190815260200160002082815481106120ae576120ad614f52565b5b9060005260206000200160009054906101000a900473ffffffffffffffffffffffffffffffffffffffff1690506120e58382612e6c565b50806001019050612011565b5050565b6121026000801b3361277e565b612141576040517f08c379a0000000000000000000000000000000000000000000000000000000008152600401612138906152e0565b60405180910390fd5b8060a960006101000a81548173ffffffffffffffffffffffffffffffffffffffff021916908373ffffffffffffffffffffffffffffffffffffffff16021790555050565b600034905060648211156121ce576040517f08c379a00000000000000000000000000000000000000000000000000000000081526004016121c5906154b6565b60405180910390fd5b609760019054906101000a900460ff1661221d576040517f08c379a000000000000000000000000000000000000000000000000000000000815260040161221490615522565b60405180910390fd5b60a154811015612262576040517f08c379a00000000000000000000000000000000000000000000000000000000081526004016122599061558e565b60405180910390fd5b6000151561226f336127e9565b1515146122b1576040517f08c379a00000000000000000000000000000000000000000000000000000000081526004016122a8906155fa565b60405180910390fd5b6001609860008282546122c4919061523a565b9250508190555060aa60009054906101000a900473ffffffffffffffffffffffffffffffffffffffff1673ffffffffffffffffffffffffffffffffffffffff166302bef847336040518263ffffffff1660e01b8152600401612326919061466e565b600060405180830381600087803b15801561234057600080fd5b505af1158015612354573d6000803e3d6000fd5b5050505060a960009054906101000a900473ffffffffffffffffffffffffffffffffffffffff1673ffffffffffffffffffffffffffffffffffffffff16634cd88b7684856040518363ffffffff1660e01b81526004016123b5929190615688565b6020604051808303816000875af11580156123d4573d6000803e3d6000fd5b505050506040513d601f19601f820116820180604052508101906123f891906156fd565b60ac60003373ffffffffffffffffffffffffffffffffffffffff1673ffffffffffffffffffffffffffffffffffffffff16815260200190815260200160002060006101000a81548173ffffffffffffffffffffffffffffffffffffffff021916908373ffffffffffffffffffffffffffffffffffffffff16021790555060ac60003373ffffffffffffffffffffffffffffffffffffffff1673ffffffffffffffffffffffffffffffffffffffff16815260200190815260200160002060009054906101000a900473ffffffffffffffffffffffffffffffffffffffff1673ffffffffffffffffffffffffffffffffffffffff166340c10f1933836040518363ffffffff1660e01b815260040161250f929190614f81565b600060405180830381600087803b15801561252957600080fd5b505af115801561253d573d6000803e3d6000fd5b505050504260ad60003373ffffffffffffffffffffffffffffffffffffffff1673ffffffffffffffffffffffffffffffffffffffff168152602001908152602001600020819055503373ffffffffffffffffffffffffffffffffffffffff167f26feae392bf1748e2172669be9bcdf4eb3515188476e9aadc573b5bf8eff5773826040516125cb9190614604565b60405180910390a2505050565b600060ac60008373ffffffffffffffffffffffffffffffffffffffff1673ffffffffffffffffffffffffffffffffffffffff16815260200190815260200160002060009054906101000a900473ffffffffffffffffffffffffffffffffffffffff169050919050565b60af5481565b60a960009054906101000a900473ffffffffffffffffffffffffffffffffffffffff1681565b61267a6000801b3361277e565b6126b9576040517f08c379a00000000000000000000000000000000000000000000000000000000081526004016126b0906152e0565b60405180910390fd5b80609760016101000a81548160ff02191690831515021790555050565b60a65481565b60a55481565b6126ef6000801b3361277e565b61272e576040517f08c379a0000000000000000000000000000000000000000000000000000000008152600401612725906152e0565b60405180910390fd5b8060ab60006101000a81548173ffffffffffffffffffffffffffffffffffffffff021916908373ffffffffffffffffffffffffffffffffffffffff16021790555050565b60a45481565b60a15481565b60006065600084815260200190815260200160002060000160008373ffffffffffffffffffffffffffffffffffffffff1673ffffffffffffffffffffffffffffffffffffffff16815260200190815260200160002060009054906101000a900460ff16905092915050565b60008073ffffffffffffffffffffffffffffffffffffffff1661280b836125d8565b73ffffffffffffffffffffffffffffffffffffffff1614159050919050565b609d602052816000526040600020818154811061284657600080fd5b906000526020600020016000915091509054906101000a900473ffffffffffffffffffffffffffffffffffffffff1681565b609760009054906101000a900460ff1681565b6000801b81565b60985481565b60a75481565b60ac6020528060005260406000206000915054906101000a900473ffffffffffffffffffffffffffffffffffffffff1681565b60006128dc836127e9565b6128e9576000905061296e565b6128f2836125d8565b73ffffffffffffffffffffffffffffffffffffffff166370a08231836040518263ffffffff1660e01b815260040161292a919061466e565b602060405180830381865afa158015612947573d6000803e3d6000fd5b505050506040513d601f19601f8201168201806040525081019061296b919061573f565b90505b92915050565b61297d336127e9565b6129bc576040517f08c379a00000000000000000000000000000000000000000000000000000000081526004016129b390614df7565b60405180910390fd5b6000609b60003373ffffffffffffffffffffffffffffffffffffffff1673ffffffffffffffffffffffffffffffffffffffff1681526020019081526020016000205411612a3e576040517f08c379a0000000000000000000000000000000000000000000000000000000008152600401612a35906157b8565b60405180910390fd5b4260a060003373ffffffffffffffffffffffffffffffffffffffff1673ffffffffffffffffffffffffffffffffffffffff168152602001908152602001600020819055503373ffffffffffffffffffffffffffffffffffffffff16427f15e3bbd981d056902e6c1c5b9b388956cab84e91ffa1e33e93825e6befe2496560405160405180910390a3565b600181565b6000612ad8826127e9565b612ae55760009050612b5f565b612aee826125d8565b73ffffffffffffffffffffffffffffffffffffffff166318160ddd6040518163ffffffff1660e01b8152600401602060405180830381865afa158015612b38573d6000803e3d6000fd5b505050506040513d601f19601f82011682018060405250810190612b5c919061573f565b90505b919050565b60008060019054906101000a900460ff16159050808015612b955750600160008054906101000a900460ff1660ff16105b80612bc25750612ba4306140c3565b158015612bc15750600160008054906101000a900460ff1660ff16145b5b612c01576040517f08c379a0000000000000000000000000000000000000000000000000000000008152600401612bf89061584a565b60405180910390fd5b60016000806101000a81548160ff021916908360ff1602179055508015612c3e576001600060016101000a81548160ff0219169083151502179055505b8173ffffffffffffffffffffffffffffffffffffffff163373ffffffffffffffffffffffffffffffffffffffff1614612cac576040517f08c379a0000000000000000000000000000000000000000000000000000000008152600401612ca3906158b6565b60405180910390fd5b612cb46140e6565b612cc16000801b83613e38565b6001609760006101000a81548160ff0219169083151502179055506001609760016101000a81548160ff0219169083151502179055506201518060a8819055506212750060a5819055508015612d645760008060016101000a81548160ff0219169083151502179055507f7f26b83ff96e1f2b6a682f133852f6798a09c465da95921460cefb38474024986001604051612d5b919061591e565b60405180910390a15b5050565b60995481565b612d7b6000801b3361277e565b612dba576040517f08c379a0000000000000000000000000000000000000000000000000000000008152600401612db1906152e0565b60405180910390fd5b8060af8190555050565b609f6020528060005260406000206000915090505481565b612de96000801b3361277e565b612e28576040517f08c379a0000000000000000000000000000000000000000000000000000000008152600401612e1f906152e0565b60405180910390fd5b8060aa60006101000a81548173ffffffffffffffffffffffffffffffffffffffff021916908373ffffffffffffffffffffffffffffffffffffffff16021790555050565b6000612e783383613056565b905060008111612ebd576040517f08c379a0000000000000000000000000000000000000000000000000000000008152600401612eb4906153b8565b60405180910390fd5b612ec6826127e9565b612f05576040517f08c379a0000000000000000000000000000000000000000000000000000000008152600401612efc9061534c565b60405180910390fd5b60ac60008373ffffffffffffffffffffffffffffffffffffffff1673ffffffffffffffffffffffffffffffffffffffff16815260200190815260200160002060009054906101000a900473ffffffffffffffffffffffffffffffffffffffff1673ffffffffffffffffffffffffffffffffffffffff166340c10f1933836040518363ffffffff1660e01b8152600401612f9f929190614f81565b600060405180830381600087803b158015612fb957600080fd5b505af1158015612fcd573d6000803e3d6000fd5b505050504260ae60008585604051602001612fe99291906151a2565b604051602081830303815290604052805190602001208152602001908152602001600020819055508060a36000828254613023919061523a565b92505081905550505050565b60a35481565b61303e82611b52565b61304781613e24565b6130518383613fe1565b505050565b60008060ae600085856040516020016130709291906151a2565b60405160208183030381529060405280519060200120815260200190815260200160002054426130a09190614eb2565b905060006301e13380826130b49190615968565b90506130bf856127e9565b6130fe576040517f08c379a00000000000000000000000000000000000000000000000000000000081526004016130f59061534c565b60405180910390fd5b600061310a85876128d1565b905060648260018361311c9190615999565b6131269190615999565b6131309190615968565b935050505092915050565b60a25481565b61314e6000801b3361277e565b61318d576040517f08c379a0000000000000000000000000000000000000000000000000000000008152600401613184906152e0565b60405180910390fd5b80609760006101000a81548160ff02191690831515021790555050565b60008060ad60008473ffffffffffffffffffffffffffffffffffffffff1673ffffffffffffffffffffffffffffffffffffffff16815260200190815260200160002054426131f89190614eb2565b905060006301e133808261320c9190615968565b9050613217846127e9565b613256576040517f08c379a000000000000000000000000000000000000000000000000000000000815260040161324d9061534c565b60405180910390fd5b600061326285866128d1565b90506064826001836132749190615999565b61327e9190615999565b6132889190615968565b9350505050919050565b609a6020528060005260406000206000915054906101000a900473ffffffffffffffffffffffffffffffffffffffff1681565b60ad6020528060005260406000206000915090505481565b609c6020528060005260406000206000915090505481565b60ab60009054906101000a900473ffffffffffffffffffffffffffffffffffffffff1673ffffffffffffffffffffffffffffffffffffffff163373ffffffffffffffffffffffffffffffffffffffff1614613385576040517f08c379a000000000000000000000000000000000000000000000000000000000815260040161337c90614d1f565b60405180910390fd5b61338e836127e9565b156134095761339c836125d8565b73ffffffffffffffffffffffffffffffffffffffff16639dc29fac83836040518363ffffffff1660e01b81526004016133d6929190614f81565b600060405180830381600087803b1580156133f057600080fd5b505af1158015613404573d6000803e3d6000fd5b505050505b505050565b6060609d60008373ffffffffffffffffffffffffffffffffffffffff1673ffffffffffffffffffffffffffffffffffffffff1681526020019081526020016000208054806020026020016040519081016040528092919081815260200182805480156134cf57602002820191906000526020600020905b8160009054906101000a900473ffffffffffffffffffffffffffffffffffffffff1673ffffffffffffffffffffffffffffffffffffffff1681526020019060010190808311613485575b50505050509050919050565b60ab60009054906101000a900473ffffffffffffffffffffffffffffffffffffffff1681565b60007f01ffc9a7000000000000000000000000000000000000000000000000000000007bffffffffffffffffffffffffffffffffffffffffffffffffffffffff1916827bffffffffffffffffffffffffffffffffffffffffffffffffffffffff1916149050919050565b609760009054906101000a900460ff166135ba576040517f08c379a00000000000000000000000000000000000000000000000000000000081526004016135b190615062565b60405180910390fd5b6135c3816127e9565b613602576040517f08c379a00000000000000000000000000000000000000000000000000000000081526004016135f990614df7565b60405180910390fd5b6000609c60008373ffffffffffffffffffffffffffffffffffffffff1673ffffffffffffffffffffffffffffffffffffffff1681526020019081526020016000205411613684576040517f08c379a000000000000000000000000000000000000000000000000000000000815260040161367b90615a27565b60405180910390fd5b600033826040516020016136999291906151a2565b6040516020818303038152906040528051906020012090506136bb8383612e6c565b60006136c783856128d1565b90506000609f6000848152602001908152602001600020819055506001609960008282546136f59190614eb2565b9250508190555060005b609d60008573ffffffffffffffffffffffffffffffffffffffff1673ffffffffffffffffffffffffffffffffffffffff168152602001908152602001600020805490508110156139ee573373ffffffffffffffffffffffffffffffffffffffff16609d60008673ffffffffffffffffffffffffffffffffffffffff1673ffffffffffffffffffffffffffffffffffffffff16815260200190815260200160002082815481106137b1576137b0614f52565b5b9060005260206000200160009054906101000a900473ffffffffffffffffffffffffffffffffffffffff1673ffffffffffffffffffffffffffffffffffffffff16036139e357609d60008573ffffffffffffffffffffffffffffffffffffffff1673ffffffffffffffffffffffffffffffffffffffff1681526020019081526020016000206001609d60008773ffffffffffffffffffffffffffffffffffffffff1673ffffffffffffffffffffffffffffffffffffffff168152602001908152602001600020805490506138859190614eb2565b8154811061389657613895614f52565b5b9060005260206000200160009054906101000a900473ffffffffffffffffffffffffffffffffffffffff16609d60008673ffffffffffffffffffffffffffffffffffffffff1673ffffffffffffffffffffffffffffffffffffffff168152602001908152602001600020828154811061391257613911614f52565b5b9060005260206000200160006101000a81548173ffffffffffffffffffffffffffffffffffffffff021916908373ffffffffffffffffffffffffffffffffffffffff160217905550609d60008573ffffffffffffffffffffffffffffffffffffffff1673ffffffffffffffffffffffffffffffffffffffff1681526020019081526020016000208054806139a9576139a8615a47565b5b6001900381819060005260206000200160006101000a81549073ffffffffffffffffffffffffffffffffffffffff021916905590556139ee565b8060010190506136ff565b5060005b609e60003373ffffffffffffffffffffffffffffffffffffffff1673ffffffffffffffffffffffffffffffffffffffff16815260200190815260200160002080549050811015613ce1578373ffffffffffffffffffffffffffffffffffffffff16609e60003373ffffffffffffffffffffffffffffffffffffffff1673ffffffffffffffffffffffffffffffffffffffff1681526020019081526020016000208281548110613aa457613aa3614f52565b5b9060005260206000200160009054906101000a900473ffffffffffffffffffffffffffffffffffffffff1673ffffffffffffffffffffffffffffffffffffffff1603613cd657609e60003373ffffffffffffffffffffffffffffffffffffffff1673ffffffffffffffffffffffffffffffffffffffff1681526020019081526020016000206001609e60003373ffffffffffffffffffffffffffffffffffffffff1673ffffffffffffffffffffffffffffffffffffffff16815260200190815260200160002080549050613b789190614eb2565b81548110613b8957613b88614f52565b5b9060005260206000200160009054906101000a900473ffffffffffffffffffffffffffffffffffffffff16609e60003373ffffffffffffffffffffffffffffffffffffffff1673ffffffffffffffffffffffffffffffffffffffff1681526020019081526020016000208281548110613c0557613c04614f52565b5b9060005260206000200160006101000a81548173ffffffffffffffffffffffffffffffffffffffff021916908373ffffffffffffffffffffffffffffffffffffffff160217905550609e60003373ffffffffffffffffffffffffffffffffffffffff1673ffffffffffffffffffffffffffffffffffffffff168152602001908152602001600020805480613c9c57613c9b615a47565b5b6001900381819060005260206000200160006101000a81549073ffffffffffffffffffffffffffffffffffffffff02191690559055613ce1565b8060010190506139f2565b506001609c60008573ffffffffffffffffffffffffffffffffffffffff1673ffffffffffffffffffffffffffffffffffffffff1681526020019081526020016000206000828254613d329190614eb2565b92505081905550600060ae60008481526020019081526020016000208190555060ac60008473ffffffffffffffffffffffffffffffffffffffff1673ffffffffffffffffffffffffffffffffffffffff16815260200190815260200160002060009054906101000a900473ffffffffffffffffffffffffffffffffffffffff1673ffffffffffffffffffffffffffffffffffffffff16639dc29fac33836040518363ffffffff1660e01b8152600401613dec929190614f81565b600060405180830381600087803b158015613e0657600080fd5b505af1158015613e1a573d6000803e3d6000fd5b5050505050505050565b613e3581613e30613fd9565b614137565b50565b613e42828261277e565b613f155760016065600084815260200190815260200160002060000160008373ffffffffffffffffffffffffffffffffffffffff1673ffffffffffffffffffffffffffffffffffffffff16815260200190815260200160002060006101000a81548160ff021916908315150217905550613eba613fd9565b73ffffffffffffffffffffffffffffffffffffffff168173ffffffffffffffffffffffffffffffffffffffff16837f2f8788117e7eff1d82e926ec794901d17c78024a50270940304540a733656f0d60405160405180910390a45b5050565b600060019054906101000a900460ff1615613f69576040517f08c379a0000000000000000000000000000000000000000000000000000000008152600401613f6090615ae8565b60405180910390fd5b60ff801660008054906101000a900460ff1660ff1614613fd75760ff6000806101000a81548160ff021916908360ff1602179055507f7f26b83ff96e1f2b6a682f133852f6798a09c465da95921460cefb384740249860ff604051613fce9190615b17565b60405180910390a15b565b600033905090565b613feb828261277e565b156140bf5760006065600084815260200190815260200160002060000160008373ffffffffffffffffffffffffffffffffffffffff1673ffffffffffffffffffffffffffffffffffffffff16815260200190815260200160002060006101000a81548160ff021916908315150217905550614064613fd9565b73ffffffffffffffffffffffffffffffffffffffff168173ffffffffffffffffffffffffffffffffffffffff16837ff6391f5c32d9c69d2a47ea670b442974b53935d1edc7fd64eb21e047a839171b60405160405180910390a45b5050565b6000808273ffffffffffffffffffffffffffffffffffffffff163b119050919050565b600060019054906101000a900460ff16614135576040517f08c379a000000000000000000000000000000000000000000000000000000000815260040161412c90615ba4565b60405180910390fd5b565b614141828261277e565b6141b85761414e816141bc565b61415c8360001c60206141e9565b60405160200161416d929190615c98565b6040516020818303038152906040526040517f08c379a00000000000000000000000000000000000000000000000000000000081526004016141af9190615cd2565b60405180910390fd5b5050565b60606141e28273ffffffffffffffffffffffffffffffffffffffff16601460ff166141e9565b9050919050565b6060600060028360026141fc9190615999565b614206919061523a565b67ffffffffffffffff81111561421f5761421e614883565b5b6040519080825280601f01601f1916602001820160405280156142515781602001600182028036833780820191505090505b5090507f30000000000000000000000000000000000000000000000000000000000000008160008151811061428957614288614f52565b5b60200101907effffffffffffffffffffffffffffffffffffffffffffffffffffffffffffff1916908160001a9053507f7800000000000000000000000000000000000000000000000000000000000000816001815181106142ed576142ec614f52565b5b60200101907effffffffffffffffffffffffffffffffffffffffffffffffffffffffffffff1916908160001a9053506000600184600261432d9190615999565b614337919061523a565b90505b60018111156143d7577f3031323334353637383961626364656600000000000000000000000000000000600f86166010811061437957614378614f52565b5b1a60f81b8282815181106143905761438f614f52565b5b60200101907effffffffffffffffffffffffffffffffffffffffffffffffffffffffffffff1916908160001a905350600485901c9450806143d090615cf4565b905061433a565b506000841461441b576040517f08c379a000000000000000000000000000000000000000000000000000000000815260040161441290615d69565b60405180910390fd5b8091505092915050565b6000604051905090565b600080fd5b600080fd5b6000819050919050565b61444c81614439565b811461445757600080fd5b50565b60008135905061446981614443565b92915050565b600073ffffffffffffffffffffffffffffffffffffffff82169050919050565b600061449a8261446f565b9050919050565b6144aa8161448f565b81146144b557600080fd5b50565b6000813590506144c7816144a1565b92915050565b600080604083850312156144e4576144e361442f565b5b60006144f28582860161445a565b9250506020614503858286016144b8565b9150509250929050565b60007fffffffff0000000000000000000000000000000000000000000000000000000082169050919050565b6145428161450d565b811461454d57600080fd5b50565b60008135905061455f81614539565b92915050565b60006020828403121561457b5761457a61442f565b5b600061458984828501614550565b91505092915050565b60008115159050919050565b6145a781614592565b82525050565b60006020820190506145c2600083018461459e565b92915050565b6000602082840312156145de576145dd61442f565b5b60006145ec848285016144b8565b91505092915050565b6145fe81614439565b82525050565b600060208201905061461960008301846145f5565b92915050565b600080604083850312156146365761463561442f565b5b6000614644858286016144b8565b92505060206146558582860161445a565b9150509250929050565b6146688161448f565b82525050565b6000602082019050614683600083018461465f565b92915050565b6000819050919050565b61469c81614689565b81146146a757600080fd5b50565b6000813590506146b981614693565b92915050565b6000602082840312156146d5576146d461442f565b5b60006146e3848285016146aa565b91505092915050565b6146f581614689565b82525050565b600060208201905061471060008301846146ec565b92915050565b6000806040838503121561472d5761472c61442f565b5b600061473b858286016146aa565b925050602061474c858286016144b8565b9150509250929050565b6000819050919050565b600061477b6147766147718461446f565b614756565b61446f565b9050919050565b600061478d82614760565b9050919050565b600061479f82614782565b9050919050565b6147af81614794565b82525050565b60006020820190506147ca60008301846147a6565b92915050565b6000602082840312156147e6576147e561442f565b5b60006147f48482850161445a565b91505092915050565b60006148088261446f565b9050919050565b614818816147fd565b811461482357600080fd5b50565b6000813590506148358161480f565b92915050565b6000602082840312156148515761485061442f565b5b600061485f84828501614826565b91505092915050565b600080fd5b600080fd5b6000601f19601f8301169050919050565b7f4e487b7100000000000000000000000000000000000000000000000000000000600052604160045260246000fd5b6148bb82614872565b810181811067ffffffffffffffff821117156148da576148d9614883565b5b80604052505050565b60006148ed614425565b90506148f982826148b2565b919050565b600067ffffffffffffffff82111561491957614918614883565b5b61492282614872565b9050602081019050919050565b82818337600083830152505050565b600061495161494c846148fe565b6148e3565b90508281526020810184848401111561496d5761496c61486d565b5b61497884828561492f565b509392505050565b600082601f83011261499557614994614868565b5b81356149a584826020860161493e565b91505092915050565b600080604083850312156149c5576149c461442f565b5b600083013567ffffffffffffffff8111156149e3576149e2614434565b5b6149ef85828601614980565b9250506020614a008582860161445a565b9150509250929050565b6000614a1582614760565b9050919050565b6000614a2782614a0a565b9050919050565b614a3781614a1c565b82525050565b6000602082019050614a526000830184614a2e565b92915050565b6000614a6382614a0a565b9050919050565b614a7381614a58565b82525050565b6000602082019050614a8e6000830184614a6a565b92915050565b614a9d81614592565b8114614aa857600080fd5b50565b600081359050614aba81614a94565b92915050565b600060208284031215614ad657614ad561442f565b5b6000614ae484828501614aab565b91505092915050565b60008060408385031215614b0457614b0361442f565b5b6000614b12858286016144b8565b9250506020614b23858286016144b8565b9150509250929050565b600080600060608486031215614b4657614b4561442f565b5b6000614b54868287016144b8565b9350506020614b65868287016144b8565b9250506040614b768682870161445a565b9150509250925092565b600081519050919050565b600082825260208201905092915050565b6000819050602082019050919050565b614bb58161448f565b82525050565b6000614bc78383614bac565b60208301905092915050565b6000602082019050919050565b6000614beb82614b80565b614bf58185614b8b565b9350614c0083614b9c565b8060005b83811015614c31578151614c188882614bbb565b9750614c2383614bd3565b925050600181019050614c04565b5085935050505092915050565b60006020820190508181036000830152614c588184614be0565b905092915050565b6000614c6b82614a0a565b9050919050565b614c7b81614c60565b82525050565b6000602082019050614c966000830184614c72565b92915050565b600082825260208201905092915050565b7f4f6e6c79206f776e6572206f72206661756c742070726f6f6620636f6e74726160008201527f63742063616e2063616c6c20746869732066756e6374696f6e00000000000000602082015250565b6000614d09603983614c9c565b9150614d1482614cad565b604082019050919050565b60006020820190508181036000830152614d3881614cfc565b9050919050565b7f4150233232000000000000000000000000000000000000000000000000000000600082015250565b6000614d75600583614c9c565b9150614d8082614d3f565b602082019050919050565b60006020820190508181036000830152614da481614d68565b9050919050565b7f4150233132000000000000000000000000000000000000000000000000000000600082015250565b6000614de1600583614c9c565b9150614dec82614dab565b602082019050919050565b60006020820190508181036000830152614e1081614dd4565b9050919050565b7f4150233230000000000000000000000000000000000000000000000000000000600082015250565b6000614e4d600583614c9c565b9150614e5882614e17565b602082019050919050565b60006020820190508181036000830152614e7c81614e40565b9050919050565b7f4e487b7100000000000000000000000000000000000000000000000000000000600052601160045260246000fd5b6000614ebd82614439565b9150614ec883614439565b9250828203905081811115614ee057614edf614e83565b5b92915050565b7f4150233231000000000000000000000000000000000000000000000000000000600082015250565b6000614f1c600583614c9c565b9150614f2782614ee6565b602082019050919050565b60006020820190508181036000830152614f4b81614f0f565b9050919050565b7f4e487b7100000000000000000000000000000000000000000000000000000000600052603260045260246000fd5b6000604082019050614f96600083018561465f565b614fa360208301846145f5565b9392505050565b7f4150233134000000000000000000000000000000000000000000000000000000600082015250565b6000614fe0600583614c9c565b9150614feb82614faa565b602082019050919050565b6000602082019050818103600083015261500f81614fd3565b9050919050565b7f4150233130000000000000000000000000000000000000000000000000000000600082015250565b600061504c600583614c9c565b915061505782615016565b602082019050919050565b6000602082019050818103600083015261507b8161503f565b9050919050565b7f4150233131000000000000000000000000000000000000000000000000000000600082015250565b60006150b8600583614c9c565b91506150c382615082565b602082019050919050565b600060208201905081810360008301526150e7816150ab565b9050919050565b7f4150233133000000000000000000000000000000000000000000000000000000600082015250565b6000615124600583614c9c565b915061512f826150ee565b602082019050919050565b6000602082019050818103600083015261515381615117565b9050919050565b60008160601b9050919050565b60006151728261515a565b9050919050565b600061518482615167565b9050919050565b61519c6151978261448f565b615179565b82525050565b60006151ae828561518b565b6014820191506151be828461518b565b6014820191508190509392505050565b7f4150233136000000000000000000000000000000000000000000000000000000600082015250565b6000615204600583614c9c565b915061520f826151ce565b602082019050919050565b60006020820190508181036000830152615233816151f7565b9050919050565b600061524582614439565b915061525083614439565b925082820190508082111561526857615267614e83565b5b92915050565b7f4f6e6c79206f776e65722063616e2063616c6c20746869732066756e6374696f60008201527f6e00000000000000000000000000000000000000000000000000000000000000602082015250565b60006152ca602183614c9c565b91506152d58261526e565b604082019050919050565b600060208201905081810360008301526152f9816152bd565b9050919050565b7f4150233135000000000000000000000000000000000000000000000000000000600082015250565b6000615336600583614c9c565b915061534182615300565b602082019050919050565b6000602082019050818103600083015261536581615329565b9050919050565b7f4150233137000000000000000000000000000000000000000000000000000000600082015250565b60006153a2600583614c9c565b91506153ad8261536c565b602082019050919050565b600060208201905081810360008301526153d181615395565b9050919050565b7f416363657373436f6e74726f6c3a2063616e206f6e6c792072656e6f756e636560008201527f20726f6c657320666f722073656c660000000000000000000000000000000000602082015250565b6000615434602f83614c9c565b915061543f826153d8565b604082019050919050565b6000602082019050818103600083015261546381615427565b9050919050565b7f4150233900000000000000000000000000000000000000000000000000000000600082015250565b60006154a0600483614c9c565b91506154ab8261546a565b602082019050919050565b600060208201905081810360008301526154cf81615493565b9050919050565b7f4150233600000000000000000000000000000000000000000000000000000000600082015250565b600061550c600483614c9c565b9150615517826154d6565b602082019050919050565b6000602082019050818103600083015261553b816154ff565b9050919050565b7f4150233700000000000000000000000000000000000000000000000000000000600082015250565b6000615578600483614c9c565b915061558382615542565b602082019050919050565b600060208201905081810360008301526155a78161556b565b9050919050565b7f4150233800000000000000000000000000000000000000000000000000000000600082015250565b60006155e4600483614c9c565b91506155ef826155ae565b602082019050919050565b60006020820190508181036000830152615613816155d7565b9050919050565b600081519050919050565b60005b83811015615643578082015181840152602081019050615628565b60008484015250505050565b600061565a8261561a565b6156648185614c9c565b9350615674818560208601615625565b61567d81614872565b840191505092915050565b600060408201905081810360008301526156a2818561564f565b905081810360208301526156b6818461564f565b90509392505050565b60006156ca8261448f565b9050919050565b6156da816156bf565b81146156e557600080fd5b50565b6000815190506156f7816156d1565b92915050565b6000602082840312156157135761571261442f565b5b6000615721848285016156e8565b91505092915050565b60008151905061573981614443565b92915050565b6000602082840312156157555761575461442f565b5b60006157638482850161572a565b91505092915050565b7f4150233139000000000000000000000000000000000000000000000000000000600082015250565b60006157a2600583614c9c565b91506157ad8261576c565b602082019050919050565b600060208201905081810360008301526157d181615795565b9050919050565b7f496e697469616c697a61626c653a20636f6e747261637420697320616c72656160008201527f647920696e697469616c697a6564000000000000000000000000000000000000602082015250565b6000615834602e83614c9c565b915061583f826157d8565b604082019050919050565b6000602082019050818103600083015261586381615827565b9050919050565b7f4153233100000000000000000000000000000000000000000000000000000000600082015250565b60006158a0600483614c9c565b91506158ab8261586a565b602082019050919050565b600060208201905081810360008301526158cf81615893565b9050919050565b6000819050919050565b600060ff82169050919050565b60006159086159036158fe846158d6565b614756565b6158e0565b9050919050565b615918816158ed565b82525050565b6000602082019050615933600083018461590f565b92915050565b7f4e487b7100000000000000000000000000000000000000000000000000000000600052601260045260246000fd5b600061597382614439565b915061597e83614439565b92508261598e5761598d615939565b5b828204905092915050565b60006159a482614439565b91506159af83614439565b92508282026159bd81614439565b915082820484148315176159d4576159d3614e83565b5b5092915050565b7f4150233138000000000000000000000000000000000000000000000000000000600082015250565b6000615a11600583614c9c565b9150615a1c826159db565b602082019050919050565b60006020820190508181036000830152615a4081615a04565b9050919050565b7f4e487b7100000000000000000000000000000000000000000000000000000000600052603160045260246000fd5b7f496e697469616c697a61626c653a20636f6e747261637420697320696e69746960008201527f616c697a696e6700000000000000000000000000000000000000000000000000602082015250565b6000615ad2602783614c9c565b9150615add82615a76565b604082019050919050565b60006020820190508181036000830152615b0181615ac5565b9050919050565b615b11816158e0565b82525050565b6000602082019050615b2c6000830184615b08565b92915050565b7f496e697469616c697a61626c653a20636f6e7472616374206973206e6f74206960008201527f6e697469616c697a696e67000000000000000000000000000000000000000000602082015250565b6000615b8e602b83614c9c565b9150615b9982615b32565b604082019050919050565b60006020820190508181036000830152615bbd81615b81565b9050919050565b600081905092915050565b7f416363657373436f6e74726f6c3a206163636f756e7420000000000000000000600082015250565b6000615c05601783615bc4565b9150615c1082615bcf565b601782019050919050565b6000615c268261561a565b615c308185615bc4565b9350615c40818560208601615625565b80840191505092915050565b7f206973206d697373696e6720726f6c6520000000000000000000000000000000600082015250565b6000615c82601183615bc4565b9150615c8d82615c4c565b601182019050919050565b6000615ca382615bf8565b9150615caf8285615c1b565b9150615cba82615c75565b9150615cc68284615c1b565b91508190509392505050565b60006020820190508181036000830152615cec818461564f565b905092915050565b6000615cff82614439565b915060008203615d1257615d11614e83565b5b600182039050919050565b7f537472696e67733a20686578206c656e67746820696e73756666696369656e74600082015250565b6000615d53602083614c9c565b9150615d5e82615d1d565b602082019050919050565b60006020820190508181036000830152615d8281615d46565b905091905056fea2646970667358221220ad767e79936da21119d2488832bd8450167e3403fd075daf4290ef34e23a2e5464736f6c63430008180033",
  "linkReferences": {},
  "deployedLinkReferences": {}
}