{
  "_format": "hh-sol-artifact-1",
  "contractName": "AttestationsVerifierProofs",
  "sourceName": "contracts/attestationsVerifierProofs.sol",
  "abi": [
    {
      "inputs": [],
      "stateMutability": "nonpayable",
      "type": "constructor"
    },
    {
      "anonymous": false,
      "inputs": [
        {
          "indexed": true,
          "internalType": "bytes32",
          "name": "committmentMessageHash",
          "type": "bytes32"
        }
      ],
      "name": "AlreadyApplied",
      "type": "event"
    },
    {
      "anonymous": false,
      "inputs": [
        {
          "indexed": true,
          "internalType": "bytes32",
          "name": "batchHash",
          "type": "bytes32"
        },
        {
          "indexed": true,
          "internalType": "address",
          "name": "executor",
          "type": "address"
        },
        {
          "indexed": true,
          "internalType": "bytes32",
          "name": "attestingCommitteeHash",
          "type": "bytes32"
        }
      ],
      "name": "BatchApplied",
      "type": "event"
    },
    {
      "anonymous": false,
      "inputs": [
        {
          "indexed": true,
          "internalType": "bytes32",
          "name": "batchHash",
          "type": "bytes32"
        },
        {
          "indexed": true,
          "internalType": "address",
          "name": "executor",
          "type": "address"
        },
        {
          "indexed": true,
          "internalType": "uint32",
          "name": "batchIndex",
          "type": "uint32"
        }
      ],
      "name": "BatchProcessingError",
      "type": "event"
    },
    {
      "anonymous": false,
      "inputs": [
        {
          "indexed": true,
          "internalType": "bytes32",
          "name": "sfxId",
          "type": "bytes32"
        }
      ],
      "name": "CallCommitApplied",
      "type": "event"
    },
    {
      "anonymous": false,
      "inputs": [
        {
          "indexed": true,
          "internalType": "bytes32",
          "name": "sfxId",
          "type": "bytes32"
        }
      ],
      "name": "CallRevertApplied",
      "type": "event"
    },
    {
      "anonymous": false,
      "inputs": [
        {
          "indexed": true,
          "internalType": "bytes32",
          "name": "batchHash",
          "type": "bytes32"
        },
        {
          "indexed": true,
          "internalType": "address",
          "name": "executor",
          "type": "address"
        },
        {
          "indexed": true,
          "internalType": "bytes32",
          "name": "attestingCommitteeHash",
          "type": "bytes32"
        }
      ],
      "name": "CommitmentApplied",
      "type": "event"
    },
    {
      "anonymous": false,
      "inputs": [
        {
          "indexed": true,
          "internalType": "bytes32",
          "name": "sfxId",
          "type": "bytes32"
        },
        {
          "indexed": true,
          "internalType": "address",
          "name": "executor",
          "type": "address"
        }
      ],
      "name": "EscrowCommitApplied",
      "type": "event"
    },
    {
      "anonymous": false,
      "inputs": [
        {
          "indexed": false,
          "internalType": "uint8",
          "name": "version",
          "type": "uint8"
        }
      ],
      "name": "Initialized",
      "type": "event"
    },
    {
      "anonymous": false,
      "inputs": [
        {
          "indexed": true,
          "internalType": "bytes32",
          "name": "role",
          "type": "bytes32"
        },
        {
          "indexed": true,
          "internalType": "bytes32",
          "name": "previousAdminRole",
          "type": "bytes32"
        },
        {
          "indexed": true,
          "internalType": "bytes32",
          "name": "newAdminRole",
          "type": "bytes32"
        }
      ],
      "name": "RoleAdminChanged",
      "type": "event"
    },
    {
      "anonymous": false,
      "inputs": [
        {
          "indexed": true,
          "internalType": "bytes32",
          "name": "role",
          "type": "bytes32"
        },
        {
          "indexed": true,
          "internalType": "address",
          "name": "account",
          "type": "address"
        },
        {
          "indexed": true,
          "internalType": "address",
          "name": "sender",
          "type": "address"
        }
      ],
      "name": "RoleGranted",
      "type": "event"
    },
    {
      "anonymous": false,
      "inputs": [
        {
          "indexed": true,
          "internalType": "bytes32",
          "name": "role",
          "type": "bytes32"
        },
        {
          "indexed": true,
          "internalType": "address",
          "name": "account",
          "type": "address"
        },
        {
          "indexed": true,
          "internalType": "address",
          "name": "sender",
          "type": "address"
        }
      ],
      "name": "RoleRevoked",
      "type": "event"
    },
    {
      "anonymous": false,
      "inputs": [
        {
          "indexed": true,
          "internalType": "address",
          "name": "signer",
          "type": "address"
        }
      ],
      "name": "SignerEmitted",
      "type": "event"
    },
    {
      "anonymous": false,
      "inputs": [
        {
          "indexed": true,
          "internalType": "address",
          "name": "signer",
          "type": "address"
        }
      ],
      "name": "SignerNotInCommittee",
      "type": "event"
    },
    {
      "anonymous": false,
      "inputs": [
        {
          "indexed": false,
          "internalType": "bool",
          "name": "",
          "type": "bool"
        },
        {
          "indexed": false,
          "internalType": "bool",
          "name": "",
          "type": "bool"
        },
        {
          "indexed": false,
          "internalType": "bytes32[]",
          "name": "leaves",
          "type": "bytes32[]"
        },
        {
          "indexed": false,
          "internalType": "address[]",
          "name": "addressesRecovered",
          "type": "address[]"
        },
        {
          "indexed": false,
          "internalType": "bytes32",
          "name": "",
          "type": "bytes32"
        }
      ],
      "name": "TestEvent",
      "type": "event"
    },
    {
      "anonymous": false,
      "inputs": [
        {
          "indexed": true,
          "internalType": "bytes32",
          "name": "sfxId",
          "type": "bytes32"
        },
        {
          "indexed": true,
          "internalType": "address",
          "name": "executor",
          "type": "address"
        }
      ],
      "name": "TransferCommitApplied",
      "type": "event"
    },
    {
      "anonymous": false,
      "inputs": [
        {
          "indexed": true,
          "internalType": "bytes32",
          "name": "sfxId",
          "type": "bytes32"
        }
      ],
      "name": "TransferRevertApplied",
      "type": "event"
    },
    {
      "inputs": [],
      "name": "DEFAULT_ADMIN_ROLE",
      "outputs": [
        {
          "internalType": "bytes32",
          "name": "",
          "type": "bytes32"
        }
      ],
      "stateMutability": "view",
      "type": "function"
    },
    {
      "inputs": [],
      "name": "areCallCommitmentsEnabled",
      "outputs": [
        {
          "internalType": "bool",
          "name": "",
          "type": "bool"
        }
      ],
      "stateMutability": "view",
      "type": "function"
    },
    {
      "inputs": [],
      "name": "arePayloadCommitmentsEnabled",
      "outputs": [
        {
          "internalType": "bool",
          "name": "",
          "type": "bool"
        }
      ],
      "stateMutability": "view",
      "type": "function"
    },
    {
      "inputs": [
        {
          "internalType": "address payable",
          "name": "_escrowGMP",
          "type": "address"
        }
      ],
      "name": "assignEscrowGMP",
      "outputs": [],
      "stateMutability": "nonpayable",
      "type": "function"
    },
    {
      "inputs": [
        {
          "internalType": "address payable",
          "name": "_lightClient",
          "type": "address"
        }
      ],
      "name": "assignLightClient",
      "outputs": [],
      "stateMutability": "nonpayable",
      "type": "function"
    },
    {
      "inputs": [
        {
          "internalType": "address payable",
          "name": "_orderer",
          "type": "address"
        }
      ],
      "name": "assignOrderer",
      "outputs": [],
      "stateMutability": "nonpayable",
      "type": "function"
    },
    {
      "inputs": [
        {
          "internalType": "bytes32",
          "name": "batchHash",
          "type": "bytes32"
        }
      ],
      "name": "backdoorBatchHash",
      "outputs": [],
      "stateMutability": "nonpayable",
      "type": "function"
    },
    {
      "inputs": [
        {
          "components": [
            {
              "internalType": "bool",
              "name": "is_halted",
              "type": "bool"
            },
            {
              "internalType": "bytes32",
              "name": "currentCommitteeHash",
              "type": "bytes32"
            },
            {
              "internalType": "bytes32",
              "name": "nextCommitteeHash",
              "type": "bytes32"
            },
            {
              "internalType": "address[]",
              "name": "maybeNextCommittee",
              "type": "address[]"
            },
            {
              "internalType": "address[]",
              "name": "bannedCommittee",
              "type": "address[]"
            },
            {
              "internalType": "bytes",
              "name": "encodedGMPPayload",
              "type": "bytes"
            },
            {
              "internalType": "uint32",
              "name": "index",
              "type": "uint32"
            }
          ],
          "internalType": "struct AttestationsVerifierProofs.Batch",
          "name": "batch",
          "type": "tuple"
        }
      ],
      "name": "batchEncode",
      "outputs": [
        {
          "internalType": "bytes",
          "name": "",
          "type": "bytes"
        }
      ],
      "stateMutability": "pure",
      "type": "function"
    },
    {
      "inputs": [
        {
          "internalType": "bytes32",
          "name": "",
          "type": "bytes32"
        }
      ],
      "name": "committedGMPMessagesMap",
      "outputs": [
        {
          "internalType": "bool",
          "name": "",
          "type": "bool"
        }
      ],
      "stateMutability": "view",
      "type": "function"
    },
    {
      "inputs": [],
      "name": "committeeSize",
      "outputs": [
        {
          "internalType": "uint256",
          "name": "",
          "type": "uint256"
        }
      ],
      "stateMutability": "view",
      "type": "function"
    },
    {
      "inputs": [],
      "name": "currentBatchIndex",
      "outputs": [
        {
          "internalType": "uint256",
          "name": "",
          "type": "uint256"
        }
      ],
      "stateMutability": "view",
      "type": "function"
    },
    {
      "inputs": [],
      "name": "currentCommitteeHash",
      "outputs": [
        {
          "internalType": "bytes32",
          "name": "",
          "type": "bytes32"
        }
      ],
      "stateMutability": "view",
      "type": "function"
    },
    {
      "inputs": [],
      "name": "currentCommitteeStake",
      "outputs": [
        {
          "internalType": "bytes32",
          "name": "",
          "type": "bytes32"
        }
      ],
      "stateMutability": "view",
      "type": "function"
    },
    {
      "inputs": [],
      "name": "currentCommitteeTransitionCount",
      "outputs": [
        {
          "internalType": "uint256",
          "name": "",
          "type": "uint256"
        }
      ],
      "stateMutability": "view",
      "type": "function"
    },
    {
      "inputs": [],
      "name": "escrowGMP",
      "outputs": [
        {
          "internalType": "contract EscrowGMP",
          "name": "",
          "type": "address"
        }
      ],
      "stateMutability": "view",
      "type": "function"
    },
    {
      "inputs": [
        {
          "internalType": "bytes32",
          "name": "role",
          "type": "bytes32"
        }
      ],
      "name": "getRoleAdmin",
      "outputs": [
        {
          "internalType": "bytes32",
          "name": "",
          "type": "bytes32"
        }
      ],
      "stateMutability": "view",
      "type": "function"
    },
    {
      "inputs": [
        {
          "internalType": "bytes32",
          "name": "role",
          "type": "bytes32"
        },
        {
          "internalType": "address",
          "name": "account",
          "type": "address"
        }
      ],
      "name": "grantRole",
      "outputs": [],
      "stateMutability": "nonpayable",
      "type": "function"
    },
    {
      "inputs": [
        {
          "internalType": "bytes32",
          "name": "role",
          "type": "bytes32"
        },
        {
          "internalType": "address",
          "name": "account",
          "type": "address"
        }
      ],
      "name": "hasRole",
      "outputs": [
        {
          "internalType": "bool",
          "name": "",
          "type": "bool"
        }
      ],
      "stateMutability": "view",
      "type": "function"
    },
    {
      "inputs": [],
      "name": "hashHead",
      "outputs": [
        {
          "internalType": "bytes32",
          "name": "",
          "type": "bytes32"
        }
      ],
      "stateMutability": "view",
      "type": "function"
    },
    {
      "inputs": [
        {
          "internalType": "address[]",
          "name": "committee",
          "type": "address[]"
        }
      ],
      "name": "implyCommitteeRoot",
      "outputs": [
        {
          "internalType": "bytes32",
          "name": "",
          "type": "bytes32"
        }
      ],
      "stateMutability": "pure",
      "type": "function"
    },
    {
      "inputs": [
        {
          "internalType": "address",
          "name": "_owner",
          "type": "address"
        },
        {
          "internalType": "address[]",
          "name": "initialCommittee",
          "type": "address[]"
        },
        {
          "internalType": "address[]",
          "name": "nextCommittee",
          "type": "address[]"
        },
        {
          "internalType": "uint256",
          "name": "startingIndex",
          "type": "uint256"
        }
      ],
      "name": "initialize",
      "outputs": [],
      "stateMutability": "nonpayable",
      "type": "function"
    },
    {
      "inputs": [
        {
          "internalType": "bytes32",
          "name": "id",
          "type": "bytes32"
        }
      ],
      "name": "isAttestationApplied",
      "outputs": [
        {
          "internalType": "bool",
          "name": "",
          "type": "bool"
        }
      ],
      "stateMutability": "view",
      "type": "function"
    },
    {
      "inputs": [],
      "name": "lightClient",
      "outputs": [
        {
          "internalType": "contract AttestedLightClient",
          "name": "",
          "type": "address"
        }
      ],
      "stateMutability": "view",
      "type": "function"
    },
    {
      "inputs": [
        {
          "components": [
            {
              "internalType": "bool",
              "name": "is_halted",
              "type": "bool"
            },
            {
              "internalType": "bytes32",
              "name": "currentCommitteeHash",
              "type": "bytes32"
            },
            {
              "internalType": "bytes32",
              "name": "nextCommitteeHash",
              "type": "bytes32"
            },
            {
              "internalType": "address[]",
              "name": "maybeNextCommittee",
              "type": "address[]"
            },
            {
              "internalType": "address[]",
              "name": "bannedCommittee",
              "type": "address[]"
            },
            {
              "internalType": "bytes",
              "name": "encodedGMPPayload",
              "type": "bytes"
            },
            {
              "internalType": "uint32",
              "name": "index",
              "type": "uint32"
            }
          ],
          "internalType": "struct AttestationsVerifierProofs.Batch",
          "name": "batch",
          "type": "tuple"
        }
      ],
      "name": "messageHash",
      "outputs": [
        {
          "internalType": "bytes32",
          "name": "",
          "type": "bytes32"
        }
      ],
      "stateMutability": "pure",
      "type": "function"
    },
    {
      "inputs": [],
      "name": "nextCommitteeHash",
      "outputs": [
        {
          "internalType": "bytes32",
          "name": "",
          "type": "bytes32"
        }
      ],
      "stateMutability": "view",
      "type": "function"
    },
    {
      "inputs": [
        {
          "internalType": "address",
          "name": "",
          "type": "address"
        }
      ],
      "name": "operators",
      "outputs": [
        {
          "internalType": "bool",
          "name": "",
          "type": "bool"
        }
      ],
      "stateMutability": "view",
      "type": "function"
    },
    {
      "inputs": [],
      "name": "orderer",
      "outputs": [
        {
          "internalType": "contract RemoteOrder",
          "name": "",
          "type": "address"
        }
      ],
      "stateMutability": "view",
      "type": "function"
    },
    {
      "inputs": [
        {
          "internalType": "bytes32",
          "name": "newCommitteeHash",
          "type": "bytes32"
        }
      ],
      "name": "overrideCommitteeHash",
      "outputs": [],
      "stateMutability": "nonpayable",
      "type": "function"
    },
    {
      "inputs": [
        {
          "internalType": "uint256",
          "name": "newBatchIndex",
          "type": "uint256"
        }
      ],
      "name": "overrideCurrentBatchIndex",
      "outputs": [],
      "stateMutability": "nonpayable",
      "type": "function"
    },
    {
      "inputs": [
        {
          "internalType": "bytes32",
          "name": "newCommitteeHash",
          "type": "bytes32"
        }
      ],
      "name": "overrideNextCommitteeHash",
      "outputs": [],
      "stateMutability": "nonpayable",
      "type": "function"
    },
    {
      "inputs": [],
      "name": "quorum",
      "outputs": [
        {
          "internalType": "uint256",
          "name": "",
          "type": "uint256"
        }
      ],
      "stateMutability": "view",
      "type": "function"
    },
    {
      "inputs": [
        {
          "internalType": "bytes",
          "name": "batchPayload",
          "type": "bytes"
        },
        {
          "internalType": "bytes",
          "name": "messageGMPPayload",
          "type": "bytes"
        },
        {
          "internalType": "bytes[]",
          "name": "signatures",
          "type": "bytes[]"
        },
        {
          "internalType": "bytes32[]",
          "name": "multiProofProof",
          "type": "bytes32[]"
        },
        {
          "internalType": "bool[]",
          "name": "multiProofMembershipFlags",
          "type": "bool[]"
        }
      ],
      "name": "receiveAttestationBatch",
      "outputs": [],
      "stateMutability": "nonpayable",
      "type": "function"
    },
    {
      "inputs": [
        {
          "internalType": "bytes32",
          "name": "expectedBatchHash",
          "type": "bytes32"
        },
        {
          "internalType": "bytes[]",
          "name": "signatures",
          "type": "bytes[]"
        },
        {
          "internalType": "address[]",
          "name": "bannedCommittee",
          "type": "address[]"
        }
      ],
      "name": "recoverCurrentSigners",
      "outputs": [
        {
          "internalType": "bytes32[]",
          "name": "",
          "type": "bytes32[]"
        }
      ],
      "stateMutability": "pure",
      "type": "function"
    },
    {
      "inputs": [
        {
          "internalType": "bytes32",
          "name": "_messageHash",
          "type": "bytes32"
        },
        {
          "internalType": "bytes",
          "name": "signature",
          "type": "bytes"
        }
      ],
      "name": "recoverSigner",
      "outputs": [
        {
          "internalType": "address",
          "name": "",
          "type": "address"
        }
      ],
      "stateMutability": "pure",
      "type": "function"
    },
    {
      "inputs": [
        {
          "internalType": "bytes32",
          "name": "role",
          "type": "bytes32"
        },
        {
          "internalType": "address",
          "name": "account",
          "type": "address"
        }
      ],
      "name": "renounceRole",
      "outputs": [],
      "stateMutability": "nonpayable",
      "type": "function"
    },
    {
      "inputs": [
        {
          "internalType": "bytes32",
          "name": "role",
          "type": "bytes32"
        },
        {
          "internalType": "address",
          "name": "account",
          "type": "address"
        }
      ],
      "name": "revokeRole",
      "outputs": [],
      "stateMutability": "nonpayable",
      "type": "function"
    },
    {
      "inputs": [],
      "name": "selfBatchIndex",
      "outputs": [
        {
          "internalType": "bool",
          "name": "",
          "type": "bool"
        }
      ],
      "stateMutability": "view",
      "type": "function"
    },
    {
      "inputs": [
        {
          "internalType": "uint256",
          "name": "_batchIndex",
          "type": "uint256"
        }
      ],
      "name": "setBatchIndex",
      "outputs": [],
      "stateMutability": "nonpayable",
      "type": "function"
    },
    {
      "inputs": [
        {
          "internalType": "address",
          "name": "_operator",
          "type": "address"
        }
      ],
      "name": "setOperator",
      "outputs": [],
      "stateMutability": "nonpayable",
      "type": "function"
    },
    {
      "inputs": [
        {
          "internalType": "uint256",
          "name": "_quorum",
          "type": "uint256"
        }
      ],
      "name": "setQuorum",
      "outputs": [],
      "stateMutability": "nonpayable",
      "type": "function"
    },
    {
      "inputs": [
        {
          "internalType": "bool",
          "name": "_skipEscrowWrites",
          "type": "bool"
        }
      ],
      "name": "setSkipEscrowWrites",
      "outputs": [],
      "stateMutability": "nonpayable",
      "type": "function"
    },
    {
      "inputs": [
        {
          "internalType": "bytes32",
          "name": "_version",
          "type": "bytes32"
        }
      ],
      "name": "setVersion",
      "outputs": [],
      "stateMutability": "nonpayable",
      "type": "function"
    },
    {
      "inputs": [
        {
          "internalType": "bytes",
          "name": "messageGMPPayload",
          "type": "bytes"
        },
        {
          "internalType": "bytes4",
          "name": "sourceGateway",
          "type": "bytes4"
        },
        {
          "internalType": "uint32",
          "name": "sourceHeight",
          "type": "uint32"
        }
      ],
      "name": "singleAttestationHash",
      "outputs": [
        {
          "internalType": "bytes32",
          "name": "",
          "type": "bytes32"
        }
      ],
      "stateMutability": "pure",
      "type": "function"
    },
    {
      "inputs": [],
      "name": "skipEscrowWrites",
      "outputs": [
        {
          "internalType": "bool",
          "name": "",
          "type": "bool"
        }
      ],
      "stateMutability": "view",
      "type": "function"
    },
    {
      "inputs": [
        {
          "internalType": "bytes4",
          "name": "interfaceId",
          "type": "bytes4"
        }
      ],
      "name": "supportsInterface",
      "outputs": [
        {
          "internalType": "bool",
          "name": "",
          "type": "bool"
        }
      ],
      "stateMutability": "view",
      "type": "function"
    },
    {
      "inputs": [],
      "name": "totalAttesters",
      "outputs": [
        {
          "internalType": "uint256",
          "name": "",
          "type": "uint256"
        }
      ],
      "stateMutability": "view",
      "type": "function"
    },
    {
      "inputs": [],
      "name": "turnOffCallCommitments",
      "outputs": [],
      "stateMutability": "nonpayable",
      "type": "function"
    },
    {
      "inputs": [],
      "name": "turnOffPayloadCommitments",
      "outputs": [],
      "stateMutability": "nonpayable",
      "type": "function"
    },
    {
      "inputs": [],
      "name": "turnOffSelfBatchIndexing",
      "outputs": [],
      "stateMutability": "nonpayable",
      "type": "function"
    },
    {
      "inputs": [],
      "name": "turnOnCallCommitments",
      "outputs": [],
      "stateMutability": "nonpayable",
      "type": "function"
    },
    {
      "inputs": [],
      "name": "turnOnPayloadCommitments",
      "outputs": [],
      "stateMutability": "nonpayable",
      "type": "function"
    },
    {
      "inputs": [],
      "name": "turnOnSelfBatchIndexing",
      "outputs": [],
      "stateMutability": "nonpayable",
      "type": "function"
    },
    {
      "inputs": [
        {
          "internalType": "uint256",
          "name": "newCommitteeSize",
          "type": "uint256"
        }
      ],
      "name": "updateCommitteeSize",
      "outputs": [],
      "stateMutability": "nonpayable",
      "type": "function"
    },
    {
      "inputs": [],
      "name": "version",
      "outputs": [
        {
          "internalType": "bytes32",
          "name": "",
          "type": "bytes32"
        }
      ],
      "stateMutability": "view",
      "type": "function"
    }
  ],
  "bytecode": "0x60806040523480156200001157600080fd5b50620000226200002860201b60201c565b620001d2565b600060019054906101000a900460ff16156200007b576040517f08c379a0000000000000000000000000000000000000000000000000000000008152600401620000729062000175565b60405180910390fd5b60ff801660008054906101000a900460ff1660ff1614620000ec5760ff6000806101000a81548160ff021916908360ff1602179055507f7f26b83ff96e1f2b6a682f133852f6798a09c465da95921460cefb384740249860ff604051620000e39190620001b5565b60405180910390a15b565b600082825260208201905092915050565b7f496e697469616c697a61626c653a20636f6e747261637420697320696e69746960008201527f616c697a696e6700000000000000000000000000000000000000000000000000602082015250565b60006200015d602783620000ee565b91506200016a82620000ff565b604082019050919050565b6000602082019050818103600083015262000190816200014e565b9050919050565b600060ff82169050919050565b620001af8162000197565b82525050565b6000602082019050620001cc6000830184620001a4565b92915050565b615f6680620001e26000396000f3fe608060405234801561001057600080fd5b50600436106103425760003560e01c8063964f7f54116101b8578063ba3eb84311610104578063d8cf1277116100a2578063e96e74311161007c578063e96e743114610961578063f3904eed1461097f578063f728ad491461099d578063fb63a342146109b957610342565b8063d8cf1277146108f9578063db7f0d0314610929578063dfa0795b1461094557610342565b8063ca5f81b5116100de578063ca5f81b514610899578063cad35f5d146108b5578063d547741f146108d3578063d6627cda146108ef57610342565b8063ba3eb84314610831578063c1ba4e5914610861578063c4f04aca1461087d57610342565b8063a9e4738111610171578063b38aee731161014b578063b38aee73146107ab578063b3ab15fb146107db578063b4242c49146107f7578063b5700e681461081357610342565b8063a9e4738114610757578063aba0880f14610773578063b18711e41461078f57610342565b8063964f7f5414610681578063969335021461069d57806397aba7f9146106cd5780639cf4364b146106fd578063a217fddf1461071b578063a7afe6071461073957610342565b80633014cbc91161029257806354fd4d5011610230578063628cf32f1161020a578063628cf32f1461061f57806388fd01021461063d57806391a5428c1461064757806391d148541461065157610342565b806354fd4d50146105b3578063596c3576146105d15780636090b30e1461060157610342565b8063391affb61161026c578063391affb614610553578063418409901461055d57806346697f14146105795780634c13eff01461059557610342565b80633014cbc9146104e957806336568abe14610519578063382ffa041461053557610342565b806313e7c9d8116102ff578063248a9ca3116102d9578063248a9ca314610477578063266273a9146104a75780632ebe21a7146104b15780632f2ff15d146104cd57610342565b806313e7c9d81461040b5780631703a0181461043b578063219043d91461045957610342565b806301c11f151461034757806301ffc9a7146103655780630660bab91461039557806308653f4b146103c55780630c89bdc9146103e35780631046d82c14610401575b600080fd5b61034f6109d7565b60405161035c9190613e5a565b60405180910390f35b61037f600480360381019061037a9190613ee1565b6109dd565b60405161038c9190613f29565b60405180910390f35b6103af60048036038101906103aa9190614356565b610a57565b6040516103bc919061441e565b60405180910390f35b6103cd610aa8565b6040516103da9190614459565b60405180910390f35b6103eb610aae565b6040516103f89190613f29565b60405180910390f35b610409610ac1565b005b61042560048036038101906104209190614474565b610b2a565b6040516104329190613f29565b60405180910390f35b610443610b4a565b6040516104509190614459565b60405180910390f35b610461610b50565b60405161046e9190613e5a565b60405180910390f35b610491600480360381019061048c91906144a1565b610b56565b60405161049e9190613e5a565b60405180910390f35b6104af610b76565b005b6104cb60048036038101906104c6919061450c565b610bdf565b005b6104e760048036038101906104e29190614539565b610c6f565b005b61050360048036038101906104fe9190614579565b610c90565b6040516105109190613e5a565b60405180910390f35b610533600480360381019061052e9190614539565b610ef2565b005b61053d610f75565b60405161054a9190613e5a565b60405180910390f35b61055b610f7b565b005b610577600480360381019061057291906145c2565b610fe4565b005b610593600480360381019061058e919061461b565b61104d565b005b61059d6110a3565b6040516105aa9190613f29565b60405180910390f35b6105bb6110b6565b6040516105c89190613e5a565b60405180910390f35b6105eb60048036038101906105e69190614356565b6110bc565b6040516105f89190613e5a565b60405180910390f35b6106096110d5565b6040516106169190614459565b60405180910390f35b6106276110db565b60405161063491906146a7565b60405180910390f35b610645611101565b005b61064f61116a565b005b61066b60048036038101906106669190614539565b6111d3565b6040516106789190613f29565b60405180910390f35b61069b6004803603810190610696919061450c565b61123e565b005b6106b760048036038101906106b2919061471d565b6112ce565b6040516106c4919061486b565b60405180910390f35b6106e760048036038101906106e2919061488d565b6114ec565b6040516106f491906148f8565b60405180910390f35b6107056115eb565b6040516107129190614459565b60405180910390f35b6107236115f1565b6040516107309190613e5a565b60405180910390f35b6107416115f8565b60405161074e9190613e5a565b60405180910390f35b610771600480360381019061076c9190614913565b6115fe565b005b61078d60048036038101906107889190614ab4565b611828565b005b6107a960048036038101906107a4919061461b565b611c20565b005b6107c560048036038101906107c091906144a1565b611cab565b6040516107d29190613f29565b60405180910390f35b6107f560048036038101906107f09190614474565b611ccb565b005b610811600480360381019061080c919061450c565b611d72565b005b61081b611e02565b6040516108289190614c04565b60405180910390f35b61084b60048036038101906108469190614c1f565b611e28565b6040516108589190613e5a565b60405180910390f35b61087b6004803603810190610876919061461b565b611e76565b005b610897600480360381019061089291906144a1565b611ecc565b005b6108b360048036038101906108ae91906144a1565b611f22565b005b6108bd611f78565b6040516108ca9190614459565b60405180910390f35b6108ed60048036038101906108e89190614539565b611f7e565b005b6108f7611f9f565b005b610913600480360381019061090e91906144a1565b612008565b6040516109209190613f29565b60405180910390f35b610943600480360381019061093e91906144a1565b612032565b005b61095f600480360381019061095a91906144a1565b612088565b005b610969612157565b6040516109769190614cb4565b60405180910390f35b61098761217d565b6040516109949190613f29565b60405180910390f35b6109b760048036038101906109b2919061461b565b612190565b005b6109c16121e6565b6040516109ce9190613f29565b60405180910390f35b60a55481565b60007f7965db0b000000000000000000000000000000000000000000000000000000007bffffffffffffffffffffffffffffffffffffffffffffffffffffffff1916827bffffffffffffffffffffffffffffffffffffffffffffffffffffffff19161480610a505750610a4f826121f9565b5b9050919050565b6060816000015182602001518360400151846060015185608001518660a001518760c00151604051602001610a929796959493929190614d9c565b6040516020818303038152906040529050919050565b609a5481565b609760029054906101000a900460ff1681565b610ace6000801b336111d3565b610b0d576040517f08c379a0000000000000000000000000000000000000000000000000000000008152600401610b0490614e7d565b60405180910390fd5b6000609760006101000a81548160ff021916908315150217905550565b60a66020528060005260406000206000915054906101000a900460ff1681565b60995481565b609f5481565b600060656000838152602001908152602001600020600101549050919050565b610b836000801b336111d3565b610bc2576040517f08c379a0000000000000000000000000000000000000000000000000000000008152600401610bb990614e7d565b60405180910390fd5b6001609760016101000a81548160ff021916908315150217905550565b610bec6000801b336111d3565b610c2b576040517f08c379a0000000000000000000000000000000000000000000000000000000008152600401610c2290614e7d565b60405180910390fd5b8060a360006101000a81548173ffffffffffffffffffffffffffffffffffffffff021916908373ffffffffffffffffffffffffffffffffffffffff16021790555050565b610c7882610b56565b610c8181612263565b610c8b8383612277565b505050565b600080825167ffffffffffffffff811115610cae57610cad613f5a565b5b604051908082528060200260200182016040528015610cdc5781602001602082028036833780820191505090505b50905060005b8351811015610d7c57838181518110610cfe57610cfd614e9d565b5b6020026020010151604051602001610d1691906148f8565b60405160208183030381529060405280519060200120604051602001610d3c9190614eed565b60405160208183030381529060405280519060200120828281518110610d6557610d64614e9d565b5b602002602001018181525050806001019050610ce2565b5060008067ffffffffffffffff811115610d9957610d98613f5a565b5b604051908082528060200260200182016040528015610dc75781602001602082028036833780820191505090505b509050600060018551610dda9190614f37565b67ffffffffffffffff811115610df357610df2613f5a565b5b604051908082528060200260200182016040528015610e215781602001602082028036833780820191505090505b50905060005b60018651610e359190614f37565b811015610e6e576001828281518110610e5157610e50614e9d565b5b602002602001019015159081151581525050806001019050610e27565b50600083519050600083519050600083519050600181610e8e9190614f6b565b8284610e9a9190614f6b565b14610eda576040517f08c379a0000000000000000000000000000000000000000000000000000000008152600401610ed190614feb565b60405180910390fd5b610ee5858588612358565b9650505050505050919050565b610efa61263a565b73ffffffffffffffffffffffffffffffffffffffff168173ffffffffffffffffffffffffffffffffffffffff1614610f67576040517f08c379a0000000000000000000000000000000000000000000000000000000008152600401610f5e9061507d565b60405180910390fd5b610f718282612642565b5050565b609d5481565b610f886000801b336111d3565b610fc7576040517f08c379a0000000000000000000000000000000000000000000000000000000008152600401610fbe90614e7d565b60405180910390fd5b6000609760026101000a81548160ff021916908315150217905550565b610ff16000801b336111d3565b611030576040517f08c379a000000000000000000000000000000000000000000000000000000000815260040161102790614e7d565b60405180910390fd5b8060a460146101000a81548160ff02191690831515021790555050565b61105a6000801b336111d3565b611099576040517f08c379a000000000000000000000000000000000000000000000000000000000815260040161109090614e7d565b60405180910390fd5b80609b8190555050565b60a460149054906101000a900460ff1681565b60a15481565b60006110c782610a57565b805190602001209050919050565b609b5481565b60a360009054906101000a900473ffffffffffffffffffffffffffffffffffffffff1681565b61110e6000801b336111d3565b61114d576040517f08c379a000000000000000000000000000000000000000000000000000000000815260040161114490614e7d565b60405180910390fd5b6001609760006101000a81548160ff021916908315150217905550565b6111776000801b336111d3565b6111b6576040517f08c379a00000000000000000000000000000000000000000000000000000000081526004016111ad90614e7d565b60405180910390fd5b6000609760016101000a81548160ff021916908315150217905550565b60006065600084815260200190815260200160002060000160008373ffffffffffffffffffffffffffffffffffffffff1673ffffffffffffffffffffffffffffffffffffffff16815260200190815260200160002060009054906101000a900460ff16905092915050565b61124b6000801b336111d3565b61128a576040517f08c379a000000000000000000000000000000000000000000000000000000000815260040161128190614e7d565b60405180910390fd5b8060a260006101000a81548173ffffffffffffffffffffffffffffffffffffffff021916908373ffffffffffffffffffffffffffffffffffffffff16021790555050565b606060008484905067ffffffffffffffff8111156112ef576112ee613f5a565b5b60405190808252806020026020018201604052801561131d5781602001602082028036833780820191505090505b50905060005b858590508110156114df5760006113a18888888581811061134757611346614e9d565b5b905060200281019061135991906150ac565b8080601f016020809104026020016040519081016040528093929190818152602001838380828437600081840152601f19601f820116905080830192505050505050506114ec565b9050600073ffffffffffffffffffffffffffffffffffffffff168173ffffffffffffffffffffffffffffffffffffffff1603611412576040517f08c379a00000000000000000000000000000000000000000000000000000000081526004016114099061515b565b60405180910390fd5b600085511115611467576114268582612724565b15611466576040517f08c379a000000000000000000000000000000000000000000000000000000000815260040161145d906151c7565b60405180910390fd5b5b8060405160200161147891906148f8565b6040516020818303038152906040528051906020012060405160200161149e9190614eed565b604051602081830303815290604052805190602001208383815181106114c7576114c6614e9d565b5b60200260200101818152505050806001019050611323565b5080915050949350505050565b600080600080604185511461150757600093505050506115e5565b6020850151925060408501519150606085015160001a9050601b8160ff16101561153b57601b8161153891906151f4565b90505b601b8160ff16141580156115535750601c8160ff1614155b1561156457600093505050506115e5565b6000866040516020016115779190615280565b604051602081830303815290604052805190602001209050600181838686604051600081526020016040526040516115b294939291906152b5565b6020604051602081039080840390855afa1580156115d4573d6000803e3d6000fd5b505050602060405103519450505050505b92915050565b60985481565b6000801b81565b609e5481565b60008060019054906101000a900460ff1615905080801561162f5750600160008054906101000a900460ff1660ff16105b8061165c575061163e306127a3565b15801561165b5750600160008054906101000a900460ff1660ff16145b5b61169b576040517f08c379a00000000000000000000000000000000000000000000000000000000081526004016116929061536c565b60405180910390fd5b60016000806101000a81548160ff021916908360ff16021790555080156116d8576001600060016101000a81548160ff0219169083151502179055505b6116e06127c6565b6116ed6000801b86612277565b6001609a819055508351609c8190555081609b8190555083516098819055506001845103611722576001609981905550611743565b600360028551611732919061538c565b61173c91906153fd565b6099819055505b60008451111561175d5761175684610c90565b609d819055505b6000835111156117775761177083610c90565b609f819055505b6000609760006101000a81548160ff0219169083151502179055506001609760016101000a81548160ff0219169083151502179055506001609760026101000a81548160ff02191690831515021790555080156118215760008060016101000a81548160ff0219169083151502179055507f7f26b83ff96e1f2b6a682f133852f6798a09c465da95921460cefb384740249860016040516118189190615469565b60405180910390a15b5050505050565b60008a8a8101906118399190614356565b9050600061184682610a57565b80519060200120905060a0600082815260200190815260200160002060009054906101000a900460ff16156118a957807f3c547cb4b7dc827d5c3aaac17f98aff5aa094596cb1916133ac4427dc8c795de60405160405180910390a25050611c14565b609760029054906101000a900460ff16611918576001609b546118cc9190614f6b565b8260c0015163ffffffff1614611917576040517f08c379a000000000000000000000000000000000000000000000000000000000815260040161190e906154d0565b60405180910390fd5b5b600061192a828a8a86608001516112ce565b905060995481511015611972576040517f08c379a00000000000000000000000000000000000000000000000000000000081526004016119699061553c565b60405180910390fd5b600083606001515111156119f65761199087878787609f5486612817565b6119cf576040517f08c379a00000000000000000000000000000000000000000000000000000000081526004016119c6906155a8565b60405180910390fd5b60006119de8460600151610c90565b9050609f54609d8190555080609f8190555050611a46565b611a0687878787609d5486612817565b611a45576040517f08c379a0000000000000000000000000000000000000000000000000000000008152600401611a3c90615614565b60405180910390fd5b5b8260a00151805190602001208b8b604051611a62929190615664565b604051809103902014611aaa576040517f08c379a0000000000000000000000000000000000000000000000000000000008152600401611aa1906156c9565b60405180910390fd5b60011515609760019054906101000a900460ff16151503611bc157600160a0600084815260200190815260200160002060006101000a81548160ff021916908315150217905550611afb8b8b612834565b611b3a576040517f08c379a0000000000000000000000000000000000000000000000000000000008152600401611b3190615735565b60405180910390fd5b8260c0015163ffffffff166001609b54611b549190614f6b565b03611b72578260c0015163ffffffff16609b819055508160a5819055505b609d543373ffffffffffffffffffffffffffffffffffffffff16837f1dd125d27303fb327a36f4793c6dcafe33994d23ec8d2278e94df79d9f192ea860405160405180910390a4505050611c14565b8260c0015163ffffffff163373ffffffffffffffffffffffffffffffffffffffff16837fc835ad3b532d866e1d8d2d335529952bd36fb9177505547b627d25ba9d24cf7060405160405180910390a45050505b50505050505050505050565b611c2d6000801b336111d3565b611c6c576040517f08c379a0000000000000000000000000000000000000000000000000000000008152600401611c6390614e7d565b60405180910390fd5b8060988190555060018103611c88576001609981905550611ca8565b6003600282611c97919061538c565b611ca191906153fd565b6099819055505b50565b60a06020528060005260406000206000915054906101000a900460ff1681565b611cd86000801b336111d3565b611d17576040517f08c379a0000000000000000000000000000000000000000000000000000000008152600401611d0e90614e7d565b60405180910390fd5b600160a660008373ffffffffffffffffffffffffffffffffffffffff1673ffffffffffffffffffffffffffffffffffffffff16815260200190815260200160002060006101000a81548160ff02191690831515021790555050565b611d7f6000801b336111d3565b611dbe576040517f08c379a0000000000000000000000000000000000000000000000000000000008152600401611db590614e7d565b60405180910390fd5b8060a460006101000a81548173ffffffffffffffffffffffffffffffffffffffff021916908373ffffffffffffffffffffffffffffffffffffffff16021790555050565b60a460009054906101000a900473ffffffffffffffffffffffffffffffffffffffff1681565b60008484604051611e3a929190615664565b60405180910390208383604051602001611e56939291906157ac565b604051602081830303815290604052805190602001209050949350505050565b611e836000801b336111d3565b611ec2576040517f08c379a0000000000000000000000000000000000000000000000000000000008152600401611eb990614e7d565b60405180910390fd5b8060998190555050565b611ed96000801b336111d3565b611f18576040517f08c379a0000000000000000000000000000000000000000000000000000000008152600401611f0f90614e7d565b60405180910390fd5b80609f8190555050565b611f2f6000801b336111d3565b611f6e576040517f08c379a0000000000000000000000000000000000000000000000000000000008152600401611f6590614e7d565b60405180910390fd5b8060a18190555050565b609c5481565b611f8782610b56565b611f9081612263565b611f9a8383612642565b505050565b611fac6000801b336111d3565b611feb576040517f08c379a0000000000000000000000000000000000000000000000000000000008152600401611fe290614e7d565b60405180910390fd5b6001609760026101000a81548160ff021916908315150217905550565b600060a0600083815260200190815260200160002060009054906101000a900460ff169050919050565b61203f6000801b336111d3565b61207e576040517f08c379a000000000000000000000000000000000000000000000000000000000815260040161207590614e7d565b60405180910390fd5b80609d8190555050565b6120956000801b336111d3565b806120e9575060a660003373ffffffffffffffffffffffffffffffffffffffff1673ffffffffffffffffffffffffffffffffffffffff16815260200190815260200160002060009054906101000a900460ff165b612128576040517f08c379a000000000000000000000000000000000000000000000000000000000815260040161211f90615835565b60405180910390fd5b600160a0600083815260200190815260200160002060006101000a81548160ff02191690831515021790555050565b60a260009054906101000a900473ffffffffffffffffffffffffffffffffffffffff1681565b609760019054906101000a900460ff1681565b61219d6000801b336111d3565b6121dc576040517f08c379a00000000000000000000000000000000000000000000000000000000081526004016121d390614e7d565b60405180910390fd5b80609b8190555050565b609760009054906101000a900460ff1681565b60007f01ffc9a7000000000000000000000000000000000000000000000000000000007bffffffffffffffffffffffffffffffffffffffffffffffffffffffff1916827bffffffffffffffffffffffffffffffffffffffffffffffffffffffff1916149050919050565b6122748161226f61263a565b61381e565b50565b61228182826111d3565b6123545760016065600084815260200190815260200160002060000160008373ffffffffffffffffffffffffffffffffffffffff1673ffffffffffffffffffffffffffffffffffffffff16815260200190815260200160002060006101000a81548160ff0219169083151502179055506122f961263a565b73ffffffffffffffffffffffffffffffffffffffff168173ffffffffffffffffffffffffffffffffffffffff16837f2f8788117e7eff1d82e926ec794901d17c78024a50270940304540a733656f0d60405160405180910390a45b5050565b60008082519050600085519050600085519050806001838561237a9190614f6b565b6123849190614f37565b146123c4576040517f08c379a00000000000000000000000000000000000000000000000000000000081526004016123bb906158a1565b60405180910390fd5b60008167ffffffffffffffff8111156123e0576123df613f5a565b5b60405190808252806020026020018201604052801561240e5781602001602082028036833780820191505090505b5090506000806000805b8581101561256257600088851061245557858480612435906158c1565b95508151811061244857612447614e9d565b5b602002602001015161247d565b8a8580612461906158c1565b96508151811061247457612473614e9d565b5b60200260200101515b905060008c838151811061249457612493614e9d565b5b60200260200101516124cc578d84806124ac906158c1565b9550815181106124bf576124be614e9d565b5b6020026020010151612528565b8986106124ff578685806124df906158c1565b9650815181106124f2576124f1614e9d565b5b6020026020010151612527565b8b868061250b906158c1565b97508151811061251e5761251d614e9d565b5b60200260200101515b5b905061253482826138a3565b87848151811061254757612546614e9d565b5b60200260200101818152505050508080600101915050612418565b5060008511156125da578581146125ae576040517f08c379a00000000000000000000000000000000000000000000000000000000081526004016125a5906158a1565b60405180910390fd5b8360018603815181106125c4576125c3614e9d565b5b6020026020010151975050505050505050612633565b600087111561260d57886000815181106125f7576125f6614e9d565b5b6020026020010151975050505050505050612633565b8a60008151811061262157612620614e9d565b5b60200260200101519750505050505050505b9392505050565b600033905090565b61264c82826111d3565b156127205760006065600084815260200190815260200160002060000160008373ffffffffffffffffffffffffffffffffffffffff1673ffffffffffffffffffffffffffffffffffffffff16815260200190815260200160002060006101000a81548160ff0219169083151502179055506126c561263a565b73ffffffffffffffffffffffffffffffffffffffff168173ffffffffffffffffffffffffffffffffffffffff16837ff6391f5c32d9c69d2a47ea670b442974b53935d1edc7fd64eb21e047a839171b60405160405180910390a45b5050565b600080600090505b8351811015612797578273ffffffffffffffffffffffffffffffffffffffff1684828151811061275f5761275e614e9d565b5b602002602001015173ffffffffffffffffffffffffffffffffffffffff160361278c57600191505061279d565b80600101905061272c565b50600090505b92915050565b6000808273ffffffffffffffffffffffffffffffffffffffff163b119050919050565b600060019054906101000a900460ff16612815576040517f08c379a000000000000000000000000000000000000000000000000000000000815260040161280c9061597b565b60405180910390fd5b565b60008261282788888888876138ce565b1490509695505050505050565b600080838390501161287b576040517f08c379a0000000000000000000000000000000000000000000000000000000008152600401612872906159e7565b60405180910390fd5b60005b8383905081101561381257600084848381811061289e5761289d614e9d565b5b9050013560f81c60f81b60f81c90506001826128ba9190614f6b565b9150600060068111156128d0576128cf615a07565b5b60ff168160ff1603612b48576034826128e99190614f6b565b8585905010612b34576000858584906020866129059190614f6b565b9261291293929190615a40565b9061291d9190615a93565b90506000801b8114612b32576000868660208661293a9190614f6b565b906034876129489190614f6b565b9261295593929190615a40565b906129609190615b1e565b60601c9050600073ffffffffffffffffffffffffffffffffffffffff168173ffffffffffffffffffffffffffffffffffffffff1614612a9f5760a460149054906101000a900460ff1680612a50575060a260009054906101000a900473ffffffffffffffffffffffffffffffffffffffff1673ffffffffffffffffffffffffffffffffffffffff1663ab8ca20583836040518363ffffffff1660e01b8152600401612a0c929190615b7d565b6020604051808303816000875af1158015612a2b573d6000803e3d6000fd5b505050506040513d601f19601f82011682018060405250810190612a4f9190615bbb565b5b15612a9a578073ffffffffffffffffffffffffffffffffffffffff16827fd7337f7580b42fe5b0f8bac83c97849d2d1de3e67217047587845e857c8598f160405160405180910390a35b612b30565b60a260009054906101000a900473ffffffffffffffffffffffffffffffffffffffff1673ffffffffffffffffffffffffffffffffffffffff1663d01179e68360006040518363ffffffff1660e01b8152600401612afd929190615b7d565b600060405180830381600087803b158015612b1757600080fd5b505af1158015612b2b573d6000803e3d6000fd5b505050505b505b505b603482612b419190614f6b565b915061380c565b600680811115612b5b57612b5a615a07565b5b60ff168160ff1603612fbd5760c882612b749190614f6b565b8585905010612fa957600085858490602086612b909190614f6b565b92612b9d93929190615a40565b90612ba89190615a93565b90506000801b8114612fa75760008686602086612bc59190614f6b565b90603487612bd39190614f6b565b92612be093929190615a40565b90612beb9190615b1e565b60601c9050600073ffffffffffffffffffffffffffffffffffffffff168173ffffffffffffffffffffffffffffffffffffffff1614612f145760008787603487612c359190614f6b565b90605488612c439190614f6b565b92612c5093929190615a40565b90612c5b9190615a93565b60001c905060a460149054906101000a900460ff1680612d19575060a260009054906101000a900473ffffffffffffffffffffffffffffffffffffffff1673ffffffffffffffffffffffffffffffffffffffff1663b241c05b8484846040518463ffffffff1660e01b8152600401612cd593929190615be8565b6020604051808303816000875af1158015612cf4573d6000803e3d6000fd5b505050506040513d601f19601f82011682018060405250810190612d189190615bbb565b5b15612d63578173ffffffffffffffffffffffffffffffffffffffff16837fd7337f7580b42fe5b0f8bac83c97849d2d1de3e67217047587845e857c8598f160405160405180910390a35b60008888605488612d749190614f6b565b90606889612d829190614f6b565b92612d8f93929190615a40565b90612d9a9190615b1e565b60601c905060008989606889612db09190614f6b565b90607c8a612dbe9190614f6b565b92612dcb93929190615a40565b90612dd69190615b1e565b60601c905060008a8a607c8a612dec9190614f6b565b90609c8b612dfa9190614f6b565b92612e0793929190615a40565b90612e129190615a93565b60001c905060008b8b609c8b612e289190614f6b565b9060bc8c612e369190614f6b565b92612e4393929190615a40565b90612e4e9190615a93565b60001c905060008c8c60bc8c612e649190614f6b565b9060c08d612e729190614f6b565b92612e7f93929190615a40565b90612e8a9190615c1f565b60e01c905060008d8d60c08d612ea09190614f6b565b9060c48e612eae9190614f6b565b92612ebb93929190615a40565b90612ec69190615c1f565b60e01c905060008e8e60c48e612edc9190614f6b565b9060c88f612eea9190614f6b565b92612ef793929190615a40565b90612f029190615c1f565b60e01c90505050505050505050612fa5565b60a260009054906101000a900473ffffffffffffffffffffffffffffffffffffffff1673ffffffffffffffffffffffffffffffffffffffff1663d01179e68360006040518363ffffffff1660e01b8152600401612f72929190615b7d565b600060405180830381600087803b158015612f8c57600080fd5b505af1158015612fa0573d6000803e3d6000fd5b505050505b505b505b60c882612fb69190614f6b565b915061380b565b60016006811115612fd157612fd0615a07565b5b60ff168160ff160361306e57602082612fea9190614f6b565b858590501061305a576000858584906020866130069190614f6b565b9261301393929190615a40565b9061301e9190615a93565b90506000801b811461305857807f89fcfba9a72e4453d6309b0d2a6dbafc32452aea34d7fbe827e66895a194983d60405160405180910390a25b505b6020826130679190614f6b565b915061380a565b6002600681111561308257613081615a07565b5b60ff168160ff16036132fa5760208261309b9190614f6b565b85859050106132e6576000858584906020866130b79190614f6b565b926130c493929190615a40565b906130cf9190615a93565b90506000801b81146132e457600086866020866130ec9190614f6b565b906034876130fa9190614f6b565b9261310793929190615a40565b906131129190615b1e565b60601c9050600073ffffffffffffffffffffffffffffffffffffffff168173ffffffffffffffffffffffffffffffffffffffff16146132515760a460149054906101000a900460ff1680613202575060a260009054906101000a900473ffffffffffffffffffffffffffffffffffffffff1673ffffffffffffffffffffffffffffffffffffffff1663bedbe87183836040518363ffffffff1660e01b81526004016131be929190615b7d565b6020604051808303816000875af11580156131dd573d6000803e3d6000fd5b505050506040513d601f19601f820116820180604052508101906132019190615bbb565b5b1561324c578073ffffffffffffffffffffffffffffffffffffffff16827f057a6b832b75b12eb2501da406eda28ab4d7c25abe97b8661a050da7fe23da5560405160405180910390a35b6132e2565b60a260009054906101000a900473ffffffffffffffffffffffffffffffffffffffff1673ffffffffffffffffffffffffffffffffffffffff1663d01179e68360006040518363ffffffff1660e01b81526004016132af929190615b7d565b600060405180830381600087803b1580156132c957600080fd5b505af11580156132dd573d6000803e3d6000fd5b505050505b505b505b6020826132f39190614f6b565b9150613809565b6005600681111561330e5761330d615a07565b5b60ff168160ff16036135b95760e0826133279190614f6b565b85859050106135a5576000858584906020866133439190614f6b565b9261335093929190615a40565b9061335b9190615a93565b90506000868660208661336e9190614f6b565b9060408761337c9190614f6b565b9261338993929190615a40565b906133949190615a93565b9050600087876040876133a79190614f6b565b906060886133b59190614f6b565b926133c293929190615a40565b906133cd9190615a93565b9050600088886060886133e09190614f6b565b906080896133ee9190614f6b565b926133fb93929190615a40565b906134069190615a93565b9050600089896080896134199190614f6b565b9060a08a6134279190614f6b565b9261343493929190615a40565b9061343f9190615a93565b905060008a8a60a08a6134529190614f6b565b9060c08b6134609190614f6b565b9261346d93929190615a40565b906134789190615a93565b905060008b8b60c08b61348b9190614f6b565b9060e08c6134999190614f6b565b926134a693929190615a40565b906134b19190615a93565b9050600073ffffffffffffffffffffffffffffffffffffffff1660a460009054906101000a900473ffffffffffffffffffffffffffffffffffffffff1673ffffffffffffffffffffffffffffffffffffffff161461359d5760a460009054906101000a900473ffffffffffffffffffffffffffffffffffffffff1673ffffffffffffffffffffffffffffffffffffffff16634864f3bd888888888888886040518863ffffffff1660e01b81526004016135709796959493929190615c7e565b600060405180830381600087803b15801561358a57600080fd5b505af192505050801561359b575060015b505b505050505050505b60e0826135b29190614f6b565b9150613808565b600460068111156135cd576135cc615a07565b5b60ff168160ff16036137fc57609760009054906101000a900460ff16801561360457506068826135fd9190614f6b565b8585905010155b156137e85760008585849060208661361c9190614f6b565b9261362993929190615a40565b906136349190615a93565b90506000801b81146137e657600086866020866136519190614f6b565b9060408761365f9190614f6b565b9261366c93929190615a40565b906136779190615a93565b60001c90506000878760408761368d9190614f6b565b9060548861369b9190614f6b565b926136a893929190615a40565b906136b39190615b1e565b60601c9050600088886054886136c99190614f6b565b906068896136d79190614f6b565b926136e493929190615a40565b906136ef9190615b1e565b60601c905060a460149054906101000a900460ff16806137af575060a260009054906101000a900473ffffffffffffffffffffffffffffffffffffffff1673ffffffffffffffffffffffffffffffffffffffff166329d8712e858486856040518563ffffffff1660e01b815260040161376b9493929190615ced565b6020604051808303816000875af115801561378a573d6000803e3d6000fd5b505050506040513d601f19601f820116820180604052508101906137ae9190615bbb565b5b156137e257837ff018de713879f4bceb9bde35fcf6e6f75026e99a8e49f4cc82e4269eefcc92bb60405160405180910390a25b5050505b505b6068826137f59190614f6b565b9150613807565b600092505050613818565b5b5b5b5b5b5061287e565b60019150505b92915050565b61382882826111d3565b61389f5761383581613bc1565b6138438360001c6020613bee565b604051602001613854929190615e06565b6040516020818303038152906040526040517f08c379a00000000000000000000000000000000000000000000000000000000081526004016138969190615e79565b60405180910390fd5b5050565b60008183106138bb576138b68284613e2a565b6138c6565b6138c58383613e2a565b5b905092915050565b600080825190506000878790509050600086869050905080600183856138f49190614f6b565b6138fe9190614f37565b1461393e576040517f08c379a0000000000000000000000000000000000000000000000000000000008152600401613935906158a1565b60405180910390fd5b60008167ffffffffffffffff81111561395a57613959613f5a565b5b6040519080825280602002602001820160405280156139885781602001602082028036833780820191505090505b5090506000806000805b85811015613ae85760008885106139cf578584806139af906158c1565b9550815181106139c2576139c1614e9d565b5b60200260200101516139f7565b8a85806139db906158c1565b9650815181106139ee576139ed614e9d565b5b60200260200101515b905060008d8d84818110613a0e57613a0d614e9d565b5b9050602002016020810190613a2391906145c2565b613a52578f8f8580613a34906158c1565b9650818110613a4657613a45614e9d565b5b90506020020135613aae565b898610613a8557868580613a65906158c1565b965081518110613a7857613a77614e9d565b5b6020026020010151613aad565b8b8680613a91906158c1565b975081518110613aa457613aa3614e9d565b5b60200260200101515b5b9050613aba82826138a3565b878481518110613acd57613acc614e9d565b5b60200260200101818152505050508080600101915050613992565b506000851115613b6057858114613b34576040517f08c379a0000000000000000000000000000000000000000000000000000000008152600401613b2b906158a1565b60405180910390fd5b836001860381518110613b4a57613b49614e9d565b5b6020026020010151975050505050505050613bb8565b6000871115613b935788600081518110613b7d57613b7c614e9d565b5b6020026020010151975050505050505050613bb8565b8c8c6000818110613ba757613ba6614e9d565b5b905060200201359750505050505050505b95945050505050565b6060613be78273ffffffffffffffffffffffffffffffffffffffff16601460ff16613bee565b9050919050565b606060006002836002613c01919061538c565b613c0b9190614f6b565b67ffffffffffffffff811115613c2457613c23613f5a565b5b6040519080825280601f01601f191660200182016040528015613c565781602001600182028036833780820191505090505b5090507f300000000000000000000000000000000000000000000000000000000000000081600081518110613c8e57613c8d614e9d565b5b60200101907effffffffffffffffffffffffffffffffffffffffffffffffffffffffffffff1916908160001a9053507f780000000000000000000000000000000000000000000000000000000000000081600181518110613cf257613cf1614e9d565b5b60200101907effffffffffffffffffffffffffffffffffffffffffffffffffffffffffffff1916908160001a90535060006001846002613d32919061538c565b613d3c9190614f6b565b90505b6001811115613ddc577f3031323334353637383961626364656600000000000000000000000000000000600f861660108110613d7e57613d7d614e9d565b5b1a60f81b828281518110613d9557613d94614e9d565b5b60200101907effffffffffffffffffffffffffffffffffffffffffffffffffffffffffffff1916908160001a905350600485901c945080613dd590615e9b565b9050613d3f565b5060008414613e20576040517f08c379a0000000000000000000000000000000000000000000000000000000008152600401613e1790615f10565b60405180910390fd5b8091505092915050565b600082600052816020526040600020905092915050565b6000819050919050565b613e5481613e41565b82525050565b6000602082019050613e6f6000830184613e4b565b92915050565b6000604051905090565b600080fd5b600080fd5b60007fffffffff0000000000000000000000000000000000000000000000000000000082169050919050565b613ebe81613e89565b8114613ec957600080fd5b50565b600081359050613edb81613eb5565b92915050565b600060208284031215613ef757613ef6613e7f565b5b6000613f0584828501613ecc565b91505092915050565b60008115159050919050565b613f2381613f0e565b82525050565b6000602082019050613f3e6000830184613f1a565b92915050565b600080fd5b6000601f19601f8301169050919050565b7f4e487b7100000000000000000000000000000000000000000000000000000000600052604160045260246000fd5b613f9282613f49565b810181811067ffffffffffffffff82111715613fb157613fb0613f5a565b5b80604052505050565b6000613fc4613e75565b9050613fd08282613f89565b919050565b600080fd5b613fe381613f0e565b8114613fee57600080fd5b50565b60008135905061400081613fda565b92915050565b61400f81613e41565b811461401a57600080fd5b50565b60008135905061402c81614006565b92915050565b600080fd5b600067ffffffffffffffff82111561405257614051613f5a565b5b602082029050602081019050919050565b600080fd5b600073ffffffffffffffffffffffffffffffffffffffff82169050919050565b600061409382614068565b9050919050565b6140a381614088565b81146140ae57600080fd5b50565b6000813590506140c08161409a565b92915050565b60006140d96140d484614037565b613fba565b905080838252602082019050602084028301858111156140fc576140fb614063565b5b835b81811015614125578061411188826140b1565b8452602084019350506020810190506140fe565b5050509392505050565b600082601f83011261414457614143614032565b5b81356141548482602086016140c6565b91505092915050565b600080fd5b600067ffffffffffffffff82111561417d5761417c613f5a565b5b61418682613f49565b9050602081019050919050565b82818337600083830152505050565b60006141b56141b084614162565b613fba565b9050828152602081018484840111156141d1576141d061415d565b5b6141dc848285614193565b509392505050565b600082601f8301126141f9576141f8614032565b5b81356142098482602086016141a2565b91505092915050565b600063ffffffff82169050919050565b61422b81614212565b811461423657600080fd5b50565b60008135905061424881614222565b92915050565b600060e0828403121561426457614263613f44565b5b61426e60e0613fba565b9050600061427e84828501613ff1565b60008301525060206142928482850161401d565b60208301525060406142a68482850161401d565b604083015250606082013567ffffffffffffffff8111156142ca576142c9613fd5565b5b6142d68482850161412f565b606083015250608082013567ffffffffffffffff8111156142fa576142f9613fd5565b5b6143068482850161412f565b60808301525060a082013567ffffffffffffffff81111561432a57614329613fd5565b5b614336848285016141e4565b60a08301525060c061434a84828501614239565b60c08301525092915050565b60006020828403121561436c5761436b613e7f565b5b600082013567ffffffffffffffff81111561438a57614389613e84565b5b6143968482850161424e565b91505092915050565b600081519050919050565b600082825260208201905092915050565b60005b838110156143d95780820151818401526020810190506143be565b60008484015250505050565b60006143f08261439f565b6143fa81856143aa565b935061440a8185602086016143bb565b61441381613f49565b840191505092915050565b6000602082019050818103600083015261443881846143e5565b905092915050565b6000819050919050565b61445381614440565b82525050565b600060208201905061446e600083018461444a565b92915050565b60006020828403121561448a57614489613e7f565b5b6000614498848285016140b1565b91505092915050565b6000602082840312156144b7576144b6613e7f565b5b60006144c58482850161401d565b91505092915050565b60006144d982614068565b9050919050565b6144e9816144ce565b81146144f457600080fd5b50565b600081359050614506816144e0565b92915050565b60006020828403121561452257614521613e7f565b5b6000614530848285016144f7565b91505092915050565b600080604083850312156145505761454f613e7f565b5b600061455e8582860161401d565b925050602061456f858286016140b1565b9150509250929050565b60006020828403121561458f5761458e613e7f565b5b600082013567ffffffffffffffff8111156145ad576145ac613e84565b5b6145b98482850161412f565b91505092915050565b6000602082840312156145d8576145d7613e7f565b5b60006145e684828501613ff1565b91505092915050565b6145f881614440565b811461460357600080fd5b50565b600081359050614615816145ef565b92915050565b60006020828403121561463157614630613e7f565b5b600061463f84828501614606565b91505092915050565b6000819050919050565b600061466d61466861466384614068565b614648565b614068565b9050919050565b600061467f82614652565b9050919050565b600061469182614674565b9050919050565b6146a181614686565b82525050565b60006020820190506146bc6000830184614698565b92915050565b600080fd5b60008083601f8401126146dd576146dc614032565b5b8235905067ffffffffffffffff8111156146fa576146f96146c2565b5b60208301915083602082028301111561471657614715614063565b5b9250929050565b6000806000806060858703121561473757614736613e7f565b5b60006147458782880161401d565b945050602085013567ffffffffffffffff81111561476657614765613e84565b5b614772878288016146c7565b9350935050604085013567ffffffffffffffff81111561479557614794613e84565b5b6147a18782880161412f565b91505092959194509250565b600081519050919050565b600082825260208201905092915050565b6000819050602082019050919050565b6147e281613e41565b82525050565b60006147f483836147d9565b60208301905092915050565b6000602082019050919050565b6000614818826147ad565b61482281856147b8565b935061482d836147c9565b8060005b8381101561485e57815161484588826147e8565b975061485083614800565b925050600181019050614831565b5085935050505092915050565b60006020820190508181036000830152614885818461480d565b905092915050565b600080604083850312156148a4576148a3613e7f565b5b60006148b28582860161401d565b925050602083013567ffffffffffffffff8111156148d3576148d2613e84565b5b6148df858286016141e4565b9150509250929050565b6148f281614088565b82525050565b600060208201905061490d60008301846148e9565b92915050565b6000806000806080858703121561492d5761492c613e7f565b5b600061493b878288016140b1565b945050602085013567ffffffffffffffff81111561495c5761495b613e84565b5b6149688782880161412f565b935050604085013567ffffffffffffffff81111561498957614988613e84565b5b6149958782880161412f565b92505060606149a687828801614606565b91505092959194509250565b60008083601f8401126149c8576149c7614032565b5b8235905067ffffffffffffffff8111156149e5576149e46146c2565b5b602083019150836001820283011115614a0157614a00614063565b5b9250929050565b60008083601f840112614a1e57614a1d614032565b5b8235905067ffffffffffffffff811115614a3b57614a3a6146c2565b5b602083019150836020820283011115614a5757614a56614063565b5b9250929050565b60008083601f840112614a7457614a73614032565b5b8235905067ffffffffffffffff811115614a9157614a906146c2565b5b602083019150836020820283011115614aad57614aac614063565b5b9250929050565b60008060008060008060008060008060a08b8d031215614ad757614ad6613e7f565b5b60008b013567ffffffffffffffff811115614af557614af4613e84565b5b614b018d828e016149b2565b9a509a505060208b013567ffffffffffffffff811115614b2457614b23613e84565b5b614b308d828e016149b2565b985098505060408b013567ffffffffffffffff811115614b5357614b52613e84565b5b614b5f8d828e016146c7565b965096505060608b013567ffffffffffffffff811115614b8257614b81613e84565b5b614b8e8d828e01614a08565b945094505060808b013567ffffffffffffffff811115614bb157614bb0613e84565b5b614bbd8d828e01614a5e565b92509250509295989b9194979a5092959850565b6000614bdc82614652565b9050919050565b6000614bee82614bd1565b9050919050565b614bfe81614be3565b82525050565b6000602082019050614c196000830184614bf5565b92915050565b60008060008060608587031215614c3957614c38613e7f565b5b600085013567ffffffffffffffff811115614c5757614c56613e84565b5b614c63878288016149b2565b94509450506020614c7687828801613ecc565b9250506040614c8787828801614239565b91505092959194509250565b6000614c9e82614bd1565b9050919050565b614cae81614c93565b82525050565b6000602082019050614cc96000830184614ca5565b92915050565b600081519050919050565b600082825260208201905092915050565b6000819050602082019050919050565b614d0481614088565b82525050565b6000614d168383614cfb565b60208301905092915050565b6000602082019050919050565b6000614d3a82614ccf565b614d448185614cda565b9350614d4f83614ceb565b8060005b83811015614d80578151614d678882614d0a565b9750614d7283614d22565b925050600181019050614d53565b5085935050505092915050565b614d9681614212565b82525050565b600060e082019050614db1600083018a613f1a565b614dbe6020830189613e4b565b614dcb6040830188613e4b565b8181036060830152614ddd8187614d2f565b90508181036080830152614df18186614d2f565b905081810360a0830152614e0581856143e5565b9050614e1460c0830184614d8d565b98975050505050505050565b600082825260208201905092915050565b7f4f4e4c595f4f574e455200000000000000000000000000000000000000000000600082015250565b6000614e67600a83614e20565b9150614e7282614e31565b602082019050919050565b60006020820190508181036000830152614e9681614e5a565b9050919050565b7f4e487b7100000000000000000000000000000000000000000000000000000000600052603260045260246000fd5b6000819050919050565b614ee7614ee282613e41565b614ecc565b82525050565b6000614ef98284614ed6565b60208201915081905092915050565b7f4e487b7100000000000000000000000000000000000000000000000000000000600052601160045260246000fd5b6000614f4282614440565b9150614f4d83614440565b9250828203905081811115614f6557614f64614f08565b5b92915050565b6000614f7682614440565b9150614f8183614440565b9250828201905080821115614f9957614f98614f08565b5b92915050565b7f50524f4f465f4c454e4754480000000000000000000000000000000000000000600082015250565b6000614fd5600c83614e20565b9150614fe082614f9f565b602082019050919050565b6000602082019050818103600083015261500481614fc8565b9050919050565b7f416363657373436f6e74726f6c3a2063616e206f6e6c792072656e6f756e636560008201527f20726f6c657320666f722073656c660000000000000000000000000000000000602082015250565b6000615067602f83614e20565b91506150728261500b565b604082019050919050565b600060208201905081810360008301526150968161505a565b9050919050565b600080fd5b600080fd5b600080fd5b600080833560016020038436030381126150c9576150c861509d565b5b80840192508235915067ffffffffffffffff8211156150eb576150ea6150a2565b5b602083019250600182023603831315615107576151066150a7565b5b509250929050565b7f4241445f5349474e415455524500000000000000000000000000000000000000600082015250565b6000615145600d83614e20565b91506151508261510f565b602082019050919050565b6000602082019050818103600083015261517481615138565b9050919050565b7f5349474e45525f42414e4e454400000000000000000000000000000000000000600082015250565b60006151b1600d83614e20565b91506151bc8261517b565b602082019050919050565b600060208201905081810360008301526151e0816151a4565b9050919050565b600060ff82169050919050565b60006151ff826151e7565b915061520a836151e7565b9250828201905060ff81111561522357615222614f08565b5b92915050565b600081905092915050565b7f19457468657265756d205369676e6564204d6573736167653a0a333200000000600082015250565b600061526a601c83615229565b915061527582615234565b601c82019050919050565b600061528b8261525d565b91506152978284614ed6565b60208201915081905092915050565b6152af816151e7565b82525050565b60006080820190506152ca6000830187613e4b565b6152d760208301866152a6565b6152e46040830185613e4b565b6152f16060830184613e4b565b95945050505050565b7f496e697469616c697a61626c653a20636f6e747261637420697320616c72656160008201527f647920696e697469616c697a6564000000000000000000000000000000000000602082015250565b6000615356602e83614e20565b9150615361826152fa565b604082019050919050565b6000602082019050818103600083015261538581615349565b9050919050565b600061539782614440565b91506153a283614440565b92508282026153b081614440565b915082820484148315176153c7576153c6614f08565b5b5092915050565b7f4e487b7100000000000000000000000000000000000000000000000000000000600052601260045260246000fd5b600061540882614440565b915061541383614440565b925082615423576154226153ce565b5b828204905092915050565b6000819050919050565b600061545361544e6154498461542e565b614648565b6151e7565b9050919050565b61546381615438565b82525050565b600060208201905061547e600083018461545a565b92915050565b7f42415443485f494e4445585f4d49534d41544348000000000000000000000000600082015250565b60006154ba601483614e20565b91506154c582615484565b602082019050919050565b600060208201905081810360008301526154e9816154ad565b9050919050565b7f494e53554646494349454e545f51554f52554d00000000000000000000000000600082015250565b6000615526601383614e20565b9150615531826154f0565b602082019050919050565b6000602082019050818103600083015261555581615519565b9050919050565b7f50524f4f465f4e4558545f564552494649434154494f4e5f4641494c45440000600082015250565b6000615592601e83614e20565b915061559d8261555c565b602082019050919050565b600060208201905081810360008301526155c181615585565b9050919050565b7f50524f4f465f564552494649434154494f4e5f4641494c454400000000000000600082015250565b60006155fe601983614e20565b9150615609826155c8565b602082019050919050565b6000602082019050818103600083015261562d816155f1565b9050919050565b600081905092915050565b600061564b8385615634565b9350615658838584614193565b82840190509392505050565b600061567182848661563f565b91508190509392505050565b7f474d505f5041594c4f41445f4d49534d41544348000000000000000000000000600082015250565b60006156b3601483614e20565b91506156be8261567d565b602082019050919050565b600060208201905081810360008301526156e2816156a6565b9050919050565b7f5041594c4f41445f50524f43455353494e475f4641494c454400000000000000600082015250565b600061571f601983614e20565b915061572a826156e9565b602082019050919050565b6000602082019050818103600083015261574e81615712565b9050919050565b6000819050919050565b61577061576b82613e89565b615755565b82525050565b60008160e01b9050919050565b600061578e82615776565b9050919050565b6157a66157a182614212565b615783565b82525050565b60006157b88286614ed6565b6020820191506157c8828561575f565b6004820191506157d88284615795565b600482019150819050949350505050565b7f4f4e4c595f4f574e45525f4f525f4f50455241544f5200000000000000000000600082015250565b600061581f601683614e20565b915061582a826157e9565b602082019050919050565b6000602082019050818103600083015261584e81615812565b9050919050565b7f4d65726b6c6550726f6f663a20696e76616c6964206d756c746970726f6f6600600082015250565b600061588b601f83614e20565b915061589682615855565b602082019050919050565b600060208201905081810360008301526158ba8161587e565b9050919050565b60006158cc82614440565b91507fffffffffffffffffffffffffffffffffffffffffffffffffffffffffffffffff82036158fe576158fd614f08565b5b600182019050919050565b7f496e697469616c697a61626c653a20636f6e7472616374206973206e6f74206960008201527f6e697469616c697a696e67000000000000000000000000000000000000000000602082015250565b6000615965602b83614e20565b915061597082615909565b604082019050919050565b6000602082019050818103600083015261599481615958565b9050919050565b7f454d5054595f5041594c4f414400000000000000000000000000000000000000600082015250565b60006159d1600d83614e20565b91506159dc8261599b565b602082019050919050565b60006020820190508181036000830152615a00816159c4565b9050919050565b7f4e487b7100000000000000000000000000000000000000000000000000000000600052602160045260246000fd5b600080fd5b600080fd5b60008085851115615a5457615a53615a36565b5b83861115615a6557615a64615a3b565b5b6001850283019150848603905094509492505050565b600082905092915050565b600082821b905092915050565b6000615a9f8383615a7b565b82615aaa8135613e41565b92506020821015615aea57615ae57fffffffffffffffffffffffffffffffffffffffffffffffffffffffffffffffff83602003600802615a86565b831692505b505092915050565b60007fffffffffffffffffffffffffffffffffffffffff00000000000000000000000082169050919050565b6000615b2a8383615a7b565b82615b358135615af2565b92506014821015615b7557615b707fffffffffffffffffffffffffffffffffffffffff00000000000000000000000083601403600802615a86565b831692505b505092915050565b6000604082019050615b926000830185613e4b565b615b9f60208301846148e9565b9392505050565b600081519050615bb581613fda565b92915050565b600060208284031215615bd157615bd0613e7f565b5b6000615bdf84828501615ba6565b91505092915050565b6000606082019050615bfd6000830186613e4b565b615c0a60208301856148e9565b615c17604083018461444a565b949350505050565b6000615c2b8383615a7b565b82615c368135613e89565b92506004821015615c7657615c717fffffffff0000000000000000000000000000000000000000000000000000000083600403600802615a86565b831692505b505092915050565b600060e082019050615c93600083018a613e4b565b615ca06020830189613e4b565b615cad6040830188613e4b565b615cba6060830187613e4b565b615cc76080830186613e4b565b615cd460a0830185613e4b565b615ce160c0830184613e4b565b98975050505050505050565b6000608082019050615d026000830187613e4b565b615d0f60208301866148e9565b615d1c604083018561444a565b615d2960608301846148e9565b95945050505050565b7f416363657373436f6e74726f6c3a206163636f756e7420000000000000000000600082015250565b6000615d68601783615229565b9150615d7382615d32565b601782019050919050565b600081519050919050565b6000615d9482615d7e565b615d9e8185615229565b9350615dae8185602086016143bb565b80840191505092915050565b7f206973206d697373696e6720726f6c6520000000000000000000000000000000600082015250565b6000615df0601183615229565b9150615dfb82615dba565b601182019050919050565b6000615e1182615d5b565b9150615e1d8285615d89565b9150615e2882615de3565b9150615e348284615d89565b91508190509392505050565b6000615e4b82615d7e565b615e558185614e20565b9350615e658185602086016143bb565b615e6e81613f49565b840191505092915050565b60006020820190508181036000830152615e938184615e40565b905092915050565b6000615ea682614440565b915060008203615eb957615eb8614f08565b5b600182039050919050565b7f537472696e67733a20686578206c656e67746820696e73756666696369656e74600082015250565b6000615efa602083614e20565b9150615f0582615ec4565b602082019050919050565b60006020820190508181036000830152615f2981615eed565b905091905056fea26469706673582212204304b1cbb4124eaac8d36e0bb38861cd87f33e10eaad3b2cb3ddd46ba30d930e64736f6c63430008180033",
  "linkReferences": {},
  "deployedLinkReferences": {}
}