{
  "_format": "hh-sol-artifact-1",
  "contractName": "AttestersPortal",
  "sourceName": "contracts/attestersPortal.sol",
  "abi": [
    {
      "inputs": [],
      "stateMutability": "nonpayable",
      "type": "constructor"
    },
    {
      "anonymous": false,
      "inputs": [
        {
          "indexed": false,
          "internalType": "uint8",
          "name": "version",
          "type": "uint8"
        }
      ],
      "name": "Initialized",
      "type": "event"
    },
    {
      "anonymous": false,
      "inputs": [
        {
          "indexed": true,
          "internalType": "bytes32",
          "name": "role",
          "type": "bytes32"
        },
        {
          "indexed": true,
          "internalType": "bytes32",
          "name": "previousAdminRole",
          "type": "bytes32"
        },
        {
          "indexed": true,
          "internalType": "bytes32",
          "name": "newAdminRole",
          "type": "bytes32"
        }
      ],
      "name": "RoleAdminChanged",
      "type": "event"
    },
    {
      "anonymous": false,
      "inputs": [
        {
          "indexed": true,
          "internalType": "bytes32",
          "name": "role",
          "type": "bytes32"
        },
        {
          "indexed": true,
          "internalType": "address",
          "name": "account",
          "type": "address"
        },
        {
          "indexed": true,
          "internalType": "address",
          "name": "sender",
          "type": "address"
        }
      ],
      "name": "RoleGranted",
      "type": "event"
    },
    {
      "anonymous": false,
      "inputs": [
        {
          "indexed": true,
          "internalType": "bytes32",
          "name": "role",
          "type": "bytes32"
        },
        {
          "indexed": true,
          "internalType": "address",
          "name": "account",
          "type": "address"
        },
        {
          "indexed": true,
          "internalType": "address",
          "name": "sender",
          "type": "address"
        }
      ],
      "name": "RoleRevoked",
      "type": "event"
    },
    {
      "stateMutability": "payable",
      "type": "fallback"
    },
    {
      "inputs": [],
      "name": "DEFAULT_ADMIN_ROLE",
      "outputs": [
        {
          "internalType": "bytes32",
          "name": "",
          "type": "bytes32"
        }
      ],
      "stateMutability": "view",
      "type": "function"
    },
    {
      "inputs": [
        {
          "internalType": "address",
          "name": "attester",
          "type": "address"
        }
      ],
      "name": "addAttester",
      "outputs": [],
      "stateMutability": "nonpayable",
      "type": "function"
    },
    {
      "inputs": [
        {
          "internalType": "uint256",
          "name": "",
          "type": "uint256"
        }
      ],
      "name": "attesters",
      "outputs": [
        {
          "internalType": "address",
          "name": "",
          "type": "address"
        }
      ],
      "stateMutability": "view",
      "type": "function"
    },
    {
      "inputs": [],
      "name": "attestersStaking",
      "outputs": [
        {
          "internalType": "contract AttestersStaking",
          "name": "",
          "type": "address"
        }
      ],
      "stateMutability": "view",
      "type": "function"
    },
    {
      "inputs": [],
      "name": "calculateCurrentCommitteeStake",
      "outputs": [
        {
          "internalType": "uint256",
          "name": "",
          "type": "uint256"
        }
      ],
      "stateMutability": "view",
      "type": "function"
    },
    {
      "inputs": [],
      "name": "committeeRotationLockPeriod",
      "outputs": [
        {
          "internalType": "uint256",
          "name": "",
          "type": "uint256"
        }
      ],
      "stateMutability": "view",
      "type": "function"
    },
    {
      "inputs": [],
      "name": "committeeSize",
      "outputs": [
        {
          "internalType": "uint256",
          "name": "",
          "type": "uint256"
        }
      ],
      "stateMutability": "view",
      "type": "function"
    },
    {
      "inputs": [
        {
          "internalType": "uint256",
          "name": "",
          "type": "uint256"
        }
      ],
      "name": "currentCommitteeStorage",
      "outputs": [
        {
          "internalType": "address",
          "name": "",
          "type": "address"
        }
      ],
      "stateMutability": "view",
      "type": "function"
    },
    {
      "inputs": [],
      "name": "currentCommitteeTransitionCount",
      "outputs": [
        {
          "internalType": "uint256",
          "name": "",
          "type": "uint256"
        }
      ],
      "stateMutability": "view",
      "type": "function"
    },
    {
      "inputs": [],
      "name": "disableInitializer",
      "outputs": [],
      "stateMutability": "nonpayable",
      "type": "function"
    },
    {
      "inputs": [],
      "name": "getCurrentCommittee",
      "outputs": [
        {
          "internalType": "address[]",
          "name": "",
          "type": "address[]"
        }
      ],
      "stateMutability": "view",
      "type": "function"
    },
    {
      "inputs": [],
      "name": "getNextCommittee",
      "outputs": [
        {
          "internalType": "address[]",
          "name": "",
          "type": "address[]"
        }
      ],
      "stateMutability": "view",
      "type": "function"
    },
    {
      "inputs": [],
      "name": "getQuorum",
      "outputs": [
        {
          "internalType": "uint256",
          "name": "",
          "type": "uint256"
        }
      ],
      "stateMutability": "view",
      "type": "function"
    },
    {
      "inputs": [
        {
          "internalType": "bytes32",
          "name": "role",
          "type": "bytes32"
        }
      ],
      "name": "getRoleAdmin",
      "outputs": [
        {
          "internalType": "bytes32",
          "name": "",
          "type": "bytes32"
        }
      ],
      "stateMutability": "view",
      "type": "function"
    },
    {
      "inputs": [
        {
          "internalType": "bytes32",
          "name": "role",
          "type": "bytes32"
        },
        {
          "internalType": "address",
          "name": "account",
          "type": "address"
        }
      ],
      "name": "grantRole",
      "outputs": [],
      "stateMutability": "nonpayable",
      "type": "function"
    },
    {
      "inputs": [
        {
          "internalType": "bytes32",
          "name": "role",
          "type": "bytes32"
        },
        {
          "internalType": "address",
          "name": "account",
          "type": "address"
        }
      ],
      "name": "hasRole",
      "outputs": [
        {
          "internalType": "bool",
          "name": "",
          "type": "bool"
        }
      ],
      "stateMutability": "view",
      "type": "function"
    },
    {
      "inputs": [
        {
          "internalType": "address",
          "name": "_owner",
          "type": "address"
        },
        {
          "internalType": "address[]",
          "name": "initialCommittee",
          "type": "address[]"
        },
        {
          "internalType": "address[]",
          "name": "nextCommittee",
          "type": "address[]"
        }
      ],
      "name": "initialize",
      "outputs": [],
      "stateMutability": "nonpayable",
      "type": "function"
    },
    {
      "inputs": [
        {
          "internalType": "uint256",
          "name": "",
          "type": "uint256"
        }
      ],
      "name": "invulnerableAttesters",
      "outputs": [
        {
          "internalType": "address",
          "name": "",
          "type": "address"
        }
      ],
      "stateMutability": "view",
      "type": "function"
    },
    {
      "inputs": [],
      "name": "isCommitteeRotationEnabled",
      "outputs": [
        {
          "internalType": "bool",
          "name": "",
          "type": "bool"
        }
      ],
      "stateMutability": "view",
      "type": "function"
    },
    {
      "inputs": [
        {
          "internalType": "address",
          "name": "member",
          "type": "address"
        }
      ],
      "name": "isCurrentCommitteeMember",
      "outputs": [
        {
          "internalType": "bool",
          "name": "",
          "type": "bool"
        }
      ],
      "stateMutability": "view",
      "type": "function"
    },
    {
      "inputs": [],
      "name": "lastCommitteeRotationTimestamp",
      "outputs": [
        {
          "internalType": "uint256",
          "name": "",
          "type": "uint256"
        }
      ],
      "stateMutability": "view",
      "type": "function"
    },
    {
      "inputs": [
        {
          "internalType": "uint256",
          "name": "",
          "type": "uint256"
        }
      ],
      "name": "nextCommitteeStorage",
      "outputs": [
        {
          "internalType": "address",
          "name": "",
          "type": "address"
        }
      ],
      "stateMutability": "view",
      "type": "function"
    },
    {
      "inputs": [],
      "name": "nonce",
      "outputs": [
        {
          "internalType": "uint256",
          "name": "",
          "type": "uint256"
        }
      ],
      "stateMutability": "view",
      "type": "function"
    },
    {
      "inputs": [],
      "name": "quorum",
      "outputs": [
        {
          "internalType": "uint256",
          "name": "",
          "type": "uint256"
        }
      ],
      "stateMutability": "view",
      "type": "function"
    },
    {
      "inputs": [
        {
          "internalType": "uint256",
          "name": "max",
          "type": "uint256"
        },
        {
          "internalType": "uint256",
          "name": "_nonce",
          "type": "uint256"
        }
      ],
      "name": "randNum",
      "outputs": [
        {
          "internalType": "uint256",
          "name": "",
          "type": "uint256"
        }
      ],
      "stateMutability": "view",
      "type": "function"
    },
    {
      "inputs": [
        {
          "internalType": "address",
          "name": "attester",
          "type": "address"
        }
      ],
      "name": "removeAttester",
      "outputs": [],
      "stateMutability": "nonpayable",
      "type": "function"
    },
    {
      "inputs": [
        {
          "internalType": "bytes32",
          "name": "role",
          "type": "bytes32"
        },
        {
          "internalType": "address",
          "name": "account",
          "type": "address"
        }
      ],
      "name": "renounceRole",
      "outputs": [],
      "stateMutability": "nonpayable",
      "type": "function"
    },
    {
      "inputs": [],
      "name": "resetLastCommitteeRotationTimestamp",
      "outputs": [],
      "stateMutability": "nonpayable",
      "type": "function"
    },
    {
      "inputs": [
        {
          "internalType": "bytes32",
          "name": "role",
          "type": "bytes32"
        },
        {
          "internalType": "address",
          "name": "account",
          "type": "address"
        }
      ],
      "name": "revokeRole",
      "outputs": [],
      "stateMutability": "nonpayable",
      "type": "function"
    },
    {
      "inputs": [],
      "name": "rotateCommittee",
      "outputs": [],
      "stateMutability": "nonpayable",
      "type": "function"
    },
    {
      "inputs": [
        {
          "internalType": "address payable",
          "name": "_attestersStaking",
          "type": "address"
        }
      ],
      "name": "setAttestersStaking",
      "outputs": [],
      "stateMutability": "nonpayable",
      "type": "function"
    },
    {
      "inputs": [
        {
          "internalType": "bool",
          "name": "flag",
          "type": "bool"
        }
      ],
      "name": "setCommitteeRotationFlag",
      "outputs": [],
      "stateMutability": "nonpayable",
      "type": "function"
    },
    {
      "inputs": [
        {
          "internalType": "uint256",
          "name": "newPeriodSec",
          "type": "uint256"
        }
      ],
      "name": "setCommitteeRotationLockPeriod",
      "outputs": [],
      "stateMutability": "nonpayable",
      "type": "function"
    },
    {
      "inputs": [
        {
          "internalType": "uint256",
          "name": "newSize",
          "type": "uint256"
        }
      ],
      "name": "setCommitteeSize",
      "outputs": [],
      "stateMutability": "nonpayable",
      "type": "function"
    },
    {
      "inputs": [
        {
          "internalType": "address[]",
          "name": "_newCommittee",
          "type": "address[]"
        }
      ],
      "name": "setCurrentCommittee",
      "outputs": [],
      "stateMutability": "nonpayable",
      "type": "function"
    },
    {
      "inputs": [
        {
          "internalType": "address[]",
          "name": "_newCommittee",
          "type": "address[]"
        }
      ],
      "name": "setNextCommittee",
      "outputs": [],
      "stateMutability": "nonpayable",
      "type": "function"
    },
    {
      "inputs": [
        {
          "internalType": "uint256",
          "name": "newQuorum",
          "type": "uint256"
        }
      ],
      "name": "setQuorum",
      "outputs": [],
      "stateMutability": "nonpayable",
      "type": "function"
    },
    {
      "inputs": [
        {
          "internalType": "bytes32",
          "name": "_version",
          "type": "bytes32"
        }
      ],
      "name": "setVersion",
      "outputs": [],
      "stateMutability": "nonpayable",
      "type": "function"
    },
    {
      "inputs": [
        {
          "internalType": "bytes4",
          "name": "interfaceId",
          "type": "bytes4"
        }
      ],
      "name": "supportsInterface",
      "outputs": [
        {
          "internalType": "bool",
          "name": "",
          "type": "bool"
        }
      ],
      "stateMutability": "view",
      "type": "function"
    },
    {
      "inputs": [],
      "name": "totalAttesters",
      "outputs": [
        {
          "internalType": "uint256",
          "name": "",
          "type": "uint256"
        }
      ],
      "stateMutability": "view",
      "type": "function"
    },
    {
      "inputs": [],
      "name": "version",
      "outputs": [
        {
          "internalType": "bytes32",
          "name": "",
          "type": "bytes32"
        }
      ],
      "stateMutability": "view",
      "type": "function"
    },
    {
      "stateMutability": "payable",
      "type": "receive"
    }
  ],
  "bytecode": "0x60806040523480156200001157600080fd5b50620000226200002860201b60201c565b620001d2565b600060019054906101000a900460ff16156200007b576040517f08c379a0000000000000000000000000000000000000000000000000000000008152600401620000729062000175565b60405180910390fd5b60ff801660008054906101000a900460ff1660ff1614620000ec5760ff6000806101000a81548160ff021916908360ff1602179055507f7f26b83ff96e1f2b6a682f133852f6798a09c465da95921460cefb384740249860ff604051620000e39190620001b5565b60405180910390a15b565b600082825260208201905092915050565b7f496e697469616c697a61626c653a20636f6e747261637420697320696e69746960008201527f616c697a696e6700000000000000000000000000000000000000000000000000602082015250565b60006200015d602783620000ee565b91506200016a82620000ff565b604082019050919050565b6000602082019050818103600083015262000190816200014e565b9050919050565b600060ff82169050919050565b620001af8162000197565b82525050565b6000602082019050620001cc6000830184620001a4565b92915050565b613b5480620001e26000396000f3fe60806040526004361061024a5760003560e01c8063796bd2ce11610139578063c26c12eb116100b6578063d547741f1161007a578063d547741f14610860578063d6dd0cf514610889578063e31657c3146108b2578063ee06b289146108c9578063f008da5214610906578063fe3cadd81461094357610251565b8063c26c12eb1461078d578063ca5f81b5146107b8578063cad35f5d146107e1578063cc78fef11461080c578063d34ad5791461083557610251565b8063a217fddf116100fd578063a217fddf146106ba578063ad410f81146106e5578063affed0e014610710578063c03edd0e1461073b578063c1ba4e591461076457610251565b8063796bd2ce146105d55780637ef251b7146105fe5780638bac7dad1461062957806391d14854146106525780639cf4364b1461068f57610251565b8063484f657b116101c75780635bebb9241161018b5780635bebb92414610502578063621ccaf41461052d5780636b3084ea14610558578063770aa3f71461058157806378c33b02146105be57610251565b8063484f657b146104435780634a200fa51461046e5780634d894e211461049757806354fd4d50146104ae578063586375f5146104d957610251565b8063248a9ca31161020e578063248a9ca31461033a57806329fd611f146103775780632f2ff15d146103b457806336568abe146103dd578063402089761461040657610251565b806301ffc9a71461025357806302bef8471461029057806304ca5e81146102b957806308653f4b146102e45780631703a0181461030f57610251565b3661025157005b005b34801561025f57600080fd5b5061027a60048036038101906102759190612901565b610980565b6040516102879190612949565b60405180910390f35b34801561029c57600080fd5b506102b760048036038101906102b291906129c2565b6109fa565b005b3480156102c557600080fd5b506102ce610bb2565b6040516102db9190612949565b60405180910390f35b3480156102f057600080fd5b506102f9610bc5565b6040516103069190612a08565b60405180910390f35b34801561031b57600080fd5b50610324610bcb565b6040516103319190612a08565b60405180910390f35b34801561034657600080fd5b50610361600480360381019061035c9190612a59565b610bd1565b60405161036e9190612a95565b60405180910390f35b34801561038357600080fd5b5061039e60048036038101906103999190612adc565b610bf1565b6040516103ab9190612b18565b60405180910390f35b3480156103c057600080fd5b506103db60048036038101906103d69190612b33565b610c30565b005b3480156103e957600080fd5b5061040460048036038101906103ff9190612b33565b610c51565b005b34801561041257600080fd5b5061042d60048036038101906104289190612adc565b610cd4565b60405161043a9190612b18565b60405180910390f35b34801561044f57600080fd5b50610458610d13565b6040516104659190612c31565b60405180910390f35b34801561047a57600080fd5b5061049560048036038101906104909190612dac565b610da1565b005b3480156104a357600080fd5b506104ac6110b9565b005b3480156104ba57600080fd5b506104c3611674565b6040516104d09190612a95565b60405180910390f35b3480156104e557600080fd5b5061050060048036038101906104fb9190612e63565b61167a565b005b34801561050e57600080fd5b506105176116e3565b6040516105249190612a08565b60405180910390f35b34801561053957600080fd5b506105426116e9565b60405161054f9190612eef565b60405180910390f35b34801561056457600080fd5b5061057f600480360381019061057a9190612adc565b61170f565b005b34801561058d57600080fd5b506105a860048036038101906105a39190612adc565b611765565b6040516105b59190612b18565b60405180910390f35b3480156105ca57600080fd5b506105d36117a4565b005b3480156105e157600080fd5b506105fc60048036038101906105f79190612f0a565b6117fa565b005b34801561060a57600080fd5b50610613611860565b6040516106209190612a08565b60405180910390f35b34801561063557600080fd5b50610650600480360381019061064b9190612adc565b611866565b005b34801561065e57600080fd5b5061067960048036038101906106749190612b33565b611904565b6040516106869190612949565b60405180910390f35b34801561069b57600080fd5b506106a461196f565b6040516106b19190612a08565b60405180910390f35b3480156106c657600080fd5b506106cf611975565b6040516106dc9190612a95565b60405180910390f35b3480156106f157600080fd5b506106fa61197c565b6040516107079190612a08565b60405180910390f35b34801561071c57600080fd5b50610725611a6d565b6040516107329190612a08565b60405180910390f35b34801561074757600080fd5b50610762600480360381019061075d9190612f91565b611a73565b005b34801561077057600080fd5b5061078b60048036038101906107869190612adc565b611b03565b005b34801561079957600080fd5b506107a2611b59565b6040516107af9190612a08565b60405180910390f35b3480156107c457600080fd5b506107df60048036038101906107da9190612a59565b611b63565b005b3480156107ed57600080fd5b506107f6611bb9565b6040516108039190612a08565b60405180910390f35b34801561081857600080fd5b50610833600480360381019061082e91906129c2565b611bbf565b005b34801561084157600080fd5b5061084a611e07565b6040516108579190612c31565b60405180910390f35b34801561086c57600080fd5b5061088760048036038101906108829190612b33565b611e95565b005b34801561089557600080fd5b506108b060048036038101906108ab9190612f0a565b611eb6565b005b3480156108be57600080fd5b506108c7611f1c565b005b3480156108d557600080fd5b506108f060048036038101906108eb91906129c2565b611f72565b6040516108fd9190612949565b60405180910390f35b34801561091257600080fd5b5061092d60048036038101906109289190612adc565b6120af565b60405161093a9190612b18565b60405180910390f35b34801561094f57600080fd5b5061096a60048036038101906109659190612fbe565b6120ee565b6040516109779190612a08565b60405180910390f35b60007f7965db0b000000000000000000000000000000000000000000000000000000007bffffffffffffffffffffffffffffffffffffffffffffffffffffffff1916827bffffffffffffffffffffffffffffffffffffffffffffffffffffffff191614806109f357506109f282612131565b5b9050919050565b610a076000801b33611904565b80610a5f575060a460009054906101000a900473ffffffffffffffffffffffffffffffffffffffff1673ffffffffffffffffffffffffffffffffffffffff163373ffffffffffffffffffffffffffffffffffffffff16145b610a9e576040517f08c379a0000000000000000000000000000000000000000000000000000000008152600401610a9590613081565b60405180910390fd5b60005b60a080549050811015610b30578173ffffffffffffffffffffffffffffffffffffffff1660a08281548110610ad957610ad86130a1565b5b9060005260206000200160009054906101000a900473ffffffffffffffffffffffffffffffffffffffff1673ffffffffffffffffffffffffffffffffffffffff1603610b255750610baf565b806001019050610aa1565b5060a0819080600181540180825580915050600190039060005260206000200160009091909190916101000a81548173ffffffffffffffffffffffffffffffffffffffff021916908373ffffffffffffffffffffffffffffffffffffffff1602179055506001609d6000828254610ba791906130ff565b925050819055505b50565b609860009054906101000a900460ff1681565b609b5481565b60995481565b600060656000838152602001908152602001600020600101549050919050565b609f8181548110610c0157600080fd5b906000526020600020016000915054906101000a900473ffffffffffffffffffffffffffffffffffffffff1681565b610c3982610bd1565b610c428161219b565b610c4c83836121af565b505050565b610c59612290565b73ffffffffffffffffffffffffffffffffffffffff168173ffffffffffffffffffffffffffffffffffffffff1614610cc6576040517f08c379a0000000000000000000000000000000000000000000000000000000008152600401610cbd906131a5565b60405180910390fd5b610cd08282612298565b5050565b60a18181548110610ce457600080fd5b906000526020600020016000915054906101000a900473ffffffffffffffffffffffffffffffffffffffff1681565b6060609e805480602002602001604051908101604052809291908181526020018280548015610d9757602002820191906000526020600020905b8160009054906101000a900473ffffffffffffffffffffffffffffffffffffffff1673ffffffffffffffffffffffffffffffffffffffff1681526020019060010190808311610d4d575b5050505050905090565b60008060019054906101000a900460ff16159050808015610dd25750600160008054906101000a900460ff1660ff16105b80610dff5750610de13061237a565b158015610dfe5750600160008054906101000a900460ff1660ff16145b5b610e3e576040517f08c379a0000000000000000000000000000000000000000000000000000000008152600401610e3590613237565b60405180910390fd5b60016000806101000a81548160ff021916908360ff1602179055508015610e7b576001600060016101000a81548160ff0219169083151502179055505b610e8361239d565b610e906000801b856121af565b6001609b819055508251609d819055508251609781905550600160998190555060005b835181101561101057600073ffffffffffffffffffffffffffffffffffffffff16848281518110610ee757610ee66130a1565b5b602002602001015173ffffffffffffffffffffffffffffffffffffffff16146110055760a0848281518110610f1f57610f1e6130a1565b5b60200260200101519080600181540180825580915050600190039060005260206000200160009091909190916101000a81548173ffffffffffffffffffffffffffffffffffffffff021916908373ffffffffffffffffffffffffffffffffffffffff16021790555060a1848281518110610f9c57610f9b6130a1565b5b60200260200101519080600181540180825580915050600190039060005260206000200160009091909190916101000a81548173ffffffffffffffffffffffffffffffffffffffff021916908373ffffffffffffffffffffffffffffffffffffffff1602179055505b806001019050610eb3565b5082609e908051906020019061102792919061279c565b5081609f908051906020019061103e92919061279c565b506000609860006101000a81548160ff02191690831515021790555080156110b35760008060016101000a81548160ff0219169083151502179055507f7f26b83ff96e1f2b6a682f133852f6798a09c465da95921460cefb384740249860016040516110aa919061329f565b60405180910390a15b50505050565b609860009054906101000a900460ff16611108576040517f08c379a00000000000000000000000000000000000000000000000000000000081526004016110ff90613306565b60405180910390fd5b609c54609a54426111199190613326565b11611159576040517f08c379a0000000000000000000000000000000000000000000000000000000008152600401611150906133a6565b60405180910390fd5b600060975467ffffffffffffffff81111561117757611176612c69565b5b6040519080825280602002602001820160405280156111a55781602001602082028036833780820191505090505b509050600060a18054905060a0805490506111c09190613326565b67ffffffffffffffff8111156111d9576111d8612c69565b5b6040519080825280602002602001820160405280156112075781602001602082028036833780820191505090505b50905060008060005b60a0805490508110156113a45760006001905060005b60a1805490508110156112f65760a18181548110611247576112466130a1565b5b9060005260206000200160009054906101000a900473ffffffffffffffffffffffffffffffffffffffff1673ffffffffffffffffffffffffffffffffffffffff1660a0848154811061129c5761129b6130a1565b5b9060005260206000200160009054906101000a900473ffffffffffffffffffffffffffffffffffffffff1673ffffffffffffffffffffffffffffffffffffffff16036112eb57600091506112f6565b806001019050611226565b5080156113985760a08281548110611311576113106130a1565b5b9060005260206000200160009054906101000a900473ffffffffffffffffffffffffffffffffffffffff1685858151811061134f5761134e6130a1565b5b602002602001019073ffffffffffffffffffffffffffffffffffffffff16908173ffffffffffffffffffffffffffffffffffffffff16815250508380611394906133c6565b9450505b50806001019050611210565b5060005b60a18054905081101561145a5760a181815481106113c9576113c86130a1565b5b9060005260206000200160009054906101000a900473ffffffffffffffffffffffffffffffffffffffff16858281518110611407576114066130a1565b5b602002602001019073ffffffffffffffffffffffffffffffffffffffff16908173ffffffffffffffffffffffffffffffffffffffff1681525050818061144c906133c6565b9250508060010190506113a8565b5060008190505b6097548110156115995760008060005b8061152f576114828660a3546120ee565b9250868381518110611497576114966130a1565b5b6020026020010151915060a360008154809291906114b4906133c6565b91905055506001905060005b85811015611529578273ffffffffffffffffffffffffffffffffffffffff168982815181106114f2576114f16130a1565b5b602002602001015173ffffffffffffffffffffffffffffffffffffffff160361151e5760009150611529565b8060010190506114c0565b50611471565b81888581518110611543576115426130a1565b5b602002602001019073ffffffffffffffffffffffffffffffffffffffff16908173ffffffffffffffffffffffffffffffffffffffff16815250508480611588906133c6565b955050505050806001019050611461565b5060008451116115de576040517f08c379a00000000000000000000000000000000000000000000000000000000081526004016115d59061345a565b60405180910390fd5b609754845114611623576040517f08c379a000000000000000000000000000000000000000000000000000000000815260040161161a906134c6565b60405180910390fd5b609f609e908054611635929190612826565b5083609f908051906020019061164c92919061279c565b5042609a819055506001609b600082825461166791906130ff565b9250508190555050505050565b60a25481565b6116876000801b33611904565b6116c6576040517f08c379a00000000000000000000000000000000000000000000000000000000081526004016116bd90613558565b60405180910390fd5b80609860006101000a81548160ff02191690831515021790555050565b609a5481565b60a460009054906101000a900473ffffffffffffffffffffffffffffffffffffffff1681565b61171c6000801b33611904565b61175b576040517f08c379a000000000000000000000000000000000000000000000000000000000815260040161175290613558565b60405180910390fd5b80609c8190555050565b60a0818154811061177557600080fd5b906000526020600020016000915054906101000a900473ffffffffffffffffffffffffffffffffffffffff1681565b6117b16000801b33611904565b6117f0576040517f08c379a00000000000000000000000000000000000000000000000000000000081526004016117e790613558565b60405180910390fd5b6000609a81905550565b6118076000801b33611904565b611846576040517f08c379a000000000000000000000000000000000000000000000000000000000815260040161183d90613558565b60405180910390fd5b80609e908051906020019061185c92919061279c565b5050565b609c5481565b6118736000801b33611904565b6118b2576040517f08c379a00000000000000000000000000000000000000000000000000000000081526004016118a990613558565b60405180910390fd5b60a1805490508110156118fa576040517f08c379a00000000000000000000000000000000000000000000000000000000081526004016118f1906135c4565b60405180910390fd5b8060978190555050565b60006065600084815260200190815260200160002060000160008373ffffffffffffffffffffffffffffffffffffffff1673ffffffffffffffffffffffffffffffffffffffff16815260200190815260200160002060009054906101000a900460ff16905092915050565b60975481565b6000801b81565b600080611987610d13565b90506000805b8251811015611a645760a460009054906101000a900473ffffffffffffffffffffffffffffffffffffffff1673ffffffffffffffffffffffffffffffffffffffff1663c0df90438483815181106119e7576119e66130a1565b5b60200260200101516040518263ffffffff1660e01b8152600401611a0b9190612b18565b602060405180830381865afa158015611a28573d6000803e3d6000fd5b505050506040513d601f19601f82011682018060405250810190611a4c91906135f9565b82611a5791906130ff565b915080600101905061198d565b50809250505090565b60a35481565b611a806000801b33611904565b611abf576040517f08c379a0000000000000000000000000000000000000000000000000000000008152600401611ab690613558565b60405180910390fd5b8060a460006101000a81548173ffffffffffffffffffffffffffffffffffffffff021916908373ffffffffffffffffffffffffffffffffffffffff16021790555050565b611b106000801b33611904565b611b4f576040517f08c379a0000000000000000000000000000000000000000000000000000000008152600401611b4690613558565b60405180910390fd5b8060998190555050565b6000609954905090565b611b706000801b33611904565b611baf576040517f08c379a0000000000000000000000000000000000000000000000000000000008152600401611ba690613558565b60405180910390fd5b8060a28190555050565b609d5481565b611bcc6000801b33611904565b80611c24575060a460009054906101000a900473ffffffffffffffffffffffffffffffffffffffff1673ffffffffffffffffffffffffffffffffffffffff163373ffffffffffffffffffffffffffffffffffffffff16145b611c63576040517f08c379a0000000000000000000000000000000000000000000000000000000008152600401611c5a90613081565b60405180910390fd5b60005b60a080549050811015611e02578173ffffffffffffffffffffffffffffffffffffffff1660a08281548110611c9e57611c9d6130a1565b5b9060005260206000200160009054906101000a900473ffffffffffffffffffffffffffffffffffffffff1673ffffffffffffffffffffffffffffffffffffffff1603611df75760a0600160a080549050611cf89190613326565b81548110611d0957611d086130a1565b5b9060005260206000200160009054906101000a900473ffffffffffffffffffffffffffffffffffffffff1660a08281548110611d4857611d476130a1565b5b9060005260206000200160006101000a81548173ffffffffffffffffffffffffffffffffffffffff021916908373ffffffffffffffffffffffffffffffffffffffff16021790555060a0805480611da257611da1613626565b5b6001900381819060005260206000200160006101000a81549073ffffffffffffffffffffffffffffffffffffffff021916905590556001609d6000828254611dea9190613326565b9250508190555050611e04565b806001019050611c66565b505b50565b6060609f805480602002602001604051908101604052809291908181526020018280548015611e8b57602002820191906000526020600020905b8160009054906101000a900473ffffffffffffffffffffffffffffffffffffffff1673ffffffffffffffffffffffffffffffffffffffff1681526020019060010190808311611e41575b5050505050905090565b611e9e82610bd1565b611ea78161219b565b611eb18383612298565b505050565b611ec36000801b33611904565b611f02576040517f08c379a0000000000000000000000000000000000000000000000000000000008152600401611ef990613558565b60405180910390fd5b80609f9080519060200190611f1892919061279c565b5050565b611f296000801b33611904565b611f68576040517f08c379a0000000000000000000000000000000000000000000000000000000008152600401611f5f90613558565b60405180910390fd5b611f706123ee565b565b600080600090505b609e8054905081101561200d578273ffffffffffffffffffffffffffffffffffffffff16609e8281548110611fb257611fb16130a1565b5b9060005260206000200160009054906101000a900473ffffffffffffffffffffffffffffffffffffffff1673ffffffffffffffffffffffffffffffffffffffff16036120025760019150506120aa565b806001019050611f7a565b5060005b609f805490508110156120a4578273ffffffffffffffffffffffffffffffffffffffff16609f8281548110612049576120486130a1565b5b9060005260206000200160009054906101000a900473ffffffffffffffffffffffffffffffffffffffff1673ffffffffffffffffffffffffffffffffffffffff16036120995760019150506120aa565b806001019050612011565b50600090505b919050565b609e81815481106120bf57600080fd5b906000526020600020016000915054906101000a900473ffffffffffffffffffffffffffffffffffffffff1681565b600082423384604051602001612106939291906136be565b6040516020818303038152906040528051906020012060001c612129919061372a565b905092915050565b60007f01ffc9a7000000000000000000000000000000000000000000000000000000007bffffffffffffffffffffffffffffffffffffffffffffffffffffffff1916827bffffffffffffffffffffffffffffffffffffffffffffffffffffffff1916149050919050565b6121ac816121a7612290565b6124ae565b50565b6121b98282611904565b61228c5760016065600084815260200190815260200160002060000160008373ffffffffffffffffffffffffffffffffffffffff1673ffffffffffffffffffffffffffffffffffffffff16815260200190815260200160002060006101000a81548160ff021916908315150217905550612231612290565b73ffffffffffffffffffffffffffffffffffffffff168173ffffffffffffffffffffffffffffffffffffffff16837f2f8788117e7eff1d82e926ec794901d17c78024a50270940304540a733656f0d60405160405180910390a45b5050565b600033905090565b6122a28282611904565b156123765760006065600084815260200190815260200160002060000160008373ffffffffffffffffffffffffffffffffffffffff1673ffffffffffffffffffffffffffffffffffffffff16815260200190815260200160002060006101000a81548160ff02191690831515021790555061231b612290565b73ffffffffffffffffffffffffffffffffffffffff168173ffffffffffffffffffffffffffffffffffffffff16837ff6391f5c32d9c69d2a47ea670b442974b53935d1edc7fd64eb21e047a839171b60405160405180910390a45b5050565b6000808273ffffffffffffffffffffffffffffffffffffffff163b119050919050565b600060019054906101000a900460ff166123ec576040517f08c379a00000000000000000000000000000000000000000000000000000000081526004016123e3906137cd565b60405180910390fd5b565b600060019054906101000a900460ff161561243e576040517f08c379a00000000000000000000000000000000000000000000000000000000081526004016124359061385f565b60405180910390fd5b60ff801660008054906101000a900460ff1660ff16146124ac5760ff6000806101000a81548160ff021916908360ff1602179055507f7f26b83ff96e1f2b6a682f133852f6798a09c465da95921460cefb384740249860ff6040516124a3919061388e565b60405180910390a15b565b6124b88282611904565b61252f576124c581612533565b6124d38360001c6020612560565b6040516020016124e49291906139b2565b6040516020818303038152906040526040517f08c379a00000000000000000000000000000000000000000000000000000000081526004016125269190613a25565b60405180910390fd5b5050565b60606125598273ffffffffffffffffffffffffffffffffffffffff16601460ff16612560565b9050919050565b6060600060028360026125739190613a47565b61257d91906130ff565b67ffffffffffffffff81111561259657612595612c69565b5b6040519080825280601f01601f1916602001820160405280156125c85781602001600182028036833780820191505090505b5090507f300000000000000000000000000000000000000000000000000000000000000081600081518110612600576125ff6130a1565b5b60200101907effffffffffffffffffffffffffffffffffffffffffffffffffffffffffffff1916908160001a9053507f780000000000000000000000000000000000000000000000000000000000000081600181518110612664576126636130a1565b5b60200101907effffffffffffffffffffffffffffffffffffffffffffffffffffffffffffff1916908160001a905350600060018460026126a49190613a47565b6126ae91906130ff565b90505b600181111561274e577f3031323334353637383961626364656600000000000000000000000000000000600f8616601081106126f0576126ef6130a1565b5b1a60f81b828281518110612707576127066130a1565b5b60200101907effffffffffffffffffffffffffffffffffffffffffffffffffffffffffffff1916908160001a905350600485901c94508061274790613a89565b90506126b1565b5060008414612792576040517f08c379a000000000000000000000000000000000000000000000000000000000815260040161278990613afe565b60405180910390fd5b8091505092915050565b828054828255906000526020600020908101928215612815579160200282015b828111156128145782518260006101000a81548173ffffffffffffffffffffffffffffffffffffffff021916908373ffffffffffffffffffffffffffffffffffffffff160217905550916020019190600101906127bc565b5b5090506128229190612878565b5090565b8280548282559060005260206000209081019282156128675760005260206000209182015b8281111561286657825482559160010191906001019061284b565b5b5090506128749190612878565b5090565b5b80821115612891576000816000905550600101612879565b5090565b6000604051905090565b600080fd5b600080fd5b60007fffffffff0000000000000000000000000000000000000000000000000000000082169050919050565b6128de816128a9565b81146128e957600080fd5b50565b6000813590506128fb816128d5565b92915050565b6000602082840312156129175761291661289f565b5b6000612925848285016128ec565b91505092915050565b60008115159050919050565b6129438161292e565b82525050565b600060208201905061295e600083018461293a565b92915050565b600073ffffffffffffffffffffffffffffffffffffffff82169050919050565b600061298f82612964565b9050919050565b61299f81612984565b81146129aa57600080fd5b50565b6000813590506129bc81612996565b92915050565b6000602082840312156129d8576129d761289f565b5b60006129e6848285016129ad565b91505092915050565b6000819050919050565b612a02816129ef565b82525050565b6000602082019050612a1d60008301846129f9565b92915050565b6000819050919050565b612a3681612a23565b8114612a4157600080fd5b50565b600081359050612a5381612a2d565b92915050565b600060208284031215612a6f57612a6e61289f565b5b6000612a7d84828501612a44565b91505092915050565b612a8f81612a23565b82525050565b6000602082019050612aaa6000830184612a86565b92915050565b612ab9816129ef565b8114612ac457600080fd5b50565b600081359050612ad681612ab0565b92915050565b600060208284031215612af257612af161289f565b5b6000612b0084828501612ac7565b91505092915050565b612b1281612984565b82525050565b6000602082019050612b2d6000830184612b09565b92915050565b60008060408385031215612b4a57612b4961289f565b5b6000612b5885828601612a44565b9250506020612b69858286016129ad565b9150509250929050565b600081519050919050565b600082825260208201905092915050565b6000819050602082019050919050565b612ba881612984565b82525050565b6000612bba8383612b9f565b60208301905092915050565b6000602082019050919050565b6000612bde82612b73565b612be88185612b7e565b9350612bf383612b8f565b8060005b83811015612c24578151612c0b8882612bae565b9750612c1683612bc6565b925050600181019050612bf7565b5085935050505092915050565b60006020820190508181036000830152612c4b8184612bd3565b905092915050565b600080fd5b6000601f19601f8301169050919050565b7f4e487b7100000000000000000000000000000000000000000000000000000000600052604160045260246000fd5b612ca182612c58565b810181811067ffffffffffffffff82111715612cc057612cbf612c69565b5b80604052505050565b6000612cd3612895565b9050612cdf8282612c98565b919050565b600067ffffffffffffffff821115612cff57612cfe612c69565b5b602082029050602081019050919050565b600080fd5b6000612d28612d2384612ce4565b612cc9565b90508083825260208201905060208402830185811115612d4b57612d4a612d10565b5b835b81811015612d745780612d6088826129ad565b845260208401935050602081019050612d4d565b5050509392505050565b600082601f830112612d9357612d92612c53565b5b8135612da3848260208601612d15565b91505092915050565b600080600060608486031215612dc557612dc461289f565b5b6000612dd3868287016129ad565b935050602084013567ffffffffffffffff811115612df457612df36128a4565b5b612e0086828701612d7e565b925050604084013567ffffffffffffffff811115612e2157612e206128a4565b5b612e2d86828701612d7e565b9150509250925092565b612e408161292e565b8114612e4b57600080fd5b50565b600081359050612e5d81612e37565b92915050565b600060208284031215612e7957612e7861289f565b5b6000612e8784828501612e4e565b91505092915050565b6000819050919050565b6000612eb5612eb0612eab84612964565b612e90565b612964565b9050919050565b6000612ec782612e9a565b9050919050565b6000612ed982612ebc565b9050919050565b612ee981612ece565b82525050565b6000602082019050612f046000830184612ee0565b92915050565b600060208284031215612f2057612f1f61289f565b5b600082013567ffffffffffffffff811115612f3e57612f3d6128a4565b5b612f4a84828501612d7e565b91505092915050565b6000612f5e82612964565b9050919050565b612f6e81612f53565b8114612f7957600080fd5b50565b600081359050612f8b81612f65565b92915050565b600060208284031215612fa757612fa661289f565b5b6000612fb584828501612f7c565b91505092915050565b60008060408385031215612fd557612fd461289f565b5b6000612fe385828601612ac7565b9250506020612ff485828601612ac7565b9150509250929050565b600082825260208201905092915050565b7f4f6e6c79206f776e6572206f7220617474657374657273207374616b696e672060008201527f63616e2063616c6c20746869732066756e6374696f6e00000000000000000000602082015250565b600061306b603683612ffe565b91506130768261300f565b604082019050919050565b6000602082019050818103600083015261309a8161305e565b9050919050565b7f4e487b7100000000000000000000000000000000000000000000000000000000600052603260045260246000fd5b7f4e487b7100000000000000000000000000000000000000000000000000000000600052601160045260246000fd5b600061310a826129ef565b9150613115836129ef565b925082820190508082111561312d5761312c6130d0565b5b92915050565b7f416363657373436f6e74726f6c3a2063616e206f6e6c792072656e6f756e636560008201527f20726f6c657320666f722073656c660000000000000000000000000000000000602082015250565b600061318f602f83612ffe565b915061319a82613133565b604082019050919050565b600060208201905081810360008301526131be81613182565b9050919050565b7f496e697469616c697a61626c653a20636f6e747261637420697320616c72656160008201527f647920696e697469616c697a6564000000000000000000000000000000000000602082015250565b6000613221602e83612ffe565b915061322c826131c5565b604082019050919050565b6000602082019050818103600083015261325081613214565b9050919050565b6000819050919050565b600060ff82169050919050565b600061328961328461327f84613257565b612e90565b613261565b9050919050565b6132998161326e565b82525050565b60006020820190506132b46000830184613290565b92915050565b7f4150233200000000000000000000000000000000000000000000000000000000600082015250565b60006132f0600483612ffe565b91506132fb826132ba565b602082019050919050565b6000602082019050818103600083015261331f816132e3565b9050919050565b6000613331826129ef565b915061333c836129ef565b9250828203905081811115613354576133536130d0565b5b92915050565b7f4150233300000000000000000000000000000000000000000000000000000000600082015250565b6000613390600483612ffe565b915061339b8261335a565b602082019050919050565b600060208201905081810360008301526133bf81613383565b9050919050565b60006133d1826129ef565b91507fffffffffffffffffffffffffffffffffffffffffffffffffffffffffffffffff8203613403576134026130d0565b5b600182019050919050565b7f4150233400000000000000000000000000000000000000000000000000000000600082015250565b6000613444600483612ffe565b915061344f8261340e565b602082019050919050565b6000602082019050818103600083015261347381613437565b9050919050565b7f4150233500000000000000000000000000000000000000000000000000000000600082015250565b60006134b0600483612ffe565b91506134bb8261347a565b602082019050919050565b600060208201905081810360008301526134df816134a3565b9050919050565b7f4f6e6c79206f776e65722063616e2063616c6c20746869732066756e6374696f60008201527f6e00000000000000000000000000000000000000000000000000000000000000602082015250565b6000613542602183612ffe565b915061354d826134e6565b604082019050919050565b6000602082019050818103600083015261357181613535565b9050919050565b7f4150233100000000000000000000000000000000000000000000000000000000600082015250565b60006135ae600483612ffe565b91506135b982613578565b602082019050919050565b600060208201905081810360008301526135dd816135a1565b9050919050565b6000815190506135f381612ab0565b92915050565b60006020828403121561360f5761360e61289f565b5b600061361d848285016135e4565b91505092915050565b7f4e487b7100000000000000000000000000000000000000000000000000000000600052603160045260246000fd5b6000819050919050565b61367061366b826129ef565b613655565b82525050565b60008160601b9050919050565b600061368e82613676565b9050919050565b60006136a082613683565b9050919050565b6136b86136b382612984565b613695565b82525050565b60006136ca828661365f565b6020820191506136da82856136a7565b6014820191506136ea828461365f565b602082019150819050949350505050565b7f4e487b7100000000000000000000000000000000000000000000000000000000600052601260045260246000fd5b6000613735826129ef565b9150613740836129ef565b9250826137505761374f6136fb565b5b828206905092915050565b7f496e697469616c697a61626c653a20636f6e7472616374206973206e6f74206960008201527f6e697469616c697a696e67000000000000000000000000000000000000000000602082015250565b60006137b7602b83612ffe565b91506137c28261375b565b604082019050919050565b600060208201905081810360008301526137e6816137aa565b9050919050565b7f496e697469616c697a61626c653a20636f6e747261637420697320696e69746960008201527f616c697a696e6700000000000000000000000000000000000000000000000000602082015250565b6000613849602783612ffe565b9150613854826137ed565b604082019050919050565b600060208201905081810360008301526138788161383c565b9050919050565b61388881613261565b82525050565b60006020820190506138a3600083018461387f565b92915050565b600081905092915050565b7f416363657373436f6e74726f6c3a206163636f756e7420000000000000000000600082015250565b60006138ea6017836138a9565b91506138f5826138b4565b601782019050919050565b600081519050919050565b60005b8381101561392957808201518184015260208101905061390e565b60008484015250505050565b600061394082613900565b61394a81856138a9565b935061395a81856020860161390b565b80840191505092915050565b7f206973206d697373696e6720726f6c6520000000000000000000000000000000600082015250565b600061399c6011836138a9565b91506139a782613966565b601182019050919050565b60006139bd826138dd565b91506139c98285613935565b91506139d48261398f565b91506139e08284613935565b91508190509392505050565b60006139f782613900565b613a018185612ffe565b9350613a1181856020860161390b565b613a1a81612c58565b840191505092915050565b60006020820190508181036000830152613a3f81846139ec565b905092915050565b6000613a52826129ef565b9150613a5d836129ef565b9250828202613a6b816129ef565b91508282048414831517613a8257613a816130d0565b5b5092915050565b6000613a94826129ef565b915060008203613aa757613aa66130d0565b5b600182039050919050565b7f537472696e67733a20686578206c656e67746820696e73756666696369656e74600082015250565b6000613ae8602083612ffe565b9150613af382613ab2565b602082019050919050565b60006020820190508181036000830152613b1781613adb565b905091905056fea26469706673582212202579556c6f32007c88178207428feacbfd67a6bbaec7f6e158a4059899af99ee64736f6c63430008180033",
  "linkReferences": {},
  "deployedLinkReferences": {}
}