{
  "_format": "hh-sol-artifact-1",
  "contractName": "SingleAttestationBook",
  "sourceName": "contracts/singleAttestationBook.sol",
  "abi": [
    {
      "inputs": [],
      "stateMutability": "nonpayable",
      "type": "constructor"
    },
    {
      "anonymous": false,
      "inputs": [
        {
          "indexed": true,
          "internalType": "bytes32",
          "name": "attestationBatchMessageHash",
          "type": "bytes32"
        },
        {
          "indexed": true,
          "internalType": "uint32",
          "name": "batchIndex",
          "type": "uint32"
        },
        {
          "indexed": true,
          "internalType": "bytes4",
          "name": "networkId",
          "type": "bytes4"
        },
        {
          "indexed": false,
          "internalType": "bytes",
          "name": "encodedBatchPayload",
          "type": "bytes"
        }
      ],
      "name": "BatchConstructed",
      "type": "event"
    },
    {
      "anonymous": false,
      "inputs": [
        {
          "indexed": true,
          "internalType": "bytes4",
          "name": "networkId",
          "type": "bytes4"
        },
        {
          "indexed": false,
          "internalType": "uint256",
          "name": "interval",
          "type": "uint256"
        }
      ],
      "name": "BatchConstructionIntervalHeightSet",
      "type": "event"
    },
    {
      "anonymous": false,
      "inputs": [
        {
          "indexed": false,
          "internalType": "uint8",
          "name": "version",
          "type": "uint8"
        }
      ],
      "name": "Initialized",
      "type": "event"
    },
    {
      "anonymous": false,
      "inputs": [
        {
          "indexed": true,
          "internalType": "bytes32",
          "name": "id",
          "type": "bytes32"
        },
        {
          "indexed": true,
          "internalType": "bytes4",
          "name": "networkId",
          "type": "bytes4"
        },
        {
          "indexed": true,
          "internalType": "uint256",
          "name": "currentRecentCount",
          "type": "uint256"
        }
      ],
      "name": "OrderAttestationDuplicatedOrAboveLimit",
      "type": "event"
    },
    {
      "anonymous": false,
      "inputs": [
        {
          "indexed": true,
          "internalType": "bytes32",
          "name": "id",
          "type": "bytes32"
        },
        {
          "indexed": true,
          "internalType": "address",
          "name": "attester",
          "type": "address"
        },
        {
          "indexed": true,
          "internalType": "uint32",
          "name": "batchIndex",
          "type": "uint32"
        },
        {
          "indexed": false,
          "internalType": "address",
          "name": "beneficiary",
          "type": "address"
        },
        {
          "indexed": false,
          "internalType": "bytes",
          "name": "signature",
          "type": "bytes"
        }
      ],
      "name": "OrderAttested",
      "type": "event"
    },
    {
      "anonymous": false,
      "inputs": [
        {
          "indexed": true,
          "internalType": "bytes32",
          "name": "role",
          "type": "bytes32"
        },
        {
          "indexed": true,
          "internalType": "bytes32",
          "name": "previousAdminRole",
          "type": "bytes32"
        },
        {
          "indexed": true,
          "internalType": "bytes32",
          "name": "newAdminRole",
          "type": "bytes32"
        }
      ],
      "name": "RoleAdminChanged",
      "type": "event"
    },
    {
      "anonymous": false,
      "inputs": [
        {
          "indexed": true,
          "internalType": "bytes32",
          "name": "role",
          "type": "bytes32"
        },
        {
          "indexed": true,
          "internalType": "address",
          "name": "account",
          "type": "address"
        },
        {
          "indexed": true,
          "internalType": "address",
          "name": "sender",
          "type": "address"
        }
      ],
      "name": "RoleGranted",
      "type": "event"
    },
    {
      "anonymous": false,
      "inputs": [
        {
          "indexed": true,
          "internalType": "bytes32",
          "name": "role",
          "type": "bytes32"
        },
        {
          "indexed": true,
          "internalType": "address",
          "name": "account",
          "type": "address"
        },
        {
          "indexed": true,
          "internalType": "address",
          "name": "sender",
          "type": "address"
        }
      ],
      "name": "RoleRevoked",
      "type": "event"
    },
    {
      "stateMutability": "payable",
      "type": "fallback"
    },
    {
      "inputs": [],
      "name": "DEFAULT_ADMIN_ROLE",
      "outputs": [
        {
          "internalType": "bytes32",
          "name": "",
          "type": "bytes32"
        }
      ],
      "stateMutability": "view",
      "type": "function"
    },
    {
      "inputs": [
        {
          "internalType": "bytes32",
          "name": "",
          "type": "bytes32"
        },
        {
          "internalType": "uint256",
          "name": "",
          "type": "uint256"
        }
      ],
      "name": "DLQSingleOrderAttestationsByNetwork",
      "outputs": [
        {
          "internalType": "bytes32",
          "name": "orderId",
          "type": "bytes32"
        },
        {
          "internalType": "address",
          "name": "attester",
          "type": "address"
        },
        {
          "internalType": "address",
          "name": "beneficiary",
          "type": "address"
        },
        {
          "internalType": "bytes",
          "name": "signature",
          "type": "bytes"
        }
      ],
      "stateMutability": "view",
      "type": "function"
    },
    {
      "inputs": [],
      "name": "TRNToken",
      "outputs": [
        {
          "internalType": "contract IERC20",
          "name": "",
          "type": "address"
        }
      ],
      "stateMutability": "view",
      "type": "function"
    },
    {
      "inputs": [],
      "name": "allowBatchOverride",
      "outputs": [
        {
          "internalType": "bool",
          "name": "",
          "type": "bool"
        }
      ],
      "stateMutability": "view",
      "type": "function"
    },
    {
      "inputs": [
        {
          "internalType": "bytes32",
          "name": "",
          "type": "bytes32"
        }
      ],
      "name": "antiDuplicateMap",
      "outputs": [
        {
          "internalType": "bytes32",
          "name": "",
          "type": "bytes32"
        }
      ],
      "stateMutability": "view",
      "type": "function"
    },
    {
      "inputs": [
        {
          "internalType": "bytes32",
          "name": "orderId",
          "type": "bytes32"
        },
        {
          "internalType": "address",
          "name": "beneficiary",
          "type": "address"
        },
        {
          "internalType": "bytes",
          "name": "signature",
          "type": "bytes"
        },
        {
          "internalType": "bytes",
          "name": "messagePayload",
          "type": "bytes"
        },
        {
          "internalType": "bytes4",
          "name": "network",
          "type": "bytes4"
        }
      ],
      "name": "attestSingleOrder",
      "outputs": [],
      "stateMutability": "nonpayable",
      "type": "function"
    },
    {
      "inputs": [
        {
          "internalType": "bytes32[]",
          "name": "orderIds",
          "type": "bytes32[]"
        },
        {
          "internalType": "address[]",
          "name": "beneficiaries",
          "type": "address[]"
        },
        {
          "internalType": "bytes[]",
          "name": "signatures",
          "type": "bytes[]"
        },
        {
          "internalType": "bytes[]",
          "name": "messagePayloads",
          "type": "bytes[]"
        },
        {
          "internalType": "bytes4",
          "name": "network",
          "type": "bytes4"
        }
      ],
      "name": "attestSingleOrders",
      "outputs": [],
      "stateMutability": "nonpayable",
      "type": "function"
    },
    {
      "inputs": [],
      "name": "attestationBatchMaker",
      "outputs": [
        {
          "internalType": "contract AttestationBatchMaker",
          "name": "",
          "type": "address"
        }
      ],
      "stateMutability": "view",
      "type": "function"
    },
    {
      "inputs": [],
      "name": "attestationsVerifierProofs",
      "outputs": [
        {
          "internalType": "contract AttestationsVerifierProofs",
          "name": "",
          "type": "address"
        }
      ],
      "stateMutability": "view",
      "type": "function"
    },
    {
      "inputs": [],
      "name": "attestersPortal",
      "outputs": [
        {
          "internalType": "contract AttestersPortal",
          "name": "",
          "type": "address"
        }
      ],
      "stateMutability": "view",
      "type": "function"
    },
    {
      "inputs": [
        {
          "internalType": "bytes32",
          "name": "",
          "type": "bytes32"
        },
        {
          "internalType": "uint256",
          "name": "",
          "type": "uint256"
        }
      ],
      "name": "batchToIncludedOrderIdsByMessageHash",
      "outputs": [
        {
          "internalType": "bytes32",
          "name": "",
          "type": "bytes32"
        }
      ],
      "stateMutability": "view",
      "type": "function"
    },
    {
      "inputs": [
        {
          "internalType": "bytes4",
          "name": "networkId",
          "type": "bytes4"
        },
        {
          "internalType": "uint256",
          "name": "currentQuorum",
          "type": "uint256"
        },
        {
          "internalType": "uint256",
          "name": "batchConstructionIntervalHeight",
          "type": "uint256"
        },
        {
          "internalType": "uint256",
          "name": "lastBatchConstructedHeightOffset",
          "type": "uint256"
        }
      ],
      "name": "checkBatchReadyToConstruct",
      "outputs": [
        {
          "internalType": "bool",
          "name": "",
          "type": "bool"
        }
      ],
      "stateMutability": "view",
      "type": "function"
    },
    {
      "inputs": [],
      "name": "checkForMatchingGMPMessagePayload",
      "outputs": [
        {
          "internalType": "bool",
          "name": "",
          "type": "bool"
        }
      ],
      "stateMutability": "view",
      "type": "function"
    },
    {
      "inputs": [
        {
          "internalType": "bytes4",
          "name": "networkId",
          "type": "bytes4"
        },
        {
          "internalType": "bytes32",
          "name": "orderId",
          "type": "bytes32"
        }
      ],
      "name": "clearRecentSingleOrderAttestations",
      "outputs": [],
      "stateMutability": "nonpayable",
      "type": "function"
    },
    {
      "inputs": [
        {
          "internalType": "bytes4",
          "name": "networkId",
          "type": "bytes4"
        }
      ],
      "name": "clearRecentSingleOrderIdsAttested",
      "outputs": [],
      "stateMutability": "nonpayable",
      "type": "function"
    },
    {
      "inputs": [
        {
          "internalType": "bytes4",
          "name": "network",
          "type": "bytes4"
        },
        {
          "internalType": "uint32",
          "name": "index",
          "type": "uint32"
        }
      ],
      "name": "combineNetworkIdWithIndex",
      "outputs": [
        {
          "internalType": "bytes32",
          "name": "",
          "type": "bytes32"
        }
      ],
      "stateMutability": "pure",
      "type": "function"
    },
    {
      "inputs": [
        {
          "internalType": "bytes4",
          "name": "network",
          "type": "bytes4"
        },
        {
          "internalType": "bytes32",
          "name": "orderId",
          "type": "bytes32"
        }
      ],
      "name": "combineNetworkIdWithOrderId",
      "outputs": [
        {
          "internalType": "bytes32",
          "name": "",
          "type": "bytes32"
        }
      ],
      "stateMutability": "pure",
      "type": "function"
    },
    {
      "inputs": [
        {
          "internalType": "bytes32",
          "name": "orderId",
          "type": "bytes32"
        }
      ],
      "name": "getBatchAttestationMessageHashByOrderId",
      "outputs": [
        {
          "internalType": "bytes32",
          "name": "",
          "type": "bytes32"
        }
      ],
      "stateMutability": "view",
      "type": "function"
    },
    {
      "inputs": [
        {
          "internalType": "bytes32",
          "name": "orderId",
          "type": "bytes32"
        }
      ],
      "name": "getBatchPayloadByOrderId",
      "outputs": [
        {
          "internalType": "bytes",
          "name": "",
          "type": "bytes"
        }
      ],
      "stateMutability": "view",
      "type": "function"
    },
    {
      "inputs": [
        {
          "internalType": "bytes32",
          "name": "attestationBatchMessageHash",
          "type": "bytes32"
        }
      ],
      "name": "getIncludedOrderIds",
      "outputs": [
        {
          "internalType": "bytes32[]",
          "name": "",
          "type": "bytes32[]"
        }
      ],
      "stateMutability": "view",
      "type": "function"
    },
    {
      "inputs": [
        {
          "internalType": "bytes",
          "name": "messagePayload",
          "type": "bytes"
        }
      ],
      "name": "getMessagePayloadHash",
      "outputs": [
        {
          "internalType": "bytes32",
          "name": "",
          "type": "bytes32"
        }
      ],
      "stateMutability": "pure",
      "type": "function"
    },
    {
      "inputs": [
        {
          "internalType": "bytes4",
          "name": "networkId",
          "type": "bytes4"
        }
      ],
      "name": "getPerNetworkLimitOrDefault",
      "outputs": [
        {
          "internalType": "uint256",
          "name": "",
          "type": "uint256"
        }
      ],
      "stateMutability": "view",
      "type": "function"
    },
    {
      "inputs": [
        {
          "internalType": "bytes4",
          "name": "networkId",
          "type": "bytes4"
        },
        {
          "internalType": "bytes32",
          "name": "orderId",
          "type": "bytes32"
        }
      ],
      "name": "getRecentSingleOrderAttestations",
      "outputs": [
        {
          "components": [
            {
              "internalType": "address",
              "name": "attester",
              "type": "address"
            },
            {
              "internalType": "address",
              "name": "beneficiary",
              "type": "address"
            },
            {
              "internalType": "bytes",
              "name": "signature",
              "type": "bytes"
            },
            {
              "internalType": "bytes",
              "name": "messagePayload",
              "type": "bytes"
            }
          ],
          "internalType": "struct SingleAttestationBook.SingleOrderAttestation[]",
          "name": "",
          "type": "tuple[]"
        }
      ],
      "stateMutability": "view",
      "type": "function"
    },
    {
      "inputs": [
        {
          "internalType": "bytes4",
          "name": "networkId",
          "type": "bytes4"
        }
      ],
      "name": "getRecentSingleOrderIdsAttested",
      "outputs": [
        {
          "internalType": "bytes32[]",
          "name": "",
          "type": "bytes32[]"
        }
      ],
      "stateMutability": "view",
      "type": "function"
    },
    {
      "inputs": [
        {
          "internalType": "bytes4",
          "name": "networkId",
          "type": "bytes4"
        }
      ],
      "name": "getRecentSingleOrderIdsAttestedWithLimit",
      "outputs": [
        {
          "internalType": "bytes32[]",
          "name": "",
          "type": "bytes32[]"
        }
      ],
      "stateMutability": "view",
      "type": "function"
    },
    {
      "inputs": [
        {
          "internalType": "bytes32",
          "name": "role",
          "type": "bytes32"
        }
      ],
      "name": "getRoleAdmin",
      "outputs": [
        {
          "internalType": "bytes32",
          "name": "",
          "type": "bytes32"
        }
      ],
      "stateMutability": "view",
      "type": "function"
    },
    {
      "inputs": [
        {
          "internalType": "bytes32",
          "name": "role",
          "type": "bytes32"
        },
        {
          "internalType": "address",
          "name": "account",
          "type": "address"
        }
      ],
      "name": "grantRole",
      "outputs": [],
      "stateMutability": "nonpayable",
      "type": "function"
    },
    {
      "inputs": [
        {
          "internalType": "bytes32",
          "name": "role",
          "type": "bytes32"
        },
        {
          "internalType": "address",
          "name": "account",
          "type": "address"
        }
      ],
      "name": "hasRole",
      "outputs": [
        {
          "internalType": "bool",
          "name": "",
          "type": "bool"
        }
      ],
      "stateMutability": "view",
      "type": "function"
    },
    {
      "inputs": [
        {
          "internalType": "address",
          "name": "_owner",
          "type": "address"
        }
      ],
      "name": "initialize",
      "outputs": [],
      "stateMutability": "nonpayable",
      "type": "function"
    },
    {
      "inputs": [
        {
          "internalType": "bytes4",
          "name": "networkId",
          "type": "bytes4"
        },
        {
          "internalType": "bytes32",
          "name": "orderId",
          "type": "bytes32"
        }
      ],
      "name": "isAttested",
      "outputs": [
        {
          "internalType": "bool",
          "name": "",
          "type": "bool"
        },
        {
          "internalType": "bool",
          "name": "",
          "type": "bool"
        }
      ],
      "stateMutability": "view",
      "type": "function"
    },
    {
      "inputs": [],
      "name": "limit",
      "outputs": [
        {
          "internalType": "uint256",
          "name": "",
          "type": "uint256"
        }
      ],
      "stateMutability": "view",
      "type": "function"
    },
    {
      "inputs": [
        {
          "internalType": "bytes32",
          "name": "attestationBatchMessageHash",
          "type": "bytes32"
        },
        {
          "internalType": "bytes32[]",
          "name": "orderIds",
          "type": "bytes32[]"
        }
      ],
      "name": "linkCreatedBatchWithOrders",
      "outputs": [],
      "stateMutability": "nonpayable",
      "type": "function"
    },
    {
      "inputs": [
        {
          "internalType": "bytes32",
          "name": "",
          "type": "bytes32"
        }
      ],
      "name": "messagePayloadHashCounter",
      "outputs": [
        {
          "internalType": "uint256",
          "name": "",
          "type": "uint256"
        }
      ],
      "stateMutability": "view",
      "type": "function"
    },
    {
      "inputs": [
        {
          "internalType": "bytes32",
          "name": "",
          "type": "bytes32"
        }
      ],
      "name": "messagePayloadMap",
      "outputs": [
        {
          "internalType": "bytes",
          "name": "",
          "type": "bytes"
        }
      ],
      "stateMutability": "view",
      "type": "function"
    },
    {
      "inputs": [
        {
          "internalType": "bytes32",
          "name": "",
          "type": "bytes32"
        }
      ],
      "name": "mostPopularPayloadHash",
      "outputs": [
        {
          "internalType": "bytes32",
          "name": "",
          "type": "bytes32"
        }
      ],
      "stateMutability": "view",
      "type": "function"
    },
    {
      "inputs": [
        {
          "internalType": "bytes32",
          "name": "",
          "type": "bytes32"
        }
      ],
      "name": "orderToBatchAttestationMessageHashMap",
      "outputs": [
        {
          "internalType": "bytes32",
          "name": "",
          "type": "bytes32"
        }
      ],
      "stateMutability": "view",
      "type": "function"
    },
    {
      "inputs": [
        {
          "internalType": "bytes4",
          "name": "",
          "type": "bytes4"
        }
      ],
      "name": "perNetworkLimit",
      "outputs": [
        {
          "internalType": "uint256",
          "name": "",
          "type": "uint256"
        }
      ],
      "stateMutability": "view",
      "type": "function"
    },
    {
      "inputs": [
        {
          "internalType": "bytes4",
          "name": "",
          "type": "bytes4"
        }
      ],
      "name": "perNetworkSingleAttestationsCounter",
      "outputs": [
        {
          "internalType": "uint256",
          "name": "",
          "type": "uint256"
        }
      ],
      "stateMutability": "view",
      "type": "function"
    },
    {
      "inputs": [
        {
          "internalType": "bytes4",
          "name": "",
          "type": "bytes4"
        }
      ],
      "name": "recentAttestationsCounter",
      "outputs": [
        {
          "internalType": "uint256",
          "name": "",
          "type": "uint256"
        }
      ],
      "stateMutability": "view",
      "type": "function"
    },
    {
      "inputs": [
        {
          "internalType": "bytes32",
          "name": "",
          "type": "bytes32"
        },
        {
          "internalType": "uint256",
          "name": "",
          "type": "uint256"
        }
      ],
      "name": "recentSingleOrderAttestationsByNetwork",
      "outputs": [
        {
          "internalType": "address",
          "name": "attester",
          "type": "address"
        },
        {
          "internalType": "address",
          "name": "beneficiary",
          "type": "address"
        },
        {
          "internalType": "bytes",
          "name": "signature",
          "type": "bytes"
        },
        {
          "internalType": "bytes",
          "name": "messagePayload",
          "type": "bytes"
        }
      ],
      "stateMutability": "view",
      "type": "function"
    },
    {
      "inputs": [
        {
          "internalType": "bytes4",
          "name": "",
          "type": "bytes4"
        },
        {
          "internalType": "uint256",
          "name": "",
          "type": "uint256"
        }
      ],
      "name": "recentSingleOrderIdsAttested",
      "outputs": [
        {
          "internalType": "bytes32",
          "name": "",
          "type": "bytes32"
        }
      ],
      "stateMutability": "view",
      "type": "function"
    },
    {
      "inputs": [
        {
          "internalType": "bytes32",
          "name": "role",
          "type": "bytes32"
        },
        {
          "internalType": "address",
          "name": "account",
          "type": "address"
        }
      ],
      "name": "renounceRole",
      "outputs": [],
      "stateMutability": "nonpayable",
      "type": "function"
    },
    {
      "inputs": [
        {
          "internalType": "bytes32",
          "name": "role",
          "type": "bytes32"
        },
        {
          "internalType": "address",
          "name": "account",
          "type": "address"
        }
      ],
      "name": "revokeRole",
      "outputs": [],
      "stateMutability": "nonpayable",
      "type": "function"
    },
    {
      "inputs": [
        {
          "internalType": "contract AttestationBatchMaker",
          "name": "_attestationBatchMaker",
          "type": "address"
        }
      ],
      "name": "setAttestationBatchMaker",
      "outputs": [],
      "stateMutability": "nonpayable",
      "type": "function"
    },
    {
      "inputs": [
        {
          "internalType": "contract AttestationsVerifierProofs",
          "name": "_attestationsVerifierProofs",
          "type": "address"
        }
      ],
      "name": "setAttestationsVerifierProofs",
      "outputs": [],
      "stateMutability": "nonpayable",
      "type": "function"
    },
    {
      "inputs": [
        {
          "internalType": "contract AttestersPortal",
          "name": "_attestersPortal",
          "type": "address"
        }
      ],
      "name": "setAttestersPortal",
      "outputs": [],
      "stateMutability": "nonpayable",
      "type": "function"
    },
    {
      "inputs": [
        {
          "internalType": "uint256",
          "name": "_limit",
          "type": "uint256"
        }
      ],
      "name": "setLimit",
      "outputs": [],
      "stateMutability": "nonpayable",
      "type": "function"
    },
    {
      "inputs": [
        {
          "internalType": "bytes4",
          "name": "networkId",
          "type": "bytes4"
        },
        {
          "internalType": "uint256",
          "name": "_limit",
          "type": "uint256"
        }
      ],
      "name": "setNetworkLimit",
      "outputs": [],
      "stateMutability": "nonpayable",
      "type": "function"
    },
    {
      "inputs": [
        {
          "internalType": "bytes32",
          "name": "_version",
          "type": "bytes32"
        }
      ],
      "name": "setVersion",
      "outputs": [],
      "stateMutability": "nonpayable",
      "type": "function"
    },
    {
      "inputs": [
        {
          "internalType": "bytes32",
          "name": "",
          "type": "bytes32"
        }
      ],
      "name": "signaturesCount",
      "outputs": [
        {
          "internalType": "uint256",
          "name": "",
          "type": "uint256"
        }
      ],
      "stateMutability": "view",
      "type": "function"
    },
    {
      "inputs": [
        {
          "internalType": "bytes4",
          "name": "interfaceId",
          "type": "bytes4"
        }
      ],
      "name": "supportsInterface",
      "outputs": [
        {
          "internalType": "bool",
          "name": "",
          "type": "bool"
        }
      ],
      "stateMutability": "view",
      "type": "function"
    },
    {
      "inputs": [],
      "name": "version",
      "outputs": [
        {
          "internalType": "bytes32",
          "name": "",
          "type": "bytes32"
        }
      ],
      "stateMutability": "view",
      "type": "function"
    },
    {
      "stateMutability": "payable",
      "type": "receive"
    }
  ],
  "bytecode": "0x60806040523480156200001157600080fd5b50620000226200002860201b60201c565b620001d2565b600060019054906101000a900460ff16156200007b576040517f08c379a0000000000000000000000000000000000000000000000000000000008152600401620000729062000175565b60405180910390fd5b60ff801660008054906101000a900460ff1660ff1614620000ec5760ff6000806101000a81548160ff021916908360ff1602179055507f7f26b83ff96e1f2b6a682f133852f6798a09c465da95921460cefb384740249860ff604051620000e39190620001b5565b60405180910390a15b565b600082825260208201905092915050565b7f496e697469616c697a61626c653a20636f6e747261637420697320696e69746960008201527f616c697a696e6700000000000000000000000000000000000000000000000000602082015250565b60006200015d602783620000ee565b91506200016a82620000ff565b604082019050919050565b6000602082019050818103600083015262000190816200014e565b9050919050565b600060ff82169050919050565b620001af8162000197565b82525050565b6000602082019050620001cc6000830184620001a4565b92915050565b615aa580620001e26000396000f3fe6080604052600436106103035760003560e01c80638e6ff47011610190578063c4d66de8116100dc578063d6248d3411610095578063df8ff9651161006f578063df8ff96514610cd8578063e700e26714610d15578063eb6ba35414610d55578063ffdd6f8914610d7e5761030a565b8063d6248d3414610c21578063dc88b9c914610c5e578063dd2b05d614610c9b5761030a565b8063c4d66de814610b15578063c769eb1314610b3e578063ca5f81b514610b7b578063d03685cb14610ba4578063d538c65b14610bcd578063d547741f14610bf85761030a565b8063a4d66daf11610149578063b68d234111610123578063b68d234114610a49578063ba53b8ac14610a72578063ba6466f714610aaf578063bb2703ea14610ad85761030a565b8063a4d66daf146109a4578063ae9b88e2146109cf578063b4c41e6a14610a0c5761030a565b80638e6ff4701461084857806391d1485414610885578063984da1b7146108c25780639929249c146108ff5780639a8e34541461093c578063a217fddf146109795761030a565b80633dc236341161024f5780635e9f32ca1161020857806383d5383d116101e257806383d5383d14610768578063882417d5146107a557806388b89ef9146107e25780638cc4977e1461081f5761030a565b80635e9f32ca146106c5578063637f9280146106ee5780637994a7241461072b5761030a565b80633dc236341461058c57806341bb1b0e146105c95780634762a528146106065780634a7f1688146106465780635385297e1461066f57806354fd4d501461069a5761030a565b806325394aba116102bc5780632f2ff15d116102965780632f2ff15d146104d1578063361444a5146104fa57806336568abe146105385780633aac5d3d146105615761030a565b806325394aba1461044057806327ea6f2b1461047d5780632a92e26e146104a65761030a565b806301ffc9a71461030c57806306a1ab9d146103495780630b83ab2a146103725780630d9fcf29146103af578063228e7556146103d8578063248a9ca3146104035761030a565b3661030a57005b005b34801561031857600080fd5b50610333600480360381019061032e919061390d565b610da9565b6040516103409190613955565b60405180910390f35b34801561035557600080fd5b50610370600480360381019061036b9190613aff565b610e23565b005b34801561037e57600080fd5b5061039960048036038101906103949190613b5b565b610f54565b6040516103a69190613c46565b60405180910390f35b3480156103bb57600080fd5b506103d660048036038101906103d19190613c68565b610fbf565b005b3480156103e457600080fd5b506103ed611095565b6040516103fa9190613d27565b60405180910390f35b34801561040f57600080fd5b5061042a60048036038101906104259190613b5b565b6110bb565b6040516104379190613d51565b60405180910390f35b34801561044c57600080fd5b5061046760048036038101906104629190613b5b565b6110db565b6040516104749190613deb565b60405180910390f35b34801561048957600080fd5b506104a4600480360381019061049f9190613e43565b61117b565b005b3480156104b257600080fd5b506104bb6111d1565b6040516104c89190613e91565b60405180910390f35b3480156104dd57600080fd5b506104f860048036038101906104f39190613eea565b6111f7565b005b34801561050657600080fd5b50610521600480360381019061051c9190613c68565b611218565b60405161052f929190613f2a565b60405180910390f35b34801561054457600080fd5b5061055f600480360381019061055a9190613eea565b6113a3565b005b34801561056d57600080fd5b50610576611426565b6040516105839190613f86565b60405180910390f35b34801561059857600080fd5b506105b360048036038101906105ae9190613b5b565b61144c565b6040516105c09190613deb565b60405180910390f35b3480156105d557600080fd5b506105f060048036038101906105eb9190613b5b565b61150f565b6040516105fd9190613d51565b60405180910390f35b34801561061257600080fd5b5061062d60048036038101906106289190613fa1565b61152c565b60405161063d9493929190613ff0565b60405180910390f35b34801561065257600080fd5b5061066d60048036038101906106689190614097565b611641565b005b34801561067b57600080fd5b50610684611ec6565b6040516106919190613955565b60405180910390f35b3480156106a657600080fd5b506106af611ed9565b6040516106bc9190613d51565b60405180910390f35b3480156106d157600080fd5b506106ec60048036038101906106e79190614191565b611edf565b005b3480156106fa57600080fd5b506107156004803603810190610710919061390d565b611f6f565b60405161072291906141cd565b60405180910390f35b34801561073757600080fd5b50610752600480360381019061074d91906141e8565b611f87565b60405161075f9190613d51565b60405180910390f35b34801561077457600080fd5b5061078f600480360381019061078a919061390d565b611fb8565b60405161079c9190613c46565b60405180910390f35b3480156107b157600080fd5b506107cc60048036038101906107c79190614228565b612098565b6040516107d99190613d51565b60405180910390f35b3480156107ee57600080fd5b5061080960048036038101906108049190613c68565b6120ba565b60405161081691906143fa565b60405180910390f35b34801561082b57600080fd5b506108466004803603810190610841919061451e565b61230c565b005b34801561085457600080fd5b5061086f600480360381019061086a9190613fa1565b6124fa565b60405161087c9190613d51565b60405180910390f35b34801561089157600080fd5b506108ac60048036038101906108a79190613eea565b61252b565b6040516108b99190613955565b60405180910390f35b3480156108ce57600080fd5b506108e960048036038101906108e49190613b5b565b612596565b6040516108f691906141cd565b60405180910390f35b34801561090b57600080fd5b5061092660048036038101906109219190613b5b565b6125ae565b6040516109339190613d51565b60405180910390f35b34801561094857600080fd5b50610963600480360381019061095e919061390d565b6125c6565b60405161097091906141cd565b60405180910390f35b34801561098557600080fd5b5061098e61263a565b60405161099b9190613d51565b60405180910390f35b3480156109b057600080fd5b506109b9612641565b6040516109c691906141cd565b60405180910390f35b3480156109db57600080fd5b506109f660048036038101906109f1919061390d565b612647565b604051610a0391906141cd565b60405180910390f35b348015610a1857600080fd5b50610a336004803603810190610a2e919061390d565b61265f565b604051610a4091906141cd565b60405180910390f35b348015610a5557600080fd5b50610a706004803603810190610a6b919061390d565b612677565b005b348015610a7e57600080fd5b50610a996004803603810190610a94919061390d565b612827565b604051610aa69190613c46565b60405180910390f35b348015610abb57600080fd5b50610ad66004803603810190610ad19190614658565b6128d0565b005b348015610ae457600080fd5b50610aff6004803603810190610afa9190613b5b565b612960565b604051610b0c9190613d51565b60405180910390f35b348015610b2157600080fd5b50610b3c6004803603810190610b379190614685565b612978565b005b348015610b4a57600080fd5b50610b656004803603810190610b6091906146ee565b612afa565b604051610b729190613d51565b60405180910390f35b348015610b8757600080fd5b50610ba26004803603810190610b9d9190613b5b565b612b2d565b005b348015610bb057600080fd5b50610bcb6004803603810190610bc6919061477e565b612b83565b005b348015610bd957600080fd5b50610be2612c13565b604051610bef9190613955565b60405180910390f35b348015610c0457600080fd5b50610c1f6004803603810190610c1a9190613eea565b612c26565b005b348015610c2d57600080fd5b50610c486004803603810190610c439190613b5b565b612c47565b604051610c5591906141cd565b60405180910390f35b348015610c6a57600080fd5b50610c856004803603810190610c8091906147ab565b612c5f565b604051610c929190613955565b60405180910390f35b348015610ca757600080fd5b50610cc26004803603810190610cbd9190613c68565b612d26565b604051610ccf9190613d51565b60405180910390f35b348015610ce457600080fd5b50610cff6004803603810190610cfa9190613b5b565b612d59565b604051610d0c9190613d51565b60405180910390f35b348015610d2157600080fd5b50610d3c6004803603810190610d379190613fa1565b612d71565b604051610d4c9493929190614812565b60405180910390f35b348015610d6157600080fd5b50610d7c6004803603810190610d7791906141e8565b612f0e565b005b348015610d8a57600080fd5b50610d93612fb4565b604051610da09190614886565b60405180910390f35b60007f7965db0b000000000000000000000000000000000000000000000000000000007bffffffffffffffffffffffffffffffffffffffffffffffffffffffff1916827bffffffffffffffffffffffffffffffffffffffffffffffffffffffff19161480610e1c5750610e1b82612fda565b5b9050919050565b609a60009054906101000a900473ffffffffffffffffffffffffffffffffffffffff1673ffffffffffffffffffffffffffffffffffffffff163373ffffffffffffffffffffffffffffffffffffffff1614610eb3576040517f08c379a0000000000000000000000000000000000000000000000000000000008152600401610eaa90614924565b60405180910390fd5b6000805b8251811015610f1c576000838281518110610ed557610ed4614944565b5b602002602001015190506000801b8114610f105784609f6000838152602001908152602001600020819055508280610f0c906149a2565b9350505b50806001019050610eb7565b506000811115610f4f5781609e60008581526020019081526020016000209080519060200190610f4d929190613710565b505b505050565b6060609e6000838152602001908152602001600020805480602002602001604051908101604052809291908181526020018280548015610fb357602002820191906000526020600020905b815481526020019060010190808311610f9f575b50505050509050919050565b609a60009054906101000a900473ffffffffffffffffffffffffffffffffffffffff1673ffffffffffffffffffffffffffffffffffffffff163373ffffffffffffffffffffffffffffffffffffffff16148061102457506110236000801b3361252b565b5b611063576040517f08c379a000000000000000000000000000000000000000000000000000000000815260040161105a90614a5c565b60405180910390fd5b600061106f8383612d26565b9050609c60008281526020019081526020016000206000611090919061375d565b505050565b609a60009054906101000a900473ffffffffffffffffffffffffffffffffffffffff1681565b600060656000838152602001908152602001600020600101549050919050565b60a860205280600052604060002060009150905080546110fa90614aab565b80601f016020809104026020016040519081016040528092919081815260200182805461112690614aab565b80156111735780601f1061114857610100808354040283529160200191611173565b820191906000526020600020905b81548152906001019060200180831161115657829003601f168201915b505050505081565b6111886000801b3361252b565b6111c7576040517f08c379a00000000000000000000000000000000000000000000000000000000081526004016111be90614b4e565b60405180910390fd5b8060a18190555050565b609760009054906101000a900473ffffffffffffffffffffffffffffffffffffffff1681565b611200826110bb565b61120981613044565b6112138383613058565b505050565b6000806000609f60008581526020019081526020016000205490506000801b810361124a57600080925092505061139c565b6000609a60009054906101000a900473ffffffffffffffffffffffffffffffffffffffff1673ffffffffffffffffffffffffffffffffffffffff16631f3a5ea483886040518363ffffffff1660e01b81526004016112a9929190614b7d565b602060405180830381865afa1580156112c6573d6000803e3d6000fd5b505050506040513d601f19601f820116820180604052508101906112ea9190614bbb565b9050609860009054906101000a900473ffffffffffffffffffffffffffffffffffffffff1673ffffffffffffffffffffffffffffffffffffffff1663c26c12eb6040518163ffffffff1660e01b8152600401602060405180830381865afa158015611359573d6000803e3d6000fd5b505050506040513d601f19601f8201168201806040525081019061137d9190614bbb565b81106113915760018093509350505061139c565b600160009350935050505b9250929050565b6113ab613139565b73ffffffffffffffffffffffffffffffffffffffff168173ffffffffffffffffffffffffffffffffffffffff1614611418576040517f08c379a000000000000000000000000000000000000000000000000000000000815260040161140f90614c5a565b60405180910390fd5b6114228282613141565b5050565b609860009054906101000a900473ffffffffffffffffffffffffffffffffffffffff1681565b60606000609f6000848152602001908152602001600020549050609a60009054906101000a900473ffffffffffffffffffffffffffffffffffffffff1673ffffffffffffffffffffffffffffffffffffffff1663248d9151826040518263ffffffff1660e01b81526004016114c19190613d51565b600060405180830381865afa1580156114de573d6000803e3d6000fd5b505050506040513d6000823e3d601f19601f820116820180604052508101906115079190614d20565b915050919050565b6000609f6000838152602001908152602001600020549050919050565b609d602052816000526040600020818154811061154857600080fd5b9060005260206000209060040201600091509150508060000154908060010160009054906101000a900473ffffffffffffffffffffffffffffffffffffffff16908060020160009054906101000a900473ffffffffffffffffffffffffffffffffffffffff16908060030180546115be90614aab565b80601f01602080910402602001604051908101604052809291908181526020018280546115ea90614aab565b80156116375780601f1061160c57610100808354040283529160200191611637565b820191906000526020600020905b81548152906001019060200180831161161a57829003601f168201915b5050505050905084565b609860009054906101000a900473ffffffffffffffffffffffffffffffffffffffff1673ffffffffffffffffffffffffffffffffffffffff1663ee06b289336040518263ffffffff1660e01b815260040161169c9190614d69565b602060405180830381865afa1580156116b9573d6000803e3d6000fd5b505050506040513d601f19601f820116820180604052508101906116dd9190614db0565b61171c576040517f08c379a000000000000000000000000000000000000000000000000000000000815260040161171390614e4f565b60405180910390fd5b60008383600081811061173257611731614944565b5b9050013560f81c60f81b60f81c905060008160ff16036117975760358484905014611792576040517f08c379a000000000000000000000000000000000000000000000000000000000815260040161178990614ebb565b60405180910390fd5b611887565b60018160ff16036117ed57602184849050146117e8576040517f08c379a00000000000000000000000000000000000000000000000000000000081526004016117df90614f27565b60405180910390fd5b611886565b60058160ff16036118435760c9848490501461183e576040517f08c379a000000000000000000000000000000000000000000000000000000000815260040161183590614f93565b60405180910390fd5b611885565b6000611884576040517f08c379a000000000000000000000000000000000000000000000000000000000815260040161187b90614fff565b60405180910390fd5b5b5b5b3373ffffffffffffffffffffffffffffffffffffffff16609960009054906101000a900473ffffffffffffffffffffffffffffffffffffffff1673ffffffffffffffffffffffffffffffffffffffff166397aba7f96118e68787612098565b89896040518463ffffffff1660e01b81526004016119069392919061505b565b602060405180830381865afa158015611923573d6000803e3d6000fd5b505050506040513d601f19601f8201168201806040525081019061194791906150a2565b73ffffffffffffffffffffffffffffffffffffffff161461199d576040517f08c379a00000000000000000000000000000000000000000000000000000000081526004016119949061511b565b60405180910390fd5b60006119a9838a612d26565b905060006119b7848b6120ba565b90506000805b8251811015611a2b573373ffffffffffffffffffffffffffffffffffffffff168382815181106119f0576119ef614944565b5b60200260200101516000015173ffffffffffffffffffffffffffffffffffffffff1603611a205760019150611a2b565b8060010190506119bd565b508015611a3b5750505050611ebd565b609c600084815260200190815260200160002060405180608001604052803373ffffffffffffffffffffffffffffffffffffffff1681526020018c73ffffffffffffffffffffffffffffffffffffffff1681526020018b8b8080601f016020809104026020016040519081016040528093929190818152602001838380828437600081840152601f19601f82011690508083019250505050505050815260200189898080601f016020809104026020016040519081016040528093929190818152602001838380828437600081840152601f19601f82011690508083019250505050505050815250908060018154018082558091505060019003906000526020600020906004020160009091909190915060008201518160000160006101000a81548173ffffffffffffffffffffffffffffffffffffffff021916908373ffffffffffffffffffffffffffffffffffffffff16021790555060208201518160010160006101000a81548173ffffffffffffffffffffffffffffffffffffffff021916908373ffffffffffffffffffffffffffffffffffffffff1602179055506040820151816002019081611bef91906152dd565b506060820151816003019081611c0591906152dd565b50505060a06000867bffffffffffffffffffffffffffffffffffffffffffffffffffffffff19167bffffffffffffffffffffffffffffffffffffffffffffffffffffffff191681526020019081526020016000206000815480929190611c6a906149a2565b9190505550609a60009054906101000a900473ffffffffffffffffffffffffffffffffffffffff1673ffffffffffffffffffffffffffffffffffffffff16634be6cd57866040518263ffffffff1660e01b8152600401611cca91906153af565b600060405180830381600087803b158015611ce457600080fd5b505af1925050508015611cf5575060015b50600060a36000877bffffffffffffffffffffffffffffffffffffffffffffffffffffffff19167bffffffffffffffffffffffffffffffffffffffffffffffffffffffff191681526020019081526020016000205490506000611d57876125c6565b905080821115611db45781877bffffffffffffffffffffffffffffffffffffffffffffffffffffffff19168e7f41965c7df2fea64349aa6feb7128b7c020988c248478e9edb76ead33e4c9317160405160405180910390a4611eb6565b611dbf87838f613223565b50609a60009054906101000a900473ffffffffffffffffffffffffffffffffffffffff1673ffffffffffffffffffffffffffffffffffffffff166312a58f53886040518263ffffffff1660e01b8152600401611e1b91906153af565b602060405180830381865afa158015611e38573d6000803e3d6000fd5b505050506040513d601f19601f82011682018060405250810190611e5c91906153df565b63ffffffff163373ffffffffffffffffffffffffffffffffffffffff168e7f0442be2a6eff0e312e87c4a6da5c9e84f3bd7e912b92c9b3f3d69159e19c59288f8f8f604051611ead9392919061540c565b60405180910390a45b5050505050505b50505050505050565b60a460009054906101000a900460ff1681565b60a55481565b611eec6000801b3361252b565b611f2b576040517f08c379a0000000000000000000000000000000000000000000000000000000008152600401611f2290614b4e565b60405180910390fd5b80609a60006101000a81548173ffffffffffffffffffffffffffffffffffffffff021916908373ffffffffffffffffffffffffffffffffffffffff16021790555050565b60a26020528060005260406000206000915090505481565b609b6020528160005260406000208181548110611fa357600080fd5b90600052602060002001600091509150505481565b60606000611fc583612827565b90506000815190506000611fd8856125c6565b90508082111561208c5760008167ffffffffffffffff811115611ffe57611ffd6139bc565b5b60405190808252806020026020018201604052801561202c5781602001602082028036833780820191505090505b50905060005b8281101561207f5784818151811061204d5761204c614944565b5b602002602001015182828151811061206857612067614944565b5b602002602001018181525050806001019050612032565b5080945050505050612093565b8293505050505b919050565b600082826040516120aa92919061546e565b6040518091039020905092915050565b606060006120c88484612d26565b9050609c6000828152602001908152602001600020805480602002602001604051908101604052809291908181526020016000905b828210156122ff57838290600052602060002090600402016040518060800160405290816000820160009054906101000a900473ffffffffffffffffffffffffffffffffffffffff1673ffffffffffffffffffffffffffffffffffffffff1673ffffffffffffffffffffffffffffffffffffffff1681526020016001820160009054906101000a900473ffffffffffffffffffffffffffffffffffffffff1673ffffffffffffffffffffffffffffffffffffffff1673ffffffffffffffffffffffffffffffffffffffff1681526020016002820180546121dc90614aab565b80601f016020809104026020016040519081016040528092919081815260200182805461220890614aab565b80156122555780601f1061222a57610100808354040283529160200191612255565b820191906000526020600020905b81548152906001019060200180831161223857829003601f168201915b5050505050815260200160038201805461226e90614aab565b80601f016020809104026020016040519081016040528092919081815260200182805461229a90614aab565b80156122e75780601f106122bc576101008083540402835291602001916122e7565b820191906000526020600020905b8154815290600101906020018083116122ca57829003601f168201915b505050505081525050815260200190600101906120fd565b5050505091505092915050565b609860009054906101000a900473ffffffffffffffffffffffffffffffffffffffff1673ffffffffffffffffffffffffffffffffffffffff1663ee06b289336040518263ffffffff1660e01b81526004016123679190614d69565b602060405180830381865afa158015612384573d6000803e3d6000fd5b505050506040513d601f19601f820116820180604052508101906123a89190614db0565b6123e7576040517f08c379a00000000000000000000000000000000000000000000000000000000081526004016123de90614e4f565b60405180910390fd5b868690508989905014801561240157508484905089899050145b612440576040517f08c379a0000000000000000000000000000000000000000000000000000000008152600401612437906154d3565b60405180910390fd5b60005b898990508110156124ee576124e38a8a8381811061246457612463614944565b5b9050602002013589898481811061247e5761247d614944565b5b90506020020160208101906124939190614685565b8888858181106124a6576124a5614944565b5b90506020028101906124b89190615502565b8888878181106124cb576124ca614944565b5b90506020028101906124dd9190615502565b88611641565b806001019050612443565b50505050505050505050565b609e602052816000526040600020818154811061251657600080fd5b90600052602060002001600091509150505481565b60006065600084815260200190815260200160002060000160008373ffffffffffffffffffffffffffffffffffffffff1673ffffffffffffffffffffffffffffffffffffffff16815260200190815260200160002060009054906101000a900460ff16905092915050565b60a96020528060005260406000206000915090505481565b609f6020528060005260406000206000915090505481565b60008060a26000847bffffffffffffffffffffffffffffffffffffffffffffffffffffffff19167bffffffffffffffffffffffffffffffffffffffffffffffffffffffff19168152602001908152602001600020549050600081036126305760a154915050612635565b809150505b919050565b6000801b81565b60a15481565b60a36020528060005260406000206000915090505481565b60a06020528060005260406000206000915090505481565b609a60009054906101000a900473ffffffffffffffffffffffffffffffffffffffff1673ffffffffffffffffffffffffffffffffffffffff163373ffffffffffffffffffffffffffffffffffffffff1614806126dc57506126db6000801b3361252b565b5b61271b576040517f08c379a000000000000000000000000000000000000000000000000000000000815260040161271290614a5c565b60405180910390fd5b609b6000827bffffffffffffffffffffffffffffffffffffffffffffffffffffffff19167bffffffffffffffffffffffffffffffffffffffffffffffffffffffff1916815260200190815260200160002060006127789190613781565b60a06000827bffffffffffffffffffffffffffffffffffffffffffffffffffffffff19167bffffffffffffffffffffffffffffffffffffffffffffffffffffffff1916815260200190815260200160002060009055600060a36000837bffffffffffffffffffffffffffffffffffffffffffffffffffffffff19167bffffffffffffffffffffffffffffffffffffffffffffffffffffffff191681526020019081526020016000208190555050565b6060609b6000837bffffffffffffffffffffffffffffffffffffffffffffffffffffffff19167bffffffffffffffffffffffffffffffffffffffffffffffffffffffff191681526020019081526020016000208054806020026020016040519081016040528092919081815260200182805480156128c457602002820191906000526020600020905b8154815260200190600101908083116128b0575b50505050509050919050565b6128dd6000801b3361252b565b61291c576040517f08c379a000000000000000000000000000000000000000000000000000000000815260040161291390614b4e565b60405180910390fd5b80609960006101000a81548173ffffffffffffffffffffffffffffffffffffffff021916908373ffffffffffffffffffffffffffffffffffffffff16021790555050565b60aa6020528060005260406000206000915090505481565b60008060019054906101000a900460ff161590508080156129a95750600160008054906101000a900460ff1660ff16105b806129d657506129b8306133ae565b1580156129d55750600160008054906101000a900460ff1660ff16145b5b612a15576040517f08c379a0000000000000000000000000000000000000000000000000000000008152600401612a0c906155d7565b60405180910390fd5b60016000806101000a81548160ff021916908360ff1602179055508015612a52576001600060016101000a81548160ff0219169083151502179055505b612a5a6133d1565b612a676000801b83613058565b600160a460006101000a81548160ff021916908315150217905550600060a460016101000a81548160ff0219169083151502179055508015612af65760008060016101000a81548160ff0219169083151502179055507f7f26b83ff96e1f2b6a682f133852f6798a09c465da95921460cefb38474024986001604051612aed919061563f565b60405180910390a15b5050565b60008282604051602001612b0f9291906156b1565b60405160208183030381529060405280519060200120905092915050565b612b3a6000801b3361252b565b612b79576040517f08c379a0000000000000000000000000000000000000000000000000000000008152600401612b7090614b4e565b60405180910390fd5b8060a58190555050565b612b906000801b3361252b565b612bcf576040517f08c379a0000000000000000000000000000000000000000000000000000000008152600401612bc690614b4e565b60405180910390fd5b80609860006101000a81548173ffffffffffffffffffffffffffffffffffffffff021916908373ffffffffffffffffffffffffffffffffffffffff16021790555050565b60a460019054906101000a900460ff1681565b612c2f826110bb565b612c3881613044565b612c428383613141565b505050565b60a76020528060005260406000206000915090505481565b600081421015612c725760009050612d1e565b6000838342612c8191906156dd565b101590506000806000612c9389611fb8565b90506000815103612cab576000945050505050612d1e565b60005b8151811015612d0c576000828281518110612ccc57612ccb614944565b5b602002602001015190506000612ce28c836120ba565b90508a815110612cff57600195508480612cfb906149a2565b9550505b5050806001019050612cae565b50838015612d175750825b9450505050505b949350505050565b60008282604051602001612d3b929190615732565b60405160208183030381529060405280519060200120905092915050565b60a66020528060005260406000206000915090505481565b609c6020528160005260406000208181548110612d8d57600080fd5b9060005260206000209060040201600091509150508060000160009054906101000a900473ffffffffffffffffffffffffffffffffffffffff16908060010160009054906101000a900473ffffffffffffffffffffffffffffffffffffffff1690806002018054612dfd90614aab565b80601f0160208091040260200160405190810160405280929190818152602001828054612e2990614aab565b8015612e765780601f10612e4b57610100808354040283529160200191612e76565b820191906000526020600020905b815481529060010190602001808311612e5957829003601f168201915b505050505090806003018054612e8b90614aab565b80601f0160208091040260200160405190810160405280929190818152602001828054612eb790614aab565b8015612f045780601f10612ed957610100808354040283529160200191612f04565b820191906000526020600020905b815481529060010190602001808311612ee757829003601f168201915b5050505050905084565b612f1b6000801b3361252b565b612f5a576040517f08c379a0000000000000000000000000000000000000000000000000000000008152600401612f5190614b4e565b60405180910390fd5b8060a26000847bffffffffffffffffffffffffffffffffffffffffffffffffffffffff19167bffffffffffffffffffffffffffffffffffffffffffffffffffffffff19168152602001908152602001600020819055505050565b609960009054906101000a900473ffffffffffffffffffffffffffffffffffffffff1681565b60007f01ffc9a7000000000000000000000000000000000000000000000000000000007bffffffffffffffffffffffffffffffffffffffffffffffffffffffff1916827bffffffffffffffffffffffffffffffffffffffffffffffffffffffff1916149050919050565b61305581613050613139565b613422565b50565b613062828261252b565b6131355760016065600084815260200190815260200160002060000160008373ffffffffffffffffffffffffffffffffffffffff1673ffffffffffffffffffffffffffffffffffffffff16815260200190815260200160002060006101000a81548160ff0219169083151502179055506130da613139565b73ffffffffffffffffffffffffffffffffffffffff168173ffffffffffffffffffffffffffffffffffffffff16837f2f8788117e7eff1d82e926ec794901d17c78024a50270940304540a733656f0d60405160405180910390a45b5050565b600033905090565b61314b828261252b565b1561321f5760006065600084815260200190815260200160002060000160008373ffffffffffffffffffffffffffffffffffffffff1673ffffffffffffffffffffffffffffffffffffffff16815260200190815260200160002060006101000a81548160ff0219169083151502179055506131c4613139565b73ffffffffffffffffffffffffffffffffffffffff168173ffffffffffffffffffffffffffffffffffffffff16837ff6391f5c32d9c69d2a47ea670b442974b53935d1edc7fd64eb21e047a839171b60405160405180910390a45b5050565b6000806000905060005b848110156132bd5783609b6000887bffffffffffffffffffffffffffffffffffffffffffffffffffffffff19167bffffffffffffffffffffffffffffffffffffffffffffffffffffffff19168152602001908152602001600020828154811061329957613298614944565b5b9060005260206000200154036132b257600191506132bd565b80600101905061322d565b50806133a357609b6000867bffffffffffffffffffffffffffffffffffffffffffffffffffffffff19167bffffffffffffffffffffffffffffffffffffffffffffffffffffffff1916815260200190815260200160002083908060018154018082558091505060019003906000526020600020016000909190919091505560a36000867bffffffffffffffffffffffffffffffffffffffffffffffffffffffff19167bffffffffffffffffffffffffffffffffffffffffffffffffffffffff19168152602001908152602001600020600081548092919061339d906149a2565b91905055505b809150509392505050565b6000808273ffffffffffffffffffffffffffffffffffffffff163b119050919050565b600060019054906101000a900460ff16613420576040517f08c379a0000000000000000000000000000000000000000000000000000000008152600401613417906157d0565b60405180910390fd5b565b61342c828261252b565b6134a357613439816134a7565b6134478360001c60206134d4565b6040516020016134589291906158cf565b6040516020818303038152906040526040517f08c379a000000000000000000000000000000000000000000000000000000000815260040161349a9190615942565b60405180910390fd5b5050565b60606134cd8273ffffffffffffffffffffffffffffffffffffffff16601460ff166134d4565b9050919050565b6060600060028360026134e79190615964565b6134f191906159a6565b67ffffffffffffffff81111561350a576135096139bc565b5b6040519080825280601f01601f19166020018201604052801561353c5781602001600182028036833780820191505090505b5090507f30000000000000000000000000000000000000000000000000000000000000008160008151811061357457613573614944565b5b60200101907effffffffffffffffffffffffffffffffffffffffffffffffffffffffffffff1916908160001a9053507f7800000000000000000000000000000000000000000000000000000000000000816001815181106135d8576135d7614944565b5b60200101907effffffffffffffffffffffffffffffffffffffffffffffffffffffffffffff1916908160001a905350600060018460026136189190615964565b61362291906159a6565b90505b60018111156136c2577f3031323334353637383961626364656600000000000000000000000000000000600f86166010811061366457613663614944565b5b1a60f81b82828151811061367b5761367a614944565b5b60200101907effffffffffffffffffffffffffffffffffffffffffffffffffffffffffffff1916908160001a905350600485901c9450806136bb906159da565b9050613625565b5060008414613706576040517f08c379a00000000000000000000000000000000000000000000000000000000081526004016136fd90615a4f565b60405180910390fd5b8091505092915050565b82805482825590600052602060002090810192821561374c579160200282015b8281111561374b578251825591602001919060010190613730565b5b50905061375991906137a2565b5090565b508054600082556004029060005260206000209081019061377e91906137bf565b50565b508054600082559060005260206000209081019061379f91906137a2565b50565b5b808211156137bb5760008160009055506001016137a3565b5090565b5b8082111561384057600080820160006101000a81549073ffffffffffffffffffffffffffffffffffffffff02191690556001820160006101000a81549073ffffffffffffffffffffffffffffffffffffffff02191690556002820160006138279190613844565b6003820160006138379190613844565b506004016137c0565b5090565b50805461385090614aab565b6000825580601f106138625750613881565b601f0160209004906000526020600020908101906138809190613884565b5b50565b5b8082111561389d576000816000905550600101613885565b5090565b6000604051905090565b600080fd5b600080fd5b60007fffffffff0000000000000000000000000000000000000000000000000000000082169050919050565b6138ea816138b5565b81146138f557600080fd5b50565b600081359050613907816138e1565b92915050565b600060208284031215613923576139226138ab565b5b6000613931848285016138f8565b91505092915050565b60008115159050919050565b61394f8161393a565b82525050565b600060208201905061396a6000830184613946565b92915050565b6000819050919050565b61398381613970565b811461398e57600080fd5b50565b6000813590506139a08161397a565b92915050565b600080fd5b6000601f19601f8301169050919050565b7f4e487b7100000000000000000000000000000000000000000000000000000000600052604160045260246000fd5b6139f4826139ab565b810181811067ffffffffffffffff82111715613a1357613a126139bc565b5b80604052505050565b6000613a266138a1565b9050613a3282826139eb565b919050565b600067ffffffffffffffff821115613a5257613a516139bc565b5b602082029050602081019050919050565b600080fd5b6000613a7b613a7684613a37565b613a1c565b90508083825260208201905060208402830185811115613a9e57613a9d613a63565b5b835b81811015613ac75780613ab38882613991565b845260208401935050602081019050613aa0565b5050509392505050565b600082601f830112613ae657613ae56139a6565b5b8135613af6848260208601613a68565b91505092915050565b60008060408385031215613b1657613b156138ab565b5b6000613b2485828601613991565b925050602083013567ffffffffffffffff811115613b4557613b446138b0565b5b613b5185828601613ad1565b9150509250929050565b600060208284031215613b7157613b706138ab565b5b6000613b7f84828501613991565b91505092915050565b600081519050919050565b600082825260208201905092915050565b6000819050602082019050919050565b613bbd81613970565b82525050565b6000613bcf8383613bb4565b60208301905092915050565b6000602082019050919050565b6000613bf382613b88565b613bfd8185613b93565b9350613c0883613ba4565b8060005b83811015613c39578151613c208882613bc3565b9750613c2b83613bdb565b925050600181019050613c0c565b5085935050505092915050565b60006020820190508181036000830152613c608184613be8565b905092915050565b60008060408385031215613c7f57613c7e6138ab565b5b6000613c8d858286016138f8565b9250506020613c9e85828601613991565b9150509250929050565b600073ffffffffffffffffffffffffffffffffffffffff82169050919050565b6000819050919050565b6000613ced613ce8613ce384613ca8565b613cc8565b613ca8565b9050919050565b6000613cff82613cd2565b9050919050565b6000613d1182613cf4565b9050919050565b613d2181613d06565b82525050565b6000602082019050613d3c6000830184613d18565b92915050565b613d4b81613970565b82525050565b6000602082019050613d666000830184613d42565b92915050565b600081519050919050565b600082825260208201905092915050565b60005b83811015613da6578082015181840152602081019050613d8b565b60008484015250505050565b6000613dbd82613d6c565b613dc78185613d77565b9350613dd7818560208601613d88565b613de0816139ab565b840191505092915050565b60006020820190508181036000830152613e058184613db2565b905092915050565b6000819050919050565b613e2081613e0d565b8114613e2b57600080fd5b50565b600081359050613e3d81613e17565b92915050565b600060208284031215613e5957613e586138ab565b5b6000613e6784828501613e2e565b91505092915050565b6000613e7b82613cf4565b9050919050565b613e8b81613e70565b82525050565b6000602082019050613ea66000830184613e82565b92915050565b6000613eb782613ca8565b9050919050565b613ec781613eac565b8114613ed257600080fd5b50565b600081359050613ee481613ebe565b92915050565b60008060408385031215613f0157613f006138ab565b5b6000613f0f85828601613991565b9250506020613f2085828601613ed5565b9150509250929050565b6000604082019050613f3f6000830185613946565b613f4c6020830184613946565b9392505050565b6000613f5e82613cd2565b9050919050565b6000613f7082613f53565b9050919050565b613f8081613f65565b82525050565b6000602082019050613f9b6000830184613f77565b92915050565b60008060408385031215613fb857613fb76138ab565b5b6000613fc685828601613991565b9250506020613fd785828601613e2e565b9150509250929050565b613fea81613eac565b82525050565b60006080820190506140056000830187613d42565b6140126020830186613fe1565b61401f6040830185613fe1565b81810360608301526140318184613db2565b905095945050505050565b600080fd5b60008083601f840112614057576140566139a6565b5b8235905067ffffffffffffffff8111156140745761407361403c565b5b6020830191508360018202830111156140905761408f613a63565b5b9250929050565b600080600080600080600060a0888a0312156140b6576140b56138ab565b5b60006140c48a828b01613991565b97505060206140d58a828b01613ed5565b965050604088013567ffffffffffffffff8111156140f6576140f56138b0565b5b6141028a828b01614041565b9550955050606088013567ffffffffffffffff811115614125576141246138b0565b5b6141318a828b01614041565b935093505060806141448a828b016138f8565b91505092959891949750929550565b600061415e82613eac565b9050919050565b61416e81614153565b811461417957600080fd5b50565b60008135905061418b81614165565b92915050565b6000602082840312156141a7576141a66138ab565b5b60006141b58482850161417c565b91505092915050565b6141c781613e0d565b82525050565b60006020820190506141e260008301846141be565b92915050565b600080604083850312156141ff576141fe6138ab565b5b600061420d858286016138f8565b925050602061421e85828601613e2e565b9150509250929050565b6000806020838503121561423f5761423e6138ab565b5b600083013567ffffffffffffffff81111561425d5761425c6138b0565b5b61426985828601614041565b92509250509250929050565b600081519050919050565b600082825260208201905092915050565b6000819050602082019050919050565b6142aa81613eac565b82525050565b600082825260208201905092915050565b60006142cc82613d6c565b6142d681856142b0565b93506142e6818560208601613d88565b6142ef816139ab565b840191505092915050565b600060808301600083015161431260008601826142a1565b50602083015161432560208601826142a1565b506040830151848203604086015261433d82826142c1565b9150506060830151848203606086015261435782826142c1565b9150508091505092915050565b600061437083836142fa565b905092915050565b6000602082019050919050565b600061439082614275565b61439a8185614280565b9350836020820285016143ac85614291565b8060005b858110156143e857848403895281516143c98582614364565b94506143d483614378565b925060208a019950506001810190506143b0565b50829750879550505050505092915050565b600060208201905081810360008301526144148184614385565b905092915050565b60008083601f840112614432576144316139a6565b5b8235905067ffffffffffffffff81111561444f5761444e61403c565b5b60208301915083602082028301111561446b5761446a613a63565b5b9250929050565b60008083601f840112614488576144876139a6565b5b8235905067ffffffffffffffff8111156144a5576144a461403c565b5b6020830191508360208202830111156144c1576144c0613a63565b5b9250929050565b60008083601f8401126144de576144dd6139a6565b5b8235905067ffffffffffffffff8111156144fb576144fa61403c565b5b60208301915083602082028301111561451757614516613a63565b5b9250929050565b600080600080600080600080600060a08a8c0312156145405761453f6138ab565b5b60008a013567ffffffffffffffff81111561455e5761455d6138b0565b5b61456a8c828d0161441c565b995099505060208a013567ffffffffffffffff81111561458d5761458c6138b0565b5b6145998c828d01614472565b975097505060408a013567ffffffffffffffff8111156145bc576145bb6138b0565b5b6145c88c828d016144c8565b955095505060608a013567ffffffffffffffff8111156145eb576145ea6138b0565b5b6145f78c828d016144c8565b9350935050608061460a8c828d016138f8565b9150509295985092959850929598565b600061462582613eac565b9050919050565b6146358161461a565b811461464057600080fd5b50565b6000813590506146528161462c565b92915050565b60006020828403121561466e5761466d6138ab565b5b600061467c84828501614643565b91505092915050565b60006020828403121561469b5761469a6138ab565b5b60006146a984828501613ed5565b91505092915050565b600063ffffffff82169050919050565b6146cb816146b2565b81146146d657600080fd5b50565b6000813590506146e8816146c2565b92915050565b60008060408385031215614705576147046138ab565b5b6000614713858286016138f8565b9250506020614724858286016146d9565b9150509250929050565b600061473982613ca8565b9050919050565b600061474b8261472e565b9050919050565b61475b81614740565b811461476657600080fd5b50565b60008135905061477881614752565b92915050565b600060208284031215614794576147936138ab565b5b60006147a284828501614769565b91505092915050565b600080600080608085870312156147c5576147c46138ab565b5b60006147d3878288016138f8565b94505060206147e487828801613e2e565b93505060406147f587828801613e2e565b925050606061480687828801613e2e565b91505092959194509250565b60006080820190506148276000830187613fe1565b6148346020830186613fe1565b81810360408301526148468185613db2565b9050818103606083015261485a8184613db2565b905095945050505050565b600061487082613cf4565b9050919050565b61488081614865565b82525050565b600060208201905061489b6000830184614877565b92915050565b600082825260208201905092915050565b7f4f6e6c7920746865206174746573746174696f6e42617463684d616b6572206360008201527f616e2063616c6c20746869732066756e6374696f6e0000000000000000000000602082015250565b600061490e6035836148a1565b9150614919826148b2565b604082019050919050565b6000602082019050818103600083015261493d81614901565b9050919050565b7f4e487b7100000000000000000000000000000000000000000000000000000000600052603260045260246000fd5b7f4e487b7100000000000000000000000000000000000000000000000000000000600052601160045260246000fd5b60006149ad82613e0d565b91507fffffffffffffffffffffffffffffffffffffffffffffffffffffffffffffffff82036149df576149de614973565b5b600182019050919050565b7f4f6e6c7920746865206174746573746174696f6e42617463684d616b6572206f60008201527f72206f776e65722063616e2063616c6c20746869732066756e6374696f6e0000602082015250565b6000614a46603e836148a1565b9150614a51826149ea565b604082019050919050565b60006020820190508181036000830152614a7581614a39565b9050919050565b7f4e487b7100000000000000000000000000000000000000000000000000000000600052602260045260246000fd5b60006002820490506001821680614ac357607f821691505b602082108103614ad657614ad5614a7c565b5b50919050565b7f4f6e6c79206f776e65722063616e2063616c6c20746869732066756e6374696f60008201527f6e00000000000000000000000000000000000000000000000000000000000000602082015250565b6000614b386021836148a1565b9150614b4382614adc565b604082019050919050565b60006020820190508181036000830152614b6781614b2b565b9050919050565b614b77816138b5565b82525050565b6000604082019050614b926000830185613d42565b614b9f6020830184614b6e565b9392505050565b600081519050614bb581613e17565b92915050565b600060208284031215614bd157614bd06138ab565b5b6000614bdf84828501614ba6565b91505092915050565b7f416363657373436f6e74726f6c3a2063616e206f6e6c792072656e6f756e636560008201527f20726f6c657320666f722073656c660000000000000000000000000000000000602082015250565b6000614c44602f836148a1565b9150614c4f82614be8565b604082019050919050565b60006020820190508181036000830152614c7381614c37565b9050919050565b600080fd5b600067ffffffffffffffff821115614c9a57614c996139bc565b5b614ca3826139ab565b9050602081019050919050565b6000614cc3614cbe84614c7f565b613a1c565b905082815260208101848484011115614cdf57614cde614c7a565b5b614cea848285613d88565b509392505050565b600082601f830112614d0757614d066139a6565b5b8151614d17848260208601614cb0565b91505092915050565b600060208284031215614d3657614d356138ab565b5b600082015167ffffffffffffffff811115614d5457614d536138b0565b5b614d6084828501614cf2565b91505092915050565b6000602082019050614d7e6000830184613fe1565b92915050565b614d8d8161393a565b8114614d9857600080fd5b50565b600081519050614daa81614d84565b92915050565b600060208284031215614dc657614dc56138ab565b5b6000614dd484828501614d9b565b91505092915050565b7f4f6e6c792063757272656e7420636f6d6d6974746565206d656d62657220636160008201527f6e2063616c6c20746869732066756e6374696f6e000000000000000000000000602082015250565b6000614e396034836148a1565b9150614e4482614ddd565b604082019050919050565b60006020820190508181036000830152614e6881614e2c565b9050919050565b7f5341423200000000000000000000000000000000000000000000000000000000600082015250565b6000614ea56004836148a1565b9150614eb082614e6f565b602082019050919050565b60006020820190508181036000830152614ed481614e98565b9050919050565b7f5341423300000000000000000000000000000000000000000000000000000000600082015250565b6000614f116004836148a1565b9150614f1c82614edb565b602082019050919050565b60006020820190508181036000830152614f4081614f04565b9050919050565b7f5341423400000000000000000000000000000000000000000000000000000000600082015250565b6000614f7d6004836148a1565b9150614f8882614f47565b602082019050919050565b60006020820190508181036000830152614fac81614f70565b9050919050565b7f5341423500000000000000000000000000000000000000000000000000000000600082015250565b6000614fe96004836148a1565b9150614ff482614fb3565b602082019050919050565b6000602082019050818103600083015261501881614fdc565b9050919050565b82818337600083830152505050565b600061503a8385613d77565b935061504783858461501f565b615050836139ab565b840190509392505050565b60006040820190506150706000830186613d42565b818103602083015261508381848661502e565b9050949350505050565b60008151905061509c81613ebe565b92915050565b6000602082840312156150b8576150b76138ab565b5b60006150c68482850161508d565b91505092915050565b7f5341423900000000000000000000000000000000000000000000000000000000600082015250565b60006151056004836148a1565b9150615110826150cf565b602082019050919050565b60006020820190508181036000830152615134816150f8565b9050919050565b60008190508160005260206000209050919050565b60006020601f8301049050919050565b600082821b905092915050565b60006008830261519d7fffffffffffffffffffffffffffffffffffffffffffffffffffffffffffffffff82615160565b6151a78683615160565b95508019841693508086168417925050509392505050565b60006151da6151d56151d084613e0d565b613cc8565b613e0d565b9050919050565b6000819050919050565b6151f4836151bf565b615208615200826151e1565b84845461516d565b825550505050565b600090565b61521d615210565b6152288184846151eb565b505050565b5b8181101561524c57615241600082615215565b60018101905061522e565b5050565b601f821115615291576152628161513b565b61526b84615150565b8101602085101561527a578190505b61528e61528685615150565b83018261522d565b50505b505050565b600082821c905092915050565b60006152b460001984600802615296565b1980831691505092915050565b60006152cd83836152a3565b9150826002028217905092915050565b6152e682613d6c565b67ffffffffffffffff8111156152ff576152fe6139bc565b5b6153098254614aab565b615314828285615250565b600060209050601f8311600181146153475760008415615335578287015190505b61533f85826152c1565b8655506153a7565b601f1984166153558661513b565b60005b8281101561537d57848901518255600182019150602085019450602081019050615358565b8683101561539a5784890151615396601f8916826152a3565b8355505b6001600288020188555050505b505050505050565b60006020820190506153c46000830184614b6e565b92915050565b6000815190506153d9816146c2565b92915050565b6000602082840312156153f5576153f46138ab565b5b6000615403848285016153ca565b91505092915050565b60006040820190506154216000830186613fe1565b818103602083015261543481848661502e565b9050949350505050565b600081905092915050565b6000615455838561543e565b935061546283858461501f565b82840190509392505050565b600061547b828486615449565b91508190509392505050565b7f4174746573746174696f6e426f6f6b3a20696e76616c696420696e7075740000600082015250565b60006154bd601e836148a1565b91506154c882615487565b602082019050919050565b600060208201905081810360008301526154ec816154b0565b9050919050565b600080fd5b600080fd5b600080fd5b6000808335600160200384360303811261551f5761551e6154f3565b5b80840192508235915067ffffffffffffffff821115615541576155406154f8565b5b60208301925060018202360383131561555d5761555c6154fd565b5b509250929050565b7f496e697469616c697a61626c653a20636f6e747261637420697320616c72656160008201527f647920696e697469616c697a6564000000000000000000000000000000000000602082015250565b60006155c1602e836148a1565b91506155cc82615565565b604082019050919050565b600060208201905081810360008301526155f0816155b4565b9050919050565b6000819050919050565b600060ff82169050919050565b600061562961562461561f846155f7565b613cc8565b615601565b9050919050565b6156398161560e565b82525050565b60006020820190506156546000830184615630565b92915050565b6000819050919050565b615675615670826138b5565b61565a565b82525050565b60008160e01b9050919050565b60006156938261567b565b9050919050565b6156ab6156a6826146b2565b615688565b82525050565b60006156bd8285615664565b6004820191506156cd828461569a565b6004820191508190509392505050565b60006156e882613e0d565b91506156f383613e0d565b925082820390508181111561570b5761570a614973565b5b92915050565b6000819050919050565b61572c61572782613970565b615711565b82525050565b600061573e8285615664565b60048201915061574e828461571b565b6020820191508190509392505050565b7f496e697469616c697a61626c653a20636f6e7472616374206973206e6f74206960008201527f6e697469616c697a696e67000000000000000000000000000000000000000000602082015250565b60006157ba602b836148a1565b91506157c58261575e565b604082019050919050565b600060208201905081810360008301526157e9816157ad565b9050919050565b600081905092915050565b7f416363657373436f6e74726f6c3a206163636f756e7420000000000000000000600082015250565b60006158316017836157f0565b915061583c826157fb565b601782019050919050565b600081519050919050565b600061585d82615847565b61586781856157f0565b9350615877818560208601613d88565b80840191505092915050565b7f206973206d697373696e6720726f6c6520000000000000000000000000000000600082015250565b60006158b96011836157f0565b91506158c482615883565b601182019050919050565b60006158da82615824565b91506158e68285615852565b91506158f1826158ac565b91506158fd8284615852565b91508190509392505050565b600061591482615847565b61591e81856148a1565b935061592e818560208601613d88565b615937816139ab565b840191505092915050565b6000602082019050818103600083015261595c8184615909565b905092915050565b600061596f82613e0d565b915061597a83613e0d565b925082820261598881613e0d565b9150828204841483151761599f5761599e614973565b5b5092915050565b60006159b182613e0d565b91506159bc83613e0d565b92508282019050808211156159d4576159d3614973565b5b92915050565b60006159e582613e0d565b9150600082036159f8576159f7614973565b5b600182039050919050565b7f537472696e67733a20686578206c656e67746820696e73756666696369656e74600082015250565b6000615a396020836148a1565b9150615a4482615a03565b602082019050919050565b60006020820190508181036000830152615a6881615a2c565b905091905056fea2646970667358221220cd6b3c7a8d927b2cadc8dc7d6d4882d7eeb825882ad442c4429594295c30e7f164736f6c63430008180033",
  "linkReferences": {},
  "deployedLinkReferences": {}
}