{
  "_format": "hh-sol-artifact-1",
  "contractName": "LocalExchange",
  "sourceName": "contracts/localExchange.sol",
  "abi": [
    {
      "inputs": [
        {
          "internalType": "address",
          "name": "_owner",
          "type": "address"
        }
      ],
      "stateMutability": "nonpayable",
      "type": "constructor"
    },
    {
      "anonymous": false,
      "inputs": [
        {
          "indexed": true,
          "internalType": "bytes32",
          "name": "id",
          "type": "bytes32"
        },
        {
          "indexed": true,
          "internalType": "address",
          "name": "token",
          "type": "address"
        },
        {
          "indexed": true,
          "internalType": "uint256",
          "name": "amount",
          "type": "uint256"
        },
        {
          "indexed": false,
          "internalType": "address",
          "name": "rewardToken",
          "type": "address"
        },
        {
          "indexed": false,
          "internalType": "uint256",
          "name": "reward",
          "type": "uint256"
        }
      ],
      "name": "LocalOrder",
      "type": "event"
    },
    {
      "anonymous": false,
      "inputs": [
        {
          "indexed": true,
          "internalType": "address",
          "name": "user",
          "type": "address"
        },
        {
          "indexed": true,
          "internalType": "address",
          "name": "executor",
          "type": "address"
        },
        {
          "indexed": true,
          "internalType": "address",
          "name": "token",
          "type": "address"
        },
        {
          "indexed": false,
          "internalType": "uint256",
          "name": "amount",
          "type": "uint256"
        }
      ],
      "name": "OrderExecuted",
      "type": "event"
    },
    {
      "inputs": [
        {
          "internalType": "uint256",
          "name": "orderSubmissionBlockNumber",
          "type": "uint256"
        },
        {
          "internalType": "address",
          "name": "token",
          "type": "address"
        },
        {
          "internalType": "uint256",
          "name": "amount",
          "type": "uint256"
        },
        {
          "internalType": "address",
          "name": "rewardToken",
          "type": "address"
        },
        {
          "internalType": "uint256",
          "name": "reward",
          "type": "uint256"
        }
      ],
      "name": "claimRefund",
      "outputs": [],
      "stateMutability": "payable",
      "type": "function"
    },
    {
      "inputs": [
        {
          "internalType": "uint256",
          "name": "orderSubmissionBlockNumber",
          "type": "uint256"
        },
        {
          "internalType": "address payable",
          "name": "user",
          "type": "address"
        },
        {
          "internalType": "address",
          "name": "token",
          "type": "address"
        },
        {
          "internalType": "uint256",
          "name": "amount",
          "type": "uint256"
        },
        {
          "internalType": "address",
          "name": "rewardToken",
          "type": "address"
        },
        {
          "internalType": "uint256",
          "name": "reward",
          "type": "uint256"
        }
      ],
      "name": "executeLocalOrder",
      "outputs": [],
      "stateMutability": "payable",
      "type": "function"
    },
    {
      "inputs": [
        {
          "internalType": "address",
          "name": "token",
          "type": "address"
        },
        {
          "internalType": "uint256",
          "name": "amount",
          "type": "uint256"
        },
        {
          "internalType": "address",
          "name": "rewardToken",
          "type": "address"
        },
        {
          "internalType": "uint256",
          "name": "reward",
          "type": "uint256"
        }
      ],
      "name": "localOrder",
      "outputs": [],
      "stateMutability": "payable",
      "type": "function"
    },
    {
      "inputs": [
        {
          "internalType": "bytes32",
          "name": "",
          "type": "bytes32"
        }
      ],
      "name": "localOrders",
      "outputs": [
        {
          "internalType": "bool",
          "name": "",
          "type": "bool"
        }
      ],
      "stateMutability": "view",
      "type": "function"
    },
    {
      "inputs": [],
      "name": "maxTimeout",
      "outputs": [
        {
          "internalType": "uint256",
          "name": "",
          "type": "uint256"
        }
      ],
      "stateMutability": "view",
      "type": "function"
    },
    {
      "inputs": [],
      "name": "owner",
      "outputs": [
        {
          "internalType": "address",
          "name": "",
          "type": "address"
        }
      ],
      "stateMutability": "view",
      "type": "function"
    },
    {
      "inputs": [
        {
          "internalType": "address",
          "name": "",
          "type": "address"
        }
      ],
      "name": "requestNonce",
      "outputs": [
        {
          "internalType": "uint32",
          "name": "",
          "type": "uint32"
        }
      ],
      "stateMutability": "view",
      "type": "function"
    },
    {
      "inputs": [
        {
          "internalType": "uint256",
          "name": "timeout",
          "type": "uint256"
        }
      ],
      "name": "setMaxTimeout",
      "outputs": [],
      "stateMutability": "nonpayable",
      "type": "function"
    },
    {
      "stateMutability": "payable",
      "type": "receive"
    }
  ],
  "bytecode": "0x60806040523480156200001157600080fd5b5060405162002165380380620021658339818101604052810190620000379190620000f1565b80600360006101000a81548173ffffffffffffffffffffffffffffffffffffffff021916908373ffffffffffffffffffffffffffffffffffffffff16021790555060806002819055505062000123565b600080fd5b600073ffffffffffffffffffffffffffffffffffffffff82169050919050565b6000620000b9826200008c565b9050919050565b620000cb81620000ac565b8114620000d757600080fd5b50565b600081519050620000eb81620000c0565b92915050565b6000602082840312156200010a576200010962000087565b5b60006200011a84828501620000da565b91505092915050565b61203280620001336000396000f3fe60806040526004361061007f5760003560e01c80637e03d3351161004e5780637e03d335146101175780638da5cb5b14610154578063e11739421461017f578063f8e60ace146101bc57610086565b80632a689f5d1461008b5780633f6a24c9146100a75780634695642c146100d057806368b85aa5146100ec57610086565b3661008657005b600080fd5b6100a560048036038101906100a0919061129a565b6101d8565b005b3480156100b357600080fd5b506100ce60048036038101906100c99190611327565b610893565b005b6100ea60048036038101906100e59190611354565b61092d565b005b3480156100f857600080fd5b50610101610c6f565b60405161010e91906113ca565b60405180910390f35b34801561012357600080fd5b5061013e6004803603810190610139919061141b565b610c75565b60405161014b9190611463565b60405180910390f35b34801561016057600080fd5b50610169610c95565b604051610176919061148d565b60405180910390f35b34801561018b57600080fd5b506101a660048036038101906101a191906114a8565b610cbb565b6040516101b391906114f4565b60405180910390f35b6101d660048036038101906101d1919061150f565b610cde565b005b833384600073ffffffffffffffffffffffffffffffffffffffff168373ffffffffffffffffffffffffffffffffffffffff160361025657803414610251576040517f08c379a00000000000000000000000000000000000000000000000000000000081526004016102489061160d565b60405180910390fd5b6103d1565b808373ffffffffffffffffffffffffffffffffffffffff166370a08231846040518263ffffffff1660e01b8152600401610290919061148d565b602060405180830381865afa1580156102ad573d6000803e3d6000fd5b505050506040513d601f19601f820116820180604052508101906102d19190611642565b1015610312576040517f08c379a0000000000000000000000000000000000000000000000000000000008152600401610309906116bb565b60405180910390fd5b808373ffffffffffffffffffffffffffffffffffffffff1663dd62ed3e84306040518363ffffffff1660e01b815260040161034e9291906116db565b602060405180830381865afa15801561036b573d6000803e3d6000fd5b505050506040513d601f19601f8201168201806040525081019061038f9190611642565b10156103d0576040517f08c379a00000000000000000000000000000000000000000000000000000000081526004016103c790611750565b60405180910390fd5b5b6000888a6040516020016103e69291906117d9565b6040516020818303038152906040528051906020012090506000818989898960405160200161041995949392919061184f565b6040516020818303038152906040528051906020012090506001600082815260200190815260200160002060009054906101000a900460ff16610491576040517f08c379a0000000000000000000000000000000000000000000000000000000008152600401610488906118fa565b60405180910390fd5b60006001600083815260200190815260200160002060006101000a81548160ff021916908315150217905550600073ffffffffffffffffffffffffffffffffffffffff168973ffffffffffffffffffffffffffffffffffffffff16141580156105745750858973ffffffffffffffffffffffffffffffffffffffff1663dd62ed3e8c306040518363ffffffff1660e01b8152600401610531929190611979565b602060405180830381865afa15801561054e573d6000803e3d6000fd5b505050506040513d601f19601f820116820180604052508101906105729190611642565b105b80156105f85750858973ffffffffffffffffffffffffffffffffffffffff166370a082318c6040518263ffffffff1660e01b81526004016105b591906119a2565b602060405180830381865afa1580156105d2573d6000803e3d6000fd5b505050506040513d601f19601f820116820180604052508101906105f69190611642565b105b15610604575050610888565b6002548b61061291906119ec565b4310610653576040517f08c379a000000000000000000000000000000000000000000000000000000000815260040161064a90611a6c565b60405180910390fd5b600088111561070b57600073ffffffffffffffffffffffffffffffffffffffff168973ffffffffffffffffffffffffffffffffffffffff16036106dc578973ffffffffffffffffffffffffffffffffffffffff166108fc899081150290604051600060405180830381858888f193505050501580156106d6573d6000803e3d6000fd5b5061070a565b610709338b8a8c73ffffffffffffffffffffffffffffffffffffffff16610ea5909392919063ffffffff16565b5b5b6000861180156107485750600073ffffffffffffffffffffffffffffffffffffffff168973ffffffffffffffffffffffffffffffffffffffff1614155b1561077f5761077a8a33888a73ffffffffffffffffffffffffffffffffffffffff16610ea5909392919063ffffffff16565b610809565b6000861180156107bb5750600073ffffffffffffffffffffffffffffffffffffffff168973ffffffffffffffffffffffffffffffffffffffff16145b15610808573373ffffffffffffffffffffffffffffffffffffffff166108fc879081150290604051600060405180830381858888f19350505050158015610806573d6000803e3d6000fd5b505b5b8873ffffffffffffffffffffffffffffffffffffffff163373ffffffffffffffffffffffffffffffffffffffff168b73ffffffffffffffffffffffffffffffffffffffff167fc14c7ad0716ce43a892850750d922df4dc28a0303cc62f22b01077fdfe2d52258b60405161087d91906113ca565b60405180910390a450505b505050505050505050565b600360009054906101000a900473ffffffffffffffffffffffffffffffffffffffff1673ffffffffffffffffffffffffffffffffffffffff163373ffffffffffffffffffffffffffffffffffffffff1614610923576040517f08c379a000000000000000000000000000000000000000000000000000000000815260040161091a90611afe565b60405180910390fd5b8060028190555050565b813382600073ffffffffffffffffffffffffffffffffffffffff168373ffffffffffffffffffffffffffffffffffffffff16036109ab578034146109a6576040517f08c379a000000000000000000000000000000000000000000000000000000000815260040161099d9061160d565b60405180910390fd5b610b26565b808373ffffffffffffffffffffffffffffffffffffffff166370a08231846040518263ffffffff1660e01b81526004016109e5919061148d565b602060405180830381865afa158015610a02573d6000803e3d6000fd5b505050506040513d601f19601f82011682018060405250810190610a269190611642565b1015610a67576040517f08c379a0000000000000000000000000000000000000000000000000000000008152600401610a5e906116bb565b60405180910390fd5b808373ffffffffffffffffffffffffffffffffffffffff1663dd62ed3e84306040518363ffffffff1660e01b8152600401610aa39291906116db565b602060405180830381865afa158015610ac0573d6000803e3d6000fd5b505050506040513d601f19601f82011682018060405250810190610ae49190611642565b1015610b25576040517f08c379a0000000000000000000000000000000000000000000000000000000008152600401610b1c90611750565b60405180910390fd5b5b60003343604051602001610b3b929190611b1e565b60405160208183030381529060405280519060200120905060008189898989604051602001610b6e95949392919061184f565b6040516020818303038152906040528051906020012090506001600082815260200190815260200160002060009054906101000a900460ff1615610be7576040517f08c379a0000000000000000000000000000000000000000000000000000000008152600401610bde90611b96565b60405180910390fd5b600180600083815260200190815260200160002060006101000a81548160ff021916908315150217905550878973ffffffffffffffffffffffffffffffffffffffff16837f167fe717cfb6de29b222464bf67b831e7e231f01a492fed65fbc75f664180daf8a8a604051610c5c929190611bb6565b60405180910390a4505050505050505050565b60025481565b60016020528060005260406000206000915054906101000a900460ff1681565b600360009054906101000a900473ffffffffffffffffffffffffffffffffffffffff1681565b60006020528060005260406000206000915054906101000a900463ffffffff1681565b600033905060008187604051602001610cf89291906117d9565b60405160208183030381529060405280519060200120905060008187878787604051602001610d2b95949392919061184f565b6040516020818303038152906040528051906020012090506001600082815260200190815260200160002060009054906101000a900460ff16610da3576040517f08c379a0000000000000000000000000000000000000000000000000000000008152600401610d9a90611c51565b60405180910390fd5b60025488610db191906119ec565b431015610df3576040517f08c379a0000000000000000000000000000000000000000000000000000000008152600401610dea90611cbd565b60405180910390fd5b60006001600083815260200190815260200160002060006101000a81548160ff021916908315150217905550600073ffffffffffffffffffffffffffffffffffffffff168573ffffffffffffffffffffffffffffffffffffffff1603610e9b578273ffffffffffffffffffffffffffffffffffffffff166108fc859081150290604051600060405180830381858888f19350505050158015610e99573d6000803e3d6000fd5b505b5050505050505050565b610f28846323b872dd60e01b858585604051602401610ec693929190611cdd565b604051602081830303815290604052907bffffffffffffffffffffffffffffffffffffffffffffffffffffffff19166020820180517bffffffffffffffffffffffffffffffffffffffffffffffffffffffff8381831617835250505050610f2e565b50505050565b6000610f90826040518060400160405280602081526020017f5361666545524332303a206c6f772d6c6576656c2063616c6c206661696c65648152508573ffffffffffffffffffffffffffffffffffffffff16610ff69092919063ffffffff16565b9050600081511480610fb2575080806020019051810190610fb19190611d40565b5b610ff1576040517f08c379a0000000000000000000000000000000000000000000000000000000008152600401610fe890611ddf565b60405180910390fd5b505050565b6060611005848460008561100e565b90509392505050565b606082471015611053576040517f08c379a000000000000000000000000000000000000000000000000000000000815260040161104a90611e71565b60405180910390fd5b6000808673ffffffffffffffffffffffffffffffffffffffff16858760405161107c9190611f02565b60006040518083038185875af1925050503d80600081146110b9576040519150601f19603f3d011682016040523d82523d6000602084013e6110be565b606091505b50915091506110cf878383876110db565b92505050949350505050565b6060831561113d576000835103611135576110f585611150565b611134576040517f08c379a000000000000000000000000000000000000000000000000000000000815260040161112b90611f65565b60405180910390fd5b5b829050611148565b6111478383611173565b5b949350505050565b6000808273ffffffffffffffffffffffffffffffffffffffff163b119050919050565b6000825111156111865781518083602001fd5b806040517f08c379a00000000000000000000000000000000000000000000000000000000081526004016111ba9190611fda565b60405180910390fd5b600080fd5b6000819050919050565b6111db816111c8565b81146111e657600080fd5b50565b6000813590506111f8816111d2565b92915050565b600073ffffffffffffffffffffffffffffffffffffffff82169050919050565b6000611229826111fe565b9050919050565b6112398161121e565b811461124457600080fd5b50565b60008135905061125681611230565b92915050565b6000611267826111fe565b9050919050565b6112778161125c565b811461128257600080fd5b50565b6000813590506112948161126e565b92915050565b60008060008060008060c087890312156112b7576112b66111c3565b5b60006112c589828a016111e9565b96505060206112d689828a01611247565b95505060406112e789828a01611285565b94505060606112f889828a016111e9565b935050608061130989828a01611285565b92505060a061131a89828a016111e9565b9150509295509295509295565b60006020828403121561133d5761133c6111c3565b5b600061134b848285016111e9565b91505092915050565b6000806000806080858703121561136e5761136d6111c3565b5b600061137c87828801611285565b945050602061138d878288016111e9565b935050604061139e87828801611285565b92505060606113af878288016111e9565b91505092959194509250565b6113c4816111c8565b82525050565b60006020820190506113df60008301846113bb565b92915050565b6000819050919050565b6113f8816113e5565b811461140357600080fd5b50565b600081359050611415816113ef565b92915050565b600060208284031215611431576114306111c3565b5b600061143f84828501611406565b91505092915050565b60008115159050919050565b61145d81611448565b82525050565b60006020820190506114786000830184611454565b92915050565b6114878161125c565b82525050565b60006020820190506114a2600083018461147e565b92915050565b6000602082840312156114be576114bd6111c3565b5b60006114cc84828501611285565b91505092915050565b600063ffffffff82169050919050565b6114ee816114d5565b82525050565b600060208201905061150960008301846114e5565b92915050565b600080600080600060a0868803121561152b5761152a6111c3565b5b6000611539888289016111e9565b955050602061154a88828901611285565b945050604061155b888289016111e9565b935050606061156c88828901611285565b925050608061157d888289016111e9565b9150509295509295909350565b600082825260208201905092915050565b7f4d69736d617463686564206465706f73697420657865637574696f6e20616d6f60008201527f756e74206f66206e617469766500000000000000000000000000000000000000602082015250565b60006115f7602d8361158a565b91506116028261159b565b604082019050919050565b60006020820190508181036000830152611626816115ea565b9050919050565b60008151905061163c816111d2565b92915050565b600060208284031215611658576116576111c3565b5b60006116668482850161162d565b91505092915050565b7f496e73756666696369656e7420757365722062616c616e636500000000000000600082015250565b60006116a560198361158a565b91506116b08261166f565b602082019050919050565b600060208201905081810360008301526116d481611698565b9050919050565b60006040820190506116f0600083018561147e565b6116fd602083018461147e565b9392505050565b7f496e73756666696369656e74207573657220616c6c6f77616e63650000000000600082015250565b600061173a601b8361158a565b915061174582611704565b602082019050919050565b600060208201905081810360008301526117698161172d565b9050919050565b60008160601b9050919050565b600061178882611770565b9050919050565b600061179a8261177d565b9050919050565b6117b26117ad8261121e565b61178f565b82525050565b6000819050919050565b6117d36117ce826111c8565b6117b8565b82525050565b60006117e582856117a1565b6014820191506117f582846117c2565b6020820191508190509392505050565b6000819050919050565b61182061181b826113e5565b611805565b82525050565b60006118318261177d565b9050919050565b6118496118448261125c565b611826565b82525050565b600061185b828861180f565b60208201915061186b8287611838565b60148201915061187b82866117c2565b60208201915061188b8285611838565b60148201915061189b82846117c2565b6020820191508190509695505050505050565b7f4f7264657220646f6573206e6f74206578697374000000000000000000000000600082015250565b60006118e460148361158a565b91506118ef826118ae565b602082019050919050565b60006020820190508181036000830152611913816118d7565b9050919050565b6000819050919050565b600061193f61193a611935846111fe565b61191a565b6111fe565b9050919050565b600061195182611924565b9050919050565b600061196382611946565b9050919050565b61197381611958565b82525050565b600060408201905061198e600083018561196a565b61199b602083018461147e565b9392505050565b60006020820190506119b7600083018461196a565b92915050565b7f4e487b7100000000000000000000000000000000000000000000000000000000600052601160045260246000fd5b60006119f7826111c8565b9150611a02836111c8565b9250828201905080821115611a1a57611a196119bd565b5b92915050565b7f4f72646572206861732074696d6564206f757400000000000000000000000000600082015250565b6000611a5660138361158a565b9150611a6182611a20565b602082019050919050565b60006020820190508181036000830152611a8581611a49565b9050919050565b7f4f6e6c79206f776e65722063616e2063616c6c20746869732066756e6374696f60008201527f6e00000000000000000000000000000000000000000000000000000000000000602082015250565b6000611ae860218361158a565b9150611af382611a8c565b604082019050919050565b60006020820190508181036000830152611b1781611adb565b9050919050565b6000611b2a8285611838565b601482019150611b3a82846117c2565b6020820191508190509392505050565b7f4f7264657220616c726561647920657869737473000000000000000000000000600082015250565b6000611b8060148361158a565b9150611b8b82611b4a565b602082019050919050565b60006020820190508181036000830152611baf81611b73565b9050919050565b6000604082019050611bcb600083018561147e565b611bd860208301846113bb565b9392505050565b7f4f7264657220646f6573206e6f74206578697374206f722068617320616c726560008201527f616479206265656e2065786563757465647c636c61696d656400000000000000602082015250565b6000611c3b60398361158a565b9150611c4682611bdf565b604082019050919050565b60006020820190508181036000830152611c6a81611c2e565b9050919050565b7f4f7264657220686173206e6f742074696d6564206f7574000000000000000000600082015250565b6000611ca760178361158a565b9150611cb282611c71565b602082019050919050565b60006020820190508181036000830152611cd681611c9a565b9050919050565b6000606082019050611cf2600083018661147e565b611cff602083018561147e565b611d0c60408301846113bb565b949350505050565b611d1d81611448565b8114611d2857600080fd5b50565b600081519050611d3a81611d14565b92915050565b600060208284031215611d5657611d556111c3565b5b6000611d6484828501611d2b565b91505092915050565b7f5361666545524332303a204552433230206f7065726174696f6e20646964206e60008201527f6f74207375636365656400000000000000000000000000000000000000000000602082015250565b6000611dc9602a8361158a565b9150611dd482611d6d565b604082019050919050565b60006020820190508181036000830152611df881611dbc565b9050919050565b7f416464726573733a20696e73756666696369656e742062616c616e636520666f60008201527f722063616c6c0000000000000000000000000000000000000000000000000000602082015250565b6000611e5b60268361158a565b9150611e6682611dff565b604082019050919050565b60006020820190508181036000830152611e8a81611e4e565b9050919050565b600081519050919050565b600081905092915050565b60005b83811015611ec5578082015181840152602081019050611eaa565b60008484015250505050565b6000611edc82611e91565b611ee68185611e9c565b9350611ef6818560208601611ea7565b80840191505092915050565b6000611f0e8284611ed1565b915081905092915050565b7f416464726573733a2063616c6c20746f206e6f6e2d636f6e7472616374000000600082015250565b6000611f4f601d8361158a565b9150611f5a82611f19565b602082019050919050565b60006020820190508181036000830152611f7e81611f42565b9050919050565b600081519050919050565b6000601f19601f8301169050919050565b6000611fac82611f85565b611fb6818561158a565b9350611fc6818560208601611ea7565b611fcf81611f90565b840191505092915050565b60006020820190508181036000830152611ff48184611fa1565b90509291505056fea264697066735822122073f204de0fb6df733b57a9233aa5056bd21bd75a2e3ce0b14272ff1baa37997a64736f6c63430008180033",
  "linkReferences": {},
  "deployedLinkReferences": {}
}