{
  "_format": "hh-sol-artifact-1",
  "contractName": "AttestationBatchMakerV3",
  "sourceName": "contracts/attestationBatchMakerV3.sol",
  "abi": [
    {
      "inputs": [],
      "stateMutability": "nonpayable",
      "type": "constructor"
    },
    {
      "anonymous": false,
      "inputs": [
        {
          "indexed": true,
          "internalType": "bytes32",
          "name": "attestationBatchMessageHash",
          "type": "bytes32"
        },
        {
          "indexed": true,
          "internalType": "uint32",
          "name": "batchIndex",
          "type": "uint32"
        },
        {
          "indexed": true,
          "internalType": "bytes4",
          "name": "networkId",
          "type": "bytes4"
        },
        {
          "indexed": false,
          "internalType": "bytes",
          "name": "encodedBatchPayload",
          "type": "bytes"
        }
      ],
      "name": "BatchConstructed",
      "type": "event"
    },
    {
      "anonymous": false,
      "inputs": [
        {
          "indexed": false,
          "internalType": "uint256",
          "name": "errorCode",
          "type": "uint256"
        },
        {
          "indexed": false,
          "internalType": "bytes4",
          "name": "networkId",
          "type": "bytes4"
        }
      ],
      "name": "BatchError",
      "type": "event"
    },
    {
      "anonymous": false,
      "inputs": [
        {
          "indexed": false,
          "internalType": "uint8",
          "name": "version",
          "type": "uint8"
        }
      ],
      "name": "Initialized",
      "type": "event"
    },
    {
      "anonymous": false,
      "inputs": [
        {
          "indexed": true,
          "internalType": "bytes32",
          "name": "id",
          "type": "bytes32"
        },
        {
          "indexed": true,
          "internalType": "address",
          "name": "attester",
          "type": "address"
        },
        {
          "indexed": true,
          "internalType": "uint32",
          "name": "batchIndex",
          "type": "uint32"
        },
        {
          "indexed": false,
          "internalType": "address",
          "name": "beneficiary",
          "type": "address"
        },
        {
          "indexed": false,
          "internalType": "bytes32",
          "name": "attestationBatchMessageHash",
          "type": "bytes32"
        },
        {
          "indexed": false,
          "internalType": "bytes",
          "name": "signature",
          "type": "bytes"
        }
      ],
      "name": "OrderAttested",
      "type": "event"
    },
    {
      "anonymous": false,
      "inputs": [
        {
          "indexed": true,
          "internalType": "bytes32",
          "name": "role",
          "type": "bytes32"
        },
        {
          "indexed": true,
          "internalType": "bytes32",
          "name": "previousAdminRole",
          "type": "bytes32"
        },
        {
          "indexed": true,
          "internalType": "bytes32",
          "name": "newAdminRole",
          "type": "bytes32"
        }
      ],
      "name": "RoleAdminChanged",
      "type": "event"
    },
    {
      "anonymous": false,
      "inputs": [
        {
          "indexed": true,
          "internalType": "bytes32",
          "name": "role",
          "type": "bytes32"
        },
        {
          "indexed": true,
          "internalType": "address",
          "name": "account",
          "type": "address"
        },
        {
          "indexed": true,
          "internalType": "address",
          "name": "sender",
          "type": "address"
        }
      ],
      "name": "RoleGranted",
      "type": "event"
    },
    {
      "anonymous": false,
      "inputs": [
        {
          "indexed": true,
          "internalType": "bytes32",
          "name": "role",
          "type": "bytes32"
        },
        {
          "indexed": true,
          "internalType": "address",
          "name": "account",
          "type": "address"
        },
        {
          "indexed": true,
          "internalType": "address",
          "name": "sender",
          "type": "address"
        }
      ],
      "name": "RoleRevoked",
      "type": "event"
    },
    {
      "inputs": [],
      "name": "DEFAULT_ADMIN_ROLE",
      "outputs": [
        {
          "internalType": "bytes32",
          "name": "",
          "type": "bytes32"
        }
      ],
      "stateMutability": "view",
      "type": "function"
    },
    {
      "inputs": [
        {
          "internalType": "bytes",
          "name": "batchPayload",
          "type": "bytes"
        },
        {
          "internalType": "bytes",
          "name": "signature",
          "type": "bytes"
        },
        {
          "internalType": "bytes4",
          "name": "networkId",
          "type": "bytes4"
        }
      ],
      "name": "attestBatch",
      "outputs": [],
      "stateMutability": "nonpayable",
      "type": "function"
    },
    {
      "inputs": [],
      "name": "attestationBatchMakerV2",
      "outputs": [
        {
          "internalType": "contract AttestationBatchMakerV2",
          "name": "",
          "type": "address"
        }
      ],
      "stateMutability": "view",
      "type": "function"
    },
    {
      "inputs": [],
      "name": "attestationsVerifierProofs",
      "outputs": [
        {
          "internalType": "contract AttestationsVerifierProofs",
          "name": "",
          "type": "address"
        }
      ],
      "stateMutability": "view",
      "type": "function"
    },
    {
      "inputs": [],
      "name": "attestersPortal",
      "outputs": [
        {
          "internalType": "contract AttestersPortal",
          "name": "",
          "type": "address"
        }
      ],
      "stateMutability": "view",
      "type": "function"
    },
    {
      "inputs": [
        {
          "internalType": "bytes4",
          "name": "",
          "type": "bytes4"
        }
      ],
      "name": "batchConstructionIntervalHeightByNetwork",
      "outputs": [
        {
          "internalType": "uint256",
          "name": "",
          "type": "uint256"
        }
      ],
      "stateMutability": "view",
      "type": "function"
    },
    {
      "inputs": [
        {
          "internalType": "bytes32",
          "name": "",
          "type": "bytes32"
        }
      ],
      "name": "batchMessageHashToCombinedKey",
      "outputs": [
        {
          "internalType": "bytes32",
          "name": "",
          "type": "bytes32"
        }
      ],
      "stateMutability": "view",
      "type": "function"
    },
    {
      "inputs": [
        {
          "internalType": "bytes32",
          "name": "",
          "type": "bytes32"
        },
        {
          "internalType": "uint256",
          "name": "",
          "type": "uint256"
        }
      ],
      "name": "batchMessageHashesByIndexSourceHash",
      "outputs": [
        {
          "internalType": "bytes32",
          "name": "attestationBatchMessageHash",
          "type": "bytes32"
        },
        {
          "internalType": "address",
          "name": "attester",
          "type": "address"
        },
        {
          "internalType": "bytes",
          "name": "signature",
          "type": "bytes"
        }
      ],
      "stateMutability": "view",
      "type": "function"
    },
    {
      "inputs": [
        {
          "internalType": "bytes32",
          "name": "",
          "type": "bytes32"
        }
      ],
      "name": "batchPayloads",
      "outputs": [
        {
          "internalType": "bytes",
          "name": "",
          "type": "bytes"
        }
      ],
      "stateMutability": "view",
      "type": "function"
    },
    {
      "inputs": [
        {
          "internalType": "bytes4",
          "name": "network",
          "type": "bytes4"
        },
        {
          "internalType": "uint32",
          "name": "index",
          "type": "uint32"
        }
      ],
      "name": "combineNetworkIdWithIndex",
      "outputs": [
        {
          "internalType": "bytes32",
          "name": "",
          "type": "bytes32"
        }
      ],
      "stateMutability": "pure",
      "type": "function"
    },
    {
      "inputs": [
        {
          "internalType": "bytes4",
          "name": "",
          "type": "bytes4"
        }
      ],
      "name": "currentBatchIndexByNetwork",
      "outputs": [
        {
          "internalType": "uint32",
          "name": "",
          "type": "uint32"
        }
      ],
      "stateMutability": "view",
      "type": "function"
    },
    {
      "inputs": [
        {
          "internalType": "bytes4",
          "name": "networkId",
          "type": "bytes4"
        },
        {
          "internalType": "uint32",
          "name": "index",
          "type": "uint32"
        }
      ],
      "name": "getBatchAttestationsByIndex",
      "outputs": [
        {
          "components": [
            {
              "internalType": "bytes32",
              "name": "attestationBatchMessageHash",
              "type": "bytes32"
            },
            {
              "internalType": "address",
              "name": "attester",
              "type": "address"
            },
            {
              "internalType": "bytes",
              "name": "signature",
              "type": "bytes"
            }
          ],
          "internalType": "struct AttestationBatchMakerV2.BatchAttestation[]",
          "name": "",
          "type": "tuple[]"
        }
      ],
      "stateMutability": "view",
      "type": "function"
    },
    {
      "inputs": [
        {
          "internalType": "bytes4",
          "name": "networkId",
          "type": "bytes4"
        },
        {
          "internalType": "uint32",
          "name": "index",
          "type": "uint32"
        }
      ],
      "name": "getBatchAttestationsToNetworkByIndex",
      "outputs": [
        {
          "components": [
            {
              "internalType": "bytes32",
              "name": "attestationBatchMessageHash",
              "type": "bytes32"
            },
            {
              "internalType": "address",
              "name": "attester",
              "type": "address"
            },
            {
              "internalType": "bytes",
              "name": "signature",
              "type": "bytes"
            }
          ],
          "internalType": "struct AttestationBatchMakerV2.BatchAttestation[]",
          "name": "",
          "type": "tuple[]"
        }
      ],
      "stateMutability": "view",
      "type": "function"
    },
    {
      "inputs": [
        {
          "internalType": "bytes4",
          "name": "networkId",
          "type": "bytes4"
        }
      ],
      "name": "getBatchIndexByNetwork",
      "outputs": [
        {
          "internalType": "uint32",
          "name": "",
          "type": "uint32"
        }
      ],
      "stateMutability": "view",
      "type": "function"
    },
    {
      "inputs": [
        {
          "internalType": "bytes4",
          "name": "networkId",
          "type": "bytes4"
        },
        {
          "internalType": "uint32",
          "name": "index",
          "type": "uint32"
        }
      ],
      "name": "getBatchMessageHashByIndexAndNetwork",
      "outputs": [
        {
          "internalType": "bytes32",
          "name": "",
          "type": "bytes32"
        }
      ],
      "stateMutability": "view",
      "type": "function"
    },
    {
      "inputs": [
        {
          "internalType": "bytes32",
          "name": "attestationBatchMessageHash",
          "type": "bytes32"
        }
      ],
      "name": "getBatchPayload",
      "outputs": [
        {
          "internalType": "bytes",
          "name": "",
          "type": "bytes"
        }
      ],
      "stateMutability": "view",
      "type": "function"
    },
    {
      "inputs": [
        {
          "internalType": "bytes4",
          "name": "networkId",
          "type": "bytes4"
        },
        {
          "internalType": "uint32",
          "name": "index",
          "type": "uint32"
        }
      ],
      "name": "getMostPopularBatchPayloadByIndexWithQuorumCheck",
      "outputs": [
        {
          "internalType": "bytes",
          "name": "",
          "type": "bytes"
        }
      ],
      "stateMutability": "view",
      "type": "function"
    },
    {
      "inputs": [],
      "name": "getQuorum",
      "outputs": [
        {
          "internalType": "uint256",
          "name": "",
          "type": "uint256"
        }
      ],
      "stateMutability": "view",
      "type": "function"
    },
    {
      "inputs": [
        {
          "internalType": "bytes32",
          "name": "role",
          "type": "bytes32"
        }
      ],
      "name": "getRoleAdmin",
      "outputs": [
        {
          "internalType": "bytes32",
          "name": "",
          "type": "bytes32"
        }
      ],
      "stateMutability": "view",
      "type": "function"
    },
    {
      "inputs": [],
      "name": "getStartingGMPayload",
      "outputs": [
        {
          "internalType": "bytes",
          "name": "",
          "type": "bytes"
        }
      ],
      "stateMutability": "pure",
      "type": "function"
    },
    {
      "inputs": [
        {
          "internalType": "bytes32",
          "name": "role",
          "type": "bytes32"
        },
        {
          "internalType": "address",
          "name": "account",
          "type": "address"
        }
      ],
      "name": "grantRole",
      "outputs": [],
      "stateMutability": "nonpayable",
      "type": "function"
    },
    {
      "inputs": [
        {
          "internalType": "bytes4",
          "name": "networkId",
          "type": "bytes4"
        }
      ],
      "name": "haltNetwork",
      "outputs": [],
      "stateMutability": "nonpayable",
      "type": "function"
    },
    {
      "inputs": [
        {
          "internalType": "bytes32",
          "name": "role",
          "type": "bytes32"
        },
        {
          "internalType": "address",
          "name": "account",
          "type": "address"
        }
      ],
      "name": "hasRole",
      "outputs": [
        {
          "internalType": "bool",
          "name": "",
          "type": "bool"
        }
      ],
      "stateMutability": "view",
      "type": "function"
    },
    {
      "inputs": [
        {
          "internalType": "address",
          "name": "_owner",
          "type": "address"
        }
      ],
      "name": "initialize",
      "outputs": [],
      "stateMutability": "nonpayable",
      "type": "function"
    },
    {
      "inputs": [
        {
          "internalType": "bytes4",
          "name": "networkId",
          "type": "bytes4"
        }
      ],
      "name": "isReadyToConstructBatch",
      "outputs": [
        {
          "internalType": "bool",
          "name": "",
          "type": "bool"
        }
      ],
      "stateMutability": "view",
      "type": "function"
    },
    {
      "inputs": [
        {
          "internalType": "bytes4",
          "name": "",
          "type": "bytes4"
        }
      ],
      "name": "lastBatchConstructedHeightOffset",
      "outputs": [
        {
          "internalType": "uint256",
          "name": "",
          "type": "uint256"
        }
      ],
      "stateMutability": "view",
      "type": "function"
    },
    {
      "inputs": [
        {
          "internalType": "bytes4",
          "name": "",
          "type": "bytes4"
        }
      ],
      "name": "lastBatchConstructedTimestamp",
      "outputs": [
        {
          "internalType": "uint256",
          "name": "",
          "type": "uint256"
        }
      ],
      "stateMutability": "view",
      "type": "function"
    },
    {
      "inputs": [
        {
          "internalType": "bytes4",
          "name": "",
          "type": "bytes4"
        }
      ],
      "name": "networkHaltedMap",
      "outputs": [
        {
          "internalType": "bool",
          "name": "",
          "type": "bool"
        }
      ],
      "stateMutability": "view",
      "type": "function"
    },
    {
      "inputs": [
        {
          "internalType": "bytes32",
          "name": "",
          "type": "bytes32"
        }
      ],
      "name": "perNetworkBatchBatchMessageHash",
      "outputs": [
        {
          "internalType": "bytes32",
          "name": "",
          "type": "bytes32"
        }
      ],
      "stateMutability": "view",
      "type": "function"
    },
    {
      "inputs": [
        {
          "internalType": "bytes4",
          "name": "",
          "type": "bytes4"
        }
      ],
      "name": "perNetworkBatchCreatedCounter",
      "outputs": [
        {
          "internalType": "uint256",
          "name": "",
          "type": "uint256"
        }
      ],
      "stateMutability": "view",
      "type": "function"
    },
    {
      "inputs": [
        {
          "internalType": "bytes4",
          "name": "",
          "type": "bytes4"
        }
      ],
      "name": "perNetworkSingleAttestationsCounter",
      "outputs": [
        {
          "internalType": "uint256",
          "name": "",
          "type": "uint256"
        }
      ],
      "stateMutability": "view",
      "type": "function"
    },
    {
      "inputs": [
        {
          "internalType": "bytes32",
          "name": "role",
          "type": "bytes32"
        },
        {
          "internalType": "address",
          "name": "account",
          "type": "address"
        }
      ],
      "name": "renounceRole",
      "outputs": [],
      "stateMutability": "nonpayable",
      "type": "function"
    },
    {
      "inputs": [
        {
          "internalType": "bytes32",
          "name": "role",
          "type": "bytes32"
        },
        {
          "internalType": "address",
          "name": "account",
          "type": "address"
        }
      ],
      "name": "revokeRole",
      "outputs": [],
      "stateMutability": "nonpayable",
      "type": "function"
    },
    {
      "inputs": [
        {
          "internalType": "address payable",
          "name": "_attestationBatchMakerV2",
          "type": "address"
        }
      ],
      "name": "setAttestationBatchMakerV2",
      "outputs": [],
      "stateMutability": "nonpayable",
      "type": "function"
    },
    {
      "inputs": [
        {
          "internalType": "address payable",
          "name": "_attestationsVerifierProofs",
          "type": "address"
        }
      ],
      "name": "setAttestationsVerifierProofs",
      "outputs": [],
      "stateMutability": "nonpayable",
      "type": "function"
    },
    {
      "inputs": [
        {
          "internalType": "address payable",
          "name": "_attestersPortal",
          "type": "address"
        }
      ],
      "name": "setAttestersPortal",
      "outputs": [],
      "stateMutability": "nonpayable",
      "type": "function"
    },
    {
      "inputs": [
        {
          "internalType": "bytes4",
          "name": "networkId",
          "type": "bytes4"
        },
        {
          "internalType": "uint256",
          "name": "interval",
          "type": "uint256"
        }
      ],
      "name": "setBatchConstructionIntervalHeightByNetwork",
      "outputs": [],
      "stateMutability": "nonpayable",
      "type": "function"
    },
    {
      "inputs": [
        {
          "internalType": "bytes4",
          "name": "networkId",
          "type": "bytes4"
        },
        {
          "internalType": "uint32",
          "name": "index",
          "type": "uint32"
        }
      ],
      "name": "setBatchIndexByNetwork",
      "outputs": [],
      "stateMutability": "nonpayable",
      "type": "function"
    },
    {
      "inputs": [
        {
          "internalType": "address payable",
          "name": "_singleAttestationBook",
          "type": "address"
        }
      ],
      "name": "setSingleAttestationBook",
      "outputs": [],
      "stateMutability": "nonpayable",
      "type": "function"
    },
    {
      "inputs": [
        {
          "internalType": "bytes32",
          "name": "_version",
          "type": "bytes32"
        }
      ],
      "name": "setVersion",
      "outputs": [],
      "stateMutability": "nonpayable",
      "type": "function"
    },
    {
      "inputs": [],
      "name": "singleAttestationBook",
      "outputs": [
        {
          "internalType": "contract SingleAttestationBookV3",
          "name": "",
          "type": "address"
        }
      ],
      "stateMutability": "view",
      "type": "function"
    },
    {
      "inputs": [
        {
          "internalType": "bytes32",
          "name": "",
          "type": "bytes32"
        }
      ],
      "name": "submissions",
      "outputs": [
        {
          "internalType": "bool",
          "name": "",
          "type": "bool"
        }
      ],
      "stateMutability": "view",
      "type": "function"
    },
    {
      "inputs": [
        {
          "internalType": "bytes4",
          "name": "interfaceId",
          "type": "bytes4"
        }
      ],
      "name": "supportsInterface",
      "outputs": [
        {
          "internalType": "bool",
          "name": "",
          "type": "bool"
        }
      ],
      "stateMutability": "view",
      "type": "function"
    },
    {
      "inputs": [
        {
          "internalType": "bytes4",
          "name": "networkId",
          "type": "bytes4"
        }
      ],
      "name": "tryConstructBatch",
      "outputs": [],
      "stateMutability": "nonpayable",
      "type": "function"
    },
    {
      "inputs": [
        {
          "internalType": "bytes4",
          "name": "networkId",
          "type": "bytes4"
        }
      ],
      "name": "unhaltNetwork",
      "outputs": [],
      "stateMutability": "nonpayable",
      "type": "function"
    },
    {
      "inputs": [],
      "name": "version",
      "outputs": [
        {
          "internalType": "bytes32",
          "name": "",
          "type": "bytes32"
        }
      ],
      "stateMutability": "view",
      "type": "function"
    }
  ],
  "bytecode": "0x60806040523480156200001157600080fd5b50620000226200002860201b60201c565b620001d2565b600060019054906101000a900460ff16156200007b576040517f08c379a0000000000000000000000000000000000000000000000000000000008152600401620000729062000175565b60405180910390fd5b60ff801660008054906101000a900460ff1660ff1614620000ec5760ff6000806101000a81548160ff021916908360ff1602179055507f7f26b83ff96e1f2b6a682f133852f6798a09c465da95921460cefb384740249860ff604051620000e39190620001b5565b60405180910390a15b565b600082825260208201905092915050565b7f496e697469616c697a61626c653a20636f6e747261637420697320696e69746960008201527f616c697a696e6700000000000000000000000000000000000000000000000000602082015250565b60006200015d602783620000ee565b91506200016a82620000ff565b604082019050919050565b6000602082019050818103600083015262000190816200014e565b9050919050565b600060ff82169050919050565b620001af8162000197565b82525050565b6000602082019050620001cc6000830184620001a4565b92915050565b615cc780620001e26000396000f3fe608060405234801561001057600080fd5b506004361061028a5760003560e01c80637177377b1161015c578063c4d66de8116100ce578063d03685cb11610087578063d03685cb146108a3578063d547741f146108bf578063e6aac252146108db578063e8e1cbf71461090b578063f51d27e81461093b578063ffdd6f89146109575761028a565b8063c4d66de8146107bf578063c5687af0146107db578063c5c9c0a21461080b578063c6f4c0cf1461083b578063c769eb1314610857578063ca5f81b5146108875761028a565b806391d148541161012057806391d14854146106d7578063a217fddf14610707578063b4c41e6a14610725578063ba6466f714610755578063c24ab55a14610771578063c26c12eb146107a15761028a565b80637177377b146105fb57806375dac0a91461062b578063770b24e2146106475780637e47d0e31461067757806384c1f225146106a75761028a565b80632f2ff15d1161020057806354fd4d50116101b957806354fd4d50146105135780635d1c5710146105315780635d3e2e281461054f5780635d87cd431461057f5780635f0737a51461059b578063693ecfb7146105cb5761028a565b80632f2ff15d14610455578063343aff461461047157806336568abe146104a15780633aac5d3d146104bd5780634be6cd57146104db578063526e124f146104f75761028a565b806321c6fe001161025257806321c6fe001461035757806323b4f71d14610375578063248a9ca3146103a5578063248d9151146103d55780632c148ccf146104055780632e99f692146104375761028a565b806301ffc9a71461028f57806307bc4e98146102bf5780630e8bbd08146102ef57806312a58f531461030b5780631966c1541461033b575b600080fd5b6102a960048036038101906102a49190613a28565b610975565b6040516102b69190613a70565b60405180910390f35b6102d960048036038101906102d49190613a28565b6109ef565b6040516102e69190613aa4565b60405180910390f35b61030960048036038101906103049190613a28565b610a07565b005b61032560048036038101906103209190613a28565b610ac0565b6040516103329190613ade565b60405180910390f35b61035560048036038101906103509190613b57565b610b2b565b005b61035f610bbb565b60405161036c9190613c14565b60405180910390f35b61038f600480360381019061038a9190613a28565b610c10565b60405161039c9190613a70565b60405180910390f35b6103bf60048036038101906103ba9190613c6c565b610da1565b6040516103cc9190613ca8565b60405180910390f35b6103ef60048036038101906103ea9190613c6c565b610dc1565b6040516103fc9190613c14565b60405180910390f35b61041f600480360381019061041a9190613cef565b610f1f565b60405161042e93929190613d50565b60405180910390f35b61043f61100e565b60405161044c9190613ded565b60405180910390f35b61046f600480360381019061046a9190613e34565b611034565b005b61048b60048036038101906104869190613ea0565b611055565b6040516104989190613ca8565b60405180910390f35b6104bb60048036038101906104b69190613e34565b611139565b005b6104c56111bc565b6040516104d29190613f13565b60405180910390f35b6104f560048036038101906104f09190613a28565b6111e2565b005b610511600480360381019061050c9190613f2e565b6116be565b005b61051b611764565b6040516105289190613ca8565b60405180910390f35b61053961176a565b6040516105469190613f8f565b60405180910390f35b61056960048036038101906105649190613c6c565b611790565b6040516105769190613c14565b60405180910390f35b61059960048036038101906105949190613b57565b611830565b005b6105b560048036038101906105b09190613a28565b6118c0565b6040516105c29190613ade565b60405180910390f35b6105e560048036038101906105e09190613a28565b6118e3565b6040516105f29190613a70565b60405180910390f35b61061560048036038101906106109190613c6c565b611903565b6040516106229190613ca8565b60405180910390f35b6106456004803603810190610640919061413f565b61191b565b005b610661600480360381019061065c9190613c6c565b611dbd565b60405161066e9190613ca8565b60405180910390f35b610691600480360381019061068c9190613ea0565b611dd5565b60405161069e9190614349565b60405180910390f35b6106c160048036038101906106bc9190613ea0565b612005565b6040516106ce9190613c14565b60405180910390f35b6106f160048036038101906106ec9190613e34565b612283565b6040516106fe9190613a70565b60405180910390f35b61070f6122ee565b60405161071c9190613ca8565b60405180910390f35b61073f600480360381019061073a9190613a28565b6122f5565b60405161074c9190613aa4565b60405180910390f35b61076f600480360381019061076a9190613b57565b61230d565b005b61078b60048036038101906107869190613ea0565b61239d565b6040516107989190614349565b60405180910390f35b6107a96125cd565b6040516107b69190613aa4565b60405180910390f35b6107d960048036038101906107d4919061436b565b6126c5565b005b6107f560048036038101906107f09190613a28565b612811565b6040516108029190613aa4565b60405180910390f35b61082560048036038101906108209190613c6c565b612829565b6040516108329190613a70565b60405180910390f35b61085560048036038101906108509190613a28565b612849565b005b610871600480360381019061086c9190613ea0565b612902565b60405161087e9190613ca8565b60405180910390f35b6108a1600480360381019061089c9190613c6c565b612935565b005b6108bd60048036038101906108b89190613b57565b61298b565b005b6108d960048036038101906108d49190613e34565b612a1b565b005b6108f560048036038101906108f09190613a28565b612a3c565b6040516109029190613aa4565b60405180910390f35b61092560048036038101906109209190613a28565b612a54565b6040516109329190613aa4565b60405180910390f35b61095560048036038101906109509190613ea0565b612a6c565b005b61095f612d2b565b60405161096c91906143b9565b60405180910390f35b60007f7965db0b000000000000000000000000000000000000000000000000000000007bffffffffffffffffffffffffffffffffffffffffffffffffffffffff1916827bffffffffffffffffffffffffffffffffffffffffffffffffffffffff191614806109e857506109e782612d51565b5b9050919050565b60a36020528060005260406000206000915090505481565b610a146000801b33612283565b610a53576040517f08c379a0000000000000000000000000000000000000000000000000000000008152600401610a4a90614431565b60405180910390fd5b6001609f6000837bffffffffffffffffffffffffffffffffffffffffffffffffffffffff19167bffffffffffffffffffffffffffffffffffffffffffffffffffffffff1916815260200190815260200160002060006101000a81548160ff02191690831515021790555050565b6000609e6000837bffffffffffffffffffffffffffffffffffffffffffffffffffffffff19167bffffffffffffffffffffffffffffffffffffffffffffffffffffffff1916815260200190815260200160002060009054906101000a900463ffffffff169050919050565b610b386000801b33612283565b610b77576040517f08c379a0000000000000000000000000000000000000000000000000000000008152600401610b6e90614431565b60405180910390fd5b80609960006101000a81548173ffffffffffffffffffffffffffffffffffffffff021916908373ffffffffffffffffffffffffffffffffffffffff16021790555050565b6060600067ffffffffffffffff811115610bd857610bd7614014565b5b6040519080825280601f01601f191660200182016040528015610c0a5781602001600182028036833780820191505090505b50905090565b6000609f6000837bffffffffffffffffffffffffffffffffffffffffffffffffffffffff19167bffffffffffffffffffffffffffffffffffffffffffffffffffffffff1916815260200190815260200160002060009054906101000a900460ff1615610c7f5760009050610d9c565b600060a46000847bffffffffffffffffffffffffffffffffffffffffffffffffffffffff19167bffffffffffffffffffffffffffffffffffffffffffffffffffffffff1916815260200190815260200160002054905080421015610ce7576000915050610d9c565b60a56000847bffffffffffffffffffffffffffffffffffffffffffffffffffffffff19167bffffffffffffffffffffffffffffffffffffffffffffffffffffffff191681526020019081526020016000205460a36000857bffffffffffffffffffffffffffffffffffffffffffffffffffffffff19167bffffffffffffffffffffffffffffffffffffffffffffffffffffffff191681526020019081526020016000205442610d969190614480565b10159150505b919050565b600060656000838152602001908152602001600020600101549050919050565b60606000609d60008481526020019081526020016000208054610de3906144e3565b80601f0160208091040260200160405190810160405280929190818152602001828054610e0f906144e3565b8015610e5c5780601f10610e3157610100808354040283529160200191610e5c565b820191906000526020600020905b815481529060010190602001808311610e3f57829003601f168201915b505050505090506000815103610f1557609a60009054906101000a900473ffffffffffffffffffffffffffffffffffffffff1673ffffffffffffffffffffffffffffffffffffffff1663248d9151846040518263ffffffff1660e01b8152600401610ec79190613ca8565b600060405180830381865afa158015610ee4573d6000803e3d6000fd5b505050506040513d6000823e3d601f19601f82011682018060405250810190610f0d9190614584565b915050610f1a565b809150505b919050565b609b6020528160005260406000208181548110610f3b57600080fd5b9060005260206000209060030201600091509150508060000154908060010160009054906101000a900473ffffffffffffffffffffffffffffffffffffffff1690806002018054610f8b906144e3565b80601f0160208091040260200160405190810160405280929190818152602001828054610fb7906144e3565b80156110045780601f10610fd957610100808354040283529160200191611004565b820191906000526020600020905b815481529060010190602001808311610fe757829003601f168201915b5050505050905083565b609a60009054906101000a900473ffffffffffffffffffffffffffffffffffffffff1681565b61103d82610da1565b61104681612dbb565b6110508383612dcf565b505050565b6000806110628484612902565b9050600060a260008381526020019081526020016000205490506000801b810361112d57609a60009054906101000a900473ffffffffffffffffffffffffffffffffffffffff1673ffffffffffffffffffffffffffffffffffffffff1663343aff4686866040518363ffffffff1660e01b81526004016110e39291906145dc565b602060405180830381865afa158015611100573d6000803e3d6000fd5b505050506040513d601f19601f82011682018060405250810190611124919061461a565b92505050611133565b80925050505b92915050565b611141612eb0565b73ffffffffffffffffffffffffffffffffffffffff168173ffffffffffffffffffffffffffffffffffffffff16146111ae576040517f08c379a00000000000000000000000000000000000000000000000000000000081526004016111a5906146b9565b60405180910390fd5b6111b88282612eb8565b5050565b609760009054906101000a900473ffffffffffffffffffffffffffffffffffffffff1681565b60006001609e6000847bffffffffffffffffffffffffffffffffffffffffffffffffffffffff19167bffffffffffffffffffffffffffffffffffffffffffffffffffffffff1916815260200190815260200160002060009054906101000a900463ffffffff1661125291906146d9565b905060006112608383612902565b9050600080609960009054906101000a900473ffffffffffffffffffffffffffffffffffffffff1673ffffffffffffffffffffffffffffffffffffffff16632313ae91866040518263ffffffff1660e01b81526004016112c09190614711565b600060405180830381865afa1580156112dd573d6000803e3d6000fd5b505050506040513d6000823e3d601f19601f8201168201806040525081019061130691906148d0565b9150915061131385610c10565b1580611320575060008251145b15611368577f95d5662791929affea1c27920ff5b5dd6958901b47005ce51c53916d83bd2a0e600086604051611357929190614983565b60405180910390a1505050506116bb565b6000611372610bbb565b90506000835167ffffffffffffffff81111561139157611390614014565b5b6040519080825280602002602001820160405280156113bf5781602001602082028036833780820191505090505b50905060005b845181101561145157828482815181106113e2576113e16149ac565b5b60200260200101516040516020016113fb929190614a17565b604051602081830303815290604052925084818151811061141f5761141e6149ac565b5b602002602001015182828151811061143a576114396149ac565b5b6020026020010181815250508060010190506113c5565b506000825103611466575050505050506116bb565b600061147383888a612f9a565b9050609860009054906101000a900473ffffffffffffffffffffffffffffffffffffffff1673ffffffffffffffffffffffffffffffffffffffff16630660bab9826040518263ffffffff1660e01b81526004016114d09190614bb2565b600060405180830381865afa92505050801561150f57506040513d6000823e3d601f19601f8201168201806040525081019061150c9190614584565b60015b611559577f95d5662791929affea1c27920ff5b5dd6958901b47005ce51c53916d83bd2a0e600489604051611545929190614c0f565b60405180910390a1505050505050506116bb565b600081805190602001209050609960009054906101000a900473ffffffffffffffffffffffffffffffffffffffff1673ffffffffffffffffffffffffffffffffffffffff166306a1ab9d82866040518363ffffffff1660e01b81526004016115c2929190614ce7565b600060405180830381600087803b1580156115dc57600080fd5b505af11580156115f0573d6000803e3d6000fd5b5050505081609d600083815260200190815260200160002090816116149190614eb9565b508060a260008a81526020019081526020016000208190555087609c60008381526020019081526020016000208190555061164e8a61330a565b897bffffffffffffffffffffffffffffffffffffffffffffffffffffffff19168360c0015163ffffffff16827f075340e7be521a169ff6dc4e12937d1eb1dfc72d06b568b64786f4f5d4972fbe856040516116a99190613c14565b60405180910390a45050505050505050505b50565b6116cb6000801b33612283565b61170a576040517f08c379a000000000000000000000000000000000000000000000000000000000815260040161170190614431565b60405180910390fd5b8060a56000847bffffffffffffffffffffffffffffffffffffffffffffffffffffffff19167bffffffffffffffffffffffffffffffffffffffffffffffffffffffff19168152602001908152602001600020819055505050565b60a65481565b609960009054906101000a900473ffffffffffffffffffffffffffffffffffffffff1681565b609d60205280600052604060002060009150905080546117af906144e3565b80601f01602080910402602001604051908101604052809291908181526020018280546117db906144e3565b80156118285780601f106117fd57610100808354040283529160200191611828565b820191906000526020600020905b81548152906001019060200180831161180b57829003601f168201915b505050505081565b61183d6000801b33612283565b61187c576040517f08c379a000000000000000000000000000000000000000000000000000000000815260040161187390614431565b60405180910390fd5b80609a60006101000a81548173ffffffffffffffffffffffffffffffffffffffff021916908373ffffffffffffffffffffffffffffffffffffffff16021790555050565b609e6020528060005260406000206000915054906101000a900463ffffffff1681565b609f6020528060005260406000206000915054906101000a900460ff1681565b609c6020528060005260406000206000915090505481565b609760009054906101000a900473ffffffffffffffffffffffffffffffffffffffff1673ffffffffffffffffffffffffffffffffffffffff1663ee06b289336040518263ffffffff1660e01b81526004016119769190614f8b565b602060405180830381865afa158015611993573d6000803e3d6000fd5b505050506040513d601f19601f820116820180604052508101906119b79190614fd2565b6119f6576040517f08c379a00000000000000000000000000000000000000000000000000000000081526004016119ed90614431565b60405180910390fd5b60008484810190611a0791906151e9565b90506000609860009054906101000a900473ffffffffffffffffffffffffffffffffffffffff1673ffffffffffffffffffffffffffffffffffffffff16630660bab9836040518263ffffffff1660e01b8152600401611a669190614bb2565b600060405180830381865afa158015611a83573d6000803e3d6000fd5b505050506040513d6000823e3d601f19601f82011682018060405250810190611aac9190614584565b8051906020012090503373ffffffffffffffffffffffffffffffffffffffff16609860009054906101000a900473ffffffffffffffffffffffffffffffffffffffff1673ffffffffffffffffffffffffffffffffffffffff166397aba7f983876040518363ffffffff1660e01b8152600401611b29929190615232565b602060405180830381865afa158015611b46573d6000803e3d6000fd5b505050506040513d601f19601f82011682018060405250810190611b6a9190615277565b73ffffffffffffffffffffffffffffffffffffffff1614611bc0576040517f08c379a0000000000000000000000000000000000000000000000000000000008152600401611bb790614431565b60405180910390fd5b6000611bd0848460c00151612902565b90506000801b609c60008481526020019081526020016000205403611c2a576040517f08c379a0000000000000000000000000000000000000000000000000000000008152600401611c2190614431565b60405180910390fd5b6000609b6000838152602001908152602001600020905060008333604051602001611c5692919061530d565b60405160208183030381529060405280519060200120905060a7600082815260200190815260200160002060009054906101000a900460ff1615611c9e575050505050611db7565b600160a7600083815260200190815260200160002060006101000a81548160ff0219169083151502179055508160405180606001604052808681526020013373ffffffffffffffffffffffffffffffffffffffff1681526020018981525090806001815401808255809150506001900390600052602060002090600302016000909190919091506000820151816000015560208201518160010160006101000a81548173ffffffffffffffffffffffffffffffffffffffff021916908373ffffffffffffffffffffffffffffffffffffffff1602179055506040820151816002019081611d8b9190614eb9565b50505081609b6000858152602001908152602001600020908054611db09291906137bc565b5050505050505b50505050565b60a26020528060005260406000206000915090505481565b60606000611de38484612902565b90506000609b6000838152602001908152602001600020805480602002602001604051908101604052809291908181526020016000905b82821015611f3e5783829060005260206000209060030201604051806060016040529081600082015481526020016001820160009054906101000a900473ffffffffffffffffffffffffffffffffffffffff1673ffffffffffffffffffffffffffffffffffffffff1673ffffffffffffffffffffffffffffffffffffffff168152602001600282018054611ead906144e3565b80601f0160208091040260200160405190810160405280929190818152602001828054611ed9906144e3565b8015611f265780601f10611efb57610100808354040283529160200191611f26565b820191906000526020600020905b815481529060010190602001808311611f0957829003601f168201915b50505050508152505081526020019060010190611e1a565b5050505090506000815103611ff957609a60009054906101000a900473ffffffffffffffffffffffffffffffffffffffff1673ffffffffffffffffffffffffffffffffffffffff1663c24ab55a86866040518363ffffffff1660e01b8152600401611faa9291906145dc565b600060405180830381865afa158015611fc7573d6000803e3d6000fd5b505050506040513d6000823e3d601f19601f82011682018060405250810190611ff0919061549a565b92505050611fff565b80925050505b92915050565b60606000612013848461239d565b905060008151036120c957609a60009054906101000a900473ffffffffffffffffffffffffffffffffffffffff1673ffffffffffffffffffffffffffffffffffffffff166384c1f22585856040518363ffffffff1660e01b815260040161207b9291906145dc565b600060405180830381865afa158015612098573d6000803e3d6000fd5b505050506040513d6000823e3d601f19601f820116820180604052508101906120c19190614584565b91505061227d565b6000816000815181106120df576120de6149ac565b5b60200260200101519050609760009054906101000a900473ffffffffffffffffffffffffffffffffffffffff1673ffffffffffffffffffffffffffffffffffffffff1663c26c12eb6040518163ffffffff1660e01b8152600401602060405180830381865afa158015612156573d6000803e3d6000fd5b505050506040513d601f19601f8201168201806040525081019061217a91906154f8565b82511061222a57609d60008260000151815260200190815260200160002080546121a3906144e3565b80601f01602080910402602001604051908101604052809291908181526020018280546121cf906144e3565b801561221c5780601f106121f15761010080835404028352916020019161221c565b820191906000526020600020905b8154815290600101906020018083116121ff57829003601f168201915b50505050509250505061227d565b600067ffffffffffffffff81111561224557612244614014565b5b6040519080825280601f01601f1916602001820160405280156122775781602001600182028036833780820191505090505b50925050505b92915050565b60006065600084815260200190815260200160002060000160008373ffffffffffffffffffffffffffffffffffffffff1673ffffffffffffffffffffffffffffffffffffffff16815260200190815260200160002060009054906101000a900460ff16905092915050565b6000801b81565b60a06020528060005260406000206000915090505481565b61231a6000801b33612283565b612359576040517f08c379a000000000000000000000000000000000000000000000000000000000815260040161235090614431565b60405180910390fd5b80609860006101000a81548173ffffffffffffffffffffffffffffffffffffffff021916908373ffffffffffffffffffffffffffffffffffffffff16021790555050565b606060006123ab8484612902565b90506000609b6000838152602001908152602001600020805480602002602001604051908101604052809291908181526020016000905b828210156125065783829060005260206000209060030201604051806060016040529081600082015481526020016001820160009054906101000a900473ffffffffffffffffffffffffffffffffffffffff1673ffffffffffffffffffffffffffffffffffffffff1673ffffffffffffffffffffffffffffffffffffffff168152602001600282018054612475906144e3565b80601f01602080910402602001604051908101604052809291908181526020018280546124a1906144e3565b80156124ee5780601f106124c3576101008083540402835291602001916124ee565b820191906000526020600020905b8154815290600101906020018083116124d157829003601f168201915b505050505081525050815260200190600101906123e2565b50505050905060008151036125c157609a60009054906101000a900473ffffffffffffffffffffffffffffffffffffffff1673ffffffffffffffffffffffffffffffffffffffff1663c24ab55a86866040518363ffffffff1660e01b81526004016125729291906145dc565b600060405180830381865afa15801561258f573d6000803e3d6000fd5b505050506040513d6000823e3d601f19601f820116820180604052508101906125b8919061549a565b925050506125c7565b80925050505b92915050565b60008060019050600073ffffffffffffffffffffffffffffffffffffffff16609760009054906101000a900473ffffffffffffffffffffffffffffffffffffffff1673ffffffffffffffffffffffffffffffffffffffff16146126be57609760009054906101000a900473ffffffffffffffffffffffffffffffffffffffff1673ffffffffffffffffffffffffffffffffffffffff1663c26c12eb6040518163ffffffff1660e01b8152600401602060405180830381865afa158015612697573d6000803e3d6000fd5b505050506040513d601f19601f820116820180604052508101906126bb91906154f8565b90505b8091505090565b60008060019054906101000a900460ff161590508080156126f65750600160008054906101000a900460ff1660ff16105b8061272357506127053061345a565b1580156127225750600160008054906101000a900460ff1660ff16145b5b612762576040517f08c379a000000000000000000000000000000000000000000000000000000000815260040161275990615597565b60405180910390fd5b60016000806101000a81548160ff021916908360ff160217905550801561279f576001600060016101000a81548160ff0219169083151502179055505b6127a761347d565b6127b46000801b83612dcf565b801561280d5760008060016101000a81548160ff0219169083151502179055507f7f26b83ff96e1f2b6a682f133852f6798a09c465da95921460cefb3847402498600160405161280491906155ff565b60405180910390a15b5050565b60a16020528060005260406000206000915090505481565b60a76020528060005260406000206000915054906101000a900460ff1681565b6128566000801b33612283565b612895576040517f08c379a000000000000000000000000000000000000000000000000000000000815260040161288c90614431565b60405180910390fd5b6000609f6000837bffffffffffffffffffffffffffffffffffffffffffffffffffffffff19167bffffffffffffffffffffffffffffffffffffffffffffffffffffffff1916815260200190815260200160002060006101000a81548160ff02191690831515021790555050565b60008282604051602001612917929190615671565b60405160208183030381529060405280519060200120905092915050565b6129426000801b33612283565b612981576040517f08c379a000000000000000000000000000000000000000000000000000000000815260040161297890614431565b60405180910390fd5b8060a68190555050565b6129986000801b33612283565b6129d7576040517f08c379a00000000000000000000000000000000000000000000000000000000081526004016129ce90614431565b60405180910390fd5b80609760006101000a81548173ffffffffffffffffffffffffffffffffffffffff021916908373ffffffffffffffffffffffffffffffffffffffff16021790555050565b612a2482610da1565b612a2d81612dbb565b612a378383612eb8565b505050565b60a56020528060005260406000206000915090505481565b60a46020528060005260406000206000915090505481565b612a796000801b33612283565b612ab8576040517f08c379a0000000000000000000000000000000000000000000000000000000008152600401612aaf90614431565b60405180910390fd5b80609e6000847bffffffffffffffffffffffffffffffffffffffffffffffffffffffff19167bffffffffffffffffffffffffffffffffffffffffffffffffffffffff1916815260200190815260200160002060006101000a81548163ffffffff021916908363ffffffff16021790555060a16000837bffffffffffffffffffffffffffffffffffffffffffffffffffffffff19167bffffffffffffffffffffffffffffffffffffffffffffffffffffffff19168152602001908152602001600020548163ffffffff161015612d2757600060a16000847bffffffffffffffffffffffffffffffffffffffffffffffffffffffff19167bffffffffffffffffffffffffffffffffffffffffffffffffffffffff1916815260200190815260200160002054905060008290505b818163ffffffff161015612cc8576000612bfd8583612902565b9050609b60008281526020019081526020016000206000612c1e919061389a565b600067ffffffffffffffff811115612c3957612c38614014565b5b6040519080825280601f01601f191660200182016040528015612c6b5781602001600182028036833780820191505090505b50609d600060a260008581526020019081526020016000205481526020019081526020016000209081612c9e9190614eb9565b5060a26000828152602001908152602001600020600090555080612cc19061569d565b9050612be3565b508163ffffffff1660a16000857bffffffffffffffffffffffffffffffffffffffffffffffffffffffff19167bffffffffffffffffffffffffffffffffffffffffffffffffffffffff1916815260200190815260200160002081905550505b5050565b609860009054906101000a900473ffffffffffffffffffffffffffffffffffffffff1681565b60007f01ffc9a7000000000000000000000000000000000000000000000000000000007bffffffffffffffffffffffffffffffffffffffffffffffffffffffff1916827bffffffffffffffffffffffffffffffffffffffffffffffffffffffff1916149050919050565b612dcc81612dc7612eb0565b6134ce565b50565b612dd98282612283565b612eac5760016065600084815260200190815260200160002060000160008373ffffffffffffffffffffffffffffffffffffffff1673ffffffffffffffffffffffffffffffffffffffff16815260200190815260200160002060006101000a81548160ff021916908315150217905550612e51612eb0565b73ffffffffffffffffffffffffffffffffffffffff168173ffffffffffffffffffffffffffffffffffffffff16837f2f8788117e7eff1d82e926ec794901d17c78024a50270940304540a733656f0d60405160405180910390a45b5050565b600033905090565b612ec28282612283565b15612f965760006065600084815260200190815260200160002060000160008373ffffffffffffffffffffffffffffffffffffffff1673ffffffffffffffffffffffffffffffffffffffff16815260200190815260200160002060006101000a81548160ff021916908315150217905550612f3b612eb0565b73ffffffffffffffffffffffffffffffffffffffff168173ffffffffffffffffffffffffffffffffffffffff16837ff6391f5c32d9c69d2a47ea670b442974b53935d1edc7fd64eb21e047a839171b60405160405180910390a45b5050565b612fa26138be565b6000609760009054906101000a900473ffffffffffffffffffffffffffffffffffffffff1673ffffffffffffffffffffffffffffffffffffffff1663484f657b6040518163ffffffff1660e01b8152600401600060405180830381865afa158015613011573d6000803e3d6000fd5b505050506040513d6000823e3d601f19601f8201168201806040525081019061303a9190615760565b90506000609760009054906101000a900473ffffffffffffffffffffffffffffffffffffffff1673ffffffffffffffffffffffffffffffffffffffff1663d34ad5796040518163ffffffff1660e01b8152600401600060405180830381865afa1580156130ab573d6000803e3d6000fd5b505050506040513d6000823e3d601f19601f820116820180604052508101906130d49190615760565b905060008067ffffffffffffffff8111156130f2576130f1614014565b5b6040519080825280602002602001820160405280156131205781602001602082028036833780820191505090505b5090506000609860009054906101000a900473ffffffffffffffffffffffffffffffffffffffff1673ffffffffffffffffffffffffffffffffffffffff16633014cbc9856040518263ffffffff1660e01b81526004016131809190615818565b602060405180830381865afa15801561319d573d6000803e3d6000fd5b505050506040513d601f19601f820116820180604052508101906131c1919061461a565b90506000609860009054906101000a900473ffffffffffffffffffffffffffffffffffffffff1673ffffffffffffffffffffffffffffffffffffffff16633014cbc9856040518263ffffffff1660e01b81526004016132209190615818565b602060405180830381865afa15801561323d573d6000803e3d6000fd5b505050506040513d601f19601f82011682018060405250810190613261919061461a565b90506040518060e00160405280609f60008a7bffffffffffffffffffffffffffffffffffffffffffffffffffffffff19167bffffffffffffffffffffffffffffffffffffffffffffffffffffffff1916815260200190815260200160002060009054906101000a900460ff16151581526020018381526020018281526020018481526020018481526020018a81526020018963ffffffff16815250955050505050509392505050565b609e6000827bffffffffffffffffffffffffffffffffffffffffffffffffffffffff19167bffffffffffffffffffffffffffffffffffffffffffffffffffffffff19168152602001908152602001600020600081819054906101000a900463ffffffff168092919061337b9061569d565b91906101000a81548163ffffffff021916908363ffffffff1602179055505060a16000827bffffffffffffffffffffffffffffffffffffffffffffffffffffffff19167bffffffffffffffffffffffffffffffffffffffffffffffffffffffff1916815260200190815260200160002060008154809291906133fc9061583a565b91905055504260a36000837bffffffffffffffffffffffffffffffffffffffffffffffffffffffff19167bffffffffffffffffffffffffffffffffffffffffffffffffffffffff191681526020019081526020016000208190555050565b6000808273ffffffffffffffffffffffffffffffffffffffff163b119050919050565b600060019054906101000a900460ff166134cc576040517f08c379a00000000000000000000000000000000000000000000000000000000081526004016134c3906158f4565b60405180910390fd5b565b6134d88282612283565b61354f576134e581613553565b6134f38360001c6020613580565b6040516020016135049291906159f3565b6040516020818303038152906040526040517f08c379a00000000000000000000000000000000000000000000000000000000081526004016135469190615a66565b60405180910390fd5b5050565b60606135798273ffffffffffffffffffffffffffffffffffffffff16601460ff16613580565b9050919050565b6060600060028360026135939190615a88565b61359d9190615aca565b67ffffffffffffffff8111156135b6576135b5614014565b5b6040519080825280601f01601f1916602001820160405280156135e85781602001600182028036833780820191505090505b5090507f3000000000000000000000000000000000000000000000000000000000000000816000815181106136205761361f6149ac565b5b60200101907effffffffffffffffffffffffffffffffffffffffffffffffffffffffffffff1916908160001a9053507f780000000000000000000000000000000000000000000000000000000000000081600181518110613684576136836149ac565b5b60200101907effffffffffffffffffffffffffffffffffffffffffffffffffffffffffffff1916908160001a905350600060018460026136c49190615a88565b6136ce9190615aca565b90505b600181111561376e577f3031323334353637383961626364656600000000000000000000000000000000600f8616601081106137105761370f6149ac565b5b1a60f81b828281518110613727576137266149ac565b5b60200101907effffffffffffffffffffffffffffffffffffffffffffffffffffffffffffff1916908160001a905350600485901c94508061376790615afe565b90506136d1565b50600084146137b2576040517f08c379a00000000000000000000000000000000000000000000000000000000081526004016137a990615b73565b60405180910390fd5b8091505092915050565b8280548282559060005260206000209060030281019282156138895760005260206000209160030282015b82811115613888578282600082015481600001556001820160009054906101000a900473ffffffffffffffffffffffffffffffffffffffff168160010160006101000a81548173ffffffffffffffffffffffffffffffffffffffff021916908373ffffffffffffffffffffffffffffffffffffffff160217905550600282018160020190816138769190615ba9565b505050916003019190600301906137e7565b5b5090506138969190613909565b5090565b50805460008255600302906000526020600020908101906138bb9190613909565b50565b6040518060e001604052806000151581526020016000801916815260200160008019168152602001606081526020016060815260200160608152602001600063ffffffff1681525090565b5b8082111561395b576000808201600090556001820160006101000a81549073ffffffffffffffffffffffffffffffffffffffff0219169055600282016000613952919061395f565b5060030161390a565b5090565b50805461396b906144e3565b6000825580601f1061397d575061399c565b601f01602090049060005260206000209081019061399b919061399f565b5b50565b5b808211156139b85760008160009055506001016139a0565b5090565b6000604051905090565b600080fd5b600080fd5b60007fffffffff0000000000000000000000000000000000000000000000000000000082169050919050565b613a05816139d0565b8114613a1057600080fd5b50565b600081359050613a22816139fc565b92915050565b600060208284031215613a3e57613a3d6139c6565b5b6000613a4c84828501613a13565b91505092915050565b60008115159050919050565b613a6a81613a55565b82525050565b6000602082019050613a856000830184613a61565b92915050565b6000819050919050565b613a9e81613a8b565b82525050565b6000602082019050613ab96000830184613a95565b92915050565b600063ffffffff82169050919050565b613ad881613abf565b82525050565b6000602082019050613af36000830184613acf565b92915050565b600073ffffffffffffffffffffffffffffffffffffffff82169050919050565b6000613b2482613af9565b9050919050565b613b3481613b19565b8114613b3f57600080fd5b50565b600081359050613b5181613b2b565b92915050565b600060208284031215613b6d57613b6c6139c6565b5b6000613b7b84828501613b42565b91505092915050565b600081519050919050565b600082825260208201905092915050565b60005b83811015613bbe578082015181840152602081019050613ba3565b60008484015250505050565b6000601f19601f8301169050919050565b6000613be682613b84565b613bf08185613b8f565b9350613c00818560208601613ba0565b613c0981613bca565b840191505092915050565b60006020820190508181036000830152613c2e8184613bdb565b905092915050565b6000819050919050565b613c4981613c36565b8114613c5457600080fd5b50565b600081359050613c6681613c40565b92915050565b600060208284031215613c8257613c816139c6565b5b6000613c9084828501613c57565b91505092915050565b613ca281613c36565b82525050565b6000602082019050613cbd6000830184613c99565b92915050565b613ccc81613a8b565b8114613cd757600080fd5b50565b600081359050613ce981613cc3565b92915050565b60008060408385031215613d0657613d056139c6565b5b6000613d1485828601613c57565b9250506020613d2585828601613cda565b9150509250929050565b6000613d3a82613af9565b9050919050565b613d4a81613d2f565b82525050565b6000606082019050613d656000830186613c99565b613d726020830185613d41565b8181036040830152613d848184613bdb565b9050949350505050565b6000819050919050565b6000613db3613dae613da984613af9565b613d8e565b613af9565b9050919050565b6000613dc582613d98565b9050919050565b6000613dd782613dba565b9050919050565b613de781613dcc565b82525050565b6000602082019050613e026000830184613dde565b92915050565b613e1181613d2f565b8114613e1c57600080fd5b50565b600081359050613e2e81613e08565b92915050565b60008060408385031215613e4b57613e4a6139c6565b5b6000613e5985828601613c57565b9250506020613e6a85828601613e1f565b9150509250929050565b613e7d81613abf565b8114613e8857600080fd5b50565b600081359050613e9a81613e74565b92915050565b60008060408385031215613eb757613eb66139c6565b5b6000613ec585828601613a13565b9250506020613ed685828601613e8b565b9150509250929050565b6000613eeb82613d98565b9050919050565b6000613efd82613ee0565b9050919050565b613f0d81613ef2565b82525050565b6000602082019050613f286000830184613f04565b92915050565b60008060408385031215613f4557613f446139c6565b5b6000613f5385828601613a13565b9250506020613f6485828601613cda565b9150509250929050565b6000613f7982613ee0565b9050919050565b613f8981613f6e565b82525050565b6000602082019050613fa46000830184613f80565b92915050565b600080fd5b600080fd5b600080fd5b60008083601f840112613fcf57613fce613faa565b5b8235905067ffffffffffffffff811115613fec57613feb613faf565b5b60208301915083600182028301111561400857614007613fb4565b5b9250929050565b600080fd5b7f4e487b7100000000000000000000000000000000000000000000000000000000600052604160045260246000fd5b61404c82613bca565b810181811067ffffffffffffffff8211171561406b5761406a614014565b5b80604052505050565b600061407e6139bc565b905061408a8282614043565b919050565b600067ffffffffffffffff8211156140aa576140a9614014565b5b6140b382613bca565b9050602081019050919050565b82818337600083830152505050565b60006140e26140dd8461408f565b614074565b9050828152602081018484840111156140fe576140fd61400f565b5b6141098482856140c0565b509392505050565b600082601f83011261412657614125613faa565b5b81356141368482602086016140cf565b91505092915050565b60008060008060608587031215614159576141586139c6565b5b600085013567ffffffffffffffff811115614177576141766139cb565b5b61418387828801613fb9565b9450945050602085013567ffffffffffffffff8111156141a6576141a56139cb565b5b6141b287828801614111565b92505060406141c387828801613a13565b91505092959194509250565b600081519050919050565b600082825260208201905092915050565b6000819050602082019050919050565b61420481613c36565b82525050565b61421381613d2f565b82525050565b600082825260208201905092915050565b600061423582613b84565b61423f8185614219565b935061424f818560208601613ba0565b61425881613bca565b840191505092915050565b600060608301600083015161427b60008601826141fb565b50602083015161428e602086018261420a565b50604083015184820360408601526142a6828261422a565b9150508091505092915050565b60006142bf8383614263565b905092915050565b6000602082019050919050565b60006142df826141cf565b6142e981856141da565b9350836020820285016142fb856141eb565b8060005b85811015614337578484038952815161431885826142b3565b9450614323836142c7565b925060208a019950506001810190506142ff565b50829750879550505050505092915050565b6000602082019050818103600083015261436381846142d4565b905092915050565b600060208284031215614381576143806139c6565b5b600061438f84828501613e1f565b91505092915050565b60006143a382613dba565b9050919050565b6143b381614398565b82525050565b60006020820190506143ce60008301846143aa565b92915050565b600082825260208201905092915050565b7f424d233000000000000000000000000000000000000000000000000000000000600082015250565b600061441b6004836143d4565b9150614426826143e5565b602082019050919050565b6000602082019050818103600083015261444a8161440e565b9050919050565b7f4e487b7100000000000000000000000000000000000000000000000000000000600052601160045260246000fd5b600061448b82613a8b565b915061449683613a8b565b92508282039050818111156144ae576144ad614451565b5b92915050565b7f4e487b7100000000000000000000000000000000000000000000000000000000600052602260045260246000fd5b600060028204905060018216806144fb57607f821691505b60208210810361450e5761450d6144b4565b5b50919050565b60006145276145228461408f565b614074565b9050828152602081018484840111156145435761454261400f565b5b61454e848285613ba0565b509392505050565b600082601f83011261456b5761456a613faa565b5b815161457b848260208601614514565b91505092915050565b60006020828403121561459a576145996139c6565b5b600082015167ffffffffffffffff8111156145b8576145b76139cb565b5b6145c484828501614556565b91505092915050565b6145d6816139d0565b82525050565b60006040820190506145f160008301856145cd565b6145fe6020830184613acf565b9392505050565b60008151905061461481613c40565b92915050565b6000602082840312156146305761462f6139c6565b5b600061463e84828501614605565b91505092915050565b7f416363657373436f6e74726f6c3a2063616e206f6e6c792072656e6f756e636560008201527f20726f6c657320666f722073656c660000000000000000000000000000000000602082015250565b60006146a3602f836143d4565b91506146ae82614647565b604082019050919050565b600060208201905081810360008301526146d281614696565b9050919050565b60006146e482613abf565b91506146ef83613abf565b9250828201905063ffffffff81111561470b5761470a614451565b5b92915050565b600060208201905061472660008301846145cd565b92915050565b600067ffffffffffffffff82111561474757614746614014565b5b602082029050602081019050919050565b600061476b6147668461472c565b614074565b9050808382526020820190506020840283018581111561478e5761478d613fb4565b5b835b818110156147b757806147a38882614605565b845260208401935050602081019050614790565b5050509392505050565b600082601f8301126147d6576147d5613faa565b5b81516147e6848260208601614758565b91505092915050565b600067ffffffffffffffff82111561480a57614809614014565b5b602082029050602081019050919050565b600061482e614829846147ef565b614074565b9050808382526020820190506020840283018581111561485157614850613fb4565b5b835b8181101561489857805167ffffffffffffffff81111561487657614875613faa565b5b8086016148838982614556565b85526020850194505050602081019050614853565b5050509392505050565b600082601f8301126148b7576148b6613faa565b5b81516148c784826020860161481b565b91505092915050565b600080604083850312156148e7576148e66139c6565b5b600083015167ffffffffffffffff811115614905576149046139cb565b5b614911858286016147c1565b925050602083015167ffffffffffffffff811115614932576149316139cb565b5b61493e858286016148a2565b9150509250929050565b6000819050919050565b600061496d61496861496384614948565b613d8e565b613a8b565b9050919050565b61497d81614952565b82525050565b60006040820190506149986000830185614974565b6149a560208301846145cd565b9392505050565b7f4e487b7100000000000000000000000000000000000000000000000000000000600052603260045260246000fd5b600081905092915050565b60006149f182613b84565b6149fb81856149db565b9350614a0b818560208601613ba0565b80840191505092915050565b6000614a2382856149e6565b9150614a2f82846149e6565b91508190509392505050565b614a4481613a55565b82525050565b600081519050919050565b600082825260208201905092915050565b6000819050602082019050919050565b6000614a82838361420a565b60208301905092915050565b6000602082019050919050565b6000614aa682614a4a565b614ab08185614a55565b9350614abb83614a66565b8060005b83811015614aec578151614ad38882614a76565b9750614ade83614a8e565b925050600181019050614abf565b5085935050505092915050565b614b0281613abf565b82525050565b600060e083016000830151614b206000860182614a3b565b506020830151614b3360208601826141fb565b506040830151614b4660408601826141fb565b5060608301518482036060860152614b5e8282614a9b565b91505060808301518482036080860152614b788282614a9b565b91505060a083015184820360a0860152614b92828261422a565b91505060c0830151614ba760c0860182614af9565b508091505092915050565b60006020820190508181036000830152614bcc8184614b08565b905092915050565b6000819050919050565b6000614bf9614bf4614bef84614bd4565b613d8e565b613a8b565b9050919050565b614c0981614bde565b82525050565b6000604082019050614c246000830185614c00565b614c3160208301846145cd565b9392505050565b600081519050919050565b600082825260208201905092915050565b6000819050602082019050919050565b6000614c7083836141fb565b60208301905092915050565b6000602082019050919050565b6000614c9482614c38565b614c9e8185614c43565b9350614ca983614c54565b8060005b83811015614cda578151614cc18882614c64565b9750614ccc83614c7c565b925050600181019050614cad565b5085935050505092915050565b6000604082019050614cfc6000830185613c99565b8181036020830152614d0e8184614c89565b90509392505050565b60008190508160005260206000209050919050565b60006020601f8301049050919050565b600082821b905092915050565b600060088302614d797fffffffffffffffffffffffffffffffffffffffffffffffffffffffffffffffff82614d3c565b614d838683614d3c565b95508019841693508086168417925050509392505050565b6000614db6614db1614dac84613a8b565b613d8e565b613a8b565b9050919050565b6000819050919050565b614dd083614d9b565b614de4614ddc82614dbd565b848454614d49565b825550505050565b600090565b614df9614dec565b614e04818484614dc7565b505050565b5b81811015614e2857614e1d600082614df1565b600181019050614e0a565b5050565b601f821115614e6d57614e3e81614d17565b614e4784614d2c565b81016020851015614e56578190505b614e6a614e6285614d2c565b830182614e09565b50505b505050565b600082821c905092915050565b6000614e9060001984600802614e72565b1980831691505092915050565b6000614ea98383614e7f565b9150826002028217905092915050565b614ec282613b84565b67ffffffffffffffff811115614edb57614eda614014565b5b614ee582546144e3565b614ef0828285614e2c565b600060209050601f831160018114614f235760008415614f11578287015190505b614f1b8582614e9d565b865550614f83565b601f198416614f3186614d17565b60005b82811015614f5957848901518255600182019150602085019450602081019050614f34565b86831015614f765784890151614f72601f891682614e7f565b8355505b6001600288020188555050505b505050505050565b6000602082019050614fa06000830184613d41565b92915050565b614faf81613a55565b8114614fba57600080fd5b50565b600081519050614fcc81614fa6565b92915050565b600060208284031215614fe857614fe76139c6565b5b6000614ff684828501614fbd565b91505092915050565b600080fd5b600080fd5b60008135905061501881614fa6565b92915050565b600067ffffffffffffffff82111561503957615038614014565b5b602082029050602081019050919050565b600061505d6150588461501e565b614074565b905080838252602082019050602084028301858111156150805761507f613fb4565b5b835b818110156150a957806150958882613e1f565b845260208401935050602081019050615082565b5050509392505050565b600082601f8301126150c8576150c7613faa565b5b81356150d884826020860161504a565b91505092915050565b600060e082840312156150f7576150f6614fff565b5b61510160e0614074565b9050600061511184828501615009565b600083015250602061512584828501613c57565b602083015250604061513984828501613c57565b604083015250606082013567ffffffffffffffff81111561515d5761515c615004565b5b615169848285016150b3565b606083015250608082013567ffffffffffffffff81111561518d5761518c615004565b5b615199848285016150b3565b60808301525060a082013567ffffffffffffffff8111156151bd576151bc615004565b5b6151c984828501614111565b60a08301525060c06151dd84828501613e8b565b60c08301525092915050565b6000602082840312156151ff576151fe6139c6565b5b600082013567ffffffffffffffff81111561521d5761521c6139cb565b5b615229848285016150e1565b91505092915050565b60006040820190506152476000830185613c99565b81810360208301526152598184613bdb565b90509392505050565b60008151905061527181613e08565b92915050565b60006020828403121561528d5761528c6139c6565b5b600061529b84828501615262565b91505092915050565b6000819050919050565b6152bf6152ba82613c36565b6152a4565b82525050565b60008160601b9050919050565b60006152dd826152c5565b9050919050565b60006152ef826152d2565b9050919050565b61530761530282613d2f565b6152e4565b82525050565b600061531982856152ae565b60208201915061532982846152f6565b6014820191508190509392505050565b600067ffffffffffffffff82111561535457615353614014565b5b602082029050602081019050919050565b60006060828403121561537b5761537a614fff565b5b6153856060614074565b9050600061539584828501614605565b60008301525060206153a984828501615262565b602083015250604082015167ffffffffffffffff8111156153cd576153cc615004565b5b6153d984828501614556565b60408301525092915050565b60006153f86153f384615339565b614074565b9050808382526020820190506020840283018581111561541b5761541a613fb4565b5b835b8181101561546257805167ffffffffffffffff8111156154405761543f613faa565b5b80860161544d8982615365565b8552602085019450505060208101905061541d565b5050509392505050565b600082601f83011261548157615480613faa565b5b81516154918482602086016153e5565b91505092915050565b6000602082840312156154b0576154af6139c6565b5b600082015167ffffffffffffffff8111156154ce576154cd6139cb565b5b6154da8482850161546c565b91505092915050565b6000815190506154f281613cc3565b92915050565b60006020828403121561550e5761550d6139c6565b5b600061551c848285016154e3565b91505092915050565b7f496e697469616c697a61626c653a20636f6e747261637420697320616c72656160008201527f647920696e697469616c697a6564000000000000000000000000000000000000602082015250565b6000615581602e836143d4565b915061558c82615525565b604082019050919050565b600060208201905081810360008301526155b081615574565b9050919050565b6000819050919050565b600060ff82169050919050565b60006155e96155e46155df846155b7565b613d8e565b6155c1565b9050919050565b6155f9816155ce565b82525050565b600060208201905061561460008301846155f0565b92915050565b6000819050919050565b615635615630826139d0565b61561a565b82525050565b60008160e01b9050919050565b60006156538261563b565b9050919050565b61566b61566682613abf565b615648565b82525050565b600061567d8285615624565b60048201915061568d828461565a565b6004820191508190509392505050565b60006156a882613abf565b915063ffffffff82036156be576156bd614451565b5b600182019050919050565b60006156dc6156d78461501e565b614074565b905080838252602082019050602084028301858111156156ff576156fe613fb4565b5b835b8181101561572857806157148882615262565b845260208401935050602081019050615701565b5050509392505050565b600082601f83011261574757615746613faa565b5b81516157578482602086016156c9565b91505092915050565b600060208284031215615776576157756139c6565b5b600082015167ffffffffffffffff811115615794576157936139cb565b5b6157a084828501615732565b91505092915050565b600082825260208201905092915050565b60006157c582614a4a565b6157cf81856157a9565b93506157da83614a66565b8060005b8381101561580b5781516157f28882614a76565b97506157fd83614a8e565b9250506001810190506157de565b5085935050505092915050565b6000602082019050818103600083015261583281846157ba565b905092915050565b600061584582613a8b565b91507fffffffffffffffffffffffffffffffffffffffffffffffffffffffffffffffff820361587757615876614451565b5b600182019050919050565b7f496e697469616c697a61626c653a20636f6e7472616374206973206e6f74206960008201527f6e697469616c697a696e67000000000000000000000000000000000000000000602082015250565b60006158de602b836143d4565b91506158e982615882565b604082019050919050565b6000602082019050818103600083015261590d816158d1565b9050919050565b600081905092915050565b7f416363657373436f6e74726f6c3a206163636f756e7420000000000000000000600082015250565b6000615955601783615914565b91506159608261591f565b601782019050919050565b600081519050919050565b60006159818261596b565b61598b8185615914565b935061599b818560208601613ba0565b80840191505092915050565b7f206973206d697373696e6720726f6c6520000000000000000000000000000000600082015250565b60006159dd601183615914565b91506159e8826159a7565b601182019050919050565b60006159fe82615948565b9150615a0a8285615976565b9150615a15826159d0565b9150615a218284615976565b91508190509392505050565b6000615a388261596b565b615a4281856143d4565b9350615a52818560208601613ba0565b615a5b81613bca565b840191505092915050565b60006020820190508181036000830152615a808184615a2d565b905092915050565b6000615a9382613a8b565b9150615a9e83613a8b565b9250828202615aac81613a8b565b91508282048414831517615ac357615ac2614451565b5b5092915050565b6000615ad582613a8b565b9150615ae083613a8b565b9250828201905080821115615af857615af7614451565b5b92915050565b6000615b0982613a8b565b915060008203615b1c57615b1b614451565b5b600182039050919050565b7f537472696e67733a20686578206c656e67746820696e73756666696369656e74600082015250565b6000615b5d6020836143d4565b9150615b6882615b27565b602082019050919050565b60006020820190508181036000830152615b8c81615b50565b9050919050565b600081549050615ba2816144e3565b9050919050565b818103615bb7575050615c8f565b615bc082615b93565b67ffffffffffffffff811115615bd957615bd8614014565b5b615be382546144e3565b615bee828285614e2c565b6000601f831160018114615c1d5760008415615c0b578287015490505b615c158582614e9d565b865550615c88565b601f198416615c2b87614d17565b9650615c3686614d17565b60005b82811015615c5e57848901548255600182019150600185019450602081019050615c39565b86831015615c7b5784890154615c77601f891682614e7f565b8355505b6001600288020188555050505b5050505050505b56fea2646970667358221220448c44c05c9bca5a31e0ef3ede0a757d602b46f92b876575d36939fc08067e3664736f6c63430008180033",
  "linkReferences": {},
  "deployedLinkReferences": {}
}