{
  "_format": "hh-sol-artifact-1",
  "contractName": "AttestationDLQ",
  "sourceName": "contracts/attestationDLQ.sol",
  "abi": [
    {
      "anonymous": false,
      "inputs": [
        {
          "indexed": false,
          "internalType": "uint8",
          "name": "version",
          "type": "uint8"
        }
      ],
      "name": "Initialized",
      "type": "event"
    },
    {
      "anonymous": false,
      "inputs": [
        {
          "indexed": true,
          "internalType": "bytes32",
          "name": "role",
          "type": "bytes32"
        },
        {
          "indexed": true,
          "internalType": "bytes32",
          "name": "previousAdminRole",
          "type": "bytes32"
        },
        {
          "indexed": true,
          "internalType": "bytes32",
          "name": "newAdminRole",
          "type": "bytes32"
        }
      ],
      "name": "RoleAdminChanged",
      "type": "event"
    },
    {
      "anonymous": false,
      "inputs": [
        {
          "indexed": true,
          "internalType": "bytes32",
          "name": "role",
          "type": "bytes32"
        },
        {
          "indexed": true,
          "internalType": "address",
          "name": "account",
          "type": "address"
        },
        {
          "indexed": true,
          "internalType": "address",
          "name": "sender",
          "type": "address"
        }
      ],
      "name": "RoleGranted",
      "type": "event"
    },
    {
      "anonymous": false,
      "inputs": [
        {
          "indexed": true,
          "internalType": "bytes32",
          "name": "role",
          "type": "bytes32"
        },
        {
          "indexed": true,
          "internalType": "address",
          "name": "account",
          "type": "address"
        },
        {
          "indexed": true,
          "internalType": "address",
          "name": "sender",
          "type": "address"
        }
      ],
      "name": "RoleRevoked",
      "type": "event"
    },
    {
      "inputs": [],
      "name": "DEFAULT_ADMIN_ROLE",
      "outputs": [
        {
          "internalType": "bytes32",
          "name": "",
          "type": "bytes32"
        }
      ],
      "stateMutability": "view",
      "type": "function"
    },
    {
      "inputs": [
        {
          "internalType": "bytes32",
          "name": "",
          "type": "bytes32"
        }
      ],
      "name": "GMPMismatched",
      "outputs": [
        {
          "internalType": "bool",
          "name": "",
          "type": "bool"
        }
      ],
      "stateMutability": "view",
      "type": "function"
    },
    {
      "inputs": [
        {
          "internalType": "bytes32",
          "name": "",
          "type": "bytes32"
        }
      ],
      "name": "LinkedListDLQ",
      "outputs": [
        {
          "internalType": "bytes32",
          "name": "prev",
          "type": "bytes32"
        },
        {
          "internalType": "bytes32",
          "name": "next",
          "type": "bytes32"
        }
      ],
      "stateMutability": "view",
      "type": "function"
    },
    {
      "inputs": [
        {
          "internalType": "bytes32",
          "name": "",
          "type": "bytes32"
        }
      ],
      "name": "LinkedListDLQGMP",
      "outputs": [
        {
          "internalType": "bytes32",
          "name": "prev",
          "type": "bytes32"
        },
        {
          "internalType": "bytes32",
          "name": "next",
          "type": "bytes32"
        }
      ],
      "stateMutability": "view",
      "type": "function"
    },
    {
      "inputs": [
        {
          "internalType": "bytes32",
          "name": "_id",
          "type": "bytes32"
        },
        {
          "internalType": "bool",
          "name": "_isGMPMismatch",
          "type": "bool"
        }
      ],
      "name": "addDLQ",
      "outputs": [
        {
          "internalType": "bool",
          "name": "",
          "type": "bool"
        }
      ],
      "stateMutability": "nonpayable",
      "type": "function"
    },
    {
      "inputs": [
        {
          "internalType": "bytes32",
          "name": "_id",
          "type": "bytes32"
        }
      ],
      "name": "addDLQToGMP",
      "outputs": [
        {
          "internalType": "bool",
          "name": "",
          "type": "bool"
        }
      ],
      "stateMutability": "nonpayable",
      "type": "function"
    },
    {
      "inputs": [],
      "name": "adminContract",
      "outputs": [
        {
          "internalType": "address",
          "name": "",
          "type": "address"
        }
      ],
      "stateMutability": "view",
      "type": "function"
    },
    {
      "inputs": [],
      "name": "attestersPortal",
      "outputs": [
        {
          "internalType": "contract AttestersPortal",
          "name": "",
          "type": "address"
        }
      ],
      "stateMutability": "view",
      "type": "function"
    },
    {
      "inputs": [
        {
          "internalType": "bytes32",
          "name": "_id",
          "type": "bytes32"
        }
      ],
      "name": "checkExists",
      "outputs": [
        {
          "internalType": "bool",
          "name": "",
          "type": "bool"
        }
      ],
      "stateMutability": "view",
      "type": "function"
    },
    {
      "inputs": [
        {
          "internalType": "bytes32",
          "name": "_id",
          "type": "bytes32"
        }
      ],
      "name": "checkGMPExists",
      "outputs": [
        {
          "internalType": "bool",
          "name": "",
          "type": "bool"
        }
      ],
      "stateMutability": "view",
      "type": "function"
    },
    {
      "inputs": [],
      "name": "emergencyDLQCleanup",
      "outputs": [],
      "stateMutability": "nonpayable",
      "type": "function"
    },
    {
      "inputs": [],
      "name": "getAllGMPMismatched",
      "outputs": [
        {
          "internalType": "bytes32[]",
          "name": "",
          "type": "bytes32[]"
        }
      ],
      "stateMutability": "view",
      "type": "function"
    },
    {
      "inputs": [],
      "name": "getAllLate",
      "outputs": [
        {
          "internalType": "bytes32[]",
          "name": "",
          "type": "bytes32[]"
        }
      ],
      "stateMutability": "view",
      "type": "function"
    },
    {
      "inputs": [],
      "name": "getGMPMismatchedCount",
      "outputs": [
        {
          "internalType": "uint256",
          "name": "",
          "type": "uint256"
        }
      ],
      "stateMutability": "view",
      "type": "function"
    },
    {
      "inputs": [],
      "name": "getLateCount",
      "outputs": [
        {
          "internalType": "uint256",
          "name": "",
          "type": "uint256"
        }
      ],
      "stateMutability": "view",
      "type": "function"
    },
    {
      "inputs": [],
      "name": "getNewest",
      "outputs": [
        {
          "internalType": "bytes32",
          "name": "",
          "type": "bytes32"
        }
      ],
      "stateMutability": "view",
      "type": "function"
    },
    {
      "inputs": [],
      "name": "getNewestGMP",
      "outputs": [
        {
          "internalType": "bytes32",
          "name": "",
          "type": "bytes32"
        }
      ],
      "stateMutability": "view",
      "type": "function"
    },
    {
      "inputs": [],
      "name": "getOldest",
      "outputs": [
        {
          "internalType": "bytes32",
          "name": "",
          "type": "bytes32"
        }
      ],
      "stateMutability": "view",
      "type": "function"
    },
    {
      "inputs": [],
      "name": "getOldestGMP",
      "outputs": [
        {
          "internalType": "bytes32",
          "name": "",
          "type": "bytes32"
        }
      ],
      "stateMutability": "view",
      "type": "function"
    },
    {
      "inputs": [],
      "name": "getOldestLate",
      "outputs": [
        {
          "internalType": "bytes32",
          "name": "",
          "type": "bytes32"
        }
      ],
      "stateMutability": "view",
      "type": "function"
    },
    {
      "inputs": [
        {
          "internalType": "bytes32",
          "name": "role",
          "type": "bytes32"
        }
      ],
      "name": "getRoleAdmin",
      "outputs": [
        {
          "internalType": "bytes32",
          "name": "",
          "type": "bytes32"
        }
      ],
      "stateMutability": "view",
      "type": "function"
    },
    {
      "inputs": [],
      "name": "getTotalCount",
      "outputs": [
        {
          "internalType": "uint256",
          "name": "",
          "type": "uint256"
        }
      ],
      "stateMutability": "view",
      "type": "function"
    },
    {
      "inputs": [
        {
          "internalType": "bytes32",
          "name": "role",
          "type": "bytes32"
        },
        {
          "internalType": "address",
          "name": "account",
          "type": "address"
        }
      ],
      "name": "grantRole",
      "outputs": [],
      "stateMutability": "nonpayable",
      "type": "function"
    },
    {
      "inputs": [
        {
          "internalType": "bytes32",
          "name": "role",
          "type": "bytes32"
        },
        {
          "internalType": "address",
          "name": "account",
          "type": "address"
        }
      ],
      "name": "hasRole",
      "outputs": [
        {
          "internalType": "bool",
          "name": "",
          "type": "bool"
        }
      ],
      "stateMutability": "view",
      "type": "function"
    },
    {
      "inputs": [
        {
          "internalType": "contract AttestersPortal",
          "name": "_attestersPortal",
          "type": "address"
        },
        {
          "internalType": "address",
          "name": "_adminContract",
          "type": "address"
        }
      ],
      "name": "initialize",
      "outputs": [],
      "stateMutability": "nonpayable",
      "type": "function"
    },
    {
      "inputs": [],
      "name": "newest",
      "outputs": [
        {
          "internalType": "bytes32",
          "name": "",
          "type": "bytes32"
        }
      ],
      "stateMutability": "view",
      "type": "function"
    },
    {
      "inputs": [],
      "name": "newestGMP",
      "outputs": [
        {
          "internalType": "bytes32",
          "name": "",
          "type": "bytes32"
        }
      ],
      "stateMutability": "view",
      "type": "function"
    },
    {
      "inputs": [],
      "name": "oldest",
      "outputs": [
        {
          "internalType": "bytes32",
          "name": "",
          "type": "bytes32"
        }
      ],
      "stateMutability": "view",
      "type": "function"
    },
    {
      "inputs": [],
      "name": "oldestGMP",
      "outputs": [
        {
          "internalType": "bytes32",
          "name": "",
          "type": "bytes32"
        }
      ],
      "stateMutability": "view",
      "type": "function"
    },
    {
      "inputs": [
        {
          "internalType": "bytes32",
          "name": "_id",
          "type": "bytes32"
        }
      ],
      "name": "removeDLQ",
      "outputs": [
        {
          "internalType": "bool",
          "name": "",
          "type": "bool"
        }
      ],
      "stateMutability": "nonpayable",
      "type": "function"
    },
    {
      "inputs": [
        {
          "internalType": "bytes32",
          "name": "_id",
          "type": "bytes32"
        }
      ],
      "name": "removeDLQGMP",
      "outputs": [
        {
          "internalType": "bool",
          "name": "",
          "type": "bool"
        }
      ],
      "stateMutability": "nonpayable",
      "type": "function"
    },
    {
      "inputs": [
        {
          "internalType": "bytes32",
          "name": "_id",
          "type": "bytes32"
        }
      ],
      "name": "removeItem",
      "outputs": [
        {
          "internalType": "bool",
          "name": "",
          "type": "bool"
        }
      ],
      "stateMutability": "nonpayable",
      "type": "function"
    },
    {
      "inputs": [
        {
          "internalType": "bytes32",
          "name": "role",
          "type": "bytes32"
        },
        {
          "internalType": "address",
          "name": "account",
          "type": "address"
        }
      ],
      "name": "renounceRole",
      "outputs": [],
      "stateMutability": "nonpayable",
      "type": "function"
    },
    {
      "inputs": [
        {
          "internalType": "bytes32",
          "name": "role",
          "type": "bytes32"
        },
        {
          "internalType": "address",
          "name": "account",
          "type": "address"
        }
      ],
      "name": "revokeRole",
      "outputs": [],
      "stateMutability": "nonpayable",
      "type": "function"
    },
    {
      "inputs": [
        {
          "internalType": "address",
          "name": "_adminContract",
          "type": "address"
        }
      ],
      "name": "setAdminContract",
      "outputs": [],
      "stateMutability": "nonpayable",
      "type": "function"
    },
    {
      "inputs": [
        {
          "internalType": "contract AttestersPortal",
          "name": "_attestersPortal",
          "type": "address"
        }
      ],
      "name": "setAttestersPortal",
      "outputs": [],
      "stateMutability": "nonpayable",
      "type": "function"
    },
    {
      "inputs": [
        {
          "internalType": "bytes32",
          "name": "_version",
          "type": "bytes32"
        }
      ],
      "name": "setVersion",
      "outputs": [],
      "stateMutability": "nonpayable",
      "type": "function"
    },
    {
      "inputs": [
        {
          "internalType": "bytes4",
          "name": "interfaceId",
          "type": "bytes4"
        }
      ],
      "name": "supportsInterface",
      "outputs": [
        {
          "internalType": "bool",
          "name": "",
          "type": "bool"
        }
      ],
      "stateMutability": "view",
      "type": "function"
    },
    {
      "inputs": [],
      "name": "totalItems",
      "outputs": [
        {
          "internalType": "uint256",
          "name": "",
          "type": "uint256"
        }
      ],
      "stateMutability": "view",
      "type": "function"
    },
    {
      "inputs": [],
      "name": "totalItemsGMP",
      "outputs": [
        {
          "internalType": "uint256",
          "name": "",
          "type": "uint256"
        }
      ],
      "stateMutability": "view",
      "type": "function"
    },
    {
      "inputs": [],
      "name": "totalItemsLate",
      "outputs": [
        {
          "internalType": "uint256",
          "name": "",
          "type": "uint256"
        }
      ],
      "stateMutability": "view",
      "type": "function"
    },
    {
      "inputs": [],
      "name": "version",
      "outputs": [
        {
          "internalType": "bytes32",
          "name": "",
          "type": "bytes32"
        }
      ],
      "stateMutability": "view",
      "type": "function"
    }
  ],
  "bytecode": "0x608060405234801561001057600080fd5b50612f8a806100206000396000f3fe608060405234801561001057600080fd5b506004361061025e5760003560e01c806363a812f911610146578063b783214f116100c3578063ccfac27011610087578063ccfac27014610769578063d03685cb14610787578063d351fc38146107a3578063d547741f146107c1578063e33046c9146107dd578063f88e2b72146107fb5761025e565b8063b783214f146106e9578063bdeb5e6014610707578063c05c5e9414610725578063c14f6e3514610743578063ca5f81b51461074d5761025e565b806397b6c16d1161010a57806397b6c16d1461061b578063a217fddf1461064c578063a6d89b1c1461066a578063abff3f8614610688578063b14a6ae6146106b85761025e565b806363a812f9146105755780637d02bc1c146105915780638bdbdac1146105af57806391d14854146105cd578063932704b7146105fd5761025e565b80632c20b408116101df5780633e7c9e3f116101a35780633e7c9e3f1461049f578063411ecb67146104cf57806346103a9f146104ff578063485cc9551461051d57806354fd4d501461053957806356d42bb3146105575761025e565b80632c20b4081461040d5780632f2ff15d1461042b57806336568abe146104475780633aac5d3d146104635780633c3c22b3146104815761025e565b8063218bd05311610226578063218bd05314610353578063228473c114610383578063248a9ca3146103a157806324f5139e146103d15780632799276d146103ef5761025e565b806301ffc9a71461026357806302fc47d414610293578063131c2ab3146102c357806318037045146102f3578063195247b514610323575b600080fd5b61027d600480360381019061027891906122b8565b610819565b60405161028a9190612300565b60405180910390f35b6102ad60048036038101906102a89190612351565b610893565b6040516102ba9190612300565b60405180910390f35b6102dd60048036038101906102d89190612351565b610aa2565b6040516102ea9190612300565b60405180910390f35b61030d60048036038101906103089190612351565b610d1c565b60405161031a9190612300565b60405180910390f35b61033d60048036038101906103389190612351565b610e9f565b60405161034a9190612300565b60405180910390f35b61036d60048036038101906103689190612351565b611112565b60405161037a9190612300565b60405180910390f35b61038b61115c565b604051610398919061238d565b60405180910390f35b6103bb60048036038101906103b69190612351565b611166565b6040516103c8919061238d565b60405180910390f35b6103d9611186565b6040516103e691906123c1565b60405180910390f35b6103f7611190565b60405161040491906123c1565b60405180910390f35b610415611196565b604051610422919061238d565b60405180910390f35b6104456004803603810190610440919061243a565b6111a0565b005b610461600480360381019061045c919061243a565b6111c1565b005b61046b611244565b60405161047891906124d9565b60405180910390f35b61048961126a565b604051610496919061238d565b60405180910390f35b6104b960048036038101906104b49190612351565b611270565b6040516104c69190612300565b60405180910390f35b6104e960048036038101906104e49190612351565b611290565b6040516104f69190612300565b60405180910390f35b6105076112da565b60405161051491906123c1565b60405180910390f35b61053760048036038101906105329190612544565b6112e0565b005b6105416114af565b60405161054e919061238d565b60405180910390f35b61055f6114b5565b60405161056c91906123c1565b60405180910390f35b61058f600480360381019061058a9190612584565b6114bf565b005b61059961154f565b6040516105a6919061238d565b60405180910390f35b6105b7611559565b6040516105c4919061238d565b60405180910390f35b6105e760048036038101906105e2919061243a565b61155f565b6040516105f49190612300565b60405180910390f35b6106056115ca565b604051610612919061266f565b60405180910390f35b61063560048036038101906106309190612351565b611682565b604051610643929190612691565b60405180910390f35b6106546116a6565b604051610661919061238d565b60405180910390f35b6106726116ad565b60405161067f919061238d565b60405180910390f35b6106a2600480360381019061069d91906126e6565b6116b7565b6040516106af9190612300565b60405180910390f35b6106d260048036038101906106cd9190612351565b6118c9565b6040516106e0929190612691565b60405180910390f35b6106f16118ed565b6040516106fe919061238d565b60405180910390f35b61070f6118f3565b60405161071c919061266f565b60405180910390f35b61072d6119ab565b60405161073a9190612735565b60405180910390f35b61074b6119d1565b005b61076760048036038101906107629190612351565b611b89565b005b610771611bdf565b60405161077e91906123c1565b60405180910390f35b6107a1600480360381019061079c9190612750565b611be5565b005b6107ab611c75565b6040516107b8919061238d565b60405180910390f35b6107db60048036038101906107d6919061243a565b611c7f565b005b6107e5611ca0565b6040516107f291906123c1565b60405180910390f35b610803611caa565b604051610810919061238d565b60405180910390f35b60007f7965db0b000000000000000000000000000000000000000000000000000000007bffffffffffffffffffffffffffffffffffffffffffffffffffffffff1916827bffffffffffffffffffffffffffffffffffffffffffffffffffffffff1916148061088c575061088b82611cb0565b5b9050919050565b6000609760009054906101000a900473ffffffffffffffffffffffffffffffffffffffff1673ffffffffffffffffffffffffffffffffffffffff1663ee06b289336040518263ffffffff1660e01b81526004016108f09190612735565b602060405180830381865afa15801561090d573d6000803e3d6000fd5b505050506040513d601f19601f820116820180604052508101906109319190612792565b806109895750609860009054906101000a900473ffffffffffffffffffffffffffffffffffffffff1673ffffffffffffffffffffffffffffffffffffffff163373ffffffffffffffffffffffffffffffffffffffff16145b6109c8576040517f08c379a00000000000000000000000000000000000000000000000000000000081526004016109bf90612868565b60405180910390fd5b6109d182611112565b156109df5760009050610a9d565b6000801b82036109f25760009050610a9d565b609d54609a6000848152602001908152602001600020600001819055506000801b609d5414610a395781609a6000609d548152602001908152602001600020600101819055505b81609d819055506000801b609f5403610a545781609f819055505b60a16000815480929190610a67906128b7565b91905055506001609b600084815260200190815260200160002060006101000a81548160ff021916908315150217905550600190505b919050565b6000609760009054906101000a900473ffffffffffffffffffffffffffffffffffffffff1673ffffffffffffffffffffffffffffffffffffffff1663ee06b289336040518263ffffffff1660e01b8152600401610aff9190612735565b602060405180830381865afa158015610b1c573d6000803e3d6000fd5b505050506040513d601f19601f82011682018060405250810190610b409190612792565b80610b985750609860009054906101000a900473ffffffffffffffffffffffffffffffffffffffff1673ffffffffffffffffffffffffffffffffffffffff163373ffffffffffffffffffffffffffffffffffffffff16145b610bd7576040517f08c379a0000000000000000000000000000000000000000000000000000000008152600401610bce90612868565b60405180910390fd5b610be082611112565b610bed5760009050610d17565b6000801b8203610c005760009050610d17565b6000609a60008481526020019081526020016000206000015490506000609a60008581526020019081526020016000206001015490506000801b8214610c605780609a600084815260200190815260200160002060010181905550610c68565b80609f819055505b6000801b8114610c925781609a600083815260200190815260200160002060000181905550610c9a565b81609d819055505b609a6000858152602001908152602001600020600080820160009055600182016000905550506000609b600086815260200190815260200160002060006101000a81548160ff021916908315150217905550600060a1541115610d105760a16000815480929190610d0a906128ff565b91905055505b6001925050505b919050565b6000609760009054906101000a900473ffffffffffffffffffffffffffffffffffffffff1673ffffffffffffffffffffffffffffffffffffffff1663ee06b289336040518263ffffffff1660e01b8152600401610d799190612735565b602060405180830381865afa158015610d96573d6000803e3d6000fd5b505050506040513d601f19601f82011682018060405250810190610dba9190612792565b80610e125750609860009054906101000a900473ffffffffffffffffffffffffffffffffffffffff1673ffffffffffffffffffffffffffffffffffffffff163373ffffffffffffffffffffffffffffffffffffffff16145b610e51576040517f08c379a0000000000000000000000000000000000000000000000000000000008152600401610e4890612868565b60405180910390fd5b6000609b600084815260200190815260200160002060009054906101000a900460ff1690508015610e8d57610e8583610aa2565b915050610e9a565b610e9683610e9f565b9150505b919050565b6000609760009054906101000a900473ffffffffffffffffffffffffffffffffffffffff1673ffffffffffffffffffffffffffffffffffffffff1663ee06b289336040518263ffffffff1660e01b8152600401610efc9190612735565b602060405180830381865afa158015610f19573d6000803e3d6000fd5b505050506040513d601f19601f82011682018060405250810190610f3d9190612792565b80610f955750609860009054906101000a900473ffffffffffffffffffffffffffffffffffffffff1673ffffffffffffffffffffffffffffffffffffffff163373ffffffffffffffffffffffffffffffffffffffff16145b610fd4576040517f08c379a0000000000000000000000000000000000000000000000000000000008152600401610fcb90612868565b60405180910390fd5b610fdd82611290565b15610feb576000905061110d565b6000801b8203610ffe576000905061110d565b6000609960008481526020019081526020016000206000015490506000609960008581526020019081526020016000206001015490506000801b821461105e57806099600084815260200190815260200160002060010181905550611066565b80609e819055505b6000801b811461109057816099600083815260200190815260200160002060000181905550611098565b81609c819055505b6099600085815260200190815260200160002060008082016000905560018201600090555050600060a05411156110e25760a060008154809291906110dc906128ff565b91905055505b600060a25411156111065760a26000815480929190611100906128ff565b91905055505b6001925050505b919050565b60008060001b609a60008481526020019081526020016000206000015414158061115557506000801b609a60008481526020019081526020016000206001015414155b9050919050565b6000609c54905090565b600060656000838152602001908152602001600020600101549050919050565b600060a154905090565b60a05481565b6000609f54905090565b6111a982611166565b6111b281611d1a565b6111bc8383611d2e565b505050565b6111c9611e0f565b73ffffffffffffffffffffffffffffffffffffffff168173ffffffffffffffffffffffffffffffffffffffff1614611236576040517f08c379a000000000000000000000000000000000000000000000000000000000815260040161122d9061299a565b60405180910390fd5b6112408282611e17565b5050565b609760009054906101000a900473ffffffffffffffffffffffffffffffffffffffff1681565b609e5481565b609b6020528060005260406000206000915054906101000a900460ff1681565b60008060001b60996000848152602001908152602001600020600001541415806112d357506000801b609960008481526020019081526020016000206001015414155b9050919050565b60a15481565b60008060019054906101000a900460ff161590508080156113115750600160008054906101000a900460ff1660ff16105b8061133e575061132030611ef9565b15801561133d5750600160008054906101000a900460ff1660ff16145b5b61137d576040517f08c379a000000000000000000000000000000000000000000000000000000000815260040161137490612a2c565b60405180910390fd5b60016000806101000a81548160ff021916908360ff16021790555080156113ba576001600060016101000a81548160ff0219169083151502179055505b6113c2611f1c565b6113cf6000801b33611d2e565b82609760006101000a81548173ffffffffffffffffffffffffffffffffffffffff021916908373ffffffffffffffffffffffffffffffffffffffff16021790555081609860006101000a81548173ffffffffffffffffffffffffffffffffffffffff021916908373ffffffffffffffffffffffffffffffffffffffff16021790555080156114aa5760008060016101000a81548160ff0219169083151502179055507f7f26b83ff96e1f2b6a682f133852f6798a09c465da95921460cefb384740249860016040516114a19190612a94565b60405180910390a15b505050565b60a35481565b600060a054905090565b6114cc6000801b3361155f565b61150b576040517f08c379a000000000000000000000000000000000000000000000000000000000815260040161150290612b21565b60405180910390fd5b80609860006101000a81548173ffffffffffffffffffffffffffffffffffffffff021916908373ffffffffffffffffffffffffffffffffffffffff16021790555050565b6000609e54905090565b609c5481565b60006065600084815260200190815260200160002060000160008373ffffffffffffffffffffffffffffffffffffffff1673ffffffffffffffffffffffffffffffffffffffff16815260200190815260200160002060009054906101000a900460ff16905092915050565b60606000609f549050600060a15467ffffffffffffffff8111156115f1576115f0612b41565b5b60405190808252806020026020018201604052801561161f5781602001602082028036833780820191505090505b50905060005b6000801b8314611679578282828151811061164357611642612b70565b5b602002602001018181525050609a600084815260200190815260200160002060010154925080611672906128b7565b9050611625565b81935050505090565b60996020528060005260406000206000915090508060000154908060010154905082565b6000801b81565b6000609d54905090565b6000609760009054906101000a900473ffffffffffffffffffffffffffffffffffffffff1673ffffffffffffffffffffffffffffffffffffffff1663ee06b289336040518263ffffffff1660e01b81526004016117149190612735565b602060405180830381865afa158015611731573d6000803e3d6000fd5b505050506040513d601f19601f820116820180604052508101906117559190612792565b806117ad5750609860009054906101000a900473ffffffffffffffffffffffffffffffffffffffff1673ffffffffffffffffffffffffffffffffffffffff163373ffffffffffffffffffffffffffffffffffffffff16145b6117ec576040517f08c379a00000000000000000000000000000000000000000000000000000000081526004016117e390612868565b60405180910390fd5b8115611802576117fb83610893565b90506118c3565b61180b83611290565b1561181957600090506118c3565b6000801b830361182c57600090506118c3565b609c5460996000858152602001908152602001600020600001819055506000801b609c5414611873578260996000609c548152602001908152602001600020600101819055505b82609c819055506000801b609e540361188e5782609e819055505b60a060008154809291906118a1906128b7565b919050555060a260008154809291906118b9906128b7565b9190505550600190505b92915050565b609a6020528060005260406000206000915090508060000154908060010154905082565b609f5481565b60606000609e549050600060a25467ffffffffffffffff81111561191a57611919612b41565b5b6040519080825280602002602001820160405280156119485781602001602082028036833780820191505090505b50905060005b6000801b83146119a2578282828151811061196c5761196b612b70565b5b602002602001018181525050609960008481526020019081526020016000206001015492508061199b906128b7565b905061194e565b81935050505090565b609860009054906101000a900473ffffffffffffffffffffffffffffffffffffffff1681565b609860009054906101000a900473ffffffffffffffffffffffffffffffffffffffff1673ffffffffffffffffffffffffffffffffffffffff163373ffffffffffffffffffffffffffffffffffffffff1614611a61576040517f08c379a0000000000000000000000000000000000000000000000000000000008152600401611a5890612c11565b60405180910390fd5b6000609e5490505b6000801b8114611abd57600060996000838152602001908152602001600020600101549050609960008381526020019081526020016000206000808201600090556001820160009055505080915050611a69565b6000609f5490505b6000801b8114611b45576000609a6000838152602001908152602001600020600101549050609a6000838152602001908152602001600020600080820160009055600182016000905550506000609b600084815260200190815260200160002060006101000a81548160ff02191690831515021790555080915050611ac5565b6000801b609e819055506000801b609c81905550600060a081905550600060a181905550600060a2819055506000801b609d819055506000801b609f819055505050565b611b966000801b3361155f565b611bd5576040517f08c379a0000000000000000000000000000000000000000000000000000000008152600401611bcc90612b21565b60405180910390fd5b8060a38190555050565b60a25481565b611bf26000801b3361155f565b611c31576040517f08c379a0000000000000000000000000000000000000000000000000000000008152600401611c2890612b21565b60405180910390fd5b80609760006101000a81548173ffffffffffffffffffffffffffffffffffffffff021916908373ffffffffffffffffffffffffffffffffffffffff16021790555050565b6000609e54905090565b611c8882611166565b611c9181611d1a565b611c9b8383611e17565b505050565b600060a254905090565b609d5481565b60007f01ffc9a7000000000000000000000000000000000000000000000000000000007bffffffffffffffffffffffffffffffffffffffffffffffffffffffff1916827bffffffffffffffffffffffffffffffffffffffffffffffffffffffff1916149050919050565b611d2b81611d26611e0f565b611f6d565b50565b611d38828261155f565b611e0b5760016065600084815260200190815260200160002060000160008373ffffffffffffffffffffffffffffffffffffffff1673ffffffffffffffffffffffffffffffffffffffff16815260200190815260200160002060006101000a81548160ff021916908315150217905550611db0611e0f565b73ffffffffffffffffffffffffffffffffffffffff168173ffffffffffffffffffffffffffffffffffffffff16837f2f8788117e7eff1d82e926ec794901d17c78024a50270940304540a733656f0d60405160405180910390a45b5050565b600033905090565b611e21828261155f565b15611ef55760006065600084815260200190815260200160002060000160008373ffffffffffffffffffffffffffffffffffffffff1673ffffffffffffffffffffffffffffffffffffffff16815260200190815260200160002060006101000a81548160ff021916908315150217905550611e9a611e0f565b73ffffffffffffffffffffffffffffffffffffffff168173ffffffffffffffffffffffffffffffffffffffff16837ff6391f5c32d9c69d2a47ea670b442974b53935d1edc7fd64eb21e047a839171b60405160405180910390a45b5050565b6000808273ffffffffffffffffffffffffffffffffffffffff163b119050919050565b600060019054906101000a900460ff16611f6b576040517f08c379a0000000000000000000000000000000000000000000000000000000008152600401611f6290612ca3565b60405180910390fd5b565b611f77828261155f565b611fee57611f8481611ff2565b611f928360001c602061201f565b604051602001611fa3929190612dcc565b6040516020818303038152906040526040517f08c379a0000000000000000000000000000000000000000000000000000000008152600401611fe59190612e50565b60405180910390fd5b5050565b60606120188273ffffffffffffffffffffffffffffffffffffffff16601460ff1661201f565b9050919050565b6060600060028360026120329190612e72565b61203c9190612eb4565b67ffffffffffffffff81111561205557612054612b41565b5b6040519080825280601f01601f1916602001820160405280156120875781602001600182028036833780820191505090505b5090507f3000000000000000000000000000000000000000000000000000000000000000816000815181106120bf576120be612b70565b5b60200101907effffffffffffffffffffffffffffffffffffffffffffffffffffffffffffff1916908160001a9053507f78000000000000000000000000000000000000000000000000000000000000008160018151811061212357612122612b70565b5b60200101907effffffffffffffffffffffffffffffffffffffffffffffffffffffffffffff1916908160001a905350600060018460026121639190612e72565b61216d9190612eb4565b90505b600181111561220d577f3031323334353637383961626364656600000000000000000000000000000000600f8616601081106121af576121ae612b70565b5b1a60f81b8282815181106121c6576121c5612b70565b5b60200101907effffffffffffffffffffffffffffffffffffffffffffffffffffffffffffff1916908160001a905350600485901c945080612206906128ff565b9050612170565b5060008414612251576040517f08c379a000000000000000000000000000000000000000000000000000000000815260040161224890612f34565b60405180910390fd5b8091505092915050565b600080fd5b60007fffffffff0000000000000000000000000000000000000000000000000000000082169050919050565b61229581612260565b81146122a057600080fd5b50565b6000813590506122b28161228c565b92915050565b6000602082840312156122ce576122cd61225b565b5b60006122dc848285016122a3565b91505092915050565b60008115159050919050565b6122fa816122e5565b82525050565b600060208201905061231560008301846122f1565b92915050565b6000819050919050565b61232e8161231b565b811461233957600080fd5b50565b60008135905061234b81612325565b92915050565b6000602082840312156123675761236661225b565b5b60006123758482850161233c565b91505092915050565b6123878161231b565b82525050565b60006020820190506123a2600083018461237e565b92915050565b6000819050919050565b6123bb816123a8565b82525050565b60006020820190506123d660008301846123b2565b92915050565b600073ffffffffffffffffffffffffffffffffffffffff82169050919050565b6000612407826123dc565b9050919050565b612417816123fc565b811461242257600080fd5b50565b6000813590506124348161240e565b92915050565b600080604083850312156124515761245061225b565b5b600061245f8582860161233c565b925050602061247085828601612425565b9150509250929050565b6000819050919050565b600061249f61249a612495846123dc565b61247a565b6123dc565b9050919050565b60006124b182612484565b9050919050565b60006124c3826124a6565b9050919050565b6124d3816124b8565b82525050565b60006020820190506124ee60008301846124ca565b92915050565b60006124ff826123dc565b9050919050565b6000612511826124f4565b9050919050565b61252181612506565b811461252c57600080fd5b50565b60008135905061253e81612518565b92915050565b6000806040838503121561255b5761255a61225b565b5b60006125698582860161252f565b925050602061257a85828601612425565b9150509250929050565b60006020828403121561259a5761259961225b565b5b60006125a884828501612425565b91505092915050565b600081519050919050565b600082825260208201905092915050565b6000819050602082019050919050565b6125e68161231b565b82525050565b60006125f883836125dd565b60208301905092915050565b6000602082019050919050565b600061261c826125b1565b61262681856125bc565b9350612631836125cd565b8060005b8381101561266257815161264988826125ec565b975061265483612604565b925050600181019050612635565b5085935050505092915050565b600060208201905081810360008301526126898184612611565b905092915050565b60006040820190506126a6600083018561237e565b6126b3602083018461237e565b9392505050565b6126c3816122e5565b81146126ce57600080fd5b50565b6000813590506126e0816126ba565b92915050565b600080604083850312156126fd576126fc61225b565b5b600061270b8582860161233c565b925050602061271c858286016126d1565b9150509250929050565b61272f816123fc565b82525050565b600060208201905061274a6000830184612726565b92915050565b6000602082840312156127665761276561225b565b5b60006127748482850161252f565b91505092915050565b60008151905061278c816126ba565b92915050565b6000602082840312156127a8576127a761225b565b5b60006127b68482850161277d565b91505092915050565b600082825260208201905092915050565b7f4f6e6c792063757272656e7420636f6d6d6974746565206d656d626572206f7260008201527f2061646d696e20636f6e74726163742063616e2063616c6c207468697320667560208201527f6e6374696f6e0000000000000000000000000000000000000000000000000000604082015250565b60006128526046836127bf565b915061285d826127d0565b606082019050919050565b6000602082019050818103600083015261288181612845565b9050919050565b7f4e487b7100000000000000000000000000000000000000000000000000000000600052601160045260246000fd5b60006128c2826123a8565b91507fffffffffffffffffffffffffffffffffffffffffffffffffffffffffffffffff82036128f4576128f3612888565b5b600182019050919050565b600061290a826123a8565b91506000820361291d5761291c612888565b5b600182039050919050565b7f416363657373436f6e74726f6c3a2063616e206f6e6c792072656e6f756e636560008201527f20726f6c657320666f722073656c660000000000000000000000000000000000602082015250565b6000612984602f836127bf565b915061298f82612928565b604082019050919050565b600060208201905081810360008301526129b381612977565b9050919050565b7f496e697469616c697a61626c653a20636f6e747261637420697320616c72656160008201527f647920696e697469616c697a6564000000000000000000000000000000000000602082015250565b6000612a16602e836127bf565b9150612a21826129ba565b604082019050919050565b60006020820190508181036000830152612a4581612a09565b9050919050565b6000819050919050565b600060ff82169050919050565b6000612a7e612a79612a7484612a4c565b61247a565b612a56565b9050919050565b612a8e81612a63565b82525050565b6000602082019050612aa96000830184612a85565b92915050565b7f4f6e6c79206f776e65722063616e2063616c6c20746869732066756e6374696f60008201527f6e00000000000000000000000000000000000000000000000000000000000000602082015250565b6000612b0b6021836127bf565b9150612b1682612aaf565b604082019050919050565b60006020820190508181036000830152612b3a81612afe565b9050919050565b7f4e487b7100000000000000000000000000000000000000000000000000000000600052604160045260246000fd5b7f4e487b7100000000000000000000000000000000000000000000000000000000600052603260045260246000fd5b7f4f6e6c792061646d696e20636f6e74726163742063616e2063616c6c2074686960008201527f732066756e6374696f6e00000000000000000000000000000000000000000000602082015250565b6000612bfb602a836127bf565b9150612c0682612b9f565b604082019050919050565b60006020820190508181036000830152612c2a81612bee565b9050919050565b7f496e697469616c697a61626c653a20636f6e7472616374206973206e6f74206960008201527f6e697469616c697a696e67000000000000000000000000000000000000000000602082015250565b6000612c8d602b836127bf565b9150612c9882612c31565b604082019050919050565b60006020820190508181036000830152612cbc81612c80565b9050919050565b600081905092915050565b7f416363657373436f6e74726f6c3a206163636f756e7420000000000000000000600082015250565b6000612d04601783612cc3565b9150612d0f82612cce565b601782019050919050565b600081519050919050565b60005b83811015612d43578082015181840152602081019050612d28565b60008484015250505050565b6000612d5a82612d1a565b612d648185612cc3565b9350612d74818560208601612d25565b80840191505092915050565b7f206973206d697373696e6720726f6c6520000000000000000000000000000000600082015250565b6000612db6601183612cc3565b9150612dc182612d80565b601182019050919050565b6000612dd782612cf7565b9150612de38285612d4f565b9150612dee82612da9565b9150612dfa8284612d4f565b91508190509392505050565b6000601f19601f8301169050919050565b6000612e2282612d1a565b612e2c81856127bf565b9350612e3c818560208601612d25565b612e4581612e06565b840191505092915050565b60006020820190508181036000830152612e6a8184612e17565b905092915050565b6000612e7d826123a8565b9150612e88836123a8565b9250828202612e96816123a8565b91508282048414831517612ead57612eac612888565b5b5092915050565b6000612ebf826123a8565b9150612eca836123a8565b9250828201905080821115612ee257612ee1612888565b5b92915050565b7f537472696e67733a20686578206c656e67746820696e73756666696369656e74600082015250565b6000612f1e6020836127bf565b9150612f2982612ee8565b602082019050919050565b60006020820190508181036000830152612f4d81612f11565b905091905056fea2646970667358221220831d89b429084dfd6109fa4ab0b2e0b099bd5629a70288de9ef26d6099210cef64736f6c63430008180033",
  "linkReferences": {},
  "deployedLinkReferences": {}
}