{
  "_format": "hh-sol-artifact-1",
  "contractName": "SingleAttestationBookV2",
  "sourceName": "contracts/singleAttestationBookV2.sol",
  "abi": [
    {
      "inputs": [],
      "stateMutability": "nonpayable",
      "type": "constructor"
    },
    {
      "anonymous": false,
      "inputs": [
        {
          "indexed": true,
          "internalType": "bytes32",
          "name": "attestationBatchMessageHash",
          "type": "bytes32"
        },
        {
          "indexed": true,
          "internalType": "uint32",
          "name": "batchIndex",
          "type": "uint32"
        },
        {
          "indexed": true,
          "internalType": "bytes4",
          "name": "networkId",
          "type": "bytes4"
        },
        {
          "indexed": false,
          "internalType": "bytes",
          "name": "encodedBatchPayload",
          "type": "bytes"
        }
      ],
      "name": "BatchConstructed",
      "type": "event"
    },
    {
      "anonymous": false,
      "inputs": [
        {
          "indexed": true,
          "internalType": "bytes4",
          "name": "networkId",
          "type": "bytes4"
        },
        {
          "indexed": false,
          "internalType": "uint256",
          "name": "interval",
          "type": "uint256"
        }
      ],
      "name": "BatchConstructionIntervalHeightSet",
      "type": "event"
    },
    {
      "anonymous": false,
      "inputs": [
        {
          "indexed": false,
          "internalType": "uint256",
          "name": "totalOrders",
          "type": "uint256"
        },
        {
          "indexed": false,
          "internalType": "uint256",
          "name": "submittedOrders",
          "type": "uint256"
        }
      ],
      "name": "BatchSubmitted",
      "type": "event"
    },
    {
      "anonymous": false,
      "inputs": [
        {
          "indexed": false,
          "internalType": "uint8",
          "name": "version",
          "type": "uint8"
        }
      ],
      "name": "Initialized",
      "type": "event"
    },
    {
      "anonymous": false,
      "inputs": [
        {
          "indexed": true,
          "internalType": "bytes32",
          "name": "id",
          "type": "bytes32"
        },
        {
          "indexed": true,
          "internalType": "bytes4",
          "name": "networkId",
          "type": "bytes4"
        },
        {
          "indexed": true,
          "internalType": "uint256",
          "name": "currentRecentCount",
          "type": "uint256"
        }
      ],
      "name": "OrderAttestationDuplicatedOrAboveLimit",
      "type": "event"
    },
    {
      "anonymous": false,
      "inputs": [
        {
          "indexed": true,
          "internalType": "bytes32",
          "name": "id",
          "type": "bytes32"
        },
        {
          "indexed": true,
          "internalType": "address",
          "name": "attester",
          "type": "address"
        },
        {
          "indexed": true,
          "internalType": "uint32",
          "name": "batchIndex",
          "type": "uint32"
        },
        {
          "indexed": false,
          "internalType": "address",
          "name": "beneficiary",
          "type": "address"
        },
        {
          "indexed": false,
          "internalType": "bytes",
          "name": "signature",
          "type": "bytes"
        }
      ],
      "name": "OrderAttested",
      "type": "event"
    },
    {
      "anonymous": false,
      "inputs": [
        {
          "indexed": true,
          "internalType": "bytes32",
          "name": "role",
          "type": "bytes32"
        },
        {
          "indexed": true,
          "internalType": "bytes32",
          "name": "previousAdminRole",
          "type": "bytes32"
        },
        {
          "indexed": true,
          "internalType": "bytes32",
          "name": "newAdminRole",
          "type": "bytes32"
        }
      ],
      "name": "RoleAdminChanged",
      "type": "event"
    },
    {
      "anonymous": false,
      "inputs": [
        {
          "indexed": true,
          "internalType": "bytes32",
          "name": "role",
          "type": "bytes32"
        },
        {
          "indexed": true,
          "internalType": "address",
          "name": "account",
          "type": "address"
        },
        {
          "indexed": true,
          "internalType": "address",
          "name": "sender",
          "type": "address"
        }
      ],
      "name": "RoleGranted",
      "type": "event"
    },
    {
      "anonymous": false,
      "inputs": [
        {
          "indexed": true,
          "internalType": "bytes32",
          "name": "role",
          "type": "bytes32"
        },
        {
          "indexed": true,
          "internalType": "address",
          "name": "account",
          "type": "address"
        },
        {
          "indexed": true,
          "internalType": "address",
          "name": "sender",
          "type": "address"
        }
      ],
      "name": "RoleRevoked",
      "type": "event"
    },
    {
      "stateMutability": "payable",
      "type": "fallback"
    },
    {
      "inputs": [],
      "name": "DEFAULT_ADMIN_ROLE",
      "outputs": [
        {
          "internalType": "bytes32",
          "name": "",
          "type": "bytes32"
        }
      ],
      "stateMutability": "view",
      "type": "function"
    },
    {
      "inputs": [
        {
          "internalType": "bytes32",
          "name": "",
          "type": "bytes32"
        },
        {
          "internalType": "uint256",
          "name": "",
          "type": "uint256"
        }
      ],
      "name": "DLQSingleOrderAttestationsByNetwork",
      "outputs": [
        {
          "internalType": "bytes32",
          "name": "orderId",
          "type": "bytes32"
        },
        {
          "internalType": "address",
          "name": "attester",
          "type": "address"
        },
        {
          "internalType": "address",
          "name": "beneficiary",
          "type": "address"
        },
        {
          "internalType": "bytes",
          "name": "signature",
          "type": "bytes"
        }
      ],
      "stateMutability": "view",
      "type": "function"
    },
    {
      "inputs": [],
      "name": "TRNToken",
      "outputs": [
        {
          "internalType": "contract IERC20",
          "name": "",
          "type": "address"
        }
      ],
      "stateMutability": "view",
      "type": "function"
    },
    {
      "inputs": [],
      "name": "allowBatchOverride",
      "outputs": [
        {
          "internalType": "bool",
          "name": "",
          "type": "bool"
        }
      ],
      "stateMutability": "view",
      "type": "function"
    },
    {
      "inputs": [
        {
          "internalType": "bytes32",
          "name": "",
          "type": "bytes32"
        }
      ],
      "name": "antiDuplicateMap",
      "outputs": [
        {
          "internalType": "bytes32",
          "name": "",
          "type": "bytes32"
        }
      ],
      "stateMutability": "view",
      "type": "function"
    },
    {
      "inputs": [
        {
          "internalType": "bytes32[]",
          "name": "orderIds",
          "type": "bytes32[]"
        },
        {
          "internalType": "address[]",
          "name": "beneficiaries",
          "type": "address[]"
        },
        {
          "internalType": "bytes[]",
          "name": "signatures",
          "type": "bytes[]"
        },
        {
          "internalType": "bytes[]",
          "name": "messagePayloads",
          "type": "bytes[]"
        },
        {
          "internalType": "bytes4[]",
          "name": "networks",
          "type": "bytes4[]"
        }
      ],
      "name": "attestOrdersBatch",
      "outputs": [],
      "stateMutability": "nonpayable",
      "type": "function"
    },
    {
      "inputs": [
        {
          "internalType": "bytes32",
          "name": "orderId",
          "type": "bytes32"
        },
        {
          "internalType": "address",
          "name": "beneficiary",
          "type": "address"
        },
        {
          "internalType": "bytes",
          "name": "signature",
          "type": "bytes"
        },
        {
          "internalType": "bytes",
          "name": "messagePayload",
          "type": "bytes"
        },
        {
          "internalType": "bytes4",
          "name": "network",
          "type": "bytes4"
        }
      ],
      "name": "attestSingleOrder",
      "outputs": [],
      "stateMutability": "nonpayable",
      "type": "function"
    },
    {
      "inputs": [
        {
          "internalType": "bytes32[]",
          "name": "orderIds",
          "type": "bytes32[]"
        },
        {
          "internalType": "address[]",
          "name": "beneficiaries",
          "type": "address[]"
        },
        {
          "internalType": "bytes[]",
          "name": "signatures",
          "type": "bytes[]"
        },
        {
          "internalType": "bytes[]",
          "name": "messagePayloads",
          "type": "bytes[]"
        },
        {
          "internalType": "bytes4[]",
          "name": "networks",
          "type": "bytes4[]"
        }
      ],
      "name": "attestSingleOrders",
      "outputs": [],
      "stateMutability": "nonpayable",
      "type": "function"
    },
    {
      "inputs": [],
      "name": "attestationBatchMaker",
      "outputs": [
        {
          "internalType": "contract AttestationBatchMakerV2",
          "name": "",
          "type": "address"
        }
      ],
      "stateMutability": "view",
      "type": "function"
    },
    {
      "inputs": [],
      "name": "attestationsVerifierProofs",
      "outputs": [
        {
          "internalType": "contract AttestationsVerifierProofs",
          "name": "",
          "type": "address"
        }
      ],
      "stateMutability": "view",
      "type": "function"
    },
    {
      "inputs": [],
      "name": "attestersPortal",
      "outputs": [
        {
          "internalType": "contract AttestersPortal",
          "name": "",
          "type": "address"
        }
      ],
      "stateMutability": "view",
      "type": "function"
    },
    {
      "inputs": [
        {
          "internalType": "bytes32",
          "name": "",
          "type": "bytes32"
        },
        {
          "internalType": "uint256",
          "name": "",
          "type": "uint256"
        }
      ],
      "name": "batchToIncludedOrderIdsByMessageHash",
      "outputs": [
        {
          "internalType": "bytes32",
          "name": "",
          "type": "bytes32"
        }
      ],
      "stateMutability": "view",
      "type": "function"
    },
    {
      "inputs": [
        {
          "internalType": "bytes4",
          "name": "networkId",
          "type": "bytes4"
        },
        {
          "internalType": "uint256",
          "name": "currentQuorum",
          "type": "uint256"
        },
        {
          "internalType": "uint256",
          "name": "batchConstructionIntervalHeight",
          "type": "uint256"
        },
        {
          "internalType": "uint256",
          "name": "lastBatchConstructedHeightOffset",
          "type": "uint256"
        }
      ],
      "name": "checkBatchReadyToConstruct",
      "outputs": [
        {
          "internalType": "bool",
          "name": "",
          "type": "bool"
        }
      ],
      "stateMutability": "view",
      "type": "function"
    },
    {
      "inputs": [],
      "name": "checkForMatchingGMPMessagePayload",
      "outputs": [
        {
          "internalType": "bool",
          "name": "",
          "type": "bool"
        }
      ],
      "stateMutability": "view",
      "type": "function"
    },
    {
      "inputs": [
        {
          "internalType": "bytes4",
          "name": "networkId",
          "type": "bytes4"
        }
      ],
      "name": "clearRecentAddedAfterBatchCreated",
      "outputs": [],
      "stateMutability": "nonpayable",
      "type": "function"
    },
    {
      "inputs": [
        {
          "internalType": "bytes4",
          "name": "network",
          "type": "bytes4"
        },
        {
          "internalType": "uint32",
          "name": "index",
          "type": "uint32"
        }
      ],
      "name": "combineNetworkIdWithIndex",
      "outputs": [
        {
          "internalType": "bytes32",
          "name": "",
          "type": "bytes32"
        }
      ],
      "stateMutability": "pure",
      "type": "function"
    },
    {
      "inputs": [
        {
          "internalType": "bytes4",
          "name": "network",
          "type": "bytes4"
        },
        {
          "internalType": "bytes32",
          "name": "orderId",
          "type": "bytes32"
        }
      ],
      "name": "combineNetworkIdWithOrderId",
      "outputs": [
        {
          "internalType": "bytes32",
          "name": "",
          "type": "bytes32"
        }
      ],
      "stateMutability": "pure",
      "type": "function"
    },
    {
      "inputs": [
        {
          "internalType": "bytes32",
          "name": "orderId",
          "type": "bytes32"
        }
      ],
      "name": "getBatchAttestationMessageHashByOrderId",
      "outputs": [
        {
          "internalType": "bytes32",
          "name": "",
          "type": "bytes32"
        }
      ],
      "stateMutability": "view",
      "type": "function"
    },
    {
      "inputs": [
        {
          "internalType": "bytes32",
          "name": "orderId",
          "type": "bytes32"
        }
      ],
      "name": "getBatchPayloadByOrderId",
      "outputs": [
        {
          "internalType": "bytes",
          "name": "",
          "type": "bytes"
        }
      ],
      "stateMutability": "view",
      "type": "function"
    },
    {
      "inputs": [
        {
          "internalType": "bytes32",
          "name": "attestationBatchMessageHash",
          "type": "bytes32"
        }
      ],
      "name": "getIncludedOrderIds",
      "outputs": [
        {
          "internalType": "bytes32[]",
          "name": "",
          "type": "bytes32[]"
        }
      ],
      "stateMutability": "view",
      "type": "function"
    },
    {
      "inputs": [
        {
          "internalType": "bytes",
          "name": "messagePayload",
          "type": "bytes"
        }
      ],
      "name": "getMessagePayloadHash",
      "outputs": [
        {
          "internalType": "bytes32",
          "name": "",
          "type": "bytes32"
        }
      ],
      "stateMutability": "pure",
      "type": "function"
    },
    {
      "inputs": [
        {
          "internalType": "bytes4",
          "name": "networkId",
          "type": "bytes4"
        }
      ],
      "name": "getPerNetworkLimitOrDefault",
      "outputs": [
        {
          "internalType": "uint256",
          "name": "",
          "type": "uint256"
        }
      ],
      "stateMutability": "view",
      "type": "function"
    },
    {
      "inputs": [
        {
          "internalType": "bytes4",
          "name": "networkId",
          "type": "bytes4"
        }
      ],
      "name": "getRecentSingleOrderIdsAttested",
      "outputs": [
        {
          "internalType": "bytes32[]",
          "name": "",
          "type": "bytes32[]"
        }
      ],
      "stateMutability": "view",
      "type": "function"
    },
    {
      "inputs": [
        {
          "internalType": "bytes4",
          "name": "networkId",
          "type": "bytes4"
        }
      ],
      "name": "getRecentSingleOrderIdsAttestedWithLimit",
      "outputs": [
        {
          "internalType": "bytes32[]",
          "name": "",
          "type": "bytes32[]"
        }
      ],
      "stateMutability": "view",
      "type": "function"
    },
    {
      "inputs": [
        {
          "internalType": "bytes32",
          "name": "role",
          "type": "bytes32"
        }
      ],
      "name": "getRoleAdmin",
      "outputs": [
        {
          "internalType": "bytes32",
          "name": "",
          "type": "bytes32"
        }
      ],
      "stateMutability": "view",
      "type": "function"
    },
    {
      "inputs": [
        {
          "internalType": "bytes32",
          "name": "role",
          "type": "bytes32"
        },
        {
          "internalType": "address",
          "name": "account",
          "type": "address"
        }
      ],
      "name": "grantRole",
      "outputs": [],
      "stateMutability": "nonpayable",
      "type": "function"
    },
    {
      "inputs": [
        {
          "internalType": "bytes32",
          "name": "role",
          "type": "bytes32"
        },
        {
          "internalType": "address",
          "name": "account",
          "type": "address"
        }
      ],
      "name": "hasRole",
      "outputs": [
        {
          "internalType": "bool",
          "name": "",
          "type": "bool"
        }
      ],
      "stateMutability": "view",
      "type": "function"
    },
    {
      "inputs": [
        {
          "internalType": "address",
          "name": "_owner",
          "type": "address"
        }
      ],
      "name": "initialize",
      "outputs": [],
      "stateMutability": "nonpayable",
      "type": "function"
    },
    {
      "inputs": [
        {
          "internalType": "bytes32",
          "name": "orderId",
          "type": "bytes32"
        },
        {
          "internalType": "address",
          "name": "beneficiary",
          "type": "address"
        },
        {
          "internalType": "bytes4",
          "name": "network",
          "type": "bytes4"
        }
      ],
      "name": "isAttestationSubmitted",
      "outputs": [
        {
          "internalType": "bool",
          "name": "",
          "type": "bool"
        }
      ],
      "stateMutability": "view",
      "type": "function"
    },
    {
      "inputs": [
        {
          "internalType": "bytes4",
          "name": "networkId",
          "type": "bytes4"
        },
        {
          "internalType": "bytes32",
          "name": "orderId",
          "type": "bytes32"
        }
      ],
      "name": "isAttested",
      "outputs": [
        {
          "internalType": "bool",
          "name": "",
          "type": "bool"
        },
        {
          "internalType": "bool",
          "name": "",
          "type": "bool"
        }
      ],
      "stateMutability": "view",
      "type": "function"
    },
    {
      "inputs": [],
      "name": "limit",
      "outputs": [
        {
          "internalType": "uint256",
          "name": "",
          "type": "uint256"
        }
      ],
      "stateMutability": "view",
      "type": "function"
    },
    {
      "inputs": [
        {
          "internalType": "bytes32",
          "name": "attestationBatchMessageHash",
          "type": "bytes32"
        },
        {
          "internalType": "bytes32[]",
          "name": "orderIds",
          "type": "bytes32[]"
        }
      ],
      "name": "linkCreatedBatchWithOrders",
      "outputs": [],
      "stateMutability": "nonpayable",
      "type": "function"
    },
    {
      "inputs": [
        {
          "internalType": "bytes32",
          "name": "",
          "type": "bytes32"
        }
      ],
      "name": "messagePayloadHashCounter",
      "outputs": [
        {
          "internalType": "uint256",
          "name": "",
          "type": "uint256"
        }
      ],
      "stateMutability": "view",
      "type": "function"
    },
    {
      "inputs": [
        {
          "internalType": "bytes32",
          "name": "",
          "type": "bytes32"
        }
      ],
      "name": "messagePayloadMap",
      "outputs": [
        {
          "internalType": "bytes",
          "name": "",
          "type": "bytes"
        }
      ],
      "stateMutability": "view",
      "type": "function"
    },
    {
      "inputs": [
        {
          "internalType": "bytes32",
          "name": "",
          "type": "bytes32"
        }
      ],
      "name": "mostPopularPayloadHash",
      "outputs": [
        {
          "internalType": "bytes32",
          "name": "",
          "type": "bytes32"
        }
      ],
      "stateMutability": "view",
      "type": "function"
    },
    {
      "inputs": [
        {
          "internalType": "bytes32",
          "name": "",
          "type": "bytes32"
        }
      ],
      "name": "orderToBatchAttestationMessageHashMap",
      "outputs": [
        {
          "internalType": "bytes32",
          "name": "",
          "type": "bytes32"
        }
      ],
      "stateMutability": "view",
      "type": "function"
    },
    {
      "inputs": [
        {
          "internalType": "bytes4",
          "name": "",
          "type": "bytes4"
        }
      ],
      "name": "perNetworkLimit",
      "outputs": [
        {
          "internalType": "uint256",
          "name": "",
          "type": "uint256"
        }
      ],
      "stateMutability": "view",
      "type": "function"
    },
    {
      "inputs": [
        {
          "internalType": "bytes4",
          "name": "",
          "type": "bytes4"
        }
      ],
      "name": "perNetworkSingleAttestationsCounter",
      "outputs": [
        {
          "internalType": "uint256",
          "name": "",
          "type": "uint256"
        }
      ],
      "stateMutability": "view",
      "type": "function"
    },
    {
      "inputs": [
        {
          "internalType": "bytes4",
          "name": "",
          "type": "bytes4"
        }
      ],
      "name": "recentAttestationsCounter",
      "outputs": [
        {
          "internalType": "uint256",
          "name": "",
          "type": "uint256"
        }
      ],
      "stateMutability": "view",
      "type": "function"
    },
    {
      "inputs": [
        {
          "internalType": "bytes32",
          "name": "",
          "type": "bytes32"
        },
        {
          "internalType": "uint256",
          "name": "",
          "type": "uint256"
        }
      ],
      "name": "recentSingleOrderAttestationsByNetwork",
      "outputs": [
        {
          "internalType": "address",
          "name": "attester",
          "type": "address"
        },
        {
          "internalType": "address",
          "name": "beneficiary",
          "type": "address"
        },
        {
          "internalType": "bytes",
          "name": "signature",
          "type": "bytes"
        },
        {
          "internalType": "bytes",
          "name": "messagePayload",
          "type": "bytes"
        }
      ],
      "stateMutability": "view",
      "type": "function"
    },
    {
      "inputs": [
        {
          "internalType": "bytes4",
          "name": "",
          "type": "bytes4"
        },
        {
          "internalType": "uint256",
          "name": "",
          "type": "uint256"
        }
      ],
      "name": "recentSingleOrderIdsAttested",
      "outputs": [
        {
          "internalType": "bytes32",
          "name": "",
          "type": "bytes32"
        }
      ],
      "stateMutability": "view",
      "type": "function"
    },
    {
      "inputs": [
        {
          "internalType": "bytes32",
          "name": "role",
          "type": "bytes32"
        },
        {
          "internalType": "address",
          "name": "account",
          "type": "address"
        }
      ],
      "name": "renounceRole",
      "outputs": [],
      "stateMutability": "nonpayable",
      "type": "function"
    },
    {
      "inputs": [
        {
          "internalType": "bytes32",
          "name": "role",
          "type": "bytes32"
        },
        {
          "internalType": "address",
          "name": "account",
          "type": "address"
        }
      ],
      "name": "revokeRole",
      "outputs": [],
      "stateMutability": "nonpayable",
      "type": "function"
    },
    {
      "inputs": [
        {
          "internalType": "contract AttestationBatchMakerV2",
          "name": "_attestationBatchMaker",
          "type": "address"
        }
      ],
      "name": "setAttestationBatchMaker",
      "outputs": [],
      "stateMutability": "nonpayable",
      "type": "function"
    },
    {
      "inputs": [
        {
          "internalType": "contract AttestationsVerifierProofs",
          "name": "_attestationsVerifierProofs",
          "type": "address"
        }
      ],
      "name": "setAttestationsVerifierProofs",
      "outputs": [],
      "stateMutability": "nonpayable",
      "type": "function"
    },
    {
      "inputs": [
        {
          "internalType": "contract AttestersPortal",
          "name": "_attestersPortal",
          "type": "address"
        }
      ],
      "name": "setAttestersPortal",
      "outputs": [],
      "stateMutability": "nonpayable",
      "type": "function"
    },
    {
      "inputs": [
        {
          "internalType": "uint256",
          "name": "_limit",
          "type": "uint256"
        }
      ],
      "name": "setLimit",
      "outputs": [],
      "stateMutability": "nonpayable",
      "type": "function"
    },
    {
      "inputs": [
        {
          "internalType": "bytes4",
          "name": "networkId",
          "type": "bytes4"
        },
        {
          "internalType": "uint256",
          "name": "_limit",
          "type": "uint256"
        }
      ],
      "name": "setNetworkLimit",
      "outputs": [],
      "stateMutability": "nonpayable",
      "type": "function"
    },
    {
      "inputs": [
        {
          "internalType": "bytes32",
          "name": "_version",
          "type": "bytes32"
        }
      ],
      "name": "setVersion",
      "outputs": [],
      "stateMutability": "nonpayable",
      "type": "function"
    },
    {
      "inputs": [
        {
          "internalType": "bytes32",
          "name": "",
          "type": "bytes32"
        }
      ],
      "name": "signaturesCount",
      "outputs": [
        {
          "internalType": "uint256",
          "name": "",
          "type": "uint256"
        }
      ],
      "stateMutability": "view",
      "type": "function"
    },
    {
      "inputs": [
        {
          "internalType": "bytes4",
          "name": "interfaceId",
          "type": "bytes4"
        }
      ],
      "name": "supportsInterface",
      "outputs": [
        {
          "internalType": "bool",
          "name": "",
          "type": "bool"
        }
      ],
      "stateMutability": "view",
      "type": "function"
    },
    {
      "inputs": [],
      "name": "version",
      "outputs": [
        {
          "internalType": "bytes32",
          "name": "",
          "type": "bytes32"
        }
      ],
      "stateMutability": "view",
      "type": "function"
    },
    {
      "stateMutability": "payable",
      "type": "receive"
    }
  ],
  "bytecode": "0x60806040523480156200001157600080fd5b50620000226200002860201b60201c565b620001d2565b600060019054906101000a900460ff16156200007b576040517f08c379a0000000000000000000000000000000000000000000000000000000008152600401620000729062000175565b60405180910390fd5b60ff801660008054906101000a900460ff1660ff1614620000ec5760ff6000806101000a81548160ff021916908360ff1602179055507f7f26b83ff96e1f2b6a682f133852f6798a09c465da95921460cefb384740249860ff604051620000e39190620001b5565b60405180910390a15b565b600082825260208201905092915050565b7f496e697469616c697a61626c653a20636f6e747261637420697320696e69746960008201527f616c697a696e6700000000000000000000000000000000000000000000000000602082015250565b60006200015d602783620000ee565b91506200016a82620000ff565b604082019050919050565b6000602082019050818103600083015262000190816200014e565b9050919050565b600060ff82169050919050565b620001af8162000197565b82525050565b6000602082019050620001cc6000830184620001a4565b92915050565b615db480620001e26000396000f3fe6080604052600436106103035760003560e01c80638e6ff47011610190578063c769eb13116100dc578063dc88b9c911610095578063e700e2671161006f578063e700e26714610cec578063eb6ba35414610d2c578063fb3b201114610d55578063ffdd6f8914610d7e5761030a565b8063dc88b9c914610c35578063dd2b05d614610c72578063df8ff96514610caf5761030a565b8063c769eb1314610b15578063ca5f81b514610b52578063d03685cb14610b7b578063d538c65b14610ba4578063d547741f14610bcf578063d6248d3414610bf85761030a565b8063a4d66daf11610149578063ba53b8ac11610123578063ba53b8ac14610a49578063ba6466f714610a86578063bb2703ea14610aaf578063c4d66de814610aec5761030a565b8063a4d66daf146109a4578063ae9b88e2146109cf578063b4c41e6a14610a0c5761030a565b80638e6ff4701461084857806391d1485414610885578063984da1b7146108c25780639929249c146108ff5780639a8e34541461093c578063a217fddf146109795761030a565b80633dc236341161024f57806354fd4d5011610208578063637f9280116101e2578063637f9280146107545780637994a7241461079157806383d5383d146107ce578063882417d51461080b5761030a565b806354fd4d50146106d75780635ae895fd146107025780635e9f32ca1461072b5761030a565b80633dc236341461058c57806341bb1b0e146105c95780634762a528146106065780634a7f16881461064657806350d614731461066f5780635385297e146106ac5761030a565b806327ea6f2b116102bc5780632f5593c9116102965780632f5593c9146104d1578063361444a5146104fa57806336568abe146105385780633aac5d3d146105615761030a565b806327ea6f2b146104545780632a92e26e1461047d5780632f2ff15d146104a85761030a565b806301ffc9a71461030c57806306a1ab9d146103495780630b83ab2a14610372578063228e7556146103af578063248a9ca3146103da57806325394aba146104175761030a565b3661030a57005b005b34801561031857600080fd5b50610333600480360381019061032e9190613b5d565b610da9565b6040516103409190613ba5565b60405180910390f35b34801561035557600080fd5b50610370600480360381019061036b9190613d4f565b610e23565b005b34801561037e57600080fd5b5061039960048036038101906103949190613dab565b610f54565b6040516103a69190613e96565b60405180910390f35b3480156103bb57600080fd5b506103c4610fbf565b6040516103d19190613f37565b60405180910390f35b3480156103e657600080fd5b5061040160048036038101906103fc9190613dab565b610fe5565b60405161040e9190613f61565b60405180910390f35b34801561042357600080fd5b5061043e60048036038101906104399190613dab565b611005565b60405161044b9190613ffb565b60405180910390f35b34801561046057600080fd5b5061047b60048036038101906104769190614053565b6110a5565b005b34801561048957600080fd5b506104926110fb565b60405161049f91906140a1565b60405180910390f35b3480156104b457600080fd5b506104cf60048036038101906104ca91906140fa565b611121565b005b3480156104dd57600080fd5b506104f860048036038101906104f39190614297565b611142565b005b34801561050657600080fd5b50610521600480360381019061051c91906143b4565b611502565b60405161052f9291906143f4565b60405180910390f35b34801561054457600080fd5b5061055f600480360381019061055a91906140fa565b61168d565b005b34801561056d57600080fd5b50610576611710565b6040516105839190614450565b60405180910390f35b34801561059857600080fd5b506105b360048036038101906105ae9190613dab565b611736565b6040516105c09190613ffb565b60405180910390f35b3480156105d557600080fd5b506105f060048036038101906105eb9190613dab565b6117f9565b6040516105fd9190613f61565b60405180910390f35b34801561061257600080fd5b5061062d6004803603810190610628919061446b565b611816565b60405161063d94939291906144ba565b60405180910390f35b34801561065257600080fd5b5061066d6004803603810190610668919061455c565b61192b565b005b34801561067b57600080fd5b5061069660048036038101906106919190614618565b612184565b6040516106a39190613ba5565b60405180910390f35b3480156106b857600080fd5b506106c1612287565b6040516106ce9190613ba5565b60405180910390f35b3480156106e357600080fd5b506106ec61229a565b6040516106f99190613f61565b60405180910390f35b34801561070e57600080fd5b5061072960048036038101906107249190613b5d565b6122a0565b005b34801561073757600080fd5b50610752600480360381019061074d91906146a9565b6125e2565b005b34801561076057600080fd5b5061077b60048036038101906107769190613b5d565b612672565b60405161078891906146e5565b60405180910390f35b34801561079d57600080fd5b506107b860048036038101906107b39190614700565b61268a565b6040516107c59190613f61565b60405180910390f35b3480156107da57600080fd5b506107f560048036038101906107f09190613b5d565b6126bb565b6040516108029190613e96565b60405180910390f35b34801561081757600080fd5b50610832600480360381019061082d9190614740565b61279b565b60405161083f9190613f61565b60405180910390f35b34801561085457600080fd5b5061086f600480360381019061086a919061446b565b6127bd565b60405161087c9190613f61565b60405180910390f35b34801561089157600080fd5b506108ac60048036038101906108a791906140fa565b6127ee565b6040516108b99190613ba5565b60405180910390f35b3480156108ce57600080fd5b506108e960048036038101906108e49190613dab565b612859565b6040516108f691906146e5565b60405180910390f35b34801561090b57600080fd5b5061092660048036038101906109219190613dab565b612871565b6040516109339190613f61565b60405180910390f35b34801561094857600080fd5b50610963600480360381019061095e9190613b5d565b612889565b60405161097091906146e5565b60405180910390f35b34801561098557600080fd5b5061098e6128fd565b60405161099b9190613f61565b60405180910390f35b3480156109b057600080fd5b506109b9612904565b6040516109c691906146e5565b60405180910390f35b3480156109db57600080fd5b506109f660048036038101906109f19190613b5d565b61290a565b604051610a0391906146e5565b60405180910390f35b348015610a1857600080fd5b50610a336004803603810190610a2e9190613b5d565b612922565b604051610a4091906146e5565b60405180910390f35b348015610a5557600080fd5b50610a706004803603810190610a6b9190613b5d565b61293a565b604051610a7d9190613e96565b60405180910390f35b348015610a9257600080fd5b50610aad6004803603810190610aa891906147cb565b6129e3565b005b348015610abb57600080fd5b50610ad66004803603810190610ad19190613dab565b612a73565b604051610ae39190613f61565b60405180910390f35b348015610af857600080fd5b50610b136004803603810190610b0e91906147f8565b612a8b565b005b348015610b2157600080fd5b50610b3c6004803603810190610b379190614861565b612c0d565b604051610b499190613f61565b60405180910390f35b348015610b5e57600080fd5b50610b796004803603810190610b749190613dab565b612c40565b005b348015610b8757600080fd5b50610ba26004803603810190610b9d91906148f1565b612c96565b005b348015610bb057600080fd5b50610bb9612d26565b604051610bc69190613ba5565b60405180910390f35b348015610bdb57600080fd5b50610bf66004803603810190610bf191906140fa565b612d39565b005b348015610c0457600080fd5b50610c1f6004803603810190610c1a9190613dab565b612d5a565b604051610c2c91906146e5565b60405180910390f35b348015610c4157600080fd5b50610c5c6004803603810190610c57919061491e565b612d72565b604051610c699190613ba5565b60405180910390f35b348015610c7e57600080fd5b50610c996004803603810190610c9491906143b4565b612e76565b604051610ca69190613f61565b60405180910390f35b348015610cbb57600080fd5b50610cd66004803603810190610cd19190613dab565b612ea9565b604051610ce39190613f61565b60405180910390f35b348015610cf857600080fd5b50610d136004803603810190610d0e919061446b565b612ec1565b604051610d239493929190614985565b60405180910390f35b348015610d3857600080fd5b50610d536004803603810190610d4e9190614700565b61305e565b005b348015610d6157600080fd5b50610d7c6004803603810190610d779190614297565b613104565b005b348015610d8a57600080fd5b50610d9361332b565b604051610da091906149f9565b60405180910390f35b60007f7965db0b000000000000000000000000000000000000000000000000000000007bffffffffffffffffffffffffffffffffffffffffffffffffffffffff1916827bffffffffffffffffffffffffffffffffffffffffffffffffffffffff19161480610e1c5750610e1b82613351565b5b9050919050565b609a60009054906101000a900473ffffffffffffffffffffffffffffffffffffffff1673ffffffffffffffffffffffffffffffffffffffff163373ffffffffffffffffffffffffffffffffffffffff1614610eb3576040517f08c379a0000000000000000000000000000000000000000000000000000000008152600401610eaa90614a97565b60405180910390fd5b6000805b8251811015610f1c576000838281518110610ed557610ed4614ab7565b5b602002602001015190506000801b8114610f105784609f6000838152602001908152602001600020819055508280610f0c90614b15565b9350505b50806001019050610eb7565b506000811115610f4f5781609e60008581526020019081526020016000209080519060200190610f4d929190613a87565b505b505050565b6060609e6000838152602001908152602001600020805480602002602001604051908101604052809291908181526020018280548015610fb357602002820191906000526020600020905b815481526020019060010190808311610f9f575b50505050509050919050565b609a60009054906101000a900473ffffffffffffffffffffffffffffffffffffffff1681565b600060656000838152602001908152602001600020600101549050919050565b60a8602052806000526040600020600091509050805461102490614b8c565b80601f016020809104026020016040519081016040528092919081815260200182805461105090614b8c565b801561109d5780601f106110725761010080835404028352916020019161109d565b820191906000526020600020905b81548152906001019060200180831161108057829003601f168201915b505050505081565b6110b26000801b336127ee565b6110f1576040517f08c379a00000000000000000000000000000000000000000000000000000000081526004016110e890614c2f565b60405180910390fd5b8060a18190555050565b609760009054906101000a900473ffffffffffffffffffffffffffffffffffffffff1681565b61112a82610fe5565b611133816133bb565b61113d83836133cf565b505050565b609860009054906101000a900473ffffffffffffffffffffffffffffffffffffffff1673ffffffffffffffffffffffffffffffffffffffff1663ee06b289336040518263ffffffff1660e01b815260040161119d9190614c4f565b602060405180830381865afa1580156111ba573d6000803e3d6000fd5b505050506040513d601f19601f820116820180604052508101906111de9190614c96565b61121d576040517f08c379a000000000000000000000000000000000000000000000000000000000815260040161121490614d35565b60405180910390fd5b878790508a8a90501480156112375750858590508a8a9050145b80156112485750818190508a8a9050145b611287576040517f08c379a000000000000000000000000000000000000000000000000000000000815260040161127e90614da1565b60405180910390fd5b6000609a60009054906101000a900473ffffffffffffffffffffffffffffffffffffffff1673ffffffffffffffffffffffffffffffffffffffff166312a58f53848460008181106112db576112da614ab7565b5b90506020020160208101906112f09190613b5d565b6040518263ffffffff1660e01b815260040161130c9190614dd0565b602060405180830381865afa158015611329573d6000803e3d6000fd5b505050506040513d601f19601f8201168201806040525081019061134d9190614e00565b90506000805b8c8c90508110156114b75760006113d28e8e8481811061137657611375614ab7565b5b905060200201358d8d858181106113905761138f614ab7565b5b90506020020160208101906113a591906147f8565b8888868181106113b8576113b7614ab7565b5b90506020020160208101906113cd9190613b5d565b612184565b905080156113e057506114ac565b61149c8e8e848181106113f6576113f5614ab7565b5b905060200201358d8d858181106114105761140f614ab7565b5b905060200201602081019061142591906147f8565b8c8c8681811061143857611437614ab7565b5b905060200281019061144a9190614e3c565b8c8c8881811061145d5761145c614ab7565b5b905060200281019061146f9190614e3c565b8c8c8a81811061148257611481614ab7565b5b90506020020160208101906114979190613b5d565b61192b565b82806114a790614b15565b935050505b806001019050611353565b507fe6753980bcf56ae86a3ce8797b44ea013b10495e5d37288f85245ea482e604d08c8c9050826040516114ec929190614e9f565b60405180910390a1505050505050505050505050565b6000806000609f60008581526020019081526020016000205490506000801b8103611534576000809250925050611686565b6000609a60009054906101000a900473ffffffffffffffffffffffffffffffffffffffff1673ffffffffffffffffffffffffffffffffffffffff16631f3a5ea483886040518363ffffffff1660e01b8152600401611593929190614ec8565b602060405180830381865afa1580156115b0573d6000803e3d6000fd5b505050506040513d601f19601f820116820180604052508101906115d49190614f06565b9050609860009054906101000a900473ffffffffffffffffffffffffffffffffffffffff1673ffffffffffffffffffffffffffffffffffffffff1663c26c12eb6040518163ffffffff1660e01b8152600401602060405180830381865afa158015611643573d6000803e3d6000fd5b505050506040513d601f19601f820116820180604052508101906116679190614f06565b811061167b57600180935093505050611686565b600160009350935050505b9250929050565b6116956134b0565b73ffffffffffffffffffffffffffffffffffffffff168173ffffffffffffffffffffffffffffffffffffffff1614611702576040517f08c379a00000000000000000000000000000000000000000000000000000000081526004016116f990614fa5565b60405180910390fd5b61170c82826134b8565b5050565b609860009054906101000a900473ffffffffffffffffffffffffffffffffffffffff1681565b60606000609f6000848152602001908152602001600020549050609a60009054906101000a900473ffffffffffffffffffffffffffffffffffffffff1673ffffffffffffffffffffffffffffffffffffffff1663248d9151826040518263ffffffff1660e01b81526004016117ab9190613f61565b600060405180830381865afa1580156117c8573d6000803e3d6000fd5b505050506040513d6000823e3d601f19601f820116820180604052508101906117f1919061506b565b915050919050565b6000609f6000838152602001908152602001600020549050919050565b609d602052816000526040600020818154811061183257600080fd5b9060005260206000209060040201600091509150508060000154908060010160009054906101000a900473ffffffffffffffffffffffffffffffffffffffff16908060020160009054906101000a900473ffffffffffffffffffffffffffffffffffffffff16908060030180546118a890614b8c565b80601f01602080910402602001604051908101604052809291908181526020018280546118d490614b8c565b80156119215780601f106118f657610100808354040283529160200191611921565b820191906000526020600020905b81548152906001019060200180831161190457829003601f168201915b5050505050905084565b609860009054906101000a900473ffffffffffffffffffffffffffffffffffffffff1673ffffffffffffffffffffffffffffffffffffffff1663ee06b289336040518263ffffffff1660e01b81526004016119869190614c4f565b602060405180830381865afa1580156119a3573d6000803e3d6000fd5b505050506040513d601f19601f820116820180604052508101906119c79190614c96565b611a06576040517f08c379a00000000000000000000000000000000000000000000000000000000081526004016119fd90614d35565b60405180910390fd5b600083836000818110611a1c57611a1b614ab7565b5b9050013560f81c60f81b60f81c905060008160ff1603611a815760358484905014611a7c576040517f08c379a0000000000000000000000000000000000000000000000000000000008152600401611a7390615100565b60405180910390fd5b611b71565b60018160ff1603611ad75760218484905014611ad2576040517f08c379a0000000000000000000000000000000000000000000000000000000008152600401611ac99061516c565b60405180910390fd5b611b70565b60058160ff1603611b2d5760c98484905014611b28576040517f08c379a0000000000000000000000000000000000000000000000000000000008152600401611b1f906151d8565b60405180910390fd5b611b6f565b6000611b6e576040517f08c379a0000000000000000000000000000000000000000000000000000000008152600401611b6590615244565b60405180910390fd5b5b5b5b8383600190602192611b859392919061526e565b604051602001611b969291906152e8565b6040516020818303038152906040528051906020012088604051602001611bbd9190615322565b6040516020818303038152906040528051906020012014611c13576040517f08c379a0000000000000000000000000000000000000000000000000000000008152600401611c0a90615389565b60405180910390fd5b6000611c1f858561279b565b90503373ffffffffffffffffffffffffffffffffffffffff16609960009054906101000a900473ffffffffffffffffffffffffffffffffffffffff1673ffffffffffffffffffffffffffffffffffffffff166397aba7f9838a8a6040518463ffffffff1660e01b8152600401611c97939291906153d6565b602060405180830381865afa158015611cb4573d6000803e3d6000fd5b505050506040513d601f19601f82011682018060405250810190611cd8919061541d565b73ffffffffffffffffffffffffffffffffffffffff1614611d2e576040517f08c379a0000000000000000000000000000000000000000000000000000000008152600401611d2590615496565b60405180910390fd5b6000609a60009054906101000a900473ffffffffffffffffffffffffffffffffffffffff1673ffffffffffffffffffffffffffffffffffffffff166312a58f53856040518263ffffffff1660e01b8152600401611d8b9190614dd0565b602060405180830381865afa158015611da8573d6000803e3d6000fd5b505050506040513d601f19601f82011682018060405250810190611dcc9190614e00565b905060008a8a83604051602001611de593929190615534565b6040516020818303038152906040528051906020012090508a60a660008381526020019081526020016000205403611e20575050505061217b565b8a60a66000838152602001908152602001600020819055506000801b609f60008d81526020019081526020016000205414611e5e575050505061217b565b60a760008c81526020019081526020016000206000815480929190611e8290614b15565b9190505550868660a860008681526020019081526020016000209182611ea992919061571e565b5060a960008481526020019081526020016000206000815480929190611ece90614b15565b919050555060a9600060aa60008e81526020019081526020016000205481526020019081526020016000205460a96000858152602001908152602001600020541180611f2f57506000801b60aa60008d815260200190815260200160002054145b15611f4d578260aa60008d8152602001908152602001600020819055505b60a06000867bffffffffffffffffffffffffffffffffffffffffffffffffffffffff19167bffffffffffffffffffffffffffffffffffffffffffffffffffffffff191681526020019081526020016000206000815480929190611faf90614b15565b9190505550600060a36000877bffffffffffffffffffffffffffffffffffffffffffffffffffffffff19167bffffffffffffffffffffffffffffffffffffffffffffffffffffffff19168152602001908152602001600020549050600061201587612889565b9050808211156120725781877bffffffffffffffffffffffffffffffffffffffffffffffffffffffff19168e7f41965c7df2fea64349aa6feb7128b7c020988c248478e9edb76ead33e4c9317160405160405180910390a4612174565b61207d87838f61359a565b50609a60009054906101000a900473ffffffffffffffffffffffffffffffffffffffff1673ffffffffffffffffffffffffffffffffffffffff166312a58f53886040518263ffffffff1660e01b81526004016120d99190614dd0565b602060405180830381865afa1580156120f6573d6000803e3d6000fd5b505050506040513d601f19601f8201168201806040525081019061211a9190614e00565b63ffffffff163373ffffffffffffffffffffffffffffffffffffffff168e7f0442be2a6eff0e312e87c4a6da5c9e84f3bd7e912b92c9b3f3d69159e19c59288f8f8f60405161216b939291906157ee565b60405180910390a45b5050505050505b50505050505050565b600080609a60009054906101000a900473ffffffffffffffffffffffffffffffffffffffff1673ffffffffffffffffffffffffffffffffffffffff166312a58f53846040518263ffffffff1660e01b81526004016121e29190614dd0565b602060405180830381865afa1580156121ff573d6000803e3d6000fd5b505050506040513d601f19601f820116820180604052508101906122239190614e00565b9050600085858360405160200161223c93929190615534565b6040516020818303038152906040528051906020012090508560a66000838152602001908152602001600020540361227957600192505050612280565b6000925050505b9392505050565b60a460009054906101000a900460ff1681565b60a55481565b609a60009054906101000a900473ffffffffffffffffffffffffffffffffffffffff1673ffffffffffffffffffffffffffffffffffffffff163373ffffffffffffffffffffffffffffffffffffffff16148061230557506123046000801b336127ee565b5b612344576040517f08c379a000000000000000000000000000000000000000000000000000000000815260040161233b90615892565b60405180910390fd5b60005b609b6000837bffffffffffffffffffffffffffffffffffffffffffffffffffffffff19167bffffffffffffffffffffffffffffffffffffffffffffffffffffffff1916815260200190815260200160002080549050811015612481576000609b6000847bffffffffffffffffffffffffffffffffffffffffffffffffffffffff19167bffffffffffffffffffffffffffffffffffffffffffffffffffffffff19168152602001908152602001600020828154811061240857612407614ab7565b5b906000526020600020015490506000801b60aa600083815260200190815260200160002081905550600060a7600083815260200190815260200160002081905550600060a9600060aa60008581526020019081526020016000205481526020019081526020016000208190555050806001019050612347565b50600067ffffffffffffffff81111561249d5761249c613c0c565b5b6040519080825280602002602001820160405280156124cb5781602001602082028036833780820191505090505b50609b6000837bffffffffffffffffffffffffffffffffffffffffffffffffffffffff19167bffffffffffffffffffffffffffffffffffffffffffffffffffffffff191681526020019081526020016000209080519060200190612530929190613a87565b50600060a06000837bffffffffffffffffffffffffffffffffffffffffffffffffffffffff19167bffffffffffffffffffffffffffffffffffffffffffffffffffffffff1916815260200190815260200160002081905550600060a36000837bffffffffffffffffffffffffffffffffffffffffffffffffffffffff19167bffffffffffffffffffffffffffffffffffffffffffffffffffffffff191681526020019081526020016000208190555050565b6125ef6000801b336127ee565b61262e576040517f08c379a000000000000000000000000000000000000000000000000000000000815260040161262590614c2f565b60405180910390fd5b80609a60006101000a81548173ffffffffffffffffffffffffffffffffffffffff021916908373ffffffffffffffffffffffffffffffffffffffff16021790555050565b60a26020528060005260406000206000915090505481565b609b60205281600052604060002081815481106126a657600080fd5b90600052602060002001600091509150505481565b606060006126c88361293a565b905060008151905060006126db85612889565b90508082111561278f5760008167ffffffffffffffff81111561270157612700613c0c565b5b60405190808252806020026020018201604052801561272f5781602001602082028036833780820191505090505b50905060005b82811015612782578481815181106127505761274f614ab7565b5b602002602001015182828151811061276b5761276a614ab7565b5b602002602001018181525050806001019050612735565b5080945050505050612796565b8293505050505b919050565b600082826040516127ad9291906158b2565b6040518091039020905092915050565b609e60205281600052604060002081815481106127d957600080fd5b90600052602060002001600091509150505481565b60006065600084815260200190815260200160002060000160008373ffffffffffffffffffffffffffffffffffffffff1673ffffffffffffffffffffffffffffffffffffffff16815260200190815260200160002060009054906101000a900460ff16905092915050565b60a96020528060005260406000206000915090505481565b609f6020528060005260406000206000915090505481565b60008060a26000847bffffffffffffffffffffffffffffffffffffffffffffffffffffffff19167bffffffffffffffffffffffffffffffffffffffffffffffffffffffff19168152602001908152602001600020549050600081036128f35760a1549150506128f8565b809150505b919050565b6000801b81565b60a15481565b60a36020528060005260406000206000915090505481565b60a06020528060005260406000206000915090505481565b6060609b6000837bffffffffffffffffffffffffffffffffffffffffffffffffffffffff19167bffffffffffffffffffffffffffffffffffffffffffffffffffffffff191681526020019081526020016000208054806020026020016040519081016040528092919081815260200182805480156129d757602002820191906000526020600020905b8154815260200190600101908083116129c3575b50505050509050919050565b6129f06000801b336127ee565b612a2f576040517f08c379a0000000000000000000000000000000000000000000000000000000008152600401612a2690614c2f565b60405180910390fd5b80609960006101000a81548173ffffffffffffffffffffffffffffffffffffffff021916908373ffffffffffffffffffffffffffffffffffffffff16021790555050565b60aa6020528060005260406000206000915090505481565b60008060019054906101000a900460ff16159050808015612abc5750600160008054906101000a900460ff1660ff16105b80612ae95750612acb30613725565b158015612ae85750600160008054906101000a900460ff1660ff16145b5b612b28576040517f08c379a0000000000000000000000000000000000000000000000000000000008152600401612b1f9061593d565b60405180910390fd5b60016000806101000a81548160ff021916908360ff1602179055508015612b65576001600060016101000a81548160ff0219169083151502179055505b612b6d613748565b612b7a6000801b836133cf565b600160a460006101000a81548160ff021916908315150217905550600060a460016101000a81548160ff0219169083151502179055508015612c095760008060016101000a81548160ff0219169083151502179055507f7f26b83ff96e1f2b6a682f133852f6798a09c465da95921460cefb38474024986001604051612c0091906159a5565b60405180910390a15b5050565b60008282604051602001612c229291906159e1565b60405160208183030381529060405280519060200120905092915050565b612c4d6000801b336127ee565b612c8c576040517f08c379a0000000000000000000000000000000000000000000000000000000008152600401612c8390614c2f565b60405180910390fd5b8060a58190555050565b612ca36000801b336127ee565b612ce2576040517f08c379a0000000000000000000000000000000000000000000000000000000008152600401612cd990614c2f565b60405180910390fd5b80609860006101000a81548173ffffffffffffffffffffffffffffffffffffffff021916908373ffffffffffffffffffffffffffffffffffffffff16021790555050565b60a460019054906101000a900460ff1681565b612d4282610fe5565b612d4b816133bb565b612d5583836134b8565b505050565b60a76020528060005260406000206000915090505481565b600081421015612d855760009050612e6e565b6000838342612d949190615a0d565b101590506000806000612da6896126bb565b90506000815103612dbe576000945050505050612e6e565b60005b8151811015612e5c576000828281518110612ddf57612dde614ab7565b5b60200260200101519050600060a9600060aa60008581526020019081526020016000205481526020019081526020016000205490508a60a760008481526020019081526020016000205410158015612e3757508a8110155b15612e4f57600195508480612e4b90614b15565b9550505b5050806001019050612dc1565b50838015612e675750825b9450505050505b949350505050565b60008282604051602001612e8b929190615a41565b60405160208183030381529060405280519060200120905092915050565b60a66020528060005260406000206000915090505481565b609c6020528160005260406000208181548110612edd57600080fd5b9060005260206000209060040201600091509150508060000160009054906101000a900473ffffffffffffffffffffffffffffffffffffffff16908060010160009054906101000a900473ffffffffffffffffffffffffffffffffffffffff1690806002018054612f4d90614b8c565b80601f0160208091040260200160405190810160405280929190818152602001828054612f7990614b8c565b8015612fc65780601f10612f9b57610100808354040283529160200191612fc6565b820191906000526020600020905b815481529060010190602001808311612fa957829003601f168201915b505050505090806003018054612fdb90614b8c565b80601f016020809104026020016040519081016040528092919081815260200182805461300790614b8c565b80156130545780601f1061302957610100808354040283529160200191613054565b820191906000526020600020905b81548152906001019060200180831161303757829003601f168201915b5050505050905084565b61306b6000801b336127ee565b6130aa576040517f08c379a00000000000000000000000000000000000000000000000000000000081526004016130a190614c2f565b60405180910390fd5b8060a26000847bffffffffffffffffffffffffffffffffffffffffffffffffffffffff19167bffffffffffffffffffffffffffffffffffffffffffffffffffffffff19168152602001908152602001600020819055505050565b609860009054906101000a900473ffffffffffffffffffffffffffffffffffffffff1673ffffffffffffffffffffffffffffffffffffffff1663ee06b289336040518263ffffffff1660e01b815260040161315f9190614c4f565b602060405180830381865afa15801561317c573d6000803e3d6000fd5b505050506040513d601f19601f820116820180604052508101906131a09190614c96565b6131df576040517f08c379a00000000000000000000000000000000000000000000000000000000081526004016131d690614d35565b60405180910390fd5b878790508a8a90501480156131f95750858590508a8a9050145b801561320a5750818190508a8a9050145b613249576040517f08c379a000000000000000000000000000000000000000000000000000000000815260040161324090614da1565b60405180910390fd5b60005b8a8a905081101561331e576133138b8b8381811061326d5761326c614ab7565b5b905060200201358a8a8481811061328757613286614ab7565b5b905060200201602081019061329c91906147f8565b8989858181106132af576132ae614ab7565b5b90506020028101906132c19190614e3c565b8989878181106132d4576132d3614ab7565b5b90506020028101906132e69190614e3c565b8989898181106132f9576132f8614ab7565b5b905060200201602081019061330e9190613b5d565b61192b565b80600101905061324c565b5050505050505050505050565b609960009054906101000a900473ffffffffffffffffffffffffffffffffffffffff1681565b60007f01ffc9a7000000000000000000000000000000000000000000000000000000007bffffffffffffffffffffffffffffffffffffffffffffffffffffffff1916827bffffffffffffffffffffffffffffffffffffffffffffffffffffffff1916149050919050565b6133cc816133c76134b0565b613799565b50565b6133d982826127ee565b6134ac5760016065600084815260200190815260200160002060000160008373ffffffffffffffffffffffffffffffffffffffff1673ffffffffffffffffffffffffffffffffffffffff16815260200190815260200160002060006101000a81548160ff0219169083151502179055506134516134b0565b73ffffffffffffffffffffffffffffffffffffffff168173ffffffffffffffffffffffffffffffffffffffff16837f2f8788117e7eff1d82e926ec794901d17c78024a50270940304540a733656f0d60405160405180910390a45b5050565b600033905090565b6134c282826127ee565b156135965760006065600084815260200190815260200160002060000160008373ffffffffffffffffffffffffffffffffffffffff1673ffffffffffffffffffffffffffffffffffffffff16815260200190815260200160002060006101000a81548160ff02191690831515021790555061353b6134b0565b73ffffffffffffffffffffffffffffffffffffffff168173ffffffffffffffffffffffffffffffffffffffff16837ff6391f5c32d9c69d2a47ea670b442974b53935d1edc7fd64eb21e047a839171b60405160405180910390a45b5050565b6000806000905060005b848110156136345783609b6000887bffffffffffffffffffffffffffffffffffffffffffffffffffffffff19167bffffffffffffffffffffffffffffffffffffffffffffffffffffffff1916815260200190815260200160002082815481106136105761360f614ab7565b5b9060005260206000200154036136295760019150613634565b8060010190506135a4565b508061371a57609b6000867bffffffffffffffffffffffffffffffffffffffffffffffffffffffff19167bffffffffffffffffffffffffffffffffffffffffffffffffffffffff1916815260200190815260200160002083908060018154018082558091505060019003906000526020600020016000909190919091505560a36000867bffffffffffffffffffffffffffffffffffffffffffffffffffffffff19167bffffffffffffffffffffffffffffffffffffffffffffffffffffffff19168152602001908152602001600020600081548092919061371490614b15565b91905055505b809150509392505050565b6000808273ffffffffffffffffffffffffffffffffffffffff163b119050919050565b600060019054906101000a900460ff16613797576040517f08c379a000000000000000000000000000000000000000000000000000000000815260040161378e90615adf565b60405180910390fd5b565b6137a382826127ee565b61381a576137b08161381e565b6137be8360001c602061384b565b6040516020016137cf929190615bde565b6040516020818303038152906040526040517f08c379a00000000000000000000000000000000000000000000000000000000081526004016138119190615c51565b60405180910390fd5b5050565b60606138448273ffffffffffffffffffffffffffffffffffffffff16601460ff1661384b565b9050919050565b60606000600283600261385e9190615c73565b6138689190615cb5565b67ffffffffffffffff81111561388157613880613c0c565b5b6040519080825280601f01601f1916602001820160405280156138b35781602001600182028036833780820191505090505b5090507f3000000000000000000000000000000000000000000000000000000000000000816000815181106138eb576138ea614ab7565b5b60200101907effffffffffffffffffffffffffffffffffffffffffffffffffffffffffffff1916908160001a9053507f78000000000000000000000000000000000000000000000000000000000000008160018151811061394f5761394e614ab7565b5b60200101907effffffffffffffffffffffffffffffffffffffffffffffffffffffffffffff1916908160001a9053506000600184600261398f9190615c73565b6139999190615cb5565b90505b6001811115613a39577f3031323334353637383961626364656600000000000000000000000000000000600f8616601081106139db576139da614ab7565b5b1a60f81b8282815181106139f2576139f1614ab7565b5b60200101907effffffffffffffffffffffffffffffffffffffffffffffffffffffffffffff1916908160001a905350600485901c945080613a3290615ce9565b905061399c565b5060008414613a7d576040517f08c379a0000000000000000000000000000000000000000000000000000000008152600401613a7490615d5e565b60405180910390fd5b8091505092915050565b828054828255906000526020600020908101928215613ac3579160200282015b82811115613ac2578251825591602001919060010190613aa7565b5b509050613ad09190613ad4565b5090565b5b80821115613aed576000816000905550600101613ad5565b5090565b6000604051905090565b600080fd5b600080fd5b60007fffffffff0000000000000000000000000000000000000000000000000000000082169050919050565b613b3a81613b05565b8114613b4557600080fd5b50565b600081359050613b5781613b31565b92915050565b600060208284031215613b7357613b72613afb565b5b6000613b8184828501613b48565b91505092915050565b60008115159050919050565b613b9f81613b8a565b82525050565b6000602082019050613bba6000830184613b96565b92915050565b6000819050919050565b613bd381613bc0565b8114613bde57600080fd5b50565b600081359050613bf081613bca565b92915050565b600080fd5b6000601f19601f8301169050919050565b7f4e487b7100000000000000000000000000000000000000000000000000000000600052604160045260246000fd5b613c4482613bfb565b810181811067ffffffffffffffff82111715613c6357613c62613c0c565b5b80604052505050565b6000613c76613af1565b9050613c828282613c3b565b919050565b600067ffffffffffffffff821115613ca257613ca1613c0c565b5b602082029050602081019050919050565b600080fd5b6000613ccb613cc684613c87565b613c6c565b90508083825260208201905060208402830185811115613cee57613ced613cb3565b5b835b81811015613d175780613d038882613be1565b845260208401935050602081019050613cf0565b5050509392505050565b600082601f830112613d3657613d35613bf6565b5b8135613d46848260208601613cb8565b91505092915050565b60008060408385031215613d6657613d65613afb565b5b6000613d7485828601613be1565b925050602083013567ffffffffffffffff811115613d9557613d94613b00565b5b613da185828601613d21565b9150509250929050565b600060208284031215613dc157613dc0613afb565b5b6000613dcf84828501613be1565b91505092915050565b600081519050919050565b600082825260208201905092915050565b6000819050602082019050919050565b613e0d81613bc0565b82525050565b6000613e1f8383613e04565b60208301905092915050565b6000602082019050919050565b6000613e4382613dd8565b613e4d8185613de3565b9350613e5883613df4565b8060005b83811015613e89578151613e708882613e13565b9750613e7b83613e2b565b925050600181019050613e5c565b5085935050505092915050565b60006020820190508181036000830152613eb08184613e38565b905092915050565b600073ffffffffffffffffffffffffffffffffffffffff82169050919050565b6000819050919050565b6000613efd613ef8613ef384613eb8565b613ed8565b613eb8565b9050919050565b6000613f0f82613ee2565b9050919050565b6000613f2182613f04565b9050919050565b613f3181613f16565b82525050565b6000602082019050613f4c6000830184613f28565b92915050565b613f5b81613bc0565b82525050565b6000602082019050613f766000830184613f52565b92915050565b600081519050919050565b600082825260208201905092915050565b60005b83811015613fb6578082015181840152602081019050613f9b565b60008484015250505050565b6000613fcd82613f7c565b613fd78185613f87565b9350613fe7818560208601613f98565b613ff081613bfb565b840191505092915050565b600060208201905081810360008301526140158184613fc2565b905092915050565b6000819050919050565b6140308161401d565b811461403b57600080fd5b50565b60008135905061404d81614027565b92915050565b60006020828403121561406957614068613afb565b5b60006140778482850161403e565b91505092915050565b600061408b82613f04565b9050919050565b61409b81614080565b82525050565b60006020820190506140b66000830184614092565b92915050565b60006140c782613eb8565b9050919050565b6140d7816140bc565b81146140e257600080fd5b50565b6000813590506140f4816140ce565b92915050565b6000806040838503121561411157614110613afb565b5b600061411f85828601613be1565b9250506020614130858286016140e5565b9150509250929050565b600080fd5b60008083601f84011261415557614154613bf6565b5b8235905067ffffffffffffffff8111156141725761417161413a565b5b60208301915083602082028301111561418e5761418d613cb3565b5b9250929050565b60008083601f8401126141ab576141aa613bf6565b5b8235905067ffffffffffffffff8111156141c8576141c761413a565b5b6020830191508360208202830111156141e4576141e3613cb3565b5b9250929050565b60008083601f84011261420157614200613bf6565b5b8235905067ffffffffffffffff81111561421e5761421d61413a565b5b60208301915083602082028301111561423a57614239613cb3565b5b9250929050565b60008083601f84011261425757614256613bf6565b5b8235905067ffffffffffffffff8111156142745761427361413a565b5b6020830191508360208202830111156142905761428f613cb3565b5b9250929050565b60008060008060008060008060008060a08b8d0312156142ba576142b9613afb565b5b60008b013567ffffffffffffffff8111156142d8576142d7613b00565b5b6142e48d828e0161413f565b9a509a505060208b013567ffffffffffffffff81111561430757614306613b00565b5b6143138d828e01614195565b985098505060408b013567ffffffffffffffff81111561433657614335613b00565b5b6143428d828e016141eb565b965096505060608b013567ffffffffffffffff81111561436557614364613b00565b5b6143718d828e016141eb565b945094505060808b013567ffffffffffffffff81111561439457614393613b00565b5b6143a08d828e01614241565b92509250509295989b9194979a5092959850565b600080604083850312156143cb576143ca613afb565b5b60006143d985828601613b48565b92505060206143ea85828601613be1565b9150509250929050565b60006040820190506144096000830185613b96565b6144166020830184613b96565b9392505050565b600061442882613ee2565b9050919050565b600061443a8261441d565b9050919050565b61444a8161442f565b82525050565b60006020820190506144656000830184614441565b92915050565b6000806040838503121561448257614481613afb565b5b600061449085828601613be1565b92505060206144a18582860161403e565b9150509250929050565b6144b4816140bc565b82525050565b60006080820190506144cf6000830187613f52565b6144dc60208301866144ab565b6144e960408301856144ab565b81810360608301526144fb8184613fc2565b905095945050505050565b60008083601f84011261451c5761451b613bf6565b5b8235905067ffffffffffffffff8111156145395761453861413a565b5b60208301915083600182028301111561455557614554613cb3565b5b9250929050565b600080600080600080600060a0888a03121561457b5761457a613afb565b5b60006145898a828b01613be1565b975050602061459a8a828b016140e5565b965050604088013567ffffffffffffffff8111156145bb576145ba613b00565b5b6145c78a828b01614506565b9550955050606088013567ffffffffffffffff8111156145ea576145e9613b00565b5b6145f68a828b01614506565b935093505060806146098a828b01613b48565b91505092959891949750929550565b60008060006060848603121561463157614630613afb565b5b600061463f86828701613be1565b9350506020614650868287016140e5565b925050604061466186828701613b48565b9150509250925092565b6000614676826140bc565b9050919050565b6146868161466b565b811461469157600080fd5b50565b6000813590506146a38161467d565b92915050565b6000602082840312156146bf576146be613afb565b5b60006146cd84828501614694565b91505092915050565b6146df8161401d565b82525050565b60006020820190506146fa60008301846146d6565b92915050565b6000806040838503121561471757614716613afb565b5b600061472585828601613b48565b92505060206147368582860161403e565b9150509250929050565b6000806020838503121561475757614756613afb565b5b600083013567ffffffffffffffff81111561477557614774613b00565b5b61478185828601614506565b92509250509250929050565b6000614798826140bc565b9050919050565b6147a88161478d565b81146147b357600080fd5b50565b6000813590506147c58161479f565b92915050565b6000602082840312156147e1576147e0613afb565b5b60006147ef848285016147b6565b91505092915050565b60006020828403121561480e5761480d613afb565b5b600061481c848285016140e5565b91505092915050565b600063ffffffff82169050919050565b61483e81614825565b811461484957600080fd5b50565b60008135905061485b81614835565b92915050565b6000806040838503121561487857614877613afb565b5b600061488685828601613b48565b92505060206148978582860161484c565b9150509250929050565b60006148ac82613eb8565b9050919050565b60006148be826148a1565b9050919050565b6148ce816148b3565b81146148d957600080fd5b50565b6000813590506148eb816148c5565b92915050565b60006020828403121561490757614906613afb565b5b6000614915848285016148dc565b91505092915050565b6000806000806080858703121561493857614937613afb565b5b600061494687828801613b48565b94505060206149578782880161403e565b93505060406149688782880161403e565b92505060606149798782880161403e565b91505092959194509250565b600060808201905061499a60008301876144ab565b6149a760208301866144ab565b81810360408301526149b98185613fc2565b905081810360608301526149cd8184613fc2565b905095945050505050565b60006149e382613f04565b9050919050565b6149f3816149d8565b82525050565b6000602082019050614a0e60008301846149ea565b92915050565b600082825260208201905092915050565b7f4f6e6c7920746865206174746573746174696f6e42617463684d616b6572206360008201527f616e2063616c6c20746869732066756e6374696f6e0000000000000000000000602082015250565b6000614a81603583614a14565b9150614a8c82614a25565b604082019050919050565b60006020820190508181036000830152614ab081614a74565b9050919050565b7f4e487b7100000000000000000000000000000000000000000000000000000000600052603260045260246000fd5b7f4e487b7100000000000000000000000000000000000000000000000000000000600052601160045260246000fd5b6000614b208261401d565b91507fffffffffffffffffffffffffffffffffffffffffffffffffffffffffffffffff8203614b5257614b51614ae6565b5b600182019050919050565b7f4e487b7100000000000000000000000000000000000000000000000000000000600052602260045260246000fd5b60006002820490506001821680614ba457607f821691505b602082108103614bb757614bb6614b5d565b5b50919050565b7f4f6e6c79206f776e65722063616e2063616c6c20746869732066756e6374696f60008201527f6e00000000000000000000000000000000000000000000000000000000000000602082015250565b6000614c19602183614a14565b9150614c2482614bbd565b604082019050919050565b60006020820190508181036000830152614c4881614c0c565b9050919050565b6000602082019050614c6460008301846144ab565b92915050565b614c7381613b8a565b8114614c7e57600080fd5b50565b600081519050614c9081614c6a565b92915050565b600060208284031215614cac57614cab613afb565b5b6000614cba84828501614c81565b91505092915050565b7f4f6e6c792063757272656e7420636f6d6d6974746565206d656d62657220636160008201527f6e2063616c6c20746869732066756e6374696f6e000000000000000000000000602082015250565b6000614d1f603483614a14565b9150614d2a82614cc3565b604082019050919050565b60006020820190508181036000830152614d4e81614d12565b9050919050565b7f4174746573746174696f6e426f6f6b3a20696e76616c696420696e7075740000600082015250565b6000614d8b601e83614a14565b9150614d9682614d55565b602082019050919050565b60006020820190508181036000830152614dba81614d7e565b9050919050565b614dca81613b05565b82525050565b6000602082019050614de56000830184614dc1565b92915050565b600081519050614dfa81614835565b92915050565b600060208284031215614e1657614e15613afb565b5b6000614e2484828501614deb565b91505092915050565b600080fd5b600080fd5b600080fd5b60008083356001602003843603038112614e5957614e58614e2d565b5b80840192508235915067ffffffffffffffff821115614e7b57614e7a614e32565b5b602083019250600182023603831315614e9757614e96614e37565b5b509250929050565b6000604082019050614eb460008301856146d6565b614ec160208301846146d6565b9392505050565b6000604082019050614edd6000830185613f52565b614eea6020830184614dc1565b9392505050565b600081519050614f0081614027565b92915050565b600060208284031215614f1c57614f1b613afb565b5b6000614f2a84828501614ef1565b91505092915050565b7f416363657373436f6e74726f6c3a2063616e206f6e6c792072656e6f756e636560008201527f20726f6c657320666f722073656c660000000000000000000000000000000000602082015250565b6000614f8f602f83614a14565b9150614f9a82614f33565b604082019050919050565b60006020820190508181036000830152614fbe81614f82565b9050919050565b600080fd5b600067ffffffffffffffff821115614fe557614fe4613c0c565b5b614fee82613bfb565b9050602081019050919050565b600061500e61500984614fca565b613c6c565b90508281526020810184848401111561502a57615029614fc5565b5b615035848285613f98565b509392505050565b600082601f83011261505257615051613bf6565b5b8151615062848260208601614ffb565b91505092915050565b60006020828403121561508157615080613afb565b5b600082015167ffffffffffffffff81111561509f5761509e613b00565b5b6150ab8482850161503d565b91505092915050565b7f5341423200000000000000000000000000000000000000000000000000000000600082015250565b60006150ea600483614a14565b91506150f5826150b4565b602082019050919050565b60006020820190508181036000830152615119816150dd565b9050919050565b7f5341423300000000000000000000000000000000000000000000000000000000600082015250565b6000615156600483614a14565b915061516182615120565b602082019050919050565b6000602082019050818103600083015261518581615149565b9050919050565b7f5341423400000000000000000000000000000000000000000000000000000000600082015250565b60006151c2600483614a14565b91506151cd8261518c565b602082019050919050565b600060208201905081810360008301526151f1816151b5565b9050919050565b7f5341423500000000000000000000000000000000000000000000000000000000600082015250565b600061522e600483614a14565b9150615239826151f8565b602082019050919050565b6000602082019050818103600083015261525d81615221565b9050919050565b600080fd5b600080fd5b6000808585111561528257615281615264565b5b8386111561529357615292615269565b5b6001850283019150848603905094509492505050565b600081905092915050565b82818337600083830152505050565b60006152cf83856152a9565b93506152dc8385846152b4565b82840190509392505050565b60006152f58284866152c3565b91508190509392505050565b6000819050919050565b61531c61531782613bc0565b615301565b82525050565b600061532e828461530b565b60208201915081905092915050565b7f5341423600000000000000000000000000000000000000000000000000000000600082015250565b6000615373600483614a14565b915061537e8261533d565b602082019050919050565b600060208201905081810360008301526153a281615366565b9050919050565b60006153b58385613f87565b93506153c28385846152b4565b6153cb83613bfb565b840190509392505050565b60006040820190506153eb6000830186613f52565b81810360208301526153fe8184866153a9565b9050949350505050565b600081519050615417816140ce565b92915050565b60006020828403121561543357615432613afb565b5b600061544184828501615408565b91505092915050565b7f5341423900000000000000000000000000000000000000000000000000000000600082015250565b6000615480600483614a14565b915061548b8261544a565b602082019050919050565b600060208201905081810360008301526154af81615473565b9050919050565b60008160601b9050919050565b60006154ce826154b6565b9050919050565b60006154e0826154c3565b9050919050565b6154f86154f3826140bc565b6154d5565b82525050565b60008160e01b9050919050565b6000615516826154fe565b9050919050565b61552e61552982614825565b61550b565b82525050565b6000615540828661530b565b60208201915061555082856154e7565b601482019150615560828461551d565b600482019150819050949350505050565b600082905092915050565b60008190508160005260206000209050919050565b60006020601f8301049050919050565b600082821b905092915050565b6000600883026155de7fffffffffffffffffffffffffffffffffffffffffffffffffffffffffffffffff826155a1565b6155e886836155a1565b95508019841693508086168417925050509392505050565b600061561b6156166156118461401d565b613ed8565b61401d565b9050919050565b6000819050919050565b61563583615600565b61564961564182615622565b8484546155ae565b825550505050565b600090565b61565e615651565b61566981848461562c565b505050565b5b8181101561568d57615682600082615656565b60018101905061566f565b5050565b601f8211156156d2576156a38161557c565b6156ac84615591565b810160208510156156bb578190505b6156cf6156c785615591565b83018261566e565b50505b505050565b600082821c905092915050565b60006156f5600019846008026156d7565b1980831691505092915050565b600061570e83836156e4565b9150826002028217905092915050565b6157288383615571565b67ffffffffffffffff81111561574157615740613c0c565b5b61574b8254614b8c565b615756828285615691565b6000601f8311600181146157855760008415615773578287013590505b61577d8582615702565b8655506157e5565b601f1984166157938661557c565b60005b828110156157bb57848901358255600182019150602085019450602081019050615796565b868310156157d857848901356157d4601f8916826156e4565b8355505b6001600288020188555050505b50505050505050565b600060408201905061580360008301866144ab565b81810360208301526158168184866153a9565b9050949350505050565b7f4f6e6c7920746865206174746573746174696f6e42617463684d616b6572206f60008201527f72206f776e65722063616e2063616c6c20746869732066756e6374696f6e0000602082015250565b600061587c603e83614a14565b915061588782615820565b604082019050919050565b600060208201905081810360008301526158ab8161586f565b9050919050565b60006158bf8284866152c3565b91508190509392505050565b7f496e697469616c697a61626c653a20636f6e747261637420697320616c72656160008201527f647920696e697469616c697a6564000000000000000000000000000000000000602082015250565b6000615927602e83614a14565b9150615932826158cb565b604082019050919050565b600060208201905081810360008301526159568161591a565b9050919050565b6000819050919050565b600060ff82169050919050565b600061598f61598a6159858461595d565b613ed8565b615967565b9050919050565b61599f81615974565b82525050565b60006020820190506159ba6000830184615996565b92915050565b6000819050919050565b6159db6159d682613b05565b6159c0565b82525050565b60006159ed82856159ca565b6004820191506159fd828461551d565b6004820191508190509392505050565b6000615a188261401d565b9150615a238361401d565b9250828203905081811115615a3b57615a3a614ae6565b5b92915050565b6000615a4d82856159ca565b600482019150615a5d828461530b565b6020820191508190509392505050565b7f496e697469616c697a61626c653a20636f6e7472616374206973206e6f74206960008201527f6e697469616c697a696e67000000000000000000000000000000000000000000602082015250565b6000615ac9602b83614a14565b9150615ad482615a6d565b604082019050919050565b60006020820190508181036000830152615af881615abc565b9050919050565b600081905092915050565b7f416363657373436f6e74726f6c3a206163636f756e7420000000000000000000600082015250565b6000615b40601783615aff565b9150615b4b82615b0a565b601782019050919050565b600081519050919050565b6000615b6c82615b56565b615b768185615aff565b9350615b86818560208601613f98565b80840191505092915050565b7f206973206d697373696e6720726f6c6520000000000000000000000000000000600082015250565b6000615bc8601183615aff565b9150615bd382615b92565b601182019050919050565b6000615be982615b33565b9150615bf58285615b61565b9150615c0082615bbb565b9150615c0c8284615b61565b91508190509392505050565b6000615c2382615b56565b615c2d8185614a14565b9350615c3d818560208601613f98565b615c4681613bfb565b840191505092915050565b60006020820190508181036000830152615c6b8184615c18565b905092915050565b6000615c7e8261401d565b9150615c898361401d565b9250828202615c978161401d565b91508282048414831517615cae57615cad614ae6565b5b5092915050565b6000615cc08261401d565b9150615ccb8361401d565b9250828201905080821115615ce357615ce2614ae6565b5b92915050565b6000615cf48261401d565b915060008203615d0757615d06614ae6565b5b600182039050919050565b7f537472696e67733a20686578206c656e67746820696e73756666696369656e74600082015250565b6000615d48602083614a14565b9150615d5382615d12565b602082019050919050565b60006020820190508181036000830152615d7781615d3b565b905091905056fea2646970667358221220d7c1b1e8e97602012c6396329bc578b4332f5d9701a7e174ad6dda0a7876565564736f6c63430008180033",
  "linkReferences": {},
  "deployedLinkReferences": {}
}